{
  "_format": "hh-sol-artifact-1",
  "contractName": "SecretPhraseVerifier",
  "sourceName": "contracts/SecretPhraseVerifier_bk.sol",
  "abi": [
    {
      "inputs": [
        {
          "internalType": "uint256[24]",
          "name": "_proof",
          "type": "uint256[24]"
        },
        {
          "internalType": "uint256",
          "name": "_eventId",
          "type": "uint256"
        }
      ],
      "name": "submitProof",
      "outputs": [],
      "stateMutability": "nonpayable",
      "type": "function"
    },
    {
      "inputs": [
        {
          "internalType": "uint256[24]",
          "name": "_proof",
          "type": "uint256[24]"
        },
        {
          "internalType": "uint256[2]",
          "name": "_pubSignals",
          "type": "uint256[2]"
        },
        {
          "internalType": "uint256",
          "name": "_eventId",
          "type": "uint256"
        }
      ],
      "name": "verifyProof",
      "outputs": [
        {
          "internalType": "bool",
          "name": "",
          "type": "bool"
        }
      ],
      "stateMutability": "view",
      "type": "function"
    }
  ],
  "bytecode": "0x608060405234801561001057600080fd5b50611e66806100206000396000f3fe608060405234801561001057600080fd5b50600436106100365760003560e01c80630b42a08e1461003b578063c6bc72721461006b575b600080fd5b61005560048036038101906100509190611c9b565b610087565b6040516100629190611d0c565b60405180910390f35b61008560048036038101906100809190611d27565b611b68565b005b60006001151560008084815260200190815260200160002060006100e1876018806020026040519081016040528092919082601860200280828437600081840152601f19601f820116905080830192505050505050611be7565b815260200190815260200160002060009054906101000a900460ff161515141561010e5760009050611b61565b611af2565b600080600184846000805b8215610148578284059150848202860390508495508094508282028403905082935080925061011e565b600184111561015657600080fd5b60008612156101655788860195505b85965050505050505092915050565b60405181602084028301815160208301925060005b828410156101cc578185527f30644e72e131a029b85045b68181585d2833e84879b9709143e1f593f0000001845183099150602085019450602084019350610189565b6101f67f30644e72e131a029b85045b68181585d2833e84879b9709143e1f593f000000183610113565b91506020850394506020840393508592505b82841115610272577f30644e72e131a029b85045b68181585d2833e84879b9709143e1f593f00000018551830990507f30644e72e131a029b85045b68181585d2833e84879b9709143e1f593f0000001845183099150808452602085039450602084039350610208565b81845250505050505050565b7f30644e72e131a029b85045b68181585d2833e84879b9709143e1f593f000000181106102af576000805260206000f35b50565b6102be6102443561027e565b6102ca6102643561027e565b6102d66102843561027e565b6102e26102a43561027e565b6102ee6102c43561027e565b6102fa6102e43561027e565b565b6000806040517f04b99080a6fd5a1905e6f2e3ebe5ed52ef1271587bf8653e4010c877d800679d81527f09a56c99a97506cfd7ca83650296d69823cd58c46e9e8bc791d9e88b7998a08660208201527f2d5f277f8d0762c3a8717bb5368a260892fff02444aa0afcbbfad4cbd2acf15f60408201527f08e91701d026d3452e5677bf93c4953dadb9757a3c637b4684d5dfa8db1453f660608201527f0a0bc870a13735c455402ad6d666f6fba0c311aaea684019921fbf6f33603cbb60808201527f0daf27912e7c3d65dfff5f7aa30270310663075a4de98ea209de0e138b950ea260a08201527f2ac5f4c11bdeb9b25fc561127595de099430bef09ebb66f96ef20298e17b84b460c08201527f2d407ab1899986cef0408dde789116130592edc8175afd84568d767a874a292960e0820152600061010082015260006101208201527f0aae71f8d95161b833765727b3d899f41f73e8fa7287193dbecbfe71f3a388ea6101408201527f128ddb7ae70fbf55379138946be983f57abbda26cccbc348adbd9f3c3c2461216101608201527f2d84f84e056b95d485d208be10fcb7bd5ea16237ebf3a952d4505096cc860f286101808201527f3055ac70dd6dc432458f2b9b8fec638c8cb5a2f82fe09621d6ae10773aa146286101a08201527f19884a17e4ae5ccbfd7dce05d534ebee6c303f0f006aa90315e7bbfa19a4b0d16101c08201527f055c5e02feeef3b6c36d5227c77268b17e700582bf7b27ca8e4fe84bed58d7c76101e0820152600085013561020082015260208501356102208201526004356102408201526020600401356102608201526044356102808201526020604401356102a08201526084356102c08201526020608401356102e08201527f30644e72e131a029b85045b68181585d2833e84879b9709143e1f593f000000161030082200692508260208501527f30644e72e131a029b85045b68181585d2833e84879b9709143e1f593f0000001602080860120066040850152602084015181526040840151602082015260c4356040820152602060c4013560608201527f30644e72e131a029b85045b68181585d2833e84879b9709143e1f593f0000001608082200691508160008501527f30644e72e131a029b85045b68181585d2833e84879b9709143e1f593f00000018283096102c08501528181526101043560208201526020610104013560408201526101443560608201526020610144013560808201526101843560a08201526020610184013560c08201527f30644e72e131a029b85045b68181585d2833e84879b9709143e1f593f000000160e082200691508160608501528181526102443560208201526102643560408201526102843560608201526102a43560808201526102c43560a08201526102e43560c08201527f30644e72e131a029b85045b68181585d2833e84879b9709143e1f593f000000160e08220068060c08601527f30644e72e131a029b85045b68181585d2833e84879b9709143e1f593f000000183850960a08601527f30644e72e131a029b85045b68181585d2833e84879b9709143e1f593f000000183840992507f30644e72e131a029b85045b68181585d2833e84879b9709143e1f593f000000183840992507f30644e72e131a029b85045b68181585d2833e84879b9709143e1f593f000000183840992508260808601527f30644e72e131a029b85045b68181585d2833e84879b9709143e1f593f0000001806001850301069250826102e0860152826103008601527f30644e72e131a029b85045b68181585d2833e84879b9709143e1f593f000000181820992508260e08601527f30644e72e131a029b85045b68181585d2833e84879b9709143e1f593f00000018184099250826101008601527f30644e72e131a029b85045b68181585d2833e84879b9709143e1f593f00000018184099250826101208601527f30644e72e131a029b85045b68181585d2833e84879b9709143e1f593f00000018184099250826101408601526101c435825260206101c4013560208301526102043560408301526020610204013560608301527f30644e72e131a029b85045b68181585d2833e84879b9709143e1f593f00000016080832006610160860152505050505050565b60017f30644e72e131a029b85045b68181585d2833e84879b9709143e1f593f0000001807f30644e72e131a029b85045b68181585d2833e84879b9709143e1f593f00000018360608601510301066008096103208301527f30644e72e131a029b85045b68181585d2833e84879b9709143e1f593f00000017f2b337de1c8c14f22ec9b9e2f96afef3652627366f8170a0a948dad4ac1bd5e80820990507f30644e72e131a029b85045b68181585d2833e84879b9709143e1f593f0000001807f30644e72e131a029b85045b68181585d2833e84879b9709143e1f593f0000001836060860151030106600809610340830152610a1360036103008401610174565b6102e0820151600191507f30644e72e131a029b85045b68181585d2833e84879b9709143e1f593f000000181610320850151096103208401527f30644e72e131a029b85045b68181585d2833e84879b9709143e1f593f00000017f2b337de1c8c14f22ec9b9e2f96afef3652627366f8170a0a948dad4ac1bd5e80830991507f30644e72e131a029b85045b68181585d2833e84879b9709143e1f593f00000018082610340860151098309610340840152505050565b60007f30644e72e131a029b85045b68181585d2833e84879b9709143e1f593f0000001807f30644e72e131a029b85045b68181585d2833e84879b9709143e1f593f00000016000860135610320860151098303010690507f30644e72e131a029b85045b68181585d2833e84879b9709143e1f593f0000001807f30644e72e131a029b85045b68181585d2833e84879b9709143e1f593f000000160208601356103408601510983030106905080610180830152505050565b6101808101517f30644e72e131a029b85045b68181585d2833e84879b9709143e1f593f00000016102c0830151610320840151097f30644e72e131a029b85045b68181585d2833e84879b9709143e1f593f0000001806102a43560208601510961024435087f30644e72e131a029b85045b68181585d2833e84879b9709143e1f593f00000016040850151820890507f30644e72e131a029b85045b68181585d2833e84879b9709143e1f593f0000001806102c43560208701510961026435087f30644e72e131a029b85045b68181585d2833e84879b9709143e1f593f00000016040860151820890507f30644e72e131a029b85045b68181585d2833e84879b9709143e1f593f0000001604086015161028435087f30644e72e131a029b85045b68181585d2833e84879b9709143e1f593f0000001817f30644e72e131a029b85045b68181585d2833e84879b9709143e1f593f0000001848609097f30644e72e131a029b85045b68181585d2833e84879b9709143e1f593f00000016102e435820990507f30644e72e131a029b85045b68181585d2833e84879b9709143e1f593f00000016000880151820990507f30644e72e131a029b85045b68181585d2833e84879b9709143e1f593f000000180867f30644e72e131a029b85045b68181585d2833e84879b9709143e1f593f0000001030687087f30644e72e131a029b85045b68181585d2833e84879b9709143e1f593f000000180837f30644e72e131a029b85045b68181585d2833e84879b9709143e1f593f0000001030682089050806101a08901525050505050505050565b81518152602082015160208201525050565b818152826020820152505050565b81358152602082013560208201525050565b6040518151815260208201516020820152825160408201526020830151606082015260408260808360066107d05a03fa80610e44576000805260206000f35b50505050565b600060405183815284602082015285604082015260408160608360076107d05a03fa915081610e7d576000805260206000f35b825160408201526020830151606082015260408360808360066107d05a03fa915081610ead576000805260206000f35b505050505050565b600060405183815284602082015285604082015260408360608360076107d05a03fa915081610ee8576000805260206000f35b505050505050565b610f01836020840151845184610eb5565b505050565b6101c0810160408201516040516101008101604052610f2760008085610de5565b610f9c7f30644e72e131a029b85045b68181585d2833e84879b9709143e1f593f00000016102643561024435097f09a56c99a97506cfd7ca83650296d69823cd58c46e9e8bc791d9e88b7998a0867f04b99080a6fd5a1905e6f2e3ebe5ed52ef1271587bf8653e4010c877d800679d86610e4a565b610feb610244357f08e91701d026d3452e5677bf93c4953dadb9757a3c637b4684d5dfa8db1453f67f2d5f277f8d0762c3a8717bb5368a260892fff02444aa0afcbbfad4cbd2acf15f86610e4a565b61103a610264357f0daf27912e7c3d65dfff5f7aa30270310663075a4de98ea209de0e138b950ea27f0a0bc870a13735c455402ad6d666f6fba0c311aaea684019921fbf6f33603cbb86610e4a565b611089610284357f2d407ab1899986cef0408dde789116130592edc8175afd84568d767a874a29297f2ac5f4c11bdeb9b25fc561127595de099430bef09ebb66f96ef20298e17b84b486610e4a565b60a08401517f30644e72e131a029b85045b68181585d2833e84879b9709143e1f593f0000001837f30644e72e131a029b85045b68181585d2833e84879b9709143e1f593f0000001836102443508087f30644e72e131a029b85045b68181585d2833e84879b9709143e1f593f0000001847f30644e72e131a029b85045b68181585d2833e84879b9709143e1f593f000000180600286096102643508087f30644e72e131a029b85045b68181585d2833e84879b9709143e1f593f0000001857f30644e72e131a029b85045b68181585d2833e84879b9709143e1f593f000000180600387096102843508087f30644e72e131a029b85045b68181585d2833e84879b9709143e1f593f000000160008901517f30644e72e131a029b85045b68181585d2833e84879b9709143e1f593f0000001837f30644e72e131a029b85045b68181585d2833e84879b9709143e1f593f000000186880909097f30644e72e131a029b85045b68181585d2833e84879b9709143e1f593f00000016102c08a01516103208b01510961121e60c460c08901610df3565b6112777f30644e72e131a029b85045b68181585d2833e84879b9709143e1f593f00000016101608c01517f30644e72e131a029b85045b68181585d2833e84879b9709143e1f593f00000018486080860c0890189610ef0565b7f30644e72e131a029b85045b68181585d2833e84879b9709143e1f593f0000001887f30644e72e131a029b85045b68181585d2833e84879b9709143e1f593f0000001806102a43560208f01510961024435080894507f30644e72e131a029b85045b68181585d2833e84879b9709143e1f593f0000001887f30644e72e131a029b85045b68181585d2833e84879b9709143e1f593f0000001806102c43560208f01510961026435080893507f30644e72e131a029b85045b68181585d2833e84879b9709143e1f593f00000016102e4357f30644e72e131a029b85045b68181585d2833e84879b9709143e1f593f000000160208d015160008e01510909925061140c7f30644e72e131a029b85045b68181585d2833e84879b9709143e1f593f0000001847f30644e72e131a029b85045b68181585d2833e84879b9709143e1f593f0000001878909097f055c5e02feeef3b6c36d5227c77268b17e700582bf7b27ca8e4fe84bed58d7c77f19884a17e4ae5ccbfd7dce05d534ebee6c303f0f006aa90315e7bbfa19a4b0d160408b01610eb5565b61141b61010460808901610df3565b61143760808b0151602061014401356101443560808b01610e4a565b7f30644e72e131a029b85045b68181585d2833e84879b9709143e1f593f000000160808b015160808c01510961147b81602061018401356101843560808c01610e4a565b6114976102e08c015160a08a015160808b015160808c01610eb5565b7f30644e72e131a029b85045b68181585d97816a916871ca8d3c208c16d87cfd47602060408a0101517f30644e72e131a029b85045b68181585d97816a916871ca8d3c208c16d87cfd470306602060408a0101527f30644e72e131a029b85045b68181585d97816a916871ca8d3c208c16d87cfd4760a08901517f30644e72e131a029b85045b68181585d97816a916871ca8d3c208c16d87cfd47030660a0890152611543888b610e05565b611550604089018b610e05565b61155d608089018b610e05565b5050505050505050505050565b610200810161157d6101c0830182610dd3565b61159460c083015160206004013560043584610e4a565b6115ab60e083015160206044013560443584610e4a565b6115c361010083015160206084013560843584610e4a565b6116146101208301517f128ddb7ae70fbf55379138946be983f57abbda26cccbc348adbd9f3c3c2461217f0aae71f8d95161b833765727b3d899f41f73e8fa7287193dbecbfe71f3a388ea84610e4a565b6116656101408301517f3055ac70dd6dc432458f2b9b8fec638c8cb5a2f82fe09621d6ae10773aa146287f2d84f84e056b95d485d208be10fcb7bd5ea16237ebf3a952d4505096cc860f2884610e4a565b5050565b7f30644e72e131a029b85045b68181585d2833e84879b9709143e1f593f00000016101a08201517f30644e72e131a029b85045b68181585d2833e84879b9709143e1f593f000000103067f30644e72e131a029b85045b68181585d2833e84879b9709143e1f593f00000018060c08401516102443509820890507f30644e72e131a029b85045b68181585d2833e84879b9709143e1f593f00000018060e08401516102643509820890507f30644e72e131a029b85045b68181585d2833e84879b9709143e1f593f0000001806101008401516102843509820890507f30644e72e131a029b85045b68181585d2833e84879b9709143e1f593f0000001806101208401516102a43509820890507f30644e72e131a029b85045b68181585d2833e84879b9709143e1f593f0000001806101408401516102c43509820890507f30644e72e131a029b85045b68181585d2833e84879b9709143e1f593f0000001806101608401516102e43509820890506117e981600260016102408601610eb5565b5050565b6000604051610240810160405261018081016101c0820161020083016118156101c484610df3565b61182161020483610df3565b6118316101608701518386610ef0565b61183b8385610e05565b7f30644e72e131a029b85045b68181585d97816a916871ca8d3c208c16d87cfd4760208501517f30644e72e131a029b85045b68181585d97816a916871ca8d3c208c16d87cfd47030660208501527f26186a2d65ee4d2f9c9a5b91f86597d35f192cd120caf7e935d8443d1938e23d60408501527f30441fd1b5d3370482c42152a8899027716989a6996c2535bc9f7fee8aaef79e60608501527f1970ea81dd6992adfbc571effb03503adbbb6a857f578403c6c40e22d65b3c0260808501527f054793348f12c0cf5622c340573cb277586319de359ab9389778f689786b1e4860a085015261193360608701518460c08701610ef0565b7f30644e72e131a029b85045b68181585d2833e84879b9709143e1f593f00000016060870151610160880151097f30644e72e131a029b85045b68181585d2833e84879b9709143e1f593f00000017f2b337de1c8c14f22ec9b9e2f96afef3652627366f8170a0a948dad4ac1bd5e80820990506119b1818484610ef0565b6119be8260c08701610e05565b6119cf610200880160c08701610e05565b7f30644e72e131a029b85045b68181585d97816a916871ca8d3c208c16d87cfd476020610240018801517f30644e72e131a029b85045b68181585d97816a916871ca8d3c208c16d87cfd470306602061024001880152611a36610240880160c08701610e05565b7f198e9393920d483a7260bfb731fb5d25f1aa493335a9e71297e485b7aef312c26101008601527f1800deef121f1e76426a00665e5c4479674322d4f75edadd46debd5cd992f6ed6101208601527f090689d0585ff075ec9e99ad690c3395bc4b313370b38ef355acdadcd122975b6101408601527f12c85ea5db8c6deb4aab71808dcb408fe3d1e7690c43d37b4ce6cc0166fa7daa6101608601526020856101808760086107d05a03fa855181169650505050505050919050565b6040516103608101604052611b056102b2565b611b0f84826102fc565b611b1881610912565b611b228482610ac9565b611b2b81610b81565b611b3481610f06565b611b3d8161156a565b611b4681611669565b611b4f816117ed565b61036082036040528060005260206000f35b9392505050565b60016000808381526020019081526020016000206000611bbe856018806020026040519081016040528092919082601860200280828437600081840152601f19601f820116905080830192505050505050611be7565b815260200190815260200160002060006101000a81548160ff0219169083151502179055505050565b600081604051602001611bfa9190611e14565b604051602081830303815290604052805190602001209050919050565b600080fd5b600080fd5b600081905082602060180282011115611c3d57611c3c611c1c565b5b92915050565b600081905082602060020282011115611c5f57611c5e611c1c565b5b92915050565b6000819050919050565b611c7881611c65565b8114611c8357600080fd5b50565b600081359050611c9581611c6f565b92915050565b60008060006103608486031215611cb557611cb4611c17565b5b6000611cc386828701611c21565b935050610300611cd586828701611c43565b925050610340611ce786828701611c86565b9150509250925092565b60008115159050919050565b611d0681611cf1565b82525050565b6000602082019050611d216000830184611cfd565b92915050565b6000806103208385031215611d3f57611d3e611c17565b5b6000611d4d85828601611c21565b925050610300611d5f85828601611c86565b9150509250929050565b600060189050919050565b600081905092915050565b6000819050919050565b611d9281611c65565b82525050565b6000611da48383611d89565b60208301905092915050565b6000602082019050919050565b611dc681611d69565b611dd08184611d74565b9250611ddb82611d7f565b8060005b83811015611e0c578151611df38782611d98565b9650611dfe83611db0565b925050600181019050611ddf565b505050505050565b6000611e208284611dbd565b610300820191508190509291505056fea2646970667358221220a0d820f12e6aa148823e3d10eb9b17236e8f08639b506069cef51048eec5189664736f6c63430008090033",
  "linkReferences": {},
  "deployedLinkReferences": {}
}