{
  "_format": "hh-sol-artifact-1",
  "contractName": "EventManager",
  "sourceName": "contracts/Event.sol",
  "abi": [
    {
      "anonymous": false,
      "inputs": [
        {
          "indexed": true,
          "internalType": "address",
          "name": "owner",
          "type": "address"
        },
        {
          "indexed": false,
          "internalType": "uint256",
          "name": "groupId",
          "type": "uint256"
        }
      ],
      "name": "CreatedGroupId",
      "type": "event"
    },
    {
      "anonymous": false,
      "inputs": [
        {
          "indexed": false,
          "internalType": "uint8",
          "name": "version",
          "type": "uint8"
        }
      ],
      "name": "Initialized",
      "type": "event"
    },
    {
      "anonymous": false,
      "inputs": [
        {
          "indexed": true,
          "internalType": "address",
          "name": "previousOwner",
          "type": "address"
        },
        {
          "indexed": true,
          "internalType": "address",
          "name": "newOwner",
          "type": "address"
        }
      ],
      "name": "OwnershipTransferred",
      "type": "event"
    },
    {
      "inputs": [
        {
          "internalType": "uint256",
          "name": "_groupId",
          "type": "uint256"
        },
        {
          "internalType": "string",
          "name": "_name",
          "type": "string"
        },
        {
          "internalType": "string",
          "name": "_description",
          "type": "string"
        },
        {
          "internalType": "string",
          "name": "_date",
          "type": "string"
        },
        {
          "internalType": "uint256",
          "name": "_mintLimit",
          "type": "uint256"
        },
        {
          "internalType": "bool",
          "name": "_useMtx",
          "type": "bool"
        },
        {
          "internalType": "string",
          "name": "_secretPhrase",
          "type": "string"
        },
        {
          "components": [
            {
              "internalType": "string",
              "name": "metaDataURL",
              "type": "string"
            },
            {
              "internalType": "uint256",
              "name": "requiredParticipateCount",
              "type": "uint256"
            }
          ],
          "internalType": "struct IMintNFT.NFTAttribute[]",
          "name": "_eventNFTAttributes",
          "type": "tuple[]"
        }
      ],
      "name": "createEventRecord",
      "outputs": [],
      "stateMutability": "payable",
      "type": "function"
    },
    {
      "inputs": [
        {
          "internalType": "string",
          "name": "_name",
          "type": "string"
        }
      ],
      "name": "createGroup",
      "outputs": [],
      "stateMutability": "nonpayable",
      "type": "function"
    },
    {
      "inputs": [
        {
          "internalType": "uint256",
          "name": "_eventId",
          "type": "uint256"
        }
      ],
      "name": "getEventById",
      "outputs": [
        {
          "components": [
            {
              "internalType": "uint256",
              "name": "eventRecordId",
              "type": "uint256"
            },
            {
              "internalType": "uint256",
              "name": "groupId",
              "type": "uint256"
            },
            {
              "internalType": "string",
              "name": "name",
              "type": "string"
            },
            {
              "internalType": "string",
              "name": "description",
              "type": "string"
            },
            {
              "internalType": "string",
              "name": "date",
              "type": "string"
            },
            {
              "internalType": "bool",
              "name": "useMtx",
              "type": "bool"
            }
          ],
          "internalType": "struct EventManager.EventRecord",
          "name": "",
          "type": "tuple"
        }
      ],
      "stateMutability": "view",
      "type": "function"
    },
    {
      "inputs": [],
      "name": "getEventRecords",
      "outputs": [
        {
          "components": [
            {
              "internalType": "uint256",
              "name": "eventRecordId",
              "type": "uint256"
            },
            {
              "internalType": "uint256",
              "name": "groupId",
              "type": "uint256"
            },
            {
              "internalType": "string",
              "name": "name",
              "type": "string"
            },
            {
              "internalType": "string",
              "name": "description",
              "type": "string"
            },
            {
              "internalType": "string",
              "name": "date",
              "type": "string"
            },
            {
              "internalType": "bool",
              "name": "useMtx",
              "type": "bool"
            }
          ],
          "internalType": "struct EventManager.EventRecord[]",
          "name": "",
          "type": "tuple[]"
        }
      ],
      "stateMutability": "view",
      "type": "function"
    },
    {
      "inputs": [],
      "name": "getGroups",
      "outputs": [
        {
          "components": [
            {
              "internalType": "uint256",
              "name": "groupId",
              "type": "uint256"
            },
            {
              "internalType": "address",
              "name": "ownerAddress",
              "type": "address"
            },
            {
              "internalType": "string",
              "name": "name",
              "type": "string"
            }
          ],
          "internalType": "struct EventManager.Group[]",
          "name": "",
          "type": "tuple[]"
        }
      ],
      "stateMutability": "view",
      "type": "function"
    },
    {
      "inputs": [],
      "name": "getOwnGroups",
      "outputs": [
        {
          "components": [
            {
              "internalType": "uint256",
              "name": "groupId",
              "type": "uint256"
            },
            {
              "internalType": "address",
              "name": "ownerAddress",
              "type": "address"
            },
            {
              "internalType": "string",
              "name": "name",
              "type": "string"
            }
          ],
          "internalType": "struct EventManager.Group[]",
          "name": "",
          "type": "tuple[]"
        }
      ],
      "stateMutability": "view",
      "type": "function"
    },
    {
      "inputs": [
        {
          "internalType": "address",
          "name": "_relayerAddr",
          "type": "address"
        },
        {
          "internalType": "uint256",
          "name": "_mtxPrice",
          "type": "uint256"
        },
        {
          "internalType": "uint256",
          "name": "_maxMintLimit",
          "type": "uint256"
        }
      ],
      "name": "initialize",
      "outputs": [],
      "stateMutability": "nonpayable",
      "type": "function"
    },
    {
      "inputs": [],
      "name": "owner",
      "outputs": [
        {
          "internalType": "address",
          "name": "",
          "type": "address"
        }
      ],
      "stateMutability": "view",
      "type": "function"
    },
    {
      "inputs": [],
      "name": "renounceOwnership",
      "outputs": [],
      "stateMutability": "nonpayable",
      "type": "function"
    },
    {
      "inputs": [
        {
          "internalType": "uint256",
          "name": "_mintLimit",
          "type": "uint256"
        }
      ],
      "name": "setMaxMintLimit",
      "outputs": [],
      "stateMutability": "nonpayable",
      "type": "function"
    },
    {
      "inputs": [
        {
          "internalType": "address",
          "name": "_mintNftAddr",
          "type": "address"
        }
      ],
      "name": "setMintNFTAddr",
      "outputs": [],
      "stateMutability": "nonpayable",
      "type": "function"
    },
    {
      "inputs": [
        {
          "internalType": "uint256",
          "name": "_price",
          "type": "uint256"
        }
      ],
      "name": "setMtxPrice",
      "outputs": [],
      "stateMutability": "nonpayable",
      "type": "function"
    },
    {
      "inputs": [
        {
          "internalType": "address",
          "name": "_relayerAddr",
          "type": "address"
        }
      ],
      "name": "setRelayerAddr",
      "outputs": [],
      "stateMutability": "nonpayable",
      "type": "function"
    },
    {
      "inputs": [
        {
          "internalType": "address",
          "name": "newOwner",
          "type": "address"
        }
      ],
      "name": "transferOwnership",
      "outputs": [],
      "stateMutability": "nonpayable",
      "type": "function"
    }
  ],
  "bytecode": "0x608060405234801561001057600080fd5b50612d2a806100206000396000f3fe6080604052600436106100dd5760003560e01c8063b98079bc1161007f578063d337483a11610059578063d337483a14610277578063dc2ddcae146102a2578063f2fde38b146102cb578063f926b50c146102f4576100dd565b8063b98079bc146101e4578063be04cc3614610221578063c72b51761461024c576100dd565b8063715018a6116100bb578063715018a61461015d5780637a1ac61e146101745780638da5cb5b1461019d57806390d68b0c146101c8576100dd565b80631ac30e63146100e257806337c81cd71461010b5780636b1f762214610134575b600080fd5b3480156100ee57600080fd5b5061010960048036038101906101049190611a67565b61031d565b005b34801561011757600080fd5b50610132600480360381019061012d9190611a67565b6103d9565b005b34801561014057600080fd5b5061015b60048036038101906101569190611aca565b610495565b005b34801561016957600080fd5b506101726104a7565b005b34801561018057600080fd5b5061019b60048036038101906101969190611af7565b6104bb565b005b3480156101a957600080fd5b506101b261062b565b6040516101bf9190611b59565b60405180910390f35b6101e260048036038101906101dd9190611e4e565b610655565b005b3480156101f057600080fd5b5061020b60048036038101906102069190611aca565b610aea565b60405161021891906120cd565b60405180910390f35b34801561022d57600080fd5b50610236610d23565b6040516102439190612210565b60405180910390f35b34801561025857600080fd5b50610261610fbd565b60405161026e9190612210565b60405180910390f35b34801561028357600080fd5b5061028c611175565b604051610299919061238b565b60405180910390f35b3480156102ae57600080fd5b506102c960048036038101906102c491906123ad565b611420565b005b3480156102d757600080fd5b506102f260048036038101906102ed9190611a67565b6115bc565b005b34801561030057600080fd5b5061031b60048036038101906103169190611aca565b611640565b005b610325611696565b600073ffffffffffffffffffffffffffffffffffffffff168173ffffffffffffffffffffffffffffffffffffffff161415610395576040517f08c379a000000000000000000000000000000000000000000000000000000000815260040161038c90612453565b60405180910390fd5b80606c60006101000a81548173ffffffffffffffffffffffffffffffffffffffff021916908373ffffffffffffffffffffffffffffffffffffffff16021790555050565b6103e1611696565b600073ffffffffffffffffffffffffffffffffffffffff168173ffffffffffffffffffffffffffffffffffffffff161415610451576040517f08c379a0000000000000000000000000000000000000000000000000000000008152600401610448906124bf565b60405180910390fd5b80606d60006101000a81548173ffffffffffffffffffffffffffffffffffffffff021916908373ffffffffffffffffffffffffffffffffffffffff16021790555050565b61049d611696565b80606e8190555050565b6104af611696565b6104b96000611714565b565b60008060019054906101000a900460ff161590508080156104ec5750600160008054906101000a900460ff1660ff16105b8061051957506104fb306117da565b1580156105185750600160008054906101000a900460ff1660ff16145b5b610558576040517f08c379a000000000000000000000000000000000000000000000000000000000815260040161054f90612551565b60405180910390fd5b60016000806101000a81548160ff021916908360ff1602179055508015610595576001600060016101000a81548160ff0219169083151502179055505b61059d6117fd565b6105a76066611856565b6105b16065611856565b6105ba846103d9565b6105c383610495565b6105cc82611640565b80156106255760008060016101000a81548160ff0219169083151502179055507f7f26b83ff96e1f2b6a682f133852f6798a09c465da95921460cefb3847402498600160405161061c91906125c3565b60405180910390a15b50505050565b6000603360009054906101000a900473ffffffffffffffffffffffffffffffffffffffff16905090565b6000841180156106675750606f548411155b6106a6576040517f08c379a000000000000000000000000000000000000000000000000000000000815260040161069d9061262a565b60405180910390fd5b6000805b606960003373ffffffffffffffffffffffffffffffffffffffff1673ffffffffffffffffffffffffffffffffffffffff1681526020019081526020016000208054905081101561076f5789606960003373ffffffffffffffffffffffffffffffffffffffff1673ffffffffffffffffffffffffffffffffffffffff16815260200190815260200160002082815481106107465761074561264a565b5b9060005260206000200154141561075c57600191505b8080610767906126a8565b9150506106aa565b50806107b0576040517f08c379a00000000000000000000000000000000000000000000000000000000081526004016107a79061273d565b60405180910390fd5b83156108e7576000606e543a876107c7919061275d565b6107d1919061275d565b905080341015610816576040517f08c379a000000000000000000000000000000000000000000000000000000000815260040161080d90612803565b60405180910390fd5b6000606d60009054906101000a900473ffffffffffffffffffffffffffffffffffffffff1673ffffffffffffffffffffffffffffffffffffffff163460405161085e90612854565b60006040518083038185875af1925050503d806000811461089b576040519150601f19603f3d011682016040523d82523d6000602084013e6108a0565b606091505b50509050806108e4576040517f08c379a00000000000000000000000000000000000000000000000000000000081526004016108db906128b5565b60405180910390fd5b50505b60006108f3606561186c565b90506108ff6065611856565b60686040518060c001604052808381526020018c81526020018b81526020018a81526020018981526020018715158152509080600181540180825580915050600190039060005260206000209060060201600090919091909150600082015181600001556020820151816001015560408201518160020190805190602001906109899291906118e3565b5060608201518160030190805190602001906109a69291906118e3565b5060808201518160040190805190602001906109c39291906118e3565b5060a08201518160050160006101000a81548160ff02191690831515021790555050506000848051906020012090506000606c60009054906101000a900473ffffffffffffffffffffffffffffffffffffffff1690508073ffffffffffffffffffffffffffffffffffffffff1663ef3ad9eb848a85896040518563ffffffff1660e01b8152600401610a5894939291906129fc565b600060405180830381600087803b158015610a7257600080fd5b505af1158015610a86573d6000803e3d6000fd5b50505050606a60008d81526020019081526020016000208390806001815401808255809150506001900390600052602060002001600090919091909150558b606b600085815260200190815260200160002081905550505050505050505050505050565b610af2611969565b6000600183610b019190612a48565b9050600060688281548110610b1957610b1861264a565b5b90600052602060002090600602016040518060c00160405290816000820154815260200160018201548152602001600282018054610b5690612aab565b80601f0160208091040260200160405190810160405280929190818152602001828054610b8290612aab565b8015610bcf5780601f10610ba457610100808354040283529160200191610bcf565b820191906000526020600020905b815481529060010190602001808311610bb257829003601f168201915b50505050508152602001600382018054610be890612aab565b80601f0160208091040260200160405190810160405280929190818152602001828054610c1490612aab565b8015610c615780601f10610c3657610100808354040283529160200191610c61565b820191906000526020600020905b815481529060010190602001808311610c4457829003601f168201915b50505050508152602001600482018054610c7a90612aab565b80601f0160208091040260200160405190810160405280929190818152602001828054610ca690612aab565b8015610cf35780601f10610cc857610100808354040283529160200191610cf3565b820191906000526020600020905b815481529060010190602001808311610cd657829003601f168201915b505050505081526020016005820160009054906101000a900460ff16151515158152505090508092505050919050565b60606000606960003373ffffffffffffffffffffffffffffffffffffffff1673ffffffffffffffffffffffffffffffffffffffff1681526020019081526020016000208054905090506000606780549050905060008267ffffffffffffffff811115610d9257610d91611b8f565b5b604051908082528060200260200182016040528015610dcb57816020015b610db86119a1565b815260200190600190039081610db05790505b5090506000805b83811015610fb2573373ffffffffffffffffffffffffffffffffffffffff1660678281548110610e0557610e0461264a565b5b906000526020600020906003020160010160009054906101000a900473ffffffffffffffffffffffffffffffffffffffff1673ffffffffffffffffffffffffffffffffffffffff161415610f9f5760678181548110610e6757610e6661264a565b5b9060005260206000209060030201604051806060016040529081600082015481526020016001820160009054906101000a900473ffffffffffffffffffffffffffffffffffffffff1673ffffffffffffffffffffffffffffffffffffffff1673ffffffffffffffffffffffffffffffffffffffff168152602001600282018054610ef090612aab565b80601f0160208091040260200160405190810160405280929190818152602001828054610f1c90612aab565b8015610f695780601f10610f3e57610100808354040283529160200191610f69565b820191906000526020600020905b815481529060010190602001808311610f4c57829003601f168201915b505050505081525050838381518110610f8557610f8461264a565b5b60200260200101819052508180610f9b906126a8565b9250505b8080610faa906126a8565b915050610dd2565b508194505050505090565b60606000606780549050905060008167ffffffffffffffff811115610fe557610fe4611b8f565b5b60405190808252806020026020018201604052801561101e57816020015b61100b6119a1565b8152602001906001900390816110035790505b5090506067805480602002602001604051908101604052809291908181526020016000905b828210156111675783829060005260206000209060030201604051806060016040529081600082015481526020016001820160009054906101000a900473ffffffffffffffffffffffffffffffffffffffff1673ffffffffffffffffffffffffffffffffffffffff1673ffffffffffffffffffffffffffffffffffffffff1681526020016002820180546110d690612aab565b80601f016020809104026020016040519081016040528092919081815260200182805461110290612aab565b801561114f5780601f106111245761010080835404028352916020019161114f565b820191906000526020600020905b81548152906001019060200180831161113257829003601f168201915b50505050508152505081526020019060010190611043565b505050509050809250505090565b60606000606880549050905060008167ffffffffffffffff81111561119d5761119c611b8f565b5b6040519080825280602002602001820160405280156111d657816020015b6111c3611969565b8152602001906001900390816111bb5790505b5090506068805480602002602001604051908101604052809291908181526020016000905b8282101561141257838290600052602060002090600602016040518060c0016040529081600082015481526020016001820154815260200160028201805461124290612aab565b80601f016020809104026020016040519081016040528092919081815260200182805461126e90612aab565b80156112bb5780601f10611290576101008083540402835291602001916112bb565b820191906000526020600020905b81548152906001019060200180831161129e57829003601f168201915b505050505081526020016003820180546112d490612aab565b80601f016020809104026020016040519081016040528092919081815260200182805461130090612aab565b801561134d5780601f106113225761010080835404028352916020019161134d565b820191906000526020600020905b81548152906001019060200180831161133057829003601f168201915b5050505050815260200160048201805461136690612aab565b80601f016020809104026020016040519081016040528092919081815260200182805461139290612aab565b80156113df5780601f106113b4576101008083540402835291602001916113df565b820191906000526020600020905b8154815290600101906020018083116113c257829003601f168201915b505050505081526020016005820160009054906101000a900460ff161515151581525050815260200190600101906111fb565b505050509050809250505090565b600061142c606661186c565b90506114386066611856565b606760405180606001604052808381526020013373ffffffffffffffffffffffffffffffffffffffff1681526020018481525090806001815401808255809150506001900390600052602060002090600302016000909190919091506000820151816000015560208201518160010160006101000a81548173ffffffffffffffffffffffffffffffffffffffff021916908373ffffffffffffffffffffffffffffffffffffffff16021790555060408201518160020190805190602001906115019291906118e3565b505050606960003373ffffffffffffffffffffffffffffffffffffffff1673ffffffffffffffffffffffffffffffffffffffff1681526020019081526020016000208190806001815401808255809150506001900390600052602060002001600090919091909150553373ffffffffffffffffffffffffffffffffffffffff167f8fd7975dffff2a53bfe748adb09eacd0516344fb3db49dad60069d8b91c63654826040516115b09190612add565b60405180910390a25050565b6115c4611696565b600073ffffffffffffffffffffffffffffffffffffffff168173ffffffffffffffffffffffffffffffffffffffff161415611634576040517f08c379a000000000000000000000000000000000000000000000000000000000815260040161162b90612b6a565b60405180910390fd5b61163d81611714565b50565b611648611696565b600081141561168c576040517f08c379a000000000000000000000000000000000000000000000000000000000815260040161168390612bd6565b60405180910390fd5b80606f8190555050565b61169e61187a565b73ffffffffffffffffffffffffffffffffffffffff166116bc61062b565b73ffffffffffffffffffffffffffffffffffffffff1614611712576040517f08c379a000000000000000000000000000000000000000000000000000000000815260040161170990612c42565b60405180910390fd5b565b6000603360009054906101000a900473ffffffffffffffffffffffffffffffffffffffff16905081603360006101000a81548173ffffffffffffffffffffffffffffffffffffffff021916908373ffffffffffffffffffffffffffffffffffffffff1602179055508173ffffffffffffffffffffffffffffffffffffffff168173ffffffffffffffffffffffffffffffffffffffff167f8be0079c531659141344cd1fd0a4f28419497f9722a3daafe3b4186f6b6457e060405160405180910390a35050565b6000808273ffffffffffffffffffffffffffffffffffffffff163b119050919050565b600060019054906101000a900460ff1661184c576040517f08c379a000000000000000000000000000000000000000000000000000000000815260040161184390612cd4565b60405180910390fd5b611854611882565b565b6001816000016000828254019250508190555050565b600081600001549050919050565b600033905090565b600060019054906101000a900460ff166118d1576040517f08c379a00000000000000000000000000000000000000000000000000000000081526004016118c890612cd4565b60405180910390fd5b6118e16118dc61187a565b611714565b565b8280546118ef90612aab565b90600052602060002090601f0160209004810192826119115760008555611958565b82601f1061192a57805160ff1916838001178555611958565b82800160010185558215611958579182015b8281111561195757825182559160200191906001019061193c565b5b50905061196591906119d8565b5090565b6040518060c0016040528060008152602001600081526020016060815260200160608152602001606081526020016000151581525090565b604051806060016040528060008152602001600073ffffffffffffffffffffffffffffffffffffffff168152602001606081525090565b5b808211156119f15760008160009055506001016119d9565b5090565b6000604051905090565b600080fd5b600080fd5b600073ffffffffffffffffffffffffffffffffffffffff82169050919050565b6000611a3482611a09565b9050919050565b611a4481611a29565b8114611a4f57600080fd5b50565b600081359050611a6181611a3b565b92915050565b600060208284031215611a7d57611a7c6119ff565b5b6000611a8b84828501611a52565b91505092915050565b6000819050919050565b611aa781611a94565b8114611ab257600080fd5b50565b600081359050611ac481611a9e565b92915050565b600060208284031215611ae057611adf6119ff565b5b6000611aee84828501611ab5565b91505092915050565b600080600060608486031215611b1057611b0f6119ff565b5b6000611b1e86828701611a52565b9350506020611b2f86828701611ab5565b9250506040611b4086828701611ab5565b9150509250925092565b611b5381611a29565b82525050565b6000602082019050611b6e6000830184611b4a565b92915050565b600080fd5b600080fd5b6000601f19601f8301169050919050565b7f4e487b7100000000000000000000000000000000000000000000000000000000600052604160045260246000fd5b611bc782611b7e565b810181811067ffffffffffffffff82111715611be657611be5611b8f565b5b80604052505050565b6000611bf96119f5565b9050611c058282611bbe565b919050565b600067ffffffffffffffff821115611c2557611c24611b8f565b5b611c2e82611b7e565b9050602081019050919050565b82818337600083830152505050565b6000611c5d611c5884611c0a565b611bef565b905082815260208101848484011115611c7957611c78611b79565b5b611c84848285611c3b565b509392505050565b600082601f830112611ca157611ca0611b74565b5b8135611cb1848260208601611c4a565b91505092915050565b60008115159050919050565b611ccf81611cba565b8114611cda57600080fd5b50565b600081359050611cec81611cc6565b92915050565b600067ffffffffffffffff821115611d0d57611d0c611b8f565b5b602082029050602081019050919050565b600080fd5b600080fd5b600080fd5b600060408284031215611d4357611d42611d23565b5b611d4d6040611bef565b9050600082013567ffffffffffffffff811115611d6d57611d6c611d28565b5b611d7984828501611c8c565b6000830152506020611d8d84828501611ab5565b60208301525092915050565b6000611dac611da784611cf2565b611bef565b90508083825260208201905060208402830185811115611dcf57611dce611d1e565b5b835b81811015611e1657803567ffffffffffffffff811115611df457611df3611b74565b5b808601611e018982611d2d565b85526020850194505050602081019050611dd1565b5050509392505050565b600082601f830112611e3557611e34611b74565b5b8135611e45848260208601611d99565b91505092915050565b600080600080600080600080610100898b031215611e6f57611e6e6119ff565b5b6000611e7d8b828c01611ab5565b985050602089013567ffffffffffffffff811115611e9e57611e9d611a04565b5b611eaa8b828c01611c8c565b975050604089013567ffffffffffffffff811115611ecb57611eca611a04565b5b611ed78b828c01611c8c565b965050606089013567ffffffffffffffff811115611ef857611ef7611a04565b5b611f048b828c01611c8c565b9550506080611f158b828c01611ab5565b94505060a0611f268b828c01611cdd565b93505060c089013567ffffffffffffffff811115611f4757611f46611a04565b5b611f538b828c01611c8c565b92505060e089013567ffffffffffffffff811115611f7457611f73611a04565b5b611f808b828c01611e20565b9150509295985092959890939650565b611f9981611a94565b82525050565b600081519050919050565b600082825260208201905092915050565b60005b83811015611fd9578082015181840152602081019050611fbe565b83811115611fe8576000848401525b50505050565b6000611ff982611f9f565b6120038185611faa565b9350612013818560208601611fbb565b61201c81611b7e565b840191505092915050565b61203081611cba565b82525050565b600060c08301600083015161204e6000860182611f90565b5060208301516120616020860182611f90565b50604083015184820360408601526120798282611fee565b915050606083015184820360608601526120938282611fee565b915050608083015184820360808601526120ad8282611fee565b91505060a08301516120c260a0860182612027565b508091505092915050565b600060208201905081810360008301526120e78184612036565b905092915050565b600081519050919050565b600082825260208201905092915050565b6000819050602082019050919050565b61212481611a29565b82525050565b60006060830160008301516121426000860182611f90565b506020830151612155602086018261211b565b506040830151848203604086015261216d8282611fee565b9150508091505092915050565b6000612186838361212a565b905092915050565b6000602082019050919050565b60006121a6826120ef565b6121b081856120fa565b9350836020820285016121c28561210b565b8060005b858110156121fe57848403895281516121df858261217a565b94506121ea8361218e565b925060208a019950506001810190506121c6565b50829750879550505050505092915050565b6000602082019050818103600083015261222a818461219b565b905092915050565b600081519050919050565b600082825260208201905092915050565b6000819050602082019050919050565b600060c0830160008301516122766000860182611f90565b5060208301516122896020860182611f90565b50604083015184820360408601526122a18282611fee565b915050606083015184820360608601526122bb8282611fee565b915050608083015184820360808601526122d58282611fee565b91505060a08301516122ea60a0860182612027565b508091505092915050565b6000612301838361225e565b905092915050565b6000602082019050919050565b600061232182612232565b61232b818561223d565b93508360208202850161233d8561224e565b8060005b85811015612379578484038952815161235a85826122f5565b945061236583612309565b925060208a01995050600181019050612341565b50829750879550505050505092915050565b600060208201905081810360008301526123a58184612316565b905092915050565b6000602082840312156123c3576123c26119ff565b5b600082013567ffffffffffffffff8111156123e1576123e0611a04565b5b6123ed84828501611c8c565b91505092915050565b600082825260208201905092915050565b7f6d696e74206e6674206164647265737320697320626c616e6b00000000000000600082015250565b600061243d6019836123f6565b915061244882612407565b602082019050919050565b6000602082019050818103600083015261246c81612430565b9050919050565b7f72656c61796572206164647265737320697320626c616e6b0000000000000000600082015250565b60006124a96018836123f6565b91506124b482612473565b602082019050919050565b600060208201905081810360008301526124d88161249c565b9050919050565b7f496e697469616c697a61626c653a20636f6e747261637420697320616c72656160008201527f647920696e697469616c697a6564000000000000000000000000000000000000602082015250565b600061253b602e836123f6565b9150612546826124df565b604082019050919050565b6000602082019050818103600083015261256a8161252e565b9050919050565b6000819050919050565b600060ff82169050919050565b6000819050919050565b60006125ad6125a86125a384612571565b612588565b61257b565b9050919050565b6125bd81612592565b82525050565b60006020820190506125d860008301846125b4565b92915050565b7f6d696e74206c696d697420697320696e76616c69640000000000000000000000600082015250565b60006126146015836123f6565b915061261f826125de565b602082019050919050565b6000602082019050818103600083015261264381612607565b9050919050565b7f4e487b7100000000000000000000000000000000000000000000000000000000600052603260045260246000fd5b7f4e487b7100000000000000000000000000000000000000000000000000000000600052601160045260246000fd5b60006126b382611a94565b91507fffffffffffffffffffffffffffffffffffffffffffffffffffffffffffffffff8214156126e6576126e5612679565b5b600182019050919050565b7f596f7520617265206e6f742067726f7570206f776e6572000000000000000000600082015250565b60006127276017836123f6565b9150612732826126f1565b602082019050919050565b600060208201905081810360008301526127568161271a565b9050919050565b600061276882611a94565b915061277383611a94565b9250817fffffffffffffffffffffffffffffffffffffffffffffffffffffffffffffffff04831182151516156127ac576127ab612679565b5b828202905092915050565b7f4e6f7420656e6f7567682076616c756500000000000000000000000000000000600082015250565b60006127ed6010836123f6565b91506127f8826127b7565b602082019050919050565b6000602082019050818103600083015261281c816127e0565b9050919050565b600081905092915050565b50565b600061283e600083612823565b91506128498261282e565b600082019050919050565b600061285f82612831565b9150819050919050565b7f7472616e73666572206661696c65640000000000000000000000000000000000600082015250565b600061289f600f836123f6565b91506128aa82612869565b602082019050919050565b600060208201905081810360008301526128ce81612892565b9050919050565b6128de81611a94565b82525050565b6000819050919050565b6128f7816128e4565b82525050565b600081519050919050565b600082825260208201905092915050565b6000819050602082019050919050565b600060408301600083015184820360008601526129468282611fee565b915050602083015161295b6020860182611f90565b508091505092915050565b60006129728383612929565b905092915050565b6000602082019050919050565b6000612992826128fd565b61299c8185612908565b9350836020820285016129ae85612919565b8060005b858110156129ea57848403895281516129cb8582612966565b94506129d68361297a565b925060208a019950506001810190506129b2565b50829750879550505050505092915050565b6000608082019050612a1160008301876128d5565b612a1e60208301866128d5565b612a2b60408301856128ee565b8181036060830152612a3d8184612987565b905095945050505050565b6000612a5382611a94565b9150612a5e83611a94565b925082821015612a7157612a70612679565b5b828203905092915050565b7f4e487b7100000000000000000000000000000000000000000000000000000000600052602260045260246000fd5b60006002820490506001821680612ac357607f821691505b60208210811415612ad757612ad6612a7c565b5b50919050565b6000602082019050612af260008301846128d5565b92915050565b7f4f776e61626c653a206e6577206f776e657220697320746865207a65726f206160008201527f6464726573730000000000000000000000000000000000000000000000000000602082015250565b6000612b546026836123f6565b9150612b5f82612af8565b604082019050919050565b60006020820190508181036000830152612b8381612b47565b9050919050565b7f6d696e74206c696d697420697320300000000000000000000000000000000000600082015250565b6000612bc0600f836123f6565b9150612bcb82612b8a565b602082019050919050565b60006020820190508181036000830152612bef81612bb3565b9050919050565b7f4f776e61626c653a2063616c6c6572206973206e6f7420746865206f776e6572600082015250565b6000612c2c6020836123f6565b9150612c3782612bf6565b602082019050919050565b60006020820190508181036000830152612c5b81612c1f565b9050919050565b7f496e697469616c697a61626c653a20636f6e7472616374206973206e6f74206960008201527f6e697469616c697a696e67000000000000000000000000000000000000000000602082015250565b6000612cbe602b836123f6565b9150612cc982612c62565b604082019050919050565b60006020820190508181036000830152612ced81612cb1565b905091905056fea264697066735822122031019278c51e92735879507f4ad16bd645e88dbe9aa0f3fe6ee29ca0e0964d5764736f6c63430008090033",
  "linkReferences": {},
  "deployedLinkReferences": {}
}