{
  "_format": "hh-sol-artifact-1",
  "contractName": "EventManager",
  "sourceName": "contracts/Event.sol",
  "abi": [
    {
      "inputs": [],
      "stateMutability": "nonpayable",
      "type": "constructor"
    },
    {
      "inputs": [
        {
          "internalType": "uint256",
          "name": "_eventRecordId",
          "type": "uint256"
        }
      ],
      "name": "applyForParticipation",
      "outputs": [],
      "stateMutability": "nonpayable",
      "type": "function"
    },
    {
      "inputs": [
        {
          "internalType": "address",
          "name": "_participantAddress",
          "type": "address"
        },
        {
          "internalType": "uint256",
          "name": "_groupId",
          "type": "uint256"
        }
      ],
      "name": "countParticipationByGroup",
      "outputs": [
        {
          "internalType": "uint256",
          "name": "",
          "type": "uint256"
        }
      ],
      "stateMutability": "view",
      "type": "function"
    },
    {
      "inputs": [
        {
          "internalType": "uint256",
          "name": "_groupId",
          "type": "uint256"
        },
        {
          "internalType": "string",
          "name": "_name",
          "type": "string"
        },
        {
          "internalType": "string",
          "name": "_description",
          "type": "string"
        },
        {
          "internalType": "string",
          "name": "_date",
          "type": "string"
        },
        {
          "internalType": "string",
          "name": "_startTime",
          "type": "string"
        },
        {
          "internalType": "string",
          "name": "_endTime",
          "type": "string"
        },
        {
          "internalType": "string",
          "name": "_secretPhrase",
          "type": "string"
        }
      ],
      "name": "createEventRecord",
      "outputs": [],
      "stateMutability": "nonpayable",
      "type": "function"
    },
    {
      "inputs": [
        {
          "internalType": "string",
          "name": "_name",
          "type": "string"
        }
      ],
      "name": "createGroup",
      "outputs": [],
      "stateMutability": "nonpayable",
      "type": "function"
    },
    {
      "inputs": [],
      "name": "getEventRecords",
      "outputs": [
        {
          "components": [
            {
              "internalType": "uint256",
              "name": "eventRecordId",
              "type": "uint256"
            },
            {
              "internalType": "uint256",
              "name": "groupId",
              "type": "uint256"
            },
            {
              "internalType": "string",
              "name": "name",
              "type": "string"
            },
            {
              "internalType": "string",
              "name": "description",
              "type": "string"
            },
            {
              "internalType": "string",
              "name": "date",
              "type": "string"
            },
            {
              "internalType": "string",
              "name": "startTime",
              "type": "string"
            },
            {
              "internalType": "string",
              "name": "endTime",
              "type": "string"
            },
            {
              "internalType": "bytes32",
              "name": "secretPhrase",
              "type": "bytes32"
            }
          ],
          "internalType": "struct EventManager.EventRecord[]",
          "name": "",
          "type": "tuple[]"
        }
      ],
      "stateMutability": "view",
      "type": "function"
    },
    {
      "inputs": [],
      "name": "getGroups",
      "outputs": [
        {
          "components": [
            {
              "internalType": "uint256",
              "name": "groupId",
              "type": "uint256"
            },
            {
              "internalType": "string",
              "name": "name",
              "type": "string"
            }
          ],
          "internalType": "struct EventManager.Group[]",
          "name": "",
          "type": "tuple[]"
        }
      ],
      "stateMutability": "view",
      "type": "function"
    },
    {
      "inputs": [],
      "name": "getOwnGroups",
      "outputs": [
        {
          "components": [
            {
              "internalType": "uint256",
              "name": "groupId",
              "type": "uint256"
            },
            {
              "internalType": "string",
              "name": "name",
              "type": "string"
            }
          ],
          "internalType": "struct EventManager.Group[]",
          "name": "",
          "type": "tuple[]"
        }
      ],
      "stateMutability": "view",
      "type": "function"
    },
    {
      "inputs": [],
      "name": "getParticipationEvents",
      "outputs": [
        {
          "components": [
            {
              "internalType": "uint256",
              "name": "eventRecordId",
              "type": "uint256"
            },
            {
              "internalType": "uint256",
              "name": "groupId",
              "type": "uint256"
            },
            {
              "internalType": "string",
              "name": "name",
              "type": "string"
            },
            {
              "internalType": "string",
              "name": "description",
              "type": "string"
            },
            {
              "internalType": "string",
              "name": "date",
              "type": "string"
            },
            {
              "internalType": "string",
              "name": "startTime",
              "type": "string"
            },
            {
              "internalType": "string",
              "name": "endTime",
              "type": "string"
            },
            {
              "internalType": "bytes32",
              "name": "secretPhrase",
              "type": "bytes32"
            }
          ],
          "internalType": "struct EventManager.EventRecord[]",
          "name": "",
          "type": "tuple[]"
        }
      ],
      "stateMutability": "view",
      "type": "function"
    },
    {
      "inputs": [],
      "name": "testConnection",
      "outputs": [
        {
          "internalType": "string",
          "name": "",
          "type": "string"
        }
      ],
      "stateMutability": "pure",
      "type": "function"
    },
    {
      "inputs": [
        {
          "internalType": "string",
          "name": "_secretPhrase",
          "type": "string"
        },
        {
          "internalType": "uint256",
          "name": "_eventRecordId",
          "type": "uint256"
        }
      ],
      "name": "verifySecretPhrase",
      "outputs": [
        {
          "internalType": "bool",
          "name": "",
          "type": "bool"
        }
      ],
      "stateMutability": "view",
      "type": "function"
    }
  ],
  "bytecode": "0x60806040523480156200001157600080fd5b506200005d6040518060400160405280600481526020017f696e6974000000000000000000000000000000000000000000000000000000008152506200006360201b620014b51760201c565b620001f7565b62000103816040516024016200007a919062000170565b6040516020818303038152906040527f41304fac000000000000000000000000000000000000000000000000000000007bffffffffffffffffffffffffffffffffffffffffffffffffffffffff19166020820180517bffffffffffffffffffffffffffffffffffffffffffffffffffffffff83818316178352505050506200010660201b60201c565b50565b60008151905060006a636f6e736f6c652e6c6f679050602083016000808483855afa5050505050565b60006200013c8262000194565b6200014881856200019f565b93506200015a818560208601620001b0565b6200016581620001e6565b840191505092915050565b600060208201905081810360008301526200018c81846200012f565b905092915050565b600081519050919050565b600082825260208201905092915050565b60005b83811015620001d0578082015181840152602081019050620001b3565b83811115620001e0576000848401525b50505050565b6000601f19601f8301169050919050565b61208880620002076000396000f3fe608060405234801561001057600080fd5b506004361061009e5760003560e01c8063d337483a11610066578063d337483a14610149578063db4f6f4d14610167578063dc2ddcae14610185578063e37c24fe146101a1578063f2be2f6d146101d15761009e565b806306fe6dec146100a35780633412a15c146100d357806345e46c69146100f1578063be04cc361461010d578063c72b51761461012b575b600080fd5b6100bd60048036038101906100b89190611732565b6101ed565b6040516100ca9190611ce7565b60405180910390f35b6100db610354565b6040516100e89190611ca5565b60405180910390f35b61010b60048036038101906101069190611803565b610397565b005b610115610474565b6040516101229190611c68565b60405180910390f35b610133610716565b6040516101409190611c68565b60405180910390f35b61015161089e565b60405161015e9190611c46565b60405180910390f35b61016f610c83565b60405161017c9190611c46565b60405180910390f35b61019f600480360381019061019a919061176e565b6110e4565b005b6101bb60048036038101906101b691906117af565b6111cf565b6040516101c89190611c8a565b60405180910390f35b6101eb60048036038101906101e6919061182c565b611239565b005b600080600660008573ffffffffffffffffffffffffffffffffffffffff1673ffffffffffffffffffffffffffffffffffffffff16815260200190815260200160002080548060200260200160405190810160405280929190818152602001828054801561027957602002820191906000526020600020905b815481526020019060010190808311610265575b505050505090506000815190506000805b82811015610347578560038583815181106102ce577f4e487b7100000000000000000000000000000000000000000000000000000000600052603260045260246000fd5b60200260200101518154811061030d577f4e487b7100000000000000000000000000000000000000000000000000000000600052603260045260246000fd5b906000526020600020906008020160010154141561033457818061033090611eee565b9250505b808061033f90611eee565b91505061028a565b5080935050505092915050565b606060006040518060400160405280601a81526020017f5465737420636f6e6e656374696f6e207375636365737366756c00000000000081525090508091505090565b60056000828152602001908152602001600020339080600181540180825580915050600190039060005260206000200160009091909190916101000a81548173ffffffffffffffffffffffffffffffffffffffff021916908373ffffffffffffffffffffffffffffffffffffffff160217905550600660003373ffffffffffffffffffffffffffffffffffffffff1673ffffffffffffffffffffffffffffffffffffffff16815260200190815260200160002081908060018154018082558091505060019003906000526020600020016000909190919091505550565b60606000600460003373ffffffffffffffffffffffffffffffffffffffff1673ffffffffffffffffffffffffffffffffffffffff16815260200190815260200160002080549050905060008167ffffffffffffffff8111156104ff577f4e487b7100000000000000000000000000000000000000000000000000000000600052604160045260246000fd5b60405190808252806020026020018201604052801561053857816020015b61052561159b565b81526020019060019003908161051d5790505b50905060005b8281101561070d576002600460003373ffffffffffffffffffffffffffffffffffffffff1673ffffffffffffffffffffffffffffffffffffffff16815260200190815260200160002082815481106105bf577f4e487b7100000000000000000000000000000000000000000000000000000000600052603260045260246000fd5b906000526020600020015481548110610601577f4e487b7100000000000000000000000000000000000000000000000000000000600052603260045260246000fd5b90600052602060002090600202016040518060400160405290816000820154815260200160018201805461063490611e8b565b80601f016020809104026020016040519081016040528092919081815260200182805461066090611e8b565b80156106ad5780601f10610682576101008083540402835291602001916106ad565b820191906000526020600020905b81548152906001019060200180831161069057829003601f168201915b5050505050815250508282815181106106ef577f4e487b7100000000000000000000000000000000000000000000000000000000600052603260045260246000fd5b6020026020010181905250808061070590611eee565b91505061053e565b50809250505090565b60606000600280549050905060008167ffffffffffffffff811115610764577f4e487b7100000000000000000000000000000000000000000000000000000000600052604160045260246000fd5b60405190808252806020026020018201604052801561079d57816020015b61078a61159b565b8152602001906001900390816107825790505b5090506002805480602002602001604051908101604052809291908181526020016000905b828210156108905783829060005260206000209060020201604051806040016040529081600082015481526020016001820180546107ff90611e8b565b80601f016020809104026020016040519081016040528092919081815260200182805461082b90611e8b565b80156108785780601f1061084d57610100808354040283529160200191610878565b820191906000526020600020905b81548152906001019060200180831161085b57829003601f168201915b505050505081525050815260200190600101906107c2565b505050509050809250505090565b60606000600380549050905060008167ffffffffffffffff8111156108ec577f4e487b7100000000000000000000000000000000000000000000000000000000600052604160045260246000fd5b60405190808252806020026020018201604052801561092557816020015b6109126115b5565b81526020019060019003908161090a5790505b5090506003805480602002602001604051908101604052809291908181526020016000905b82821015610c75578382906000526020600020906008020160405180610100016040529081600082015481526020016001820154815260200160028201805461099290611e8b565b80601f01602080910402602001604051908101604052809291908181526020018280546109be90611e8b565b8015610a0b5780601f106109e057610100808354040283529160200191610a0b565b820191906000526020600020905b8154815290600101906020018083116109ee57829003601f168201915b50505050508152602001600382018054610a2490611e8b565b80601f0160208091040260200160405190810160405280929190818152602001828054610a5090611e8b565b8015610a9d5780601f10610a7257610100808354040283529160200191610a9d565b820191906000526020600020905b815481529060010190602001808311610a8057829003601f168201915b50505050508152602001600482018054610ab690611e8b565b80601f0160208091040260200160405190810160405280929190818152602001828054610ae290611e8b565b8015610b2f5780601f10610b0457610100808354040283529160200191610b2f565b820191906000526020600020905b815481529060010190602001808311610b1257829003601f168201915b50505050508152602001600582018054610b4890611e8b565b80601f0160208091040260200160405190810160405280929190818152602001828054610b7490611e8b565b8015610bc15780601f10610b9657610100808354040283529160200191610bc1565b820191906000526020600020905b815481529060010190602001808311610ba457829003601f168201915b50505050508152602001600682018054610bda90611e8b565b80601f0160208091040260200160405190810160405280929190818152602001828054610c0690611e8b565b8015610c535780601f10610c2857610100808354040283529160200191610c53565b820191906000526020600020905b815481529060010190602001808311610c3657829003601f168201915b505050505081526020016007820154815250508152602001906001019061094a565b505050509050809250505090565b60606000600380549050905060008167ffffffffffffffff811115610cd1577f4e487b7100000000000000000000000000000000000000000000000000000000600052604160045260246000fd5b604051908082528060200260200182016040528015610d0a57816020015b610cf76115b5565b815260200190600190039081610cef5790505b50905060005b828110156110db576000600560008381526020019081526020016000208054905011156110c85760038181548110610d71577f4e487b7100000000000000000000000000000000000000000000000000000000600052603260045260246000fd5b9060005260206000209060080201604051806101000160405290816000820154815260200160018201548152602001600282018054610daf90611e8b565b80601f0160208091040260200160405190810160405280929190818152602001828054610ddb90611e8b565b8015610e285780601f10610dfd57610100808354040283529160200191610e28565b820191906000526020600020905b815481529060010190602001808311610e0b57829003601f168201915b50505050508152602001600382018054610e4190611e8b565b80601f0160208091040260200160405190810160405280929190818152602001828054610e6d90611e8b565b8015610eba5780601f10610e8f57610100808354040283529160200191610eba565b820191906000526020600020905b815481529060010190602001808311610e9d57829003601f168201915b50505050508152602001600482018054610ed390611e8b565b80601f0160208091040260200160405190810160405280929190818152602001828054610eff90611e8b565b8015610f4c5780601f10610f2157610100808354040283529160200191610f4c565b820191906000526020600020905b815481529060010190602001808311610f2f57829003601f168201915b50505050508152602001600582018054610f6590611e8b565b80601f0160208091040260200160405190810160405280929190818152602001828054610f9190611e8b565b8015610fde5780601f10610fb357610100808354040283529160200191610fde565b820191906000526020600020905b815481529060010190602001808311610fc157829003601f168201915b50505050508152602001600682018054610ff790611e8b565b80601f016020809104026020016040519081016040528092919081815260200182805461102390611e8b565b80156110705780601f1061104557610100808354040283529160200191611070565b820191906000526020600020905b81548152906001019060200180831161105357829003601f168201915b505050505081526020016007820154815250508282815181106110bc577f4e487b7100000000000000000000000000000000000000000000000000000000600052603260045260246000fd5b60200260200101819052505b80806110d390611eee565b915050610d10565b50809250505090565b60006110f0600161154e565b9050600260405180604001604052808381526020018481525090806001815401808255809150506001900390600052602060002090600202016000909190919091506000820151816000015560208201518160010190805190602001906111589291906115fd565b505050600460003373ffffffffffffffffffffffffffffffffffffffff1673ffffffffffffffffffffffffffffffffffffffff1681526020019081526020016000208190806001815401808255809150506001900390600052602060002001600090919091909150556111cb600161155c565b5050565b600080839050600081805190602001209050806003858154811061121c577f4e487b7100000000000000000000000000000000000000000000000000000000600052603260045260246000fd5b906000526020600020906008020160070154149250505092915050565b6000805b600460003373ffffffffffffffffffffffffffffffffffffffff1673ffffffffffffffffffffffffffffffffffffffff168152602001908152602001600020805490508110156113285788600460003373ffffffffffffffffffffffffffffffffffffffff1673ffffffffffffffffffffffffffffffffffffffff16815260200190815260200160002082815481106112ff577f4e487b7100000000000000000000000000000000000000000000000000000000600052603260045260246000fd5b9060005260206000200154141561131557600191505b808061132090611eee565b91505061123d565b5080611369576040517f08c379a000000000000000000000000000000000000000000000000000000000815260040161136090611cc7565b60405180910390fd5b6000611375600061154e565b9050600083905060008180519060200120905060036040518061010001604052808581526020018d81526020018c81526020018b81526020018a81526020018981526020018881526020018381525090806001815401808255809150506001900390600052602060002090600802016000909190919091506000820151816000015560208201518160010155604082015181600201908051906020019061141d9291906115fd565b50606082015181600301908051906020019061143a9291906115fd565b5060808201518160040190805190602001906114579291906115fd565b5060a08201518160050190805190602001906114749291906115fd565b5060c08201518160060190805190602001906114919291906115fd565b5060e0820151816007015550506114a8600061155c565b5050505050505050505050565b61154b816040516024016114c99190611ca5565b6040516020818303038152906040527f41304fac000000000000000000000000000000000000000000000000000000007bffffffffffffffffffffffffffffffffffffffffffffffffffffffff19166020820180517bffffffffffffffffffffffffffffffffffffffffffffffffffffffff8381831617835250505050611572565b50565b600081600001549050919050565b6001816000016000828254019250508190555050565b60008151905060006a636f6e736f6c652e6c6f679050602083016000808483855afa5050505050565b604051806040016040528060008152602001606081525090565b60405180610100016040528060008152602001600081526020016060815260200160608152602001606081526020016060815260200160608152602001600080191681525090565b82805461160990611e8b565b90600052602060002090601f01602090048101928261162b5760008555611672565b82601f1061164457805160ff1916838001178555611672565b82800160010185558215611672579182015b82811115611671578251825591602001919060010190611656565b5b50905061167f9190611683565b5090565b5b8082111561169c576000816000905550600101611684565b5090565b60006116b36116ae84611d27565b611d02565b9050828152602081018484840111156116cb57600080fd5b6116d6848285611e49565b509392505050565b6000813590506116ed81612024565b92915050565b600082601f83011261170457600080fd5b81356117148482602086016116a0565b91505092915050565b60008135905061172c8161203b565b92915050565b6000806040838503121561174557600080fd5b6000611753858286016116de565b92505060206117648582860161171d565b9150509250929050565b60006020828403121561178057600080fd5b600082013567ffffffffffffffff81111561179a57600080fd5b6117a6848285016116f3565b91505092915050565b600080604083850312156117c257600080fd5b600083013567ffffffffffffffff8111156117dc57600080fd5b6117e8858286016116f3565b92505060206117f98582860161171d565b9150509250929050565b60006020828403121561181557600080fd5b60006118238482850161171d565b91505092915050565b600080600080600080600060e0888a03121561184757600080fd5b60006118558a828b0161171d565b975050602088013567ffffffffffffffff81111561187257600080fd5b61187e8a828b016116f3565b965050604088013567ffffffffffffffff81111561189b57600080fd5b6118a78a828b016116f3565b955050606088013567ffffffffffffffff8111156118c457600080fd5b6118d08a828b016116f3565b945050608088013567ffffffffffffffff8111156118ed57600080fd5b6118f98a828b016116f3565b93505060a088013567ffffffffffffffff81111561191657600080fd5b6119228a828b016116f3565b92505060c088013567ffffffffffffffff81111561193f57600080fd5b61194b8a828b016116f3565b91505092959891949750929550565b60006119668383611b1f565b905092915050565b600061197a8383611beb565b905092915050565b600061198d82611d78565b6119978185611db3565b9350836020820285016119a985611d58565b8060005b858110156119e557848403895281516119c6858261195a565b94506119d183611d99565b925060208a019950506001810190506119ad565b50829750879550505050505092915050565b6000611a0282611d83565b611a0c8185611dc4565b935083602082028501611a1e85611d68565b8060005b85811015611a5a5784840389528151611a3b858261196e565b9450611a4683611da6565b925060208a01995050600181019050611a22565b50829750879550505050505092915050565b611a7581611e09565b82525050565b611a8481611e15565b82525050565b6000611a9582611d8e565b611a9f8185611dd5565b9350611aaf818560208601611e58565b611ab881611fc4565b840191505092915050565b6000611ace82611d8e565b611ad88185611de6565b9350611ae8818560208601611e58565b611af181611fc4565b840191505092915050565b6000611b09602a83611de6565b9150611b1482611fd5565b604082019050919050565b600061010083016000830151611b386000860182611c28565b506020830151611b4b6020860182611c28565b5060408301518482036040860152611b638282611a8a565b91505060608301518482036060860152611b7d8282611a8a565b91505060808301518482036080860152611b978282611a8a565b91505060a083015184820360a0860152611bb18282611a8a565b91505060c083015184820360c0860152611bcb8282611a8a565b91505060e0830151611be060e0860182611a7b565b508091505092915050565b6000604083016000830151611c036000860182611c28565b5060208301518482036020860152611c1b8282611a8a565b9150508091505092915050565b611c3181611e3f565b82525050565b611c4081611e3f565b82525050565b60006020820190508181036000830152611c608184611982565b905092915050565b60006020820190508181036000830152611c8281846119f7565b905092915050565b6000602082019050611c9f6000830184611a6c565b92915050565b60006020820190508181036000830152611cbf8184611ac3565b905092915050565b60006020820190508181036000830152611ce081611afc565b9050919050565b6000602082019050611cfc6000830184611c37565b92915050565b6000611d0c611d1d565b9050611d188282611ebd565b919050565b6000604051905090565b600067ffffffffffffffff821115611d4257611d41611f95565b5b611d4b82611fc4565b9050602081019050919050565b6000819050602082019050919050565b6000819050602082019050919050565b600081519050919050565b600081519050919050565b600081519050919050565b6000602082019050919050565b6000602082019050919050565b600082825260208201905092915050565b600082825260208201905092915050565b600082825260208201905092915050565b600082825260208201905092915050565b6000611e0282611e1f565b9050919050565b60008115159050919050565b6000819050919050565b600073ffffffffffffffffffffffffffffffffffffffff82169050919050565b6000819050919050565b82818337600083830152505050565b60005b83811015611e76578082015181840152602081019050611e5b565b83811115611e85576000848401525b50505050565b60006002820490506001821680611ea357607f821691505b60208210811415611eb757611eb6611f66565b5b50919050565b611ec682611fc4565b810181811067ffffffffffffffff82111715611ee557611ee4611f95565b5b80604052505050565b6000611ef982611e3f565b91507fffffffffffffffffffffffffffffffffffffffffffffffffffffffffffffffff821415611f2c57611f2b611f37565b5b600182019050919050565b7f4e487b7100000000000000000000000000000000000000000000000000000000600052601160045260246000fd5b7f4e487b7100000000000000000000000000000000000000000000000000000000600052602260045260246000fd5b7f4e487b7100000000000000000000000000000000000000000000000000000000600052604160045260246000fd5b6000601f19601f8301169050919050565b7f4f6e6c792067726f7570206f776e6572732063616e206372656174652065766560008201527f6e74207265636f72647300000000000000000000000000000000000000000000602082015250565b61202d81611df7565b811461203857600080fd5b50565b61204481611e3f565b811461204f57600080fd5b5056fea26469706673582212206e91b961b32aff8c7e4562faaa01abf64891e62fad855815a87adc81c80c9d4b64736f6c63430008040033",
  "linkReferences": {},
  "deployedLinkReferences": {}
}