{
  "_format": "hh-sol-artifact-1",
  "contractName": "EventManager",
  "sourceName": "contracts/Event.sol",
  "abi": [
    {
      "inputs": [
        {
          "internalType": "address",
          "name": "_mintNftAddr",
          "type": "address"
        }
      ],
      "stateMutability": "nonpayable",
      "type": "constructor"
    },
    {
      "anonymous": false,
      "inputs": [
        {
          "indexed": true,
          "internalType": "address",
          "name": "previousOwner",
          "type": "address"
        },
        {
          "indexed": true,
          "internalType": "address",
          "name": "newOwner",
          "type": "address"
        }
      ],
      "name": "OwnershipTransferred",
      "type": "event"
    },
    {
      "inputs": [
        {
          "internalType": "uint256",
          "name": "_eventRecordId",
          "type": "uint256"
        }
      ],
      "name": "applyForParticipation",
      "outputs": [],
      "stateMutability": "nonpayable",
      "type": "function"
    },
    {
      "inputs": [
        {
          "internalType": "address",
          "name": "_participantAddress",
          "type": "address"
        },
        {
          "internalType": "uint256",
          "name": "_groupId",
          "type": "uint256"
        }
      ],
      "name": "countParticipationByGroup",
      "outputs": [
        {
          "internalType": "uint256",
          "name": "",
          "type": "uint256"
        }
      ],
      "stateMutability": "view",
      "type": "function"
    },
    {
      "inputs": [
        {
          "internalType": "uint256",
          "name": "_groupId",
          "type": "uint256"
        },
        {
          "internalType": "string",
          "name": "_name",
          "type": "string"
        },
        {
          "internalType": "string",
          "name": "_description",
          "type": "string"
        },
        {
          "internalType": "string",
          "name": "_date",
          "type": "string"
        },
        {
          "internalType": "string",
          "name": "_startTime",
          "type": "string"
        },
        {
          "internalType": "string",
          "name": "_endTime",
          "type": "string"
        },
        {
          "internalType": "string",
          "name": "_secretPhrase",
          "type": "string"
        }
      ],
      "name": "createEventRecord",
      "outputs": [],
      "stateMutability": "nonpayable",
      "type": "function"
    },
    {
      "inputs": [
        {
          "internalType": "string",
          "name": "_name",
          "type": "string"
        },
        {
          "components": [
            {
              "internalType": "string",
              "name": "image",
              "type": "string"
            },
            {
              "internalType": "uint256",
              "name": "requiredParticipateCount",
              "type": "uint256"
            }
          ],
          "internalType": "struct EventManager.GroupAttributes[]",
          "name": "_groupAttributes",
          "type": "tuple[]"
        }
      ],
      "name": "createGroup",
      "outputs": [],
      "stateMutability": "nonpayable",
      "type": "function"
    },
    {
      "inputs": [
        {
          "internalType": "uint256",
          "name": "_eventId",
          "type": "uint256"
        }
      ],
      "name": "getEventById",
      "outputs": [
        {
          "components": [
            {
              "internalType": "uint256",
              "name": "eventRecordId",
              "type": "uint256"
            },
            {
              "internalType": "uint256",
              "name": "groupId",
              "type": "uint256"
            },
            {
              "internalType": "string",
              "name": "name",
              "type": "string"
            },
            {
              "internalType": "string",
              "name": "description",
              "type": "string"
            },
            {
              "internalType": "string",
              "name": "date",
              "type": "string"
            },
            {
              "internalType": "string",
              "name": "startTime",
              "type": "string"
            },
            {
              "internalType": "string",
              "name": "endTime",
              "type": "string"
            },
            {
              "internalType": "bytes32",
              "name": "secretPhrase",
              "type": "bytes32"
            }
          ],
          "internalType": "struct EventManager.EventRecord",
          "name": "",
          "type": "tuple"
        }
      ],
      "stateMutability": "view",
      "type": "function"
    },
    {
      "inputs": [],
      "name": "getEventRecords",
      "outputs": [
        {
          "components": [
            {
              "internalType": "uint256",
              "name": "eventRecordId",
              "type": "uint256"
            },
            {
              "internalType": "uint256",
              "name": "groupId",
              "type": "uint256"
            },
            {
              "internalType": "string",
              "name": "name",
              "type": "string"
            },
            {
              "internalType": "string",
              "name": "description",
              "type": "string"
            },
            {
              "internalType": "string",
              "name": "date",
              "type": "string"
            },
            {
              "internalType": "string",
              "name": "startTime",
              "type": "string"
            },
            {
              "internalType": "string",
              "name": "endTime",
              "type": "string"
            },
            {
              "internalType": "bytes32",
              "name": "secretPhrase",
              "type": "bytes32"
            }
          ],
          "internalType": "struct EventManager.EventRecord[]",
          "name": "",
          "type": "tuple[]"
        }
      ],
      "stateMutability": "view",
      "type": "function"
    },
    {
      "inputs": [],
      "name": "getGroups",
      "outputs": [
        {
          "components": [
            {
              "internalType": "uint256",
              "name": "groupId",
              "type": "uint256"
            },
            {
              "internalType": "address",
              "name": "ownerAddress",
              "type": "address"
            },
            {
              "internalType": "string",
              "name": "name",
              "type": "string"
            }
          ],
          "internalType": "struct EventManager.Group[]",
          "name": "",
          "type": "tuple[]"
        }
      ],
      "stateMutability": "view",
      "type": "function"
    },
    {
      "inputs": [],
      "name": "getOwnGroups",
      "outputs": [
        {
          "components": [
            {
              "internalType": "uint256",
              "name": "groupId",
              "type": "uint256"
            },
            {
              "internalType": "address",
              "name": "ownerAddress",
              "type": "address"
            },
            {
              "internalType": "string",
              "name": "name",
              "type": "string"
            }
          ],
          "internalType": "struct EventManager.Group[]",
          "name": "",
          "type": "tuple[]"
        }
      ],
      "stateMutability": "view",
      "type": "function"
    },
    {
      "inputs": [],
      "name": "getParticipationEventIds",
      "outputs": [
        {
          "internalType": "uint256[]",
          "name": "",
          "type": "uint256[]"
        }
      ],
      "stateMutability": "view",
      "type": "function"
    },
    {
      "inputs": [],
      "name": "owner",
      "outputs": [
        {
          "internalType": "address",
          "name": "",
          "type": "address"
        }
      ],
      "stateMutability": "view",
      "type": "function"
    },
    {
      "inputs": [],
      "name": "renounceOwnership",
      "outputs": [],
      "stateMutability": "nonpayable",
      "type": "function"
    },
    {
      "inputs": [
        {
          "internalType": "address",
          "name": "_mintNftAddr",
          "type": "address"
        }
      ],
      "name": "setMintNFTAddr",
      "outputs": [],
      "stateMutability": "nonpayable",
      "type": "function"
    },
    {
      "inputs": [],
      "name": "testConnection",
      "outputs": [
        {
          "internalType": "string",
          "name": "",
          "type": "string"
        }
      ],
      "stateMutability": "pure",
      "type": "function"
    },
    {
      "inputs": [
        {
          "internalType": "address",
          "name": "newOwner",
          "type": "address"
        }
      ],
      "name": "transferOwnership",
      "outputs": [],
      "stateMutability": "nonpayable",
      "type": "function"
    },
    {
      "inputs": [
        {
          "internalType": "string",
          "name": "_secretPhrase",
          "type": "string"
        },
        {
          "internalType": "uint256",
          "name": "_eventRecordId",
          "type": "uint256"
        }
      ],
      "name": "verifySecretPhrase",
      "outputs": [
        {
          "internalType": "bool",
          "name": "",
          "type": "bool"
        }
      ],
      "stateMutability": "view",
      "type": "function"
    }
  ],
  "bytecode": "0x60806040523480156200001157600080fd5b5060405162003218380380620032188339818101604052810190620000379190620002dd565b620000576200004b6200011860201b60201c565b6200012060201b60201c565b80600b60006101000a81548173ffffffffffffffffffffffffffffffffffffffff021916908373ffffffffffffffffffffffffffffffffffffffff160217905550620000e36040518060400160405280600481526020017f696e697400000000000000000000000000000000000000000000000000000000815250620001e460201b62001a401760201c565b620000fa60026200028760201b62001ad91760201c565b6200011160016200028760201b62001ad91760201c565b506200041f565b600033905090565b60008060009054906101000a900473ffffffffffffffffffffffffffffffffffffffff169050816000806101000a81548173ffffffffffffffffffffffffffffffffffffffff021916908373ffffffffffffffffffffffffffffffffffffffff1602179055508173ffffffffffffffffffffffffffffffffffffffff168173ffffffffffffffffffffffffffffffffffffffff167f8be0079c531659141344cd1fd0a4f28419497f9722a3daafe3b4186f6b6457e060405160405180910390a35050565b6200028481604051602401620001fb91906200034a565b6040516020818303038152906040527f41304fac000000000000000000000000000000000000000000000000000000007bffffffffffffffffffffffffffffffffffffffffffffffffffffffff19166020820180517bffffffffffffffffffffffffffffffffffffffffffffffffffffffff83818316178352505050506200029d60201b60201c565b50565b6001816000016000828254019250508190555050565b60008151905060006a636f6e736f6c652e6c6f679050602083016000808483855afa5050505050565b600081519050620002d78162000405565b92915050565b600060208284031215620002f057600080fd5b60006200030084828501620002c6565b91505092915050565b600062000316826200036e565b62000322818562000379565b935062000334818560208601620003be565b6200033f81620003f4565b840191505092915050565b6000602082019050818103600083015262000366818462000309565b905092915050565b600081519050919050565b600082825260208201905092915050565b600062000397826200039e565b9050919050565b600073ffffffffffffffffffffffffffffffffffffffff82169050919050565b60005b83811015620003de578082015181840152602081019050620003c1565b83811115620003ee576000848401525b50505050565b6000601f19601f8301169050919050565b62000410816200038a565b81146200041c57600080fd5b50565b612de9806200042f6000396000f3fe608060405234801561001057600080fd5b50600436106100f55760003560e01c8063be04cc3611610097578063e37c24fe11610066578063e37c24fe1461024e578063f2be2f6d1461027e578063f2fde38b1461029a578063f321060a146102b6576100f5565b8063be04cc36146101d8578063c72b5176146101f6578063d337483a14610214578063e0022d0614610232576100f5565b806345e46c69116100d357806345e46c6914610164578063715018a6146101805780638da5cb5b1461018a578063b98079bc146101a8576100f5565b806306fe6dec146100fa5780631ac30e631461012a5780633412a15c14610146575b600080fd5b610114600480360381019061010f9190611f90565b6102d4565b60405161012191906128ce565b60405180910390f35b610144600480360381019061013f9190611f67565b6103df565b005b61014e61042b565b60405161015b919061282a565b60405180910390f35b61017e6004803603810190610179919061208c565b61046e565b005b6101886105ca565b005b6101926105de565b60405161019f919061278e565b60405180910390f35b6101c260048036038101906101bd919061208c565b610607565b6040516101cf91906128ac565b60405180910390f35b6101e061097a565b6040516101ed91906127cb565b60405180910390f35b6101fe610c91565b60405161020b91906127cb565b60405180910390f35b61021c610e6f565b60405161022991906127a9565b60405180910390f35b61024c60048036038101906102479190611fcc565b611254565b005b61026860048036038101906102639190612038565b6115d1565b604051610275919061280f565b60405180910390f35b610298600480360381019061029391906120b5565b611653565b005b6102b460048036038101906102af9190611f67565b611921565b005b6102be6119a5565b6040516102cb91906127ed565b60405180910390f35b600080600760008573ffffffffffffffffffffffffffffffffffffffff1673ffffffffffffffffffffffffffffffffffffffff1681526020019081526020016000208054905090506000805b828110156103d35784600760008873ffffffffffffffffffffffffffffffffffffffff1673ffffffffffffffffffffffffffffffffffffffff16815260200190815260200160002082815481106103a0577f4e487b7100000000000000000000000000000000000000000000000000000000600052603260045260246000fd5b906000526020600020015414156103c05781806103bc90612bd7565b9250505b80806103cb90612bd7565b915050610320565b50809250505092915050565b6103e7611aef565b80600b60006101000a81548173ffffffffffffffffffffffffffffffffffffffff021916908373ffffffffffffffffffffffffffffffffffffffff16021790555050565b606060006040518060400160405280601a81526020017f5465737420636f6e6e656374696f6e207375636365737366756c00000000000081525090508091505090565b60066000828152602001908152602001600020339080600181540180825580915050600190039060005260206000200160009091909190916101000a81548173ffffffffffffffffffffffffffffffffffffffff021916908373ffffffffffffffffffffffffffffffffffffffff160217905550600860003373ffffffffffffffffffffffffffffffffffffffff1673ffffffffffffffffffffffffffffffffffffffff1681526020019081526020016000208190806001815401808255809150506001900390600052602060002001600090919091909150556000600a6000838152602001908152602001600020549050600760003373ffffffffffffffffffffffffffffffffffffffff1673ffffffffffffffffffffffffffffffffffffffff1681526020019081526020016000208190806001815401808255809150506001900390600052602060002001600090919091909150555050565b6105d2611aef565b6105dc6000611b6d565b565b60008060009054906101000a900473ffffffffffffffffffffffffffffffffffffffff16905090565b61060f611c70565b600060018361061e9190612aac565b905060006004828154811061065c577f4e487b7100000000000000000000000000000000000000000000000000000000600052603260045260246000fd5b906000526020600020906008020160405180610100016040529081600082015481526020016001820154815260200160028201805461069a90612b74565b80601f01602080910402602001604051908101604052809291908181526020018280546106c690612b74565b80156107135780601f106106e857610100808354040283529160200191610713565b820191906000526020600020905b8154815290600101906020018083116106f657829003601f168201915b5050505050815260200160038201805461072c90612b74565b80601f016020809104026020016040519081016040528092919081815260200182805461075890612b74565b80156107a55780601f1061077a576101008083540402835291602001916107a5565b820191906000526020600020905b81548152906001019060200180831161078857829003601f168201915b505050505081526020016004820180546107be90612b74565b80601f01602080910402602001604051908101604052809291908181526020018280546107ea90612b74565b80156108375780601f1061080c57610100808354040283529160200191610837565b820191906000526020600020905b81548152906001019060200180831161081a57829003601f168201915b5050505050815260200160058201805461085090612b74565b80601f016020809104026020016040519081016040528092919081815260200182805461087c90612b74565b80156108c95780601f1061089e576101008083540402835291602001916108c9565b820191906000526020600020905b8154815290600101906020018083116108ac57829003601f168201915b505050505081526020016006820180546108e290612b74565b80601f016020809104026020016040519081016040528092919081815260200182805461090e90612b74565b801561095b5780601f106109305761010080835404028352916020019161095b565b820191906000526020600020905b81548152906001019060200180831161093e57829003601f168201915b5050505050815260200160078201548152505090508092505050919050565b60606000600560003373ffffffffffffffffffffffffffffffffffffffff1673ffffffffffffffffffffffffffffffffffffffff16815260200190815260200160002080549050905060008167ffffffffffffffff811115610a05577f4e487b7100000000000000000000000000000000000000000000000000000000600052604160045260246000fd5b604051908082528060200260200182016040528015610a3e57816020015b610a2b611cb8565b815260200190600190039081610a235790505b50905060005b82811015610c88573373ffffffffffffffffffffffffffffffffffffffff1660038281548110610a9d577f4e487b7100000000000000000000000000000000000000000000000000000000600052603260045260246000fd5b906000526020600020906003020160010160009054906101000a900473ffffffffffffffffffffffffffffffffffffffff1673ffffffffffffffffffffffffffffffffffffffff161415610c755760038181548110610b25577f4e487b7100000000000000000000000000000000000000000000000000000000600052603260045260246000fd5b9060005260206000209060030201604051806060016040529081600082015481526020016001820160009054906101000a900473ffffffffffffffffffffffffffffffffffffffff1673ffffffffffffffffffffffffffffffffffffffff1673ffffffffffffffffffffffffffffffffffffffff168152602001600282018054610bae90612b74565b80601f0160208091040260200160405190810160405280929190818152602001828054610bda90612b74565b8015610c275780601f10610bfc57610100808354040283529160200191610c27565b820191906000526020600020905b815481529060010190602001808311610c0a57829003601f168201915b505050505081525050828281518110610c69577f4e487b7100000000000000000000000000000000000000000000000000000000600052603260045260246000fd5b60200260200101819052505b8080610c8090612bd7565b915050610a44565b50809250505090565b60606000600380549050905060008167ffffffffffffffff811115610cdf577f4e487b7100000000000000000000000000000000000000000000000000000000600052604160045260246000fd5b604051908082528060200260200182016040528015610d1857816020015b610d05611cb8565b815260200190600190039081610cfd5790505b5090506003805480602002602001604051908101604052809291908181526020016000905b82821015610e615783829060005260206000209060030201604051806060016040529081600082015481526020016001820160009054906101000a900473ffffffffffffffffffffffffffffffffffffffff1673ffffffffffffffffffffffffffffffffffffffff1673ffffffffffffffffffffffffffffffffffffffff168152602001600282018054610dd090612b74565b80601f0160208091040260200160405190810160405280929190818152602001828054610dfc90612b74565b8015610e495780601f10610e1e57610100808354040283529160200191610e49565b820191906000526020600020905b815481529060010190602001808311610e2c57829003601f168201915b50505050508152505081526020019060010190610d3d565b505050509050809250505090565b60606000600480549050905060008167ffffffffffffffff811115610ebd577f4e487b7100000000000000000000000000000000000000000000000000000000600052604160045260246000fd5b604051908082528060200260200182016040528015610ef657816020015b610ee3611c70565b815260200190600190039081610edb5790505b5090506004805480602002602001604051908101604052809291908181526020016000905b828210156112465783829060005260206000209060080201604051806101000160405290816000820154815260200160018201548152602001600282018054610f6390612b74565b80601f0160208091040260200160405190810160405280929190818152602001828054610f8f90612b74565b8015610fdc5780601f10610fb157610100808354040283529160200191610fdc565b820191906000526020600020905b815481529060010190602001808311610fbf57829003601f168201915b50505050508152602001600382018054610ff590612b74565b80601f016020809104026020016040519081016040528092919081815260200182805461102190612b74565b801561106e5780601f106110435761010080835404028352916020019161106e565b820191906000526020600020905b81548152906001019060200180831161105157829003601f168201915b5050505050815260200160048201805461108790612b74565b80601f01602080910402602001604051908101604052809291908181526020018280546110b390612b74565b80156111005780601f106110d557610100808354040283529160200191611100565b820191906000526020600020905b8154815290600101906020018083116110e357829003601f168201915b5050505050815260200160058201805461111990612b74565b80601f016020809104026020016040519081016040528092919081815260200182805461114590612b74565b80156111925780601f1061116757610100808354040283529160200191611192565b820191906000526020600020905b81548152906001019060200180831161117557829003601f168201915b505050505081526020016006820180546111ab90612b74565b80601f01602080910402602001604051908101604052809291908181526020018280546111d790612b74565b80156112245780601f106111f957610100808354040283529160200191611224565b820191906000526020600020905b81548152906001019060200180831161120757829003601f168201915b5050505050815260200160078201548152505081526020019060010190610f1b565b505050509050809250505090565b60006112606002611c31565b90506000600b60009054906101000a900473ffffffffffffffffffffffffffffffffffffffff16905060008351905060008167ffffffffffffffff8111156112d1577f4e487b7100000000000000000000000000000000000000000000000000000000600052604160045260246000fd5b60405190808252806020026020018201604052801561130a57816020015b6112f7611cef565b8152602001906001900390816112ef5790505b50905060005b8281101561141f576040518060a00160405280888152602001878381518110611362577f4e487b7100000000000000000000000000000000000000000000000000000000600052603260045260246000fd5b6020026020010151600001518152602001868152602001600081526020018783815181106113b9577f4e487b7100000000000000000000000000000000000000000000000000000000600052603260045260246000fd5b602002602001015160200151815250828281518110611401577f4e487b7100000000000000000000000000000000000000000000000000000000600052603260045260246000fd5b6020026020010181905250808061141790612bd7565b915050611310565b508273ffffffffffffffffffffffffffffffffffffffff16630ee0e9d185836040518363ffffffff1660e01b815260040161145b9291906128e9565b600060405180830381600087803b15801561147557600080fd5b505af1158015611489573d6000803e3d6000fd5b50505050600360405180606001604052808681526020013373ffffffffffffffffffffffffffffffffffffffff1681526020018881525090806001815401808255809150506001900390600052602060002090600302016000909190919091506000820151816000015560208201518160010160006101000a81548173ffffffffffffffffffffffffffffffffffffffff021916908373ffffffffffffffffffffffffffffffffffffffff1602179055506040820151816002019080519060200190611556929190611d1e565b505050600560003373ffffffffffffffffffffffffffffffffffffffff1673ffffffffffffffffffffffffffffffffffffffff1681526020019081526020016000208490806001815401808255809150506001900390600052602060002001600090919091909150556115c96002611ad9565b505050505050565b60008083905060008180519060200120905060006001856115f29190612aac565b905060008260048381548110611631577f4e487b7100000000000000000000000000000000000000000000000000000000600052603260045260246000fd5b9060005260206000209060080201600701541490508094505050505092915050565b6000805b600560003373ffffffffffffffffffffffffffffffffffffffff1673ffffffffffffffffffffffffffffffffffffffff168152602001908152602001600020805490508110156117425788600560003373ffffffffffffffffffffffffffffffffffffffff1673ffffffffffffffffffffffffffffffffffffffff1681526020019081526020016000208281548110611719577f4e487b7100000000000000000000000000000000000000000000000000000000600052603260045260246000fd5b9060005260206000200154141561172f57600191505b808061173a90612bd7565b915050611657565b5080611783576040517f08c379a000000000000000000000000000000000000000000000000000000000815260040161177a9061286c565b60405180910390fd5b600061178f6001611c31565b9050600083905060008180519060200120905060046040518061010001604052808581526020018d81526020018c81526020018b81526020018a815260200189815260200188815260200183815250908060018154018082558091505060019003906000526020600020906008020160009091909190915060008201518160000155602082015181600101556040820151816002019080519060200190611837929190611d1e565b506060820151816003019080519060200190611854929190611d1e565b506080820151816004019080519060200190611871929190611d1e565b5060a082015181600501908051906020019061188e929190611d1e565b5060c08201518160060190805190602001906118ab929190611d1e565b5060e082015181600701555050600960008c81526020019081526020016000208390806001815401808255809150506001900390600052602060002001600090919091909150558a600a6000858152602001908152602001600020819055506119146001611ad9565b5050505050505050505050565b611929611aef565b600073ffffffffffffffffffffffffffffffffffffffff168173ffffffffffffffffffffffffffffffffffffffff161415611999576040517f08c379a00000000000000000000000000000000000000000000000000000000081526004016119909061284c565b60405180910390fd5b6119a281611b6d565b50565b60606000600860003373ffffffffffffffffffffffffffffffffffffffff1673ffffffffffffffffffffffffffffffffffffffff168152602001908152602001600020805480602002602001604051908101604052809291908181526020018280548015611a3257602002820191906000526020600020905b815481526020019060010190808311611a1e575b505050505090508091505090565b611ad681604051602401611a54919061282a565b6040516020818303038152906040527f41304fac000000000000000000000000000000000000000000000000000000007bffffffffffffffffffffffffffffffffffffffffffffffffffffffff19166020820180517bffffffffffffffffffffffffffffffffffffffffffffffffffffffff8381831617835250505050611c3f565b50565b6001816000016000828254019250508190555050565b611af7611c68565b73ffffffffffffffffffffffffffffffffffffffff16611b156105de565b73ffffffffffffffffffffffffffffffffffffffff1614611b6b576040517f08c379a0000000000000000000000000000000000000000000000000000000008152600401611b629061288c565b60405180910390fd5b565b60008060009054906101000a900473ffffffffffffffffffffffffffffffffffffffff169050816000806101000a81548173ffffffffffffffffffffffffffffffffffffffff021916908373ffffffffffffffffffffffffffffffffffffffff1602179055508173ffffffffffffffffffffffffffffffffffffffff168173ffffffffffffffffffffffffffffffffffffffff167f8be0079c531659141344cd1fd0a4f28419497f9722a3daafe3b4186f6b6457e060405160405180910390a35050565b600081600001549050919050565b60008151905060006a636f6e736f6c652e6c6f679050602083016000808483855afa5050505050565b600033905090565b60405180610100016040528060008152602001600081526020016060815260200160608152602001606081526020016060815260200160608152602001600080191681525090565b604051806060016040528060008152602001600073ffffffffffffffffffffffffffffffffffffffff168152602001606081525090565b6040518060a0016040528060608152602001606081526020016000815260200160008152602001600081525090565b828054611d2a90612b74565b90600052602060002090601f016020900481019282611d4c5760008555611d93565b82601f10611d6557805160ff1916838001178555611d93565b82800160010185558215611d93579182015b82811115611d92578251825591602001919060010190611d77565b5b509050611da09190611da4565b5090565b5b80821115611dbd576000816000905550600101611da5565b5090565b6000611dd4611dcf8461293e565b612919565b90508083825260208201905082856020860282011115611df357600080fd5b60005b85811015611e3d57813567ffffffffffffffff811115611e1557600080fd5b808601611e228982611eee565b85526020850194506020840193505050600181019050611df6565b5050509392505050565b6000611e5a611e558461296a565b612919565b905082815260208101848484011115611e7257600080fd5b611e7d848285612b32565b509392505050565b600081359050611e9481612d85565b92915050565b600082601f830112611eab57600080fd5b8135611ebb848260208601611dc1565b91505092915050565b600082601f830112611ed557600080fd5b8135611ee5848260208601611e47565b91505092915050565b600060408284031215611f0057600080fd5b611f0a6040612919565b9050600082013567ffffffffffffffff811115611f2657600080fd5b611f3284828501611ec4565b6000830152506020611f4684828501611f52565b60208301525092915050565b600081359050611f6181612d9c565b92915050565b600060208284031215611f7957600080fd5b6000611f8784828501611e85565b91505092915050565b60008060408385031215611fa357600080fd5b6000611fb185828601611e85565b9250506020611fc285828601611f52565b9150509250929050565b60008060408385031215611fdf57600080fd5b600083013567ffffffffffffffff811115611ff957600080fd5b61200585828601611ec4565b925050602083013567ffffffffffffffff81111561202257600080fd5b61202e85828601611e9a565b9150509250929050565b6000806040838503121561204b57600080fd5b600083013567ffffffffffffffff81111561206557600080fd5b61207185828601611ec4565b925050602061208285828601611f52565b9150509250929050565b60006020828403121561209e57600080fd5b60006120ac84828501611f52565b91505092915050565b600080600080600080600060e0888a0312156120d057600080fd5b60006120de8a828b01611f52565b975050602088013567ffffffffffffffff8111156120fb57600080fd5b6121078a828b01611ec4565b965050604088013567ffffffffffffffff81111561212457600080fd5b6121308a828b01611ec4565b955050606088013567ffffffffffffffff81111561214d57600080fd5b6121598a828b01611ec4565b945050608088013567ffffffffffffffff81111561217657600080fd5b6121828a828b01611ec4565b93505060a088013567ffffffffffffffff81111561219f57600080fd5b6121ab8a828b01611ec4565b92505060c088013567ffffffffffffffff8111156121c857600080fd5b6121d48a828b01611ec4565b91505092959891949750929550565b60006121ef838361250b565b905092915050565b600061220383836126a3565b905092915050565b600061221783836126f3565b905092915050565b600061222b8383612770565b60208301905092915050565b61224081612ae0565b82525050565b61224f81612ae0565b82525050565b6000612260826129db565b61226a8185612a46565b93508360208202850161227c8561299b565b8060005b858110156122b8578484038952815161229985826121e3565b94506122a483612a12565b925060208a01995050600181019050612280565b50829750879550505050505092915050565b60006122d5826129e6565b6122df8185612a57565b9350836020820285016122f1856129ab565b8060005b8581101561232d578484038952815161230e85826121f7565b945061231983612a1f565b925060208a019950506001810190506122f5565b50829750879550505050505092915050565b600061234a826129f1565b6123548185612a68565b935083602082028501612366856129bb565b8060005b858110156123a25784840389528151612383858261220b565b945061238e83612a2c565b925060208a0199505060018101905061236a565b50829750879550505050505092915050565b60006123bf826129fc565b6123c98185612a79565b93506123d4836129cb565b8060005b838110156124055781516123ec888261221f565b97506123f783612a39565b9250506001810190506123d8565b5085935050505092915050565b61241b81612af2565b82525050565b61242a81612afe565b82525050565b600061243b82612a07565b6124458185612a8a565b9350612455818560208601612b41565b61245e81612cad565b840191505092915050565b600061247482612a07565b61247e8185612a9b565b935061248e818560208601612b41565b61249781612cad565b840191505092915050565b60006124af602683612a9b565b91506124ba82612cbe565b604082019050919050565b60006124d2602a83612a9b565b91506124dd82612d0d565b604082019050919050565b60006124f5602083612a9b565b915061250082612d5c565b602082019050919050565b6000610100830160008301516125246000860182612770565b5060208301516125376020860182612770565b506040830151848203604086015261254f8282612430565b915050606083015184820360608601526125698282612430565b915050608083015184820360808601526125838282612430565b91505060a083015184820360a086015261259d8282612430565b91505060c083015184820360c08601526125b78282612430565b91505060e08301516125cc60e0860182612421565b508091505092915050565b6000610100830160008301516125f06000860182612770565b5060208301516126036020860182612770565b506040830151848203604086015261261b8282612430565b915050606083015184820360608601526126358282612430565b9150506080830151848203608086015261264f8282612430565b91505060a083015184820360a08601526126698282612430565b91505060c083015184820360c08601526126838282612430565b91505060e083015161269860e0860182612421565b508091505092915050565b60006060830160008301516126bb6000860182612770565b5060208301516126ce6020860182612237565b50604083015184820360408601526126e68282612430565b9150508091505092915050565b600060a08301600083015184820360008601526127108282612430565b9150506020830151848203602086015261272a8282612430565b915050604083015161273f6040860182612770565b5060608301516127526060860182612770565b5060808301516127656080860182612770565b508091505092915050565b61277981612b28565b82525050565b61278881612b28565b82525050565b60006020820190506127a36000830184612246565b92915050565b600060208201905081810360008301526127c38184612255565b905092915050565b600060208201905081810360008301526127e581846122ca565b905092915050565b6000602082019050818103600083015261280781846123b4565b905092915050565b60006020820190506128246000830184612412565b92915050565b600060208201905081810360008301526128448184612469565b905092915050565b60006020820190508181036000830152612865816124a2565b9050919050565b60006020820190508181036000830152612885816124c5565b9050919050565b600060208201905081810360008301526128a5816124e8565b9050919050565b600060208201905081810360008301526128c681846125d7565b905092915050565b60006020820190506128e3600083018461277f565b92915050565b60006040820190506128fe600083018561277f565b8181036020830152612910818461233f565b90509392505050565b6000612923612934565b905061292f8282612ba6565b919050565b6000604051905090565b600067ffffffffffffffff82111561295957612958612c7e565b5b602082029050602081019050919050565b600067ffffffffffffffff82111561298557612984612c7e565b5b61298e82612cad565b9050602081019050919050565b6000819050602082019050919050565b6000819050602082019050919050565b6000819050602082019050919050565b6000819050602082019050919050565b600081519050919050565b600081519050919050565b600081519050919050565b600081519050919050565b600081519050919050565b6000602082019050919050565b6000602082019050919050565b6000602082019050919050565b6000602082019050919050565b600082825260208201905092915050565b600082825260208201905092915050565b600082825260208201905092915050565b600082825260208201905092915050565b600082825260208201905092915050565b600082825260208201905092915050565b6000612ab782612b28565b9150612ac283612b28565b925082821015612ad557612ad4612c20565b5b828203905092915050565b6000612aeb82612b08565b9050919050565b60008115159050919050565b6000819050919050565b600073ffffffffffffffffffffffffffffffffffffffff82169050919050565b6000819050919050565b82818337600083830152505050565b60005b83811015612b5f578082015181840152602081019050612b44565b83811115612b6e576000848401525b50505050565b60006002820490506001821680612b8c57607f821691505b60208210811415612ba057612b9f612c4f565b5b50919050565b612baf82612cad565b810181811067ffffffffffffffff82111715612bce57612bcd612c7e565b5b80604052505050565b6000612be282612b28565b91507fffffffffffffffffffffffffffffffffffffffffffffffffffffffffffffffff821415612c1557612c14612c20565b5b600182019050919050565b7f4e487b7100000000000000000000000000000000000000000000000000000000600052601160045260246000fd5b7f4e487b7100000000000000000000000000000000000000000000000000000000600052602260045260246000fd5b7f4e487b7100000000000000000000000000000000000000000000000000000000600052604160045260246000fd5b6000601f19601f8301169050919050565b7f4f776e61626c653a206e6577206f776e657220697320746865207a65726f206160008201527f6464726573730000000000000000000000000000000000000000000000000000602082015250565b7f4f6e6c792067726f7570206f776e6572732063616e206372656174652065766560008201527f6e74207265636f72647300000000000000000000000000000000000000000000602082015250565b7f4f776e61626c653a2063616c6c6572206973206e6f7420746865206f776e6572600082015250565b612d8e81612ae0565b8114612d9957600080fd5b50565b612da581612b28565b8114612db057600080fd5b5056fea26469706673582212207cb12432ff09d68078373c7dea0d3daaba139b08755fc7091176213da572bc6c64736f6c63430008040033",
  "linkReferences": {},
  "deployedLinkReferences": {}
}