{
  "_format": "hh-sol-artifact-1",
  "contractName": "EventManager",
  "sourceName": "contracts/Event.sol",
  "abi": [
    {
      "inputs": [
        {
          "internalType": "address",
          "name": "_mintNftAddr",
          "type": "address"
        }
      ],
      "stateMutability": "nonpayable",
      "type": "constructor"
    },
    {
      "anonymous": false,
      "inputs": [
        {
          "indexed": true,
          "internalType": "address",
          "name": "previousOwner",
          "type": "address"
        },
        {
          "indexed": true,
          "internalType": "address",
          "name": "newOwner",
          "type": "address"
        }
      ],
      "name": "OwnershipTransferred",
      "type": "event"
    },
    {
      "inputs": [
        {
          "internalType": "uint256",
          "name": "_eventRecordId",
          "type": "uint256"
        }
      ],
      "name": "applyForParticipation",
      "outputs": [],
      "stateMutability": "nonpayable",
      "type": "function"
    },
    {
      "inputs": [
        {
          "internalType": "address",
          "name": "_participantAddress",
          "type": "address"
        },
        {
          "internalType": "uint256",
          "name": "_groupId",
          "type": "uint256"
        }
      ],
      "name": "countParticipationByGroup",
      "outputs": [
        {
          "internalType": "uint256",
          "name": "",
          "type": "uint256"
        }
      ],
      "stateMutability": "view",
      "type": "function"
    },
    {
      "inputs": [
        {
          "internalType": "uint256",
          "name": "_groupId",
          "type": "uint256"
        },
        {
          "internalType": "string",
          "name": "_name",
          "type": "string"
        },
        {
          "internalType": "string",
          "name": "_description",
          "type": "string"
        },
        {
          "internalType": "string",
          "name": "_date",
          "type": "string"
        },
        {
          "internalType": "string",
          "name": "_startTime",
          "type": "string"
        },
        {
          "internalType": "string",
          "name": "_endTime",
          "type": "string"
        },
        {
          "internalType": "string",
          "name": "_secretPhrase",
          "type": "string"
        }
      ],
      "name": "createEventRecord",
      "outputs": [],
      "stateMutability": "nonpayable",
      "type": "function"
    },
    {
      "inputs": [
        {
          "internalType": "string",
          "name": "_name",
          "type": "string"
        },
        {
          "components": [
            {
              "internalType": "string",
              "name": "image",
              "type": "string"
            },
            {
              "internalType": "uint256",
              "name": "requiredParticipateCount",
              "type": "uint256"
            }
          ],
          "internalType": "struct EventManager.GroupAttributes[]",
          "name": "_groupAttributes",
          "type": "tuple[]"
        }
      ],
      "name": "createGroup",
      "outputs": [],
      "stateMutability": "nonpayable",
      "type": "function"
    },
    {
      "inputs": [],
      "name": "getEventRecords",
      "outputs": [
        {
          "components": [
            {
              "internalType": "uint256",
              "name": "eventRecordId",
              "type": "uint256"
            },
            {
              "internalType": "uint256",
              "name": "groupId",
              "type": "uint256"
            },
            {
              "internalType": "string",
              "name": "name",
              "type": "string"
            },
            {
              "internalType": "string",
              "name": "description",
              "type": "string"
            },
            {
              "internalType": "string",
              "name": "date",
              "type": "string"
            },
            {
              "internalType": "string",
              "name": "startTime",
              "type": "string"
            },
            {
              "internalType": "string",
              "name": "endTime",
              "type": "string"
            },
            {
              "internalType": "bytes32",
              "name": "secretPhrase",
              "type": "bytes32"
            }
          ],
          "internalType": "struct EventManager.EventRecord[]",
          "name": "",
          "type": "tuple[]"
        }
      ],
      "stateMutability": "view",
      "type": "function"
    },
    {
      "inputs": [],
      "name": "getGroups",
      "outputs": [
        {
          "components": [
            {
              "internalType": "uint256",
              "name": "groupId",
              "type": "uint256"
            },
            {
              "internalType": "address",
              "name": "ownerAddress",
              "type": "address"
            },
            {
              "internalType": "string",
              "name": "name",
              "type": "string"
            }
          ],
          "internalType": "struct EventManager.Group[]",
          "name": "",
          "type": "tuple[]"
        }
      ],
      "stateMutability": "view",
      "type": "function"
    },
    {
      "inputs": [],
      "name": "getOwnGroups",
      "outputs": [
        {
          "components": [
            {
              "internalType": "uint256",
              "name": "groupId",
              "type": "uint256"
            },
            {
              "internalType": "address",
              "name": "ownerAddress",
              "type": "address"
            },
            {
              "internalType": "string",
              "name": "name",
              "type": "string"
            }
          ],
          "internalType": "struct EventManager.Group[]",
          "name": "",
          "type": "tuple[]"
        }
      ],
      "stateMutability": "view",
      "type": "function"
    },
    {
      "inputs": [],
      "name": "getParticipationEvents",
      "outputs": [
        {
          "components": [
            {
              "internalType": "uint256",
              "name": "eventRecordId",
              "type": "uint256"
            },
            {
              "internalType": "uint256",
              "name": "groupId",
              "type": "uint256"
            },
            {
              "internalType": "string",
              "name": "name",
              "type": "string"
            },
            {
              "internalType": "string",
              "name": "description",
              "type": "string"
            },
            {
              "internalType": "string",
              "name": "date",
              "type": "string"
            },
            {
              "internalType": "string",
              "name": "startTime",
              "type": "string"
            },
            {
              "internalType": "string",
              "name": "endTime",
              "type": "string"
            },
            {
              "internalType": "bytes32",
              "name": "secretPhrase",
              "type": "bytes32"
            }
          ],
          "internalType": "struct EventManager.EventRecord[]",
          "name": "",
          "type": "tuple[]"
        }
      ],
      "stateMutability": "view",
      "type": "function"
    },
    {
      "inputs": [],
      "name": "owner",
      "outputs": [
        {
          "internalType": "address",
          "name": "",
          "type": "address"
        }
      ],
      "stateMutability": "view",
      "type": "function"
    },
    {
      "inputs": [],
      "name": "renounceOwnership",
      "outputs": [],
      "stateMutability": "nonpayable",
      "type": "function"
    },
    {
      "inputs": [
        {
          "internalType": "address",
          "name": "_mintNftAddr",
          "type": "address"
        }
      ],
      "name": "setMintNFTAddr",
      "outputs": [],
      "stateMutability": "nonpayable",
      "type": "function"
    },
    {
      "inputs": [],
      "name": "testConnection",
      "outputs": [
        {
          "internalType": "string",
          "name": "",
          "type": "string"
        }
      ],
      "stateMutability": "pure",
      "type": "function"
    },
    {
      "inputs": [
        {
          "internalType": "address",
          "name": "newOwner",
          "type": "address"
        }
      ],
      "name": "transferOwnership",
      "outputs": [],
      "stateMutability": "nonpayable",
      "type": "function"
    },
    {
      "inputs": [
        {
          "internalType": "string",
          "name": "_secretPhrase",
          "type": "string"
        },
        {
          "internalType": "uint256",
          "name": "_eventRecordId",
          "type": "uint256"
        }
      ],
      "name": "verifySecretPhrase",
      "outputs": [
        {
          "internalType": "bool",
          "name": "",
          "type": "bool"
        }
      ],
      "stateMutability": "view",
      "type": "function"
    }
  ],
  "bytecode": "0x60806040523480156200001157600080fd5b5060405162003071380380620030718339818101604052810190620000379190620002dd565b620000576200004b6200011860201b60201c565b6200012060201b60201c565b80600b60006101000a81548173ffffffffffffffffffffffffffffffffffffffff021916908373ffffffffffffffffffffffffffffffffffffffff160217905550620000e36040518060400160405280600481526020017f696e697400000000000000000000000000000000000000000000000000000000815250620001e460201b62001a581760201c565b620000fa60026200028760201b62001af11760201c565b6200011160016200028760201b62001af11760201c565b506200041f565b600033905090565b60008060009054906101000a900473ffffffffffffffffffffffffffffffffffffffff169050816000806101000a81548173ffffffffffffffffffffffffffffffffffffffff021916908373ffffffffffffffffffffffffffffffffffffffff1602179055508173ffffffffffffffffffffffffffffffffffffffff168173ffffffffffffffffffffffffffffffffffffffff167f8be0079c531659141344cd1fd0a4f28419497f9722a3daafe3b4186f6b6457e060405160405180910390a35050565b6200028481604051602401620001fb91906200034a565b6040516020818303038152906040527f41304fac000000000000000000000000000000000000000000000000000000007bffffffffffffffffffffffffffffffffffffffffffffffffffffffff19166020820180517bffffffffffffffffffffffffffffffffffffffffffffffffffffffff83818316178352505050506200029d60201b60201c565b50565b6001816000016000828254019250508190555050565b60008151905060006a636f6e736f6c652e6c6f679050602083016000808483855afa5050505050565b600081519050620002d78162000405565b92915050565b600060208284031215620002f057600080fd5b60006200030084828501620002c6565b91505092915050565b600062000316826200036e565b62000322818562000379565b935062000334818560208601620003be565b6200033f81620003f4565b840191505092915050565b6000602082019050818103600083015262000366818462000309565b905092915050565b600081519050919050565b600082825260208201905092915050565b600062000397826200039e565b9050919050565b600073ffffffffffffffffffffffffffffffffffffffff82169050919050565b60005b83811015620003de578082015181840152602081019050620003c1565b83811115620003ee576000848401525b50505050565b6000601f19601f8301169050919050565b62000410816200038a565b81146200041c57600080fd5b50565b612c42806200042f6000396000f3fe608060405234801561001057600080fd5b50600436106100ea5760003560e01c8063c72b51761161008c578063e0022d0611610066578063e0022d0614610215578063e37c24fe14610231578063f2be2f6d14610261578063f2fde38b1461027d576100ea565b8063c72b5176146101bb578063d337483a146101d9578063db4f6f4d146101f7576100ea565b806345e46c69116100c857806345e46c6914610159578063715018a6146101755780638da5cb5b1461017f578063be04cc361461019d576100ea565b806306fe6dec146100ef5780631ac30e631461011f5780633412a15c1461013b575b600080fd5b61010960048036038101906101049190611fa8565b610299565b6040516101169190612760565b60405180910390f35b61013960048036038101906101349190611f7f565b6103a4565b005b6101436103f0565b60405161015091906126de565b60405180910390f35b610173600480360381019061016e91906120a4565b610433565b005b61017d61058f565b005b6101876105a3565b6040516101949190612664565b60405180910390f35b6101a56105cc565b6040516101b291906126a1565b60405180910390f35b6101c36108e3565b6040516101d091906126a1565b60405180910390f35b6101e1610ac1565b6040516101ee919061267f565b60405180910390f35b6101ff610ea6565b60405161020c919061267f565b60405180910390f35b61022f600480360381019061022a9190611fe4565b611307565b005b61024b60048036038101906102469190612050565b611684565b60405161025891906126c3565b60405180910390f35b61027b600480360381019061027691906120cd565b611706565b005b61029760048036038101906102929190611f7f565b6119d4565b005b600080600760008573ffffffffffffffffffffffffffffffffffffffff1673ffffffffffffffffffffffffffffffffffffffff1681526020019081526020016000208054905090506000805b828110156103985784600760008873ffffffffffffffffffffffffffffffffffffffff1673ffffffffffffffffffffffffffffffffffffffff1681526020019081526020016000208281548110610365577f4e487b7100000000000000000000000000000000000000000000000000000000600052603260045260246000fd5b9060005260206000200154141561038557818061038190612a30565b9250505b808061039090612a30565b9150506102e5565b50809250505092915050565b6103ac611b07565b80600b60006101000a81548173ffffffffffffffffffffffffffffffffffffffff021916908373ffffffffffffffffffffffffffffffffffffffff16021790555050565b606060006040518060400160405280601a81526020017f5465737420636f6e6e656374696f6e207375636365737366756c00000000000081525090508091505090565b60066000828152602001908152602001600020339080600181540180825580915050600190039060005260206000200160009091909190916101000a81548173ffffffffffffffffffffffffffffffffffffffff021916908373ffffffffffffffffffffffffffffffffffffffff160217905550600860003373ffffffffffffffffffffffffffffffffffffffff1673ffffffffffffffffffffffffffffffffffffffff1681526020019081526020016000208190806001815401808255809150506001900390600052602060002001600090919091909150556000600a6000838152602001908152602001600020549050600760003373ffffffffffffffffffffffffffffffffffffffff1673ffffffffffffffffffffffffffffffffffffffff1681526020019081526020016000208190806001815401808255809150506001900390600052602060002001600090919091909150555050565b610597611b07565b6105a16000611b85565b565b60008060009054906101000a900473ffffffffffffffffffffffffffffffffffffffff16905090565b60606000600560003373ffffffffffffffffffffffffffffffffffffffff1673ffffffffffffffffffffffffffffffffffffffff16815260200190815260200160002080549050905060008167ffffffffffffffff811115610657577f4e487b7100000000000000000000000000000000000000000000000000000000600052604160045260246000fd5b60405190808252806020026020018201604052801561069057816020015b61067d611c88565b8152602001906001900390816106755790505b50905060005b828110156108da573373ffffffffffffffffffffffffffffffffffffffff16600382815481106106ef577f4e487b7100000000000000000000000000000000000000000000000000000000600052603260045260246000fd5b906000526020600020906003020160010160009054906101000a900473ffffffffffffffffffffffffffffffffffffffff1673ffffffffffffffffffffffffffffffffffffffff1614156108c75760038181548110610777577f4e487b7100000000000000000000000000000000000000000000000000000000600052603260045260246000fd5b9060005260206000209060030201604051806060016040529081600082015481526020016001820160009054906101000a900473ffffffffffffffffffffffffffffffffffffffff1673ffffffffffffffffffffffffffffffffffffffff1673ffffffffffffffffffffffffffffffffffffffff168152602001600282018054610800906129cd565b80601f016020809104026020016040519081016040528092919081815260200182805461082c906129cd565b80156108795780601f1061084e57610100808354040283529160200191610879565b820191906000526020600020905b81548152906001019060200180831161085c57829003601f168201915b5050505050815250508282815181106108bb577f4e487b7100000000000000000000000000000000000000000000000000000000600052603260045260246000fd5b60200260200101819052505b80806108d290612a30565b915050610696565b50809250505090565b60606000600380549050905060008167ffffffffffffffff811115610931577f4e487b7100000000000000000000000000000000000000000000000000000000600052604160045260246000fd5b60405190808252806020026020018201604052801561096a57816020015b610957611c88565b81526020019060019003908161094f5790505b5090506003805480602002602001604051908101604052809291908181526020016000905b82821015610ab35783829060005260206000209060030201604051806060016040529081600082015481526020016001820160009054906101000a900473ffffffffffffffffffffffffffffffffffffffff1673ffffffffffffffffffffffffffffffffffffffff1673ffffffffffffffffffffffffffffffffffffffff168152602001600282018054610a22906129cd565b80601f0160208091040260200160405190810160405280929190818152602001828054610a4e906129cd565b8015610a9b5780601f10610a7057610100808354040283529160200191610a9b565b820191906000526020600020905b815481529060010190602001808311610a7e57829003601f168201915b5050505050815250508152602001906001019061098f565b505050509050809250505090565b60606000600480549050905060008167ffffffffffffffff811115610b0f577f4e487b7100000000000000000000000000000000000000000000000000000000600052604160045260246000fd5b604051908082528060200260200182016040528015610b4857816020015b610b35611cbf565b815260200190600190039081610b2d5790505b5090506004805480602002602001604051908101604052809291908181526020016000905b82821015610e985783829060005260206000209060080201604051806101000160405290816000820154815260200160018201548152602001600282018054610bb5906129cd565b80601f0160208091040260200160405190810160405280929190818152602001828054610be1906129cd565b8015610c2e5780601f10610c0357610100808354040283529160200191610c2e565b820191906000526020600020905b815481529060010190602001808311610c1157829003601f168201915b50505050508152602001600382018054610c47906129cd565b80601f0160208091040260200160405190810160405280929190818152602001828054610c73906129cd565b8015610cc05780601f10610c9557610100808354040283529160200191610cc0565b820191906000526020600020905b815481529060010190602001808311610ca357829003601f168201915b50505050508152602001600482018054610cd9906129cd565b80601f0160208091040260200160405190810160405280929190818152602001828054610d05906129cd565b8015610d525780601f10610d2757610100808354040283529160200191610d52565b820191906000526020600020905b815481529060010190602001808311610d3557829003601f168201915b50505050508152602001600582018054610d6b906129cd565b80601f0160208091040260200160405190810160405280929190818152602001828054610d97906129cd565b8015610de45780601f10610db957610100808354040283529160200191610de4565b820191906000526020600020905b815481529060010190602001808311610dc757829003601f168201915b50505050508152602001600682018054610dfd906129cd565b80601f0160208091040260200160405190810160405280929190818152602001828054610e29906129cd565b8015610e765780601f10610e4b57610100808354040283529160200191610e76565b820191906000526020600020905b815481529060010190602001808311610e5957829003601f168201915b5050505050815260200160078201548152505081526020019060010190610b6d565b505050509050809250505090565b60606000600480549050905060008167ffffffffffffffff811115610ef4577f4e487b7100000000000000000000000000000000000000000000000000000000600052604160045260246000fd5b604051908082528060200260200182016040528015610f2d57816020015b610f1a611cbf565b815260200190600190039081610f125790505b50905060005b828110156112fe576000600660008381526020019081526020016000208054905011156112eb5760048181548110610f94577f4e487b7100000000000000000000000000000000000000000000000000000000600052603260045260246000fd5b9060005260206000209060080201604051806101000160405290816000820154815260200160018201548152602001600282018054610fd2906129cd565b80601f0160208091040260200160405190810160405280929190818152602001828054610ffe906129cd565b801561104b5780601f106110205761010080835404028352916020019161104b565b820191906000526020600020905b81548152906001019060200180831161102e57829003601f168201915b50505050508152602001600382018054611064906129cd565b80601f0160208091040260200160405190810160405280929190818152602001828054611090906129cd565b80156110dd5780601f106110b2576101008083540402835291602001916110dd565b820191906000526020600020905b8154815290600101906020018083116110c057829003601f168201915b505050505081526020016004820180546110f6906129cd565b80601f0160208091040260200160405190810160405280929190818152602001828054611122906129cd565b801561116f5780601f106111445761010080835404028352916020019161116f565b820191906000526020600020905b81548152906001019060200180831161115257829003601f168201915b50505050508152602001600582018054611188906129cd565b80601f01602080910402602001604051908101604052809291908181526020018280546111b4906129cd565b80156112015780601f106111d657610100808354040283529160200191611201565b820191906000526020600020905b8154815290600101906020018083116111e457829003601f168201915b5050505050815260200160068201805461121a906129cd565b80601f0160208091040260200160405190810160405280929190818152602001828054611246906129cd565b80156112935780601f1061126857610100808354040283529160200191611293565b820191906000526020600020905b81548152906001019060200180831161127657829003601f168201915b505050505081526020016007820154815250508282815181106112df577f4e487b7100000000000000000000000000000000000000000000000000000000600052603260045260246000fd5b60200260200101819052505b80806112f690612a30565b915050610f33565b50809250505090565b60006113136002611c49565b90506000600b60009054906101000a900473ffffffffffffffffffffffffffffffffffffffff16905060008351905060008167ffffffffffffffff811115611384577f4e487b7100000000000000000000000000000000000000000000000000000000600052604160045260246000fd5b6040519080825280602002602001820160405280156113bd57816020015b6113aa611d07565b8152602001906001900390816113a25790505b50905060005b828110156114d2576040518060a00160405280888152602001878381518110611415577f4e487b7100000000000000000000000000000000000000000000000000000000600052603260045260246000fd5b60200260200101516000015181526020018681526020016000815260200187838151811061146c577f4e487b7100000000000000000000000000000000000000000000000000000000600052603260045260246000fd5b6020026020010151602001518152508282815181106114b4577f4e487b7100000000000000000000000000000000000000000000000000000000600052603260045260246000fd5b602002602001018190525080806114ca90612a30565b9150506113c3565b508273ffffffffffffffffffffffffffffffffffffffff16630ee0e9d185836040518363ffffffff1660e01b815260040161150e92919061277b565b600060405180830381600087803b15801561152857600080fd5b505af115801561153c573d6000803e3d6000fd5b50505050600360405180606001604052808681526020013373ffffffffffffffffffffffffffffffffffffffff1681526020018881525090806001815401808255809150506001900390600052602060002090600302016000909190919091506000820151816000015560208201518160010160006101000a81548173ffffffffffffffffffffffffffffffffffffffff021916908373ffffffffffffffffffffffffffffffffffffffff1602179055506040820151816002019080519060200190611609929190611d36565b505050600560003373ffffffffffffffffffffffffffffffffffffffff1673ffffffffffffffffffffffffffffffffffffffff16815260200190815260200160002084908060018154018082558091505060019003906000526020600020016000909190919091505561167c6002611af1565b505050505050565b60008083905060008180519060200120905060006001856116a59190612905565b9050600082600483815481106116e4577f4e487b7100000000000000000000000000000000000000000000000000000000600052603260045260246000fd5b9060005260206000209060080201600701541490508094505050505092915050565b6000805b600560003373ffffffffffffffffffffffffffffffffffffffff1673ffffffffffffffffffffffffffffffffffffffff168152602001908152602001600020805490508110156117f55788600560003373ffffffffffffffffffffffffffffffffffffffff1673ffffffffffffffffffffffffffffffffffffffff16815260200190815260200160002082815481106117cc577f4e487b7100000000000000000000000000000000000000000000000000000000600052603260045260246000fd5b906000526020600020015414156117e257600191505b80806117ed90612a30565b91505061170a565b5080611836576040517f08c379a000000000000000000000000000000000000000000000000000000000815260040161182d90612720565b60405180910390fd5b60006118426001611c49565b9050600083905060008180519060200120905060046040518061010001604052808581526020018d81526020018c81526020018b81526020018a8152602001898152602001888152602001838152509080600181540180825580915050600190039060005260206000209060080201600090919091909150600082015181600001556020820151816001015560408201518160020190805190602001906118ea929190611d36565b506060820151816003019080519060200190611907929190611d36565b506080820151816004019080519060200190611924929190611d36565b5060a0820151816005019080519060200190611941929190611d36565b5060c082015181600601908051906020019061195e929190611d36565b5060e082015181600701555050600960008c81526020019081526020016000208390806001815401808255809150506001900390600052602060002001600090919091909150558a600a6000858152602001908152602001600020819055506119c76001611af1565b5050505050505050505050565b6119dc611b07565b600073ffffffffffffffffffffffffffffffffffffffff168173ffffffffffffffffffffffffffffffffffffffff161415611a4c576040517f08c379a0000000000000000000000000000000000000000000000000000000008152600401611a4390612700565b60405180910390fd5b611a5581611b85565b50565b611aee81604051602401611a6c91906126de565b6040516020818303038152906040527f41304fac000000000000000000000000000000000000000000000000000000007bffffffffffffffffffffffffffffffffffffffffffffffffffffffff19166020820180517bffffffffffffffffffffffffffffffffffffffffffffffffffffffff8381831617835250505050611c57565b50565b6001816000016000828254019250508190555050565b611b0f611c80565b73ffffffffffffffffffffffffffffffffffffffff16611b2d6105a3565b73ffffffffffffffffffffffffffffffffffffffff1614611b83576040517f08c379a0000000000000000000000000000000000000000000000000000000008152600401611b7a90612740565b60405180910390fd5b565b60008060009054906101000a900473ffffffffffffffffffffffffffffffffffffffff169050816000806101000a81548173ffffffffffffffffffffffffffffffffffffffff021916908373ffffffffffffffffffffffffffffffffffffffff1602179055508173ffffffffffffffffffffffffffffffffffffffff168173ffffffffffffffffffffffffffffffffffffffff167f8be0079c531659141344cd1fd0a4f28419497f9722a3daafe3b4186f6b6457e060405160405180910390a35050565b600081600001549050919050565b60008151905060006a636f6e736f6c652e6c6f679050602083016000808483855afa5050505050565b600033905090565b604051806060016040528060008152602001600073ffffffffffffffffffffffffffffffffffffffff168152602001606081525090565b60405180610100016040528060008152602001600081526020016060815260200160608152602001606081526020016060815260200160608152602001600080191681525090565b6040518060a0016040528060608152602001606081526020016000815260200160008152602001600081525090565b828054611d42906129cd565b90600052602060002090601f016020900481019282611d645760008555611dab565b82601f10611d7d57805160ff1916838001178555611dab565b82800160010185558215611dab579182015b82811115611daa578251825591602001919060010190611d8f565b5b509050611db89190611dbc565b5090565b5b80821115611dd5576000816000905550600101611dbd565b5090565b6000611dec611de7846127d0565b6127ab565b90508083825260208201905082856020860282011115611e0b57600080fd5b60005b85811015611e5557813567ffffffffffffffff811115611e2d57600080fd5b808601611e3a8982611f06565b85526020850194506020840193505050600181019050611e0e565b5050509392505050565b6000611e72611e6d846127fc565b6127ab565b905082815260208101848484011115611e8a57600080fd5b611e9584828561298b565b509392505050565b600081359050611eac81612bde565b92915050565b600082601f830112611ec357600080fd5b8135611ed3848260208601611dd9565b91505092915050565b600082601f830112611eed57600080fd5b8135611efd848260208601611e5f565b91505092915050565b600060408284031215611f1857600080fd5b611f2260406127ab565b9050600082013567ffffffffffffffff811115611f3e57600080fd5b611f4a84828501611edc565b6000830152506020611f5e84828501611f6a565b60208301525092915050565b600081359050611f7981612bf5565b92915050565b600060208284031215611f9157600080fd5b6000611f9f84828501611e9d565b91505092915050565b60008060408385031215611fbb57600080fd5b6000611fc985828601611e9d565b9250506020611fda85828601611f6a565b9150509250929050565b60008060408385031215611ff757600080fd5b600083013567ffffffffffffffff81111561201157600080fd5b61201d85828601611edc565b925050602083013567ffffffffffffffff81111561203a57600080fd5b61204685828601611eb2565b9150509250929050565b6000806040838503121561206357600080fd5b600083013567ffffffffffffffff81111561207d57600080fd5b61208985828601611edc565b925050602061209a85828601611f6a565b9150509250929050565b6000602082840312156120b657600080fd5b60006120c484828501611f6a565b91505092915050565b600080600080600080600060e0888a0312156120e857600080fd5b60006120f68a828b01611f6a565b975050602088013567ffffffffffffffff81111561211357600080fd5b61211f8a828b01611edc565b965050604088013567ffffffffffffffff81111561213c57600080fd5b6121488a828b01611edc565b955050606088013567ffffffffffffffff81111561216557600080fd5b6121718a828b01611edc565b945050608088013567ffffffffffffffff81111561218e57600080fd5b61219a8a828b01611edc565b93505060a088013567ffffffffffffffff8111156121b757600080fd5b6121c38a828b01611edc565b92505060c088013567ffffffffffffffff8111156121e057600080fd5b6121ec8a828b01611edc565b91505092959891949750929550565b600061220783836124ad565b905092915050565b600061221b8383612579565b905092915050565b600061222f83836125c9565b905092915050565b61224081612939565b82525050565b61224f81612939565b82525050565b60006122608261285d565b61226a81856128b0565b93508360208202850161227c8561282d565b8060005b858110156122b8578484038952815161229985826121fb565b94506122a483612889565b925060208a01995050600181019050612280565b50829750879550505050505092915050565b60006122d582612868565b6122df81856128c1565b9350836020820285016122f18561283d565b8060005b8581101561232d578484038952815161230e858261220f565b945061231983612896565b925060208a019950506001810190506122f5565b50829750879550505050505092915050565b600061234a82612873565b61235481856128d2565b9350836020820285016123668561284d565b8060005b858110156123a257848403895281516123838582612223565b945061238e836128a3565b925060208a0199505060018101905061236a565b50829750879550505050505092915050565b6123bd8161294b565b82525050565b6123cc81612957565b82525050565b60006123dd8261287e565b6123e781856128e3565b93506123f781856020860161299a565b61240081612b06565b840191505092915050565b60006124168261287e565b61242081856128f4565b935061243081856020860161299a565b61243981612b06565b840191505092915050565b60006124516026836128f4565b915061245c82612b17565b604082019050919050565b6000612474602a836128f4565b915061247f82612b66565b604082019050919050565b60006124976020836128f4565b91506124a282612bb5565b602082019050919050565b6000610100830160008301516124c66000860182612646565b5060208301516124d96020860182612646565b50604083015184820360408601526124f182826123d2565b9150506060830151848203606086015261250b82826123d2565b9150506080830151848203608086015261252582826123d2565b91505060a083015184820360a086015261253f82826123d2565b91505060c083015184820360c086015261255982826123d2565b91505060e083015161256e60e08601826123c3565b508091505092915050565b60006060830160008301516125916000860182612646565b5060208301516125a46020860182612237565b50604083015184820360408601526125bc82826123d2565b9150508091505092915050565b600060a08301600083015184820360008601526125e682826123d2565b9150506020830151848203602086015261260082826123d2565b91505060408301516126156040860182612646565b5060608301516126286060860182612646565b50608083015161263b6080860182612646565b508091505092915050565b61264f81612981565b82525050565b61265e81612981565b82525050565b60006020820190506126796000830184612246565b92915050565b600060208201905081810360008301526126998184612255565b905092915050565b600060208201905081810360008301526126bb81846122ca565b905092915050565b60006020820190506126d860008301846123b4565b92915050565b600060208201905081810360008301526126f8818461240b565b905092915050565b6000602082019050818103600083015261271981612444565b9050919050565b6000602082019050818103600083015261273981612467565b9050919050565b600060208201905081810360008301526127598161248a565b9050919050565b60006020820190506127756000830184612655565b92915050565b60006040820190506127906000830185612655565b81810360208301526127a2818461233f565b90509392505050565b60006127b56127c6565b90506127c182826129ff565b919050565b6000604051905090565b600067ffffffffffffffff8211156127eb576127ea612ad7565b5b602082029050602081019050919050565b600067ffffffffffffffff82111561281757612816612ad7565b5b61282082612b06565b9050602081019050919050565b6000819050602082019050919050565b6000819050602082019050919050565b6000819050602082019050919050565b600081519050919050565b600081519050919050565b600081519050919050565b600081519050919050565b6000602082019050919050565b6000602082019050919050565b6000602082019050919050565b600082825260208201905092915050565b600082825260208201905092915050565b600082825260208201905092915050565b600082825260208201905092915050565b600082825260208201905092915050565b600061291082612981565b915061291b83612981565b92508282101561292e5761292d612a79565b5b828203905092915050565b600061294482612961565b9050919050565b60008115159050919050565b6000819050919050565b600073ffffffffffffffffffffffffffffffffffffffff82169050919050565b6000819050919050565b82818337600083830152505050565b60005b838110156129b857808201518184015260208101905061299d565b838111156129c7576000848401525b50505050565b600060028204905060018216806129e557607f821691505b602082108114156129f9576129f8612aa8565b5b50919050565b612a0882612b06565b810181811067ffffffffffffffff82111715612a2757612a26612ad7565b5b80604052505050565b6000612a3b82612981565b91507fffffffffffffffffffffffffffffffffffffffffffffffffffffffffffffffff821415612a6e57612a6d612a79565b5b600182019050919050565b7f4e487b7100000000000000000000000000000000000000000000000000000000600052601160045260246000fd5b7f4e487b7100000000000000000000000000000000000000000000000000000000600052602260045260246000fd5b7f4e487b7100000000000000000000000000000000000000000000000000000000600052604160045260246000fd5b6000601f19601f8301169050919050565b7f4f776e61626c653a206e6577206f776e657220697320746865207a65726f206160008201527f6464726573730000000000000000000000000000000000000000000000000000602082015250565b7f4f6e6c792067726f7570206f776e6572732063616e206372656174652065766560008201527f6e74207265636f72647300000000000000000000000000000000000000000000602082015250565b7f4f776e61626c653a2063616c6c6572206973206e6f7420746865206f776e6572600082015250565b612be781612939565b8114612bf257600080fd5b50565b612bfe81612981565b8114612c0957600080fd5b5056fea2646970667358221220e85d4752e3e5a0655ce53d2432d87cf07cf4dfb3fbb0016ac637746794d50c8c64736f6c63430008040033",
  "linkReferences": {},
  "deployedLinkReferences": {}
}