{
  "_format": "hh-sol-artifact-1",
  "contractName": "EventManager",
  "sourceName": "contracts/Event.sol",
  "abi": [
    {
      "anonymous": false,
      "inputs": [
        {
          "indexed": true,
          "internalType": "address",
          "name": "owner",
          "type": "address"
        },
        {
          "indexed": false,
          "internalType": "uint256",
          "name": "eventId",
          "type": "uint256"
        }
      ],
      "name": "CreateEvent",
      "type": "event"
    },
    {
      "anonymous": false,
      "inputs": [
        {
          "indexed": true,
          "internalType": "address",
          "name": "owner",
          "type": "address"
        },
        {
          "indexed": false,
          "internalType": "uint256",
          "name": "groupId",
          "type": "uint256"
        }
      ],
      "name": "CreateGroup",
      "type": "event"
    },
    {
      "anonymous": false,
      "inputs": [
        {
          "indexed": false,
          "internalType": "uint8",
          "name": "version",
          "type": "uint8"
        }
      ],
      "name": "Initialized",
      "type": "event"
    },
    {
      "anonymous": false,
      "inputs": [
        {
          "indexed": true,
          "internalType": "address",
          "name": "previousOwner",
          "type": "address"
        },
        {
          "indexed": true,
          "internalType": "address",
          "name": "newOwner",
          "type": "address"
        }
      ],
      "name": "OwnershipTransferred",
      "type": "event"
    },
    {
      "anonymous": false,
      "inputs": [
        {
          "indexed": true,
          "internalType": "address",
          "name": "prevOwner",
          "type": "address"
        },
        {
          "indexed": true,
          "internalType": "address",
          "name": "newOwner",
          "type": "address"
        },
        {
          "indexed": false,
          "internalType": "uint256",
          "name": "groupId",
          "type": "uint256"
        }
      ],
      "name": "TransferGroupOwner",
      "type": "event"
    },
    {
      "inputs": [
        {
          "internalType": "uint256",
          "name": "_groupId",
          "type": "uint256"
        },
        {
          "internalType": "string",
          "name": "_name",
          "type": "string"
        },
        {
          "internalType": "string",
          "name": "_description",
          "type": "string"
        },
        {
          "internalType": "string",
          "name": "_date",
          "type": "string"
        },
        {
          "internalType": "uint256",
          "name": "_mintLimit",
          "type": "uint256"
        },
        {
          "internalType": "bool",
          "name": "_useMtx",
          "type": "bool"
        },
        {
          "internalType": "bool",
          "name": "_nonTransferable",
          "type": "bool"
        },
        {
          "internalType": "bytes32",
          "name": "_secretPhrase",
          "type": "bytes32"
        },
        {
          "components": [
            {
              "internalType": "string",
              "name": "metaDataURL",
              "type": "string"
            },
            {
              "internalType": "uint256",
              "name": "requiredParticipateCount",
              "type": "uint256"
            }
          ],
          "internalType": "struct IMintNFT.NFTAttribute[]",
          "name": "_eventNFTAttributes",
          "type": "tuple[]"
        }
      ],
      "name": "createEventRecord",
      "outputs": [],
      "stateMutability": "payable",
      "type": "function"
    },
    {
      "inputs": [
        {
          "internalType": "string",
          "name": "_name",
          "type": "string"
        }
      ],
      "name": "createGroup",
      "outputs": [],
      "stateMutability": "nonpayable",
      "type": "function"
    },
    {
      "inputs": [
        {
          "internalType": "address",
          "name": "_address",
          "type": "address"
        }
      ],
      "name": "getCollaboratorAccessGroups",
      "outputs": [
        {
          "components": [
            {
              "internalType": "uint256",
              "name": "groupId",
              "type": "uint256"
            },
            {
              "internalType": "address",
              "name": "ownerAddress",
              "type": "address"
            },
            {
              "internalType": "string",
              "name": "name",
              "type": "string"
            }
          ],
          "internalType": "struct EventManager.Group[]",
          "name": "",
          "type": "tuple[]"
        }
      ],
      "stateMutability": "view",
      "type": "function"
    },
    {
      "inputs": [
        {
          "internalType": "uint256",
          "name": "_eventId",
          "type": "uint256"
        }
      ],
      "name": "getEventById",
      "outputs": [
        {
          "components": [
            {
              "internalType": "uint256",
              "name": "eventRecordId",
              "type": "uint256"
            },
            {
              "internalType": "uint256",
              "name": "groupId",
              "type": "uint256"
            },
            {
              "internalType": "string",
              "name": "name",
              "type": "string"
            },
            {
              "internalType": "string",
              "name": "description",
              "type": "string"
            },
            {
              "internalType": "string",
              "name": "date",
              "type": "string"
            },
            {
              "internalType": "bool",
              "name": "useMtx",
              "type": "bool"
            }
          ],
          "internalType": "struct EventManager.EventRecord",
          "name": "",
          "type": "tuple"
        }
      ],
      "stateMutability": "view",
      "type": "function"
    },
    {
      "inputs": [],
      "name": "getEventRecordCount",
      "outputs": [
        {
          "internalType": "uint256",
          "name": "",
          "type": "uint256"
        }
      ],
      "stateMutability": "view",
      "type": "function"
    },
    {
      "inputs": [
        {
          "internalType": "uint256",
          "name": "_limit",
          "type": "uint256"
        },
        {
          "internalType": "uint256",
          "name": "_offset",
          "type": "uint256"
        }
      ],
      "name": "getEventRecords",
      "outputs": [
        {
          "components": [
            {
              "internalType": "uint256",
              "name": "eventRecordId",
              "type": "uint256"
            },
            {
              "internalType": "uint256",
              "name": "groupId",
              "type": "uint256"
            },
            {
              "internalType": "string",
              "name": "name",
              "type": "string"
            },
            {
              "internalType": "string",
              "name": "description",
              "type": "string"
            },
            {
              "internalType": "string",
              "name": "date",
              "type": "string"
            },
            {
              "internalType": "bool",
              "name": "useMtx",
              "type": "bool"
            }
          ],
          "internalType": "struct EventManager.EventRecord[]",
          "name": "",
          "type": "tuple[]"
        }
      ],
      "stateMutability": "view",
      "type": "function"
    },
    {
      "inputs": [
        {
          "internalType": "uint256",
          "name": "_groupId",
          "type": "uint256"
        }
      ],
      "name": "getEventRecordsByGroupId",
      "outputs": [
        {
          "components": [
            {
              "internalType": "uint256",
              "name": "eventRecordId",
              "type": "uint256"
            },
            {
              "internalType": "uint256",
              "name": "groupId",
              "type": "uint256"
            },
            {
              "internalType": "string",
              "name": "name",
              "type": "string"
            },
            {
              "internalType": "string",
              "name": "description",
              "type": "string"
            },
            {
              "internalType": "string",
              "name": "date",
              "type": "string"
            },
            {
              "internalType": "bool",
              "name": "useMtx",
              "type": "bool"
            }
          ],
          "internalType": "struct EventManager.EventRecord[]",
          "name": "",
          "type": "tuple[]"
        }
      ],
      "stateMutability": "view",
      "type": "function"
    },
    {
      "inputs": [],
      "name": "getGroups",
      "outputs": [
        {
          "components": [
            {
              "internalType": "uint256",
              "name": "groupId",
              "type": "uint256"
            },
            {
              "internalType": "address",
              "name": "ownerAddress",
              "type": "address"
            },
            {
              "internalType": "string",
              "name": "name",
              "type": "string"
            }
          ],
          "internalType": "struct EventManager.Group[]",
          "name": "",
          "type": "tuple[]"
        }
      ],
      "stateMutability": "view",
      "type": "function"
    },
    {
      "inputs": [
        {
          "internalType": "uint256",
          "name": "_groupId",
          "type": "uint256"
        },
        {
          "internalType": "address",
          "name": "_address",
          "type": "address"
        }
      ],
      "name": "getMemberRole",
      "outputs": [
        {
          "components": [
            {
              "internalType": "address",
              "name": "assignee",
              "type": "address"
            },
            {
              "internalType": "bool",
              "name": "admin",
              "type": "bool"
            },
            {
              "internalType": "bool",
              "name": "collaborator",
              "type": "bool"
            }
          ],
          "internalType": "struct EventManager.MemberRole",
          "name": "",
          "type": "tuple"
        }
      ],
      "stateMutability": "view",
      "type": "function"
    },
    {
      "inputs": [
        {
          "internalType": "uint256",
          "name": "_groupId",
          "type": "uint256"
        }
      ],
      "name": "getMemberRoles",
      "outputs": [
        {
          "components": [
            {
              "internalType": "address",
              "name": "assignee",
              "type": "address"
            },
            {
              "internalType": "bool",
              "name": "admin",
              "type": "bool"
            },
            {
              "internalType": "bool",
              "name": "collaborator",
              "type": "bool"
            }
          ],
          "internalType": "struct EventManager.MemberRole[]",
          "name": "",
          "type": "tuple[]"
        }
      ],
      "stateMutability": "view",
      "type": "function"
    },
    {
      "inputs": [
        {
          "internalType": "address",
          "name": "_address",
          "type": "address"
        }
      ],
      "name": "getOwnGroups",
      "outputs": [
        {
          "components": [
            {
              "internalType": "uint256",
              "name": "groupId",
              "type": "uint256"
            },
            {
              "internalType": "address",
              "name": "ownerAddress",
              "type": "address"
            },
            {
              "internalType": "string",
              "name": "name",
              "type": "string"
            }
          ],
          "internalType": "struct EventManager.Group[]",
          "name": "",
          "type": "tuple[]"
        }
      ],
      "stateMutability": "view",
      "type": "function"
    },
    {
      "inputs": [
        {
          "internalType": "uint256",
          "name": "_groupId",
          "type": "uint256"
        },
        {
          "internalType": "address",
          "name": "_address",
          "type": "address"
        },
        {
          "internalType": "bytes32",
          "name": "_role",
          "type": "bytes32"
        }
      ],
      "name": "grantRole",
      "outputs": [],
      "stateMutability": "nonpayable",
      "type": "function"
    },
    {
      "inputs": [
        {
          "internalType": "address",
          "name": "_address",
          "type": "address"
        },
        {
          "internalType": "uint256",
          "name": "_eventId",
          "type": "uint256"
        }
      ],
      "name": "hasAdminAccessByEventId",
      "outputs": [
        {
          "internalType": "bool",
          "name": "",
          "type": "bool"
        }
      ],
      "stateMutability": "view",
      "type": "function"
    },
    {
      "inputs": [
        {
          "internalType": "address",
          "name": "_address",
          "type": "address"
        },
        {
          "internalType": "uint256",
          "name": "_eventId",
          "type": "uint256"
        }
      ],
      "name": "hasCollaboratorAccessByEventId",
      "outputs": [
        {
          "internalType": "bool",
          "name": "",
          "type": "bool"
        }
      ],
      "stateMutability": "view",
      "type": "function"
    },
    {
      "inputs": [
        {
          "internalType": "address",
          "name": "_owner",
          "type": "address"
        },
        {
          "internalType": "address",
          "name": "_relayerAddr",
          "type": "address"
        },
        {
          "internalType": "uint256",
          "name": "_mtxPrice",
          "type": "uint256"
        },
        {
          "internalType": "uint256",
          "name": "_maxMintLimit",
          "type": "uint256"
        },
        {
          "internalType": "address",
          "name": "_operationControllerAddr",
          "type": "address"
        }
      ],
      "name": "initialize",
      "outputs": [],
      "stateMutability": "nonpayable",
      "type": "function"
    },
    {
      "inputs": [],
      "name": "owner",
      "outputs": [
        {
          "internalType": "address",
          "name": "",
          "type": "address"
        }
      ],
      "stateMutability": "view",
      "type": "function"
    },
    {
      "inputs": [],
      "name": "renounceOwnership",
      "outputs": [],
      "stateMutability": "nonpayable",
      "type": "function"
    },
    {
      "inputs": [
        {
          "internalType": "uint256",
          "name": "_groupId",
          "type": "uint256"
        },
        {
          "internalType": "address",
          "name": "_address",
          "type": "address"
        },
        {
          "internalType": "bytes32",
          "name": "_role",
          "type": "bytes32"
        }
      ],
      "name": "revokeRole",
      "outputs": [],
      "stateMutability": "nonpayable",
      "type": "function"
    },
    {
      "inputs": [
        {
          "internalType": "uint256",
          "name": "_mintLimit",
          "type": "uint256"
        }
      ],
      "name": "setMaxMintLimit",
      "outputs": [],
      "stateMutability": "nonpayable",
      "type": "function"
    },
    {
      "inputs": [
        {
          "internalType": "address",
          "name": "_mintNftAddr",
          "type": "address"
        }
      ],
      "name": "setMintNFTAddr",
      "outputs": [],
      "stateMutability": "nonpayable",
      "type": "function"
    },
    {
      "inputs": [
        {
          "internalType": "uint256",
          "name": "_price",
          "type": "uint256"
        }
      ],
      "name": "setMtxPrice",
      "outputs": [],
      "stateMutability": "nonpayable",
      "type": "function"
    },
    {
      "inputs": [
        {
          "internalType": "address",
          "name": "_operationControllerAddr",
          "type": "address"
        }
      ],
      "name": "setOperationControllerAddr",
      "outputs": [],
      "stateMutability": "nonpayable",
      "type": "function"
    },
    {
      "inputs": [
        {
          "internalType": "address",
          "name": "_relayerAddr",
          "type": "address"
        }
      ],
      "name": "setRelayerAddr",
      "outputs": [],
      "stateMutability": "nonpayable",
      "type": "function"
    },
    {
      "inputs": [
        {
          "internalType": "uint256",
          "name": "_groupId",
          "type": "uint256"
        },
        {
          "internalType": "address",
          "name": "_newOwnerAddress",
          "type": "address"
        }
      ],
      "name": "transferGroupOwner",
      "outputs": [],
      "stateMutability": "nonpayable",
      "type": "function"
    },
    {
      "inputs": [
        {
          "internalType": "address",
          "name": "newOwner",
          "type": "address"
        }
      ],
      "name": "transferOwnership",
      "outputs": [],
      "stateMutability": "nonpayable",
      "type": "function"
    }
  ],
  "bytecode": "0x608060405234801561001057600080fd5b50613536806100206000396000f3fe6080604052600436106101665760003560e01c80638be10337116100d1578063cb8668ea1161008a578063dc2ddcae11610064578063dc2ddcae146104d3578063f2fde38b146104f3578063f562082314610513578063f926b50c1461053357600080fd5b8063cb8668ea146103ec578063cd0a7d62146104a2578063d96c2c3a146104b557600080fd5b80638be10337146103225780638da5cb5b146103425780638f184bea1461036a578063972f13271461038a578063b98079bc146103aa578063c72b5176146103d757600080fd5b8063398121a611610123578063398121a614610250578063471ade981461027d57806357fb25cc1461029d578063683159fd146102bd5780636b1f7622146102ed578063715018a61461030d57600080fd5b80630422cb161461016b57806308fb5eb2146101a1578063114673fb146101c35780631ac30e63146101e3578063331e36ea1461020357806337c81cd714610230575b600080fd5b34801561017757600080fd5b5061018b610186366004612c13565b610553565b6040516101989190612c7b565b60405180910390f35b3480156101ad57600080fd5b506101c16101bc366004612c13565b6107b7565b005b3480156101cf57600080fd5b506101c16101de366004612d03565b61084a565b3480156101ef57600080fd5b506101c16101fe366004612c13565b610b6f565b34801561020f57600080fd5b5061022361021e366004612d2f565b610bef565b6040516101989190612d48565b34801561023c57600080fd5b506101c161024b366004612c13565b610d50565b34801561025c57600080fd5b5061027061026b366004612db7565b610dd0565b6040516101989190612e4e565b34801561028957600080fd5b506101c1610298366004612eb0565b611173565b3480156102a957600080fd5b506101c16102b8366004612ee5565b611420565b3480156102c957600080fd5b506102dd6102d8366004612f3c565b61157e565b6040519015158152602001610198565b3480156102f957600080fd5b506101c1610308366004612d2f565b61159f565b34801561031957600080fd5b506101c16115ac565b34801561032e57600080fd5b506101c161033d366004612eb0565b6115c0565b34801561034e57600080fd5b506033546040516001600160a01b039091168152602001610198565b34801561037657600080fd5b5061018b610385366004612c13565b611748565b34801561039657600080fd5b506102dd6103a5366004612f3c565b611947565b3480156103b657600080fd5b506103ca6103c5366004612d2f565b611960565b6040516101989190612f66565b3480156103e357600080fd5b5061018b611b88565b3480156103f857600080fd5b50610495610407366004612d03565b604080516060808201835260008083526020808401829052928401819052835191820184526001600160a01b0394909416808252948452607182528284209484529381528183206000805160206134e183398151915284528082528284205460ff9081161515868401526000805160206134c183398151915285529152918190205490911615159082015290565b6040516101989190612f79565b6101c16104b0366004613176565b611cf2565b3480156104c157600080fd5b50606854604051908152602001610198565b3480156104df57600080fd5b506101c16104ee366004613261565b612189565b3480156104ff57600080fd5b506101c161050e366004612c13565b61237d565b34801561051f57600080fd5b5061027061052e366004612d2f565b6123f6565b34801561053f57600080fd5b506101c161054e366004612d2f565b6126ee565b6067546060906000906001600160401b0381111561057357610573612fa7565b60405190808252806020026020018201604052801561059c578160200160208202803683370190505b509050600060015b60675481116105fa576105b7818661273a565b156105e857808383815181106105cf576105cf613295565b6020908102919091010152816105e4816132c1565b9250505b806105f2816132c1565b9150506105a4565b506000816001600160401b0381111561061557610615612fa7565b60405190808252806020026020018201604052801561064e57816020015b61063b612afc565b8152602001906001900390816106335790505b50905060005b828110156107ae576000600185838151811061067257610672613295565b602002602001015161068491906132dc565b90506067818154811061069957610699613295565b9060005260206000209060030201604051806060016040529081600082015481526020016001820160009054906101000a90046001600160a01b03166001600160a01b03166001600160a01b031681526020016002820180546106fb906132f3565b80601f0160208091040260200160405190810160405280929190818152602001828054610727906132f3565b80156107745780601f1061074957610100808354040283529160200191610774565b820191906000526020600020905b81548152906001019060200180831161075757829003601f168201915b50505050508152505083838151811061078f5761078f613295565b60200260200101819052505080806107a6906132c1565b915050610654565b50949350505050565b6107bf6127bb565b6001600160a01b0381166108285760405162461bcd60e51b815260206004820152602560248201527f6f7065726174696f6e20636f6e74726f6c6c6572206164647265737320697320604482015264626c616e6b60d81b60648201526084015b60405180910390fd5b607080546001600160a01b0319166001600160a01b0392909216919091179055565b60705460408051635c975abb60e01b815290516001600160a01b03909216918291635c975abb916004808301926020929190829003018186803b15801561089057600080fd5b505afa1580156108a4573d6000803e3d6000fd5b505050506040513d601f19601f820116820180604052508101906108c8919061332e565b156108e55760405162461bcd60e51b815260040161081f9061334b565b826108f08133612815565b61090c5760405162461bcd60e51b815260040161081f9061336b565b6001600160a01b0383166109625760405162461bcd60e51b815260206004820152601a60248201527f4e6577206f776e6572206164647265737320697320626c616e6b000000000000604482015260640161081f565b60005b6067548110156109fb57846067828154811061098357610983613295565b90600052602060002090600302016000015414156109e95783606782815481106109af576109af613295565b906000526020600020906003020160010160006101000a8154816001600160a01b0302191690836001600160a01b031602179055506109fb565b806109f3816132c1565b915050610965565b506001600160a01b038316600090815260696020908152604082208054600181018255908352908220018590555b33600090815260696020526040902054811015610b2857336000908152606960205260409020805486919083908110610a6457610a64613295565b90600052602060002001541415610b16573360009081526069602052604090208054610a92906001906132dc565b81548110610aa257610aa2613295565b600091825260208083209091015433835260699091526040909120805483908110610acf57610acf613295565b6000918252602080832090910192909255338152606990915260409020805480610afb57610afb61339b565b60019003818190600052602060002001600090559055610b28565b80610b20816132c1565b915050610a29565b506040518481526001600160a01b0384169033907f742d0b3e492dc87fbabf2834a2d72c578bd70e8cbd9146d355afe603e6c0713f9060200160405180910390a350505050565b610b776127bb565b6001600160a01b038116610bcd5760405162461bcd60e51b815260206004820152601960248201527f6d696e74206e6674206164647265737320697320626c616e6b00000000000000604482015260640161081f565b606c80546001600160a01b0319166001600160a01b0392909216919091179055565b600081815260726020526040812054606091816001600160401b03811115610c1957610c19612fa7565b604051908082528060200260200182016040528015610c6457816020015b6040805160608101825260008082526020808301829052928201528252600019909201910181610c375790505b50905060005b82811015610d48576000858152607260205260408120805483908110610c9257610c92613295565b6000918252602080832090910154604080516060810182526001600160a01b039092168083528a85526071845281852081865284528185206000805160206134e183398151915286528085528286205460ff9081161515858701526000805160206134c1833981519152875294529381902054909216151591810191909152845191925090849084908110610d2957610d29613295565b6020026020010181905250508080610d40906132c1565b915050610c6a565b509392505050565b610d586127bb565b6001600160a01b038116610dae5760405162461bcd60e51b815260206004820152601860248201527f72656c61796572206164647265737320697320626c616e6b0000000000000000604482015260640161081f565b606d80546001600160a01b0319166001600160a01b0392909216919091179055565b60685460609083610de057606493505b6064841115610e265760405162461bcd60e51b81526020600482015260126024820152716c696d697420697320746f6f206c6172676560701b604482015260640161081f565b80831115610e6c5760405162461bcd60e51b81526020600482015260136024820152726f666673657420697320746f6f206c6172676560681b604482015260640161081f565b80610e7784866133b1565b1115610e8a57610e8783826132dc565b93505b6000846001600160401b03811115610ea457610ea4612fa7565b604051908082528060200260200182016040528015610edd57816020015b610eca612b26565b815260200190600190039081610ec25790505b50905060005b85811015611168576000610ef782876133b1565b610f029060016133b1565b610f0c90856132dc565b10611156576068610f1d82876133b1565b610f289060016133b1565b610f3290856132dc565b81548110610f4257610f42613295565b90600052602060002090600602016040518060c00160405290816000820154815260200160018201548152602001600282018054610f7f906132f3565b80601f0160208091040260200160405190810160405280929190818152602001828054610fab906132f3565b8015610ff85780601f10610fcd57610100808354040283529160200191610ff8565b820191906000526020600020905b815481529060010190602001808311610fdb57829003601f168201915b50505050508152602001600382018054611011906132f3565b80601f016020809104026020016040519081016040528092919081815260200182805461103d906132f3565b801561108a5780601f1061105f5761010080835404028352916020019161108a565b820191906000526020600020905b81548152906001019060200180831161106d57829003601f168201915b505050505081526020016004820180546110a3906132f3565b80601f01602080910402602001604051908101604052809291908181526020018280546110cf906132f3565b801561111c5780601f106110f15761010080835404028352916020019161111c565b820191906000526020600020905b8154815290600101906020018083116110ff57829003601f168201915b50505091835250506005919091015460ff161515602090910152825183908390811061114a5761114a613295565b60200260200101819052505b80611160816132c1565b915050610ee3565b509150505b92915050565b60705460408051635c975abb60e01b815290516001600160a01b03909216918291635c975abb916004808301926020929190829003018186803b1580156111b957600080fd5b505afa1580156111cd573d6000803e3d6000fd5b505050506040513d601f19601f820116820180604052508101906111f1919061332e565b1561120e5760405162461bcd60e51b815260040161081f9061334b565b836112198133612863565b6112355760405162461bcd60e51b815260040161081f9061336b565b61123e836128dd565b6112795760405162461bcd60e51b815260206004820152600c60248201526b496e76616c696420726f6c6560a01b604482015260640161081f565b60008581526071602090815260408083206001600160a01b038816845282528083208684528252808320805460ff19169055878352607290915290205480158015906112ca57506112ca868661290a565b156114185760018111156113d8576000805b8281101561134557600088815260726020526040902080546001600160a01b03891691908390811061131057611310613295565b6000918252602090912001546001600160a01b0316141561133357809150611345565b8061133d816132c1565b9150506112dc565b50600087815260726020526040902061135f6001846132dc565b8154811061136f5761136f613295565b60009182526020808320909101548983526072909152604090912080546001600160a01b0390921691839081106113a8576113a8613295565b9060005260206000200160006101000a8154816001600160a01b0302191690836001600160a01b03160217905550505b60008681526072602052604090208054806113f5576113f561339b565b600082815260209020810160001990810180546001600160a01b03191690550190555b505050505050565b600054600390610100900460ff16158015611442575060005460ff8083169116105b6114a55760405162461bcd60e51b815260206004820152602e60248201527f496e697469616c697a61626c653a20636f6e747261637420697320616c72656160448201526d191e481a5b9a5d1a585b1a5e995960921b606482015260840161081f565b6000805461ffff191660ff8316176101001790556114c161294e565b6114ca8661297d565b6066541580156114da5750606554155b156114fb576114ed606680546001019055565b6114fb606580546001019055565b606d80546001600160a01b038781166001600160a01b031992831617909255606e869055606f85905560708054928516929091169190911790556000805461ff001916905560405160ff821681527f7f26b83ff96e1f2b6a682f133852f6798a09c465da95921460cefb38474024989060200160405180910390a1505050505050565b6000818152606b60205260408120546115978185612863565b949350505050565b6115a76127bb565b606e55565b6115b46127bb565b6115be600061297d565b565b60705460408051635c975abb60e01b815290516001600160a01b03909216918291635c975abb916004808301926020929190829003018186803b15801561160657600080fd5b505afa15801561161a573d6000803e3d6000fd5b505050506040513d601f19601f8201168201806040525081019061163e919061332e565b1561165b5760405162461bcd60e51b815260040161081f9061334b565b836116668133612863565b6116825760405162461bcd60e51b815260040161081f9061336b565b61168b836128dd565b6116c65760405162461bcd60e51b815260206004820152600c60248201526b496e76616c696420726f6c6560a01b604482015260640161081f565b60008581526071602090815260408083206001600160a01b038816845282528083208684529091529020805460ff1916600117905561170585856129cf565b6117415760008581526072602090815260408220805460018101825590835291200180546001600160a01b0319166001600160a01b0386161790555b5050505050565b6001600160a01b038116600090815260696020526040812054606754606092826001600160401b0381111561177f5761177f612fa7565b6040519080825280602002602001820160405280156117b857816020015b6117a5612afc565b81526020019060019003908161179d5790505b5090506000805b8381101561193c57866001600160a01b0316606782815481106117e4576117e4613295565b60009182526020909120600160039092020101546001600160a01b0316141561192a576067818154811061181a5761181a613295565b9060005260206000209060030201604051806060016040529081600082015481526020016001820160009054906101000a90046001600160a01b03166001600160a01b03166001600160a01b0316815260200160028201805461187c906132f3565b80601f01602080910402602001604051908101604052809291908181526020018280546118a8906132f3565b80156118f55780601f106118ca576101008083540402835291602001916118f5565b820191906000526020600020905b8154815290600101906020018083116118d857829003601f168201915b50505050508152505083838151811061191057611910613295565b60200260200101819052508180611926906132c1565b9250505b80611934816132c1565b9150506117bf565b509095945050505050565b6000818152606b6020526040812054611597818561273a565b611968612b26565b60006119756001846132dc565b905060006068828154811061198c5761198c613295565b90600052602060002090600602016040518060c001604052908160008201548152602001600182015481526020016002820180546119c9906132f3565b80601f01602080910402602001604051908101604052809291908181526020018280546119f5906132f3565b8015611a425780601f10611a1757610100808354040283529160200191611a42565b820191906000526020600020905b815481529060010190602001808311611a2557829003601f168201915b50505050508152602001600382018054611a5b906132f3565b80601f0160208091040260200160405190810160405280929190818152602001828054611a87906132f3565b8015611ad45780601f10611aa957610100808354040283529160200191611ad4565b820191906000526020600020905b815481529060010190602001808311611ab757829003601f168201915b50505050508152602001600482018054611aed906132f3565b80601f0160208091040260200160405190810160405280929190818152602001828054611b19906132f3565b8015611b665780601f10611b3b57610100808354040283529160200191611b66565b820191906000526020600020905b815481529060010190602001808311611b4957829003601f168201915b50505091835250506005919091015460ff161515602090910152949350505050565b6067546060906000816001600160401b03811115611ba857611ba8612fa7565b604051908082528060200260200182016040528015611be157816020015b611bce612afc565b815260200190600190039081611bc65790505b50606780546040805160208084028201810190925282815293945060009084015b82821015611ce657600084815260209081902060408051606081018252600386029092018054835260018101546001600160a01b03169383019390935260028301805492939291840191611c55906132f3565b80601f0160208091040260200160405190810160405280929190818152602001828054611c81906132f3565b8015611cce5780601f10611ca357610100808354040283529160200191611cce565b820191906000526020600020905b815481529060010190602001808311611cb157829003601f168201915b50505050508152505081526020019060010190611c02565b50929695505050505050565b88611cfd813361273a565b611d195760405162461bcd60e51b815260040161081f9061336b565b60705460408051635c975abb60e01b815290516001600160a01b03909216918291635c975abb916004808301926020929190829003018186803b158015611d5f57600080fd5b505afa158015611d73573d6000803e3d6000fd5b505050506040513d601f19601f82011682018060405250810190611d97919061332e565b15611db45760405162461bcd60e51b815260040161081f9061334b565b600087118015611dc65750606f548711155b611e0a5760405162461bcd60e51b81526020600482015260156024820152741b5a5b9d081b1a5b5a5d081a5cc81a5b9d985b1a59605a1b604482015260640161081f565b8515611f0757606e54600090611e203a8a6133c9565b611e2a91906133c9565b905080341015611e6f5760405162461bcd60e51b815260206004820152601060248201526f4e6f7420656e6f7567682076616c756560801b604482015260640161081f565b606d546040516000916001600160a01b03169034908381818185875af1925050503d8060008114611ebc576040519150601f19603f3d011682016040523d82523d6000602084013e611ec1565b606091505b5050905080611f045760405162461bcd60e51b815260206004820152600f60248201526e1d1c985b9cd9995c8819985a5b1959608a1b604482015260640161081f565b50505b6000611f1260655490565b9050611f22606580546001019055565b6040805160c08101825282815260208082018f81529282018e8152606083018e9052608083018d90528a151560a084015260688054600181018255600091909152835160069091027fa2153420d844928b4421650203c77babc8b33d7f2e7b450e2966db0c22097753810191825594517fa2153420d844928b4421650203c77babc8b33d7f2e7b450e2966db0c220977548601559051805193949193611ff1937fa2153420d844928b4421650203c77babc8b33d7f2e7b450e2966db0c22097755909301929190910190612b5e565b506060820151805161200d916003840191602090910190612b5e565b5060808201518051612029916004840191602090910190612b5e565b5060a091909101516005909101805460ff1916911515919091179055606c5460405163ef3ad9eb60e01b81526001600160a01b0390911690819063ef3ad9eb9061207d9085908d908b908b906004016133e8565b600060405180830381600087803b15801561209757600080fd5b505af11580156120ab573d6000803e3d6000fd5b5050505086156121175760405163e572e74b60e01b815260048101839052600160248201526001600160a01b0382169063e572e74b90604401600060405180830381600087803b1580156120fe57600080fd5b505af1158015612112573d6000803e3d6000fd5b505050505b60008d8152606a60209081526040808320805460018101825590845282842001859055848352606b8252918290208f9055905183815233917fffde68815858e4c88d054382adadf9d3280426c744cf9c1991303ff77afdc1e2910160405180910390a250505050505050505050505050565b60705460408051635c975abb60e01b815290516001600160a01b03909216918291635c975abb916004808301926020929190829003018186803b1580156121cf57600080fd5b505afa1580156121e3573d6000803e3d6000fd5b505050506040513d601f19601f82011682018060405250810190612207919061332e565b156122245760405162461bcd60e51b815260040161081f9061334b565b600061222f60665490565b905061223f606680546001019055565b6040805160608101825282815233602080830191825292820186815260678054600181018255600091909152835160039091027f9787eeb91fe3101235e4a76063c7023ecb40f923f97916639c598592fa30d6ae810191825592517f9787eeb91fe3101235e4a76063c7023ecb40f923f97916639c598592fa30d6af840180546001600160a01b03929092166001600160a01b03199092169190911790559051805193949193612316937f9787eeb91fe3101235e4a76063c7023ecb40f923f97916639c598592fa30d6b001929190910190612b5e565b505033600081815260696020908152604080832080546001810182559084529190922001849055519091507f88d8a40d3d79893e13972978642d5fe29930912ee4c0b62a535815945c1d7bd0906123709084815260200190565b60405180910390a2505050565b6123856127bb565b6001600160a01b0381166123ea5760405162461bcd60e51b815260206004820152602660248201527f4f776e61626c653a206e6577206f776e657220697320746865207a65726f206160448201526564647265737360d01b606482015260840161081f565b6123f38161297d565b50565b6000818152606a6020526040812054606091816001600160401b0381111561242057612420612fa7565b60405190808252806020026020018201604052801561245957816020015b612446612b26565b81526020019060019003908161243e5790505b50905060005b82811015610d48576000858152606a60205260408120600161248184876132dc565b61248b91906132dc565b8154811061249b5761249b613295565b9060005260206000200154905060686001826124b791906132dc565b815481106124c7576124c7613295565b90600052602060002090600602016040518060c00160405290816000820154815260200160018201548152602001600282018054612504906132f3565b80601f0160208091040260200160405190810160405280929190818152602001828054612530906132f3565b801561257d5780601f106125525761010080835404028352916020019161257d565b820191906000526020600020905b81548152906001019060200180831161256057829003601f168201915b50505050508152602001600382018054612596906132f3565b80601f01602080910402602001604051908101604052809291908181526020018280546125c2906132f3565b801561260f5780601f106125e45761010080835404028352916020019161260f565b820191906000526020600020905b8154815290600101906020018083116125f257829003601f168201915b50505050508152602001600482018054612628906132f3565b80601f0160208091040260200160405190810160405280929190818152602001828054612654906132f3565b80156126a15780601f10612676576101008083540402835291602001916126a1565b820191906000526020600020905b81548152906001019060200180831161268457829003601f168201915b50505091835250506005919091015460ff16151560209091015283518490849081106126cf576126cf613295565b60200260200101819052505080806126e6906132c1565b91505061245f565b6126f66127bb565b806127355760405162461bcd60e51b815260206004820152600f60248201526e06d696e74206c696d6974206973203608c1b604482015260640161081f565b606f55565b6000808311801561274d57506067548311155b61278b5760405162461bcd60e51b815260206004820152600f60248201526e125b9d985b1a590819dc9bdd5c1259608a1b604482015260640161081f565b6127958383612863565b806127b457506127b483836000805160206134c1833981519152612a9a565b9392505050565b6033546001600160a01b031633146115be5760405162461bcd60e51b815260206004820181905260248201527f4f776e61626c653a2063616c6c6572206973206e6f7420746865206f776e6572604482015260640161081f565b60006001600160a01b038216606761282e6001866132dc565b8154811061283e5761283e613295565b60009182526020909120600390910201600101546001600160a01b0316149392505050565b6000808311801561287657506067548311155b6128b45760405162461bcd60e51b815260206004820152600f60248201526e125b9d985b1a590819dc9bdd5c1259608a1b604482015260640161081f565b6128be8383612815565b806127b457506127b483836000805160206134e1833981519152612a9a565b60006000805160206134e183398151915282148061116d5750506000805160206134c18339815191521490565b600061292583836000805160206134e1833981519152612a9a565b1580156127b4575061294683836000805160206134c1833981519152612a9a565b159392505050565b600054610100900460ff166129755760405162461bcd60e51b815260040161081f90613475565b6115be612acc565b603380546001600160a01b038381166001600160a01b0319831681179093556040519116919082907f8be0079c531659141344cd1fd0a4f28419497f9722a3daafe3b4186f6b6457e090600090a35050565b600082815260726020908152604080832080548251818502810185019093528083528493830182828015612a2c57602002820191906000526020600020905b81546001600160a01b03168152600190910190602001808311612a0e575b5050505050905060005b8151811015612a8f57836001600160a01b0316828281518110612a5b57612a5b613295565b60200260200101516001600160a01b03161415612a7d5760019250505061116d565b80612a87816132c1565b915050612a36565b506000949350505050565b60009283526071602090815260408085206001600160a01b039490941685529281528284209184525290205460ff1690565b600054610100900460ff16612af35760405162461bcd60e51b815260040161081f90613475565b6115be3361297d565b60405180606001604052806000815260200160006001600160a01b03168152602001606081525090565b6040518060c0016040528060008152602001600081526020016060815260200160608152602001606081526020016000151581525090565b828054612b6a906132f3565b90600052602060002090601f016020900481019282612b8c5760008555612bd2565b82601f10612ba557805160ff1916838001178555612bd2565b82800160010185558215612bd2579182015b82811115612bd2578251825591602001919060010190612bb7565b50612bde929150612be2565b5090565b5b80821115612bde5760008155600101612be3565b80356001600160a01b0381168114612c0e57600080fd5b919050565b600060208284031215612c2557600080fd5b6127b482612bf7565b6000815180845260005b81811015612c5457602081850181015186830182015201612c38565b81811115612c66576000602083870101525b50601f01601f19169290920160200192915050565b60006020808301818452808551808352604092508286019150828160051b87010184880160005b83811015612cf557888303603f19018552815180518452878101516001600160a01b0316888501528601516060878501819052612ce181860183612c2e565b968901969450505090860190600101612ca2565b509098975050505050505050565b60008060408385031215612d1657600080fd5b82359150612d2660208401612bf7565b90509250929050565b600060208284031215612d4157600080fd5b5035919050565b6020808252825182820181905260009190848201906040850190845b81811015612dab57612d9883855180516001600160a01b031682526020808201511515908301526040908101511515910152565b9284019260609290920191600101612d64565b50909695505050505050565b60008060408385031215612dca57600080fd5b50508035926020909101359150565b80518252602081015160208301526000604082015160c06040850152612e0260c0850182612c2e565b905060608301518482036060860152612e1b8282612c2e565b91505060808301518482036080860152612e358282612c2e565b91505060a0830151151560a08501528091505092915050565b6000602080830181845280855180835260408601915060408160051b870101925083870160005b82811015612ea357603f19888603018452612e91858351612dd9565b94509285019290850190600101612e75565b5092979650505050505050565b600080600060608486031215612ec557600080fd5b83359250612ed560208501612bf7565b9150604084013590509250925092565b600080600080600060a08688031215612efd57600080fd5b612f0686612bf7565b9450612f1460208701612bf7565b93506040860135925060608601359150612f3060808701612bf7565b90509295509295909350565b60008060408385031215612f4f57600080fd5b612f5883612bf7565b946020939093013593505050565b6020815260006127b46020830184612dd9565b81516001600160a01b031681526020808301511515908201526040808301511515908201526060810161116d565b634e487b7160e01b600052604160045260246000fd5b604080519081016001600160401b0381118282101715612fdf57612fdf612fa7565b60405290565b604051601f8201601f191681016001600160401b038111828210171561300d5761300d612fa7565b604052919050565b600082601f83011261302657600080fd5b81356001600160401b0381111561303f5761303f612fa7565b613052601f8201601f1916602001612fe5565b81815284602083860101111561306757600080fd5b816020850160208301376000918101602001919091529392505050565b80151581146123f357600080fd5b8035612c0e81613084565b600082601f8301126130ae57600080fd5b813560206001600160401b03808311156130ca576130ca612fa7565b8260051b6130d9838201612fe5565b93845285810183019383810190888611156130f357600080fd5b84880192505b8583101561316a578235848111156131115760008081fd5b88016040818b03601f19018113156131295760008081fd5b613131612fbd565b87830135878111156131435760008081fd5b6131518d8a83870101613015565b82525091013586820152825291840191908401906130f9565b98975050505050505050565b60008060008060008060008060006101208a8c03121561319557600080fd5b8935985060208a01356001600160401b03808211156131b357600080fd5b6131bf8d838e01613015565b995060408c01359150808211156131d557600080fd5b6131e18d838e01613015565b985060608c01359150808211156131f757600080fd5b6132038d838e01613015565b975060808c0135965061321860a08d01613092565b955061322660c08d01613092565b945060e08c013593506101008c013591508082111561324457600080fd5b506132518c828d0161309d565b9150509295985092959850929598565b60006020828403121561327357600080fd5b81356001600160401b0381111561328957600080fd5b61159784828501613015565b634e487b7160e01b600052603260045260246000fd5b634e487b7160e01b600052601160045260246000fd5b60006000198214156132d5576132d56132ab565b5060010190565b6000828210156132ee576132ee6132ab565b500390565b600181811c9082168061330757607f821691505b6020821081141561332857634e487b7160e01b600052602260045260246000fd5b50919050565b60006020828403121561334057600080fd5b81516127b481613084565b60208082526006908201526514185d5cd95960d21b604082015260600190565b6020808252601690820152752cb7ba903430bb32903737903832b936b4b9b9b4b7b760511b604082015260600190565b634e487b7160e01b600052603160045260246000fd5b600082198211156133c4576133c46132ab565b500190565b60008160001904831182151516156133e3576133e36132ab565b500290565b60006080820186835260208681850152604086818601526080606086015282865180855260a08701915060a08160051b880101945083880160005b8281101561346457888703609f1901845281518051868952613447878a0182612c2e565b918801519888019890985296509285019290850190600101613423565b50949b9a5050505050505050505050565b6020808252602b908201527f496e697469616c697a61626c653a20636f6e7472616374206973206e6f74206960408201526a6e697469616c697a696e6760a81b60608201526080019056fef38814eec94cecab51d76c4344615af8334e61ee8d4ae6b02411905a54259ecedf8b4c520ffe197c5343c6f5aec59570151ef9a492f2c624fd45ddde6135ec42a2646970667358221220bfb8330fca8891f9a23d95b390f0fd608d8b781ab1ab33f909dd4a1814bf04c364736f6c63430008090033",
  "linkReferences": {},
  "deployedLinkReferences": {}
}