{
  "_format": "hh-sol-artifact-1",
  "contractName": "EventManager",
  "sourceName": "contracts/Event.sol",
  "abi": [
    {
      "anonymous": false,
      "inputs": [
        {
          "indexed": true,
          "internalType": "address",
          "name": "owner",
          "type": "address"
        },
        {
          "indexed": false,
          "internalType": "uint256",
          "name": "eventId",
          "type": "uint256"
        }
      ],
      "name": "CreateEvent",
      "type": "event"
    },
    {
      "anonymous": false,
      "inputs": [
        {
          "indexed": true,
          "internalType": "address",
          "name": "owner",
          "type": "address"
        },
        {
          "indexed": false,
          "internalType": "uint256",
          "name": "groupId",
          "type": "uint256"
        }
      ],
      "name": "CreateGroup",
      "type": "event"
    },
    {
      "anonymous": false,
      "inputs": [
        {
          "indexed": false,
          "internalType": "uint8",
          "name": "version",
          "type": "uint8"
        }
      ],
      "name": "Initialized",
      "type": "event"
    },
    {
      "anonymous": false,
      "inputs": [
        {
          "indexed": true,
          "internalType": "address",
          "name": "previousOwner",
          "type": "address"
        },
        {
          "indexed": true,
          "internalType": "address",
          "name": "newOwner",
          "type": "address"
        }
      ],
      "name": "OwnershipTransferred",
      "type": "event"
    },
    {
      "inputs": [
        {
          "internalType": "uint256",
          "name": "_groupId",
          "type": "uint256"
        },
        {
          "internalType": "string",
          "name": "_name",
          "type": "string"
        },
        {
          "internalType": "string",
          "name": "_description",
          "type": "string"
        },
        {
          "internalType": "string",
          "name": "_date",
          "type": "string"
        },
        {
          "internalType": "uint256",
          "name": "_mintLimit",
          "type": "uint256"
        },
        {
          "internalType": "bool",
          "name": "_useMtx",
          "type": "bool"
        },
        {
          "internalType": "bool",
          "name": "_nonTransferable",
          "type": "bool"
        },
        {
          "internalType": "bytes32",
          "name": "_secretPhrase",
          "type": "bytes32"
        },
        {
          "components": [
            {
              "internalType": "string",
              "name": "metaDataURL",
              "type": "string"
            },
            {
              "internalType": "uint256",
              "name": "requiredParticipateCount",
              "type": "uint256"
            }
          ],
          "internalType": "struct IMintNFT.NFTAttribute[]",
          "name": "_eventNFTAttributes",
          "type": "tuple[]"
        }
      ],
      "name": "createEventRecord",
      "outputs": [],
      "stateMutability": "payable",
      "type": "function"
    },
    {
      "inputs": [
        {
          "internalType": "string",
          "name": "_name",
          "type": "string"
        }
      ],
      "name": "createGroup",
      "outputs": [],
      "stateMutability": "nonpayable",
      "type": "function"
    },
    {
      "inputs": [
        {
          "internalType": "address",
          "name": "_address",
          "type": "address"
        }
      ],
      "name": "getCollaboratorAccessGroups",
      "outputs": [
        {
          "components": [
            {
              "internalType": "uint256",
              "name": "groupId",
              "type": "uint256"
            },
            {
              "internalType": "address",
              "name": "ownerAddress",
              "type": "address"
            },
            {
              "internalType": "string",
              "name": "name",
              "type": "string"
            }
          ],
          "internalType": "struct EventManager.Group[]",
          "name": "",
          "type": "tuple[]"
        }
      ],
      "stateMutability": "view",
      "type": "function"
    },
    {
      "inputs": [
        {
          "internalType": "uint256",
          "name": "_eventId",
          "type": "uint256"
        }
      ],
      "name": "getEventById",
      "outputs": [
        {
          "components": [
            {
              "internalType": "uint256",
              "name": "eventRecordId",
              "type": "uint256"
            },
            {
              "internalType": "uint256",
              "name": "groupId",
              "type": "uint256"
            },
            {
              "internalType": "string",
              "name": "name",
              "type": "string"
            },
            {
              "internalType": "string",
              "name": "description",
              "type": "string"
            },
            {
              "internalType": "string",
              "name": "date",
              "type": "string"
            },
            {
              "internalType": "bool",
              "name": "useMtx",
              "type": "bool"
            }
          ],
          "internalType": "struct EventManager.EventRecord",
          "name": "",
          "type": "tuple"
        }
      ],
      "stateMutability": "view",
      "type": "function"
    },
    {
      "inputs": [],
      "name": "getEventRecordCount",
      "outputs": [
        {
          "internalType": "uint256",
          "name": "",
          "type": "uint256"
        }
      ],
      "stateMutability": "view",
      "type": "function"
    },
    {
      "inputs": [
        {
          "internalType": "uint256",
          "name": "_limit",
          "type": "uint256"
        },
        {
          "internalType": "uint256",
          "name": "_offset",
          "type": "uint256"
        }
      ],
      "name": "getEventRecords",
      "outputs": [
        {
          "components": [
            {
              "internalType": "uint256",
              "name": "eventRecordId",
              "type": "uint256"
            },
            {
              "internalType": "uint256",
              "name": "groupId",
              "type": "uint256"
            },
            {
              "internalType": "string",
              "name": "name",
              "type": "string"
            },
            {
              "internalType": "string",
              "name": "description",
              "type": "string"
            },
            {
              "internalType": "string",
              "name": "date",
              "type": "string"
            },
            {
              "internalType": "bool",
              "name": "useMtx",
              "type": "bool"
            }
          ],
          "internalType": "struct EventManager.EventRecord[]",
          "name": "",
          "type": "tuple[]"
        }
      ],
      "stateMutability": "view",
      "type": "function"
    },
    {
      "inputs": [
        {
          "internalType": "uint256",
          "name": "_groupId",
          "type": "uint256"
        }
      ],
      "name": "getEventRecordsByGroupId",
      "outputs": [
        {
          "components": [
            {
              "internalType": "uint256",
              "name": "eventRecordId",
              "type": "uint256"
            },
            {
              "internalType": "uint256",
              "name": "groupId",
              "type": "uint256"
            },
            {
              "internalType": "string",
              "name": "name",
              "type": "string"
            },
            {
              "internalType": "string",
              "name": "description",
              "type": "string"
            },
            {
              "internalType": "string",
              "name": "date",
              "type": "string"
            },
            {
              "internalType": "bool",
              "name": "useMtx",
              "type": "bool"
            }
          ],
          "internalType": "struct EventManager.EventRecord[]",
          "name": "",
          "type": "tuple[]"
        }
      ],
      "stateMutability": "view",
      "type": "function"
    },
    {
      "inputs": [],
      "name": "getGroups",
      "outputs": [
        {
          "components": [
            {
              "internalType": "uint256",
              "name": "groupId",
              "type": "uint256"
            },
            {
              "internalType": "address",
              "name": "ownerAddress",
              "type": "address"
            },
            {
              "internalType": "string",
              "name": "name",
              "type": "string"
            }
          ],
          "internalType": "struct EventManager.Group[]",
          "name": "",
          "type": "tuple[]"
        }
      ],
      "stateMutability": "view",
      "type": "function"
    },
    {
      "inputs": [
        {
          "internalType": "uint256",
          "name": "_groupId",
          "type": "uint256"
        },
        {
          "internalType": "address",
          "name": "_address",
          "type": "address"
        }
      ],
      "name": "getMemberRole",
      "outputs": [
        {
          "components": [
            {
              "internalType": "address",
              "name": "assignee",
              "type": "address"
            },
            {
              "internalType": "bool",
              "name": "admin",
              "type": "bool"
            },
            {
              "internalType": "bool",
              "name": "collaborator",
              "type": "bool"
            }
          ],
          "internalType": "struct EventManager.MemberRole",
          "name": "",
          "type": "tuple"
        }
      ],
      "stateMutability": "view",
      "type": "function"
    },
    {
      "inputs": [
        {
          "internalType": "uint256",
          "name": "_groupId",
          "type": "uint256"
        }
      ],
      "name": "getMemberRoles",
      "outputs": [
        {
          "components": [
            {
              "internalType": "address",
              "name": "assignee",
              "type": "address"
            },
            {
              "internalType": "bool",
              "name": "admin",
              "type": "bool"
            },
            {
              "internalType": "bool",
              "name": "collaborator",
              "type": "bool"
            }
          ],
          "internalType": "struct EventManager.MemberRole[]",
          "name": "",
          "type": "tuple[]"
        }
      ],
      "stateMutability": "view",
      "type": "function"
    },
    {
      "inputs": [
        {
          "internalType": "address",
          "name": "_address",
          "type": "address"
        }
      ],
      "name": "getOwnGroups",
      "outputs": [
        {
          "components": [
            {
              "internalType": "uint256",
              "name": "groupId",
              "type": "uint256"
            },
            {
              "internalType": "address",
              "name": "ownerAddress",
              "type": "address"
            },
            {
              "internalType": "string",
              "name": "name",
              "type": "string"
            }
          ],
          "internalType": "struct EventManager.Group[]",
          "name": "",
          "type": "tuple[]"
        }
      ],
      "stateMutability": "view",
      "type": "function"
    },
    {
      "inputs": [
        {
          "internalType": "uint256",
          "name": "_groupId",
          "type": "uint256"
        },
        {
          "internalType": "address",
          "name": "_address",
          "type": "address"
        },
        {
          "internalType": "bytes32",
          "name": "_role",
          "type": "bytes32"
        }
      ],
      "name": "grantRole",
      "outputs": [],
      "stateMutability": "nonpayable",
      "type": "function"
    },
    {
      "inputs": [
        {
          "internalType": "address",
          "name": "_address",
          "type": "address"
        },
        {
          "internalType": "uint256",
          "name": "_eventId",
          "type": "uint256"
        }
      ],
      "name": "hasAdminAccessByEventId",
      "outputs": [
        {
          "internalType": "bool",
          "name": "",
          "type": "bool"
        }
      ],
      "stateMutability": "view",
      "type": "function"
    },
    {
      "inputs": [
        {
          "internalType": "address",
          "name": "_address",
          "type": "address"
        },
        {
          "internalType": "uint256",
          "name": "_eventId",
          "type": "uint256"
        }
      ],
      "name": "hasCollaboratorAccessByEventId",
      "outputs": [
        {
          "internalType": "bool",
          "name": "",
          "type": "bool"
        }
      ],
      "stateMutability": "view",
      "type": "function"
    },
    {
      "inputs": [
        {
          "internalType": "address",
          "name": "_relayerAddr",
          "type": "address"
        },
        {
          "internalType": "uint256",
          "name": "_mtxPrice",
          "type": "uint256"
        },
        {
          "internalType": "uint256",
          "name": "_maxMintLimit",
          "type": "uint256"
        },
        {
          "internalType": "address",
          "name": "_operationControllerAddr",
          "type": "address"
        }
      ],
      "name": "initialize",
      "outputs": [],
      "stateMutability": "nonpayable",
      "type": "function"
    },
    {
      "inputs": [],
      "name": "owner",
      "outputs": [
        {
          "internalType": "address",
          "name": "",
          "type": "address"
        }
      ],
      "stateMutability": "view",
      "type": "function"
    },
    {
      "inputs": [],
      "name": "renounceOwnership",
      "outputs": [],
      "stateMutability": "nonpayable",
      "type": "function"
    },
    {
      "inputs": [
        {
          "internalType": "uint256",
          "name": "_groupId",
          "type": "uint256"
        },
        {
          "internalType": "address",
          "name": "_address",
          "type": "address"
        },
        {
          "internalType": "bytes32",
          "name": "_role",
          "type": "bytes32"
        }
      ],
      "name": "revokeRole",
      "outputs": [],
      "stateMutability": "nonpayable",
      "type": "function"
    },
    {
      "inputs": [
        {
          "internalType": "uint256",
          "name": "_mintLimit",
          "type": "uint256"
        }
      ],
      "name": "setMaxMintLimit",
      "outputs": [],
      "stateMutability": "nonpayable",
      "type": "function"
    },
    {
      "inputs": [
        {
          "internalType": "address",
          "name": "_mintNftAddr",
          "type": "address"
        }
      ],
      "name": "setMintNFTAddr",
      "outputs": [],
      "stateMutability": "nonpayable",
      "type": "function"
    },
    {
      "inputs": [
        {
          "internalType": "uint256",
          "name": "_price",
          "type": "uint256"
        }
      ],
      "name": "setMtxPrice",
      "outputs": [],
      "stateMutability": "nonpayable",
      "type": "function"
    },
    {
      "inputs": [
        {
          "internalType": "address",
          "name": "_operationControllerAddr",
          "type": "address"
        }
      ],
      "name": "setOperationControllerAddr",
      "outputs": [],
      "stateMutability": "nonpayable",
      "type": "function"
    },
    {
      "inputs": [
        {
          "internalType": "address",
          "name": "_relayerAddr",
          "type": "address"
        }
      ],
      "name": "setRelayerAddr",
      "outputs": [],
      "stateMutability": "nonpayable",
      "type": "function"
    },
    {
      "inputs": [
        {
          "internalType": "address",
          "name": "newOwner",
          "type": "address"
        }
      ],
      "name": "transferOwnership",
      "outputs": [],
      "stateMutability": "nonpayable",
      "type": "function"
    }
  ],
  "bytecode": "0x608060405234801561001057600080fd5b506131a4806100206000396000f3fe60806040526004361061014b5760003560e01c80638f184bea116100b6578063cd0a7d621161006f578063cd0a7d6214610467578063d96c2c3a1461047a578063dc2ddcae14610498578063f2fde38b146104b8578063f5620823146104d8578063f926b50c146104f857600080fd5b80638f184bea1461030f578063972f13271461032f5780639e3d87cd1461034f578063b98079bc1461036f578063c72b51761461039c578063cb8668ea146103b157600080fd5b8063471ade9811610108578063471ade9814610242578063683159fd146102625780636b1f762214610292578063715018a6146102b25780638be10337146102c75780638da5cb5b146102e757600080fd5b80630422cb161461015057806308fb5eb2146101865780631ac30e63146101a8578063331e36ea146101c857806337c81cd7146101f5578063398121a614610215575b600080fd5b34801561015c57600080fd5b5061017061016b366004612892565b610518565b60405161017d91906128fa565b60405180910390f35b34801561019257600080fd5b506101a66101a1366004612892565b61077c565b005b3480156101b457600080fd5b506101a66101c3366004612892565b61080f565b3480156101d457600080fd5b506101e86101e3366004612982565b61088f565b60405161017d919061299b565b34801561020157600080fd5b506101a6610210366004612892565b6109f0565b34801561022157600080fd5b50610235610230366004612a0a565b610a70565b60405161017d9190612aa1565b34801561024e57600080fd5b506101a661025d366004612b03565b610e13565b34801561026e57600080fd5b5061028261027d366004612b38565b6110c0565b604051901515815260200161017d565b34801561029e57600080fd5b506101a66102ad366004612982565b6110e1565b3480156102be57600080fd5b506101a66110ee565b3480156102d357600080fd5b506101a66102e2366004612b03565b611102565b3480156102f357600080fd5b506033546040516001600160a01b03909116815260200161017d565b34801561031b57600080fd5b5061017061032a366004612892565b61128a565b34801561033b57600080fd5b5061028261034a366004612b38565b611489565b34801561035b57600080fd5b506101a661036a366004612b62565b6114a2565b34801561037b57600080fd5b5061038f61038a366004612982565b6115f2565b60405161017d9190612ba8565b3480156103a857600080fd5b5061017061181a565b3480156103bd57600080fd5b5061045a6103cc366004612bbb565b604080516060808201835260008083526020808401829052928401819052835191820184526001600160a01b03949094168082529484526071825282842094845293815281832060008051602061314f83398151915284528082528284205460ff90811615158684015260008051602061312f83398151915285529152918190205490911615159082015290565b60405161017d9190612be7565b6101a6610475366004612de4565b611984565b34801561048657600080fd5b5060685460405190815260200161017d565b3480156104a457600080fd5b506101a66104b3366004612ecf565b611e1b565b3480156104c457600080fd5b506101a66104d3366004612892565b61200f565b3480156104e457600080fd5b506102356104f3366004612982565b612088565b34801561050457600080fd5b506101a6610513366004612982565b612380565b6067546060906000906001600160401b0381111561053857610538612c15565b604051908082528060200260200182016040528015610561578160200160208202803683370190505b509050600060015b60675481116105bf5761057c81866123cc565b156105ad578083838151811061059457610594612f03565b6020908102919091010152816105a981612f2f565b9250505b806105b781612f2f565b915050610569565b506000816001600160401b038111156105da576105da612c15565b60405190808252806020026020018201604052801561061357816020015b61060061277b565b8152602001906001900390816105f85790505b50905060005b82811015610773576000600185838151811061063757610637612f03565b60200260200101516106499190612f4a565b90506067818154811061065e5761065e612f03565b9060005260206000209060030201604051806060016040529081600082015481526020016001820160009054906101000a90046001600160a01b03166001600160a01b03166001600160a01b031681526020016002820180546106c090612f61565b80601f01602080910402602001604051908101604052809291908181526020018280546106ec90612f61565b80156107395780601f1061070e57610100808354040283529160200191610739565b820191906000526020600020905b81548152906001019060200180831161071c57829003601f168201915b50505050508152505083838151811061075457610754612f03565b602002602001018190525050808061076b90612f2f565b915050610619565b50949350505050565b61078461244d565b6001600160a01b0381166107ed5760405162461bcd60e51b815260206004820152602560248201527f6f7065726174696f6e20636f6e74726f6c6c6572206164647265737320697320604482015264626c616e6b60d81b60648201526084015b60405180910390fd5b607080546001600160a01b0319166001600160a01b0392909216919091179055565b61081761244d565b6001600160a01b03811661086d5760405162461bcd60e51b815260206004820152601960248201527f6d696e74206e6674206164647265737320697320626c616e6b0000000000000060448201526064016107e4565b606c80546001600160a01b0319166001600160a01b0392909216919091179055565b600081815260726020526040812054606091816001600160401b038111156108b9576108b9612c15565b60405190808252806020026020018201604052801561090457816020015b60408051606081018252600080825260208083018290529282015282526000199092019101816108d75790505b50905060005b828110156109e857600085815260726020526040812080548390811061093257610932612f03565b6000918252602080832090910154604080516060810182526001600160a01b039092168083528a855260718452818520818652845281852060008051602061314f83398151915286528085528286205460ff90811615158587015260008051602061312f8339815191528752945293819020549092161515918101919091528451919250908490849081106109c9576109c9612f03565b60200260200101819052505080806109e090612f2f565b91505061090a565b509392505050565b6109f861244d565b6001600160a01b038116610a4e5760405162461bcd60e51b815260206004820152601860248201527f72656c61796572206164647265737320697320626c616e6b000000000000000060448201526064016107e4565b606d80546001600160a01b0319166001600160a01b0392909216919091179055565b60685460609083610a8057606493505b6064841115610ac65760405162461bcd60e51b81526020600482015260126024820152716c696d697420697320746f6f206c6172676560701b60448201526064016107e4565b80831115610b0c5760405162461bcd60e51b81526020600482015260136024820152726f666673657420697320746f6f206c6172676560681b60448201526064016107e4565b80610b178486612f9c565b1115610b2a57610b278382612f4a565b93505b6000846001600160401b03811115610b4457610b44612c15565b604051908082528060200260200182016040528015610b7d57816020015b610b6a6127a5565b815260200190600190039081610b625790505b50905060005b85811015610e08576000610b978287612f9c565b610ba2906001612f9c565b610bac9085612f4a565b10610df6576068610bbd8287612f9c565b610bc8906001612f9c565b610bd29085612f4a565b81548110610be257610be2612f03565b90600052602060002090600602016040518060c00160405290816000820154815260200160018201548152602001600282018054610c1f90612f61565b80601f0160208091040260200160405190810160405280929190818152602001828054610c4b90612f61565b8015610c985780601f10610c6d57610100808354040283529160200191610c98565b820191906000526020600020905b815481529060010190602001808311610c7b57829003601f168201915b50505050508152602001600382018054610cb190612f61565b80601f0160208091040260200160405190810160405280929190818152602001828054610cdd90612f61565b8015610d2a5780601f10610cff57610100808354040283529160200191610d2a565b820191906000526020600020905b815481529060010190602001808311610d0d57829003601f168201915b50505050508152602001600482018054610d4390612f61565b80601f0160208091040260200160405190810160405280929190818152602001828054610d6f90612f61565b8015610dbc5780601f10610d9157610100808354040283529160200191610dbc565b820191906000526020600020905b815481529060010190602001808311610d9f57829003601f168201915b50505091835250506005919091015460ff1615156020909101528251839083908110610dea57610dea612f03565b60200260200101819052505b80610e0081612f2f565b915050610b83565b509150505b92915050565b60705460408051635c975abb60e01b815290516001600160a01b03909216918291635c975abb916004808301926020929190829003018186803b158015610e5957600080fd5b505afa158015610e6d573d6000803e3d6000fd5b505050506040513d601f19601f82011682018060405250810190610e919190612fb4565b15610eae5760405162461bcd60e51b81526004016107e490612fd1565b83610eb981336124a7565b610ed55760405162461bcd60e51b81526004016107e490612ff1565b610ede8361255c565b610f195760405162461bcd60e51b815260206004820152600c60248201526b496e76616c696420726f6c6560a01b60448201526064016107e4565b60008581526071602090815260408083206001600160a01b038816845282528083208684528252808320805460ff1916905587835260729091529020548015801590610f6a5750610f6a8686612589565b156110b8576001811115611078576000805b82811015610fe557600088815260726020526040902080546001600160a01b038916919083908110610fb057610fb0612f03565b6000918252602090912001546001600160a01b03161415610fd357809150610fe5565b80610fdd81612f2f565b915050610f7c565b506000878152607260205260409020610fff600184612f4a565b8154811061100f5761100f612f03565b60009182526020808320909101548983526072909152604090912080546001600160a01b03909216918390811061104857611048612f03565b9060005260206000200160006101000a8154816001600160a01b0302191690836001600160a01b03160217905550505b600086815260726020526040902080548061109557611095613021565b600082815260209020810160001990810180546001600160a01b03191690550190555b505050505050565b6000818152606b60205260408120546110d981856124a7565b949350505050565b6110e961244d565b606e55565b6110f661244d565b61110060006125cd565b565b60705460408051635c975abb60e01b815290516001600160a01b03909216918291635c975abb916004808301926020929190829003018186803b15801561114857600080fd5b505afa15801561115c573d6000803e3d6000fd5b505050506040513d601f19601f820116820180604052508101906111809190612fb4565b1561119d5760405162461bcd60e51b81526004016107e490612fd1565b836111a881336124a7565b6111c45760405162461bcd60e51b81526004016107e490612ff1565b6111cd8361255c565b6112085760405162461bcd60e51b815260206004820152600c60248201526b496e76616c696420726f6c6560a01b60448201526064016107e4565b60008581526071602090815260408083206001600160a01b038816845282528083208684529091529020805460ff19166001179055611247858561261f565b6112835760008581526072602090815260408220805460018101825590835291200180546001600160a01b0319166001600160a01b0386161790555b5050505050565b6001600160a01b038116600090815260696020526040812054606754606092826001600160401b038111156112c1576112c1612c15565b6040519080825280602002602001820160405280156112fa57816020015b6112e761277b565b8152602001906001900390816112df5790505b5090506000805b8381101561147e57866001600160a01b03166067828154811061132657611326612f03565b60009182526020909120600160039092020101546001600160a01b0316141561146c576067818154811061135c5761135c612f03565b9060005260206000209060030201604051806060016040529081600082015481526020016001820160009054906101000a90046001600160a01b03166001600160a01b03166001600160a01b031681526020016002820180546113be90612f61565b80601f01602080910402602001604051908101604052809291908181526020018280546113ea90612f61565b80156114375780601f1061140c57610100808354040283529160200191611437565b820191906000526020600020905b81548152906001019060200180831161141a57829003601f168201915b50505050508152505083838151811061145257611452612f03565b6020026020010181905250818061146890612f2f565b9250505b8061147681612f2f565b915050611301565b509095945050505050565b6000818152606b60205260408120546110d981856123cc565b600054600290610100900460ff161580156114c4575060005460ff8083169116105b6115275760405162461bcd60e51b815260206004820152602e60248201527f496e697469616c697a61626c653a20636f6e747261637420697320616c72656160448201526d191e481a5b9a5d1a585b1a5e995960921b60648201526084016107e4565b6000805461ffff191660ff8316176101001790556115436126ea565b6066541580156115535750606554155b1561157457611566606680546001019055565b611574606580546001019055565b61157d856109f0565b611586846110e1565b61158f83612380565b607080546001600160a01b0319166001600160a01b0384161790556000805461ff001916905560405160ff821681527f7f26b83ff96e1f2b6a682f133852f6798a09c465da95921460cefb38474024989060200160405180910390a15050505050565b6115fa6127a5565b6000611607600184612f4a565b905060006068828154811061161e5761161e612f03565b90600052602060002090600602016040518060c0016040529081600082015481526020016001820154815260200160028201805461165b90612f61565b80601f016020809104026020016040519081016040528092919081815260200182805461168790612f61565b80156116d45780601f106116a9576101008083540402835291602001916116d4565b820191906000526020600020905b8154815290600101906020018083116116b757829003601f168201915b505050505081526020016003820180546116ed90612f61565b80601f016020809104026020016040519081016040528092919081815260200182805461171990612f61565b80156117665780601f1061173b57610100808354040283529160200191611766565b820191906000526020600020905b81548152906001019060200180831161174957829003601f168201915b5050505050815260200160048201805461177f90612f61565b80601f01602080910402602001604051908101604052809291908181526020018280546117ab90612f61565b80156117f85780601f106117cd576101008083540402835291602001916117f8565b820191906000526020600020905b8154815290600101906020018083116117db57829003601f168201915b50505091835250506005919091015460ff161515602090910152949350505050565b6067546060906000816001600160401b0381111561183a5761183a612c15565b60405190808252806020026020018201604052801561187357816020015b61186061277b565b8152602001906001900390816118585790505b50606780546040805160208084028201810190925282815293945060009084015b8282101561197857600084815260209081902060408051606081018252600386029092018054835260018101546001600160a01b031693830193909352600283018054929392918401916118e790612f61565b80601f016020809104026020016040519081016040528092919081815260200182805461191390612f61565b80156119605780601f1061193557610100808354040283529160200191611960565b820191906000526020600020905b81548152906001019060200180831161194357829003601f168201915b50505050508152505081526020019060010190611894565b50929695505050505050565b8861198f81336123cc565b6119ab5760405162461bcd60e51b81526004016107e490612ff1565b60705460408051635c975abb60e01b815290516001600160a01b03909216918291635c975abb916004808301926020929190829003018186803b1580156119f157600080fd5b505afa158015611a05573d6000803e3d6000fd5b505050506040513d601f19601f82011682018060405250810190611a299190612fb4565b15611a465760405162461bcd60e51b81526004016107e490612fd1565b600087118015611a585750606f548711155b611a9c5760405162461bcd60e51b81526020600482015260156024820152741b5a5b9d081b1a5b5a5d081a5cc81a5b9d985b1a59605a1b60448201526064016107e4565b8515611b9957606e54600090611ab23a8a613037565b611abc9190613037565b905080341015611b015760405162461bcd60e51b815260206004820152601060248201526f4e6f7420656e6f7567682076616c756560801b60448201526064016107e4565b606d546040516000916001600160a01b03169034908381818185875af1925050503d8060008114611b4e576040519150601f19603f3d011682016040523d82523d6000602084013e611b53565b606091505b5050905080611b965760405162461bcd60e51b815260206004820152600f60248201526e1d1c985b9cd9995c8819985a5b1959608a1b60448201526064016107e4565b50505b6000611ba460655490565b9050611bb4606580546001019055565b6040805160c08101825282815260208082018f81529282018e8152606083018e9052608083018d90528a151560a084015260688054600181018255600091909152835160069091027fa2153420d844928b4421650203c77babc8b33d7f2e7b450e2966db0c22097753810191825594517fa2153420d844928b4421650203c77babc8b33d7f2e7b450e2966db0c220977548601559051805193949193611c83937fa2153420d844928b4421650203c77babc8b33d7f2e7b450e2966db0c220977559093019291909101906127dd565b5060608201518051611c9f9160038401916020909101906127dd565b5060808201518051611cbb9160048401916020909101906127dd565b5060a091909101516005909101805460ff1916911515919091179055606c5460405163ef3ad9eb60e01b81526001600160a01b0390911690819063ef3ad9eb90611d0f9085908d908b908b90600401613056565b600060405180830381600087803b158015611d2957600080fd5b505af1158015611d3d573d6000803e3d6000fd5b505050508615611da95760405163e572e74b60e01b815260048101839052600160248201526001600160a01b0382169063e572e74b90604401600060405180830381600087803b158015611d9057600080fd5b505af1158015611da4573d6000803e3d6000fd5b505050505b60008d8152606a60209081526040808320805460018101825590845282842001859055848352606b8252918290208f9055905183815233917fffde68815858e4c88d054382adadf9d3280426c744cf9c1991303ff77afdc1e2910160405180910390a250505050505050505050505050565b60705460408051635c975abb60e01b815290516001600160a01b03909216918291635c975abb916004808301926020929190829003018186803b158015611e6157600080fd5b505afa158015611e75573d6000803e3d6000fd5b505050506040513d601f19601f82011682018060405250810190611e999190612fb4565b15611eb65760405162461bcd60e51b81526004016107e490612fd1565b6000611ec160665490565b9050611ed1606680546001019055565b6040805160608101825282815233602080830191825292820186815260678054600181018255600091909152835160039091027f9787eeb91fe3101235e4a76063c7023ecb40f923f97916639c598592fa30d6ae810191825592517f9787eeb91fe3101235e4a76063c7023ecb40f923f97916639c598592fa30d6af840180546001600160a01b03929092166001600160a01b03199092169190911790559051805193949193611fa8937f9787eeb91fe3101235e4a76063c7023ecb40f923f97916639c598592fa30d6b0019291909101906127dd565b505033600081815260696020908152604080832080546001810182559084529190922001849055519091507f88d8a40d3d79893e13972978642d5fe29930912ee4c0b62a535815945c1d7bd0906120029084815260200190565b60405180910390a2505050565b61201761244d565b6001600160a01b03811661207c5760405162461bcd60e51b815260206004820152602660248201527f4f776e61626c653a206e6577206f776e657220697320746865207a65726f206160448201526564647265737360d01b60648201526084016107e4565b612085816125cd565b50565b6000818152606a6020526040812054606091816001600160401b038111156120b2576120b2612c15565b6040519080825280602002602001820160405280156120eb57816020015b6120d86127a5565b8152602001906001900390816120d05790505b50905060005b828110156109e8576000858152606a6020526040812060016121138487612f4a565b61211d9190612f4a565b8154811061212d5761212d612f03565b9060005260206000200154905060686001826121499190612f4a565b8154811061215957612159612f03565b90600052602060002090600602016040518060c0016040529081600082015481526020016001820154815260200160028201805461219690612f61565b80601f01602080910402602001604051908101604052809291908181526020018280546121c290612f61565b801561220f5780601f106121e45761010080835404028352916020019161220f565b820191906000526020600020905b8154815290600101906020018083116121f257829003601f168201915b5050505050815260200160038201805461222890612f61565b80601f016020809104026020016040519081016040528092919081815260200182805461225490612f61565b80156122a15780601f10612276576101008083540402835291602001916122a1565b820191906000526020600020905b81548152906001019060200180831161228457829003601f168201915b505050505081526020016004820180546122ba90612f61565b80601f01602080910402602001604051908101604052809291908181526020018280546122e690612f61565b80156123335780601f1061230857610100808354040283529160200191612333565b820191906000526020600020905b81548152906001019060200180831161231657829003601f168201915b50505091835250506005919091015460ff161515602090910152835184908490811061236157612361612f03565b602002602001018190525050808061237890612f2f565b9150506120f1565b61238861244d565b806123c75760405162461bcd60e51b815260206004820152600f60248201526e06d696e74206c696d6974206973203608c1b60448201526064016107e4565b606f55565b600080831180156123df57506067548311155b61241d5760405162461bcd60e51b815260206004820152600f60248201526e125b9d985b1a590819dc9bdd5c1259608a1b60448201526064016107e4565b61242783836124a7565b806124465750612446838360008051602061312f833981519152612719565b9392505050565b6033546001600160a01b031633146111005760405162461bcd60e51b815260206004820181905260248201527f4f776e61626c653a2063616c6c6572206973206e6f7420746865206f776e657260448201526064016107e4565b600080831180156124ba57506067548311155b6124f85760405162461bcd60e51b815260206004820152600f60248201526e125b9d985b1a590819dc9bdd5c1259608a1b60448201526064016107e4565b6001600160a01b038216606761250f600186612f4a565b8154811061251f5761251f612f03565b60009182526020909120600160039092020101546001600160a01b031614806124465750612446838360008051602061314f833981519152612719565b600060008051602061314f833981519152821480610e0d57505060008051602061312f8339815191521490565b60006125a4838360008051602061314f833981519152612719565b15801561244657506125c5838360008051602061312f833981519152612719565b159392505050565b603380546001600160a01b038381166001600160a01b0319831681179093556040519116919082907f8be0079c531659141344cd1fd0a4f28419497f9722a3daafe3b4186f6b6457e090600090a35050565b60008281526072602090815260408083208054825181850281018501909352808352849383018282801561267c57602002820191906000526020600020905b81546001600160a01b0316815260019091019060200180831161265e575b5050505050905060005b81518110156126df57836001600160a01b03168282815181106126ab576126ab612f03565b60200260200101516001600160a01b031614156126cd57600192505050610e0d565b806126d781612f2f565b915050612686565b506000949350505050565b600054610100900460ff166127115760405162461bcd60e51b81526004016107e4906130e3565b61110061274b565b60009283526071602090815260408085206001600160a01b039490941685529281528284209184525290205460ff1690565b600054610100900460ff166127725760405162461bcd60e51b81526004016107e4906130e3565b611100336125cd565b60405180606001604052806000815260200160006001600160a01b03168152602001606081525090565b6040518060c0016040528060008152602001600081526020016060815260200160608152602001606081526020016000151581525090565b8280546127e990612f61565b90600052602060002090601f01602090048101928261280b5760008555612851565b82601f1061282457805160ff1916838001178555612851565b82800160010185558215612851579182015b82811115612851578251825591602001919060010190612836565b5061285d929150612861565b5090565b5b8082111561285d5760008155600101612862565b80356001600160a01b038116811461288d57600080fd5b919050565b6000602082840312156128a457600080fd5b61244682612876565b6000815180845260005b818110156128d3576020818501810151868301820152016128b7565b818111156128e5576000602083870101525b50601f01601f19169290920160200192915050565b60006020808301818452808551808352604092508286019150828160051b87010184880160005b8381101561297457888303603f19018552815180518452878101516001600160a01b0316888501528601516060878501819052612960818601836128ad565b968901969450505090860190600101612921565b509098975050505050505050565b60006020828403121561299457600080fd5b5035919050565b6020808252825182820181905260009190848201906040850190845b818110156129fe576129eb83855180516001600160a01b031682526020808201511515908301526040908101511515910152565b92840192606092909201916001016129b7565b50909695505050505050565b60008060408385031215612a1d57600080fd5b50508035926020909101359150565b80518252602081015160208301526000604082015160c06040850152612a5560c08501826128ad565b905060608301518482036060860152612a6e82826128ad565b91505060808301518482036080860152612a8882826128ad565b91505060a0830151151560a08501528091505092915050565b6000602080830181845280855180835260408601915060408160051b870101925083870160005b82811015612af657603f19888603018452612ae4858351612a2c565b94509285019290850190600101612ac8565b5092979650505050505050565b600080600060608486031215612b1857600080fd5b83359250612b2860208501612876565b9150604084013590509250925092565b60008060408385031215612b4b57600080fd5b612b5483612876565b946020939093013593505050565b60008060008060808587031215612b7857600080fd5b612b8185612876565b93506020850135925060408501359150612b9d60608601612876565b905092959194509250565b6020815260006124466020830184612a2c565b60008060408385031215612bce57600080fd5b82359150612bde60208401612876565b90509250929050565b81516001600160a01b0316815260208083015115159082015260408083015115159082015260608101610e0d565b634e487b7160e01b600052604160045260246000fd5b604080519081016001600160401b0381118282101715612c4d57612c4d612c15565b60405290565b604051601f8201601f191681016001600160401b0381118282101715612c7b57612c7b612c15565b604052919050565b600082601f830112612c9457600080fd5b81356001600160401b03811115612cad57612cad612c15565b612cc0601f8201601f1916602001612c53565b818152846020838601011115612cd557600080fd5b816020850160208301376000918101602001919091529392505050565b801515811461208557600080fd5b803561288d81612cf2565b600082601f830112612d1c57600080fd5b813560206001600160401b0380831115612d3857612d38612c15565b8260051b612d47838201612c53565b9384528581018301938381019088861115612d6157600080fd5b84880192505b85831015612dd857823584811115612d7f5760008081fd5b88016040818b03601f1901811315612d975760008081fd5b612d9f612c2b565b8783013587811115612db15760008081fd5b612dbf8d8a83870101612c83565b8252509101358682015282529184019190840190612d67565b98975050505050505050565b60008060008060008060008060006101208a8c031215612e0357600080fd5b8935985060208a01356001600160401b0380821115612e2157600080fd5b612e2d8d838e01612c83565b995060408c0135915080821115612e4357600080fd5b612e4f8d838e01612c83565b985060608c0135915080821115612e6557600080fd5b612e718d838e01612c83565b975060808c01359650612e8660a08d01612d00565b9550612e9460c08d01612d00565b945060e08c013593506101008c0135915080821115612eb257600080fd5b50612ebf8c828d01612d0b565b9150509295985092959850929598565b600060208284031215612ee157600080fd5b81356001600160401b03811115612ef757600080fd5b6110d984828501612c83565b634e487b7160e01b600052603260045260246000fd5b634e487b7160e01b600052601160045260246000fd5b6000600019821415612f4357612f43612f19565b5060010190565b600082821015612f5c57612f5c612f19565b500390565b600181811c90821680612f7557607f821691505b60208210811415612f9657634e487b7160e01b600052602260045260246000fd5b50919050565b60008219821115612faf57612faf612f19565b500190565b600060208284031215612fc657600080fd5b815161244681612cf2565b60208082526006908201526514185d5cd95960d21b604082015260600190565b6020808252601690820152752cb7ba903430bb32903737903832b936b4b9b9b4b7b760511b604082015260600190565b634e487b7160e01b600052603160045260246000fd5b600081600019048311821515161561305157613051612f19565b500290565b60006080820186835260208681850152604086818601526080606086015282865180855260a08701915060a08160051b880101945083880160005b828110156130d257888703609f19018452815180518689526130b5878a01826128ad565b918801519888019890985296509285019290850190600101613091565b50949b9a5050505050505050505050565b6020808252602b908201527f496e697469616c697a61626c653a20636f6e7472616374206973206e6f74206960408201526a6e697469616c697a696e6760a81b60608201526080019056fef38814eec94cecab51d76c4344615af8334e61ee8d4ae6b02411905a54259ecedf8b4c520ffe197c5343c6f5aec59570151ef9a492f2c624fd45ddde6135ec42a2646970667358221220b5880241e7f856a19decb5d2eec554bcf9152b30752d74ca17e2685023e012a764736f6c63430008090033",
  "linkReferences": {},
  "deployedLinkReferences": {}
}