{
  "_format": "hh-sol-artifact-1",
  "contractName": "EventManager",
  "sourceName": "contracts/Event.sol",
  "abi": [
    {
      "anonymous": false,
      "inputs": [
        {
          "indexed": true,
          "internalType": "address",
          "name": "owner",
          "type": "address"
        },
        {
          "indexed": false,
          "internalType": "uint256",
          "name": "groupId",
          "type": "uint256"
        }
      ],
      "name": "CreatedGroupId",
      "type": "event"
    },
    {
      "anonymous": false,
      "inputs": [
        {
          "indexed": false,
          "internalType": "uint8",
          "name": "version",
          "type": "uint8"
        }
      ],
      "name": "Initialized",
      "type": "event"
    },
    {
      "anonymous": false,
      "inputs": [
        {
          "indexed": true,
          "internalType": "address",
          "name": "previousOwner",
          "type": "address"
        },
        {
          "indexed": true,
          "internalType": "address",
          "name": "newOwner",
          "type": "address"
        }
      ],
      "name": "OwnershipTransferred",
      "type": "event"
    },
    {
      "inputs": [
        {
          "internalType": "uint256",
          "name": "_eventRecordId",
          "type": "uint256"
        }
      ],
      "name": "applyForParticipation",
      "outputs": [],
      "stateMutability": "nonpayable",
      "type": "function"
    },
    {
      "inputs": [
        {
          "internalType": "address",
          "name": "_participantAddress",
          "type": "address"
        },
        {
          "internalType": "uint256",
          "name": "_groupId",
          "type": "uint256"
        }
      ],
      "name": "countParticipationByGroup",
      "outputs": [
        {
          "internalType": "uint256",
          "name": "",
          "type": "uint256"
        }
      ],
      "stateMutability": "view",
      "type": "function"
    },
    {
      "inputs": [
        {
          "internalType": "uint256",
          "name": "_groupId",
          "type": "uint256"
        },
        {
          "internalType": "string",
          "name": "_name",
          "type": "string"
        },
        {
          "internalType": "string",
          "name": "_description",
          "type": "string"
        },
        {
          "internalType": "string",
          "name": "_date",
          "type": "string"
        },
        {
          "internalType": "string",
          "name": "_startTime",
          "type": "string"
        },
        {
          "internalType": "string",
          "name": "_endTime",
          "type": "string"
        },
        {
          "internalType": "string",
          "name": "_secretPhrase",
          "type": "string"
        },
        {
          "components": [
            {
              "internalType": "string",
              "name": "metaDataURL",
              "type": "string"
            },
            {
              "internalType": "uint256",
              "name": "requiredParticipateCount",
              "type": "uint256"
            }
          ],
          "internalType": "struct IMintNFT.NFTAttribute[]",
          "name": "_eventNFTAttributes",
          "type": "tuple[]"
        }
      ],
      "name": "createEventRecord",
      "outputs": [],
      "stateMutability": "nonpayable",
      "type": "function"
    },
    {
      "inputs": [
        {
          "internalType": "string",
          "name": "_name",
          "type": "string"
        }
      ],
      "name": "createGroup",
      "outputs": [],
      "stateMutability": "nonpayable",
      "type": "function"
    },
    {
      "inputs": [
        {
          "internalType": "uint256",
          "name": "_eventId",
          "type": "uint256"
        }
      ],
      "name": "getEventById",
      "outputs": [
        {
          "components": [
            {
              "internalType": "uint256",
              "name": "eventRecordId",
              "type": "uint256"
            },
            {
              "internalType": "uint256",
              "name": "groupId",
              "type": "uint256"
            },
            {
              "internalType": "string",
              "name": "name",
              "type": "string"
            },
            {
              "internalType": "string",
              "name": "description",
              "type": "string"
            },
            {
              "internalType": "string",
              "name": "date",
              "type": "string"
            },
            {
              "internalType": "string",
              "name": "startTime",
              "type": "string"
            },
            {
              "internalType": "string",
              "name": "endTime",
              "type": "string"
            },
            {
              "internalType": "bytes32",
              "name": "secretPhrase",
              "type": "bytes32"
            }
          ],
          "internalType": "struct EventManager.EventRecord",
          "name": "",
          "type": "tuple"
        }
      ],
      "stateMutability": "view",
      "type": "function"
    },
    {
      "inputs": [],
      "name": "getEventRecords",
      "outputs": [
        {
          "components": [
            {
              "internalType": "uint256",
              "name": "eventRecordId",
              "type": "uint256"
            },
            {
              "internalType": "uint256",
              "name": "groupId",
              "type": "uint256"
            },
            {
              "internalType": "string",
              "name": "name",
              "type": "string"
            },
            {
              "internalType": "string",
              "name": "description",
              "type": "string"
            },
            {
              "internalType": "string",
              "name": "date",
              "type": "string"
            },
            {
              "internalType": "string",
              "name": "startTime",
              "type": "string"
            },
            {
              "internalType": "string",
              "name": "endTime",
              "type": "string"
            },
            {
              "internalType": "bytes32",
              "name": "secretPhrase",
              "type": "bytes32"
            }
          ],
          "internalType": "struct EventManager.EventRecord[]",
          "name": "",
          "type": "tuple[]"
        }
      ],
      "stateMutability": "view",
      "type": "function"
    },
    {
      "inputs": [],
      "name": "getGroups",
      "outputs": [
        {
          "components": [
            {
              "internalType": "uint256",
              "name": "groupId",
              "type": "uint256"
            },
            {
              "internalType": "address",
              "name": "ownerAddress",
              "type": "address"
            },
            {
              "internalType": "string",
              "name": "name",
              "type": "string"
            }
          ],
          "internalType": "struct EventManager.Group[]",
          "name": "",
          "type": "tuple[]"
        }
      ],
      "stateMutability": "view",
      "type": "function"
    },
    {
      "inputs": [],
      "name": "getOwnGroups",
      "outputs": [
        {
          "components": [
            {
              "internalType": "uint256",
              "name": "groupId",
              "type": "uint256"
            },
            {
              "internalType": "address",
              "name": "ownerAddress",
              "type": "address"
            },
            {
              "internalType": "string",
              "name": "name",
              "type": "string"
            }
          ],
          "internalType": "struct EventManager.Group[]",
          "name": "",
          "type": "tuple[]"
        }
      ],
      "stateMutability": "view",
      "type": "function"
    },
    {
      "inputs": [],
      "name": "getParticipationEventIds",
      "outputs": [
        {
          "internalType": "uint256[]",
          "name": "",
          "type": "uint256[]"
        }
      ],
      "stateMutability": "view",
      "type": "function"
    },
    {
      "inputs": [],
      "name": "initialize",
      "outputs": [],
      "stateMutability": "nonpayable",
      "type": "function"
    },
    {
      "inputs": [],
      "name": "owner",
      "outputs": [
        {
          "internalType": "address",
          "name": "",
          "type": "address"
        }
      ],
      "stateMutability": "view",
      "type": "function"
    },
    {
      "inputs": [],
      "name": "renounceOwnership",
      "outputs": [],
      "stateMutability": "nonpayable",
      "type": "function"
    },
    {
      "inputs": [
        {
          "internalType": "address",
          "name": "_mintNftAddr",
          "type": "address"
        }
      ],
      "name": "setMintNFTAddr",
      "outputs": [],
      "stateMutability": "nonpayable",
      "type": "function"
    },
    {
      "inputs": [],
      "name": "testConnection",
      "outputs": [
        {
          "internalType": "string",
          "name": "",
          "type": "string"
        }
      ],
      "stateMutability": "pure",
      "type": "function"
    },
    {
      "inputs": [
        {
          "internalType": "address",
          "name": "newOwner",
          "type": "address"
        }
      ],
      "name": "transferOwnership",
      "outputs": [],
      "stateMutability": "nonpayable",
      "type": "function"
    },
    {
      "inputs": [
        {
          "internalType": "string",
          "name": "_secretPhrase",
          "type": "string"
        },
        {
          "internalType": "uint256",
          "name": "_eventRecordId",
          "type": "uint256"
        }
      ],
      "name": "verifySecretPhrase",
      "outputs": [
        {
          "internalType": "bool",
          "name": "",
          "type": "bool"
        }
      ],
      "stateMutability": "view",
      "type": "function"
    }
  ],
  "bytecode": "0x608060405234801561001057600080fd5b50612fed806100206000396000f3fe608060405234801561001057600080fd5b50600436106101005760003560e01c8063be04cc3611610097578063e37c24fe11610066578063e37c24fe14610263578063e3cb3da114610293578063f2fde38b146102af578063f321060a146102cb57610100565b8063be04cc36146101ed578063c72b51761461020b578063d337483a14610229578063dc2ddcae1461024757610100565b8063715018a6116100d3578063715018a61461018b5780638129fc1c146101955780638da5cb5b1461019f578063b98079bc146101bd57610100565b806306fe6dec146101055780631ac30e63146101355780633412a15c1461015157806345e46c691461016f575b600080fd5b61011f600480360381019061011a9190612020565b6102e9565b60405161012c9190612a12565b60405180910390f35b61014f600480360381019061014a9190611ff7565b6103f4565b005b6101596104b0565b604051610166919061290e565b60405180910390f35b610189600480360381019061018491906120f1565b6104f3565b005b61019361064f565b005b61019d610663565b005b6101a76107b5565b6040516101b49190612857565b60405180910390f35b6101d760048036038101906101d291906120f1565b6107df565b6040516101e491906129f0565b60405180910390f35b6101f5610b52565b6040516102029190612894565b60405180910390f35b610213610e84565b6040516102209190612894565b60405180910390f35b610231611062565b60405161023e9190612872565b60405180910390f35b610261600480360381019061025c919061205c565b611447565b005b61027d6004803603810190610278919061209d565b6115e3565b60405161028a91906128d8565b60405180910390f35b6102ad60048036038101906102a8919061211a565b611665565b005b6102c960048036038101906102c49190611ff7565b6119c3565b005b6102d3611a47565b6040516102e091906128b6565b60405180910390f35b600080606b60008573ffffffffffffffffffffffffffffffffffffffff1673ffffffffffffffffffffffffffffffffffffffff1681526020019081526020016000208054905090506000805b828110156103e85784606b60008873ffffffffffffffffffffffffffffffffffffffff1673ffffffffffffffffffffffffffffffffffffffff16815260200190815260200160002082815481106103b5577f4e487b7100000000000000000000000000000000000000000000000000000000600052603260045260246000fd5b906000526020600020015414156103d55781806103d190612d3a565b9250505b80806103e090612d3a565b915050610335565b50809250505092915050565b6103fc611ae2565b600073ffffffffffffffffffffffffffffffffffffffff168173ffffffffffffffffffffffffffffffffffffffff16141561046c576040517f08c379a0000000000000000000000000000000000000000000000000000000008152600401610463906129b0565b60405180910390fd5b80606f60006101000a81548173ffffffffffffffffffffffffffffffffffffffff021916908373ffffffffffffffffffffffffffffffffffffffff16021790555050565b606060006040518060400160405280601a81526020017f5465737420636f6e6e656374696f6e207375636365737366756c00000000000081525090508091505090565b606a6000828152602001908152602001600020339080600181540180825580915050600190039060005260206000200160009091909190916101000a81548173ffffffffffffffffffffffffffffffffffffffff021916908373ffffffffffffffffffffffffffffffffffffffff160217905550606c60003373ffffffffffffffffffffffffffffffffffffffff1673ffffffffffffffffffffffffffffffffffffffff1681526020019081526020016000208190806001815401808255809150506001900390600052602060002001600090919091909150556000606e6000838152602001908152602001600020549050606b60003373ffffffffffffffffffffffffffffffffffffffff1673ffffffffffffffffffffffffffffffffffffffff1681526020019081526020016000208190806001815401808255809150506001900390600052602060002001600090919091909150555050565b610657611ae2565b6106616000611b60565b565b60008060019054906101000a900460ff161590508080156106945750600160008054906101000a900460ff1660ff16105b806106c157506106a330611c26565b1580156106c05750600160008054906101000a900460ff1660ff16145b5b610700576040517f08c379a00000000000000000000000000000000000000000000000000000000081526004016106f790612970565b60405180910390fd5b60016000806101000a81548160ff021916908360ff160217905550801561073d576001600060016101000a81548160ff0219169083151502179055505b610745611c49565b61074f6066611ca2565b6107596065611ca2565b80156107b25760008060016101000a81548160ff0219169083151502179055507f7f26b83ff96e1f2b6a682f133852f6798a09c465da95921460cefb384740249860016040516107a991906128f3565b60405180910390a15b50565b6000603360009054906101000a900473ffffffffffffffffffffffffffffffffffffffff16905090565b6107e7611d2f565b60006001836107f69190612bf0565b9050600060688281548110610834577f4e487b7100000000000000000000000000000000000000000000000000000000600052603260045260246000fd5b906000526020600020906008020160405180610100016040529081600082015481526020016001820154815260200160028201805461087290612cd7565b80601f016020809104026020016040519081016040528092919081815260200182805461089e90612cd7565b80156108eb5780601f106108c0576101008083540402835291602001916108eb565b820191906000526020600020905b8154815290600101906020018083116108ce57829003601f168201915b5050505050815260200160038201805461090490612cd7565b80601f016020809104026020016040519081016040528092919081815260200182805461093090612cd7565b801561097d5780601f106109525761010080835404028352916020019161097d565b820191906000526020600020905b81548152906001019060200180831161096057829003601f168201915b5050505050815260200160048201805461099690612cd7565b80601f01602080910402602001604051908101604052809291908181526020018280546109c290612cd7565b8015610a0f5780601f106109e457610100808354040283529160200191610a0f565b820191906000526020600020905b8154815290600101906020018083116109f257829003601f168201915b50505050508152602001600582018054610a2890612cd7565b80601f0160208091040260200160405190810160405280929190818152602001828054610a5490612cd7565b8015610aa15780601f10610a7657610100808354040283529160200191610aa1565b820191906000526020600020905b815481529060010190602001808311610a8457829003601f168201915b50505050508152602001600682018054610aba90612cd7565b80601f0160208091040260200160405190810160405280929190818152602001828054610ae690612cd7565b8015610b335780601f10610b0857610100808354040283529160200191610b33565b820191906000526020600020905b815481529060010190602001808311610b1657829003601f168201915b5050505050815260200160078201548152505090508092505050919050565b60606000606960003373ffffffffffffffffffffffffffffffffffffffff1673ffffffffffffffffffffffffffffffffffffffff1681526020019081526020016000208054905090506000606780549050905060008267ffffffffffffffff811115610be7577f4e487b7100000000000000000000000000000000000000000000000000000000600052604160045260246000fd5b604051908082528060200260200182016040528015610c2057816020015b610c0d611d77565b815260200190600190039081610c055790505b5090506000805b83811015610e79573373ffffffffffffffffffffffffffffffffffffffff1660678281548110610c80577f4e487b7100000000000000000000000000000000000000000000000000000000600052603260045260246000fd5b906000526020600020906003020160010160009054906101000a900473ffffffffffffffffffffffffffffffffffffffff1673ffffffffffffffffffffffffffffffffffffffff161415610e665760678181548110610d08577f4e487b7100000000000000000000000000000000000000000000000000000000600052603260045260246000fd5b9060005260206000209060030201604051806060016040529081600082015481526020016001820160009054906101000a900473ffffffffffffffffffffffffffffffffffffffff1673ffffffffffffffffffffffffffffffffffffffff1673ffffffffffffffffffffffffffffffffffffffff168152602001600282018054610d9190612cd7565b80601f0160208091040260200160405190810160405280929190818152602001828054610dbd90612cd7565b8015610e0a5780601f10610ddf57610100808354040283529160200191610e0a565b820191906000526020600020905b815481529060010190602001808311610ded57829003601f168201915b505050505081525050838381518110610e4c577f4e487b7100000000000000000000000000000000000000000000000000000000600052603260045260246000fd5b60200260200101819052508180610e6290612d3a565b9250505b8080610e7190612d3a565b915050610c27565b508194505050505090565b60606000606780549050905060008167ffffffffffffffff811115610ed2577f4e487b7100000000000000000000000000000000000000000000000000000000600052604160045260246000fd5b604051908082528060200260200182016040528015610f0b57816020015b610ef8611d77565b815260200190600190039081610ef05790505b5090506067805480602002602001604051908101604052809291908181526020016000905b828210156110545783829060005260206000209060030201604051806060016040529081600082015481526020016001820160009054906101000a900473ffffffffffffffffffffffffffffffffffffffff1673ffffffffffffffffffffffffffffffffffffffff1673ffffffffffffffffffffffffffffffffffffffff168152602001600282018054610fc390612cd7565b80601f0160208091040260200160405190810160405280929190818152602001828054610fef90612cd7565b801561103c5780601f106110115761010080835404028352916020019161103c565b820191906000526020600020905b81548152906001019060200180831161101f57829003601f168201915b50505050508152505081526020019060010190610f30565b505050509050809250505090565b60606000606880549050905060008167ffffffffffffffff8111156110b0577f4e487b7100000000000000000000000000000000000000000000000000000000600052604160045260246000fd5b6040519080825280602002602001820160405280156110e957816020015b6110d6611d2f565b8152602001906001900390816110ce5790505b5090506068805480602002602001604051908101604052809291908181526020016000905b82821015611439578382906000526020600020906008020160405180610100016040529081600082015481526020016001820154815260200160028201805461115690612cd7565b80601f016020809104026020016040519081016040528092919081815260200182805461118290612cd7565b80156111cf5780601f106111a4576101008083540402835291602001916111cf565b820191906000526020600020905b8154815290600101906020018083116111b257829003601f168201915b505050505081526020016003820180546111e890612cd7565b80601f016020809104026020016040519081016040528092919081815260200182805461121490612cd7565b80156112615780601f1061123657610100808354040283529160200191611261565b820191906000526020600020905b81548152906001019060200180831161124457829003601f168201915b5050505050815260200160048201805461127a90612cd7565b80601f01602080910402602001604051908101604052809291908181526020018280546112a690612cd7565b80156112f35780601f106112c8576101008083540402835291602001916112f3565b820191906000526020600020905b8154815290600101906020018083116112d657829003601f168201915b5050505050815260200160058201805461130c90612cd7565b80601f016020809104026020016040519081016040528092919081815260200182805461133890612cd7565b80156113855780601f1061135a57610100808354040283529160200191611385565b820191906000526020600020905b81548152906001019060200180831161136857829003601f168201915b5050505050815260200160068201805461139e90612cd7565b80601f01602080910402602001604051908101604052809291908181526020018280546113ca90612cd7565b80156114175780601f106113ec57610100808354040283529160200191611417565b820191906000526020600020905b8154815290600101906020018083116113fa57829003601f168201915b505050505081526020016007820154815250508152602001906001019061110e565b505050509050809250505090565b60006114536066611cb8565b9050606760405180606001604052808381526020013373ffffffffffffffffffffffffffffffffffffffff1681526020018481525090806001815401808255809150506001900390600052602060002090600302016000909190919091506000820151816000015560208201518160010160006101000a81548173ffffffffffffffffffffffffffffffffffffffff021916908373ffffffffffffffffffffffffffffffffffffffff160217905550604082015181600201908051906020019061151e929190611dae565b505050606960003373ffffffffffffffffffffffffffffffffffffffff1673ffffffffffffffffffffffffffffffffffffffff1681526020019081526020016000208190806001815401808255809150506001900390600052602060002001600090919091909150556115916066611ca2565b3373ffffffffffffffffffffffffffffffffffffffff167f8fd7975dffff2a53bfe748adb09eacd0516344fb3db49dad60069d8b91c63654826040516115d79190612a12565b60405180910390a25050565b60008083905060008180519060200120905060006001856116049190612bf0565b905060008260688381548110611643577f4e487b7100000000000000000000000000000000000000000000000000000000600052603260045260246000fd5b9060005260206000209060080201600701541490508094505050505092915050565b6000805b606960003373ffffffffffffffffffffffffffffffffffffffff1673ffffffffffffffffffffffffffffffffffffffff168152602001908152602001600020805490508110156117545789606960003373ffffffffffffffffffffffffffffffffffffffff1673ffffffffffffffffffffffffffffffffffffffff168152602001908152602001600020828154811061172b577f4e487b7100000000000000000000000000000000000000000000000000000000600052603260045260246000fd5b9060005260206000200154141561174157600191505b808061174c90612d3a565b915050611669565b5080611795576040517f08c379a000000000000000000000000000000000000000000000000000000000815260040161178c90612950565b60405180910390fd5b60006117a16065611cb8565b905060008480519060200120905060686040518061010001604052808481526020018d81526020018c81526020018b81526020018a815260200189815260200188815260200183815250908060018154018082558091505060019003906000526020600020906008020160009091909190915060008201518160000155602082015181600101556040820151816002019080519060200190611844929190611dae565b506060820151816003019080519060200190611861929190611dae565b50608082015181600401908051906020019061187e929190611dae565b5060a082015181600501908051906020019061189b929190611dae565b5060c08201518160060190805190602001906118b8929190611dae565b5060e0820151816007015550506000606f60009054906101000a900473ffffffffffffffffffffffffffffffffffffffff1690508073ffffffffffffffffffffffffffffffffffffffff16634e5fcfbc84876040518363ffffffff1660e01b8152600401611927929190612a2d565b600060405180830381600087803b15801561194157600080fd5b505af1158015611955573d6000803e3d6000fd5b50505050606d60008d81526020019081526020016000208390806001815401808255809150506001900390600052602060002001600090919091909150558b606e6000858152602001908152602001600020819055506119b56065611ca2565b505050505050505050505050565b6119cb611ae2565b600073ffffffffffffffffffffffffffffffffffffffff168173ffffffffffffffffffffffffffffffffffffffff161415611a3b576040517f08c379a0000000000000000000000000000000000000000000000000000000008152600401611a3290612930565b60405180910390fd5b611a4481611b60565b50565b60606000606c60003373ffffffffffffffffffffffffffffffffffffffff1673ffffffffffffffffffffffffffffffffffffffff168152602001908152602001600020805480602002602001604051908101604052809291908181526020018280548015611ad457602002820191906000526020600020905b815481526020019060010190808311611ac0575b505050505090508091505090565b611aea611cc6565b73ffffffffffffffffffffffffffffffffffffffff16611b086107b5565b73ffffffffffffffffffffffffffffffffffffffff1614611b5e576040517f08c379a0000000000000000000000000000000000000000000000000000000008152600401611b5590612990565b60405180910390fd5b565b6000603360009054906101000a900473ffffffffffffffffffffffffffffffffffffffff16905081603360006101000a81548173ffffffffffffffffffffffffffffffffffffffff021916908373ffffffffffffffffffffffffffffffffffffffff1602179055508173ffffffffffffffffffffffffffffffffffffffff168173ffffffffffffffffffffffffffffffffffffffff167f8be0079c531659141344cd1fd0a4f28419497f9722a3daafe3b4186f6b6457e060405160405180910390a35050565b6000808273ffffffffffffffffffffffffffffffffffffffff163b119050919050565b600060019054906101000a900460ff16611c98576040517f08c379a0000000000000000000000000000000000000000000000000000000008152600401611c8f906129d0565b60405180910390fd5b611ca0611cce565b565b6001816000016000828254019250508190555050565b600081600001549050919050565b600033905090565b600060019054906101000a900460ff16611d1d576040517f08c379a0000000000000000000000000000000000000000000000000000000008152600401611d14906129d0565b60405180910390fd5b611d2d611d28611cc6565b611b60565b565b60405180610100016040528060008152602001600081526020016060815260200160608152602001606081526020016060815260200160608152602001600080191681525090565b604051806060016040528060008152602001600073ffffffffffffffffffffffffffffffffffffffff168152602001606081525090565b828054611dba90612cd7565b90600052602060002090601f016020900481019282611ddc5760008555611e23565b82601f10611df557805160ff1916838001178555611e23565b82800160010185558215611e23579182015b82811115611e22578251825591602001919060010190611e07565b5b509050611e309190611e34565b5090565b5b80821115611e4d576000816000905550600101611e35565b5090565b6000611e64611e5f84612a82565b612a5d565b90508083825260208201905082856020860282011115611e8357600080fd5b60005b85811015611ecd57813567ffffffffffffffff811115611ea557600080fd5b808601611eb28982611f7e565b85526020850194506020840193505050600181019050611e86565b5050509392505050565b6000611eea611ee584612aae565b612a5d565b905082815260208101848484011115611f0257600080fd5b611f0d848285612c95565b509392505050565b600081359050611f2481612f89565b92915050565b600082601f830112611f3b57600080fd5b8135611f4b848260208601611e51565b91505092915050565b600082601f830112611f6557600080fd5b8135611f75848260208601611ed7565b91505092915050565b600060408284031215611f9057600080fd5b611f9a6040612a5d565b9050600082013567ffffffffffffffff811115611fb657600080fd5b611fc284828501611f54565b6000830152506020611fd684828501611fe2565b60208301525092915050565b600081359050611ff181612fa0565b92915050565b60006020828403121561200957600080fd5b600061201784828501611f15565b91505092915050565b6000806040838503121561203357600080fd5b600061204185828601611f15565b925050602061205285828601611fe2565b9150509250929050565b60006020828403121561206e57600080fd5b600082013567ffffffffffffffff81111561208857600080fd5b61209484828501611f54565b91505092915050565b600080604083850312156120b057600080fd5b600083013567ffffffffffffffff8111156120ca57600080fd5b6120d685828601611f54565b92505060206120e785828601611fe2565b9150509250929050565b60006020828403121561210357600080fd5b600061211184828501611fe2565b91505092915050565b600080600080600080600080610100898b03121561213757600080fd5b60006121458b828c01611fe2565b985050602089013567ffffffffffffffff81111561216257600080fd5b61216e8b828c01611f54565b975050604089013567ffffffffffffffff81111561218b57600080fd5b6121978b828c01611f54565b965050606089013567ffffffffffffffff8111156121b457600080fd5b6121c08b828c01611f54565b955050608089013567ffffffffffffffff8111156121dd57600080fd5b6121e98b828c01611f54565b94505060a089013567ffffffffffffffff81111561220657600080fd5b6122128b828c01611f54565b93505060c089013567ffffffffffffffff81111561222f57600080fd5b61223b8b828c01611f54565b92505060e089013567ffffffffffffffff81111561225857600080fd5b6122648b828c01611f2a565b9150509295985092959890939650565b60006122808383612614565b905092915050565b600061229483836127ac565b905092915050565b60006122a883836127fc565b905092915050565b60006122bc8383612839565b60208301905092915050565b6122d181612c24565b82525050565b6122e081612c24565b82525050565b60006122f182612b1f565b6122fb8185612b8a565b93508360208202850161230d85612adf565b8060005b85811015612349578484038952815161232a8582612274565b945061233583612b56565b925060208a01995050600181019050612311565b50829750879550505050505092915050565b600061236682612b2a565b6123708185612b9b565b93508360208202850161238285612aef565b8060005b858110156123be578484038952815161239f8582612288565b94506123aa83612b63565b925060208a01995050600181019050612386565b50829750879550505050505092915050565b60006123db82612b35565b6123e58185612bac565b9350836020820285016123f785612aff565b8060005b858110156124335784840389528151612414858261229c565b945061241f83612b70565b925060208a019950506001810190506123fb565b50829750879550505050505092915050565b600061245082612b40565b61245a8185612bbd565b935061246583612b0f565b8060005b8381101561249657815161247d88826122b0565b975061248883612b7d565b925050600181019050612469565b5085935050505092915050565b6124ac81612c36565b82525050565b6124bb81612c42565b82525050565b6124ca81612c83565b82525050565b60006124db82612b4b565b6124e58185612bce565b93506124f5818560208601612ca4565b6124fe81612e10565b840191505092915050565b600061251482612b4b565b61251e8185612bdf565b935061252e818560208601612ca4565b61253781612e10565b840191505092915050565b600061254f602683612bdf565b915061255a82612e21565b604082019050919050565b6000612572601783612bdf565b915061257d82612e70565b602082019050919050565b6000612595602e83612bdf565b91506125a082612e99565b604082019050919050565b60006125b8602083612bdf565b91506125c382612ee8565b602082019050919050565b60006125db601983612bdf565b91506125e682612f11565b602082019050919050565b60006125fe602b83612bdf565b915061260982612f3a565b604082019050919050565b60006101008301600083015161262d6000860182612839565b5060208301516126406020860182612839565b506040830151848203604086015261265882826124d0565b9150506060830151848203606086015261267282826124d0565b9150506080830151848203608086015261268c82826124d0565b91505060a083015184820360a08601526126a682826124d0565b91505060c083015184820360c08601526126c082826124d0565b91505060e08301516126d560e08601826124b2565b508091505092915050565b6000610100830160008301516126f96000860182612839565b50602083015161270c6020860182612839565b506040830151848203604086015261272482826124d0565b9150506060830151848203606086015261273e82826124d0565b9150506080830151848203608086015261275882826124d0565b91505060a083015184820360a086015261277282826124d0565b91505060c083015184820360c086015261278c82826124d0565b91505060e08301516127a160e08601826124b2565b508091505092915050565b60006060830160008301516127c46000860182612839565b5060208301516127d760208601826122c8565b50604083015184820360408601526127ef82826124d0565b9150508091505092915050565b6000604083016000830151848203600086015261281982826124d0565b915050602083015161282e6020860182612839565b508091505092915050565b61284281612c6c565b82525050565b61285181612c6c565b82525050565b600060208201905061286c60008301846122d7565b92915050565b6000602082019050818103600083015261288c81846122e6565b905092915050565b600060208201905081810360008301526128ae818461235b565b905092915050565b600060208201905081810360008301526128d08184612445565b905092915050565b60006020820190506128ed60008301846124a3565b92915050565b600060208201905061290860008301846124c1565b92915050565b600060208201905081810360008301526129288184612509565b905092915050565b6000602082019050818103600083015261294981612542565b9050919050565b6000602082019050818103600083015261296981612565565b9050919050565b6000602082019050818103600083015261298981612588565b9050919050565b600060208201905081810360008301526129a9816125ab565b9050919050565b600060208201905081810360008301526129c9816125ce565b9050919050565b600060208201905081810360008301526129e9816125f1565b9050919050565b60006020820190508181036000830152612a0a81846126e0565b905092915050565b6000602082019050612a276000830184612848565b92915050565b6000604082019050612a426000830185612848565b8181036020830152612a5481846123d0565b90509392505050565b6000612a67612a78565b9050612a738282612d09565b919050565b6000604051905090565b600067ffffffffffffffff821115612a9d57612a9c612de1565b5b602082029050602081019050919050565b600067ffffffffffffffff821115612ac957612ac8612de1565b5b612ad282612e10565b9050602081019050919050565b6000819050602082019050919050565b6000819050602082019050919050565b6000819050602082019050919050565b6000819050602082019050919050565b600081519050919050565b600081519050919050565b600081519050919050565b600081519050919050565b600081519050919050565b6000602082019050919050565b6000602082019050919050565b6000602082019050919050565b6000602082019050919050565b600082825260208201905092915050565b600082825260208201905092915050565b600082825260208201905092915050565b600082825260208201905092915050565b600082825260208201905092915050565b600082825260208201905092915050565b6000612bfb82612c6c565b9150612c0683612c6c565b925082821015612c1957612c18612d83565b5b828203905092915050565b6000612c2f82612c4c565b9050919050565b60008115159050919050565b6000819050919050565b600073ffffffffffffffffffffffffffffffffffffffff82169050919050565b6000819050919050565b600060ff82169050919050565b6000612c8e82612c76565b9050919050565b82818337600083830152505050565b60005b83811015612cc2578082015181840152602081019050612ca7565b83811115612cd1576000848401525b50505050565b60006002820490506001821680612cef57607f821691505b60208210811415612d0357612d02612db2565b5b50919050565b612d1282612e10565b810181811067ffffffffffffffff82111715612d3157612d30612de1565b5b80604052505050565b6000612d4582612c6c565b91507fffffffffffffffffffffffffffffffffffffffffffffffffffffffffffffffff821415612d7857612d77612d83565b5b600182019050919050565b7f4e487b7100000000000000000000000000000000000000000000000000000000600052601160045260246000fd5b7f4e487b7100000000000000000000000000000000000000000000000000000000600052602260045260246000fd5b7f4e487b7100000000000000000000000000000000000000000000000000000000600052604160045260246000fd5b6000601f19601f8301169050919050565b7f4f776e61626c653a206e6577206f776e657220697320746865207a65726f206160008201527f6464726573730000000000000000000000000000000000000000000000000000602082015250565b7f596f7520617265206e6f742067726f7570206f776e6572000000000000000000600082015250565b7f496e697469616c697a61626c653a20636f6e747261637420697320616c72656160008201527f647920696e697469616c697a6564000000000000000000000000000000000000602082015250565b7f4f776e61626c653a2063616c6c6572206973206e6f7420746865206f776e6572600082015250565b7f6d696e74206e6674206164647265737320697320626c616e6b00000000000000600082015250565b7f496e697469616c697a61626c653a20636f6e7472616374206973206e6f74206960008201527f6e697469616c697a696e67000000000000000000000000000000000000000000602082015250565b612f9281612c24565b8114612f9d57600080fd5b50565b612fa981612c6c565b8114612fb457600080fd5b5056fea264697066735822122036bc5f08f644436ee5766b57150d575b67f25347a281d3db5fabbeeac1992a5264736f6c63430008040033",
  "linkReferences": {},
  "deployedLinkReferences": {}
}