{
  "_format": "hh-sol-artifact-1",
  "contractName": "EventManager",
  "sourceName": "contracts/Event.sol",
  "abi": [
    {
      "anonymous": false,
      "inputs": [
        {
          "indexed": true,
          "internalType": "address",
          "name": "owner",
          "type": "address"
        },
        {
          "indexed": false,
          "internalType": "uint256",
          "name": "eventId",
          "type": "uint256"
        }
      ],
      "name": "CreateEvent",
      "type": "event"
    },
    {
      "anonymous": false,
      "inputs": [
        {
          "indexed": true,
          "internalType": "address",
          "name": "owner",
          "type": "address"
        },
        {
          "indexed": false,
          "internalType": "uint256",
          "name": "groupId",
          "type": "uint256"
        }
      ],
      "name": "CreateGroup",
      "type": "event"
    },
    {
      "anonymous": false,
      "inputs": [
        {
          "indexed": false,
          "internalType": "uint8",
          "name": "version",
          "type": "uint8"
        }
      ],
      "name": "Initialized",
      "type": "event"
    },
    {
      "anonymous": false,
      "inputs": [
        {
          "indexed": true,
          "internalType": "address",
          "name": "previousOwner",
          "type": "address"
        },
        {
          "indexed": true,
          "internalType": "address",
          "name": "newOwner",
          "type": "address"
        }
      ],
      "name": "OwnershipTransferred",
      "type": "event"
    },
    {
      "inputs": [
        {
          "internalType": "uint256",
          "name": "_groupId",
          "type": "uint256"
        },
        {
          "internalType": "string",
          "name": "_name",
          "type": "string"
        },
        {
          "internalType": "string",
          "name": "_description",
          "type": "string"
        },
        {
          "internalType": "string",
          "name": "_date",
          "type": "string"
        },
        {
          "internalType": "uint256",
          "name": "_mintLimit",
          "type": "uint256"
        },
        {
          "internalType": "bool",
          "name": "_useMtx",
          "type": "bool"
        },
        {
          "internalType": "bytes32",
          "name": "_secretPhrase",
          "type": "bytes32"
        },
        {
          "components": [
            {
              "internalType": "string",
              "name": "metaDataURL",
              "type": "string"
            },
            {
              "internalType": "uint256",
              "name": "requiredParticipateCount",
              "type": "uint256"
            }
          ],
          "internalType": "struct IMintNFT.NFTAttribute[]",
          "name": "_eventNFTAttributes",
          "type": "tuple[]"
        }
      ],
      "name": "createEventRecord",
      "outputs": [],
      "stateMutability": "payable",
      "type": "function"
    },
    {
      "inputs": [
        {
          "internalType": "string",
          "name": "_name",
          "type": "string"
        }
      ],
      "name": "createGroup",
      "outputs": [],
      "stateMutability": "nonpayable",
      "type": "function"
    },
    {
      "inputs": [
        {
          "internalType": "uint256",
          "name": "_eventId",
          "type": "uint256"
        }
      ],
      "name": "getEventById",
      "outputs": [
        {
          "components": [
            {
              "internalType": "uint256",
              "name": "eventRecordId",
              "type": "uint256"
            },
            {
              "internalType": "uint256",
              "name": "groupId",
              "type": "uint256"
            },
            {
              "internalType": "string",
              "name": "name",
              "type": "string"
            },
            {
              "internalType": "string",
              "name": "description",
              "type": "string"
            },
            {
              "internalType": "string",
              "name": "date",
              "type": "string"
            },
            {
              "internalType": "bool",
              "name": "useMtx",
              "type": "bool"
            }
          ],
          "internalType": "struct EventManager.EventRecord",
          "name": "",
          "type": "tuple"
        }
      ],
      "stateMutability": "view",
      "type": "function"
    },
    {
      "inputs": [],
      "name": "getEventRecordCount",
      "outputs": [
        {
          "internalType": "uint256",
          "name": "",
          "type": "uint256"
        }
      ],
      "stateMutability": "view",
      "type": "function"
    },
    {
      "inputs": [
        {
          "internalType": "uint256",
          "name": "_limit",
          "type": "uint256"
        },
        {
          "internalType": "uint256",
          "name": "_offset",
          "type": "uint256"
        }
      ],
      "name": "getEventRecords",
      "outputs": [
        {
          "components": [
            {
              "internalType": "uint256",
              "name": "eventRecordId",
              "type": "uint256"
            },
            {
              "internalType": "uint256",
              "name": "groupId",
              "type": "uint256"
            },
            {
              "internalType": "string",
              "name": "name",
              "type": "string"
            },
            {
              "internalType": "string",
              "name": "description",
              "type": "string"
            },
            {
              "internalType": "string",
              "name": "date",
              "type": "string"
            },
            {
              "internalType": "bool",
              "name": "useMtx",
              "type": "bool"
            }
          ],
          "internalType": "struct EventManager.EventRecord[]",
          "name": "",
          "type": "tuple[]"
        }
      ],
      "stateMutability": "view",
      "type": "function"
    },
    {
      "inputs": [
        {
          "internalType": "uint256",
          "name": "_groupId",
          "type": "uint256"
        }
      ],
      "name": "getEventRecordsByGroupId",
      "outputs": [
        {
          "components": [
            {
              "internalType": "uint256",
              "name": "eventRecordId",
              "type": "uint256"
            },
            {
              "internalType": "uint256",
              "name": "groupId",
              "type": "uint256"
            },
            {
              "internalType": "string",
              "name": "name",
              "type": "string"
            },
            {
              "internalType": "string",
              "name": "description",
              "type": "string"
            },
            {
              "internalType": "string",
              "name": "date",
              "type": "string"
            },
            {
              "internalType": "bool",
              "name": "useMtx",
              "type": "bool"
            }
          ],
          "internalType": "struct EventManager.EventRecord[]",
          "name": "",
          "type": "tuple[]"
        }
      ],
      "stateMutability": "view",
      "type": "function"
    },
    {
      "inputs": [],
      "name": "getGroups",
      "outputs": [
        {
          "components": [
            {
              "internalType": "uint256",
              "name": "groupId",
              "type": "uint256"
            },
            {
              "internalType": "address",
              "name": "ownerAddress",
              "type": "address"
            },
            {
              "internalType": "string",
              "name": "name",
              "type": "string"
            }
          ],
          "internalType": "struct EventManager.Group[]",
          "name": "",
          "type": "tuple[]"
        }
      ],
      "stateMutability": "view",
      "type": "function"
    },
    {
      "inputs": [
        {
          "internalType": "address",
          "name": "_address",
          "type": "address"
        }
      ],
      "name": "getOwnGroups",
      "outputs": [
        {
          "components": [
            {
              "internalType": "uint256",
              "name": "groupId",
              "type": "uint256"
            },
            {
              "internalType": "address",
              "name": "ownerAddress",
              "type": "address"
            },
            {
              "internalType": "string",
              "name": "name",
              "type": "string"
            }
          ],
          "internalType": "struct EventManager.Group[]",
          "name": "",
          "type": "tuple[]"
        }
      ],
      "stateMutability": "view",
      "type": "function"
    },
    {
      "inputs": [
        {
          "internalType": "address",
          "name": "_relayerAddr",
          "type": "address"
        },
        {
          "internalType": "uint256",
          "name": "_mtxPrice",
          "type": "uint256"
        },
        {
          "internalType": "uint256",
          "name": "_maxMintLimit",
          "type": "uint256"
        }
      ],
      "name": "initialize",
      "outputs": [],
      "stateMutability": "nonpayable",
      "type": "function"
    },
    {
      "inputs": [
        {
          "internalType": "address",
          "name": "_address",
          "type": "address"
        },
        {
          "internalType": "uint256",
          "name": "_eventId",
          "type": "uint256"
        }
      ],
      "name": "isGroupOwnerByEventId",
      "outputs": [
        {
          "internalType": "bool",
          "name": "",
          "type": "bool"
        }
      ],
      "stateMutability": "view",
      "type": "function"
    },
    {
      "inputs": [],
      "name": "owner",
      "outputs": [
        {
          "internalType": "address",
          "name": "",
          "type": "address"
        }
      ],
      "stateMutability": "view",
      "type": "function"
    },
    {
      "inputs": [],
      "name": "renounceOwnership",
      "outputs": [],
      "stateMutability": "nonpayable",
      "type": "function"
    },
    {
      "inputs": [
        {
          "internalType": "uint256",
          "name": "_mintLimit",
          "type": "uint256"
        }
      ],
      "name": "setMaxMintLimit",
      "outputs": [],
      "stateMutability": "nonpayable",
      "type": "function"
    },
    {
      "inputs": [
        {
          "internalType": "address",
          "name": "_mintNftAddr",
          "type": "address"
        }
      ],
      "name": "setMintNFTAddr",
      "outputs": [],
      "stateMutability": "nonpayable",
      "type": "function"
    },
    {
      "inputs": [
        {
          "internalType": "uint256",
          "name": "_price",
          "type": "uint256"
        }
      ],
      "name": "setMtxPrice",
      "outputs": [],
      "stateMutability": "nonpayable",
      "type": "function"
    },
    {
      "inputs": [
        {
          "internalType": "address",
          "name": "_relayerAddr",
          "type": "address"
        }
      ],
      "name": "setRelayerAddr",
      "outputs": [],
      "stateMutability": "nonpayable",
      "type": "function"
    },
    {
      "inputs": [
        {
          "internalType": "address",
          "name": "newOwner",
          "type": "address"
        }
      ],
      "name": "transferOwnership",
      "outputs": [],
      "stateMutability": "nonpayable",
      "type": "function"
    }
  ],
  "bytecode": "0x608060405234801561001057600080fd5b5061358d806100206000396000f3fe6080604052600436106100fe5760003560e01c80638da5cb5b11610095578063d96c2c3a11610064578063d96c2c3a14610324578063dc2ddcae1461034f578063f2fde38b14610378578063f5620823146103a1578063f926b50c146103de576100fe565b80638da5cb5b146102545780638f184bea1461027f578063b98079bc146102bc578063c72b5176146102f9576100fe565b80636b1f7622116100d15780636b1f7622146101cf578063715018a6146101f857806374c4b95d1461020f5780637a1ac61e1461022b576100fe565b80631847482a146101035780631ac30e631461014057806337c81cd714610169578063398121a614610192575b600080fd5b34801561010f57600080fd5b5061012a60048036038101906101259190612118565b610407565b6040516101379190612173565b60405180910390f35b34801561014c57600080fd5b506101676004803603810190610162919061218e565b6104f5565b005b34801561017557600080fd5b50610190600480360381019061018b919061218e565b6105b1565b005b34801561019e57600080fd5b506101b960048036038101906101b491906121bb565b61066d565b6040516101c6919061240b565b60405180910390f35b3480156101db57600080fd5b506101f660048036038101906101f1919061242d565b610a2f565b005b34801561020457600080fd5b5061020d610a41565b005b6102296004803603810190610224919061274d565b610a55565b005b34801561023757600080fd5b50610252600480360381019061024d9190612873565b610f2d565b005b34801561026057600080fd5b5061026961109d565b60405161027691906128d5565b60405180910390f35b34801561028b57600080fd5b506102a660048036038101906102a1919061218e565b6110c7565b6040516102b39190612a11565b60405180910390f35b3480156102c857600080fd5b506102e360048036038101906102de919061242d565b611363565b6040516102f09190612aca565b60405180910390f35b34801561030557600080fd5b5061030e61159c565b60405161031b9190612a11565b60405180910390f35b34801561033057600080fd5b50610339611754565b6040516103469190612afb565b60405180910390f35b34801561035b57600080fd5b5061037660048036038101906103719190612b16565b611761565b005b34801561038457600080fd5b5061039f600480360381019061039a919061218e565b6118fd565b005b3480156103ad57600080fd5b506103c860048036038101906103c3919061242d565b611981565b6040516103d5919061240b565b60405180910390f35b3480156103ea57600080fd5b506104056004803603810190610400919061242d565b611cbb565b005b600080606b60008481526020019081526020016000205490506000805b606960008773ffffffffffffffffffffffffffffffffffffffff1673ffffffffffffffffffffffffffffffffffffffff168152602001908152602001600020805490508110156104e95782606960008873ffffffffffffffffffffffffffffffffffffffff1673ffffffffffffffffffffffffffffffffffffffff16815260200190815260200160002082815481106104c0576104bf612b5f565b5b906000526020600020015414156104d657600191505b80806104e190612bbd565b915050610424565b50809250505092915050565b6104fd611d11565b600073ffffffffffffffffffffffffffffffffffffffff168173ffffffffffffffffffffffffffffffffffffffff16141561056d576040517f08c379a000000000000000000000000000000000000000000000000000000000815260040161056490612c63565b60405180910390fd5b80606c60006101000a81548173ffffffffffffffffffffffffffffffffffffffff021916908373ffffffffffffffffffffffffffffffffffffffff16021790555050565b6105b9611d11565b600073ffffffffffffffffffffffffffffffffffffffff168173ffffffffffffffffffffffffffffffffffffffff161415610629576040517f08c379a000000000000000000000000000000000000000000000000000000000815260040161062090612ccf565b60405180910390fd5b80606d60006101000a81548173ffffffffffffffffffffffffffffffffffffffff021916908373ffffffffffffffffffffffffffffffffffffffff16021790555050565b606060006068805490509050600084141561068757606493505b60648411156106cb576040517f08c379a00000000000000000000000000000000000000000000000000000000081526004016106c290612d3b565b60405180910390fd5b8083111561070e576040517f08c379a000000000000000000000000000000000000000000000000000000000815260040161070590612da7565b60405180910390fd5b80838561071b9190612dc7565b111561073057828161072d9190612e1d565b93505b60008467ffffffffffffffff81111561074c5761074b612464565b5b60405190808252806020026020018201604052801561078557816020015b610772611f5e565b81526020019060019003908161076a5790505b50905060005b85811015610a23576000600182876107a39190612dc7565b6107ad9190612dc7565b846107b89190612e1d565b10610a10576068600182876107cd9190612dc7565b6107d79190612dc7565b846107e29190612e1d565b815481106107f3576107f2612b5f565b5b90600052602060002090600602016040518060c0016040529081600082015481526020016001820154815260200160028201805461083090612e80565b80601f016020809104026020016040519081016040528092919081815260200182805461085c90612e80565b80156108a95780601f1061087e576101008083540402835291602001916108a9565b820191906000526020600020905b81548152906001019060200180831161088c57829003601f168201915b505050505081526020016003820180546108c290612e80565b80601f01602080910402602001604051908101604052809291908181526020018280546108ee90612e80565b801561093b5780601f106109105761010080835404028352916020019161093b565b820191906000526020600020905b81548152906001019060200180831161091e57829003601f168201915b5050505050815260200160048201805461095490612e80565b80601f016020809104026020016040519081016040528092919081815260200182805461098090612e80565b80156109cd5780601f106109a2576101008083540402835291602001916109cd565b820191906000526020600020905b8154815290600101906020018083116109b057829003601f168201915b505050505081526020016005820160009054906101000a900460ff161515151581525050828281518110610a0457610a03612b5f565b5b60200260200101819052505b8080610a1b90612bbd565b91505061078b565b50809250505092915050565b610a37611d11565b80606e8190555050565b610a49611d11565b610a536000611d8f565b565b876000805b606960003373ffffffffffffffffffffffffffffffffffffffff1673ffffffffffffffffffffffffffffffffffffffff16815260200190815260200160002080549050811015610b1f5782606960003373ffffffffffffffffffffffffffffffffffffffff1673ffffffffffffffffffffffffffffffffffffffff1681526020019081526020016000208281548110610af657610af5612b5f565b5b90600052602060002001541415610b0c57600191505b8080610b1790612bbd565b915050610a5a565b5080610b60576040517f08c379a0000000000000000000000000000000000000000000000000000000008152600401610b5790612efe565b60405180910390fd5b600086118015610b725750606f548611155b610bb1576040517f08c379a0000000000000000000000000000000000000000000000000000000008152600401610ba890612f6a565b60405180910390fd5b8415610ce8576000606e543a88610bc89190612f8a565b610bd29190612f8a565b905080341015610c17576040517f08c379a0000000000000000000000000000000000000000000000000000000008152600401610c0e90613030565b60405180910390fd5b6000606d60009054906101000a900473ffffffffffffffffffffffffffffffffffffffff1673ffffffffffffffffffffffffffffffffffffffff1634604051610c5f90613081565b60006040518083038185875af1925050503d8060008114610c9c576040519150601f19603f3d011682016040523d82523d6000602084013e610ca1565b606091505b5050905080610ce5576040517f08c379a0000000000000000000000000000000000000000000000000000000008152600401610cdc906130e2565b60405180910390fd5b50505b6000610cf46065611e55565b9050610d006065611e63565b60686040518060c001604052808381526020018d81526020018c81526020018b81526020018a8152602001881515815250908060018154018082558091505060019003906000526020600020906006020160009091909190915060008201518160000155602082015181600101556040820151816002019080519060200190610d8a929190611f96565b506060820151816003019080519060200190610da7929190611f96565b506080820151816004019080519060200190610dc4929190611f96565b5060a08201518160050160006101000a81548160ff02191690831515021790555050506000606c60009054906101000a900473ffffffffffffffffffffffffffffffffffffffff1690508073ffffffffffffffffffffffffffffffffffffffff1663ef3ad9eb838a89896040518563ffffffff1660e01b8152600401610e4d9493929190613210565b600060405180830381600087803b158015610e6757600080fd5b505af1158015610e7b573d6000803e3d6000fd5b50505050606a60008d81526020019081526020016000208290806001815401808255809150506001900390600052602060002001600090919091909150558b606b6000848152602001908152602001600020819055503373ffffffffffffffffffffffffffffffffffffffff167fffde68815858e4c88d054382adadf9d3280426c744cf9c1991303ff77afdc1e283604051610f179190612afb565b60405180910390a2505050505050505050505050565b60008060019054906101000a900460ff16159050808015610f5e5750600160008054906101000a900460ff1660ff16105b80610f8b5750610f6d30611e79565b158015610f8a5750600160008054906101000a900460ff1660ff16145b5b610fca576040517f08c379a0000000000000000000000000000000000000000000000000000000008152600401610fc1906132ce565b60405180910390fd5b60016000806101000a81548160ff021916908360ff1602179055508015611007576001600060016101000a81548160ff0219169083151502179055505b61100f611e9c565b6110196066611e63565b6110236065611e63565b61102c846105b1565b61103583610a2f565b61103e82611cbb565b80156110975760008060016101000a81548160ff0219169083151502179055507f7f26b83ff96e1f2b6a682f133852f6798a09c465da95921460cefb3847402498600160405161108e9190613340565b60405180910390a15b50505050565b6000603360009054906101000a900473ffffffffffffffffffffffffffffffffffffffff16905090565b60606000606960008473ffffffffffffffffffffffffffffffffffffffff1673ffffffffffffffffffffffffffffffffffffffff1681526020019081526020016000208054905090506000606780549050905060008267ffffffffffffffff81111561113657611135612464565b5b60405190808252806020026020018201604052801561116f57816020015b61115c61201c565b8152602001906001900390816111545790505b5090506000805b83811015611356578673ffffffffffffffffffffffffffffffffffffffff16606782815481106111a9576111a8612b5f565b5b906000526020600020906003020160010160009054906101000a900473ffffffffffffffffffffffffffffffffffffffff1673ffffffffffffffffffffffffffffffffffffffff161415611343576067818154811061120b5761120a612b5f565b5b9060005260206000209060030201604051806060016040529081600082015481526020016001820160009054906101000a900473ffffffffffffffffffffffffffffffffffffffff1673ffffffffffffffffffffffffffffffffffffffff1673ffffffffffffffffffffffffffffffffffffffff16815260200160028201805461129490612e80565b80601f01602080910402602001604051908101604052809291908181526020018280546112c090612e80565b801561130d5780601f106112e25761010080835404028352916020019161130d565b820191906000526020600020905b8154815290600101906020018083116112f057829003601f168201915b50505050508152505083838151811061132957611328612b5f565b5b6020026020010181905250818061133f90612bbd565b9250505b808061134e90612bbd565b915050611176565b5081945050505050919050565b61136b611f5e565b600060018361137a9190612e1d565b905060006068828154811061139257611391612b5f565b5b90600052602060002090600602016040518060c001604052908160008201548152602001600182015481526020016002820180546113cf90612e80565b80601f01602080910402602001604051908101604052809291908181526020018280546113fb90612e80565b80156114485780601f1061141d57610100808354040283529160200191611448565b820191906000526020600020905b81548152906001019060200180831161142b57829003601f168201915b5050505050815260200160038201805461146190612e80565b80601f016020809104026020016040519081016040528092919081815260200182805461148d90612e80565b80156114da5780601f106114af576101008083540402835291602001916114da565b820191906000526020600020905b8154815290600101906020018083116114bd57829003601f168201915b505050505081526020016004820180546114f390612e80565b80601f016020809104026020016040519081016040528092919081815260200182805461151f90612e80565b801561156c5780601f106115415761010080835404028352916020019161156c565b820191906000526020600020905b81548152906001019060200180831161154f57829003601f168201915b505050505081526020016005820160009054906101000a900460ff16151515158152505090508092505050919050565b60606000606780549050905060008167ffffffffffffffff8111156115c4576115c3612464565b5b6040519080825280602002602001820160405280156115fd57816020015b6115ea61201c565b8152602001906001900390816115e25790505b5090506067805480602002602001604051908101604052809291908181526020016000905b828210156117465783829060005260206000209060030201604051806060016040529081600082015481526020016001820160009054906101000a900473ffffffffffffffffffffffffffffffffffffffff1673ffffffffffffffffffffffffffffffffffffffff1673ffffffffffffffffffffffffffffffffffffffff1681526020016002820180546116b590612e80565b80601f01602080910402602001604051908101604052809291908181526020018280546116e190612e80565b801561172e5780601f106117035761010080835404028352916020019161172e565b820191906000526020600020905b81548152906001019060200180831161171157829003601f168201915b50505050508152505081526020019060010190611622565b505050509050809250505090565b6000606880549050905090565b600061176d6066611e55565b90506117796066611e63565b606760405180606001604052808381526020013373ffffffffffffffffffffffffffffffffffffffff1681526020018481525090806001815401808255809150506001900390600052602060002090600302016000909190919091506000820151816000015560208201518160010160006101000a81548173ffffffffffffffffffffffffffffffffffffffff021916908373ffffffffffffffffffffffffffffffffffffffff1602179055506040820151816002019080519060200190611842929190611f96565b505050606960003373ffffffffffffffffffffffffffffffffffffffff1673ffffffffffffffffffffffffffffffffffffffff1681526020019081526020016000208190806001815401808255809150506001900390600052602060002001600090919091909150553373ffffffffffffffffffffffffffffffffffffffff167f88d8a40d3d79893e13972978642d5fe29930912ee4c0b62a535815945c1d7bd0826040516118f19190612afb565b60405180910390a25050565b611905611d11565b600073ffffffffffffffffffffffffffffffffffffffff168173ffffffffffffffffffffffffffffffffffffffff161415611975576040517f08c379a000000000000000000000000000000000000000000000000000000000815260040161196c906133cd565b60405180910390fd5b61197e81611d8f565b50565b6060606a6000838152602001908152602001600020506000606a600084815260200190815260200160002080549050905060008167ffffffffffffffff8111156119ce576119cd612464565b5b604051908082528060200260200182016040528015611a0757816020015b6119f4611f5e565b8152602001906001900390816119ec5790505b50905060005b82811015611cb0576000606a600087815260200190815260200160002060018386611a389190612e1d565b611a429190612e1d565b81548110611a5357611a52612b5f565b5b906000526020600020015490506068600182611a6f9190612e1d565b81548110611a8057611a7f612b5f565b5b90600052602060002090600602016040518060c00160405290816000820154815260200160018201548152602001600282018054611abd90612e80565b80601f0160208091040260200160405190810160405280929190818152602001828054611ae990612e80565b8015611b365780601f10611b0b57610100808354040283529160200191611b36565b820191906000526020600020905b815481529060010190602001808311611b1957829003601f168201915b50505050508152602001600382018054611b4f90612e80565b80601f0160208091040260200160405190810160405280929190818152602001828054611b7b90612e80565b8015611bc85780601f10611b9d57610100808354040283529160200191611bc8565b820191906000526020600020905b815481529060010190602001808311611bab57829003601f168201915b50505050508152602001600482018054611be190612e80565b80601f0160208091040260200160405190810160405280929190818152602001828054611c0d90612e80565b8015611c5a5780601f10611c2f57610100808354040283529160200191611c5a565b820191906000526020600020905b815481529060010190602001808311611c3d57829003601f168201915b505050505081526020016005820160009054906101000a900460ff161515151581525050838381518110611c9157611c90612b5f565b5b6020026020010181905250508080611ca890612bbd565b915050611a0d565b508092505050919050565b611cc3611d11565b6000811415611d07576040517f08c379a0000000000000000000000000000000000000000000000000000000008152600401611cfe90613439565b60405180910390fd5b80606f8190555050565b611d19611ef5565b73ffffffffffffffffffffffffffffffffffffffff16611d3761109d565b73ffffffffffffffffffffffffffffffffffffffff1614611d8d576040517f08c379a0000000000000000000000000000000000000000000000000000000008152600401611d84906134a5565b60405180910390fd5b565b6000603360009054906101000a900473ffffffffffffffffffffffffffffffffffffffff16905081603360006101000a81548173ffffffffffffffffffffffffffffffffffffffff021916908373ffffffffffffffffffffffffffffffffffffffff1602179055508173ffffffffffffffffffffffffffffffffffffffff168173ffffffffffffffffffffffffffffffffffffffff167f8be0079c531659141344cd1fd0a4f28419497f9722a3daafe3b4186f6b6457e060405160405180910390a35050565b600081600001549050919050565b6001816000016000828254019250508190555050565b6000808273ffffffffffffffffffffffffffffffffffffffff163b119050919050565b600060019054906101000a900460ff16611eeb576040517f08c379a0000000000000000000000000000000000000000000000000000000008152600401611ee290613537565b60405180910390fd5b611ef3611efd565b565b600033905090565b600060019054906101000a900460ff16611f4c576040517f08c379a0000000000000000000000000000000000000000000000000000000008152600401611f4390613537565b60405180910390fd5b611f5c611f57611ef5565b611d8f565b565b6040518060c0016040528060008152602001600081526020016060815260200160608152602001606081526020016000151581525090565b828054611fa290612e80565b90600052602060002090601f016020900481019282611fc4576000855561200b565b82601f10611fdd57805160ff191683800117855561200b565b8280016001018555821561200b579182015b8281111561200a578251825591602001919060010190611fef565b5b5090506120189190612053565b5090565b604051806060016040528060008152602001600073ffffffffffffffffffffffffffffffffffffffff168152602001606081525090565b5b8082111561206c576000816000905550600101612054565b5090565b6000604051905090565b600080fd5b600080fd5b600073ffffffffffffffffffffffffffffffffffffffff82169050919050565b60006120af82612084565b9050919050565b6120bf816120a4565b81146120ca57600080fd5b50565b6000813590506120dc816120b6565b92915050565b6000819050919050565b6120f5816120e2565b811461210057600080fd5b50565b600081359050612112816120ec565b92915050565b6000806040838503121561212f5761212e61207a565b5b600061213d858286016120cd565b925050602061214e85828601612103565b9150509250929050565b60008115159050919050565b61216d81612158565b82525050565b60006020820190506121886000830184612164565b92915050565b6000602082840312156121a4576121a361207a565b5b60006121b2848285016120cd565b91505092915050565b600080604083850312156121d2576121d161207a565b5b60006121e085828601612103565b92505060206121f185828601612103565b9150509250929050565b600081519050919050565b600082825260208201905092915050565b6000819050602082019050919050565b612230816120e2565b82525050565b600081519050919050565b600082825260208201905092915050565b60005b83811015612270578082015181840152602081019050612255565b8381111561227f576000848401525b50505050565b6000601f19601f8301169050919050565b60006122a182612236565b6122ab8185612241565b93506122bb818560208601612252565b6122c481612285565b840191505092915050565b6122d881612158565b82525050565b600060c0830160008301516122f66000860182612227565b5060208301516123096020860182612227565b50604083015184820360408601526123218282612296565b9150506060830151848203606086015261233b8282612296565b915050608083015184820360808601526123558282612296565b91505060a083015161236a60a08601826122cf565b508091505092915050565b600061238183836122de565b905092915050565b6000602082019050919050565b60006123a1826121fb565b6123ab8185612206565b9350836020820285016123bd85612217565b8060005b858110156123f957848403895281516123da8582612375565b94506123e583612389565b925060208a019950506001810190506123c1565b50829750879550505050505092915050565b600060208201905081810360008301526124258184612396565b905092915050565b6000602082840312156124435761244261207a565b5b600061245184828501612103565b91505092915050565b600080fd5b600080fd5b7f4e487b7100000000000000000000000000000000000000000000000000000000600052604160045260246000fd5b61249c82612285565b810181811067ffffffffffffffff821117156124bb576124ba612464565b5b80604052505050565b60006124ce612070565b90506124da8282612493565b919050565b600067ffffffffffffffff8211156124fa576124f9612464565b5b61250382612285565b9050602081019050919050565b82818337600083830152505050565b600061253261252d846124df565b6124c4565b90508281526020810184848401111561254e5761254d61245f565b5b612559848285612510565b509392505050565b600082601f8301126125765761257561245a565b5b813561258684826020860161251f565b91505092915050565b61259881612158565b81146125a357600080fd5b50565b6000813590506125b58161258f565b92915050565b6000819050919050565b6125ce816125bb565b81146125d957600080fd5b50565b6000813590506125eb816125c5565b92915050565b600067ffffffffffffffff82111561260c5761260b612464565b5b602082029050602081019050919050565b600080fd5b600080fd5b600080fd5b60006040828403121561264257612641612622565b5b61264c60406124c4565b9050600082013567ffffffffffffffff81111561266c5761266b612627565b5b61267884828501612561565b600083015250602061268c84828501612103565b60208301525092915050565b60006126ab6126a6846125f1565b6124c4565b905080838252602082019050602084028301858111156126ce576126cd61261d565b5b835b8181101561271557803567ffffffffffffffff8111156126f3576126f261245a565b5b808601612700898261262c565b855260208501945050506020810190506126d0565b5050509392505050565b600082601f8301126127345761273361245a565b5b8135612744848260208601612698565b91505092915050565b600080600080600080600080610100898b03121561276e5761276d61207a565b5b600061277c8b828c01612103565b985050602089013567ffffffffffffffff81111561279d5761279c61207f565b5b6127a98b828c01612561565b975050604089013567ffffffffffffffff8111156127ca576127c961207f565b5b6127d68b828c01612561565b965050606089013567ffffffffffffffff8111156127f7576127f661207f565b5b6128038b828c01612561565b95505060806128148b828c01612103565b94505060a06128258b828c016125a6565b93505060c06128368b828c016125dc565b92505060e089013567ffffffffffffffff8111156128575761285661207f565b5b6128638b828c0161271f565b9150509295985092959890939650565b60008060006060848603121561288c5761288b61207a565b5b600061289a868287016120cd565b93505060206128ab86828701612103565b92505060406128bc86828701612103565b9150509250925092565b6128cf816120a4565b82525050565b60006020820190506128ea60008301846128c6565b92915050565b600081519050919050565b600082825260208201905092915050565b6000819050602082019050919050565b612925816120a4565b82525050565b60006060830160008301516129436000860182612227565b506020830151612956602086018261291c565b506040830151848203604086015261296e8282612296565b9150508091505092915050565b6000612987838361292b565b905092915050565b6000602082019050919050565b60006129a7826128f0565b6129b181856128fb565b9350836020820285016129c38561290c565b8060005b858110156129ff57848403895281516129e0858261297b565b94506129eb8361298f565b925060208a019950506001810190506129c7565b50829750879550505050505092915050565b60006020820190508181036000830152612a2b818461299c565b905092915050565b600060c083016000830151612a4b6000860182612227565b506020830151612a5e6020860182612227565b5060408301518482036040860152612a768282612296565b91505060608301518482036060860152612a908282612296565b91505060808301518482036080860152612aaa8282612296565b91505060a0830151612abf60a08601826122cf565b508091505092915050565b60006020820190508181036000830152612ae48184612a33565b905092915050565b612af5816120e2565b82525050565b6000602082019050612b106000830184612aec565b92915050565b600060208284031215612b2c57612b2b61207a565b5b600082013567ffffffffffffffff811115612b4a57612b4961207f565b5b612b5684828501612561565b91505092915050565b7f4e487b7100000000000000000000000000000000000000000000000000000000600052603260045260246000fd5b7f4e487b7100000000000000000000000000000000000000000000000000000000600052601160045260246000fd5b6000612bc8826120e2565b91507fffffffffffffffffffffffffffffffffffffffffffffffffffffffffffffffff821415612bfb57612bfa612b8e565b5b600182019050919050565b600082825260208201905092915050565b7f6d696e74206e6674206164647265737320697320626c616e6b00000000000000600082015250565b6000612c4d601983612c06565b9150612c5882612c17565b602082019050919050565b60006020820190508181036000830152612c7c81612c40565b9050919050565b7f72656c61796572206164647265737320697320626c616e6b0000000000000000600082015250565b6000612cb9601883612c06565b9150612cc482612c83565b602082019050919050565b60006020820190508181036000830152612ce881612cac565b9050919050565b7f6c696d697420697320746f6f206c617267650000000000000000000000000000600082015250565b6000612d25601283612c06565b9150612d3082612cef565b602082019050919050565b60006020820190508181036000830152612d5481612d18565b9050919050565b7f6f666673657420697320746f6f206c6172676500000000000000000000000000600082015250565b6000612d91601383612c06565b9150612d9c82612d5b565b602082019050919050565b60006020820190508181036000830152612dc081612d84565b9050919050565b6000612dd2826120e2565b9150612ddd836120e2565b9250827fffffffffffffffffffffffffffffffffffffffffffffffffffffffffffffffff03821115612e1257612e11612b8e565b5b828201905092915050565b6000612e28826120e2565b9150612e33836120e2565b925082821015612e4657612e45612b8e565b5b828203905092915050565b7f4e487b7100000000000000000000000000000000000000000000000000000000600052602260045260246000fd5b60006002820490506001821680612e9857607f821691505b60208210811415612eac57612eab612e51565b5b50919050565b7f596f7520617265206e6f742067726f7570206f776e6572000000000000000000600082015250565b6000612ee8601783612c06565b9150612ef382612eb2565b602082019050919050565b60006020820190508181036000830152612f1781612edb565b9050919050565b7f6d696e74206c696d697420697320696e76616c69640000000000000000000000600082015250565b6000612f54601583612c06565b9150612f5f82612f1e565b602082019050919050565b60006020820190508181036000830152612f8381612f47565b9050919050565b6000612f95826120e2565b9150612fa0836120e2565b9250817fffffffffffffffffffffffffffffffffffffffffffffffffffffffffffffffff0483118215151615612fd957612fd8612b8e565b5b828202905092915050565b7f4e6f7420656e6f7567682076616c756500000000000000000000000000000000600082015250565b600061301a601083612c06565b915061302582612fe4565b602082019050919050565b600060208201905081810360008301526130498161300d565b9050919050565b600081905092915050565b50565b600061306b600083613050565b91506130768261305b565b600082019050919050565b600061308c8261305e565b9150819050919050565b7f7472616e73666572206661696c65640000000000000000000000000000000000600082015250565b60006130cc600f83612c06565b91506130d782613096565b602082019050919050565b600060208201905081810360008301526130fb816130bf565b9050919050565b61310b816125bb565b82525050565b600081519050919050565b600082825260208201905092915050565b6000819050602082019050919050565b6000604083016000830151848203600086015261315a8282612296565b915050602083015161316f6020860182612227565b508091505092915050565b6000613186838361313d565b905092915050565b6000602082019050919050565b60006131a682613111565b6131b0818561311c565b9350836020820285016131c28561312d565b8060005b858110156131fe57848403895281516131df858261317a565b94506131ea8361318e565b925060208a019950506001810190506131c6565b50829750879550505050505092915050565b60006080820190506132256000830187612aec565b6132326020830186612aec565b61323f6040830185613102565b8181036060830152613251818461319b565b905095945050505050565b7f496e697469616c697a61626c653a20636f6e747261637420697320616c72656160008201527f647920696e697469616c697a6564000000000000000000000000000000000000602082015250565b60006132b8602e83612c06565b91506132c38261325c565b604082019050919050565b600060208201905081810360008301526132e7816132ab565b9050919050565b6000819050919050565b600060ff82169050919050565b6000819050919050565b600061332a613325613320846132ee565b613305565b6132f8565b9050919050565b61333a8161330f565b82525050565b60006020820190506133556000830184613331565b92915050565b7f4f776e61626c653a206e6577206f776e657220697320746865207a65726f206160008201527f6464726573730000000000000000000000000000000000000000000000000000602082015250565b60006133b7602683612c06565b91506133c28261335b565b604082019050919050565b600060208201905081810360008301526133e6816133aa565b9050919050565b7f6d696e74206c696d697420697320300000000000000000000000000000000000600082015250565b6000613423600f83612c06565b915061342e826133ed565b602082019050919050565b6000602082019050818103600083015261345281613416565b9050919050565b7f4f776e61626c653a2063616c6c6572206973206e6f7420746865206f776e6572600082015250565b600061348f602083612c06565b915061349a82613459565b602082019050919050565b600060208201905081810360008301526134be81613482565b9050919050565b7f496e697469616c697a61626c653a20636f6e7472616374206973206e6f74206960008201527f6e697469616c697a696e67000000000000000000000000000000000000000000602082015250565b6000613521602b83612c06565b915061352c826134c5565b604082019050919050565b6000602082019050818103600083015261355081613514565b905091905056fea2646970667358221220ae682761e71af5cdeb4d0dbb5a119b5a02598a367a1fcdcb22d4d8d36f223f4c64736f6c63430008090033",
  "linkReferences": {},
  "deployedLinkReferences": {}
}