{
  "_format": "hh-sol-artifact-1",
  "contractName": "EventManager",
  "sourceName": "contracts/Event.sol",
  "abi": [
    {
      "anonymous": false,
      "inputs": [
        {
          "indexed": true,
          "internalType": "address",
          "name": "owner",
          "type": "address"
        },
        {
          "indexed": false,
          "internalType": "uint256",
          "name": "eventId",
          "type": "uint256"
        }
      ],
      "name": "CreateEvent",
      "type": "event"
    },
    {
      "anonymous": false,
      "inputs": [
        {
          "indexed": true,
          "internalType": "address",
          "name": "owner",
          "type": "address"
        },
        {
          "indexed": false,
          "internalType": "uint256",
          "name": "groupId",
          "type": "uint256"
        }
      ],
      "name": "CreateGroup",
      "type": "event"
    },
    {
      "anonymous": false,
      "inputs": [
        {
          "indexed": false,
          "internalType": "uint8",
          "name": "version",
          "type": "uint8"
        }
      ],
      "name": "Initialized",
      "type": "event"
    },
    {
      "anonymous": false,
      "inputs": [
        {
          "indexed": true,
          "internalType": "address",
          "name": "previousOwner",
          "type": "address"
        },
        {
          "indexed": true,
          "internalType": "address",
          "name": "newOwner",
          "type": "address"
        }
      ],
      "name": "OwnershipTransferred",
      "type": "event"
    },
    {
      "inputs": [
        {
          "internalType": "uint256",
          "name": "_groupId",
          "type": "uint256"
        },
        {
          "internalType": "string",
          "name": "_name",
          "type": "string"
        },
        {
          "internalType": "string",
          "name": "_description",
          "type": "string"
        },
        {
          "internalType": "string",
          "name": "_date",
          "type": "string"
        },
        {
          "internalType": "uint256",
          "name": "_mintLimit",
          "type": "uint256"
        },
        {
          "internalType": "bool",
          "name": "_useMtx",
          "type": "bool"
        },
        {
          "internalType": "bytes32",
          "name": "_secretPhrase",
          "type": "bytes32"
        },
        {
          "components": [
            {
              "internalType": "string",
              "name": "metaDataURL",
              "type": "string"
            },
            {
              "internalType": "uint256",
              "name": "requiredParticipateCount",
              "type": "uint256"
            }
          ],
          "internalType": "struct IMintNFT.NFTAttribute[]",
          "name": "_eventNFTAttributes",
          "type": "tuple[]"
        }
      ],
      "name": "createEventRecord",
      "outputs": [],
      "stateMutability": "payable",
      "type": "function"
    },
    {
      "inputs": [
        {
          "internalType": "string",
          "name": "_name",
          "type": "string"
        }
      ],
      "name": "createGroup",
      "outputs": [],
      "stateMutability": "nonpayable",
      "type": "function"
    },
    {
      "inputs": [
        {
          "internalType": "uint256",
          "name": "_eventId",
          "type": "uint256"
        }
      ],
      "name": "getEventById",
      "outputs": [
        {
          "components": [
            {
              "internalType": "uint256",
              "name": "eventRecordId",
              "type": "uint256"
            },
            {
              "internalType": "uint256",
              "name": "groupId",
              "type": "uint256"
            },
            {
              "internalType": "string",
              "name": "name",
              "type": "string"
            },
            {
              "internalType": "string",
              "name": "description",
              "type": "string"
            },
            {
              "internalType": "string",
              "name": "date",
              "type": "string"
            },
            {
              "internalType": "bool",
              "name": "useMtx",
              "type": "bool"
            }
          ],
          "internalType": "struct EventManager.EventRecord",
          "name": "",
          "type": "tuple"
        }
      ],
      "stateMutability": "view",
      "type": "function"
    },
    {
      "inputs": [],
      "name": "getEventRecordCount",
      "outputs": [
        {
          "internalType": "uint256",
          "name": "",
          "type": "uint256"
        }
      ],
      "stateMutability": "view",
      "type": "function"
    },
    {
      "inputs": [
        {
          "internalType": "uint256",
          "name": "_limit",
          "type": "uint256"
        },
        {
          "internalType": "uint256",
          "name": "_offset",
          "type": "uint256"
        }
      ],
      "name": "getEventRecords",
      "outputs": [
        {
          "components": [
            {
              "internalType": "uint256",
              "name": "eventRecordId",
              "type": "uint256"
            },
            {
              "internalType": "uint256",
              "name": "groupId",
              "type": "uint256"
            },
            {
              "internalType": "string",
              "name": "name",
              "type": "string"
            },
            {
              "internalType": "string",
              "name": "description",
              "type": "string"
            },
            {
              "internalType": "string",
              "name": "date",
              "type": "string"
            },
            {
              "internalType": "bool",
              "name": "useMtx",
              "type": "bool"
            }
          ],
          "internalType": "struct EventManager.EventRecord[]",
          "name": "",
          "type": "tuple[]"
        }
      ],
      "stateMutability": "view",
      "type": "function"
    },
    {
      "inputs": [
        {
          "internalType": "uint256",
          "name": "_groupId",
          "type": "uint256"
        }
      ],
      "name": "getEventRecordsByGroupId",
      "outputs": [
        {
          "components": [
            {
              "internalType": "uint256",
              "name": "eventRecordId",
              "type": "uint256"
            },
            {
              "internalType": "uint256",
              "name": "groupId",
              "type": "uint256"
            },
            {
              "internalType": "string",
              "name": "name",
              "type": "string"
            },
            {
              "internalType": "string",
              "name": "description",
              "type": "string"
            },
            {
              "internalType": "string",
              "name": "date",
              "type": "string"
            },
            {
              "internalType": "bool",
              "name": "useMtx",
              "type": "bool"
            }
          ],
          "internalType": "struct EventManager.EventRecord[]",
          "name": "",
          "type": "tuple[]"
        }
      ],
      "stateMutability": "view",
      "type": "function"
    },
    {
      "inputs": [],
      "name": "getGroups",
      "outputs": [
        {
          "components": [
            {
              "internalType": "uint256",
              "name": "groupId",
              "type": "uint256"
            },
            {
              "internalType": "address",
              "name": "ownerAddress",
              "type": "address"
            },
            {
              "internalType": "string",
              "name": "name",
              "type": "string"
            }
          ],
          "internalType": "struct EventManager.Group[]",
          "name": "",
          "type": "tuple[]"
        }
      ],
      "stateMutability": "view",
      "type": "function"
    },
    {
      "inputs": [
        {
          "internalType": "address",
          "name": "_address",
          "type": "address"
        }
      ],
      "name": "getOwnGroups",
      "outputs": [
        {
          "components": [
            {
              "internalType": "uint256",
              "name": "groupId",
              "type": "uint256"
            },
            {
              "internalType": "address",
              "name": "ownerAddress",
              "type": "address"
            },
            {
              "internalType": "string",
              "name": "name",
              "type": "string"
            }
          ],
          "internalType": "struct EventManager.Group[]",
          "name": "",
          "type": "tuple[]"
        }
      ],
      "stateMutability": "view",
      "type": "function"
    },
    {
      "inputs": [
        {
          "internalType": "address",
          "name": "_relayerAddr",
          "type": "address"
        },
        {
          "internalType": "uint256",
          "name": "_mtxPrice",
          "type": "uint256"
        },
        {
          "internalType": "uint256",
          "name": "_maxMintLimit",
          "type": "uint256"
        }
      ],
      "name": "initialize",
      "outputs": [],
      "stateMutability": "nonpayable",
      "type": "function"
    },
    {
      "inputs": [
        {
          "internalType": "address",
          "name": "_address",
          "type": "address"
        },
        {
          "internalType": "uint256",
          "name": "_eventId",
          "type": "uint256"
        }
      ],
      "name": "isGroupOwnerByEventId",
      "outputs": [
        {
          "internalType": "bool",
          "name": "",
          "type": "bool"
        }
      ],
      "stateMutability": "view",
      "type": "function"
    },
    {
      "inputs": [],
      "name": "owner",
      "outputs": [
        {
          "internalType": "address",
          "name": "",
          "type": "address"
        }
      ],
      "stateMutability": "view",
      "type": "function"
    },
    {
      "inputs": [],
      "name": "renounceOwnership",
      "outputs": [],
      "stateMutability": "nonpayable",
      "type": "function"
    },
    {
      "inputs": [
        {
          "internalType": "uint256",
          "name": "_mintLimit",
          "type": "uint256"
        }
      ],
      "name": "setMaxMintLimit",
      "outputs": [],
      "stateMutability": "nonpayable",
      "type": "function"
    },
    {
      "inputs": [
        {
          "internalType": "address",
          "name": "_mintNftAddr",
          "type": "address"
        }
      ],
      "name": "setMintNFTAddr",
      "outputs": [],
      "stateMutability": "nonpayable",
      "type": "function"
    },
    {
      "inputs": [
        {
          "internalType": "uint256",
          "name": "_price",
          "type": "uint256"
        }
      ],
      "name": "setMtxPrice",
      "outputs": [],
      "stateMutability": "nonpayable",
      "type": "function"
    },
    {
      "inputs": [
        {
          "internalType": "address",
          "name": "_relayerAddr",
          "type": "address"
        }
      ],
      "name": "setRelayerAddr",
      "outputs": [],
      "stateMutability": "nonpayable",
      "type": "function"
    },
    {
      "inputs": [
        {
          "internalType": "address",
          "name": "newOwner",
          "type": "address"
        }
      ],
      "name": "transferOwnership",
      "outputs": [],
      "stateMutability": "nonpayable",
      "type": "function"
    }
  ],
  "bytecode": "0x608060405234801561001057600080fd5b50612205806100206000396000f3fe6080604052600436106100fe5760003560e01c80638da5cb5b11610095578063d96c2c3a11610064578063d96c2c3a146102a6578063dc2ddcae146102c4578063f2fde38b146102e4578063f562082314610304578063f926b50c1461032457600080fd5b80638da5cb5b1461020f5780638f184bea14610237578063b98079bc14610264578063c72b51761461029157600080fd5b80636b1f7622116100d15780636b1f7622146101a7578063715018a6146101c757806374c4b95d146101dc5780637a1ac61e146101ef57600080fd5b80631847482a146101035780631ac30e631461013857806337c81cd71461015a578063398121a61461017a575b600080fd5b34801561010f57600080fd5b5061012361011e366004611acc565b610344565b60405190151581526020015b60405180910390f35b34801561014457600080fd5b50610158610153366004611af6565b6103d4565b005b34801561016657600080fd5b50610158610175366004611af6565b610459565b34801561018657600080fd5b5061019a610195366004611b18565b6104d9565b60405161012f9190611bfc565b3480156101b357600080fd5b506101586101c2366004611c5e565b610872565b3480156101d357600080fd5b5061015861087f565b6101586101ea366004611e41565b610893565b3480156101fb57600080fd5b5061015861020a366004611f1c565b610cb5565b34801561021b57600080fd5b506033546040516001600160a01b03909116815260200161012f565b34801561024357600080fd5b50610257610252366004611af6565b610e00565b60405161012f9190611f4f565b34801561027057600080fd5b5061028461027f366004611c5e565b611014565b60405161012f9190611fd7565b34801561029d57600080fd5b5061025761123c565b3480156102b257600080fd5b5060685460405190815260200161012f565b3480156102d057600080fd5b506101586102df366004611fea565b6113bb565b3480156102f057600080fd5b506101586102ff366004611af6565b611513565b34801561031057600080fd5b5061019a61031f366004611c5e565b61158c565b34801561033057600080fd5b5061015861033f366004611c5e565b61188d565b6000818152606b602052604081205481805b6001600160a01b0386166000908152606960205260409020548110156103cb576001600160a01b03861660009081526069602052604090208054849190839081106103a3576103a3612027565b906000526020600020015414156103b957600191505b806103c381612053565b915050610356565b50949350505050565b6103dc6118d9565b6001600160a01b0381166104375760405162461bcd60e51b815260206004820152601960248201527f6d696e74206e6674206164647265737320697320626c616e6b0000000000000060448201526064015b60405180910390fd5b606c80546001600160a01b0319166001600160a01b0392909216919091179055565b6104616118d9565b6001600160a01b0381166104b75760405162461bcd60e51b815260206004820152601860248201527f72656c61796572206164647265737320697320626c616e6b0000000000000000604482015260640161042e565b606d80546001600160a01b0319166001600160a01b0392909216919091179055565b606854606090836104e957606493505b606484111561052f5760405162461bcd60e51b81526020600482015260126024820152716c696d697420697320746f6f206c6172676560701b604482015260640161042e565b808311156105755760405162461bcd60e51b81526020600482015260136024820152726f666673657420697320746f6f206c6172676560681b604482015260640161042e565b80610580848661206e565b1115610593576105908382612086565b93505b60008467ffffffffffffffff8111156105ae576105ae611c77565b6040519080825280602002602001820160405280156105e757816020015b6105d46119df565b8152602001906001900390816105cc5790505b50905060005b858110156103cb576000610601828761206e565b61060c90600161206e565b6106169085612086565b10610860576068610627828761206e565b61063290600161206e565b61063c9085612086565b8154811061064c5761064c612027565b90600052602060002090600602016040518060c001604052908160008201548152602001600182015481526020016002820180546106899061209d565b80601f01602080910402602001604051908101604052809291908181526020018280546106b59061209d565b80156107025780601f106106d757610100808354040283529160200191610702565b820191906000526020600020905b8154815290600101906020018083116106e557829003601f168201915b5050505050815260200160038201805461071b9061209d565b80601f01602080910402602001604051908101604052809291908181526020018280546107479061209d565b80156107945780601f1061076957610100808354040283529160200191610794565b820191906000526020600020905b81548152906001019060200180831161077757829003601f168201915b505050505081526020016004820180546107ad9061209d565b80601f01602080910402602001604051908101604052809291908181526020018280546107d99061209d565b80156108265780601f106107fb57610100808354040283529160200191610826565b820191906000526020600020905b81548152906001019060200180831161080957829003601f168201915b50505091835250506005919091015460ff161515602090910152825183908390811061085457610854612027565b60200260200101819052505b8061086a81612053565b9150506105ed565b61087a6118d9565b606e55565b6108876118d9565b6108916000611933565b565b876000805b336000908152606960205260409020548110156108fb573360009081526069602052604090208054849190839081106108d3576108d3612027565b906000526020600020015414156108e957600191505b806108f381612053565b915050610898565b50806109495760405162461bcd60e51b815260206004820152601760248201527f596f7520617265206e6f742067726f7570206f776e6572000000000000000000604482015260640161042e565b60008611801561095b5750606f548611155b61099f5760405162461bcd60e51b81526020600482015260156024820152741b5a5b9d081b1a5b5a5d081a5cc81a5b9d985b1a59605a1b604482015260640161042e565b8415610a9c57606e546000906109b53a896120d8565b6109bf91906120d8565b905080341015610a045760405162461bcd60e51b815260206004820152601060248201526f4e6f7420656e6f7567682076616c756560801b604482015260640161042e565b606d546040516000916001600160a01b03169034908381818185875af1925050503d8060008114610a51576040519150601f19603f3d011682016040523d82523d6000602084013e610a56565b606091505b5050905080610a995760405162461bcd60e51b815260206004820152600f60248201526e1d1c985b9cd9995c8819985a5b1959608a1b604482015260640161042e565b50505b6000610aa760655490565b9050610ab7606580546001019055565b6040805160c08101825282815260208082018e81529282018d8152606083018d9052608083018c905289151560a084015260688054600181018255600091909152835160069091027fa2153420d844928b4421650203c77babc8b33d7f2e7b450e2966db0c22097753810191825594517fa2153420d844928b4421650203c77babc8b33d7f2e7b450e2966db0c220977548601559051805193949193610b86937fa2153420d844928b4421650203c77babc8b33d7f2e7b450e2966db0c22097755909301929190910190611a17565b5060608201518051610ba2916003840191602090910190611a17565b5060808201518051610bbe916004840191602090910190611a17565b5060a091909101516005909101805460ff1916911515919091179055606c5460405163ef3ad9eb60e01b81526001600160a01b0390911690819063ef3ad9eb90610c129085908c908b908b906004016120f7565b600060405180830381600087803b158015610c2c57600080fd5b505af1158015610c40573d6000803e3d6000fd5b50505060008d8152606a60209081526040808320805460018101825590845282842001869055858352606b8252918290208f905590518481523392507fffde68815858e4c88d054382adadf9d3280426c744cf9c1991303ff77afdc1e2910160405180910390a2505050505050505050505050565b600054610100900460ff1615808015610cd55750600054600160ff909116105b80610cef5750303b158015610cef575060005460ff166001145b610d525760405162461bcd60e51b815260206004820152602e60248201527f496e697469616c697a61626c653a20636f6e747261637420697320616c72656160448201526d191e481a5b9a5d1a585b1a5e995960921b606482015260840161042e565b6000805460ff191660011790558015610d75576000805461ff0019166101001790555b610d7d611985565b610d8b606680546001019055565b610d99606580546001019055565b610da284610459565b610dab83610872565b610db48261188d565b8015610dfa576000805461ff0019169055604051600181527f7f26b83ff96e1f2b6a682f133852f6798a09c465da95921460cefb38474024989060200160405180910390a15b50505050565b6001600160a01b0381166000908152606960205260408120546067546060928267ffffffffffffffff811115610e3857610e38611c77565b604051908082528060200260200182016040528015610e8557816020015b60408051606080820183526000808352602083015291810191909152815260200190600190039081610e565790505b5090506000805b8381101561100957866001600160a01b031660678281548110610eb157610eb1612027565b60009182526020909120600160039092020101546001600160a01b03161415610ff75760678181548110610ee757610ee7612027565b9060005260206000209060030201604051806060016040529081600082015481526020016001820160009054906101000a90046001600160a01b03166001600160a01b03166001600160a01b03168152602001600282018054610f499061209d565b80601f0160208091040260200160405190810160405280929190818152602001828054610f759061209d565b8015610fc25780601f10610f9757610100808354040283529160200191610fc2565b820191906000526020600020905b815481529060010190602001808311610fa557829003601f168201915b505050505081525050838381518110610fdd57610fdd612027565b60200260200101819052508180610ff390612053565b9250505b8061100181612053565b915050610e8c565b509095945050505050565b61101c6119df565b6000611029600184612086565b905060006068828154811061104057611040612027565b90600052602060002090600602016040518060c0016040529081600082015481526020016001820154815260200160028201805461107d9061209d565b80601f01602080910402602001604051908101604052809291908181526020018280546110a99061209d565b80156110f65780601f106110cb576101008083540402835291602001916110f6565b820191906000526020600020905b8154815290600101906020018083116110d957829003601f168201915b5050505050815260200160038201805461110f9061209d565b80601f016020809104026020016040519081016040528092919081815260200182805461113b9061209d565b80156111885780601f1061115d57610100808354040283529160200191611188565b820191906000526020600020905b81548152906001019060200180831161116b57829003601f168201915b505050505081526020016004820180546111a19061209d565b80601f01602080910402602001604051908101604052809291908181526020018280546111cd9061209d565b801561121a5780601f106111ef5761010080835404028352916020019161121a565b820191906000526020600020905b8154815290600101906020018083116111fd57829003601f168201915b50505091835250506005919091015460ff161515602090910152949350505050565b60675460609060008167ffffffffffffffff81111561125d5761125d611c77565b6040519080825280602002602001820160405280156112aa57816020015b6040805160608082018352600080835260208301529181019190915281526020019060019003908161127b5790505b50606780546040805160208084028201810190925282815293945060009084015b828210156113af57600084815260209081902060408051606081018252600386029092018054835260018101546001600160a01b0316938301939093526002830180549293929184019161131e9061209d565b80601f016020809104026020016040519081016040528092919081815260200182805461134a9061209d565b80156113975780601f1061136c57610100808354040283529160200191611397565b820191906000526020600020905b81548152906001019060200180831161137a57829003601f168201915b505050505081525050815260200190600101906112cb565b50929695505050505050565b60006113c660665490565b90506113d6606680546001019055565b6040805160608101825282815233602080830191825292820185815260678054600181018255600091909152835160039091027f9787eeb91fe3101235e4a76063c7023ecb40f923f97916639c598592fa30d6ae810191825592517f9787eeb91fe3101235e4a76063c7023ecb40f923f97916639c598592fa30d6af840180546001600160a01b03929092166001600160a01b031990921691909117905590518051939491936114ad937f9787eeb91fe3101235e4a76063c7023ecb40f923f97916639c598592fa30d6b001929190910190611a17565b505033600081815260696020908152604080832080546001810182559084529190922001849055519091507f88d8a40d3d79893e13972978642d5fe29930912ee4c0b62a535815945c1d7bd0906115079084815260200190565b60405180910390a25050565b61151b6118d9565b6001600160a01b0381166115805760405162461bcd60e51b815260206004820152602660248201527f4f776e61626c653a206e6577206f776e657220697320746865207a65726f206160448201526564647265737360d01b606482015260840161042e565b61158981611933565b50565b6000818152606a60205260408120546060918167ffffffffffffffff8111156115b7576115b7611c77565b6040519080825280602002602001820160405280156115f057816020015b6115dd6119df565b8152602001906001900390816115d55790505b50905060005b82811015611885576000858152606a6020526040812060016116188487612086565b6116229190612086565b8154811061163257611632612027565b90600052602060002001549050606860018261164e9190612086565b8154811061165e5761165e612027565b90600052602060002090600602016040518060c0016040529081600082015481526020016001820154815260200160028201805461169b9061209d565b80601f01602080910402602001604051908101604052809291908181526020018280546116c79061209d565b80156117145780601f106116e957610100808354040283529160200191611714565b820191906000526020600020905b8154815290600101906020018083116116f757829003601f168201915b5050505050815260200160038201805461172d9061209d565b80601f01602080910402602001604051908101604052809291908181526020018280546117599061209d565b80156117a65780601f1061177b576101008083540402835291602001916117a6565b820191906000526020600020905b81548152906001019060200180831161178957829003601f168201915b505050505081526020016004820180546117bf9061209d565b80601f01602080910402602001604051908101604052809291908181526020018280546117eb9061209d565b80156118385780601f1061180d57610100808354040283529160200191611838565b820191906000526020600020905b81548152906001019060200180831161181b57829003601f168201915b50505091835250506005919091015460ff161515602090910152835184908490811061186657611866612027565b602002602001018190525050808061187d90612053565b9150506115f6565b509392505050565b6118956118d9565b806118d45760405162461bcd60e51b815260206004820152600f60248201526e06d696e74206c696d6974206973203608c1b604482015260640161042e565b606f55565b6033546001600160a01b031633146108915760405162461bcd60e51b815260206004820181905260248201527f4f776e61626c653a2063616c6c6572206973206e6f7420746865206f776e6572604482015260640161042e565b603380546001600160a01b038381166001600160a01b0319831681179093556040519116919082907f8be0079c531659141344cd1fd0a4f28419497f9722a3daafe3b4186f6b6457e090600090a35050565b600054610100900460ff166119ac5760405162461bcd60e51b815260040161042e90612184565b610891600054610100900460ff166119d65760405162461bcd60e51b815260040161042e90612184565b61089133611933565b6040518060c0016040528060008152602001600081526020016060815260200160608152602001606081526020016000151581525090565b828054611a239061209d565b90600052602060002090601f016020900481019282611a455760008555611a8b565b82601f10611a5e57805160ff1916838001178555611a8b565b82800160010185558215611a8b579182015b82811115611a8b578251825591602001919060010190611a70565b50611a97929150611a9b565b5090565b5b80821115611a975760008155600101611a9c565b80356001600160a01b0381168114611ac757600080fd5b919050565b60008060408385031215611adf57600080fd5b611ae883611ab0565b946020939093013593505050565b600060208284031215611b0857600080fd5b611b1182611ab0565b9392505050565b60008060408385031215611b2b57600080fd5b50508035926020909101359150565b6000815180845260005b81811015611b6057602081850181015186830182015201611b44565b81811115611b72576000602083870101525b50601f01601f19169290920160200192915050565b80518252602081015160208301526000604082015160c06040850152611bb060c0850182611b3a565b905060608301518482036060860152611bc98282611b3a565b91505060808301518482036080860152611be38282611b3a565b91505060a0830151151560a08501528091505092915050565b6000602080830181845280855180835260408601915060408160051b870101925083870160005b82811015611c5157603f19888603018452611c3f858351611b87565b94509285019290850190600101611c23565b5092979650505050505050565b600060208284031215611c7057600080fd5b5035919050565b634e487b7160e01b600052604160045260246000fd5b6040805190810167ffffffffffffffff81118282101715611cb057611cb0611c77565b60405290565b604051601f8201601f1916810167ffffffffffffffff81118282101715611cdf57611cdf611c77565b604052919050565b600082601f830112611cf857600080fd5b813567ffffffffffffffff811115611d1257611d12611c77565b611d25601f8201601f1916602001611cb6565b818152846020838601011115611d3a57600080fd5b816020850160208301376000918101602001919091529392505050565b80358015158114611ac757600080fd5b600082601f830112611d7857600080fd5b8135602067ffffffffffffffff80831115611d9557611d95611c77565b8260051b611da4838201611cb6565b9384528581018301938381019088861115611dbe57600080fd5b84880192505b85831015611e3557823584811115611ddc5760008081fd5b88016040818b03601f1901811315611df45760008081fd5b611dfc611c8d565b8783013587811115611e0e5760008081fd5b611e1c8d8a83870101611ce7565b8252509101358682015282529184019190840190611dc4565b98975050505050505050565b600080600080600080600080610100898b031215611e5e57600080fd5b88359750602089013567ffffffffffffffff80821115611e7d57600080fd5b611e898c838d01611ce7565b985060408b0135915080821115611e9f57600080fd5b611eab8c838d01611ce7565b975060608b0135915080821115611ec157600080fd5b611ecd8c838d01611ce7565b965060808b01359550611ee260a08c01611d57565b945060c08b0135935060e08b0135915080821115611eff57600080fd5b50611f0c8b828c01611d67565b9150509295985092959890939650565b600080600060608486031215611f3157600080fd5b611f3a84611ab0565b95602085013595506040909401359392505050565b60006020808301818452808551808352604092508286019150828160051b87010184880160005b83811015611fc957888303603f19018552815180518452878101516001600160a01b0316888501528601516060878501819052611fb581860183611b3a565b968901969450505090860190600101611f76565b509098975050505050505050565b602081526000611b116020830184611b87565b600060208284031215611ffc57600080fd5b813567ffffffffffffffff81111561201357600080fd5b61201f84828501611ce7565b949350505050565b634e487b7160e01b600052603260045260246000fd5b634e487b7160e01b600052601160045260246000fd5b60006000198214156120675761206761203d565b5060010190565b600082198211156120815761208161203d565b500190565b6000828210156120985761209861203d565b500390565b600181811c908216806120b157607f821691505b602082108114156120d257634e487b7160e01b600052602260045260246000fd5b50919050565b60008160001904831182151516156120f2576120f261203d565b500290565b60006080820186835260208681850152604086818601526080606086015282865180855260a08701915060a08160051b880101945083880160005b8281101561217357888703609f1901845281518051868952612156878a0182611b3a565b918801519888019890985296509285019290850190600101612132565b50949b9a5050505050505050505050565b6020808252602b908201527f496e697469616c697a61626c653a20636f6e7472616374206973206e6f74206960408201526a6e697469616c697a696e6760a81b60608201526080019056fea264697066735822122026060d7627cb77cb618018e511fe781fae6ab9d684e93216ca1c2ea478289b3a64736f6c63430008090033",
  "linkReferences": {},
  "deployedLinkReferences": {}
}