{
  "_format": "hh-sol-artifact-1",
  "contractName": "EventManager",
  "sourceName": "contracts/Event.sol",
  "abi": [
    {
      "anonymous": false,
      "inputs": [
        {
          "indexed": true,
          "internalType": "address",
          "name": "owner",
          "type": "address"
        },
        {
          "indexed": false,
          "internalType": "uint256",
          "name": "eventId",
          "type": "uint256"
        }
      ],
      "name": "CreateEvent",
      "type": "event"
    },
    {
      "anonymous": false,
      "inputs": [
        {
          "indexed": true,
          "internalType": "address",
          "name": "owner",
          "type": "address"
        },
        {
          "indexed": false,
          "internalType": "uint256",
          "name": "groupId",
          "type": "uint256"
        }
      ],
      "name": "CreateGroup",
      "type": "event"
    },
    {
      "anonymous": false,
      "inputs": [
        {
          "indexed": false,
          "internalType": "uint8",
          "name": "version",
          "type": "uint8"
        }
      ],
      "name": "Initialized",
      "type": "event"
    },
    {
      "anonymous": false,
      "inputs": [
        {
          "indexed": true,
          "internalType": "address",
          "name": "previousOwner",
          "type": "address"
        },
        {
          "indexed": true,
          "internalType": "address",
          "name": "newOwner",
          "type": "address"
        }
      ],
      "name": "OwnershipTransferred",
      "type": "event"
    },
    {
      "inputs": [
        {
          "internalType": "uint256",
          "name": "_groupId",
          "type": "uint256"
        },
        {
          "internalType": "string",
          "name": "_name",
          "type": "string"
        },
        {
          "internalType": "string",
          "name": "_description",
          "type": "string"
        },
        {
          "internalType": "string",
          "name": "_date",
          "type": "string"
        },
        {
          "internalType": "uint256",
          "name": "_mintLimit",
          "type": "uint256"
        },
        {
          "internalType": "bool",
          "name": "_useMtx",
          "type": "bool"
        },
        {
          "internalType": "bytes32",
          "name": "_secretPhrase",
          "type": "bytes32"
        },
        {
          "components": [
            {
              "internalType": "string",
              "name": "metaDataURL",
              "type": "string"
            },
            {
              "internalType": "uint256",
              "name": "requiredParticipateCount",
              "type": "uint256"
            }
          ],
          "internalType": "struct IMintNFT.NFTAttribute[]",
          "name": "_eventNFTAttributes",
          "type": "tuple[]"
        }
      ],
      "name": "createEventRecord",
      "outputs": [],
      "stateMutability": "payable",
      "type": "function"
    },
    {
      "inputs": [
        {
          "internalType": "string",
          "name": "_name",
          "type": "string"
        }
      ],
      "name": "createGroup",
      "outputs": [],
      "stateMutability": "nonpayable",
      "type": "function"
    },
    {
      "inputs": [
        {
          "internalType": "address",
          "name": "_address",
          "type": "address"
        }
      ],
      "name": "getCollaboratorAccessGroups",
      "outputs": [
        {
          "components": [
            {
              "internalType": "uint256",
              "name": "groupId",
              "type": "uint256"
            },
            {
              "internalType": "address",
              "name": "ownerAddress",
              "type": "address"
            },
            {
              "internalType": "string",
              "name": "name",
              "type": "string"
            }
          ],
          "internalType": "struct EventManager.Group[]",
          "name": "",
          "type": "tuple[]"
        }
      ],
      "stateMutability": "view",
      "type": "function"
    },
    {
      "inputs": [
        {
          "internalType": "uint256",
          "name": "_eventId",
          "type": "uint256"
        }
      ],
      "name": "getEventById",
      "outputs": [
        {
          "components": [
            {
              "internalType": "uint256",
              "name": "eventRecordId",
              "type": "uint256"
            },
            {
              "internalType": "uint256",
              "name": "groupId",
              "type": "uint256"
            },
            {
              "internalType": "string",
              "name": "name",
              "type": "string"
            },
            {
              "internalType": "string",
              "name": "description",
              "type": "string"
            },
            {
              "internalType": "string",
              "name": "date",
              "type": "string"
            },
            {
              "internalType": "bool",
              "name": "useMtx",
              "type": "bool"
            }
          ],
          "internalType": "struct EventManager.EventRecord",
          "name": "",
          "type": "tuple"
        }
      ],
      "stateMutability": "view",
      "type": "function"
    },
    {
      "inputs": [],
      "name": "getEventRecordCount",
      "outputs": [
        {
          "internalType": "uint256",
          "name": "",
          "type": "uint256"
        }
      ],
      "stateMutability": "view",
      "type": "function"
    },
    {
      "inputs": [
        {
          "internalType": "uint256",
          "name": "_limit",
          "type": "uint256"
        },
        {
          "internalType": "uint256",
          "name": "_offset",
          "type": "uint256"
        }
      ],
      "name": "getEventRecords",
      "outputs": [
        {
          "components": [
            {
              "internalType": "uint256",
              "name": "eventRecordId",
              "type": "uint256"
            },
            {
              "internalType": "uint256",
              "name": "groupId",
              "type": "uint256"
            },
            {
              "internalType": "string",
              "name": "name",
              "type": "string"
            },
            {
              "internalType": "string",
              "name": "description",
              "type": "string"
            },
            {
              "internalType": "string",
              "name": "date",
              "type": "string"
            },
            {
              "internalType": "bool",
              "name": "useMtx",
              "type": "bool"
            }
          ],
          "internalType": "struct EventManager.EventRecord[]",
          "name": "",
          "type": "tuple[]"
        }
      ],
      "stateMutability": "view",
      "type": "function"
    },
    {
      "inputs": [
        {
          "internalType": "uint256",
          "name": "_groupId",
          "type": "uint256"
        }
      ],
      "name": "getEventRecordsByGroupId",
      "outputs": [
        {
          "components": [
            {
              "internalType": "uint256",
              "name": "eventRecordId",
              "type": "uint256"
            },
            {
              "internalType": "uint256",
              "name": "groupId",
              "type": "uint256"
            },
            {
              "internalType": "string",
              "name": "name",
              "type": "string"
            },
            {
              "internalType": "string",
              "name": "description",
              "type": "string"
            },
            {
              "internalType": "string",
              "name": "date",
              "type": "string"
            },
            {
              "internalType": "bool",
              "name": "useMtx",
              "type": "bool"
            }
          ],
          "internalType": "struct EventManager.EventRecord[]",
          "name": "",
          "type": "tuple[]"
        }
      ],
      "stateMutability": "view",
      "type": "function"
    },
    {
      "inputs": [],
      "name": "getGroups",
      "outputs": [
        {
          "components": [
            {
              "internalType": "uint256",
              "name": "groupId",
              "type": "uint256"
            },
            {
              "internalType": "address",
              "name": "ownerAddress",
              "type": "address"
            },
            {
              "internalType": "string",
              "name": "name",
              "type": "string"
            }
          ],
          "internalType": "struct EventManager.Group[]",
          "name": "",
          "type": "tuple[]"
        }
      ],
      "stateMutability": "view",
      "type": "function"
    },
    {
      "inputs": [
        {
          "internalType": "uint256",
          "name": "_groupId",
          "type": "uint256"
        },
        {
          "internalType": "address",
          "name": "_address",
          "type": "address"
        }
      ],
      "name": "getMemberRole",
      "outputs": [
        {
          "components": [
            {
              "internalType": "address",
              "name": "assignee",
              "type": "address"
            },
            {
              "internalType": "bool",
              "name": "admin",
              "type": "bool"
            },
            {
              "internalType": "bool",
              "name": "collaborator",
              "type": "bool"
            }
          ],
          "internalType": "struct EventManager.MemberRole",
          "name": "",
          "type": "tuple"
        }
      ],
      "stateMutability": "view",
      "type": "function"
    },
    {
      "inputs": [
        {
          "internalType": "uint256",
          "name": "_groupId",
          "type": "uint256"
        }
      ],
      "name": "getMemberRoles",
      "outputs": [
        {
          "components": [
            {
              "internalType": "address",
              "name": "assignee",
              "type": "address"
            },
            {
              "internalType": "bool",
              "name": "admin",
              "type": "bool"
            },
            {
              "internalType": "bool",
              "name": "collaborator",
              "type": "bool"
            }
          ],
          "internalType": "struct EventManager.MemberRole[]",
          "name": "",
          "type": "tuple[]"
        }
      ],
      "stateMutability": "view",
      "type": "function"
    },
    {
      "inputs": [
        {
          "internalType": "address",
          "name": "_address",
          "type": "address"
        }
      ],
      "name": "getOwnGroups",
      "outputs": [
        {
          "components": [
            {
              "internalType": "uint256",
              "name": "groupId",
              "type": "uint256"
            },
            {
              "internalType": "address",
              "name": "ownerAddress",
              "type": "address"
            },
            {
              "internalType": "string",
              "name": "name",
              "type": "string"
            }
          ],
          "internalType": "struct EventManager.Group[]",
          "name": "",
          "type": "tuple[]"
        }
      ],
      "stateMutability": "view",
      "type": "function"
    },
    {
      "inputs": [
        {
          "internalType": "uint256",
          "name": "_groupId",
          "type": "uint256"
        },
        {
          "internalType": "address",
          "name": "_address",
          "type": "address"
        },
        {
          "internalType": "bytes32",
          "name": "_role",
          "type": "bytes32"
        }
      ],
      "name": "grantRole",
      "outputs": [],
      "stateMutability": "nonpayable",
      "type": "function"
    },
    {
      "inputs": [
        {
          "internalType": "address",
          "name": "_address",
          "type": "address"
        },
        {
          "internalType": "uint256",
          "name": "_eventId",
          "type": "uint256"
        }
      ],
      "name": "hasCollaboratorAccessByEventId",
      "outputs": [
        {
          "internalType": "bool",
          "name": "",
          "type": "bool"
        }
      ],
      "stateMutability": "view",
      "type": "function"
    },
    {
      "inputs": [
        {
          "internalType": "address",
          "name": "_relayerAddr",
          "type": "address"
        },
        {
          "internalType": "uint256",
          "name": "_mtxPrice",
          "type": "uint256"
        },
        {
          "internalType": "uint256",
          "name": "_maxMintLimit",
          "type": "uint256"
        },
        {
          "internalType": "address",
          "name": "_operationControllerAddr",
          "type": "address"
        }
      ],
      "name": "initialize",
      "outputs": [],
      "stateMutability": "nonpayable",
      "type": "function"
    },
    {
      "inputs": [],
      "name": "owner",
      "outputs": [
        {
          "internalType": "address",
          "name": "",
          "type": "address"
        }
      ],
      "stateMutability": "view",
      "type": "function"
    },
    {
      "inputs": [],
      "name": "renounceOwnership",
      "outputs": [],
      "stateMutability": "nonpayable",
      "type": "function"
    },
    {
      "inputs": [
        {
          "internalType": "uint256",
          "name": "_groupId",
          "type": "uint256"
        },
        {
          "internalType": "address",
          "name": "_address",
          "type": "address"
        },
        {
          "internalType": "bytes32",
          "name": "_role",
          "type": "bytes32"
        }
      ],
      "name": "revokeRole",
      "outputs": [],
      "stateMutability": "nonpayable",
      "type": "function"
    },
    {
      "inputs": [
        {
          "internalType": "uint256",
          "name": "_mintLimit",
          "type": "uint256"
        }
      ],
      "name": "setMaxMintLimit",
      "outputs": [],
      "stateMutability": "nonpayable",
      "type": "function"
    },
    {
      "inputs": [
        {
          "internalType": "address",
          "name": "_mintNftAddr",
          "type": "address"
        }
      ],
      "name": "setMintNFTAddr",
      "outputs": [],
      "stateMutability": "nonpayable",
      "type": "function"
    },
    {
      "inputs": [
        {
          "internalType": "uint256",
          "name": "_price",
          "type": "uint256"
        }
      ],
      "name": "setMtxPrice",
      "outputs": [],
      "stateMutability": "nonpayable",
      "type": "function"
    },
    {
      "inputs": [
        {
          "internalType": "address",
          "name": "_operationControllerAddr",
          "type": "address"
        }
      ],
      "name": "setOperationControllerAddr",
      "outputs": [],
      "stateMutability": "nonpayable",
      "type": "function"
    },
    {
      "inputs": [
        {
          "internalType": "address",
          "name": "_relayerAddr",
          "type": "address"
        }
      ],
      "name": "setRelayerAddr",
      "outputs": [],
      "stateMutability": "nonpayable",
      "type": "function"
    },
    {
      "inputs": [
        {
          "internalType": "address",
          "name": "newOwner",
          "type": "address"
        }
      ],
      "name": "transferOwnership",
      "outputs": [],
      "stateMutability": "nonpayable",
      "type": "function"
    }
  ],
  "bytecode": "0x608060405234801561001057600080fd5b5061311b806100206000396000f3fe6080604052600436106101405760003560e01c80638da5cb5b116100b6578063cb8668ea1161006f578063cb8668ea14610399578063d96c2c3a1461044f578063dc2ddcae1461046d578063f2fde38b1461048d578063f5620823146104ad578063f926b50c146104cd57600080fd5b80638da5cb5b146102bf5780638f184bea146102e7578063972f1327146103075780639e3d87cd14610337578063b98079bc14610357578063c72b51761461038457600080fd5b8063398121a611610108578063398121a61461020a578063471ade98146102375780636b1f762214610257578063715018a61461027757806374c4b95d1461028c5780638be103371461029f57600080fd5b80630422cb161461014557806308fb5eb21461017b5780631ac30e631461019d578063331e36ea146101bd57806337c81cd7146101ea575b600080fd5b34801561015157600080fd5b5061016561016036600461284a565b6104ed565b60405161017291906128b2565b60405180910390f35b34801561018757600080fd5b5061019b61019636600461284a565b610751565b005b3480156101a957600080fd5b5061019b6101b836600461284a565b6107e4565b3480156101c957600080fd5b506101dd6101d836600461293a565b610864565b6040516101729190612953565b3480156101f657600080fd5b5061019b61020536600461284a565b6109c5565b34801561021657600080fd5b5061022a6102253660046129c2565b610a45565b6040516101729190612a59565b34801561024357600080fd5b5061019b610252366004612abb565b610de8565b34801561026357600080fd5b5061019b61027236600461293a565b6110b3565b34801561028357600080fd5b5061019b6110c0565b61019b61029a366004612cbf565b6110d4565b3480156102ab57600080fd5b5061019b6102ba366004612abb565b61152b565b3480156102cb57600080fd5b506033546040516001600160a01b039091168152602001610172565b3480156102f357600080fd5b5061016561030236600461284a565b6116d1565b34801561031357600080fd5b50610327610322366004612d99565b6118d0565b6040519015158152602001610172565b34801561034357600080fd5b5061019b610352366004612dc3565b6118f1565b34801561036357600080fd5b5061037761037236600461293a565b611a41565b6040516101729190612e09565b34801561039057600080fd5b50610165611c69565b3480156103a557600080fd5b506104426103b4366004612e1c565b604080516060808201835260008083526020808401829052928401819052835191820184526001600160a01b0394909416808252948452607182528284209484529381528183206000805160206130c683398151915284528082528284205460ff9081161515868401526000805160206130a683398151915285529152918190205490911615159082015290565b6040516101729190612e48565b34801561045b57600080fd5b50606854604051908152602001610172565b34801561047957600080fd5b5061019b610488366004612e76565b611dd3565b34801561049957600080fd5b5061019b6104a836600461284a565b611fc7565b3480156104b957600080fd5b5061022a6104c836600461293a565b612040565b3480156104d957600080fd5b5061019b6104e836600461293a565b612338565b6067546060906000906001600160401b0381111561050d5761050d612af0565b604051908082528060200260200182016040528015610536578160200160208202803683370190505b509050600060015b6067548111610594576105518186612384565b15610582578083838151811061056957610569612eaa565b60209081029190910101528161057e81612ed6565b9250505b8061058c81612ed6565b91505061053e565b506000816001600160401b038111156105af576105af612af0565b6040519080825280602002602001820160405280156105e857816020015b6105d5612733565b8152602001906001900390816105cd5790505b50905060005b82811015610748576000600185838151811061060c5761060c612eaa565b602002602001015161061e9190612ef1565b90506067818154811061063357610633612eaa565b9060005260206000209060030201604051806060016040529081600082015481526020016001820160009054906101000a90046001600160a01b03166001600160a01b03166001600160a01b0316815260200160028201805461069590612f08565b80601f01602080910402602001604051908101604052809291908181526020018280546106c190612f08565b801561070e5780601f106106e35761010080835404028352916020019161070e565b820191906000526020600020905b8154815290600101906020018083116106f157829003601f168201915b50505050508152505083838151811061072957610729612eaa565b602002602001018190525050808061074090612ed6565b9150506105ee565b50949350505050565b610759612405565b6001600160a01b0381166107c25760405162461bcd60e51b815260206004820152602560248201527f6f7065726174696f6e20636f6e74726f6c6c6572206164647265737320697320604482015264626c616e6b60d81b60648201526084015b60405180910390fd5b607080546001600160a01b0319166001600160a01b0392909216919091179055565b6107ec612405565b6001600160a01b0381166108425760405162461bcd60e51b815260206004820152601960248201527f6d696e74206e6674206164647265737320697320626c616e6b0000000000000060448201526064016107b9565b606c80546001600160a01b0319166001600160a01b0392909216919091179055565b600081815260726020526040812054606091816001600160401b0381111561088e5761088e612af0565b6040519080825280602002602001820160405280156108d957816020015b60408051606081018252600080825260208083018290529282015282526000199092019101816108ac5790505b50905060005b828110156109bd57600085815260726020526040812080548390811061090757610907612eaa565b6000918252602080832090910154604080516060810182526001600160a01b039092168083528a85526071845281852081865284528185206000805160206130c683398151915286528085528286205460ff9081161515858701526000805160206130a683398151915287529452938190205490921615159181019190915284519192509084908490811061099e5761099e612eaa565b60200260200101819052505080806109b590612ed6565b9150506108df565b509392505050565b6109cd612405565b6001600160a01b038116610a235760405162461bcd60e51b815260206004820152601860248201527f72656c61796572206164647265737320697320626c616e6b000000000000000060448201526064016107b9565b606d80546001600160a01b0319166001600160a01b0392909216919091179055565b60685460609083610a5557606493505b6064841115610a9b5760405162461bcd60e51b81526020600482015260126024820152716c696d697420697320746f6f206c6172676560701b60448201526064016107b9565b80831115610ae15760405162461bcd60e51b81526020600482015260136024820152726f666673657420697320746f6f206c6172676560681b60448201526064016107b9565b80610aec8486612f43565b1115610aff57610afc8382612ef1565b93505b6000846001600160401b03811115610b1957610b19612af0565b604051908082528060200260200182016040528015610b5257816020015b610b3f61275d565b815260200190600190039081610b375790505b50905060005b85811015610ddd576000610b6c8287612f43565b610b77906001612f43565b610b819085612ef1565b10610dcb576068610b928287612f43565b610b9d906001612f43565b610ba79085612ef1565b81548110610bb757610bb7612eaa565b90600052602060002090600602016040518060c00160405290816000820154815260200160018201548152602001600282018054610bf490612f08565b80601f0160208091040260200160405190810160405280929190818152602001828054610c2090612f08565b8015610c6d5780601f10610c4257610100808354040283529160200191610c6d565b820191906000526020600020905b815481529060010190602001808311610c5057829003601f168201915b50505050508152602001600382018054610c8690612f08565b80601f0160208091040260200160405190810160405280929190818152602001828054610cb290612f08565b8015610cff5780601f10610cd457610100808354040283529160200191610cff565b820191906000526020600020905b815481529060010190602001808311610ce257829003601f168201915b50505050508152602001600482018054610d1890612f08565b80601f0160208091040260200160405190810160405280929190818152602001828054610d4490612f08565b8015610d915780601f10610d6657610100808354040283529160200191610d91565b820191906000526020600020905b815481529060010190602001808311610d7457829003601f168201915b50505091835250506005919091015460ff1615156020909101528251839083908110610dbf57610dbf612eaa565b60200260200101819052505b80610dd581612ed6565b915050610b58565b509150505b92915050565b60705460408051635c975abb60e01b815290516001600160a01b03909216918291635c975abb916004808301926020929190829003018186803b158015610e2e57600080fd5b505afa158015610e42573d6000803e3d6000fd5b505050506040513d601f19601f82011682018060405250810190610e669190612f5b565b15610e835760405162461bcd60e51b81526004016107b990612f78565b610e8d843361245f565b610ec95760405162461bcd60e51b815260206004820152600d60248201526c139bdd081c195c9b5a5d1d1959609a1b60448201526064016107b9565b610ed282612514565b610f0d5760405162461bcd60e51b815260206004820152600c60248201526b496e76616c696420726f6c6560a01b60448201526064016107b9565b60008481526071602090815260408083206001600160a01b038716845282528083208584528252808320805460ff1916905586835260729091529020548015801590610f5e5750610f5e8585612541565b156110ac57600181111561106c576000805b82811015610fd957600087815260726020526040902080546001600160a01b038816919083908110610fa457610fa4612eaa565b6000918252602090912001546001600160a01b03161415610fc757809150610fd9565b80610fd181612ed6565b915050610f70565b506000868152607260205260409020610ff3600184612ef1565b8154811061100357611003612eaa565b60009182526020808320909101548883526072909152604090912080546001600160a01b03909216918390811061103c5761103c612eaa565b9060005260206000200160006101000a8154816001600160a01b0302191690836001600160a01b03160217905550505b600085815260726020526040902080548061108957611089612f98565b600082815260209020810160001990810180546001600160a01b03191690550190555b5050505050565b6110bb612405565b606e55565b6110c8612405565b6110d26000612585565b565b876110df8133612384565b6111245760405162461bcd60e51b81526020600482015260166024820152752cb7ba903430bb32903737903832b936b4b9b9b4b7b760511b60448201526064016107b9565b60705460408051635c975abb60e01b815290516001600160a01b03909216918291635c975abb916004808301926020929190829003018186803b15801561116a57600080fd5b505afa15801561117e573d6000803e3d6000fd5b505050506040513d601f19601f820116820180604052508101906111a29190612f5b565b156111bf5760405162461bcd60e51b81526004016107b990612f78565b6000861180156111d15750606f548611155b6112155760405162461bcd60e51b81526020600482015260156024820152741b5a5b9d081b1a5b5a5d081a5cc81a5b9d985b1a59605a1b60448201526064016107b9565b841561131257606e5460009061122b3a89612fae565b6112359190612fae565b90508034101561127a5760405162461bcd60e51b815260206004820152601060248201526f4e6f7420656e6f7567682076616c756560801b60448201526064016107b9565b606d546040516000916001600160a01b03169034908381818185875af1925050503d80600081146112c7576040519150601f19603f3d011682016040523d82523d6000602084013e6112cc565b606091505b505090508061130f5760405162461bcd60e51b815260206004820152600f60248201526e1d1c985b9cd9995c8819985a5b1959608a1b60448201526064016107b9565b50505b600061131d60655490565b905061132d606580546001019055565b6040805160c08101825282815260208082018e81529282018d8152606083018d9052608083018c905289151560a084015260688054600181018255600091909152835160069091027fa2153420d844928b4421650203c77babc8b33d7f2e7b450e2966db0c22097753810191825594517fa2153420d844928b4421650203c77babc8b33d7f2e7b450e2966db0c2209775486015590518051939491936113fc937fa2153420d844928b4421650203c77babc8b33d7f2e7b450e2966db0c22097755909301929190910190612795565b5060608201518051611418916003840191602090910190612795565b5060808201518051611434916004840191602090910190612795565b5060a091909101516005909101805460ff1916911515919091179055606c5460405163ef3ad9eb60e01b81526001600160a01b0390911690819063ef3ad9eb906114889085908c908b908b90600401612fcd565b600060405180830381600087803b1580156114a257600080fd5b505af11580156114b6573d6000803e3d6000fd5b50505060008d8152606a60209081526040808320805460018101825590845282842001869055858352606b8252918290208f905590518481523392507fffde68815858e4c88d054382adadf9d3280426c744cf9c1991303ff77afdc1e2910160405180910390a2505050505050505050505050565b60705460408051635c975abb60e01b815290516001600160a01b03909216918291635c975abb916004808301926020929190829003018186803b15801561157157600080fd5b505afa158015611585573d6000803e3d6000fd5b505050506040513d601f19601f820116820180604052508101906115a99190612f5b565b156115c65760405162461bcd60e51b81526004016107b990612f78565b6115d0843361245f565b61160c5760405162461bcd60e51b815260206004820152600d60248201526c139bdd081c195c9b5a5d1d1959609a1b60448201526064016107b9565b61161582612514565b6116505760405162461bcd60e51b815260206004820152600c60248201526b496e76616c696420726f6c6560a01b60448201526064016107b9565b60008481526071602090815260408083206001600160a01b038716845282528083208584529091529020805460ff1916600117905561168f84846125d7565b6116cb5760008481526072602090815260408220805460018101825590835291200180546001600160a01b0319166001600160a01b0385161790555b50505050565b6001600160a01b038116600090815260696020526040812054606754606092826001600160401b0381111561170857611708612af0565b60405190808252806020026020018201604052801561174157816020015b61172e612733565b8152602001906001900390816117265790505b5090506000805b838110156118c557866001600160a01b03166067828154811061176d5761176d612eaa565b60009182526020909120600160039092020101546001600160a01b031614156118b357606781815481106117a3576117a3612eaa565b9060005260206000209060030201604051806060016040529081600082015481526020016001820160009054906101000a90046001600160a01b03166001600160a01b03166001600160a01b0316815260200160028201805461180590612f08565b80601f016020809104026020016040519081016040528092919081815260200182805461183190612f08565b801561187e5780601f106118535761010080835404028352916020019161187e565b820191906000526020600020905b81548152906001019060200180831161186157829003601f168201915b50505050508152505083838151811061189957611899612eaa565b602002602001018190525081806118af90612ed6565b9250505b806118bd81612ed6565b915050611748565b509095945050505050565b6000818152606b60205260408120546118e98185612384565b949350505050565b600054600290610100900460ff16158015611913575060005460ff8083169116105b6119765760405162461bcd60e51b815260206004820152602e60248201527f496e697469616c697a61626c653a20636f6e747261637420697320616c72656160448201526d191e481a5b9a5d1a585b1a5e995960921b60648201526084016107b9565b6000805461ffff191660ff8316176101001790556119926126a2565b6066541580156119a25750606554155b156119c3576119b5606680546001019055565b6119c3606580546001019055565b6119cc856109c5565b6119d5846110b3565b6119de83612338565b607080546001600160a01b0319166001600160a01b0384161790556000805461ff001916905560405160ff821681527f7f26b83ff96e1f2b6a682f133852f6798a09c465da95921460cefb38474024989060200160405180910390a15050505050565b611a4961275d565b6000611a56600184612ef1565b9050600060688281548110611a6d57611a6d612eaa565b90600052602060002090600602016040518060c00160405290816000820154815260200160018201548152602001600282018054611aaa90612f08565b80601f0160208091040260200160405190810160405280929190818152602001828054611ad690612f08565b8015611b235780601f10611af857610100808354040283529160200191611b23565b820191906000526020600020905b815481529060010190602001808311611b0657829003601f168201915b50505050508152602001600382018054611b3c90612f08565b80601f0160208091040260200160405190810160405280929190818152602001828054611b6890612f08565b8015611bb55780601f10611b8a57610100808354040283529160200191611bb5565b820191906000526020600020905b815481529060010190602001808311611b9857829003601f168201915b50505050508152602001600482018054611bce90612f08565b80601f0160208091040260200160405190810160405280929190818152602001828054611bfa90612f08565b8015611c475780601f10611c1c57610100808354040283529160200191611c47565b820191906000526020600020905b815481529060010190602001808311611c2a57829003601f168201915b50505091835250506005919091015460ff161515602090910152949350505050565b6067546060906000816001600160401b03811115611c8957611c89612af0565b604051908082528060200260200182016040528015611cc257816020015b611caf612733565b815260200190600190039081611ca75790505b50606780546040805160208084028201810190925282815293945060009084015b82821015611dc757600084815260209081902060408051606081018252600386029092018054835260018101546001600160a01b03169383019390935260028301805492939291840191611d3690612f08565b80601f0160208091040260200160405190810160405280929190818152602001828054611d6290612f08565b8015611daf5780601f10611d8457610100808354040283529160200191611daf565b820191906000526020600020905b815481529060010190602001808311611d9257829003601f168201915b50505050508152505081526020019060010190611ce3565b50929695505050505050565b60705460408051635c975abb60e01b815290516001600160a01b03909216918291635c975abb916004808301926020929190829003018186803b158015611e1957600080fd5b505afa158015611e2d573d6000803e3d6000fd5b505050506040513d601f19601f82011682018060405250810190611e519190612f5b565b15611e6e5760405162461bcd60e51b81526004016107b990612f78565b6000611e7960665490565b9050611e89606680546001019055565b6040805160608101825282815233602080830191825292820186815260678054600181018255600091909152835160039091027f9787eeb91fe3101235e4a76063c7023ecb40f923f97916639c598592fa30d6ae810191825592517f9787eeb91fe3101235e4a76063c7023ecb40f923f97916639c598592fa30d6af840180546001600160a01b03929092166001600160a01b03199092169190911790559051805193949193611f60937f9787eeb91fe3101235e4a76063c7023ecb40f923f97916639c598592fa30d6b001929190910190612795565b505033600081815260696020908152604080832080546001810182559084529190922001849055519091507f88d8a40d3d79893e13972978642d5fe29930912ee4c0b62a535815945c1d7bd090611fba9084815260200190565b60405180910390a2505050565b611fcf612405565b6001600160a01b0381166120345760405162461bcd60e51b815260206004820152602660248201527f4f776e61626c653a206e6577206f776e657220697320746865207a65726f206160448201526564647265737360d01b60648201526084016107b9565b61203d81612585565b50565b6000818152606a6020526040812054606091816001600160401b0381111561206a5761206a612af0565b6040519080825280602002602001820160405280156120a357816020015b61209061275d565b8152602001906001900390816120885790505b50905060005b828110156109bd576000858152606a6020526040812060016120cb8487612ef1565b6120d59190612ef1565b815481106120e5576120e5612eaa565b9060005260206000200154905060686001826121019190612ef1565b8154811061211157612111612eaa565b90600052602060002090600602016040518060c0016040529081600082015481526020016001820154815260200160028201805461214e90612f08565b80601f016020809104026020016040519081016040528092919081815260200182805461217a90612f08565b80156121c75780601f1061219c576101008083540402835291602001916121c7565b820191906000526020600020905b8154815290600101906020018083116121aa57829003601f168201915b505050505081526020016003820180546121e090612f08565b80601f016020809104026020016040519081016040528092919081815260200182805461220c90612f08565b80156122595780601f1061222e57610100808354040283529160200191612259565b820191906000526020600020905b81548152906001019060200180831161223c57829003601f168201915b5050505050815260200160048201805461227290612f08565b80601f016020809104026020016040519081016040528092919081815260200182805461229e90612f08565b80156122eb5780601f106122c0576101008083540402835291602001916122eb565b820191906000526020600020905b8154815290600101906020018083116122ce57829003601f168201915b50505091835250506005919091015460ff161515602090910152835184908490811061231957612319612eaa565b602002602001018190525050808061233090612ed6565b9150506120a9565b612340612405565b8061237f5760405162461bcd60e51b815260206004820152600f60248201526e06d696e74206c696d6974206973203608c1b60448201526064016107b9565b606f55565b6000808311801561239757506067548311155b6123d55760405162461bcd60e51b815260206004820152600f60248201526e125b9d985b1a590819dc9bdd5c1259608a1b60448201526064016107b9565b6123df838361245f565b806123fe57506123fe83836000805160206130a68339815191526126d1565b9392505050565b6033546001600160a01b031633146110d25760405162461bcd60e51b815260206004820181905260248201527f4f776e61626c653a2063616c6c6572206973206e6f7420746865206f776e657260448201526064016107b9565b6000808311801561247257506067548311155b6124b05760405162461bcd60e51b815260206004820152600f60248201526e125b9d985b1a590819dc9bdd5c1259608a1b60448201526064016107b9565b6001600160a01b03821660676124c7600186612ef1565b815481106124d7576124d7612eaa565b60009182526020909120600160039092020101546001600160a01b031614806123fe57506123fe83836000805160206130c68339815191526126d1565b60006000805160206130c6833981519152821480610de25750506000805160206130a68339815191521490565b600061255c83836000805160206130c68339815191526126d1565b1580156123fe575061257d83836000805160206130a68339815191526126d1565b159392505050565b603380546001600160a01b038381166001600160a01b0319831681179093556040519116919082907f8be0079c531659141344cd1fd0a4f28419497f9722a3daafe3b4186f6b6457e090600090a35050565b60008281526072602090815260408083208054825181850281018501909352808352849383018282801561263457602002820191906000526020600020905b81546001600160a01b03168152600190910190602001808311612616575b5050505050905060005b815181101561269757836001600160a01b031682828151811061266357612663612eaa565b60200260200101516001600160a01b0316141561268557600192505050610de2565b8061268f81612ed6565b91505061263e565b506000949350505050565b600054610100900460ff166126c95760405162461bcd60e51b81526004016107b99061305a565b6110d2612703565b60009283526071602090815260408085206001600160a01b039490941685529281528284209184525290205460ff1690565b600054610100900460ff1661272a5760405162461bcd60e51b81526004016107b99061305a565b6110d233612585565b60405180606001604052806000815260200160006001600160a01b03168152602001606081525090565b6040518060c0016040528060008152602001600081526020016060815260200160608152602001606081526020016000151581525090565b8280546127a190612f08565b90600052602060002090601f0160209004810192826127c35760008555612809565b82601f106127dc57805160ff1916838001178555612809565b82800160010185558215612809579182015b828111156128095782518255916020019190600101906127ee565b50612815929150612819565b5090565b5b80821115612815576000815560010161281a565b80356001600160a01b038116811461284557600080fd5b919050565b60006020828403121561285c57600080fd5b6123fe8261282e565b6000815180845260005b8181101561288b5760208185018101518683018201520161286f565b8181111561289d576000602083870101525b50601f01601f19169290920160200192915050565b60006020808301818452808551808352604092508286019150828160051b87010184880160005b8381101561292c57888303603f19018552815180518452878101516001600160a01b031688850152860151606087850181905261291881860183612865565b9689019694505050908601906001016128d9565b509098975050505050505050565b60006020828403121561294c57600080fd5b5035919050565b6020808252825182820181905260009190848201906040850190845b818110156129b6576129a383855180516001600160a01b031682526020808201511515908301526040908101511515910152565b928401926060929092019160010161296f565b50909695505050505050565b600080604083850312156129d557600080fd5b50508035926020909101359150565b80518252602081015160208301526000604082015160c06040850152612a0d60c0850182612865565b905060608301518482036060860152612a268282612865565b91505060808301518482036080860152612a408282612865565b91505060a0830151151560a08501528091505092915050565b6000602080830181845280855180835260408601915060408160051b870101925083870160005b82811015612aae57603f19888603018452612a9c8583516129e4565b94509285019290850190600101612a80565b5092979650505050505050565b600080600060608486031215612ad057600080fd5b83359250612ae06020850161282e565b9150604084013590509250925092565b634e487b7160e01b600052604160045260246000fd5b604080519081016001600160401b0381118282101715612b2857612b28612af0565b60405290565b604051601f8201601f191681016001600160401b0381118282101715612b5657612b56612af0565b604052919050565b600082601f830112612b6f57600080fd5b81356001600160401b03811115612b8857612b88612af0565b612b9b601f8201601f1916602001612b2e565b818152846020838601011115612bb057600080fd5b816020850160208301376000918101602001919091529392505050565b801515811461203d57600080fd5b803561284581612bcd565b600082601f830112612bf757600080fd5b813560206001600160401b0380831115612c1357612c13612af0565b8260051b612c22838201612b2e565b9384528581018301938381019088861115612c3c57600080fd5b84880192505b85831015612cb357823584811115612c5a5760008081fd5b88016040818b03601f1901811315612c725760008081fd5b612c7a612b06565b8783013587811115612c8c5760008081fd5b612c9a8d8a83870101612b5e565b8252509101358682015282529184019190840190612c42565b98975050505050505050565b600080600080600080600080610100898b031215612cdc57600080fd5b8835975060208901356001600160401b0380821115612cfa57600080fd5b612d068c838d01612b5e565b985060408b0135915080821115612d1c57600080fd5b612d288c838d01612b5e565b975060608b0135915080821115612d3e57600080fd5b612d4a8c838d01612b5e565b965060808b01359550612d5f60a08c01612bdb565b945060c08b0135935060e08b0135915080821115612d7c57600080fd5b50612d898b828c01612be6565b9150509295985092959890939650565b60008060408385031215612dac57600080fd5b612db58361282e565b946020939093013593505050565b60008060008060808587031215612dd957600080fd5b612de28561282e565b93506020850135925060408501359150612dfe6060860161282e565b905092959194509250565b6020815260006123fe60208301846129e4565b60008060408385031215612e2f57600080fd5b82359150612e3f6020840161282e565b90509250929050565b81516001600160a01b0316815260208083015115159082015260408083015115159082015260608101610de2565b600060208284031215612e8857600080fd5b81356001600160401b03811115612e9e57600080fd5b6118e984828501612b5e565b634e487b7160e01b600052603260045260246000fd5b634e487b7160e01b600052601160045260246000fd5b6000600019821415612eea57612eea612ec0565b5060010190565b600082821015612f0357612f03612ec0565b500390565b600181811c90821680612f1c57607f821691505b60208210811415612f3d57634e487b7160e01b600052602260045260246000fd5b50919050565b60008219821115612f5657612f56612ec0565b500190565b600060208284031215612f6d57600080fd5b81516123fe81612bcd565b60208082526006908201526514185d5cd95960d21b604082015260600190565b634e487b7160e01b600052603160045260246000fd5b6000816000190483118215151615612fc857612fc8612ec0565b500290565b60006080820186835260208681850152604086818601526080606086015282865180855260a08701915060a08160051b880101945083880160005b8281101561304957888703609f190184528151805186895261302c878a0182612865565b918801519888019890985296509285019290850190600101613008565b50949b9a5050505050505050505050565b6020808252602b908201527f496e697469616c697a61626c653a20636f6e7472616374206973206e6f74206960408201526a6e697469616c697a696e6760a81b60608201526080019056fef38814eec94cecab51d76c4344615af8334e61ee8d4ae6b02411905a54259ecedf8b4c520ffe197c5343c6f5aec59570151ef9a492f2c624fd45ddde6135ec42a26469706673582212203374ed98ad3e8099e9847eec0f6d2dff6c0e3efb3e4bf5ac6b644c946294d6f264736f6c63430008090033",
  "linkReferences": {},
  "deployedLinkReferences": {}
}