{
  "_format": "hh-sol-artifact-1",
  "contractName": "EventManager",
  "sourceName": "contracts/Event.sol",
  "abi": [
    {
      "anonymous": false,
      "inputs": [
        {
          "indexed": true,
          "internalType": "address",
          "name": "owner",
          "type": "address"
        },
        {
          "indexed": false,
          "internalType": "uint256",
          "name": "eventId",
          "type": "uint256"
        }
      ],
      "name": "CreateEvent",
      "type": "event"
    },
    {
      "anonymous": false,
      "inputs": [
        {
          "indexed": true,
          "internalType": "address",
          "name": "owner",
          "type": "address"
        },
        {
          "indexed": false,
          "internalType": "uint256",
          "name": "groupId",
          "type": "uint256"
        }
      ],
      "name": "CreateGroup",
      "type": "event"
    },
    {
      "anonymous": false,
      "inputs": [
        {
          "indexed": false,
          "internalType": "uint8",
          "name": "version",
          "type": "uint8"
        }
      ],
      "name": "Initialized",
      "type": "event"
    },
    {
      "anonymous": false,
      "inputs": [
        {
          "indexed": true,
          "internalType": "address",
          "name": "previousOwner",
          "type": "address"
        },
        {
          "indexed": true,
          "internalType": "address",
          "name": "newOwner",
          "type": "address"
        }
      ],
      "name": "OwnershipTransferred",
      "type": "event"
    },
    {
      "inputs": [
        {
          "internalType": "uint256",
          "name": "_groupId",
          "type": "uint256"
        },
        {
          "internalType": "string",
          "name": "_name",
          "type": "string"
        },
        {
          "internalType": "string",
          "name": "_description",
          "type": "string"
        },
        {
          "internalType": "string",
          "name": "_date",
          "type": "string"
        },
        {
          "internalType": "uint256",
          "name": "_mintLimit",
          "type": "uint256"
        },
        {
          "internalType": "bool",
          "name": "_useMtx",
          "type": "bool"
        },
        {
          "internalType": "bytes32",
          "name": "_secretPhrase",
          "type": "bytes32"
        },
        {
          "components": [
            {
              "internalType": "string",
              "name": "metaDataURL",
              "type": "string"
            },
            {
              "internalType": "uint256",
              "name": "requiredParticipateCount",
              "type": "uint256"
            }
          ],
          "internalType": "struct IMintNFT.NFTAttribute[]",
          "name": "_eventNFTAttributes",
          "type": "tuple[]"
        }
      ],
      "name": "createEventRecord",
      "outputs": [],
      "stateMutability": "payable",
      "type": "function"
    },
    {
      "inputs": [
        {
          "internalType": "string",
          "name": "_name",
          "type": "string"
        }
      ],
      "name": "createGroup",
      "outputs": [],
      "stateMutability": "nonpayable",
      "type": "function"
    },
    {
      "inputs": [
        {
          "internalType": "address",
          "name": "_address",
          "type": "address"
        }
      ],
      "name": "getCollaboratorAccessGroups",
      "outputs": [
        {
          "components": [
            {
              "internalType": "uint256",
              "name": "groupId",
              "type": "uint256"
            },
            {
              "internalType": "address",
              "name": "ownerAddress",
              "type": "address"
            },
            {
              "internalType": "string",
              "name": "name",
              "type": "string"
            }
          ],
          "internalType": "struct EventManager.Group[]",
          "name": "",
          "type": "tuple[]"
        }
      ],
      "stateMutability": "view",
      "type": "function"
    },
    {
      "inputs": [
        {
          "internalType": "uint256",
          "name": "_eventId",
          "type": "uint256"
        }
      ],
      "name": "getEventById",
      "outputs": [
        {
          "components": [
            {
              "internalType": "uint256",
              "name": "eventRecordId",
              "type": "uint256"
            },
            {
              "internalType": "uint256",
              "name": "groupId",
              "type": "uint256"
            },
            {
              "internalType": "string",
              "name": "name",
              "type": "string"
            },
            {
              "internalType": "string",
              "name": "description",
              "type": "string"
            },
            {
              "internalType": "string",
              "name": "date",
              "type": "string"
            },
            {
              "internalType": "bool",
              "name": "useMtx",
              "type": "bool"
            }
          ],
          "internalType": "struct EventManager.EventRecord",
          "name": "",
          "type": "tuple"
        }
      ],
      "stateMutability": "view",
      "type": "function"
    },
    {
      "inputs": [],
      "name": "getEventRecordCount",
      "outputs": [
        {
          "internalType": "uint256",
          "name": "",
          "type": "uint256"
        }
      ],
      "stateMutability": "view",
      "type": "function"
    },
    {
      "inputs": [
        {
          "internalType": "uint256",
          "name": "_limit",
          "type": "uint256"
        },
        {
          "internalType": "uint256",
          "name": "_offset",
          "type": "uint256"
        }
      ],
      "name": "getEventRecords",
      "outputs": [
        {
          "components": [
            {
              "internalType": "uint256",
              "name": "eventRecordId",
              "type": "uint256"
            },
            {
              "internalType": "uint256",
              "name": "groupId",
              "type": "uint256"
            },
            {
              "internalType": "string",
              "name": "name",
              "type": "string"
            },
            {
              "internalType": "string",
              "name": "description",
              "type": "string"
            },
            {
              "internalType": "string",
              "name": "date",
              "type": "string"
            },
            {
              "internalType": "bool",
              "name": "useMtx",
              "type": "bool"
            }
          ],
          "internalType": "struct EventManager.EventRecord[]",
          "name": "",
          "type": "tuple[]"
        }
      ],
      "stateMutability": "view",
      "type": "function"
    },
    {
      "inputs": [
        {
          "internalType": "uint256",
          "name": "_groupId",
          "type": "uint256"
        }
      ],
      "name": "getEventRecordsByGroupId",
      "outputs": [
        {
          "components": [
            {
              "internalType": "uint256",
              "name": "eventRecordId",
              "type": "uint256"
            },
            {
              "internalType": "uint256",
              "name": "groupId",
              "type": "uint256"
            },
            {
              "internalType": "string",
              "name": "name",
              "type": "string"
            },
            {
              "internalType": "string",
              "name": "description",
              "type": "string"
            },
            {
              "internalType": "string",
              "name": "date",
              "type": "string"
            },
            {
              "internalType": "bool",
              "name": "useMtx",
              "type": "bool"
            }
          ],
          "internalType": "struct EventManager.EventRecord[]",
          "name": "",
          "type": "tuple[]"
        }
      ],
      "stateMutability": "view",
      "type": "function"
    },
    {
      "inputs": [],
      "name": "getGroups",
      "outputs": [
        {
          "components": [
            {
              "internalType": "uint256",
              "name": "groupId",
              "type": "uint256"
            },
            {
              "internalType": "address",
              "name": "ownerAddress",
              "type": "address"
            },
            {
              "internalType": "string",
              "name": "name",
              "type": "string"
            }
          ],
          "internalType": "struct EventManager.Group[]",
          "name": "",
          "type": "tuple[]"
        }
      ],
      "stateMutability": "view",
      "type": "function"
    },
    {
      "inputs": [
        {
          "internalType": "address",
          "name": "_address",
          "type": "address"
        }
      ],
      "name": "getOwnGroups",
      "outputs": [
        {
          "components": [
            {
              "internalType": "uint256",
              "name": "groupId",
              "type": "uint256"
            },
            {
              "internalType": "address",
              "name": "ownerAddress",
              "type": "address"
            },
            {
              "internalType": "string",
              "name": "name",
              "type": "string"
            }
          ],
          "internalType": "struct EventManager.Group[]",
          "name": "",
          "type": "tuple[]"
        }
      ],
      "stateMutability": "view",
      "type": "function"
    },
    {
      "inputs": [
        {
          "internalType": "uint256",
          "name": "_groupId",
          "type": "uint256"
        },
        {
          "internalType": "address",
          "name": "_address",
          "type": "address"
        }
      ],
      "name": "getRoles",
      "outputs": [
        {
          "components": [
            {
              "internalType": "bool",
              "name": "admin",
              "type": "bool"
            },
            {
              "internalType": "bool",
              "name": "collaborator",
              "type": "bool"
            }
          ],
          "internalType": "struct EventManager.Roles",
          "name": "",
          "type": "tuple"
        }
      ],
      "stateMutability": "view",
      "type": "function"
    },
    {
      "inputs": [
        {
          "internalType": "uint256",
          "name": "_groupId",
          "type": "uint256"
        },
        {
          "internalType": "address",
          "name": "_address",
          "type": "address"
        },
        {
          "internalType": "bytes32",
          "name": "_role",
          "type": "bytes32"
        }
      ],
      "name": "grantRole",
      "outputs": [],
      "stateMutability": "nonpayable",
      "type": "function"
    },
    {
      "inputs": [
        {
          "internalType": "address",
          "name": "_address",
          "type": "address"
        },
        {
          "internalType": "uint256",
          "name": "_eventId",
          "type": "uint256"
        }
      ],
      "name": "hasCollaboratorAccessByEventId",
      "outputs": [
        {
          "internalType": "bool",
          "name": "",
          "type": "bool"
        }
      ],
      "stateMutability": "view",
      "type": "function"
    },
    {
      "inputs": [
        {
          "internalType": "address",
          "name": "_relayerAddr",
          "type": "address"
        },
        {
          "internalType": "uint256",
          "name": "_mtxPrice",
          "type": "uint256"
        },
        {
          "internalType": "uint256",
          "name": "_maxMintLimit",
          "type": "uint256"
        },
        {
          "internalType": "address",
          "name": "_operationControllerAddr",
          "type": "address"
        }
      ],
      "name": "initialize",
      "outputs": [],
      "stateMutability": "nonpayable",
      "type": "function"
    },
    {
      "inputs": [],
      "name": "owner",
      "outputs": [
        {
          "internalType": "address",
          "name": "",
          "type": "address"
        }
      ],
      "stateMutability": "view",
      "type": "function"
    },
    {
      "inputs": [],
      "name": "renounceOwnership",
      "outputs": [],
      "stateMutability": "nonpayable",
      "type": "function"
    },
    {
      "inputs": [
        {
          "internalType": "uint256",
          "name": "_groupId",
          "type": "uint256"
        },
        {
          "internalType": "address",
          "name": "_address",
          "type": "address"
        },
        {
          "internalType": "bytes32",
          "name": "_role",
          "type": "bytes32"
        }
      ],
      "name": "revokeRole",
      "outputs": [],
      "stateMutability": "nonpayable",
      "type": "function"
    },
    {
      "inputs": [
        {
          "internalType": "uint256",
          "name": "_mintLimit",
          "type": "uint256"
        }
      ],
      "name": "setMaxMintLimit",
      "outputs": [],
      "stateMutability": "nonpayable",
      "type": "function"
    },
    {
      "inputs": [
        {
          "internalType": "address",
          "name": "_mintNftAddr",
          "type": "address"
        }
      ],
      "name": "setMintNFTAddr",
      "outputs": [],
      "stateMutability": "nonpayable",
      "type": "function"
    },
    {
      "inputs": [
        {
          "internalType": "uint256",
          "name": "_price",
          "type": "uint256"
        }
      ],
      "name": "setMtxPrice",
      "outputs": [],
      "stateMutability": "nonpayable",
      "type": "function"
    },
    {
      "inputs": [
        {
          "internalType": "address",
          "name": "_operationControllerAddr",
          "type": "address"
        }
      ],
      "name": "setOperationControllerAddr",
      "outputs": [],
      "stateMutability": "nonpayable",
      "type": "function"
    },
    {
      "inputs": [
        {
          "internalType": "address",
          "name": "_relayerAddr",
          "type": "address"
        }
      ],
      "name": "setRelayerAddr",
      "outputs": [],
      "stateMutability": "nonpayable",
      "type": "function"
    },
    {
      "inputs": [
        {
          "internalType": "address",
          "name": "newOwner",
          "type": "address"
        }
      ],
      "name": "transferOwnership",
      "outputs": [],
      "stateMutability": "nonpayable",
      "type": "function"
    }
  ],
  "bytecode": "0x608060405234801561001057600080fd5b50612c57806100206000396000f3fe6080604052600436106101355760003560e01c80638da5cb5b116100ab578063c72b51761161006f578063c72b517614610429578063d96c2c3a1461043e578063dc2ddcae1461045c578063f2fde38b1461047c578063f56208231461049c578063f926b50c146104bc57600080fd5b80638da5cb5b146103645780638f184bea1461038c578063972f1327146103ac5780639e3d87cd146103dc578063b98079bc146103fc57600080fd5b8063398121a6116100fd578063398121a6146102af578063471ade98146102dc5780636b1f7622146102fc578063715018a61461031c57806374c4b95d146103315780638be103371461034457600080fd5b80630422cb161461013a57806308fb5eb2146101705780631ac30e63146101925780632f3195dd146101b257806337c81cd71461028f575b600080fd5b34801561014657600080fd5b5061015a610155366004612473565b6104dc565b60405161016791906124db565b60405180910390f35b34801561017c57600080fd5b5061019061018b366004612473565b610742565b005b34801561019e57600080fd5b506101906101ad366004612473565b6107d5565b3480156101be57600080fd5b506102706101cd366004612563565b6040805180820182526000808252602091820181905282518084018452948152607182528281206001600160a01b039490941681529281528183207fdf8b4c520ffe197c5343c6f5aec59570151ef9a492f2c624fd45ddde6135ec4284528082528284205460ff908116151586527ff38814eec94cecab51d76c4344615af8334e61ee8d4ae6b02411905a54259ece855290825291909220541615159082015290565b6040805182511515815260209283015115159281019290925201610167565b34801561029b57600080fd5b506101906102aa366004612473565b610855565b3480156102bb57600080fd5b506102cf6102ca36600461258f565b6108d5565b6040516101679190612626565b3480156102e857600080fd5b506101906102f7366004612688565b610c6e565b34801561030857600080fd5b506101906103173660046126bd565b610dc8565b34801561032857600080fd5b50610190610dd5565b61019061033f3660046128a9565b610de9565b34801561035057600080fd5b5061019061035f366004612688565b611240565b34801561037057600080fd5b506033546040516001600160a01b039091168152602001610167565b34801561039857600080fd5b5061015a6103a7366004612473565b61139d565b3480156103b857600080fd5b506103cc6103c7366004612984565b61159d565b6040519015158152602001610167565b3480156103e857600080fd5b506101906103f73660046129ae565b6115be565b34801561040857600080fd5b5061041c6104173660046126bd565b61170e565b60405161016791906129f4565b34801561043557600080fd5b5061015a611936565b34801561044a57600080fd5b50606854604051908152602001610167565b34801561046857600080fd5b50610190610477366004612a07565b611aa1565b34801561048857600080fd5b50610190610497366004612473565b611c95565b3480156104a857600080fd5b506102cf6104b73660046126bd565b611d0e565b3480156104c857600080fd5b506101906104d73660046126bd565b61200f565b60675460609060009067ffffffffffffffff8111156104fd576104fd6126d6565b604051908082528060200260200182016040528015610526578160200160208202803683370190505b509050600060015b606754811161058457610541818661205b565b15610572578083838151811061055957610559612a3c565b60209081029190910101528161056e81612a68565b9250505b8061057c81612a68565b91505061052e565b5060008167ffffffffffffffff8111156105a0576105a06126d6565b6040519080825280602002602001820160405280156105d957816020015b6105c661235c565b8152602001906001900390816105be5790505b50905060005b8281101561073957600060018583815181106105fd576105fd612a3c565b602002602001015161060f9190612a83565b90506067818154811061062457610624612a3c565b9060005260206000209060030201604051806060016040529081600082015481526020016001820160009054906101000a90046001600160a01b03166001600160a01b03166001600160a01b0316815260200160028201805461068690612a9a565b80601f01602080910402602001604051908101604052809291908181526020018280546106b290612a9a565b80156106ff5780601f106106d4576101008083540402835291602001916106ff565b820191906000526020600020905b8154815290600101906020018083116106e257829003601f168201915b50505050508152505083838151811061071a5761071a612a3c565b602002602001018190525050808061073190612a68565b9150506105df565b50949350505050565b61074a612112565b6001600160a01b0381166107b35760405162461bcd60e51b815260206004820152602560248201527f6f7065726174696f6e20636f6e74726f6c6c6572206164647265737320697320604482015264626c616e6b60d81b60648201526084015b60405180910390fd5b607080546001600160a01b0319166001600160a01b0392909216919091179055565b6107dd612112565b6001600160a01b0381166108335760405162461bcd60e51b815260206004820152601960248201527f6d696e74206e6674206164647265737320697320626c616e6b0000000000000060448201526064016107aa565b606c80546001600160a01b0319166001600160a01b0392909216919091179055565b61085d612112565b6001600160a01b0381166108b35760405162461bcd60e51b815260206004820152601860248201527f72656c61796572206164647265737320697320626c616e6b000000000000000060448201526064016107aa565b606d80546001600160a01b0319166001600160a01b0392909216919091179055565b606854606090836108e557606493505b606484111561092b5760405162461bcd60e51b81526020600482015260126024820152716c696d697420697320746f6f206c6172676560701b60448201526064016107aa565b808311156109715760405162461bcd60e51b81526020600482015260136024820152726f666673657420697320746f6f206c6172676560681b60448201526064016107aa565b8061097c8486612ad5565b111561098f5761098c8382612a83565b93505b60008467ffffffffffffffff8111156109aa576109aa6126d6565b6040519080825280602002602001820160405280156109e357816020015b6109d0612386565b8152602001906001900390816109c85790505b50905060005b858110156107395760006109fd8287612ad5565b610a08906001612ad5565b610a129085612a83565b10610c5c576068610a238287612ad5565b610a2e906001612ad5565b610a389085612a83565b81548110610a4857610a48612a3c565b90600052602060002090600602016040518060c00160405290816000820154815260200160018201548152602001600282018054610a8590612a9a565b80601f0160208091040260200160405190810160405280929190818152602001828054610ab190612a9a565b8015610afe5780601f10610ad357610100808354040283529160200191610afe565b820191906000526020600020905b815481529060010190602001808311610ae157829003601f168201915b50505050508152602001600382018054610b1790612a9a565b80601f0160208091040260200160405190810160405280929190818152602001828054610b4390612a9a565b8015610b905780601f10610b6557610100808354040283529160200191610b90565b820191906000526020600020905b815481529060010190602001808311610b7357829003601f168201915b50505050508152602001600482018054610ba990612a9a565b80601f0160208091040260200160405190810160405280929190818152602001828054610bd590612a9a565b8015610c225780601f10610bf757610100808354040283529160200191610c22565b820191906000526020600020905b815481529060010190602001808311610c0557829003601f168201915b50505091835250506005919091015460ff1615156020909101528251839083908110610c5057610c50612a3c565b60200260200101819052505b80610c6681612a68565b9150506109e9565b60705460408051635c975abb60e01b815290516001600160a01b03909216918291635c975abb916004808301926020929190829003018186803b158015610cb457600080fd5b505afa158015610cc8573d6000803e3d6000fd5b505050506040513d601f19601f82011682018060405250810190610cec9190612aed565b15610d095760405162461bcd60e51b81526004016107aa90612b0a565b610d13843361216c565b610d4f5760405162461bcd60e51b815260206004820152600d60248201526c139bdd081c195c9b5a5d1d1959609a1b60448201526064016107aa565b610d588261225b565b610d935760405162461bcd60e51b815260206004820152600c60248201526b496e76616c696420726f6c6560a01b60448201526064016107aa565b5060009283526071602090815260408085206001600160a01b039094168552928152828420918452529020805460ff19169055565b610dd0612112565b606e55565b610ddd612112565b610de760006122b0565b565b87610df4813361205b565b610e395760405162461bcd60e51b81526020600482015260166024820152752cb7ba903430bb32903737903832b936b4b9b9b4b7b760511b60448201526064016107aa565b60705460408051635c975abb60e01b815290516001600160a01b03909216918291635c975abb916004808301926020929190829003018186803b158015610e7f57600080fd5b505afa158015610e93573d6000803e3d6000fd5b505050506040513d601f19601f82011682018060405250810190610eb79190612aed565b15610ed45760405162461bcd60e51b81526004016107aa90612b0a565b600086118015610ee65750606f548611155b610f2a5760405162461bcd60e51b81526020600482015260156024820152741b5a5b9d081b1a5b5a5d081a5cc81a5b9d985b1a59605a1b60448201526064016107aa565b841561102757606e54600090610f403a89612b2a565b610f4a9190612b2a565b905080341015610f8f5760405162461bcd60e51b815260206004820152601060248201526f4e6f7420656e6f7567682076616c756560801b60448201526064016107aa565b606d546040516000916001600160a01b03169034908381818185875af1925050503d8060008114610fdc576040519150601f19603f3d011682016040523d82523d6000602084013e610fe1565b606091505b50509050806110245760405162461bcd60e51b815260206004820152600f60248201526e1d1c985b9cd9995c8819985a5b1959608a1b60448201526064016107aa565b50505b600061103260655490565b9050611042606580546001019055565b6040805160c08101825282815260208082018e81529282018d8152606083018d9052608083018c905289151560a084015260688054600181018255600091909152835160069091027fa2153420d844928b4421650203c77babc8b33d7f2e7b450e2966db0c22097753810191825594517fa2153420d844928b4421650203c77babc8b33d7f2e7b450e2966db0c220977548601559051805193949193611111937fa2153420d844928b4421650203c77babc8b33d7f2e7b450e2966db0c220977559093019291909101906123be565b506060820151805161112d9160038401916020909101906123be565b50608082015180516111499160048401916020909101906123be565b5060a091909101516005909101805460ff1916911515919091179055606c5460405163ef3ad9eb60e01b81526001600160a01b0390911690819063ef3ad9eb9061119d9085908c908b908b90600401612b49565b600060405180830381600087803b1580156111b757600080fd5b505af11580156111cb573d6000803e3d6000fd5b50505060008d8152606a60209081526040808320805460018101825590845282842001869055858352606b8252918290208f905590518481523392507fffde68815858e4c88d054382adadf9d3280426c744cf9c1991303ff77afdc1e2910160405180910390a2505050505050505050505050565b60705460408051635c975abb60e01b815290516001600160a01b03909216918291635c975abb916004808301926020929190829003018186803b15801561128657600080fd5b505afa15801561129a573d6000803e3d6000fd5b505050506040513d601f19601f820116820180604052508101906112be9190612aed565b156112db5760405162461bcd60e51b81526004016107aa90612b0a565b6112e5843361216c565b6113215760405162461bcd60e51b815260206004820152600d60248201526c139bdd081c195c9b5a5d1d1959609a1b60448201526064016107aa565b61132a8261225b565b6113655760405162461bcd60e51b815260206004820152600c60248201526b496e76616c696420726f6c6560a01b60448201526064016107aa565b5060009283526071602090815260408085206001600160a01b039094168552928152828420918452529020805460ff19166001179055565b6001600160a01b0381166000908152606960205260408120546067546060928267ffffffffffffffff8111156113d5576113d56126d6565b60405190808252806020026020018201604052801561140e57816020015b6113fb61235c565b8152602001906001900390816113f35790505b5090506000805b8381101561159257866001600160a01b03166067828154811061143a5761143a612a3c565b60009182526020909120600160039092020101546001600160a01b03161415611580576067818154811061147057611470612a3c565b9060005260206000209060030201604051806060016040529081600082015481526020016001820160009054906101000a90046001600160a01b03166001600160a01b03166001600160a01b031681526020016002820180546114d290612a9a565b80601f01602080910402602001604051908101604052809291908181526020018280546114fe90612a9a565b801561154b5780601f106115205761010080835404028352916020019161154b565b820191906000526020600020905b81548152906001019060200180831161152e57829003601f168201915b50505050508152505083838151811061156657611566612a3c565b6020026020010181905250818061157c90612a68565b9250505b8061158a81612a68565b915050611415565b509095945050505050565b6000818152606b60205260408120546115b6818561205b565b949350505050565b600054600290610100900460ff161580156115e0575060005460ff8083169116105b6116435760405162461bcd60e51b815260206004820152602e60248201527f496e697469616c697a61626c653a20636f6e747261637420697320616c72656160448201526d191e481a5b9a5d1a585b1a5e995960921b60648201526084016107aa565b6000805461ffff191660ff83161761010017905561165f612302565b60665415801561166f5750606554155b1561169057611682606680546001019055565b611690606580546001019055565b61169985610855565b6116a284610dc8565b6116ab8361200f565b607080546001600160a01b0319166001600160a01b0384161790556000805461ff001916905560405160ff821681527f7f26b83ff96e1f2b6a682f133852f6798a09c465da95921460cefb38474024989060200160405180910390a15050505050565b611716612386565b6000611723600184612a83565b905060006068828154811061173a5761173a612a3c565b90600052602060002090600602016040518060c0016040529081600082015481526020016001820154815260200160028201805461177790612a9a565b80601f01602080910402602001604051908101604052809291908181526020018280546117a390612a9a565b80156117f05780601f106117c5576101008083540402835291602001916117f0565b820191906000526020600020905b8154815290600101906020018083116117d357829003601f168201915b5050505050815260200160038201805461180990612a9a565b80601f016020809104026020016040519081016040528092919081815260200182805461183590612a9a565b80156118825780601f1061185757610100808354040283529160200191611882565b820191906000526020600020905b81548152906001019060200180831161186557829003601f168201915b5050505050815260200160048201805461189b90612a9a565b80601f01602080910402602001604051908101604052809291908181526020018280546118c790612a9a565b80156119145780601f106118e957610100808354040283529160200191611914565b820191906000526020600020905b8154815290600101906020018083116118f757829003601f168201915b50505091835250506005919091015460ff161515602090910152949350505050565b60675460609060008167ffffffffffffffff811115611957576119576126d6565b60405190808252806020026020018201604052801561199057816020015b61197d61235c565b8152602001906001900390816119755790505b50606780546040805160208084028201810190925282815293945060009084015b82821015611a9557600084815260209081902060408051606081018252600386029092018054835260018101546001600160a01b03169383019390935260028301805492939291840191611a0490612a9a565b80601f0160208091040260200160405190810160405280929190818152602001828054611a3090612a9a565b8015611a7d5780601f10611a5257610100808354040283529160200191611a7d565b820191906000526020600020905b815481529060010190602001808311611a6057829003601f168201915b505050505081525050815260200190600101906119b1565b50929695505050505050565b60705460408051635c975abb60e01b815290516001600160a01b03909216918291635c975abb916004808301926020929190829003018186803b158015611ae757600080fd5b505afa158015611afb573d6000803e3d6000fd5b505050506040513d601f19601f82011682018060405250810190611b1f9190612aed565b15611b3c5760405162461bcd60e51b81526004016107aa90612b0a565b6000611b4760665490565b9050611b57606680546001019055565b6040805160608101825282815233602080830191825292820186815260678054600181018255600091909152835160039091027f9787eeb91fe3101235e4a76063c7023ecb40f923f97916639c598592fa30d6ae810191825592517f9787eeb91fe3101235e4a76063c7023ecb40f923f97916639c598592fa30d6af840180546001600160a01b03929092166001600160a01b03199092169190911790559051805193949193611c2e937f9787eeb91fe3101235e4a76063c7023ecb40f923f97916639c598592fa30d6b0019291909101906123be565b505033600081815260696020908152604080832080546001810182559084529190922001849055519091507f88d8a40d3d79893e13972978642d5fe29930912ee4c0b62a535815945c1d7bd090611c889084815260200190565b60405180910390a2505050565b611c9d612112565b6001600160a01b038116611d025760405162461bcd60e51b815260206004820152602660248201527f4f776e61626c653a206e6577206f776e657220697320746865207a65726f206160448201526564647265737360d01b60648201526084016107aa565b611d0b816122b0565b50565b6000818152606a60205260408120546060918167ffffffffffffffff811115611d3957611d396126d6565b604051908082528060200260200182016040528015611d7257816020015b611d5f612386565b815260200190600190039081611d575790505b50905060005b82811015612007576000858152606a602052604081206001611d9a8487612a83565b611da49190612a83565b81548110611db457611db4612a3c565b906000526020600020015490506068600182611dd09190612a83565b81548110611de057611de0612a3c565b90600052602060002090600602016040518060c00160405290816000820154815260200160018201548152602001600282018054611e1d90612a9a565b80601f0160208091040260200160405190810160405280929190818152602001828054611e4990612a9a565b8015611e965780601f10611e6b57610100808354040283529160200191611e96565b820191906000526020600020905b815481529060010190602001808311611e7957829003601f168201915b50505050508152602001600382018054611eaf90612a9a565b80601f0160208091040260200160405190810160405280929190818152602001828054611edb90612a9a565b8015611f285780601f10611efd57610100808354040283529160200191611f28565b820191906000526020600020905b815481529060010190602001808311611f0b57829003601f168201915b50505050508152602001600482018054611f4190612a9a565b80601f0160208091040260200160405190810160405280929190818152602001828054611f6d90612a9a565b8015611fba5780601f10611f8f57610100808354040283529160200191611fba565b820191906000526020600020905b815481529060010190602001808311611f9d57829003601f168201915b50505091835250506005919091015460ff1615156020909101528351849084908110611fe857611fe8612a3c565b6020026020010181905250508080611fff90612a68565b915050611d78565b509392505050565b612017612112565b806120565760405162461bcd60e51b815260206004820152600f60248201526e06d696e74206c696d6974206973203608c1b60448201526064016107aa565b606f55565b6000808311801561206e57506067548311155b6120ac5760405162461bcd60e51b815260206004820152600f60248201526e125b9d985b1a590819dc9bdd5c1259608a1b60448201526064016107aa565b6120b6838361216c565b8061210b575060008381526071602090815260408083206001600160a01b038616845282528083207ff38814eec94cecab51d76c4344615af8334e61ee8d4ae6b02411905a54259ece845290915290205460ff165b9392505050565b6033546001600160a01b03163314610de75760405162461bcd60e51b815260206004820181905260248201527f4f776e61626c653a2063616c6c6572206973206e6f7420746865206f776e657260448201526064016107aa565b6000808311801561217f57506067548311155b6121bd5760405162461bcd60e51b815260206004820152600f60248201526e125b9d985b1a590819dc9bdd5c1259608a1b60448201526064016107aa565b6001600160a01b03821660676121d4600186612a83565b815481106121e4576121e4612a3c565b60009182526020909120600160039092020101546001600160a01b0316148061210b575060008381526071602090815260408083206001600160a01b038616845282528083207fdf8b4c520ffe197c5343c6f5aec59570151ef9a492f2c624fd45ddde6135ec42845290915290205460ff1661210b565b60007fdf8b4c520ffe197c5343c6f5aec59570151ef9a492f2c624fd45ddde6135ec428214806122aa57507ff38814eec94cecab51d76c4344615af8334e61ee8d4ae6b02411905a54259ece82145b92915050565b603380546001600160a01b038381166001600160a01b0319831681179093556040519116919082907f8be0079c531659141344cd1fd0a4f28419497f9722a3daafe3b4186f6b6457e090600090a35050565b600054610100900460ff166123295760405162461bcd60e51b81526004016107aa90612bd6565b610de7600054610100900460ff166123535760405162461bcd60e51b81526004016107aa90612bd6565b610de7336122b0565b60405180606001604052806000815260200160006001600160a01b03168152602001606081525090565b6040518060c0016040528060008152602001600081526020016060815260200160608152602001606081526020016000151581525090565b8280546123ca90612a9a565b90600052602060002090601f0160209004810192826123ec5760008555612432565b82601f1061240557805160ff1916838001178555612432565b82800160010185558215612432579182015b82811115612432578251825591602001919060010190612417565b5061243e929150612442565b5090565b5b8082111561243e5760008155600101612443565b80356001600160a01b038116811461246e57600080fd5b919050565b60006020828403121561248557600080fd5b61210b82612457565b6000815180845260005b818110156124b457602081850181015186830182015201612498565b818111156124c6576000602083870101525b50601f01601f19169290920160200192915050565b60006020808301818452808551808352604092508286019150828160051b87010184880160005b8381101561255557888303603f19018552815180518452878101516001600160a01b03168885015286015160608785018190526125418186018361248e565b968901969450505090860190600101612502565b509098975050505050505050565b6000806040838503121561257657600080fd5b8235915061258660208401612457565b90509250929050565b600080604083850312156125a257600080fd5b50508035926020909101359150565b80518252602081015160208301526000604082015160c060408501526125da60c085018261248e565b9050606083015184820360608601526125f3828261248e565b9150506080830151848203608086015261260d828261248e565b91505060a0830151151560a08501528091505092915050565b6000602080830181845280855180835260408601915060408160051b870101925083870160005b8281101561267b57603f198886030184526126698583516125b1565b9450928501929085019060010161264d565b5092979650505050505050565b60008060006060848603121561269d57600080fd5b833592506126ad60208501612457565b9150604084013590509250925092565b6000602082840312156126cf57600080fd5b5035919050565b634e487b7160e01b600052604160045260246000fd5b6040805190810167ffffffffffffffff8111828210171561270f5761270f6126d6565b60405290565b604051601f8201601f1916810167ffffffffffffffff8111828210171561273e5761273e6126d6565b604052919050565b600082601f83011261275757600080fd5b813567ffffffffffffffff811115612771576127716126d6565b612784601f8201601f1916602001612715565b81815284602083860101111561279957600080fd5b816020850160208301376000918101602001919091529392505050565b8015158114611d0b57600080fd5b803561246e816127b6565b600082601f8301126127e057600080fd5b8135602067ffffffffffffffff808311156127fd576127fd6126d6565b8260051b61280c838201612715565b938452858101830193838101908886111561282657600080fd5b84880192505b8583101561289d578235848111156128445760008081fd5b88016040818b03601f190181131561285c5760008081fd5b6128646126ec565b87830135878111156128765760008081fd5b6128848d8a83870101612746565b825250910135868201528252918401919084019061282c565b98975050505050505050565b600080600080600080600080610100898b0312156128c657600080fd5b88359750602089013567ffffffffffffffff808211156128e557600080fd5b6128f18c838d01612746565b985060408b013591508082111561290757600080fd5b6129138c838d01612746565b975060608b013591508082111561292957600080fd5b6129358c838d01612746565b965060808b0135955061294a60a08c016127c4565b945060c08b0135935060e08b013591508082111561296757600080fd5b506129748b828c016127cf565b9150509295985092959890939650565b6000806040838503121561299757600080fd5b6129a083612457565b946020939093013593505050565b600080600080608085870312156129c457600080fd5b6129cd85612457565b935060208501359250604085013591506129e960608601612457565b905092959194509250565b60208152600061210b60208301846125b1565b600060208284031215612a1957600080fd5b813567ffffffffffffffff811115612a3057600080fd5b6115b684828501612746565b634e487b7160e01b600052603260045260246000fd5b634e487b7160e01b600052601160045260246000fd5b6000600019821415612a7c57612a7c612a52565b5060010190565b600082821015612a9557612a95612a52565b500390565b600181811c90821680612aae57607f821691505b60208210811415612acf57634e487b7160e01b600052602260045260246000fd5b50919050565b60008219821115612ae857612ae8612a52565b500190565b600060208284031215612aff57600080fd5b815161210b816127b6565b60208082526006908201526514185d5cd95960d21b604082015260600190565b6000816000190483118215151615612b4457612b44612a52565b500290565b60006080820186835260208681850152604086818601526080606086015282865180855260a08701915060a08160051b880101945083880160005b82811015612bc557888703609f1901845281518051868952612ba8878a018261248e565b918801519888019890985296509285019290850190600101612b84565b50949b9a5050505050505050505050565b6020808252602b908201527f496e697469616c697a61626c653a20636f6e7472616374206973206e6f74206960408201526a6e697469616c697a696e6760a81b60608201526080019056fea2646970667358221220f932c1e96fc40060d41ab9ce29df44fae85c25a7830dab640bab8ddb0880655f64736f6c63430008090033",
  "linkReferences": {},
  "deployedLinkReferences": {}
}