{
  "_format": "hh-sol-artifact-1",
  "contractName": "EventManager",
  "sourceName": "contracts/Event.sol",
  "abi": [
    {
      "anonymous": false,
      "inputs": [
        {
          "indexed": true,
          "internalType": "address",
          "name": "owner",
          "type": "address"
        },
        {
          "indexed": false,
          "internalType": "uint256",
          "name": "eventId",
          "type": "uint256"
        }
      ],
      "name": "CreateEvent",
      "type": "event"
    },
    {
      "anonymous": false,
      "inputs": [
        {
          "indexed": true,
          "internalType": "address",
          "name": "owner",
          "type": "address"
        },
        {
          "indexed": false,
          "internalType": "uint256",
          "name": "groupId",
          "type": "uint256"
        }
      ],
      "name": "CreateGroup",
      "type": "event"
    },
    {
      "anonymous": false,
      "inputs": [
        {
          "indexed": false,
          "internalType": "uint8",
          "name": "version",
          "type": "uint8"
        }
      ],
      "name": "Initialized",
      "type": "event"
    },
    {
      "anonymous": false,
      "inputs": [
        {
          "indexed": true,
          "internalType": "address",
          "name": "previousOwner",
          "type": "address"
        },
        {
          "indexed": true,
          "internalType": "address",
          "name": "newOwner",
          "type": "address"
        }
      ],
      "name": "OwnershipTransferred",
      "type": "event"
    },
    {
      "inputs": [
        {
          "internalType": "uint256",
          "name": "_groupId",
          "type": "uint256"
        },
        {
          "internalType": "string",
          "name": "_name",
          "type": "string"
        },
        {
          "internalType": "string",
          "name": "_description",
          "type": "string"
        },
        {
          "internalType": "string",
          "name": "_date",
          "type": "string"
        },
        {
          "internalType": "uint256",
          "name": "_mintLimit",
          "type": "uint256"
        },
        {
          "internalType": "bool",
          "name": "_useMtx",
          "type": "bool"
        },
        {
          "internalType": "string",
          "name": "_secretPhrase",
          "type": "string"
        },
        {
          "components": [
            {
              "internalType": "string",
              "name": "metaDataURL",
              "type": "string"
            },
            {
              "internalType": "uint256",
              "name": "requiredParticipateCount",
              "type": "uint256"
            }
          ],
          "internalType": "struct IMintNFT.NFTAttribute[]",
          "name": "_eventNFTAttributes",
          "type": "tuple[]"
        }
      ],
      "name": "createEventRecord",
      "outputs": [],
      "stateMutability": "payable",
      "type": "function"
    },
    {
      "inputs": [
        {
          "internalType": "string",
          "name": "_name",
          "type": "string"
        }
      ],
      "name": "createGroup",
      "outputs": [],
      "stateMutability": "nonpayable",
      "type": "function"
    },
    {
      "inputs": [
        {
          "internalType": "uint256",
          "name": "_eventId",
          "type": "uint256"
        }
      ],
      "name": "getEventById",
      "outputs": [
        {
          "components": [
            {
              "internalType": "uint256",
              "name": "eventRecordId",
              "type": "uint256"
            },
            {
              "internalType": "uint256",
              "name": "groupId",
              "type": "uint256"
            },
            {
              "internalType": "string",
              "name": "name",
              "type": "string"
            },
            {
              "internalType": "string",
              "name": "description",
              "type": "string"
            },
            {
              "internalType": "string",
              "name": "date",
              "type": "string"
            },
            {
              "internalType": "bool",
              "name": "useMtx",
              "type": "bool"
            }
          ],
          "internalType": "struct EventManager.EventRecord",
          "name": "",
          "type": "tuple"
        }
      ],
      "stateMutability": "view",
      "type": "function"
    },
    {
      "inputs": [],
      "name": "getEventRecords",
      "outputs": [
        {
          "components": [
            {
              "internalType": "uint256",
              "name": "eventRecordId",
              "type": "uint256"
            },
            {
              "internalType": "uint256",
              "name": "groupId",
              "type": "uint256"
            },
            {
              "internalType": "string",
              "name": "name",
              "type": "string"
            },
            {
              "internalType": "string",
              "name": "description",
              "type": "string"
            },
            {
              "internalType": "string",
              "name": "date",
              "type": "string"
            },
            {
              "internalType": "bool",
              "name": "useMtx",
              "type": "bool"
            }
          ],
          "internalType": "struct EventManager.EventRecord[]",
          "name": "",
          "type": "tuple[]"
        }
      ],
      "stateMutability": "view",
      "type": "function"
    },
    {
      "inputs": [],
      "name": "getGroups",
      "outputs": [
        {
          "components": [
            {
              "internalType": "uint256",
              "name": "groupId",
              "type": "uint256"
            },
            {
              "internalType": "address",
              "name": "ownerAddress",
              "type": "address"
            },
            {
              "internalType": "string",
              "name": "name",
              "type": "string"
            }
          ],
          "internalType": "struct EventManager.Group[]",
          "name": "",
          "type": "tuple[]"
        }
      ],
      "stateMutability": "view",
      "type": "function"
    },
    {
      "inputs": [],
      "name": "getOwnGroups",
      "outputs": [
        {
          "components": [
            {
              "internalType": "uint256",
              "name": "groupId",
              "type": "uint256"
            },
            {
              "internalType": "address",
              "name": "ownerAddress",
              "type": "address"
            },
            {
              "internalType": "string",
              "name": "name",
              "type": "string"
            }
          ],
          "internalType": "struct EventManager.Group[]",
          "name": "",
          "type": "tuple[]"
        }
      ],
      "stateMutability": "view",
      "type": "function"
    },
    {
      "inputs": [
        {
          "internalType": "address",
          "name": "_relayerAddr",
          "type": "address"
        },
        {
          "internalType": "uint256",
          "name": "_mtxPrice",
          "type": "uint256"
        },
        {
          "internalType": "uint256",
          "name": "_maxMintLimit",
          "type": "uint256"
        }
      ],
      "name": "initialize",
      "outputs": [],
      "stateMutability": "nonpayable",
      "type": "function"
    },
    {
      "inputs": [],
      "name": "owner",
      "outputs": [
        {
          "internalType": "address",
          "name": "",
          "type": "address"
        }
      ],
      "stateMutability": "view",
      "type": "function"
    },
    {
      "inputs": [],
      "name": "renounceOwnership",
      "outputs": [],
      "stateMutability": "nonpayable",
      "type": "function"
    },
    {
      "inputs": [
        {
          "internalType": "uint256",
          "name": "_mintLimit",
          "type": "uint256"
        }
      ],
      "name": "setMaxMintLimit",
      "outputs": [],
      "stateMutability": "nonpayable",
      "type": "function"
    },
    {
      "inputs": [
        {
          "internalType": "address",
          "name": "_mintNftAddr",
          "type": "address"
        }
      ],
      "name": "setMintNFTAddr",
      "outputs": [],
      "stateMutability": "nonpayable",
      "type": "function"
    },
    {
      "inputs": [
        {
          "internalType": "uint256",
          "name": "_price",
          "type": "uint256"
        }
      ],
      "name": "setMtxPrice",
      "outputs": [],
      "stateMutability": "nonpayable",
      "type": "function"
    },
    {
      "inputs": [
        {
          "internalType": "address",
          "name": "_relayerAddr",
          "type": "address"
        }
      ],
      "name": "setRelayerAddr",
      "outputs": [],
      "stateMutability": "nonpayable",
      "type": "function"
    },
    {
      "inputs": [
        {
          "internalType": "address",
          "name": "newOwner",
          "type": "address"
        }
      ],
      "name": "transferOwnership",
      "outputs": [],
      "stateMutability": "nonpayable",
      "type": "function"
    }
  ],
  "bytecode": "0x608060405234801561001057600080fd5b50612d78806100206000396000f3fe6080604052600436106100dd5760003560e01c8063b98079bc1161007f578063d337483a11610059578063d337483a14610277578063dc2ddcae146102a2578063f2fde38b146102cb578063f926b50c146102f4576100dd565b8063b98079bc146101e4578063be04cc3614610221578063c72b51761461024c576100dd565b8063715018a6116100bb578063715018a61461015d5780637a1ac61e146101745780638da5cb5b1461019d57806390d68b0c146101c8576100dd565b80631ac30e63146100e257806337c81cd71461010b5780636b1f762214610134575b600080fd5b3480156100ee57600080fd5b5061010960048036038101906101049190611ab5565b61031d565b005b34801561011757600080fd5b50610132600480360381019061012d9190611ab5565b6103d9565b005b34801561014057600080fd5b5061015b60048036038101906101569190611b18565b610495565b005b34801561016957600080fd5b506101726104a7565b005b34801561018057600080fd5b5061019b60048036038101906101969190611b45565b6104bb565b005b3480156101a957600080fd5b506101b261062b565b6040516101bf9190611ba7565b60405180910390f35b6101e260048036038101906101dd9190611e9c565b610655565b005b3480156101f057600080fd5b5061020b60048036038101906102069190611b18565b610b38565b604051610218919061211b565b60405180910390f35b34801561022d57600080fd5b50610236610d71565b604051610243919061225e565b60405180910390f35b34801561025857600080fd5b5061026161100b565b60405161026e919061225e565b60405180910390f35b34801561028357600080fd5b5061028c6111c3565b60405161029991906123d9565b60405180910390f35b3480156102ae57600080fd5b506102c960048036038101906102c491906123fb565b61146e565b005b3480156102d757600080fd5b506102f260048036038101906102ed9190611ab5565b61160a565b005b34801561030057600080fd5b5061031b60048036038101906103169190611b18565b61168e565b005b6103256116e4565b600073ffffffffffffffffffffffffffffffffffffffff168173ffffffffffffffffffffffffffffffffffffffff161415610395576040517f08c379a000000000000000000000000000000000000000000000000000000000815260040161038c906124a1565b60405180910390fd5b80606c60006101000a81548173ffffffffffffffffffffffffffffffffffffffff021916908373ffffffffffffffffffffffffffffffffffffffff16021790555050565b6103e16116e4565b600073ffffffffffffffffffffffffffffffffffffffff168173ffffffffffffffffffffffffffffffffffffffff161415610451576040517f08c379a00000000000000000000000000000000000000000000000000000000081526004016104489061250d565b60405180910390fd5b80606d60006101000a81548173ffffffffffffffffffffffffffffffffffffffff021916908373ffffffffffffffffffffffffffffffffffffffff16021790555050565b61049d6116e4565b80606e8190555050565b6104af6116e4565b6104b96000611762565b565b60008060019054906101000a900460ff161590508080156104ec5750600160008054906101000a900460ff1660ff16105b8061051957506104fb30611828565b1580156105185750600160008054906101000a900460ff1660ff16145b5b610558576040517f08c379a000000000000000000000000000000000000000000000000000000000815260040161054f9061259f565b60405180910390fd5b60016000806101000a81548160ff021916908360ff1602179055508015610595576001600060016101000a81548160ff0219169083151502179055505b61059d61184b565b6105a760666118a4565b6105b160656118a4565b6105ba846103d9565b6105c383610495565b6105cc8261168e565b80156106255760008060016101000a81548160ff0219169083151502179055507f7f26b83ff96e1f2b6a682f133852f6798a09c465da95921460cefb3847402498600160405161061c9190612611565b60405180910390a15b50505050565b6000603360009054906101000a900473ffffffffffffffffffffffffffffffffffffffff16905090565b6000841180156106675750606f548411155b6106a6576040517f08c379a000000000000000000000000000000000000000000000000000000000815260040161069d90612678565b60405180910390fd5b6000805b606960003373ffffffffffffffffffffffffffffffffffffffff1673ffffffffffffffffffffffffffffffffffffffff1681526020019081526020016000208054905081101561076f5789606960003373ffffffffffffffffffffffffffffffffffffffff1673ffffffffffffffffffffffffffffffffffffffff168152602001908152602001600020828154811061074657610745612698565b5b9060005260206000200154141561075c57600191505b8080610767906126f6565b9150506106aa565b50806107b0576040517f08c379a00000000000000000000000000000000000000000000000000000000081526004016107a79061278b565b60405180910390fd5b83156108e7576000606e543a876107c791906127ab565b6107d191906127ab565b905080341015610816576040517f08c379a000000000000000000000000000000000000000000000000000000000815260040161080d90612851565b60405180910390fd5b6000606d60009054906101000a900473ffffffffffffffffffffffffffffffffffffffff1673ffffffffffffffffffffffffffffffffffffffff163460405161085e906128a2565b60006040518083038185875af1925050503d806000811461089b576040519150601f19603f3d011682016040523d82523d6000602084013e6108a0565b606091505b50509050806108e4576040517f08c379a00000000000000000000000000000000000000000000000000000000081526004016108db90612903565b60405180910390fd5b50505b60006108f360656118ba565b90506108ff60656118a4565b60686040518060c001604052808381526020018c81526020018b81526020018a8152602001898152602001871515815250908060018154018082558091505060019003906000526020600020906006020160009091909190915060008201518160000155602082015181600101556040820151816002019080519060200190610989929190611931565b5060608201518160030190805190602001906109a6929190611931565b5060808201518160040190805190602001906109c3929190611931565b5060a08201518160050160006101000a81548160ff02191690831515021790555050506000848051906020012090506000606c60009054906101000a900473ffffffffffffffffffffffffffffffffffffffff1690508073ffffffffffffffffffffffffffffffffffffffff1663ef3ad9eb848a85896040518563ffffffff1660e01b8152600401610a589493929190612a4a565b600060405180830381600087803b158015610a7257600080fd5b505af1158015610a86573d6000803e3d6000fd5b50505050606a60008d81526020019081526020016000208390806001815401808255809150506001900390600052602060002001600090919091909150558b606b6000858152602001908152602001600020819055503373ffffffffffffffffffffffffffffffffffffffff167fffde68815858e4c88d054382adadf9d3280426c744cf9c1991303ff77afdc1e284604051610b229190612a96565b60405180910390a2505050505050505050505050565b610b406119b7565b6000600183610b4f9190612ab1565b9050600060688281548110610b6757610b66612698565b5b90600052602060002090600602016040518060c00160405290816000820154815260200160018201548152602001600282018054610ba490612b14565b80601f0160208091040260200160405190810160405280929190818152602001828054610bd090612b14565b8015610c1d5780601f10610bf257610100808354040283529160200191610c1d565b820191906000526020600020905b815481529060010190602001808311610c0057829003601f168201915b50505050508152602001600382018054610c3690612b14565b80601f0160208091040260200160405190810160405280929190818152602001828054610c6290612b14565b8015610caf5780601f10610c8457610100808354040283529160200191610caf565b820191906000526020600020905b815481529060010190602001808311610c9257829003601f168201915b50505050508152602001600482018054610cc890612b14565b80601f0160208091040260200160405190810160405280929190818152602001828054610cf490612b14565b8015610d415780601f10610d1657610100808354040283529160200191610d41565b820191906000526020600020905b815481529060010190602001808311610d2457829003601f168201915b505050505081526020016005820160009054906101000a900460ff16151515158152505090508092505050919050565b60606000606960003373ffffffffffffffffffffffffffffffffffffffff1673ffffffffffffffffffffffffffffffffffffffff1681526020019081526020016000208054905090506000606780549050905060008267ffffffffffffffff811115610de057610ddf611bdd565b5b604051908082528060200260200182016040528015610e1957816020015b610e066119ef565b815260200190600190039081610dfe5790505b5090506000805b83811015611000573373ffffffffffffffffffffffffffffffffffffffff1660678281548110610e5357610e52612698565b5b906000526020600020906003020160010160009054906101000a900473ffffffffffffffffffffffffffffffffffffffff1673ffffffffffffffffffffffffffffffffffffffff161415610fed5760678181548110610eb557610eb4612698565b5b9060005260206000209060030201604051806060016040529081600082015481526020016001820160009054906101000a900473ffffffffffffffffffffffffffffffffffffffff1673ffffffffffffffffffffffffffffffffffffffff1673ffffffffffffffffffffffffffffffffffffffff168152602001600282018054610f3e90612b14565b80601f0160208091040260200160405190810160405280929190818152602001828054610f6a90612b14565b8015610fb75780601f10610f8c57610100808354040283529160200191610fb7565b820191906000526020600020905b815481529060010190602001808311610f9a57829003601f168201915b505050505081525050838381518110610fd357610fd2612698565b5b60200260200101819052508180610fe9906126f6565b9250505b8080610ff8906126f6565b915050610e20565b508194505050505090565b60606000606780549050905060008167ffffffffffffffff81111561103357611032611bdd565b5b60405190808252806020026020018201604052801561106c57816020015b6110596119ef565b8152602001906001900390816110515790505b5090506067805480602002602001604051908101604052809291908181526020016000905b828210156111b55783829060005260206000209060030201604051806060016040529081600082015481526020016001820160009054906101000a900473ffffffffffffffffffffffffffffffffffffffff1673ffffffffffffffffffffffffffffffffffffffff1673ffffffffffffffffffffffffffffffffffffffff16815260200160028201805461112490612b14565b80601f016020809104026020016040519081016040528092919081815260200182805461115090612b14565b801561119d5780601f106111725761010080835404028352916020019161119d565b820191906000526020600020905b81548152906001019060200180831161118057829003601f168201915b50505050508152505081526020019060010190611091565b505050509050809250505090565b60606000606880549050905060008167ffffffffffffffff8111156111eb576111ea611bdd565b5b60405190808252806020026020018201604052801561122457816020015b6112116119b7565b8152602001906001900390816112095790505b5090506068805480602002602001604051908101604052809291908181526020016000905b8282101561146057838290600052602060002090600602016040518060c0016040529081600082015481526020016001820154815260200160028201805461129090612b14565b80601f01602080910402602001604051908101604052809291908181526020018280546112bc90612b14565b80156113095780601f106112de57610100808354040283529160200191611309565b820191906000526020600020905b8154815290600101906020018083116112ec57829003601f168201915b5050505050815260200160038201805461132290612b14565b80601f016020809104026020016040519081016040528092919081815260200182805461134e90612b14565b801561139b5780601f106113705761010080835404028352916020019161139b565b820191906000526020600020905b81548152906001019060200180831161137e57829003601f168201915b505050505081526020016004820180546113b490612b14565b80601f01602080910402602001604051908101604052809291908181526020018280546113e090612b14565b801561142d5780601f106114025761010080835404028352916020019161142d565b820191906000526020600020905b81548152906001019060200180831161141057829003601f168201915b505050505081526020016005820160009054906101000a900460ff16151515158152505081526020019060010190611249565b505050509050809250505090565b600061147a60666118ba565b905061148660666118a4565b606760405180606001604052808381526020013373ffffffffffffffffffffffffffffffffffffffff1681526020018481525090806001815401808255809150506001900390600052602060002090600302016000909190919091506000820151816000015560208201518160010160006101000a81548173ffffffffffffffffffffffffffffffffffffffff021916908373ffffffffffffffffffffffffffffffffffffffff160217905550604082015181600201908051906020019061154f929190611931565b505050606960003373ffffffffffffffffffffffffffffffffffffffff1673ffffffffffffffffffffffffffffffffffffffff1681526020019081526020016000208190806001815401808255809150506001900390600052602060002001600090919091909150553373ffffffffffffffffffffffffffffffffffffffff167f88d8a40d3d79893e13972978642d5fe29930912ee4c0b62a535815945c1d7bd0826040516115fe9190612a96565b60405180910390a25050565b6116126116e4565b600073ffffffffffffffffffffffffffffffffffffffff168173ffffffffffffffffffffffffffffffffffffffff161415611682576040517f08c379a000000000000000000000000000000000000000000000000000000000815260040161167990612bb8565b60405180910390fd5b61168b81611762565b50565b6116966116e4565b60008114156116da576040517f08c379a00000000000000000000000000000000000000000000000000000000081526004016116d190612c24565b60405180910390fd5b80606f8190555050565b6116ec6118c8565b73ffffffffffffffffffffffffffffffffffffffff1661170a61062b565b73ffffffffffffffffffffffffffffffffffffffff1614611760576040517f08c379a000000000000000000000000000000000000000000000000000000000815260040161175790612c90565b60405180910390fd5b565b6000603360009054906101000a900473ffffffffffffffffffffffffffffffffffffffff16905081603360006101000a81548173ffffffffffffffffffffffffffffffffffffffff021916908373ffffffffffffffffffffffffffffffffffffffff1602179055508173ffffffffffffffffffffffffffffffffffffffff168173ffffffffffffffffffffffffffffffffffffffff167f8be0079c531659141344cd1fd0a4f28419497f9722a3daafe3b4186f6b6457e060405160405180910390a35050565b6000808273ffffffffffffffffffffffffffffffffffffffff163b119050919050565b600060019054906101000a900460ff1661189a576040517f08c379a000000000000000000000000000000000000000000000000000000000815260040161189190612d22565b60405180910390fd5b6118a26118d0565b565b6001816000016000828254019250508190555050565b600081600001549050919050565b600033905090565b600060019054906101000a900460ff1661191f576040517f08c379a000000000000000000000000000000000000000000000000000000000815260040161191690612d22565b60405180910390fd5b61192f61192a6118c8565b611762565b565b82805461193d90612b14565b90600052602060002090601f01602090048101928261195f57600085556119a6565b82601f1061197857805160ff19168380011785556119a6565b828001600101855582156119a6579182015b828111156119a557825182559160200191906001019061198a565b5b5090506119b39190611a26565b5090565b6040518060c0016040528060008152602001600081526020016060815260200160608152602001606081526020016000151581525090565b604051806060016040528060008152602001600073ffffffffffffffffffffffffffffffffffffffff168152602001606081525090565b5b80821115611a3f576000816000905550600101611a27565b5090565b6000604051905090565b600080fd5b600080fd5b600073ffffffffffffffffffffffffffffffffffffffff82169050919050565b6000611a8282611a57565b9050919050565b611a9281611a77565b8114611a9d57600080fd5b50565b600081359050611aaf81611a89565b92915050565b600060208284031215611acb57611aca611a4d565b5b6000611ad984828501611aa0565b91505092915050565b6000819050919050565b611af581611ae2565b8114611b0057600080fd5b50565b600081359050611b1281611aec565b92915050565b600060208284031215611b2e57611b2d611a4d565b5b6000611b3c84828501611b03565b91505092915050565b600080600060608486031215611b5e57611b5d611a4d565b5b6000611b6c86828701611aa0565b9350506020611b7d86828701611b03565b9250506040611b8e86828701611b03565b9150509250925092565b611ba181611a77565b82525050565b6000602082019050611bbc6000830184611b98565b92915050565b600080fd5b600080fd5b6000601f19601f8301169050919050565b7f4e487b7100000000000000000000000000000000000000000000000000000000600052604160045260246000fd5b611c1582611bcc565b810181811067ffffffffffffffff82111715611c3457611c33611bdd565b5b80604052505050565b6000611c47611a43565b9050611c538282611c0c565b919050565b600067ffffffffffffffff821115611c7357611c72611bdd565b5b611c7c82611bcc565b9050602081019050919050565b82818337600083830152505050565b6000611cab611ca684611c58565b611c3d565b905082815260208101848484011115611cc757611cc6611bc7565b5b611cd2848285611c89565b509392505050565b600082601f830112611cef57611cee611bc2565b5b8135611cff848260208601611c98565b91505092915050565b60008115159050919050565b611d1d81611d08565b8114611d2857600080fd5b50565b600081359050611d3a81611d14565b92915050565b600067ffffffffffffffff821115611d5b57611d5a611bdd565b5b602082029050602081019050919050565b600080fd5b600080fd5b600080fd5b600060408284031215611d9157611d90611d71565b5b611d9b6040611c3d565b9050600082013567ffffffffffffffff811115611dbb57611dba611d76565b5b611dc784828501611cda565b6000830152506020611ddb84828501611b03565b60208301525092915050565b6000611dfa611df584611d40565b611c3d565b90508083825260208201905060208402830185811115611e1d57611e1c611d6c565b5b835b81811015611e6457803567ffffffffffffffff811115611e4257611e41611bc2565b5b808601611e4f8982611d7b565b85526020850194505050602081019050611e1f565b5050509392505050565b600082601f830112611e8357611e82611bc2565b5b8135611e93848260208601611de7565b91505092915050565b600080600080600080600080610100898b031215611ebd57611ebc611a4d565b5b6000611ecb8b828c01611b03565b985050602089013567ffffffffffffffff811115611eec57611eeb611a52565b5b611ef88b828c01611cda565b975050604089013567ffffffffffffffff811115611f1957611f18611a52565b5b611f258b828c01611cda565b965050606089013567ffffffffffffffff811115611f4657611f45611a52565b5b611f528b828c01611cda565b9550506080611f638b828c01611b03565b94505060a0611f748b828c01611d2b565b93505060c089013567ffffffffffffffff811115611f9557611f94611a52565b5b611fa18b828c01611cda565b92505060e089013567ffffffffffffffff811115611fc257611fc1611a52565b5b611fce8b828c01611e6e565b9150509295985092959890939650565b611fe781611ae2565b82525050565b600081519050919050565b600082825260208201905092915050565b60005b8381101561202757808201518184015260208101905061200c565b83811115612036576000848401525b50505050565b600061204782611fed565b6120518185611ff8565b9350612061818560208601612009565b61206a81611bcc565b840191505092915050565b61207e81611d08565b82525050565b600060c08301600083015161209c6000860182611fde565b5060208301516120af6020860182611fde565b50604083015184820360408601526120c7828261203c565b915050606083015184820360608601526120e1828261203c565b915050608083015184820360808601526120fb828261203c565b91505060a083015161211060a0860182612075565b508091505092915050565b600060208201905081810360008301526121358184612084565b905092915050565b600081519050919050565b600082825260208201905092915050565b6000819050602082019050919050565b61217281611a77565b82525050565b60006060830160008301516121906000860182611fde565b5060208301516121a36020860182612169565b50604083015184820360408601526121bb828261203c565b9150508091505092915050565b60006121d48383612178565b905092915050565b6000602082019050919050565b60006121f48261213d565b6121fe8185612148565b93508360208202850161221085612159565b8060005b8581101561224c578484038952815161222d85826121c8565b9450612238836121dc565b925060208a01995050600181019050612214565b50829750879550505050505092915050565b6000602082019050818103600083015261227881846121e9565b905092915050565b600081519050919050565b600082825260208201905092915050565b6000819050602082019050919050565b600060c0830160008301516122c46000860182611fde565b5060208301516122d76020860182611fde565b50604083015184820360408601526122ef828261203c565b91505060608301518482036060860152612309828261203c565b91505060808301518482036080860152612323828261203c565b91505060a083015161233860a0860182612075565b508091505092915050565b600061234f83836122ac565b905092915050565b6000602082019050919050565b600061236f82612280565b612379818561228b565b93508360208202850161238b8561229c565b8060005b858110156123c757848403895281516123a88582612343565b94506123b383612357565b925060208a0199505060018101905061238f565b50829750879550505050505092915050565b600060208201905081810360008301526123f38184612364565b905092915050565b60006020828403121561241157612410611a4d565b5b600082013567ffffffffffffffff81111561242f5761242e611a52565b5b61243b84828501611cda565b91505092915050565b600082825260208201905092915050565b7f6d696e74206e6674206164647265737320697320626c616e6b00000000000000600082015250565b600061248b601983612444565b915061249682612455565b602082019050919050565b600060208201905081810360008301526124ba8161247e565b9050919050565b7f72656c61796572206164647265737320697320626c616e6b0000000000000000600082015250565b60006124f7601883612444565b9150612502826124c1565b602082019050919050565b60006020820190508181036000830152612526816124ea565b9050919050565b7f496e697469616c697a61626c653a20636f6e747261637420697320616c72656160008201527f647920696e697469616c697a6564000000000000000000000000000000000000602082015250565b6000612589602e83612444565b91506125948261252d565b604082019050919050565b600060208201905081810360008301526125b88161257c565b9050919050565b6000819050919050565b600060ff82169050919050565b6000819050919050565b60006125fb6125f66125f1846125bf565b6125d6565b6125c9565b9050919050565b61260b816125e0565b82525050565b60006020820190506126266000830184612602565b92915050565b7f6d696e74206c696d697420697320696e76616c69640000000000000000000000600082015250565b6000612662601583612444565b915061266d8261262c565b602082019050919050565b6000602082019050818103600083015261269181612655565b9050919050565b7f4e487b7100000000000000000000000000000000000000000000000000000000600052603260045260246000fd5b7f4e487b7100000000000000000000000000000000000000000000000000000000600052601160045260246000fd5b600061270182611ae2565b91507fffffffffffffffffffffffffffffffffffffffffffffffffffffffffffffffff821415612734576127336126c7565b5b600182019050919050565b7f596f7520617265206e6f742067726f7570206f776e6572000000000000000000600082015250565b6000612775601783612444565b91506127808261273f565b602082019050919050565b600060208201905081810360008301526127a481612768565b9050919050565b60006127b682611ae2565b91506127c183611ae2565b9250817fffffffffffffffffffffffffffffffffffffffffffffffffffffffffffffffff04831182151516156127fa576127f96126c7565b5b828202905092915050565b7f4e6f7420656e6f7567682076616c756500000000000000000000000000000000600082015250565b600061283b601083612444565b915061284682612805565b602082019050919050565b6000602082019050818103600083015261286a8161282e565b9050919050565b600081905092915050565b50565b600061288c600083612871565b91506128978261287c565b600082019050919050565b60006128ad8261287f565b9150819050919050565b7f7472616e73666572206661696c65640000000000000000000000000000000000600082015250565b60006128ed600f83612444565b91506128f8826128b7565b602082019050919050565b6000602082019050818103600083015261291c816128e0565b9050919050565b61292c81611ae2565b82525050565b6000819050919050565b61294581612932565b82525050565b600081519050919050565b600082825260208201905092915050565b6000819050602082019050919050565b60006040830160008301518482036000860152612994828261203c565b91505060208301516129a96020860182611fde565b508091505092915050565b60006129c08383612977565b905092915050565b6000602082019050919050565b60006129e08261294b565b6129ea8185612956565b9350836020820285016129fc85612967565b8060005b85811015612a385784840389528151612a1985826129b4565b9450612a24836129c8565b925060208a01995050600181019050612a00565b50829750879550505050505092915050565b6000608082019050612a5f6000830187612923565b612a6c6020830186612923565b612a79604083018561293c565b8181036060830152612a8b81846129d5565b905095945050505050565b6000602082019050612aab6000830184612923565b92915050565b6000612abc82611ae2565b9150612ac783611ae2565b925082821015612ada57612ad96126c7565b5b828203905092915050565b7f4e487b7100000000000000000000000000000000000000000000000000000000600052602260045260246000fd5b60006002820490506001821680612b2c57607f821691505b60208210811415612b4057612b3f612ae5565b5b50919050565b7f4f776e61626c653a206e6577206f776e657220697320746865207a65726f206160008201527f6464726573730000000000000000000000000000000000000000000000000000602082015250565b6000612ba2602683612444565b9150612bad82612b46565b604082019050919050565b60006020820190508181036000830152612bd181612b95565b9050919050565b7f6d696e74206c696d697420697320300000000000000000000000000000000000600082015250565b6000612c0e600f83612444565b9150612c1982612bd8565b602082019050919050565b60006020820190508181036000830152612c3d81612c01565b9050919050565b7f4f776e61626c653a2063616c6c6572206973206e6f7420746865206f776e6572600082015250565b6000612c7a602083612444565b9150612c8582612c44565b602082019050919050565b60006020820190508181036000830152612ca981612c6d565b9050919050565b7f496e697469616c697a61626c653a20636f6e7472616374206973206e6f74206960008201527f6e697469616c697a696e67000000000000000000000000000000000000000000602082015250565b6000612d0c602b83612444565b9150612d1782612cb0565b604082019050919050565b60006020820190508181036000830152612d3b81612cff565b905091905056fea26469706673582212204f826b5da80ccb76a958828ad74ebfb0fb7815fee45df76e80342df4f5e8dcd664736f6c63430008090033",
  "linkReferences": {},
  "deployedLinkReferences": {}
}