{
  "_format": "hh-sol-artifact-1",
  "contractName": "EventManager",
  "sourceName": "contracts/Event.sol",
  "abi": [
    {
      "inputs": [],
      "stateMutability": "nonpayable",
      "type": "constructor"
    },
    {
      "anonymous": false,
      "inputs": [
        {
          "indexed": true,
          "internalType": "address",
          "name": "previousOwner",
          "type": "address"
        },
        {
          "indexed": true,
          "internalType": "address",
          "name": "newOwner",
          "type": "address"
        }
      ],
      "name": "OwnershipTransferred",
      "type": "event"
    },
    {
      "inputs": [
        {
          "internalType": "uint256",
          "name": "_eventRecordId",
          "type": "uint256"
        }
      ],
      "name": "applyForParticipation",
      "outputs": [],
      "stateMutability": "nonpayable",
      "type": "function"
    },
    {
      "inputs": [
        {
          "internalType": "address",
          "name": "_participantAddress",
          "type": "address"
        },
        {
          "internalType": "uint256",
          "name": "_groupId",
          "type": "uint256"
        }
      ],
      "name": "countParticipationByGroup",
      "outputs": [
        {
          "internalType": "uint256",
          "name": "",
          "type": "uint256"
        }
      ],
      "stateMutability": "view",
      "type": "function"
    },
    {
      "inputs": [
        {
          "internalType": "uint256",
          "name": "_groupId",
          "type": "uint256"
        },
        {
          "internalType": "string",
          "name": "_name",
          "type": "string"
        },
        {
          "internalType": "string",
          "name": "_description",
          "type": "string"
        },
        {
          "internalType": "string",
          "name": "_date",
          "type": "string"
        },
        {
          "internalType": "string",
          "name": "_startTime",
          "type": "string"
        },
        {
          "internalType": "string",
          "name": "_endTime",
          "type": "string"
        },
        {
          "internalType": "string",
          "name": "_secretPhrase",
          "type": "string"
        }
      ],
      "name": "createEventRecord",
      "outputs": [],
      "stateMutability": "nonpayable",
      "type": "function"
    },
    {
      "inputs": [
        {
          "internalType": "string",
          "name": "_name",
          "type": "string"
        },
        {
          "components": [
            {
              "internalType": "string",
              "name": "image",
              "type": "string"
            },
            {
              "internalType": "string",
              "name": "description",
              "type": "string"
            },
            {
              "internalType": "uint256",
              "name": "requiredParticipateCount",
              "type": "uint256"
            }
          ],
          "internalType": "struct EventManager.GroupAttributes[]",
          "name": "_groupAttributes",
          "type": "tuple[]"
        }
      ],
      "name": "createGroup",
      "outputs": [],
      "stateMutability": "nonpayable",
      "type": "function"
    },
    {
      "inputs": [
        {
          "internalType": "uint256",
          "name": "_eventId",
          "type": "uint256"
        }
      ],
      "name": "getEventById",
      "outputs": [
        {
          "components": [
            {
              "internalType": "uint256",
              "name": "eventRecordId",
              "type": "uint256"
            },
            {
              "internalType": "uint256",
              "name": "groupId",
              "type": "uint256"
            },
            {
              "internalType": "string",
              "name": "name",
              "type": "string"
            },
            {
              "internalType": "string",
              "name": "description",
              "type": "string"
            },
            {
              "internalType": "string",
              "name": "date",
              "type": "string"
            },
            {
              "internalType": "string",
              "name": "startTime",
              "type": "string"
            },
            {
              "internalType": "string",
              "name": "endTime",
              "type": "string"
            },
            {
              "internalType": "bytes32",
              "name": "secretPhrase",
              "type": "bytes32"
            }
          ],
          "internalType": "struct EventManager.EventRecord",
          "name": "",
          "type": "tuple"
        }
      ],
      "stateMutability": "view",
      "type": "function"
    },
    {
      "inputs": [],
      "name": "getEventRecords",
      "outputs": [
        {
          "components": [
            {
              "internalType": "uint256",
              "name": "eventRecordId",
              "type": "uint256"
            },
            {
              "internalType": "uint256",
              "name": "groupId",
              "type": "uint256"
            },
            {
              "internalType": "string",
              "name": "name",
              "type": "string"
            },
            {
              "internalType": "string",
              "name": "description",
              "type": "string"
            },
            {
              "internalType": "string",
              "name": "date",
              "type": "string"
            },
            {
              "internalType": "string",
              "name": "startTime",
              "type": "string"
            },
            {
              "internalType": "string",
              "name": "endTime",
              "type": "string"
            },
            {
              "internalType": "bytes32",
              "name": "secretPhrase",
              "type": "bytes32"
            }
          ],
          "internalType": "struct EventManager.EventRecord[]",
          "name": "",
          "type": "tuple[]"
        }
      ],
      "stateMutability": "view",
      "type": "function"
    },
    {
      "inputs": [],
      "name": "getGroups",
      "outputs": [
        {
          "components": [
            {
              "internalType": "uint256",
              "name": "groupId",
              "type": "uint256"
            },
            {
              "internalType": "address",
              "name": "ownerAddress",
              "type": "address"
            },
            {
              "internalType": "string",
              "name": "name",
              "type": "string"
            }
          ],
          "internalType": "struct EventManager.Group[]",
          "name": "",
          "type": "tuple[]"
        }
      ],
      "stateMutability": "view",
      "type": "function"
    },
    {
      "inputs": [],
      "name": "getOwnGroups",
      "outputs": [
        {
          "components": [
            {
              "internalType": "uint256",
              "name": "groupId",
              "type": "uint256"
            },
            {
              "internalType": "address",
              "name": "ownerAddress",
              "type": "address"
            },
            {
              "internalType": "string",
              "name": "name",
              "type": "string"
            }
          ],
          "internalType": "struct EventManager.Group[]",
          "name": "",
          "type": "tuple[]"
        }
      ],
      "stateMutability": "view",
      "type": "function"
    },
    {
      "inputs": [],
      "name": "getParticipationEventIds",
      "outputs": [
        {
          "internalType": "uint256[]",
          "name": "",
          "type": "uint256[]"
        }
      ],
      "stateMutability": "view",
      "type": "function"
    },
    {
      "inputs": [],
      "name": "owner",
      "outputs": [
        {
          "internalType": "address",
          "name": "",
          "type": "address"
        }
      ],
      "stateMutability": "view",
      "type": "function"
    },
    {
      "inputs": [],
      "name": "renounceOwnership",
      "outputs": [],
      "stateMutability": "nonpayable",
      "type": "function"
    },
    {
      "inputs": [
        {
          "internalType": "address",
          "name": "_mintNftAddr",
          "type": "address"
        }
      ],
      "name": "setMintNFTAddr",
      "outputs": [],
      "stateMutability": "nonpayable",
      "type": "function"
    },
    {
      "inputs": [],
      "name": "testConnection",
      "outputs": [
        {
          "internalType": "string",
          "name": "",
          "type": "string"
        }
      ],
      "stateMutability": "pure",
      "type": "function"
    },
    {
      "inputs": [
        {
          "internalType": "address",
          "name": "newOwner",
          "type": "address"
        }
      ],
      "name": "transferOwnership",
      "outputs": [],
      "stateMutability": "nonpayable",
      "type": "function"
    },
    {
      "inputs": [
        {
          "internalType": "string",
          "name": "_secretPhrase",
          "type": "string"
        },
        {
          "internalType": "uint256",
          "name": "_eventRecordId",
          "type": "uint256"
        }
      ],
      "name": "verifySecretPhrase",
      "outputs": [
        {
          "internalType": "bool",
          "name": "",
          "type": "bool"
        }
      ],
      "stateMutability": "view",
      "type": "function"
    }
  ],
  "bytecode": "0x60806040523480156200001157600080fd5b5062000032620000266200006660201b60201c565b6200006e60201b60201c565b6200004960026200013260201b62001aa51760201c565b6200006060016200013260201b62001aa51760201c565b62000148565b600033905090565b60008060009054906101000a900473ffffffffffffffffffffffffffffffffffffffff169050816000806101000a81548173ffffffffffffffffffffffffffffffffffffffff021916908373ffffffffffffffffffffffffffffffffffffffff1602179055508173ffffffffffffffffffffffffffffffffffffffff168173ffffffffffffffffffffffffffffffffffffffff167f8be0079c531659141344cd1fd0a4f28419497f9722a3daafe3b4186f6b6457e060405160405180910390a35050565b6001816000016000828254019250508190555050565b612dd980620001586000396000f3fe608060405234801561001057600080fd5b50600436106100f55760003560e01c8063be04cc3611610097578063e37c24fe11610066578063e37c24fe1461024e578063f2be2f6d1461027e578063f2fde38b1461029a578063f321060a146102b6576100f5565b8063be04cc36146101d8578063c72b5176146101f6578063ccf7349914610214578063d337483a14610230576100f5565b806345e46c69116100d357806345e46c6914610164578063715018a6146101805780638da5cb5b1461018a578063b98079bc146101a8576100f5565b806306fe6dec146100fa5780631ac30e631461012a5780633412a15c14610146575b600080fd5b610114600480360381019061010f9190611f66565b6102d4565b60405161012191906128be565b60405180910390f35b610144600480360381019061013f9190611f3d565b6103df565b005b61014e61042b565b60405161015b919061281a565b60405180910390f35b61017e60048036038101906101799190612062565b61046e565b005b6101886105ca565b005b6101926105de565b60405161019f919061277e565b60405180910390f35b6101c260048036038101906101bd9190612062565b610607565b6040516101cf919061289c565b60405180910390f35b6101e061097a565b6040516101ed91906127bb565b60405180910390f35b6101fe610cac565b60405161020b91906127bb565b60405180910390f35b61022e60048036038101906102299190611fa2565b610e8a565b005b610238611251565b6040516102459190612799565b60405180910390f35b6102686004803603810190610263919061200e565b611636565b60405161027591906127ff565b60405180910390f35b6102986004803603810190610293919061208b565b6116b8565b005b6102b460048036038101906102af9190611f3d565b611986565b005b6102be611a0a565b6040516102cb91906127dd565b60405180910390f35b600080600760008573ffffffffffffffffffffffffffffffffffffffff1673ffffffffffffffffffffffffffffffffffffffff1681526020019081526020016000208054905090506000805b828110156103d35784600760008873ffffffffffffffffffffffffffffffffffffffff1673ffffffffffffffffffffffffffffffffffffffff16815260200190815260200160002082815481106103a0577f4e487b7100000000000000000000000000000000000000000000000000000000600052603260045260246000fd5b906000526020600020015414156103c05781806103bc90612bc7565b9250505b80806103cb90612bc7565b915050610320565b50809250505092915050565b6103e7611abb565b80600b60006101000a81548173ffffffffffffffffffffffffffffffffffffffff021916908373ffffffffffffffffffffffffffffffffffffffff16021790555050565b606060006040518060400160405280601a81526020017f5465737420636f6e6e656374696f6e207375636365737366756c00000000000081525090508091505090565b60066000828152602001908152602001600020339080600181540180825580915050600190039060005260206000200160009091909190916101000a81548173ffffffffffffffffffffffffffffffffffffffff021916908373ffffffffffffffffffffffffffffffffffffffff160217905550600860003373ffffffffffffffffffffffffffffffffffffffff1673ffffffffffffffffffffffffffffffffffffffff1681526020019081526020016000208190806001815401808255809150506001900390600052602060002001600090919091909150556000600a6000838152602001908152602001600020549050600760003373ffffffffffffffffffffffffffffffffffffffff1673ffffffffffffffffffffffffffffffffffffffff1681526020019081526020016000208190806001815401808255809150506001900390600052602060002001600090919091909150555050565b6105d2611abb565b6105dc6000611b39565b565b60008060009054906101000a900473ffffffffffffffffffffffffffffffffffffffff16905090565b61060f611c13565b600060018361061e9190612a9c565b905060006004828154811061065c577f4e487b7100000000000000000000000000000000000000000000000000000000600052603260045260246000fd5b906000526020600020906008020160405180610100016040529081600082015481526020016001820154815260200160028201805461069a90612b64565b80601f01602080910402602001604051908101604052809291908181526020018280546106c690612b64565b80156107135780601f106106e857610100808354040283529160200191610713565b820191906000526020600020905b8154815290600101906020018083116106f657829003601f168201915b5050505050815260200160038201805461072c90612b64565b80601f016020809104026020016040519081016040528092919081815260200182805461075890612b64565b80156107a55780601f1061077a576101008083540402835291602001916107a5565b820191906000526020600020905b81548152906001019060200180831161078857829003601f168201915b505050505081526020016004820180546107be90612b64565b80601f01602080910402602001604051908101604052809291908181526020018280546107ea90612b64565b80156108375780601f1061080c57610100808354040283529160200191610837565b820191906000526020600020905b81548152906001019060200180831161081a57829003601f168201915b5050505050815260200160058201805461085090612b64565b80601f016020809104026020016040519081016040528092919081815260200182805461087c90612b64565b80156108c95780601f1061089e576101008083540402835291602001916108c9565b820191906000526020600020905b8154815290600101906020018083116108ac57829003601f168201915b505050505081526020016006820180546108e290612b64565b80601f016020809104026020016040519081016040528092919081815260200182805461090e90612b64565b801561095b5780601f106109305761010080835404028352916020019161095b565b820191906000526020600020905b81548152906001019060200180831161093e57829003601f168201915b5050505050815260200160078201548152505090508092505050919050565b60606000600560003373ffffffffffffffffffffffffffffffffffffffff1673ffffffffffffffffffffffffffffffffffffffff1681526020019081526020016000208054905090506000600380549050905060008267ffffffffffffffff811115610a0f577f4e487b7100000000000000000000000000000000000000000000000000000000600052604160045260246000fd5b604051908082528060200260200182016040528015610a4857816020015b610a35611c5b565b815260200190600190039081610a2d5790505b5090506000805b83811015610ca1573373ffffffffffffffffffffffffffffffffffffffff1660038281548110610aa8577f4e487b7100000000000000000000000000000000000000000000000000000000600052603260045260246000fd5b906000526020600020906003020160010160009054906101000a900473ffffffffffffffffffffffffffffffffffffffff1673ffffffffffffffffffffffffffffffffffffffff161415610c8e5760038181548110610b30577f4e487b7100000000000000000000000000000000000000000000000000000000600052603260045260246000fd5b9060005260206000209060030201604051806060016040529081600082015481526020016001820160009054906101000a900473ffffffffffffffffffffffffffffffffffffffff1673ffffffffffffffffffffffffffffffffffffffff1673ffffffffffffffffffffffffffffffffffffffff168152602001600282018054610bb990612b64565b80601f0160208091040260200160405190810160405280929190818152602001828054610be590612b64565b8015610c325780601f10610c0757610100808354040283529160200191610c32565b820191906000526020600020905b815481529060010190602001808311610c1557829003601f168201915b505050505081525050838381518110610c74577f4e487b7100000000000000000000000000000000000000000000000000000000600052603260045260246000fd5b60200260200101819052508180610c8a90612bc7565b9250505b8080610c9990612bc7565b915050610a4f565b508194505050505090565b60606000600380549050905060008167ffffffffffffffff811115610cfa577f4e487b7100000000000000000000000000000000000000000000000000000000600052604160045260246000fd5b604051908082528060200260200182016040528015610d3357816020015b610d20611c5b565b815260200190600190039081610d185790505b5090506003805480602002602001604051908101604052809291908181526020016000905b82821015610e7c5783829060005260206000209060030201604051806060016040529081600082015481526020016001820160009054906101000a900473ffffffffffffffffffffffffffffffffffffffff1673ffffffffffffffffffffffffffffffffffffffff1673ffffffffffffffffffffffffffffffffffffffff168152602001600282018054610deb90612b64565b80601f0160208091040260200160405190810160405280929190818152602001828054610e1790612b64565b8015610e645780601f10610e3957610100808354040283529160200191610e64565b820191906000526020600020905b815481529060010190602001808311610e4757829003601f168201915b50505050508152505081526020019060010190610d58565b505050509050809250505090565b6000610e966002611bfd565b90506000600b60009054906101000a900473ffffffffffffffffffffffffffffffffffffffff16905060008351905060008167ffffffffffffffff811115610f07577f4e487b7100000000000000000000000000000000000000000000000000000000600052604160045260246000fd5b604051908082528060200260200182016040528015610f4057816020015b610f2d611c92565b815260200190600190039081610f255790505b50905060005b8281101561109f576040518060c00160405280888152602001878381518110610f98577f4e487b7100000000000000000000000000000000000000000000000000000000600052603260045260246000fd5b6020026020010151600001518152602001878381518110610fe2577f4e487b7100000000000000000000000000000000000000000000000000000000600052603260045260246000fd5b602002602001015160200151815260200186815260200160008152602001878381518110611039577f4e487b7100000000000000000000000000000000000000000000000000000000600052603260045260246000fd5b602002602001015160400151815250828281518110611081577f4e487b7100000000000000000000000000000000000000000000000000000000600052603260045260246000fd5b6020026020010181905250808061109790612bc7565b915050610f46565b508273ffffffffffffffffffffffffffffffffffffffff1663d9bfb10c85836040518363ffffffff1660e01b81526004016110db9291906128d9565b600060405180830381600087803b1580156110f557600080fd5b505af1158015611109573d6000803e3d6000fd5b50505050600360405180606001604052808681526020013373ffffffffffffffffffffffffffffffffffffffff1681526020018881525090806001815401808255809150506001900390600052602060002090600302016000909190919091506000820151816000015560208201518160010160006101000a81548173ffffffffffffffffffffffffffffffffffffffff021916908373ffffffffffffffffffffffffffffffffffffffff16021790555060408201518160020190805190602001906111d6929190611cc8565b505050600560003373ffffffffffffffffffffffffffffffffffffffff1673ffffffffffffffffffffffffffffffffffffffff1681526020019081526020016000208490806001815401808255809150506001900390600052602060002001600090919091909150556112496002611aa5565b505050505050565b60606000600480549050905060008167ffffffffffffffff81111561129f577f4e487b7100000000000000000000000000000000000000000000000000000000600052604160045260246000fd5b6040519080825280602002602001820160405280156112d857816020015b6112c5611c13565b8152602001906001900390816112bd5790505b5090506004805480602002602001604051908101604052809291908181526020016000905b82821015611628578382906000526020600020906008020160405180610100016040529081600082015481526020016001820154815260200160028201805461134590612b64565b80601f016020809104026020016040519081016040528092919081815260200182805461137190612b64565b80156113be5780601f10611393576101008083540402835291602001916113be565b820191906000526020600020905b8154815290600101906020018083116113a157829003601f168201915b505050505081526020016003820180546113d790612b64565b80601f016020809104026020016040519081016040528092919081815260200182805461140390612b64565b80156114505780601f1061142557610100808354040283529160200191611450565b820191906000526020600020905b81548152906001019060200180831161143357829003601f168201915b5050505050815260200160048201805461146990612b64565b80601f016020809104026020016040519081016040528092919081815260200182805461149590612b64565b80156114e25780601f106114b7576101008083540402835291602001916114e2565b820191906000526020600020905b8154815290600101906020018083116114c557829003601f168201915b505050505081526020016005820180546114fb90612b64565b80601f016020809104026020016040519081016040528092919081815260200182805461152790612b64565b80156115745780601f1061154957610100808354040283529160200191611574565b820191906000526020600020905b81548152906001019060200180831161155757829003601f168201915b5050505050815260200160068201805461158d90612b64565b80601f01602080910402602001604051908101604052809291908181526020018280546115b990612b64565b80156116065780601f106115db57610100808354040283529160200191611606565b820191906000526020600020905b8154815290600101906020018083116115e957829003601f168201915b50505050508152602001600782015481525050815260200190600101906112fd565b505050509050809250505090565b60008083905060008180519060200120905060006001856116579190612a9c565b905060008260048381548110611696577f4e487b7100000000000000000000000000000000000000000000000000000000600052603260045260246000fd5b9060005260206000209060080201600701541490508094505050505092915050565b6000805b600560003373ffffffffffffffffffffffffffffffffffffffff1673ffffffffffffffffffffffffffffffffffffffff168152602001908152602001600020805490508110156117a75788600560003373ffffffffffffffffffffffffffffffffffffffff1673ffffffffffffffffffffffffffffffffffffffff168152602001908152602001600020828154811061177e577f4e487b7100000000000000000000000000000000000000000000000000000000600052603260045260246000fd5b9060005260206000200154141561179457600191505b808061179f90612bc7565b9150506116bc565b50806117e8576040517f08c379a00000000000000000000000000000000000000000000000000000000081526004016117df9061285c565b60405180910390fd5b60006117f46001611bfd565b9050600083905060008180519060200120905060046040518061010001604052808581526020018d81526020018c81526020018b81526020018a81526020018981526020018881526020018381525090806001815401808255809150506001900390600052602060002090600802016000909190919091506000820151816000015560208201518160010155604082015181600201908051906020019061189c929190611cc8565b5060608201518160030190805190602001906118b9929190611cc8565b5060808201518160040190805190602001906118d6929190611cc8565b5060a08201518160050190805190602001906118f3929190611cc8565b5060c0820151816006019080519060200190611910929190611cc8565b5060e082015181600701555050600960008c81526020019081526020016000208390806001815401808255809150506001900390600052602060002001600090919091909150558a600a6000858152602001908152602001600020819055506119796001611aa5565b5050505050505050505050565b61198e611abb565b600073ffffffffffffffffffffffffffffffffffffffff168173ffffffffffffffffffffffffffffffffffffffff1614156119fe576040517f08c379a00000000000000000000000000000000000000000000000000000000081526004016119f59061283c565b60405180910390fd5b611a0781611b39565b50565b60606000600860003373ffffffffffffffffffffffffffffffffffffffff1673ffffffffffffffffffffffffffffffffffffffff168152602001908152602001600020805480602002602001604051908101604052809291908181526020018280548015611a9757602002820191906000526020600020905b815481526020019060010190808311611a83575b505050505090508091505090565b6001816000016000828254019250508190555050565b611ac3611c0b565b73ffffffffffffffffffffffffffffffffffffffff16611ae16105de565b73ffffffffffffffffffffffffffffffffffffffff1614611b37576040517f08c379a0000000000000000000000000000000000000000000000000000000008152600401611b2e9061287c565b60405180910390fd5b565b60008060009054906101000a900473ffffffffffffffffffffffffffffffffffffffff169050816000806101000a81548173ffffffffffffffffffffffffffffffffffffffff021916908373ffffffffffffffffffffffffffffffffffffffff1602179055508173ffffffffffffffffffffffffffffffffffffffff168173ffffffffffffffffffffffffffffffffffffffff167f8be0079c531659141344cd1fd0a4f28419497f9722a3daafe3b4186f6b6457e060405160405180910390a35050565b600081600001549050919050565b600033905090565b60405180610100016040528060008152602001600081526020016060815260200160608152602001606081526020016060815260200160608152602001600080191681525090565b604051806060016040528060008152602001600073ffffffffffffffffffffffffffffffffffffffff168152602001606081525090565b6040518060c001604052806060815260200160608152602001606081526020016000815260200160008152602001600081525090565b828054611cd490612b64565b90600052602060002090601f016020900481019282611cf65760008555611d3d565b82601f10611d0f57805160ff1916838001178555611d3d565b82800160010185558215611d3d579182015b82811115611d3c578251825591602001919060010190611d21565b5b509050611d4a9190611d4e565b5090565b5b80821115611d67576000816000905550600101611d4f565b5090565b6000611d7e611d798461292e565b612909565b90508083825260208201905082856020860282011115611d9d57600080fd5b60005b85811015611de757813567ffffffffffffffff811115611dbf57600080fd5b808601611dcc8982611e98565b85526020850194506020840193505050600181019050611da0565b5050509392505050565b6000611e04611dff8461295a565b612909565b905082815260208101848484011115611e1c57600080fd5b611e27848285612b22565b509392505050565b600081359050611e3e81612d75565b92915050565b600082601f830112611e5557600080fd5b8135611e65848260208601611d6b565b91505092915050565b600082601f830112611e7f57600080fd5b8135611e8f848260208601611df1565b91505092915050565b600060608284031215611eaa57600080fd5b611eb46060612909565b9050600082013567ffffffffffffffff811115611ed057600080fd5b611edc84828501611e6e565b600083015250602082013567ffffffffffffffff811115611efc57600080fd5b611f0884828501611e6e565b6020830152506040611f1c84828501611f28565b60408301525092915050565b600081359050611f3781612d8c565b92915050565b600060208284031215611f4f57600080fd5b6000611f5d84828501611e2f565b91505092915050565b60008060408385031215611f7957600080fd5b6000611f8785828601611e2f565b9250506020611f9885828601611f28565b9150509250929050565b60008060408385031215611fb557600080fd5b600083013567ffffffffffffffff811115611fcf57600080fd5b611fdb85828601611e6e565b925050602083013567ffffffffffffffff811115611ff857600080fd5b61200485828601611e44565b9150509250929050565b6000806040838503121561202157600080fd5b600083013567ffffffffffffffff81111561203b57600080fd5b61204785828601611e6e565b925050602061205885828601611f28565b9150509250929050565b60006020828403121561207457600080fd5b600061208284828501611f28565b91505092915050565b600080600080600080600060e0888a0312156120a657600080fd5b60006120b48a828b01611f28565b975050602088013567ffffffffffffffff8111156120d157600080fd5b6120dd8a828b01611e6e565b965050604088013567ffffffffffffffff8111156120fa57600080fd5b6121068a828b01611e6e565b955050606088013567ffffffffffffffff81111561212357600080fd5b61212f8a828b01611e6e565b945050608088013567ffffffffffffffff81111561214c57600080fd5b6121588a828b01611e6e565b93505060a088013567ffffffffffffffff81111561217557600080fd5b6121818a828b01611e6e565b92505060c088013567ffffffffffffffff81111561219e57600080fd5b6121aa8a828b01611e6e565b91505092959891949750929550565b60006121c583836124e1565b905092915050565b60006121d98383612679565b905092915050565b60006121ed83836126c9565b905092915050565b60006122018383612760565b60208301905092915050565b61221681612ad0565b82525050565b61222581612ad0565b82525050565b6000612236826129cb565b6122408185612a36565b9350836020820285016122528561298b565b8060005b8581101561228e578484038952815161226f85826121b9565b945061227a83612a02565b925060208a01995050600181019050612256565b50829750879550505050505092915050565b60006122ab826129d6565b6122b58185612a47565b9350836020820285016122c78561299b565b8060005b8581101561230357848403895281516122e485826121cd565b94506122ef83612a0f565b925060208a019950506001810190506122cb565b50829750879550505050505092915050565b6000612320826129e1565b61232a8185612a58565b93508360208202850161233c856129ab565b8060005b85811015612378578484038952815161235985826121e1565b945061236483612a1c565b925060208a01995050600181019050612340565b50829750879550505050505092915050565b6000612395826129ec565b61239f8185612a69565b93506123aa836129bb565b8060005b838110156123db5781516123c288826121f5565b97506123cd83612a29565b9250506001810190506123ae565b5085935050505092915050565b6123f181612ae2565b82525050565b61240081612aee565b82525050565b6000612411826129f7565b61241b8185612a7a565b935061242b818560208601612b31565b61243481612c9d565b840191505092915050565b600061244a826129f7565b6124548185612a8b565b9350612464818560208601612b31565b61246d81612c9d565b840191505092915050565b6000612485602683612a8b565b915061249082612cae565b604082019050919050565b60006124a8602a83612a8b565b91506124b382612cfd565b604082019050919050565b60006124cb602083612a8b565b91506124d682612d4c565b602082019050919050565b6000610100830160008301516124fa6000860182612760565b50602083015161250d6020860182612760565b50604083015184820360408601526125258282612406565b9150506060830151848203606086015261253f8282612406565b915050608083015184820360808601526125598282612406565b91505060a083015184820360a08601526125738282612406565b91505060c083015184820360c086015261258d8282612406565b91505060e08301516125a260e08601826123f7565b508091505092915050565b6000610100830160008301516125c66000860182612760565b5060208301516125d96020860182612760565b50604083015184820360408601526125f18282612406565b9150506060830151848203606086015261260b8282612406565b915050608083015184820360808601526126258282612406565b91505060a083015184820360a086015261263f8282612406565b91505060c083015184820360c08601526126598282612406565b91505060e083015161266e60e08601826123f7565b508091505092915050565b60006060830160008301516126916000860182612760565b5060208301516126a4602086018261220d565b50604083015184820360408601526126bc8282612406565b9150508091505092915050565b600060c08301600083015184820360008601526126e68282612406565b915050602083015184820360208601526127008282612406565b9150506040830151848203604086015261271a8282612406565b915050606083015161272f6060860182612760565b5060808301516127426080860182612760565b5060a083015161275560a0860182612760565b508091505092915050565b61276981612b18565b82525050565b61277881612b18565b82525050565b6000602082019050612793600083018461221c565b92915050565b600060208201905081810360008301526127b3818461222b565b905092915050565b600060208201905081810360008301526127d581846122a0565b905092915050565b600060208201905081810360008301526127f7818461238a565b905092915050565b600060208201905061281460008301846123e8565b92915050565b60006020820190508181036000830152612834818461243f565b905092915050565b6000602082019050818103600083015261285581612478565b9050919050565b600060208201905081810360008301526128758161249b565b9050919050565b60006020820190508181036000830152612895816124be565b9050919050565b600060208201905081810360008301526128b681846125ad565b905092915050565b60006020820190506128d3600083018461276f565b92915050565b60006040820190506128ee600083018561276f565b81810360208301526129008184612315565b90509392505050565b6000612913612924565b905061291f8282612b96565b919050565b6000604051905090565b600067ffffffffffffffff82111561294957612948612c6e565b5b602082029050602081019050919050565b600067ffffffffffffffff82111561297557612974612c6e565b5b61297e82612c9d565b9050602081019050919050565b6000819050602082019050919050565b6000819050602082019050919050565b6000819050602082019050919050565b6000819050602082019050919050565b600081519050919050565b600081519050919050565b600081519050919050565b600081519050919050565b600081519050919050565b6000602082019050919050565b6000602082019050919050565b6000602082019050919050565b6000602082019050919050565b600082825260208201905092915050565b600082825260208201905092915050565b600082825260208201905092915050565b600082825260208201905092915050565b600082825260208201905092915050565b600082825260208201905092915050565b6000612aa782612b18565b9150612ab283612b18565b925082821015612ac557612ac4612c10565b5b828203905092915050565b6000612adb82612af8565b9050919050565b60008115159050919050565b6000819050919050565b600073ffffffffffffffffffffffffffffffffffffffff82169050919050565b6000819050919050565b82818337600083830152505050565b60005b83811015612b4f578082015181840152602081019050612b34565b83811115612b5e576000848401525b50505050565b60006002820490506001821680612b7c57607f821691505b60208210811415612b9057612b8f612c3f565b5b50919050565b612b9f82612c9d565b810181811067ffffffffffffffff82111715612bbe57612bbd612c6e565b5b80604052505050565b6000612bd282612b18565b91507fffffffffffffffffffffffffffffffffffffffffffffffffffffffffffffffff821415612c0557612c04612c10565b5b600182019050919050565b7f4e487b7100000000000000000000000000000000000000000000000000000000600052601160045260246000fd5b7f4e487b7100000000000000000000000000000000000000000000000000000000600052602260045260246000fd5b7f4e487b7100000000000000000000000000000000000000000000000000000000600052604160045260246000fd5b6000601f19601f8301169050919050565b7f4f776e61626c653a206e6577206f776e657220697320746865207a65726f206160008201527f6464726573730000000000000000000000000000000000000000000000000000602082015250565b7f4f6e6c792067726f7570206f776e6572732063616e206372656174652065766560008201527f6e74207265636f72647300000000000000000000000000000000000000000000602082015250565b7f4f776e61626c653a2063616c6c6572206973206e6f7420746865206f776e6572600082015250565b612d7e81612ad0565b8114612d8957600080fd5b50565b612d9581612b18565b8114612da057600080fd5b5056fea2646970667358221220e035035a3541e1d5652e41fffbacae49a47ff2c844a90e0da67eb47c32b61ba864736f6c63430008040033",
  "linkReferences": {},
  "deployedLinkReferences": {}
}