{
  "_format": "hh-sol-artifact-1",
  "contractName": "EventManager",
  "sourceName": "contracts/Event.sol",
  "abi": [
    {
      "anonymous": false,
      "inputs": [
        {
          "indexed": true,
          "internalType": "address",
          "name": "owner",
          "type": "address"
        },
        {
          "indexed": false,
          "internalType": "uint256",
          "name": "eventId",
          "type": "uint256"
        }
      ],
      "name": "CreateEvent",
      "type": "event"
    },
    {
      "anonymous": false,
      "inputs": [
        {
          "indexed": true,
          "internalType": "address",
          "name": "owner",
          "type": "address"
        },
        {
          "indexed": false,
          "internalType": "uint256",
          "name": "groupId",
          "type": "uint256"
        }
      ],
      "name": "CreateGroup",
      "type": "event"
    },
    {
      "anonymous": false,
      "inputs": [
        {
          "indexed": false,
          "internalType": "uint8",
          "name": "version",
          "type": "uint8"
        }
      ],
      "name": "Initialized",
      "type": "event"
    },
    {
      "anonymous": false,
      "inputs": [
        {
          "indexed": true,
          "internalType": "address",
          "name": "previousOwner",
          "type": "address"
        },
        {
          "indexed": true,
          "internalType": "address",
          "name": "newOwner",
          "type": "address"
        }
      ],
      "name": "OwnershipTransferred",
      "type": "event"
    },
    {
      "inputs": [
        {
          "internalType": "uint256",
          "name": "_groupId",
          "type": "uint256"
        },
        {
          "internalType": "string",
          "name": "_name",
          "type": "string"
        },
        {
          "internalType": "string",
          "name": "_description",
          "type": "string"
        },
        {
          "internalType": "string",
          "name": "_date",
          "type": "string"
        },
        {
          "internalType": "uint256",
          "name": "_mintLimit",
          "type": "uint256"
        },
        {
          "internalType": "bool",
          "name": "_useMtx",
          "type": "bool"
        },
        {
          "internalType": "bytes32",
          "name": "_secretPhrase",
          "type": "bytes32"
        },
        {
          "components": [
            {
              "internalType": "string",
              "name": "metaDataURL",
              "type": "string"
            },
            {
              "internalType": "uint256",
              "name": "requiredParticipateCount",
              "type": "uint256"
            }
          ],
          "internalType": "struct IMintNFT.NFTAttribute[]",
          "name": "_eventNFTAttributes",
          "type": "tuple[]"
        }
      ],
      "name": "createEventRecord",
      "outputs": [],
      "stateMutability": "payable",
      "type": "function"
    },
    {
      "inputs": [
        {
          "internalType": "string",
          "name": "_name",
          "type": "string"
        }
      ],
      "name": "createGroup",
      "outputs": [],
      "stateMutability": "nonpayable",
      "type": "function"
    },
    {
      "inputs": [
        {
          "internalType": "uint256",
          "name": "_eventId",
          "type": "uint256"
        }
      ],
      "name": "getEventById",
      "outputs": [
        {
          "components": [
            {
              "internalType": "uint256",
              "name": "eventRecordId",
              "type": "uint256"
            },
            {
              "internalType": "uint256",
              "name": "groupId",
              "type": "uint256"
            },
            {
              "internalType": "string",
              "name": "name",
              "type": "string"
            },
            {
              "internalType": "string",
              "name": "description",
              "type": "string"
            },
            {
              "internalType": "string",
              "name": "date",
              "type": "string"
            },
            {
              "internalType": "bool",
              "name": "useMtx",
              "type": "bool"
            }
          ],
          "internalType": "struct EventManager.EventRecord",
          "name": "",
          "type": "tuple"
        }
      ],
      "stateMutability": "view",
      "type": "function"
    },
    {
      "inputs": [],
      "name": "getEventRecordCount",
      "outputs": [
        {
          "internalType": "uint256",
          "name": "",
          "type": "uint256"
        }
      ],
      "stateMutability": "view",
      "type": "function"
    },
    {
      "inputs": [
        {
          "internalType": "uint256",
          "name": "_limit",
          "type": "uint256"
        },
        {
          "internalType": "uint256",
          "name": "_offset",
          "type": "uint256"
        }
      ],
      "name": "getEventRecords",
      "outputs": [
        {
          "components": [
            {
              "internalType": "uint256",
              "name": "eventRecordId",
              "type": "uint256"
            },
            {
              "internalType": "uint256",
              "name": "groupId",
              "type": "uint256"
            },
            {
              "internalType": "string",
              "name": "name",
              "type": "string"
            },
            {
              "internalType": "string",
              "name": "description",
              "type": "string"
            },
            {
              "internalType": "string",
              "name": "date",
              "type": "string"
            },
            {
              "internalType": "bool",
              "name": "useMtx",
              "type": "bool"
            }
          ],
          "internalType": "struct EventManager.EventRecord[]",
          "name": "",
          "type": "tuple[]"
        }
      ],
      "stateMutability": "view",
      "type": "function"
    },
    {
      "inputs": [
        {
          "internalType": "uint256",
          "name": "_groupId",
          "type": "uint256"
        }
      ],
      "name": "getEventRecordsByGroupId",
      "outputs": [
        {
          "components": [
            {
              "internalType": "uint256",
              "name": "eventRecordId",
              "type": "uint256"
            },
            {
              "internalType": "uint256",
              "name": "groupId",
              "type": "uint256"
            },
            {
              "internalType": "string",
              "name": "name",
              "type": "string"
            },
            {
              "internalType": "string",
              "name": "description",
              "type": "string"
            },
            {
              "internalType": "string",
              "name": "date",
              "type": "string"
            },
            {
              "internalType": "bool",
              "name": "useMtx",
              "type": "bool"
            }
          ],
          "internalType": "struct EventManager.EventRecord[]",
          "name": "",
          "type": "tuple[]"
        }
      ],
      "stateMutability": "view",
      "type": "function"
    },
    {
      "inputs": [],
      "name": "getGroups",
      "outputs": [
        {
          "components": [
            {
              "internalType": "uint256",
              "name": "groupId",
              "type": "uint256"
            },
            {
              "internalType": "address",
              "name": "ownerAddress",
              "type": "address"
            },
            {
              "internalType": "string",
              "name": "name",
              "type": "string"
            }
          ],
          "internalType": "struct EventManager.Group[]",
          "name": "",
          "type": "tuple[]"
        }
      ],
      "stateMutability": "view",
      "type": "function"
    },
    {
      "inputs": [
        {
          "internalType": "address",
          "name": "_address",
          "type": "address"
        }
      ],
      "name": "getOwnGroups",
      "outputs": [
        {
          "components": [
            {
              "internalType": "uint256",
              "name": "groupId",
              "type": "uint256"
            },
            {
              "internalType": "address",
              "name": "ownerAddress",
              "type": "address"
            },
            {
              "internalType": "string",
              "name": "name",
              "type": "string"
            }
          ],
          "internalType": "struct EventManager.Group[]",
          "name": "",
          "type": "tuple[]"
        }
      ],
      "stateMutability": "view",
      "type": "function"
    },
    {
      "inputs": [
        {
          "internalType": "uint256",
          "name": "_groupId",
          "type": "uint256"
        },
        {
          "internalType": "address",
          "name": "_address",
          "type": "address"
        }
      ],
      "name": "getRoles",
      "outputs": [
        {
          "components": [
            {
              "internalType": "bool",
              "name": "admin",
              "type": "bool"
            },
            {
              "internalType": "bool",
              "name": "collaborator",
              "type": "bool"
            }
          ],
          "internalType": "struct EventManager.Roles",
          "name": "",
          "type": "tuple"
        }
      ],
      "stateMutability": "view",
      "type": "function"
    },
    {
      "inputs": [
        {
          "internalType": "uint256",
          "name": "_groupId",
          "type": "uint256"
        },
        {
          "internalType": "address",
          "name": "_address",
          "type": "address"
        },
        {
          "internalType": "bytes32",
          "name": "_role",
          "type": "bytes32"
        }
      ],
      "name": "grantRole",
      "outputs": [],
      "stateMutability": "nonpayable",
      "type": "function"
    },
    {
      "inputs": [
        {
          "internalType": "address",
          "name": "_address",
          "type": "address"
        },
        {
          "internalType": "uint256",
          "name": "_eventId",
          "type": "uint256"
        }
      ],
      "name": "hasCollaboratorAccessByEventId",
      "outputs": [
        {
          "internalType": "bool",
          "name": "",
          "type": "bool"
        }
      ],
      "stateMutability": "view",
      "type": "function"
    },
    {
      "inputs": [
        {
          "internalType": "address",
          "name": "_relayerAddr",
          "type": "address"
        },
        {
          "internalType": "uint256",
          "name": "_mtxPrice",
          "type": "uint256"
        },
        {
          "internalType": "uint256",
          "name": "_maxMintLimit",
          "type": "uint256"
        },
        {
          "internalType": "address",
          "name": "_operationControllerAddr",
          "type": "address"
        }
      ],
      "name": "initialize",
      "outputs": [],
      "stateMutability": "nonpayable",
      "type": "function"
    },
    {
      "inputs": [],
      "name": "owner",
      "outputs": [
        {
          "internalType": "address",
          "name": "",
          "type": "address"
        }
      ],
      "stateMutability": "view",
      "type": "function"
    },
    {
      "inputs": [],
      "name": "renounceOwnership",
      "outputs": [],
      "stateMutability": "nonpayable",
      "type": "function"
    },
    {
      "inputs": [
        {
          "internalType": "uint256",
          "name": "_groupId",
          "type": "uint256"
        },
        {
          "internalType": "address",
          "name": "_address",
          "type": "address"
        },
        {
          "internalType": "bytes32",
          "name": "_role",
          "type": "bytes32"
        }
      ],
      "name": "revokeRole",
      "outputs": [],
      "stateMutability": "nonpayable",
      "type": "function"
    },
    {
      "inputs": [
        {
          "internalType": "uint256",
          "name": "_mintLimit",
          "type": "uint256"
        }
      ],
      "name": "setMaxMintLimit",
      "outputs": [],
      "stateMutability": "nonpayable",
      "type": "function"
    },
    {
      "inputs": [
        {
          "internalType": "address",
          "name": "_mintNftAddr",
          "type": "address"
        }
      ],
      "name": "setMintNFTAddr",
      "outputs": [],
      "stateMutability": "nonpayable",
      "type": "function"
    },
    {
      "inputs": [
        {
          "internalType": "uint256",
          "name": "_price",
          "type": "uint256"
        }
      ],
      "name": "setMtxPrice",
      "outputs": [],
      "stateMutability": "nonpayable",
      "type": "function"
    },
    {
      "inputs": [
        {
          "internalType": "address",
          "name": "_operationControllerAddr",
          "type": "address"
        }
      ],
      "name": "setOperationControllerAddr",
      "outputs": [],
      "stateMutability": "nonpayable",
      "type": "function"
    },
    {
      "inputs": [
        {
          "internalType": "address",
          "name": "_relayerAddr",
          "type": "address"
        }
      ],
      "name": "setRelayerAddr",
      "outputs": [],
      "stateMutability": "nonpayable",
      "type": "function"
    },
    {
      "inputs": [
        {
          "internalType": "address",
          "name": "newOwner",
          "type": "address"
        }
      ],
      "name": "transferOwnership",
      "outputs": [],
      "stateMutability": "nonpayable",
      "type": "function"
    }
  ],
  "bytecode": "0x608060405234801561001057600080fd5b506129c9806100206000396000f3fe60806040526004361061012a5760003560e01c80638da5cb5b116100ab578063c72b51761161006f578063c72b5176146103fa578063d96c2c3a1461040f578063dc2ddcae1461042d578063f2fde38b1461044d578063f56208231461046d578063f926b50c1461048d57600080fd5b80638da5cb5b146103285780638f184bea14610350578063972f13271461037d5780639e3d87cd146103ad578063b98079bc146103cd57600080fd5b8063471ade98116100f2578063471ade98146102a05780636b1f7622146102c0578063715018a6146102e057806374c4b95d146102f55780638be103371461030857600080fd5b806308fb5eb21461012f5780631ac30e63146101515780632f3195dd1461017157806337c81cd714610253578063398121a614610273575b600080fd5b34801561013b57600080fd5b5061014f61014a3660046121e5565b6104ad565b005b34801561015d57600080fd5b5061014f61016c3660046121e5565b610540565b34801561017d57600080fd5b5061022f61018c366004612200565b6040805180820182526000808252602091820181905282518084018452948152607182528281206001600160a01b039490941681529281528183207fdf8b4c520ffe197c5343c6f5aec59570151ef9a492f2c624fd45ddde6135ec4284528082528284205460ff908116151586527ff38814eec94cecab51d76c4344615af8334e61ee8d4ae6b02411905a54259ece855290825291909220541615159082015290565b60408051825115158152602092830151151592810192909252015b60405180910390f35b34801561025f57600080fd5b5061014f61026e3660046121e5565b6105c0565b34801561027f57600080fd5b5061029361028e36600461222c565b610640565b60405161024a9190612310565b3480156102ac57600080fd5b5061014f6102bb366004612372565b6109e2565b3480156102cc57600080fd5b5061014f6102db3660046123a7565b610b3c565b3480156102ec57600080fd5b5061014f610b49565b61014f610303366004612593565b610b5d565b34801561031457600080fd5b5061014f610323366004612372565b610fb4565b34801561033457600080fd5b506033546040516001600160a01b03909116815260200161024a565b34801561035c57600080fd5b5061037061036b3660046121e5565b611111565b60405161024a919061266e565b34801561038957600080fd5b5061039d6103983660046126f6565b611325565b604051901515815260200161024a565b3480156103b957600080fd5b5061014f6103c8366004612720565b611346565b3480156103d957600080fd5b506103ed6103e83660046123a7565b611496565b60405161024a9190612766565b34801561040657600080fd5b506103706116be565b34801561041b57600080fd5b5060685460405190815260200161024a565b34801561043957600080fd5b5061014f610448366004612779565b61183d565b34801561045957600080fd5b5061014f6104683660046121e5565b611a31565b34801561047957600080fd5b506102936104883660046123a7565b611aaa565b34801561049957600080fd5b5061014f6104a83660046123a7565b611dab565b6104b5611df7565b6001600160a01b03811661051e5760405162461bcd60e51b815260206004820152602560248201527f6f7065726174696f6e20636f6e74726f6c6c6572206164647265737320697320604482015264626c616e6b60d81b60648201526084015b60405180910390fd5b607080546001600160a01b0319166001600160a01b0392909216919091179055565b610548611df7565b6001600160a01b03811661059e5760405162461bcd60e51b815260206004820152601960248201527f6d696e74206e6674206164647265737320697320626c616e6b000000000000006044820152606401610515565b606c80546001600160a01b0319166001600160a01b0392909216919091179055565b6105c8611df7565b6001600160a01b03811661061e5760405162461bcd60e51b815260206004820152601860248201527f72656c61796572206164647265737320697320626c616e6b00000000000000006044820152606401610515565b606d80546001600160a01b0319166001600160a01b0392909216919091179055565b6068546060908361065057606493505b60648411156106965760405162461bcd60e51b81526020600482015260126024820152716c696d697420697320746f6f206c6172676560701b6044820152606401610515565b808311156106dc5760405162461bcd60e51b81526020600482015260136024820152726f666673657420697320746f6f206c6172676560681b6044820152606401610515565b806106e784866127c4565b11156106fa576106f783826127dc565b93505b60008467ffffffffffffffff811115610715576107156123c0565b60405190808252806020026020018201604052801561074e57816020015b61073b6120f8565b8152602001906001900390816107335790505b50905060005b858110156109d957600061076882876127c4565b6107739060016127c4565b61077d90856127dc565b106109c757606861078e82876127c4565b6107999060016127c4565b6107a390856127dc565b815481106107b3576107b36127f3565b90600052602060002090600602016040518060c001604052908160008201548152602001600182015481526020016002820180546107f090612809565b80601f016020809104026020016040519081016040528092919081815260200182805461081c90612809565b80156108695780601f1061083e57610100808354040283529160200191610869565b820191906000526020600020905b81548152906001019060200180831161084c57829003601f168201915b5050505050815260200160038201805461088290612809565b80601f01602080910402602001604051908101604052809291908181526020018280546108ae90612809565b80156108fb5780601f106108d0576101008083540402835291602001916108fb565b820191906000526020600020905b8154815290600101906020018083116108de57829003601f168201915b5050505050815260200160048201805461091490612809565b80601f016020809104026020016040519081016040528092919081815260200182805461094090612809565b801561098d5780601f106109625761010080835404028352916020019161098d565b820191906000526020600020905b81548152906001019060200180831161097057829003601f168201915b50505091835250506005919091015460ff16151560209091015282518390839081106109bb576109bb6127f3565b60200260200101819052505b806109d181612844565b915050610754565b50949350505050565b60705460408051635c975abb60e01b815290516001600160a01b03909216918291635c975abb916004808301926020929190829003018186803b158015610a2857600080fd5b505afa158015610a3c573d6000803e3d6000fd5b505050506040513d601f19601f82011682018060405250810190610a60919061285f565b15610a7d5760405162461bcd60e51b81526004016105159061287c565b610a878433611e51565b610ac35760405162461bcd60e51b815260206004820152600d60248201526c139bdd081c195c9b5a5d1d1959609a1b6044820152606401610515565b610acc82611f43565b610b075760405162461bcd60e51b815260206004820152600c60248201526b496e76616c696420726f6c6560a01b6044820152606401610515565b5060009283526071602090815260408085206001600160a01b039094168552928152828420918452529020805460ff19169055565b610b44611df7565b606e55565b610b51611df7565b610b5b6000611f98565b565b87610b688133611fea565b610bad5760405162461bcd60e51b81526020600482015260166024820152752cb7ba903430bb32903737903832b936b4b9b9b4b7b760511b6044820152606401610515565b60705460408051635c975abb60e01b815290516001600160a01b03909216918291635c975abb916004808301926020929190829003018186803b158015610bf357600080fd5b505afa158015610c07573d6000803e3d6000fd5b505050506040513d601f19601f82011682018060405250810190610c2b919061285f565b15610c485760405162461bcd60e51b81526004016105159061287c565b600086118015610c5a5750606f548611155b610c9e5760405162461bcd60e51b81526020600482015260156024820152741b5a5b9d081b1a5b5a5d081a5cc81a5b9d985b1a59605a1b6044820152606401610515565b8415610d9b57606e54600090610cb43a8961289c565b610cbe919061289c565b905080341015610d035760405162461bcd60e51b815260206004820152601060248201526f4e6f7420656e6f7567682076616c756560801b6044820152606401610515565b606d546040516000916001600160a01b03169034908381818185875af1925050503d8060008114610d50576040519150601f19603f3d011682016040523d82523d6000602084013e610d55565b606091505b5050905080610d985760405162461bcd60e51b815260206004820152600f60248201526e1d1c985b9cd9995c8819985a5b1959608a1b6044820152606401610515565b50505b6000610da660655490565b9050610db6606580546001019055565b6040805160c08101825282815260208082018e81529282018d8152606083018d9052608083018c905289151560a084015260688054600181018255600091909152835160069091027fa2153420d844928b4421650203c77babc8b33d7f2e7b450e2966db0c22097753810191825594517fa2153420d844928b4421650203c77babc8b33d7f2e7b450e2966db0c220977548601559051805193949193610e85937fa2153420d844928b4421650203c77babc8b33d7f2e7b450e2966db0c22097755909301929190910190612130565b5060608201518051610ea1916003840191602090910190612130565b5060808201518051610ebd916004840191602090910190612130565b5060a091909101516005909101805460ff1916911515919091179055606c5460405163ef3ad9eb60e01b81526001600160a01b0390911690819063ef3ad9eb90610f119085908c908b908b906004016128bb565b600060405180830381600087803b158015610f2b57600080fd5b505af1158015610f3f573d6000803e3d6000fd5b50505060008d8152606a60209081526040808320805460018101825590845282842001869055858352606b8252918290208f905590518481523392507fffde68815858e4c88d054382adadf9d3280426c744cf9c1991303ff77afdc1e2910160405180910390a2505050505050505050505050565b60705460408051635c975abb60e01b815290516001600160a01b03909216918291635c975abb916004808301926020929190829003018186803b158015610ffa57600080fd5b505afa15801561100e573d6000803e3d6000fd5b505050506040513d601f19601f82011682018060405250810190611032919061285f565b1561104f5760405162461bcd60e51b81526004016105159061287c565b6110598433611e51565b6110955760405162461bcd60e51b815260206004820152600d60248201526c139bdd081c195c9b5a5d1d1959609a1b6044820152606401610515565b61109e82611f43565b6110d95760405162461bcd60e51b815260206004820152600c60248201526b496e76616c696420726f6c6560a01b6044820152606401610515565b5060009283526071602090815260408085206001600160a01b039094168552928152828420918452529020805460ff19166001179055565b6001600160a01b0381166000908152606960205260408120546067546060928267ffffffffffffffff811115611149576111496123c0565b60405190808252806020026020018201604052801561119657816020015b604080516060808201835260008083526020830152918101919091528152602001906001900390816111675790505b5090506000805b8381101561131a57866001600160a01b0316606782815481106111c2576111c26127f3565b60009182526020909120600160039092020101546001600160a01b0316141561130857606781815481106111f8576111f86127f3565b9060005260206000209060030201604051806060016040529081600082015481526020016001820160009054906101000a90046001600160a01b03166001600160a01b03166001600160a01b0316815260200160028201805461125a90612809565b80601f016020809104026020016040519081016040528092919081815260200182805461128690612809565b80156112d35780601f106112a8576101008083540402835291602001916112d3565b820191906000526020600020905b8154815290600101906020018083116112b657829003601f168201915b5050505050815250508383815181106112ee576112ee6127f3565b6020026020010181905250818061130490612844565b9250505b8061131281612844565b91505061119d565b509095945050505050565b6000818152606b602052604081205461133e8185611fea565b949350505050565b600054600290610100900460ff16158015611368575060005460ff8083169116105b6113cb5760405162461bcd60e51b815260206004820152602e60248201527f496e697469616c697a61626c653a20636f6e747261637420697320616c72656160448201526d191e481a5b9a5d1a585b1a5e995960921b6064820152608401610515565b6000805461ffff191660ff8316176101001790556113e761209e565b6066541580156113f75750606554155b156114185761140a606680546001019055565b611418606580546001019055565b611421856105c0565b61142a84610b3c565b61143383611dab565b607080546001600160a01b0319166001600160a01b0384161790556000805461ff001916905560405160ff821681527f7f26b83ff96e1f2b6a682f133852f6798a09c465da95921460cefb38474024989060200160405180910390a15050505050565b61149e6120f8565b60006114ab6001846127dc565b90506000606882815481106114c2576114c26127f3565b90600052602060002090600602016040518060c001604052908160008201548152602001600182015481526020016002820180546114ff90612809565b80601f016020809104026020016040519081016040528092919081815260200182805461152b90612809565b80156115785780601f1061154d57610100808354040283529160200191611578565b820191906000526020600020905b81548152906001019060200180831161155b57829003601f168201915b5050505050815260200160038201805461159190612809565b80601f01602080910402602001604051908101604052809291908181526020018280546115bd90612809565b801561160a5780601f106115df5761010080835404028352916020019161160a565b820191906000526020600020905b8154815290600101906020018083116115ed57829003601f168201915b5050505050815260200160048201805461162390612809565b80601f016020809104026020016040519081016040528092919081815260200182805461164f90612809565b801561169c5780601f106116715761010080835404028352916020019161169c565b820191906000526020600020905b81548152906001019060200180831161167f57829003601f168201915b50505091835250506005919091015460ff161515602090910152949350505050565b60675460609060008167ffffffffffffffff8111156116df576116df6123c0565b60405190808252806020026020018201604052801561172c57816020015b604080516060808201835260008083526020830152918101919091528152602001906001900390816116fd5790505b50606780546040805160208084028201810190925282815293945060009084015b8282101561183157600084815260209081902060408051606081018252600386029092018054835260018101546001600160a01b031693830193909352600283018054929392918401916117a090612809565b80601f01602080910402602001604051908101604052809291908181526020018280546117cc90612809565b80156118195780601f106117ee57610100808354040283529160200191611819565b820191906000526020600020905b8154815290600101906020018083116117fc57829003601f168201915b5050505050815250508152602001906001019061174d565b50929695505050505050565b60705460408051635c975abb60e01b815290516001600160a01b03909216918291635c975abb916004808301926020929190829003018186803b15801561188357600080fd5b505afa158015611897573d6000803e3d6000fd5b505050506040513d601f19601f820116820180604052508101906118bb919061285f565b156118d85760405162461bcd60e51b81526004016105159061287c565b60006118e360665490565b90506118f3606680546001019055565b6040805160608101825282815233602080830191825292820186815260678054600181018255600091909152835160039091027f9787eeb91fe3101235e4a76063c7023ecb40f923f97916639c598592fa30d6ae810191825592517f9787eeb91fe3101235e4a76063c7023ecb40f923f97916639c598592fa30d6af840180546001600160a01b03929092166001600160a01b031990921691909117905590518051939491936119ca937f9787eeb91fe3101235e4a76063c7023ecb40f923f97916639c598592fa30d6b001929190910190612130565b505033600081815260696020908152604080832080546001810182559084529190922001849055519091507f88d8a40d3d79893e13972978642d5fe29930912ee4c0b62a535815945c1d7bd090611a249084815260200190565b60405180910390a2505050565b611a39611df7565b6001600160a01b038116611a9e5760405162461bcd60e51b815260206004820152602660248201527f4f776e61626c653a206e6577206f776e657220697320746865207a65726f206160448201526564647265737360d01b6064820152608401610515565b611aa781611f98565b50565b6000818152606a60205260408120546060918167ffffffffffffffff811115611ad557611ad56123c0565b604051908082528060200260200182016040528015611b0e57816020015b611afb6120f8565b815260200190600190039081611af35790505b50905060005b82811015611da3576000858152606a602052604081206001611b3684876127dc565b611b4091906127dc565b81548110611b5057611b506127f3565b906000526020600020015490506068600182611b6c91906127dc565b81548110611b7c57611b7c6127f3565b90600052602060002090600602016040518060c00160405290816000820154815260200160018201548152602001600282018054611bb990612809565b80601f0160208091040260200160405190810160405280929190818152602001828054611be590612809565b8015611c325780601f10611c0757610100808354040283529160200191611c32565b820191906000526020600020905b815481529060010190602001808311611c1557829003601f168201915b50505050508152602001600382018054611c4b90612809565b80601f0160208091040260200160405190810160405280929190818152602001828054611c7790612809565b8015611cc45780601f10611c9957610100808354040283529160200191611cc4565b820191906000526020600020905b815481529060010190602001808311611ca757829003601f168201915b50505050508152602001600482018054611cdd90612809565b80601f0160208091040260200160405190810160405280929190818152602001828054611d0990612809565b8015611d565780601f10611d2b57610100808354040283529160200191611d56565b820191906000526020600020905b815481529060010190602001808311611d3957829003601f168201915b50505091835250506005919091015460ff1615156020909101528351849084908110611d8457611d846127f3565b6020026020010181905250508080611d9b90612844565b915050611b14565b509392505050565b611db3611df7565b80611df25760405162461bcd60e51b815260206004820152600f60248201526e06d696e74206c696d6974206973203608c1b6044820152606401610515565b606f55565b6033546001600160a01b03163314610b5b5760405162461bcd60e51b815260206004820181905260248201527f4f776e61626c653a2063616c6c6572206973206e6f7420746865206f776e65726044820152606401610515565b60008083118015611e6457506067548311155b611ea25760405162461bcd60e51b815260206004820152600f60248201526e125b9d985b1a590819dc9bdd5c1259608a1b6044820152606401610515565b6001600160a01b0382166067611eb96001866127dc565b81548110611ec957611ec96127f3565b60009182526020909120600160039092020101546001600160a01b03161480611f3c575060008381526071602090815260408083206001600160a01b038616845282528083207fdf8b4c520ffe197c5343c6f5aec59570151ef9a492f2c624fd45ddde6135ec42845290915290205460ff165b9392505050565b60007fdf8b4c520ffe197c5343c6f5aec59570151ef9a492f2c624fd45ddde6135ec42821480611f9257507ff38814eec94cecab51d76c4344615af8334e61ee8d4ae6b02411905a54259ece82145b92915050565b603380546001600160a01b038381166001600160a01b0319831681179093556040519116919082907f8be0079c531659141344cd1fd0a4f28419497f9722a3daafe3b4186f6b6457e090600090a35050565b60008083118015611ffd57506067548311155b61203b5760405162461bcd60e51b815260206004820152600f60248201526e125b9d985b1a590819dc9bdd5c1259608a1b6044820152606401610515565b6120458383611e51565b80611f3c575060008381526071602090815260408083206001600160a01b038616845282528083207ff38814eec94cecab51d76c4344615af8334e61ee8d4ae6b02411905a54259ece845290915290205460ff16611f3c565b600054610100900460ff166120c55760405162461bcd60e51b815260040161051590612948565b610b5b600054610100900460ff166120ef5760405162461bcd60e51b815260040161051590612948565b610b5b33611f98565b6040518060c0016040528060008152602001600081526020016060815260200160608152602001606081526020016000151581525090565b82805461213c90612809565b90600052602060002090601f01602090048101928261215e57600085556121a4565b82601f1061217757805160ff19168380011785556121a4565b828001600101855582156121a4579182015b828111156121a4578251825591602001919060010190612189565b506121b09291506121b4565b5090565b5b808211156121b057600081556001016121b5565b80356001600160a01b03811681146121e057600080fd5b919050565b6000602082840312156121f757600080fd5b611f3c826121c9565b6000806040838503121561221357600080fd5b82359150612223602084016121c9565b90509250929050565b6000806040838503121561223f57600080fd5b50508035926020909101359150565b6000815180845260005b8181101561227457602081850181015186830182015201612258565b81811115612286576000602083870101525b50601f01601f19169290920160200192915050565b80518252602081015160208301526000604082015160c060408501526122c460c085018261224e565b9050606083015184820360608601526122dd828261224e565b915050608083015184820360808601526122f7828261224e565b91505060a0830151151560a08501528091505092915050565b6000602080830181845280855180835260408601915060408160051b870101925083870160005b8281101561236557603f1988860301845261235385835161229b565b94509285019290850190600101612337565b5092979650505050505050565b60008060006060848603121561238757600080fd5b83359250612397602085016121c9565b9150604084013590509250925092565b6000602082840312156123b957600080fd5b5035919050565b634e487b7160e01b600052604160045260246000fd5b6040805190810167ffffffffffffffff811182821017156123f9576123f96123c0565b60405290565b604051601f8201601f1916810167ffffffffffffffff81118282101715612428576124286123c0565b604052919050565b600082601f83011261244157600080fd5b813567ffffffffffffffff81111561245b5761245b6123c0565b61246e601f8201601f19166020016123ff565b81815284602083860101111561248357600080fd5b816020850160208301376000918101602001919091529392505050565b8015158114611aa757600080fd5b80356121e0816124a0565b600082601f8301126124ca57600080fd5b8135602067ffffffffffffffff808311156124e7576124e76123c0565b8260051b6124f68382016123ff565b938452858101830193838101908886111561251057600080fd5b84880192505b858310156125875782358481111561252e5760008081fd5b88016040818b03601f19018113156125465760008081fd5b61254e6123d6565b87830135878111156125605760008081fd5b61256e8d8a83870101612430565b8252509101358682015282529184019190840190612516565b98975050505050505050565b600080600080600080600080610100898b0312156125b057600080fd5b88359750602089013567ffffffffffffffff808211156125cf57600080fd5b6125db8c838d01612430565b985060408b01359150808211156125f157600080fd5b6125fd8c838d01612430565b975060608b013591508082111561261357600080fd5b61261f8c838d01612430565b965060808b0135955061263460a08c016124ae565b945060c08b0135935060e08b013591508082111561265157600080fd5b5061265e8b828c016124b9565b9150509295985092959890939650565b60006020808301818452808551808352604092508286019150828160051b87010184880160005b838110156126e857888303603f19018552815180518452878101516001600160a01b03168885015286015160608785018190526126d48186018361224e565b968901969450505090860190600101612695565b509098975050505050505050565b6000806040838503121561270957600080fd5b612712836121c9565b946020939093013593505050565b6000806000806080858703121561273657600080fd5b61273f856121c9565b9350602085013592506040850135915061275b606086016121c9565b905092959194509250565b602081526000611f3c602083018461229b565b60006020828403121561278b57600080fd5b813567ffffffffffffffff8111156127a257600080fd5b61133e84828501612430565b634e487b7160e01b600052601160045260246000fd5b600082198211156127d7576127d76127ae565b500190565b6000828210156127ee576127ee6127ae565b500390565b634e487b7160e01b600052603260045260246000fd5b600181811c9082168061281d57607f821691505b6020821081141561283e57634e487b7160e01b600052602260045260246000fd5b50919050565b6000600019821415612858576128586127ae565b5060010190565b60006020828403121561287157600080fd5b8151611f3c816124a0565b60208082526006908201526514185d5cd95960d21b604082015260600190565b60008160001904831182151516156128b6576128b66127ae565b500290565b60006080820186835260208681850152604086818601526080606086015282865180855260a08701915060a08160051b880101945083880160005b8281101561293757888703609f190184528151805186895261291a878a018261224e565b9188015198880198909852965092850192908501906001016128f6565b50949b9a5050505050505050505050565b6020808252602b908201527f496e697469616c697a61626c653a20636f6e7472616374206973206e6f74206960408201526a6e697469616c697a696e6760a81b60608201526080019056fea2646970667358221220df37a15159c0dc691dd0a77dd9511d1a098c4a73e4f8d7013ebb931f212ff88864736f6c63430008090033",
  "linkReferences": {},
  "deployedLinkReferences": {}
}