{
  "_format": "hh-sol-artifact-1",
  "contractName": "EventManager",
  "sourceName": "contracts/Event.sol",
  "abi": [
    {
      "anonymous": false,
      "inputs": [
        {
          "indexed": false,
          "internalType": "uint8",
          "name": "version",
          "type": "uint8"
        }
      ],
      "name": "Initialized",
      "type": "event"
    },
    {
      "anonymous": false,
      "inputs": [
        {
          "indexed": true,
          "internalType": "address",
          "name": "previousOwner",
          "type": "address"
        },
        {
          "indexed": true,
          "internalType": "address",
          "name": "newOwner",
          "type": "address"
        }
      ],
      "name": "OwnershipTransferred",
      "type": "event"
    },
    {
      "inputs": [
        {
          "internalType": "uint256",
          "name": "_eventRecordId",
          "type": "uint256"
        }
      ],
      "name": "applyForParticipation",
      "outputs": [],
      "stateMutability": "nonpayable",
      "type": "function"
    },
    {
      "inputs": [
        {
          "internalType": "address",
          "name": "_participantAddress",
          "type": "address"
        },
        {
          "internalType": "uint256",
          "name": "_groupId",
          "type": "uint256"
        }
      ],
      "name": "countParticipationByGroup",
      "outputs": [
        {
          "internalType": "uint256",
          "name": "",
          "type": "uint256"
        }
      ],
      "stateMutability": "view",
      "type": "function"
    },
    {
      "inputs": [
        {
          "internalType": "uint256",
          "name": "_groupId",
          "type": "uint256"
        },
        {
          "internalType": "string",
          "name": "_name",
          "type": "string"
        },
        {
          "internalType": "string",
          "name": "_description",
          "type": "string"
        },
        {
          "internalType": "string",
          "name": "_date",
          "type": "string"
        },
        {
          "internalType": "string",
          "name": "_startTime",
          "type": "string"
        },
        {
          "internalType": "string",
          "name": "_endTime",
          "type": "string"
        },
        {
          "internalType": "string",
          "name": "_secretPhrase",
          "type": "string"
        }
      ],
      "name": "createEventRecord",
      "outputs": [],
      "stateMutability": "nonpayable",
      "type": "function"
    },
    {
      "inputs": [
        {
          "internalType": "string",
          "name": "_name",
          "type": "string"
        },
        {
          "components": [
            {
              "internalType": "string",
              "name": "image",
              "type": "string"
            },
            {
              "internalType": "string",
              "name": "description",
              "type": "string"
            },
            {
              "internalType": "uint256",
              "name": "requiredParticipateCount",
              "type": "uint256"
            }
          ],
          "internalType": "struct EventManager.GroupAttributes[]",
          "name": "_groupAttributes",
          "type": "tuple[]"
        }
      ],
      "name": "createGroup",
      "outputs": [],
      "stateMutability": "nonpayable",
      "type": "function"
    },
    {
      "inputs": [
        {
          "internalType": "uint256",
          "name": "_eventId",
          "type": "uint256"
        }
      ],
      "name": "getEventById",
      "outputs": [
        {
          "components": [
            {
              "internalType": "uint256",
              "name": "eventRecordId",
              "type": "uint256"
            },
            {
              "internalType": "uint256",
              "name": "groupId",
              "type": "uint256"
            },
            {
              "internalType": "string",
              "name": "name",
              "type": "string"
            },
            {
              "internalType": "string",
              "name": "description",
              "type": "string"
            },
            {
              "internalType": "string",
              "name": "date",
              "type": "string"
            },
            {
              "internalType": "string",
              "name": "startTime",
              "type": "string"
            },
            {
              "internalType": "string",
              "name": "endTime",
              "type": "string"
            },
            {
              "internalType": "bytes32",
              "name": "secretPhrase",
              "type": "bytes32"
            }
          ],
          "internalType": "struct EventManager.EventRecord",
          "name": "",
          "type": "tuple"
        }
      ],
      "stateMutability": "view",
      "type": "function"
    },
    {
      "inputs": [],
      "name": "getEventRecords",
      "outputs": [
        {
          "components": [
            {
              "internalType": "uint256",
              "name": "eventRecordId",
              "type": "uint256"
            },
            {
              "internalType": "uint256",
              "name": "groupId",
              "type": "uint256"
            },
            {
              "internalType": "string",
              "name": "name",
              "type": "string"
            },
            {
              "internalType": "string",
              "name": "description",
              "type": "string"
            },
            {
              "internalType": "string",
              "name": "date",
              "type": "string"
            },
            {
              "internalType": "string",
              "name": "startTime",
              "type": "string"
            },
            {
              "internalType": "string",
              "name": "endTime",
              "type": "string"
            },
            {
              "internalType": "bytes32",
              "name": "secretPhrase",
              "type": "bytes32"
            }
          ],
          "internalType": "struct EventManager.EventRecord[]",
          "name": "",
          "type": "tuple[]"
        }
      ],
      "stateMutability": "view",
      "type": "function"
    },
    {
      "inputs": [],
      "name": "getGroups",
      "outputs": [
        {
          "components": [
            {
              "internalType": "uint256",
              "name": "groupId",
              "type": "uint256"
            },
            {
              "internalType": "address",
              "name": "ownerAddress",
              "type": "address"
            },
            {
              "internalType": "string",
              "name": "name",
              "type": "string"
            }
          ],
          "internalType": "struct EventManager.Group[]",
          "name": "",
          "type": "tuple[]"
        }
      ],
      "stateMutability": "view",
      "type": "function"
    },
    {
      "inputs": [],
      "name": "getOwnGroups",
      "outputs": [
        {
          "components": [
            {
              "internalType": "uint256",
              "name": "groupId",
              "type": "uint256"
            },
            {
              "internalType": "address",
              "name": "ownerAddress",
              "type": "address"
            },
            {
              "internalType": "string",
              "name": "name",
              "type": "string"
            }
          ],
          "internalType": "struct EventManager.Group[]",
          "name": "",
          "type": "tuple[]"
        }
      ],
      "stateMutability": "view",
      "type": "function"
    },
    {
      "inputs": [],
      "name": "getParticipationEventIds",
      "outputs": [
        {
          "internalType": "uint256[]",
          "name": "",
          "type": "uint256[]"
        }
      ],
      "stateMutability": "view",
      "type": "function"
    },
    {
      "inputs": [],
      "name": "initialize",
      "outputs": [],
      "stateMutability": "nonpayable",
      "type": "function"
    },
    {
      "inputs": [],
      "name": "owner",
      "outputs": [
        {
          "internalType": "address",
          "name": "",
          "type": "address"
        }
      ],
      "stateMutability": "view",
      "type": "function"
    },
    {
      "inputs": [],
      "name": "renounceOwnership",
      "outputs": [],
      "stateMutability": "nonpayable",
      "type": "function"
    },
    {
      "inputs": [
        {
          "internalType": "address",
          "name": "_mintNftAddr",
          "type": "address"
        }
      ],
      "name": "setMintNFTAddr",
      "outputs": [],
      "stateMutability": "nonpayable",
      "type": "function"
    },
    {
      "inputs": [],
      "name": "testConnection",
      "outputs": [
        {
          "internalType": "string",
          "name": "",
          "type": "string"
        }
      ],
      "stateMutability": "pure",
      "type": "function"
    },
    {
      "inputs": [
        {
          "internalType": "address",
          "name": "newOwner",
          "type": "address"
        }
      ],
      "name": "transferOwnership",
      "outputs": [],
      "stateMutability": "nonpayable",
      "type": "function"
    },
    {
      "inputs": [
        {
          "internalType": "string",
          "name": "_secretPhrase",
          "type": "string"
        },
        {
          "internalType": "uint256",
          "name": "_eventRecordId",
          "type": "uint256"
        }
      ],
      "name": "verifySecretPhrase",
      "outputs": [
        {
          "internalType": "bool",
          "name": "",
          "type": "bool"
        }
      ],
      "stateMutability": "view",
      "type": "function"
    }
  ],
  "bytecode": "0x608060405234801561001057600080fd5b50613269806100206000396000f3fe608060405234801561001057600080fd5b50600436106101005760003560e01c8063be04cc3611610097578063e37c24fe11610066578063e37c24fe14610263578063f2be2f6d14610293578063f2fde38b146102af578063f321060a146102cb57610100565b8063be04cc36146101ed578063c72b51761461020b578063ccf7349914610229578063d337483a1461024557610100565b8063715018a6116100d3578063715018a61461018b5780638129fc1c146101955780638da5cb5b1461019f578063b98079bc146101bd57610100565b806306fe6dec146101055780631ac30e63146101355780633412a15c1461015157806345e46c691461016f575b600080fd5b61011f600480360381019061011a919061221d565b6102e9565b60405161012c9190612c68565b60405180910390f35b61014f600480360381019061014a91906121f4565b6103f4565b005b6101596104b0565b6040516101669190612b64565b60405180910390f35b61018960048036038101906101849190612319565b6104f3565b005b61019361064f565b005b61019d610663565b005b6101a76107b5565b6040516101b49190612aad565b60405180910390f35b6101d760048036038101906101d29190612319565b6107df565b6040516101e49190612c46565b60405180910390f35b6101f5610b52565b6040516102029190612aea565b60405180910390f35b610213610e84565b6040516102209190612aea565b60405180910390f35b610243600480360381019061023e9190612259565b611062565b005b61024d611429565b60405161025a9190612ac8565b60405180910390f35b61027d600480360381019061027891906122c5565b61180e565b60405161028a9190612b2e565b60405180910390f35b6102ad60048036038101906102a89190612342565b611890565b005b6102c960048036038101906102c491906121f4565b611b5e565b005b6102d3611be2565b6040516102e09190612b0c565b60405180910390f35b600080606b60008573ffffffffffffffffffffffffffffffffffffffff1673ffffffffffffffffffffffffffffffffffffffff1681526020019081526020016000208054905090506000805b828110156103e85784606b60008873ffffffffffffffffffffffffffffffffffffffff1673ffffffffffffffffffffffffffffffffffffffff16815260200190815260200160002082815481106103b5577f4e487b7100000000000000000000000000000000000000000000000000000000600052603260045260246000fd5b906000526020600020015414156103d55781806103d190612f90565b9250505b80806103e090612f90565b915050610335565b50809250505092915050565b6103fc611c7d565b600073ffffffffffffffffffffffffffffffffffffffff168173ffffffffffffffffffffffffffffffffffffffff16141561046c576040517f08c379a000000000000000000000000000000000000000000000000000000000815260040161046390612c06565b60405180910390fd5b80606f60006101000a81548173ffffffffffffffffffffffffffffffffffffffff021916908373ffffffffffffffffffffffffffffffffffffffff16021790555050565b606060006040518060400160405280601a81526020017f5465737420636f6e6e656374696f6e207375636365737366756c00000000000081525090508091505090565b606a6000828152602001908152602001600020339080600181540180825580915050600190039060005260206000200160009091909190916101000a81548173ffffffffffffffffffffffffffffffffffffffff021916908373ffffffffffffffffffffffffffffffffffffffff160217905550606c60003373ffffffffffffffffffffffffffffffffffffffff1673ffffffffffffffffffffffffffffffffffffffff1681526020019081526020016000208190806001815401808255809150506001900390600052602060002001600090919091909150556000606e6000838152602001908152602001600020549050606b60003373ffffffffffffffffffffffffffffffffffffffff1673ffffffffffffffffffffffffffffffffffffffff1681526020019081526020016000208190806001815401808255809150506001900390600052602060002001600090919091909150555050565b610657611c7d565b6106616000611cfb565b565b60008060019054906101000a900460ff161590508080156106945750600160008054906101000a900460ff1660ff16105b806106c157506106a330611dc1565b1580156106c05750600160008054906101000a900460ff1660ff16145b5b610700576040517f08c379a00000000000000000000000000000000000000000000000000000000081526004016106f790612bc6565b60405180910390fd5b60016000806101000a81548160ff021916908360ff160217905550801561073d576001600060016101000a81548160ff0219169083151502179055505b610745611de4565b61074f6066611e3d565b6107596065611e3d565b80156107b25760008060016101000a81548160ff0219169083151502179055507f7f26b83ff96e1f2b6a682f133852f6798a09c465da95921460cefb384740249860016040516107a99190612b49565b60405180910390a15b50565b6000603360009054906101000a900473ffffffffffffffffffffffffffffffffffffffff16905090565b6107e7611eca565b60006001836107f69190612e46565b9050600060688281548110610834577f4e487b7100000000000000000000000000000000000000000000000000000000600052603260045260246000fd5b906000526020600020906008020160405180610100016040529081600082015481526020016001820154815260200160028201805461087290612f2d565b80601f016020809104026020016040519081016040528092919081815260200182805461089e90612f2d565b80156108eb5780601f106108c0576101008083540402835291602001916108eb565b820191906000526020600020905b8154815290600101906020018083116108ce57829003601f168201915b5050505050815260200160038201805461090490612f2d565b80601f016020809104026020016040519081016040528092919081815260200182805461093090612f2d565b801561097d5780601f106109525761010080835404028352916020019161097d565b820191906000526020600020905b81548152906001019060200180831161096057829003601f168201915b5050505050815260200160048201805461099690612f2d565b80601f01602080910402602001604051908101604052809291908181526020018280546109c290612f2d565b8015610a0f5780601f106109e457610100808354040283529160200191610a0f565b820191906000526020600020905b8154815290600101906020018083116109f257829003601f168201915b50505050508152602001600582018054610a2890612f2d565b80601f0160208091040260200160405190810160405280929190818152602001828054610a5490612f2d565b8015610aa15780601f10610a7657610100808354040283529160200191610aa1565b820191906000526020600020905b815481529060010190602001808311610a8457829003601f168201915b50505050508152602001600682018054610aba90612f2d565b80601f0160208091040260200160405190810160405280929190818152602001828054610ae690612f2d565b8015610b335780601f10610b0857610100808354040283529160200191610b33565b820191906000526020600020905b815481529060010190602001808311610b1657829003601f168201915b5050505050815260200160078201548152505090508092505050919050565b60606000606960003373ffffffffffffffffffffffffffffffffffffffff1673ffffffffffffffffffffffffffffffffffffffff1681526020019081526020016000208054905090506000606780549050905060008267ffffffffffffffff811115610be7577f4e487b7100000000000000000000000000000000000000000000000000000000600052604160045260246000fd5b604051908082528060200260200182016040528015610c2057816020015b610c0d611f12565b815260200190600190039081610c055790505b5090506000805b83811015610e79573373ffffffffffffffffffffffffffffffffffffffff1660678281548110610c80577f4e487b7100000000000000000000000000000000000000000000000000000000600052603260045260246000fd5b906000526020600020906003020160010160009054906101000a900473ffffffffffffffffffffffffffffffffffffffff1673ffffffffffffffffffffffffffffffffffffffff161415610e665760678181548110610d08577f4e487b7100000000000000000000000000000000000000000000000000000000600052603260045260246000fd5b9060005260206000209060030201604051806060016040529081600082015481526020016001820160009054906101000a900473ffffffffffffffffffffffffffffffffffffffff1673ffffffffffffffffffffffffffffffffffffffff1673ffffffffffffffffffffffffffffffffffffffff168152602001600282018054610d9190612f2d565b80601f0160208091040260200160405190810160405280929190818152602001828054610dbd90612f2d565b8015610e0a5780601f10610ddf57610100808354040283529160200191610e0a565b820191906000526020600020905b815481529060010190602001808311610ded57829003601f168201915b505050505081525050838381518110610e4c577f4e487b7100000000000000000000000000000000000000000000000000000000600052603260045260246000fd5b60200260200101819052508180610e6290612f90565b9250505b8080610e7190612f90565b915050610c27565b508194505050505090565b60606000606780549050905060008167ffffffffffffffff811115610ed2577f4e487b7100000000000000000000000000000000000000000000000000000000600052604160045260246000fd5b604051908082528060200260200182016040528015610f0b57816020015b610ef8611f12565b815260200190600190039081610ef05790505b5090506067805480602002602001604051908101604052809291908181526020016000905b828210156110545783829060005260206000209060030201604051806060016040529081600082015481526020016001820160009054906101000a900473ffffffffffffffffffffffffffffffffffffffff1673ffffffffffffffffffffffffffffffffffffffff1673ffffffffffffffffffffffffffffffffffffffff168152602001600282018054610fc390612f2d565b80601f0160208091040260200160405190810160405280929190818152602001828054610fef90612f2d565b801561103c5780601f106110115761010080835404028352916020019161103c565b820191906000526020600020905b81548152906001019060200180831161101f57829003601f168201915b50505050508152505081526020019060010190610f30565b505050509050809250505090565b600061106e6066611e53565b90506000606f60009054906101000a900473ffffffffffffffffffffffffffffffffffffffff16905060008351905060008167ffffffffffffffff8111156110df577f4e487b7100000000000000000000000000000000000000000000000000000000600052604160045260246000fd5b60405190808252806020026020018201604052801561111857816020015b611105611f49565b8152602001906001900390816110fd5790505b50905060005b82811015611277576040518060c00160405280888152602001878381518110611170577f4e487b7100000000000000000000000000000000000000000000000000000000600052603260045260246000fd5b60200260200101516000015181526020018783815181106111ba577f4e487b7100000000000000000000000000000000000000000000000000000000600052603260045260246000fd5b602002602001015160200151815260200186815260200160008152602001878381518110611211577f4e487b7100000000000000000000000000000000000000000000000000000000600052603260045260246000fd5b602002602001015160400151815250828281518110611259577f4e487b7100000000000000000000000000000000000000000000000000000000600052603260045260246000fd5b6020026020010181905250808061126f90612f90565b91505061111e565b50606760405180606001604052808681526020013373ffffffffffffffffffffffffffffffffffffffff1681526020018881525090806001815401808255809150506001900390600052602060002090600302016000909190919091506000820151816000015560208201518160010160006101000a81548173ffffffffffffffffffffffffffffffffffffffff021916908373ffffffffffffffffffffffffffffffffffffffff1602179055506040820151816002019080519060200190611341929190611f7f565b505050606960003373ffffffffffffffffffffffffffffffffffffffff1673ffffffffffffffffffffffffffffffffffffffff1681526020019081526020016000208490806001815401808255809150506001900390600052602060002001600090919091909150558273ffffffffffffffffffffffffffffffffffffffff1663d9bfb10c85836040518363ffffffff1660e01b81526004016113e5929190612c83565b600060405180830381600087803b1580156113ff57600080fd5b505af1158015611413573d6000803e3d6000fd5b505050506114216066611e3d565b505050505050565b60606000606880549050905060008167ffffffffffffffff811115611477577f4e487b7100000000000000000000000000000000000000000000000000000000600052604160045260246000fd5b6040519080825280602002602001820160405280156114b057816020015b61149d611eca565b8152602001906001900390816114955790505b5090506068805480602002602001604051908101604052809291908181526020016000905b82821015611800578382906000526020600020906008020160405180610100016040529081600082015481526020016001820154815260200160028201805461151d90612f2d565b80601f016020809104026020016040519081016040528092919081815260200182805461154990612f2d565b80156115965780601f1061156b57610100808354040283529160200191611596565b820191906000526020600020905b81548152906001019060200180831161157957829003601f168201915b505050505081526020016003820180546115af90612f2d565b80601f01602080910402602001604051908101604052809291908181526020018280546115db90612f2d565b80156116285780601f106115fd57610100808354040283529160200191611628565b820191906000526020600020905b81548152906001019060200180831161160b57829003601f168201915b5050505050815260200160048201805461164190612f2d565b80601f016020809104026020016040519081016040528092919081815260200182805461166d90612f2d565b80156116ba5780601f1061168f576101008083540402835291602001916116ba565b820191906000526020600020905b81548152906001019060200180831161169d57829003601f168201915b505050505081526020016005820180546116d390612f2d565b80601f01602080910402602001604051908101604052809291908181526020018280546116ff90612f2d565b801561174c5780601f106117215761010080835404028352916020019161174c565b820191906000526020600020905b81548152906001019060200180831161172f57829003601f168201915b5050505050815260200160068201805461176590612f2d565b80601f016020809104026020016040519081016040528092919081815260200182805461179190612f2d565b80156117de5780601f106117b3576101008083540402835291602001916117de565b820191906000526020600020905b8154815290600101906020018083116117c157829003601f168201915b50505050508152602001600782015481525050815260200190600101906114d5565b505050509050809250505090565b600080839050600081805190602001209050600060018561182f9190612e46565b90506000826068838154811061186e577f4e487b7100000000000000000000000000000000000000000000000000000000600052603260045260246000fd5b9060005260206000209060080201600701541490508094505050505092915050565b6000805b606960003373ffffffffffffffffffffffffffffffffffffffff1673ffffffffffffffffffffffffffffffffffffffff1681526020019081526020016000208054905081101561197f5788606960003373ffffffffffffffffffffffffffffffffffffffff1673ffffffffffffffffffffffffffffffffffffffff1681526020019081526020016000208281548110611956577f4e487b7100000000000000000000000000000000000000000000000000000000600052603260045260246000fd5b9060005260206000200154141561196c57600191505b808061197790612f90565b915050611894565b50806119c0576040517f08c379a00000000000000000000000000000000000000000000000000000000081526004016119b790612ba6565b60405180910390fd5b60006119cc6065611e53565b9050600083905060008180519060200120905060686040518061010001604052808581526020018d81526020018c81526020018b81526020018a815260200189815260200188815260200183815250908060018154018082558091505060019003906000526020600020906008020160009091909190915060008201518160000155602082015181600101556040820151816002019080519060200190611a74929190611f7f565b506060820151816003019080519060200190611a91929190611f7f565b506080820151816004019080519060200190611aae929190611f7f565b5060a0820151816005019080519060200190611acb929190611f7f565b5060c0820151816006019080519060200190611ae8929190611f7f565b5060e082015181600701555050606d60008c81526020019081526020016000208390806001815401808255809150506001900390600052602060002001600090919091909150558a606e600085815260200190815260200160002081905550611b516065611e3d565b5050505050505050505050565b611b66611c7d565b600073ffffffffffffffffffffffffffffffffffffffff168173ffffffffffffffffffffffffffffffffffffffff161415611bd6576040517f08c379a0000000000000000000000000000000000000000000000000000000008152600401611bcd90612b86565b60405180910390fd5b611bdf81611cfb565b50565b60606000606c60003373ffffffffffffffffffffffffffffffffffffffff1673ffffffffffffffffffffffffffffffffffffffff168152602001908152602001600020805480602002602001604051908101604052809291908181526020018280548015611c6f57602002820191906000526020600020905b815481526020019060010190808311611c5b575b505050505090508091505090565b611c85611e61565b73ffffffffffffffffffffffffffffffffffffffff16611ca36107b5565b73ffffffffffffffffffffffffffffffffffffffff1614611cf9576040517f08c379a0000000000000000000000000000000000000000000000000000000008152600401611cf090612be6565b60405180910390fd5b565b6000603360009054906101000a900473ffffffffffffffffffffffffffffffffffffffff16905081603360006101000a81548173ffffffffffffffffffffffffffffffffffffffff021916908373ffffffffffffffffffffffffffffffffffffffff1602179055508173ffffffffffffffffffffffffffffffffffffffff168173ffffffffffffffffffffffffffffffffffffffff167f8be0079c531659141344cd1fd0a4f28419497f9722a3daafe3b4186f6b6457e060405160405180910390a35050565b6000808273ffffffffffffffffffffffffffffffffffffffff163b119050919050565b600060019054906101000a900460ff16611e33576040517f08c379a0000000000000000000000000000000000000000000000000000000008152600401611e2a90612c26565b60405180910390fd5b611e3b611e69565b565b6001816000016000828254019250508190555050565b600081600001549050919050565b600033905090565b600060019054906101000a900460ff16611eb8576040517f08c379a0000000000000000000000000000000000000000000000000000000008152600401611eaf90612c26565b60405180910390fd5b611ec8611ec3611e61565b611cfb565b565b60405180610100016040528060008152602001600081526020016060815260200160608152602001606081526020016060815260200160608152602001600080191681525090565b604051806060016040528060008152602001600073ffffffffffffffffffffffffffffffffffffffff168152602001606081525090565b6040518060c001604052806060815260200160608152602001606081526020016000815260200160008152602001600081525090565b828054611f8b90612f2d565b90600052602060002090601f016020900481019282611fad5760008555611ff4565b82601f10611fc657805160ff1916838001178555611ff4565b82800160010185558215611ff4579182015b82811115611ff3578251825591602001919060010190611fd8565b5b5090506120019190612005565b5090565b5b8082111561201e576000816000905550600101612006565b5090565b600061203561203084612cd8565b612cb3565b9050808382526020820190508285602086028201111561205457600080fd5b60005b8581101561209e57813567ffffffffffffffff81111561207657600080fd5b808601612083898261214f565b85526020850194506020840193505050600181019050612057565b5050509392505050565b60006120bb6120b684612d04565b612cb3565b9050828152602081018484840111156120d357600080fd5b6120de848285612eeb565b509392505050565b6000813590506120f581613205565b92915050565b600082601f83011261210c57600080fd5b813561211c848260208601612022565b91505092915050565b600082601f83011261213657600080fd5b81356121468482602086016120a8565b91505092915050565b60006060828403121561216157600080fd5b61216b6060612cb3565b9050600082013567ffffffffffffffff81111561218757600080fd5b61219384828501612125565b600083015250602082013567ffffffffffffffff8111156121b357600080fd5b6121bf84828501612125565b60208301525060406121d3848285016121df565b60408301525092915050565b6000813590506121ee8161321c565b92915050565b60006020828403121561220657600080fd5b6000612214848285016120e6565b91505092915050565b6000806040838503121561223057600080fd5b600061223e858286016120e6565b925050602061224f858286016121df565b9150509250929050565b6000806040838503121561226c57600080fd5b600083013567ffffffffffffffff81111561228657600080fd5b61229285828601612125565b925050602083013567ffffffffffffffff8111156122af57600080fd5b6122bb858286016120fb565b9150509250929050565b600080604083850312156122d857600080fd5b600083013567ffffffffffffffff8111156122f257600080fd5b6122fe85828601612125565b925050602061230f858286016121df565b9150509250929050565b60006020828403121561232b57600080fd5b6000612339848285016121df565b91505092915050565b600080600080600080600060e0888a03121561235d57600080fd5b600061236b8a828b016121df565b975050602088013567ffffffffffffffff81111561238857600080fd5b6123948a828b01612125565b965050604088013567ffffffffffffffff8111156123b157600080fd5b6123bd8a828b01612125565b955050606088013567ffffffffffffffff8111156123da57600080fd5b6123e68a828b01612125565b945050608088013567ffffffffffffffff81111561240357600080fd5b61240f8a828b01612125565b93505060a088013567ffffffffffffffff81111561242c57600080fd5b6124388a828b01612125565b92505060c088013567ffffffffffffffff81111561245557600080fd5b6124618a828b01612125565b91505092959891949750929550565b600061247c8383612810565b905092915050565b600061249083836129a8565b905092915050565b60006124a483836129f8565b905092915050565b60006124b88383612a8f565b60208301905092915050565b6124cd81612e7a565b82525050565b6124dc81612e7a565b82525050565b60006124ed82612d75565b6124f78185612de0565b93508360208202850161250985612d35565b8060005b8581101561254557848403895281516125268582612470565b945061253183612dac565b925060208a0199505060018101905061250d565b50829750879550505050505092915050565b600061256282612d80565b61256c8185612df1565b93508360208202850161257e85612d45565b8060005b858110156125ba578484038952815161259b8582612484565b94506125a683612db9565b925060208a01995050600181019050612582565b50829750879550505050505092915050565b60006125d782612d8b565b6125e18185612e02565b9350836020820285016125f385612d55565b8060005b8581101561262f57848403895281516126108582612498565b945061261b83612dc6565b925060208a019950506001810190506125f7565b50829750879550505050505092915050565b600061264c82612d96565b6126568185612e13565b935061266183612d65565b8060005b8381101561269257815161267988826124ac565b975061268483612dd3565b925050600181019050612665565b5085935050505092915050565b6126a881612e8c565b82525050565b6126b781612e98565b82525050565b6126c681612ed9565b82525050565b60006126d782612da1565b6126e18185612e24565b93506126f1818560208601612efa565b6126fa81613066565b840191505092915050565b600061271082612da1565b61271a8185612e35565b935061272a818560208601612efa565b61273381613066565b840191505092915050565b600061274b602683612e35565b915061275682613077565b604082019050919050565b600061276e602a83612e35565b9150612779826130c6565b604082019050919050565b6000612791602e83612e35565b915061279c82613115565b604082019050919050565b60006127b4602083612e35565b91506127bf82613164565b602082019050919050565b60006127d7601983612e35565b91506127e28261318d565b602082019050919050565b60006127fa602b83612e35565b9150612805826131b6565b604082019050919050565b6000610100830160008301516128296000860182612a8f565b50602083015161283c6020860182612a8f565b506040830151848203604086015261285482826126cc565b9150506060830151848203606086015261286e82826126cc565b9150506080830151848203608086015261288882826126cc565b91505060a083015184820360a08601526128a282826126cc565b91505060c083015184820360c08601526128bc82826126cc565b91505060e08301516128d160e08601826126ae565b508091505092915050565b6000610100830160008301516128f56000860182612a8f565b5060208301516129086020860182612a8f565b506040830151848203604086015261292082826126cc565b9150506060830151848203606086015261293a82826126cc565b9150506080830151848203608086015261295482826126cc565b91505060a083015184820360a086015261296e82826126cc565b91505060c083015184820360c086015261298882826126cc565b91505060e083015161299d60e08601826126ae565b508091505092915050565b60006060830160008301516129c06000860182612a8f565b5060208301516129d360208601826124c4565b50604083015184820360408601526129eb82826126cc565b9150508091505092915050565b600060c0830160008301518482036000860152612a1582826126cc565b91505060208301518482036020860152612a2f82826126cc565b91505060408301518482036040860152612a4982826126cc565b9150506060830151612a5e6060860182612a8f565b506080830151612a716080860182612a8f565b5060a0830151612a8460a0860182612a8f565b508091505092915050565b612a9881612ec2565b82525050565b612aa781612ec2565b82525050565b6000602082019050612ac260008301846124d3565b92915050565b60006020820190508181036000830152612ae281846124e2565b905092915050565b60006020820190508181036000830152612b048184612557565b905092915050565b60006020820190508181036000830152612b268184612641565b905092915050565b6000602082019050612b43600083018461269f565b92915050565b6000602082019050612b5e60008301846126bd565b92915050565b60006020820190508181036000830152612b7e8184612705565b905092915050565b60006020820190508181036000830152612b9f8161273e565b9050919050565b60006020820190508181036000830152612bbf81612761565b9050919050565b60006020820190508181036000830152612bdf81612784565b9050919050565b60006020820190508181036000830152612bff816127a7565b9050919050565b60006020820190508181036000830152612c1f816127ca565b9050919050565b60006020820190508181036000830152612c3f816127ed565b9050919050565b60006020820190508181036000830152612c6081846128dc565b905092915050565b6000602082019050612c7d6000830184612a9e565b92915050565b6000604082019050612c986000830185612a9e565b8181036020830152612caa81846125cc565b90509392505050565b6000612cbd612cce565b9050612cc98282612f5f565b919050565b6000604051905090565b600067ffffffffffffffff821115612cf357612cf2613037565b5b602082029050602081019050919050565b600067ffffffffffffffff821115612d1f57612d1e613037565b5b612d2882613066565b9050602081019050919050565b6000819050602082019050919050565b6000819050602082019050919050565b6000819050602082019050919050565b6000819050602082019050919050565b600081519050919050565b600081519050919050565b600081519050919050565b600081519050919050565b600081519050919050565b6000602082019050919050565b6000602082019050919050565b6000602082019050919050565b6000602082019050919050565b600082825260208201905092915050565b600082825260208201905092915050565b600082825260208201905092915050565b600082825260208201905092915050565b600082825260208201905092915050565b600082825260208201905092915050565b6000612e5182612ec2565b9150612e5c83612ec2565b925082821015612e6f57612e6e612fd9565b5b828203905092915050565b6000612e8582612ea2565b9050919050565b60008115159050919050565b6000819050919050565b600073ffffffffffffffffffffffffffffffffffffffff82169050919050565b6000819050919050565b600060ff82169050919050565b6000612ee482612ecc565b9050919050565b82818337600083830152505050565b60005b83811015612f18578082015181840152602081019050612efd565b83811115612f27576000848401525b50505050565b60006002820490506001821680612f4557607f821691505b60208210811415612f5957612f58613008565b5b50919050565b612f6882613066565b810181811067ffffffffffffffff82111715612f8757612f86613037565b5b80604052505050565b6000612f9b82612ec2565b91507fffffffffffffffffffffffffffffffffffffffffffffffffffffffffffffffff821415612fce57612fcd612fd9565b5b600182019050919050565b7f4e487b7100000000000000000000000000000000000000000000000000000000600052601160045260246000fd5b7f4e487b7100000000000000000000000000000000000000000000000000000000600052602260045260246000fd5b7f4e487b7100000000000000000000000000000000000000000000000000000000600052604160045260246000fd5b6000601f19601f8301169050919050565b7f4f776e61626c653a206e6577206f776e657220697320746865207a65726f206160008201527f6464726573730000000000000000000000000000000000000000000000000000602082015250565b7f4f6e6c792067726f7570206f776e6572732063616e206372656174652065766560008201527f6e74207265636f72647300000000000000000000000000000000000000000000602082015250565b7f496e697469616c697a61626c653a20636f6e747261637420697320616c72656160008201527f647920696e697469616c697a6564000000000000000000000000000000000000602082015250565b7f4f776e61626c653a2063616c6c6572206973206e6f7420746865206f776e6572600082015250565b7f6d696e74206e6674206164647265737320697320626c616e6b00000000000000600082015250565b7f496e697469616c697a61626c653a20636f6e7472616374206973206e6f74206960008201527f6e697469616c697a696e67000000000000000000000000000000000000000000602082015250565b61320e81612e7a565b811461321957600080fd5b50565b61322581612ec2565b811461323057600080fd5b5056fea2646970667358221220d93d328e47d1afb8975d0c2206ea3022abe3505cdd7488bf5490a1172f54ae9d64736f6c63430008040033",
  "linkReferences": {},
  "deployedLinkReferences": {}
}