{
  "_format": "hh-sol-artifact-1",
  "contractName": "EventManager",
  "sourceName": "contracts/Event.sol",
  "abi": [
    {
      "anonymous": false,
      "inputs": [
        {
          "indexed": true,
          "internalType": "address",
          "name": "owner",
          "type": "address"
        },
        {
          "indexed": false,
          "internalType": "uint256",
          "name": "groupId",
          "type": "uint256"
        }
      ],
      "name": "CreatedGroupId",
      "type": "event"
    },
    {
      "anonymous": false,
      "inputs": [
        {
          "indexed": false,
          "internalType": "uint8",
          "name": "version",
          "type": "uint8"
        }
      ],
      "name": "Initialized",
      "type": "event"
    },
    {
      "anonymous": false,
      "inputs": [
        {
          "indexed": true,
          "internalType": "address",
          "name": "previousOwner",
          "type": "address"
        },
        {
          "indexed": true,
          "internalType": "address",
          "name": "newOwner",
          "type": "address"
        }
      ],
      "name": "OwnershipTransferred",
      "type": "event"
    },
    {
      "inputs": [
        {
          "internalType": "uint256",
          "name": "_groupId",
          "type": "uint256"
        },
        {
          "internalType": "string",
          "name": "_name",
          "type": "string"
        },
        {
          "internalType": "string",
          "name": "_description",
          "type": "string"
        },
        {
          "internalType": "string",
          "name": "_date",
          "type": "string"
        },
        {
          "internalType": "uint256",
          "name": "_mintLimit",
          "type": "uint256"
        },
        {
          "internalType": "bool",
          "name": "_useMtx",
          "type": "bool"
        },
        {
          "internalType": "string",
          "name": "_secretPhrase",
          "type": "string"
        },
        {
          "components": [
            {
              "internalType": "string",
              "name": "metaDataURL",
              "type": "string"
            },
            {
              "internalType": "uint256",
              "name": "requiredParticipateCount",
              "type": "uint256"
            }
          ],
          "internalType": "struct IMintNFT.NFTAttribute[]",
          "name": "_eventNFTAttributes",
          "type": "tuple[]"
        }
      ],
      "name": "createEventRecord",
      "outputs": [],
      "stateMutability": "nonpayable",
      "type": "function"
    },
    {
      "inputs": [
        {
          "internalType": "string",
          "name": "_name",
          "type": "string"
        }
      ],
      "name": "createGroup",
      "outputs": [],
      "stateMutability": "nonpayable",
      "type": "function"
    },
    {
      "inputs": [
        {
          "internalType": "uint256",
          "name": "_eventId",
          "type": "uint256"
        }
      ],
      "name": "getEventById",
      "outputs": [
        {
          "components": [
            {
              "internalType": "uint256",
              "name": "eventRecordId",
              "type": "uint256"
            },
            {
              "internalType": "uint256",
              "name": "groupId",
              "type": "uint256"
            },
            {
              "internalType": "string",
              "name": "name",
              "type": "string"
            },
            {
              "internalType": "string",
              "name": "description",
              "type": "string"
            },
            {
              "internalType": "string",
              "name": "date",
              "type": "string"
            },
            {
              "internalType": "bool",
              "name": "useMtx",
              "type": "bool"
            }
          ],
          "internalType": "struct EventManager.EventRecord",
          "name": "",
          "type": "tuple"
        }
      ],
      "stateMutability": "view",
      "type": "function"
    },
    {
      "inputs": [],
      "name": "getEventRecords",
      "outputs": [
        {
          "components": [
            {
              "internalType": "uint256",
              "name": "eventRecordId",
              "type": "uint256"
            },
            {
              "internalType": "uint256",
              "name": "groupId",
              "type": "uint256"
            },
            {
              "internalType": "string",
              "name": "name",
              "type": "string"
            },
            {
              "internalType": "string",
              "name": "description",
              "type": "string"
            },
            {
              "internalType": "string",
              "name": "date",
              "type": "string"
            },
            {
              "internalType": "bool",
              "name": "useMtx",
              "type": "bool"
            }
          ],
          "internalType": "struct EventManager.EventRecord[]",
          "name": "",
          "type": "tuple[]"
        }
      ],
      "stateMutability": "view",
      "type": "function"
    },
    {
      "inputs": [],
      "name": "getGroups",
      "outputs": [
        {
          "components": [
            {
              "internalType": "uint256",
              "name": "groupId",
              "type": "uint256"
            },
            {
              "internalType": "address",
              "name": "ownerAddress",
              "type": "address"
            },
            {
              "internalType": "string",
              "name": "name",
              "type": "string"
            }
          ],
          "internalType": "struct EventManager.Group[]",
          "name": "",
          "type": "tuple[]"
        }
      ],
      "stateMutability": "view",
      "type": "function"
    },
    {
      "inputs": [],
      "name": "getOwnGroups",
      "outputs": [
        {
          "components": [
            {
              "internalType": "uint256",
              "name": "groupId",
              "type": "uint256"
            },
            {
              "internalType": "address",
              "name": "ownerAddress",
              "type": "address"
            },
            {
              "internalType": "string",
              "name": "name",
              "type": "string"
            }
          ],
          "internalType": "struct EventManager.Group[]",
          "name": "",
          "type": "tuple[]"
        }
      ],
      "stateMutability": "view",
      "type": "function"
    },
    {
      "inputs": [],
      "name": "initialize",
      "outputs": [],
      "stateMutability": "nonpayable",
      "type": "function"
    },
    {
      "inputs": [],
      "name": "owner",
      "outputs": [
        {
          "internalType": "address",
          "name": "",
          "type": "address"
        }
      ],
      "stateMutability": "view",
      "type": "function"
    },
    {
      "inputs": [],
      "name": "renounceOwnership",
      "outputs": [],
      "stateMutability": "nonpayable",
      "type": "function"
    },
    {
      "inputs": [
        {
          "internalType": "address",
          "name": "_mintNftAddr",
          "type": "address"
        }
      ],
      "name": "setMintNFTAddr",
      "outputs": [],
      "stateMutability": "nonpayable",
      "type": "function"
    },
    {
      "inputs": [
        {
          "internalType": "address",
          "name": "newOwner",
          "type": "address"
        }
      ],
      "name": "transferOwnership",
      "outputs": [],
      "stateMutability": "nonpayable",
      "type": "function"
    }
  ],
  "bytecode": "0x608060405234801561001057600080fd5b5061260e806100206000396000f3fe608060405234801561001057600080fd5b50600436106100a95760003560e01c8063b98079bc11610071578063b98079bc14610118578063be04cc3614610148578063c72b517614610166578063d337483a14610184578063dc2ddcae146101a2578063f2fde38b146101be576100a9565b80631ac30e63146100ae578063715018a6146100ca5780638129fc1c146100d45780638da5cb5b146100de57806390d68b0c146100fc575b600080fd5b6100c860048036038101906100c3919061165a565b6101da565b005b6100d2610296565b005b6100dc6102aa565b005b6100e66103fc565b6040516100f39190611696565b60405180910390f35b610116600480360381019061011191906119c1565b610426565b005b610132600480360381019061012d9190611b03565b610733565b60405161013f9190611c6d565b60405180910390f35b61015061096c565b60405161015d9190611db0565b60405180910390f35b61016e610c06565b60405161017b9190611db0565b60405180910390f35b61018c610dbe565b6040516101999190611f2b565b60405180910390f35b6101bc60048036038101906101b79190611f4d565b611069565b005b6101d860048036038101906101d3919061165a565b611205565b005b6101e2611289565b600073ffffffffffffffffffffffffffffffffffffffff168173ffffffffffffffffffffffffffffffffffffffff161415610252576040517f08c379a000000000000000000000000000000000000000000000000000000000815260040161024990611ff3565b60405180910390fd5b80606c60006101000a81548173ffffffffffffffffffffffffffffffffffffffff021916908373ffffffffffffffffffffffffffffffffffffffff16021790555050565b61029e611289565b6102a86000611307565b565b60008060019054906101000a900460ff161590508080156102db5750600160008054906101000a900460ff1660ff16105b8061030857506102ea306113cd565b1580156103075750600160008054906101000a900460ff1660ff16145b5b610347576040517f08c379a000000000000000000000000000000000000000000000000000000000815260040161033e90612085565b60405180910390fd5b60016000806101000a81548160ff021916908360ff1602179055508015610384576001600060016101000a81548160ff0219169083151502179055505b61038c6113f0565b6103966066611449565b6103a06065611449565b80156103f95760008060016101000a81548160ff0219169083151502179055507f7f26b83ff96e1f2b6a682f133852f6798a09c465da95921460cefb384740249860016040516103f091906120f7565b60405180910390a15b50565b6000603360009054906101000a900473ffffffffffffffffffffffffffffffffffffffff16905090565b6000805b606960003373ffffffffffffffffffffffffffffffffffffffff1673ffffffffffffffffffffffffffffffffffffffff168152602001908152602001600020805490508110156104ef5789606960003373ffffffffffffffffffffffffffffffffffffffff1673ffffffffffffffffffffffffffffffffffffffff16815260200190815260200160002082815481106104c6576104c5612112565b5b906000526020600020015414156104dc57600191505b80806104e790612170565b91505061042a565b5080610530576040517f08c379a000000000000000000000000000000000000000000000000000000000815260040161052790612205565b60405180910390fd5b600061053c606561145f565b905060686040518060c001604052808381526020018c81526020018b81526020018a81526020018981526020018715158152509080600181540180825580915050600190039060005260206000209060060201600090919091909150600082015181600001556020820151816001015560408201518160020190805190602001906105c89291906114d6565b5060608201518160030190805190602001906105e59291906114d6565b5060808201518160040190805190602001906106029291906114d6565b5060a08201518160050160006101000a81548160ff02191690831515021790555050506000848051906020012090506000606c60009054906101000a900473ffffffffffffffffffffffffffffffffffffffff1690508073ffffffffffffffffffffffffffffffffffffffff1663ef3ad9eb848a85896040518563ffffffff1660e01b8152600401610697949392919061234c565b600060405180830381600087803b1580156106b157600080fd5b505af11580156106c5573d6000803e3d6000fd5b50505050606a60008d81526020019081526020016000208390806001815401808255809150506001900390600052602060002001600090919091909150558b606b6000858152602001908152602001600020819055506107256065611449565b505050505050505050505050565b61073b61155c565b600060018361074a9190612398565b905060006068828154811061076257610761612112565b5b90600052602060002090600602016040518060c0016040529081600082015481526020016001820154815260200160028201805461079f906123fb565b80601f01602080910402602001604051908101604052809291908181526020018280546107cb906123fb565b80156108185780601f106107ed57610100808354040283529160200191610818565b820191906000526020600020905b8154815290600101906020018083116107fb57829003601f168201915b50505050508152602001600382018054610831906123fb565b80601f016020809104026020016040519081016040528092919081815260200182805461085d906123fb565b80156108aa5780601f1061087f576101008083540402835291602001916108aa565b820191906000526020600020905b81548152906001019060200180831161088d57829003601f168201915b505050505081526020016004820180546108c3906123fb565b80601f01602080910402602001604051908101604052809291908181526020018280546108ef906123fb565b801561093c5780601f106109115761010080835404028352916020019161093c565b820191906000526020600020905b81548152906001019060200180831161091f57829003601f168201915b505050505081526020016005820160009054906101000a900460ff16151515158152505090508092505050919050565b60606000606960003373ffffffffffffffffffffffffffffffffffffffff1673ffffffffffffffffffffffffffffffffffffffff1681526020019081526020016000208054905090506000606780549050905060008267ffffffffffffffff8111156109db576109da611702565b5b604051908082528060200260200182016040528015610a1457816020015b610a01611594565b8152602001906001900390816109f95790505b5090506000805b83811015610bfb573373ffffffffffffffffffffffffffffffffffffffff1660678281548110610a4e57610a4d612112565b5b906000526020600020906003020160010160009054906101000a900473ffffffffffffffffffffffffffffffffffffffff1673ffffffffffffffffffffffffffffffffffffffff161415610be85760678181548110610ab057610aaf612112565b5b9060005260206000209060030201604051806060016040529081600082015481526020016001820160009054906101000a900473ffffffffffffffffffffffffffffffffffffffff1673ffffffffffffffffffffffffffffffffffffffff1673ffffffffffffffffffffffffffffffffffffffff168152602001600282018054610b39906123fb565b80601f0160208091040260200160405190810160405280929190818152602001828054610b65906123fb565b8015610bb25780601f10610b8757610100808354040283529160200191610bb2565b820191906000526020600020905b815481529060010190602001808311610b9557829003601f168201915b505050505081525050838381518110610bce57610bcd612112565b5b60200260200101819052508180610be490612170565b9250505b8080610bf390612170565b915050610a1b565b508194505050505090565b60606000606780549050905060008167ffffffffffffffff811115610c2e57610c2d611702565b5b604051908082528060200260200182016040528015610c6757816020015b610c54611594565b815260200190600190039081610c4c5790505b5090506067805480602002602001604051908101604052809291908181526020016000905b82821015610db05783829060005260206000209060030201604051806060016040529081600082015481526020016001820160009054906101000a900473ffffffffffffffffffffffffffffffffffffffff1673ffffffffffffffffffffffffffffffffffffffff1673ffffffffffffffffffffffffffffffffffffffff168152602001600282018054610d1f906123fb565b80601f0160208091040260200160405190810160405280929190818152602001828054610d4b906123fb565b8015610d985780601f10610d6d57610100808354040283529160200191610d98565b820191906000526020600020905b815481529060010190602001808311610d7b57829003601f168201915b50505050508152505081526020019060010190610c8c565b505050509050809250505090565b60606000606880549050905060008167ffffffffffffffff811115610de657610de5611702565b5b604051908082528060200260200182016040528015610e1f57816020015b610e0c61155c565b815260200190600190039081610e045790505b5090506068805480602002602001604051908101604052809291908181526020016000905b8282101561105b57838290600052602060002090600602016040518060c00160405290816000820154815260200160018201548152602001600282018054610e8b906123fb565b80601f0160208091040260200160405190810160405280929190818152602001828054610eb7906123fb565b8015610f045780601f10610ed957610100808354040283529160200191610f04565b820191906000526020600020905b815481529060010190602001808311610ee757829003601f168201915b50505050508152602001600382018054610f1d906123fb565b80601f0160208091040260200160405190810160405280929190818152602001828054610f49906123fb565b8015610f965780601f10610f6b57610100808354040283529160200191610f96565b820191906000526020600020905b815481529060010190602001808311610f7957829003601f168201915b50505050508152602001600482018054610faf906123fb565b80601f0160208091040260200160405190810160405280929190818152602001828054610fdb906123fb565b80156110285780601f10610ffd57610100808354040283529160200191611028565b820191906000526020600020905b81548152906001019060200180831161100b57829003601f168201915b505050505081526020016005820160009054906101000a900460ff16151515158152505081526020019060010190610e44565b505050509050809250505090565b6000611075606661145f565b9050606760405180606001604052808381526020013373ffffffffffffffffffffffffffffffffffffffff1681526020018481525090806001815401808255809150506001900390600052602060002090600302016000909190919091506000820151816000015560208201518160010160006101000a81548173ffffffffffffffffffffffffffffffffffffffff021916908373ffffffffffffffffffffffffffffffffffffffff16021790555060408201518160020190805190602001906111409291906114d6565b505050606960003373ffffffffffffffffffffffffffffffffffffffff1673ffffffffffffffffffffffffffffffffffffffff1681526020019081526020016000208190806001815401808255809150506001900390600052602060002001600090919091909150556111b36066611449565b3373ffffffffffffffffffffffffffffffffffffffff167f8fd7975dffff2a53bfe748adb09eacd0516344fb3db49dad60069d8b91c63654826040516111f9919061242d565b60405180910390a25050565b61120d611289565b600073ffffffffffffffffffffffffffffffffffffffff168173ffffffffffffffffffffffffffffffffffffffff16141561127d576040517f08c379a0000000000000000000000000000000000000000000000000000000008152600401611274906124ba565b60405180910390fd5b61128681611307565b50565b61129161146d565b73ffffffffffffffffffffffffffffffffffffffff166112af6103fc565b73ffffffffffffffffffffffffffffffffffffffff1614611305576040517f08c379a00000000000000000000000000000000000000000000000000000000081526004016112fc90612526565b60405180910390fd5b565b6000603360009054906101000a900473ffffffffffffffffffffffffffffffffffffffff16905081603360006101000a81548173ffffffffffffffffffffffffffffffffffffffff021916908373ffffffffffffffffffffffffffffffffffffffff1602179055508173ffffffffffffffffffffffffffffffffffffffff168173ffffffffffffffffffffffffffffffffffffffff167f8be0079c531659141344cd1fd0a4f28419497f9722a3daafe3b4186f6b6457e060405160405180910390a35050565b6000808273ffffffffffffffffffffffffffffffffffffffff163b119050919050565b600060019054906101000a900460ff1661143f576040517f08c379a0000000000000000000000000000000000000000000000000000000008152600401611436906125b8565b60405180910390fd5b611447611475565b565b6001816000016000828254019250508190555050565b600081600001549050919050565b600033905090565b600060019054906101000a900460ff166114c4576040517f08c379a00000000000000000000000000000000000000000000000000000000081526004016114bb906125b8565b60405180910390fd5b6114d46114cf61146d565b611307565b565b8280546114e2906123fb565b90600052602060002090601f016020900481019282611504576000855561154b565b82601f1061151d57805160ff191683800117855561154b565b8280016001018555821561154b579182015b8281111561154a57825182559160200191906001019061152f565b5b50905061155891906115cb565b5090565b6040518060c0016040528060008152602001600081526020016060815260200160608152602001606081526020016000151581525090565b604051806060016040528060008152602001600073ffffffffffffffffffffffffffffffffffffffff168152602001606081525090565b5b808211156115e45760008160009055506001016115cc565b5090565b6000604051905090565b600080fd5b600080fd5b600073ffffffffffffffffffffffffffffffffffffffff82169050919050565b6000611627826115fc565b9050919050565b6116378161161c565b811461164257600080fd5b50565b6000813590506116548161162e565b92915050565b6000602082840312156116705761166f6115f2565b5b600061167e84828501611645565b91505092915050565b6116908161161c565b82525050565b60006020820190506116ab6000830184611687565b92915050565b6000819050919050565b6116c4816116b1565b81146116cf57600080fd5b50565b6000813590506116e1816116bb565b92915050565b600080fd5b600080fd5b6000601f19601f8301169050919050565b7f4e487b7100000000000000000000000000000000000000000000000000000000600052604160045260246000fd5b61173a826116f1565b810181811067ffffffffffffffff8211171561175957611758611702565b5b80604052505050565b600061176c6115e8565b90506117788282611731565b919050565b600067ffffffffffffffff82111561179857611797611702565b5b6117a1826116f1565b9050602081019050919050565b82818337600083830152505050565b60006117d06117cb8461177d565b611762565b9050828152602081018484840111156117ec576117eb6116ec565b5b6117f78482856117ae565b509392505050565b600082601f830112611814576118136116e7565b5b81356118248482602086016117bd565b91505092915050565b60008115159050919050565b6118428161182d565b811461184d57600080fd5b50565b60008135905061185f81611839565b92915050565b600067ffffffffffffffff8211156118805761187f611702565b5b602082029050602081019050919050565b600080fd5b600080fd5b600080fd5b6000604082840312156118b6576118b5611896565b5b6118c06040611762565b9050600082013567ffffffffffffffff8111156118e0576118df61189b565b5b6118ec848285016117ff565b6000830152506020611900848285016116d2565b60208301525092915050565b600061191f61191a84611865565b611762565b9050808382526020820190506020840283018581111561194257611941611891565b5b835b8181101561198957803567ffffffffffffffff811115611967576119666116e7565b5b80860161197489826118a0565b85526020850194505050602081019050611944565b5050509392505050565b600082601f8301126119a8576119a76116e7565b5b81356119b884826020860161190c565b91505092915050565b600080600080600080600080610100898b0312156119e2576119e16115f2565b5b60006119f08b828c016116d2565b985050602089013567ffffffffffffffff811115611a1157611a106115f7565b5b611a1d8b828c016117ff565b975050604089013567ffffffffffffffff811115611a3e57611a3d6115f7565b5b611a4a8b828c016117ff565b965050606089013567ffffffffffffffff811115611a6b57611a6a6115f7565b5b611a778b828c016117ff565b9550506080611a888b828c016116d2565b94505060a0611a998b828c01611850565b93505060c089013567ffffffffffffffff811115611aba57611ab96115f7565b5b611ac68b828c016117ff565b92505060e089013567ffffffffffffffff811115611ae757611ae66115f7565b5b611af38b828c01611993565b9150509295985092959890939650565b600060208284031215611b1957611b186115f2565b5b6000611b27848285016116d2565b91505092915050565b611b39816116b1565b82525050565b600081519050919050565b600082825260208201905092915050565b60005b83811015611b79578082015181840152602081019050611b5e565b83811115611b88576000848401525b50505050565b6000611b9982611b3f565b611ba38185611b4a565b9350611bb3818560208601611b5b565b611bbc816116f1565b840191505092915050565b611bd08161182d565b82525050565b600060c083016000830151611bee6000860182611b30565b506020830151611c016020860182611b30565b5060408301518482036040860152611c198282611b8e565b91505060608301518482036060860152611c338282611b8e565b91505060808301518482036080860152611c4d8282611b8e565b91505060a0830151611c6260a0860182611bc7565b508091505092915050565b60006020820190508181036000830152611c878184611bd6565b905092915050565b600081519050919050565b600082825260208201905092915050565b6000819050602082019050919050565b611cc48161161c565b82525050565b6000606083016000830151611ce26000860182611b30565b506020830151611cf56020860182611cbb565b5060408301518482036040860152611d0d8282611b8e565b9150508091505092915050565b6000611d268383611cca565b905092915050565b6000602082019050919050565b6000611d4682611c8f565b611d508185611c9a565b935083602082028501611d6285611cab565b8060005b85811015611d9e5784840389528151611d7f8582611d1a565b9450611d8a83611d2e565b925060208a01995050600181019050611d66565b50829750879550505050505092915050565b60006020820190508181036000830152611dca8184611d3b565b905092915050565b600081519050919050565b600082825260208201905092915050565b6000819050602082019050919050565b600060c083016000830151611e166000860182611b30565b506020830151611e296020860182611b30565b5060408301518482036040860152611e418282611b8e565b91505060608301518482036060860152611e5b8282611b8e565b91505060808301518482036080860152611e758282611b8e565b91505060a0830151611e8a60a0860182611bc7565b508091505092915050565b6000611ea18383611dfe565b905092915050565b6000602082019050919050565b6000611ec182611dd2565b611ecb8185611ddd565b935083602082028501611edd85611dee565b8060005b85811015611f195784840389528151611efa8582611e95565b9450611f0583611ea9565b925060208a01995050600181019050611ee1565b50829750879550505050505092915050565b60006020820190508181036000830152611f458184611eb6565b905092915050565b600060208284031215611f6357611f626115f2565b5b600082013567ffffffffffffffff811115611f8157611f806115f7565b5b611f8d848285016117ff565b91505092915050565b600082825260208201905092915050565b7f6d696e74206e6674206164647265737320697320626c616e6b00000000000000600082015250565b6000611fdd601983611f96565b9150611fe882611fa7565b602082019050919050565b6000602082019050818103600083015261200c81611fd0565b9050919050565b7f496e697469616c697a61626c653a20636f6e747261637420697320616c72656160008201527f647920696e697469616c697a6564000000000000000000000000000000000000602082015250565b600061206f602e83611f96565b915061207a82612013565b604082019050919050565b6000602082019050818103600083015261209e81612062565b9050919050565b6000819050919050565b600060ff82169050919050565b6000819050919050565b60006120e16120dc6120d7846120a5565b6120bc565b6120af565b9050919050565b6120f1816120c6565b82525050565b600060208201905061210c60008301846120e8565b92915050565b7f4e487b7100000000000000000000000000000000000000000000000000000000600052603260045260246000fd5b7f4e487b7100000000000000000000000000000000000000000000000000000000600052601160045260246000fd5b600061217b826116b1565b91507fffffffffffffffffffffffffffffffffffffffffffffffffffffffffffffffff8214156121ae576121ad612141565b5b600182019050919050565b7f596f7520617265206e6f742067726f7570206f776e6572000000000000000000600082015250565b60006121ef601783611f96565b91506121fa826121b9565b602082019050919050565b6000602082019050818103600083015261221e816121e2565b9050919050565b61222e816116b1565b82525050565b6000819050919050565b61224781612234565b82525050565b600081519050919050565b600082825260208201905092915050565b6000819050602082019050919050565b600060408301600083015184820360008601526122968282611b8e565b91505060208301516122ab6020860182611b30565b508091505092915050565b60006122c28383612279565b905092915050565b6000602082019050919050565b60006122e28261224d565b6122ec8185612258565b9350836020820285016122fe85612269565b8060005b8581101561233a578484038952815161231b85826122b6565b9450612326836122ca565b925060208a01995050600181019050612302565b50829750879550505050505092915050565b60006080820190506123616000830187612225565b61236e6020830186612225565b61237b604083018561223e565b818103606083015261238d81846122d7565b905095945050505050565b60006123a3826116b1565b91506123ae836116b1565b9250828210156123c1576123c0612141565b5b828203905092915050565b7f4e487b7100000000000000000000000000000000000000000000000000000000600052602260045260246000fd5b6000600282049050600182168061241357607f821691505b60208210811415612427576124266123cc565b5b50919050565b60006020820190506124426000830184612225565b92915050565b7f4f776e61626c653a206e6577206f776e657220697320746865207a65726f206160008201527f6464726573730000000000000000000000000000000000000000000000000000602082015250565b60006124a4602683611f96565b91506124af82612448565b604082019050919050565b600060208201905081810360008301526124d381612497565b9050919050565b7f4f776e61626c653a2063616c6c6572206973206e6f7420746865206f776e6572600082015250565b6000612510602083611f96565b915061251b826124da565b602082019050919050565b6000602082019050818103600083015261253f81612503565b9050919050565b7f496e697469616c697a61626c653a20636f6e7472616374206973206e6f74206960008201527f6e697469616c697a696e67000000000000000000000000000000000000000000602082015250565b60006125a2602b83611f96565b91506125ad82612546565b604082019050919050565b600060208201905081810360008301526125d181612595565b905091905056fea2646970667358221220ab44fac80ccdb6879ea92b85b55ae867f9390cbff39f5bc5c74b750fecdecc1664736f6c63430008090033",
  "linkReferences": {},
  "deployedLinkReferences": {}
}