{
  "_format": "hh-sol-artifact-1",
  "contractName": "EventManager",
  "sourceName": "contracts/Event.sol",
  "abi": [
    {
      "anonymous": false,
      "inputs": [
        {
          "indexed": true,
          "internalType": "address",
          "name": "owner",
          "type": "address"
        },
        {
          "indexed": false,
          "internalType": "uint256",
          "name": "eventId",
          "type": "uint256"
        }
      ],
      "name": "CreateEvent",
      "type": "event"
    },
    {
      "anonymous": false,
      "inputs": [
        {
          "indexed": true,
          "internalType": "address",
          "name": "owner",
          "type": "address"
        },
        {
          "indexed": false,
          "internalType": "uint256",
          "name": "groupId",
          "type": "uint256"
        }
      ],
      "name": "CreateGroup",
      "type": "event"
    },
    {
      "anonymous": false,
      "inputs": [
        {
          "indexed": false,
          "internalType": "uint8",
          "name": "version",
          "type": "uint8"
        }
      ],
      "name": "Initialized",
      "type": "event"
    },
    {
      "anonymous": false,
      "inputs": [
        {
          "indexed": true,
          "internalType": "address",
          "name": "previousOwner",
          "type": "address"
        },
        {
          "indexed": true,
          "internalType": "address",
          "name": "newOwner",
          "type": "address"
        }
      ],
      "name": "OwnershipTransferred",
      "type": "event"
    },
    {
      "inputs": [
        {
          "internalType": "uint256",
          "name": "_groupId",
          "type": "uint256"
        },
        {
          "internalType": "string",
          "name": "_name",
          "type": "string"
        },
        {
          "internalType": "string",
          "name": "_description",
          "type": "string"
        },
        {
          "internalType": "string",
          "name": "_date",
          "type": "string"
        },
        {
          "internalType": "uint256",
          "name": "_mintLimit",
          "type": "uint256"
        },
        {
          "internalType": "bool",
          "name": "_useMtx",
          "type": "bool"
        },
        {
          "internalType": "bytes32",
          "name": "_secretPhrase",
          "type": "bytes32"
        },
        {
          "components": [
            {
              "internalType": "string",
              "name": "metaDataURL",
              "type": "string"
            },
            {
              "internalType": "uint256",
              "name": "requiredParticipateCount",
              "type": "uint256"
            }
          ],
          "internalType": "struct IMintNFT.NFTAttribute[]",
          "name": "_eventNFTAttributes",
          "type": "tuple[]"
        }
      ],
      "name": "createEventRecord",
      "outputs": [],
      "stateMutability": "payable",
      "type": "function"
    },
    {
      "inputs": [
        {
          "internalType": "string",
          "name": "_name",
          "type": "string"
        }
      ],
      "name": "createGroup",
      "outputs": [],
      "stateMutability": "nonpayable",
      "type": "function"
    },
    {
      "inputs": [
        {
          "internalType": "uint256",
          "name": "_eventId",
          "type": "uint256"
        }
      ],
      "name": "getEventById",
      "outputs": [
        {
          "components": [
            {
              "internalType": "uint256",
              "name": "eventRecordId",
              "type": "uint256"
            },
            {
              "internalType": "uint256",
              "name": "groupId",
              "type": "uint256"
            },
            {
              "internalType": "string",
              "name": "name",
              "type": "string"
            },
            {
              "internalType": "string",
              "name": "description",
              "type": "string"
            },
            {
              "internalType": "string",
              "name": "date",
              "type": "string"
            },
            {
              "internalType": "bool",
              "name": "useMtx",
              "type": "bool"
            }
          ],
          "internalType": "struct EventManager.EventRecord",
          "name": "",
          "type": "tuple"
        }
      ],
      "stateMutability": "view",
      "type": "function"
    },
    {
      "inputs": [],
      "name": "getEventRecords",
      "outputs": [
        {
          "components": [
            {
              "internalType": "uint256",
              "name": "eventRecordId",
              "type": "uint256"
            },
            {
              "internalType": "uint256",
              "name": "groupId",
              "type": "uint256"
            },
            {
              "internalType": "string",
              "name": "name",
              "type": "string"
            },
            {
              "internalType": "string",
              "name": "description",
              "type": "string"
            },
            {
              "internalType": "string",
              "name": "date",
              "type": "string"
            },
            {
              "internalType": "bool",
              "name": "useMtx",
              "type": "bool"
            }
          ],
          "internalType": "struct EventManager.EventRecord[]",
          "name": "",
          "type": "tuple[]"
        }
      ],
      "stateMutability": "view",
      "type": "function"
    },
    {
      "inputs": [],
      "name": "getGroups",
      "outputs": [
        {
          "components": [
            {
              "internalType": "uint256",
              "name": "groupId",
              "type": "uint256"
            },
            {
              "internalType": "address",
              "name": "ownerAddress",
              "type": "address"
            },
            {
              "internalType": "string",
              "name": "name",
              "type": "string"
            }
          ],
          "internalType": "struct EventManager.Group[]",
          "name": "",
          "type": "tuple[]"
        }
      ],
      "stateMutability": "view",
      "type": "function"
    },
    {
      "inputs": [
        {
          "internalType": "address",
          "name": "_address",
          "type": "address"
        }
      ],
      "name": "getOwnGroups",
      "outputs": [
        {
          "components": [
            {
              "internalType": "uint256",
              "name": "groupId",
              "type": "uint256"
            },
            {
              "internalType": "address",
              "name": "ownerAddress",
              "type": "address"
            },
            {
              "internalType": "string",
              "name": "name",
              "type": "string"
            }
          ],
          "internalType": "struct EventManager.Group[]",
          "name": "",
          "type": "tuple[]"
        }
      ],
      "stateMutability": "view",
      "type": "function"
    },
    {
      "inputs": [
        {
          "internalType": "address",
          "name": "_relayerAddr",
          "type": "address"
        },
        {
          "internalType": "uint256",
          "name": "_mtxPrice",
          "type": "uint256"
        },
        {
          "internalType": "uint256",
          "name": "_maxMintLimit",
          "type": "uint256"
        }
      ],
      "name": "initialize",
      "outputs": [],
      "stateMutability": "nonpayable",
      "type": "function"
    },
    {
      "inputs": [
        {
          "internalType": "address",
          "name": "_address",
          "type": "address"
        },
        {
          "internalType": "uint256",
          "name": "_eventId",
          "type": "uint256"
        }
      ],
      "name": "isGroupOwnerByEventId",
      "outputs": [
        {
          "internalType": "bool",
          "name": "",
          "type": "bool"
        }
      ],
      "stateMutability": "view",
      "type": "function"
    },
    {
      "inputs": [],
      "name": "owner",
      "outputs": [
        {
          "internalType": "address",
          "name": "",
          "type": "address"
        }
      ],
      "stateMutability": "view",
      "type": "function"
    },
    {
      "inputs": [],
      "name": "renounceOwnership",
      "outputs": [],
      "stateMutability": "nonpayable",
      "type": "function"
    },
    {
      "inputs": [
        {
          "internalType": "uint256",
          "name": "_mintLimit",
          "type": "uint256"
        }
      ],
      "name": "setMaxMintLimit",
      "outputs": [],
      "stateMutability": "nonpayable",
      "type": "function"
    },
    {
      "inputs": [
        {
          "internalType": "address",
          "name": "_mintNftAddr",
          "type": "address"
        }
      ],
      "name": "setMintNFTAddr",
      "outputs": [],
      "stateMutability": "nonpayable",
      "type": "function"
    },
    {
      "inputs": [
        {
          "internalType": "uint256",
          "name": "_price",
          "type": "uint256"
        }
      ],
      "name": "setMtxPrice",
      "outputs": [],
      "stateMutability": "nonpayable",
      "type": "function"
    },
    {
      "inputs": [
        {
          "internalType": "address",
          "name": "_relayerAddr",
          "type": "address"
        }
      ],
      "name": "setRelayerAddr",
      "outputs": [],
      "stateMutability": "nonpayable",
      "type": "function"
    },
    {
      "inputs": [
        {
          "internalType": "address",
          "name": "newOwner",
          "type": "address"
        }
      ],
      "name": "transferOwnership",
      "outputs": [],
      "stateMutability": "nonpayable",
      "type": "function"
    }
  ],
  "bytecode": "0x608060405234801561001057600080fd5b50612f31806100206000396000f3fe6080604052600436106100e85760003560e01c80638da5cb5b1161008a578063d337483a11610059578063d337483a146102d1578063dc2ddcae146102fc578063f2fde38b14610325578063f926b50c1461034e576100e8565b80638da5cb5b146102015780638f184bea1461022c578063b98079bc14610269578063c72b5176146102a6576100e8565b80636b1f7622116100c65780636b1f76221461017c578063715018a6146101a557806374c4b95d146101bc5780637a1ac61e146101d8576100e8565b80631847482a146100ed5780631ac30e631461012a57806337c81cd714610153575b600080fd5b3480156100f957600080fd5b50610114600480360381019061010f9190611c2a565b610377565b6040516101219190611c85565b60405180910390f35b34801561013657600080fd5b50610151600480360381019061014c9190611ca0565b610465565b005b34801561015f57600080fd5b5061017a60048036038101906101759190611ca0565b610521565b005b34801561018857600080fd5b506101a3600480360381019061019e9190611ccd565b6105dd565b005b3480156101b157600080fd5b506101ba6105ef565b005b6101d660048036038101906101d19190611ffe565b610603565b005b3480156101e457600080fd5b506101ff60048036038101906101fa9190612124565b610adb565b005b34801561020d57600080fd5b50610216610c4b565b6040516102239190612186565b60405180910390f35b34801561023857600080fd5b50610253600480360381019061024e9190611ca0565b610c75565b6040516102609190612359565b60405180910390f35b34801561027557600080fd5b50610290600480360381019061028b9190611ccd565b610f11565b60405161029d9190612421565b60405180910390f35b3480156102b257600080fd5b506102bb61114a565b6040516102c89190612359565b60405180910390f35b3480156102dd57600080fd5b506102e6611302565b6040516102f3919061259c565b60405180910390f35b34801561030857600080fd5b50610323600480360381019061031e91906125be565b6115ad565b005b34801561033157600080fd5b5061034c60048036038101906103479190611ca0565b611749565b005b34801561035a57600080fd5b5061037560048036038101906103709190611ccd565b6117cd565b005b600080606b60008481526020019081526020016000205490506000805b606960008773ffffffffffffffffffffffffffffffffffffffff1673ffffffffffffffffffffffffffffffffffffffff168152602001908152602001600020805490508110156104595782606960008873ffffffffffffffffffffffffffffffffffffffff1673ffffffffffffffffffffffffffffffffffffffff16815260200190815260200160002082815481106104305761042f612607565b5b9060005260206000200154141561044657600191505b808061045190612665565b915050610394565b50809250505092915050565b61046d611823565b600073ffffffffffffffffffffffffffffffffffffffff168173ffffffffffffffffffffffffffffffffffffffff1614156104dd576040517f08c379a00000000000000000000000000000000000000000000000000000000081526004016104d49061270b565b60405180910390fd5b80606c60006101000a81548173ffffffffffffffffffffffffffffffffffffffff021916908373ffffffffffffffffffffffffffffffffffffffff16021790555050565b610529611823565b600073ffffffffffffffffffffffffffffffffffffffff168173ffffffffffffffffffffffffffffffffffffffff161415610599576040517f08c379a000000000000000000000000000000000000000000000000000000000815260040161059090612777565b60405180910390fd5b80606d60006101000a81548173ffffffffffffffffffffffffffffffffffffffff021916908373ffffffffffffffffffffffffffffffffffffffff16021790555050565b6105e5611823565b80606e8190555050565b6105f7611823565b61060160006118a1565b565b876000805b606960003373ffffffffffffffffffffffffffffffffffffffff1673ffffffffffffffffffffffffffffffffffffffff168152602001908152602001600020805490508110156106cd5782606960003373ffffffffffffffffffffffffffffffffffffffff1673ffffffffffffffffffffffffffffffffffffffff16815260200190815260200160002082815481106106a4576106a3612607565b5b906000526020600020015414156106ba57600191505b80806106c590612665565b915050610608565b508061070e576040517f08c379a0000000000000000000000000000000000000000000000000000000008152600401610705906127e3565b60405180910390fd5b6000861180156107205750606f548611155b61075f576040517f08c379a00000000000000000000000000000000000000000000000000000000081526004016107569061284f565b60405180910390fd5b8415610896576000606e543a88610776919061286f565b610780919061286f565b9050803410156107c5576040517f08c379a00000000000000000000000000000000000000000000000000000000081526004016107bc90612915565b60405180910390fd5b6000606d60009054906101000a900473ffffffffffffffffffffffffffffffffffffffff1673ffffffffffffffffffffffffffffffffffffffff163460405161080d90612966565b60006040518083038185875af1925050503d806000811461084a576040519150601f19603f3d011682016040523d82523d6000602084013e61084f565b606091505b5050905080610893576040517f08c379a000000000000000000000000000000000000000000000000000000000815260040161088a906129c7565b60405180910390fd5b50505b60006108a26065611967565b90506108ae6065611975565b60686040518060c001604052808381526020018d81526020018c81526020018b81526020018a8152602001881515815250908060018154018082558091505060019003906000526020600020906006020160009091909190915060008201518160000155602082015181600101556040820151816002019080519060200190610938929190611a70565b506060820151816003019080519060200190610955929190611a70565b506080820151816004019080519060200190610972929190611a70565b5060a08201518160050160006101000a81548160ff02191690831515021790555050506000606c60009054906101000a900473ffffffffffffffffffffffffffffffffffffffff1690508073ffffffffffffffffffffffffffffffffffffffff1663ef3ad9eb838a89896040518563ffffffff1660e01b81526004016109fb9493929190612b04565b600060405180830381600087803b158015610a1557600080fd5b505af1158015610a29573d6000803e3d6000fd5b50505050606a60008d81526020019081526020016000208290806001815401808255809150506001900390600052602060002001600090919091909150558b606b6000848152602001908152602001600020819055503373ffffffffffffffffffffffffffffffffffffffff167fffde68815858e4c88d054382adadf9d3280426c744cf9c1991303ff77afdc1e283604051610ac59190612b50565b60405180910390a2505050505050505050505050565b60008060019054906101000a900460ff16159050808015610b0c5750600160008054906101000a900460ff1660ff16105b80610b395750610b1b3061198b565b158015610b385750600160008054906101000a900460ff1660ff16145b5b610b78576040517f08c379a0000000000000000000000000000000000000000000000000000000008152600401610b6f90612bdd565b60405180910390fd5b60016000806101000a81548160ff021916908360ff1602179055508015610bb5576001600060016101000a81548160ff0219169083151502179055505b610bbd6119ae565b610bc76066611975565b610bd16065611975565b610bda84610521565b610be3836105dd565b610bec826117cd565b8015610c455760008060016101000a81548160ff0219169083151502179055507f7f26b83ff96e1f2b6a682f133852f6798a09c465da95921460cefb38474024986001604051610c3c9190612c4f565b60405180910390a15b50505050565b6000603360009054906101000a900473ffffffffffffffffffffffffffffffffffffffff16905090565b60606000606960008473ffffffffffffffffffffffffffffffffffffffff1673ffffffffffffffffffffffffffffffffffffffff1681526020019081526020016000208054905090506000606780549050905060008267ffffffffffffffff811115610ce457610ce3611d15565b5b604051908082528060200260200182016040528015610d1d57816020015b610d0a611af6565b815260200190600190039081610d025790505b5090506000805b83811015610f04578673ffffffffffffffffffffffffffffffffffffffff1660678281548110610d5757610d56612607565b5b906000526020600020906003020160010160009054906101000a900473ffffffffffffffffffffffffffffffffffffffff1673ffffffffffffffffffffffffffffffffffffffff161415610ef15760678181548110610db957610db8612607565b5b9060005260206000209060030201604051806060016040529081600082015481526020016001820160009054906101000a900473ffffffffffffffffffffffffffffffffffffffff1673ffffffffffffffffffffffffffffffffffffffff1673ffffffffffffffffffffffffffffffffffffffff168152602001600282018054610e4290612c99565b80601f0160208091040260200160405190810160405280929190818152602001828054610e6e90612c99565b8015610ebb5780601f10610e9057610100808354040283529160200191610ebb565b820191906000526020600020905b815481529060010190602001808311610e9e57829003601f168201915b505050505081525050838381518110610ed757610ed6612607565b5b60200260200101819052508180610eed90612665565b9250505b8080610efc90612665565b915050610d24565b5081945050505050919050565b610f19611b2d565b6000600183610f289190612ccb565b9050600060688281548110610f4057610f3f612607565b5b90600052602060002090600602016040518060c00160405290816000820154815260200160018201548152602001600282018054610f7d90612c99565b80601f0160208091040260200160405190810160405280929190818152602001828054610fa990612c99565b8015610ff65780601f10610fcb57610100808354040283529160200191610ff6565b820191906000526020600020905b815481529060010190602001808311610fd957829003601f168201915b5050505050815260200160038201805461100f90612c99565b80601f016020809104026020016040519081016040528092919081815260200182805461103b90612c99565b80156110885780601f1061105d57610100808354040283529160200191611088565b820191906000526020600020905b81548152906001019060200180831161106b57829003601f168201915b505050505081526020016004820180546110a190612c99565b80601f01602080910402602001604051908101604052809291908181526020018280546110cd90612c99565b801561111a5780601f106110ef5761010080835404028352916020019161111a565b820191906000526020600020905b8154815290600101906020018083116110fd57829003601f168201915b505050505081526020016005820160009054906101000a900460ff16151515158152505090508092505050919050565b60606000606780549050905060008167ffffffffffffffff81111561117257611171611d15565b5b6040519080825280602002602001820160405280156111ab57816020015b611198611af6565b8152602001906001900390816111905790505b5090506067805480602002602001604051908101604052809291908181526020016000905b828210156112f45783829060005260206000209060030201604051806060016040529081600082015481526020016001820160009054906101000a900473ffffffffffffffffffffffffffffffffffffffff1673ffffffffffffffffffffffffffffffffffffffff1673ffffffffffffffffffffffffffffffffffffffff16815260200160028201805461126390612c99565b80601f016020809104026020016040519081016040528092919081815260200182805461128f90612c99565b80156112dc5780601f106112b1576101008083540402835291602001916112dc565b820191906000526020600020905b8154815290600101906020018083116112bf57829003601f168201915b505050505081525050815260200190600101906111d0565b505050509050809250505090565b60606000606880549050905060008167ffffffffffffffff81111561132a57611329611d15565b5b60405190808252806020026020018201604052801561136357816020015b611350611b2d565b8152602001906001900390816113485790505b5090506068805480602002602001604051908101604052809291908181526020016000905b8282101561159f57838290600052602060002090600602016040518060c001604052908160008201548152602001600182015481526020016002820180546113cf90612c99565b80601f01602080910402602001604051908101604052809291908181526020018280546113fb90612c99565b80156114485780601f1061141d57610100808354040283529160200191611448565b820191906000526020600020905b81548152906001019060200180831161142b57829003601f168201915b5050505050815260200160038201805461146190612c99565b80601f016020809104026020016040519081016040528092919081815260200182805461148d90612c99565b80156114da5780601f106114af576101008083540402835291602001916114da565b820191906000526020600020905b8154815290600101906020018083116114bd57829003601f168201915b505050505081526020016004820180546114f390612c99565b80601f016020809104026020016040519081016040528092919081815260200182805461151f90612c99565b801561156c5780601f106115415761010080835404028352916020019161156c565b820191906000526020600020905b81548152906001019060200180831161154f57829003601f168201915b505050505081526020016005820160009054906101000a900460ff16151515158152505081526020019060010190611388565b505050509050809250505090565b60006115b96066611967565b90506115c56066611975565b606760405180606001604052808381526020013373ffffffffffffffffffffffffffffffffffffffff1681526020018481525090806001815401808255809150506001900390600052602060002090600302016000909190919091506000820151816000015560208201518160010160006101000a81548173ffffffffffffffffffffffffffffffffffffffff021916908373ffffffffffffffffffffffffffffffffffffffff160217905550604082015181600201908051906020019061168e929190611a70565b505050606960003373ffffffffffffffffffffffffffffffffffffffff1673ffffffffffffffffffffffffffffffffffffffff1681526020019081526020016000208190806001815401808255809150506001900390600052602060002001600090919091909150553373ffffffffffffffffffffffffffffffffffffffff167f88d8a40d3d79893e13972978642d5fe29930912ee4c0b62a535815945c1d7bd08260405161173d9190612b50565b60405180910390a25050565b611751611823565b600073ffffffffffffffffffffffffffffffffffffffff168173ffffffffffffffffffffffffffffffffffffffff1614156117c1576040517f08c379a00000000000000000000000000000000000000000000000000000000081526004016117b890612d71565b60405180910390fd5b6117ca816118a1565b50565b6117d5611823565b6000811415611819576040517f08c379a000000000000000000000000000000000000000000000000000000000815260040161181090612ddd565b60405180910390fd5b80606f8190555050565b61182b611a07565b73ffffffffffffffffffffffffffffffffffffffff16611849610c4b565b73ffffffffffffffffffffffffffffffffffffffff161461189f576040517f08c379a000000000000000000000000000000000000000000000000000000000815260040161189690612e49565b60405180910390fd5b565b6000603360009054906101000a900473ffffffffffffffffffffffffffffffffffffffff16905081603360006101000a81548173ffffffffffffffffffffffffffffffffffffffff021916908373ffffffffffffffffffffffffffffffffffffffff1602179055508173ffffffffffffffffffffffffffffffffffffffff168173ffffffffffffffffffffffffffffffffffffffff167f8be0079c531659141344cd1fd0a4f28419497f9722a3daafe3b4186f6b6457e060405160405180910390a35050565b600081600001549050919050565b6001816000016000828254019250508190555050565b6000808273ffffffffffffffffffffffffffffffffffffffff163b119050919050565b600060019054906101000a900460ff166119fd576040517f08c379a00000000000000000000000000000000000000000000000000000000081526004016119f490612edb565b60405180910390fd5b611a05611a0f565b565b600033905090565b600060019054906101000a900460ff16611a5e576040517f08c379a0000000000000000000000000000000000000000000000000000000008152600401611a5590612edb565b60405180910390fd5b611a6e611a69611a07565b6118a1565b565b828054611a7c90612c99565b90600052602060002090601f016020900481019282611a9e5760008555611ae5565b82601f10611ab757805160ff1916838001178555611ae5565b82800160010185558215611ae5579182015b82811115611ae4578251825591602001919060010190611ac9565b5b509050611af29190611b65565b5090565b604051806060016040528060008152602001600073ffffffffffffffffffffffffffffffffffffffff168152602001606081525090565b6040518060c0016040528060008152602001600081526020016060815260200160608152602001606081526020016000151581525090565b5b80821115611b7e576000816000905550600101611b66565b5090565b6000604051905090565b600080fd5b600080fd5b600073ffffffffffffffffffffffffffffffffffffffff82169050919050565b6000611bc182611b96565b9050919050565b611bd181611bb6565b8114611bdc57600080fd5b50565b600081359050611bee81611bc8565b92915050565b6000819050919050565b611c0781611bf4565b8114611c1257600080fd5b50565b600081359050611c2481611bfe565b92915050565b60008060408385031215611c4157611c40611b8c565b5b6000611c4f85828601611bdf565b9250506020611c6085828601611c15565b9150509250929050565b60008115159050919050565b611c7f81611c6a565b82525050565b6000602082019050611c9a6000830184611c76565b92915050565b600060208284031215611cb657611cb5611b8c565b5b6000611cc484828501611bdf565b91505092915050565b600060208284031215611ce357611ce2611b8c565b5b6000611cf184828501611c15565b91505092915050565b600080fd5b600080fd5b6000601f19601f8301169050919050565b7f4e487b7100000000000000000000000000000000000000000000000000000000600052604160045260246000fd5b611d4d82611d04565b810181811067ffffffffffffffff82111715611d6c57611d6b611d15565b5b80604052505050565b6000611d7f611b82565b9050611d8b8282611d44565b919050565b600067ffffffffffffffff821115611dab57611daa611d15565b5b611db482611d04565b9050602081019050919050565b82818337600083830152505050565b6000611de3611dde84611d90565b611d75565b905082815260208101848484011115611dff57611dfe611cff565b5b611e0a848285611dc1565b509392505050565b600082601f830112611e2757611e26611cfa565b5b8135611e37848260208601611dd0565b91505092915050565b611e4981611c6a565b8114611e5457600080fd5b50565b600081359050611e6681611e40565b92915050565b6000819050919050565b611e7f81611e6c565b8114611e8a57600080fd5b50565b600081359050611e9c81611e76565b92915050565b600067ffffffffffffffff821115611ebd57611ebc611d15565b5b602082029050602081019050919050565b600080fd5b600080fd5b600080fd5b600060408284031215611ef357611ef2611ed3565b5b611efd6040611d75565b9050600082013567ffffffffffffffff811115611f1d57611f1c611ed8565b5b611f2984828501611e12565b6000830152506020611f3d84828501611c15565b60208301525092915050565b6000611f5c611f5784611ea2565b611d75565b90508083825260208201905060208402830185811115611f7f57611f7e611ece565b5b835b81811015611fc657803567ffffffffffffffff811115611fa457611fa3611cfa565b5b808601611fb18982611edd565b85526020850194505050602081019050611f81565b5050509392505050565b600082601f830112611fe557611fe4611cfa565b5b8135611ff5848260208601611f49565b91505092915050565b600080600080600080600080610100898b03121561201f5761201e611b8c565b5b600061202d8b828c01611c15565b985050602089013567ffffffffffffffff81111561204e5761204d611b91565b5b61205a8b828c01611e12565b975050604089013567ffffffffffffffff81111561207b5761207a611b91565b5b6120878b828c01611e12565b965050606089013567ffffffffffffffff8111156120a8576120a7611b91565b5b6120b48b828c01611e12565b95505060806120c58b828c01611c15565b94505060a06120d68b828c01611e57565b93505060c06120e78b828c01611e8d565b92505060e089013567ffffffffffffffff81111561210857612107611b91565b5b6121148b828c01611fd0565b9150509295985092959890939650565b60008060006060848603121561213d5761213c611b8c565b5b600061214b86828701611bdf565b935050602061215c86828701611c15565b925050604061216d86828701611c15565b9150509250925092565b61218081611bb6565b82525050565b600060208201905061219b6000830184612177565b92915050565b600081519050919050565b600082825260208201905092915050565b6000819050602082019050919050565b6121d681611bf4565b82525050565b6121e581611bb6565b82525050565b600081519050919050565b600082825260208201905092915050565b60005b8381101561222557808201518184015260208101905061220a565b83811115612234576000848401525b50505050565b6000612245826121eb565b61224f81856121f6565b935061225f818560208601612207565b61226881611d04565b840191505092915050565b600060608301600083015161228b60008601826121cd565b50602083015161229e60208601826121dc565b50604083015184820360408601526122b6828261223a565b9150508091505092915050565b60006122cf8383612273565b905092915050565b6000602082019050919050565b60006122ef826121a1565b6122f981856121ac565b93508360208202850161230b856121bd565b8060005b85811015612347578484038952815161232885826122c3565b9450612333836122d7565b925060208a0199505060018101905061230f565b50829750879550505050505092915050565b6000602082019050818103600083015261237381846122e4565b905092915050565b61238481611c6a565b82525050565b600060c0830160008301516123a260008601826121cd565b5060208301516123b560208601826121cd565b50604083015184820360408601526123cd828261223a565b915050606083015184820360608601526123e7828261223a565b91505060808301518482036080860152612401828261223a565b91505060a083015161241660a086018261237b565b508091505092915050565b6000602082019050818103600083015261243b818461238a565b905092915050565b600081519050919050565b600082825260208201905092915050565b6000819050602082019050919050565b600060c08301600083015161248760008601826121cd565b50602083015161249a60208601826121cd565b50604083015184820360408601526124b2828261223a565b915050606083015184820360608601526124cc828261223a565b915050608083015184820360808601526124e6828261223a565b91505060a08301516124fb60a086018261237b565b508091505092915050565b6000612512838361246f565b905092915050565b6000602082019050919050565b600061253282612443565b61253c818561244e565b93508360208202850161254e8561245f565b8060005b8581101561258a578484038952815161256b8582612506565b94506125768361251a565b925060208a01995050600181019050612552565b50829750879550505050505092915050565b600060208201905081810360008301526125b68184612527565b905092915050565b6000602082840312156125d4576125d3611b8c565b5b600082013567ffffffffffffffff8111156125f2576125f1611b91565b5b6125fe84828501611e12565b91505092915050565b7f4e487b7100000000000000000000000000000000000000000000000000000000600052603260045260246000fd5b7f4e487b7100000000000000000000000000000000000000000000000000000000600052601160045260246000fd5b600061267082611bf4565b91507fffffffffffffffffffffffffffffffffffffffffffffffffffffffffffffffff8214156126a3576126a2612636565b5b600182019050919050565b600082825260208201905092915050565b7f6d696e74206e6674206164647265737320697320626c616e6b00000000000000600082015250565b60006126f56019836126ae565b9150612700826126bf565b602082019050919050565b60006020820190508181036000830152612724816126e8565b9050919050565b7f72656c61796572206164647265737320697320626c616e6b0000000000000000600082015250565b60006127616018836126ae565b915061276c8261272b565b602082019050919050565b6000602082019050818103600083015261279081612754565b9050919050565b7f596f7520617265206e6f742067726f7570206f776e6572000000000000000000600082015250565b60006127cd6017836126ae565b91506127d882612797565b602082019050919050565b600060208201905081810360008301526127fc816127c0565b9050919050565b7f6d696e74206c696d697420697320696e76616c69640000000000000000000000600082015250565b60006128396015836126ae565b915061284482612803565b602082019050919050565b600060208201905081810360008301526128688161282c565b9050919050565b600061287a82611bf4565b915061288583611bf4565b9250817fffffffffffffffffffffffffffffffffffffffffffffffffffffffffffffffff04831182151516156128be576128bd612636565b5b828202905092915050565b7f4e6f7420656e6f7567682076616c756500000000000000000000000000000000600082015250565b60006128ff6010836126ae565b915061290a826128c9565b602082019050919050565b6000602082019050818103600083015261292e816128f2565b9050919050565b600081905092915050565b50565b6000612950600083612935565b915061295b82612940565b600082019050919050565b600061297182612943565b9150819050919050565b7f7472616e73666572206661696c65640000000000000000000000000000000000600082015250565b60006129b1600f836126ae565b91506129bc8261297b565b602082019050919050565b600060208201905081810360008301526129e0816129a4565b9050919050565b6129f081611bf4565b82525050565b6129ff81611e6c565b82525050565b600081519050919050565b600082825260208201905092915050565b6000819050602082019050919050565b60006040830160008301518482036000860152612a4e828261223a565b9150506020830151612a6360208601826121cd565b508091505092915050565b6000612a7a8383612a31565b905092915050565b6000602082019050919050565b6000612a9a82612a05565b612aa48185612a10565b935083602082028501612ab685612a21565b8060005b85811015612af25784840389528151612ad38582612a6e565b9450612ade83612a82565b925060208a01995050600181019050612aba565b50829750879550505050505092915050565b6000608082019050612b1960008301876129e7565b612b2660208301866129e7565b612b3360408301856129f6565b8181036060830152612b458184612a8f565b905095945050505050565b6000602082019050612b6560008301846129e7565b92915050565b7f496e697469616c697a61626c653a20636f6e747261637420697320616c72656160008201527f647920696e697469616c697a6564000000000000000000000000000000000000602082015250565b6000612bc7602e836126ae565b9150612bd282612b6b565b604082019050919050565b60006020820190508181036000830152612bf681612bba565b9050919050565b6000819050919050565b600060ff82169050919050565b6000819050919050565b6000612c39612c34612c2f84612bfd565b612c14565b612c07565b9050919050565b612c4981612c1e565b82525050565b6000602082019050612c646000830184612c40565b92915050565b7f4e487b7100000000000000000000000000000000000000000000000000000000600052602260045260246000fd5b60006002820490506001821680612cb157607f821691505b60208210811415612cc557612cc4612c6a565b5b50919050565b6000612cd682611bf4565b9150612ce183611bf4565b925082821015612cf457612cf3612636565b5b828203905092915050565b7f4f776e61626c653a206e6577206f776e657220697320746865207a65726f206160008201527f6464726573730000000000000000000000000000000000000000000000000000602082015250565b6000612d5b6026836126ae565b9150612d6682612cff565b604082019050919050565b60006020820190508181036000830152612d8a81612d4e565b9050919050565b7f6d696e74206c696d697420697320300000000000000000000000000000000000600082015250565b6000612dc7600f836126ae565b9150612dd282612d91565b602082019050919050565b60006020820190508181036000830152612df681612dba565b9050919050565b7f4f776e61626c653a2063616c6c6572206973206e6f7420746865206f776e6572600082015250565b6000612e336020836126ae565b9150612e3e82612dfd565b602082019050919050565b60006020820190508181036000830152612e6281612e26565b9050919050565b7f496e697469616c697a61626c653a20636f6e7472616374206973206e6f74206960008201527f6e697469616c697a696e67000000000000000000000000000000000000000000602082015250565b6000612ec5602b836126ae565b9150612ed082612e69565b604082019050919050565b60006020820190508181036000830152612ef481612eb8565b905091905056fea26469706673582212204461bd5f305ec52ee072825ab6cdab6e7b82ee535d6b1c1b1340bd37a660283664736f6c63430008090033",
  "linkReferences": {},
  "deployedLinkReferences": {}
}