{
  "_format": "hh-sol-artifact-1",
  "contractName": "EventManager",
  "sourceName": "contracts/Event.sol",
  "abi": [
    {
      "anonymous": false,
      "inputs": [
        {
          "indexed": true,
          "internalType": "address",
          "name": "owner",
          "type": "address"
        },
        {
          "indexed": false,
          "internalType": "uint256",
          "name": "eventId",
          "type": "uint256"
        }
      ],
      "name": "CreateEvent",
      "type": "event"
    },
    {
      "anonymous": false,
      "inputs": [
        {
          "indexed": true,
          "internalType": "address",
          "name": "owner",
          "type": "address"
        },
        {
          "indexed": false,
          "internalType": "uint256",
          "name": "groupId",
          "type": "uint256"
        }
      ],
      "name": "CreateGroup",
      "type": "event"
    },
    {
      "anonymous": false,
      "inputs": [
        {
          "indexed": false,
          "internalType": "uint8",
          "name": "version",
          "type": "uint8"
        }
      ],
      "name": "Initialized",
      "type": "event"
    },
    {
      "anonymous": false,
      "inputs": [
        {
          "indexed": true,
          "internalType": "address",
          "name": "previousOwner",
          "type": "address"
        },
        {
          "indexed": true,
          "internalType": "address",
          "name": "newOwner",
          "type": "address"
        }
      ],
      "name": "OwnershipTransferred",
      "type": "event"
    },
    {
      "inputs": [
        {
          "internalType": "uint256",
          "name": "_groupId",
          "type": "uint256"
        },
        {
          "internalType": "string",
          "name": "_name",
          "type": "string"
        },
        {
          "internalType": "string",
          "name": "_description",
          "type": "string"
        },
        {
          "internalType": "string",
          "name": "_date",
          "type": "string"
        },
        {
          "internalType": "uint256",
          "name": "_mintLimit",
          "type": "uint256"
        },
        {
          "internalType": "bool",
          "name": "_useMtx",
          "type": "bool"
        },
        {
          "internalType": "bytes32",
          "name": "_secretPhrase",
          "type": "bytes32"
        },
        {
          "components": [
            {
              "internalType": "string",
              "name": "metaDataURL",
              "type": "string"
            },
            {
              "internalType": "uint256",
              "name": "requiredParticipateCount",
              "type": "uint256"
            }
          ],
          "internalType": "struct IMintNFT.NFTAttribute[]",
          "name": "_eventNFTAttributes",
          "type": "tuple[]"
        }
      ],
      "name": "createEventRecord",
      "outputs": [],
      "stateMutability": "payable",
      "type": "function"
    },
    {
      "inputs": [
        {
          "internalType": "string",
          "name": "_name",
          "type": "string"
        }
      ],
      "name": "createGroup",
      "outputs": [],
      "stateMutability": "nonpayable",
      "type": "function"
    },
    {
      "inputs": [
        {
          "internalType": "address",
          "name": "_address",
          "type": "address"
        }
      ],
      "name": "getCollaboratorAccessGroups",
      "outputs": [
        {
          "components": [
            {
              "internalType": "uint256",
              "name": "groupId",
              "type": "uint256"
            },
            {
              "internalType": "address",
              "name": "ownerAddress",
              "type": "address"
            },
            {
              "internalType": "string",
              "name": "name",
              "type": "string"
            }
          ],
          "internalType": "struct EventManager.Group[]",
          "name": "",
          "type": "tuple[]"
        }
      ],
      "stateMutability": "view",
      "type": "function"
    },
    {
      "inputs": [
        {
          "internalType": "uint256",
          "name": "_eventId",
          "type": "uint256"
        }
      ],
      "name": "getEventById",
      "outputs": [
        {
          "components": [
            {
              "internalType": "uint256",
              "name": "eventRecordId",
              "type": "uint256"
            },
            {
              "internalType": "uint256",
              "name": "groupId",
              "type": "uint256"
            },
            {
              "internalType": "string",
              "name": "name",
              "type": "string"
            },
            {
              "internalType": "string",
              "name": "description",
              "type": "string"
            },
            {
              "internalType": "string",
              "name": "date",
              "type": "string"
            },
            {
              "internalType": "bool",
              "name": "useMtx",
              "type": "bool"
            }
          ],
          "internalType": "struct EventManager.EventRecord",
          "name": "",
          "type": "tuple"
        }
      ],
      "stateMutability": "view",
      "type": "function"
    },
    {
      "inputs": [],
      "name": "getEventRecordCount",
      "outputs": [
        {
          "internalType": "uint256",
          "name": "",
          "type": "uint256"
        }
      ],
      "stateMutability": "view",
      "type": "function"
    },
    {
      "inputs": [
        {
          "internalType": "uint256",
          "name": "_limit",
          "type": "uint256"
        },
        {
          "internalType": "uint256",
          "name": "_offset",
          "type": "uint256"
        }
      ],
      "name": "getEventRecords",
      "outputs": [
        {
          "components": [
            {
              "internalType": "uint256",
              "name": "eventRecordId",
              "type": "uint256"
            },
            {
              "internalType": "uint256",
              "name": "groupId",
              "type": "uint256"
            },
            {
              "internalType": "string",
              "name": "name",
              "type": "string"
            },
            {
              "internalType": "string",
              "name": "description",
              "type": "string"
            },
            {
              "internalType": "string",
              "name": "date",
              "type": "string"
            },
            {
              "internalType": "bool",
              "name": "useMtx",
              "type": "bool"
            }
          ],
          "internalType": "struct EventManager.EventRecord[]",
          "name": "",
          "type": "tuple[]"
        }
      ],
      "stateMutability": "view",
      "type": "function"
    },
    {
      "inputs": [
        {
          "internalType": "uint256",
          "name": "_groupId",
          "type": "uint256"
        }
      ],
      "name": "getEventRecordsByGroupId",
      "outputs": [
        {
          "components": [
            {
              "internalType": "uint256",
              "name": "eventRecordId",
              "type": "uint256"
            },
            {
              "internalType": "uint256",
              "name": "groupId",
              "type": "uint256"
            },
            {
              "internalType": "string",
              "name": "name",
              "type": "string"
            },
            {
              "internalType": "string",
              "name": "description",
              "type": "string"
            },
            {
              "internalType": "string",
              "name": "date",
              "type": "string"
            },
            {
              "internalType": "bool",
              "name": "useMtx",
              "type": "bool"
            }
          ],
          "internalType": "struct EventManager.EventRecord[]",
          "name": "",
          "type": "tuple[]"
        }
      ],
      "stateMutability": "view",
      "type": "function"
    },
    {
      "inputs": [],
      "name": "getGroups",
      "outputs": [
        {
          "components": [
            {
              "internalType": "uint256",
              "name": "groupId",
              "type": "uint256"
            },
            {
              "internalType": "address",
              "name": "ownerAddress",
              "type": "address"
            },
            {
              "internalType": "string",
              "name": "name",
              "type": "string"
            }
          ],
          "internalType": "struct EventManager.Group[]",
          "name": "",
          "type": "tuple[]"
        }
      ],
      "stateMutability": "view",
      "type": "function"
    },
    {
      "inputs": [
        {
          "internalType": "address",
          "name": "_address",
          "type": "address"
        }
      ],
      "name": "getOwnGroups",
      "outputs": [
        {
          "components": [
            {
              "internalType": "uint256",
              "name": "groupId",
              "type": "uint256"
            },
            {
              "internalType": "address",
              "name": "ownerAddress",
              "type": "address"
            },
            {
              "internalType": "string",
              "name": "name",
              "type": "string"
            }
          ],
          "internalType": "struct EventManager.Group[]",
          "name": "",
          "type": "tuple[]"
        }
      ],
      "stateMutability": "view",
      "type": "function"
    },
    {
      "inputs": [
        {
          "internalType": "uint256",
          "name": "_groupId",
          "type": "uint256"
        },
        {
          "internalType": "address",
          "name": "_address",
          "type": "address"
        }
      ],
      "name": "getRoles",
      "outputs": [
        {
          "components": [
            {
              "internalType": "address",
              "name": "assignee",
              "type": "address"
            },
            {
              "internalType": "bool",
              "name": "admin",
              "type": "bool"
            },
            {
              "internalType": "bool",
              "name": "collaborator",
              "type": "bool"
            }
          ],
          "internalType": "struct EventManager.Roles",
          "name": "",
          "type": "tuple"
        }
      ],
      "stateMutability": "view",
      "type": "function"
    },
    {
      "inputs": [
        {
          "internalType": "uint256",
          "name": "_groupId",
          "type": "uint256"
        }
      ],
      "name": "getRolesByGroupId",
      "outputs": [
        {
          "components": [
            {
              "internalType": "address",
              "name": "assignee",
              "type": "address"
            },
            {
              "internalType": "bool",
              "name": "admin",
              "type": "bool"
            },
            {
              "internalType": "bool",
              "name": "collaborator",
              "type": "bool"
            }
          ],
          "internalType": "struct EventManager.Roles[]",
          "name": "",
          "type": "tuple[]"
        }
      ],
      "stateMutability": "view",
      "type": "function"
    },
    {
      "inputs": [
        {
          "internalType": "uint256",
          "name": "_groupId",
          "type": "uint256"
        },
        {
          "internalType": "address",
          "name": "_address",
          "type": "address"
        },
        {
          "internalType": "bytes32",
          "name": "_role",
          "type": "bytes32"
        }
      ],
      "name": "grantRole",
      "outputs": [],
      "stateMutability": "nonpayable",
      "type": "function"
    },
    {
      "inputs": [
        {
          "internalType": "address",
          "name": "_address",
          "type": "address"
        },
        {
          "internalType": "uint256",
          "name": "_eventId",
          "type": "uint256"
        }
      ],
      "name": "hasCollaboratorAccessByEventId",
      "outputs": [
        {
          "internalType": "bool",
          "name": "",
          "type": "bool"
        }
      ],
      "stateMutability": "view",
      "type": "function"
    },
    {
      "inputs": [
        {
          "internalType": "address",
          "name": "_relayerAddr",
          "type": "address"
        },
        {
          "internalType": "uint256",
          "name": "_mtxPrice",
          "type": "uint256"
        },
        {
          "internalType": "uint256",
          "name": "_maxMintLimit",
          "type": "uint256"
        },
        {
          "internalType": "address",
          "name": "_operationControllerAddr",
          "type": "address"
        }
      ],
      "name": "initialize",
      "outputs": [],
      "stateMutability": "nonpayable",
      "type": "function"
    },
    {
      "inputs": [],
      "name": "owner",
      "outputs": [
        {
          "internalType": "address",
          "name": "",
          "type": "address"
        }
      ],
      "stateMutability": "view",
      "type": "function"
    },
    {
      "inputs": [],
      "name": "renounceOwnership",
      "outputs": [],
      "stateMutability": "nonpayable",
      "type": "function"
    },
    {
      "inputs": [
        {
          "internalType": "uint256",
          "name": "_groupId",
          "type": "uint256"
        },
        {
          "internalType": "address",
          "name": "_address",
          "type": "address"
        },
        {
          "internalType": "bytes32",
          "name": "_role",
          "type": "bytes32"
        }
      ],
      "name": "revokeRole",
      "outputs": [],
      "stateMutability": "nonpayable",
      "type": "function"
    },
    {
      "inputs": [
        {
          "internalType": "uint256",
          "name": "_mintLimit",
          "type": "uint256"
        }
      ],
      "name": "setMaxMintLimit",
      "outputs": [],
      "stateMutability": "nonpayable",
      "type": "function"
    },
    {
      "inputs": [
        {
          "internalType": "address",
          "name": "_mintNftAddr",
          "type": "address"
        }
      ],
      "name": "setMintNFTAddr",
      "outputs": [],
      "stateMutability": "nonpayable",
      "type": "function"
    },
    {
      "inputs": [
        {
          "internalType": "uint256",
          "name": "_price",
          "type": "uint256"
        }
      ],
      "name": "setMtxPrice",
      "outputs": [],
      "stateMutability": "nonpayable",
      "type": "function"
    },
    {
      "inputs": [
        {
          "internalType": "address",
          "name": "_operationControllerAddr",
          "type": "address"
        }
      ],
      "name": "setOperationControllerAddr",
      "outputs": [],
      "stateMutability": "nonpayable",
      "type": "function"
    },
    {
      "inputs": [
        {
          "internalType": "address",
          "name": "_relayerAddr",
          "type": "address"
        }
      ],
      "name": "setRelayerAddr",
      "outputs": [],
      "stateMutability": "nonpayable",
      "type": "function"
    },
    {
      "inputs": [
        {
          "internalType": "address",
          "name": "newOwner",
          "type": "address"
        }
      ],
      "name": "transferOwnership",
      "outputs": [],
      "stateMutability": "nonpayable",
      "type": "function"
    }
  ],
  "bytecode": "0x608060405234801561001057600080fd5b50613118806100206000396000f3fe6080604052600436106101405760003560e01c80638da5cb5b116100b6578063d957f95a1161006f578063d957f95a14610399578063d96c2c3a146103c6578063dc2ddcae146103e4578063f2fde38b14610404578063f562082314610424578063f926b50c1461044457600080fd5b80638da5cb5b146102bf5780638f184bea146102e7578063972f1327146103075780639e3d87cd14610337578063b98079bc14610357578063c72b51761461038457600080fd5b8063398121a611610108578063398121a61461020a578063471ade98146102375780636b1f762214610257578063715018a61461027757806374c4b95d1461028c5780638be103371461029f57600080fd5b80630422cb161461014557806308fb5eb21461017b5780631ac30e631461019d5780632f3195dd146101bd57806337c81cd7146101ea575b600080fd5b34801561015157600080fd5b50610165610160366004612847565b610464565b60405161017291906128af565b60405180910390f35b34801561018757600080fd5b5061019b610196366004612847565b6106c8565b005b3480156101a957600080fd5b5061019b6101b8366004612847565b61075b565b3480156101c957600080fd5b506101dd6101d8366004612937565b6107db565b6040516101729190612963565b3480156101f657600080fd5b5061019b610205366004612847565b61086c565b34801561021657600080fd5b5061022a610225366004612991565b6108ec565b6040516101729190612a28565b34801561024357600080fd5b5061019b610252366004612a8a565b610c84565b34801561026357600080fd5b5061019b610272366004612abf565b610f4f565b34801561028357600080fd5b5061019b610f5c565b61019b61029a366004612ca7565b610f70565b3480156102ab57600080fd5b5061019b6102ba366004612a8a565b6113c7565b3480156102cb57600080fd5b506033546040516001600160a01b039091168152602001610172565b3480156102f357600080fd5b50610165610302366004612847565b61156d565b34801561031357600080fd5b50610327610322366004612d81565b61176c565b6040519015158152602001610172565b34801561034357600080fd5b5061019b610352366004612dab565b61178d565b34801561036357600080fd5b50610377610372366004612abf565b6118dd565b6040516101729190612df1565b34801561039057600080fd5b50610165611b05565b3480156103a557600080fd5b506103b96103b4366004612abf565b611c6f565b6040516101729190612e04565b3480156103d257600080fd5b50606854604051908152602001610172565b3480156103f057600080fd5b5061019b6103ff366004612e73565b611dd0565b34801561041057600080fd5b5061019b61041f366004612847565b611fc4565b34801561043057600080fd5b5061022a61043f366004612abf565b61203d565b34801561045057600080fd5b5061019b61045f366004612abf565b612335565b6067546060906000906001600160401b0381111561048457610484612ad8565b6040519080825280602002602001820160405280156104ad578160200160208202803683370190505b509050600060015b606754811161050b576104c88186612381565b156104f957808383815181106104e0576104e0612ea7565b6020908102919091010152816104f581612ed3565b9250505b8061050381612ed3565b9150506104b5565b506000816001600160401b0381111561052657610526612ad8565b60405190808252806020026020018201604052801561055f57816020015b61054c612730565b8152602001906001900390816105445790505b50905060005b828110156106bf576000600185838151811061058357610583612ea7565b60200260200101516105959190612eee565b9050606781815481106105aa576105aa612ea7565b9060005260206000209060030201604051806060016040529081600082015481526020016001820160009054906101000a90046001600160a01b03166001600160a01b03166001600160a01b0316815260200160028201805461060c90612f05565b80601f016020809104026020016040519081016040528092919081815260200182805461063890612f05565b80156106855780601f1061065a57610100808354040283529160200191610685565b820191906000526020600020905b81548152906001019060200180831161066857829003601f168201915b5050505050815250508383815181106106a0576106a0612ea7565b60200260200101819052505080806106b790612ed3565b915050610565565b50949350505050565b6106d0612402565b6001600160a01b0381166107395760405162461bcd60e51b815260206004820152602560248201527f6f7065726174696f6e20636f6e74726f6c6c6572206164647265737320697320604482015264626c616e6b60d81b60648201526084015b60405180910390fd5b607080546001600160a01b0319166001600160a01b0392909216919091179055565b610763612402565b6001600160a01b0381166107b95760405162461bcd60e51b815260206004820152601960248201527f6d696e74206e6674206164647265737320697320626c616e6b000000000000006044820152606401610730565b606c80546001600160a01b0319166001600160a01b0392909216919091179055565b604080516060808201835260008083526020808401829052928401819052835191820184526001600160a01b0385168083528682526071845284822090825283528381206000805160206130c383398151915282528084528482205460ff9081161515848601526000805160206130a383398151915283529352839020549091161515918101919091525b92915050565b610874612402565b6001600160a01b0381166108ca5760405162461bcd60e51b815260206004820152601860248201527f72656c61796572206164647265737320697320626c616e6b00000000000000006044820152606401610730565b606d80546001600160a01b0319166001600160a01b0392909216919091179055565b606854606090836108fc57606493505b60648411156109425760405162461bcd60e51b81526020600482015260126024820152716c696d697420697320746f6f206c6172676560701b6044820152606401610730565b808311156109885760405162461bcd60e51b81526020600482015260136024820152726f666673657420697320746f6f206c6172676560681b6044820152606401610730565b806109938486612f40565b11156109a6576109a38382612eee565b93505b6000846001600160401b038111156109c0576109c0612ad8565b6040519080825280602002602001820160405280156109f957816020015b6109e661275a565b8152602001906001900390816109de5790505b50905060005b858110156106bf576000610a138287612f40565b610a1e906001612f40565b610a289085612eee565b10610c72576068610a398287612f40565b610a44906001612f40565b610a4e9085612eee565b81548110610a5e57610a5e612ea7565b90600052602060002090600602016040518060c00160405290816000820154815260200160018201548152602001600282018054610a9b90612f05565b80601f0160208091040260200160405190810160405280929190818152602001828054610ac790612f05565b8015610b145780601f10610ae957610100808354040283529160200191610b14565b820191906000526020600020905b815481529060010190602001808311610af757829003601f168201915b50505050508152602001600382018054610b2d90612f05565b80601f0160208091040260200160405190810160405280929190818152602001828054610b5990612f05565b8015610ba65780601f10610b7b57610100808354040283529160200191610ba6565b820191906000526020600020905b815481529060010190602001808311610b8957829003601f168201915b50505050508152602001600482018054610bbf90612f05565b80601f0160208091040260200160405190810160405280929190818152602001828054610beb90612f05565b8015610c385780601f10610c0d57610100808354040283529160200191610c38565b820191906000526020600020905b815481529060010190602001808311610c1b57829003601f168201915b50505091835250506005919091015460ff1615156020909101528251839083908110610c6657610c66612ea7565b60200260200101819052505b80610c7c81612ed3565b9150506109ff565b60705460408051635c975abb60e01b815290516001600160a01b03909216918291635c975abb916004808301926020929190829003018186803b158015610cca57600080fd5b505afa158015610cde573d6000803e3d6000fd5b505050506040513d601f19601f82011682018060405250810190610d029190612f58565b15610d1f5760405162461bcd60e51b815260040161073090612f75565b610d29843361245c565b610d655760405162461bcd60e51b815260206004820152600d60248201526c139bdd081c195c9b5a5d1d1959609a1b6044820152606401610730565b610d6e82612511565b610da95760405162461bcd60e51b815260206004820152600c60248201526b496e76616c696420726f6c6560a01b6044820152606401610730565b60008481526071602090815260408083206001600160a01b038716845282528083208584528252808320805460ff1916905586835260729091529020548015801590610dfa5750610dfa858561253e565b15610f48576001811115610f08576000805b82811015610e7557600087815260726020526040902080546001600160a01b038816919083908110610e4057610e40612ea7565b6000918252602090912001546001600160a01b03161415610e6357809150610e75565b80610e6d81612ed3565b915050610e0c565b506000868152607260205260409020610e8f600184612eee565b81548110610e9f57610e9f612ea7565b60009182526020808320909101548883526072909152604090912080546001600160a01b039092169183908110610ed857610ed8612ea7565b9060005260206000200160006101000a8154816001600160a01b0302191690836001600160a01b03160217905550505b6000858152607260205260409020805480610f2557610f25612f95565b600082815260209020810160001990810180546001600160a01b03191690550190555b5050505050565b610f57612402565b606e55565b610f64612402565b610f6e6000612582565b565b87610f7b8133612381565b610fc05760405162461bcd60e51b81526020600482015260166024820152752cb7ba903430bb32903737903832b936b4b9b9b4b7b760511b6044820152606401610730565b60705460408051635c975abb60e01b815290516001600160a01b03909216918291635c975abb916004808301926020929190829003018186803b15801561100657600080fd5b505afa15801561101a573d6000803e3d6000fd5b505050506040513d601f19601f8201168201806040525081019061103e9190612f58565b1561105b5760405162461bcd60e51b815260040161073090612f75565b60008611801561106d5750606f548611155b6110b15760405162461bcd60e51b81526020600482015260156024820152741b5a5b9d081b1a5b5a5d081a5cc81a5b9d985b1a59605a1b6044820152606401610730565b84156111ae57606e546000906110c73a89612fab565b6110d19190612fab565b9050803410156111165760405162461bcd60e51b815260206004820152601060248201526f4e6f7420656e6f7567682076616c756560801b6044820152606401610730565b606d546040516000916001600160a01b03169034908381818185875af1925050503d8060008114611163576040519150601f19603f3d011682016040523d82523d6000602084013e611168565b606091505b50509050806111ab5760405162461bcd60e51b815260206004820152600f60248201526e1d1c985b9cd9995c8819985a5b1959608a1b6044820152606401610730565b50505b60006111b960655490565b90506111c9606580546001019055565b6040805160c08101825282815260208082018e81529282018d8152606083018d9052608083018c905289151560a084015260688054600181018255600091909152835160069091027fa2153420d844928b4421650203c77babc8b33d7f2e7b450e2966db0c22097753810191825594517fa2153420d844928b4421650203c77babc8b33d7f2e7b450e2966db0c220977548601559051805193949193611298937fa2153420d844928b4421650203c77babc8b33d7f2e7b450e2966db0c22097755909301929190910190612792565b50606082015180516112b4916003840191602090910190612792565b50608082015180516112d0916004840191602090910190612792565b5060a091909101516005909101805460ff1916911515919091179055606c5460405163ef3ad9eb60e01b81526001600160a01b0390911690819063ef3ad9eb906113249085908c908b908b90600401612fca565b600060405180830381600087803b15801561133e57600080fd5b505af1158015611352573d6000803e3d6000fd5b50505060008d8152606a60209081526040808320805460018101825590845282842001869055858352606b8252918290208f905590518481523392507fffde68815858e4c88d054382adadf9d3280426c744cf9c1991303ff77afdc1e2910160405180910390a2505050505050505050505050565b60705460408051635c975abb60e01b815290516001600160a01b03909216918291635c975abb916004808301926020929190829003018186803b15801561140d57600080fd5b505afa158015611421573d6000803e3d6000fd5b505050506040513d601f19601f820116820180604052508101906114459190612f58565b156114625760405162461bcd60e51b815260040161073090612f75565b61146c843361245c565b6114a85760405162461bcd60e51b815260206004820152600d60248201526c139bdd081c195c9b5a5d1d1959609a1b6044820152606401610730565b6114b182612511565b6114ec5760405162461bcd60e51b815260206004820152600c60248201526b496e76616c696420726f6c6560a01b6044820152606401610730565b60008481526071602090815260408083206001600160a01b038716845282528083208584529091529020805460ff1916600117905561152b84846125d4565b6115675760008481526072602090815260408220805460018101825590835291200180546001600160a01b0319166001600160a01b0385161790555b50505050565b6001600160a01b038116600090815260696020526040812054606754606092826001600160401b038111156115a4576115a4612ad8565b6040519080825280602002602001820160405280156115dd57816020015b6115ca612730565b8152602001906001900390816115c25790505b5090506000805b8381101561176157866001600160a01b03166067828154811061160957611609612ea7565b60009182526020909120600160039092020101546001600160a01b0316141561174f576067818154811061163f5761163f612ea7565b9060005260206000209060030201604051806060016040529081600082015481526020016001820160009054906101000a90046001600160a01b03166001600160a01b03166001600160a01b031681526020016002820180546116a190612f05565b80601f01602080910402602001604051908101604052809291908181526020018280546116cd90612f05565b801561171a5780601f106116ef5761010080835404028352916020019161171a565b820191906000526020600020905b8154815290600101906020018083116116fd57829003601f168201915b50505050508152505083838151811061173557611735612ea7565b6020026020010181905250818061174b90612ed3565b9250505b8061175981612ed3565b9150506115e4565b509095945050505050565b6000818152606b60205260408120546117858185612381565b949350505050565b600054600290610100900460ff161580156117af575060005460ff8083169116105b6118125760405162461bcd60e51b815260206004820152602e60248201527f496e697469616c697a61626c653a20636f6e747261637420697320616c72656160448201526d191e481a5b9a5d1a585b1a5e995960921b6064820152608401610730565b6000805461ffff191660ff83161761010017905561182e61269f565b60665415801561183e5750606554155b1561185f57611851606680546001019055565b61185f606580546001019055565b6118688561086c565b61187184610f4f565b61187a83612335565b607080546001600160a01b0319166001600160a01b0384161790556000805461ff001916905560405160ff821681527f7f26b83ff96e1f2b6a682f133852f6798a09c465da95921460cefb38474024989060200160405180910390a15050505050565b6118e561275a565b60006118f2600184612eee565b905060006068828154811061190957611909612ea7565b90600052602060002090600602016040518060c0016040529081600082015481526020016001820154815260200160028201805461194690612f05565b80601f016020809104026020016040519081016040528092919081815260200182805461197290612f05565b80156119bf5780601f10611994576101008083540402835291602001916119bf565b820191906000526020600020905b8154815290600101906020018083116119a257829003601f168201915b505050505081526020016003820180546119d890612f05565b80601f0160208091040260200160405190810160405280929190818152602001828054611a0490612f05565b8015611a515780601f10611a2657610100808354040283529160200191611a51565b820191906000526020600020905b815481529060010190602001808311611a3457829003601f168201915b50505050508152602001600482018054611a6a90612f05565b80601f0160208091040260200160405190810160405280929190818152602001828054611a9690612f05565b8015611ae35780601f10611ab857610100808354040283529160200191611ae3565b820191906000526020600020905b815481529060010190602001808311611ac657829003601f168201915b50505091835250506005919091015460ff161515602090910152949350505050565b6067546060906000816001600160401b03811115611b2557611b25612ad8565b604051908082528060200260200182016040528015611b5e57816020015b611b4b612730565b815260200190600190039081611b435790505b50606780546040805160208084028201810190925282815293945060009084015b82821015611c6357600084815260209081902060408051606081018252600386029092018054835260018101546001600160a01b03169383019390935260028301805492939291840191611bd290612f05565b80601f0160208091040260200160405190810160405280929190818152602001828054611bfe90612f05565b8015611c4b5780601f10611c2057610100808354040283529160200191611c4b565b820191906000526020600020905b815481529060010190602001808311611c2e57829003601f168201915b50505050508152505081526020019060010190611b7f565b50929695505050505050565b600081815260726020526040812054606091816001600160401b03811115611c9957611c99612ad8565b604051908082528060200260200182016040528015611ce457816020015b6040805160608101825260008082526020808301829052928201528252600019909201910181611cb75790505b50905060005b82811015611dc8576000858152607260205260408120805483908110611d1257611d12612ea7565b6000918252602080832090910154604080516060810182526001600160a01b039092168083528a85526071845281852081865284528185206000805160206130c383398151915286528085528286205460ff9081161515858701526000805160206130a3833981519152875294529381902054909216151591810191909152845191925090849084908110611da957611da9612ea7565b6020026020010181905250508080611dc090612ed3565b915050611cea565b509392505050565b60705460408051635c975abb60e01b815290516001600160a01b03909216918291635c975abb916004808301926020929190829003018186803b158015611e1657600080fd5b505afa158015611e2a573d6000803e3d6000fd5b505050506040513d601f19601f82011682018060405250810190611e4e9190612f58565b15611e6b5760405162461bcd60e51b815260040161073090612f75565b6000611e7660665490565b9050611e86606680546001019055565b6040805160608101825282815233602080830191825292820186815260678054600181018255600091909152835160039091027f9787eeb91fe3101235e4a76063c7023ecb40f923f97916639c598592fa30d6ae810191825592517f9787eeb91fe3101235e4a76063c7023ecb40f923f97916639c598592fa30d6af840180546001600160a01b03929092166001600160a01b03199092169190911790559051805193949193611f5d937f9787eeb91fe3101235e4a76063c7023ecb40f923f97916639c598592fa30d6b001929190910190612792565b505033600081815260696020908152604080832080546001810182559084529190922001849055519091507f88d8a40d3d79893e13972978642d5fe29930912ee4c0b62a535815945c1d7bd090611fb79084815260200190565b60405180910390a2505050565b611fcc612402565b6001600160a01b0381166120315760405162461bcd60e51b815260206004820152602660248201527f4f776e61626c653a206e6577206f776e657220697320746865207a65726f206160448201526564647265737360d01b6064820152608401610730565b61203a81612582565b50565b6000818152606a6020526040812054606091816001600160401b0381111561206757612067612ad8565b6040519080825280602002602001820160405280156120a057816020015b61208d61275a565b8152602001906001900390816120855790505b50905060005b82811015611dc8576000858152606a6020526040812060016120c88487612eee565b6120d29190612eee565b815481106120e2576120e2612ea7565b9060005260206000200154905060686001826120fe9190612eee565b8154811061210e5761210e612ea7565b90600052602060002090600602016040518060c0016040529081600082015481526020016001820154815260200160028201805461214b90612f05565b80601f016020809104026020016040519081016040528092919081815260200182805461217790612f05565b80156121c45780601f10612199576101008083540402835291602001916121c4565b820191906000526020600020905b8154815290600101906020018083116121a757829003601f168201915b505050505081526020016003820180546121dd90612f05565b80601f016020809104026020016040519081016040528092919081815260200182805461220990612f05565b80156122565780601f1061222b57610100808354040283529160200191612256565b820191906000526020600020905b81548152906001019060200180831161223957829003601f168201915b5050505050815260200160048201805461226f90612f05565b80601f016020809104026020016040519081016040528092919081815260200182805461229b90612f05565b80156122e85780601f106122bd576101008083540402835291602001916122e8565b820191906000526020600020905b8154815290600101906020018083116122cb57829003601f168201915b50505091835250506005919091015460ff161515602090910152835184908490811061231657612316612ea7565b602002602001018190525050808061232d90612ed3565b9150506120a6565b61233d612402565b8061237c5760405162461bcd60e51b815260206004820152600f60248201526e06d696e74206c696d6974206973203608c1b6044820152606401610730565b606f55565b6000808311801561239457506067548311155b6123d25760405162461bcd60e51b815260206004820152600f60248201526e125b9d985b1a590819dc9bdd5c1259608a1b6044820152606401610730565b6123dc838361245c565b806123fb57506123fb83836000805160206130a38339815191526126ce565b9392505050565b6033546001600160a01b03163314610f6e5760405162461bcd60e51b815260206004820181905260248201527f4f776e61626c653a2063616c6c6572206973206e6f7420746865206f776e65726044820152606401610730565b6000808311801561246f57506067548311155b6124ad5760405162461bcd60e51b815260206004820152600f60248201526e125b9d985b1a590819dc9bdd5c1259608a1b6044820152606401610730565b6001600160a01b03821660676124c4600186612eee565b815481106124d4576124d4612ea7565b60009182526020909120600160039092020101546001600160a01b031614806123fb57506123fb83836000805160206130c38339815191526126ce565b60006000805160206130c38339815191528214806108665750506000805160206130a38339815191521490565b600061255983836000805160206130c38339815191526126ce565b1580156123fb575061257a83836000805160206130a38339815191526126ce565b159392505050565b603380546001600160a01b038381166001600160a01b0319831681179093556040519116919082907f8be0079c531659141344cd1fd0a4f28419497f9722a3daafe3b4186f6b6457e090600090a35050565b60008281526072602090815260408083208054825181850281018501909352808352849383018282801561263157602002820191906000526020600020905b81546001600160a01b03168152600190910190602001808311612613575b5050505050905060005b815181101561269457836001600160a01b031682828151811061266057612660612ea7565b60200260200101516001600160a01b0316141561268257600192505050610866565b8061268c81612ed3565b91505061263b565b506000949350505050565b600054610100900460ff166126c65760405162461bcd60e51b815260040161073090613057565b610f6e612700565b60009283526071602090815260408085206001600160a01b039490941685529281528284209184525290205460ff1690565b600054610100900460ff166127275760405162461bcd60e51b815260040161073090613057565b610f6e33612582565b60405180606001604052806000815260200160006001600160a01b03168152602001606081525090565b6040518060c0016040528060008152602001600081526020016060815260200160608152602001606081526020016000151581525090565b82805461279e90612f05565b90600052602060002090601f0160209004810192826127c05760008555612806565b82601f106127d957805160ff1916838001178555612806565b82800160010185558215612806579182015b828111156128065782518255916020019190600101906127eb565b50612812929150612816565b5090565b5b808211156128125760008155600101612817565b80356001600160a01b038116811461284257600080fd5b919050565b60006020828403121561285957600080fd5b6123fb8261282b565b6000815180845260005b818110156128885760208185018101518683018201520161286c565b8181111561289a576000602083870101525b50601f01601f19169290920160200192915050565b60006020808301818452808551808352604092508286019150828160051b87010184880160005b8381101561292957888303603f19018552815180518452878101516001600160a01b031688850152860151606087850181905261291581860183612862565b9689019694505050908601906001016128d6565b509098975050505050505050565b6000806040838503121561294a57600080fd5b8235915061295a6020840161282b565b90509250929050565b81516001600160a01b0316815260208083015115159082015260408083015115159082015260608101610866565b600080604083850312156129a457600080fd5b50508035926020909101359150565b80518252602081015160208301526000604082015160c060408501526129dc60c0850182612862565b9050606083015184820360608601526129f58282612862565b91505060808301518482036080860152612a0f8282612862565b91505060a0830151151560a08501528091505092915050565b6000602080830181845280855180835260408601915060408160051b870101925083870160005b82811015612a7d57603f19888603018452612a6b8583516129b3565b94509285019290850190600101612a4f565b5092979650505050505050565b600080600060608486031215612a9f57600080fd5b83359250612aaf6020850161282b565b9150604084013590509250925092565b600060208284031215612ad157600080fd5b5035919050565b634e487b7160e01b600052604160045260246000fd5b604080519081016001600160401b0381118282101715612b1057612b10612ad8565b60405290565b604051601f8201601f191681016001600160401b0381118282101715612b3e57612b3e612ad8565b604052919050565b600082601f830112612b5757600080fd5b81356001600160401b03811115612b7057612b70612ad8565b612b83601f8201601f1916602001612b16565b818152846020838601011115612b9857600080fd5b816020850160208301376000918101602001919091529392505050565b801515811461203a57600080fd5b803561284281612bb5565b600082601f830112612bdf57600080fd5b813560206001600160401b0380831115612bfb57612bfb612ad8565b8260051b612c0a838201612b16565b9384528581018301938381019088861115612c2457600080fd5b84880192505b85831015612c9b57823584811115612c425760008081fd5b88016040818b03601f1901811315612c5a5760008081fd5b612c62612aee565b8783013587811115612c745760008081fd5b612c828d8a83870101612b46565b8252509101358682015282529184019190840190612c2a565b98975050505050505050565b600080600080600080600080610100898b031215612cc457600080fd5b8835975060208901356001600160401b0380821115612ce257600080fd5b612cee8c838d01612b46565b985060408b0135915080821115612d0457600080fd5b612d108c838d01612b46565b975060608b0135915080821115612d2657600080fd5b612d328c838d01612b46565b965060808b01359550612d4760a08c01612bc3565b945060c08b0135935060e08b0135915080821115612d6457600080fd5b50612d718b828c01612bce565b9150509295985092959890939650565b60008060408385031215612d9457600080fd5b612d9d8361282b565b946020939093013593505050565b60008060008060808587031215612dc157600080fd5b612dca8561282b565b93506020850135925060408501359150612de66060860161282b565b905092959194509250565b6020815260006123fb60208301846129b3565b6020808252825182820181905260009190848201906040850190845b81811015612e6757612e5483855180516001600160a01b031682526020808201511515908301526040908101511515910152565b9284019260609290920191600101612e20565b50909695505050505050565b600060208284031215612e8557600080fd5b81356001600160401b03811115612e9b57600080fd5b61178584828501612b46565b634e487b7160e01b600052603260045260246000fd5b634e487b7160e01b600052601160045260246000fd5b6000600019821415612ee757612ee7612ebd565b5060010190565b600082821015612f0057612f00612ebd565b500390565b600181811c90821680612f1957607f821691505b60208210811415612f3a57634e487b7160e01b600052602260045260246000fd5b50919050565b60008219821115612f5357612f53612ebd565b500190565b600060208284031215612f6a57600080fd5b81516123fb81612bb5565b60208082526006908201526514185d5cd95960d21b604082015260600190565b634e487b7160e01b600052603160045260246000fd5b6000816000190483118215151615612fc557612fc5612ebd565b500290565b60006080820186835260208681850152604086818601526080606086015282865180855260a08701915060a08160051b880101945083880160005b8281101561304657888703609f1901845281518051868952613029878a0182612862565b918801519888019890985296509285019290850190600101613005565b50949b9a5050505050505050505050565b6020808252602b908201527f496e697469616c697a61626c653a20636f6e7472616374206973206e6f74206960408201526a6e697469616c697a696e6760a81b60608201526080019056fef38814eec94cecab51d76c4344615af8334e61ee8d4ae6b02411905a54259ecedf8b4c520ffe197c5343c6f5aec59570151ef9a492f2c624fd45ddde6135ec42a26469706673582212208f9c5a7430a370e6b7724845bab572ffe6266fa233472e0e3bcd74b3db72f78364736f6c63430008090033",
  "linkReferences": {},
  "deployedLinkReferences": {}
}