{
  "_format": "hh-sol-artifact-1",
  "contractName": "MintNFT",
  "sourceName": "contracts/MintNFT.sol",
  "abi": [
    {
      "anonymous": false,
      "inputs": [
        {
          "indexed": true,
          "internalType": "address",
          "name": "owner",
          "type": "address"
        },
        {
          "indexed": true,
          "internalType": "address",
          "name": "approved",
          "type": "address"
        },
        {
          "indexed": true,
          "internalType": "uint256",
          "name": "tokenId",
          "type": "uint256"
        }
      ],
      "name": "Approval",
      "type": "event"
    },
    {
      "anonymous": false,
      "inputs": [
        {
          "indexed": true,
          "internalType": "address",
          "name": "owner",
          "type": "address"
        },
        {
          "indexed": true,
          "internalType": "address",
          "name": "operator",
          "type": "address"
        },
        {
          "indexed": false,
          "internalType": "bool",
          "name": "approved",
          "type": "bool"
        }
      ],
      "name": "ApprovalForAll",
      "type": "event"
    },
    {
      "anonymous": false,
      "inputs": [
        {
          "indexed": false,
          "internalType": "uint8",
          "name": "version",
          "type": "uint8"
        }
      ],
      "name": "Initialized",
      "type": "event"
    },
    {
      "anonymous": false,
      "inputs": [
        {
          "indexed": true,
          "internalType": "address",
          "name": "holder",
          "type": "address"
        },
        {
          "indexed": false,
          "internalType": "string",
          "name": "url",
          "type": "string"
        }
      ],
      "name": "MintedNFTAttributeURL",
      "type": "event"
    },
    {
      "anonymous": false,
      "inputs": [
        {
          "indexed": true,
          "internalType": "address",
          "name": "previousOwner",
          "type": "address"
        },
        {
          "indexed": true,
          "internalType": "address",
          "name": "newOwner",
          "type": "address"
        }
      ],
      "name": "OwnershipTransferred",
      "type": "event"
    },
    {
      "anonymous": false,
      "inputs": [
        {
          "indexed": true,
          "internalType": "address",
          "name": "from",
          "type": "address"
        },
        {
          "indexed": true,
          "internalType": "address",
          "name": "to",
          "type": "address"
        },
        {
          "indexed": true,
          "internalType": "uint256",
          "name": "tokenId",
          "type": "uint256"
        }
      ],
      "name": "Transfer",
      "type": "event"
    },
    {
      "inputs": [
        {
          "internalType": "address",
          "name": "to",
          "type": "address"
        },
        {
          "internalType": "uint256",
          "name": "tokenId",
          "type": "uint256"
        }
      ],
      "name": "approve",
      "outputs": [],
      "stateMutability": "nonpayable",
      "type": "function"
    },
    {
      "inputs": [
        {
          "internalType": "address",
          "name": "owner",
          "type": "address"
        }
      ],
      "name": "balanceOf",
      "outputs": [
        {
          "internalType": "uint256",
          "name": "",
          "type": "uint256"
        }
      ],
      "stateMutability": "view",
      "type": "function"
    },
    {
      "inputs": [
        {
          "internalType": "uint256",
          "name": "tokenId",
          "type": "uint256"
        }
      ],
      "name": "burn",
      "outputs": [],
      "stateMutability": "nonpayable",
      "type": "function"
    },
    {
      "inputs": [
        {
          "internalType": "uint256",
          "name": "tokenId",
          "type": "uint256"
        }
      ],
      "name": "getApproved",
      "outputs": [
        {
          "internalType": "address",
          "name": "",
          "type": "address"
        }
      ],
      "stateMutability": "view",
      "type": "function"
    },
    {
      "inputs": [],
      "name": "getMtxTest",
      "outputs": [
        {
          "internalType": "string",
          "name": "",
          "type": "string"
        }
      ],
      "stateMutability": "view",
      "type": "function"
    },
    {
      "inputs": [
        {
          "internalType": "uint256",
          "name": "_eventId",
          "type": "uint256"
        }
      ],
      "name": "getRemainingNFTCount",
      "outputs": [
        {
          "internalType": "uint256",
          "name": "",
          "type": "uint256"
        }
      ],
      "stateMutability": "view",
      "type": "function"
    },
    {
      "inputs": [
        {
          "internalType": "contract MinimalForwarderUpgradeable",
          "name": "trustedForwarder",
          "type": "address"
        }
      ],
      "name": "initialize",
      "outputs": [],
      "stateMutability": "nonpayable",
      "type": "function"
    },
    {
      "inputs": [
        {
          "internalType": "address",
          "name": "owner",
          "type": "address"
        },
        {
          "internalType": "address",
          "name": "operator",
          "type": "address"
        }
      ],
      "name": "isApprovedForAll",
      "outputs": [
        {
          "internalType": "bool",
          "name": "",
          "type": "bool"
        }
      ],
      "stateMutability": "view",
      "type": "function"
    },
    {
      "inputs": [
        {
          "internalType": "address",
          "name": "forwarder",
          "type": "address"
        }
      ],
      "name": "isTrustedForwarder",
      "outputs": [
        {
          "internalType": "bool",
          "name": "",
          "type": "bool"
        }
      ],
      "stateMutability": "view",
      "type": "function"
    },
    {
      "inputs": [
        {
          "internalType": "uint256",
          "name": "_groupId",
          "type": "uint256"
        },
        {
          "internalType": "uint256",
          "name": "_eventId",
          "type": "uint256"
        },
        {
          "internalType": "string",
          "name": "_secretPhrase",
          "type": "string"
        }
      ],
      "name": "mintParticipateNFT",
      "outputs": [],
      "stateMutability": "nonpayable",
      "type": "function"
    },
    {
      "inputs": [],
      "name": "mtxTest",
      "outputs": [
        {
          "internalType": "string",
          "name": "",
          "type": "string"
        }
      ],
      "stateMutability": "view",
      "type": "function"
    },
    {
      "inputs": [],
      "name": "name",
      "outputs": [
        {
          "internalType": "string",
          "name": "",
          "type": "string"
        }
      ],
      "stateMutability": "view",
      "type": "function"
    },
    {
      "inputs": [],
      "name": "owner",
      "outputs": [
        {
          "internalType": "address",
          "name": "",
          "type": "address"
        }
      ],
      "stateMutability": "view",
      "type": "function"
    },
    {
      "inputs": [
        {
          "internalType": "uint256",
          "name": "tokenId",
          "type": "uint256"
        }
      ],
      "name": "ownerOf",
      "outputs": [
        {
          "internalType": "address",
          "name": "",
          "type": "address"
        }
      ],
      "stateMutability": "view",
      "type": "function"
    },
    {
      "inputs": [],
      "name": "renounceOwnership",
      "outputs": [],
      "stateMutability": "nonpayable",
      "type": "function"
    },
    {
      "inputs": [
        {
          "internalType": "address",
          "name": "from",
          "type": "address"
        },
        {
          "internalType": "address",
          "name": "to",
          "type": "address"
        },
        {
          "internalType": "uint256",
          "name": "tokenId",
          "type": "uint256"
        }
      ],
      "name": "safeTransferFrom",
      "outputs": [],
      "stateMutability": "nonpayable",
      "type": "function"
    },
    {
      "inputs": [
        {
          "internalType": "address",
          "name": "from",
          "type": "address"
        },
        {
          "internalType": "address",
          "name": "to",
          "type": "address"
        },
        {
          "internalType": "uint256",
          "name": "tokenId",
          "type": "uint256"
        },
        {
          "internalType": "bytes",
          "name": "data",
          "type": "bytes"
        }
      ],
      "name": "safeTransferFrom",
      "outputs": [],
      "stateMutability": "nonpayable",
      "type": "function"
    },
    {
      "inputs": [
        {
          "internalType": "address",
          "name": "operator",
          "type": "address"
        },
        {
          "internalType": "bool",
          "name": "approved",
          "type": "bool"
        }
      ],
      "name": "setApprovalForAll",
      "outputs": [],
      "stateMutability": "nonpayable",
      "type": "function"
    },
    {
      "inputs": [
        {
          "internalType": "uint256",
          "name": "_eventId",
          "type": "uint256"
        },
        {
          "internalType": "uint256",
          "name": "_mintLimit",
          "type": "uint256"
        },
        {
          "internalType": "bytes32",
          "name": "_secretPhrase",
          "type": "bytes32"
        },
        {
          "components": [
            {
              "internalType": "string",
              "name": "metaDataURL",
              "type": "string"
            },
            {
              "internalType": "uint256",
              "name": "requiredParticipateCount",
              "type": "uint256"
            }
          ],
          "internalType": "struct MintNFT.NFTAttribute[]",
          "name": "attributes",
          "type": "tuple[]"
        }
      ],
      "name": "setEventInfo",
      "outputs": [],
      "stateMutability": "nonpayable",
      "type": "function"
    },
    {
      "inputs": [
        {
          "internalType": "address",
          "name": "_eventManagerAddr",
          "type": "address"
        }
      ],
      "name": "setEventManagerAddr",
      "outputs": [],
      "stateMutability": "nonpayable",
      "type": "function"
    },
    {
      "inputs": [
        {
          "internalType": "uint256",
          "name": "_groupId",
          "type": "uint256"
        },
        {
          "internalType": "uint256",
          "name": "_eventId",
          "type": "uint256"
        },
        {
          "internalType": "string",
          "name": "_secretPhrase",
          "type": "string"
        }
      ],
      "name": "setMtxTest",
      "outputs": [],
      "stateMutability": "nonpayable",
      "type": "function"
    },
    {
      "inputs": [
        {
          "internalType": "bytes4",
          "name": "interfaceId",
          "type": "bytes4"
        }
      ],
      "name": "supportsInterface",
      "outputs": [
        {
          "internalType": "bool",
          "name": "",
          "type": "bool"
        }
      ],
      "stateMutability": "view",
      "type": "function"
    },
    {
      "inputs": [],
      "name": "symbol",
      "outputs": [
        {
          "internalType": "string",
          "name": "",
          "type": "string"
        }
      ],
      "stateMutability": "view",
      "type": "function"
    },
    {
      "inputs": [
        {
          "internalType": "uint256",
          "name": "index",
          "type": "uint256"
        }
      ],
      "name": "tokenByIndex",
      "outputs": [
        {
          "internalType": "uint256",
          "name": "",
          "type": "uint256"
        }
      ],
      "stateMutability": "view",
      "type": "function"
    },
    {
      "inputs": [
        {
          "internalType": "address",
          "name": "owner",
          "type": "address"
        },
        {
          "internalType": "uint256",
          "name": "index",
          "type": "uint256"
        }
      ],
      "name": "tokenOfOwnerByIndex",
      "outputs": [
        {
          "internalType": "uint256",
          "name": "",
          "type": "uint256"
        }
      ],
      "stateMutability": "view",
      "type": "function"
    },
    {
      "inputs": [
        {
          "internalType": "uint256",
          "name": "_tokenId",
          "type": "uint256"
        }
      ],
      "name": "tokenURI",
      "outputs": [
        {
          "internalType": "string",
          "name": "",
          "type": "string"
        }
      ],
      "stateMutability": "view",
      "type": "function"
    },
    {
      "inputs": [],
      "name": "totalSupply",
      "outputs": [
        {
          "internalType": "uint256",
          "name": "",
          "type": "uint256"
        }
      ],
      "stateMutability": "view",
      "type": "function"
    },
    {
      "inputs": [
        {
          "internalType": "address",
          "name": "from",
          "type": "address"
        },
        {
          "internalType": "address",
          "name": "to",
          "type": "address"
        },
        {
          "internalType": "uint256",
          "name": "tokenId",
          "type": "uint256"
        }
      ],
      "name": "transferFrom",
      "outputs": [],
      "stateMutability": "nonpayable",
      "type": "function"
    },
    {
      "inputs": [
        {
          "internalType": "address",
          "name": "newOwner",
          "type": "address"
        }
      ],
      "name": "transferOwnership",
      "outputs": [],
      "stateMutability": "nonpayable",
      "type": "function"
    }
  ],
  "bytecode": "0x608060405234801561001057600080fd5b506148c8806100206000396000f3fe608060405234801561001057600080fd5b50600436106101cf5760003560e01c806370a0823111610104578063a22cb465116100a2578063dece861711610071578063dece86171461053c578063e985e9c51461055a578063ef3ad9eb1461058a578063f2fde38b146105a6576101cf565b8063a22cb465146104b8578063b88d4fde146104d4578063c4d66de8146104f0578063c87b56dd1461050c576101cf565b80638da5cb5b116100de5780638da5cb5b146104445780639041e3f41461046257806395d89b411461047e5780639fca49461461049c576101cf565b806370a08231146103ee578063715018a61461041e57806372746a8d14610428576101cf565b806340fe1061116101715780634f6ccce71161014b5780634f6ccce71461032e5780634ffc9f4b1461035e578063572b6c051461038e5780636352211e146103be576101cf565b806340fe1061146102d857806342842e0e146102f657806342966c6814610312576101cf565b8063095ea7b3116101ad578063095ea7b31461025257806318160ddd1461026e57806323b872dd1461028c5780632f745c59146102a8576101cf565b806301ffc9a7146101d457806306fdde0314610204578063081812fc14610222575b600080fd5b6101ee60048036038101906101e9919061303b565b6105c2565b6040516101fb9190613083565b60405180910390f35b61020c61063c565b6040516102199190613137565b60405180910390f35b61023c6004803603810190610237919061318f565b6106ce565b60405161024991906131fd565b60405180910390f35b61026c60048036038101906102679190613244565b610714565b005b61027661082c565b6040516102839190613293565b60405180910390f35b6102a660048036038101906102a191906132ae565b610839565b005b6102c260048036038101906102bd9190613244565b610899565b6040516102cf9190613293565b60405180910390f35b6102e061093e565b6040516102ed9190613137565b60405180910390f35b610310600480360381019061030b91906132ae565b6109d1565b005b61032c6004803603810190610327919061318f565b6109f1565b005b6103486004803603810190610343919061318f565b610a05565b6040516103559190613293565b60405180910390f35b6103786004803603810190610373919061318f565b610a76565b6040516103859190613293565b60405180910390f35b6103a860048036038101906103a39190613301565b610a94565b6040516103b59190613083565b60405180910390f35b6103d860048036038101906103d3919061318f565b610aee565b6040516103e591906131fd565b60405180910390f35b61040860048036038101906104039190613301565b610ba0565b6040516104159190613293565b60405180910390f35b610426610c58565b005b610442600480360381019061043d9190613463565b610c6c565b005b61044c6110a5565b60405161045991906131fd565b60405180910390f35b61047c60048036038101906104779190613301565b6110cf565b005b61048661118c565b6040516104939190613137565b60405180910390f35b6104b660048036038101906104b19190613463565b61121e565b005b6104d260048036038101906104cd91906134fe565b611387565b005b6104ee60048036038101906104e991906135df565b61139d565b005b61050a600480360381019061050591906136a0565b6113ff565b005b6105266004803603810190610521919061318f565b6115bb565b6040516105339190613137565b60405180910390f35b610544611667565b6040516105519190613137565b60405180910390f35b610574600480360381019061056f91906136cd565b6116f6565b6040516105819190613083565b60405180910390f35b6105a4600480360381019061059f919061389f565b61178a565b005b6105c060048036038101906105bb9190613301565b6118e8565b005b60007f780e9d63000000000000000000000000000000000000000000000000000000007bffffffffffffffffffffffffffffffffffffffffffffffffffffffff1916827bffffffffffffffffffffffffffffffffffffffffffffffffffffffff1916148061063557506106348261196c565b5b9050919050565b60606065805461064b90613951565b80601f016020809104026020016040519081016040528092919081815260200182805461067790613951565b80156106c45780601f10610699576101008083540402835291602001916106c4565b820191906000526020600020905b8154815290600101906020018083116106a757829003601f168201915b5050505050905090565b60006106d982611a4e565b6069600083815260200190815260200160002060009054906101000a900473ffffffffffffffffffffffffffffffffffffffff169050919050565b600061071f82610aee565b90508073ffffffffffffffffffffffffffffffffffffffff168373ffffffffffffffffffffffffffffffffffffffff161415610790576040517f08c379a0000000000000000000000000000000000000000000000000000000008152600401610787906139f5565b60405180910390fd5b8073ffffffffffffffffffffffffffffffffffffffff166107af611a99565b73ffffffffffffffffffffffffffffffffffffffff1614806107de57506107dd816107d8611a99565b6116f6565b5b61081d576040517f08c379a000000000000000000000000000000000000000000000000000000000815260040161081490613a87565b60405180910390fd5b6108278383611acb565b505050565b6000609980549050905090565b61084a610844611a99565b82611b84565b610889576040517f08c379a000000000000000000000000000000000000000000000000000000000815260040161088090613b19565b60405180910390fd5b610894838383611c19565b505050565b60006108a483610ba0565b82106108e5576040517f08c379a00000000000000000000000000000000000000000000000000000000081526004016108dc90613bab565b60405180910390fd5b609760008473ffffffffffffffffffffffffffffffffffffffff1673ffffffffffffffffffffffffffffffffffffffff168152602001908152602001600020600083815260200190815260200160002054905092915050565b6060610130805461094e90613951565b80601f016020809104026020016040519081016040528092919081815260200182805461097a90613951565b80156109c75780601f1061099c576101008083540402835291602001916109c7565b820191906000526020600020905b8154815290600101906020018083116109aa57829003601f168201915b5050505050905090565b6109ec8383836040518060200160405280600081525061139d565b505050565b6109f9611e80565b610a0281611efe565b50565b6000610a0f61082c565b8210610a50576040517f08c379a0000000000000000000000000000000000000000000000000000000008152600401610a4790613c3d565b60405180910390fd5b60998281548110610a6457610a63613c5d565b5b90600052602060002001549050919050565b60006101356000838152602001908152602001600020549050919050565b600060c960009054906101000a900473ffffffffffffffffffffffffffffffffffffffff1673ffffffffffffffffffffffffffffffffffffffff168273ffffffffffffffffffffffffffffffffffffffff16149050919050565b6000806067600084815260200190815260200160002060009054906101000a900473ffffffffffffffffffffffffffffffffffffffff169050600073ffffffffffffffffffffffffffffffffffffffff168173ffffffffffffffffffffffffffffffffffffffff161415610b97576040517f08c379a0000000000000000000000000000000000000000000000000000000008152600401610b8e90613cd8565b60405180910390fd5b80915050919050565b60008073ffffffffffffffffffffffffffffffffffffffff168273ffffffffffffffffffffffffffffffffffffffff161415610c11576040517f08c379a0000000000000000000000000000000000000000000000000000000008152600401610c0890613d6a565b60405180910390fd5b606860008373ffffffffffffffffffffffffffffffffffffffff1673ffffffffffffffffffffffffffffffffffffffff168152602001908152602001600020549050919050565b610c60611e80565b610c6a600061201b565b565b610c7681836120e1565b610cb5576040517f08c379a0000000000000000000000000000000000000000000000000000000008152600401610cac90613dd6565b60405180910390fd5b60006101356000848152602001908152602001600020541415610d0d576040517f08c379a0000000000000000000000000000000000000000000000000000000008152600401610d0490613e42565b60405180910390fd5b6000610d20610d1a611a99565b84612114565b90506000610132600083815260200190815260200160002060009054906101000a900460ff1690508015610d89576040517f08c379a0000000000000000000000000000000000000000000000000000000008152600401610d8090613eae565b60405180910390fd5b6001610132600084815260200190815260200160002060006101000a81548160ff0219169083151502179055506000610dc9610dc3611a99565b87612114565b90506000610133600083815260200190815260200160002054905060006101346000610df6896000612147565b81526020019081526020016000208054610e0f90613951565b80601f0160208091040260200160405190810160405280929190818152602001828054610e3b90613951565b8015610e885780601f10610e5d57610100808354040283529160200191610e88565b820191906000526020600020905b815481529060010190602001808311610e6b57829003601f168201915b5050505050905060006101346000610ea08a86612147565b81526020019081526020016000208054610eb990613951565b80601f0160208091040260200160405190810160405280929190818152602001828054610ee590613951565b8015610f325780601f10610f0757610100808354040283529160200191610f32565b820191906000526020600020905b815481529060010190602001808311610f1557829003601f168201915b50505050509050604051602001610f4890613eff565b6040516020818303038152906040528051906020012081604051602001610f6f9190613f45565b6040516020818303038152906040528051906020012014610f8e578091505b816101316000610f9f61012e61217a565b81526020019081526020016000209080519060200190610fc0929190612f2c565b50610fdc610fcc611a99565b610fd761012e61217a565b612188565b600183610fe99190613f8b565b610133600086815260200190815260200160002081905550600161013560008a8152602001908152602001600020546110229190613fe1565b61013560008a81526020019081526020016000208190555061104561012e6121a6565b61104d611a99565b73ffffffffffffffffffffffffffffffffffffffff167faf2fad1984d2c7abaa9300537cf9fe1bcfaf2d6226e4ffdf03522dbf3064808e836040516110929190613137565b60405180910390a2505050505050505050565b600060fc60009054906101000a900473ffffffffffffffffffffffffffffffffffffffff16905090565b6110d7611e80565b600073ffffffffffffffffffffffffffffffffffffffff168173ffffffffffffffffffffffffffffffffffffffff161415611147576040517f08c379a000000000000000000000000000000000000000000000000000000000815260040161113e90614061565b60405180910390fd5b8061012f60006101000a81548173ffffffffffffffffffffffffffffffffffffffff021916908373ffffffffffffffffffffffffffffffffffffffff16021790555050565b60606066805461119b90613951565b80601f01602080910402602001604051908101604052809291908181526020018280546111c790613951565b80156112145780601f106111e957610100808354040283529160200191611214565b820191906000526020600020905b8154815290600101906020018083116111f757829003601f168201915b5050505050905090565b61122881836120e1565b611267576040517f08c379a000000000000000000000000000000000000000000000000000000000815260040161125e90613dd6565b60405180910390fd5b600061013560008481526020019081526020016000205414156112bf576040517f08c379a00000000000000000000000000000000000000000000000000000000081526004016112b690613e42565b60405180910390fd5b60006112d26112cc611a99565b84612114565b90506000610132600083815260200190815260200160002060009054906101000a900460ff169050801561133b576040517f08c379a000000000000000000000000000000000000000000000000000000000815260040161133290613eae565b60405180910390fd5b6001610132600084815260200190815260200160002060006101000a81548160ff02191690831515021790555082610130908051906020019061137f929190612f2c565b505050505050565b611399611392611a99565b83836121bc565b5050565b6113ae6113a8611a99565b83611b84565b6113ed576040517f08c379a00000000000000000000000000000000000000000000000000000000081526004016113e490613b19565b60405180910390fd5b6113f984848484612329565b50505050565b60008060019054906101000a900460ff161590508080156114305750600160008054906101000a900460ff1660ff16105b8061145d575061143f30612385565b15801561145c5750600160008054906101000a900460ff1660ff16145b5b61149c576040517f08c379a0000000000000000000000000000000000000000000000000000000008152600401611493906140f3565b60405180910390fd5b60016000806101000a81548160ff021916908360ff16021790555080156114d9576001600060016101000a81548160ff0219169083151502179055505b61154d6040518060400160405280600981526020017f4d696e7452616c6c7900000000000000000000000000000000000000000000008152506040518060400160405280600281526020017f4d520000000000000000000000000000000000000000000000000000000000008152506123a8565b611555612405565b61155e8261245e565b80156115b75760008060016101000a81548160ff0219169083151502179055507f7f26b83ff96e1f2b6a682f133852f6798a09c465da95921460cefb384740249860016040516115ae9190614165565b60405180910390a15b5050565b60606000610131600084815260200190815260200160002080546115de90613951565b80601f016020809104026020016040519081016040528092919081815260200182805461160a90613951565b80156116575780601f1061162c57610100808354040283529160200191611657565b820191906000526020600020905b81548152906001019060200180831161163a57829003601f168201915b5050505050905080915050919050565b610130805461167590613951565b80601f01602080910402602001604051908101604052809291908181526020018280546116a190613951565b80156116ee5780601f106116c3576101008083540402835291602001916116ee565b820191906000526020600020905b8154815290600101906020018083116116d157829003601f168201915b505050505081565b6000606a60008473ffffffffffffffffffffffffffffffffffffffff1673ffffffffffffffffffffffffffffffffffffffff16815260200190815260200160002060008373ffffffffffffffffffffffffffffffffffffffff1673ffffffffffffffffffffffffffffffffffffffff16815260200190815260200160002060009054906101000a900460ff16905092915050565b61012f60009054906101000a900473ffffffffffffffffffffffffffffffffffffffff1673ffffffffffffffffffffffffffffffffffffffff166117cc611a99565b73ffffffffffffffffffffffffffffffffffffffff1614611822576040517f08c379a0000000000000000000000000000000000000000000000000000000008152600401611819906141cc565b60405180910390fd5b826101356000868152602001908152602001600020819055508161013660008681526020019081526020016000208190555060005b81518110156118e15781818151811061187357611872613c5d565b5b60200260200101516000015161013460006118ac8886868151811061189b5761189a613c5d565b5b602002602001015160200151612147565b815260200190815260200160002090805190602001906118cd929190612f2c565b5080806118d9906141ec565b915050611857565b5050505050565b6118f0611e80565b600073ffffffffffffffffffffffffffffffffffffffff168173ffffffffffffffffffffffffffffffffffffffff161415611960576040517f08c379a0000000000000000000000000000000000000000000000000000000008152600401611957906142a7565b60405180910390fd5b6119698161201b565b50565b60007f80ac58cd000000000000000000000000000000000000000000000000000000007bffffffffffffffffffffffffffffffffffffffffffffffffffffffff1916827bffffffffffffffffffffffffffffffffffffffffffffffffffffffff19161480611a3757507f5b5e139f000000000000000000000000000000000000000000000000000000007bffffffffffffffffffffffffffffffffffffffffffffffffffffffff1916827bffffffffffffffffffffffffffffffffffffffffffffffffffffffff1916145b80611a475750611a46826124f9565b5b9050919050565b611a5781612563565b611a96576040517f08c379a0000000000000000000000000000000000000000000000000000000008152600401611a8d90613cd8565b60405180910390fd5b50565b6000611aa433610a94565b15611ab857601436033560601c9050611ac7565b611ac06125cf565b9050611ac8565b5b90565b816069600083815260200190815260200160002060006101000a81548173ffffffffffffffffffffffffffffffffffffffff021916908373ffffffffffffffffffffffffffffffffffffffff160217905550808273ffffffffffffffffffffffffffffffffffffffff16611b3e83610aee565b73ffffffffffffffffffffffffffffffffffffffff167f8c5be1e5ebec7d5bd14f71427d1e84f3dd0314c0f7b2291e5b200ac8c7c3b92560405160405180910390a45050565b600080611b9083610aee565b90508073ffffffffffffffffffffffffffffffffffffffff168473ffffffffffffffffffffffffffffffffffffffff161480611bd25750611bd181856116f6565b5b80611c1057508373ffffffffffffffffffffffffffffffffffffffff16611bf8846106ce565b73ffffffffffffffffffffffffffffffffffffffff16145b91505092915050565b8273ffffffffffffffffffffffffffffffffffffffff16611c3982610aee565b73ffffffffffffffffffffffffffffffffffffffff1614611c8f576040517f08c379a0000000000000000000000000000000000000000000000000000000008152600401611c8690614339565b60405180910390fd5b600073ffffffffffffffffffffffffffffffffffffffff168273ffffffffffffffffffffffffffffffffffffffff161415611cff576040517f08c379a0000000000000000000000000000000000000000000000000000000008152600401611cf6906143cb565b60405180910390fd5b611d0a838383612601565b611d15600082611acb565b6001606860008573ffffffffffffffffffffffffffffffffffffffff1673ffffffffffffffffffffffffffffffffffffffff1681526020019081526020016000206000828254611d659190613fe1565b925050819055506001606860008473ffffffffffffffffffffffffffffffffffffffff1673ffffffffffffffffffffffffffffffffffffffff1681526020019081526020016000206000828254611dbc9190613f8b565b92505081905550816067600083815260200190815260200160002060006101000a81548173ffffffffffffffffffffffffffffffffffffffff021916908373ffffffffffffffffffffffffffffffffffffffff160217905550808273ffffffffffffffffffffffffffffffffffffffff168473ffffffffffffffffffffffffffffffffffffffff167fddf252ad1be2c89b69c2b068fc378daa952ba7f163c4a11628f55a4df523b3ef60405160405180910390a4611e7b838383612715565b505050565b611e88611a99565b73ffffffffffffffffffffffffffffffffffffffff16611ea66110a5565b73ffffffffffffffffffffffffffffffffffffffff1614611efc576040517f08c379a0000000000000000000000000000000000000000000000000000000008152600401611ef390614437565b60405180910390fd5b565b6000611f0982610aee565b9050611f1781600084612601565b611f22600083611acb565b6001606860008373ffffffffffffffffffffffffffffffffffffffff1673ffffffffffffffffffffffffffffffffffffffff1681526020019081526020016000206000828254611f729190613fe1565b925050819055506067600083815260200190815260200160002060006101000a81549073ffffffffffffffffffffffffffffffffffffffff021916905581600073ffffffffffffffffffffffffffffffffffffffff168273ffffffffffffffffffffffffffffffffffffffff167fddf252ad1be2c89b69c2b068fc378daa952ba7f163c4a11628f55a4df523b3ef60405160405180910390a461201781600084612715565b5050565b600060fc60009054906101000a900473ffffffffffffffffffffffffffffffffffffffff1690508160fc60006101000a81548173ffffffffffffffffffffffffffffffffffffffff021916908373ffffffffffffffffffffffffffffffffffffffff1602179055508173ffffffffffffffffffffffffffffffffffffffff168173ffffffffffffffffffffffffffffffffffffffff167f8be0079c531659141344cd1fd0a4f28419497f9722a3daafe3b4186f6b6457e060405160405180910390a35050565b60008083805190602001209050600081610136600086815260200190815260200160002054149050809250505092915050565b600082826040516020016121299291906144c0565b60405160208183030381529060405280519060200120905092915050565b6000828260405160200161215c9291906144ec565b60405160208183030381529060405280519060200120905092915050565b600081600001549050919050565b6121a282826040518060200160405280600081525061271a565b5050565b6001816000016000828254019250508190555050565b8173ffffffffffffffffffffffffffffffffffffffff168373ffffffffffffffffffffffffffffffffffffffff16141561222b576040517f08c379a000000000000000000000000000000000000000000000000000000000815260040161222290614564565b60405180910390fd5b80606a60008573ffffffffffffffffffffffffffffffffffffffff1673ffffffffffffffffffffffffffffffffffffffff16815260200190815260200160002060008473ffffffffffffffffffffffffffffffffffffffff1673ffffffffffffffffffffffffffffffffffffffff16815260200190815260200160002060006101000a81548160ff0219169083151502179055508173ffffffffffffffffffffffffffffffffffffffff168373ffffffffffffffffffffffffffffffffffffffff167f17307eab39ab6107e8899845ad3d59bd9653f200f220920489ca2b5937696c318360405161231c9190613083565b60405180910390a3505050565b612334848484611c19565b61234084848484612775565b61237f576040517f08c379a0000000000000000000000000000000000000000000000000000000008152600401612376906145f6565b60405180910390fd5b50505050565b6000808273ffffffffffffffffffffffffffffffffffffffff163b119050919050565b600060019054906101000a900460ff166123f7576040517f08c379a00000000000000000000000000000000000000000000000000000000081526004016123ee90614688565b60405180910390fd5b612401828261290c565b5050565b600060019054906101000a900460ff16612454576040517f08c379a000000000000000000000000000000000000000000000000000000000815260040161244b90614688565b60405180910390fd5b61245c61298d565b565b600060019054906101000a900460ff166124ad576040517f08c379a00000000000000000000000000000000000000000000000000000000081526004016124a490614688565b60405180910390fd5b6124b56129ee565b8060c960006101000a81548173ffffffffffffffffffffffffffffffffffffffff021916908373ffffffffffffffffffffffffffffffffffffffff16021790555050565b60007f01ffc9a7000000000000000000000000000000000000000000000000000000007bffffffffffffffffffffffffffffffffffffffffffffffffffffffff1916827bffffffffffffffffffffffffffffffffffffffffffffffffffffffff1916149050919050565b60008073ffffffffffffffffffffffffffffffffffffffff166067600084815260200190815260200160002060009054906101000a900473ffffffffffffffffffffffffffffffffffffffff1673ffffffffffffffffffffffffffffffffffffffff1614159050919050565b60006125da33610a94565b156125ee57601436033560601c90506125fd565b6125f6612a3f565b90506125fe565b5b90565b61260c838383612a47565b600073ffffffffffffffffffffffffffffffffffffffff168373ffffffffffffffffffffffffffffffffffffffff16141561264f5761264a81612a4c565b61268e565b8173ffffffffffffffffffffffffffffffffffffffff168373ffffffffffffffffffffffffffffffffffffffff161461268d5761268c8382612a95565b5b5b600073ffffffffffffffffffffffffffffffffffffffff168273ffffffffffffffffffffffffffffffffffffffff1614156126d1576126cc81612c02565b612710565b8273ffffffffffffffffffffffffffffffffffffffff168273ffffffffffffffffffffffffffffffffffffffff161461270f5761270e8282612cd3565b5b5b505050565b505050565b6127248383612d52565b6127316000848484612775565b612770576040517f08c379a0000000000000000000000000000000000000000000000000000000008152600401612767906145f6565b60405180910390fd5b505050565b60006127968473ffffffffffffffffffffffffffffffffffffffff16612385565b156128ff578373ffffffffffffffffffffffffffffffffffffffff1663150b7a026127bf611a99565b8786866040518563ffffffff1660e01b81526004016127e194939291906146fd565b602060405180830381600087803b1580156127fb57600080fd5b505af192505050801561282c57506040513d601f19601f82011682018060405250810190612829919061475e565b60015b6128af573d806000811461285c576040519150601f19603f3d011682016040523d82523d6000602084013e612861565b606091505b506000815114156128a7576040517f08c379a000000000000000000000000000000000000000000000000000000000815260040161289e906145f6565b60405180910390fd5b805181602001fd5b63150b7a0260e01b7bffffffffffffffffffffffffffffffffffffffffffffffffffffffff1916817bffffffffffffffffffffffffffffffffffffffffffffffffffffffff191614915050612904565b600190505b949350505050565b600060019054906101000a900460ff1661295b576040517f08c379a000000000000000000000000000000000000000000000000000000000815260040161295290614688565b60405180910390fd5b8160659080519060200190612971929190612f2c565b508060669080519060200190612988929190612f2c565b505050565b600060019054906101000a900460ff166129dc576040517f08c379a00000000000000000000000000000000000000000000000000000000081526004016129d390614688565b60405180910390fd5b6129ec6129e7611a99565b61201b565b565b600060019054906101000a900460ff16612a3d576040517f08c379a0000000000000000000000000000000000000000000000000000000008152600401612a3490614688565b60405180910390fd5b565b600033905090565b505050565b609980549050609a600083815260200190815260200160002081905550609981908060018154018082558091505060019003906000526020600020016000909190919091505550565b60006001612aa284610ba0565b612aac9190613fe1565b9050600060986000848152602001908152602001600020549050818114612b91576000609760008673ffffffffffffffffffffffffffffffffffffffff1673ffffffffffffffffffffffffffffffffffffffff168152602001908152602001600020600084815260200190815260200160002054905080609760008773ffffffffffffffffffffffffffffffffffffffff1673ffffffffffffffffffffffffffffffffffffffff168152602001908152602001600020600084815260200190815260200160002081905550816098600083815260200190815260200160002081905550505b6098600084815260200190815260200160002060009055609760008573ffffffffffffffffffffffffffffffffffffffff1673ffffffffffffffffffffffffffffffffffffffff16815260200190815260200160002060008381526020019081526020016000206000905550505050565b60006001609980549050612c169190613fe1565b90506000609a6000848152602001908152602001600020549050600060998381548110612c4657612c45613c5d565b5b906000526020600020015490508060998381548110612c6857612c67613c5d565b5b906000526020600020018190555081609a600083815260200190815260200160002081905550609a6000858152602001908152602001600020600090556099805480612cb757612cb661478b565b5b6001900381819060005260206000200160009055905550505050565b6000612cde83610ba0565b905081609760008573ffffffffffffffffffffffffffffffffffffffff1673ffffffffffffffffffffffffffffffffffffffff168152602001908152602001600020600083815260200190815260200160002081905550806098600084815260200190815260200160002081905550505050565b600073ffffffffffffffffffffffffffffffffffffffff168273ffffffffffffffffffffffffffffffffffffffff161415612dc2576040517f08c379a0000000000000000000000000000000000000000000000000000000008152600401612db990614806565b60405180910390fd5b612dcb81612563565b15612e0b576040517f08c379a0000000000000000000000000000000000000000000000000000000008152600401612e0290614872565b60405180910390fd5b612e1760008383612601565b6001606860008473ffffffffffffffffffffffffffffffffffffffff1673ffffffffffffffffffffffffffffffffffffffff1681526020019081526020016000206000828254612e679190613f8b565b92505081905550816067600083815260200190815260200160002060006101000a81548173ffffffffffffffffffffffffffffffffffffffff021916908373ffffffffffffffffffffffffffffffffffffffff160217905550808273ffffffffffffffffffffffffffffffffffffffff16600073ffffffffffffffffffffffffffffffffffffffff167fddf252ad1be2c89b69c2b068fc378daa952ba7f163c4a11628f55a4df523b3ef60405160405180910390a4612f2860008383612715565b5050565b828054612f3890613951565b90600052602060002090601f016020900481019282612f5a5760008555612fa1565b82601f10612f7357805160ff1916838001178555612fa1565b82800160010185558215612fa1579182015b82811115612fa0578251825591602001919060010190612f85565b5b509050612fae9190612fb2565b5090565b5b80821115612fcb576000816000905550600101612fb3565b5090565b6000604051905090565b600080fd5b600080fd5b60007fffffffff0000000000000000000000000000000000000000000000000000000082169050919050565b61301881612fe3565b811461302357600080fd5b50565b6000813590506130358161300f565b92915050565b60006020828403121561305157613050612fd9565b5b600061305f84828501613026565b91505092915050565b60008115159050919050565b61307d81613068565b82525050565b60006020820190506130986000830184613074565b92915050565b600081519050919050565b600082825260208201905092915050565b60005b838110156130d85780820151818401526020810190506130bd565b838111156130e7576000848401525b50505050565b6000601f19601f8301169050919050565b60006131098261309e565b61311381856130a9565b93506131238185602086016130ba565b61312c816130ed565b840191505092915050565b6000602082019050818103600083015261315181846130fe565b905092915050565b6000819050919050565b61316c81613159565b811461317757600080fd5b50565b60008135905061318981613163565b92915050565b6000602082840312156131a5576131a4612fd9565b5b60006131b38482850161317a565b91505092915050565b600073ffffffffffffffffffffffffffffffffffffffff82169050919050565b60006131e7826131bc565b9050919050565b6131f7816131dc565b82525050565b600060208201905061321260008301846131ee565b92915050565b613221816131dc565b811461322c57600080fd5b50565b60008135905061323e81613218565b92915050565b6000806040838503121561325b5761325a612fd9565b5b60006132698582860161322f565b925050602061327a8582860161317a565b9150509250929050565b61328d81613159565b82525050565b60006020820190506132a86000830184613284565b92915050565b6000806000606084860312156132c7576132c6612fd9565b5b60006132d58682870161322f565b93505060206132e68682870161322f565b92505060406132f78682870161317a565b9150509250925092565b60006020828403121561331757613316612fd9565b5b60006133258482850161322f565b91505092915050565b600080fd5b600080fd5b7f4e487b7100000000000000000000000000000000000000000000000000000000600052604160045260246000fd5b613370826130ed565b810181811067ffffffffffffffff8211171561338f5761338e613338565b5b80604052505050565b60006133a2612fcf565b90506133ae8282613367565b919050565b600067ffffffffffffffff8211156133ce576133cd613338565b5b6133d7826130ed565b9050602081019050919050565b82818337600083830152505050565b6000613406613401846133b3565b613398565b90508281526020810184848401111561342257613421613333565b5b61342d8482856133e4565b509392505050565b600082601f83011261344a5761344961332e565b5b813561345a8482602086016133f3565b91505092915050565b60008060006060848603121561347c5761347b612fd9565b5b600061348a8682870161317a565b935050602061349b8682870161317a565b925050604084013567ffffffffffffffff8111156134bc576134bb612fde565b5b6134c886828701613435565b9150509250925092565b6134db81613068565b81146134e657600080fd5b50565b6000813590506134f8816134d2565b92915050565b6000806040838503121561351557613514612fd9565b5b60006135238582860161322f565b9250506020613534858286016134e9565b9150509250929050565b600067ffffffffffffffff82111561355957613558613338565b5b613562826130ed565b9050602081019050919050565b600061358261357d8461353e565b613398565b90508281526020810184848401111561359e5761359d613333565b5b6135a98482856133e4565b509392505050565b600082601f8301126135c6576135c561332e565b5b81356135d684826020860161356f565b91505092915050565b600080600080608085870312156135f9576135f8612fd9565b5b60006136078782880161322f565b94505060206136188782880161322f565b93505060406136298782880161317a565b925050606085013567ffffffffffffffff81111561364a57613649612fde565b5b613656878288016135b1565b91505092959194509250565b600061366d826131dc565b9050919050565b61367d81613662565b811461368857600080fd5b50565b60008135905061369a81613674565b92915050565b6000602082840312156136b6576136b5612fd9565b5b60006136c48482850161368b565b91505092915050565b600080604083850312156136e4576136e3612fd9565b5b60006136f28582860161322f565b92505060206137038582860161322f565b9150509250929050565b6000819050919050565b6137208161370d565b811461372b57600080fd5b50565b60008135905061373d81613717565b92915050565b600067ffffffffffffffff82111561375e5761375d613338565b5b602082029050602081019050919050565b600080fd5b600080fd5b600080fd5b60006040828403121561379457613793613774565b5b61379e6040613398565b9050600082013567ffffffffffffffff8111156137be576137bd613779565b5b6137ca84828501613435565b60008301525060206137de8482850161317a565b60208301525092915050565b60006137fd6137f884613743565b613398565b905080838252602082019050602084028301858111156138205761381f61376f565b5b835b8181101561386757803567ffffffffffffffff8111156138455761384461332e565b5b808601613852898261377e565b85526020850194505050602081019050613822565b5050509392505050565b600082601f8301126138865761388561332e565b5b81356138968482602086016137ea565b91505092915050565b600080600080608085870312156138b9576138b8612fd9565b5b60006138c78782880161317a565b94505060206138d88782880161317a565b93505060406138e98782880161372e565b925050606085013567ffffffffffffffff81111561390a57613909612fde565b5b61391687828801613871565b91505092959194509250565b7f4e487b7100000000000000000000000000000000000000000000000000000000600052602260045260246000fd5b6000600282049050600182168061396957607f821691505b6020821081141561397d5761397c613922565b5b50919050565b7f4552433732313a20617070726f76616c20746f2063757272656e74206f776e6560008201527f7200000000000000000000000000000000000000000000000000000000000000602082015250565b60006139df6021836130a9565b91506139ea82613983565b604082019050919050565b60006020820190508181036000830152613a0e816139d2565b9050919050565b7f4552433732313a20617070726f76652063616c6c6572206973206e6f7420746f60008201527f6b656e206f776e6572206e6f7220617070726f76656420666f7220616c6c0000602082015250565b6000613a71603e836130a9565b9150613a7c82613a15565b604082019050919050565b60006020820190508181036000830152613aa081613a64565b9050919050565b7f4552433732313a2063616c6c6572206973206e6f7420746f6b656e206f776e6560008201527f72206e6f7220617070726f766564000000000000000000000000000000000000602082015250565b6000613b03602e836130a9565b9150613b0e82613aa7565b604082019050919050565b60006020820190508181036000830152613b3281613af6565b9050919050565b7f455243373231456e756d657261626c653a206f776e657220696e646578206f7560008201527f74206f6620626f756e6473000000000000000000000000000000000000000000602082015250565b6000613b95602b836130a9565b9150613ba082613b39565b604082019050919050565b60006020820190508181036000830152613bc481613b88565b9050919050565b7f455243373231456e756d657261626c653a20676c6f62616c20696e646578206f60008201527f7574206f6620626f756e64730000000000000000000000000000000000000000602082015250565b6000613c27602c836130a9565b9150613c3282613bcb565b604082019050919050565b60006020820190508181036000830152613c5681613c1a565b9050919050565b7f4e487b7100000000000000000000000000000000000000000000000000000000600052603260045260246000fd5b7f4552433732313a20696e76616c696420746f6b656e2049440000000000000000600082015250565b6000613cc26018836130a9565b9150613ccd82613c8c565b602082019050919050565b60006020820190508181036000830152613cf181613cb5565b9050919050565b7f4552433732313a2061646472657373207a65726f206973206e6f74206120766160008201527f6c6964206f776e65720000000000000000000000000000000000000000000000602082015250565b6000613d546029836130a9565b9150613d5f82613cf8565b604082019050919050565b60006020820190508181036000830152613d8381613d47565b9050919050565b7f696e76616c696420736563726574207068726173650000000000000000000000600082015250565b6000613dc06015836130a9565b9150613dcb82613d8a565b602082019050919050565b60006020820190508181036000830152613def81613db3565b9050919050565b7f72656d61696e696e6720636f756e74206973207a65726f000000000000000000600082015250565b6000613e2c6017836130a9565b9150613e3782613df6565b602082019050919050565b60006020820190508181036000830152613e5b81613e1f565b9050919050565b7f616c7265616479206d696e746564000000000000000000000000000000000000600082015250565b6000613e98600e836130a9565b9150613ea382613e62565b602082019050919050565b60006020820190508181036000830152613ec781613e8b565b9050919050565b600081905092915050565b50565b6000613ee9600083613ece565b9150613ef482613ed9565b600082019050919050565b6000613f0a82613edc565b9150819050919050565b6000613f1f8261309e565b613f298185613ece565b9350613f398185602086016130ba565b80840191505092915050565b6000613f518284613f14565b915081905092915050565b7f4e487b7100000000000000000000000000000000000000000000000000000000600052601160045260246000fd5b6000613f9682613159565b9150613fa183613159565b9250827fffffffffffffffffffffffffffffffffffffffffffffffffffffffffffffffff03821115613fd657613fd5613f5c565b5b828201905092915050565b6000613fec82613159565b9150613ff783613159565b92508282101561400a57614009613f5c565b5b828203905092915050565b7f6576656e74206d616e61676572206164647265737320697320626c616e6b0000600082015250565b600061404b601e836130a9565b915061405682614015565b602082019050919050565b6000602082019050818103600083015261407a8161403e565b9050919050565b7f496e697469616c697a61626c653a20636f6e747261637420697320616c72656160008201527f647920696e697469616c697a6564000000000000000000000000000000000000602082015250565b60006140dd602e836130a9565b91506140e882614081565b604082019050919050565b6000602082019050818103600083015261410c816140d0565b9050919050565b6000819050919050565b600060ff82169050919050565b6000819050919050565b600061414f61414a61414584614113565b61412a565b61411d565b9050919050565b61415f81614134565b82525050565b600060208201905061417a6000830184614156565b92915050565b7f756e617574686f72697a65640000000000000000000000000000000000000000600082015250565b60006141b6600c836130a9565b91506141c182614180565b602082019050919050565b600060208201905081810360008301526141e5816141a9565b9050919050565b60006141f782613159565b91507fffffffffffffffffffffffffffffffffffffffffffffffffffffffffffffffff82141561422a57614229613f5c565b5b600182019050919050565b7f4f776e61626c653a206e6577206f776e657220697320746865207a65726f206160008201527f6464726573730000000000000000000000000000000000000000000000000000602082015250565b60006142916026836130a9565b915061429c82614235565b604082019050919050565b600060208201905081810360008301526142c081614284565b9050919050565b7f4552433732313a207472616e736665722066726f6d20696e636f72726563742060008201527f6f776e6572000000000000000000000000000000000000000000000000000000602082015250565b60006143236025836130a9565b915061432e826142c7565b604082019050919050565b6000602082019050818103600083015261435281614316565b9050919050565b7f4552433732313a207472616e7366657220746f20746865207a65726f2061646460008201527f7265737300000000000000000000000000000000000000000000000000000000602082015250565b60006143b56024836130a9565b91506143c082614359565b604082019050919050565b600060208201905081810360008301526143e4816143a8565b9050919050565b7f4f776e61626c653a2063616c6c6572206973206e6f7420746865206f776e6572600082015250565b60006144216020836130a9565b915061442c826143eb565b602082019050919050565b6000602082019050818103600083015261445081614414565b9050919050565b60008160601b9050919050565b600061446f82614457565b9050919050565b600061448182614464565b9050919050565b614499614494826131dc565b614476565b82525050565b6000819050919050565b6144ba6144b582613159565b61449f565b82525050565b60006144cc8285614488565b6014820191506144dc82846144a9565b6020820191508190509392505050565b60006144f882856144a9565b60208201915061450882846144a9565b6020820191508190509392505050565b7f4552433732313a20617070726f766520746f2063616c6c657200000000000000600082015250565b600061454e6019836130a9565b915061455982614518565b602082019050919050565b6000602082019050818103600083015261457d81614541565b9050919050565b7f4552433732313a207472616e7366657220746f206e6f6e20455243373231526560008201527f63656976657220696d706c656d656e7465720000000000000000000000000000602082015250565b60006145e06032836130a9565b91506145eb82614584565b604082019050919050565b6000602082019050818103600083015261460f816145d3565b9050919050565b7f496e697469616c697a61626c653a20636f6e7472616374206973206e6f74206960008201527f6e697469616c697a696e67000000000000000000000000000000000000000000602082015250565b6000614672602b836130a9565b915061467d82614616565b604082019050919050565b600060208201905081810360008301526146a181614665565b9050919050565b600081519050919050565b600082825260208201905092915050565b60006146cf826146a8565b6146d981856146b3565b93506146e98185602086016130ba565b6146f2816130ed565b840191505092915050565b600060808201905061471260008301876131ee565b61471f60208301866131ee565b61472c6040830185613284565b818103606083015261473e81846146c4565b905095945050505050565b6000815190506147588161300f565b92915050565b60006020828403121561477457614773612fd9565b5b600061478284828501614749565b91505092915050565b7f4e487b7100000000000000000000000000000000000000000000000000000000600052603160045260246000fd5b7f4552433732313a206d696e7420746f20746865207a65726f2061646472657373600082015250565b60006147f06020836130a9565b91506147fb826147ba565b602082019050919050565b6000602082019050818103600083015261481f816147e3565b9050919050565b7f4552433732313a20746f6b656e20616c7265616479206d696e74656400000000600082015250565b600061485c601c836130a9565b915061486782614826565b602082019050919050565b6000602082019050818103600083015261488b8161484f565b905091905056fea264697066735822122092e1c4f07bc7bc24a2901d328dc1de30d706459aa8217eade0d57677325d8cbc64736f6c63430008090033",
  "linkReferences": {},
  "deployedLinkReferences": {}
}