{
  "_format": "hh-sol-artifact-1",
  "contractName": "MintNFTV3",
  "sourceName": "contracts/MINTNFTV3.sol",
  "abi": [
    {
      "anonymous": false,
      "inputs": [
        {
          "indexed": true,
          "internalType": "address",
          "name": "owner",
          "type": "address"
        },
        {
          "indexed": true,
          "internalType": "address",
          "name": "approved",
          "type": "address"
        },
        {
          "indexed": true,
          "internalType": "uint256",
          "name": "tokenId",
          "type": "uint256"
        }
      ],
      "name": "Approval",
      "type": "event"
    },
    {
      "anonymous": false,
      "inputs": [
        {
          "indexed": true,
          "internalType": "address",
          "name": "owner",
          "type": "address"
        },
        {
          "indexed": true,
          "internalType": "address",
          "name": "operator",
          "type": "address"
        },
        {
          "indexed": false,
          "internalType": "bool",
          "name": "approved",
          "type": "bool"
        }
      ],
      "name": "ApprovalForAll",
      "type": "event"
    },
    {
      "anonymous": false,
      "inputs": [
        {
          "indexed": false,
          "internalType": "uint8",
          "name": "version",
          "type": "uint8"
        }
      ],
      "name": "Initialized",
      "type": "event"
    },
    {
      "anonymous": false,
      "inputs": [
        {
          "indexed": true,
          "internalType": "address",
          "name": "previousOwner",
          "type": "address"
        },
        {
          "indexed": true,
          "internalType": "address",
          "name": "newOwner",
          "type": "address"
        }
      ],
      "name": "OwnershipTransferred",
      "type": "event"
    },
    {
      "anonymous": false,
      "inputs": [
        {
          "indexed": true,
          "internalType": "address",
          "name": "from",
          "type": "address"
        },
        {
          "indexed": true,
          "internalType": "address",
          "name": "to",
          "type": "address"
        },
        {
          "indexed": true,
          "internalType": "uint256",
          "name": "tokenId",
          "type": "uint256"
        }
      ],
      "name": "Transfer",
      "type": "event"
    },
    {
      "inputs": [
        {
          "internalType": "address",
          "name": "to",
          "type": "address"
        },
        {
          "internalType": "uint256",
          "name": "tokenId",
          "type": "uint256"
        }
      ],
      "name": "approve",
      "outputs": [],
      "stateMutability": "nonpayable",
      "type": "function"
    },
    {
      "inputs": [
        {
          "internalType": "address",
          "name": "owner",
          "type": "address"
        }
      ],
      "name": "balanceOf",
      "outputs": [
        {
          "internalType": "uint256",
          "name": "",
          "type": "uint256"
        }
      ],
      "stateMutability": "view",
      "type": "function"
    },
    {
      "inputs": [
        {
          "internalType": "uint256",
          "name": "tokenId",
          "type": "uint256"
        }
      ],
      "name": "getApproved",
      "outputs": [
        {
          "internalType": "address",
          "name": "",
          "type": "address"
        }
      ],
      "stateMutability": "view",
      "type": "function"
    },
    {
      "inputs": [
        {
          "internalType": "uint256",
          "name": "_groupId",
          "type": "uint256"
        }
      ],
      "name": "getGroupNFTAttributes",
      "outputs": [
        {
          "components": [
            {
              "internalType": "string",
              "name": "name",
              "type": "string"
            },
            {
              "internalType": "string",
              "name": "image",
              "type": "string"
            },
            {
              "internalType": "string",
              "name": "description",
              "type": "string"
            },
            {
              "internalType": "uint256",
              "name": "groupId",
              "type": "uint256"
            },
            {
              "internalType": "uint256",
              "name": "eventId",
              "type": "uint256"
            },
            {
              "internalType": "uint256",
              "name": "requiredParticipateCount",
              "type": "uint256"
            }
          ],
          "internalType": "struct MintNFT.ParticipateNFTAttributes[]",
          "name": "",
          "type": "tuple[]"
        }
      ],
      "stateMutability": "view",
      "type": "function"
    },
    {
      "inputs": [],
      "name": "getOwnedNFTs",
      "outputs": [
        {
          "components": [
            {
              "internalType": "string",
              "name": "name",
              "type": "string"
            },
            {
              "internalType": "string",
              "name": "image",
              "type": "string"
            },
            {
              "internalType": "string",
              "name": "description",
              "type": "string"
            },
            {
              "internalType": "uint256",
              "name": "groupId",
              "type": "uint256"
            },
            {
              "internalType": "uint256",
              "name": "eventId",
              "type": "uint256"
            },
            {
              "internalType": "uint256",
              "name": "requiredParticipateCount",
              "type": "uint256"
            }
          ],
          "internalType": "struct MintNFT.ParticipateNFTAttributes[]",
          "name": "",
          "type": "tuple[]"
        }
      ],
      "stateMutability": "view",
      "type": "function"
    },
    {
      "inputs": [],
      "name": "helloV2",
      "outputs": [
        {
          "internalType": "string",
          "name": "",
          "type": "string"
        }
      ],
      "stateMutability": "view",
      "type": "function"
    },
    {
      "inputs": [],
      "name": "helloV3",
      "outputs": [
        {
          "internalType": "string",
          "name": "",
          "type": "string"
        }
      ],
      "stateMutability": "view",
      "type": "function"
    },
    {
      "inputs": [],
      "name": "initialize",
      "outputs": [],
      "stateMutability": "nonpayable",
      "type": "function"
    },
    {
      "inputs": [],
      "name": "initializeV2",
      "outputs": [],
      "stateMutability": "nonpayable",
      "type": "function"
    },
    {
      "inputs": [],
      "name": "initializeV3",
      "outputs": [],
      "stateMutability": "nonpayable",
      "type": "function"
    },
    {
      "inputs": [
        {
          "internalType": "address",
          "name": "owner",
          "type": "address"
        },
        {
          "internalType": "address",
          "name": "operator",
          "type": "address"
        }
      ],
      "name": "isApprovedForAll",
      "outputs": [
        {
          "internalType": "bool",
          "name": "",
          "type": "bool"
        }
      ],
      "stateMutability": "view",
      "type": "function"
    },
    {
      "inputs": [
        {
          "internalType": "uint256",
          "name": "_groupId",
          "type": "uint256"
        },
        {
          "internalType": "uint256",
          "name": "_eventId",
          "type": "uint256"
        },
        {
          "internalType": "string",
          "name": "_secretPhrase",
          "type": "string"
        }
      ],
      "name": "mintParticipateNFT",
      "outputs": [
        {
          "internalType": "string",
          "name": "",
          "type": "string"
        }
      ],
      "stateMutability": "nonpayable",
      "type": "function"
    },
    {
      "inputs": [],
      "name": "name",
      "outputs": [
        {
          "internalType": "string",
          "name": "",
          "type": "string"
        }
      ],
      "stateMutability": "view",
      "type": "function"
    },
    {
      "inputs": [],
      "name": "owner",
      "outputs": [
        {
          "internalType": "address",
          "name": "",
          "type": "address"
        }
      ],
      "stateMutability": "view",
      "type": "function"
    },
    {
      "inputs": [
        {
          "internalType": "uint256",
          "name": "tokenId",
          "type": "uint256"
        }
      ],
      "name": "ownerOf",
      "outputs": [
        {
          "internalType": "address",
          "name": "",
          "type": "address"
        }
      ],
      "stateMutability": "view",
      "type": "function"
    },
    {
      "inputs": [
        {
          "internalType": "uint256",
          "name": "groupId",
          "type": "uint256"
        },
        {
          "components": [
            {
              "internalType": "string",
              "name": "name",
              "type": "string"
            },
            {
              "internalType": "string",
              "name": "image",
              "type": "string"
            },
            {
              "internalType": "string",
              "name": "description",
              "type": "string"
            },
            {
              "internalType": "uint256",
              "name": "groupId",
              "type": "uint256"
            },
            {
              "internalType": "uint256",
              "name": "eventId",
              "type": "uint256"
            },
            {
              "internalType": "uint256",
              "name": "requiredParticipateCount",
              "type": "uint256"
            }
          ],
          "internalType": "struct MintNFT.ParticipateNFTAttributes[]",
          "name": "attributes",
          "type": "tuple[]"
        }
      ],
      "name": "pushGroupNFTAttributes",
      "outputs": [],
      "stateMutability": "nonpayable",
      "type": "function"
    },
    {
      "inputs": [],
      "name": "renounceOwnership",
      "outputs": [],
      "stateMutability": "nonpayable",
      "type": "function"
    },
    {
      "inputs": [],
      "name": "returnV1StateFromV2",
      "outputs": [
        {
          "internalType": "address",
          "name": "",
          "type": "address"
        }
      ],
      "stateMutability": "view",
      "type": "function"
    },
    {
      "inputs": [],
      "name": "returnV1StateFromV3",
      "outputs": [
        {
          "internalType": "address",
          "name": "",
          "type": "address"
        }
      ],
      "stateMutability": "view",
      "type": "function"
    },
    {
      "inputs": [],
      "name": "returnV2StateFromv3",
      "outputs": [
        {
          "internalType": "string",
          "name": "",
          "type": "string"
        }
      ],
      "stateMutability": "view",
      "type": "function"
    },
    {
      "inputs": [
        {
          "internalType": "address",
          "name": "from",
          "type": "address"
        },
        {
          "internalType": "address",
          "name": "to",
          "type": "address"
        },
        {
          "internalType": "uint256",
          "name": "tokenId",
          "type": "uint256"
        }
      ],
      "name": "safeTransferFrom",
      "outputs": [],
      "stateMutability": "nonpayable",
      "type": "function"
    },
    {
      "inputs": [
        {
          "internalType": "address",
          "name": "from",
          "type": "address"
        },
        {
          "internalType": "address",
          "name": "to",
          "type": "address"
        },
        {
          "internalType": "uint256",
          "name": "tokenId",
          "type": "uint256"
        },
        {
          "internalType": "bytes",
          "name": "data",
          "type": "bytes"
        }
      ],
      "name": "safeTransferFrom",
      "outputs": [],
      "stateMutability": "nonpayable",
      "type": "function"
    },
    {
      "inputs": [
        {
          "internalType": "address",
          "name": "operator",
          "type": "address"
        },
        {
          "internalType": "bool",
          "name": "approved",
          "type": "bool"
        }
      ],
      "name": "setApprovalForAll",
      "outputs": [],
      "stateMutability": "nonpayable",
      "type": "function"
    },
    {
      "inputs": [
        {
          "internalType": "address",
          "name": "_eventManagerAddr",
          "type": "address"
        }
      ],
      "name": "setEventManagerAddr",
      "outputs": [],
      "stateMutability": "nonpayable",
      "type": "function"
    },
    {
      "inputs": [
        {
          "internalType": "bytes4",
          "name": "interfaceId",
          "type": "bytes4"
        }
      ],
      "name": "supportsInterface",
      "outputs": [
        {
          "internalType": "bool",
          "name": "",
          "type": "bool"
        }
      ],
      "stateMutability": "view",
      "type": "function"
    },
    {
      "inputs": [],
      "name": "symbol",
      "outputs": [
        {
          "internalType": "string",
          "name": "",
          "type": "string"
        }
      ],
      "stateMutability": "view",
      "type": "function"
    },
    {
      "inputs": [
        {
          "internalType": "uint256",
          "name": "index",
          "type": "uint256"
        }
      ],
      "name": "tokenByIndex",
      "outputs": [
        {
          "internalType": "uint256",
          "name": "",
          "type": "uint256"
        }
      ],
      "stateMutability": "view",
      "type": "function"
    },
    {
      "inputs": [
        {
          "internalType": "address",
          "name": "owner",
          "type": "address"
        },
        {
          "internalType": "uint256",
          "name": "index",
          "type": "uint256"
        }
      ],
      "name": "tokenOfOwnerByIndex",
      "outputs": [
        {
          "internalType": "uint256",
          "name": "",
          "type": "uint256"
        }
      ],
      "stateMutability": "view",
      "type": "function"
    },
    {
      "inputs": [
        {
          "internalType": "uint256",
          "name": "_tokenId",
          "type": "uint256"
        }
      ],
      "name": "tokenURI",
      "outputs": [
        {
          "internalType": "string",
          "name": "",
          "type": "string"
        }
      ],
      "stateMutability": "view",
      "type": "function"
    },
    {
      "inputs": [],
      "name": "totalSupply",
      "outputs": [
        {
          "internalType": "uint256",
          "name": "",
          "type": "uint256"
        }
      ],
      "stateMutability": "view",
      "type": "function"
    },
    {
      "inputs": [
        {
          "internalType": "address",
          "name": "from",
          "type": "address"
        },
        {
          "internalType": "address",
          "name": "to",
          "type": "address"
        },
        {
          "internalType": "uint256",
          "name": "tokenId",
          "type": "uint256"
        }
      ],
      "name": "transferFrom",
      "outputs": [],
      "stateMutability": "nonpayable",
      "type": "function"
    },
    {
      "inputs": [
        {
          "internalType": "address",
          "name": "newOwner",
          "type": "address"
        }
      ],
      "name": "transferOwnership",
      "outputs": [],
      "stateMutability": "nonpayable",
      "type": "function"
    }
  ],
  "bytecode": "0x608060405234801561001057600080fd5b50615dce80620000216000396000f3fe608060405234801561001057600080fd5b50600436106101f05760003560e01c806370a082311161010f578063a22cb465116100a2578063d9bfb10c11610071578063d9bfb10c14610571578063db9544231461058d578063e985e9c5146105bd578063f2fde38b146105ed576101f0565b8063a22cb465146104eb578063adcdbfb914610507578063b88d4fde14610525578063c87b56dd14610541576101f0565b80638da5cb5b116100de5780638da5cb5b146104755780639041e3f41461049357806395d89b41146104af5780639a3a3bae146104cd576101f0565b806370a0823114610401578063715018a61461043157806372746a8d1461043b5780638129fc1c1461046b576101f0565b806323b872dd116101875780634c0eb7d9116101565780634c0eb7d9146103795780634f6ccce7146103975780635cd8a76b146103c75780636352211e146103d1576101f0565b806323b872dd146103075780632f745c591461032357806338e454b11461035357806342842e0e1461035d576101f0565b80630f1fa2c5116101c35780630f1fa2c51461028f57806316d51d62146102ad57806318160ddd146102cb57806318c113f3146102e9576101f0565b806301ffc9a7146101f557806306fdde0314610225578063081812fc14610243578063095ea7b314610273575b600080fd5b61020f600480360381019061020a9190614686565b610609565b60405161021c9190614ef2565b60405180910390f35b61022d610683565b60405161023a9190614f28565b60405180910390f35b61025d60048036038101906102589190614719565b610715565b60405161026a9190614e69565b60405180910390f35b61028d60048036038101906102889190614621565b61075b565b005b610297610873565b6040516102a49190614e69565b60405180910390f35b6102b561089d565b6040516102c29190614f28565b60405180910390f35b6102d361094a565b6040516102e091906151fa565b60405180910390f35b6102f1610957565b6040516102fe9190614f28565b60405180910390f35b610321600480360381019061031c919061451b565b610a03565b005b61033d60048036038101906103389190614621565b610a63565b60405161034a91906151fa565b60405180910390f35b61035b610b08565b005b6103776004803603810190610372919061451b565b610cc2565b005b610381610ce2565b60405161038e9190614ed0565b60405180910390f35b6103b160048036038101906103ac9190614719565b610cff565b6040516103be91906151fa565b60405180910390f35b6103cf610d96565b005b6103eb60048036038101906103e69190614719565b610f4e565b6040516103f89190614e69565b60405180910390f35b61041b600480360381019061041691906144b6565b611000565b60405161042891906151fa565b60405180910390f35b6104396110b8565b005b61045560048036038101906104509190614796565b6110cc565b6040516104629190614f28565b60405180910390f35b6104736117df565b005b61047d611991565b60405161048a9190614e69565b60405180910390f35b6104ad60048036038101906104a891906144b6565b6119bb565b005b6104b7611a77565b6040516104c49190614f28565b60405180910390f35b6104d5611b09565b6040516104e29190614e69565b60405180910390f35b610505600480360381019061050091906145e5565b611b33565b005b61050f611b49565b60405161051c9190614f28565b60405180910390f35b61053f600480360381019061053a919061456a565b611bdc565b005b61055b60048036038101906105569190614719565b611c3e565b6040516105689190614f28565b60405180910390f35b61058b60048036038101906105869190614742565b611eab565b005b6105a760048036038101906105a29190614719565b612147565b6040516105b49190614ed0565b60405180910390f35b6105d760048036038101906105d291906144df565b61238d565b6040516105e49190614ef2565b60405180910390f35b610607600480360381019061060291906144b6565b612421565b005b60007f780e9d63000000000000000000000000000000000000000000000000000000007bffffffffffffffffffffffffffffffffffffffffffffffffffffffff1916827bffffffffffffffffffffffffffffffffffffffffffffffffffffffff1916148061067c575061067b826124a5565b5b9050919050565b60606065805461069290615549565b80601f01602080910402602001604051908101604052809291908181526020018280546106be90615549565b801561070b5780601f106106e05761010080835404028352916020019161070b565b820191906000526020600020905b8154815290600101906020018083116106ee57829003601f168201915b5050505050905090565b600061072082612587565b6069600083815260200190815260200160002060009054906101000a900473ffffffffffffffffffffffffffffffffffffffff169050919050565b600061076682610f4e565b90508073ffffffffffffffffffffffffffffffffffffffff168373ffffffffffffffffffffffffffffffffffffffff1614156107d7576040517f08c379a00000000000000000000000000000000000000000000000000000000081526004016107ce9061517a565b60405180910390fd5b8073ffffffffffffffffffffffffffffffffffffffff166107f66125d2565b73ffffffffffffffffffffffffffffffffffffffff16148061082557506108248161081f6125d2565b61238d565b5b610864576040517f08c379a000000000000000000000000000000000000000000000000000000000815260040161085b906150ba565b60405180910390fd5b61086e83836125e1565b505050565b600060fc60009054906101000a900473ffffffffffffffffffffffffffffffffffffffff16905090565b606061010160009054906101000a900460ff166108b957600080fd5b61010280546108c790615549565b80601f01602080910402602001604051908101604052809291908181526020018280546108f390615549565b80156109405780601f1061091557610100808354040283529160200191610940565b820191906000526020600020905b81548152906001019060200180831161092357829003601f168201915b5050505050905090565b6000609980549050905090565b606060ff60009054906101000a900460ff1661097257600080fd5b610100805461098090615549565b80601f01602080910402602001604051908101604052809291908181526020018280546109ac90615549565b80156109f95780601f106109ce576101008083540402835291602001916109f9565b820191906000526020600020905b8154815290600101906020018083116109dc57829003601f168201915b5050505050905090565b610a14610a0e6125d2565b8261269a565b610a53576040517f08c379a0000000000000000000000000000000000000000000000000000000008152600401610a4a906151da565b60405180910390fd5b610a5e83838361272f565b505050565b6000610a6e83611000565b8210610aaf576040517f08c379a0000000000000000000000000000000000000000000000000000000008152600401610aa690614f7a565b60405180910390fd5b609760008473ffffffffffffffffffffffffffffffffffffffff1673ffffffffffffffffffffffffffffffffffffffff168152602001908152602001600020600083815260200190815260200160002054905092915050565b60008060019054906101000a900460ff16159050808015610b395750600160008054906101000a900460ff1660ff16105b80610b665750610b4830612996565b158015610b655750600160008054906101000a900460ff1660ff16145b5b610ba5576040517f08c379a0000000000000000000000000000000000000000000000000000000008152600401610b9c9061509a565b60405180910390fd5b60016000806101000a81548160ff021916908360ff1602179055508015610be2576001600060016101000a81548160ff0219169083151502179055505b61010160009054906101000a900460ff1615610bfd57600080fd5b600161010160006101000a81548160ff0219169083151502179055506040518060400160405280601081526020017f48656c6c6f2c20563220576f726c6421000000000000000000000000000000008152506101029080519060200190610c65929190613f2b565b508015610cbf5760008060016101000a81548160ff0219169083151502179055507f7f26b83ff96e1f2b6a682f133852f6798a09c465da95921460cefb38474024986001604051610cb69190614f0d565b60405180910390a15b50565b610cdd83838360405180602001604052806000815250611bdc565b505050565b60606000610cf6610cf16125d2565b6129b9565b90508091505090565b6000610d0961094a565b8210610d4a576040517f08c379a0000000000000000000000000000000000000000000000000000000008152600401610d419061519a565b60405180910390fd5b60998281548110610d84577f4e487b7100000000000000000000000000000000000000000000000000000000600052603260045260246000fd5b90600052602060002001549050919050565b60008060019054906101000a900460ff16159050808015610dc75750600160008054906101000a900460ff1660ff16105b80610df45750610dd630612996565b158015610df35750600160008054906101000a900460ff1660ff16145b5b610e33576040517f08c379a0000000000000000000000000000000000000000000000000000000008152600401610e2a9061509a565b60405180910390fd5b60016000806101000a81548160ff021916908360ff1602179055508015610e70576001600060016101000a81548160ff0219169083151502179055505b60ff60009054906101000a900460ff1615610e8a57600080fd5b600160ff60006101000a81548160ff0219169083151502179055506040518060400160405280601081526020017f48656c6c6f2c20563220576f726c6421000000000000000000000000000000008152506101009080519060200190610ef1929190613f2b565b508015610f4b5760008060016101000a81548160ff0219169083151502179055507f7f26b83ff96e1f2b6a682f133852f6798a09c465da95921460cefb38474024986001604051610f429190614f0d565b60405180910390a15b50565b6000806067600084815260200190815260200160002060009054906101000a900473ffffffffffffffffffffffffffffffffffffffff169050600073ffffffffffffffffffffffffffffffffffffffff168173ffffffffffffffffffffffffffffffffffffffff161415610ff7576040517f08c379a0000000000000000000000000000000000000000000000000000000008152600401610fee9061515a565b60405180910390fd5b80915050919050565b60008073ffffffffffffffffffffffffffffffffffffffff168273ffffffffffffffffffffffffffffffffffffffff161415611071576040517f08c379a00000000000000000000000000000000000000000000000000000000081526004016110689061505a565b60405180910390fd5b606860008373ffffffffffffffffffffffffffffffffffffffff1673ffffffffffffffffffffffffffffffffffffffff168152602001908152602001600020549050919050565b6110c0612dcd565b6110ca6000612e4b565b565b6060600060fe6000868152602001908152602001600020805480602002602001604051908101604052809291908181526020016000905b8282101561130957838290600052602060002090600602016040518060c001604052908160008201805461113690615549565b80601f016020809104026020016040519081016040528092919081815260200182805461116290615549565b80156111af5780601f10611184576101008083540402835291602001916111af565b820191906000526020600020905b81548152906001019060200180831161119257829003601f168201915b505050505081526020016001820180546111c890615549565b80601f01602080910402602001604051908101604052809291908181526020018280546111f490615549565b80156112415780601f1061121657610100808354040283529160200191611241565b820191906000526020600020905b81548152906001019060200180831161122457829003601f168201915b5050505050815260200160028201805461125a90615549565b80601f016020809104026020016040519081016040528092919081815260200182805461128690615549565b80156112d35780601f106112a8576101008083540402835291602001916112d3565b820191906000526020600020905b8154815290600101906020018083116112b657829003601f168201915b50505050508152602001600382015481526020016004820154815260200160058201548152505081526020019060010190611103565b505050509050600060fc60009054906101000a900473ffffffffffffffffffffffffffffffffffffffff1690508073ffffffffffffffffffffffffffffffffffffffff1663e37c24fe85876040518363ffffffff1660e01b8152600401611371929190614f4a565b602060405180830381600087803b15801561138b57600080fd5b505af115801561139f573d6000803e3d6000fd5b505050506040513d601f19601f820116820180604052508101906113c3919061465d565b611402576040517f08c379a00000000000000000000000000000000000000000000000000000000081526004016113f99061511a565b60405180910390fd5b60008173ffffffffffffffffffffffffffffffffffffffff1663b98079bc876040518263ffffffff1660e01b815260040161143d91906151fa565b60006040518083038186803b15801561145557600080fd5b505afa158015611469573d6000803e3d6000fd5b505050506040513d6000823e3d601f19601f8201168201806040525081019061149291906146d8565b905060006114a66114a16125d2565b6129b9565b90506000600190506000805b83518110156115545760008482815181106114f6577f4e487b7100000000000000000000000000000000000000000000000000000000600052603260045260246000fd5b602002602001015190508b816060015114801561151657508a8160800151145b15611525576000935050611554565b8b8160600151141561154057828061153c906155ac565b9350505b50808061154c906155ac565b9150506114b2565b5081611595576040517f08c379a000000000000000000000000000000000000000000000000000000000815260040161158c9061513a565b60405180910390fd5b600061159f613fb1565b60005b88518110156116f65760008982815181106115e6577f4e487b7100000000000000000000000000000000000000000000000000000000600052603260045260246000fd5b602002602001015190508d8160600181815250508c8160800181815250508760400151816000018190525060008160a001511415611622578092505b848160a0015114156116e2578060fd600061163d60fb612f11565b81526020019081526020016000206000820151816000019080519060200190611667929190613f2b565b506020820151816001019080519060200190611684929190613f2b565b5060408201518160020190805190602001906116a1929190613f2b565b50606082015181600301556080820151816004015560a082015181600501559050506116dd6116ce6125d2565b6116d860fb612f11565b612f1f565b600193505b5080806116ee906155ac565b9150506115a2565b50816117ac578060fd600061170b60fb612f11565b81526020019081526020016000206000820151816000019080519060200190611735929190613f2b565b506020820151816001019080519060200190611752929190613f2b565b50604082015181600201908051906020019061176f929190613f2b565b50606082015181600301556080820151816004015560a082015181600501559050506117ab61179c6125d2565b6117a660fb612f11565b612f1f565b5b60006117c06117bb60fb612f11565b611c3e565b90506117cc60fb612f3d565b8099505050505050505050509392505050565b60008060019054906101000a900460ff161590508080156118105750600160008054906101000a900460ff1660ff16105b8061183d575061181f30612996565b15801561183c5750600160008054906101000a900460ff1660ff16145b5b61187c576040517f08c379a00000000000000000000000000000000000000000000000000000000081526004016118739061509a565b60405180910390fd5b60016000806101000a81548160ff021916908360ff16021790555080156118b9576001600060016101000a81548160ff0219169083151502179055505b61192d6040518060400160405280600981526020017f4d696e7452616c6c7900000000000000000000000000000000000000000000008152506040518060400160405280600281526020017f4d52000000000000000000000000000000000000000000000000000000000000815250612f53565b611935612fb0565b801561198e5760008060016101000a81548160ff0219169083151502179055507f7f26b83ff96e1f2b6a682f133852f6798a09c465da95921460cefb384740249860016040516119859190614f0d565b60405180910390a15b50565b600060c960009054906101000a900473ffffffffffffffffffffffffffffffffffffffff16905090565b6119c3612dcd565b600073ffffffffffffffffffffffffffffffffffffffff168173ffffffffffffffffffffffffffffffffffffffff161415611a33576040517f08c379a0000000000000000000000000000000000000000000000000000000008152600401611a2a9061507a565b60405180910390fd5b8060fc60006101000a81548173ffffffffffffffffffffffffffffffffffffffff021916908373ffffffffffffffffffffffffffffffffffffffff16021790555050565b606060668054611a8690615549565b80601f0160208091040260200160405190810160405280929190818152602001828054611ab290615549565b8015611aff5780601f10611ad457610100808354040283529160200191611aff565b820191906000526020600020905b815481529060010190602001808311611ae257829003601f168201915b5050505050905090565b600060fc60009054906101000a900473ffffffffffffffffffffffffffffffffffffffff16905090565b611b45611b3e6125d2565b8383613009565b5050565b60606101008054611b5990615549565b80601f0160208091040260200160405190810160405280929190818152602001828054611b8590615549565b8015611bd25780601f10611ba757610100808354040283529160200191611bd2565b820191906000526020600020905b815481529060010190602001808311611bb557829003601f168201915b5050505050905090565b611bed611be76125d2565b8361269a565b611c2c576040517f08c379a0000000000000000000000000000000000000000000000000000000008152600401611c23906151da565b60405180910390fd5b611c3884848484613176565b50505050565b6060600060fd60008481526020019081526020016000206040518060c0016040529081600082018054611c7090615549565b80601f0160208091040260200160405190810160405280929190818152602001828054611c9c90615549565b8015611ce95780601f10611cbe57610100808354040283529160200191611ce9565b820191906000526020600020905b815481529060010190602001808311611ccc57829003601f168201915b50505050508152602001600182018054611d0290615549565b80601f0160208091040260200160405190810160405280929190818152602001828054611d2e90615549565b8015611d7b5780601f10611d5057610100808354040283529160200191611d7b565b820191906000526020600020905b815481529060010190602001808311611d5e57829003601f168201915b50505050508152602001600282018054611d9490615549565b80601f0160208091040260200160405190810160405280929190818152602001828054611dc090615549565b8015611e0d5780601f10611de257610100808354040283529160200191611e0d565b820191906000526020600020905b815481529060010190602001808311611df057829003601f168201915b50505050508152602001600382015481526020016004820154815260200160058201548152505090506000611e7a826000015183604001518460200151611e53886131d2565b604051602001611e669493929190614dd2565b60405160208183030381529060405261337f565b9050600081604051602001611e8f9190614e47565b6040516020818303038152906040529050809350505050919050565b60005b81518110156121425760fe60008481526020019081526020016000206040518060c00160405280848481518110611f0e577f4e487b7100000000000000000000000000000000000000000000000000000000600052603260045260246000fd5b6020026020010151600001518152602001848481518110611f58577f4e487b7100000000000000000000000000000000000000000000000000000000600052603260045260246000fd5b6020026020010151602001518152602001848481518110611fa2577f4e487b7100000000000000000000000000000000000000000000000000000000600052603260045260246000fd5b6020026020010151604001518152602001848481518110611fec577f4e487b7100000000000000000000000000000000000000000000000000000000600052603260045260246000fd5b6020026020010151606001518152602001848481518110612036577f4e487b7100000000000000000000000000000000000000000000000000000000600052603260045260246000fd5b6020026020010151608001518152602001848481518110612080577f4e487b7100000000000000000000000000000000000000000000000000000000600052603260045260246000fd5b602002602001015160a00151815250908060018154018082558091505060019003906000526020600020906006020160009091909190915060008201518160000190805190602001906120d4929190613f2b565b5060208201518160010190805190602001906120f1929190613f2b565b50604082015181600201908051906020019061210e929190613f2b565b50606082015181600301556080820151816004015560a082015181600501555050808061213a906155ac565b915050611eae565b505050565b606060fe6000838152602001908152602001600020805480602002602001604051908101604052809291908181526020016000905b8282101561238257838290600052602060002090600602016040518060c00160405290816000820180546121af90615549565b80601f01602080910402602001604051908101604052809291908181526020018280546121db90615549565b80156122285780601f106121fd57610100808354040283529160200191612228565b820191906000526020600020905b81548152906001019060200180831161220b57829003601f168201915b5050505050815260200160018201805461224190615549565b80601f016020809104026020016040519081016040528092919081815260200182805461226d90615549565b80156122ba5780601f1061228f576101008083540402835291602001916122ba565b820191906000526020600020905b81548152906001019060200180831161229d57829003601f168201915b505050505081526020016002820180546122d390615549565b80601f01602080910402602001604051908101604052809291908181526020018280546122ff90615549565b801561234c5780601f106123215761010080835404028352916020019161234c565b820191906000526020600020905b81548152906001019060200180831161232f57829003601f168201915b5050505050815260200160038201548152602001600482015481526020016005820154815250508152602001906001019061217c565b505050509050919050565b6000606a60008473ffffffffffffffffffffffffffffffffffffffff1673ffffffffffffffffffffffffffffffffffffffff16815260200190815260200160002060008373ffffffffffffffffffffffffffffffffffffffff1673ffffffffffffffffffffffffffffffffffffffff16815260200190815260200160002060009054906101000a900460ff16905092915050565b612429612dcd565b600073ffffffffffffffffffffffffffffffffffffffff168173ffffffffffffffffffffffffffffffffffffffff161415612499576040517f08c379a000000000000000000000000000000000000000000000000000000000815260040161249090614fba565b60405180910390fd5b6124a281612e4b565b50565b60007f80ac58cd000000000000000000000000000000000000000000000000000000007bffffffffffffffffffffffffffffffffffffffffffffffffffffffff1916827bffffffffffffffffffffffffffffffffffffffffffffffffffffffff1916148061257057507f5b5e139f000000000000000000000000000000000000000000000000000000007bffffffffffffffffffffffffffffffffffffffffffffffffffffffff1916827bffffffffffffffffffffffffffffffffffffffffffffffffffffffff1916145b80612580575061257f82613509565b5b9050919050565b61259081613573565b6125cf576040517f08c379a00000000000000000000000000000000000000000000000000000000081526004016125c69061515a565b60405180910390fd5b50565b60006125dc6135df565b905090565b816069600083815260200190815260200160002060006101000a81548173ffffffffffffffffffffffffffffffffffffffff021916908373ffffffffffffffffffffffffffffffffffffffff160217905550808273ffffffffffffffffffffffffffffffffffffffff1661265483610f4e565b73ffffffffffffffffffffffffffffffffffffffff167f8c5be1e5ebec7d5bd14f71427d1e84f3dd0314c0f7b2291e5b200ac8c7c3b92560405160405180910390a45050565b6000806126a683610f4e565b90508073ffffffffffffffffffffffffffffffffffffffff168473ffffffffffffffffffffffffffffffffffffffff1614806126e857506126e7818561238d565b5b8061272657508373ffffffffffffffffffffffffffffffffffffffff1661270e84610715565b73ffffffffffffffffffffffffffffffffffffffff16145b91505092915050565b8273ffffffffffffffffffffffffffffffffffffffff1661274f82610f4e565b73ffffffffffffffffffffffffffffffffffffffff16146127a5576040517f08c379a000000000000000000000000000000000000000000000000000000000815260040161279c90614fda565b60405180910390fd5b600073ffffffffffffffffffffffffffffffffffffffff168273ffffffffffffffffffffffffffffffffffffffff161415612815576040517f08c379a000000000000000000000000000000000000000000000000000000000815260040161280c9061501a565b60405180910390fd5b6128208383836135e7565b61282b6000826125e1565b6001606860008573ffffffffffffffffffffffffffffffffffffffff1673ffffffffffffffffffffffffffffffffffffffff168152602001908152602001600020600082825461287b9190615436565b925050819055506001606860008473ffffffffffffffffffffffffffffffffffffffff1673ffffffffffffffffffffffffffffffffffffffff16815260200190815260200160002060008282546128d29190615355565b92505081905550816067600083815260200190815260200160002060006101000a81548173ffffffffffffffffffffffffffffffffffffffff021916908373ffffffffffffffffffffffffffffffffffffffff160217905550808273ffffffffffffffffffffffffffffffffffffffff168473ffffffffffffffffffffffffffffffffffffffff167fddf252ad1be2c89b69c2b068fc378daa952ba7f163c4a11628f55a4df523b3ef60405160405180910390a46129918383836136fb565b505050565b6000808273ffffffffffffffffffffffffffffffffffffffff163b119050919050565b606060006129c683611000565b905060008167ffffffffffffffff811115612a0a577f4e487b7100000000000000000000000000000000000000000000000000000000600052604160045260246000fd5b604051908082528060200260200182016040528015612a385781602001602082028036833780820191505090505b50905060005b82811015612aa857612a508582610a63565b828281518110612a89577f4e487b7100000000000000000000000000000000000000000000000000000000600052603260045260246000fd5b6020026020010181815250508080612aa0906155ac565b915050612a3e565b5060008267ffffffffffffffff811115612aeb577f4e487b7100000000000000000000000000000000000000000000000000000000600052604160045260246000fd5b604051908082528060200260200182016040528015612b2457816020015b612b11613fb1565b815260200190600190039081612b095790505b50905060005b83811015612dc1576000838281518110612b6d577f4e487b7100000000000000000000000000000000000000000000000000000000600052603260045260246000fd5b6020026020010151905060fd60008281526020019081526020016000206040518060c0016040529081600082018054612ba590615549565b80601f0160208091040260200160405190810160405280929190818152602001828054612bd190615549565b8015612c1e5780601f10612bf357610100808354040283529160200191612c1e565b820191906000526020600020905b815481529060010190602001808311612c0157829003601f168201915b50505050508152602001600182018054612c3790615549565b80601f0160208091040260200160405190810160405280929190818152602001828054612c6390615549565b8015612cb05780601f10612c8557610100808354040283529160200191612cb0565b820191906000526020600020905b815481529060010190602001808311612c9357829003601f168201915b50505050508152602001600282018054612cc990615549565b80601f0160208091040260200160405190810160405280929190818152602001828054612cf590615549565b8015612d425780601f10612d1757610100808354040283529160200191612d42565b820191906000526020600020905b815481529060010190602001808311612d2557829003601f168201915b505050505081526020016003820154815260200160048201548152602001600582015481525050838381518110612da2577f4e487b7100000000000000000000000000000000000000000000000000000000600052603260045260246000fd5b6020026020010181905250508080612db9906155ac565b915050612b2a565b50809350505050919050565b612dd56125d2565b73ffffffffffffffffffffffffffffffffffffffff16612df3611991565b73ffffffffffffffffffffffffffffffffffffffff1614612e49576040517f08c379a0000000000000000000000000000000000000000000000000000000008152600401612e40906150fa565b60405180910390fd5b565b600060c960009054906101000a900473ffffffffffffffffffffffffffffffffffffffff1690508160c960006101000a81548173ffffffffffffffffffffffffffffffffffffffff021916908373ffffffffffffffffffffffffffffffffffffffff1602179055508173ffffffffffffffffffffffffffffffffffffffff168173ffffffffffffffffffffffffffffffffffffffff167f8be0079c531659141344cd1fd0a4f28419497f9722a3daafe3b4186f6b6457e060405160405180910390a35050565b600081600001549050919050565b612f39828260405180602001604052806000815250613700565b5050565b6001816000016000828254019250508190555050565b600060019054906101000a900460ff16612fa2576040517f08c379a0000000000000000000000000000000000000000000000000000000008152600401612f99906151ba565b60405180910390fd5b612fac828261375b565b5050565b600060019054906101000a900460ff16612fff576040517f08c379a0000000000000000000000000000000000000000000000000000000008152600401612ff6906151ba565b60405180910390fd5b6130076137dc565b565b8173ffffffffffffffffffffffffffffffffffffffff168373ffffffffffffffffffffffffffffffffffffffff161415613078576040517f08c379a000000000000000000000000000000000000000000000000000000000815260040161306f9061503a565b60405180910390fd5b80606a60008573ffffffffffffffffffffffffffffffffffffffff1673ffffffffffffffffffffffffffffffffffffffff16815260200190815260200160002060008473ffffffffffffffffffffffffffffffffffffffff1673ffffffffffffffffffffffffffffffffffffffff16815260200190815260200160002060006101000a81548160ff0219169083151502179055508173ffffffffffffffffffffffffffffffffffffffff168373ffffffffffffffffffffffffffffffffffffffff167f17307eab39ab6107e8899845ad3d59bd9653f200f220920489ca2b5937696c31836040516131699190614ef2565b60405180910390a3505050565b61318184848461272f565b61318d8484848461383d565b6131cc576040517f08c379a00000000000000000000000000000000000000000000000000000000081526004016131c390614f9a565b60405180910390fd5b50505050565b6060600082141561321a576040518060400160405280600181526020017f3000000000000000000000000000000000000000000000000000000000000000815250905061337a565b600082905060005b6000821461324c578080613235906155ac565b915050600a8261324591906153ab565b9150613222565b60008167ffffffffffffffff81111561328e577f4e487b7100000000000000000000000000000000000000000000000000000000600052604160045260246000fd5b6040519080825280601f01601f1916602001820160405280156132c05781602001600182028036833780820191505090505b5090505b60008514613373576001826132d99190615436565b9150600a856132e891906155f5565b60306132f49190615355565b60f81b818381518110613330577f4e487b7100000000000000000000000000000000000000000000000000000000600052603260045260246000fd5b60200101907effffffffffffffffffffffffffffffffffffffffffffffffffffffffffffff1916908160001a905350600a8561336c91906153ab565b94506132c4565b8093505050505b919050565b60606000825114156133a257604051806020016040528060008152509050613504565b6000604051806060016040528060408152602001615d5960409139905060006003600285516133d19190615355565b6133db91906153ab565b60046133e791906153dc565b67ffffffffffffffff811115613426577f4e487b7100000000000000000000000000000000000000000000000000000000600052604160045260246000fd5b6040519080825280601f01601f1916602001820160405280156134585781602001600182028036833780820191505090505b509050600182016020820185865187015b808210156134c4576003820191508151603f8160121c168501518453600184019350603f81600c1c168501518453600184019350603f8160061c168501518453600184019350603f8116850151845360018401935050613469565b50506003865106600181146134e057600281146134f3576134fb565b603d6001830353603d60028303536134fb565b603d60018303535b50505080925050505b919050565b60007f01ffc9a7000000000000000000000000000000000000000000000000000000007bffffffffffffffffffffffffffffffffffffffffffffffffffffffff1916827bffffffffffffffffffffffffffffffffffffffffffffffffffffffff1916149050919050565b60008073ffffffffffffffffffffffffffffffffffffffff166067600084815260200190815260200160002060009054906101000a900473ffffffffffffffffffffffffffffffffffffffff1673ffffffffffffffffffffffffffffffffffffffff1614159050919050565b600033905090565b6135f28383836139d4565b600073ffffffffffffffffffffffffffffffffffffffff168373ffffffffffffffffffffffffffffffffffffffff16141561363557613630816139d9565b613674565b8173ffffffffffffffffffffffffffffffffffffffff168373ffffffffffffffffffffffffffffffffffffffff1614613673576136728382613a22565b5b5b600073ffffffffffffffffffffffffffffffffffffffff168273ffffffffffffffffffffffffffffffffffffffff1614156136b7576136b281613b8f565b6136f6565b8273ffffffffffffffffffffffffffffffffffffffff168273ffffffffffffffffffffffffffffffffffffffff16146136f5576136f48282613cd2565b5b5b505050565b505050565b61370a8383613d51565b613717600084848461383d565b613756576040517f08c379a000000000000000000000000000000000000000000000000000000000815260040161374d90614f9a565b60405180910390fd5b505050565b600060019054906101000a900460ff166137aa576040517f08c379a00000000000000000000000000000000000000000000000000000000081526004016137a1906151ba565b60405180910390fd5b81606590805190602001906137c0929190613f2b565b5080606690805190602001906137d7929190613f2b565b505050565b600060019054906101000a900460ff1661382b576040517f08c379a0000000000000000000000000000000000000000000000000000000008152600401613822906151ba565b60405180910390fd5b61383b6138366125d2565b612e4b565b565b600061385e8473ffffffffffffffffffffffffffffffffffffffff16612996565b156139c7578373ffffffffffffffffffffffffffffffffffffffff1663150b7a026138876125d2565b8786866040518563ffffffff1660e01b81526004016138a99493929190614e84565b602060405180830381600087803b1580156138c357600080fd5b505af19250505080156138f457506040513d601f19601f820116820180604052508101906138f191906146af565b60015b613977573d8060008114613924576040519150601f19603f3d011682016040523d82523d6000602084013e613929565b606091505b5060008151141561396f576040517f08c379a000000000000000000000000000000000000000000000000000000000815260040161396690614f9a565b60405180910390fd5b805181602001fd5b63150b7a0260e01b7bffffffffffffffffffffffffffffffffffffffffffffffffffffffff1916817bffffffffffffffffffffffffffffffffffffffffffffffffffffffff1916149150506139cc565b600190505b949350505050565b505050565b609980549050609a600083815260200190815260200160002081905550609981908060018154018082558091505060019003906000526020600020016000909190919091505550565b60006001613a2f84611000565b613a399190615436565b9050600060986000848152602001908152602001600020549050818114613b1e576000609760008673ffffffffffffffffffffffffffffffffffffffff1673ffffffffffffffffffffffffffffffffffffffff168152602001908152602001600020600084815260200190815260200160002054905080609760008773ffffffffffffffffffffffffffffffffffffffff1673ffffffffffffffffffffffffffffffffffffffff168152602001908152602001600020600084815260200190815260200160002081905550816098600083815260200190815260200160002081905550505b6098600084815260200190815260200160002060009055609760008573ffffffffffffffffffffffffffffffffffffffff1673ffffffffffffffffffffffffffffffffffffffff16815260200190815260200160002060008381526020019081526020016000206000905550505050565b60006001609980549050613ba39190615436565b90506000609a6000848152602001908152602001600020549050600060998381548110613bf9577f4e487b7100000000000000000000000000000000000000000000000000000000600052603260045260246000fd5b906000526020600020015490508060998381548110613c41577f4e487b7100000000000000000000000000000000000000000000000000000000600052603260045260246000fd5b906000526020600020018190555081609a600083815260200190815260200160002081905550609a6000858152602001908152602001600020600090556099805480613cb6577f4e487b7100000000000000000000000000000000000000000000000000000000600052603160045260246000fd5b6001900381819060005260206000200160009055905550505050565b6000613cdd83611000565b905081609760008573ffffffffffffffffffffffffffffffffffffffff1673ffffffffffffffffffffffffffffffffffffffff168152602001908152602001600020600083815260200190815260200160002081905550806098600084815260200190815260200160002081905550505050565b600073ffffffffffffffffffffffffffffffffffffffff168273ffffffffffffffffffffffffffffffffffffffff161415613dc1576040517f08c379a0000000000000000000000000000000000000000000000000000000008152600401613db8906150da565b60405180910390fd5b613dca81613573565b15613e0a576040517f08c379a0000000000000000000000000000000000000000000000000000000008152600401613e0190614ffa565b60405180910390fd5b613e16600083836135e7565b6001606860008473ffffffffffffffffffffffffffffffffffffffff1673ffffffffffffffffffffffffffffffffffffffff1681526020019081526020016000206000828254613e669190615355565b92505081905550816067600083815260200190815260200160002060006101000a81548173ffffffffffffffffffffffffffffffffffffffff021916908373ffffffffffffffffffffffffffffffffffffffff160217905550808273ffffffffffffffffffffffffffffffffffffffff16600073ffffffffffffffffffffffffffffffffffffffff167fddf252ad1be2c89b69c2b068fc378daa952ba7f163c4a11628f55a4df523b3ef60405160405180910390a4613f27600083836136fb565b5050565b828054613f3790615549565b90600052602060002090601f016020900481019282613f595760008555613fa0565b82601f10613f7257805160ff1916838001178555613fa0565b82800160010185558215613fa0579182015b82811115613f9f578251825591602001919060010190613f84565b5b509050613fad9190613fe7565b5090565b6040518060c001604052806060815260200160608152602001606081526020016000815260200160008152602001600081525090565b5b80821115614000576000816000905550600101613fe8565b5090565b60006140176140128461523a565b615215565b9050808382526020820190508285602086028201111561403657600080fd5b60005b8581101561408057813567ffffffffffffffff81111561405857600080fd5b80860161406589826143a8565b85526020850194506020840193505050600181019050614039565b5050509392505050565b600061409d61409884615266565b615215565b9050828152602081018484840111156140b557600080fd5b6140c0848285615507565b509392505050565b60006140db6140d684615297565b615215565b9050828152602081018484840111156140f357600080fd5b6140fe848285615507565b509392505050565b600061411961411484615297565b615215565b90508281526020810184848401111561413157600080fd5b61413c848285615516565b509392505050565b60008135905061415381615ce5565b92915050565b600082601f83011261416a57600080fd5b813561417a848260208601614004565b91505092915050565b60008135905061419281615cfc565b92915050565b6000815190506141a781615cfc565b92915050565b6000815190506141bc81615d13565b92915050565b6000813590506141d181615d2a565b92915050565b6000815190506141e681615d2a565b92915050565b600082601f8301126141fd57600080fd5b813561420d84826020860161408a565b91505092915050565b600082601f83011261422757600080fd5b81356142378482602086016140c8565b91505092915050565b600082601f83011261425157600080fd5b8151614261848260208601614106565b91505092915050565b6000610100828403121561427d57600080fd5b614288610100615215565b90506000614298848285016144a1565b60008301525060206142ac848285016144a1565b602083015250604082015167ffffffffffffffff8111156142cc57600080fd5b6142d884828501614240565b604083015250606082015167ffffffffffffffff8111156142f857600080fd5b61430484828501614240565b606083015250608082015167ffffffffffffffff81111561432457600080fd5b61433084828501614240565b60808301525060a082015167ffffffffffffffff81111561435057600080fd5b61435c84828501614240565b60a08301525060c082015167ffffffffffffffff81111561437c57600080fd5b61438884828501614240565b60c08301525060e061439c848285016141ad565b60e08301525092915050565b600060c082840312156143ba57600080fd5b6143c460c0615215565b9050600082013567ffffffffffffffff8111156143e057600080fd5b6143ec84828501614216565b600083015250602082013567ffffffffffffffff81111561440c57600080fd5b61441884828501614216565b602083015250604082013567ffffffffffffffff81111561443857600080fd5b61444484828501614216565b60408301525060606144588482850161448c565b606083015250608061446c8482850161448c565b60808301525060a06144808482850161448c565b60a08301525092915050565b60008135905061449b81615d41565b92915050565b6000815190506144b081615d41565b92915050565b6000602082840312156144c857600080fd5b60006144d684828501614144565b91505092915050565b600080604083850312156144f257600080fd5b600061450085828601614144565b925050602061451185828601614144565b9150509250929050565b60008060006060848603121561453057600080fd5b600061453e86828701614144565b935050602061454f86828701614144565b92505060406145608682870161448c565b9150509250925092565b6000806000806080858703121561458057600080fd5b600061458e87828801614144565b945050602061459f87828801614144565b93505060406145b08782880161448c565b925050606085013567ffffffffffffffff8111156145cd57600080fd5b6145d9878288016141ec565b91505092959194509250565b600080604083850312156145f857600080fd5b600061460685828601614144565b925050602061461785828601614183565b9150509250929050565b6000806040838503121561463457600080fd5b600061464285828601614144565b92505060206146538582860161448c565b9150509250929050565b60006020828403121561466f57600080fd5b600061467d84828501614198565b91505092915050565b60006020828403121561469857600080fd5b60006146a6848285016141c2565b91505092915050565b6000602082840312156146c157600080fd5b60006146cf848285016141d7565b91505092915050565b6000602082840312156146ea57600080fd5b600082015167ffffffffffffffff81111561470457600080fd5b6147108482850161426a565b91505092915050565b60006020828403121561472b57600080fd5b60006147398482850161448c565b91505092915050565b6000806040838503121561475557600080fd5b60006147638582860161448c565b925050602083013567ffffffffffffffff81111561478057600080fd5b61478c85828601614159565b9150509250929050565b6000806000606084860312156147ab57600080fd5b60006147b98682870161448c565b93505060206147ca8682870161448c565b925050604084013567ffffffffffffffff8111156147e757600080fd5b6147f386828701614216565b9150509250925092565b60006148098383614d1d565b905092915050565b61481a8161546a565b82525050565b600061482b826152d8565b6148358185615306565b935083602082028501614847856152c8565b8060005b85811015614883578484038952815161486485826147fd565b945061486f836152f9565b925060208a0199505060018101905061484b565b50829750879550505050505092915050565b61489e8161547c565b82525050565b60006148af826152e3565b6148b98185615317565b93506148c9818560208601615516565b6148d2816156e2565b840191505092915050565b6148e6816154f5565b82525050565b60006148f7826152ee565b6149018185615328565b9350614911818560208601615516565b61491a816156e2565b840191505092915050565b6000614930826152ee565b61493a8185615339565b935061494a818560208601615516565b614953816156e2565b840191505092915050565b6000614969826152ee565b614973818561534a565b9350614983818560208601615516565b80840191505092915050565b600061499c60138361534a565b91506149a7826156f3565b601382019050919050565b60006149bf602b83615339565b91506149ca8261571c565b604082019050919050565b60006149e2603283615339565b91506149ed8261576b565b604082019050919050565b6000614a05602683615339565b9150614a10826157ba565b604082019050919050565b6000614a28602583615339565b9150614a3382615809565b604082019050919050565b6000614a4b601c83615339565b9150614a5682615858565b602082019050919050565b6000614a6e602483615339565b9150614a7982615881565b604082019050919050565b6000614a91601983615339565b9150614a9c826158d0565b602082019050919050565b6000614ab4602983615339565b9150614abf826158f9565b604082019050919050565b6000614ad760098361534a565b9150614ae282615948565b600982019050919050565b6000614afa601e83615339565b9150614b0582615971565b602082019050919050565b6000614b1d602e83615339565b9150614b288261599a565b604082019050919050565b6000614b40603e83615339565b9150614b4b826159e9565b604082019050919050565b6000614b63602083615339565b9150614b6e82615a38565b602082019050919050565b6000614b86600d8361534a565b9150614b9182615a61565b600d82019050919050565b6000614ba960018361534a565b9150614bb482615a8a565b600182019050919050565b6000614bcc602083615339565b9150614bd782615ab3565b602082019050919050565b6000614bef601583615339565b9150614bfa82615adc565b602082019050919050565b6000614c12601b83615339565b9150614c1d82615b05565b602082019050919050565b6000614c35600a8361534a565b9150614c4082615b2e565b600a82019050919050565b6000614c58601883615339565b9150614c6382615b57565b602082019050919050565b6000614c7b602183615339565b9150614c8682615b80565b604082019050919050565b6000614c9e601d8361534a565b9150614ca982615bcf565b601d82019050919050565b6000614cc1602c83615339565b9150614ccc82615bf8565b604082019050919050565b6000614ce4602b83615339565b9150614cef82615c47565b604082019050919050565b6000614d07602e83615339565b9150614d1282615c96565b604082019050919050565b600060c0830160008301518482036000860152614d3a82826148ec565b91505060208301518482036020860152614d5482826148ec565b91505060408301518482036040860152614d6e82826148ec565b9150506060830151614d836060860182614db4565b506080830151614d966080860182614db4565b5060a0830151614da960a0860182614db4565b508091505092915050565b614dbd816154de565b82525050565b614dcc816154de565b82525050565b6000614ddd82614c28565b9150614de9828761495e565b9150614df48261498f565b9150614e00828661495e565b9150614e0b82614b79565b9150614e17828561495e565b9150614e2282614aca565b9150614e2e828461495e565b9150614e3982614b9c565b915081905095945050505050565b6000614e5282614c91565b9150614e5e828461495e565b915081905092915050565b6000602082019050614e7e6000830184614811565b92915050565b6000608082019050614e996000830187614811565b614ea66020830186614811565b614eb36040830185614dc3565b8181036060830152614ec581846148a4565b905095945050505050565b60006020820190508181036000830152614eea8184614820565b905092915050565b6000602082019050614f076000830184614895565b92915050565b6000602082019050614f2260008301846148dd565b92915050565b60006020820190508181036000830152614f428184614925565b905092915050565b60006040820190508181036000830152614f648185614925565b9050614f736020830184614dc3565b9392505050565b60006020820190508181036000830152614f93816149b2565b9050919050565b60006020820190508181036000830152614fb3816149d5565b9050919050565b60006020820190508181036000830152614fd3816149f8565b9050919050565b60006020820190508181036000830152614ff381614a1b565b9050919050565b6000602082019050818103600083015261501381614a3e565b9050919050565b6000602082019050818103600083015261503381614a61565b9050919050565b6000602082019050818103600083015261505381614a84565b9050919050565b6000602082019050818103600083015261507381614aa7565b9050919050565b6000602082019050818103600083015261509381614aed565b9050919050565b600060208201905081810360008301526150b381614b10565b9050919050565b600060208201905081810360008301526150d381614b33565b9050919050565b600060208201905081810360008301526150f381614b56565b9050919050565b6000602082019050818103600083015261511381614bbf565b9050919050565b6000602082019050818103600083015261513381614be2565b9050919050565b6000602082019050818103600083015261515381614c05565b9050919050565b6000602082019050818103600083015261517381614c4b565b9050919050565b6000602082019050818103600083015261519381614c6e565b9050919050565b600060208201905081810360008301526151b381614cb4565b9050919050565b600060208201905081810360008301526151d381614cd7565b9050919050565b600060208201905081810360008301526151f381614cfa565b9050919050565b600060208201905061520f6000830184614dc3565b92915050565b600061521f615230565b905061522b828261557b565b919050565b6000604051905090565b600067ffffffffffffffff821115615255576152546156b3565b5b602082029050602081019050919050565b600067ffffffffffffffff821115615281576152806156b3565b5b61528a826156e2565b9050602081019050919050565b600067ffffffffffffffff8211156152b2576152b16156b3565b5b6152bb826156e2565b9050602081019050919050565b6000819050602082019050919050565b600081519050919050565b600081519050919050565b600081519050919050565b6000602082019050919050565b600082825260208201905092915050565b600082825260208201905092915050565b600082825260208201905092915050565b600082825260208201905092915050565b600081905092915050565b6000615360826154de565b915061536b836154de565b9250827fffffffffffffffffffffffffffffffffffffffffffffffffffffffffffffffff038211156153a05761539f615626565b5b828201905092915050565b60006153b6826154de565b91506153c1836154de565b9250826153d1576153d0615655565b5b828204905092915050565b60006153e7826154de565b91506153f2836154de565b9250817fffffffffffffffffffffffffffffffffffffffffffffffffffffffffffffffff048311821515161561542b5761542a615626565b5b828202905092915050565b6000615441826154de565b915061544c836154de565b92508282101561545f5761545e615626565b5b828203905092915050565b6000615475826154be565b9050919050565b60008115159050919050565b6000819050919050565b60007fffffffff0000000000000000000000000000000000000000000000000000000082169050919050565b600073ffffffffffffffffffffffffffffffffffffffff82169050919050565b6000819050919050565b600060ff82169050919050565b6000615500826154e8565b9050919050565b82818337600083830152505050565b60005b83811015615534578082015181840152602081019050615519565b83811115615543576000848401525b50505050565b6000600282049050600182168061556157607f821691505b6020821081141561557557615574615684565b5b50919050565b615584826156e2565b810181811067ffffffffffffffff821117156155a3576155a26156b3565b5b80604052505050565b60006155b7826154de565b91507fffffffffffffffffffffffffffffffffffffffffffffffffffffffffffffffff8214156155ea576155e9615626565b5b600182019050919050565b6000615600826154de565b915061560b836154de565b92508261561b5761561a615655565b5b828206905092915050565b7f4e487b7100000000000000000000000000000000000000000000000000000000600052601160045260246000fd5b7f4e487b7100000000000000000000000000000000000000000000000000000000600052601260045260246000fd5b7f4e487b7100000000000000000000000000000000000000000000000000000000600052602260045260246000fd5b7f4e487b7100000000000000000000000000000000000000000000000000000000600052604160045260246000fd5b6000601f19601f8301169050919050565b7f222c20226465736372697074696f6e223a202200000000000000000000000000600082015250565b7f455243373231456e756d657261626c653a206f776e657220696e646578206f7560008201527f74206f6620626f756e6473000000000000000000000000000000000000000000602082015250565b7f4552433732313a207472616e7366657220746f206e6f6e20455243373231526560008201527f63656976657220696d706c656d656e7465720000000000000000000000000000602082015250565b7f4f776e61626c653a206e6577206f776e657220697320746865207a65726f206160008201527f6464726573730000000000000000000000000000000000000000000000000000602082015250565b7f4552433732313a207472616e736665722066726f6d20696e636f72726563742060008201527f6f776e6572000000000000000000000000000000000000000000000000000000602082015250565b7f4552433732313a20746f6b656e20616c7265616479206d696e74656400000000600082015250565b7f4552433732313a207472616e7366657220746f20746865207a65726f2061646460008201527f7265737300000000000000000000000000000000000000000000000000000000602082015250565b7f4552433732313a20617070726f766520746f2063616c6c657200000000000000600082015250565b7f4552433732313a2061646472657373207a65726f206973206e6f74206120766160008201527f6c6964206f776e65720000000000000000000000000000000000000000000000602082015250565b7f222c20226964223a200000000000000000000000000000000000000000000000600082015250565b7f6576656e74206d616e61676572206164647265737320697320626c616e6b0000600082015250565b7f496e697469616c697a61626c653a20636f6e747261637420697320616c72656160008201527f647920696e697469616c697a6564000000000000000000000000000000000000602082015250565b7f4552433732313a20617070726f76652063616c6c6572206973206e6f7420746f60008201527f6b656e206f776e6572206e6f7220617070726f76656420666f7220616c6c0000602082015250565b7f4552433732313a206d696e7420746f20746865207a65726f2061646472657373600082015250565b7f222c2022696d616765223a202200000000000000000000000000000000000000600082015250565b7f7d00000000000000000000000000000000000000000000000000000000000000600082015250565b7f4f776e61626c653a2063616c6c6572206973206e6f7420746865206f776e6572600082015250565b7f696e76616c696420736563726574207068726173650000000000000000000000600082015250565b7f616c7265616479206d696e746564204e4654206f6e206576656e740000000000600082015250565b7f7b226e616d65223a202200000000000000000000000000000000000000000000600082015250565b7f4552433732313a20696e76616c696420746f6b656e2049440000000000000000600082015250565b7f4552433732313a20617070726f76616c20746f2063757272656e74206f776e6560008201527f7200000000000000000000000000000000000000000000000000000000000000602082015250565b7f646174613a6170706c69636174696f6e2f6a736f6e3b6261736536342c000000600082015250565b7f455243373231456e756d657261626c653a20676c6f62616c20696e646578206f60008201527f7574206f6620626f756e64730000000000000000000000000000000000000000602082015250565b7f496e697469616c697a61626c653a20636f6e7472616374206973206e6f74206960008201527f6e697469616c697a696e67000000000000000000000000000000000000000000602082015250565b7f4552433732313a2063616c6c6572206973206e6f7420746f6b656e206f776e6560008201527f72206e6f7220617070726f766564000000000000000000000000000000000000602082015250565b615cee8161546a565b8114615cf957600080fd5b50565b615d058161547c565b8114615d1057600080fd5b50565b615d1c81615488565b8114615d2757600080fd5b50565b615d3381615492565b8114615d3e57600080fd5b50565b615d4a816154de565b8114615d5557600080fd5b5056fe4142434445464748494a4b4c4d4e4f505152535455565758595a6162636465666768696a6b6c6d6e6f707172737475767778797a303132333435363738392b2fa2646970667358221220714b557872d1b953ec0eaaa9d2ac97085d302bb9a5ed532912fcacd3226dde4664736f6c63430008040033",
  "linkReferences": {},
  "deployedLinkReferences": {}
}