{
  "_format": "hh-sol-artifact-1",
  "contractName": "MintNFT",
  "sourceName": "contracts/MintNFT.sol",
  "abi": [
    {
      "anonymous": false,
      "inputs": [
        {
          "indexed": true,
          "internalType": "address",
          "name": "owner",
          "type": "address"
        },
        {
          "indexed": true,
          "internalType": "address",
          "name": "approved",
          "type": "address"
        },
        {
          "indexed": true,
          "internalType": "uint256",
          "name": "tokenId",
          "type": "uint256"
        }
      ],
      "name": "Approval",
      "type": "event"
    },
    {
      "anonymous": false,
      "inputs": [
        {
          "indexed": true,
          "internalType": "address",
          "name": "owner",
          "type": "address"
        },
        {
          "indexed": true,
          "internalType": "address",
          "name": "operator",
          "type": "address"
        },
        {
          "indexed": false,
          "internalType": "bool",
          "name": "approved",
          "type": "bool"
        }
      ],
      "name": "ApprovalForAll",
      "type": "event"
    },
    {
      "anonymous": false,
      "inputs": [
        {
          "indexed": false,
          "internalType": "uint8",
          "name": "version",
          "type": "uint8"
        }
      ],
      "name": "Initialized",
      "type": "event"
    },
    {
      "anonymous": false,
      "inputs": [
        {
          "indexed": true,
          "internalType": "address",
          "name": "holder",
          "type": "address"
        },
        {
          "indexed": false,
          "internalType": "string",
          "name": "url",
          "type": "string"
        }
      ],
      "name": "MintedNFTAttributeURL",
      "type": "event"
    },
    {
      "anonymous": false,
      "inputs": [
        {
          "indexed": true,
          "internalType": "address",
          "name": "previousOwner",
          "type": "address"
        },
        {
          "indexed": true,
          "internalType": "address",
          "name": "newOwner",
          "type": "address"
        }
      ],
      "name": "OwnershipTransferred",
      "type": "event"
    },
    {
      "anonymous": false,
      "inputs": [
        {
          "indexed": true,
          "internalType": "address",
          "name": "from",
          "type": "address"
        },
        {
          "indexed": true,
          "internalType": "address",
          "name": "to",
          "type": "address"
        },
        {
          "indexed": true,
          "internalType": "uint256",
          "name": "tokenId",
          "type": "uint256"
        }
      ],
      "name": "Transfer",
      "type": "event"
    },
    {
      "inputs": [
        {
          "internalType": "address",
          "name": "to",
          "type": "address"
        },
        {
          "internalType": "uint256",
          "name": "tokenId",
          "type": "uint256"
        }
      ],
      "name": "approve",
      "outputs": [],
      "stateMutability": "nonpayable",
      "type": "function"
    },
    {
      "inputs": [
        {
          "internalType": "address",
          "name": "owner",
          "type": "address"
        }
      ],
      "name": "balanceOf",
      "outputs": [
        {
          "internalType": "uint256",
          "name": "",
          "type": "uint256"
        }
      ],
      "stateMutability": "view",
      "type": "function"
    },
    {
      "inputs": [
        {
          "internalType": "uint256",
          "name": "tokenId",
          "type": "uint256"
        }
      ],
      "name": "burn",
      "outputs": [],
      "stateMutability": "nonpayable",
      "type": "function"
    },
    {
      "inputs": [
        {
          "internalType": "uint256",
          "name": "_eventId",
          "type": "uint256"
        },
        {
          "internalType": "string",
          "name": "_secretPhrase",
          "type": "string"
        }
      ],
      "name": "canMint",
      "outputs": [
        {
          "internalType": "bool",
          "name": "",
          "type": "bool"
        }
      ],
      "stateMutability": "view",
      "type": "function"
    },
    {
      "inputs": [
        {
          "internalType": "uint256",
          "name": "tokenId",
          "type": "uint256"
        }
      ],
      "name": "getApproved",
      "outputs": [
        {
          "internalType": "address",
          "name": "",
          "type": "address"
        }
      ],
      "stateMutability": "view",
      "type": "function"
    },
    {
      "inputs": [
        {
          "internalType": "uint256",
          "name": "_eventId",
          "type": "uint256"
        }
      ],
      "name": "getRemainingNFTCount",
      "outputs": [
        {
          "internalType": "uint256",
          "name": "",
          "type": "uint256"
        }
      ],
      "stateMutability": "view",
      "type": "function"
    },
    {
      "inputs": [
        {
          "internalType": "contract MinimalForwarderUpgradeable",
          "name": "trustedForwarder",
          "type": "address"
        }
      ],
      "name": "initialize",
      "outputs": [],
      "stateMutability": "nonpayable",
      "type": "function"
    },
    {
      "inputs": [
        {
          "internalType": "address",
          "name": "owner",
          "type": "address"
        },
        {
          "internalType": "address",
          "name": "operator",
          "type": "address"
        }
      ],
      "name": "isApprovedForAll",
      "outputs": [
        {
          "internalType": "bool",
          "name": "",
          "type": "bool"
        }
      ],
      "stateMutability": "view",
      "type": "function"
    },
    {
      "inputs": [
        {
          "internalType": "address",
          "name": "forwarder",
          "type": "address"
        }
      ],
      "name": "isTrustedForwarder",
      "outputs": [
        {
          "internalType": "bool",
          "name": "",
          "type": "bool"
        }
      ],
      "stateMutability": "view",
      "type": "function"
    },
    {
      "inputs": [
        {
          "internalType": "uint256",
          "name": "_groupId",
          "type": "uint256"
        },
        {
          "internalType": "uint256",
          "name": "_eventId",
          "type": "uint256"
        },
        {
          "internalType": "string",
          "name": "_secretPhrase",
          "type": "string"
        }
      ],
      "name": "mintParticipateNFT",
      "outputs": [],
      "stateMutability": "nonpayable",
      "type": "function"
    },
    {
      "inputs": [],
      "name": "name",
      "outputs": [
        {
          "internalType": "string",
          "name": "",
          "type": "string"
        }
      ],
      "stateMutability": "view",
      "type": "function"
    },
    {
      "inputs": [],
      "name": "owner",
      "outputs": [
        {
          "internalType": "address",
          "name": "",
          "type": "address"
        }
      ],
      "stateMutability": "view",
      "type": "function"
    },
    {
      "inputs": [
        {
          "internalType": "uint256",
          "name": "tokenId",
          "type": "uint256"
        }
      ],
      "name": "ownerOf",
      "outputs": [
        {
          "internalType": "address",
          "name": "",
          "type": "address"
        }
      ],
      "stateMutability": "view",
      "type": "function"
    },
    {
      "inputs": [],
      "name": "renounceOwnership",
      "outputs": [],
      "stateMutability": "nonpayable",
      "type": "function"
    },
    {
      "inputs": [
        {
          "internalType": "address",
          "name": "from",
          "type": "address"
        },
        {
          "internalType": "address",
          "name": "to",
          "type": "address"
        },
        {
          "internalType": "uint256",
          "name": "tokenId",
          "type": "uint256"
        }
      ],
      "name": "safeTransferFrom",
      "outputs": [],
      "stateMutability": "nonpayable",
      "type": "function"
    },
    {
      "inputs": [
        {
          "internalType": "address",
          "name": "from",
          "type": "address"
        },
        {
          "internalType": "address",
          "name": "to",
          "type": "address"
        },
        {
          "internalType": "uint256",
          "name": "tokenId",
          "type": "uint256"
        },
        {
          "internalType": "bytes",
          "name": "data",
          "type": "bytes"
        }
      ],
      "name": "safeTransferFrom",
      "outputs": [],
      "stateMutability": "nonpayable",
      "type": "function"
    },
    {
      "inputs": [
        {
          "internalType": "address",
          "name": "operator",
          "type": "address"
        },
        {
          "internalType": "bool",
          "name": "approved",
          "type": "bool"
        }
      ],
      "name": "setApprovalForAll",
      "outputs": [],
      "stateMutability": "nonpayable",
      "type": "function"
    },
    {
      "inputs": [
        {
          "internalType": "uint256",
          "name": "_eventId",
          "type": "uint256"
        },
        {
          "internalType": "uint256",
          "name": "_mintLimit",
          "type": "uint256"
        },
        {
          "internalType": "bytes32",
          "name": "_secretPhrase",
          "type": "bytes32"
        },
        {
          "components": [
            {
              "internalType": "string",
              "name": "metaDataURL",
              "type": "string"
            },
            {
              "internalType": "uint256",
              "name": "requiredParticipateCount",
              "type": "uint256"
            }
          ],
          "internalType": "struct MintNFT.NFTAttribute[]",
          "name": "attributes",
          "type": "tuple[]"
        }
      ],
      "name": "setEventInfo",
      "outputs": [],
      "stateMutability": "nonpayable",
      "type": "function"
    },
    {
      "inputs": [
        {
          "internalType": "address",
          "name": "_addr",
          "type": "address"
        }
      ],
      "name": "setEventManagerAddr",
      "outputs": [],
      "stateMutability": "nonpayable",
      "type": "function"
    },
    {
      "inputs": [
        {
          "internalType": "bytes4",
          "name": "interfaceId",
          "type": "bytes4"
        }
      ],
      "name": "supportsInterface",
      "outputs": [
        {
          "internalType": "bool",
          "name": "",
          "type": "bool"
        }
      ],
      "stateMutability": "view",
      "type": "function"
    },
    {
      "inputs": [],
      "name": "symbol",
      "outputs": [
        {
          "internalType": "string",
          "name": "",
          "type": "string"
        }
      ],
      "stateMutability": "view",
      "type": "function"
    },
    {
      "inputs": [
        {
          "internalType": "uint256",
          "name": "index",
          "type": "uint256"
        }
      ],
      "name": "tokenByIndex",
      "outputs": [
        {
          "internalType": "uint256",
          "name": "",
          "type": "uint256"
        }
      ],
      "stateMutability": "view",
      "type": "function"
    },
    {
      "inputs": [
        {
          "internalType": "address",
          "name": "owner",
          "type": "address"
        },
        {
          "internalType": "uint256",
          "name": "index",
          "type": "uint256"
        }
      ],
      "name": "tokenOfOwnerByIndex",
      "outputs": [
        {
          "internalType": "uint256",
          "name": "",
          "type": "uint256"
        }
      ],
      "stateMutability": "view",
      "type": "function"
    },
    {
      "inputs": [
        {
          "internalType": "uint256",
          "name": "_tokenId",
          "type": "uint256"
        }
      ],
      "name": "tokenURI",
      "outputs": [
        {
          "internalType": "string",
          "name": "",
          "type": "string"
        }
      ],
      "stateMutability": "view",
      "type": "function"
    },
    {
      "inputs": [],
      "name": "totalSupply",
      "outputs": [
        {
          "internalType": "uint256",
          "name": "",
          "type": "uint256"
        }
      ],
      "stateMutability": "view",
      "type": "function"
    },
    {
      "inputs": [
        {
          "internalType": "address",
          "name": "from",
          "type": "address"
        },
        {
          "internalType": "address",
          "name": "to",
          "type": "address"
        },
        {
          "internalType": "uint256",
          "name": "tokenId",
          "type": "uint256"
        }
      ],
      "name": "transferFrom",
      "outputs": [],
      "stateMutability": "nonpayable",
      "type": "function"
    },
    {
      "inputs": [
        {
          "internalType": "address",
          "name": "newOwner",
          "type": "address"
        }
      ],
      "name": "transferOwnership",
      "outputs": [],
      "stateMutability": "nonpayable",
      "type": "function"
    }
  ],
  "bytecode": "0x608060405234801561001057600080fd5b5061466c806100206000396000f3fe608060405234801561001057600080fd5b50600436106101a95760003560e01c80636352211e116100f9578063a22cb46511610097578063c87b56dd11610071578063c87b56dd146104dc578063e985e9c51461050c578063ef3ad9eb1461053c578063f2fde38b14610558576101a9565b8063a22cb46514610488578063b88d4fde146104a4578063c4d66de8146104c0576101a9565b806372746a8d116100d357806372746a8d146104145780638da5cb5b146104305780639041e3f41461044e57806395d89b411461046a576101a9565b80636352211e146103aa57806370a08231146103da578063715018a61461040a576101a9565b80632b3e44361161016657806342966c681161014057806342966c68146102fe5780634f6ccce71461031a5780634ffc9f4b1461034a578063572b6c051461037a576101a9565b80632b3e4436146102825780632f745c59146102b257806342842e0e146102e2576101a9565b806301ffc9a7146101ae57806306fdde03146101de578063081812fc146101fc578063095ea7b31461022c57806318160ddd1461024857806323b872dd14610266575b600080fd5b6101c860048036038101906101c39190612d83565b610574565b6040516101d59190612dcb565b60405180910390f35b6101e66105ee565b6040516101f39190612e7f565b60405180910390f35b61021660048036038101906102119190612ed7565b610680565b6040516102239190612f45565b60405180910390f35b61024660048036038101906102419190612f8c565b6106c6565b005b6102506107de565b60405161025d9190612fdb565b60405180910390f35b610280600480360381019061027b9190612ff6565b6107eb565b005b61029c6004803603810190610297919061317e565b61084b565b6040516102a99190612dcb565b60405180910390f35b6102cc60048036038101906102c79190612f8c565b610970565b6040516102d99190612fdb565b60405180910390f35b6102fc60048036038101906102f79190612ff6565b610a15565b005b61031860048036038101906103139190612ed7565b610a35565b005b610334600480360381019061032f9190612ed7565b610a49565b6040516103419190612fdb565b60405180910390f35b610364600480360381019061035f9190612ed7565b610aba565b6040516103719190612fdb565b60405180910390f35b610394600480360381019061038f91906131da565b610ad8565b6040516103a19190612dcb565b60405180910390f35b6103c460048036038101906103bf9190612ed7565b610b32565b6040516103d19190612f45565b60405180910390f35b6103f460048036038101906103ef91906131da565b610be4565b6040516104019190612fdb565b60405180910390f35b610412610c9c565b005b61042e60048036038101906104299190613207565b610cb0565b005b610438610fe5565b6040516104459190612f45565b60405180910390f35b610468600480360381019061046391906131da565b61100f565b005b6104726110cc565b60405161047f9190612e7f565b60405180910390f35b6104a2600480360381019061049d91906132a2565b61115e565b005b6104be60048036038101906104b99190613383565b611174565b005b6104da60048036038101906104d59190613444565b6111d6565b005b6104f660048036038101906104f19190612ed7565b611392565b6040516105039190612e7f565b60405180910390f35b61052660048036038101906105219190613471565b61143e565b6040516105339190612dcb565b60405180910390f35b61055660048036038101906105519190613643565b6114d2565b005b610572600480360381019061056d91906131da565b611630565b005b60007f780e9d63000000000000000000000000000000000000000000000000000000007bffffffffffffffffffffffffffffffffffffffffffffffffffffffff1916827bffffffffffffffffffffffffffffffffffffffffffffffffffffffff191614806105e757506105e6826116b4565b5b9050919050565b6060606580546105fd906136f5565b80601f0160208091040260200160405190810160405280929190818152602001828054610629906136f5565b80156106765780601f1061064b57610100808354040283529160200191610676565b820191906000526020600020905b81548152906001019060200180831161065957829003601f168201915b5050505050905090565b600061068b82611796565b6069600083815260200190815260200160002060009054906101000a900473ffffffffffffffffffffffffffffffffffffffff169050919050565b60006106d182610b32565b90508073ffffffffffffffffffffffffffffffffffffffff168373ffffffffffffffffffffffffffffffffffffffff161415610742576040517f08c379a000000000000000000000000000000000000000000000000000000000815260040161073990613799565b60405180910390fd5b8073ffffffffffffffffffffffffffffffffffffffff166107616117e1565b73ffffffffffffffffffffffffffffffffffffffff161480610790575061078f8161078a6117e1565b61143e565b5b6107cf576040517f08c379a00000000000000000000000000000000000000000000000000000000081526004016107c69061382b565b60405180910390fd5b6107d98383611813565b505050565b6000609980549050905090565b6107fc6107f66117e1565b826118cc565b61083b576040517f08c379a0000000000000000000000000000000000000000000000000000000008152600401610832906138bd565b60405180910390fd5b610846838383611961565b505050565b60006108578284611bc8565b610896576040517f08c379a000000000000000000000000000000000000000000000000000000000815260040161088d90613929565b60405180910390fd5b600061013460008581526020019081526020016000205414156108ee576040517f08c379a00000000000000000000000000000000000000000000000000000000081526004016108e590613995565b60405180910390fd5b600061013160006109066109006117e1565b87611bfb565b815260200190815260200160002060009054906101000a900460ff1690508015610965576040517f08c379a000000000000000000000000000000000000000000000000000000000815260040161095c90613a01565b60405180910390fd5b600191505092915050565b600061097b83610be4565b82106109bc576040517f08c379a00000000000000000000000000000000000000000000000000000000081526004016109b390613a93565b60405180910390fd5b609760008473ffffffffffffffffffffffffffffffffffffffff1673ffffffffffffffffffffffffffffffffffffffff168152602001908152602001600020600083815260200190815260200160002054905092915050565b610a3083838360405180602001604052806000815250611174565b505050565b610a3d611c2e565b610a4681611cac565b50565b6000610a536107de565b8210610a94576040517f08c379a0000000000000000000000000000000000000000000000000000000008152600401610a8b90613b25565b60405180910390fd5b60998281548110610aa857610aa7613b45565b5b90600052602060002001549050919050565b60006101346000838152602001908152602001600020549050919050565b600060c960009054906101000a900473ffffffffffffffffffffffffffffffffffffffff1673ffffffffffffffffffffffffffffffffffffffff168273ffffffffffffffffffffffffffffffffffffffff16149050919050565b6000806067600084815260200190815260200160002060009054906101000a900473ffffffffffffffffffffffffffffffffffffffff169050600073ffffffffffffffffffffffffffffffffffffffff168173ffffffffffffffffffffffffffffffffffffffff161415610bdb576040517f08c379a0000000000000000000000000000000000000000000000000000000008152600401610bd290613bc0565b60405180910390fd5b80915050919050565b60008073ffffffffffffffffffffffffffffffffffffffff168273ffffffffffffffffffffffffffffffffffffffff161415610c55576040517f08c379a0000000000000000000000000000000000000000000000000000000008152600401610c4c90613c52565b60405180910390fd5b606860008373ffffffffffffffffffffffffffffffffffffffff1673ffffffffffffffffffffffffffffffffffffffff168152602001908152602001600020549050919050565b610ca4611c2e565b610cae6000611dc9565b565b610cba828261084b565b5060016101316000610cd3610ccd6117e1565b86611bfb565b815260200190815260200160002060006101000a81548160ff0219169083151502179055506000610d0b610d056117e1565b85611bfb565b90506000610132600083815260200190815260200160002054905060006101336000610d38876000611e8f565b81526020019081526020016000208054610d51906136f5565b80601f0160208091040260200160405190810160405280929190818152602001828054610d7d906136f5565b8015610dca5780601f10610d9f57610100808354040283529160200191610dca565b820191906000526020600020905b815481529060010190602001808311610dad57829003601f168201915b5050505050905060006101336000610de28886611e8f565b81526020019081526020016000208054610dfb906136f5565b80601f0160208091040260200160405190810160405280929190818152602001828054610e27906136f5565b8015610e745780601f10610e4957610100808354040283529160200191610e74565b820191906000526020600020905b815481529060010190602001808311610e5757829003601f168201915b50505050509050604051602001610e8a90613ca3565b6040516020818303038152906040528051906020012081604051602001610eb19190613ce9565b6040516020818303038152906040528051906020012014610ed0578091505b816101306000610ee161012e611ec2565b81526020019081526020016000209080519060200190610f02929190612c74565b50610f1e610f0e6117e1565b610f1961012e611ec2565b611ed0565b600183610f2b9190613d2f565b6101326000868152602001908152602001600020819055506001610134600088815260200190815260200160002054610f649190613d85565b610134600088815260200190815260200160002081905550610f8761012e611eee565b610f8f6117e1565b73ffffffffffffffffffffffffffffffffffffffff167faf2fad1984d2c7abaa9300537cf9fe1bcfaf2d6226e4ffdf03522dbf3064808e83604051610fd49190612e7f565b60405180910390a250505050505050565b600060fc60009054906101000a900473ffffffffffffffffffffffffffffffffffffffff16905090565b611017611c2e565b600073ffffffffffffffffffffffffffffffffffffffff168173ffffffffffffffffffffffffffffffffffffffff161415611087576040517f08c379a000000000000000000000000000000000000000000000000000000000815260040161107e90613e05565b60405180910390fd5b8061012f60006101000a81548173ffffffffffffffffffffffffffffffffffffffff021916908373ffffffffffffffffffffffffffffffffffffffff16021790555050565b6060606680546110db906136f5565b80601f0160208091040260200160405190810160405280929190818152602001828054611107906136f5565b80156111545780601f1061112957610100808354040283529160200191611154565b820191906000526020600020905b81548152906001019060200180831161113757829003601f168201915b5050505050905090565b6111706111696117e1565b8383611f04565b5050565b61118561117f6117e1565b836118cc565b6111c4576040517f08c379a00000000000000000000000000000000000000000000000000000000081526004016111bb906138bd565b60405180910390fd5b6111d084848484612071565b50505050565b60008060019054906101000a900460ff161590508080156112075750600160008054906101000a900460ff1660ff16105b806112345750611216306120cd565b1580156112335750600160008054906101000a900460ff1660ff16145b5b611273576040517f08c379a000000000000000000000000000000000000000000000000000000000815260040161126a90613e97565b60405180910390fd5b60016000806101000a81548160ff021916908360ff16021790555080156112b0576001600060016101000a81548160ff0219169083151502179055505b6113246040518060400160405280600981526020017f4d696e7452616c6c7900000000000000000000000000000000000000000000008152506040518060400160405280600281526020017f4d520000000000000000000000000000000000000000000000000000000000008152506120f0565b61132c61214d565b611335826121a6565b801561138e5760008060016101000a81548160ff0219169083151502179055507f7f26b83ff96e1f2b6a682f133852f6798a09c465da95921460cefb384740249860016040516113859190613f09565b60405180910390a15b5050565b60606000610130600084815260200190815260200160002080546113b5906136f5565b80601f01602080910402602001604051908101604052809291908181526020018280546113e1906136f5565b801561142e5780601f106114035761010080835404028352916020019161142e565b820191906000526020600020905b81548152906001019060200180831161141157829003601f168201915b5050505050905080915050919050565b6000606a60008473ffffffffffffffffffffffffffffffffffffffff1673ffffffffffffffffffffffffffffffffffffffff16815260200190815260200160002060008373ffffffffffffffffffffffffffffffffffffffff1673ffffffffffffffffffffffffffffffffffffffff16815260200190815260200160002060009054906101000a900460ff16905092915050565b61012f60009054906101000a900473ffffffffffffffffffffffffffffffffffffffff1673ffffffffffffffffffffffffffffffffffffffff166115146117e1565b73ffffffffffffffffffffffffffffffffffffffff161461156a576040517f08c379a000000000000000000000000000000000000000000000000000000000815260040161156190613f70565b60405180910390fd5b826101346000868152602001908152602001600020819055508161013560008681526020019081526020016000208190555060005b8151811015611629578181815181106115bb576115ba613b45565b5b60200260200101516000015161013360006115f4888686815181106115e3576115e2613b45565b5b602002602001015160200151611e8f565b81526020019081526020016000209080519060200190611615929190612c74565b50808061162190613f90565b91505061159f565b5050505050565b611638611c2e565b600073ffffffffffffffffffffffffffffffffffffffff168173ffffffffffffffffffffffffffffffffffffffff1614156116a8576040517f08c379a000000000000000000000000000000000000000000000000000000000815260040161169f9061404b565b60405180910390fd5b6116b181611dc9565b50565b60007f80ac58cd000000000000000000000000000000000000000000000000000000007bffffffffffffffffffffffffffffffffffffffffffffffffffffffff1916827bffffffffffffffffffffffffffffffffffffffffffffffffffffffff1916148061177f57507f5b5e139f000000000000000000000000000000000000000000000000000000007bffffffffffffffffffffffffffffffffffffffffffffffffffffffff1916827bffffffffffffffffffffffffffffffffffffffffffffffffffffffff1916145b8061178f575061178e82612241565b5b9050919050565b61179f816122ab565b6117de576040517f08c379a00000000000000000000000000000000000000000000000000000000081526004016117d590613bc0565b60405180910390fd5b50565b60006117ec33610ad8565b1561180057601436033560601c905061180f565b611808612317565b9050611810565b5b90565b816069600083815260200190815260200160002060006101000a81548173ffffffffffffffffffffffffffffffffffffffff021916908373ffffffffffffffffffffffffffffffffffffffff160217905550808273ffffffffffffffffffffffffffffffffffffffff1661188683610b32565b73ffffffffffffffffffffffffffffffffffffffff167f8c5be1e5ebec7d5bd14f71427d1e84f3dd0314c0f7b2291e5b200ac8c7c3b92560405160405180910390a45050565b6000806118d883610b32565b90508073ffffffffffffffffffffffffffffffffffffffff168473ffffffffffffffffffffffffffffffffffffffff16148061191a5750611919818561143e565b5b8061195857508373ffffffffffffffffffffffffffffffffffffffff1661194084610680565b73ffffffffffffffffffffffffffffffffffffffff16145b91505092915050565b8273ffffffffffffffffffffffffffffffffffffffff1661198182610b32565b73ffffffffffffffffffffffffffffffffffffffff16146119d7576040517f08c379a00000000000000000000000000000000000000000000000000000000081526004016119ce906140dd565b60405180910390fd5b600073ffffffffffffffffffffffffffffffffffffffff168273ffffffffffffffffffffffffffffffffffffffff161415611a47576040517f08c379a0000000000000000000000000000000000000000000000000000000008152600401611a3e9061416f565b60405180910390fd5b611a52838383612349565b611a5d600082611813565b6001606860008573ffffffffffffffffffffffffffffffffffffffff1673ffffffffffffffffffffffffffffffffffffffff1681526020019081526020016000206000828254611aad9190613d85565b925050819055506001606860008473ffffffffffffffffffffffffffffffffffffffff1673ffffffffffffffffffffffffffffffffffffffff1681526020019081526020016000206000828254611b049190613d2f565b92505081905550816067600083815260200190815260200160002060006101000a81548173ffffffffffffffffffffffffffffffffffffffff021916908373ffffffffffffffffffffffffffffffffffffffff160217905550808273ffffffffffffffffffffffffffffffffffffffff168473ffffffffffffffffffffffffffffffffffffffff167fddf252ad1be2c89b69c2b068fc378daa952ba7f163c4a11628f55a4df523b3ef60405160405180910390a4611bc383838361245d565b505050565b60008083805190602001209050600081610135600086815260200190815260200160002054149050809250505092915050565b60008282604051602001611c109291906141f8565b60405160208183030381529060405280519060200120905092915050565b611c366117e1565b73ffffffffffffffffffffffffffffffffffffffff16611c54610fe5565b73ffffffffffffffffffffffffffffffffffffffff1614611caa576040517f08c379a0000000000000000000000000000000000000000000000000000000008152600401611ca190614270565b60405180910390fd5b565b6000611cb782610b32565b9050611cc581600084612349565b611cd0600083611813565b6001606860008373ffffffffffffffffffffffffffffffffffffffff1673ffffffffffffffffffffffffffffffffffffffff1681526020019081526020016000206000828254611d209190613d85565b925050819055506067600083815260200190815260200160002060006101000a81549073ffffffffffffffffffffffffffffffffffffffff021916905581600073ffffffffffffffffffffffffffffffffffffffff168273ffffffffffffffffffffffffffffffffffffffff167fddf252ad1be2c89b69c2b068fc378daa952ba7f163c4a11628f55a4df523b3ef60405160405180910390a4611dc58160008461245d565b5050565b600060fc60009054906101000a900473ffffffffffffffffffffffffffffffffffffffff1690508160fc60006101000a81548173ffffffffffffffffffffffffffffffffffffffff021916908373ffffffffffffffffffffffffffffffffffffffff1602179055508173ffffffffffffffffffffffffffffffffffffffff168173ffffffffffffffffffffffffffffffffffffffff167f8be0079c531659141344cd1fd0a4f28419497f9722a3daafe3b4186f6b6457e060405160405180910390a35050565b60008282604051602001611ea4929190614290565b60405160208183030381529060405280519060200120905092915050565b600081600001549050919050565b611eea828260405180602001604052806000815250612462565b5050565b6001816000016000828254019250508190555050565b8173ffffffffffffffffffffffffffffffffffffffff168373ffffffffffffffffffffffffffffffffffffffff161415611f73576040517f08c379a0000000000000000000000000000000000000000000000000000000008152600401611f6a90614308565b60405180910390fd5b80606a60008573ffffffffffffffffffffffffffffffffffffffff1673ffffffffffffffffffffffffffffffffffffffff16815260200190815260200160002060008473ffffffffffffffffffffffffffffffffffffffff1673ffffffffffffffffffffffffffffffffffffffff16815260200190815260200160002060006101000a81548160ff0219169083151502179055508173ffffffffffffffffffffffffffffffffffffffff168373ffffffffffffffffffffffffffffffffffffffff167f17307eab39ab6107e8899845ad3d59bd9653f200f220920489ca2b5937696c31836040516120649190612dcb565b60405180910390a3505050565b61207c848484611961565b612088848484846124bd565b6120c7576040517f08c379a00000000000000000000000000000000000000000000000000000000081526004016120be9061439a565b60405180910390fd5b50505050565b6000808273ffffffffffffffffffffffffffffffffffffffff163b119050919050565b600060019054906101000a900460ff1661213f576040517f08c379a00000000000000000000000000000000000000000000000000000000081526004016121369061442c565b60405180910390fd5b6121498282612654565b5050565b600060019054906101000a900460ff1661219c576040517f08c379a00000000000000000000000000000000000000000000000000000000081526004016121939061442c565b60405180910390fd5b6121a46126d5565b565b600060019054906101000a900460ff166121f5576040517f08c379a00000000000000000000000000000000000000000000000000000000081526004016121ec9061442c565b60405180910390fd5b6121fd612736565b8060c960006101000a81548173ffffffffffffffffffffffffffffffffffffffff021916908373ffffffffffffffffffffffffffffffffffffffff16021790555050565b60007f01ffc9a7000000000000000000000000000000000000000000000000000000007bffffffffffffffffffffffffffffffffffffffffffffffffffffffff1916827bffffffffffffffffffffffffffffffffffffffffffffffffffffffff1916149050919050565b60008073ffffffffffffffffffffffffffffffffffffffff166067600084815260200190815260200160002060009054906101000a900473ffffffffffffffffffffffffffffffffffffffff1673ffffffffffffffffffffffffffffffffffffffff1614159050919050565b600061232233610ad8565b1561233657601436033560601c9050612345565b61233e612787565b9050612346565b5b90565b61235483838361278f565b600073ffffffffffffffffffffffffffffffffffffffff168373ffffffffffffffffffffffffffffffffffffffff1614156123975761239281612794565b6123d6565b8173ffffffffffffffffffffffffffffffffffffffff168373ffffffffffffffffffffffffffffffffffffffff16146123d5576123d483826127dd565b5b5b600073ffffffffffffffffffffffffffffffffffffffff168273ffffffffffffffffffffffffffffffffffffffff161415612419576124148161294a565b612458565b8273ffffffffffffffffffffffffffffffffffffffff168273ffffffffffffffffffffffffffffffffffffffff1614612457576124568282612a1b565b5b5b505050565b505050565b61246c8383612a9a565b61247960008484846124bd565b6124b8576040517f08c379a00000000000000000000000000000000000000000000000000000000081526004016124af9061439a565b60405180910390fd5b505050565b60006124de8473ffffffffffffffffffffffffffffffffffffffff166120cd565b15612647578373ffffffffffffffffffffffffffffffffffffffff1663150b7a026125076117e1565b8786866040518563ffffffff1660e01b815260040161252994939291906144a1565b602060405180830381600087803b15801561254357600080fd5b505af192505050801561257457506040513d601f19601f820116820180604052508101906125719190614502565b60015b6125f7573d80600081146125a4576040519150601f19603f3d011682016040523d82523d6000602084013e6125a9565b606091505b506000815114156125ef576040517f08c379a00000000000000000000000000000000000000000000000000000000081526004016125e69061439a565b60405180910390fd5b805181602001fd5b63150b7a0260e01b7bffffffffffffffffffffffffffffffffffffffffffffffffffffffff1916817bffffffffffffffffffffffffffffffffffffffffffffffffffffffff19161491505061264c565b600190505b949350505050565b600060019054906101000a900460ff166126a3576040517f08c379a000000000000000000000000000000000000000000000000000000000815260040161269a9061442c565b60405180910390fd5b81606590805190602001906126b9929190612c74565b5080606690805190602001906126d0929190612c74565b505050565b600060019054906101000a900460ff16612724576040517f08c379a000000000000000000000000000000000000000000000000000000000815260040161271b9061442c565b60405180910390fd5b61273461272f6117e1565b611dc9565b565b600060019054906101000a900460ff16612785576040517f08c379a000000000000000000000000000000000000000000000000000000000815260040161277c9061442c565b60405180910390fd5b565b600033905090565b505050565b609980549050609a600083815260200190815260200160002081905550609981908060018154018082558091505060019003906000526020600020016000909190919091505550565b600060016127ea84610be4565b6127f49190613d85565b90506000609860008481526020019081526020016000205490508181146128d9576000609760008673ffffffffffffffffffffffffffffffffffffffff1673ffffffffffffffffffffffffffffffffffffffff168152602001908152602001600020600084815260200190815260200160002054905080609760008773ffffffffffffffffffffffffffffffffffffffff1673ffffffffffffffffffffffffffffffffffffffff168152602001908152602001600020600084815260200190815260200160002081905550816098600083815260200190815260200160002081905550505b6098600084815260200190815260200160002060009055609760008573ffffffffffffffffffffffffffffffffffffffff1673ffffffffffffffffffffffffffffffffffffffff16815260200190815260200160002060008381526020019081526020016000206000905550505050565b6000600160998054905061295e9190613d85565b90506000609a600084815260200190815260200160002054905060006099838154811061298e5761298d613b45565b5b9060005260206000200154905080609983815481106129b0576129af613b45565b5b906000526020600020018190555081609a600083815260200190815260200160002081905550609a60008581526020019081526020016000206000905560998054806129ff576129fe61452f565b5b6001900381819060005260206000200160009055905550505050565b6000612a2683610be4565b905081609760008573ffffffffffffffffffffffffffffffffffffffff1673ffffffffffffffffffffffffffffffffffffffff168152602001908152602001600020600083815260200190815260200160002081905550806098600084815260200190815260200160002081905550505050565b600073ffffffffffffffffffffffffffffffffffffffff168273ffffffffffffffffffffffffffffffffffffffff161415612b0a576040517f08c379a0000000000000000000000000000000000000000000000000000000008152600401612b01906145aa565b60405180910390fd5b612b13816122ab565b15612b53576040517f08c379a0000000000000000000000000000000000000000000000000000000008152600401612b4a90614616565b60405180910390fd5b612b5f60008383612349565b6001606860008473ffffffffffffffffffffffffffffffffffffffff1673ffffffffffffffffffffffffffffffffffffffff1681526020019081526020016000206000828254612baf9190613d2f565b92505081905550816067600083815260200190815260200160002060006101000a81548173ffffffffffffffffffffffffffffffffffffffff021916908373ffffffffffffffffffffffffffffffffffffffff160217905550808273ffffffffffffffffffffffffffffffffffffffff16600073ffffffffffffffffffffffffffffffffffffffff167fddf252ad1be2c89b69c2b068fc378daa952ba7f163c4a11628f55a4df523b3ef60405160405180910390a4612c706000838361245d565b5050565b828054612c80906136f5565b90600052602060002090601f016020900481019282612ca25760008555612ce9565b82601f10612cbb57805160ff1916838001178555612ce9565b82800160010185558215612ce9579182015b82811115612ce8578251825591602001919060010190612ccd565b5b509050612cf69190612cfa565b5090565b5b80821115612d13576000816000905550600101612cfb565b5090565b6000604051905090565b600080fd5b600080fd5b60007fffffffff0000000000000000000000000000000000000000000000000000000082169050919050565b612d6081612d2b565b8114612d6b57600080fd5b50565b600081359050612d7d81612d57565b92915050565b600060208284031215612d9957612d98612d21565b5b6000612da784828501612d6e565b91505092915050565b60008115159050919050565b612dc581612db0565b82525050565b6000602082019050612de06000830184612dbc565b92915050565b600081519050919050565b600082825260208201905092915050565b60005b83811015612e20578082015181840152602081019050612e05565b83811115612e2f576000848401525b50505050565b6000601f19601f8301169050919050565b6000612e5182612de6565b612e5b8185612df1565b9350612e6b818560208601612e02565b612e7481612e35565b840191505092915050565b60006020820190508181036000830152612e998184612e46565b905092915050565b6000819050919050565b612eb481612ea1565b8114612ebf57600080fd5b50565b600081359050612ed181612eab565b92915050565b600060208284031215612eed57612eec612d21565b5b6000612efb84828501612ec2565b91505092915050565b600073ffffffffffffffffffffffffffffffffffffffff82169050919050565b6000612f2f82612f04565b9050919050565b612f3f81612f24565b82525050565b6000602082019050612f5a6000830184612f36565b92915050565b612f6981612f24565b8114612f7457600080fd5b50565b600081359050612f8681612f60565b92915050565b60008060408385031215612fa357612fa2612d21565b5b6000612fb185828601612f77565b9250506020612fc285828601612ec2565b9150509250929050565b612fd581612ea1565b82525050565b6000602082019050612ff06000830184612fcc565b92915050565b60008060006060848603121561300f5761300e612d21565b5b600061301d86828701612f77565b935050602061302e86828701612f77565b925050604061303f86828701612ec2565b9150509250925092565b600080fd5b600080fd5b7f4e487b7100000000000000000000000000000000000000000000000000000000600052604160045260246000fd5b61308b82612e35565b810181811067ffffffffffffffff821117156130aa576130a9613053565b5b80604052505050565b60006130bd612d17565b90506130c98282613082565b919050565b600067ffffffffffffffff8211156130e9576130e8613053565b5b6130f282612e35565b9050602081019050919050565b82818337600083830152505050565b600061312161311c846130ce565b6130b3565b90508281526020810184848401111561313d5761313c61304e565b5b6131488482856130ff565b509392505050565b600082601f83011261316557613164613049565b5b813561317584826020860161310e565b91505092915050565b6000806040838503121561319557613194612d21565b5b60006131a385828601612ec2565b925050602083013567ffffffffffffffff8111156131c4576131c3612d26565b5b6131d085828601613150565b9150509250929050565b6000602082840312156131f0576131ef612d21565b5b60006131fe84828501612f77565b91505092915050565b6000806000606084860312156132205761321f612d21565b5b600061322e86828701612ec2565b935050602061323f86828701612ec2565b925050604084013567ffffffffffffffff8111156132605761325f612d26565b5b61326c86828701613150565b9150509250925092565b61327f81612db0565b811461328a57600080fd5b50565b60008135905061329c81613276565b92915050565b600080604083850312156132b9576132b8612d21565b5b60006132c785828601612f77565b92505060206132d88582860161328d565b9150509250929050565b600067ffffffffffffffff8211156132fd576132fc613053565b5b61330682612e35565b9050602081019050919050565b6000613326613321846132e2565b6130b3565b9050828152602081018484840111156133425761334161304e565b5b61334d8482856130ff565b509392505050565b600082601f83011261336a57613369613049565b5b813561337a848260208601613313565b91505092915050565b6000806000806080858703121561339d5761339c612d21565b5b60006133ab87828801612f77565b94505060206133bc87828801612f77565b93505060406133cd87828801612ec2565b925050606085013567ffffffffffffffff8111156133ee576133ed612d26565b5b6133fa87828801613355565b91505092959194509250565b600061341182612f24565b9050919050565b61342181613406565b811461342c57600080fd5b50565b60008135905061343e81613418565b92915050565b60006020828403121561345a57613459612d21565b5b60006134688482850161342f565b91505092915050565b6000806040838503121561348857613487612d21565b5b600061349685828601612f77565b92505060206134a785828601612f77565b9150509250929050565b6000819050919050565b6134c4816134b1565b81146134cf57600080fd5b50565b6000813590506134e1816134bb565b92915050565b600067ffffffffffffffff82111561350257613501613053565b5b602082029050602081019050919050565b600080fd5b600080fd5b600080fd5b60006040828403121561353857613537613518565b5b61354260406130b3565b9050600082013567ffffffffffffffff8111156135625761356161351d565b5b61356e84828501613150565b600083015250602061358284828501612ec2565b60208301525092915050565b60006135a161359c846134e7565b6130b3565b905080838252602082019050602084028301858111156135c4576135c3613513565b5b835b8181101561360b57803567ffffffffffffffff8111156135e9576135e8613049565b5b8086016135f68982613522565b855260208501945050506020810190506135c6565b5050509392505050565b600082601f83011261362a57613629613049565b5b813561363a84826020860161358e565b91505092915050565b6000806000806080858703121561365d5761365c612d21565b5b600061366b87828801612ec2565b945050602061367c87828801612ec2565b935050604061368d878288016134d2565b925050606085013567ffffffffffffffff8111156136ae576136ad612d26565b5b6136ba87828801613615565b91505092959194509250565b7f4e487b7100000000000000000000000000000000000000000000000000000000600052602260045260246000fd5b6000600282049050600182168061370d57607f821691505b60208210811415613721576137206136c6565b5b50919050565b7f4552433732313a20617070726f76616c20746f2063757272656e74206f776e6560008201527f7200000000000000000000000000000000000000000000000000000000000000602082015250565b6000613783602183612df1565b915061378e82613727565b604082019050919050565b600060208201905081810360008301526137b281613776565b9050919050565b7f4552433732313a20617070726f76652063616c6c6572206973206e6f7420746f60008201527f6b656e206f776e6572206e6f7220617070726f76656420666f7220616c6c0000602082015250565b6000613815603e83612df1565b9150613820826137b9565b604082019050919050565b6000602082019050818103600083015261384481613808565b9050919050565b7f4552433732313a2063616c6c6572206973206e6f7420746f6b656e206f776e6560008201527f72206e6f7220617070726f766564000000000000000000000000000000000000602082015250565b60006138a7602e83612df1565b91506138b28261384b565b604082019050919050565b600060208201905081810360008301526138d68161389a565b9050919050565b7f696e76616c696420736563726574207068726173650000000000000000000000600082015250565b6000613913601583612df1565b915061391e826138dd565b602082019050919050565b6000602082019050818103600083015261394281613906565b9050919050565b7f72656d61696e696e6720636f756e74206973207a65726f000000000000000000600082015250565b600061397f601783612df1565b915061398a82613949565b602082019050919050565b600060208201905081810360008301526139ae81613972565b9050919050565b7f616c7265616479206d696e746564000000000000000000000000000000000000600082015250565b60006139eb600e83612df1565b91506139f6826139b5565b602082019050919050565b60006020820190508181036000830152613a1a816139de565b9050919050565b7f455243373231456e756d657261626c653a206f776e657220696e646578206f7560008201527f74206f6620626f756e6473000000000000000000000000000000000000000000602082015250565b6000613a7d602b83612df1565b9150613a8882613a21565b604082019050919050565b60006020820190508181036000830152613aac81613a70565b9050919050565b7f455243373231456e756d657261626c653a20676c6f62616c20696e646578206f60008201527f7574206f6620626f756e64730000000000000000000000000000000000000000602082015250565b6000613b0f602c83612df1565b9150613b1a82613ab3565b604082019050919050565b60006020820190508181036000830152613b3e81613b02565b9050919050565b7f4e487b7100000000000000000000000000000000000000000000000000000000600052603260045260246000fd5b7f4552433732313a20696e76616c696420746f6b656e2049440000000000000000600082015250565b6000613baa601883612df1565b9150613bb582613b74565b602082019050919050565b60006020820190508181036000830152613bd981613b9d565b9050919050565b7f4552433732313a2061646472657373207a65726f206973206e6f74206120766160008201527f6c6964206f776e65720000000000000000000000000000000000000000000000602082015250565b6000613c3c602983612df1565b9150613c4782613be0565b604082019050919050565b60006020820190508181036000830152613c6b81613c2f565b9050919050565b600081905092915050565b50565b6000613c8d600083613c72565b9150613c9882613c7d565b600082019050919050565b6000613cae82613c80565b9150819050919050565b6000613cc382612de6565b613ccd8185613c72565b9350613cdd818560208601612e02565b80840191505092915050565b6000613cf58284613cb8565b915081905092915050565b7f4e487b7100000000000000000000000000000000000000000000000000000000600052601160045260246000fd5b6000613d3a82612ea1565b9150613d4583612ea1565b9250827fffffffffffffffffffffffffffffffffffffffffffffffffffffffffffffffff03821115613d7a57613d79613d00565b5b828201905092915050565b6000613d9082612ea1565b9150613d9b83612ea1565b925082821015613dae57613dad613d00565b5b828203905092915050565b7f6576656e74206d616e61676572206164647265737320697320626c616e6b0000600082015250565b6000613def601e83612df1565b9150613dfa82613db9565b602082019050919050565b60006020820190508181036000830152613e1e81613de2565b9050919050565b7f496e697469616c697a61626c653a20636f6e747261637420697320616c72656160008201527f647920696e697469616c697a6564000000000000000000000000000000000000602082015250565b6000613e81602e83612df1565b9150613e8c82613e25565b604082019050919050565b60006020820190508181036000830152613eb081613e74565b9050919050565b6000819050919050565b600060ff82169050919050565b6000819050919050565b6000613ef3613eee613ee984613eb7565b613ece565b613ec1565b9050919050565b613f0381613ed8565b82525050565b6000602082019050613f1e6000830184613efa565b92915050565b7f756e617574686f72697a65640000000000000000000000000000000000000000600082015250565b6000613f5a600c83612df1565b9150613f6582613f24565b602082019050919050565b60006020820190508181036000830152613f8981613f4d565b9050919050565b6000613f9b82612ea1565b91507fffffffffffffffffffffffffffffffffffffffffffffffffffffffffffffffff821415613fce57613fcd613d00565b5b600182019050919050565b7f4f776e61626c653a206e6577206f776e657220697320746865207a65726f206160008201527f6464726573730000000000000000000000000000000000000000000000000000602082015250565b6000614035602683612df1565b915061404082613fd9565b604082019050919050565b6000602082019050818103600083015261406481614028565b9050919050565b7f4552433732313a207472616e736665722066726f6d20696e636f72726563742060008201527f6f776e6572000000000000000000000000000000000000000000000000000000602082015250565b60006140c7602583612df1565b91506140d28261406b565b604082019050919050565b600060208201905081810360008301526140f6816140ba565b9050919050565b7f4552433732313a207472616e7366657220746f20746865207a65726f2061646460008201527f7265737300000000000000000000000000000000000000000000000000000000602082015250565b6000614159602483612df1565b9150614164826140fd565b604082019050919050565b600060208201905081810360008301526141888161414c565b9050919050565b60008160601b9050919050565b60006141a78261418f565b9050919050565b60006141b98261419c565b9050919050565b6141d16141cc82612f24565b6141ae565b82525050565b6000819050919050565b6141f26141ed82612ea1565b6141d7565b82525050565b600061420482856141c0565b60148201915061421482846141e1565b6020820191508190509392505050565b7f4f776e61626c653a2063616c6c6572206973206e6f7420746865206f776e6572600082015250565b600061425a602083612df1565b915061426582614224565b602082019050919050565b600060208201905081810360008301526142898161424d565b9050919050565b600061429c82856141e1565b6020820191506142ac82846141e1565b6020820191508190509392505050565b7f4552433732313a20617070726f766520746f2063616c6c657200000000000000600082015250565b60006142f2601983612df1565b91506142fd826142bc565b602082019050919050565b60006020820190508181036000830152614321816142e5565b9050919050565b7f4552433732313a207472616e7366657220746f206e6f6e20455243373231526560008201527f63656976657220696d706c656d656e7465720000000000000000000000000000602082015250565b6000614384603283612df1565b915061438f82614328565b604082019050919050565b600060208201905081810360008301526143b381614377565b9050919050565b7f496e697469616c697a61626c653a20636f6e7472616374206973206e6f74206960008201527f6e697469616c697a696e67000000000000000000000000000000000000000000602082015250565b6000614416602b83612df1565b9150614421826143ba565b604082019050919050565b6000602082019050818103600083015261444581614409565b9050919050565b600081519050919050565b600082825260208201905092915050565b60006144738261444c565b61447d8185614457565b935061448d818560208601612e02565b61449681612e35565b840191505092915050565b60006080820190506144b66000830187612f36565b6144c36020830186612f36565b6144d06040830185612fcc565b81810360608301526144e28184614468565b905095945050505050565b6000815190506144fc81612d57565b92915050565b60006020828403121561451857614517612d21565b5b6000614526848285016144ed565b91505092915050565b7f4e487b7100000000000000000000000000000000000000000000000000000000600052603160045260246000fd5b7f4552433732313a206d696e7420746f20746865207a65726f2061646472657373600082015250565b6000614594602083612df1565b915061459f8261455e565b602082019050919050565b600060208201905081810360008301526145c381614587565b9050919050565b7f4552433732313a20746f6b656e20616c7265616479206d696e74656400000000600082015250565b6000614600601c83612df1565b915061460b826145ca565b602082019050919050565b6000602082019050818103600083015261462f816145f3565b905091905056fea26469706673582212201c945293f61593a7f70ba24170ac066411347b199683ea9acb6e19b3db30153664736f6c63430008090033",
  "linkReferences": {},
  "deployedLinkReferences": {}
}