{
  "_format": "hh-sol-artifact-1",
  "contractName": "MintNFT",
  "sourceName": "contracts/MintNFT.sol",
  "abi": [
    {
      "anonymous": false,
      "inputs": [
        {
          "indexed": true,
          "internalType": "address",
          "name": "owner",
          "type": "address"
        },
        {
          "indexed": true,
          "internalType": "address",
          "name": "approved",
          "type": "address"
        },
        {
          "indexed": true,
          "internalType": "uint256",
          "name": "tokenId",
          "type": "uint256"
        }
      ],
      "name": "Approval",
      "type": "event"
    },
    {
      "anonymous": false,
      "inputs": [
        {
          "indexed": true,
          "internalType": "address",
          "name": "owner",
          "type": "address"
        },
        {
          "indexed": true,
          "internalType": "address",
          "name": "operator",
          "type": "address"
        },
        {
          "indexed": false,
          "internalType": "bool",
          "name": "approved",
          "type": "bool"
        }
      ],
      "name": "ApprovalForAll",
      "type": "event"
    },
    {
      "anonymous": false,
      "inputs": [
        {
          "indexed": false,
          "internalType": "uint8",
          "name": "version",
          "type": "uint8"
        }
      ],
      "name": "Initialized",
      "type": "event"
    },
    {
      "anonymous": false,
      "inputs": [
        {
          "indexed": true,
          "internalType": "address",
          "name": "holder",
          "type": "address"
        },
        {
          "indexed": false,
          "internalType": "string",
          "name": "url",
          "type": "string"
        }
      ],
      "name": "MintedNFTAttributeURL",
      "type": "event"
    },
    {
      "anonymous": false,
      "inputs": [
        {
          "indexed": true,
          "internalType": "address",
          "name": "previousOwner",
          "type": "address"
        },
        {
          "indexed": true,
          "internalType": "address",
          "name": "newOwner",
          "type": "address"
        }
      ],
      "name": "OwnershipTransferred",
      "type": "event"
    },
    {
      "anonymous": false,
      "inputs": [
        {
          "indexed": true,
          "internalType": "address",
          "name": "from",
          "type": "address"
        },
        {
          "indexed": true,
          "internalType": "address",
          "name": "to",
          "type": "address"
        },
        {
          "indexed": true,
          "internalType": "uint256",
          "name": "tokenId",
          "type": "uint256"
        }
      ],
      "name": "Transfer",
      "type": "event"
    },
    {
      "inputs": [
        {
          "internalType": "address",
          "name": "to",
          "type": "address"
        },
        {
          "internalType": "uint256",
          "name": "tokenId",
          "type": "uint256"
        }
      ],
      "name": "approve",
      "outputs": [],
      "stateMutability": "nonpayable",
      "type": "function"
    },
    {
      "inputs": [
        {
          "internalType": "address",
          "name": "owner",
          "type": "address"
        }
      ],
      "name": "balanceOf",
      "outputs": [
        {
          "internalType": "uint256",
          "name": "",
          "type": "uint256"
        }
      ],
      "stateMutability": "view",
      "type": "function"
    },
    {
      "inputs": [
        {
          "internalType": "uint256",
          "name": "tokenId",
          "type": "uint256"
        }
      ],
      "name": "burn",
      "outputs": [],
      "stateMutability": "nonpayable",
      "type": "function"
    },
    {
      "inputs": [
        {
          "internalType": "uint256",
          "name": "tokenId",
          "type": "uint256"
        }
      ],
      "name": "getApproved",
      "outputs": [
        {
          "internalType": "address",
          "name": "",
          "type": "address"
        }
      ],
      "stateMutability": "view",
      "type": "function"
    },
    {
      "inputs": [
        {
          "internalType": "uint256",
          "name": "_eventId",
          "type": "uint256"
        }
      ],
      "name": "getRemainingNFTCount",
      "outputs": [
        {
          "internalType": "uint256",
          "name": "",
          "type": "uint256"
        }
      ],
      "stateMutability": "view",
      "type": "function"
    },
    {
      "inputs": [
        {
          "internalType": "contract MinimalForwarderUpgradeable",
          "name": "trustedForwarder",
          "type": "address"
        }
      ],
      "name": "initialize",
      "outputs": [],
      "stateMutability": "nonpayable",
      "type": "function"
    },
    {
      "inputs": [
        {
          "internalType": "address",
          "name": "owner",
          "type": "address"
        },
        {
          "internalType": "address",
          "name": "operator",
          "type": "address"
        }
      ],
      "name": "isApprovedForAll",
      "outputs": [
        {
          "internalType": "bool",
          "name": "",
          "type": "bool"
        }
      ],
      "stateMutability": "view",
      "type": "function"
    },
    {
      "inputs": [
        {
          "internalType": "address",
          "name": "forwarder",
          "type": "address"
        }
      ],
      "name": "isTrustedForwarder",
      "outputs": [
        {
          "internalType": "bool",
          "name": "",
          "type": "bool"
        }
      ],
      "stateMutability": "view",
      "type": "function"
    },
    {
      "inputs": [
        {
          "internalType": "uint256",
          "name": "_groupId",
          "type": "uint256"
        },
        {
          "internalType": "uint256",
          "name": "_eventId",
          "type": "uint256"
        },
        {
          "internalType": "string",
          "name": "_secretPhrase",
          "type": "string"
        }
      ],
      "name": "mintParticipateNFT",
      "outputs": [],
      "stateMutability": "nonpayable",
      "type": "function"
    },
    {
      "inputs": [],
      "name": "name",
      "outputs": [
        {
          "internalType": "string",
          "name": "",
          "type": "string"
        }
      ],
      "stateMutability": "view",
      "type": "function"
    },
    {
      "inputs": [],
      "name": "owner",
      "outputs": [
        {
          "internalType": "address",
          "name": "",
          "type": "address"
        }
      ],
      "stateMutability": "view",
      "type": "function"
    },
    {
      "inputs": [
        {
          "internalType": "uint256",
          "name": "tokenId",
          "type": "uint256"
        }
      ],
      "name": "ownerOf",
      "outputs": [
        {
          "internalType": "address",
          "name": "",
          "type": "address"
        }
      ],
      "stateMutability": "view",
      "type": "function"
    },
    {
      "inputs": [],
      "name": "renounceOwnership",
      "outputs": [],
      "stateMutability": "nonpayable",
      "type": "function"
    },
    {
      "inputs": [
        {
          "internalType": "address",
          "name": "from",
          "type": "address"
        },
        {
          "internalType": "address",
          "name": "to",
          "type": "address"
        },
        {
          "internalType": "uint256",
          "name": "tokenId",
          "type": "uint256"
        }
      ],
      "name": "safeTransferFrom",
      "outputs": [],
      "stateMutability": "nonpayable",
      "type": "function"
    },
    {
      "inputs": [
        {
          "internalType": "address",
          "name": "from",
          "type": "address"
        },
        {
          "internalType": "address",
          "name": "to",
          "type": "address"
        },
        {
          "internalType": "uint256",
          "name": "tokenId",
          "type": "uint256"
        },
        {
          "internalType": "bytes",
          "name": "data",
          "type": "bytes"
        }
      ],
      "name": "safeTransferFrom",
      "outputs": [],
      "stateMutability": "nonpayable",
      "type": "function"
    },
    {
      "inputs": [
        {
          "internalType": "address",
          "name": "operator",
          "type": "address"
        },
        {
          "internalType": "bool",
          "name": "approved",
          "type": "bool"
        }
      ],
      "name": "setApprovalForAll",
      "outputs": [],
      "stateMutability": "nonpayable",
      "type": "function"
    },
    {
      "inputs": [
        {
          "internalType": "uint256",
          "name": "_eventId",
          "type": "uint256"
        },
        {
          "internalType": "uint256",
          "name": "_mintLimit",
          "type": "uint256"
        },
        {
          "internalType": "bytes32",
          "name": "_secretPhrase",
          "type": "bytes32"
        },
        {
          "components": [
            {
              "internalType": "string",
              "name": "metaDataURL",
              "type": "string"
            },
            {
              "internalType": "uint256",
              "name": "requiredParticipateCount",
              "type": "uint256"
            }
          ],
          "internalType": "struct MintNFT.NFTAttribute[]",
          "name": "attributes",
          "type": "tuple[]"
        }
      ],
      "name": "setEventInfo",
      "outputs": [],
      "stateMutability": "nonpayable",
      "type": "function"
    },
    {
      "inputs": [
        {
          "internalType": "address",
          "name": "_eventManagerAddr",
          "type": "address"
        }
      ],
      "name": "setEventManagerAddr",
      "outputs": [],
      "stateMutability": "nonpayable",
      "type": "function"
    },
    {
      "inputs": [
        {
          "internalType": "bytes4",
          "name": "interfaceId",
          "type": "bytes4"
        }
      ],
      "name": "supportsInterface",
      "outputs": [
        {
          "internalType": "bool",
          "name": "",
          "type": "bool"
        }
      ],
      "stateMutability": "view",
      "type": "function"
    },
    {
      "inputs": [],
      "name": "symbol",
      "outputs": [
        {
          "internalType": "string",
          "name": "",
          "type": "string"
        }
      ],
      "stateMutability": "view",
      "type": "function"
    },
    {
      "inputs": [
        {
          "internalType": "uint256",
          "name": "index",
          "type": "uint256"
        }
      ],
      "name": "tokenByIndex",
      "outputs": [
        {
          "internalType": "uint256",
          "name": "",
          "type": "uint256"
        }
      ],
      "stateMutability": "view",
      "type": "function"
    },
    {
      "inputs": [
        {
          "internalType": "address",
          "name": "owner",
          "type": "address"
        },
        {
          "internalType": "uint256",
          "name": "index",
          "type": "uint256"
        }
      ],
      "name": "tokenOfOwnerByIndex",
      "outputs": [
        {
          "internalType": "uint256",
          "name": "",
          "type": "uint256"
        }
      ],
      "stateMutability": "view",
      "type": "function"
    },
    {
      "inputs": [
        {
          "internalType": "uint256",
          "name": "_tokenId",
          "type": "uint256"
        }
      ],
      "name": "tokenURI",
      "outputs": [
        {
          "internalType": "string",
          "name": "",
          "type": "string"
        }
      ],
      "stateMutability": "view",
      "type": "function"
    },
    {
      "inputs": [],
      "name": "totalSupply",
      "outputs": [
        {
          "internalType": "uint256",
          "name": "",
          "type": "uint256"
        }
      ],
      "stateMutability": "view",
      "type": "function"
    },
    {
      "inputs": [
        {
          "internalType": "address",
          "name": "from",
          "type": "address"
        },
        {
          "internalType": "address",
          "name": "to",
          "type": "address"
        },
        {
          "internalType": "uint256",
          "name": "tokenId",
          "type": "uint256"
        }
      ],
      "name": "transferFrom",
      "outputs": [],
      "stateMutability": "nonpayable",
      "type": "function"
    },
    {
      "inputs": [
        {
          "internalType": "address",
          "name": "newOwner",
          "type": "address"
        }
      ],
      "name": "transferOwnership",
      "outputs": [],
      "stateMutability": "nonpayable",
      "type": "function"
    }
  ],
  "bytecode": "0x608060405234801561001057600080fd5b506145ff806100206000396000f3fe608060405234801561001057600080fd5b506004361061018e5760003560e01c806370a08231116100de578063a22cb46511610097578063c87b56dd11610071578063c87b56dd14610491578063e985e9c5146104c1578063ef3ad9eb146104f1578063f2fde38b1461050d5761018e565b8063a22cb4651461043d578063b88d4fde14610459578063c4d66de8146104755761018e565b806370a082311461038f578063715018a6146103bf57806372746a8d146103c95780638da5cb5b146103e55780639041e3f41461040357806395d89b411461041f5761018e565b80632f745c591161014b5780634f6ccce7116101255780634f6ccce7146102cf5780634ffc9f4b146102ff578063572b6c051461032f5780636352211e1461035f5761018e565b80632f745c591461026757806342842e0e1461029757806342966c68146102b35761018e565b806301ffc9a71461019357806306fdde03146101c3578063081812fc146101e1578063095ea7b31461021157806318160ddd1461022d57806323b872dd1461024b575b600080fd5b6101ad60048036038101906101a89190612d72565b610529565b6040516101ba9190612dba565b60405180910390f35b6101cb6105a3565b6040516101d89190612e6e565b60405180910390f35b6101fb60048036038101906101f69190612ec6565b610635565b6040516102089190612f34565b60405180910390f35b61022b60048036038101906102269190612f7b565b61067b565b005b610235610793565b6040516102429190612fca565b60405180910390f35b61026560048036038101906102609190612fe5565b6107a0565b005b610281600480360381019061027c9190612f7b565b610800565b60405161028e9190612fca565b60405180910390f35b6102b160048036038101906102ac9190612fe5565b6108a5565b005b6102cd60048036038101906102c89190612ec6565b6108c5565b005b6102e960048036038101906102e49190612ec6565b6108d9565b6040516102f69190612fca565b60405180910390f35b61031960048036038101906103149190612ec6565b61094a565b6040516103269190612fca565b60405180910390f35b61034960048036038101906103449190613038565b610968565b6040516103569190612dba565b60405180910390f35b61037960048036038101906103749190612ec6565b6109c2565b6040516103869190612f34565b60405180910390f35b6103a960048036038101906103a49190613038565b610a74565b6040516103b69190612fca565b60405180910390f35b6103c7610b2c565b005b6103e360048036038101906103de919061319a565b610b40565b005b6103ed610f79565b6040516103fa9190612f34565b60405180910390f35b61041d60048036038101906104189190613038565b610fa3565b005b610427611060565b6040516104349190612e6e565b60405180910390f35b61045760048036038101906104529190613235565b6110f2565b005b610473600480360381019061046e9190613316565b611108565b005b61048f600480360381019061048a91906133d7565b61116a565b005b6104ab60048036038101906104a69190612ec6565b611326565b6040516104b89190612e6e565b60405180910390f35b6104db60048036038101906104d69190613404565b6113d2565b6040516104e89190612dba565b60405180910390f35b61050b600480360381019061050691906135d6565b611466565b005b61052760048036038101906105229190613038565b6115c4565b005b60007f780e9d63000000000000000000000000000000000000000000000000000000007bffffffffffffffffffffffffffffffffffffffffffffffffffffffff1916827bffffffffffffffffffffffffffffffffffffffffffffffffffffffff1916148061059c575061059b82611648565b5b9050919050565b6060606580546105b290613688565b80601f01602080910402602001604051908101604052809291908181526020018280546105de90613688565b801561062b5780601f106106005761010080835404028352916020019161062b565b820191906000526020600020905b81548152906001019060200180831161060e57829003601f168201915b5050505050905090565b60006106408261172a565b6069600083815260200190815260200160002060009054906101000a900473ffffffffffffffffffffffffffffffffffffffff169050919050565b6000610686826109c2565b90508073ffffffffffffffffffffffffffffffffffffffff168373ffffffffffffffffffffffffffffffffffffffff1614156106f7576040517f08c379a00000000000000000000000000000000000000000000000000000000081526004016106ee9061372c565b60405180910390fd5b8073ffffffffffffffffffffffffffffffffffffffff16610716611775565b73ffffffffffffffffffffffffffffffffffffffff16148061074557506107448161073f611775565b6113d2565b5b610784576040517f08c379a000000000000000000000000000000000000000000000000000000000815260040161077b906137be565b60405180910390fd5b61078e83836117a7565b505050565b6000609980549050905090565b6107b16107ab611775565b82611860565b6107f0576040517f08c379a00000000000000000000000000000000000000000000000000000000081526004016107e790613850565b60405180910390fd5b6107fb8383836118f5565b505050565b600061080b83610a74565b821061084c576040517f08c379a0000000000000000000000000000000000000000000000000000000008152600401610843906138e2565b60405180910390fd5b609760008473ffffffffffffffffffffffffffffffffffffffff1673ffffffffffffffffffffffffffffffffffffffff168152602001908152602001600020600083815260200190815260200160002054905092915050565b6108c083838360405180602001604052806000815250611108565b505050565b6108cd611b5c565b6108d681611bda565b50565b60006108e3610793565b8210610924576040517f08c379a000000000000000000000000000000000000000000000000000000000815260040161091b90613974565b60405180910390fd5b6099828154811061093857610937613994565b5b90600052602060002001549050919050565b60006101346000838152602001908152602001600020549050919050565b600060fb60009054906101000a900473ffffffffffffffffffffffffffffffffffffffff1673ffffffffffffffffffffffffffffffffffffffff168273ffffffffffffffffffffffffffffffffffffffff16149050919050565b6000806067600084815260200190815260200160002060009054906101000a900473ffffffffffffffffffffffffffffffffffffffff169050600073ffffffffffffffffffffffffffffffffffffffff168173ffffffffffffffffffffffffffffffffffffffff161415610a6b576040517f08c379a0000000000000000000000000000000000000000000000000000000008152600401610a6290613a0f565b60405180910390fd5b80915050919050565b60008073ffffffffffffffffffffffffffffffffffffffff168273ffffffffffffffffffffffffffffffffffffffff161415610ae5576040517f08c379a0000000000000000000000000000000000000000000000000000000008152600401610adc90613aa1565b60405180910390fd5b606860008373ffffffffffffffffffffffffffffffffffffffff1673ffffffffffffffffffffffffffffffffffffffff168152602001908152602001600020549050919050565b610b34611b5c565b610b3e6000611cf7565b565b610b4a8183611dbd565b610b89576040517f08c379a0000000000000000000000000000000000000000000000000000000008152600401610b8090613b0d565b60405180910390fd5b60006101346000848152602001908152602001600020541415610be1576040517f08c379a0000000000000000000000000000000000000000000000000000000008152600401610bd890613b79565b60405180910390fd5b6000610bf4610bee611775565b84611df0565b90506000610131600083815260200190815260200160002060009054906101000a900460ff1690508015610c5d576040517f08c379a0000000000000000000000000000000000000000000000000000000008152600401610c5490613be5565b60405180910390fd5b6001610131600084815260200190815260200160002060006101000a81548160ff0219169083151502179055506000610c9d610c97611775565b87611df0565b90506000610132600083815260200190815260200160002054905060006101336000610cca896000611e23565b81526020019081526020016000208054610ce390613688565b80601f0160208091040260200160405190810160405280929190818152602001828054610d0f90613688565b8015610d5c5780601f10610d3157610100808354040283529160200191610d5c565b820191906000526020600020905b815481529060010190602001808311610d3f57829003601f168201915b5050505050905060006101336000610d748a86611e23565b81526020019081526020016000208054610d8d90613688565b80601f0160208091040260200160405190810160405280929190818152602001828054610db990613688565b8015610e065780601f10610ddb57610100808354040283529160200191610e06565b820191906000526020600020905b815481529060010190602001808311610de957829003601f168201915b50505050509050604051602001610e1c90613c36565b6040516020818303038152906040528051906020012081604051602001610e439190613c7c565b6040516020818303038152906040528051906020012014610e62578091505b816101306000610e7361012e611e56565b81526020019081526020016000209080519060200190610e94929190612c63565b50610eb0610ea0611775565b610eab61012e611e56565b611e64565b600183610ebd9190613cc2565b610132600086815260200190815260200160002081905550600161013460008a815260200190815260200160002054610ef69190613d18565b61013460008a815260200190815260200160002081905550610f1961012e611e82565b610f21611775565b73ffffffffffffffffffffffffffffffffffffffff167faf2fad1984d2c7abaa9300537cf9fe1bcfaf2d6226e4ffdf03522dbf3064808e83604051610f669190612e6e565b60405180910390a2505050505050505050565b600060c960009054906101000a900473ffffffffffffffffffffffffffffffffffffffff16905090565b610fab611b5c565b600073ffffffffffffffffffffffffffffffffffffffff168173ffffffffffffffffffffffffffffffffffffffff16141561101b576040517f08c379a000000000000000000000000000000000000000000000000000000000815260040161101290613d98565b60405180910390fd5b8061012f60006101000a81548173ffffffffffffffffffffffffffffffffffffffff021916908373ffffffffffffffffffffffffffffffffffffffff16021790555050565b60606066805461106f90613688565b80601f016020809104026020016040519081016040528092919081815260200182805461109b90613688565b80156110e85780601f106110bd576101008083540402835291602001916110e8565b820191906000526020600020905b8154815290600101906020018083116110cb57829003601f168201915b5050505050905090565b6111046110fd611775565b8383611e98565b5050565b611119611113611775565b83611860565b611158576040517f08c379a000000000000000000000000000000000000000000000000000000000815260040161114f90613850565b60405180910390fd5b61116484848484612005565b50505050565b60008060019054906101000a900460ff1615905080801561119b5750600160008054906101000a900460ff1660ff16105b806111c857506111aa30612061565b1580156111c75750600160008054906101000a900460ff1660ff16145b5b611207576040517f08c379a00000000000000000000000000000000000000000000000000000000081526004016111fe90613e2a565b60405180910390fd5b60016000806101000a81548160ff021916908360ff1602179055508015611244576001600060016101000a81548160ff0219169083151502179055505b6112b86040518060400160405280600981526020017f4d696e7452616c6c7900000000000000000000000000000000000000000000008152506040518060400160405280600281526020017f4d52000000000000000000000000000000000000000000000000000000000000815250612084565b6112c06120e1565b6112c98261213a565b80156113225760008060016101000a81548160ff0219169083151502179055507f7f26b83ff96e1f2b6a682f133852f6798a09c465da95921460cefb384740249860016040516113199190613e9c565b60405180910390a15b5050565b606060006101306000848152602001908152602001600020805461134990613688565b80601f016020809104026020016040519081016040528092919081815260200182805461137590613688565b80156113c25780601f10611397576101008083540402835291602001916113c2565b820191906000526020600020905b8154815290600101906020018083116113a557829003601f168201915b5050505050905080915050919050565b6000606a60008473ffffffffffffffffffffffffffffffffffffffff1673ffffffffffffffffffffffffffffffffffffffff16815260200190815260200160002060008373ffffffffffffffffffffffffffffffffffffffff1673ffffffffffffffffffffffffffffffffffffffff16815260200190815260200160002060009054906101000a900460ff16905092915050565b61012f60009054906101000a900473ffffffffffffffffffffffffffffffffffffffff1673ffffffffffffffffffffffffffffffffffffffff166114a8611775565b73ffffffffffffffffffffffffffffffffffffffff16146114fe576040517f08c379a00000000000000000000000000000000000000000000000000000000081526004016114f590613f03565b60405180910390fd5b826101346000868152602001908152602001600020819055508161013560008681526020019081526020016000208190555060005b81518110156115bd5781818151811061154f5761154e613994565b5b60200260200101516000015161013360006115888886868151811061157757611576613994565b5b602002602001015160200151611e23565b815260200190815260200160002090805190602001906115a9929190612c63565b5080806115b590613f23565b915050611533565b5050505050565b6115cc611b5c565b600073ffffffffffffffffffffffffffffffffffffffff168173ffffffffffffffffffffffffffffffffffffffff16141561163c576040517f08c379a000000000000000000000000000000000000000000000000000000000815260040161163390613fde565b60405180910390fd5b61164581611cf7565b50565b60007f80ac58cd000000000000000000000000000000000000000000000000000000007bffffffffffffffffffffffffffffffffffffffffffffffffffffffff1916827bffffffffffffffffffffffffffffffffffffffffffffffffffffffff1916148061171357507f5b5e139f000000000000000000000000000000000000000000000000000000007bffffffffffffffffffffffffffffffffffffffffffffffffffffffff1916827bffffffffffffffffffffffffffffffffffffffffffffffffffffffff1916145b8061172357506117228261219d565b5b9050919050565b61173381612207565b611772576040517f08c379a000000000000000000000000000000000000000000000000000000000815260040161176990613a0f565b60405180910390fd5b50565b600061178033610968565b1561179457601436033560601c90506117a3565b61179c612273565b90506117a4565b5b90565b816069600083815260200190815260200160002060006101000a81548173ffffffffffffffffffffffffffffffffffffffff021916908373ffffffffffffffffffffffffffffffffffffffff160217905550808273ffffffffffffffffffffffffffffffffffffffff1661181a836109c2565b73ffffffffffffffffffffffffffffffffffffffff167f8c5be1e5ebec7d5bd14f71427d1e84f3dd0314c0f7b2291e5b200ac8c7c3b92560405160405180910390a45050565b60008061186c836109c2565b90508073ffffffffffffffffffffffffffffffffffffffff168473ffffffffffffffffffffffffffffffffffffffff1614806118ae57506118ad81856113d2565b5b806118ec57508373ffffffffffffffffffffffffffffffffffffffff166118d484610635565b73ffffffffffffffffffffffffffffffffffffffff16145b91505092915050565b8273ffffffffffffffffffffffffffffffffffffffff16611915826109c2565b73ffffffffffffffffffffffffffffffffffffffff161461196b576040517f08c379a000000000000000000000000000000000000000000000000000000000815260040161196290614070565b60405180910390fd5b600073ffffffffffffffffffffffffffffffffffffffff168273ffffffffffffffffffffffffffffffffffffffff1614156119db576040517f08c379a00000000000000000000000000000000000000000000000000000000081526004016119d290614102565b60405180910390fd5b6119e68383836122a5565b6119f16000826117a7565b6001606860008573ffffffffffffffffffffffffffffffffffffffff1673ffffffffffffffffffffffffffffffffffffffff1681526020019081526020016000206000828254611a419190613d18565b925050819055506001606860008473ffffffffffffffffffffffffffffffffffffffff1673ffffffffffffffffffffffffffffffffffffffff1681526020019081526020016000206000828254611a989190613cc2565b92505081905550816067600083815260200190815260200160002060006101000a81548173ffffffffffffffffffffffffffffffffffffffff021916908373ffffffffffffffffffffffffffffffffffffffff160217905550808273ffffffffffffffffffffffffffffffffffffffff168473ffffffffffffffffffffffffffffffffffffffff167fddf252ad1be2c89b69c2b068fc378daa952ba7f163c4a11628f55a4df523b3ef60405160405180910390a4611b578383836123b9565b505050565b611b64611775565b73ffffffffffffffffffffffffffffffffffffffff16611b82610f79565b73ffffffffffffffffffffffffffffffffffffffff1614611bd8576040517f08c379a0000000000000000000000000000000000000000000000000000000008152600401611bcf9061416e565b60405180910390fd5b565b6000611be5826109c2565b9050611bf3816000846122a5565b611bfe6000836117a7565b6001606860008373ffffffffffffffffffffffffffffffffffffffff1673ffffffffffffffffffffffffffffffffffffffff1681526020019081526020016000206000828254611c4e9190613d18565b925050819055506067600083815260200190815260200160002060006101000a81549073ffffffffffffffffffffffffffffffffffffffff021916905581600073ffffffffffffffffffffffffffffffffffffffff168273ffffffffffffffffffffffffffffffffffffffff167fddf252ad1be2c89b69c2b068fc378daa952ba7f163c4a11628f55a4df523b3ef60405160405180910390a4611cf3816000846123b9565b5050565b600060c960009054906101000a900473ffffffffffffffffffffffffffffffffffffffff1690508160c960006101000a81548173ffffffffffffffffffffffffffffffffffffffff021916908373ffffffffffffffffffffffffffffffffffffffff1602179055508173ffffffffffffffffffffffffffffffffffffffff168173ffffffffffffffffffffffffffffffffffffffff167f8be0079c531659141344cd1fd0a4f28419497f9722a3daafe3b4186f6b6457e060405160405180910390a35050565b60008083805190602001209050600081610135600086815260200190815260200160002054149050809250505092915050565b60008282604051602001611e059291906141f7565b60405160208183030381529060405280519060200120905092915050565b60008282604051602001611e38929190614223565b60405160208183030381529060405280519060200120905092915050565b600081600001549050919050565b611e7e8282604051806020016040528060008152506123be565b5050565b6001816000016000828254019250508190555050565b8173ffffffffffffffffffffffffffffffffffffffff168373ffffffffffffffffffffffffffffffffffffffff161415611f07576040517f08c379a0000000000000000000000000000000000000000000000000000000008152600401611efe9061429b565b60405180910390fd5b80606a60008573ffffffffffffffffffffffffffffffffffffffff1673ffffffffffffffffffffffffffffffffffffffff16815260200190815260200160002060008473ffffffffffffffffffffffffffffffffffffffff1673ffffffffffffffffffffffffffffffffffffffff16815260200190815260200160002060006101000a81548160ff0219169083151502179055508173ffffffffffffffffffffffffffffffffffffffff168373ffffffffffffffffffffffffffffffffffffffff167f17307eab39ab6107e8899845ad3d59bd9653f200f220920489ca2b5937696c3183604051611ff89190612dba565b60405180910390a3505050565b6120108484846118f5565b61201c84848484612419565b61205b576040517f08c379a00000000000000000000000000000000000000000000000000000000081526004016120529061432d565b60405180910390fd5b50505050565b6000808273ffffffffffffffffffffffffffffffffffffffff163b119050919050565b600060019054906101000a900460ff166120d3576040517f08c379a00000000000000000000000000000000000000000000000000000000081526004016120ca906143bf565b60405180910390fd5b6120dd82826125b0565b5050565b600060019054906101000a900460ff16612130576040517f08c379a0000000000000000000000000000000000000000000000000000000008152600401612127906143bf565b60405180910390fd5b612138612631565b565b600060019054906101000a900460ff16612189576040517f08c379a0000000000000000000000000000000000000000000000000000000008152600401612180906143bf565b60405180910390fd5b612191612692565b61219a816126e3565b50565b60007f01ffc9a7000000000000000000000000000000000000000000000000000000007bffffffffffffffffffffffffffffffffffffffffffffffffffffffff1916827bffffffffffffffffffffffffffffffffffffffffffffffffffffffff1916149050919050565b60008073ffffffffffffffffffffffffffffffffffffffff166067600084815260200190815260200160002060009054906101000a900473ffffffffffffffffffffffffffffffffffffffff1673ffffffffffffffffffffffffffffffffffffffff1614159050919050565b600061227e33610968565b1561229257601436033560601c90506122a1565b61229a612776565b90506122a2565b5b90565b6122b083838361277e565b600073ffffffffffffffffffffffffffffffffffffffff168373ffffffffffffffffffffffffffffffffffffffff1614156122f3576122ee81612783565b612332565b8173ffffffffffffffffffffffffffffffffffffffff168373ffffffffffffffffffffffffffffffffffffffff16146123315761233083826127cc565b5b5b600073ffffffffffffffffffffffffffffffffffffffff168273ffffffffffffffffffffffffffffffffffffffff1614156123755761237081612939565b6123b4565b8273ffffffffffffffffffffffffffffffffffffffff168273ffffffffffffffffffffffffffffffffffffffff16146123b3576123b28282612a0a565b5b5b505050565b505050565b6123c88383612a89565b6123d56000848484612419565b612414576040517f08c379a000000000000000000000000000000000000000000000000000000000815260040161240b9061432d565b60405180910390fd5b505050565b600061243a8473ffffffffffffffffffffffffffffffffffffffff16612061565b156125a3578373ffffffffffffffffffffffffffffffffffffffff1663150b7a02612463611775565b8786866040518563ffffffff1660e01b81526004016124859493929190614434565b602060405180830381600087803b15801561249f57600080fd5b505af19250505080156124d057506040513d601f19601f820116820180604052508101906124cd9190614495565b60015b612553573d8060008114612500576040519150601f19603f3d011682016040523d82523d6000602084013e612505565b606091505b5060008151141561254b576040517f08c379a00000000000000000000000000000000000000000000000000000000081526004016125429061432d565b60405180910390fd5b805181602001fd5b63150b7a0260e01b7bffffffffffffffffffffffffffffffffffffffffffffffffffffffff1916817bffffffffffffffffffffffffffffffffffffffffffffffffffffffff1916149150506125a8565b600190505b949350505050565b600060019054906101000a900460ff166125ff576040517f08c379a00000000000000000000000000000000000000000000000000000000081526004016125f6906143bf565b60405180910390fd5b8160659080519060200190612615929190612c63565b50806066908051906020019061262c929190612c63565b505050565b600060019054906101000a900460ff16612680576040517f08c379a0000000000000000000000000000000000000000000000000000000008152600401612677906143bf565b60405180910390fd5b61269061268b611775565b611cf7565b565b600060019054906101000a900460ff166126e1576040517f08c379a00000000000000000000000000000000000000000000000000000000081526004016126d8906143bf565b60405180910390fd5b565b600060019054906101000a900460ff16612732576040517f08c379a0000000000000000000000000000000000000000000000000000000008152600401612729906143bf565b60405180910390fd5b8060fb60006101000a81548173ffffffffffffffffffffffffffffffffffffffff021916908373ffffffffffffffffffffffffffffffffffffffff16021790555050565b600033905090565b505050565b609980549050609a600083815260200190815260200160002081905550609981908060018154018082558091505060019003906000526020600020016000909190919091505550565b600060016127d984610a74565b6127e39190613d18565b90506000609860008481526020019081526020016000205490508181146128c8576000609760008673ffffffffffffffffffffffffffffffffffffffff1673ffffffffffffffffffffffffffffffffffffffff168152602001908152602001600020600084815260200190815260200160002054905080609760008773ffffffffffffffffffffffffffffffffffffffff1673ffffffffffffffffffffffffffffffffffffffff168152602001908152602001600020600084815260200190815260200160002081905550816098600083815260200190815260200160002081905550505b6098600084815260200190815260200160002060009055609760008573ffffffffffffffffffffffffffffffffffffffff1673ffffffffffffffffffffffffffffffffffffffff16815260200190815260200160002060008381526020019081526020016000206000905550505050565b6000600160998054905061294d9190613d18565b90506000609a600084815260200190815260200160002054905060006099838154811061297d5761297c613994565b5b90600052602060002001549050806099838154811061299f5761299e613994565b5b906000526020600020018190555081609a600083815260200190815260200160002081905550609a60008581526020019081526020016000206000905560998054806129ee576129ed6144c2565b5b6001900381819060005260206000200160009055905550505050565b6000612a1583610a74565b905081609760008573ffffffffffffffffffffffffffffffffffffffff1673ffffffffffffffffffffffffffffffffffffffff168152602001908152602001600020600083815260200190815260200160002081905550806098600084815260200190815260200160002081905550505050565b600073ffffffffffffffffffffffffffffffffffffffff168273ffffffffffffffffffffffffffffffffffffffff161415612af9576040517f08c379a0000000000000000000000000000000000000000000000000000000008152600401612af09061453d565b60405180910390fd5b612b0281612207565b15612b42576040517f08c379a0000000000000000000000000000000000000000000000000000000008152600401612b39906145a9565b60405180910390fd5b612b4e600083836122a5565b6001606860008473ffffffffffffffffffffffffffffffffffffffff1673ffffffffffffffffffffffffffffffffffffffff1681526020019081526020016000206000828254612b9e9190613cc2565b92505081905550816067600083815260200190815260200160002060006101000a81548173ffffffffffffffffffffffffffffffffffffffff021916908373ffffffffffffffffffffffffffffffffffffffff160217905550808273ffffffffffffffffffffffffffffffffffffffff16600073ffffffffffffffffffffffffffffffffffffffff167fddf252ad1be2c89b69c2b068fc378daa952ba7f163c4a11628f55a4df523b3ef60405160405180910390a4612c5f600083836123b9565b5050565b828054612c6f90613688565b90600052602060002090601f016020900481019282612c915760008555612cd8565b82601f10612caa57805160ff1916838001178555612cd8565b82800160010185558215612cd8579182015b82811115612cd7578251825591602001919060010190612cbc565b5b509050612ce59190612ce9565b5090565b5b80821115612d02576000816000905550600101612cea565b5090565b6000604051905090565b600080fd5b600080fd5b60007fffffffff0000000000000000000000000000000000000000000000000000000082169050919050565b612d4f81612d1a565b8114612d5a57600080fd5b50565b600081359050612d6c81612d46565b92915050565b600060208284031215612d8857612d87612d10565b5b6000612d9684828501612d5d565b91505092915050565b60008115159050919050565b612db481612d9f565b82525050565b6000602082019050612dcf6000830184612dab565b92915050565b600081519050919050565b600082825260208201905092915050565b60005b83811015612e0f578082015181840152602081019050612df4565b83811115612e1e576000848401525b50505050565b6000601f19601f8301169050919050565b6000612e4082612dd5565b612e4a8185612de0565b9350612e5a818560208601612df1565b612e6381612e24565b840191505092915050565b60006020820190508181036000830152612e888184612e35565b905092915050565b6000819050919050565b612ea381612e90565b8114612eae57600080fd5b50565b600081359050612ec081612e9a565b92915050565b600060208284031215612edc57612edb612d10565b5b6000612eea84828501612eb1565b91505092915050565b600073ffffffffffffffffffffffffffffffffffffffff82169050919050565b6000612f1e82612ef3565b9050919050565b612f2e81612f13565b82525050565b6000602082019050612f496000830184612f25565b92915050565b612f5881612f13565b8114612f6357600080fd5b50565b600081359050612f7581612f4f565b92915050565b60008060408385031215612f9257612f91612d10565b5b6000612fa085828601612f66565b9250506020612fb185828601612eb1565b9150509250929050565b612fc481612e90565b82525050565b6000602082019050612fdf6000830184612fbb565b92915050565b600080600060608486031215612ffe57612ffd612d10565b5b600061300c86828701612f66565b935050602061301d86828701612f66565b925050604061302e86828701612eb1565b9150509250925092565b60006020828403121561304e5761304d612d10565b5b600061305c84828501612f66565b91505092915050565b600080fd5b600080fd5b7f4e487b7100000000000000000000000000000000000000000000000000000000600052604160045260246000fd5b6130a782612e24565b810181811067ffffffffffffffff821117156130c6576130c561306f565b5b80604052505050565b60006130d9612d06565b90506130e5828261309e565b919050565b600067ffffffffffffffff8211156131055761310461306f565b5b61310e82612e24565b9050602081019050919050565b82818337600083830152505050565b600061313d613138846130ea565b6130cf565b9050828152602081018484840111156131595761315861306a565b5b61316484828561311b565b509392505050565b600082601f83011261318157613180613065565b5b813561319184826020860161312a565b91505092915050565b6000806000606084860312156131b3576131b2612d10565b5b60006131c186828701612eb1565b93505060206131d286828701612eb1565b925050604084013567ffffffffffffffff8111156131f3576131f2612d15565b5b6131ff8682870161316c565b9150509250925092565b61321281612d9f565b811461321d57600080fd5b50565b60008135905061322f81613209565b92915050565b6000806040838503121561324c5761324b612d10565b5b600061325a85828601612f66565b925050602061326b85828601613220565b9150509250929050565b600067ffffffffffffffff8211156132905761328f61306f565b5b61329982612e24565b9050602081019050919050565b60006132b96132b484613275565b6130cf565b9050828152602081018484840111156132d5576132d461306a565b5b6132e084828561311b565b509392505050565b600082601f8301126132fd576132fc613065565b5b813561330d8482602086016132a6565b91505092915050565b600080600080608085870312156133305761332f612d10565b5b600061333e87828801612f66565b945050602061334f87828801612f66565b935050604061336087828801612eb1565b925050606085013567ffffffffffffffff81111561338157613380612d15565b5b61338d878288016132e8565b91505092959194509250565b60006133a482612f13565b9050919050565b6133b481613399565b81146133bf57600080fd5b50565b6000813590506133d1816133ab565b92915050565b6000602082840312156133ed576133ec612d10565b5b60006133fb848285016133c2565b91505092915050565b6000806040838503121561341b5761341a612d10565b5b600061342985828601612f66565b925050602061343a85828601612f66565b9150509250929050565b6000819050919050565b61345781613444565b811461346257600080fd5b50565b6000813590506134748161344e565b92915050565b600067ffffffffffffffff8211156134955761349461306f565b5b602082029050602081019050919050565b600080fd5b600080fd5b600080fd5b6000604082840312156134cb576134ca6134ab565b5b6134d560406130cf565b9050600082013567ffffffffffffffff8111156134f5576134f46134b0565b5b6135018482850161316c565b600083015250602061351584828501612eb1565b60208301525092915050565b600061353461352f8461347a565b6130cf565b90508083825260208201905060208402830185811115613557576135566134a6565b5b835b8181101561359e57803567ffffffffffffffff81111561357c5761357b613065565b5b80860161358989826134b5565b85526020850194505050602081019050613559565b5050509392505050565b600082601f8301126135bd576135bc613065565b5b81356135cd848260208601613521565b91505092915050565b600080600080608085870312156135f0576135ef612d10565b5b60006135fe87828801612eb1565b945050602061360f87828801612eb1565b935050604061362087828801613465565b925050606085013567ffffffffffffffff81111561364157613640612d15565b5b61364d878288016135a8565b91505092959194509250565b7f4e487b7100000000000000000000000000000000000000000000000000000000600052602260045260246000fd5b600060028204905060018216806136a057607f821691505b602082108114156136b4576136b3613659565b5b50919050565b7f4552433732313a20617070726f76616c20746f2063757272656e74206f776e6560008201527f7200000000000000000000000000000000000000000000000000000000000000602082015250565b6000613716602183612de0565b9150613721826136ba565b604082019050919050565b6000602082019050818103600083015261374581613709565b9050919050565b7f4552433732313a20617070726f76652063616c6c6572206973206e6f7420746f60008201527f6b656e206f776e6572206e6f7220617070726f76656420666f7220616c6c0000602082015250565b60006137a8603e83612de0565b91506137b38261374c565b604082019050919050565b600060208201905081810360008301526137d78161379b565b9050919050565b7f4552433732313a2063616c6c6572206973206e6f7420746f6b656e206f776e6560008201527f72206e6f7220617070726f766564000000000000000000000000000000000000602082015250565b600061383a602e83612de0565b9150613845826137de565b604082019050919050565b600060208201905081810360008301526138698161382d565b9050919050565b7f455243373231456e756d657261626c653a206f776e657220696e646578206f7560008201527f74206f6620626f756e6473000000000000000000000000000000000000000000602082015250565b60006138cc602b83612de0565b91506138d782613870565b604082019050919050565b600060208201905081810360008301526138fb816138bf565b9050919050565b7f455243373231456e756d657261626c653a20676c6f62616c20696e646578206f60008201527f7574206f6620626f756e64730000000000000000000000000000000000000000602082015250565b600061395e602c83612de0565b915061396982613902565b604082019050919050565b6000602082019050818103600083015261398d81613951565b9050919050565b7f4e487b7100000000000000000000000000000000000000000000000000000000600052603260045260246000fd5b7f4552433732313a20696e76616c696420746f6b656e2049440000000000000000600082015250565b60006139f9601883612de0565b9150613a04826139c3565b602082019050919050565b60006020820190508181036000830152613a28816139ec565b9050919050565b7f4552433732313a2061646472657373207a65726f206973206e6f74206120766160008201527f6c6964206f776e65720000000000000000000000000000000000000000000000602082015250565b6000613a8b602983612de0565b9150613a9682613a2f565b604082019050919050565b60006020820190508181036000830152613aba81613a7e565b9050919050565b7f696e76616c696420736563726574207068726173650000000000000000000000600082015250565b6000613af7601583612de0565b9150613b0282613ac1565b602082019050919050565b60006020820190508181036000830152613b2681613aea565b9050919050565b7f72656d61696e696e6720636f756e74206973207a65726f000000000000000000600082015250565b6000613b63601783612de0565b9150613b6e82613b2d565b602082019050919050565b60006020820190508181036000830152613b9281613b56565b9050919050565b7f616c7265616479206d696e746564000000000000000000000000000000000000600082015250565b6000613bcf600e83612de0565b9150613bda82613b99565b602082019050919050565b60006020820190508181036000830152613bfe81613bc2565b9050919050565b600081905092915050565b50565b6000613c20600083613c05565b9150613c2b82613c10565b600082019050919050565b6000613c4182613c13565b9150819050919050565b6000613c5682612dd5565b613c608185613c05565b9350613c70818560208601612df1565b80840191505092915050565b6000613c888284613c4b565b915081905092915050565b7f4e487b7100000000000000000000000000000000000000000000000000000000600052601160045260246000fd5b6000613ccd82612e90565b9150613cd883612e90565b9250827fffffffffffffffffffffffffffffffffffffffffffffffffffffffffffffffff03821115613d0d57613d0c613c93565b5b828201905092915050565b6000613d2382612e90565b9150613d2e83612e90565b925082821015613d4157613d40613c93565b5b828203905092915050565b7f6576656e74206d616e61676572206164647265737320697320626c616e6b0000600082015250565b6000613d82601e83612de0565b9150613d8d82613d4c565b602082019050919050565b60006020820190508181036000830152613db181613d75565b9050919050565b7f496e697469616c697a61626c653a20636f6e747261637420697320616c72656160008201527f647920696e697469616c697a6564000000000000000000000000000000000000602082015250565b6000613e14602e83612de0565b9150613e1f82613db8565b604082019050919050565b60006020820190508181036000830152613e4381613e07565b9050919050565b6000819050919050565b600060ff82169050919050565b6000819050919050565b6000613e86613e81613e7c84613e4a565b613e61565b613e54565b9050919050565b613e9681613e6b565b82525050565b6000602082019050613eb16000830184613e8d565b92915050565b7f756e617574686f72697a65640000000000000000000000000000000000000000600082015250565b6000613eed600c83612de0565b9150613ef882613eb7565b602082019050919050565b60006020820190508181036000830152613f1c81613ee0565b9050919050565b6000613f2e82612e90565b91507fffffffffffffffffffffffffffffffffffffffffffffffffffffffffffffffff821415613f6157613f60613c93565b5b600182019050919050565b7f4f776e61626c653a206e6577206f776e657220697320746865207a65726f206160008201527f6464726573730000000000000000000000000000000000000000000000000000602082015250565b6000613fc8602683612de0565b9150613fd382613f6c565b604082019050919050565b60006020820190508181036000830152613ff781613fbb565b9050919050565b7f4552433732313a207472616e736665722066726f6d20696e636f72726563742060008201527f6f776e6572000000000000000000000000000000000000000000000000000000602082015250565b600061405a602583612de0565b915061406582613ffe565b604082019050919050565b600060208201905081810360008301526140898161404d565b9050919050565b7f4552433732313a207472616e7366657220746f20746865207a65726f2061646460008201527f7265737300000000000000000000000000000000000000000000000000000000602082015250565b60006140ec602483612de0565b91506140f782614090565b604082019050919050565b6000602082019050818103600083015261411b816140df565b9050919050565b7f4f776e61626c653a2063616c6c6572206973206e6f7420746865206f776e6572600082015250565b6000614158602083612de0565b915061416382614122565b602082019050919050565b600060208201905081810360008301526141878161414b565b9050919050565b60008160601b9050919050565b60006141a68261418e565b9050919050565b60006141b88261419b565b9050919050565b6141d06141cb82612f13565b6141ad565b82525050565b6000819050919050565b6141f16141ec82612e90565b6141d6565b82525050565b600061420382856141bf565b60148201915061421382846141e0565b6020820191508190509392505050565b600061422f82856141e0565b60208201915061423f82846141e0565b6020820191508190509392505050565b7f4552433732313a20617070726f766520746f2063616c6c657200000000000000600082015250565b6000614285601983612de0565b91506142908261424f565b602082019050919050565b600060208201905081810360008301526142b481614278565b9050919050565b7f4552433732313a207472616e7366657220746f206e6f6e20455243373231526560008201527f63656976657220696d706c656d656e7465720000000000000000000000000000602082015250565b6000614317603283612de0565b9150614322826142bb565b604082019050919050565b600060208201905081810360008301526143468161430a565b9050919050565b7f496e697469616c697a61626c653a20636f6e7472616374206973206e6f74206960008201527f6e697469616c697a696e67000000000000000000000000000000000000000000602082015250565b60006143a9602b83612de0565b91506143b48261434d565b604082019050919050565b600060208201905081810360008301526143d88161439c565b9050919050565b600081519050919050565b600082825260208201905092915050565b6000614406826143df565b61441081856143ea565b9350614420818560208601612df1565b61442981612e24565b840191505092915050565b60006080820190506144496000830187612f25565b6144566020830186612f25565b6144636040830185612fbb565b818103606083015261447581846143fb565b905095945050505050565b60008151905061448f81612d46565b92915050565b6000602082840312156144ab576144aa612d10565b5b60006144b984828501614480565b91505092915050565b7f4e487b7100000000000000000000000000000000000000000000000000000000600052603160045260246000fd5b7f4552433732313a206d696e7420746f20746865207a65726f2061646472657373600082015250565b6000614527602083612de0565b9150614532826144f1565b602082019050919050565b600060208201905081810360008301526145568161451a565b9050919050565b7f4552433732313a20746f6b656e20616c7265616479206d696e74656400000000600082015250565b6000614593601c83612de0565b915061459e8261455d565b602082019050919050565b600060208201905081810360008301526145c281614586565b905091905056fea2646970667358221220f26234e86d10946b70f54dad10ba5c439717cdcf5823b2d6e40483d5b030005f64736f6c63430008090033",
  "linkReferences": {},
  "deployedLinkReferences": {}
}