{
  "_format": "hh-sol-artifact-1",
  "contractName": "MintNFT",
  "sourceName": "contracts/MintNFT.sol",
  "abi": [
    {
      "anonymous": false,
      "inputs": [
        {
          "indexed": true,
          "internalType": "address",
          "name": "owner",
          "type": "address"
        },
        {
          "indexed": true,
          "internalType": "address",
          "name": "approved",
          "type": "address"
        },
        {
          "indexed": true,
          "internalType": "uint256",
          "name": "tokenId",
          "type": "uint256"
        }
      ],
      "name": "Approval",
      "type": "event"
    },
    {
      "anonymous": false,
      "inputs": [
        {
          "indexed": true,
          "internalType": "address",
          "name": "owner",
          "type": "address"
        },
        {
          "indexed": true,
          "internalType": "address",
          "name": "operator",
          "type": "address"
        },
        {
          "indexed": false,
          "internalType": "bool",
          "name": "approved",
          "type": "bool"
        }
      ],
      "name": "ApprovalForAll",
      "type": "event"
    },
    {
      "anonymous": false,
      "inputs": [
        {
          "indexed": false,
          "internalType": "uint8",
          "name": "version",
          "type": "uint8"
        }
      ],
      "name": "Initialized",
      "type": "event"
    },
    {
      "anonymous": false,
      "inputs": [
        {
          "indexed": true,
          "internalType": "uint256",
          "name": "eventId",
          "type": "uint256"
        },
        {
          "indexed": false,
          "internalType": "bool",
          "name": "isLocked",
          "type": "bool"
        }
      ],
      "name": "MintLocked",
      "type": "event"
    },
    {
      "anonymous": false,
      "inputs": [
        {
          "indexed": true,
          "internalType": "address",
          "name": "holder",
          "type": "address"
        },
        {
          "indexed": false,
          "internalType": "string",
          "name": "url",
          "type": "string"
        }
      ],
      "name": "MintedNFTAttributeURL",
      "type": "event"
    },
    {
      "anonymous": false,
      "inputs": [
        {
          "indexed": true,
          "internalType": "address",
          "name": "previousOwner",
          "type": "address"
        },
        {
          "indexed": true,
          "internalType": "address",
          "name": "newOwner",
          "type": "address"
        }
      ],
      "name": "OwnershipTransferred",
      "type": "event"
    },
    {
      "anonymous": false,
      "inputs": [
        {
          "indexed": true,
          "internalType": "address",
          "name": "from",
          "type": "address"
        },
        {
          "indexed": true,
          "internalType": "address",
          "name": "to",
          "type": "address"
        },
        {
          "indexed": true,
          "internalType": "uint256",
          "name": "tokenId",
          "type": "uint256"
        }
      ],
      "name": "Transfer",
      "type": "event"
    },
    {
      "inputs": [
        {
          "internalType": "address",
          "name": "to",
          "type": "address"
        },
        {
          "internalType": "uint256",
          "name": "tokenId",
          "type": "uint256"
        }
      ],
      "name": "approve",
      "outputs": [],
      "stateMutability": "nonpayable",
      "type": "function"
    },
    {
      "inputs": [
        {
          "internalType": "address",
          "name": "owner",
          "type": "address"
        }
      ],
      "name": "balanceOf",
      "outputs": [
        {
          "internalType": "uint256",
          "name": "",
          "type": "uint256"
        }
      ],
      "stateMutability": "view",
      "type": "function"
    },
    {
      "inputs": [
        {
          "internalType": "uint256",
          "name": "tokenId",
          "type": "uint256"
        }
      ],
      "name": "burn",
      "outputs": [],
      "stateMutability": "nonpayable",
      "type": "function"
    },
    {
      "inputs": [
        {
          "internalType": "uint256",
          "name": "_eventId",
          "type": "uint256"
        },
        {
          "internalType": "uint256[24]",
          "name": "_proof",
          "type": "uint256[24]"
        }
      ],
      "name": "canMint",
      "outputs": [
        {
          "internalType": "bool",
          "name": "",
          "type": "bool"
        }
      ],
      "stateMutability": "view",
      "type": "function"
    },
    {
      "inputs": [
        {
          "internalType": "uint256",
          "name": "_eventId",
          "type": "uint256"
        },
        {
          "internalType": "bool",
          "name": "_locked",
          "type": "bool"
        }
      ],
      "name": "changeMintLocked",
      "outputs": [],
      "stateMutability": "nonpayable",
      "type": "function"
    },
    {
      "inputs": [
        {
          "internalType": "uint256",
          "name": "tokenId",
          "type": "uint256"
        }
      ],
      "name": "getApproved",
      "outputs": [
        {
          "internalType": "address",
          "name": "",
          "type": "address"
        }
      ],
      "stateMutability": "view",
      "type": "function"
    },
    {
      "inputs": [
        {
          "internalType": "uint256",
          "name": "_eventId",
          "type": "uint256"
        }
      ],
      "name": "getIsMintLocked",
      "outputs": [
        {
          "internalType": "bool",
          "name": "",
          "type": "bool"
        }
      ],
      "stateMutability": "view",
      "type": "function"
    },
    {
      "inputs": [
        {
          "internalType": "uint256",
          "name": "_eventId",
          "type": "uint256"
        }
      ],
      "name": "getRemainingNFTCount",
      "outputs": [
        {
          "internalType": "uint256",
          "name": "",
          "type": "uint256"
        }
      ],
      "stateMutability": "view",
      "type": "function"
    },
    {
      "inputs": [
        {
          "internalType": "contract MinimalForwarderUpgradeable",
          "name": "trustedForwarder",
          "type": "address"
        },
        {
          "internalType": "address",
          "name": "_secretPhraseVerifierAddr",
          "type": "address"
        }
      ],
      "name": "initialize",
      "outputs": [],
      "stateMutability": "nonpayable",
      "type": "function"
    },
    {
      "inputs": [
        {
          "internalType": "address",
          "name": "owner",
          "type": "address"
        },
        {
          "internalType": "address",
          "name": "operator",
          "type": "address"
        }
      ],
      "name": "isApprovedForAll",
      "outputs": [
        {
          "internalType": "bool",
          "name": "",
          "type": "bool"
        }
      ],
      "stateMutability": "view",
      "type": "function"
    },
    {
      "inputs": [
        {
          "internalType": "address",
          "name": "_addr",
          "type": "address"
        },
        {
          "internalType": "uint256",
          "name": "_eventId",
          "type": "uint256"
        }
      ],
      "name": "isHoldingEventNFTByAddress",
      "outputs": [
        {
          "internalType": "bool",
          "name": "",
          "type": "bool"
        }
      ],
      "stateMutability": "view",
      "type": "function"
    },
    {
      "inputs": [
        {
          "internalType": "address",
          "name": "forwarder",
          "type": "address"
        }
      ],
      "name": "isTrustedForwarder",
      "outputs": [
        {
          "internalType": "bool",
          "name": "",
          "type": "bool"
        }
      ],
      "stateMutability": "view",
      "type": "function"
    },
    {
      "inputs": [
        {
          "internalType": "uint256",
          "name": "_groupId",
          "type": "uint256"
        },
        {
          "internalType": "uint256",
          "name": "_eventId",
          "type": "uint256"
        },
        {
          "internalType": "uint256[24]",
          "name": "_proof",
          "type": "uint256[24]"
        }
      ],
      "name": "mintParticipateNFT",
      "outputs": [],
      "stateMutability": "nonpayable",
      "type": "function"
    },
    {
      "inputs": [],
      "name": "name",
      "outputs": [
        {
          "internalType": "string",
          "name": "",
          "type": "string"
        }
      ],
      "stateMutability": "view",
      "type": "function"
    },
    {
      "inputs": [],
      "name": "owner",
      "outputs": [
        {
          "internalType": "address",
          "name": "",
          "type": "address"
        }
      ],
      "stateMutability": "view",
      "type": "function"
    },
    {
      "inputs": [
        {
          "internalType": "uint256",
          "name": "tokenId",
          "type": "uint256"
        }
      ],
      "name": "ownerOf",
      "outputs": [
        {
          "internalType": "address",
          "name": "",
          "type": "address"
        }
      ],
      "stateMutability": "view",
      "type": "function"
    },
    {
      "inputs": [],
      "name": "renounceOwnership",
      "outputs": [],
      "stateMutability": "nonpayable",
      "type": "function"
    },
    {
      "inputs": [
        {
          "internalType": "address",
          "name": "from",
          "type": "address"
        },
        {
          "internalType": "address",
          "name": "to",
          "type": "address"
        },
        {
          "internalType": "uint256",
          "name": "tokenId",
          "type": "uint256"
        }
      ],
      "name": "safeTransferFrom",
      "outputs": [],
      "stateMutability": "nonpayable",
      "type": "function"
    },
    {
      "inputs": [
        {
          "internalType": "address",
          "name": "from",
          "type": "address"
        },
        {
          "internalType": "address",
          "name": "to",
          "type": "address"
        },
        {
          "internalType": "uint256",
          "name": "tokenId",
          "type": "uint256"
        },
        {
          "internalType": "bytes",
          "name": "data",
          "type": "bytes"
        }
      ],
      "name": "safeTransferFrom",
      "outputs": [],
      "stateMutability": "nonpayable",
      "type": "function"
    },
    {
      "inputs": [
        {
          "internalType": "address",
          "name": "operator",
          "type": "address"
        },
        {
          "internalType": "bool",
          "name": "approved",
          "type": "bool"
        }
      ],
      "name": "setApprovalForAll",
      "outputs": [],
      "stateMutability": "nonpayable",
      "type": "function"
    },
    {
      "inputs": [
        {
          "internalType": "uint256",
          "name": "_eventId",
          "type": "uint256"
        },
        {
          "internalType": "uint256",
          "name": "_mintLimit",
          "type": "uint256"
        },
        {
          "internalType": "bytes32",
          "name": "_secretPhrase",
          "type": "bytes32"
        },
        {
          "components": [
            {
              "internalType": "string",
              "name": "metaDataURL",
              "type": "string"
            },
            {
              "internalType": "uint256",
              "name": "requiredParticipateCount",
              "type": "uint256"
            }
          ],
          "internalType": "struct MintNFT.NFTAttribute[]",
          "name": "attributes",
          "type": "tuple[]"
        }
      ],
      "name": "setEventInfo",
      "outputs": [],
      "stateMutability": "nonpayable",
      "type": "function"
    },
    {
      "inputs": [
        {
          "internalType": "address",
          "name": "_addr",
          "type": "address"
        }
      ],
      "name": "setEventManagerAddr",
      "outputs": [],
      "stateMutability": "nonpayable",
      "type": "function"
    },
    {
      "inputs": [
        {
          "internalType": "bytes4",
          "name": "interfaceId",
          "type": "bytes4"
        }
      ],
      "name": "supportsInterface",
      "outputs": [
        {
          "internalType": "bool",
          "name": "",
          "type": "bool"
        }
      ],
      "stateMutability": "view",
      "type": "function"
    },
    {
      "inputs": [],
      "name": "symbol",
      "outputs": [
        {
          "internalType": "string",
          "name": "",
          "type": "string"
        }
      ],
      "stateMutability": "view",
      "type": "function"
    },
    {
      "inputs": [
        {
          "internalType": "uint256",
          "name": "index",
          "type": "uint256"
        }
      ],
      "name": "tokenByIndex",
      "outputs": [
        {
          "internalType": "uint256",
          "name": "",
          "type": "uint256"
        }
      ],
      "stateMutability": "view",
      "type": "function"
    },
    {
      "inputs": [
        {
          "internalType": "address",
          "name": "owner",
          "type": "address"
        },
        {
          "internalType": "uint256",
          "name": "index",
          "type": "uint256"
        }
      ],
      "name": "tokenOfOwnerByIndex",
      "outputs": [
        {
          "internalType": "uint256",
          "name": "",
          "type": "uint256"
        }
      ],
      "stateMutability": "view",
      "type": "function"
    },
    {
      "inputs": [
        {
          "internalType": "uint256",
          "name": "_tokenId",
          "type": "uint256"
        }
      ],
      "name": "tokenURI",
      "outputs": [
        {
          "internalType": "string",
          "name": "",
          "type": "string"
        }
      ],
      "stateMutability": "view",
      "type": "function"
    },
    {
      "inputs": [],
      "name": "totalSupply",
      "outputs": [
        {
          "internalType": "uint256",
          "name": "",
          "type": "uint256"
        }
      ],
      "stateMutability": "view",
      "type": "function"
    },
    {
      "inputs": [
        {
          "internalType": "address",
          "name": "from",
          "type": "address"
        },
        {
          "internalType": "address",
          "name": "to",
          "type": "address"
        },
        {
          "internalType": "uint256",
          "name": "tokenId",
          "type": "uint256"
        }
      ],
      "name": "transferFrom",
      "outputs": [],
      "stateMutability": "nonpayable",
      "type": "function"
    },
    {
      "inputs": [
        {
          "internalType": "address",
          "name": "newOwner",
          "type": "address"
        }
      ],
      "name": "transferOwnership",
      "outputs": [],
      "stateMutability": "nonpayable",
      "type": "function"
    }
  ],
  "bytecode": "0x608060405234801561001057600080fd5b50614dd7806100206000396000f3fe608060405234801561001057600080fd5b50600436106101da5760003560e01c80636352211e11610104578063b88d4fde116100a2578063e985e9c511610071578063e985e9c51461059d578063ef3ad9eb146105cd578063f2fde38b146105e9578063fa86623b14610605576101da565b8063b88d4fde146104f1578063c87b56dd1461050d578063d622abc21461053d578063df4b39dd1461056d576101da565b80638da5cb5b116100de5780638da5cb5b1461047d5780639041e3f41461049b57806395d89b41146104b7578063a22cb465146104d5576101da565b80636352211e1461041357806370a0823114610443578063715018a614610473576101da565b80632f745c591161017c5780634df301491161014b5780634df30149146103535780634f6ccce7146103835780634ffc9f4b146103b3578063572b6c05146103e3576101da565b80632f745c59146102cf57806342842e0e146102ff57806342966c681461031b578063485cc95514610337576101da565b8063095ea7b3116101b8578063095ea7b31461025d5780630daa8be71461027957806318160ddd1461029557806323b872dd146102b3576101da565b806301ffc9a7146101df57806306fdde031461020f578063081812fc1461022d575b600080fd5b6101f960048036038101906101f4919061317f565b610621565b60405161020691906131c7565b60405180910390f35b61021761069b565b604051610224919061327b565b60405180910390f35b610247600480360381019061024291906132d3565b61072d565b6040516102549190613341565b60405180910390f35b61027760048036038101906102729190613388565b610773565b005b610293600480360381019061028e91906133f4565b61088b565b005b61029d6109e6565b6040516102aa9190613443565b60405180910390f35b6102cd60048036038101906102c8919061345e565b6109f3565b005b6102e960048036038101906102e49190613388565b610a53565b6040516102f69190613443565b60405180910390f35b6103196004803603810190610314919061345e565b610af8565b005b610335600480360381019061033091906132d3565b610b18565b005b610351600480360381019061034c91906134ef565b610b2c565b005b61036d60048036038101906103689190613665565b610cee565b60405161037a91906131c7565b60405180910390f35b61039d600480360381019061039891906132d3565b610e4e565b6040516103aa9190613443565b60405180910390f35b6103cd60048036038101906103c891906132d3565b610ebf565b6040516103da9190613443565b60405180910390f35b6103fd60048036038101906103f891906136a6565b610edd565b60405161040a91906131c7565b60405180910390f35b61042d600480360381019061042891906132d3565b610f37565b60405161043a9190613341565b60405180910390f35b61045d600480360381019061045891906136a6565b610fe9565b60405161046a9190613443565b60405180910390f35b61047b6110a1565b005b6104856110b5565b6040516104929190613341565b60405180910390f35b6104b560048036038101906104b091906136a6565b6110df565b005b6104bf61119c565b6040516104cc919061327b565b60405180910390f35b6104ef60048036038101906104ea91906136d3565b61122e565b005b61050b600480360381019061050691906137c8565b611244565b005b610527600480360381019061052291906132d3565b6112a6565b604051610534919061327b565b60405180910390f35b61055760048036038101906105529190613388565b611352565b60405161056491906131c7565b60405180910390f35b610587600480360381019061058291906132d3565b611387565b60405161059491906131c7565b60405180910390f35b6105b760048036038101906105b2919061384b565b6113b2565b6040516105c491906131c7565b60405180910390f35b6105e760048036038101906105e29190613ab9565b611446565b005b61060360048036038101906105fe91906136a6565b6115a4565b005b61061f600480360381019061061a9190613b3c565b611628565b005b60007f780e9d63000000000000000000000000000000000000000000000000000000007bffffffffffffffffffffffffffffffffffffffffffffffffffffffff1916827bffffffffffffffffffffffffffffffffffffffffffffffffffffffff191614806106945750610693826119f3565b5b9050919050565b6060606580546106aa90613bbf565b80601f01602080910402602001604051908101604052809291908181526020018280546106d690613bbf565b80156107235780601f106106f857610100808354040283529160200191610723565b820191906000526020600020905b81548152906001019060200180831161070657829003601f168201915b5050505050905090565b600061073882611ad5565b6069600083815260200190815260200160002060009054906101000a900473ffffffffffffffffffffffffffffffffffffffff169050919050565b600061077e82610f37565b90508073ffffffffffffffffffffffffffffffffffffffff168373ffffffffffffffffffffffffffffffffffffffff1614156107ef576040517f08c379a00000000000000000000000000000000000000000000000000000000081526004016107e690613c63565b60405180910390fd5b8073ffffffffffffffffffffffffffffffffffffffff1661080e611b20565b73ffffffffffffffffffffffffffffffffffffffff16148061083d575061083c81610837611b20565b6113b2565b5b61087c576040517f08c379a000000000000000000000000000000000000000000000000000000000815260040161087390613cf5565b60405180910390fd5b6108868383611b52565b505050565b600061012f60009054906101000a900473ffffffffffffffffffffffffffffffffffffffff1690508073ffffffffffffffffffffffffffffffffffffffff16631847482a33856040518363ffffffff1660e01b81526004016108ee929190613d15565b60206040518083038186803b15801561090657600080fd5b505afa15801561091a573d6000803e3d6000fd5b505050506040513d601f19601f8201168201806040525081019061093e9190613d53565b61097d576040517f08c379a000000000000000000000000000000000000000000000000000000000815260040161097490613dcc565b60405180910390fd5b81610136600085815260200190815260200160002060006101000a81548160ff021916908315150217905550827f1e3ed2b292ed72652054799a4fde74789a8670c153df666f76e01345ec318281836040516109d991906131c7565b60405180910390a2505050565b6000609980549050905090565b610a046109fe611b20565b82611c0b565b610a43576040517f08c379a0000000000000000000000000000000000000000000000000000000008152600401610a3a90613e5e565b60405180910390fd5b610a4e838383611ca0565b505050565b6000610a5e83610fe9565b8210610a9f576040517f08c379a0000000000000000000000000000000000000000000000000000000008152600401610a9690613ef0565b60405180910390fd5b609760008473ffffffffffffffffffffffffffffffffffffffff1673ffffffffffffffffffffffffffffffffffffffff168152602001908152602001600020600083815260200190815260200160002054905092915050565b610b1383838360405180602001604052806000815250611244565b505050565b610b20611f07565b610b2981611f85565b50565b6002600060019054906101000a900460ff16158015610b5d57508060ff1660008054906101000a900460ff1660ff16105b610b9c576040517f08c379a0000000000000000000000000000000000000000000000000000000008152600401610b9390613f82565b60405180910390fd5b806000806101000a81548160ff021916908360ff1602179055506001600060016101000a81548160ff021916908315150217905550610c456040518060400160405280600981526020017f4d696e7452616c6c7900000000000000000000000000000000000000000000008152506040518060400160405280600281526020017f4d520000000000000000000000000000000000000000000000000000000000008152506120a2565b610c4d6120ff565b610c5683612158565b8161013760006101000a81548173ffffffffffffffffffffffffffffffffffffffff021916908373ffffffffffffffffffffffffffffffffffffffff16021790555060008060016101000a81548160ff0219169083151502179055507f7f26b83ff96e1f2b6a682f133852f6798a09c465da95921460cefb384740249881604051610ce19190613fbe565b60405180910390a1505050565b6000610cfa82846121f3565b610d39576040517f08c379a0000000000000000000000000000000000000000000000000000000008152600401610d3090614025565b60405180910390fd5b60006101346000858152602001908152602001600020541415610d91576040517f08c379a0000000000000000000000000000000000000000000000000000000008152600401610d8890614091565b60405180910390fd5b610da2610d9c611b20565b84611352565b15610de2576040517f08c379a0000000000000000000000000000000000000000000000000000000008152600401610dd9906140fd565b60405180910390fd5b610136600084815260200190815260200160002060009054906101000a900460ff1615610e44576040517f08c379a0000000000000000000000000000000000000000000000000000000008152600401610e3b90614169565b60405180910390fd5b6001905092915050565b6000610e586109e6565b8210610e99576040517f08c379a0000000000000000000000000000000000000000000000000000000008152600401610e90906141fb565b60405180910390fd5b60998281548110610ead57610eac61421b565b5b90600052602060002001549050919050565b60006101346000838152602001908152602001600020549050919050565b600060c960009054906101000a900473ffffffffffffffffffffffffffffffffffffffff1673ffffffffffffffffffffffffffffffffffffffff168273ffffffffffffffffffffffffffffffffffffffff16149050919050565b6000806067600084815260200190815260200160002060009054906101000a900473ffffffffffffffffffffffffffffffffffffffff169050600073ffffffffffffffffffffffffffffffffffffffff168173ffffffffffffffffffffffffffffffffffffffff161415610fe0576040517f08c379a0000000000000000000000000000000000000000000000000000000008152600401610fd790614296565b60405180910390fd5b80915050919050565b60008073ffffffffffffffffffffffffffffffffffffffff168273ffffffffffffffffffffffffffffffffffffffff16141561105a576040517f08c379a000000000000000000000000000000000000000000000000000000000815260040161105190614328565b60405180910390fd5b606860008373ffffffffffffffffffffffffffffffffffffffff1673ffffffffffffffffffffffffffffffffffffffff168152602001908152602001600020549050919050565b6110a9611f07565b6110b360006122e3565b565b600060fc60009054906101000a900473ffffffffffffffffffffffffffffffffffffffff16905090565b6110e7611f07565b600073ffffffffffffffffffffffffffffffffffffffff168173ffffffffffffffffffffffffffffffffffffffff161415611157576040517f08c379a000000000000000000000000000000000000000000000000000000000815260040161114e90614394565b60405180910390fd5b8061012f60006101000a81548173ffffffffffffffffffffffffffffffffffffffff021916908373ffffffffffffffffffffffffffffffffffffffff16021790555050565b6060606680546111ab90613bbf565b80601f01602080910402602001604051908101604052809291908181526020018280546111d790613bbf565b80156112245780601f106111f957610100808354040283529160200191611224565b820191906000526020600020905b81548152906001019060200180831161120757829003601f168201915b5050505050905090565b611240611239611b20565b83836123a9565b5050565b61125561124f611b20565b83611c0b565b611294576040517f08c379a000000000000000000000000000000000000000000000000000000000815260040161128b90613e5e565b60405180910390fd5b6112a084848484612516565b50505050565b60606000610130600084815260200190815260200160002080546112c990613bbf565b80601f01602080910402602001604051908101604052809291908181526020018280546112f590613bbf565b80156113425780601f1061131757610100808354040283529160200191611342565b820191906000526020600020905b81548152906001019060200180831161132557829003601f168201915b5050505050905080915050919050565b600061013160006113638585612572565b815260200190815260200160002060009054906101000a900460ff16905092915050565b6000610136600083815260200190815260200160002060009054906101000a900460ff169050919050565b6000606a60008473ffffffffffffffffffffffffffffffffffffffff1673ffffffffffffffffffffffffffffffffffffffff16815260200190815260200160002060008373ffffffffffffffffffffffffffffffffffffffff1673ffffffffffffffffffffffffffffffffffffffff16815260200190815260200160002060009054906101000a900460ff16905092915050565b61012f60009054906101000a900473ffffffffffffffffffffffffffffffffffffffff1673ffffffffffffffffffffffffffffffffffffffff16611488611b20565b73ffffffffffffffffffffffffffffffffffffffff16146114de576040517f08c379a00000000000000000000000000000000000000000000000000000000081526004016114d590614400565b60405180910390fd5b826101346000868152602001908152602001600020819055508161013560008681526020019081526020016000208190555060005b815181101561159d5781818151811061152f5761152e61421b565b5b6020026020010151600001516101336000611568888686815181106115575761155661421b565b5b6020026020010151602001516125a5565b81526020019081526020016000209080519060200190611589929190613070565b5080806115959061444f565b915050611513565b5050505050565b6115ac611f07565b600073ffffffffffffffffffffffffffffffffffffffff168173ffffffffffffffffffffffffffffffffffffffff16141561161c576040517f08c379a00000000000000000000000000000000000000000000000000000000081526004016116139061450a565b60405180910390fd5b611625816122e3565b50565b6116328282610cee565b506001610134600084815260200190815260200160002054611654919061452a565b610134600084815260200190815260200160002081905550600061013760009054906101000a900473ffffffffffffffffffffffffffffffffffffffff1690508073ffffffffffffffffffffffffffffffffffffffff1663c6bc727283856040518363ffffffff1660e01b81526004016116cf929190614609565b600060405180830381600087803b1580156116e957600080fd5b505af11580156116fd573d6000803e3d6000fd5b5050505060016101316000611719611713611b20565b87612572565b815260200190815260200160002060006101000a81548160ff021916908315150217905550600061175161174b611b20565b86612572565b9050600061013260008381526020019081526020016000205490506001816117799190614634565b610132600084815260200190815260200160002081905550600061013360006117a38860006125a5565b815260200190815260200160002080546117bc90613bbf565b80601f01602080910402602001604051908101604052809291908181526020018280546117e890613bbf565b80156118355780601f1061180a57610100808354040283529160200191611835565b820191906000526020600020905b81548152906001019060200180831161181857829003601f168201915b505050505090506000610133600061184d89866125a5565b8152602001908152602001600020805461186690613bbf565b80601f016020809104026020016040519081016040528092919081815260200182805461189290613bbf565b80156118df5780601f106118b4576101008083540402835291602001916118df565b820191906000526020600020905b8154815290600101906020018083116118c257829003601f168201915b505050505090506040516020016118f5906146bb565b604051602081830303815290604052805190602001208160405160200161191c9190614701565b604051602081830303815290604052805190602001201461193b578091505b81610130600061194c61012e6125d8565b8152602001908152602001600020908051906020019061196d929190613070565b50611989611979611b20565b61198461012e6125d8565b6125e6565b61199461012e612604565b61199c611b20565b73ffffffffffffffffffffffffffffffffffffffff167faf2fad1984d2c7abaa9300537cf9fe1bcfaf2d6226e4ffdf03522dbf3064808e836040516119e1919061327b565b60405180910390a25050505050505050565b60007f80ac58cd000000000000000000000000000000000000000000000000000000007bffffffffffffffffffffffffffffffffffffffffffffffffffffffff1916827bffffffffffffffffffffffffffffffffffffffffffffffffffffffff19161480611abe57507f5b5e139f000000000000000000000000000000000000000000000000000000007bffffffffffffffffffffffffffffffffffffffffffffffffffffffff1916827bffffffffffffffffffffffffffffffffffffffffffffffffffffffff1916145b80611ace5750611acd8261261a565b5b9050919050565b611ade81612684565b611b1d576040517f08c379a0000000000000000000000000000000000000000000000000000000008152600401611b1490614296565b60405180910390fd5b50565b6000611b2b33610edd565b15611b3f57601436033560601c9050611b4e565b611b476126f0565b9050611b4f565b5b90565b816069600083815260200190815260200160002060006101000a81548173ffffffffffffffffffffffffffffffffffffffff021916908373ffffffffffffffffffffffffffffffffffffffff160217905550808273ffffffffffffffffffffffffffffffffffffffff16611bc583610f37565b73ffffffffffffffffffffffffffffffffffffffff167f8c5be1e5ebec7d5bd14f71427d1e84f3dd0314c0f7b2291e5b200ac8c7c3b92560405160405180910390a45050565b600080611c1783610f37565b90508073ffffffffffffffffffffffffffffffffffffffff168473ffffffffffffffffffffffffffffffffffffffff161480611c595750611c5881856113b2565b5b80611c9757508373ffffffffffffffffffffffffffffffffffffffff16611c7f8461072d565b73ffffffffffffffffffffffffffffffffffffffff16145b91505092915050565b8273ffffffffffffffffffffffffffffffffffffffff16611cc082610f37565b73ffffffffffffffffffffffffffffffffffffffff1614611d16576040517f08c379a0000000000000000000000000000000000000000000000000000000008152600401611d0d9061478a565b60405180910390fd5b600073ffffffffffffffffffffffffffffffffffffffff168273ffffffffffffffffffffffffffffffffffffffff161415611d86576040517f08c379a0000000000000000000000000000000000000000000000000000000008152600401611d7d9061481c565b60405180910390fd5b611d91838383612722565b611d9c600082611b52565b6001606860008573ffffffffffffffffffffffffffffffffffffffff1673ffffffffffffffffffffffffffffffffffffffff1681526020019081526020016000206000828254611dec919061452a565b925050819055506001606860008473ffffffffffffffffffffffffffffffffffffffff1673ffffffffffffffffffffffffffffffffffffffff1681526020019081526020016000206000828254611e439190614634565b92505081905550816067600083815260200190815260200160002060006101000a81548173ffffffffffffffffffffffffffffffffffffffff021916908373ffffffffffffffffffffffffffffffffffffffff160217905550808273ffffffffffffffffffffffffffffffffffffffff168473ffffffffffffffffffffffffffffffffffffffff167fddf252ad1be2c89b69c2b068fc378daa952ba7f163c4a11628f55a4df523b3ef60405160405180910390a4611f02838383612836565b505050565b611f0f611b20565b73ffffffffffffffffffffffffffffffffffffffff16611f2d6110b5565b73ffffffffffffffffffffffffffffffffffffffff1614611f83576040517f08c379a0000000000000000000000000000000000000000000000000000000008152600401611f7a90614888565b60405180910390fd5b565b6000611f9082610f37565b9050611f9e81600084612722565b611fa9600083611b52565b6001606860008373ffffffffffffffffffffffffffffffffffffffff1673ffffffffffffffffffffffffffffffffffffffff1681526020019081526020016000206000828254611ff9919061452a565b925050819055506067600083815260200190815260200160002060006101000a81549073ffffffffffffffffffffffffffffffffffffffff021916905581600073ffffffffffffffffffffffffffffffffffffffff168273ffffffffffffffffffffffffffffffffffffffff167fddf252ad1be2c89b69c2b068fc378daa952ba7f163c4a11628f55a4df523b3ef60405160405180910390a461209e81600084612836565b5050565b600060019054906101000a900460ff166120f1576040517f08c379a00000000000000000000000000000000000000000000000000000000081526004016120e89061491a565b60405180910390fd5b6120fb828261283b565b5050565b600060019054906101000a900460ff1661214e576040517f08c379a00000000000000000000000000000000000000000000000000000000081526004016121459061491a565b60405180910390fd5b6121566128bc565b565b600060019054906101000a900460ff166121a7576040517f08c379a000000000000000000000000000000000000000000000000000000000815260040161219e9061491a565b60405180910390fd5b6121af61291d565b8060c960006101000a81548173ffffffffffffffffffffffffffffffffffffffff021916908373ffffffffffffffffffffffffffffffffffffffff16021790555050565b60008061013760009054906101000a900473ffffffffffffffffffffffffffffffffffffffff1690506000604051806020016040528061013560008781526020019081526020016000205460001c815250905060008273ffffffffffffffffffffffffffffffffffffffff1663a65bb09a8784886040518463ffffffff1660e01b8152600401612285939291906149be565b60206040518083038186803b15801561229d57600080fd5b505afa1580156122b1573d6000803e3d6000fd5b505050506040513d601f19601f820116820180604052508101906122d59190613d53565b905080935050505092915050565b600060fc60009054906101000a900473ffffffffffffffffffffffffffffffffffffffff1690508160fc60006101000a81548173ffffffffffffffffffffffffffffffffffffffff021916908373ffffffffffffffffffffffffffffffffffffffff1602179055508173ffffffffffffffffffffffffffffffffffffffff168173ffffffffffffffffffffffffffffffffffffffff167f8be0079c531659141344cd1fd0a4f28419497f9722a3daafe3b4186f6b6457e060405160405180910390a35050565b8173ffffffffffffffffffffffffffffffffffffffff168373ffffffffffffffffffffffffffffffffffffffff161415612418576040517f08c379a000000000000000000000000000000000000000000000000000000000815260040161240f90614a44565b60405180910390fd5b80606a60008573ffffffffffffffffffffffffffffffffffffffff1673ffffffffffffffffffffffffffffffffffffffff16815260200190815260200160002060008473ffffffffffffffffffffffffffffffffffffffff1673ffffffffffffffffffffffffffffffffffffffff16815260200190815260200160002060006101000a81548160ff0219169083151502179055508173ffffffffffffffffffffffffffffffffffffffff168373ffffffffffffffffffffffffffffffffffffffff167f17307eab39ab6107e8899845ad3d59bd9653f200f220920489ca2b5937696c318360405161250991906131c7565b60405180910390a3505050565b612521848484611ca0565b61252d8484848461296e565b61256c576040517f08c379a000000000000000000000000000000000000000000000000000000000815260040161256390614ad6565b60405180910390fd5b50505050565b60008282604051602001612587929190614b5f565b60405160208183030381529060405280519060200120905092915050565b600082826040516020016125ba929190614b8b565b60405160208183030381529060405280519060200120905092915050565b600081600001549050919050565b612600828260405180602001604052806000815250612b05565b5050565b6001816000016000828254019250508190555050565b60007f01ffc9a7000000000000000000000000000000000000000000000000000000007bffffffffffffffffffffffffffffffffffffffffffffffffffffffff1916827bffffffffffffffffffffffffffffffffffffffffffffffffffffffff1916149050919050565b60008073ffffffffffffffffffffffffffffffffffffffff166067600084815260200190815260200160002060009054906101000a900473ffffffffffffffffffffffffffffffffffffffff1673ffffffffffffffffffffffffffffffffffffffff1614159050919050565b60006126fb33610edd565b1561270f57601436033560601c905061271e565b612717612b60565b905061271f565b5b90565b61272d838383612b68565b600073ffffffffffffffffffffffffffffffffffffffff168373ffffffffffffffffffffffffffffffffffffffff1614156127705761276b81612b6d565b6127af565b8173ffffffffffffffffffffffffffffffffffffffff168373ffffffffffffffffffffffffffffffffffffffff16146127ae576127ad8382612bb6565b5b5b600073ffffffffffffffffffffffffffffffffffffffff168273ffffffffffffffffffffffffffffffffffffffff1614156127f2576127ed81612d23565b612831565b8273ffffffffffffffffffffffffffffffffffffffff168273ffffffffffffffffffffffffffffffffffffffff16146128305761282f8282612df4565b5b5b505050565b505050565b600060019054906101000a900460ff1661288a576040517f08c379a00000000000000000000000000000000000000000000000000000000081526004016128819061491a565b60405180910390fd5b81606590805190602001906128a0929190613070565b5080606690805190602001906128b7929190613070565b505050565b600060019054906101000a900460ff1661290b576040517f08c379a00000000000000000000000000000000000000000000000000000000081526004016129029061491a565b60405180910390fd5b61291b612916611b20565b6122e3565b565b600060019054906101000a900460ff1661296c576040517f08c379a00000000000000000000000000000000000000000000000000000000081526004016129639061491a565b60405180910390fd5b565b600061298f8473ffffffffffffffffffffffffffffffffffffffff16612e73565b15612af8578373ffffffffffffffffffffffffffffffffffffffff1663150b7a026129b8611b20565b8786866040518563ffffffff1660e01b81526004016129da9493929190614c0c565b602060405180830381600087803b1580156129f457600080fd5b505af1925050508015612a2557506040513d601f19601f82011682018060405250810190612a229190614c6d565b60015b612aa8573d8060008114612a55576040519150601f19603f3d011682016040523d82523d6000602084013e612a5a565b606091505b50600081511415612aa0576040517f08c379a0000000000000000000000000000000000000000000000000000000008152600401612a9790614ad6565b60405180910390fd5b805181602001fd5b63150b7a0260e01b7bffffffffffffffffffffffffffffffffffffffffffffffffffffffff1916817bffffffffffffffffffffffffffffffffffffffffffffffffffffffff191614915050612afd565b600190505b949350505050565b612b0f8383612e96565b612b1c600084848461296e565b612b5b576040517f08c379a0000000000000000000000000000000000000000000000000000000008152600401612b5290614ad6565b60405180910390fd5b505050565b600033905090565b505050565b609980549050609a600083815260200190815260200160002081905550609981908060018154018082558091505060019003906000526020600020016000909190919091505550565b60006001612bc384610fe9565b612bcd919061452a565b9050600060986000848152602001908152602001600020549050818114612cb2576000609760008673ffffffffffffffffffffffffffffffffffffffff1673ffffffffffffffffffffffffffffffffffffffff168152602001908152602001600020600084815260200190815260200160002054905080609760008773ffffffffffffffffffffffffffffffffffffffff1673ffffffffffffffffffffffffffffffffffffffff168152602001908152602001600020600084815260200190815260200160002081905550816098600083815260200190815260200160002081905550505b6098600084815260200190815260200160002060009055609760008573ffffffffffffffffffffffffffffffffffffffff1673ffffffffffffffffffffffffffffffffffffffff16815260200190815260200160002060008381526020019081526020016000206000905550505050565b60006001609980549050612d37919061452a565b90506000609a6000848152602001908152602001600020549050600060998381548110612d6757612d6661421b565b5b906000526020600020015490508060998381548110612d8957612d8861421b565b5b906000526020600020018190555081609a600083815260200190815260200160002081905550609a6000858152602001908152602001600020600090556099805480612dd857612dd7614c9a565b5b6001900381819060005260206000200160009055905550505050565b6000612dff83610fe9565b905081609760008573ffffffffffffffffffffffffffffffffffffffff1673ffffffffffffffffffffffffffffffffffffffff168152602001908152602001600020600083815260200190815260200160002081905550806098600084815260200190815260200160002081905550505050565b6000808273ffffffffffffffffffffffffffffffffffffffff163b119050919050565b600073ffffffffffffffffffffffffffffffffffffffff168273ffffffffffffffffffffffffffffffffffffffff161415612f06576040517f08c379a0000000000000000000000000000000000000000000000000000000008152600401612efd90614d15565b60405180910390fd5b612f0f81612684565b15612f4f576040517f08c379a0000000000000000000000000000000000000000000000000000000008152600401612f4690614d81565b60405180910390fd5b612f5b60008383612722565b6001606860008473ffffffffffffffffffffffffffffffffffffffff1673ffffffffffffffffffffffffffffffffffffffff1681526020019081526020016000206000828254612fab9190614634565b92505081905550816067600083815260200190815260200160002060006101000a81548173ffffffffffffffffffffffffffffffffffffffff021916908373ffffffffffffffffffffffffffffffffffffffff160217905550808273ffffffffffffffffffffffffffffffffffffffff16600073ffffffffffffffffffffffffffffffffffffffff167fddf252ad1be2c89b69c2b068fc378daa952ba7f163c4a11628f55a4df523b3ef60405160405180910390a461306c60008383612836565b5050565b82805461307c90613bbf565b90600052602060002090601f01602090048101928261309e57600085556130e5565b82601f106130b757805160ff19168380011785556130e5565b828001600101855582156130e5579182015b828111156130e45782518255916020019190600101906130c9565b5b5090506130f291906130f6565b5090565b5b8082111561310f5760008160009055506001016130f7565b5090565b6000604051905090565b600080fd5b600080fd5b60007fffffffff0000000000000000000000000000000000000000000000000000000082169050919050565b61315c81613127565b811461316757600080fd5b50565b60008135905061317981613153565b92915050565b6000602082840312156131955761319461311d565b5b60006131a38482850161316a565b91505092915050565b60008115159050919050565b6131c1816131ac565b82525050565b60006020820190506131dc60008301846131b8565b92915050565b600081519050919050565b600082825260208201905092915050565b60005b8381101561321c578082015181840152602081019050613201565b8381111561322b576000848401525b50505050565b6000601f19601f8301169050919050565b600061324d826131e2565b61325781856131ed565b93506132678185602086016131fe565b61327081613231565b840191505092915050565b600060208201905081810360008301526132958184613242565b905092915050565b6000819050919050565b6132b08161329d565b81146132bb57600080fd5b50565b6000813590506132cd816132a7565b92915050565b6000602082840312156132e9576132e861311d565b5b60006132f7848285016132be565b91505092915050565b600073ffffffffffffffffffffffffffffffffffffffff82169050919050565b600061332b82613300565b9050919050565b61333b81613320565b82525050565b60006020820190506133566000830184613332565b92915050565b61336581613320565b811461337057600080fd5b50565b6000813590506133828161335c565b92915050565b6000806040838503121561339f5761339e61311d565b5b60006133ad85828601613373565b92505060206133be858286016132be565b9150509250929050565b6133d1816131ac565b81146133dc57600080fd5b50565b6000813590506133ee816133c8565b92915050565b6000806040838503121561340b5761340a61311d565b5b6000613419858286016132be565b925050602061342a858286016133df565b9150509250929050565b61343d8161329d565b82525050565b60006020820190506134586000830184613434565b92915050565b6000806000606084860312156134775761347661311d565b5b600061348586828701613373565b935050602061349686828701613373565b92505060406134a7868287016132be565b9150509250925092565b60006134bc82613320565b9050919050565b6134cc816134b1565b81146134d757600080fd5b50565b6000813590506134e9816134c3565b92915050565b600080604083850312156135065761350561311d565b5b6000613514858286016134da565b925050602061352585828601613373565b9150509250929050565b600080fd5b7f4e487b7100000000000000000000000000000000000000000000000000000000600052604160045260246000fd5b61356c82613231565b810181811067ffffffffffffffff8211171561358b5761358a613534565b5b80604052505050565b600061359e613113565b90506135aa8282613563565b919050565b600067ffffffffffffffff8211156135ca576135c9613534565b5b602082029050919050565b600080fd5b60006135ed6135e8846135af565b613594565b90508060208402830185811115613607576136066135d5565b5b835b81811015613630578061361c88826132be565b845260208401935050602081019050613609565b5050509392505050565b600082601f83011261364f5761364e61352f565b5b601861365c8482856135da565b91505092915050565b600080610320838503121561367d5761367c61311d565b5b600061368b858286016132be565b925050602061369c8582860161363a565b9150509250929050565b6000602082840312156136bc576136bb61311d565b5b60006136ca84828501613373565b91505092915050565b600080604083850312156136ea576136e961311d565b5b60006136f885828601613373565b9250506020613709858286016133df565b9150509250929050565b600080fd5b600067ffffffffffffffff82111561373357613732613534565b5b61373c82613231565b9050602081019050919050565b82818337600083830152505050565b600061376b61376684613718565b613594565b90508281526020810184848401111561378757613786613713565b5b613792848285613749565b509392505050565b600082601f8301126137af576137ae61352f565b5b81356137bf848260208601613758565b91505092915050565b600080600080608085870312156137e2576137e161311d565b5b60006137f087828801613373565b945050602061380187828801613373565b9350506040613812878288016132be565b925050606085013567ffffffffffffffff81111561383357613832613122565b5b61383f8782880161379a565b91505092959194509250565b600080604083850312156138625761386161311d565b5b600061387085828601613373565b925050602061388185828601613373565b9150509250929050565b6000819050919050565b61389e8161388b565b81146138a957600080fd5b50565b6000813590506138bb81613895565b92915050565b600067ffffffffffffffff8211156138dc576138db613534565b5b602082029050602081019050919050565b600080fd5b600080fd5b600067ffffffffffffffff82111561391257613911613534565b5b61391b82613231565b9050602081019050919050565b600061393b613936846138f7565b613594565b90508281526020810184848401111561395757613956613713565b5b613962848285613749565b509392505050565b600082601f83011261397f5761397e61352f565b5b813561398f848260208601613928565b91505092915050565b6000604082840312156139ae576139ad6138ed565b5b6139b86040613594565b9050600082013567ffffffffffffffff8111156139d8576139d76138f2565b5b6139e48482850161396a565b60008301525060206139f8848285016132be565b60208301525092915050565b6000613a17613a12846138c1565b613594565b90508083825260208201905060208402830185811115613a3a57613a396135d5565b5b835b81811015613a8157803567ffffffffffffffff811115613a5f57613a5e61352f565b5b808601613a6c8982613998565b85526020850194505050602081019050613a3c565b5050509392505050565b600082601f830112613aa057613a9f61352f565b5b8135613ab0848260208601613a04565b91505092915050565b60008060008060808587031215613ad357613ad261311d565b5b6000613ae1878288016132be565b9450506020613af2878288016132be565b9350506040613b03878288016138ac565b925050606085013567ffffffffffffffff811115613b2457613b23613122565b5b613b3087828801613a8b565b91505092959194509250565b60008060006103408486031215613b5657613b5561311d565b5b6000613b64868287016132be565b9350506020613b75868287016132be565b9250506040613b868682870161363a565b9150509250925092565b7f4e487b7100000000000000000000000000000000000000000000000000000000600052602260045260246000fd5b60006002820490506001821680613bd757607f821691505b60208210811415613beb57613bea613b90565b5b50919050565b7f4552433732313a20617070726f76616c20746f2063757272656e74206f776e6560008201527f7200000000000000000000000000000000000000000000000000000000000000602082015250565b6000613c4d6021836131ed565b9150613c5882613bf1565b604082019050919050565b60006020820190508181036000830152613c7c81613c40565b9050919050565b7f4552433732313a20617070726f76652063616c6c6572206973206e6f7420746f60008201527f6b656e206f776e6572206e6f7220617070726f76656420666f7220616c6c0000602082015250565b6000613cdf603e836131ed565b9150613cea82613c83565b604082019050919050565b60006020820190508181036000830152613d0e81613cd2565b9050919050565b6000604082019050613d2a6000830185613332565b613d376020830184613434565b9392505050565b600081519050613d4d816133c8565b92915050565b600060208284031215613d6957613d6861311d565b5b6000613d7784828501613d3e565b91505092915050565b7f796f7520617265206e6f74206576656e742067726f7570206f776e6572000000600082015250565b6000613db6601d836131ed565b9150613dc182613d80565b602082019050919050565b60006020820190508181036000830152613de581613da9565b9050919050565b7f4552433732313a2063616c6c6572206973206e6f7420746f6b656e206f776e6560008201527f72206e6f7220617070726f766564000000000000000000000000000000000000602082015250565b6000613e48602e836131ed565b9150613e5382613dec565b604082019050919050565b60006020820190508181036000830152613e7781613e3b565b9050919050565b7f455243373231456e756d657261626c653a206f776e657220696e646578206f7560008201527f74206f6620626f756e6473000000000000000000000000000000000000000000602082015250565b6000613eda602b836131ed565b9150613ee582613e7e565b604082019050919050565b60006020820190508181036000830152613f0981613ecd565b9050919050565b7f496e697469616c697a61626c653a20636f6e747261637420697320616c72656160008201527f647920696e697469616c697a6564000000000000000000000000000000000000602082015250565b6000613f6c602e836131ed565b9150613f7782613f10565b604082019050919050565b60006020820190508181036000830152613f9b81613f5f565b9050919050565b600060ff82169050919050565b613fb881613fa2565b82525050565b6000602082019050613fd36000830184613faf565b92915050565b7f696e76616c696420736563726574207068726173650000000000000000000000600082015250565b600061400f6015836131ed565b915061401a82613fd9565b602082019050919050565b6000602082019050818103600083015261403e81614002565b9050919050565b7f72656d61696e696e6720636f756e74206973207a65726f000000000000000000600082015250565b600061407b6017836131ed565b915061408682614045565b602082019050919050565b600060208201905081810360008301526140aa8161406e565b9050919050565b7f616c7265616479206d696e746564000000000000000000000000000000000000600082015250565b60006140e7600e836131ed565b91506140f2826140b1565b602082019050919050565b60006020820190508181036000830152614116816140da565b9050919050565b7f6d696e74206973206c6f636b6564000000000000000000000000000000000000600082015250565b6000614153600e836131ed565b915061415e8261411d565b602082019050919050565b6000602082019050818103600083015261418281614146565b9050919050565b7f455243373231456e756d657261626c653a20676c6f62616c20696e646578206f60008201527f7574206f6620626f756e64730000000000000000000000000000000000000000602082015250565b60006141e5602c836131ed565b91506141f082614189565b604082019050919050565b60006020820190508181036000830152614214816141d8565b9050919050565b7f4e487b7100000000000000000000000000000000000000000000000000000000600052603260045260246000fd5b7f4552433732313a20696e76616c696420746f6b656e2049440000000000000000600082015250565b60006142806018836131ed565b915061428b8261424a565b602082019050919050565b600060208201905081810360008301526142af81614273565b9050919050565b7f4552433732313a2061646472657373207a65726f206973206e6f74206120766160008201527f6c6964206f776e65720000000000000000000000000000000000000000000000602082015250565b60006143126029836131ed565b915061431d826142b6565b604082019050919050565b6000602082019050818103600083015261434181614305565b9050919050565b7f6576656e74206d616e61676572206164647265737320697320626c616e6b0000600082015250565b600061437e601e836131ed565b915061438982614348565b602082019050919050565b600060208201905081810360008301526143ad81614371565b9050919050565b7f756e617574686f72697a65640000000000000000000000000000000000000000600082015250565b60006143ea600c836131ed565b91506143f5826143b4565b602082019050919050565b60006020820190508181036000830152614419816143dd565b9050919050565b7f4e487b7100000000000000000000000000000000000000000000000000000000600052601160045260246000fd5b600061445a8261329d565b91507fffffffffffffffffffffffffffffffffffffffffffffffffffffffffffffffff82141561448d5761448c614420565b5b600182019050919050565b7f4f776e61626c653a206e6577206f776e657220697320746865207a65726f206160008201527f6464726573730000000000000000000000000000000000000000000000000000602082015250565b60006144f46026836131ed565b91506144ff82614498565b604082019050919050565b60006020820190508181036000830152614523816144e7565b9050919050565b60006145358261329d565b91506145408361329d565b92508282101561455357614552614420565b5b828203905092915050565b600060189050919050565b600081905092915050565b6000819050919050565b6145878161329d565b82525050565b6000614599838361457e565b60208301905092915050565b6000602082019050919050565b6145bb8161455e565b6145c58184614569565b92506145d082614574565b8060005b838110156146015781516145e8878261458d565b96506145f3836145a5565b9250506001810190506145d4565b505050505050565b60006103208201905061461f60008301856145b2565b61462d610300830184613434565b9392505050565b600061463f8261329d565b915061464a8361329d565b9250827fffffffffffffffffffffffffffffffffffffffffffffffffffffffffffffffff0382111561467f5761467e614420565b5b828201905092915050565b600081905092915050565b50565b60006146a560008361468a565b91506146b082614695565b600082019050919050565b60006146c682614698565b9150819050919050565b60006146db826131e2565b6146e5818561468a565b93506146f58185602086016131fe565b80840191505092915050565b600061470d82846146d0565b915081905092915050565b7f4552433732313a207472616e736665722066726f6d20696e636f72726563742060008201527f6f776e6572000000000000000000000000000000000000000000000000000000602082015250565b60006147746025836131ed565b915061477f82614718565b604082019050919050565b600060208201905081810360008301526147a381614767565b9050919050565b7f4552433732313a207472616e7366657220746f20746865207a65726f2061646460008201527f7265737300000000000000000000000000000000000000000000000000000000602082015250565b60006148066024836131ed565b9150614811826147aa565b604082019050919050565b60006020820190508181036000830152614835816147f9565b9050919050565b7f4f776e61626c653a2063616c6c6572206973206e6f7420746865206f776e6572600082015250565b60006148726020836131ed565b915061487d8261483c565b602082019050919050565b600060208201905081810360008301526148a181614865565b9050919050565b7f496e697469616c697a61626c653a20636f6e7472616374206973206e6f74206960008201527f6e697469616c697a696e67000000000000000000000000000000000000000000602082015250565b6000614904602b836131ed565b915061490f826148a8565b604082019050919050565b60006020820190508181036000830152614933816148f7565b9050919050565b600060019050919050565b600081905092915050565b6000819050919050565b6000602082019050919050565b6149708161493a565b61497a8184614945565b925061498582614950565b8060005b838110156149b657815161499d878261458d565b96506149a88361495a565b925050600181019050614989565b505050505050565b6000610340820190506149d460008301866145b2565b6149e2610300830185614967565b6149f0610320830184613434565b949350505050565b7f4552433732313a20617070726f766520746f2063616c6c657200000000000000600082015250565b6000614a2e6019836131ed565b9150614a39826149f8565b602082019050919050565b60006020820190508181036000830152614a5d81614a21565b9050919050565b7f4552433732313a207472616e7366657220746f206e6f6e20455243373231526560008201527f63656976657220696d706c656d656e7465720000000000000000000000000000602082015250565b6000614ac06032836131ed565b9150614acb82614a64565b604082019050919050565b60006020820190508181036000830152614aef81614ab3565b9050919050565b60008160601b9050919050565b6000614b0e82614af6565b9050919050565b6000614b2082614b03565b9050919050565b614b38614b3382613320565b614b15565b82525050565b6000819050919050565b614b59614b548261329d565b614b3e565b82525050565b6000614b6b8285614b27565b601482019150614b7b8284614b48565b6020820191508190509392505050565b6000614b978285614b48565b602082019150614ba78284614b48565b6020820191508190509392505050565b600081519050919050565b600082825260208201905092915050565b6000614bde82614bb7565b614be88185614bc2565b9350614bf88185602086016131fe565b614c0181613231565b840191505092915050565b6000608082019050614c216000830187613332565b614c2e6020830186613332565b614c3b6040830185613434565b8181036060830152614c4d8184614bd3565b905095945050505050565b600081519050614c6781613153565b92915050565b600060208284031215614c8357614c8261311d565b5b6000614c9184828501614c58565b91505092915050565b7f4e487b7100000000000000000000000000000000000000000000000000000000600052603160045260246000fd5b7f4552433732313a206d696e7420746f20746865207a65726f2061646472657373600082015250565b6000614cff6020836131ed565b9150614d0a82614cc9565b602082019050919050565b60006020820190508181036000830152614d2e81614cf2565b9050919050565b7f4552433732313a20746f6b656e20616c7265616479206d696e74656400000000600082015250565b6000614d6b601c836131ed565b9150614d7682614d35565b602082019050919050565b60006020820190508181036000830152614d9a81614d5e565b905091905056fea2646970667358221220f1b918e64bc11fb59d16c31cfe38e342e8b64af79f5af6f8ae141e8247fe752764736f6c63430008090033",
  "linkReferences": {},
  "deployedLinkReferences": {}
}