{
  "_format": "hh-sol-artifact-1",
  "contractName": "MintNFT",
  "sourceName": "contracts/MintNFT.sol",
  "abi": [
    {
      "anonymous": false,
      "inputs": [
        {
          "indexed": true,
          "internalType": "address",
          "name": "owner",
          "type": "address"
        },
        {
          "indexed": true,
          "internalType": "address",
          "name": "approved",
          "type": "address"
        },
        {
          "indexed": true,
          "internalType": "uint256",
          "name": "tokenId",
          "type": "uint256"
        }
      ],
      "name": "Approval",
      "type": "event"
    },
    {
      "anonymous": false,
      "inputs": [
        {
          "indexed": true,
          "internalType": "address",
          "name": "owner",
          "type": "address"
        },
        {
          "indexed": true,
          "internalType": "address",
          "name": "operator",
          "type": "address"
        },
        {
          "indexed": false,
          "internalType": "bool",
          "name": "approved",
          "type": "bool"
        }
      ],
      "name": "ApprovalForAll",
      "type": "event"
    },
    {
      "anonymous": false,
      "inputs": [
        {
          "indexed": false,
          "internalType": "uint8",
          "name": "version",
          "type": "uint8"
        }
      ],
      "name": "Initialized",
      "type": "event"
    },
    {
      "anonymous": false,
      "inputs": [
        {
          "indexed": true,
          "internalType": "uint256",
          "name": "eventId",
          "type": "uint256"
        },
        {
          "indexed": false,
          "internalType": "bool",
          "name": "isLocked",
          "type": "bool"
        }
      ],
      "name": "MintLocked",
      "type": "event"
    },
    {
      "anonymous": false,
      "inputs": [
        {
          "indexed": true,
          "internalType": "address",
          "name": "holder",
          "type": "address"
        },
        {
          "indexed": false,
          "internalType": "string",
          "name": "url",
          "type": "string"
        }
      ],
      "name": "MintedNFTAttributeURL",
      "type": "event"
    },
    {
      "anonymous": false,
      "inputs": [
        {
          "indexed": true,
          "internalType": "address",
          "name": "previousOwner",
          "type": "address"
        },
        {
          "indexed": true,
          "internalType": "address",
          "name": "newOwner",
          "type": "address"
        }
      ],
      "name": "OwnershipTransferred",
      "type": "event"
    },
    {
      "anonymous": false,
      "inputs": [
        {
          "indexed": true,
          "internalType": "address",
          "name": "executor",
          "type": "address"
        },
        {
          "indexed": true,
          "internalType": "uint256",
          "name": "eventId",
          "type": "uint256"
        }
      ],
      "name": "ResetSecretPhrase",
      "type": "event"
    },
    {
      "anonymous": false,
      "inputs": [
        {
          "indexed": true,
          "internalType": "address",
          "name": "from",
          "type": "address"
        },
        {
          "indexed": true,
          "internalType": "address",
          "name": "to",
          "type": "address"
        },
        {
          "indexed": true,
          "internalType": "uint256",
          "name": "tokenId",
          "type": "uint256"
        }
      ],
      "name": "Transfer",
      "type": "event"
    },
    {
      "inputs": [
        {
          "internalType": "address",
          "name": "to",
          "type": "address"
        },
        {
          "internalType": "uint256",
          "name": "tokenId",
          "type": "uint256"
        }
      ],
      "name": "approve",
      "outputs": [],
      "stateMutability": "nonpayable",
      "type": "function"
    },
    {
      "inputs": [
        {
          "internalType": "address",
          "name": "owner",
          "type": "address"
        }
      ],
      "name": "balanceOf",
      "outputs": [
        {
          "internalType": "uint256",
          "name": "",
          "type": "uint256"
        }
      ],
      "stateMutability": "view",
      "type": "function"
    },
    {
      "inputs": [
        {
          "internalType": "uint256",
          "name": "tokenId",
          "type": "uint256"
        }
      ],
      "name": "burn",
      "outputs": [],
      "stateMutability": "nonpayable",
      "type": "function"
    },
    {
      "inputs": [
        {
          "internalType": "uint256",
          "name": "_eventId",
          "type": "uint256"
        },
        {
          "internalType": "uint256[24]",
          "name": "_proof",
          "type": "uint256[24]"
        }
      ],
      "name": "canMint",
      "outputs": [
        {
          "internalType": "bool",
          "name": "",
          "type": "bool"
        }
      ],
      "stateMutability": "view",
      "type": "function"
    },
    {
      "inputs": [
        {
          "internalType": "uint256",
          "name": "_eventId",
          "type": "uint256"
        },
        {
          "internalType": "bool",
          "name": "_locked",
          "type": "bool"
        }
      ],
      "name": "changeMintLocked",
      "outputs": [],
      "stateMutability": "nonpayable",
      "type": "function"
    },
    {
      "inputs": [
        {
          "internalType": "uint256",
          "name": "tokenId",
          "type": "uint256"
        }
      ],
      "name": "getApproved",
      "outputs": [
        {
          "internalType": "address",
          "name": "",
          "type": "address"
        }
      ],
      "stateMutability": "view",
      "type": "function"
    },
    {
      "inputs": [
        {
          "internalType": "uint256",
          "name": "_eventId",
          "type": "uint256"
        }
      ],
      "name": "getIsMintLocked",
      "outputs": [
        {
          "internalType": "bool",
          "name": "",
          "type": "bool"
        }
      ],
      "stateMutability": "view",
      "type": "function"
    },
    {
      "inputs": [
        {
          "internalType": "uint256",
          "name": "_eventId",
          "type": "uint256"
        },
        {
          "internalType": "uint256",
          "name": "_limit",
          "type": "uint256"
        },
        {
          "internalType": "uint256",
          "name": "_offset",
          "type": "uint256"
        }
      ],
      "name": "getNFTAttributeRecordsByEventId",
      "outputs": [
        {
          "components": [
            {
              "internalType": "string",
              "name": "metaDataURL",
              "type": "string"
            },
            {
              "internalType": "uint256",
              "name": "requiredParticipateCount",
              "type": "uint256"
            }
          ],
          "internalType": "struct MintNFT.NFTAttribute[]",
          "name": "",
          "type": "tuple[]"
        }
      ],
      "stateMutability": "view",
      "type": "function"
    },
    {
      "inputs": [
        {
          "internalType": "uint256",
          "name": "_eventId",
          "type": "uint256"
        }
      ],
      "name": "getNFTHoldersByEvent",
      "outputs": [
        {
          "components": [
            {
              "internalType": "address",
              "name": "holderAddress",
              "type": "address"
            },
            {
              "internalType": "uint256",
              "name": "tokenId",
              "type": "uint256"
            }
          ],
          "internalType": "struct MintNFT.NFTHolder[]",
          "name": "",
          "type": "tuple[]"
        }
      ],
      "stateMutability": "view",
      "type": "function"
    },
    {
      "inputs": [
        {
          "internalType": "uint256",
          "name": "_groupId",
          "type": "uint256"
        }
      ],
      "name": "getNFTHoldersByEventGroup",
      "outputs": [
        {
          "components": [
            {
              "internalType": "address",
              "name": "holderAddress",
              "type": "address"
            },
            {
              "internalType": "uint256",
              "name": "eventId",
              "type": "uint256"
            },
            {
              "internalType": "uint256",
              "name": "tokenId",
              "type": "uint256"
            }
          ],
          "internalType": "struct MintNFT.NFTHolderWithEventId[]",
          "name": "",
          "type": "tuple[]"
        }
      ],
      "stateMutability": "view",
      "type": "function"
    },
    {
      "inputs": [
        {
          "internalType": "uint256",
          "name": "_eventId",
          "type": "uint256"
        }
      ],
      "name": "getRemainingNFTCount",
      "outputs": [
        {
          "internalType": "uint256",
          "name": "",
          "type": "uint256"
        }
      ],
      "stateMutability": "view",
      "type": "function"
    },
    {
      "inputs": [
        {
          "internalType": "contract MinimalForwarderUpgradeable",
          "name": "trustedForwarder",
          "type": "address"
        },
        {
          "internalType": "address",
          "name": "_secretPhraseVerifierAddr",
          "type": "address"
        }
      ],
      "name": "initialize",
      "outputs": [],
      "stateMutability": "nonpayable",
      "type": "function"
    },
    {
      "inputs": [
        {
          "internalType": "address",
          "name": "owner",
          "type": "address"
        },
        {
          "internalType": "address",
          "name": "operator",
          "type": "address"
        }
      ],
      "name": "isApprovedForAll",
      "outputs": [
        {
          "internalType": "bool",
          "name": "",
          "type": "bool"
        }
      ],
      "stateMutability": "view",
      "type": "function"
    },
    {
      "inputs": [
        {
          "internalType": "address",
          "name": "_addr",
          "type": "address"
        },
        {
          "internalType": "uint256",
          "name": "_eventId",
          "type": "uint256"
        }
      ],
      "name": "isHoldingEventNFTByAddress",
      "outputs": [
        {
          "internalType": "bool",
          "name": "",
          "type": "bool"
        }
      ],
      "stateMutability": "view",
      "type": "function"
    },
    {
      "inputs": [
        {
          "internalType": "address",
          "name": "forwarder",
          "type": "address"
        }
      ],
      "name": "isTrustedForwarder",
      "outputs": [
        {
          "internalType": "bool",
          "name": "",
          "type": "bool"
        }
      ],
      "stateMutability": "view",
      "type": "function"
    },
    {
      "inputs": [
        {
          "internalType": "uint256",
          "name": "_groupId",
          "type": "uint256"
        },
        {
          "internalType": "uint256",
          "name": "_eventId",
          "type": "uint256"
        },
        {
          "internalType": "uint256[24]",
          "name": "_proof",
          "type": "uint256[24]"
        }
      ],
      "name": "mintParticipateNFT",
      "outputs": [],
      "stateMutability": "nonpayable",
      "type": "function"
    },
    {
      "inputs": [],
      "name": "name",
      "outputs": [
        {
          "internalType": "string",
          "name": "",
          "type": "string"
        }
      ],
      "stateMutability": "view",
      "type": "function"
    },
    {
      "inputs": [],
      "name": "owner",
      "outputs": [
        {
          "internalType": "address",
          "name": "",
          "type": "address"
        }
      ],
      "stateMutability": "view",
      "type": "function"
    },
    {
      "inputs": [
        {
          "internalType": "uint256",
          "name": "tokenId",
          "type": "uint256"
        }
      ],
      "name": "ownerOf",
      "outputs": [
        {
          "internalType": "address",
          "name": "",
          "type": "address"
        }
      ],
      "stateMutability": "view",
      "type": "function"
    },
    {
      "inputs": [
        {
          "internalType": "uint256[]",
          "name": "_tokenIdArray",
          "type": "uint256[]"
        }
      ],
      "name": "ownerOfTokens",
      "outputs": [
        {
          "components": [
            {
              "internalType": "address",
              "name": "holderAddress",
              "type": "address"
            },
            {
              "internalType": "uint256",
              "name": "tokenId",
              "type": "uint256"
            }
          ],
          "internalType": "struct MintNFT.NFTHolder[]",
          "name": "",
          "type": "tuple[]"
        }
      ],
      "stateMutability": "view",
      "type": "function"
    },
    {
      "inputs": [],
      "name": "renounceOwnership",
      "outputs": [],
      "stateMutability": "nonpayable",
      "type": "function"
    },
    {
      "inputs": [
        {
          "internalType": "uint256",
          "name": "_eventId",
          "type": "uint256"
        },
        {
          "internalType": "bytes32",
          "name": "_secretPhrase",
          "type": "bytes32"
        }
      ],
      "name": "resetSecretPhrase",
      "outputs": [],
      "stateMutability": "nonpayable",
      "type": "function"
    },
    {
      "inputs": [
        {
          "internalType": "address",
          "name": "from",
          "type": "address"
        },
        {
          "internalType": "address",
          "name": "to",
          "type": "address"
        },
        {
          "internalType": "uint256",
          "name": "tokenId",
          "type": "uint256"
        }
      ],
      "name": "safeTransferFrom",
      "outputs": [],
      "stateMutability": "nonpayable",
      "type": "function"
    },
    {
      "inputs": [
        {
          "internalType": "address",
          "name": "from",
          "type": "address"
        },
        {
          "internalType": "address",
          "name": "to",
          "type": "address"
        },
        {
          "internalType": "uint256",
          "name": "tokenId",
          "type": "uint256"
        },
        {
          "internalType": "bytes",
          "name": "data",
          "type": "bytes"
        }
      ],
      "name": "safeTransferFrom",
      "outputs": [],
      "stateMutability": "nonpayable",
      "type": "function"
    },
    {
      "inputs": [
        {
          "internalType": "address",
          "name": "operator",
          "type": "address"
        },
        {
          "internalType": "bool",
          "name": "approved",
          "type": "bool"
        }
      ],
      "name": "setApprovalForAll",
      "outputs": [],
      "stateMutability": "nonpayable",
      "type": "function"
    },
    {
      "inputs": [
        {
          "internalType": "uint256",
          "name": "_eventId",
          "type": "uint256"
        },
        {
          "internalType": "uint256",
          "name": "_mintLimit",
          "type": "uint256"
        },
        {
          "internalType": "bytes32",
          "name": "_secretPhrase",
          "type": "bytes32"
        },
        {
          "components": [
            {
              "internalType": "string",
              "name": "metaDataURL",
              "type": "string"
            },
            {
              "internalType": "uint256",
              "name": "requiredParticipateCount",
              "type": "uint256"
            }
          ],
          "internalType": "struct MintNFT.NFTAttribute[]",
          "name": "attributes",
          "type": "tuple[]"
        }
      ],
      "name": "setEventInfo",
      "outputs": [],
      "stateMutability": "nonpayable",
      "type": "function"
    },
    {
      "inputs": [
        {
          "internalType": "address",
          "name": "_addr",
          "type": "address"
        }
      ],
      "name": "setEventManagerAddr",
      "outputs": [],
      "stateMutability": "nonpayable",
      "type": "function"
    },
    {
      "inputs": [
        {
          "internalType": "bytes4",
          "name": "interfaceId",
          "type": "bytes4"
        }
      ],
      "name": "supportsInterface",
      "outputs": [
        {
          "internalType": "bool",
          "name": "",
          "type": "bool"
        }
      ],
      "stateMutability": "view",
      "type": "function"
    },
    {
      "inputs": [],
      "name": "symbol",
      "outputs": [
        {
          "internalType": "string",
          "name": "",
          "type": "string"
        }
      ],
      "stateMutability": "view",
      "type": "function"
    },
    {
      "inputs": [
        {
          "internalType": "uint256",
          "name": "index",
          "type": "uint256"
        }
      ],
      "name": "tokenByIndex",
      "outputs": [
        {
          "internalType": "uint256",
          "name": "",
          "type": "uint256"
        }
      ],
      "stateMutability": "view",
      "type": "function"
    },
    {
      "inputs": [
        {
          "internalType": "address",
          "name": "owner",
          "type": "address"
        },
        {
          "internalType": "uint256",
          "name": "index",
          "type": "uint256"
        }
      ],
      "name": "tokenOfOwnerByIndex",
      "outputs": [
        {
          "internalType": "uint256",
          "name": "",
          "type": "uint256"
        }
      ],
      "stateMutability": "view",
      "type": "function"
    },
    {
      "inputs": [
        {
          "internalType": "uint256",
          "name": "_tokenId",
          "type": "uint256"
        }
      ],
      "name": "tokenURI",
      "outputs": [
        {
          "internalType": "string",
          "name": "",
          "type": "string"
        }
      ],
      "stateMutability": "view",
      "type": "function"
    },
    {
      "inputs": [],
      "name": "totalSupply",
      "outputs": [
        {
          "internalType": "uint256",
          "name": "",
          "type": "uint256"
        }
      ],
      "stateMutability": "view",
      "type": "function"
    },
    {
      "inputs": [
        {
          "internalType": "address",
          "name": "from",
          "type": "address"
        },
        {
          "internalType": "address",
          "name": "to",
          "type": "address"
        },
        {
          "internalType": "uint256",
          "name": "tokenId",
          "type": "uint256"
        }
      ],
      "name": "transferFrom",
      "outputs": [],
      "stateMutability": "nonpayable",
      "type": "function"
    },
    {
      "inputs": [
        {
          "internalType": "address",
          "name": "newOwner",
          "type": "address"
        }
      ],
      "name": "transferOwnership",
      "outputs": [],
      "stateMutability": "nonpayable",
      "type": "function"
    }
  ],
  "bytecode": "0x608060405234801561001057600080fd5b50613815806100206000396000f3fe608060405234801561001057600080fd5b50600436106102115760003560e01c806370a0823111610125578063b88d4fde116100ad578063df4b39dd1161007c578063df4b39dd146104ac578063e985e9c5146104d0578063ef3ad9eb1461050c578063f2fde38b1461051f578063fa86623b1461053257600080fd5b8063b88d4fde14610460578063c4b88ea414610473578063c87b56dd14610486578063d622abc21461049957600080fd5b80639041e3f4116100f45780639041e3f4146103ff57806395d89b41146104125780639dcd68111461041a578063a22cb4651461042d578063af5723b11461044057600080fd5b806370a08231146103b3578063715018a6146103c65780638da5cb5b146103ce5780638f70738e146103df57600080fd5b80632f745c59116101a85780634df30149116101775780634df30149146103375780634f6ccce71461034a5780634ffc9f4b1461035d578063572b6c051461037e5780636352211e146103a057600080fd5b80632f745c59146102eb57806342842e0e146102fe57806342966c6814610311578063485cc9551461032457600080fd5b80630daa8be7116101e45780630daa8be71461029357806318160ddd146102a657806319ffeb3b146102b857806323b872dd146102d857600080fd5b806301ffc9a71461021657806306fdde031461023e578063081812fc14610253578063095ea7b31461027e575b600080fd5b610229610224366004612bc5565b610545565b60405190151581526020015b60405180910390f35b610246610570565b6040516102359190612c41565b610266610261366004612c54565b610602565b6040516001600160a01b039091168152602001610235565b61029161028c366004612c82565b610629565b005b6102916102a1366004612cbc565b610756565b6099545b604051908152602001610235565b6102cb6102c6366004612cec565b610851565b6040516102359190612d18565b6102916102e6366004612d8e565b610c2c565b6102aa6102f9366004612c82565b610c64565b61029161030c366004612d8e565b610cfa565b61029161031f366004612c54565b610d15565b610291610332366004612dcf565b610d29565b610229610345366004612efa565b610e77565b6102aa610358366004612c54565b610fcc565b6102aa61036b366004612c54565b6000908152610134602052604090205490565b61022961038c366004612f28565b60c9546001600160a01b0391821691161490565b6102666103ae366004612c54565b61105f565b6102aa6103c1366004612f28565b6110bf565b610291611145565b60fc546001600160a01b0316610266565b6103f26103ed366004612c54565b611159565b6040516102359190612f45565b61029161040d366004612f28565b611484565b610246611505565b610291610428366004612fa7565b611514565b61029161043b366004612fc9565b61160b565b61045361044e36600461301a565b611621565b60405161023591906130af565b61029161046e36600461315a565b611721565b610453610481366004612c54565b611760565b610246610494366004612c54565b6117cd565b6102296104a7366004612c82565b611872565b6102296104ba366004612c54565b6000908152610136602052604090205460ff1690565b6102296104de366004612dcf565b6001600160a01b039182166000908152606a6020908152604080832093909416825291909152205460ff1690565b61029161051a3660046131d9565b61189e565b61029161052d366004612f28565b6119a7565b6102916105403660046132ff565b611a1d565b60006001600160e01b0319821663780e9d6360e01b148061056a575061056a82611da1565b92915050565b60606065805461057f90613336565b80601f01602080910402602001604051908101604052809291908181526020018280546105ab90613336565b80156105f85780601f106105cd576101008083540402835291602001916105f8565b820191906000526020600020905b8154815290600101906020018083116105db57829003601f168201915b5050505050905090565b600061060d82611df1565b506000908152606960205260409020546001600160a01b031690565b60006106348261105f565b9050806001600160a01b0316836001600160a01b031614156106a75760405162461bcd60e51b815260206004820152602160248201527f4552433732313a20617070726f76616c20746f2063757272656e74206f776e656044820152603960f91b60648201526084015b60405180910390fd5b806001600160a01b03166106b9611e50565b6001600160a01b031614806106d557506106d5816104de611e50565b6107475760405162461bcd60e51b815260206004820152603e60248201527f4552433732313a20617070726f76652063616c6c6572206973206e6f7420746f60448201527f6b656e206f776e6572206e6f7220617070726f76656420666f7220616c6c0000606482015260840161069e565b6107518383611e80565b505050565b61012f54604051630c23a41560e11b81523360048201526024810184905283916001600160a01b0316908190631847482a9060440160206040518083038186803b1580156107a357600080fd5b505afa1580156107b7573d6000803e3d6000fd5b505050506040513d601f19601f820116820180604052508101906107db9190613381565b6107f75760405162461bcd60e51b815260040161069e9061339e565b60008481526101366020908152604091829020805460ff1916861515908117909155915191825285917f1e3ed2b292ed72652054799a4fde74789a8670c153df666f76e01345ec318281910160405180910390a250505050565b61012f54604051630c23a41560e11b81523360048201526024810185905260609185916001600160a01b03909116908190631847482a9060440160206040518083038186803b1580156108a357600080fd5b505afa1580156108b7573d6000803e3d6000fd5b505050506040513d601f19601f820116820180604052508101906108db9190613381565b6108f75760405162461bcd60e51b815260040161069e9061339e565b8461090157606494505b60648511156109475760405162461bcd60e51b81526020600482015260126024820152716c696d697420697320746f6f206c6172676560701b604482015260640161069e565b6000856001600160401b0381111561096157610961612dfd565b6040519080825280602002602001820160405280156109a757816020015b60408051808201909152606081526000602082015281526020019060019003908161097f5790505b5090506109b6866000196133eb565b851115610a115760405162461bcd60e51b815260206004820152602360248201527f6c696d6974202b206f6666736574206d757374206265203c3d20325e323536206044820152622d203160e81b606482015260840161069e565b6000610a1d8688613402565b90506000865b82811015610b655760006101336000610a3c8d85611eee565b81526020019081526020016000208054610a5590613336565b80601f0160208091040260200160405190810160405280929190818152602001828054610a8190613336565b8015610ace5780601f10610aa357610100808354040283529160200191610ace565b820191906000526020600020905b815481529060010190602001808311610ab157829003601f168201915b505060408051600081526020810180835281519020959650610af6945086935001905061341a565b6040516020818303038152906040528051906020012014610b5257604051806040016040528082815260200183815250858481518110610b3857610b38613436565b60200260200101819052508280610b4e9061344c565b9350505b5080610b5d8161344c565b915050610a23565b506000816001600160401b03811115610b8057610b80612dfd565b604051908082528060200260200182016040528015610bc657816020015b604080518082019091526060815260006020820152815260200190600190039081610b9e5790505b50905060005b82811015610c1e57848181518110610be657610be6613436565b6020026020010151828281518110610c0057610c00613436565b60200260200101819052508080610c169061344c565b915050610bcc565b509998505050505050505050565b610c3d610c37611e50565b82611f24565b610c595760405162461bcd60e51b815260040161069e90613467565b610751838383611fa3565b6000610c6f836110bf565b8210610cd15760405162461bcd60e51b815260206004820152602b60248201527f455243373231456e756d657261626c653a206f776e657220696e646578206f7560448201526a74206f6620626f756e647360a81b606482015260840161069e565b506001600160a01b03919091166000908152609760209081526040808320938352929052205490565b61075183838360405180602001604052806000815250611721565b610d1d61214a565b610d26816121c3565b50565b600054600390610100900460ff16158015610d4b575060005460ff8083169116105b610dae5760405162461bcd60e51b815260206004820152602e60248201527f496e697469616c697a61626c653a20636f6e747261637420697320616c72656160448201526d191e481a5b9a5d1a585b1a5e995960921b606482015260840161069e565b6000805461ffff191660ff83161761010017905560408051808201825260098152684d696e7452616c6c7960b81b6020808301919091528251808401909352600283526126a960f11b90830152610e049161226a565b610e0c61229b565b610e15836122ca565b61013780546001600160a01b0319166001600160a01b0384161790556000805461ff001916905560405160ff821681527f7f26b83ff96e1f2b6a682f133852f6798a09c465da95921460cefb38474024989060200160405180910390a1505050565b6000610e83828461231b565b610ec75760405162461bcd60e51b8152602060048201526015602482015274696e76616c6964207365637265742070687261736560581b604482015260640161069e565b60008381526101346020526040902054610f235760405162461bcd60e51b815260206004820152601760248201527f72656d61696e696e6720636f756e74206973207a65726f000000000000000000604482015260640161069e565b610f34610f2e611e50565b84611872565b15610f725760405162461bcd60e51b815260206004820152600e60248201526d185b1c9958591e481b5a5b9d195960921b604482015260640161069e565b6000838152610136602052604090205460ff1615610fc35760405162461bcd60e51b815260206004820152600e60248201526d1b5a5b9d081a5cc81b1bd8dad95960921b604482015260640161069e565b50600192915050565b6000610fd760995490565b821061103a5760405162461bcd60e51b815260206004820152602c60248201527f455243373231456e756d657261626c653a20676c6f62616c20696e646578206f60448201526b7574206f6620626f756e647360a01b606482015260840161069e565b6099828154811061104d5761104d613436565b90600052602060002001549050919050565b6000818152606760205260408120546001600160a01b03168061056a5760405162461bcd60e51b8152602060048201526018602482015277115490cdcc8c4e881a5b9d985b1a59081d1bdad95b88125160421b604482015260640161069e565b60006001600160a01b0382166111295760405162461bcd60e51b815260206004820152602960248201527f4552433732313a2061646472657373207a65726f206973206e6f7420612076616044820152683634b21037bbb732b960b91b606482015260840161069e565b506001600160a01b031660009081526068602052604090205490565b61114d61214a565b61115760006123c9565b565b61012f5460405163f562082360e01b8152600481018390526060916001600160a01b031690600090829063f56208239060240160006040518083038186803b1580156111a457600080fd5b505afa1580156111b8573d6000803e3d6000fd5b505050506040513d6000823e601f3d908101601f191682016040526111e091908101906134fa565b9050600081516001600160401b038111156111fd576111fd612dfd565b60405190808252806020026020018201604052801561123057816020015b606081526020019060019003908161121b5790505b5090506000805b83518110156112bd5761126684828151811061125557611255613436565b602002602001015160000151611760565b83828151811061127857611278613436565b602002602001018190525082818151811061129557611295613436565b602002602001015151826112a99190613402565b9150806112b58161344c565b915050611237565b506000816001600160401b038111156112d8576112d8612dfd565b60405190808252806020026020018201604052801561133657816020015b611323604051806060016040528060006001600160a01b0316815260200160008152602001600081525090565b8152602001906001900390816112f65790505b50905060005b828110156114795760005b85518110156114735760005b85828151811061136557611365613436565b60200260200101515181101561146057604051806060016040528087848151811061139257611392613436565b602002602001015183815181106113ab576113ab613436565b6020026020010151600001516001600160a01b031681526020018884815181106113d7576113d7613436565b60200260200101516000015181526020018784815181106113fa576113fa613436565b6020026020010151838151811061141357611413613436565b60200260200101516020015181525084848151811061143457611434613436565b6020026020010181905250828061144a9061344c565b93505080806114589061344c565b915050611353565b508061146b8161344c565b915050611347565b5061133c565b509695505050505050565b61148c61214a565b6001600160a01b0381166114e25760405162461bcd60e51b815260206004820152601e60248201527f6576656e74206d616e61676572206164647265737320697320626c616e6b0000604482015260640161069e565b61012f80546001600160a01b0319166001600160a01b0392909216919091179055565b60606066805461057f90613336565b61012f54604051630c23a41560e11b81523360048201526024810184905283916001600160a01b0316908190631847482a9060440160206040518083038186803b15801561156157600080fd5b505afa158015611575573d6000803e3d6000fd5b505050506040513d601f19601f820116820180604052508101906115999190613381565b6115b55760405162461bcd60e51b815260040161069e9061339e565b600084815261013560205260409020839055836115d0611e50565b6001600160a01b03167fae5b067be3e4869ca571a499572a09085a17c3d0442a8965b8356bf47f63ba9960405160405180910390a350505050565b61161d611616611e50565b838361241b565b5050565b6060600082516001600160401b0381111561163e5761163e612dfd565b60405190808252806020026020018201604052801561168357816020015b604080518082019091526000808252602082015281526020019060019003908161165c5790505b50905060005b835181101561171a5760405180604001604052806116bf8684815181106116b2576116b2613436565b602002602001015161105f565b6001600160a01b031681526020018583815181106116df576116df613436565b60200260200101518152508282815181106116fc576116fc613436565b602002602001018190525080806117129061344c565b915050611689565b5092915050565b61173261172c611e50565b83611f24565b61174e5760405162461bcd60e51b815260040161069e90613467565b61175a848484846124ea565b50505050565b606061056a61013860008481526020019081526020016000208054806020026020016040519081016040528092919081815260200182805480156117c357602002820191906000526020600020905b8154815260200190600101908083116117af575b5050505050611621565b600081815261013060205260408120805460609291906117ec90613336565b80601f016020809104026020016040519081016040528092919081815260200182805461181890613336565b80156118655780601f1061183a57610100808354040283529160200191611865565b820191906000526020600020905b81548152906001019060200180831161184857829003601f168201915b5093979650505050505050565b60006101316000611883858561251d565b815260208101919091526040016000205460ff169392505050565b61012f546001600160a01b03166118b3611e50565b6001600160a01b0316146118f85760405162461bcd60e51b815260206004820152600c60248201526b1d5b985d5d1a1bdc9a5e995960a21b604482015260640161069e565b60008481526101346020908152604080832086905561013590915281208390555b81518110156119a05781818151811061193457611934613436565b602002602001015160000151610133600061196c8886868151811061195b5761195b613436565b602002602001015160200151611eee565b8152602001908152602001600020908051906020019061198d929190612b16565b50806119988161344c565b915050611919565b5050505050565b6119af61214a565b6001600160a01b038116611a145760405162461bcd60e51b815260206004820152602660248201527f4f776e61626c653a206e6577206f776e657220697320746865207a65726f206160448201526564647265737360d01b606482015260840161069e565b610d26816123c9565b611a278282610e77565b5060008281526101346020526040902054611a44906001906133eb565b60008381526101346020526040908190209190915561013754905163635e393960e11b81526001600160a01b0390911690819063c6bc727290611a8d9085908790600401613676565b600060405180830381600087803b158015611aa757600080fd5b505af1158015611abb573d6000803e3d6000fd5b5050505060016101316000611ad7611ad1611e50565b8761251d565b815260200190815260200160002060006101000a81548160ff0219169083151502179055506000611b0f611b09611e50565b8661251d565b60008181526101326020526040902054909150611b2d816001613402565b6000838152610132602052604081209190915561013381611b4e8882611eee565b81526020019081526020016000208054611b6790613336565b80601f0160208091040260200160405190810160405280929190818152602001828054611b9390613336565b8015611be05780601f10611bb557610100808354040283529160200191611be0565b820191906000526020600020905b815481529060010190602001808311611bc357829003601f168201915b5050505050905060006101336000611bf88986611eee565b81526020019081526020016000208054611c1190613336565b80601f0160208091040260200160405190810160405280929190818152602001828054611c3d90613336565b8015611c8a5780601f10611c5f57610100808354040283529160200191611c8a565b820191906000526020600020905b815481529060010190602001808311611c6d57829003601f168201915b505060408051600081526020810180835281519020959650611cb2945086935001905061341a565b6040516020818303038152906040528051906020012014611cd1578091505b816101306000611ce161012e5490565b81526020019081526020016000209080519060200190611d02929190612b16565b5060008781526101386020526040902061012e5481546001810183556000928352602090922090910155611d40611d37611e50565b61012e5461254b565b611d4f61012e80546001019055565b611d57611e50565b6001600160a01b03167faf2fad1984d2c7abaa9300537cf9fe1bcfaf2d6226e4ffdf03522dbf3064808e83604051611d8f9190612c41565b60405180910390a25050505050505050565b60006001600160e01b031982166380ac58cd60e01b1480611dd257506001600160e01b03198216635b5e139f60e01b145b8061056a57506301ffc9a760e01b6001600160e01b031983161461056a565b6000818152606760205260409020546001600160a01b0316610d265760405162461bcd60e51b8152602060048201526018602482015277115490cdcc8c4e881a5b9d985b1a59081d1bdad95b88125160421b604482015260640161069e565b60c9546000906001600160a01b0316331415611e73575060131936013560601c90565b611e7b612565565b905090565b600081815260696020526040902080546001600160a01b0319166001600160a01b0384169081179091558190611eb58261105f565b6001600160a01b03167f8c5be1e5ebec7d5bd14f71427d1e84f3dd0314c0f7b2291e5b200ac8c7c3b92560405160405180910390a45050565b60408051602081018490529081018290526000906060015b60405160208183030381529060405280519060200120905092915050565b600080611f308361105f565b9050806001600160a01b0316846001600160a01b03161480611f7757506001600160a01b038082166000908152606a602090815260408083209388168352929052205460ff165b80611f9b5750836001600160a01b0316611f9084610602565b6001600160a01b0316145b949350505050565b826001600160a01b0316611fb68261105f565b6001600160a01b03161461201a5760405162461bcd60e51b815260206004820152602560248201527f4552433732313a207472616e736665722066726f6d20696e636f72726563742060448201526437bbb732b960d91b606482015260840161069e565b6001600160a01b03821661207c5760405162461bcd60e51b8152602060048201526024808201527f4552433732313a207472616e7366657220746f20746865207a65726f206164646044820152637265737360e01b606482015260840161069e565b61208783838361258d565b612092600082611e80565b6001600160a01b03831660009081526068602052604081208054600192906120bb9084906133eb565b90915550506001600160a01b03821660009081526068602052604081208054600192906120e9908490613402565b909155505060008181526067602052604080822080546001600160a01b0319166001600160a01b0386811691821790925591518493918716917fddf252ad1be2c89b69c2b068fc378daa952ba7f163c4a11628f55a4df523b3ef91a4505050565b612152611e50565b6001600160a01b031661216d60fc546001600160a01b031690565b6001600160a01b0316146111575760405162461bcd60e51b815260206004820181905260248201527f4f776e61626c653a2063616c6c6572206973206e6f7420746865206f776e6572604482015260640161069e565b60006121ce8261105f565b90506121dc8160008461258d565b6121e7600083611e80565b6001600160a01b03811660009081526068602052604081208054600192906122109084906133eb565b909155505060008281526067602052604080822080546001600160a01b0319169055518391906001600160a01b038416907fddf252ad1be2c89b69c2b068fc378daa952ba7f163c4a11628f55a4df523b3ef908390a45050565b600054610100900460ff166122915760405162461bcd60e51b815260040161069e90613693565b61161d8282612645565b600054610100900460ff166122c25760405162461bcd60e51b815260040161069e90613693565b611157612693565b600054610100900460ff166122f15760405162461bcd60e51b815260040161069e90613693565b6122f96126ca565b60c980546001600160a01b0319166001600160a01b0392909216919091179055565b6101375460408051602080820183526000858152610135909152828120548252915163532dd84d60e11b815291926001600160a01b0316918390839063a65bb09a9061236f90899086908a906004016136de565b60206040518083038186803b15801561238757600080fd5b505afa15801561239b573d6000803e3d6000fd5b505050506040513d601f19601f820116820180604052508101906123bf9190613381565b9695505050505050565b60fc80546001600160a01b038381166001600160a01b0319831681179093556040519116919082907f8be0079c531659141344cd1fd0a4f28419497f9722a3daafe3b4186f6b6457e090600090a35050565b816001600160a01b0316836001600160a01b0316141561247d5760405162461bcd60e51b815260206004820152601960248201527f4552433732313a20617070726f766520746f2063616c6c657200000000000000604482015260640161069e565b6001600160a01b038381166000818152606a6020908152604080832094871680845294825291829020805460ff191686151590811790915591519182527f17307eab39ab6107e8899845ad3d59bd9653f200f220920489ca2b5937696c31910160405180910390a3505050565b6124f5848484611fa3565b612501848484846126f1565b61175a5760405162461bcd60e51b815260040161069e90613727565b6040516bffffffffffffffffffffffff19606084901b16602082015260348101829052600090605401611f06565b61161d828260405180602001604052806000815250612805565b60c9546000906001600160a01b0316331415612588575060131936013560601c90565b503390565b6001600160a01b0383166125e8576125e381609980546000838152609a60205260408120829055600182018355919091527f72a152ddfb8e864297c917af52ea6c1c68aead0fee1a62673fcc7e0c94979d000155565b61260b565b816001600160a01b0316836001600160a01b03161461260b5761260b8382612838565b6001600160a01b03821661262257610751816128d5565b826001600160a01b0316826001600160a01b031614610751576107518282612984565b600054610100900460ff1661266c5760405162461bcd60e51b815260040161069e90613693565b815161267f906065906020850190612b16565b508051610751906066906020840190612b16565b600054610100900460ff166126ba5760405162461bcd60e51b815260040161069e90613693565b6111576126c5611e50565b6123c9565b600054610100900460ff166111575760405162461bcd60e51b815260040161069e90613693565b60006001600160a01b0384163b156127fa57836001600160a01b031663150b7a0261271a611e50565b8786866040518563ffffffff1660e01b815260040161273c9493929190613779565b602060405180830381600087803b15801561275657600080fd5b505af1925050508015612786575060408051601f3d908101601f19168201909252612783918101906137ac565b60015b6127e0573d8080156127b4576040519150601f19603f3d011682016040523d82523d6000602084013e6127b9565b606091505b5080516127d85760405162461bcd60e51b815260040161069e90613727565b805181602001fd5b6001600160e01b031916630a85bd0160e11b149050611f9b565b506001949350505050565b61280f83836129c8565b61281c60008484846126f1565b6107515760405162461bcd60e51b815260040161069e90613727565b60006001612845846110bf565b61284f91906133eb565b6000838152609860205260409020549091508082146128a2576001600160a01b03841660009081526097602090815260408083208584528252808320548484528184208190558352609890915290208190555b5060009182526098602090815260408084208490556001600160a01b039094168352609781528383209183525290812055565b6099546000906128e7906001906133eb565b6000838152609a60205260408120546099805493945090928490811061290f5761290f613436565b90600052602060002001549050806099838154811061293057612930613436565b6000918252602080832090910192909255828152609a90915260408082208490558582528120556099805480612968576129686137c9565b6001900381819060005260206000200160009055905550505050565b600061298f836110bf565b6001600160a01b039093166000908152609760209081526040808320868452825280832085905593825260989052919091209190915550565b6001600160a01b038216612a1e5760405162461bcd60e51b815260206004820181905260248201527f4552433732313a206d696e7420746f20746865207a65726f2061646472657373604482015260640161069e565b6000818152606760205260409020546001600160a01b031615612a835760405162461bcd60e51b815260206004820152601c60248201527f4552433732313a20746f6b656e20616c7265616479206d696e74656400000000604482015260640161069e565b612a8f6000838361258d565b6001600160a01b0382166000908152606860205260408120805460019290612ab8908490613402565b909155505060008181526067602052604080822080546001600160a01b0319166001600160a01b03861690811790915590518392907fddf252ad1be2c89b69c2b068fc378daa952ba7f163c4a11628f55a4df523b3ef908290a45050565b828054612b2290613336565b90600052602060002090601f016020900481019282612b445760008555612b8a565b82601f10612b5d57805160ff1916838001178555612b8a565b82800160010185558215612b8a579182015b82811115612b8a578251825591602001919060010190612b6f565b50612b96929150612b9a565b5090565b5b80821115612b965760008155600101612b9b565b6001600160e01b031981168114610d2657600080fd5b600060208284031215612bd757600080fd5b8135612be281612baf565b9392505050565b60005b83811015612c04578181015183820152602001612bec565b8381111561175a5750506000910152565b60008151808452612c2d816020860160208601612be9565b601f01601f19169290920160200192915050565b602081526000612be26020830184612c15565b600060208284031215612c6657600080fd5b5035919050565b6001600160a01b0381168114610d2657600080fd5b60008060408385031215612c9557600080fd5b8235612ca081612c6d565b946020939093013593505050565b8015158114610d2657600080fd5b60008060408385031215612ccf57600080fd5b823591506020830135612ce181612cae565b809150509250929050565b600080600060608486031215612d0157600080fd5b505081359360208301359350604090920135919050565b60006020808301818452808551808352604092508286019150828160051b87010184880160005b83811015612d8057888303603f1901855281518051878552612d6388860182612c15565b918901519489019490945294870194925090860190600101612d3f565b509098975050505050505050565b600080600060608486031215612da357600080fd5b8335612dae81612c6d565b92506020840135612dbe81612c6d565b929592945050506040919091013590565b60008060408385031215612de257600080fd5b8235612ded81612c6d565b91506020830135612ce181612c6d565b634e487b7160e01b600052604160045260246000fd5b604080519081016001600160401b0381118282101715612e3557612e35612dfd565b60405290565b60405160c081016001600160401b0381118282101715612e3557612e35612dfd565b604051601f8201601f191681016001600160401b0381118282101715612e8557612e85612dfd565b604052919050565b600082601f830112612e9e57600080fd5b6040516103008082018281106001600160401b0382111715612ec257612ec2612dfd565b60405283018185821115612ed557600080fd5b845b82811015612eef578035825260209182019101612ed7565b509195945050505050565b6000806103208385031215612f0e57600080fd5b82359150612f1f8460208501612e8d565b90509250929050565b600060208284031215612f3a57600080fd5b8135612be281612c6d565b602080825282518282018190526000919060409081850190868401855b82811015612f9a57815180516001600160a01b0316855286810151878601528501518585015260609093019290850190600101612f62565b5091979650505050505050565b60008060408385031215612fba57600080fd5b50508035926020909101359150565b60008060408385031215612fdc57600080fd5b8235612fe781612c6d565b91506020830135612ce181612cae565b60006001600160401b0382111561301057613010612dfd565b5060051b60200190565b6000602080838503121561302d57600080fd5b82356001600160401b0381111561304357600080fd5b8301601f8101851361305457600080fd5b803561306761306282612ff7565b612e5d565b81815260059190911b8201830190838101908783111561308657600080fd5b928401925b828410156130a45783358252928401929084019061308b565b979650505050505050565b602080825282518282018190526000919060409081850190868401855b82811015612f9a57815180516001600160a01b031685528601518685015292840192908501906001016130cc565b60006001600160401b0382111561311357613113612dfd565b50601f01601f191660200190565b600061312f613062846130fa565b905082815283838301111561314357600080fd5b828260208301376000602084830101529392505050565b6000806000806080858703121561317057600080fd5b843561317b81612c6d565b9350602085013561318b81612c6d565b92506040850135915060608501356001600160401b038111156131ad57600080fd5b8501601f810187136131be57600080fd5b6131cd87823560208401613121565b91505092959194509250565b600080600080608085870312156131ef57600080fd5b84359350602085013592506040850135915060608501356001600160401b038082111561321b57600080fd5b818701915087601f83011261322f57600080fd5b813561323d61306282612ff7565b8082825260208201915060208360051b86010192508a83111561325f57600080fd5b602085015b838110156132ef57848135111561327a57600080fd5b803586016040818e03601f1901121561329257600080fd5b61329a612e13565b6020820135878111156132ac57600080fd5b8201603f81018f136132bd57600080fd5b6132cf8f602083013560408401613121565b825250604091909101356020808301919091529084529283019201613264565b50979a9699509497505050505050565b6000806000610340848603121561331557600080fd5b833592506020840135915061332d8560408601612e8d565b90509250925092565b600181811c9082168061334a57607f821691505b6020821081141561336b57634e487b7160e01b600052602260045260246000fd5b50919050565b805161337c81612cae565b919050565b60006020828403121561339357600080fd5b8151612be281612cae565b6020808252601d908201527f796f7520617265206e6f74206576656e742067726f7570206f776e6572000000604082015260600190565b634e487b7160e01b600052601160045260246000fd5b6000828210156133fd576133fd6133d5565b500390565b60008219821115613415576134156133d5565b500190565b6000825161342c818460208701612be9565b9190910192915050565b634e487b7160e01b600052603260045260246000fd5b6000600019821415613460576134606133d5565b5060010190565b6020808252602e908201527f4552433732313a2063616c6c6572206973206e6f7420746f6b656e206f776e6560408201526d1c881b9bdc88185c1c1c9bdd995960921b606082015260800190565b600082601f8301126134c657600080fd5b81516134d4613062826130fa565b8181528460208386010111156134e957600080fd5b611f9b826020830160208701612be9565b6000602080838503121561350d57600080fd5b82516001600160401b038082111561352457600080fd5b818501915085601f83011261353857600080fd5b815161354661306282612ff7565b81815260059190911b8301840190848101908883111561356557600080fd5b8585015b838110156136465780518581111561358057600080fd5b860160c0818c03601f190112156135975760008081fd5b61359f612e3b565b8882015181526040808301518a830152606080840151898111156135c35760008081fd5b6135d18f8d838801016134b5565b83850152506080915081840151898111156135ec5760008081fd5b6135fa8f8d838801016134b5565b82850152505060a080840151898111156136145760008081fd5b6136228f8d838801016134b5565b838501525061363360c08501613371565b9083015250845250918601918601613569565b5098975050505050505050565b8060005b601881101561175a578151845260209384019390910190600101613657565b61032081016136858285613653565b826103008301529392505050565b6020808252602b908201527f496e697469616c697a61626c653a20636f6e7472616374206973206e6f74206960408201526a6e697469616c697a696e6760a81b606082015260800190565b61034081016136ed8286613653565b61030082018460005b60018110156137155781518352602092830192909101906001016136f6565b50505082610320830152949350505050565b60208082526032908201527f4552433732313a207472616e7366657220746f206e6f6e20455243373231526560408201527131b2b4bb32b91034b6b83632b6b2b73a32b960711b606082015260800190565b6001600160a01b03858116825284166020820152604081018390526080606082018190526000906123bf90830184612c15565b6000602082840312156137be57600080fd5b8151612be281612baf565b634e487b7160e01b600052603160045260246000fdfea264697066735822122048c0bb5e0cd4189e095f89a878d394bb6a0e9512ce56c45f60779a29e722fde464736f6c63430008090033",
  "linkReferences": {},
  "deployedLinkReferences": {}
}