{
  "_format": "hh-sol-artifact-1",
  "contractName": "MintNFT",
  "sourceName": "contracts/MintNFT.sol",
  "abi": [
    {
      "anonymous": false,
      "inputs": [
        {
          "indexed": true,
          "internalType": "address",
          "name": "owner",
          "type": "address"
        },
        {
          "indexed": true,
          "internalType": "address",
          "name": "approved",
          "type": "address"
        },
        {
          "indexed": true,
          "internalType": "uint256",
          "name": "tokenId",
          "type": "uint256"
        }
      ],
      "name": "Approval",
      "type": "event"
    },
    {
      "anonymous": false,
      "inputs": [
        {
          "indexed": true,
          "internalType": "address",
          "name": "owner",
          "type": "address"
        },
        {
          "indexed": true,
          "internalType": "address",
          "name": "operator",
          "type": "address"
        },
        {
          "indexed": false,
          "internalType": "bool",
          "name": "approved",
          "type": "bool"
        }
      ],
      "name": "ApprovalForAll",
      "type": "event"
    },
    {
      "anonymous": false,
      "inputs": [
        {
          "indexed": true,
          "internalType": "address",
          "name": "executor",
          "type": "address"
        },
        {
          "indexed": true,
          "internalType": "uint256",
          "name": "eventId",
          "type": "uint256"
        }
      ],
      "name": "DroppedNFTs",
      "type": "event"
    },
    {
      "anonymous": false,
      "inputs": [
        {
          "indexed": false,
          "internalType": "uint8",
          "name": "version",
          "type": "uint8"
        }
      ],
      "name": "Initialized",
      "type": "event"
    },
    {
      "anonymous": false,
      "inputs": [
        {
          "indexed": true,
          "internalType": "uint256",
          "name": "eventId",
          "type": "uint256"
        },
        {
          "indexed": false,
          "internalType": "bool",
          "name": "isLocked",
          "type": "bool"
        }
      ],
      "name": "MintLocked",
      "type": "event"
    },
    {
      "anonymous": false,
      "inputs": [
        {
          "indexed": true,
          "internalType": "address",
          "name": "holder",
          "type": "address"
        },
        {
          "indexed": false,
          "internalType": "string",
          "name": "url",
          "type": "string"
        }
      ],
      "name": "MintedNFTAttributeURL",
      "type": "event"
    },
    {
      "anonymous": false,
      "inputs": [
        {
          "indexed": true,
          "internalType": "uint256",
          "name": "eventId",
          "type": "uint256"
        },
        {
          "indexed": false,
          "internalType": "bool",
          "name": "isNonTransferable",
          "type": "bool"
        }
      ],
      "name": "NonTransferable",
      "type": "event"
    },
    {
      "anonymous": false,
      "inputs": [
        {
          "indexed": true,
          "internalType": "address",
          "name": "previousOwner",
          "type": "address"
        },
        {
          "indexed": true,
          "internalType": "address",
          "name": "newOwner",
          "type": "address"
        }
      ],
      "name": "OwnershipTransferred",
      "type": "event"
    },
    {
      "anonymous": false,
      "inputs": [
        {
          "indexed": true,
          "internalType": "address",
          "name": "executor",
          "type": "address"
        },
        {
          "indexed": true,
          "internalType": "uint256",
          "name": "eventId",
          "type": "uint256"
        }
      ],
      "name": "ResetSecretPhrase",
      "type": "event"
    },
    {
      "anonymous": false,
      "inputs": [
        {
          "indexed": true,
          "internalType": "address",
          "name": "from",
          "type": "address"
        },
        {
          "indexed": true,
          "internalType": "address",
          "name": "to",
          "type": "address"
        },
        {
          "indexed": true,
          "internalType": "uint256",
          "name": "tokenId",
          "type": "uint256"
        }
      ],
      "name": "Transfer",
      "type": "event"
    },
    {
      "inputs": [
        {
          "internalType": "address",
          "name": "to",
          "type": "address"
        },
        {
          "internalType": "uint256",
          "name": "tokenId",
          "type": "uint256"
        }
      ],
      "name": "approve",
      "outputs": [],
      "stateMutability": "nonpayable",
      "type": "function"
    },
    {
      "inputs": [
        {
          "internalType": "address",
          "name": "owner",
          "type": "address"
        }
      ],
      "name": "balanceOf",
      "outputs": [
        {
          "internalType": "uint256",
          "name": "",
          "type": "uint256"
        }
      ],
      "stateMutability": "view",
      "type": "function"
    },
    {
      "inputs": [
        {
          "internalType": "uint256",
          "name": "tokenId",
          "type": "uint256"
        }
      ],
      "name": "burn",
      "outputs": [],
      "stateMutability": "nonpayable",
      "type": "function"
    },
    {
      "inputs": [
        {
          "internalType": "uint256",
          "name": "_eventId",
          "type": "uint256"
        },
        {
          "internalType": "uint256[24]",
          "name": "_proof",
          "type": "uint256[24]"
        }
      ],
      "name": "canMint",
      "outputs": [
        {
          "internalType": "bool",
          "name": "",
          "type": "bool"
        }
      ],
      "stateMutability": "view",
      "type": "function"
    },
    {
      "inputs": [
        {
          "internalType": "uint256",
          "name": "_eventId",
          "type": "uint256"
        },
        {
          "internalType": "bool",
          "name": "_locked",
          "type": "bool"
        }
      ],
      "name": "changeMintLocked",
      "outputs": [],
      "stateMutability": "nonpayable",
      "type": "function"
    },
    {
      "inputs": [
        {
          "internalType": "uint256",
          "name": "_eventId",
          "type": "uint256"
        },
        {
          "internalType": "bool",
          "name": "_isNonTransferable",
          "type": "bool"
        }
      ],
      "name": "changeNonTransferable",
      "outputs": [],
      "stateMutability": "nonpayable",
      "type": "function"
    },
    {
      "inputs": [
        {
          "internalType": "uint256",
          "name": "_eventId",
          "type": "uint256"
        },
        {
          "internalType": "address[]",
          "name": "_addresses",
          "type": "address[]"
        }
      ],
      "name": "dropNFTs",
      "outputs": [],
      "stateMutability": "nonpayable",
      "type": "function"
    },
    {
      "inputs": [
        {
          "internalType": "uint256",
          "name": "tokenId",
          "type": "uint256"
        }
      ],
      "name": "getApproved",
      "outputs": [
        {
          "internalType": "address",
          "name": "",
          "type": "address"
        }
      ],
      "stateMutability": "view",
      "type": "function"
    },
    {
      "inputs": [
        {
          "internalType": "uint256",
          "name": "_tokenId",
          "type": "uint256"
        }
      ],
      "name": "getEventIdOfTokenId",
      "outputs": [
        {
          "internalType": "uint256",
          "name": "",
          "type": "uint256"
        }
      ],
      "stateMutability": "view",
      "type": "function"
    },
    {
      "inputs": [
        {
          "internalType": "uint256",
          "name": "_eventId",
          "type": "uint256"
        }
      ],
      "name": "getGroupIdByEvent",
      "outputs": [
        {
          "internalType": "uint256",
          "name": "",
          "type": "uint256"
        }
      ],
      "stateMutability": "view",
      "type": "function"
    },
    {
      "inputs": [
        {
          "internalType": "uint256",
          "name": "_eventId",
          "type": "uint256"
        }
      ],
      "name": "getIsMintLocked",
      "outputs": [
        {
          "internalType": "bool",
          "name": "",
          "type": "bool"
        }
      ],
      "stateMutability": "view",
      "type": "function"
    },
    {
      "inputs": [
        {
          "internalType": "uint256",
          "name": "_eventId",
          "type": "uint256"
        }
      ],
      "name": "getIsNonTransferable",
      "outputs": [
        {
          "internalType": "bool",
          "name": "",
          "type": "bool"
        }
      ],
      "stateMutability": "view",
      "type": "function"
    },
    {
      "inputs": [
        {
          "internalType": "uint256",
          "name": "_eventId",
          "type": "uint256"
        },
        {
          "internalType": "uint256",
          "name": "_limit",
          "type": "uint256"
        },
        {
          "internalType": "uint256",
          "name": "_offset",
          "type": "uint256"
        }
      ],
      "name": "getNFTAttributeRecordsByEventId",
      "outputs": [
        {
          "components": [
            {
              "internalType": "string",
              "name": "metaDataURL",
              "type": "string"
            },
            {
              "internalType": "uint256",
              "name": "requiredParticipateCount",
              "type": "uint256"
            }
          ],
          "internalType": "struct MintNFT.NFTAttribute[]",
          "name": "",
          "type": "tuple[]"
        }
      ],
      "stateMutability": "view",
      "type": "function"
    },
    {
      "inputs": [
        {
          "internalType": "uint256",
          "name": "_eventId",
          "type": "uint256"
        }
      ],
      "name": "getNFTHoldersByEvent",
      "outputs": [
        {
          "components": [
            {
              "internalType": "address",
              "name": "holderAddress",
              "type": "address"
            },
            {
              "internalType": "uint256",
              "name": "tokenId",
              "type": "uint256"
            }
          ],
          "internalType": "struct MintNFT.NFTHolder[]",
          "name": "",
          "type": "tuple[]"
        }
      ],
      "stateMutability": "view",
      "type": "function"
    },
    {
      "inputs": [
        {
          "internalType": "uint256",
          "name": "_groupId",
          "type": "uint256"
        }
      ],
      "name": "getNFTHoldersByEventGroup",
      "outputs": [
        {
          "components": [
            {
              "internalType": "address",
              "name": "holderAddress",
              "type": "address"
            },
            {
              "internalType": "uint256",
              "name": "eventId",
              "type": "uint256"
            },
            {
              "internalType": "uint256",
              "name": "tokenId",
              "type": "uint256"
            }
          ],
          "internalType": "struct MintNFT.NFTHolderWithEventId[]",
          "name": "",
          "type": "tuple[]"
        }
      ],
      "stateMutability": "view",
      "type": "function"
    },
    {
      "inputs": [
        {
          "internalType": "address",
          "name": "_address",
          "type": "address"
        }
      ],
      "name": "getOwnerTokensDetails",
      "outputs": [
        {
          "components": [
            {
              "internalType": "uint256",
              "name": "eventId",
              "type": "uint256"
            },
            {
              "internalType": "uint256",
              "name": "tokenId",
              "type": "uint256"
            },
            {
              "internalType": "string",
              "name": "tokenUri",
              "type": "string"
            }
          ],
          "internalType": "struct MintNFT.TokenUriWithIds[]",
          "name": "",
          "type": "tuple[]"
        }
      ],
      "stateMutability": "view",
      "type": "function"
    },
    {
      "inputs": [
        {
          "internalType": "uint256",
          "name": "_eventId",
          "type": "uint256"
        }
      ],
      "name": "getRemainingNFTCount",
      "outputs": [
        {
          "internalType": "uint256",
          "name": "",
          "type": "uint256"
        }
      ],
      "stateMutability": "view",
      "type": "function"
    },
    {
      "inputs": [
        {
          "internalType": "uint256",
          "name": "eventId",
          "type": "uint256"
        }
      ],
      "name": "getTokenIdsByEvent",
      "outputs": [
        {
          "internalType": "uint256[]",
          "name": "",
          "type": "uint256[]"
        }
      ],
      "stateMutability": "view",
      "type": "function"
    },
    {
      "inputs": [
        {
          "internalType": "address",
          "name": "_owner",
          "type": "address"
        },
        {
          "internalType": "contract MinimalForwarderUpgradeable",
          "name": "_trustedForwarder",
          "type": "address"
        },
        {
          "internalType": "address",
          "name": "_secretPhraseVerifierAddr",
          "type": "address"
        },
        {
          "internalType": "address",
          "name": "_operationControllerAddr",
          "type": "address"
        }
      ],
      "name": "initialize",
      "outputs": [],
      "stateMutability": "nonpayable",
      "type": "function"
    },
    {
      "inputs": [
        {
          "internalType": "address",
          "name": "owner",
          "type": "address"
        },
        {
          "internalType": "address",
          "name": "operator",
          "type": "address"
        }
      ],
      "name": "isApprovedForAll",
      "outputs": [
        {
          "internalType": "bool",
          "name": "",
          "type": "bool"
        }
      ],
      "stateMutability": "view",
      "type": "function"
    },
    {
      "inputs": [
        {
          "internalType": "address",
          "name": "_addr",
          "type": "address"
        },
        {
          "internalType": "uint256",
          "name": "_eventId",
          "type": "uint256"
        }
      ],
      "name": "isHoldingEventNFTByAddress",
      "outputs": [
        {
          "internalType": "bool",
          "name": "",
          "type": "bool"
        }
      ],
      "stateMutability": "view",
      "type": "function"
    },
    {
      "inputs": [
        {
          "internalType": "address",
          "name": "forwarder",
          "type": "address"
        }
      ],
      "name": "isTrustedForwarder",
      "outputs": [
        {
          "internalType": "bool",
          "name": "",
          "type": "bool"
        }
      ],
      "stateMutability": "view",
      "type": "function"
    },
    {
      "inputs": [
        {
          "internalType": "uint256",
          "name": "_groupId",
          "type": "uint256"
        },
        {
          "internalType": "uint256",
          "name": "_eventId",
          "type": "uint256"
        },
        {
          "internalType": "uint256[24]",
          "name": "_proof",
          "type": "uint256[24]"
        }
      ],
      "name": "mintParticipateNFT",
      "outputs": [],
      "stateMutability": "nonpayable",
      "type": "function"
    },
    {
      "inputs": [],
      "name": "name",
      "outputs": [
        {
          "internalType": "string",
          "name": "",
          "type": "string"
        }
      ],
      "stateMutability": "view",
      "type": "function"
    },
    {
      "inputs": [],
      "name": "owner",
      "outputs": [
        {
          "internalType": "address",
          "name": "",
          "type": "address"
        }
      ],
      "stateMutability": "view",
      "type": "function"
    },
    {
      "inputs": [
        {
          "internalType": "uint256",
          "name": "tokenId",
          "type": "uint256"
        }
      ],
      "name": "ownerOf",
      "outputs": [
        {
          "internalType": "address",
          "name": "",
          "type": "address"
        }
      ],
      "stateMutability": "view",
      "type": "function"
    },
    {
      "inputs": [
        {
          "internalType": "uint256[]",
          "name": "_tokenIdArray",
          "type": "uint256[]"
        }
      ],
      "name": "ownerOfTokens",
      "outputs": [
        {
          "components": [
            {
              "internalType": "address",
              "name": "holderAddress",
              "type": "address"
            },
            {
              "internalType": "uint256",
              "name": "tokenId",
              "type": "uint256"
            }
          ],
          "internalType": "struct MintNFT.NFTHolder[]",
          "name": "",
          "type": "tuple[]"
        }
      ],
      "stateMutability": "view",
      "type": "function"
    },
    {
      "inputs": [],
      "name": "renounceOwnership",
      "outputs": [],
      "stateMutability": "nonpayable",
      "type": "function"
    },
    {
      "inputs": [
        {
          "internalType": "uint256",
          "name": "_eventId",
          "type": "uint256"
        },
        {
          "internalType": "bytes32",
          "name": "_secretPhrase",
          "type": "bytes32"
        }
      ],
      "name": "resetSecretPhrase",
      "outputs": [],
      "stateMutability": "nonpayable",
      "type": "function"
    },
    {
      "inputs": [
        {
          "internalType": "address",
          "name": "from",
          "type": "address"
        },
        {
          "internalType": "address",
          "name": "to",
          "type": "address"
        },
        {
          "internalType": "uint256",
          "name": "tokenId",
          "type": "uint256"
        }
      ],
      "name": "safeTransferFrom",
      "outputs": [],
      "stateMutability": "nonpayable",
      "type": "function"
    },
    {
      "inputs": [
        {
          "internalType": "address",
          "name": "from",
          "type": "address"
        },
        {
          "internalType": "address",
          "name": "to",
          "type": "address"
        },
        {
          "internalType": "uint256",
          "name": "tokenId",
          "type": "uint256"
        },
        {
          "internalType": "bytes",
          "name": "data",
          "type": "bytes"
        }
      ],
      "name": "safeTransferFrom",
      "outputs": [],
      "stateMutability": "nonpayable",
      "type": "function"
    },
    {
      "inputs": [
        {
          "internalType": "address",
          "name": "operator",
          "type": "address"
        },
        {
          "internalType": "bool",
          "name": "approved",
          "type": "bool"
        }
      ],
      "name": "setApprovalForAll",
      "outputs": [],
      "stateMutability": "nonpayable",
      "type": "function"
    },
    {
      "inputs": [
        {
          "internalType": "uint256",
          "name": "eventId",
          "type": "uint256"
        },
        {
          "internalType": "uint256[]",
          "name": "tokenIds",
          "type": "uint256[]"
        }
      ],
      "name": "setEventIdOfTokenIds",
      "outputs": [],
      "stateMutability": "nonpayable",
      "type": "function"
    },
    {
      "inputs": [
        {
          "internalType": "uint256[]",
          "name": "eventIds",
          "type": "uint256[]"
        },
        {
          "internalType": "uint256[][]",
          "name": "tokenIdsArr",
          "type": "uint256[][]"
        }
      ],
      "name": "setEventIdOfTokenIdsBatch",
      "outputs": [],
      "stateMutability": "nonpayable",
      "type": "function"
    },
    {
      "inputs": [
        {
          "internalType": "uint256",
          "name": "_eventId",
          "type": "uint256"
        },
        {
          "internalType": "uint256",
          "name": "_mintLimit",
          "type": "uint256"
        },
        {
          "internalType": "bytes32",
          "name": "_secretPhrase",
          "type": "bytes32"
        },
        {
          "components": [
            {
              "internalType": "string",
              "name": "metaDataURL",
              "type": "string"
            },
            {
              "internalType": "uint256",
              "name": "requiredParticipateCount",
              "type": "uint256"
            }
          ],
          "internalType": "struct MintNFT.NFTAttribute[]",
          "name": "attributes",
          "type": "tuple[]"
        }
      ],
      "name": "setEventInfo",
      "outputs": [],
      "stateMutability": "nonpayable",
      "type": "function"
    },
    {
      "inputs": [
        {
          "internalType": "address",
          "name": "_addr",
          "type": "address"
        }
      ],
      "name": "setEventManagerAddr",
      "outputs": [],
      "stateMutability": "nonpayable",
      "type": "function"
    },
    {
      "inputs": [
        {
          "internalType": "bytes4",
          "name": "interfaceId",
          "type": "bytes4"
        }
      ],
      "name": "supportsInterface",
      "outputs": [
        {
          "internalType": "bool",
          "name": "",
          "type": "bool"
        }
      ],
      "stateMutability": "view",
      "type": "function"
    },
    {
      "inputs": [],
      "name": "symbol",
      "outputs": [
        {
          "internalType": "string",
          "name": "",
          "type": "string"
        }
      ],
      "stateMutability": "view",
      "type": "function"
    },
    {
      "inputs": [
        {
          "internalType": "uint256",
          "name": "index",
          "type": "uint256"
        }
      ],
      "name": "tokenByIndex",
      "outputs": [
        {
          "internalType": "uint256",
          "name": "",
          "type": "uint256"
        }
      ],
      "stateMutability": "view",
      "type": "function"
    },
    {
      "inputs": [
        {
          "internalType": "address",
          "name": "owner",
          "type": "address"
        },
        {
          "internalType": "uint256",
          "name": "index",
          "type": "uint256"
        }
      ],
      "name": "tokenOfOwnerByIndex",
      "outputs": [
        {
          "internalType": "uint256",
          "name": "",
          "type": "uint256"
        }
      ],
      "stateMutability": "view",
      "type": "function"
    },
    {
      "inputs": [
        {
          "internalType": "uint256",
          "name": "_tokenId",
          "type": "uint256"
        }
      ],
      "name": "tokenURI",
      "outputs": [
        {
          "internalType": "string",
          "name": "",
          "type": "string"
        }
      ],
      "stateMutability": "view",
      "type": "function"
    },
    {
      "inputs": [],
      "name": "totalSupply",
      "outputs": [
        {
          "internalType": "uint256",
          "name": "",
          "type": "uint256"
        }
      ],
      "stateMutability": "view",
      "type": "function"
    },
    {
      "inputs": [
        {
          "internalType": "address",
          "name": "from",
          "type": "address"
        },
        {
          "internalType": "address",
          "name": "to",
          "type": "address"
        },
        {
          "internalType": "uint256",
          "name": "tokenId",
          "type": "uint256"
        }
      ],
      "name": "transferFrom",
      "outputs": [],
      "stateMutability": "nonpayable",
      "type": "function"
    },
    {
      "inputs": [
        {
          "internalType": "address",
          "name": "newOwner",
          "type": "address"
        }
      ],
      "name": "transferOwnership",
      "outputs": [],
      "stateMutability": "nonpayable",
      "type": "function"
    }
  ],
  "bytecode": "0x608060405234801561001057600080fd5b506145c5806100206000396000f3fe608060405234801561001057600080fd5b50600436106102745760003560e01c80638da5cb5b11610151578063b88d4fde116100c3578063e572e74b11610087578063e572e74b146105f1578063e985e9c514610604578063ef3ad9eb14610640578063f2fde38b14610653578063f8c8765e14610666578063fa86623b1461067957600080fd5b8063b88d4fde14610581578063c4b88ea414610594578063c87b56dd146105a7578063d622abc2146105ba578063df4b39dd146105cd57600080fd5b806395d89b411161011557806395d89b41146104f25780639731c1d6146104fa5780639dcd68111461051b578063a22cb4651461052e578063a45460de14610541578063af5723b11461056157600080fd5b80638da5cb5b146104775780638f70738e14610488578063902d41c5146104a85780639041e3f4146104cc57806394d84290146104df57600080fd5b80633c5f24bf116101ea5780634f6ccce7116101ae5780634f6ccce7146103f35780634ffc9f4b14610406578063572b6c05146104275780636352211e1461044957806370a082311461045c578063715018a61461046f57600080fd5b80633c5f24bf1461039457806342842e0e146103a757806342966c68146103ba5780634d01a500146103cd5780634df30149146103e057600080fd5b806312b90fd61161023c57806312b90fd61461030957806318160ddd1461031c57806319ffeb3b1461032e57806323b872dd1461034e57806329ec9f44146103615780632f745c591461038157600080fd5b806301ffc9a71461027957806306fdde03146102a1578063081812fc146102b6578063095ea7b3146102e15780630daa8be7146102f6575b600080fd5b61028c61028736600461366a565b61068c565b60405190151581526020015b60405180910390f35b6102a96106b7565b60405161029891906136e6565b6102c96102c43660046136f9565b610749565b6040516001600160a01b039091168152602001610298565b6102f46102ef366004613727565b610770565b005b6102f4610304366004613761565b61089d565b6102f4610317366004613844565b610a38565b6099545b604051908152602001610298565b61034161033c3660046138ee565b610c83565b604051610298919061391a565b6102f461035c366004613990565b610fb8565b61037461036f3660046136f9565b610ff0565b60405161029891906139d1565b61032061038f366004613727565b611053565b6102f46103a2366004613a70565b6110e9565b6102f46103b5366004613990565b6110ff565b6102f46103c83660046136f9565b61111a565b6102f46103db366004613ab6565b61112e565b61028c6103ee366004613bf7565b6111f5565b6103206104013660046136f9565b61134a565b6103206104143660046136f9565b6000908152610134602052604090205490565b61028c610435366004613c25565b60c9546001600160a01b0391821691161490565b6102c96104573660046136f9565b6113dd565b61032061046a366004613c25565b61143d565b6102f46114c3565b60fc546001600160a01b03166102c9565b61049b6104963660046136f9565b6114d7565b6040516102989190613c42565b61028c6104b63660046136f9565b600090815261013b602052604090205460ff1690565b6102f46104da366004613c25565b611802565b6103206104ed3660046136f9565b611883565b6102a9611915565b6103206105083660046136f9565b600090815261013a602052604090205490565b6102f4610529366004613ca4565b611924565b6102f461053c366004613cc6565b611abb565b61055461054f366004613c25565b611acd565b6040516102989190613cf4565b61057461056f366004613d65565b611bd6565b6040516102989190613d99565b6102f461058f366004613e44565b611cd6565b6105746105a23660046136f9565b611d0f565b6102a96105b53660046136f9565b611d7c565b61028c6105c8366004613727565b611e21565b61028c6105db3660046136f9565b6000908152610136602052604090205460ff1690565b6102f46105ff366004613761565b611e4d565b61028c610612366004613ec3565b6001600160a01b039182166000908152606a6020908152604080832093909416825291909152205460ff1690565b6102f461064e366004613ef1565b612007565b6102f4610661366004613c25565b61219a565b6102f4610674366004614017565b612210565b6102f4610687366004614073565b61237f565b60006001600160e01b0319821663780e9d6360e01b14806106b157506106b182612493565b92915050565b6060606580546106c6906140aa565b80601f01602080910402602001604051908101604052809291908181526020018280546106f2906140aa565b801561073f5780601f106107145761010080835404028352916020019161073f565b820191906000526020600020905b81548152906001019060200180831161072257829003601f168201915b5050505050905090565b6000610754826124e3565b506000908152606960205260409020546001600160a01b031690565b600061077b826113dd565b9050806001600160a01b0316836001600160a01b031614156107ee5760405162461bcd60e51b815260206004820152602160248201527f4552433732313a20617070726f76616c20746f2063757272656e74206f776e656044820152603960f91b60648201526084015b60405180910390fd5b806001600160a01b0316610800612542565b6001600160a01b0316148061081c575061081c81610612612542565b61088e5760405162461bcd60e51b815260206004820152603e60248201527f4552433732313a20617070726f76652063616c6c6572206973206e6f7420746f60448201527f6b656e206f776e6572206e6f7220617070726f76656420666f7220616c6c000060648201526084016107e5565b6108988383612572565b505050565b61012f5482906001600160a01b03168063972f13276108ba612542565b6040516001600160e01b031960e084901b1681526001600160a01b0390911660048201526024810185905260440160206040518083038186803b15801561090057600080fd5b505afa158015610914573d6000803e3d6000fd5b505050506040513d601f19601f8201168201806040525081019061093891906140f5565b6109545760405162461bcd60e51b81526004016107e590614112565b6101395460408051635c975abb60e01b815290516001600160a01b03909216918291635c975abb916004808301926020929190829003018186803b15801561099b57600080fd5b505afa1580156109af573d6000803e3d6000fd5b505050506040513d601f19601f820116820180604052508101906109d391906140f5565b156109dd57600080fd5b60008581526101366020908152604091829020805460ff1916871515908117909155915191825286917f1e3ed2b292ed72652054799a4fde74789a8670c153df666f76e01345ec318281910160405180910390a25050505050565b61012f5482906001600160a01b03168063972f1327610a55612542565b6040516001600160e01b031960e084901b1681526001600160a01b0390911660048201526024810185905260440160206040518083038186803b158015610a9b57600080fd5b505afa158015610aaf573d6000803e3d6000fd5b505050506040513d601f19601f82011682018060405250810190610ad391906140f5565b610aef5760405162461bcd60e51b81526004016107e590614112565b6101395460408051635c975abb60e01b815290516001600160a01b03909216918291635c975abb916004808301926020929190829003018186803b158015610b3657600080fd5b505afa158015610b4a573d6000803e3d6000fd5b505050506040513d601f19601f82011682018060405250810190610b6e91906140f5565b15610b7857600080fd5b6000610b8386611883565b8551600088815261013460205260409020549192501115610be65760405162461bcd60e51b815260206004820152601d60248201527f72656d61696e696e6720636f756e74206973206e6f7420656e6f75676800000060448201526064016107e5565b60005b8551811015610c3c576000868281518110610c0657610c06614142565b60200260200101519050610c1a8189611e21565b610c2957610c298389836125e0565b5080610c348161416e565b915050610be9565b5085610c46612542565b6001600160a01b03167ff0fae1d6c53c230d212972a098b7dbf41d3a6dbb348a4ebf640a51ce63cd3b6760405160405180910390a3505050505050565b606082610c8f57606492505b6064831115610cd55760405162461bcd60e51b81526020600482015260126024820152716c696d697420697320746f6f206c6172676560701b60448201526064016107e5565b6000836001600160401b03811115610cef57610cef613791565b604051908082528060200260200182016040528015610d3557816020015b604080518082019091526060815260006020820152815260200190600190039081610d0d5790505b509050610d4484600019614189565b831115610d9f5760405162461bcd60e51b815260206004820152602360248201527f6c696d6974202b206f6666736574206d757374206265203c3d20325e323536206044820152622d203160e81b60648201526084016107e5565b6000610dab84866141a0565b90506000845b82811015610ef35760006101336000610dca8b856128db565b81526020019081526020016000208054610de3906140aa565b80601f0160208091040260200160405190810160405280929190818152602001828054610e0f906140aa565b8015610e5c5780601f10610e3157610100808354040283529160200191610e5c565b820191906000526020600020905b815481529060010190602001808311610e3f57829003601f168201915b505060408051600081526020810180835281519020959650610e8494508693500190506141b8565b6040516020818303038152906040528051906020012014610ee057604051806040016040528082815260200183815250858481518110610ec657610ec6614142565b60200260200101819052508280610edc9061416e565b9350505b5080610eeb8161416e565b915050610db1565b506000816001600160401b03811115610f0e57610f0e613791565b604051908082528060200260200182016040528015610f5457816020015b604080518082019091526060815260006020820152815260200190600190039081610f2c5790505b50905060005b82811015610fac57848181518110610f7457610f74614142565b6020026020010151828281518110610f8e57610f8e614142565b60200260200101819052508080610fa49061416e565b915050610f5a565b50979650505050505050565b610fc9610fc3612542565b82612911565b610fe55760405162461bcd60e51b81526004016107e5906141d4565b610898838383612990565b6000818152610138602090815260409182902080548351818402810184019094528084526060939283018282801561104757602002820191906000526020600020905b815481526020019060010190808311611033575b50505050509050919050565b600061105e8361143d565b82106110c05760405162461bcd60e51b815260206004820152602b60248201527f455243373231456e756d657261626c653a206f776e657220696e646578206f7560448201526a74206f6620626f756e647360a81b60648201526084016107e5565b506001600160a01b03919091166000908152609760209081526040808320938352929052205490565b6110f16129fe565b6110fb8282612a77565b5050565b61089883838360405180602001604052806000815250611cd6565b6111226129fe565b61112b81612ac1565b50565b6111366129fe565b81518151811461117e5760405162461bcd60e51b81526020600482015260136024820152720d8cadccee8d040d2e640dcdee840dac2e8c6d606b1b60448201526064016107e5565b60005b818110156111ef5782818151811061119b5761119b614142565b6020026020010151516000146111e7576111e78482815181106111c0576111c0614142565b60200260200101518483815181106111da576111da614142565b6020026020010151612a77565b600101611181565b50505050565b60006112018284612b68565b6112455760405162461bcd60e51b8152602060048201526015602482015274696e76616c6964207365637265742070687261736560581b60448201526064016107e5565b600083815261013460205260409020546112a15760405162461bcd60e51b815260206004820152601760248201527f72656d61696e696e6720636f756e74206973207a65726f00000000000000000060448201526064016107e5565b6112b26112ac612542565b84611e21565b156112f05760405162461bcd60e51b815260206004820152600e60248201526d185b1c9958591e481b5a5b9d195960921b60448201526064016107e5565b6000838152610136602052604090205460ff16156113415760405162461bcd60e51b815260206004820152600e60248201526d1b5a5b9d081a5cc81b1bd8dad95960921b60448201526064016107e5565b50600192915050565b600061135560995490565b82106113b85760405162461bcd60e51b815260206004820152602c60248201527f455243373231456e756d657261626c653a20676c6f62616c20696e646578206f60448201526b7574206f6620626f756e647360a01b60648201526084016107e5565b609982815481106113cb576113cb614142565b90600052602060002001549050919050565b6000818152606760205260408120546001600160a01b0316806106b15760405162461bcd60e51b8152602060048201526018602482015277115490cdcc8c4e881a5b9d985b1a59081d1bdad95b88125160421b60448201526064016107e5565b60006001600160a01b0382166114a75760405162461bcd60e51b815260206004820152602960248201527f4552433732313a2061646472657373207a65726f206973206e6f7420612076616044820152683634b21037bbb732b960b91b60648201526084016107e5565b506001600160a01b031660009081526068602052604090205490565b6114cb6129fe565b6114d56000612c16565b565b61012f5460405163f562082360e01b8152600481018390526060916001600160a01b031690600090829063f56208239060240160006040518083038186803b15801561152257600080fd5b505afa158015611536573d6000803e3d6000fd5b505050506040513d6000823e601f3d908101601f1916820160405261155e919081019061431f565b9050600081516001600160401b0381111561157b5761157b613791565b6040519080825280602002602001820160405280156115ae57816020015b60608152602001906001900390816115995790505b5090506000805b835181101561163b576115e48482815181106115d3576115d3614142565b602002602001015160000151611d0f565b8382815181106115f6576115f6614142565b602002602001018190525082818151811061161357611613614142565b6020026020010151518261162791906141a0565b9150806116338161416e565b9150506115b5565b506000816001600160401b0381111561165657611656613791565b6040519080825280602002602001820160405280156116b457816020015b6116a1604051806060016040528060006001600160a01b0316815260200160008152602001600081525090565b8152602001906001900390816116745790505b50905060005b828110156117f75760005b85518110156117f15760005b8582815181106116e3576116e3614142565b6020026020010151518110156117de57604051806060016040528087848151811061171057611710614142565b6020026020010151838151811061172957611729614142565b6020026020010151600001516001600160a01b0316815260200188848151811061175557611755614142565b602002602001015160000151815260200187848151811061177857611778614142565b6020026020010151838151811061179157611791614142565b6020026020010151602001518152508484815181106117b2576117b2614142565b602002602001018190525082806117c89061416e565b93505080806117d69061416e565b9150506116d1565b50806117e98161416e565b9150506116c5565b506116ba565b509695505050505050565b61180a6129fe565b6001600160a01b0381166118605760405162461bcd60e51b815260206004820152601e60248201527f6576656e74206d616e61676572206164647265737320697320626c616e6b000060448201526064016107e5565b61012f80546001600160a01b0319166001600160a01b0392909216919091179055565b61012f54604051632e601e6f60e21b8152600481018390526000916001600160a01b0316908290829063b98079bc9060240160006040518083038186803b1580156118cd57600080fd5b505afa1580156118e1573d6000803e3d6000fd5b505050506040513d6000823e601f3d908101601f1916820160405261190991908101906143cf565b60200151949350505050565b6060606680546106c6906140aa565b61012f5482906001600160a01b03168063972f1327611941612542565b6040516001600160e01b031960e084901b1681526001600160a01b0390911660048201526024810185905260440160206040518083038186803b15801561198757600080fd5b505afa15801561199b573d6000803e3d6000fd5b505050506040513d601f19601f820116820180604052508101906119bf91906140f5565b6119db5760405162461bcd60e51b81526004016107e590614112565b6101395460408051635c975abb60e01b815290516001600160a01b03909216918291635c975abb916004808301926020929190829003018186803b158015611a2257600080fd5b505afa158015611a36573d6000803e3d6000fd5b505050506040513d601f19601f82011682018060405250810190611a5a91906140f5565b15611a6457600080fd5b60008581526101356020526040902084905584611a7f612542565b6001600160a01b03167fae5b067be3e4869ca571a499572a09085a17c3d0442a8965b8356bf47f63ba9960405160405180910390a35050505050565b6110fb611ac6612542565b8383612c68565b60606000611ada8361143d565b90506000816001600160401b03811115611af657611af6613791565b604051908082528060200260200182016040528015611b4b57816020015b611b3860405180606001604052806000815260200160008152602001606081525090565b815260200190600190039081611b145790505b50905060005b82811015611bce576000611b658683611053565b600081815261013a6020908152604091829020548251606081018452818152918201849052929350908101611b9984611d7c565b815250848481518110611bae57611bae614142565b602002602001018190525050508080611bc69061416e565b915050611b51565b509392505050565b6060600082516001600160401b03811115611bf357611bf3613791565b604051908082528060200260200182016040528015611c3857816020015b6040805180820190915260008082526020820152815260200190600190039081611c115790505b50905060005b8351811015611ccf576040518060400160405280611c74868481518110611c6757611c67614142565b60200260200101516113dd565b6001600160a01b03168152602001858381518110611c9457611c94614142565b6020026020010151815250828281518110611cb157611cb1614142565b60200260200101819052508080611cc79061416e565b915050611c3e565b5092915050565b611ce7611ce1612542565b83612911565b611d035760405162461bcd60e51b81526004016107e5906141d4565b6111ef84848484612d37565b60606106b16101386000848152602001908152602001600020805480602002602001604051908101604052809291908181526020018280548015611d7257602002820191906000526020600020905b815481526020019060010190808311611d5e575b5050505050611bd6565b60008181526101306020526040812080546060929190611d9b906140aa565b80601f0160208091040260200160405190810160405280929190818152602001828054611dc7906140aa565b8015611e145780601f10611de957610100808354040283529160200191611e14565b820191906000526020600020905b815481529060010190602001808311611df757829003601f168201915b5093979650505050505050565b60006101316000611e328585612d6a565b815260208101919091526040016000205460ff169392505050565b6101395460408051635c975abb60e01b815290516001600160a01b03909216918291635c975abb916004808301926020929190829003018186803b158015611e9457600080fd5b505afa158015611ea8573d6000803e3d6000fd5b505050506040513d601f19601f82011682018060405250810190611ecc91906140f5565b15611ed657600080fd5b61012f546001600160a01b031680611eec612542565b6001600160a01b03161480611f915750806001600160a01b031663683159fd611f13612542565b6040516001600160e01b031960e084901b1681526001600160a01b0390911660048201526024810187905260440160206040518083038186803b158015611f5957600080fd5b505afa158015611f6d573d6000803e3d6000fd5b505050506040513d601f19601f82011682018060405250810190611f9191906140f5565b611fad5760405162461bcd60e51b81526004016107e590614112565b600084815261013b6020908152604091829020805460ff1916861515908117909155915191825285917fec48382efd77c28bd224c3221392758fb274b160a104cc76c67d2719bcaef7c0910160405180910390a250505050565b6101395460408051635c975abb60e01b815290516001600160a01b03909216918291635c975abb916004808301926020929190829003018186803b15801561204e57600080fd5b505afa158015612062573d6000803e3d6000fd5b505050506040513d601f19601f8201168201806040525081019061208691906140f5565b1561209057600080fd5b61012f546001600160a01b03166120a5612542565b6001600160a01b0316146120ea5760405162461bcd60e51b815260206004820152600c60248201526b1d5b985d5d1a1bdc9a5e995960a21b60448201526064016107e5565b60008581526101346020908152604080832087905561013590915281208490555b82518110156121925782818151811061212657612126614142565b602002602001015160000151610133600061215e8987868151811061214d5761214d614142565b6020026020010151602001516128db565b8152602001908152602001600020908051906020019061217f9291906135bb565b508061218a8161416e565b91505061210b565b505050505050565b6121a26129fe565b6001600160a01b0381166122075760405162461bcd60e51b815260206004820152602660248201527f4f776e61626c653a206e6577206f776e657220697320746865207a65726f206160448201526564647265737360d01b60648201526084016107e5565b61112b81612c16565b600054600590610100900460ff16158015612232575060005460ff8083169116105b6122955760405162461bcd60e51b815260206004820152602e60248201527f496e697469616c697a61626c653a20636f6e747261637420697320616c72656160448201526d191e481a5b9a5d1a585b1a5e995960921b60648201526084016107e5565b6000805461ffff191660ff83161761010017905560408051808201825260098152684d696e7452616c6c7960b81b6020808301919091528251808401909352600283526126a960f11b908301526122eb91612d98565b6122f3612dc9565b6122fc85612c16565b61230584612df8565b61013780546001600160a01b038581166001600160a01b0319928316179092556101398054928516929091169190911790556000805461ff001916905560405160ff821681527f7f26b83ff96e1f2b6a682f133852f6798a09c465da95921460cefb38474024989060200160405180910390a15050505050565b6101395460408051635c975abb60e01b815290516001600160a01b03909216918291635c975abb916004808301926020929190829003018186803b1580156123c657600080fd5b505afa1580156123da573d6000803e3d6000fd5b505050506040513d601f19601f820116820180604052508101906123fe91906140f5565b1561240857600080fd5b61241283836111f5565b506101375460405163635e393960e11b81526001600160a01b0390911690819063c6bc7272906124489086908890600401614426565b600060405180830381600087803b15801561246257600080fd5b505af1158015612476573d6000803e3d6000fd5b5050505061248c8585612487612542565b6125e0565b5050505050565b60006001600160e01b031982166380ac58cd60e01b14806124c457506001600160e01b03198216635b5e139f60e01b145b806106b157506301ffc9a760e01b6001600160e01b03198316146106b1565b6000818152606760205260409020546001600160a01b031661112b5760405162461bcd60e51b8152602060048201526018602482015277115490cdcc8c4e881a5b9d985b1a59081d1bdad95b88125160421b60448201526064016107e5565b60c9546000906001600160a01b0316331415612565575060131936013560601c90565b61256d612e49565b905090565b600081815260696020526040902080546001600160a01b0319166001600160a01b03841690811790915581906125a7826113dd565b6001600160a01b03167f8c5be1e5ebec7d5bd14f71427d1e84f3dd0314c0f7b2291e5b200ac8c7c3b92560405160405180910390a45050565b600082815261013460205260409020546125fc90600190614189565b60008381526101346020526040812091909155600190610131906126208486612d6a565b815260200190815260200160002060006101000a81548160ff02191690831515021790555060006126518285612d6a565b6000818152610132602052604090205490915061266f8160016141a0565b600083815261013260205260408120919091556101338161269087826128db565b815260200190815260200160002080546126a9906140aa565b80601f01602080910402602001604051908101604052809291908181526020018280546126d5906140aa565b80156127225780601f106126f757610100808354040283529160200191612722565b820191906000526020600020905b81548152906001019060200180831161270557829003601f168201915b505050505090506000610133600061273a88866128db565b81526020019081526020016000208054612753906140aa565b80601f016020809104026020016040519081016040528092919081815260200182805461277f906140aa565b80156127cc5780601f106127a1576101008083540402835291602001916127cc565b820191906000526020600020905b8154815290600101906020018083116127af57829003601f168201915b5050604080516000815260208101808352815190209596506127f494508693500190506141b8565b6040516020818303038152906040528051906020012014612813578091505b600061281f61012e5490565b60008181526101306020908152604090912085519293506128449290918601906135bb565b5060008781526101386020908152604080832080546001810182559084528284200184905583835261013a909152902087905561288661012e80546001019055565b6128908682612e71565b856001600160a01b03167faf2fad1984d2c7abaa9300537cf9fe1bcfaf2d6226e4ffdf03522dbf3064808e846040516128c991906136e6565b60405180910390a25050505050505050565b60408051602081018490529081018290526000906060015b60405160208183030381529060405280519060200120905092915050565b60008061291d836113dd565b9050806001600160a01b0316846001600160a01b0316148061296457506001600160a01b038082166000908152606a602090815260408083209388168352929052205460ff165b806129885750836001600160a01b031661297d84610749565b6001600160a01b0316145b949350505050565b600081815261013a6020908152604080832054835261013b90915290205460ff16156129f35760405162461bcd60e51b81526020600482015260126024820152711d1c985b9cd9995c881a5cc81b1bd8dad95960721b60448201526064016107e5565b610898838383612e8b565b612a06612542565b6001600160a01b0316612a2160fc546001600160a01b031690565b6001600160a01b0316146114d55760405162461bcd60e51b815260206004820181905260248201527f4f776e61626c653a2063616c6c6572206973206e6f7420746865206f776e657260448201526064016107e5565b805160005b818110156111ef578361013a6000858481518110612a9c57612a9c614142565b6020026020010151815260200190815260200160002081905550806001019050612a7c565b6000612acc826113dd565b9050612ada81600084613032565b612ae5600083612572565b6001600160a01b0381166000908152606860205260408120805460019290612b0e908490614189565b909155505060008281526067602052604080822080546001600160a01b0319169055518391906001600160a01b038416907fddf252ad1be2c89b69c2b068fc378daa952ba7f163c4a11628f55a4df523b3ef908390a45050565b6101375460408051602080820183526000858152610135909152828120548252915163532dd84d60e11b815291926001600160a01b0316918390839063a65bb09a90612bbc90899086908a90600401614443565b60206040518083038186803b158015612bd457600080fd5b505afa158015612be8573d6000803e3d6000fd5b505050506040513d601f19601f82011682018060405250810190612c0c91906140f5565b9695505050505050565b60fc80546001600160a01b038381166001600160a01b0319831681179093556040519116919082907f8be0079c531659141344cd1fd0a4f28419497f9722a3daafe3b4186f6b6457e090600090a35050565b816001600160a01b0316836001600160a01b03161415612cca5760405162461bcd60e51b815260206004820152601960248201527f4552433732313a20617070726f766520746f2063616c6c65720000000000000060448201526064016107e5565b6001600160a01b038381166000818152606a6020908152604080832094871680845294825291829020805460ff191686151590811790915591519182527f17307eab39ab6107e8899845ad3d59bd9653f200f220920489ca2b5937696c31910160405180910390a3505050565b612d42848484612990565b612d4e848484846130ea565b6111ef5760405162461bcd60e51b81526004016107e59061448c565b6040516bffffffffffffffffffffffff19606084901b166020820152603481018290526000906054016128f3565b600054610100900460ff16612dbf5760405162461bcd60e51b81526004016107e5906144de565b6110fb82826131fe565b600054610100900460ff16612df05760405162461bcd60e51b81526004016107e5906144de565b6114d561324c565b600054610100900460ff16612e1f5760405162461bcd60e51b81526004016107e5906144de565b612e27613283565b60c980546001600160a01b0319166001600160a01b0392909216919091179055565b60c9546000906001600160a01b0316331415612e6c575060131936013560601c90565b503390565b6110fb8282604051806020016040528060008152506132aa565b826001600160a01b0316612e9e826113dd565b6001600160a01b031614612f025760405162461bcd60e51b815260206004820152602560248201527f4552433732313a207472616e736665722066726f6d20696e636f72726563742060448201526437bbb732b960d91b60648201526084016107e5565b6001600160a01b038216612f645760405162461bcd60e51b8152602060048201526024808201527f4552433732313a207472616e7366657220746f20746865207a65726f206164646044820152637265737360e01b60648201526084016107e5565b612f6f838383613032565b612f7a600082612572565b6001600160a01b0383166000908152606860205260408120805460019290612fa3908490614189565b90915550506001600160a01b0382166000908152606860205260408120805460019290612fd19084906141a0565b909155505060008181526067602052604080822080546001600160a01b0319166001600160a01b0386811691821790925591518493918716917fddf252ad1be2c89b69c2b068fc378daa952ba7f163c4a11628f55a4df523b3ef91a4505050565b6001600160a01b03831661308d5761308881609980546000838152609a60205260408120829055600182018355919091527f72a152ddfb8e864297c917af52ea6c1c68aead0fee1a62673fcc7e0c94979d000155565b6130b0565b816001600160a01b0316836001600160a01b0316146130b0576130b083826132dd565b6001600160a01b0382166130c7576108988161337a565b826001600160a01b0316826001600160a01b031614610898576108988282613429565b60006001600160a01b0384163b156131f357836001600160a01b031663150b7a02613113612542565b8786866040518563ffffffff1660e01b81526004016131359493929190614529565b602060405180830381600087803b15801561314f57600080fd5b505af192505050801561317f575060408051601f3d908101601f1916820190925261317c9181019061455c565b60015b6131d9573d8080156131ad576040519150601f19603f3d011682016040523d82523d6000602084013e6131b2565b606091505b5080516131d15760405162461bcd60e51b81526004016107e59061448c565b805181602001fd5b6001600160e01b031916630a85bd0160e11b149050612988565b506001949350505050565b600054610100900460ff166132255760405162461bcd60e51b81526004016107e5906144de565b81516132389060659060208501906135bb565b5080516108989060669060208401906135bb565b600054610100900460ff166132735760405162461bcd60e51b81526004016107e5906144de565b6114d561327e612542565b612c16565b600054610100900460ff166114d55760405162461bcd60e51b81526004016107e5906144de565b6132b4838361346d565b6132c160008484846130ea565b6108985760405162461bcd60e51b81526004016107e59061448c565b600060016132ea8461143d565b6132f49190614189565b600083815260986020526040902054909150808214613347576001600160a01b03841660009081526097602090815260408083208584528252808320548484528184208190558352609890915290208190555b5060009182526098602090815260408084208490556001600160a01b039094168352609781528383209183525290812055565b60995460009061338c90600190614189565b6000838152609a6020526040812054609980549394509092849081106133b4576133b4614142565b9060005260206000200154905080609983815481106133d5576133d5614142565b6000918252602080832090910192909255828152609a9091526040808220849055858252812055609980548061340d5761340d614579565b6001900381819060005260206000200160009055905550505050565b60006134348361143d565b6001600160a01b039093166000908152609760209081526040808320868452825280832085905593825260989052919091209190915550565b6001600160a01b0382166134c35760405162461bcd60e51b815260206004820181905260248201527f4552433732313a206d696e7420746f20746865207a65726f206164647265737360448201526064016107e5565b6000818152606760205260409020546001600160a01b0316156135285760405162461bcd60e51b815260206004820152601c60248201527f4552433732313a20746f6b656e20616c7265616479206d696e7465640000000060448201526064016107e5565b61353460008383613032565b6001600160a01b038216600090815260686020526040812080546001929061355d9084906141a0565b909155505060008181526067602052604080822080546001600160a01b0319166001600160a01b03861690811790915590518392907fddf252ad1be2c89b69c2b068fc378daa952ba7f163c4a11628f55a4df523b3ef908290a45050565b8280546135c7906140aa565b90600052602060002090601f0160209004810192826135e9576000855561362f565b82601f1061360257805160ff191683800117855561362f565b8280016001018555821561362f579182015b8281111561362f578251825591602001919060010190613614565b5061363b92915061363f565b5090565b5b8082111561363b5760008155600101613640565b6001600160e01b03198116811461112b57600080fd5b60006020828403121561367c57600080fd5b813561368781613654565b9392505050565b60005b838110156136a9578181015183820152602001613691565b838111156111ef5750506000910152565b600081518084526136d281602086016020860161368e565b601f01601f19169290920160200192915050565b60208152600061368760208301846136ba565b60006020828403121561370b57600080fd5b5035919050565b6001600160a01b038116811461112b57600080fd5b6000806040838503121561373a57600080fd5b823561374581613712565b946020939093013593505050565b801515811461112b57600080fd5b6000806040838503121561377457600080fd5b82359150602083013561378681613753565b809150509250929050565b634e487b7160e01b600052604160045260246000fd5b604080519081016001600160401b03811182821017156137c9576137c9613791565b60405290565b60405160c081016001600160401b03811182821017156137c9576137c9613791565b604051601f8201601f191681016001600160401b038111828210171561381957613819613791565b604052919050565b60006001600160401b0382111561383a5761383a613791565b5060051b60200190565b6000806040838503121561385757600080fd5b823591506020808401356001600160401b0381111561387557600080fd5b8401601f8101861361388657600080fd5b803561389961389482613821565b6137f1565b81815260059190911b820183019083810190888311156138b857600080fd5b928401925b828410156138df5783356138d081613712565b825292840192908401906138bd565b80955050505050509250929050565b60008060006060848603121561390357600080fd5b505081359360208301359350604090920135919050565b60006020808301818452808551808352604092508286019150828160051b87010184880160005b8381101561398257888303603f1901855281518051878552613965888601826136ba565b918901519489019490945294870194925090860190600101613941565b509098975050505050505050565b6000806000606084860312156139a557600080fd5b83356139b081613712565b925060208401356139c081613712565b929592945050506040919091013590565b6020808252825182820181905260009190848201906040850190845b81811015613a09578351835292840192918401916001016139ed565b50909695505050505050565b600082601f830112613a2657600080fd5b81356020613a3661389483613821565b82815260059290921b84018101918181019086841115613a5557600080fd5b8286015b848110156117f75780358352918301918301613a59565b60008060408385031215613a8357600080fd5b8235915060208301356001600160401b03811115613aa057600080fd5b613aac85828601613a15565b9150509250929050565b60008060408385031215613ac957600080fd5b82356001600160401b0380821115613ae057600080fd5b613aec86838701613a15565b9350602091508185013581811115613b0357600080fd5b8501601f81018713613b1457600080fd5b8035613b2261389482613821565b81815260059190911b82018401908481019089831115613b4157600080fd5b8584015b83811015613b7957803586811115613b5d5760008081fd5b613b6b8c8983890101613a15565b845250918601918601613b45565b508096505050505050509250929050565b600082601f830112613b9b57600080fd5b6040516103008082018281106001600160401b0382111715613bbf57613bbf613791565b60405283018185821115613bd257600080fd5b845b82811015613bec578035825260209182019101613bd4565b509195945050505050565b6000806103208385031215613c0b57600080fd5b82359150613c1c8460208501613b8a565b90509250929050565b600060208284031215613c3757600080fd5b813561368781613712565b602080825282518282018190526000919060409081850190868401855b82811015613c9757815180516001600160a01b0316855286810151878601528501518585015260609093019290850190600101613c5f565b5091979650505050505050565b60008060408385031215613cb757600080fd5b50508035926020909101359150565b60008060408385031215613cd957600080fd5b8235613ce481613712565b9150602083013561378681613753565b60006020808301818452808551808352604092508286019150828160051b87010184880160005b8381101561398257888303603f1901855281518051845287810151888501528601516060878501819052613d51818601836136ba565b968901969450505090860190600101613d1b565b600060208284031215613d7757600080fd5b81356001600160401b03811115613d8d57600080fd5b61298884828501613a15565b602080825282518282018190526000919060409081850190868401855b82811015613c9757815180516001600160a01b03168552860151868501529284019290850190600101613db6565b60006001600160401b03821115613dfd57613dfd613791565b50601f01601f191660200190565b6000613e1961389484613de4565b9050828152838383011115613e2d57600080fd5b828260208301376000602084830101529392505050565b60008060008060808587031215613e5a57600080fd5b8435613e6581613712565b93506020850135613e7581613712565b92506040850135915060608501356001600160401b03811115613e9757600080fd5b8501601f81018713613ea857600080fd5b613eb787823560208401613e0b565b91505092959194509250565b60008060408385031215613ed657600080fd5b8235613ee181613712565b9150602083013561378681613712565b60008060008060808587031215613f0757600080fd5b84359350602085013592506040850135915060608501356001600160401b0380821115613f3357600080fd5b818701915087601f830112613f4757600080fd5b8135613f5561389482613821565b8082825260208201915060208360051b86010192508a831115613f7757600080fd5b602085015b83811015614007578481351115613f9257600080fd5b803586016040818e03601f19011215613faa57600080fd5b613fb26137a7565b602082013587811115613fc457600080fd5b8201603f81018f13613fd557600080fd5b613fe78f602083013560408401613e0b565b825250604091909101356020808301919091529084529283019201613f7c565b50979a9699509497505050505050565b6000806000806080858703121561402d57600080fd5b843561403881613712565b9350602085013561404881613712565b9250604085013561405881613712565b9150606085013561406881613712565b939692955090935050565b6000806000610340848603121561408957600080fd5b83359250602084013591506140a18560408601613b8a565b90509250925092565b600181811c908216806140be57607f821691505b602082108114156140df57634e487b7160e01b600052602260045260246000fd5b50919050565b80516140f081613753565b919050565b60006020828403121561410757600080fd5b815161368781613753565b6020808252601690820152753cb7ba903430bb32903737903832b936b4b9b9b4b7b760511b604082015260600190565b634e487b7160e01b600052603260045260246000fd5b634e487b7160e01b600052601160045260246000fd5b600060001982141561418257614182614158565b5060010190565b60008282101561419b5761419b614158565b500390565b600082198211156141b3576141b3614158565b500190565b600082516141ca81846020870161368e565b9190910192915050565b6020808252602e908201527f4552433732313a2063616c6c6572206973206e6f7420746f6b656e206f776e6560408201526d1c881b9bdc88185c1c1c9bdd995960921b606082015260800190565b600082601f83011261423357600080fd5b815161424161389482613de4565b81815284602083860101111561425657600080fd5b61298882602083016020870161368e565b600060c0828403121561427957600080fd5b6142816137cf565b9050815181526020820151602082015260408201516001600160401b03808211156142ab57600080fd5b6142b785838601614222565b604084015260608401519150808211156142d057600080fd5b6142dc85838601614222565b606084015260808401519150808211156142f557600080fd5b5061430284828501614222565b60808301525061431460a083016140e5565b60a082015292915050565b6000602080838503121561433257600080fd5b82516001600160401b038082111561434957600080fd5b818501915085601f83011261435d57600080fd5b815161436b61389482613821565b81815260059190911b8301840190848101908883111561438a57600080fd5b8585015b838110156143c2578051858111156143a65760008081fd5b6143b48b89838a0101614267565b84525091860191860161438e565b5098975050505050505050565b6000602082840312156143e157600080fd5b81516001600160401b038111156143f757600080fd5b61298884828501614267565b8060005b60188110156111ef578151845260209384019390910190600101614407565b61032081016144358285614403565b826103008301529392505050565b61034081016144528286614403565b61030082018460005b600181101561447a57815183526020928301929091019060010161445b565b50505082610320830152949350505050565b60208082526032908201527f4552433732313a207472616e7366657220746f206e6f6e20455243373231526560408201527131b2b4bb32b91034b6b83632b6b2b73a32b960711b606082015260800190565b6020808252602b908201527f496e697469616c697a61626c653a20636f6e7472616374206973206e6f74206960408201526a6e697469616c697a696e6760a81b606082015260800190565b6001600160a01b0385811682528416602082015260408101839052608060608201819052600090612c0c908301846136ba565b60006020828403121561456e57600080fd5b815161368781613654565b634e487b7160e01b600052603160045260246000fdfea26469706673582212202419eab78622aa8b5f93328e5b0cc82982c56521d70d1077b8a9f88279e0dd0064736f6c63430008090033",
  "linkReferences": {},
  "deployedLinkReferences": {}
}