{
  "_format": "hh-sol-artifact-1",
  "contractName": "MintNFT",
  "sourceName": "contracts/MintNFT.sol",
  "abi": [
    {
      "anonymous": false,
      "inputs": [
        {
          "indexed": true,
          "internalType": "address",
          "name": "owner",
          "type": "address"
        },
        {
          "indexed": true,
          "internalType": "address",
          "name": "approved",
          "type": "address"
        },
        {
          "indexed": true,
          "internalType": "uint256",
          "name": "tokenId",
          "type": "uint256"
        }
      ],
      "name": "Approval",
      "type": "event"
    },
    {
      "anonymous": false,
      "inputs": [
        {
          "indexed": true,
          "internalType": "address",
          "name": "owner",
          "type": "address"
        },
        {
          "indexed": true,
          "internalType": "address",
          "name": "operator",
          "type": "address"
        },
        {
          "indexed": false,
          "internalType": "bool",
          "name": "approved",
          "type": "bool"
        }
      ],
      "name": "ApprovalForAll",
      "type": "event"
    },
    {
      "anonymous": false,
      "inputs": [
        {
          "indexed": true,
          "internalType": "address",
          "name": "executor",
          "type": "address"
        },
        {
          "indexed": true,
          "internalType": "uint256",
          "name": "eventId",
          "type": "uint256"
        }
      ],
      "name": "DroppedNFTs",
      "type": "event"
    },
    {
      "anonymous": false,
      "inputs": [
        {
          "indexed": false,
          "internalType": "uint8",
          "name": "version",
          "type": "uint8"
        }
      ],
      "name": "Initialized",
      "type": "event"
    },
    {
      "anonymous": false,
      "inputs": [
        {
          "indexed": true,
          "internalType": "uint256",
          "name": "eventId",
          "type": "uint256"
        },
        {
          "indexed": false,
          "internalType": "bool",
          "name": "isLocked",
          "type": "bool"
        }
      ],
      "name": "MintLocked",
      "type": "event"
    },
    {
      "anonymous": false,
      "inputs": [
        {
          "indexed": true,
          "internalType": "address",
          "name": "holder",
          "type": "address"
        },
        {
          "indexed": false,
          "internalType": "string",
          "name": "url",
          "type": "string"
        }
      ],
      "name": "MintedNFTAttributeURL",
      "type": "event"
    },
    {
      "anonymous": false,
      "inputs": [
        {
          "indexed": true,
          "internalType": "address",
          "name": "previousOwner",
          "type": "address"
        },
        {
          "indexed": true,
          "internalType": "address",
          "name": "newOwner",
          "type": "address"
        }
      ],
      "name": "OwnershipTransferred",
      "type": "event"
    },
    {
      "anonymous": false,
      "inputs": [
        {
          "indexed": true,
          "internalType": "address",
          "name": "executor",
          "type": "address"
        },
        {
          "indexed": true,
          "internalType": "uint256",
          "name": "eventId",
          "type": "uint256"
        }
      ],
      "name": "ResetSecretPhrase",
      "type": "event"
    },
    {
      "anonymous": false,
      "inputs": [
        {
          "indexed": true,
          "internalType": "address",
          "name": "from",
          "type": "address"
        },
        {
          "indexed": true,
          "internalType": "address",
          "name": "to",
          "type": "address"
        },
        {
          "indexed": true,
          "internalType": "uint256",
          "name": "tokenId",
          "type": "uint256"
        }
      ],
      "name": "Transfer",
      "type": "event"
    },
    {
      "inputs": [
        {
          "internalType": "address",
          "name": "to",
          "type": "address"
        },
        {
          "internalType": "uint256",
          "name": "tokenId",
          "type": "uint256"
        }
      ],
      "name": "approve",
      "outputs": [],
      "stateMutability": "nonpayable",
      "type": "function"
    },
    {
      "inputs": [
        {
          "internalType": "address",
          "name": "owner",
          "type": "address"
        }
      ],
      "name": "balanceOf",
      "outputs": [
        {
          "internalType": "uint256",
          "name": "",
          "type": "uint256"
        }
      ],
      "stateMutability": "view",
      "type": "function"
    },
    {
      "inputs": [
        {
          "internalType": "uint256",
          "name": "tokenId",
          "type": "uint256"
        }
      ],
      "name": "burn",
      "outputs": [],
      "stateMutability": "nonpayable",
      "type": "function"
    },
    {
      "inputs": [
        {
          "internalType": "uint256",
          "name": "_eventId",
          "type": "uint256"
        },
        {
          "internalType": "uint256[24]",
          "name": "_proof",
          "type": "uint256[24]"
        }
      ],
      "name": "canMint",
      "outputs": [
        {
          "internalType": "bool",
          "name": "",
          "type": "bool"
        }
      ],
      "stateMutability": "view",
      "type": "function"
    },
    {
      "inputs": [
        {
          "internalType": "uint256",
          "name": "_eventId",
          "type": "uint256"
        },
        {
          "internalType": "bool",
          "name": "_locked",
          "type": "bool"
        }
      ],
      "name": "changeMintLocked",
      "outputs": [],
      "stateMutability": "nonpayable",
      "type": "function"
    },
    {
      "inputs": [
        {
          "internalType": "uint256",
          "name": "_eventId",
          "type": "uint256"
        },
        {
          "internalType": "address[]",
          "name": "_addresses",
          "type": "address[]"
        }
      ],
      "name": "dropNFTs",
      "outputs": [],
      "stateMutability": "nonpayable",
      "type": "function"
    },
    {
      "inputs": [
        {
          "internalType": "uint256",
          "name": "tokenId",
          "type": "uint256"
        }
      ],
      "name": "getApproved",
      "outputs": [
        {
          "internalType": "address",
          "name": "",
          "type": "address"
        }
      ],
      "stateMutability": "view",
      "type": "function"
    },
    {
      "inputs": [
        {
          "internalType": "uint256",
          "name": "_eventId",
          "type": "uint256"
        }
      ],
      "name": "getGroupIdByEvent",
      "outputs": [
        {
          "internalType": "uint256",
          "name": "",
          "type": "uint256"
        }
      ],
      "stateMutability": "view",
      "type": "function"
    },
    {
      "inputs": [
        {
          "internalType": "uint256",
          "name": "_eventId",
          "type": "uint256"
        }
      ],
      "name": "getIsMintLocked",
      "outputs": [
        {
          "internalType": "bool",
          "name": "",
          "type": "bool"
        }
      ],
      "stateMutability": "view",
      "type": "function"
    },
    {
      "inputs": [
        {
          "internalType": "uint256",
          "name": "_eventId",
          "type": "uint256"
        },
        {
          "internalType": "uint256",
          "name": "_limit",
          "type": "uint256"
        },
        {
          "internalType": "uint256",
          "name": "_offset",
          "type": "uint256"
        }
      ],
      "name": "getNFTAttributeRecordsByEventId",
      "outputs": [
        {
          "components": [
            {
              "internalType": "string",
              "name": "metaDataURL",
              "type": "string"
            },
            {
              "internalType": "uint256",
              "name": "requiredParticipateCount",
              "type": "uint256"
            }
          ],
          "internalType": "struct MintNFT.NFTAttribute[]",
          "name": "",
          "type": "tuple[]"
        }
      ],
      "stateMutability": "view",
      "type": "function"
    },
    {
      "inputs": [
        {
          "internalType": "uint256",
          "name": "_eventId",
          "type": "uint256"
        }
      ],
      "name": "getNFTHoldersByEvent",
      "outputs": [
        {
          "components": [
            {
              "internalType": "address",
              "name": "holderAddress",
              "type": "address"
            },
            {
              "internalType": "uint256",
              "name": "tokenId",
              "type": "uint256"
            }
          ],
          "internalType": "struct MintNFT.NFTHolder[]",
          "name": "",
          "type": "tuple[]"
        }
      ],
      "stateMutability": "view",
      "type": "function"
    },
    {
      "inputs": [
        {
          "internalType": "uint256",
          "name": "_groupId",
          "type": "uint256"
        }
      ],
      "name": "getNFTHoldersByEventGroup",
      "outputs": [
        {
          "components": [
            {
              "internalType": "address",
              "name": "holderAddress",
              "type": "address"
            },
            {
              "internalType": "uint256",
              "name": "eventId",
              "type": "uint256"
            },
            {
              "internalType": "uint256",
              "name": "tokenId",
              "type": "uint256"
            }
          ],
          "internalType": "struct MintNFT.NFTHolderWithEventId[]",
          "name": "",
          "type": "tuple[]"
        }
      ],
      "stateMutability": "view",
      "type": "function"
    },
    {
      "inputs": [
        {
          "internalType": "uint256",
          "name": "_eventId",
          "type": "uint256"
        }
      ],
      "name": "getRemainingNFTCount",
      "outputs": [
        {
          "internalType": "uint256",
          "name": "",
          "type": "uint256"
        }
      ],
      "stateMutability": "view",
      "type": "function"
    },
    {
      "inputs": [
        {
          "internalType": "contract MinimalForwarderUpgradeable",
          "name": "trustedForwarder",
          "type": "address"
        },
        {
          "internalType": "address",
          "name": "_secretPhraseVerifierAddr",
          "type": "address"
        },
        {
          "internalType": "address",
          "name": "_operationControllerAddr",
          "type": "address"
        }
      ],
      "name": "initialize",
      "outputs": [],
      "stateMutability": "nonpayable",
      "type": "function"
    },
    {
      "inputs": [
        {
          "internalType": "address",
          "name": "owner",
          "type": "address"
        },
        {
          "internalType": "address",
          "name": "operator",
          "type": "address"
        }
      ],
      "name": "isApprovedForAll",
      "outputs": [
        {
          "internalType": "bool",
          "name": "",
          "type": "bool"
        }
      ],
      "stateMutability": "view",
      "type": "function"
    },
    {
      "inputs": [
        {
          "internalType": "address",
          "name": "_addr",
          "type": "address"
        },
        {
          "internalType": "uint256",
          "name": "_eventId",
          "type": "uint256"
        }
      ],
      "name": "isHoldingEventNFTByAddress",
      "outputs": [
        {
          "internalType": "bool",
          "name": "",
          "type": "bool"
        }
      ],
      "stateMutability": "view",
      "type": "function"
    },
    {
      "inputs": [
        {
          "internalType": "address",
          "name": "forwarder",
          "type": "address"
        }
      ],
      "name": "isTrustedForwarder",
      "outputs": [
        {
          "internalType": "bool",
          "name": "",
          "type": "bool"
        }
      ],
      "stateMutability": "view",
      "type": "function"
    },
    {
      "inputs": [
        {
          "internalType": "uint256",
          "name": "_groupId",
          "type": "uint256"
        },
        {
          "internalType": "uint256",
          "name": "_eventId",
          "type": "uint256"
        },
        {
          "internalType": "uint256[24]",
          "name": "_proof",
          "type": "uint256[24]"
        }
      ],
      "name": "mintParticipateNFT",
      "outputs": [],
      "stateMutability": "nonpayable",
      "type": "function"
    },
    {
      "inputs": [],
      "name": "name",
      "outputs": [
        {
          "internalType": "string",
          "name": "",
          "type": "string"
        }
      ],
      "stateMutability": "view",
      "type": "function"
    },
    {
      "inputs": [],
      "name": "owner",
      "outputs": [
        {
          "internalType": "address",
          "name": "",
          "type": "address"
        }
      ],
      "stateMutability": "view",
      "type": "function"
    },
    {
      "inputs": [
        {
          "internalType": "uint256",
          "name": "tokenId",
          "type": "uint256"
        }
      ],
      "name": "ownerOf",
      "outputs": [
        {
          "internalType": "address",
          "name": "",
          "type": "address"
        }
      ],
      "stateMutability": "view",
      "type": "function"
    },
    {
      "inputs": [
        {
          "internalType": "uint256[]",
          "name": "_tokenIdArray",
          "type": "uint256[]"
        }
      ],
      "name": "ownerOfTokens",
      "outputs": [
        {
          "components": [
            {
              "internalType": "address",
              "name": "holderAddress",
              "type": "address"
            },
            {
              "internalType": "uint256",
              "name": "tokenId",
              "type": "uint256"
            }
          ],
          "internalType": "struct MintNFT.NFTHolder[]",
          "name": "",
          "type": "tuple[]"
        }
      ],
      "stateMutability": "view",
      "type": "function"
    },
    {
      "inputs": [],
      "name": "renounceOwnership",
      "outputs": [],
      "stateMutability": "nonpayable",
      "type": "function"
    },
    {
      "inputs": [
        {
          "internalType": "uint256",
          "name": "_eventId",
          "type": "uint256"
        },
        {
          "internalType": "bytes32",
          "name": "_secretPhrase",
          "type": "bytes32"
        }
      ],
      "name": "resetSecretPhrase",
      "outputs": [],
      "stateMutability": "nonpayable",
      "type": "function"
    },
    {
      "inputs": [
        {
          "internalType": "address",
          "name": "from",
          "type": "address"
        },
        {
          "internalType": "address",
          "name": "to",
          "type": "address"
        },
        {
          "internalType": "uint256",
          "name": "tokenId",
          "type": "uint256"
        }
      ],
      "name": "safeTransferFrom",
      "outputs": [],
      "stateMutability": "nonpayable",
      "type": "function"
    },
    {
      "inputs": [
        {
          "internalType": "address",
          "name": "from",
          "type": "address"
        },
        {
          "internalType": "address",
          "name": "to",
          "type": "address"
        },
        {
          "internalType": "uint256",
          "name": "tokenId",
          "type": "uint256"
        },
        {
          "internalType": "bytes",
          "name": "data",
          "type": "bytes"
        }
      ],
      "name": "safeTransferFrom",
      "outputs": [],
      "stateMutability": "nonpayable",
      "type": "function"
    },
    {
      "inputs": [
        {
          "internalType": "address",
          "name": "operator",
          "type": "address"
        },
        {
          "internalType": "bool",
          "name": "approved",
          "type": "bool"
        }
      ],
      "name": "setApprovalForAll",
      "outputs": [],
      "stateMutability": "nonpayable",
      "type": "function"
    },
    {
      "inputs": [
        {
          "internalType": "uint256",
          "name": "_eventId",
          "type": "uint256"
        },
        {
          "internalType": "uint256",
          "name": "_mintLimit",
          "type": "uint256"
        },
        {
          "internalType": "bytes32",
          "name": "_secretPhrase",
          "type": "bytes32"
        },
        {
          "components": [
            {
              "internalType": "string",
              "name": "metaDataURL",
              "type": "string"
            },
            {
              "internalType": "uint256",
              "name": "requiredParticipateCount",
              "type": "uint256"
            }
          ],
          "internalType": "struct MintNFT.NFTAttribute[]",
          "name": "attributes",
          "type": "tuple[]"
        }
      ],
      "name": "setEventInfo",
      "outputs": [],
      "stateMutability": "nonpayable",
      "type": "function"
    },
    {
      "inputs": [
        {
          "internalType": "address",
          "name": "_addr",
          "type": "address"
        }
      ],
      "name": "setEventManagerAddr",
      "outputs": [],
      "stateMutability": "nonpayable",
      "type": "function"
    },
    {
      "inputs": [
        {
          "internalType": "bytes4",
          "name": "interfaceId",
          "type": "bytes4"
        }
      ],
      "name": "supportsInterface",
      "outputs": [
        {
          "internalType": "bool",
          "name": "",
          "type": "bool"
        }
      ],
      "stateMutability": "view",
      "type": "function"
    },
    {
      "inputs": [],
      "name": "symbol",
      "outputs": [
        {
          "internalType": "string",
          "name": "",
          "type": "string"
        }
      ],
      "stateMutability": "view",
      "type": "function"
    },
    {
      "inputs": [
        {
          "internalType": "uint256",
          "name": "index",
          "type": "uint256"
        }
      ],
      "name": "tokenByIndex",
      "outputs": [
        {
          "internalType": "uint256",
          "name": "",
          "type": "uint256"
        }
      ],
      "stateMutability": "view",
      "type": "function"
    },
    {
      "inputs": [
        {
          "internalType": "address",
          "name": "owner",
          "type": "address"
        },
        {
          "internalType": "uint256",
          "name": "index",
          "type": "uint256"
        }
      ],
      "name": "tokenOfOwnerByIndex",
      "outputs": [
        {
          "internalType": "uint256",
          "name": "",
          "type": "uint256"
        }
      ],
      "stateMutability": "view",
      "type": "function"
    },
    {
      "inputs": [
        {
          "internalType": "uint256",
          "name": "_tokenId",
          "type": "uint256"
        }
      ],
      "name": "tokenURI",
      "outputs": [
        {
          "internalType": "string",
          "name": "",
          "type": "string"
        }
      ],
      "stateMutability": "view",
      "type": "function"
    },
    {
      "inputs": [],
      "name": "totalSupply",
      "outputs": [
        {
          "internalType": "uint256",
          "name": "",
          "type": "uint256"
        }
      ],
      "stateMutability": "view",
      "type": "function"
    },
    {
      "inputs": [
        {
          "internalType": "address",
          "name": "from",
          "type": "address"
        },
        {
          "internalType": "address",
          "name": "to",
          "type": "address"
        },
        {
          "internalType": "uint256",
          "name": "tokenId",
          "type": "uint256"
        }
      ],
      "name": "transferFrom",
      "outputs": [],
      "stateMutability": "nonpayable",
      "type": "function"
    },
    {
      "inputs": [
        {
          "internalType": "address",
          "name": "newOwner",
          "type": "address"
        }
      ],
      "name": "transferOwnership",
      "outputs": [],
      "stateMutability": "nonpayable",
      "type": "function"
    }
  ],
  "bytecode": "0x608060405234801561001057600080fd5b50613e1f806100206000396000f3fe608060405234801561001057600080fd5b50600436106102275760003560e01c8063715018a611610130578063b88d4fde116100b8578063df4b39dd1161007c578063df4b39dd146104e8578063e985e9c51461050c578063ef3ad9eb14610548578063f2fde38b1461055b578063fa86623b1461056e57600080fd5b8063b88d4fde14610489578063c0c53b8b1461049c578063c4b88ea4146104af578063c87b56dd146104c2578063d622abc2146104d557600080fd5b806394d84290116100ff57806394d842901461042857806395d89b411461043b5780639dcd681114610443578063a22cb46514610456578063af5723b11461046957600080fd5b8063715018a6146103dc5780638da5cb5b146103e45780638f70738e146103f55780639041e3f41461041557600080fd5b80632f745c59116101b35780634f6ccce7116101825780634f6ccce7146103605780634ffc9f4b14610373578063572b6c05146103945780636352211e146103b657806370a08231146103c957600080fd5b80632f745c591461031457806342842e0e1461032757806342966c681461033a5780634df301491461034d57600080fd5b80630daa8be7116101fa5780630daa8be7146102a957806312b90fd6146102bc57806318160ddd146102cf57806319ffeb3b146102e157806323b872dd1461030157600080fd5b806301ffc9a71461022c57806306fdde0314610254578063081812fc14610269578063095ea7b314610294575b600080fd5b61023f61023a3660046130a3565b610581565b60405190151581526020015b60405180910390f35b61025c6105ac565b60405161024b919061311f565b61027c610277366004613132565b61063e565b6040516001600160a01b03909116815260200161024b565b6102a76102a2366004613160565b610665565b005b6102a76102b736600461319a565b610792565b6102a76102ca36600461327d565b61092d565b6099545b60405190815260200161024b565b6102f46102ef366004613327565b610b78565b60405161024b9190613353565b6102a761030f3660046133c9565b610ead565b6102d3610322366004613160565b610ee5565b6102a76103353660046133c9565b610f7b565b6102a7610348366004613132565b610f96565b61023f61035b366004613477565b610faa565b6102d361036e366004613132565b6110ff565b6102d3610381366004613132565b6000908152610134602052604090205490565b61023f6103a23660046134a5565b60c9546001600160a01b0391821691161490565b61027c6103c4366004613132565b611192565b6102d36103d73660046134a5565b6111f2565b6102a7611278565b60fc546001600160a01b031661027c565b610408610403366004613132565b61128c565b60405161024b91906134c2565b6102a76104233660046134a5565b6115b7565b6102d3610436366004613132565b611638565b61025c6116ca565b6102a7610451366004613524565b6116d9565b6102a7610464366004613546565b611870565b61047c610477366004613574565b611886565b60405161024b9190613604565b6102a76104973660046136af565b611986565b6102a76104aa36600461372e565b6119c5565b61047c6104bd366004613132565b611b2a565b61025c6104d0366004613132565b611b97565b61023f6104e3366004613160565b611c3c565b61023f6104f6366004613132565b6000908152610136602052604090205460ff1690565b61023f61051a366004613779565b6001600160a01b039182166000908152606a6020908152604080832093909416825291909152205460ff1690565b6102a76105563660046137a7565b611c68565b6102a76105693660046134a5565b611dfb565b6102a761057c3660046138cd565b611e71565b60006001600160e01b0319821663780e9d6360e01b14806105a657506105a682611f85565b92915050565b6060606580546105bb90613904565b80601f01602080910402602001604051908101604052809291908181526020018280546105e790613904565b80156106345780601f1061060957610100808354040283529160200191610634565b820191906000526020600020905b81548152906001019060200180831161061757829003601f168201915b5050505050905090565b600061064982611fd5565b506000908152606960205260409020546001600160a01b031690565b600061067082611192565b9050806001600160a01b0316836001600160a01b031614156106e35760405162461bcd60e51b815260206004820152602160248201527f4552433732313a20617070726f76616c20746f2063757272656e74206f776e656044820152603960f91b60648201526084015b60405180910390fd5b806001600160a01b03166106f5612034565b6001600160a01b0316148061071157506107118161051a612034565b6107835760405162461bcd60e51b815260206004820152603e60248201527f4552433732313a20617070726f76652063616c6c6572206973206e6f7420746f60448201527f6b656e206f776e6572206e6f7220617070726f76656420666f7220616c6c000060648201526084016106da565b61078d8383612064565b505050565b61012f5482906001600160a01b03168063972f13276107af612034565b6040516001600160e01b031960e084901b1681526001600160a01b0390911660048201526024810185905260440160206040518083038186803b1580156107f557600080fd5b505afa158015610809573d6000803e3d6000fd5b505050506040513d601f19601f8201168201806040525081019061082d919061394f565b6108495760405162461bcd60e51b81526004016106da9061396c565b6101395460408051635c975abb60e01b815290516001600160a01b03909216918291635c975abb916004808301926020929190829003018186803b15801561089057600080fd5b505afa1580156108a4573d6000803e3d6000fd5b505050506040513d601f19601f820116820180604052508101906108c8919061394f565b156108d257600080fd5b60008581526101366020908152604091829020805460ff1916871515908117909155915191825286917f1e3ed2b292ed72652054799a4fde74789a8670c153df666f76e01345ec318281910160405180910390a25050505050565b61012f5482906001600160a01b03168063972f132761094a612034565b6040516001600160e01b031960e084901b1681526001600160a01b0390911660048201526024810185905260440160206040518083038186803b15801561099057600080fd5b505afa1580156109a4573d6000803e3d6000fd5b505050506040513d601f19601f820116820180604052508101906109c8919061394f565b6109e45760405162461bcd60e51b81526004016106da9061396c565b6101395460408051635c975abb60e01b815290516001600160a01b03909216918291635c975abb916004808301926020929190829003018186803b158015610a2b57600080fd5b505afa158015610a3f573d6000803e3d6000fd5b505050506040513d601f19601f82011682018060405250810190610a63919061394f565b15610a6d57600080fd5b6000610a7886611638565b8551600088815261013460205260409020549192501115610adb5760405162461bcd60e51b815260206004820152601d60248201527f72656d61696e696e6720636f756e74206973206e6f7420656e6f75676800000060448201526064016106da565b60005b8551811015610b31576000868281518110610afb57610afb61399c565b60200260200101519050610b0f8189611c3c565b610b1e57610b1e8389836120d2565b5080610b29816139c8565b915050610ade565b5085610b3b612034565b6001600160a01b03167ff0fae1d6c53c230d212972a098b7dbf41d3a6dbb348a4ebf640a51ce63cd3b6760405160405180910390a3505050505050565b606082610b8457606492505b6064831115610bca5760405162461bcd60e51b81526020600482015260126024820152716c696d697420697320746f6f206c6172676560701b60448201526064016106da565b6000836001600160401b03811115610be457610be46131ca565b604051908082528060200260200182016040528015610c2a57816020015b604080518082019091526060815260006020820152815260200190600190039081610c025790505b509050610c39846000196139e3565b831115610c945760405162461bcd60e51b815260206004820152602360248201527f6c696d6974202b206f6666736574206d757374206265203c3d20325e323536206044820152622d203160e81b60648201526084016106da565b6000610ca084866139fa565b90506000845b82811015610de85760006101336000610cbf8b856123cc565b81526020019081526020016000208054610cd890613904565b80601f0160208091040260200160405190810160405280929190818152602001828054610d0490613904565b8015610d515780601f10610d2657610100808354040283529160200191610d51565b820191906000526020600020905b815481529060010190602001808311610d3457829003601f168201915b505060408051600081526020810180835281519020959650610d799450869350019050613a12565b6040516020818303038152906040528051906020012014610dd557604051806040016040528082815260200183815250858481518110610dbb57610dbb61399c565b60200260200101819052508280610dd1906139c8565b9350505b5080610de0816139c8565b915050610ca6565b506000816001600160401b03811115610e0357610e036131ca565b604051908082528060200260200182016040528015610e4957816020015b604080518082019091526060815260006020820152815260200190600190039081610e215790505b50905060005b82811015610ea157848181518110610e6957610e6961399c565b6020026020010151828281518110610e8357610e8361399c565b60200260200101819052508080610e99906139c8565b915050610e4f565b50979650505050505050565b610ebe610eb8612034565b82612402565b610eda5760405162461bcd60e51b81526004016106da90613a2e565b61078d838383612481565b6000610ef0836111f2565b8210610f525760405162461bcd60e51b815260206004820152602b60248201527f455243373231456e756d657261626c653a206f776e657220696e646578206f7560448201526a74206f6620626f756e647360a81b60648201526084016106da565b506001600160a01b03919091166000908152609760209081526040808320938352929052205490565b61078d83838360405180602001604052806000815250611986565b610f9e612628565b610fa7816126a1565b50565b6000610fb68284612748565b610ffa5760405162461bcd60e51b8152602060048201526015602482015274696e76616c6964207365637265742070687261736560581b60448201526064016106da565b600083815261013460205260409020546110565760405162461bcd60e51b815260206004820152601760248201527f72656d61696e696e6720636f756e74206973207a65726f00000000000000000060448201526064016106da565b611067611061612034565b84611c3c565b156110a55760405162461bcd60e51b815260206004820152600e60248201526d185b1c9958591e481b5a5b9d195960921b60448201526064016106da565b6000838152610136602052604090205460ff16156110f65760405162461bcd60e51b815260206004820152600e60248201526d1b5a5b9d081a5cc81b1bd8dad95960921b60448201526064016106da565b50600192915050565b600061110a60995490565b821061116d5760405162461bcd60e51b815260206004820152602c60248201527f455243373231456e756d657261626c653a20676c6f62616c20696e646578206f60448201526b7574206f6620626f756e647360a01b60648201526084016106da565b609982815481106111805761118061399c565b90600052602060002001549050919050565b6000818152606760205260408120546001600160a01b0316806105a65760405162461bcd60e51b8152602060048201526018602482015277115490cdcc8c4e881a5b9d985b1a59081d1bdad95b88125160421b60448201526064016106da565b60006001600160a01b03821661125c5760405162461bcd60e51b815260206004820152602960248201527f4552433732313a2061646472657373207a65726f206973206e6f7420612076616044820152683634b21037bbb732b960b91b60648201526084016106da565b506001600160a01b031660009081526068602052604090205490565b611280612628565b61128a60006127f6565b565b61012f5460405163f562082360e01b8152600481018390526060916001600160a01b031690600090829063f56208239060240160006040518083038186803b1580156112d757600080fd5b505afa1580156112eb573d6000803e3d6000fd5b505050506040513d6000823e601f3d908101601f191682016040526113139190810190613b79565b9050600081516001600160401b03811115611330576113306131ca565b60405190808252806020026020018201604052801561136357816020015b606081526020019060019003908161134e5790505b5090506000805b83518110156113f0576113998482815181106113885761138861399c565b602002602001015160000151611b2a565b8382815181106113ab576113ab61399c565b60200260200101819052508281815181106113c8576113c861399c565b602002602001015151826113dc91906139fa565b9150806113e8816139c8565b91505061136a565b506000816001600160401b0381111561140b5761140b6131ca565b60405190808252806020026020018201604052801561146957816020015b611456604051806060016040528060006001600160a01b0316815260200160008152602001600081525090565b8152602001906001900390816114295790505b50905060005b828110156115ac5760005b85518110156115a65760005b8582815181106114985761149861399c565b6020026020010151518110156115935760405180606001604052808784815181106114c5576114c561399c565b602002602001015183815181106114de576114de61399c565b6020026020010151600001516001600160a01b0316815260200188848151811061150a5761150a61399c565b602002602001015160000151815260200187848151811061152d5761152d61399c565b602002602001015183815181106115465761154661399c565b6020026020010151602001518152508484815181106115675761156761399c565b6020026020010181905250828061157d906139c8565b935050808061158b906139c8565b915050611486565b508061159e816139c8565b91505061147a565b5061146f565b509695505050505050565b6115bf612628565b6001600160a01b0381166116155760405162461bcd60e51b815260206004820152601e60248201527f6576656e74206d616e61676572206164647265737320697320626c616e6b000060448201526064016106da565b61012f80546001600160a01b0319166001600160a01b0392909216919091179055565b61012f54604051632e601e6f60e21b8152600481018390526000916001600160a01b0316908290829063b98079bc9060240160006040518083038186803b15801561168257600080fd5b505afa158015611696573d6000803e3d6000fd5b505050506040513d6000823e601f3d908101601f191682016040526116be9190810190613c29565b60200151949350505050565b6060606680546105bb90613904565b61012f5482906001600160a01b03168063972f13276116f6612034565b6040516001600160e01b031960e084901b1681526001600160a01b0390911660048201526024810185905260440160206040518083038186803b15801561173c57600080fd5b505afa158015611750573d6000803e3d6000fd5b505050506040513d601f19601f82011682018060405250810190611774919061394f565b6117905760405162461bcd60e51b81526004016106da9061396c565b6101395460408051635c975abb60e01b815290516001600160a01b03909216918291635c975abb916004808301926020929190829003018186803b1580156117d757600080fd5b505afa1580156117eb573d6000803e3d6000fd5b505050506040513d601f19601f8201168201806040525081019061180f919061394f565b1561181957600080fd5b60008581526101356020526040902084905584611834612034565b6001600160a01b03167fae5b067be3e4869ca571a499572a09085a17c3d0442a8965b8356bf47f63ba9960405160405180910390a35050505050565b61188261187b612034565b8383612848565b5050565b6060600082516001600160401b038111156118a3576118a36131ca565b6040519080825280602002602001820160405280156118e857816020015b60408051808201909152600080825260208201528152602001906001900390816118c15790505b50905060005b835181101561197f5760405180604001604052806119248684815181106119175761191761399c565b6020026020010151611192565b6001600160a01b031681526020018583815181106119445761194461399c565b60200260200101518152508282815181106119615761196161399c565b60200260200101819052508080611977906139c8565b9150506118ee565b5092915050565b611997611991612034565b83612402565b6119b35760405162461bcd60e51b81526004016106da90613a2e565b6119bf84848484612917565b50505050565b600054600490610100900460ff161580156119e7575060005460ff8083169116105b611a4a5760405162461bcd60e51b815260206004820152602e60248201527f496e697469616c697a61626c653a20636f6e747261637420697320616c72656160448201526d191e481a5b9a5d1a585b1a5e995960921b60648201526084016106da565b6000805461ffff191660ff83161761010017905560408051808201825260098152684d696e7452616c6c7960b81b6020808301919091528251808401909352600283526126a960f11b90830152611aa09161294a565b611aa861297b565b611ab1846129aa565b61013780546001600160a01b038581166001600160a01b0319928316179092556101398054928516929091169190911790556000805461ff001916905560405160ff821681527f7f26b83ff96e1f2b6a682f133852f6798a09c465da95921460cefb38474024989060200160405180910390a150505050565b60606105a66101386000848152602001908152602001600020805480602002602001604051908101604052809291908181526020018280548015611b8d57602002820191906000526020600020905b815481526020019060010190808311611b79575b5050505050611886565b60008181526101306020526040812080546060929190611bb690613904565b80601f0160208091040260200160405190810160405280929190818152602001828054611be290613904565b8015611c2f5780601f10611c0457610100808354040283529160200191611c2f565b820191906000526020600020905b815481529060010190602001808311611c1257829003601f168201915b5093979650505050505050565b60006101316000611c4d85856129fb565b815260208101919091526040016000205460ff169392505050565b6101395460408051635c975abb60e01b815290516001600160a01b03909216918291635c975abb916004808301926020929190829003018186803b158015611caf57600080fd5b505afa158015611cc3573d6000803e3d6000fd5b505050506040513d601f19601f82011682018060405250810190611ce7919061394f565b15611cf157600080fd5b61012f546001600160a01b0316611d06612034565b6001600160a01b031614611d4b5760405162461bcd60e51b815260206004820152600c60248201526b1d5b985d5d1a1bdc9a5e995960a21b60448201526064016106da565b60008581526101346020908152604080832087905561013590915281208490555b8251811015611df357828181518110611d8757611d8761399c565b6020026020010151600001516101336000611dbf89878681518110611dae57611dae61399c565b6020026020010151602001516123cc565b81526020019081526020016000209080519060200190611de0929190612ff4565b5080611deb816139c8565b915050611d6c565b505050505050565b611e03612628565b6001600160a01b038116611e685760405162461bcd60e51b815260206004820152602660248201527f4f776e61626c653a206e6577206f776e657220697320746865207a65726f206160448201526564647265737360d01b60648201526084016106da565b610fa7816127f6565b6101395460408051635c975abb60e01b815290516001600160a01b03909216918291635c975abb916004808301926020929190829003018186803b158015611eb857600080fd5b505afa158015611ecc573d6000803e3d6000fd5b505050506040513d601f19601f82011682018060405250810190611ef0919061394f565b15611efa57600080fd5b611f048383610faa565b506101375460405163635e393960e11b81526001600160a01b0390911690819063c6bc727290611f3a9086908890600401613c80565b600060405180830381600087803b158015611f5457600080fd5b505af1158015611f68573d6000803e3d6000fd5b50505050611f7e8585611f79612034565b6120d2565b5050505050565b60006001600160e01b031982166380ac58cd60e01b1480611fb657506001600160e01b03198216635b5e139f60e01b145b806105a657506301ffc9a760e01b6001600160e01b03198316146105a6565b6000818152606760205260409020546001600160a01b0316610fa75760405162461bcd60e51b8152602060048201526018602482015277115490cdcc8c4e881a5b9d985b1a59081d1bdad95b88125160421b60448201526064016106da565b60c9546000906001600160a01b0316331415612057575060131936013560601c90565b61205f612a29565b905090565b600081815260696020526040902080546001600160a01b0319166001600160a01b038416908117909155819061209982611192565b6001600160a01b03167f8c5be1e5ebec7d5bd14f71427d1e84f3dd0314c0f7b2291e5b200ac8c7c3b92560405160405180910390a45050565b600082815261013460205260409020546120ee906001906139e3565b600083815261013460205260408120919091556001906101319061211284866129fb565b815260200190815260200160002060006101000a81548160ff021916908315150217905550600061214382856129fb565b600081815261013260205260409020549091506121618160016139fa565b600083815261013260205260408120919091556101338161218287826123cc565b8152602001908152602001600020805461219b90613904565b80601f01602080910402602001604051908101604052809291908181526020018280546121c790613904565b80156122145780601f106121e957610100808354040283529160200191612214565b820191906000526020600020905b8154815290600101906020018083116121f757829003601f168201915b505050505090506000610133600061222c88866123cc565b8152602001908152602001600020805461224590613904565b80601f016020809104026020016040519081016040528092919081815260200182805461227190613904565b80156122be5780601f10612293576101008083540402835291602001916122be565b820191906000526020600020905b8154815290600101906020018083116122a157829003601f168201915b5050604080516000815260208101808352815190209596506122e69450869350019050613a12565b6040516020818303038152906040528051906020012014612305578091505b81610130600061231561012e5490565b81526020019081526020016000209080519060200190612336929190612ff4565b5060008681526101386020526040902061012e54815460018101835560009283526020909220909101556123738561236e61012e5490565b612a51565b61238261012e80546001019055565b846001600160a01b03167faf2fad1984d2c7abaa9300537cf9fe1bcfaf2d6226e4ffdf03522dbf3064808e836040516123bb919061311f565b60405180910390a250505050505050565b60408051602081018490529081018290526000906060015b60405160208183030381529060405280519060200120905092915050565b60008061240e83611192565b9050806001600160a01b0316846001600160a01b0316148061245557506001600160a01b038082166000908152606a602090815260408083209388168352929052205460ff165b806124795750836001600160a01b031661246e8461063e565b6001600160a01b0316145b949350505050565b826001600160a01b031661249482611192565b6001600160a01b0316146124f85760405162461bcd60e51b815260206004820152602560248201527f4552433732313a207472616e736665722066726f6d20696e636f72726563742060448201526437bbb732b960d91b60648201526084016106da565b6001600160a01b03821661255a5760405162461bcd60e51b8152602060048201526024808201527f4552433732313a207472616e7366657220746f20746865207a65726f206164646044820152637265737360e01b60648201526084016106da565b612565838383612a6b565b612570600082612064565b6001600160a01b03831660009081526068602052604081208054600192906125999084906139e3565b90915550506001600160a01b03821660009081526068602052604081208054600192906125c79084906139fa565b909155505060008181526067602052604080822080546001600160a01b0319166001600160a01b0386811691821790925591518493918716917fddf252ad1be2c89b69c2b068fc378daa952ba7f163c4a11628f55a4df523b3ef91a4505050565b612630612034565b6001600160a01b031661264b60fc546001600160a01b031690565b6001600160a01b03161461128a5760405162461bcd60e51b815260206004820181905260248201527f4f776e61626c653a2063616c6c6572206973206e6f7420746865206f776e657260448201526064016106da565b60006126ac82611192565b90506126ba81600084612a6b565b6126c5600083612064565b6001600160a01b03811660009081526068602052604081208054600192906126ee9084906139e3565b909155505060008281526067602052604080822080546001600160a01b0319169055518391906001600160a01b038416907fddf252ad1be2c89b69c2b068fc378daa952ba7f163c4a11628f55a4df523b3ef908390a45050565b6101375460408051602080820183526000858152610135909152828120548252915163532dd84d60e11b815291926001600160a01b0316918390839063a65bb09a9061279c90899086908a90600401613c9d565b60206040518083038186803b1580156127b457600080fd5b505afa1580156127c8573d6000803e3d6000fd5b505050506040513d601f19601f820116820180604052508101906127ec919061394f565b9695505050505050565b60fc80546001600160a01b038381166001600160a01b0319831681179093556040519116919082907f8be0079c531659141344cd1fd0a4f28419497f9722a3daafe3b4186f6b6457e090600090a35050565b816001600160a01b0316836001600160a01b031614156128aa5760405162461bcd60e51b815260206004820152601960248201527f4552433732313a20617070726f766520746f2063616c6c65720000000000000060448201526064016106da565b6001600160a01b038381166000818152606a6020908152604080832094871680845294825291829020805460ff191686151590811790915591519182527f17307eab39ab6107e8899845ad3d59bd9653f200f220920489ca2b5937696c31910160405180910390a3505050565b612922848484612481565b61292e84848484612b23565b6119bf5760405162461bcd60e51b81526004016106da90613ce6565b600054610100900460ff166129715760405162461bcd60e51b81526004016106da90613d38565b6118828282612c37565b600054610100900460ff166129a25760405162461bcd60e51b81526004016106da90613d38565b61128a612c85565b600054610100900460ff166129d15760405162461bcd60e51b81526004016106da90613d38565b6129d9612cbc565b60c980546001600160a01b0319166001600160a01b0392909216919091179055565b6040516bffffffffffffffffffffffff19606084901b166020820152603481018290526000906054016123e4565b60c9546000906001600160a01b0316331415612a4c575060131936013560601c90565b503390565b611882828260405180602001604052806000815250612ce3565b6001600160a01b038316612ac657612ac181609980546000838152609a60205260408120829055600182018355919091527f72a152ddfb8e864297c917af52ea6c1c68aead0fee1a62673fcc7e0c94979d000155565b612ae9565b816001600160a01b0316836001600160a01b031614612ae957612ae98382612d16565b6001600160a01b038216612b005761078d81612db3565b826001600160a01b0316826001600160a01b03161461078d5761078d8282612e62565b60006001600160a01b0384163b15612c2c57836001600160a01b031663150b7a02612b4c612034565b8786866040518563ffffffff1660e01b8152600401612b6e9493929190613d83565b602060405180830381600087803b158015612b8857600080fd5b505af1925050508015612bb8575060408051601f3d908101601f19168201909252612bb591810190613db6565b60015b612c12573d808015612be6576040519150601f19603f3d011682016040523d82523d6000602084013e612beb565b606091505b508051612c0a5760405162461bcd60e51b81526004016106da90613ce6565b805181602001fd5b6001600160e01b031916630a85bd0160e11b149050612479565b506001949350505050565b600054610100900460ff16612c5e5760405162461bcd60e51b81526004016106da90613d38565b8151612c71906065906020850190612ff4565b50805161078d906066906020840190612ff4565b600054610100900460ff16612cac5760405162461bcd60e51b81526004016106da90613d38565b61128a612cb7612034565b6127f6565b600054610100900460ff1661128a5760405162461bcd60e51b81526004016106da90613d38565b612ced8383612ea6565b612cfa6000848484612b23565b61078d5760405162461bcd60e51b81526004016106da90613ce6565b60006001612d23846111f2565b612d2d91906139e3565b600083815260986020526040902054909150808214612d80576001600160a01b03841660009081526097602090815260408083208584528252808320548484528184208190558352609890915290208190555b5060009182526098602090815260408084208490556001600160a01b039094168352609781528383209183525290812055565b609954600090612dc5906001906139e3565b6000838152609a602052604081205460998054939450909284908110612ded57612ded61399c565b906000526020600020015490508060998381548110612e0e57612e0e61399c565b6000918252602080832090910192909255828152609a90915260408082208490558582528120556099805480612e4657612e46613dd3565b6001900381819060005260206000200160009055905550505050565b6000612e6d836111f2565b6001600160a01b039093166000908152609760209081526040808320868452825280832085905593825260989052919091209190915550565b6001600160a01b038216612efc5760405162461bcd60e51b815260206004820181905260248201527f4552433732313a206d696e7420746f20746865207a65726f206164647265737360448201526064016106da565b6000818152606760205260409020546001600160a01b031615612f615760405162461bcd60e51b815260206004820152601c60248201527f4552433732313a20746f6b656e20616c7265616479206d696e7465640000000060448201526064016106da565b612f6d60008383612a6b565b6001600160a01b0382166000908152606860205260408120805460019290612f969084906139fa565b909155505060008181526067602052604080822080546001600160a01b0319166001600160a01b03861690811790915590518392907fddf252ad1be2c89b69c2b068fc378daa952ba7f163c4a11628f55a4df523b3ef908290a45050565b82805461300090613904565b90600052602060002090601f0160209004810192826130225760008555613068565b82601f1061303b57805160ff1916838001178555613068565b82800160010185558215613068579182015b8281111561306857825182559160200191906001019061304d565b50613074929150613078565b5090565b5b808211156130745760008155600101613079565b6001600160e01b031981168114610fa757600080fd5b6000602082840312156130b557600080fd5b81356130c08161308d565b9392505050565b60005b838110156130e25781810151838201526020016130ca565b838111156119bf5750506000910152565b6000815180845261310b8160208601602086016130c7565b601f01601f19169290920160200192915050565b6020815260006130c060208301846130f3565b60006020828403121561314457600080fd5b5035919050565b6001600160a01b0381168114610fa757600080fd5b6000806040838503121561317357600080fd5b823561317e8161314b565b946020939093013593505050565b8015158114610fa757600080fd5b600080604083850312156131ad57600080fd5b8235915060208301356131bf8161318c565b809150509250929050565b634e487b7160e01b600052604160045260246000fd5b604080519081016001600160401b0381118282101715613202576132026131ca565b60405290565b60405160c081016001600160401b0381118282101715613202576132026131ca565b604051601f8201601f191681016001600160401b0381118282101715613252576132526131ca565b604052919050565b60006001600160401b03821115613273576132736131ca565b5060051b60200190565b6000806040838503121561329057600080fd5b823591506020808401356001600160401b038111156132ae57600080fd5b8401601f810186136132bf57600080fd5b80356132d26132cd8261325a565b61322a565b81815260059190911b820183019083810190888311156132f157600080fd5b928401925b828410156133185783356133098161314b565b825292840192908401906132f6565b80955050505050509250929050565b60008060006060848603121561333c57600080fd5b505081359360208301359350604090920135919050565b60006020808301818452808551808352604092508286019150828160051b87010184880160005b838110156133bb57888303603f190185528151805187855261339e888601826130f3565b91890151948901949094529487019492509086019060010161337a565b509098975050505050505050565b6000806000606084860312156133de57600080fd5b83356133e98161314b565b925060208401356133f98161314b565b929592945050506040919091013590565b600082601f83011261341b57600080fd5b6040516103008082018281106001600160401b038211171561343f5761343f6131ca565b6040528301818582111561345257600080fd5b845b8281101561346c578035825260209182019101613454565b509195945050505050565b600080610320838503121561348b57600080fd5b8235915061349c846020850161340a565b90509250929050565b6000602082840312156134b757600080fd5b81356130c08161314b565b602080825282518282018190526000919060409081850190868401855b8281101561351757815180516001600160a01b03168552868101518786015285015185850152606090930192908501906001016134df565b5091979650505050505050565b6000806040838503121561353757600080fd5b50508035926020909101359150565b6000806040838503121561355957600080fd5b82356135648161314b565b915060208301356131bf8161318c565b6000602080838503121561358757600080fd5b82356001600160401b0381111561359d57600080fd5b8301601f810185136135ae57600080fd5b80356135bc6132cd8261325a565b81815260059190911b820183019083810190878311156135db57600080fd5b928401925b828410156135f9578335825292840192908401906135e0565b979650505050505050565b602080825282518282018190526000919060409081850190868401855b8281101561351757815180516001600160a01b03168552860151868501529284019290850190600101613621565b60006001600160401b03821115613668576136686131ca565b50601f01601f191660200190565b60006136846132cd8461364f565b905082815283838301111561369857600080fd5b828260208301376000602084830101529392505050565b600080600080608085870312156136c557600080fd5b84356136d08161314b565b935060208501356136e08161314b565b92506040850135915060608501356001600160401b0381111561370257600080fd5b8501601f8101871361371357600080fd5b61372287823560208401613676565b91505092959194509250565b60008060006060848603121561374357600080fd5b833561374e8161314b565b9250602084013561375e8161314b565b9150604084013561376e8161314b565b809150509250925092565b6000806040838503121561378c57600080fd5b82356137978161314b565b915060208301356131bf8161314b565b600080600080608085870312156137bd57600080fd5b84359350602085013592506040850135915060608501356001600160401b03808211156137e957600080fd5b818701915087601f8301126137fd57600080fd5b813561380b6132cd8261325a565b8082825260208201915060208360051b86010192508a83111561382d57600080fd5b602085015b838110156138bd57848135111561384857600080fd5b803586016040818e03601f1901121561386057600080fd5b6138686131e0565b60208201358781111561387a57600080fd5b8201603f81018f1361388b57600080fd5b61389d8f602083013560408401613676565b825250604091909101356020808301919091529084529283019201613832565b50979a9699509497505050505050565b600080600061034084860312156138e357600080fd5b83359250602084013591506138fb856040860161340a565b90509250925092565b600181811c9082168061391857607f821691505b6020821081141561393957634e487b7160e01b600052602260045260246000fd5b50919050565b805161394a8161318c565b919050565b60006020828403121561396157600080fd5b81516130c08161318c565b6020808252601690820152753cb7ba903430bb32903737903832b936b4b9b9b4b7b760511b604082015260600190565b634e487b7160e01b600052603260045260246000fd5b634e487b7160e01b600052601160045260246000fd5b60006000198214156139dc576139dc6139b2565b5060010190565b6000828210156139f5576139f56139b2565b500390565b60008219821115613a0d57613a0d6139b2565b500190565b60008251613a248184602087016130c7565b9190910192915050565b6020808252602e908201527f4552433732313a2063616c6c6572206973206e6f7420746f6b656e206f776e6560408201526d1c881b9bdc88185c1c1c9bdd995960921b606082015260800190565b600082601f830112613a8d57600080fd5b8151613a9b6132cd8261364f565b818152846020838601011115613ab057600080fd5b6124798260208301602087016130c7565b600060c08284031215613ad357600080fd5b613adb613208565b9050815181526020820151602082015260408201516001600160401b0380821115613b0557600080fd5b613b1185838601613a7c565b60408401526060840151915080821115613b2a57600080fd5b613b3685838601613a7c565b60608401526080840151915080821115613b4f57600080fd5b50613b5c84828501613a7c565b608083015250613b6e60a0830161393f565b60a082015292915050565b60006020808385031215613b8c57600080fd5b82516001600160401b0380821115613ba357600080fd5b818501915085601f830112613bb757600080fd5b8151613bc56132cd8261325a565b81815260059190911b83018401908481019088831115613be457600080fd5b8585015b83811015613c1c57805185811115613c005760008081fd5b613c0e8b89838a0101613ac1565b845250918601918601613be8565b5098975050505050505050565b600060208284031215613c3b57600080fd5b81516001600160401b03811115613c5157600080fd5b61247984828501613ac1565b8060005b60188110156119bf578151845260209384019390910190600101613c61565b6103208101613c8f8285613c5d565b826103008301529392505050565b6103408101613cac8286613c5d565b61030082018460005b6001811015613cd4578151835260209283019290910190600101613cb5565b50505082610320830152949350505050565b60208082526032908201527f4552433732313a207472616e7366657220746f206e6f6e20455243373231526560408201527131b2b4bb32b91034b6b83632b6b2b73a32b960711b606082015260800190565b6020808252602b908201527f496e697469616c697a61626c653a20636f6e7472616374206973206e6f74206960408201526a6e697469616c697a696e6760a81b606082015260800190565b6001600160a01b03858116825284166020820152604081018390526080606082018190526000906127ec908301846130f3565b600060208284031215613dc857600080fd5b81516130c08161308d565b634e487b7160e01b600052603160045260246000fdfea2646970667358221220f95f15da9f0adbbea607d4b3634a16a7d3e46eaa7befbec139d697d3ead11bf764736f6c63430008090033",
  "linkReferences": {},
  "deployedLinkReferences": {}
}