{
  "_format": "hh-sol-artifact-1",
  "contractName": "MintNFT",
  "sourceName": "contracts/MintNFT.sol",
  "abi": [
    {
      "anonymous": false,
      "inputs": [
        {
          "indexed": true,
          "internalType": "address",
          "name": "owner",
          "type": "address"
        },
        {
          "indexed": true,
          "internalType": "address",
          "name": "approved",
          "type": "address"
        },
        {
          "indexed": true,
          "internalType": "uint256",
          "name": "tokenId",
          "type": "uint256"
        }
      ],
      "name": "Approval",
      "type": "event"
    },
    {
      "anonymous": false,
      "inputs": [
        {
          "indexed": true,
          "internalType": "address",
          "name": "owner",
          "type": "address"
        },
        {
          "indexed": true,
          "internalType": "address",
          "name": "operator",
          "type": "address"
        },
        {
          "indexed": false,
          "internalType": "bool",
          "name": "approved",
          "type": "bool"
        }
      ],
      "name": "ApprovalForAll",
      "type": "event"
    },
    {
      "anonymous": false,
      "inputs": [
        {
          "indexed": false,
          "internalType": "uint8",
          "name": "version",
          "type": "uint8"
        }
      ],
      "name": "Initialized",
      "type": "event"
    },
    {
      "anonymous": false,
      "inputs": [
        {
          "indexed": true,
          "internalType": "address",
          "name": "previousOwner",
          "type": "address"
        },
        {
          "indexed": true,
          "internalType": "address",
          "name": "newOwner",
          "type": "address"
        }
      ],
      "name": "OwnershipTransferred",
      "type": "event"
    },
    {
      "anonymous": false,
      "inputs": [
        {
          "indexed": true,
          "internalType": "address",
          "name": "from",
          "type": "address"
        },
        {
          "indexed": true,
          "internalType": "address",
          "name": "to",
          "type": "address"
        },
        {
          "indexed": true,
          "internalType": "uint256",
          "name": "tokenId",
          "type": "uint256"
        }
      ],
      "name": "Transfer",
      "type": "event"
    },
    {
      "inputs": [
        {
          "internalType": "address",
          "name": "to",
          "type": "address"
        },
        {
          "internalType": "uint256",
          "name": "tokenId",
          "type": "uint256"
        }
      ],
      "name": "approve",
      "outputs": [],
      "stateMutability": "nonpayable",
      "type": "function"
    },
    {
      "inputs": [
        {
          "internalType": "address",
          "name": "owner",
          "type": "address"
        }
      ],
      "name": "balanceOf",
      "outputs": [
        {
          "internalType": "uint256",
          "name": "",
          "type": "uint256"
        }
      ],
      "stateMutability": "view",
      "type": "function"
    },
    {
      "inputs": [
        {
          "internalType": "uint256",
          "name": "tokenId",
          "type": "uint256"
        }
      ],
      "name": "burn",
      "outputs": [],
      "stateMutability": "nonpayable",
      "type": "function"
    },
    {
      "inputs": [
        {
          "internalType": "uint256",
          "name": "tokenId",
          "type": "uint256"
        }
      ],
      "name": "getApproved",
      "outputs": [
        {
          "internalType": "address",
          "name": "",
          "type": "address"
        }
      ],
      "stateMutability": "view",
      "type": "function"
    },
    {
      "inputs": [],
      "name": "initialize",
      "outputs": [],
      "stateMutability": "nonpayable",
      "type": "function"
    },
    {
      "inputs": [
        {
          "internalType": "address",
          "name": "owner",
          "type": "address"
        },
        {
          "internalType": "address",
          "name": "operator",
          "type": "address"
        }
      ],
      "name": "isApprovedForAll",
      "outputs": [
        {
          "internalType": "bool",
          "name": "",
          "type": "bool"
        }
      ],
      "stateMutability": "view",
      "type": "function"
    },
    {
      "inputs": [
        {
          "internalType": "uint256",
          "name": "_groupId",
          "type": "uint256"
        },
        {
          "internalType": "uint256",
          "name": "_eventId",
          "type": "uint256"
        },
        {
          "internalType": "string",
          "name": "_secretPhrase",
          "type": "string"
        }
      ],
      "name": "mintParticipateNFT",
      "outputs": [
        {
          "internalType": "string",
          "name": "",
          "type": "string"
        }
      ],
      "stateMutability": "nonpayable",
      "type": "function"
    },
    {
      "inputs": [],
      "name": "name",
      "outputs": [
        {
          "internalType": "string",
          "name": "",
          "type": "string"
        }
      ],
      "stateMutability": "view",
      "type": "function"
    },
    {
      "inputs": [],
      "name": "owner",
      "outputs": [
        {
          "internalType": "address",
          "name": "",
          "type": "address"
        }
      ],
      "stateMutability": "view",
      "type": "function"
    },
    {
      "inputs": [
        {
          "internalType": "uint256",
          "name": "tokenId",
          "type": "uint256"
        }
      ],
      "name": "ownerOf",
      "outputs": [
        {
          "internalType": "address",
          "name": "",
          "type": "address"
        }
      ],
      "stateMutability": "view",
      "type": "function"
    },
    {
      "inputs": [
        {
          "internalType": "uint256",
          "name": "_eventId",
          "type": "uint256"
        },
        {
          "components": [
            {
              "internalType": "string",
              "name": "metaDataURL",
              "type": "string"
            },
            {
              "internalType": "uint256",
              "name": "requiredParticipateCount",
              "type": "uint256"
            }
          ],
          "internalType": "struct MintNFT.NFTAttribute[]",
          "name": "attributes",
          "type": "tuple[]"
        }
      ],
      "name": "pushEventNFTAttributes",
      "outputs": [],
      "stateMutability": "nonpayable",
      "type": "function"
    },
    {
      "inputs": [],
      "name": "renounceOwnership",
      "outputs": [],
      "stateMutability": "nonpayable",
      "type": "function"
    },
    {
      "inputs": [
        {
          "internalType": "address",
          "name": "from",
          "type": "address"
        },
        {
          "internalType": "address",
          "name": "to",
          "type": "address"
        },
        {
          "internalType": "uint256",
          "name": "tokenId",
          "type": "uint256"
        }
      ],
      "name": "safeTransferFrom",
      "outputs": [],
      "stateMutability": "nonpayable",
      "type": "function"
    },
    {
      "inputs": [
        {
          "internalType": "address",
          "name": "from",
          "type": "address"
        },
        {
          "internalType": "address",
          "name": "to",
          "type": "address"
        },
        {
          "internalType": "uint256",
          "name": "tokenId",
          "type": "uint256"
        },
        {
          "internalType": "bytes",
          "name": "data",
          "type": "bytes"
        }
      ],
      "name": "safeTransferFrom",
      "outputs": [],
      "stateMutability": "nonpayable",
      "type": "function"
    },
    {
      "inputs": [
        {
          "internalType": "address",
          "name": "operator",
          "type": "address"
        },
        {
          "internalType": "bool",
          "name": "approved",
          "type": "bool"
        }
      ],
      "name": "setApprovalForAll",
      "outputs": [],
      "stateMutability": "nonpayable",
      "type": "function"
    },
    {
      "inputs": [
        {
          "internalType": "address",
          "name": "_eventManagerAddr",
          "type": "address"
        }
      ],
      "name": "setEventManagerAddr",
      "outputs": [],
      "stateMutability": "nonpayable",
      "type": "function"
    },
    {
      "inputs": [
        {
          "internalType": "bytes4",
          "name": "interfaceId",
          "type": "bytes4"
        }
      ],
      "name": "supportsInterface",
      "outputs": [
        {
          "internalType": "bool",
          "name": "",
          "type": "bool"
        }
      ],
      "stateMutability": "view",
      "type": "function"
    },
    {
      "inputs": [],
      "name": "symbol",
      "outputs": [
        {
          "internalType": "string",
          "name": "",
          "type": "string"
        }
      ],
      "stateMutability": "view",
      "type": "function"
    },
    {
      "inputs": [
        {
          "internalType": "uint256",
          "name": "index",
          "type": "uint256"
        }
      ],
      "name": "tokenByIndex",
      "outputs": [
        {
          "internalType": "uint256",
          "name": "",
          "type": "uint256"
        }
      ],
      "stateMutability": "view",
      "type": "function"
    },
    {
      "inputs": [
        {
          "internalType": "address",
          "name": "owner",
          "type": "address"
        },
        {
          "internalType": "uint256",
          "name": "index",
          "type": "uint256"
        }
      ],
      "name": "tokenOfOwnerByIndex",
      "outputs": [
        {
          "internalType": "uint256",
          "name": "",
          "type": "uint256"
        }
      ],
      "stateMutability": "view",
      "type": "function"
    },
    {
      "inputs": [
        {
          "internalType": "uint256",
          "name": "_tokenId",
          "type": "uint256"
        }
      ],
      "name": "tokenURI",
      "outputs": [
        {
          "internalType": "string",
          "name": "",
          "type": "string"
        }
      ],
      "stateMutability": "view",
      "type": "function"
    },
    {
      "inputs": [],
      "name": "totalSupply",
      "outputs": [
        {
          "internalType": "uint256",
          "name": "",
          "type": "uint256"
        }
      ],
      "stateMutability": "view",
      "type": "function"
    },
    {
      "inputs": [
        {
          "internalType": "address",
          "name": "from",
          "type": "address"
        },
        {
          "internalType": "address",
          "name": "to",
          "type": "address"
        },
        {
          "internalType": "uint256",
          "name": "tokenId",
          "type": "uint256"
        }
      ],
      "name": "transferFrom",
      "outputs": [],
      "stateMutability": "nonpayable",
      "type": "function"
    },
    {
      "inputs": [
        {
          "internalType": "address",
          "name": "newOwner",
          "type": "address"
        }
      ],
      "name": "transferOwnership",
      "outputs": [],
      "stateMutability": "nonpayable",
      "type": "function"
    }
  ],
  "bytecode": "0x608060405234801561001057600080fd5b506141cb806100206000396000f3fe608060405234801561001057600080fd5b50600436106101585760003560e01c806370a08231116100c357806395d89b411161007c57806395d89b41146103c3578063a22cb465146103e1578063b88d4fde146103fd578063c87b56dd14610419578063e985e9c514610449578063f2fde38b1461047957610158565b806370a0823114610315578063715018a61461034557806372746a8d1461034f5780638129fc1c1461037f5780638da5cb5b146103895780639041e3f4146103a757610158565b80632f745c59116101155780632f745c591461023157806342842e0e1461026157806342966c681461027d5780634e5fcfbc146102995780634f6ccce7146102b55780636352211e146102e557610158565b806301ffc9a71461015d57806306fdde031461018d578063081812fc146101ab578063095ea7b3146101db57806318160ddd146101f757806323b872dd14610215575b600080fd5b61017760048036038101906101729190612ec4565b610495565b60405161018491906134f4565b60405180910390f35b61019561050f565b6040516101a2919061352a565b60405180910390f35b6101c560048036038101906101c09190612f16565b6105a1565b6040516101d2919061348d565b60405180910390f35b6101f560048036038101906101f09190612e5f565b6105e7565b005b6101ff6106ff565b60405161020c919061381c565b60405180910390f35b61022f600480360381019061022a9190612d59565b61070c565b005b61024b60048036038101906102469190612e5f565b61076c565b604051610258919061381c565b60405180910390f35b61027b60048036038101906102769190612d59565b610811565b005b61029760048036038101906102929190612f16565b610831565b005b6102b360048036038101906102ae9190612f3f565b610845565b005b6102cf60048036038101906102ca9190612f16565b6109ba565b6040516102dc919061381c565b60405180910390f35b6102ff60048036038101906102fa9190612f16565b610a51565b60405161030c919061348d565b60405180910390f35b61032f600480360381019061032a9190612cf4565b610b03565b60405161033c919061381c565b60405180910390f35b61034d610bbb565b005b61036960048036038101906103649190612f93565b610bcf565b604051610376919061352a565b60405180910390f35b610387610fcc565b005b61039161117e565b60405161039e919061348d565b60405180910390f35b6103c160048036038101906103bc9190612cf4565b6111a8565b005b6103cb611264565b6040516103d8919061352a565b60405180910390f35b6103fb60048036038101906103f69190612e23565b6112f6565b005b61041760048036038101906104129190612da8565b61130c565b005b610433600480360381019061042e9190612f16565b61136e565b604051610440919061352a565b60405180910390f35b610463600480360381019061045e9190612d1d565b611419565b60405161047091906134f4565b60405180910390f35b610493600480360381019061048e9190612cf4565b6114ad565b005b60007f780e9d63000000000000000000000000000000000000000000000000000000007bffffffffffffffffffffffffffffffffffffffffffffffffffffffff1916827bffffffffffffffffffffffffffffffffffffffffffffffffffffffff19161480610508575061050782611531565b5b9050919050565b60606065805461051e90613a8c565b80601f016020809104026020016040519081016040528092919081815260200182805461054a90613a8c565b80156105975780601f1061056c57610100808354040283529160200191610597565b820191906000526020600020905b81548152906001019060200180831161057a57829003601f168201915b5050505050905090565b60006105ac82611613565b6069600083815260200190815260200160002060009054906101000a900473ffffffffffffffffffffffffffffffffffffffff169050919050565b60006105f282610a51565b90508073ffffffffffffffffffffffffffffffffffffffff168373ffffffffffffffffffffffffffffffffffffffff161415610663576040517f08c379a000000000000000000000000000000000000000000000000000000000815260040161065a9061377c565b60405180910390fd5b8073ffffffffffffffffffffffffffffffffffffffff1661068261165e565b73ffffffffffffffffffffffffffffffffffffffff1614806106b157506106b0816106ab61165e565b611419565b5b6106f0576040517f08c379a00000000000000000000000000000000000000000000000000000000081526004016106e7906136bc565b60405180910390fd5b6106fa838361166d565b505050565b6000609980549050905090565b61071d61071761165e565b82611726565b61075c576040517f08c379a0000000000000000000000000000000000000000000000000000000008152600401610753906137dc565b60405180910390fd5b6107678383836117bb565b505050565b600061077783610b03565b82106107b8576040517f08c379a00000000000000000000000000000000000000000000000000000000081526004016107af9061357c565b60405180910390fd5b609760008473ffffffffffffffffffffffffffffffffffffffff1673ffffffffffffffffffffffffffffffffffffffff168152602001908152602001600020600083815260200190815260200160002054905092915050565b61082c8383836040518060200160405280600081525061130c565b505050565b610839611a22565b61084281611aa0565b50565b60fc60009054906101000a900473ffffffffffffffffffffffffffffffffffffffff1673ffffffffffffffffffffffffffffffffffffffff1661088661165e565b73ffffffffffffffffffffffffffffffffffffffff16146108dc576040517f08c379a00000000000000000000000000000000000000000000000000000000081526004016108d3906136fc565b60405180910390fd5b60005b81518110156109b557818181518110610921577f4e487b7100000000000000000000000000000000000000000000000000000000600052603260045260246000fd5b60200260200101516000015161010060006109808686868151811061096f577f4e487b7100000000000000000000000000000000000000000000000000000000600052603260045260246000fd5b602002602001015160200151611bbd565b815260200190815260200160002090805190602001906109a19291906129ef565b5080806109ad90613aef565b9150506108df565b505050565b60006109c46106ff565b8210610a05576040517f08c379a00000000000000000000000000000000000000000000000000000000081526004016109fc9061379c565b60405180910390fd5b60998281548110610a3f577f4e487b7100000000000000000000000000000000000000000000000000000000600052603260045260246000fd5b90600052602060002001549050919050565b6000806067600084815260200190815260200160002060009054906101000a900473ffffffffffffffffffffffffffffffffffffffff169050600073ffffffffffffffffffffffffffffffffffffffff168173ffffffffffffffffffffffffffffffffffffffff161415610afa576040517f08c379a0000000000000000000000000000000000000000000000000000000008152600401610af19061375c565b60405180910390fd5b80915050919050565b60008073ffffffffffffffffffffffffffffffffffffffff168273ffffffffffffffffffffffffffffffffffffffff161415610b74576040517f08c379a0000000000000000000000000000000000000000000000000000000008152600401610b6b9061365c565b60405180910390fd5b606860008373ffffffffffffffffffffffffffffffffffffffff1673ffffffffffffffffffffffffffffffffffffffff168152602001908152602001600020549050919050565b610bc3611a22565b610bcd6000611bf0565b565b6060600060fc60009054906101000a900473ffffffffffffffffffffffffffffffffffffffff1690508073ffffffffffffffffffffffffffffffffffffffff1663e37c24fe84866040518363ffffffff1660e01b8152600401610c3392919061354c565b602060405180830381600087803b158015610c4d57600080fd5b505af1158015610c61573d6000803e3d6000fd5b505050506040513d601f19601f82011682018060405250810190610c859190612e9b565b610cc4576040517f08c379a0000000000000000000000000000000000000000000000000000000008152600401610cbb9061373c565b60405180910390fd5b6000610cd7610cd161165e565b86611cb6565b9050600060fe600083815260200190815260200160002060009054906101000a900460ff1690508015610d3f576040517f08c379a0000000000000000000000000000000000000000000000000000000008152600401610d36906137fc565b60405180910390fd5b600160fe600084815260200190815260200160002060006101000a81548160ff0219169083151502179055506000610d7e610d7861165e565b89611cb6565b9050600060ff600083815260200190815260200160002054905060006101006000610daa8b6000611bbd565b81526020019081526020016000208054610dc390613a8c565b80601f0160208091040260200160405190810160405280929190818152602001828054610def90613a8c565b8015610e3c5780601f10610e1157610100808354040283529160200191610e3c565b820191906000526020600020905b815481529060010190602001808311610e1f57829003601f168201915b5050505050905060006101006000610e548c86611bbd565b81526020019081526020016000208054610e6d90613a8c565b80601f0160208091040260200160405190810160405280929190818152602001828054610e9990613a8c565b8015610ee65780601f10610ebb57610100808354040283529160200191610ee6565b820191906000526020600020905b815481529060010190602001808311610ec957829003601f168201915b50505050509050604051602001610efc9061344c565b6040516020818303038152906040528051906020012081604051602001610f239190613435565b6040516020818303038152906040528051906020012014610f42578091505b8160fd6000610f5160fb611ce9565b81526020019081526020016000209080519060200190610f729291906129ef565b50610f8d610f7e61165e565b610f8860fb611ce9565b611cf7565b600183610f9a919061392d565b60ff600086815260200190815260200160002081905550610fbb60fb611d15565b819750505050505050509392505050565b60008060019054906101000a900460ff16159050808015610ffd5750600160008054906101000a900460ff1660ff16105b8061102a575061100c30611d2b565b1580156110295750600160008054906101000a900460ff1660ff16145b5b611069576040517f08c379a00000000000000000000000000000000000000000000000000000000081526004016110609061369c565b60405180910390fd5b60016000806101000a81548160ff021916908360ff16021790555080156110a6576001600060016101000a81548160ff0219169083151502179055505b61111a6040518060400160405280600981526020017f4d696e7452616c6c7900000000000000000000000000000000000000000000008152506040518060400160405280600281526020017f4d52000000000000000000000000000000000000000000000000000000000000815250611d4e565b611122611dab565b801561117b5760008060016101000a81548160ff0219169083151502179055507f7f26b83ff96e1f2b6a682f133852f6798a09c465da95921460cefb38474024986001604051611172919061350f565b60405180910390a15b50565b600060c960009054906101000a900473ffffffffffffffffffffffffffffffffffffffff16905090565b6111b0611a22565b600073ffffffffffffffffffffffffffffffffffffffff168173ffffffffffffffffffffffffffffffffffffffff161415611220576040517f08c379a00000000000000000000000000000000000000000000000000000000081526004016112179061367c565b60405180910390fd5b8060fc60006101000a81548173ffffffffffffffffffffffffffffffffffffffff021916908373ffffffffffffffffffffffffffffffffffffffff16021790555050565b60606066805461127390613a8c565b80601f016020809104026020016040519081016040528092919081815260200182805461129f90613a8c565b80156112ec5780601f106112c1576101008083540402835291602001916112ec565b820191906000526020600020905b8154815290600101906020018083116112cf57829003601f168201915b5050505050905090565b61130861130161165e565b8383611e04565b5050565b61131d61131761165e565b83611726565b61135c576040517f08c379a0000000000000000000000000000000000000000000000000000000008152600401611353906137dc565b60405180910390fd5b61136884848484611f71565b50505050565b6060600060fd6000848152602001908152602001600020805461139090613a8c565b80601f01602080910402602001604051908101604052809291908181526020018280546113bc90613a8c565b80156114095780601f106113de57610100808354040283529160200191611409565b820191906000526020600020905b8154815290600101906020018083116113ec57829003601f168201915b5050505050905080915050919050565b6000606a60008473ffffffffffffffffffffffffffffffffffffffff1673ffffffffffffffffffffffffffffffffffffffff16815260200190815260200160002060008373ffffffffffffffffffffffffffffffffffffffff1673ffffffffffffffffffffffffffffffffffffffff16815260200190815260200160002060009054906101000a900460ff16905092915050565b6114b5611a22565b600073ffffffffffffffffffffffffffffffffffffffff168173ffffffffffffffffffffffffffffffffffffffff161415611525576040517f08c379a000000000000000000000000000000000000000000000000000000000815260040161151c906135bc565b60405180910390fd5b61152e81611bf0565b50565b60007f80ac58cd000000000000000000000000000000000000000000000000000000007bffffffffffffffffffffffffffffffffffffffffffffffffffffffff1916827bffffffffffffffffffffffffffffffffffffffffffffffffffffffff191614806115fc57507f5b5e139f000000000000000000000000000000000000000000000000000000007bffffffffffffffffffffffffffffffffffffffffffffffffffffffff1916827bffffffffffffffffffffffffffffffffffffffffffffffffffffffff1916145b8061160c575061160b82611fcd565b5b9050919050565b61161c81612037565b61165b576040517f08c379a00000000000000000000000000000000000000000000000000000000081526004016116529061375c565b60405180910390fd5b50565b60006116686120a3565b905090565b816069600083815260200190815260200160002060006101000a81548173ffffffffffffffffffffffffffffffffffffffff021916908373ffffffffffffffffffffffffffffffffffffffff160217905550808273ffffffffffffffffffffffffffffffffffffffff166116e083610a51565b73ffffffffffffffffffffffffffffffffffffffff167f8c5be1e5ebec7d5bd14f71427d1e84f3dd0314c0f7b2291e5b200ac8c7c3b92560405160405180910390a45050565b60008061173283610a51565b90508073ffffffffffffffffffffffffffffffffffffffff168473ffffffffffffffffffffffffffffffffffffffff16148061177457506117738185611419565b5b806117b257508373ffffffffffffffffffffffffffffffffffffffff1661179a846105a1565b73ffffffffffffffffffffffffffffffffffffffff16145b91505092915050565b8273ffffffffffffffffffffffffffffffffffffffff166117db82610a51565b73ffffffffffffffffffffffffffffffffffffffff1614611831576040517f08c379a0000000000000000000000000000000000000000000000000000000008152600401611828906135dc565b60405180910390fd5b600073ffffffffffffffffffffffffffffffffffffffff168273ffffffffffffffffffffffffffffffffffffffff1614156118a1576040517f08c379a00000000000000000000000000000000000000000000000000000000081526004016118989061361c565b60405180910390fd5b6118ac8383836120ab565b6118b760008261166d565b6001606860008573ffffffffffffffffffffffffffffffffffffffff1673ffffffffffffffffffffffffffffffffffffffff16815260200190815260200160002060008282546119079190613983565b925050819055506001606860008473ffffffffffffffffffffffffffffffffffffffff1673ffffffffffffffffffffffffffffffffffffffff168152602001908152602001600020600082825461195e919061392d565b92505081905550816067600083815260200190815260200160002060006101000a81548173ffffffffffffffffffffffffffffffffffffffff021916908373ffffffffffffffffffffffffffffffffffffffff160217905550808273ffffffffffffffffffffffffffffffffffffffff168473ffffffffffffffffffffffffffffffffffffffff167fddf252ad1be2c89b69c2b068fc378daa952ba7f163c4a11628f55a4df523b3ef60405160405180910390a4611a1d8383836121bf565b505050565b611a2a61165e565b73ffffffffffffffffffffffffffffffffffffffff16611a4861117e565b73ffffffffffffffffffffffffffffffffffffffff1614611a9e576040517f08c379a0000000000000000000000000000000000000000000000000000000008152600401611a959061371c565b60405180910390fd5b565b6000611aab82610a51565b9050611ab9816000846120ab565b611ac460008361166d565b6001606860008373ffffffffffffffffffffffffffffffffffffffff1673ffffffffffffffffffffffffffffffffffffffff1681526020019081526020016000206000828254611b149190613983565b925050819055506067600083815260200190815260200160002060006101000a81549073ffffffffffffffffffffffffffffffffffffffff021916905581600073ffffffffffffffffffffffffffffffffffffffff168273ffffffffffffffffffffffffffffffffffffffff167fddf252ad1be2c89b69c2b068fc378daa952ba7f163c4a11628f55a4df523b3ef60405160405180910390a4611bb9816000846121bf565b5050565b60008282604051602001611bd2929190613461565b60405160208183030381529060405280519060200120905092915050565b600060c960009054906101000a900473ffffffffffffffffffffffffffffffffffffffff1690508160c960006101000a81548173ffffffffffffffffffffffffffffffffffffffff021916908373ffffffffffffffffffffffffffffffffffffffff1602179055508173ffffffffffffffffffffffffffffffffffffffff168173ffffffffffffffffffffffffffffffffffffffff167f8be0079c531659141344cd1fd0a4f28419497f9722a3daafe3b4186f6b6457e060405160405180910390a35050565b60008282604051602001611ccb929190613409565b60405160208183030381529060405280519060200120905092915050565b600081600001549050919050565b611d118282604051806020016040528060008152506121c4565b5050565b6001816000016000828254019250508190555050565b6000808273ffffffffffffffffffffffffffffffffffffffff163b119050919050565b600060019054906101000a900460ff16611d9d576040517f08c379a0000000000000000000000000000000000000000000000000000000008152600401611d94906137bc565b60405180910390fd5b611da7828261221f565b5050565b600060019054906101000a900460ff16611dfa576040517f08c379a0000000000000000000000000000000000000000000000000000000008152600401611df1906137bc565b60405180910390fd5b611e026122a0565b565b8173ffffffffffffffffffffffffffffffffffffffff168373ffffffffffffffffffffffffffffffffffffffff161415611e73576040517f08c379a0000000000000000000000000000000000000000000000000000000008152600401611e6a9061363c565b60405180910390fd5b80606a60008573ffffffffffffffffffffffffffffffffffffffff1673ffffffffffffffffffffffffffffffffffffffff16815260200190815260200160002060008473ffffffffffffffffffffffffffffffffffffffff1673ffffffffffffffffffffffffffffffffffffffff16815260200190815260200160002060006101000a81548160ff0219169083151502179055508173ffffffffffffffffffffffffffffffffffffffff168373ffffffffffffffffffffffffffffffffffffffff167f17307eab39ab6107e8899845ad3d59bd9653f200f220920489ca2b5937696c3183604051611f6491906134f4565b60405180910390a3505050565b611f7c8484846117bb565b611f8884848484612301565b611fc7576040517f08c379a0000000000000000000000000000000000000000000000000000000008152600401611fbe9061359c565b60405180910390fd5b50505050565b60007f01ffc9a7000000000000000000000000000000000000000000000000000000007bffffffffffffffffffffffffffffffffffffffffffffffffffffffff1916827bffffffffffffffffffffffffffffffffffffffffffffffffffffffff1916149050919050565b60008073ffffffffffffffffffffffffffffffffffffffff166067600084815260200190815260200160002060009054906101000a900473ffffffffffffffffffffffffffffffffffffffff1673ffffffffffffffffffffffffffffffffffffffff1614159050919050565b600033905090565b6120b6838383612498565b600073ffffffffffffffffffffffffffffffffffffffff168373ffffffffffffffffffffffffffffffffffffffff1614156120f9576120f48161249d565b612138565b8173ffffffffffffffffffffffffffffffffffffffff168373ffffffffffffffffffffffffffffffffffffffff16146121375761213683826124e6565b5b5b600073ffffffffffffffffffffffffffffffffffffffff168273ffffffffffffffffffffffffffffffffffffffff16141561217b5761217681612653565b6121ba565b8273ffffffffffffffffffffffffffffffffffffffff168273ffffffffffffffffffffffffffffffffffffffff16146121b9576121b88282612796565b5b5b505050565b505050565b6121ce8383612815565b6121db6000848484612301565b61221a576040517f08c379a00000000000000000000000000000000000000000000000000000000081526004016122119061359c565b60405180910390fd5b505050565b600060019054906101000a900460ff1661226e576040517f08c379a0000000000000000000000000000000000000000000000000000000008152600401612265906137bc565b60405180910390fd5b81606590805190602001906122849291906129ef565b50806066908051906020019061229b9291906129ef565b505050565b600060019054906101000a900460ff166122ef576040517f08c379a00000000000000000000000000000000000000000000000000000000081526004016122e6906137bc565b60405180910390fd5b6122ff6122fa61165e565b611bf0565b565b60006123228473ffffffffffffffffffffffffffffffffffffffff16611d2b565b1561248b578373ffffffffffffffffffffffffffffffffffffffff1663150b7a0261234b61165e565b8786866040518563ffffffff1660e01b815260040161236d94939291906134a8565b602060405180830381600087803b15801561238757600080fd5b505af19250505080156123b857506040513d601f19601f820116820180604052508101906123b59190612eed565b60015b61243b573d80600081146123e8576040519150601f19603f3d011682016040523d82523d6000602084013e6123ed565b606091505b50600081511415612433576040517f08c379a000000000000000000000000000000000000000000000000000000000815260040161242a9061359c565b60405180910390fd5b805181602001fd5b63150b7a0260e01b7bffffffffffffffffffffffffffffffffffffffffffffffffffffffff1916817bffffffffffffffffffffffffffffffffffffffffffffffffffffffff191614915050612490565b600190505b949350505050565b505050565b609980549050609a600083815260200190815260200160002081905550609981908060018154018082558091505060019003906000526020600020016000909190919091505550565b600060016124f384610b03565b6124fd9190613983565b90506000609860008481526020019081526020016000205490508181146125e2576000609760008673ffffffffffffffffffffffffffffffffffffffff1673ffffffffffffffffffffffffffffffffffffffff168152602001908152602001600020600084815260200190815260200160002054905080609760008773ffffffffffffffffffffffffffffffffffffffff1673ffffffffffffffffffffffffffffffffffffffff168152602001908152602001600020600084815260200190815260200160002081905550816098600083815260200190815260200160002081905550505b6098600084815260200190815260200160002060009055609760008573ffffffffffffffffffffffffffffffffffffffff1673ffffffffffffffffffffffffffffffffffffffff16815260200190815260200160002060008381526020019081526020016000206000905550505050565b600060016099805490506126679190613983565b90506000609a60008481526020019081526020016000205490506000609983815481106126bd577f4e487b7100000000000000000000000000000000000000000000000000000000600052603260045260246000fd5b906000526020600020015490508060998381548110612705577f4e487b7100000000000000000000000000000000000000000000000000000000600052603260045260246000fd5b906000526020600020018190555081609a600083815260200190815260200160002081905550609a600085815260200190815260200160002060009055609980548061277a577f4e487b7100000000000000000000000000000000000000000000000000000000600052603160045260246000fd5b6001900381819060005260206000200160009055905550505050565b60006127a183610b03565b905081609760008573ffffffffffffffffffffffffffffffffffffffff1673ffffffffffffffffffffffffffffffffffffffff168152602001908152602001600020600083815260200190815260200160002081905550806098600084815260200190815260200160002081905550505050565b600073ffffffffffffffffffffffffffffffffffffffff168273ffffffffffffffffffffffffffffffffffffffff161415612885576040517f08c379a000000000000000000000000000000000000000000000000000000000815260040161287c906136dc565b60405180910390fd5b61288e81612037565b156128ce576040517f08c379a00000000000000000000000000000000000000000000000000000000081526004016128c5906135fc565b60405180910390fd5b6128da600083836120ab565b6001606860008473ffffffffffffffffffffffffffffffffffffffff1673ffffffffffffffffffffffffffffffffffffffff168152602001908152602001600020600082825461292a919061392d565b92505081905550816067600083815260200190815260200160002060006101000a81548173ffffffffffffffffffffffffffffffffffffffff021916908373ffffffffffffffffffffffffffffffffffffffff160217905550808273ffffffffffffffffffffffffffffffffffffffff16600073ffffffffffffffffffffffffffffffffffffffff167fddf252ad1be2c89b69c2b068fc378daa952ba7f163c4a11628f55a4df523b3ef60405160405180910390a46129eb600083836121bf565b5050565b8280546129fb90613a8c565b90600052602060002090601f016020900481019282612a1d5760008555612a64565b82601f10612a3657805160ff1916838001178555612a64565b82800160010185558215612a64579182015b82811115612a63578251825591602001919060010190612a48565b5b509050612a719190612a75565b5090565b5b80821115612a8e576000816000905550600101612a76565b5090565b6000612aa5612aa08461385c565b613837565b90508083825260208201905082856020860282011115612ac457600080fd5b60005b85811015612b0e57813567ffffffffffffffff811115612ae657600080fd5b808601612af38982612c7b565b85526020850194506020840193505050600181019050612ac7565b5050509392505050565b6000612b2b612b2684613888565b613837565b905082815260208101848484011115612b4357600080fd5b612b4e848285613a4a565b509392505050565b6000612b69612b64846138b9565b613837565b905082815260208101848484011115612b8157600080fd5b612b8c848285613a4a565b509392505050565b600081359050612ba381614139565b92915050565b600082601f830112612bba57600080fd5b8135612bca848260208601612a92565b91505092915050565b600081359050612be281614150565b92915050565b600081519050612bf781614150565b92915050565b600081359050612c0c81614167565b92915050565b600081519050612c2181614167565b92915050565b600082601f830112612c3857600080fd5b8135612c48848260208601612b18565b91505092915050565b600082601f830112612c6257600080fd5b8135612c72848260208601612b56565b91505092915050565b600060408284031215612c8d57600080fd5b612c976040613837565b9050600082013567ffffffffffffffff811115612cb357600080fd5b612cbf84828501612c51565b6000830152506020612cd384828501612cdf565b60208301525092915050565b600081359050612cee8161417e565b92915050565b600060208284031215612d0657600080fd5b6000612d1484828501612b94565b91505092915050565b60008060408385031215612d3057600080fd5b6000612d3e85828601612b94565b9250506020612d4f85828601612b94565b9150509250929050565b600080600060608486031215612d6e57600080fd5b6000612d7c86828701612b94565b9350506020612d8d86828701612b94565b9250506040612d9e86828701612cdf565b9150509250925092565b60008060008060808587031215612dbe57600080fd5b6000612dcc87828801612b94565b9450506020612ddd87828801612b94565b9350506040612dee87828801612cdf565b925050606085013567ffffffffffffffff811115612e0b57600080fd5b612e1787828801612c27565b91505092959194509250565b60008060408385031215612e3657600080fd5b6000612e4485828601612b94565b9250506020612e5585828601612bd3565b9150509250929050565b60008060408385031215612e7257600080fd5b6000612e8085828601612b94565b9250506020612e9185828601612cdf565b9150509250929050565b600060208284031215612ead57600080fd5b6000612ebb84828501612be8565b91505092915050565b600060208284031215612ed657600080fd5b6000612ee484828501612bfd565b91505092915050565b600060208284031215612eff57600080fd5b6000612f0d84828501612c12565b91505092915050565b600060208284031215612f2857600080fd5b6000612f3684828501612cdf565b91505092915050565b60008060408385031215612f5257600080fd5b6000612f6085828601612cdf565b925050602083013567ffffffffffffffff811115612f7d57600080fd5b612f8985828601612ba9565b9150509250929050565b600080600060608486031215612fa857600080fd5b6000612fb686828701612cdf565b9350506020612fc786828701612cdf565b925050604084013567ffffffffffffffff811115612fe457600080fd5b612ff086828701612c51565b9150509250925092565b613003816139b7565b82525050565b61301a613015826139b7565b613b38565b82525050565b613029816139c9565b82525050565b600061303a826138ea565b6130448185613900565b9350613054818560208601613a59565b61305d81613bf3565b840191505092915050565b61307181613a38565b82525050565b6000613082826138f5565b61308c8185613911565b935061309c818560208601613a59565b6130a581613bf3565b840191505092915050565b60006130bb826138f5565b6130c58185613922565b93506130d5818560208601613a59565b80840191505092915050565b60006130ee602b83613911565b91506130f982613c11565b604082019050919050565b6000613111603283613911565b915061311c82613c60565b604082019050919050565b6000613134602683613911565b915061313f82613caf565b604082019050919050565b6000613157602583613911565b915061316282613cfe565b604082019050919050565b600061317a601c83613911565b915061318582613d4d565b602082019050919050565b600061319d602483613911565b91506131a882613d76565b604082019050919050565b60006131c0601983613911565b91506131cb82613dc5565b602082019050919050565b60006131e3602983613911565b91506131ee82613dee565b604082019050919050565b6000613206601e83613911565b915061321182613e3d565b602082019050919050565b6000613229602e83613911565b915061323482613e66565b604082019050919050565b600061324c603e83613911565b915061325782613eb5565b604082019050919050565b600061326f602083613911565b915061327a82613f04565b602082019050919050565b6000613292600c83613911565b915061329d82613f2d565b602082019050919050565b60006132b5602083613911565b91506132c082613f56565b602082019050919050565b60006132d8601583613911565b91506132e382613f7f565b602082019050919050565b60006132fb601883613911565b915061330682613fa8565b602082019050919050565b600061331e602183613911565b915061332982613fd1565b604082019050919050565b6000613341600083613922565b915061334c82614020565b600082019050919050565b6000613364602c83613911565b915061336f82614023565b604082019050919050565b6000613387602b83613911565b915061339282614072565b604082019050919050565b60006133aa602e83613911565b91506133b5826140c1565b604082019050919050565b60006133cd600e83613911565b91506133d882614110565b602082019050919050565b6133ec81613a21565b82525050565b6134036133fe82613a21565b613b5c565b82525050565b60006134158285613009565b60148201915061342582846133f2565b6020820191508190509392505050565b600061344182846130b0565b915081905092915050565b600061345782613334565b9150819050919050565b600061346d82856133f2565b60208201915061347d82846133f2565b6020820191508190509392505050565b60006020820190506134a26000830184612ffa565b92915050565b60006080820190506134bd6000830187612ffa565b6134ca6020830186612ffa565b6134d760408301856133e3565b81810360608301526134e9818461302f565b905095945050505050565b60006020820190506135096000830184613020565b92915050565b60006020820190506135246000830184613068565b92915050565b600060208201905081810360008301526135448184613077565b905092915050565b600060408201905081810360008301526135668185613077565b905061357560208301846133e3565b9392505050565b60006020820190508181036000830152613595816130e1565b9050919050565b600060208201905081810360008301526135b581613104565b9050919050565b600060208201905081810360008301526135d581613127565b9050919050565b600060208201905081810360008301526135f58161314a565b9050919050565b600060208201905081810360008301526136158161316d565b9050919050565b6000602082019050818103600083015261363581613190565b9050919050565b60006020820190508181036000830152613655816131b3565b9050919050565b60006020820190508181036000830152613675816131d6565b9050919050565b60006020820190508181036000830152613695816131f9565b9050919050565b600060208201905081810360008301526136b58161321c565b9050919050565b600060208201905081810360008301526136d58161323f565b9050919050565b600060208201905081810360008301526136f581613262565b9050919050565b6000602082019050818103600083015261371581613285565b9050919050565b60006020820190508181036000830152613735816132a8565b9050919050565b60006020820190508181036000830152613755816132cb565b9050919050565b60006020820190508181036000830152613775816132ee565b9050919050565b6000602082019050818103600083015261379581613311565b9050919050565b600060208201905081810360008301526137b581613357565b9050919050565b600060208201905081810360008301526137d58161337a565b9050919050565b600060208201905081810360008301526137f58161339d565b9050919050565b60006020820190508181036000830152613815816133c0565b9050919050565b600060208201905061383160008301846133e3565b92915050565b6000613841613852565b905061384d8282613abe565b919050565b6000604051905090565b600067ffffffffffffffff82111561387757613876613bc4565b5b602082029050602081019050919050565b600067ffffffffffffffff8211156138a3576138a2613bc4565b5b6138ac82613bf3565b9050602081019050919050565b600067ffffffffffffffff8211156138d4576138d3613bc4565b5b6138dd82613bf3565b9050602081019050919050565b600081519050919050565b600081519050919050565b600082825260208201905092915050565b600082825260208201905092915050565b600081905092915050565b600061393882613a21565b915061394383613a21565b9250827fffffffffffffffffffffffffffffffffffffffffffffffffffffffffffffffff0382111561397857613977613b66565b5b828201905092915050565b600061398e82613a21565b915061399983613a21565b9250828210156139ac576139ab613b66565b5b828203905092915050565b60006139c282613a01565b9050919050565b60008115159050919050565b60007fffffffff0000000000000000000000000000000000000000000000000000000082169050919050565b600073ffffffffffffffffffffffffffffffffffffffff82169050919050565b6000819050919050565b600060ff82169050919050565b6000613a4382613a2b565b9050919050565b82818337600083830152505050565b60005b83811015613a77578082015181840152602081019050613a5c565b83811115613a86576000848401525b50505050565b60006002820490506001821680613aa457607f821691505b60208210811415613ab857613ab7613b95565b5b50919050565b613ac782613bf3565b810181811067ffffffffffffffff82111715613ae657613ae5613bc4565b5b80604052505050565b6000613afa82613a21565b91507fffffffffffffffffffffffffffffffffffffffffffffffffffffffffffffffff821415613b2d57613b2c613b66565b5b600182019050919050565b6000613b4382613b4a565b9050919050565b6000613b5582613c04565b9050919050565b6000819050919050565b7f4e487b7100000000000000000000000000000000000000000000000000000000600052601160045260246000fd5b7f4e487b7100000000000000000000000000000000000000000000000000000000600052602260045260246000fd5b7f4e487b7100000000000000000000000000000000000000000000000000000000600052604160045260246000fd5b6000601f19601f8301169050919050565b60008160601b9050919050565b7f455243373231456e756d657261626c653a206f776e657220696e646578206f7560008201527f74206f6620626f756e6473000000000000000000000000000000000000000000602082015250565b7f4552433732313a207472616e7366657220746f206e6f6e20455243373231526560008201527f63656976657220696d706c656d656e7465720000000000000000000000000000602082015250565b7f4f776e61626c653a206e6577206f776e657220697320746865207a65726f206160008201527f6464726573730000000000000000000000000000000000000000000000000000602082015250565b7f4552433732313a207472616e736665722066726f6d20696e636f72726563742060008201527f6f776e6572000000000000000000000000000000000000000000000000000000602082015250565b7f4552433732313a20746f6b656e20616c7265616479206d696e74656400000000600082015250565b7f4552433732313a207472616e7366657220746f20746865207a65726f2061646460008201527f7265737300000000000000000000000000000000000000000000000000000000602082015250565b7f4552433732313a20617070726f766520746f2063616c6c657200000000000000600082015250565b7f4552433732313a2061646472657373207a65726f206973206e6f74206120766160008201527f6c6964206f776e65720000000000000000000000000000000000000000000000602082015250565b7f6576656e74206d616e61676572206164647265737320697320626c616e6b0000600082015250565b7f496e697469616c697a61626c653a20636f6e747261637420697320616c72656160008201527f647920696e697469616c697a6564000000000000000000000000000000000000602082015250565b7f4552433732313a20617070726f76652063616c6c6572206973206e6f7420746f60008201527f6b656e206f776e6572206e6f7220617070726f76656420666f7220616c6c0000602082015250565b7f4552433732313a206d696e7420746f20746865207a65726f2061646472657373600082015250565b7f756e617574686f72697a65640000000000000000000000000000000000000000600082015250565b7f4f776e61626c653a2063616c6c6572206973206e6f7420746865206f776e6572600082015250565b7f696e76616c696420736563726574207068726173650000000000000000000000600082015250565b7f4552433732313a20696e76616c696420746f6b656e2049440000000000000000600082015250565b7f4552433732313a20617070726f76616c20746f2063757272656e74206f776e6560008201527f7200000000000000000000000000000000000000000000000000000000000000602082015250565b50565b7f455243373231456e756d657261626c653a20676c6f62616c20696e646578206f60008201527f7574206f6620626f756e64730000000000000000000000000000000000000000602082015250565b7f496e697469616c697a61626c653a20636f6e7472616374206973206e6f74206960008201527f6e697469616c697a696e67000000000000000000000000000000000000000000602082015250565b7f4552433732313a2063616c6c6572206973206e6f7420746f6b656e206f776e6560008201527f72206e6f7220617070726f766564000000000000000000000000000000000000602082015250565b7f616c7265616479206d696e746564000000000000000000000000000000000000600082015250565b614142816139b7565b811461414d57600080fd5b50565b614159816139c9565b811461416457600080fd5b50565b614170816139d5565b811461417b57600080fd5b50565b61418781613a21565b811461419257600080fd5b5056fea264697066735822122074a83c3cee2d11fcb43c6defe6008c024dace35f80722453a6b300ba22ab767d64736f6c63430008040033",
  "linkReferences": {},
  "deployedLinkReferences": {}
}