{
  "_format": "hh-sol-artifact-1",
  "contractName": "MintNFT",
  "sourceName": "contracts/MintNFT.sol",
  "abi": [
    {
      "inputs": [],
      "stateMutability": "nonpayable",
      "type": "constructor"
    },
    {
      "anonymous": false,
      "inputs": [
        {
          "indexed": true,
          "internalType": "address",
          "name": "owner",
          "type": "address"
        },
        {
          "indexed": true,
          "internalType": "address",
          "name": "approved",
          "type": "address"
        },
        {
          "indexed": true,
          "internalType": "uint256",
          "name": "tokenId",
          "type": "uint256"
        }
      ],
      "name": "Approval",
      "type": "event"
    },
    {
      "anonymous": false,
      "inputs": [
        {
          "indexed": true,
          "internalType": "address",
          "name": "owner",
          "type": "address"
        },
        {
          "indexed": true,
          "internalType": "address",
          "name": "operator",
          "type": "address"
        },
        {
          "indexed": false,
          "internalType": "bool",
          "name": "approved",
          "type": "bool"
        }
      ],
      "name": "ApprovalForAll",
      "type": "event"
    },
    {
      "anonymous": false,
      "inputs": [
        {
          "indexed": true,
          "internalType": "address",
          "name": "previousOwner",
          "type": "address"
        },
        {
          "indexed": true,
          "internalType": "address",
          "name": "newOwner",
          "type": "address"
        }
      ],
      "name": "OwnershipTransferred",
      "type": "event"
    },
    {
      "anonymous": false,
      "inputs": [
        {
          "indexed": true,
          "internalType": "address",
          "name": "from",
          "type": "address"
        },
        {
          "indexed": true,
          "internalType": "address",
          "name": "to",
          "type": "address"
        },
        {
          "indexed": true,
          "internalType": "uint256",
          "name": "tokenId",
          "type": "uint256"
        }
      ],
      "name": "Transfer",
      "type": "event"
    },
    {
      "inputs": [
        {
          "internalType": "address",
          "name": "to",
          "type": "address"
        },
        {
          "internalType": "uint256",
          "name": "tokenId",
          "type": "uint256"
        }
      ],
      "name": "approve",
      "outputs": [],
      "stateMutability": "nonpayable",
      "type": "function"
    },
    {
      "inputs": [
        {
          "internalType": "uint256",
          "name": "",
          "type": "uint256"
        }
      ],
      "name": "attributesOfNFT",
      "outputs": [
        {
          "internalType": "string",
          "name": "name",
          "type": "string"
        },
        {
          "internalType": "string",
          "name": "image",
          "type": "string"
        },
        {
          "internalType": "uint256",
          "name": "groupId",
          "type": "uint256"
        },
        {
          "internalType": "uint256",
          "name": "eventId",
          "type": "uint256"
        },
        {
          "internalType": "uint256",
          "name": "requiredParticipateCount",
          "type": "uint256"
        }
      ],
      "stateMutability": "view",
      "type": "function"
    },
    {
      "inputs": [
        {
          "internalType": "address",
          "name": "owner",
          "type": "address"
        }
      ],
      "name": "balanceOf",
      "outputs": [
        {
          "internalType": "uint256",
          "name": "",
          "type": "uint256"
        }
      ],
      "stateMutability": "view",
      "type": "function"
    },
    {
      "inputs": [
        {
          "internalType": "uint256",
          "name": "tokenId",
          "type": "uint256"
        }
      ],
      "name": "getApproved",
      "outputs": [
        {
          "internalType": "address",
          "name": "",
          "type": "address"
        }
      ],
      "stateMutability": "view",
      "type": "function"
    },
    {
      "inputs": [
        {
          "internalType": "uint256",
          "name": "_groupId",
          "type": "uint256"
        }
      ],
      "name": "getGroupNFTAttributes",
      "outputs": [
        {
          "components": [
            {
              "internalType": "string",
              "name": "name",
              "type": "string"
            },
            {
              "internalType": "string",
              "name": "image",
              "type": "string"
            },
            {
              "internalType": "uint256",
              "name": "groupId",
              "type": "uint256"
            },
            {
              "internalType": "uint256",
              "name": "eventId",
              "type": "uint256"
            },
            {
              "internalType": "uint256",
              "name": "requiredParticipateCount",
              "type": "uint256"
            }
          ],
          "internalType": "struct MintNFT.ParticipateNFTAttributes[]",
          "name": "",
          "type": "tuple[]"
        }
      ],
      "stateMutability": "view",
      "type": "function"
    },
    {
      "inputs": [],
      "name": "getOwnedNFTs",
      "outputs": [
        {
          "components": [
            {
              "internalType": "string",
              "name": "name",
              "type": "string"
            },
            {
              "internalType": "string",
              "name": "image",
              "type": "string"
            },
            {
              "internalType": "uint256",
              "name": "groupId",
              "type": "uint256"
            },
            {
              "internalType": "uint256",
              "name": "eventId",
              "type": "uint256"
            },
            {
              "internalType": "uint256",
              "name": "requiredParticipateCount",
              "type": "uint256"
            }
          ],
          "internalType": "struct MintNFT.ParticipateNFTAttributes[]",
          "name": "",
          "type": "tuple[]"
        }
      ],
      "stateMutability": "view",
      "type": "function"
    },
    {
      "inputs": [
        {
          "internalType": "address",
          "name": "owner",
          "type": "address"
        },
        {
          "internalType": "address",
          "name": "operator",
          "type": "address"
        }
      ],
      "name": "isApprovedForAll",
      "outputs": [
        {
          "internalType": "bool",
          "name": "",
          "type": "bool"
        }
      ],
      "stateMutability": "view",
      "type": "function"
    },
    {
      "inputs": [
        {
          "internalType": "uint256",
          "name": "_groupId",
          "type": "uint256"
        },
        {
          "internalType": "uint256",
          "name": "_eventId",
          "type": "uint256"
        },
        {
          "internalType": "string",
          "name": "_secretPhrase",
          "type": "string"
        }
      ],
      "name": "mintParticipateNFT",
      "outputs": [
        {
          "internalType": "string",
          "name": "",
          "type": "string"
        }
      ],
      "stateMutability": "nonpayable",
      "type": "function"
    },
    {
      "inputs": [],
      "name": "name",
      "outputs": [
        {
          "internalType": "string",
          "name": "",
          "type": "string"
        }
      ],
      "stateMutability": "view",
      "type": "function"
    },
    {
      "inputs": [],
      "name": "owner",
      "outputs": [
        {
          "internalType": "address",
          "name": "",
          "type": "address"
        }
      ],
      "stateMutability": "view",
      "type": "function"
    },
    {
      "inputs": [
        {
          "internalType": "uint256",
          "name": "tokenId",
          "type": "uint256"
        }
      ],
      "name": "ownerOf",
      "outputs": [
        {
          "internalType": "address",
          "name": "",
          "type": "address"
        }
      ],
      "stateMutability": "view",
      "type": "function"
    },
    {
      "inputs": [
        {
          "internalType": "uint256",
          "name": "groupId",
          "type": "uint256"
        },
        {
          "components": [
            {
              "internalType": "string",
              "name": "name",
              "type": "string"
            },
            {
              "internalType": "string",
              "name": "image",
              "type": "string"
            },
            {
              "internalType": "uint256",
              "name": "groupId",
              "type": "uint256"
            },
            {
              "internalType": "uint256",
              "name": "eventId",
              "type": "uint256"
            },
            {
              "internalType": "uint256",
              "name": "requiredParticipateCount",
              "type": "uint256"
            }
          ],
          "internalType": "struct MintNFT.ParticipateNFTAttributes[]",
          "name": "attributes",
          "type": "tuple[]"
        }
      ],
      "name": "pushGroupNFTAttributes",
      "outputs": [],
      "stateMutability": "nonpayable",
      "type": "function"
    },
    {
      "inputs": [],
      "name": "renounceOwnership",
      "outputs": [],
      "stateMutability": "nonpayable",
      "type": "function"
    },
    {
      "inputs": [
        {
          "internalType": "address",
          "name": "from",
          "type": "address"
        },
        {
          "internalType": "address",
          "name": "to",
          "type": "address"
        },
        {
          "internalType": "uint256",
          "name": "tokenId",
          "type": "uint256"
        }
      ],
      "name": "safeTransferFrom",
      "outputs": [],
      "stateMutability": "nonpayable",
      "type": "function"
    },
    {
      "inputs": [
        {
          "internalType": "address",
          "name": "from",
          "type": "address"
        },
        {
          "internalType": "address",
          "name": "to",
          "type": "address"
        },
        {
          "internalType": "uint256",
          "name": "tokenId",
          "type": "uint256"
        },
        {
          "internalType": "bytes",
          "name": "data",
          "type": "bytes"
        }
      ],
      "name": "safeTransferFrom",
      "outputs": [],
      "stateMutability": "nonpayable",
      "type": "function"
    },
    {
      "inputs": [
        {
          "internalType": "address",
          "name": "operator",
          "type": "address"
        },
        {
          "internalType": "bool",
          "name": "approved",
          "type": "bool"
        }
      ],
      "name": "setApprovalForAll",
      "outputs": [],
      "stateMutability": "nonpayable",
      "type": "function"
    },
    {
      "inputs": [
        {
          "internalType": "address",
          "name": "_eventManagerAddr",
          "type": "address"
        }
      ],
      "name": "setEventManagerAddr",
      "outputs": [],
      "stateMutability": "nonpayable",
      "type": "function"
    },
    {
      "inputs": [
        {
          "internalType": "bytes4",
          "name": "interfaceId",
          "type": "bytes4"
        }
      ],
      "name": "supportsInterface",
      "outputs": [
        {
          "internalType": "bool",
          "name": "",
          "type": "bool"
        }
      ],
      "stateMutability": "view",
      "type": "function"
    },
    {
      "inputs": [],
      "name": "symbol",
      "outputs": [
        {
          "internalType": "string",
          "name": "",
          "type": "string"
        }
      ],
      "stateMutability": "view",
      "type": "function"
    },
    {
      "inputs": [
        {
          "internalType": "uint256",
          "name": "index",
          "type": "uint256"
        }
      ],
      "name": "tokenByIndex",
      "outputs": [
        {
          "internalType": "uint256",
          "name": "",
          "type": "uint256"
        }
      ],
      "stateMutability": "view",
      "type": "function"
    },
    {
      "inputs": [
        {
          "internalType": "address",
          "name": "owner",
          "type": "address"
        },
        {
          "internalType": "uint256",
          "name": "index",
          "type": "uint256"
        }
      ],
      "name": "tokenOfOwnerByIndex",
      "outputs": [
        {
          "internalType": "uint256",
          "name": "",
          "type": "uint256"
        }
      ],
      "stateMutability": "view",
      "type": "function"
    },
    {
      "inputs": [
        {
          "internalType": "uint256",
          "name": "_tokenId",
          "type": "uint256"
        }
      ],
      "name": "tokenURI",
      "outputs": [
        {
          "internalType": "string",
          "name": "",
          "type": "string"
        }
      ],
      "stateMutability": "view",
      "type": "function"
    },
    {
      "inputs": [],
      "name": "totalSupply",
      "outputs": [
        {
          "internalType": "uint256",
          "name": "",
          "type": "uint256"
        }
      ],
      "stateMutability": "view",
      "type": "function"
    },
    {
      "inputs": [
        {
          "internalType": "address",
          "name": "from",
          "type": "address"
        },
        {
          "internalType": "address",
          "name": "to",
          "type": "address"
        },
        {
          "internalType": "uint256",
          "name": "tokenId",
          "type": "uint256"
        }
      ],
      "name": "transferFrom",
      "outputs": [],
      "stateMutability": "nonpayable",
      "type": "function"
    },
    {
      "inputs": [
        {
          "internalType": "address",
          "name": "newOwner",
          "type": "address"
        }
      ],
      "name": "transferOwnership",
      "outputs": [],
      "stateMutability": "nonpayable",
      "type": "function"
    }
  ],
  "bytecode": "0x60806040523480156200001157600080fd5b506040518060400160405280600981526020017f4d696e7452616c6c7900000000000000000000000000000000000000000000008152506040518060400160405280600281526020017f4d52000000000000000000000000000000000000000000000000000000000000815250816000908051906020019062000096929190620001a6565b508060019080519060200190620000af929190620001a6565b505050620000d2620000c6620000d860201b60201c565b620000e060201b60201c565b620002bb565b600033905090565b6000600a60009054906101000a900473ffffffffffffffffffffffffffffffffffffffff16905081600a60006101000a81548173ffffffffffffffffffffffffffffffffffffffff021916908373ffffffffffffffffffffffffffffffffffffffff1602179055508173ffffffffffffffffffffffffffffffffffffffff168173ffffffffffffffffffffffffffffffffffffffff167f8be0079c531659141344cd1fd0a4f28419497f9722a3daafe3b4186f6b6457e060405160405180910390a35050565b828054620001b49062000256565b90600052602060002090601f016020900481019282620001d8576000855562000224565b82601f10620001f357805160ff191683800117855562000224565b8280016001018555821562000224579182015b828111156200022357825182559160200191906001019062000206565b5b50905062000233919062000237565b5090565b5b808211156200025257600081600090555060010162000238565b5090565b600060028204905060018216806200026f57607f821691505b602082108114156200028657620002856200028c565b5b50919050565b7f4e487b7100000000000000000000000000000000000000000000000000000000600052602260045260246000fd5b614dcd80620002cb6000396000f3fe608060405234801561001057600080fd5b50600436106101735760003560e01c80636352211e116100de57806395d89b4111610097578063c87b56dd11610071578063c87b56dd14610460578063db95442314610490578063e985e9c5146104c0578063f2fde38b146104f057610173565b806395d89b411461040a578063a22cb46514610428578063b88d4fde1461044457610173565b80636352211e1461033657806370a0823114610366578063715018a61461039657806372746a8d146103a05780638da5cb5b146103d05780639041e3f4146103ee57610173565b806323b872dd1161013057806323b872dd1461024c578063268196af146102685780632f745c591461029c57806342842e0e146102cc5780634c0eb7d9146102e85780634f6ccce71461030657610173565b806301ffc9a71461017857806306fdde03146101a8578063081812fc146101c6578063095ea7b3146101f65780630ee0e9d11461021257806318160ddd1461022e575b600080fd5b610192600480360381019061018d91906138d1565b61050c565b60405161019f919061405e565b60405180910390f35b6101b0610586565b6040516101bd9190614079565b60405180910390f35b6101e060048036038101906101db9190613923565b610618565b6040516101ed9190613fac565b60405180910390f35b610210600480360381019061020b919061386c565b61065e565b005b61022c60048036038101906102279190613975565b610776565b005b6102366109ab565b604051610243919061432c565b60405180910390f35b61026660048036038101906102619190613766565b6109b8565b005b610282600480360381019061027d9190613923565b610a18565b60405161029395949392919061409b565b60405180910390f35b6102b660048036038101906102b1919061386c565b610b5e565b6040516102c3919061432c565b60405180910390f35b6102e660048036038101906102e19190613766565b610c03565b005b6102f0610c23565b6040516102fd919061403c565b60405180910390f35b610320600480360381019061031b9190613923565b610fa3565b60405161032d919061432c565b60405180910390f35b610350600480360381019061034b9190613923565b61103a565b60405161035d9190613fac565b60405180910390f35b610380600480360381019061037b9190613701565b6110ec565b60405161038d919061432c565b60405180910390f35b61039e6111a4565b005b6103ba60048036038101906103b591906139c9565b6111b8565b6040516103c79190614079565b60405180910390f35b6103d861177f565b6040516103e59190613fac565b60405180910390f35b61040860048036038101906104039190613701565b6117a9565b005b6104126117f5565b60405161041f9190614079565b60405180910390f35b610442600480360381019061043d9190613830565b611887565b005b61045e600480360381019061045991906137b5565b61189d565b005b61047a60048036038101906104759190613923565b6118ff565b6040516104879190614079565b60405180910390f35b6104aa60048036038101906104a59190613923565b611ad4565b6040516104b7919061403c565b60405180910390f35b6104da60048036038101906104d5919061372a565b611c88565b6040516104e7919061405e565b60405180910390f35b61050a60048036038101906105059190613701565b611d1c565b005b60007f780e9d63000000000000000000000000000000000000000000000000000000007bffffffffffffffffffffffffffffffffffffffffffffffffffffffff1916827bffffffffffffffffffffffffffffffffffffffffffffffffffffffff1916148061057f575061057e82611da0565b5b9050919050565b60606000805461059590614652565b80601f01602080910402602001604051908101604052809291908181526020018280546105c190614652565b801561060e5780601f106105e35761010080835404028352916020019161060e565b820191906000526020600020905b8154815290600101906020018083116105f157829003601f168201915b5050505050905090565b600061062382611e82565b6004600083815260200190815260200160002060009054906101000a900473ffffffffffffffffffffffffffffffffffffffff169050919050565b60006106698261103a565b90508073ffffffffffffffffffffffffffffffffffffffff168373ffffffffffffffffffffffffffffffffffffffff1614156106da576040517f08c379a00000000000000000000000000000000000000000000000000000000081526004016106d1906142cc565b60405180910390fd5b8073ffffffffffffffffffffffffffffffffffffffff166106f9611ecd565b73ffffffffffffffffffffffffffffffffffffffff161480610728575061072781610722611ecd565b611c88565b5b610767576040517f08c379a000000000000000000000000000000000000000000000000000000000815260040161075e9061422c565b60405180910390fd5b6107718383611ed5565b505050565b60005b81518110156109a657600e60008481526020019081526020016000206040518060a001604052808484815181106107d9577f4e487b7100000000000000000000000000000000000000000000000000000000600052603260045260246000fd5b6020026020010151600001518152602001848481518110610823577f4e487b7100000000000000000000000000000000000000000000000000000000600052603260045260246000fd5b602002602001015160200151815260200184848151811061086d577f4e487b7100000000000000000000000000000000000000000000000000000000600052603260045260246000fd5b60200260200101516040015181526020018484815181106108b7577f4e487b7100000000000000000000000000000000000000000000000000000000600052603260045260246000fd5b6020026020010151606001518152602001848481518110610901577f4e487b7100000000000000000000000000000000000000000000000000000000600052603260045260246000fd5b60200260200101516080015181525090806001815401808255809150506001900390600052602060002090600502016000909190919091506000820151816000019080519060200190610955929190613364565b506020820151816001019080519060200190610972929190613364565b506040820151816002015560608201518160030155608082015181600401555050808061099e906146b5565b915050610779565b505050565b6000600880549050905090565b6109c96109c3611ecd565b82611f8e565b610a08576040517f08c379a00000000000000000000000000000000000000000000000000000000081526004016109ff9061430c565b60405180910390fd5b610a13838383612023565b505050565b600d602052806000526040600020600091509050806000018054610a3b90614652565b80601f0160208091040260200160405190810160405280929190818152602001828054610a6790614652565b8015610ab45780601f10610a8957610100808354040283529160200191610ab4565b820191906000526020600020905b815481529060010190602001808311610a9757829003601f168201915b505050505090806001018054610ac990614652565b80601f0160208091040260200160405190810160405280929190818152602001828054610af590614652565b8015610b425780601f10610b1757610100808354040283529160200191610b42565b820191906000526020600020905b815481529060010190602001808311610b2557829003601f168201915b5050505050908060020154908060030154908060040154905085565b6000610b69836110ec565b8210610baa576040517f08c379a0000000000000000000000000000000000000000000000000000000008152600401610ba19061412c565b60405180910390fd5b600660008473ffffffffffffffffffffffffffffffffffffffff1673ffffffffffffffffffffffffffffffffffffffff168152602001908152602001600020600083815260200190815260200160002054905092915050565b610c1e8383836040518060200160405280600081525061189d565b505050565b60606000610c30336110ec565b905060008167ffffffffffffffff811115610c74577f4e487b7100000000000000000000000000000000000000000000000000000000600052604160045260246000fd5b604051908082528060200260200182016040528015610ca25781602001602082028036833780820191505090505b50905060005b82811015610d1257610cba3382610b5e565b828281518110610cf3577f4e487b7100000000000000000000000000000000000000000000000000000000600052603260045260246000fd5b6020026020010181815250508080610d0a906146b5565b915050610ca8565b5060008267ffffffffffffffff811115610d55577f4e487b7100000000000000000000000000000000000000000000000000000000600052604160045260246000fd5b604051908082528060200260200182016040528015610d8e57816020015b610d7b6133ea565b815260200190600190039081610d735790505b50905060005b83811015610f99576000838281518110610dd7577f4e487b7100000000000000000000000000000000000000000000000000000000600052603260045260246000fd5b60200260200101519050600d60008281526020019081526020016000206040518060a0016040529081600082018054610e0f90614652565b80601f0160208091040260200160405190810160405280929190818152602001828054610e3b90614652565b8015610e885780601f10610e5d57610100808354040283529160200191610e88565b820191906000526020600020905b815481529060010190602001808311610e6b57829003601f168201915b50505050508152602001600182018054610ea190614652565b80601f0160208091040260200160405190810160405280929190818152602001828054610ecd90614652565b8015610f1a5780601f10610eef57610100808354040283529160200191610f1a565b820191906000526020600020905b815481529060010190602001808311610efd57829003601f168201915b505050505081526020016002820154815260200160038201548152602001600482015481525050838381518110610f7a577f4e487b7100000000000000000000000000000000000000000000000000000000600052603260045260246000fd5b6020026020010181905250508080610f91906146b5565b915050610d94565b5080935050505090565b6000610fad6109ab565b8210610fee576040517f08c379a0000000000000000000000000000000000000000000000000000000008152600401610fe5906142ec565b60405180910390fd5b60088281548110611028577f4e487b7100000000000000000000000000000000000000000000000000000000600052603260045260246000fd5b90600052602060002001549050919050565b6000806002600084815260200190815260200160002060009054906101000a900473ffffffffffffffffffffffffffffffffffffffff169050600073ffffffffffffffffffffffffffffffffffffffff168173ffffffffffffffffffffffffffffffffffffffff1614156110e3576040517f08c379a00000000000000000000000000000000000000000000000000000000081526004016110da906142ac565b60405180910390fd5b80915050919050565b60008073ffffffffffffffffffffffffffffffffffffffff168273ffffffffffffffffffffffffffffffffffffffff16141561115d576040517f08c379a00000000000000000000000000000000000000000000000000000000081526004016111549061420c565b60405180910390fd5b600360008373ffffffffffffffffffffffffffffffffffffffff1673ffffffffffffffffffffffffffffffffffffffff168152602001908152602001600020549050919050565b6111ac61228a565b6111b66000612308565b565b60606000600e6000868152602001908152602001600020805480602002602001604051908101604052809291908181526020016000905b8282101561136357838290600052602060002090600502016040518060a001604052908160008201805461122290614652565b80601f016020809104026020016040519081016040528092919081815260200182805461124e90614652565b801561129b5780601f106112705761010080835404028352916020019161129b565b820191906000526020600020905b81548152906001019060200180831161127e57829003601f168201915b505050505081526020016001820180546112b490614652565b80601f01602080910402602001604051908101604052809291908181526020018280546112e090614652565b801561132d5780601f106113025761010080835404028352916020019161132d565b820191906000526020600020905b81548152906001019060200180831161131057829003601f168201915b505050505081526020016002820154815260200160038201548152602001600482015481525050815260200190600101906111ef565b5050505090506000600c60009054906101000a900473ffffffffffffffffffffffffffffffffffffffff1690508073ffffffffffffffffffffffffffffffffffffffff1663e37c24fe85876040518363ffffffff1660e01b81526004016113cb9291906140fc565b602060405180830381600087803b1580156113e557600080fd5b505af11580156113f9573d6000803e3d6000fd5b505050506040513d601f19601f8201168201806040525081019061141d91906138a8565b61145c576040517f08c379a00000000000000000000000000000000000000000000000000000000081526004016114539061428c565b60405180910390fd5b60008173ffffffffffffffffffffffffffffffffffffffff166306fe6dec33896040518363ffffffff1660e01b8152600401611499929190614013565b602060405180830381600087803b1580156114b357600080fd5b505af11580156114c7573d6000803e3d6000fd5b505050506040513d601f19601f820116820180604052508101906114eb919061394c565b905061152c6040518060400160405280600b81526020017f7061727469636970617465000000000000000000000000000000000000000000815250826123ce565b60006115366133ea565b60005b855181101561165257600086828151811061157d577f4e487b7100000000000000000000000000000000000000000000000000000000600052603260045260246000fd5b60200260200101519050898160600181815250506000816080015114156115a2578092505b848160800151141561163e5780600d60006115bd600b61246a565b815260200190815260200160002060008201518160000190805190602001906115e7929190613364565b506020820151816001019080519060200190611604929190613364565b5060408201518160020155606082015181600301556080820151816004015590505061163933611634600b61246a565b612478565b600193505b50808061164a906146b5565b915050611539565b50816116e45780600d6000611667600b61246a565b81526020019081526020016000206000820151816000019080519060200190611691929190613364565b5060208201518160010190805190602001906116ae929190613364565b506040820151816002015560608201518160030155608082015181600401559050506116e3336116de600b61246a565b612478565b5b8373ffffffffffffffffffffffffffffffffffffffff166345e46c69896040518263ffffffff1660e01b815260040161171d919061432c565b600060405180830381600087803b15801561173757600080fd5b505af115801561174b573d6000803e3d6000fd5b50505050600061176361175e600b61246a565b6118ff565b905061176f600b612496565b8096505050505050509392505050565b6000600a60009054906101000a900473ffffffffffffffffffffffffffffffffffffffff16905090565b6117b161228a565b80600c60006101000a81548173ffffffffffffffffffffffffffffffffffffffff021916908373ffffffffffffffffffffffffffffffffffffffff16021790555050565b60606001805461180490614652565b80601f016020809104026020016040519081016040528092919081815260200182805461183090614652565b801561187d5780601f106118525761010080835404028352916020019161187d565b820191906000526020600020905b81548152906001019060200180831161186057829003601f168201915b5050505050905090565b611899611892611ecd565b83836124ac565b5050565b6118ae6118a8611ecd565b83611f8e565b6118ed576040517f08c379a00000000000000000000000000000000000000000000000000000000081526004016118e49061430c565b60405180910390fd5b6118f984848484612619565b50505050565b60606000600d60008481526020019081526020016000206040518060a001604052908160008201805461193190614652565b80601f016020809104026020016040519081016040528092919081815260200182805461195d90614652565b80156119aa5780601f1061197f576101008083540402835291602001916119aa565b820191906000526020600020905b81548152906001019060200180831161198d57829003601f168201915b505050505081526020016001820180546119c390614652565b80601f01602080910402602001604051908101604052809291908181526020018280546119ef90614652565b8015611a3c5780601f10611a1157610100808354040283529160200191611a3c565b820191906000526020600020905b815481529060010190602001808311611a1f57829003601f168201915b50505050508152602001600282015481526020016003820154815260200160048201548152505090506000611aa38260000151611a7886612675565b8460200151604051602001611a8f93929190613f2d565b604051602081830303815290604052612822565b9050600081604051602001611ab89190613f8a565b6040516020818303038152906040529050809350505050919050565b6060600e6000838152602001908152602001600020805480602002602001604051908101604052809291908181526020016000905b82821015611c7d57838290600052602060002090600502016040518060a0016040529081600082018054611b3c90614652565b80601f0160208091040260200160405190810160405280929190818152602001828054611b6890614652565b8015611bb55780601f10611b8a57610100808354040283529160200191611bb5565b820191906000526020600020905b815481529060010190602001808311611b9857829003601f168201915b50505050508152602001600182018054611bce90614652565b80601f0160208091040260200160405190810160405280929190818152602001828054611bfa90614652565b8015611c475780601f10611c1c57610100808354040283529160200191611c47565b820191906000526020600020905b815481529060010190602001808311611c2a57829003601f168201915b50505050508152602001600282015481526020016003820154815260200160048201548152505081526020019060010190611b09565b505050509050919050565b6000600560008473ffffffffffffffffffffffffffffffffffffffff1673ffffffffffffffffffffffffffffffffffffffff16815260200190815260200160002060008373ffffffffffffffffffffffffffffffffffffffff1673ffffffffffffffffffffffffffffffffffffffff16815260200190815260200160002060009054906101000a900460ff16905092915050565b611d2461228a565b600073ffffffffffffffffffffffffffffffffffffffff168173ffffffffffffffffffffffffffffffffffffffff161415611d94576040517f08c379a0000000000000000000000000000000000000000000000000000000008152600401611d8b9061416c565b60405180910390fd5b611d9d81612308565b50565b60007f80ac58cd000000000000000000000000000000000000000000000000000000007bffffffffffffffffffffffffffffffffffffffffffffffffffffffff1916827bffffffffffffffffffffffffffffffffffffffffffffffffffffffff19161480611e6b57507f5b5e139f000000000000000000000000000000000000000000000000000000007bffffffffffffffffffffffffffffffffffffffffffffffffffffffff1916827bffffffffffffffffffffffffffffffffffffffffffffffffffffffff1916145b80611e7b5750611e7a826129e0565b5b9050919050565b611e8b81612a4a565b611eca576040517f08c379a0000000000000000000000000000000000000000000000000000000008152600401611ec1906142ac565b60405180910390fd5b50565b600033905090565b816004600083815260200190815260200160002060006101000a81548173ffffffffffffffffffffffffffffffffffffffff021916908373ffffffffffffffffffffffffffffffffffffffff160217905550808273ffffffffffffffffffffffffffffffffffffffff16611f488361103a565b73ffffffffffffffffffffffffffffffffffffffff167f8c5be1e5ebec7d5bd14f71427d1e84f3dd0314c0f7b2291e5b200ac8c7c3b92560405160405180910390a45050565b600080611f9a8361103a565b90508073ffffffffffffffffffffffffffffffffffffffff168473ffffffffffffffffffffffffffffffffffffffff161480611fdc5750611fdb8185611c88565b5b8061201a57508373ffffffffffffffffffffffffffffffffffffffff1661200284610618565b73ffffffffffffffffffffffffffffffffffffffff16145b91505092915050565b8273ffffffffffffffffffffffffffffffffffffffff166120438261103a565b73ffffffffffffffffffffffffffffffffffffffff1614612099576040517f08c379a00000000000000000000000000000000000000000000000000000000081526004016120909061418c565b60405180910390fd5b600073ffffffffffffffffffffffffffffffffffffffff168273ffffffffffffffffffffffffffffffffffffffff161415612109576040517f08c379a0000000000000000000000000000000000000000000000000000000008152600401612100906141cc565b60405180910390fd5b612114838383612ab6565b61211f600082611ed5565b6001600360008573ffffffffffffffffffffffffffffffffffffffff1673ffffffffffffffffffffffffffffffffffffffff168152602001908152602001600020600082825461216f9190614568565b925050819055506001600360008473ffffffffffffffffffffffffffffffffffffffff1673ffffffffffffffffffffffffffffffffffffffff16815260200190815260200160002060008282546121c69190614487565b92505081905550816002600083815260200190815260200160002060006101000a81548173ffffffffffffffffffffffffffffffffffffffff021916908373ffffffffffffffffffffffffffffffffffffffff160217905550808273ffffffffffffffffffffffffffffffffffffffff168473ffffffffffffffffffffffffffffffffffffffff167fddf252ad1be2c89b69c2b068fc378daa952ba7f163c4a11628f55a4df523b3ef60405160405180910390a4612285838383612bca565b505050565b612292611ecd565b73ffffffffffffffffffffffffffffffffffffffff166122b061177f565b73ffffffffffffffffffffffffffffffffffffffff1614612306576040517f08c379a00000000000000000000000000000000000000000000000000000000081526004016122fd9061426c565b60405180910390fd5b565b6000600a60009054906101000a900473ffffffffffffffffffffffffffffffffffffffff16905081600a60006101000a81548173ffffffffffffffffffffffffffffffffffffffff021916908373ffffffffffffffffffffffffffffffffffffffff1602179055508173ffffffffffffffffffffffffffffffffffffffff168173ffffffffffffffffffffffffffffffffffffffff167f8be0079c531659141344cd1fd0a4f28419497f9722a3daafe3b4186f6b6457e060405160405180910390a35050565b61246682826040516024016123e49291906140fc565b6040516020818303038152906040527f9710a9d0000000000000000000000000000000000000000000000000000000007bffffffffffffffffffffffffffffffffffffffffffffffffffffffff19166020820180517bffffffffffffffffffffffffffffffffffffffffffffffffffffffff8381831617835250505050612bcf565b5050565b600081600001549050919050565b612492828260405180602001604052806000815250612bf8565b5050565b6001816000016000828254019250508190555050565b8173ffffffffffffffffffffffffffffffffffffffff168373ffffffffffffffffffffffffffffffffffffffff16141561251b576040517f08c379a0000000000000000000000000000000000000000000000000000000008152600401612512906141ec565b60405180910390fd5b80600560008573ffffffffffffffffffffffffffffffffffffffff1673ffffffffffffffffffffffffffffffffffffffff16815260200190815260200160002060008473ffffffffffffffffffffffffffffffffffffffff1673ffffffffffffffffffffffffffffffffffffffff16815260200190815260200160002060006101000a81548160ff0219169083151502179055508173ffffffffffffffffffffffffffffffffffffffff168373ffffffffffffffffffffffffffffffffffffffff167f17307eab39ab6107e8899845ad3d59bd9653f200f220920489ca2b5937696c318360405161260c919061405e565b60405180910390a3505050565b612624848484612023565b61263084848484612c53565b61266f576040517f08c379a00000000000000000000000000000000000000000000000000000000081526004016126669061414c565b60405180910390fd5b50505050565b606060008214156126bd576040518060400160405280600181526020017f3000000000000000000000000000000000000000000000000000000000000000815250905061281d565b600082905060005b600082146126ef5780806126d8906146b5565b915050600a826126e891906144dd565b91506126c5565b60008167ffffffffffffffff811115612731577f4e487b7100000000000000000000000000000000000000000000000000000000600052604160045260246000fd5b6040519080825280601f01601f1916602001820160405280156127635781602001600182028036833780820191505090505b5090505b600085146128165760018261277c9190614568565b9150600a8561278b91906146fe565b60306127979190614487565b60f81b8183815181106127d3577f4e487b7100000000000000000000000000000000000000000000000000000000600052603260045260246000fd5b60200101907effffffffffffffffffffffffffffffffffffffffffffffffffffffffffffff1916908160001a905350600a8561280f91906144dd565b9450612767565b8093505050505b919050565b6060600082519050600081141561284b57604051806020016040528060008152509150506129db565b6000600360028361285c9190614487565b61286691906144dd565b6004612872919061450e565b905060006020826128839190614487565b67ffffffffffffffff8111156128c2577f4e487b7100000000000000000000000000000000000000000000000000000000600052604160045260246000fd5b6040519080825280601f01601f1916602001820160405280156128f45781602001600182028036833780820191505090505b5090506000604051806060016040528060408152602001614d58604091399050600181016020830160005b868110156129985760038101905062ffffff818a015116603f8160121c168401518060081b905060ff603f83600c1c1686015116810190508060081b905060ff603f8360061c1686015116810190508060081b905060ff603f831686015116810190508060e01b9050808452600484019350505061291f565b5060038606600181146129b257600281146129c2576129cd565b613d3d60f01b60028303526129cd565b603d60f81b60018303525b508484525050819450505050505b919050565b60007f01ffc9a7000000000000000000000000000000000000000000000000000000007bffffffffffffffffffffffffffffffffffffffffffffffffffffffff1916827bffffffffffffffffffffffffffffffffffffffffffffffffffffffff1916149050919050565b60008073ffffffffffffffffffffffffffffffffffffffff166002600084815260200190815260200160002060009054906101000a900473ffffffffffffffffffffffffffffffffffffffff1673ffffffffffffffffffffffffffffffffffffffff1614159050919050565b612ac1838383612dea565b600073ffffffffffffffffffffffffffffffffffffffff168373ffffffffffffffffffffffffffffffffffffffff161415612b0457612aff81612def565b612b43565b8173ffffffffffffffffffffffffffffffffffffffff168373ffffffffffffffffffffffffffffffffffffffff1614612b4257612b418382612e38565b5b5b600073ffffffffffffffffffffffffffffffffffffffff168273ffffffffffffffffffffffffffffffffffffffff161415612b8657612b8181612fa5565b612bc5565b8273ffffffffffffffffffffffffffffffffffffffff168273ffffffffffffffffffffffffffffffffffffffff1614612bc457612bc382826130e8565b5b5b505050565b505050565b60008151905060006a636f6e736f6c652e6c6f679050602083016000808483855afa5050505050565b612c028383613167565b612c0f6000848484612c53565b612c4e576040517f08c379a0000000000000000000000000000000000000000000000000000000008152600401612c459061414c565b60405180910390fd5b505050565b6000612c748473ffffffffffffffffffffffffffffffffffffffff16613341565b15612ddd578373ffffffffffffffffffffffffffffffffffffffff1663150b7a02612c9d611ecd565b8786866040518563ffffffff1660e01b8152600401612cbf9493929190613fc7565b602060405180830381600087803b158015612cd957600080fd5b505af1925050508015612d0a57506040513d601f19601f82011682018060405250810190612d0791906138fa565b60015b612d8d573d8060008114612d3a576040519150601f19603f3d011682016040523d82523d6000602084013e612d3f565b606091505b50600081511415612d85576040517f08c379a0000000000000000000000000000000000000000000000000000000008152600401612d7c9061414c565b60405180910390fd5b805181602001fd5b63150b7a0260e01b7bffffffffffffffffffffffffffffffffffffffffffffffffffffffff1916817bffffffffffffffffffffffffffffffffffffffffffffffffffffffff191614915050612de2565b600190505b949350505050565b505050565b6008805490506009600083815260200190815260200160002081905550600881908060018154018082558091505060019003906000526020600020016000909190919091505550565b60006001612e45846110ec565b612e4f9190614568565b9050600060076000848152602001908152602001600020549050818114612f34576000600660008673ffffffffffffffffffffffffffffffffffffffff1673ffffffffffffffffffffffffffffffffffffffff168152602001908152602001600020600084815260200190815260200160002054905080600660008773ffffffffffffffffffffffffffffffffffffffff1673ffffffffffffffffffffffffffffffffffffffff168152602001908152602001600020600084815260200190815260200160002081905550816007600083815260200190815260200160002081905550505b6007600084815260200190815260200160002060009055600660008573ffffffffffffffffffffffffffffffffffffffff1673ffffffffffffffffffffffffffffffffffffffff16815260200190815260200160002060008381526020019081526020016000206000905550505050565b60006001600880549050612fb99190614568565b905060006009600084815260200190815260200160002054905060006008838154811061300f577f4e487b7100000000000000000000000000000000000000000000000000000000600052603260045260246000fd5b906000526020600020015490508060088381548110613057577f4e487b7100000000000000000000000000000000000000000000000000000000600052603260045260246000fd5b9060005260206000200181905550816009600083815260200190815260200160002081905550600960008581526020019081526020016000206000905560088054806130cc577f4e487b7100000000000000000000000000000000000000000000000000000000600052603160045260246000fd5b6001900381819060005260206000200160009055905550505050565b60006130f3836110ec565b905081600660008573ffffffffffffffffffffffffffffffffffffffff1673ffffffffffffffffffffffffffffffffffffffff168152602001908152602001600020600083815260200190815260200160002081905550806007600084815260200190815260200160002081905550505050565b600073ffffffffffffffffffffffffffffffffffffffff168273ffffffffffffffffffffffffffffffffffffffff1614156131d7576040517f08c379a00000000000000000000000000000000000000000000000000000000081526004016131ce9061424c565b60405180910390fd5b6131e081612a4a565b15613220576040517f08c379a0000000000000000000000000000000000000000000000000000000008152600401613217906141ac565b60405180910390fd5b61322c60008383612ab6565b6001600360008473ffffffffffffffffffffffffffffffffffffffff1673ffffffffffffffffffffffffffffffffffffffff168152602001908152602001600020600082825461327c9190614487565b92505081905550816002600083815260200190815260200160002060006101000a81548173ffffffffffffffffffffffffffffffffffffffff021916908373ffffffffffffffffffffffffffffffffffffffff160217905550808273ffffffffffffffffffffffffffffffffffffffff16600073ffffffffffffffffffffffffffffffffffffffff167fddf252ad1be2c89b69c2b068fc378daa952ba7f163c4a11628f55a4df523b3ef60405160405180910390a461333d60008383612bca565b5050565b6000808273ffffffffffffffffffffffffffffffffffffffff163b119050919050565b82805461337090614652565b90600052602060002090601f01602090048101928261339257600085556133d9565b82601f106133ab57805160ff19168380011785556133d9565b828001600101855582156133d9579182015b828111156133d85782518255916020019190600101906133bd565b5b5090506133e69190613419565b5090565b6040518060a0016040528060608152602001606081526020016000815260200160008152602001600081525090565b5b8082111561343257600081600090555060010161341a565b5090565b60006134496134448461436c565b614347565b9050808382526020820190508285602086028201111561346857600080fd5b60005b858110156134b257813567ffffffffffffffff81111561348a57600080fd5b808601613497898261361f565b8552602085019450602084019350505060018101905061346b565b5050509392505050565b60006134cf6134ca84614398565b614347565b9050828152602081018484840111156134e757600080fd5b6134f2848285614610565b509392505050565b600061350d613508846143c9565b614347565b90508281526020810184848401111561352557600080fd5b613530848285614610565b509392505050565b60008135905061354781614cfb565b92915050565b600082601f83011261355e57600080fd5b813561356e848260208601613436565b91505092915050565b60008135905061358681614d12565b92915050565b60008151905061359b81614d12565b92915050565b6000813590506135b081614d29565b92915050565b6000815190506135c581614d29565b92915050565b600082601f8301126135dc57600080fd5b81356135ec8482602086016134bc565b91505092915050565b600082601f83011261360657600080fd5b81356136168482602086016134fa565b91505092915050565b600060a0828403121561363157600080fd5b61363b60a0614347565b9050600082013567ffffffffffffffff81111561365757600080fd5b613663848285016135f5565b600083015250602082013567ffffffffffffffff81111561368357600080fd5b61368f848285016135f5565b60208301525060406136a3848285016136d7565b60408301525060606136b7848285016136d7565b60608301525060806136cb848285016136d7565b60808301525092915050565b6000813590506136e681614d40565b92915050565b6000815190506136fb81614d40565b92915050565b60006020828403121561371357600080fd5b600061372184828501613538565b91505092915050565b6000806040838503121561373d57600080fd5b600061374b85828601613538565b925050602061375c85828601613538565b9150509250929050565b60008060006060848603121561377b57600080fd5b600061378986828701613538565b935050602061379a86828701613538565b92505060406137ab868287016136d7565b9150509250925092565b600080600080608085870312156137cb57600080fd5b60006137d987828801613538565b94505060206137ea87828801613538565b93505060406137fb878288016136d7565b925050606085013567ffffffffffffffff81111561381857600080fd5b613824878288016135cb565b91505092959194509250565b6000806040838503121561384357600080fd5b600061385185828601613538565b925050602061386285828601613577565b9150509250929050565b6000806040838503121561387f57600080fd5b600061388d85828601613538565b925050602061389e858286016136d7565b9150509250929050565b6000602082840312156138ba57600080fd5b60006138c88482850161358c565b91505092915050565b6000602082840312156138e357600080fd5b60006138f1848285016135a1565b91505092915050565b60006020828403121561390c57600080fd5b600061391a848285016135b6565b91505092915050565b60006020828403121561393557600080fd5b6000613943848285016136d7565b91505092915050565b60006020828403121561395e57600080fd5b600061396c848285016136ec565b91505092915050565b6000806040838503121561398857600080fd5b6000613996858286016136d7565b925050602083013567ffffffffffffffff8111156139b357600080fd5b6139bf8582860161354d565b9150509250929050565b6000806000606084860312156139de57600080fd5b60006139ec868287016136d7565b93505060206139fd868287016136d7565b925050604084013567ffffffffffffffff811115613a1a57600080fd5b613a26868287016135f5565b9150509250925092565b6000613a3c8383613e92565b905092915050565b613a4d8161459c565b82525050565b6000613a5e8261440a565b613a688185614438565b935083602082028501613a7a856143fa565b8060005b85811015613ab65784840389528151613a978582613a30565b9450613aa28361442b565b925060208a01995050600181019050613a7e565b50829750879550505050505092915050565b613ad1816145ae565b82525050565b6000613ae282614415565b613aec8185614449565b9350613afc81856020860161461f565b613b05816147eb565b840191505092915050565b6000613b1b82614420565b613b25818561445a565b9350613b3581856020860161461f565b613b3e816147eb565b840191505092915050565b6000613b5482614420565b613b5e818561446b565b9350613b6e81856020860161461f565b613b77816147eb565b840191505092915050565b6000613b8d82614420565b613b97818561447c565b9350613ba781856020860161461f565b80840191505092915050565b6000613bc0600b8361447c565b9150613bcb826147fc565b600b82019050919050565b6000613be3602b8361446b565b9150613bee82614825565b604082019050919050565b6000613c0660328361446b565b9150613c1182614874565b604082019050919050565b6000613c2960268361446b565b9150613c34826148c3565b604082019050919050565b6000613c4c60258361446b565b9150613c5782614912565b604082019050919050565b6000613c6f601c8361446b565b9150613c7a82614961565b602082019050919050565b6000613c9260248361446b565b9150613c9d8261498a565b604082019050919050565b6000613cb560198361446b565b9150613cc0826149d9565b602082019050919050565b6000613cd8600a8361447c565b9150613ce382614a02565b600a82019050919050565b6000613cfb60298361446b565b9150613d0682614a2b565b604082019050919050565b6000613d1e603e8361446b565b9150613d2982614a7a565b604082019050919050565b6000613d4160208361446b565b9150613d4c82614ac9565b602082019050919050565b6000613d6460018361447c565b9150613d6f82614af2565b600182019050919050565b6000613d8760208361446b565b9150613d9282614b1b565b602082019050919050565b6000613daa60158361446b565b9150613db582614b44565b602082019050919050565b6000613dcd60188361446b565b9150613dd882614b6d565b602082019050919050565b6000613df060218361446b565b9150613dfb82614b96565b604082019050919050565b6000613e13601d8361447c565b9150613e1e82614be5565b601d82019050919050565b6000613e36602c8361446b565b9150613e4182614c0e565b604082019050919050565b6000613e59602d8361447c565b9150613e6482614c5d565b602d82019050919050565b6000613e7c602e8361446b565b9150613e8782614cac565b604082019050919050565b600060a0830160008301518482036000860152613eaf8282613b10565b91505060208301518482036020860152613ec98282613b10565b9150506040830151613ede6040860182613f0f565b506060830151613ef16060860182613f0f565b506080830151613f046080860182613f0f565b508091505092915050565b613f1881614606565b82525050565b613f2781614606565b82525050565b6000613f3882613ccb565b9150613f448286613b82565b9150613f4f82613bb3565b9150613f5b8285613b82565b9150613f6682613e4c565b9150613f728284613b82565b9150613f7d82613d57565b9150819050949350505050565b6000613f9582613e06565b9150613fa18284613b82565b915081905092915050565b6000602082019050613fc16000830184613a44565b92915050565b6000608082019050613fdc6000830187613a44565b613fe96020830186613a44565b613ff66040830185613f1e565b81810360608301526140088184613ad7565b905095945050505050565b60006040820190506140286000830185613a44565b6140356020830184613f1e565b9392505050565b600060208201905081810360008301526140568184613a53565b905092915050565b60006020820190506140736000830184613ac8565b92915050565b600060208201905081810360008301526140938184613b49565b905092915050565b600060a08201905081810360008301526140b58188613b49565b905081810360208301526140c98187613b49565b90506140d86040830186613f1e565b6140e56060830185613f1e565b6140f26080830184613f1e565b9695505050505050565b600060408201905081810360008301526141168185613b49565b90506141256020830184613f1e565b9392505050565b6000602082019050818103600083015261414581613bd6565b9050919050565b6000602082019050818103600083015261416581613bf9565b9050919050565b6000602082019050818103600083015261418581613c1c565b9050919050565b600060208201905081810360008301526141a581613c3f565b9050919050565b600060208201905081810360008301526141c581613c62565b9050919050565b600060208201905081810360008301526141e581613c85565b9050919050565b6000602082019050818103600083015261420581613ca8565b9050919050565b6000602082019050818103600083015261422581613cee565b9050919050565b6000602082019050818103600083015261424581613d11565b9050919050565b6000602082019050818103600083015261426581613d34565b9050919050565b6000602082019050818103600083015261428581613d7a565b9050919050565b600060208201905081810360008301526142a581613d9d565b9050919050565b600060208201905081810360008301526142c581613dc0565b9050919050565b600060208201905081810360008301526142e581613de3565b9050919050565b6000602082019050818103600083015261430581613e29565b9050919050565b6000602082019050818103600083015261432581613e6f565b9050919050565b60006020820190506143416000830184613f1e565b92915050565b6000614351614362565b905061435d8282614684565b919050565b6000604051905090565b600067ffffffffffffffff821115614387576143866147bc565b5b602082029050602081019050919050565b600067ffffffffffffffff8211156143b3576143b26147bc565b5b6143bc826147eb565b9050602081019050919050565b600067ffffffffffffffff8211156143e4576143e36147bc565b5b6143ed826147eb565b9050602081019050919050565b6000819050602082019050919050565b600081519050919050565b600081519050919050565b600081519050919050565b6000602082019050919050565b600082825260208201905092915050565b600082825260208201905092915050565b600082825260208201905092915050565b600082825260208201905092915050565b600081905092915050565b600061449282614606565b915061449d83614606565b9250827fffffffffffffffffffffffffffffffffffffffffffffffffffffffffffffffff038211156144d2576144d161472f565b5b828201905092915050565b60006144e882614606565b91506144f383614606565b9250826145035761450261475e565b5b828204905092915050565b600061451982614606565b915061452483614606565b9250817fffffffffffffffffffffffffffffffffffffffffffffffffffffffffffffffff048311821515161561455d5761455c61472f565b5b828202905092915050565b600061457382614606565b915061457e83614606565b9250828210156145915761459061472f565b5b828203905092915050565b60006145a7826145e6565b9050919050565b60008115159050919050565b60007fffffffff0000000000000000000000000000000000000000000000000000000082169050919050565b600073ffffffffffffffffffffffffffffffffffffffff82169050919050565b6000819050919050565b82818337600083830152505050565b60005b8381101561463d578082015181840152602081019050614622565b8381111561464c576000848401525b50505050565b6000600282049050600182168061466a57607f821691505b6020821081141561467e5761467d61478d565b5b50919050565b61468d826147eb565b810181811067ffffffffffffffff821117156146ac576146ab6147bc565b5b80604052505050565b60006146c082614606565b91507fffffffffffffffffffffffffffffffffffffffffffffffffffffffffffffffff8214156146f3576146f261472f565b5b600182019050919050565b600061470982614606565b915061471483614606565b9250826147245761472361475e565b5b828206905092915050565b7f4e487b7100000000000000000000000000000000000000000000000000000000600052601160045260246000fd5b7f4e487b7100000000000000000000000000000000000000000000000000000000600052601260045260246000fd5b7f4e487b7100000000000000000000000000000000000000000000000000000000600052602260045260246000fd5b7f4e487b7100000000000000000000000000000000000000000000000000000000600052604160045260246000fd5b6000601f19601f8301169050919050565b7f202d2d204e465420233a20000000000000000000000000000000000000000000600082015250565b7f455243373231456e756d657261626c653a206f776e657220696e646578206f7560008201527f74206f6620626f756e6473000000000000000000000000000000000000000000602082015250565b7f4552433732313a207472616e7366657220746f206e6f6e20455243373231526560008201527f63656976657220696d706c656d656e7465720000000000000000000000000000602082015250565b7f4f776e61626c653a206e6577206f776e657220697320746865207a65726f206160008201527f6464726573730000000000000000000000000000000000000000000000000000602082015250565b7f4552433732313a207472616e736665722066726f6d20696e636f72726563742060008201527f6f776e6572000000000000000000000000000000000000000000000000000000602082015250565b7f4552433732313a20746f6b656e20616c7265616479206d696e74656400000000600082015250565b7f4552433732313a207472616e7366657220746f20746865207a65726f2061646460008201527f7265737300000000000000000000000000000000000000000000000000000000602082015250565b7f4552433732313a20617070726f766520746f2063616c6c657200000000000000600082015250565b7f7b276e616d65273a202700000000000000000000000000000000000000000000600082015250565b7f4552433732313a2061646472657373207a65726f206973206e6f74206120766160008201527f6c6964206f776e65720000000000000000000000000000000000000000000000602082015250565b7f4552433732313a20617070726f76652063616c6c6572206973206e6f7420746f60008201527f6b656e206f776e6572206e6f7220617070726f76656420666f7220616c6c0000602082015250565b7f4552433732313a206d696e7420746f20746865207a65726f2061646472657373600082015250565b7f7d00000000000000000000000000000000000000000000000000000000000000600082015250565b7f4f776e61626c653a2063616c6c6572206973206e6f7420746865206f776e6572600082015250565b7f696e76616c696420736563726574207068726173650000000000000000000000600082015250565b7f4552433732313a20696e76616c696420746f6b656e2049440000000000000000600082015250565b7f4552433732313a20617070726f76616c20746f2063757272656e74206f776e6560008201527f7200000000000000000000000000000000000000000000000000000000000000602082015250565b7f646174613a6170706c69636174696f6e2f6a736f6e3b6261736536342c000000600082015250565b7f455243373231456e756d657261626c653a20676c6f62616c20696e646578206f60008201527f7574206f6620626f756e64730000000000000000000000000000000000000000602082015250565b7f272c20276465736372697074696f6e273a20274d696e7452616c6c79204e465460008201527f272c2027696d616765273a202700000000000000000000000000000000000000602082015250565b7f4552433732313a2063616c6c6572206973206e6f7420746f6b656e206f776e6560008201527f72206e6f7220617070726f766564000000000000000000000000000000000000602082015250565b614d048161459c565b8114614d0f57600080fd5b50565b614d1b816145ae565b8114614d2657600080fd5b50565b614d32816145ba565b8114614d3d57600080fd5b50565b614d4981614606565b8114614d5457600080fd5b5056fe4142434445464748494a4b4c4d4e4f505152535455565758595a6162636465666768696a6b6c6d6e6f707172737475767778797a303132333435363738392b2fa2646970667358221220535b85c8e7280057274586d156137df6c755044950de1fc706df46cfd1b5d14564736f6c63430008040033",
  "linkReferences": {},
  "deployedLinkReferences": {}
}