{
  "_format": "hh-sol-artifact-1",
  "contractName": "MintNFT",
  "sourceName": "contracts/MintNFT.sol",
  "abi": [
    {
      "inputs": [],
      "stateMutability": "nonpayable",
      "type": "constructor"
    },
    {
      "anonymous": false,
      "inputs": [
        {
          "indexed": true,
          "internalType": "address",
          "name": "owner",
          "type": "address"
        },
        {
          "indexed": true,
          "internalType": "address",
          "name": "approved",
          "type": "address"
        },
        {
          "indexed": true,
          "internalType": "uint256",
          "name": "tokenId",
          "type": "uint256"
        }
      ],
      "name": "Approval",
      "type": "event"
    },
    {
      "anonymous": false,
      "inputs": [
        {
          "indexed": true,
          "internalType": "address",
          "name": "owner",
          "type": "address"
        },
        {
          "indexed": true,
          "internalType": "address",
          "name": "operator",
          "type": "address"
        },
        {
          "indexed": false,
          "internalType": "bool",
          "name": "approved",
          "type": "bool"
        }
      ],
      "name": "ApprovalForAll",
      "type": "event"
    },
    {
      "anonymous": false,
      "inputs": [
        {
          "indexed": true,
          "internalType": "address",
          "name": "previousOwner",
          "type": "address"
        },
        {
          "indexed": true,
          "internalType": "address",
          "name": "newOwner",
          "type": "address"
        }
      ],
      "name": "OwnershipTransferred",
      "type": "event"
    },
    {
      "anonymous": false,
      "inputs": [
        {
          "indexed": true,
          "internalType": "address",
          "name": "from",
          "type": "address"
        },
        {
          "indexed": true,
          "internalType": "address",
          "name": "to",
          "type": "address"
        },
        {
          "indexed": true,
          "internalType": "uint256",
          "name": "tokenId",
          "type": "uint256"
        }
      ],
      "name": "Transfer",
      "type": "event"
    },
    {
      "inputs": [
        {
          "internalType": "address",
          "name": "to",
          "type": "address"
        },
        {
          "internalType": "uint256",
          "name": "tokenId",
          "type": "uint256"
        }
      ],
      "name": "approve",
      "outputs": [],
      "stateMutability": "nonpayable",
      "type": "function"
    },
    {
      "inputs": [
        {
          "internalType": "uint256",
          "name": "",
          "type": "uint256"
        }
      ],
      "name": "attributesOfNFT",
      "outputs": [
        {
          "internalType": "string",
          "name": "name",
          "type": "string"
        },
        {
          "internalType": "string",
          "name": "image",
          "type": "string"
        },
        {
          "internalType": "string",
          "name": "description",
          "type": "string"
        },
        {
          "internalType": "uint256",
          "name": "groupId",
          "type": "uint256"
        },
        {
          "internalType": "uint256",
          "name": "eventId",
          "type": "uint256"
        },
        {
          "internalType": "uint256",
          "name": "requiredParticipateCount",
          "type": "uint256"
        }
      ],
      "stateMutability": "view",
      "type": "function"
    },
    {
      "inputs": [
        {
          "internalType": "address",
          "name": "owner",
          "type": "address"
        }
      ],
      "name": "balanceOf",
      "outputs": [
        {
          "internalType": "uint256",
          "name": "",
          "type": "uint256"
        }
      ],
      "stateMutability": "view",
      "type": "function"
    },
    {
      "inputs": [
        {
          "internalType": "uint256",
          "name": "tokenId",
          "type": "uint256"
        }
      ],
      "name": "getApproved",
      "outputs": [
        {
          "internalType": "address",
          "name": "",
          "type": "address"
        }
      ],
      "stateMutability": "view",
      "type": "function"
    },
    {
      "inputs": [
        {
          "internalType": "uint256",
          "name": "_groupId",
          "type": "uint256"
        }
      ],
      "name": "getGroupNFTAttributes",
      "outputs": [
        {
          "components": [
            {
              "internalType": "string",
              "name": "name",
              "type": "string"
            },
            {
              "internalType": "string",
              "name": "image",
              "type": "string"
            },
            {
              "internalType": "string",
              "name": "description",
              "type": "string"
            },
            {
              "internalType": "uint256",
              "name": "groupId",
              "type": "uint256"
            },
            {
              "internalType": "uint256",
              "name": "eventId",
              "type": "uint256"
            },
            {
              "internalType": "uint256",
              "name": "requiredParticipateCount",
              "type": "uint256"
            }
          ],
          "internalType": "struct MintNFT.ParticipateNFTAttributes[]",
          "name": "",
          "type": "tuple[]"
        }
      ],
      "stateMutability": "view",
      "type": "function"
    },
    {
      "inputs": [],
      "name": "getOwnedNFTs",
      "outputs": [
        {
          "components": [
            {
              "internalType": "string",
              "name": "name",
              "type": "string"
            },
            {
              "internalType": "string",
              "name": "image",
              "type": "string"
            },
            {
              "internalType": "string",
              "name": "description",
              "type": "string"
            },
            {
              "internalType": "uint256",
              "name": "groupId",
              "type": "uint256"
            },
            {
              "internalType": "uint256",
              "name": "eventId",
              "type": "uint256"
            },
            {
              "internalType": "uint256",
              "name": "requiredParticipateCount",
              "type": "uint256"
            }
          ],
          "internalType": "struct MintNFT.ParticipateNFTAttributes[]",
          "name": "",
          "type": "tuple[]"
        }
      ],
      "stateMutability": "view",
      "type": "function"
    },
    {
      "inputs": [
        {
          "internalType": "address",
          "name": "owner",
          "type": "address"
        },
        {
          "internalType": "address",
          "name": "operator",
          "type": "address"
        }
      ],
      "name": "isApprovedForAll",
      "outputs": [
        {
          "internalType": "bool",
          "name": "",
          "type": "bool"
        }
      ],
      "stateMutability": "view",
      "type": "function"
    },
    {
      "inputs": [
        {
          "internalType": "uint256",
          "name": "_groupId",
          "type": "uint256"
        },
        {
          "internalType": "uint256",
          "name": "_eventId",
          "type": "uint256"
        },
        {
          "internalType": "string",
          "name": "_secretPhrase",
          "type": "string"
        }
      ],
      "name": "mintParticipateNFT",
      "outputs": [
        {
          "internalType": "string",
          "name": "",
          "type": "string"
        }
      ],
      "stateMutability": "nonpayable",
      "type": "function"
    },
    {
      "inputs": [],
      "name": "name",
      "outputs": [
        {
          "internalType": "string",
          "name": "",
          "type": "string"
        }
      ],
      "stateMutability": "view",
      "type": "function"
    },
    {
      "inputs": [],
      "name": "owner",
      "outputs": [
        {
          "internalType": "address",
          "name": "",
          "type": "address"
        }
      ],
      "stateMutability": "view",
      "type": "function"
    },
    {
      "inputs": [
        {
          "internalType": "uint256",
          "name": "tokenId",
          "type": "uint256"
        }
      ],
      "name": "ownerOf",
      "outputs": [
        {
          "internalType": "address",
          "name": "",
          "type": "address"
        }
      ],
      "stateMutability": "view",
      "type": "function"
    },
    {
      "inputs": [
        {
          "internalType": "uint256",
          "name": "groupId",
          "type": "uint256"
        },
        {
          "components": [
            {
              "internalType": "string",
              "name": "name",
              "type": "string"
            },
            {
              "internalType": "string",
              "name": "image",
              "type": "string"
            },
            {
              "internalType": "string",
              "name": "description",
              "type": "string"
            },
            {
              "internalType": "uint256",
              "name": "groupId",
              "type": "uint256"
            },
            {
              "internalType": "uint256",
              "name": "eventId",
              "type": "uint256"
            },
            {
              "internalType": "uint256",
              "name": "requiredParticipateCount",
              "type": "uint256"
            }
          ],
          "internalType": "struct MintNFT.ParticipateNFTAttributes[]",
          "name": "attributes",
          "type": "tuple[]"
        }
      ],
      "name": "pushGroupNFTAttributes",
      "outputs": [],
      "stateMutability": "nonpayable",
      "type": "function"
    },
    {
      "inputs": [],
      "name": "renounceOwnership",
      "outputs": [],
      "stateMutability": "nonpayable",
      "type": "function"
    },
    {
      "inputs": [
        {
          "internalType": "address",
          "name": "from",
          "type": "address"
        },
        {
          "internalType": "address",
          "name": "to",
          "type": "address"
        },
        {
          "internalType": "uint256",
          "name": "tokenId",
          "type": "uint256"
        }
      ],
      "name": "safeTransferFrom",
      "outputs": [],
      "stateMutability": "nonpayable",
      "type": "function"
    },
    {
      "inputs": [
        {
          "internalType": "address",
          "name": "from",
          "type": "address"
        },
        {
          "internalType": "address",
          "name": "to",
          "type": "address"
        },
        {
          "internalType": "uint256",
          "name": "tokenId",
          "type": "uint256"
        },
        {
          "internalType": "bytes",
          "name": "data",
          "type": "bytes"
        }
      ],
      "name": "safeTransferFrom",
      "outputs": [],
      "stateMutability": "nonpayable",
      "type": "function"
    },
    {
      "inputs": [
        {
          "internalType": "address",
          "name": "operator",
          "type": "address"
        },
        {
          "internalType": "bool",
          "name": "approved",
          "type": "bool"
        }
      ],
      "name": "setApprovalForAll",
      "outputs": [],
      "stateMutability": "nonpayable",
      "type": "function"
    },
    {
      "inputs": [
        {
          "internalType": "address",
          "name": "_eventManagerAddr",
          "type": "address"
        }
      ],
      "name": "setEventManagerAddr",
      "outputs": [],
      "stateMutability": "nonpayable",
      "type": "function"
    },
    {
      "inputs": [
        {
          "internalType": "bytes4",
          "name": "interfaceId",
          "type": "bytes4"
        }
      ],
      "name": "supportsInterface",
      "outputs": [
        {
          "internalType": "bool",
          "name": "",
          "type": "bool"
        }
      ],
      "stateMutability": "view",
      "type": "function"
    },
    {
      "inputs": [],
      "name": "symbol",
      "outputs": [
        {
          "internalType": "string",
          "name": "",
          "type": "string"
        }
      ],
      "stateMutability": "view",
      "type": "function"
    },
    {
      "inputs": [
        {
          "internalType": "uint256",
          "name": "index",
          "type": "uint256"
        }
      ],
      "name": "tokenByIndex",
      "outputs": [
        {
          "internalType": "uint256",
          "name": "",
          "type": "uint256"
        }
      ],
      "stateMutability": "view",
      "type": "function"
    },
    {
      "inputs": [
        {
          "internalType": "address",
          "name": "owner",
          "type": "address"
        },
        {
          "internalType": "uint256",
          "name": "index",
          "type": "uint256"
        }
      ],
      "name": "tokenOfOwnerByIndex",
      "outputs": [
        {
          "internalType": "uint256",
          "name": "",
          "type": "uint256"
        }
      ],
      "stateMutability": "view",
      "type": "function"
    },
    {
      "inputs": [
        {
          "internalType": "uint256",
          "name": "_tokenId",
          "type": "uint256"
        }
      ],
      "name": "tokenURI",
      "outputs": [
        {
          "internalType": "string",
          "name": "",
          "type": "string"
        }
      ],
      "stateMutability": "view",
      "type": "function"
    },
    {
      "inputs": [],
      "name": "totalSupply",
      "outputs": [
        {
          "internalType": "uint256",
          "name": "",
          "type": "uint256"
        }
      ],
      "stateMutability": "view",
      "type": "function"
    },
    {
      "inputs": [
        {
          "internalType": "address",
          "name": "from",
          "type": "address"
        },
        {
          "internalType": "address",
          "name": "to",
          "type": "address"
        },
        {
          "internalType": "uint256",
          "name": "tokenId",
          "type": "uint256"
        }
      ],
      "name": "transferFrom",
      "outputs": [],
      "stateMutability": "nonpayable",
      "type": "function"
    },
    {
      "inputs": [
        {
          "internalType": "address",
          "name": "newOwner",
          "type": "address"
        }
      ],
      "name": "transferOwnership",
      "outputs": [],
      "stateMutability": "nonpayable",
      "type": "function"
    }
  ],
  "bytecode": "0x60806040523480156200001157600080fd5b506040518060400160405280600981526020017f4d696e7452616c6c7900000000000000000000000000000000000000000000008152506040518060400160405280600281526020017f4d52000000000000000000000000000000000000000000000000000000000000815250816000908051906020019062000096929190620001a6565b508060019080519060200190620000af929190620001a6565b505050620000d2620000c6620000d860201b60201c565b620000e060201b60201c565b620002bb565b600033905090565b6000600a60009054906101000a900473ffffffffffffffffffffffffffffffffffffffff16905081600a60006101000a81548173ffffffffffffffffffffffffffffffffffffffff021916908373ffffffffffffffffffffffffffffffffffffffff1602179055508173ffffffffffffffffffffffffffffffffffffffff168173ffffffffffffffffffffffffffffffffffffffff167f8be0079c531659141344cd1fd0a4f28419497f9722a3daafe3b4186f6b6457e060405160405180910390a35050565b828054620001b49062000256565b90600052602060002090601f016020900481019282620001d8576000855562000224565b82601f10620001f357805160ff191683800117855562000224565b8280016001018555821562000224579182015b828111156200022357825182559160200191906001019062000206565b5b50905062000233919062000237565b5090565b5b808211156200025257600081600090555060010162000238565b5090565b600060028204905060018216806200026f57607f821691505b602082108114156200028657620002856200028c565b5b50919050565b7f4e487b7100000000000000000000000000000000000000000000000000000000600052602260045260246000fd5b6153e080620002cb6000396000f3fe608060405234801561001057600080fd5b50600436106101735760003560e01c806370a08231116100de578063a22cb46511610097578063d9bfb10c11610071578063d9bfb10c14610475578063db95442314610491578063e985e9c5146104c1578063f2fde38b146104f157610173565b8063a22cb4651461040d578063b88d4fde14610429578063c87b56dd1461044557610173565b806370a082311461034b578063715018a61461037b57806372746a8d146103855780638da5cb5b146103b55780639041e3f4146103d357806395d89b41146103ef57610173565b8063268196af11610130578063268196af1461024c5780632f745c591461028157806342842e0e146102b15780634c0eb7d9146102cd5780634f6ccce7146102eb5780636352211e1461031b57610173565b806301ffc9a71461017857806306fdde03146101a8578063081812fc146101c6578063095ea7b3146101f657806318160ddd1461021257806323b872dd14610230575b600080fd5b610192600480360381019061018d9190613dfb565b61050d565b60405161019f91906145ef565b60405180910390f35b6101b0610587565b6040516101bd919061460a565b60405180910390f35b6101e060048036038101906101db9190613e8e565b610619565b6040516101ed9190614566565b60405180910390f35b610210600480360381019061020b9190613d96565b61065f565b005b61021a610777565b60405161022791906148f2565b60405180910390f35b61024a60048036038101906102459190613c90565b610784565b005b61026660048036038101906102619190613e8e565b6107e4565b6040516102789695949392919061462c565b60405180910390f35b61029b60048036038101906102969190613d96565b6109b8565b6040516102a891906148f2565b60405180910390f35b6102cb60048036038101906102c69190613c90565b610a5d565b005b6102d5610a7d565b6040516102e291906145cd565b60405180910390f35b61030560048036038101906103009190613e8e565b610a93565b60405161031291906148f2565b60405180910390f35b61033560048036038101906103309190613e8e565b610b2a565b6040516103429190614566565b60405180910390f35b61036560048036038101906103609190613c2b565b610bdc565b60405161037291906148f2565b60405180910390f35b610383610c94565b005b61039f600480360381019061039a9190613f0b565b610ca8565b6040516103ac919061460a565b60405180910390f35b6103bd6113a6565b6040516103ca9190614566565b60405180910390f35b6103ed60048036038101906103e89190613c2b565b6113d0565b005b6103f761141c565b604051610404919061460a565b60405180910390f35b61042760048036038101906104229190613d5a565b6114ae565b005b610443600480360381019061043e9190613cdf565b6114c4565b005b61045f600480360381019061045a9190613e8e565b611526565b60405161046c919061460a565b60405180910390f35b61048f600480360381019061048a9190613eb7565b611793565b005b6104ab60048036038101906104a69190613e8e565b611a2f565b6040516104b891906145cd565b60405180910390f35b6104db60048036038101906104d69190613c54565b611c75565b6040516104e891906145ef565b60405180910390f35b61050b60048036038101906105069190613c2b565b611d09565b005b60007f780e9d63000000000000000000000000000000000000000000000000000000007bffffffffffffffffffffffffffffffffffffffffffffffffffffffff1916827bffffffffffffffffffffffffffffffffffffffffffffffffffffffff19161480610580575061057f82611d8d565b5b9050919050565b60606000805461059690614c22565b80601f01602080910402602001604051908101604052809291908181526020018280546105c290614c22565b801561060f5780601f106105e45761010080835404028352916020019161060f565b820191906000526020600020905b8154815290600101906020018083116105f257829003601f168201915b5050505050905090565b600061062482611e6f565b6004600083815260200190815260200160002060009054906101000a900473ffffffffffffffffffffffffffffffffffffffff169050919050565b600061066a82610b2a565b90508073ffffffffffffffffffffffffffffffffffffffff168373ffffffffffffffffffffffffffffffffffffffff1614156106db576040517f08c379a00000000000000000000000000000000000000000000000000000000081526004016106d290614892565b60405180910390fd5b8073ffffffffffffffffffffffffffffffffffffffff166106fa611eba565b73ffffffffffffffffffffffffffffffffffffffff161480610729575061072881610723611eba565b611c75565b5b610768576040517f08c379a000000000000000000000000000000000000000000000000000000000815260040161075f906147d2565b60405180910390fd5b6107728383611ec2565b505050565b6000600880549050905090565b61079561078f611eba565b82611f7b565b6107d4576040517f08c379a00000000000000000000000000000000000000000000000000000000081526004016107cb906148d2565b60405180910390fd5b6107df838383612010565b505050565b600d60205280600052604060002060009150905080600001805461080790614c22565b80601f016020809104026020016040519081016040528092919081815260200182805461083390614c22565b80156108805780601f1061085557610100808354040283529160200191610880565b820191906000526020600020905b81548152906001019060200180831161086357829003601f168201915b50505050509080600101805461089590614c22565b80601f01602080910402602001604051908101604052809291908181526020018280546108c190614c22565b801561090e5780601f106108e35761010080835404028352916020019161090e565b820191906000526020600020905b8154815290600101906020018083116108f157829003601f168201915b50505050509080600201805461092390614c22565b80601f016020809104026020016040519081016040528092919081815260200182805461094f90614c22565b801561099c5780601f106109715761010080835404028352916020019161099c565b820191906000526020600020905b81548152906001019060200180831161097f57829003601f168201915b5050505050908060030154908060040154908060050154905086565b60006109c383610bdc565b8210610a04576040517f08c379a00000000000000000000000000000000000000000000000000000000081526004016109fb906146d2565b60405180910390fd5b600660008473ffffffffffffffffffffffffffffffffffffffff1673ffffffffffffffffffffffffffffffffffffffff168152602001908152602001600020600083815260200190815260200160002054905092915050565b610a78838383604051806020016040528060008152506114c4565b505050565b60606000610a8a33612277565b90508091505090565b6000610a9d610777565b8210610ade576040517f08c379a0000000000000000000000000000000000000000000000000000000008152600401610ad5906148b2565b60405180910390fd5b60088281548110610b18577f4e487b7100000000000000000000000000000000000000000000000000000000600052603260045260246000fd5b90600052602060002001549050919050565b6000806002600084815260200190815260200160002060009054906101000a900473ffffffffffffffffffffffffffffffffffffffff169050600073ffffffffffffffffffffffffffffffffffffffff168173ffffffffffffffffffffffffffffffffffffffff161415610bd3576040517f08c379a0000000000000000000000000000000000000000000000000000000008152600401610bca90614872565b60405180910390fd5b80915050919050565b60008073ffffffffffffffffffffffffffffffffffffffff168273ffffffffffffffffffffffffffffffffffffffff161415610c4d576040517f08c379a0000000000000000000000000000000000000000000000000000000008152600401610c44906147b2565b60405180910390fd5b600360008373ffffffffffffffffffffffffffffffffffffffff1673ffffffffffffffffffffffffffffffffffffffff168152602001908152602001600020549050919050565b610c9c61268b565b610ca66000612709565b565b60606000600e6000868152602001908152602001600020805480602002602001604051908101604052809291908181526020016000905b82821015610ee557838290600052602060002090600602016040518060c0016040529081600082018054610d1290614c22565b80601f0160208091040260200160405190810160405280929190818152602001828054610d3e90614c22565b8015610d8b5780601f10610d6057610100808354040283529160200191610d8b565b820191906000526020600020905b815481529060010190602001808311610d6e57829003601f168201915b50505050508152602001600182018054610da490614c22565b80601f0160208091040260200160405190810160405280929190818152602001828054610dd090614c22565b8015610e1d5780601f10610df257610100808354040283529160200191610e1d565b820191906000526020600020905b815481529060010190602001808311610e0057829003601f168201915b50505050508152602001600282018054610e3690614c22565b80601f0160208091040260200160405190810160405280929190818152602001828054610e6290614c22565b8015610eaf5780601f10610e8457610100808354040283529160200191610eaf565b820191906000526020600020905b815481529060010190602001808311610e9257829003601f168201915b50505050508152602001600382015481526020016004820154815260200160058201548152505081526020019060010190610cdf565b5050505090506000600c60009054906101000a900473ffffffffffffffffffffffffffffffffffffffff1690508073ffffffffffffffffffffffffffffffffffffffff1663e37c24fe85876040518363ffffffff1660e01b8152600401610f4d9291906146a2565b602060405180830381600087803b158015610f6757600080fd5b505af1158015610f7b573d6000803e3d6000fd5b505050506040513d601f19601f82011682018060405250810190610f9f9190613dd2565b610fde576040517f08c379a0000000000000000000000000000000000000000000000000000000008152600401610fd590614832565b60405180910390fd5b60008173ffffffffffffffffffffffffffffffffffffffff1663b98079bc876040518263ffffffff1660e01b815260040161101991906148f2565b60006040518083038186803b15801561103157600080fd5b505afa158015611045573d6000803e3d6000fd5b505050506040513d6000823e3d601f19601f8201168201806040525081019061106e9190613e4d565b9050600061107b33612277565b90506000600190506000805b83518110156111295760008482815181106110cb577f4e487b7100000000000000000000000000000000000000000000000000000000600052603260045260246000fd5b602002602001015190508b81606001511480156110eb57508a8160800151145b156110fa576000935050611129565b8b8160600151141561111557828061111190614c85565b9350505b50808061112190614c85565b915050611087565b508161116a576040517f08c379a000000000000000000000000000000000000000000000000000000000815260040161116190614852565b60405180910390fd5b60006111746136a0565b60005b88518110156112c45760008982815181106111bb577f4e487b7100000000000000000000000000000000000000000000000000000000600052603260045260246000fd5b602002602001015190508d8160600181815250508c8160800181815250508760400151816000018190525060008160a0015114156111f7578092505b848160a0015114156112b05780600d6000611212600b6127cf565b8152602001908152602001600020600082015181600001908051906020019061123c9291906136d6565b5060208201518160010190805190602001906112599291906136d6565b5060408201518160020190805190602001906112769291906136d6565b50606082015181600301556080820151816004015560a082015181600501559050506112ab336112a6600b6127cf565b6127dd565b600193505b5080806112bc90614c85565b915050611177565b50816113735780600d60006112d9600b6127cf565b815260200190815260200160002060008201518160000190805190602001906113039291906136d6565b5060208201518160010190805190602001906113209291906136d6565b50604082015181600201908051906020019061133d9291906136d6565b50606082015181600301556080820151816004015560a082015181600501559050506113723361136d600b6127cf565b6127dd565b5b6000611387611382600b6127cf565b611526565b9050611393600b6127fb565b8099505050505050505050509392505050565b6000600a60009054906101000a900473ffffffffffffffffffffffffffffffffffffffff16905090565b6113d861268b565b80600c60006101000a81548173ffffffffffffffffffffffffffffffffffffffff021916908373ffffffffffffffffffffffffffffffffffffffff16021790555050565b60606001805461142b90614c22565b80601f016020809104026020016040519081016040528092919081815260200182805461145790614c22565b80156114a45780601f10611479576101008083540402835291602001916114a4565b820191906000526020600020905b81548152906001019060200180831161148757829003601f168201915b5050505050905090565b6114c06114b9611eba565b8383612811565b5050565b6114d56114cf611eba565b83611f7b565b611514576040517f08c379a000000000000000000000000000000000000000000000000000000000815260040161150b906148d2565b60405180910390fd5b6115208484848461297e565b50505050565b60606000600d60008481526020019081526020016000206040518060c001604052908160008201805461155890614c22565b80601f016020809104026020016040519081016040528092919081815260200182805461158490614c22565b80156115d15780601f106115a6576101008083540402835291602001916115d1565b820191906000526020600020905b8154815290600101906020018083116115b457829003601f168201915b505050505081526020016001820180546115ea90614c22565b80601f016020809104026020016040519081016040528092919081815260200182805461161690614c22565b80156116635780601f1061163857610100808354040283529160200191611663565b820191906000526020600020905b81548152906001019060200180831161164657829003601f168201915b5050505050815260200160028201805461167c90614c22565b80601f01602080910402602001604051908101604052809291908181526020018280546116a890614c22565b80156116f55780601f106116ca576101008083540402835291602001916116f5565b820191906000526020600020905b8154815290600101906020018083116116d857829003601f168201915b5050505050815260200160038201548152602001600482015481526020016005820154815250509050600061176282600001518360400151846020015161173b886129da565b60405160200161174e94939291906144cf565b604051602081830303815290604052612b87565b90506000816040516020016117779190614544565b6040516020818303038152906040529050809350505050919050565b60005b8151811015611a2a57600e60008481526020019081526020016000206040518060c001604052808484815181106117f6577f4e487b7100000000000000000000000000000000000000000000000000000000600052603260045260246000fd5b6020026020010151600001518152602001848481518110611840577f4e487b7100000000000000000000000000000000000000000000000000000000600052603260045260246000fd5b602002602001015160200151815260200184848151811061188a577f4e487b7100000000000000000000000000000000000000000000000000000000600052603260045260246000fd5b60200260200101516040015181526020018484815181106118d4577f4e487b7100000000000000000000000000000000000000000000000000000000600052603260045260246000fd5b602002602001015160600151815260200184848151811061191e577f4e487b7100000000000000000000000000000000000000000000000000000000600052603260045260246000fd5b6020026020010151608001518152602001848481518110611968577f4e487b7100000000000000000000000000000000000000000000000000000000600052603260045260246000fd5b602002602001015160a00151815250908060018154018082558091505060019003906000526020600020906006020160009091909190915060008201518160000190805190602001906119bc9291906136d6565b5060208201518160010190805190602001906119d99291906136d6565b5060408201518160020190805190602001906119f69291906136d6565b50606082015181600301556080820151816004015560a0820151816005015550508080611a2290614c85565b915050611796565b505050565b6060600e6000838152602001908152602001600020805480602002602001604051908101604052809291908181526020016000905b82821015611c6a57838290600052602060002090600602016040518060c0016040529081600082018054611a9790614c22565b80601f0160208091040260200160405190810160405280929190818152602001828054611ac390614c22565b8015611b105780601f10611ae557610100808354040283529160200191611b10565b820191906000526020600020905b815481529060010190602001808311611af357829003601f168201915b50505050508152602001600182018054611b2990614c22565b80601f0160208091040260200160405190810160405280929190818152602001828054611b5590614c22565b8015611ba25780601f10611b7757610100808354040283529160200191611ba2565b820191906000526020600020905b815481529060010190602001808311611b8557829003601f168201915b50505050508152602001600282018054611bbb90614c22565b80601f0160208091040260200160405190810160405280929190818152602001828054611be790614c22565b8015611c345780601f10611c0957610100808354040283529160200191611c34565b820191906000526020600020905b815481529060010190602001808311611c1757829003601f168201915b50505050508152602001600382015481526020016004820154815260200160058201548152505081526020019060010190611a64565b505050509050919050565b6000600560008473ffffffffffffffffffffffffffffffffffffffff1673ffffffffffffffffffffffffffffffffffffffff16815260200190815260200160002060008373ffffffffffffffffffffffffffffffffffffffff1673ffffffffffffffffffffffffffffffffffffffff16815260200190815260200160002060009054906101000a900460ff16905092915050565b611d1161268b565b600073ffffffffffffffffffffffffffffffffffffffff168173ffffffffffffffffffffffffffffffffffffffff161415611d81576040517f08c379a0000000000000000000000000000000000000000000000000000000008152600401611d7890614712565b60405180910390fd5b611d8a81612709565b50565b60007f80ac58cd000000000000000000000000000000000000000000000000000000007bffffffffffffffffffffffffffffffffffffffffffffffffffffffff1916827bffffffffffffffffffffffffffffffffffffffffffffffffffffffff19161480611e5857507f5b5e139f000000000000000000000000000000000000000000000000000000007bffffffffffffffffffffffffffffffffffffffffffffffffffffffff1916827bffffffffffffffffffffffffffffffffffffffffffffffffffffffff1916145b80611e685750611e6782612d45565b5b9050919050565b611e7881612daf565b611eb7576040517f08c379a0000000000000000000000000000000000000000000000000000000008152600401611eae90614872565b60405180910390fd5b50565b600033905090565b816004600083815260200190815260200160002060006101000a81548173ffffffffffffffffffffffffffffffffffffffff021916908373ffffffffffffffffffffffffffffffffffffffff160217905550808273ffffffffffffffffffffffffffffffffffffffff16611f3583610b2a565b73ffffffffffffffffffffffffffffffffffffffff167f8c5be1e5ebec7d5bd14f71427d1e84f3dd0314c0f7b2291e5b200ac8c7c3b92560405160405180910390a45050565b600080611f8783610b2a565b90508073ffffffffffffffffffffffffffffffffffffffff168473ffffffffffffffffffffffffffffffffffffffff161480611fc95750611fc88185611c75565b5b8061200757508373ffffffffffffffffffffffffffffffffffffffff16611fef84610619565b73ffffffffffffffffffffffffffffffffffffffff16145b91505092915050565b8273ffffffffffffffffffffffffffffffffffffffff1661203082610b2a565b73ffffffffffffffffffffffffffffffffffffffff1614612086576040517f08c379a000000000000000000000000000000000000000000000000000000000815260040161207d90614732565b60405180910390fd5b600073ffffffffffffffffffffffffffffffffffffffff168273ffffffffffffffffffffffffffffffffffffffff1614156120f6576040517f08c379a00000000000000000000000000000000000000000000000000000000081526004016120ed90614772565b60405180910390fd5b612101838383612e1b565b61210c600082611ec2565b6001600360008573ffffffffffffffffffffffffffffffffffffffff1673ffffffffffffffffffffffffffffffffffffffff168152602001908152602001600020600082825461215c9190614b2e565b925050819055506001600360008473ffffffffffffffffffffffffffffffffffffffff1673ffffffffffffffffffffffffffffffffffffffff16815260200190815260200160002060008282546121b39190614a4d565b92505081905550816002600083815260200190815260200160002060006101000a81548173ffffffffffffffffffffffffffffffffffffffff021916908373ffffffffffffffffffffffffffffffffffffffff160217905550808273ffffffffffffffffffffffffffffffffffffffff168473ffffffffffffffffffffffffffffffffffffffff167fddf252ad1be2c89b69c2b068fc378daa952ba7f163c4a11628f55a4df523b3ef60405160405180910390a4612272838383612f2f565b505050565b6060600061228483610bdc565b905060008167ffffffffffffffff8111156122c8577f4e487b7100000000000000000000000000000000000000000000000000000000600052604160045260246000fd5b6040519080825280602002602001820160405280156122f65781602001602082028036833780820191505090505b50905060005b828110156123665761230e85826109b8565b828281518110612347577f4e487b7100000000000000000000000000000000000000000000000000000000600052603260045260246000fd5b602002602001018181525050808061235e90614c85565b9150506122fc565b5060008267ffffffffffffffff8111156123a9577f4e487b7100000000000000000000000000000000000000000000000000000000600052604160045260246000fd5b6040519080825280602002602001820160405280156123e257816020015b6123cf6136a0565b8152602001906001900390816123c75790505b50905060005b8381101561267f57600083828151811061242b577f4e487b7100000000000000000000000000000000000000000000000000000000600052603260045260246000fd5b60200260200101519050600d60008281526020019081526020016000206040518060c001604052908160008201805461246390614c22565b80601f016020809104026020016040519081016040528092919081815260200182805461248f90614c22565b80156124dc5780601f106124b1576101008083540402835291602001916124dc565b820191906000526020600020905b8154815290600101906020018083116124bf57829003601f168201915b505050505081526020016001820180546124f590614c22565b80601f016020809104026020016040519081016040528092919081815260200182805461252190614c22565b801561256e5780601f106125435761010080835404028352916020019161256e565b820191906000526020600020905b81548152906001019060200180831161255157829003601f168201915b5050505050815260200160028201805461258790614c22565b80601f01602080910402602001604051908101604052809291908181526020018280546125b390614c22565b80156126005780601f106125d557610100808354040283529160200191612600565b820191906000526020600020905b8154815290600101906020018083116125e357829003601f168201915b505050505081526020016003820154815260200160048201548152602001600582015481525050838381518110612660577f4e487b7100000000000000000000000000000000000000000000000000000000600052603260045260246000fd5b602002602001018190525050808061267790614c85565b9150506123e8565b50809350505050919050565b612693611eba565b73ffffffffffffffffffffffffffffffffffffffff166126b16113a6565b73ffffffffffffffffffffffffffffffffffffffff1614612707576040517f08c379a00000000000000000000000000000000000000000000000000000000081526004016126fe90614812565b60405180910390fd5b565b6000600a60009054906101000a900473ffffffffffffffffffffffffffffffffffffffff16905081600a60006101000a81548173ffffffffffffffffffffffffffffffffffffffff021916908373ffffffffffffffffffffffffffffffffffffffff1602179055508173ffffffffffffffffffffffffffffffffffffffff168173ffffffffffffffffffffffffffffffffffffffff167f8be0079c531659141344cd1fd0a4f28419497f9722a3daafe3b4186f6b6457e060405160405180910390a35050565b600081600001549050919050565b6127f7828260405180602001604052806000815250612f34565b5050565b6001816000016000828254019250508190555050565b8173ffffffffffffffffffffffffffffffffffffffff168373ffffffffffffffffffffffffffffffffffffffff161415612880576040517f08c379a000000000000000000000000000000000000000000000000000000000815260040161287790614792565b60405180910390fd5b80600560008573ffffffffffffffffffffffffffffffffffffffff1673ffffffffffffffffffffffffffffffffffffffff16815260200190815260200160002060008473ffffffffffffffffffffffffffffffffffffffff1673ffffffffffffffffffffffffffffffffffffffff16815260200190815260200160002060006101000a81548160ff0219169083151502179055508173ffffffffffffffffffffffffffffffffffffffff168373ffffffffffffffffffffffffffffffffffffffff167f17307eab39ab6107e8899845ad3d59bd9653f200f220920489ca2b5937696c318360405161297191906145ef565b60405180910390a3505050565b612989848484612010565b61299584848484612f8f565b6129d4576040517f08c379a00000000000000000000000000000000000000000000000000000000081526004016129cb906146f2565b60405180910390fd5b50505050565b60606000821415612a22576040518060400160405280600181526020017f30000000000000000000000000000000000000000000000000000000000000008152509050612b82565b600082905060005b60008214612a54578080612a3d90614c85565b915050600a82612a4d9190614aa3565b9150612a2a565b60008167ffffffffffffffff811115612a96577f4e487b7100000000000000000000000000000000000000000000000000000000600052604160045260246000fd5b6040519080825280601f01601f191660200182016040528015612ac85781602001600182028036833780820191505090505b5090505b60008514612b7b57600182612ae19190614b2e565b9150600a85612af09190614cce565b6030612afc9190614a4d565b60f81b818381518110612b38577f4e487b7100000000000000000000000000000000000000000000000000000000600052603260045260246000fd5b60200101907effffffffffffffffffffffffffffffffffffffffffffffffffffffffffffff1916908160001a905350600a85612b749190614aa3565b9450612acc565b8093505050505b919050565b60606000825190506000811415612bb05760405180602001604052806000815250915050612d40565b60006003600283612bc19190614a4d565b612bcb9190614aa3565b6004612bd79190614ad4565b90506000602082612be89190614a4d565b67ffffffffffffffff811115612c27577f4e487b7100000000000000000000000000000000000000000000000000000000600052604160045260246000fd5b6040519080825280601f01601f191660200182016040528015612c595781602001600182028036833780820191505090505b509050600060405180606001604052806040815260200161536b604091399050600181016020830160005b86811015612cfd5760038101905062ffffff818a015116603f8160121c168401518060081b905060ff603f83600c1c1686015116810190508060081b905060ff603f8360061c1686015116810190508060081b905060ff603f831686015116810190508060e01b90508084526004840193505050612c84565b506003860660018114612d175760028114612d2757612d32565b613d3d60f01b6002830352612d32565b603d60f81b60018303525b508484525050819450505050505b919050565b60007f01ffc9a7000000000000000000000000000000000000000000000000000000007bffffffffffffffffffffffffffffffffffffffffffffffffffffffff1916827bffffffffffffffffffffffffffffffffffffffffffffffffffffffff1916149050919050565b60008073ffffffffffffffffffffffffffffffffffffffff166002600084815260200190815260200160002060009054906101000a900473ffffffffffffffffffffffffffffffffffffffff1673ffffffffffffffffffffffffffffffffffffffff1614159050919050565b612e26838383613126565b600073ffffffffffffffffffffffffffffffffffffffff168373ffffffffffffffffffffffffffffffffffffffff161415612e6957612e648161312b565b612ea8565b8173ffffffffffffffffffffffffffffffffffffffff168373ffffffffffffffffffffffffffffffffffffffff1614612ea757612ea68382613174565b5b5b600073ffffffffffffffffffffffffffffffffffffffff168273ffffffffffffffffffffffffffffffffffffffff161415612eeb57612ee6816132e1565b612f2a565b8273ffffffffffffffffffffffffffffffffffffffff168273ffffffffffffffffffffffffffffffffffffffff1614612f2957612f288282613424565b5b5b505050565b505050565b612f3e83836134a3565b612f4b6000848484612f8f565b612f8a576040517f08c379a0000000000000000000000000000000000000000000000000000000008152600401612f81906146f2565b60405180910390fd5b505050565b6000612fb08473ffffffffffffffffffffffffffffffffffffffff1661367d565b15613119578373ffffffffffffffffffffffffffffffffffffffff1663150b7a02612fd9611eba565b8786866040518563ffffffff1660e01b8152600401612ffb9493929190614581565b602060405180830381600087803b15801561301557600080fd5b505af192505050801561304657506040513d601f19601f820116820180604052508101906130439190613e24565b60015b6130c9573d8060008114613076576040519150601f19603f3d011682016040523d82523d6000602084013e61307b565b606091505b506000815114156130c1576040517f08c379a00000000000000000000000000000000000000000000000000000000081526004016130b8906146f2565b60405180910390fd5b805181602001fd5b63150b7a0260e01b7bffffffffffffffffffffffffffffffffffffffffffffffffffffffff1916817bffffffffffffffffffffffffffffffffffffffffffffffffffffffff19161491505061311e565b600190505b949350505050565b505050565b6008805490506009600083815260200190815260200160002081905550600881908060018154018082558091505060019003906000526020600020016000909190919091505550565b6000600161318184610bdc565b61318b9190614b2e565b9050600060076000848152602001908152602001600020549050818114613270576000600660008673ffffffffffffffffffffffffffffffffffffffff1673ffffffffffffffffffffffffffffffffffffffff168152602001908152602001600020600084815260200190815260200160002054905080600660008773ffffffffffffffffffffffffffffffffffffffff1673ffffffffffffffffffffffffffffffffffffffff168152602001908152602001600020600084815260200190815260200160002081905550816007600083815260200190815260200160002081905550505b6007600084815260200190815260200160002060009055600660008573ffffffffffffffffffffffffffffffffffffffff1673ffffffffffffffffffffffffffffffffffffffff16815260200190815260200160002060008381526020019081526020016000206000905550505050565b600060016008805490506132f59190614b2e565b905060006009600084815260200190815260200160002054905060006008838154811061334b577f4e487b7100000000000000000000000000000000000000000000000000000000600052603260045260246000fd5b906000526020600020015490508060088381548110613393577f4e487b7100000000000000000000000000000000000000000000000000000000600052603260045260246000fd5b906000526020600020018190555081600960008381526020019081526020016000208190555060096000858152602001908152602001600020600090556008805480613408577f4e487b7100000000000000000000000000000000000000000000000000000000600052603160045260246000fd5b6001900381819060005260206000200160009055905550505050565b600061342f83610bdc565b905081600660008573ffffffffffffffffffffffffffffffffffffffff1673ffffffffffffffffffffffffffffffffffffffff168152602001908152602001600020600083815260200190815260200160002081905550806007600084815260200190815260200160002081905550505050565b600073ffffffffffffffffffffffffffffffffffffffff168273ffffffffffffffffffffffffffffffffffffffff161415613513576040517f08c379a000000000000000000000000000000000000000000000000000000000815260040161350a906147f2565b60405180910390fd5b61351c81612daf565b1561355c576040517f08c379a000000000000000000000000000000000000000000000000000000000815260040161355390614752565b60405180910390fd5b61356860008383612e1b565b6001600360008473ffffffffffffffffffffffffffffffffffffffff1673ffffffffffffffffffffffffffffffffffffffff16815260200190815260200160002060008282546135b89190614a4d565b92505081905550816002600083815260200190815260200160002060006101000a81548173ffffffffffffffffffffffffffffffffffffffff021916908373ffffffffffffffffffffffffffffffffffffffff160217905550808273ffffffffffffffffffffffffffffffffffffffff16600073ffffffffffffffffffffffffffffffffffffffff167fddf252ad1be2c89b69c2b068fc378daa952ba7f163c4a11628f55a4df523b3ef60405160405180910390a461367960008383612f2f565b5050565b6000808273ffffffffffffffffffffffffffffffffffffffff163b119050919050565b6040518060c001604052806060815260200160608152602001606081526020016000815260200160008152602001600081525090565b8280546136e290614c22565b90600052602060002090601f016020900481019282613704576000855561374b565b82601f1061371d57805160ff191683800117855561374b565b8280016001018555821561374b579182015b8281111561374a57825182559160200191906001019061372f565b5b509050613758919061375c565b5090565b5b8082111561377557600081600090555060010161375d565b5090565b600061378c61378784614932565b61490d565b905080838252602082019050828560208602820111156137ab57600080fd5b60005b858110156137f557813567ffffffffffffffff8111156137cd57600080fd5b8086016137da8982613b1d565b855260208501945060208401935050506001810190506137ae565b5050509392505050565b600061381261380d8461495e565b61490d565b90508281526020810184848401111561382a57600080fd5b613835848285614be0565b509392505050565b600061385061384b8461498f565b61490d565b90508281526020810184848401111561386857600080fd5b613873848285614be0565b509392505050565b600061388e6138898461498f565b61490d565b9050828152602081018484840111156138a657600080fd5b6138b1848285614bef565b509392505050565b6000813590506138c8816152f7565b92915050565b600082601f8301126138df57600080fd5b81356138ef848260208601613779565b91505092915050565b6000813590506139078161530e565b92915050565b60008151905061391c8161530e565b92915050565b60008151905061393181615325565b92915050565b6000813590506139468161533c565b92915050565b60008151905061395b8161533c565b92915050565b600082601f83011261397257600080fd5b81356139828482602086016137ff565b91505092915050565b600082601f83011261399c57600080fd5b81356139ac84826020860161383d565b91505092915050565b600082601f8301126139c657600080fd5b81516139d684826020860161387b565b91505092915050565b600061010082840312156139f257600080fd5b6139fd61010061490d565b90506000613a0d84828501613c16565b6000830152506020613a2184828501613c16565b602083015250604082015167ffffffffffffffff811115613a4157600080fd5b613a4d848285016139b5565b604083015250606082015167ffffffffffffffff811115613a6d57600080fd5b613a79848285016139b5565b606083015250608082015167ffffffffffffffff811115613a9957600080fd5b613aa5848285016139b5565b60808301525060a082015167ffffffffffffffff811115613ac557600080fd5b613ad1848285016139b5565b60a08301525060c082015167ffffffffffffffff811115613af157600080fd5b613afd848285016139b5565b60c08301525060e0613b1184828501613922565b60e08301525092915050565b600060c08284031215613b2f57600080fd5b613b3960c061490d565b9050600082013567ffffffffffffffff811115613b5557600080fd5b613b618482850161398b565b600083015250602082013567ffffffffffffffff811115613b8157600080fd5b613b8d8482850161398b565b602083015250604082013567ffffffffffffffff811115613bad57600080fd5b613bb98482850161398b565b6040830152506060613bcd84828501613c01565b6060830152506080613be184828501613c01565b60808301525060a0613bf584828501613c01565b60a08301525092915050565b600081359050613c1081615353565b92915050565b600081519050613c2581615353565b92915050565b600060208284031215613c3d57600080fd5b6000613c4b848285016138b9565b91505092915050565b60008060408385031215613c6757600080fd5b6000613c75858286016138b9565b9250506020613c86858286016138b9565b9150509250929050565b600080600060608486031215613ca557600080fd5b6000613cb3868287016138b9565b9350506020613cc4868287016138b9565b9250506040613cd586828701613c01565b9150509250925092565b60008060008060808587031215613cf557600080fd5b6000613d03878288016138b9565b9450506020613d14878288016138b9565b9350506040613d2587828801613c01565b925050606085013567ffffffffffffffff811115613d4257600080fd5b613d4e87828801613961565b91505092959194509250565b60008060408385031215613d6d57600080fd5b6000613d7b858286016138b9565b9250506020613d8c858286016138f8565b9150509250929050565b60008060408385031215613da957600080fd5b6000613db7858286016138b9565b9250506020613dc885828601613c01565b9150509250929050565b600060208284031215613de457600080fd5b6000613df28482850161390d565b91505092915050565b600060208284031215613e0d57600080fd5b6000613e1b84828501613937565b91505092915050565b600060208284031215613e3657600080fd5b6000613e448482850161394c565b91505092915050565b600060208284031215613e5f57600080fd5b600082015167ffffffffffffffff811115613e7957600080fd5b613e85848285016139df565b91505092915050565b600060208284031215613ea057600080fd5b6000613eae84828501613c01565b91505092915050565b60008060408385031215613eca57600080fd5b6000613ed885828601613c01565b925050602083013567ffffffffffffffff811115613ef557600080fd5b613f01858286016138ce565b9150509250929050565b600080600060608486031215613f2057600080fd5b6000613f2e86828701613c01565b9350506020613f3f86828701613c01565b925050604084013567ffffffffffffffff811115613f5c57600080fd5b613f688682870161398b565b9150509250925092565b6000613f7e838361441a565b905092915050565b613f8f81614b62565b82525050565b6000613fa0826149d0565b613faa81856149fe565b935083602082028501613fbc856149c0565b8060005b85811015613ff85784840389528151613fd98582613f72565b9450613fe4836149f1565b925060208a01995050600181019050613fc0565b50829750879550505050505092915050565b61401381614b74565b82525050565b6000614024826149db565b61402e8185614a0f565b935061403e818560208601614bef565b61404781614dbb565b840191505092915050565b600061405d826149e6565b6140678185614a20565b9350614077818560208601614bef565b61408081614dbb565b840191505092915050565b6000614096826149e6565b6140a08185614a31565b93506140b0818560208601614bef565b6140b981614dbb565b840191505092915050565b60006140cf826149e6565b6140d98185614a42565b93506140e9818560208601614bef565b80840191505092915050565b6000614102601383614a42565b915061410d82614dcc565b601382019050919050565b6000614125602b83614a31565b915061413082614df5565b604082019050919050565b6000614148603283614a31565b915061415382614e44565b604082019050919050565b600061416b602683614a31565b915061417682614e93565b604082019050919050565b600061418e602583614a31565b915061419982614ee2565b604082019050919050565b60006141b1601c83614a31565b91506141bc82614f31565b602082019050919050565b60006141d4602483614a31565b91506141df82614f5a565b604082019050919050565b60006141f7601983614a31565b915061420282614fa9565b602082019050919050565b600061421a602983614a31565b915061422582614fd2565b604082019050919050565b600061423d600983614a42565b915061424882615021565b600982019050919050565b6000614260603e83614a31565b915061426b8261504a565b604082019050919050565b6000614283602083614a31565b915061428e82615099565b602082019050919050565b60006142a6600d83614a42565b91506142b1826150c2565b600d82019050919050565b60006142c9600183614a42565b91506142d4826150eb565b600182019050919050565b60006142ec602083614a31565b91506142f782615114565b602082019050919050565b600061430f601583614a31565b915061431a8261513d565b602082019050919050565b6000614332601b83614a31565b915061433d82615166565b602082019050919050565b6000614355600a83614a42565b91506143608261518f565b600a82019050919050565b6000614378601883614a31565b9150614383826151b8565b602082019050919050565b600061439b602183614a31565b91506143a6826151e1565b604082019050919050565b60006143be601d83614a42565b91506143c982615230565b601d82019050919050565b60006143e1602c83614a31565b91506143ec82615259565b604082019050919050565b6000614404602e83614a31565b915061440f826152a8565b604082019050919050565b600060c08301600083015184820360008601526144378282614052565b915050602083015184820360208601526144518282614052565b9150506040830151848203604086015261446b8282614052565b915050606083015161448060608601826144b1565b50608083015161449360808601826144b1565b5060a08301516144a660a08601826144b1565b508091505092915050565b6144ba81614bd6565b82525050565b6144c981614bd6565b82525050565b60006144da82614348565b91506144e682876140c4565b91506144f1826140f5565b91506144fd82866140c4565b915061450882614299565b915061451482856140c4565b915061451f82614230565b915061452b82846140c4565b9150614536826142bc565b915081905095945050505050565b600061454f826143b1565b915061455b82846140c4565b915081905092915050565b600060208201905061457b6000830184613f86565b92915050565b60006080820190506145966000830187613f86565b6145a36020830186613f86565b6145b060408301856144c0565b81810360608301526145c28184614019565b905095945050505050565b600060208201905081810360008301526145e78184613f95565b905092915050565b6000602082019050614604600083018461400a565b92915050565b60006020820190508181036000830152614624818461408b565b905092915050565b600060c0820190508181036000830152614646818961408b565b9050818103602083015261465a818861408b565b9050818103604083015261466e818761408b565b905061467d60608301866144c0565b61468a60808301856144c0565b61469760a08301846144c0565b979650505050505050565b600060408201905081810360008301526146bc818561408b565b90506146cb60208301846144c0565b9392505050565b600060208201905081810360008301526146eb81614118565b9050919050565b6000602082019050818103600083015261470b8161413b565b9050919050565b6000602082019050818103600083015261472b8161415e565b9050919050565b6000602082019050818103600083015261474b81614181565b9050919050565b6000602082019050818103600083015261476b816141a4565b9050919050565b6000602082019050818103600083015261478b816141c7565b9050919050565b600060208201905081810360008301526147ab816141ea565b9050919050565b600060208201905081810360008301526147cb8161420d565b9050919050565b600060208201905081810360008301526147eb81614253565b9050919050565b6000602082019050818103600083015261480b81614276565b9050919050565b6000602082019050818103600083015261482b816142df565b9050919050565b6000602082019050818103600083015261484b81614302565b9050919050565b6000602082019050818103600083015261486b81614325565b9050919050565b6000602082019050818103600083015261488b8161436b565b9050919050565b600060208201905081810360008301526148ab8161438e565b9050919050565b600060208201905081810360008301526148cb816143d4565b9050919050565b600060208201905081810360008301526148eb816143f7565b9050919050565b600060208201905061490760008301846144c0565b92915050565b6000614917614928565b90506149238282614c54565b919050565b6000604051905090565b600067ffffffffffffffff82111561494d5761494c614d8c565b5b602082029050602081019050919050565b600067ffffffffffffffff82111561497957614978614d8c565b5b61498282614dbb565b9050602081019050919050565b600067ffffffffffffffff8211156149aa576149a9614d8c565b5b6149b382614dbb565b9050602081019050919050565b6000819050602082019050919050565b600081519050919050565b600081519050919050565b600081519050919050565b6000602082019050919050565b600082825260208201905092915050565b600082825260208201905092915050565b600082825260208201905092915050565b600082825260208201905092915050565b600081905092915050565b6000614a5882614bd6565b9150614a6383614bd6565b9250827fffffffffffffffffffffffffffffffffffffffffffffffffffffffffffffffff03821115614a9857614a97614cff565b5b828201905092915050565b6000614aae82614bd6565b9150614ab983614bd6565b925082614ac957614ac8614d2e565b5b828204905092915050565b6000614adf82614bd6565b9150614aea83614bd6565b9250817fffffffffffffffffffffffffffffffffffffffffffffffffffffffffffffffff0483118215151615614b2357614b22614cff565b5b828202905092915050565b6000614b3982614bd6565b9150614b4483614bd6565b925082821015614b5757614b56614cff565b5b828203905092915050565b6000614b6d82614bb6565b9050919050565b60008115159050919050565b6000819050919050565b60007fffffffff0000000000000000000000000000000000000000000000000000000082169050919050565b600073ffffffffffffffffffffffffffffffffffffffff82169050919050565b6000819050919050565b82818337600083830152505050565b60005b83811015614c0d578082015181840152602081019050614bf2565b83811115614c1c576000848401525b50505050565b60006002820490506001821680614c3a57607f821691505b60208210811415614c4e57614c4d614d5d565b5b50919050565b614c5d82614dbb565b810181811067ffffffffffffffff82111715614c7c57614c7b614d8c565b5b80604052505050565b6000614c9082614bd6565b91507fffffffffffffffffffffffffffffffffffffffffffffffffffffffffffffffff821415614cc357614cc2614cff565b5b600182019050919050565b6000614cd982614bd6565b9150614ce483614bd6565b925082614cf457614cf3614d2e565b5b828206905092915050565b7f4e487b7100000000000000000000000000000000000000000000000000000000600052601160045260246000fd5b7f4e487b7100000000000000000000000000000000000000000000000000000000600052601260045260246000fd5b7f4e487b7100000000000000000000000000000000000000000000000000000000600052602260045260246000fd5b7f4e487b7100000000000000000000000000000000000000000000000000000000600052604160045260246000fd5b6000601f19601f8301169050919050565b7f222c20226465736372697074696f6e223a202200000000000000000000000000600082015250565b7f455243373231456e756d657261626c653a206f776e657220696e646578206f7560008201527f74206f6620626f756e6473000000000000000000000000000000000000000000602082015250565b7f4552433732313a207472616e7366657220746f206e6f6e20455243373231526560008201527f63656976657220696d706c656d656e7465720000000000000000000000000000602082015250565b7f4f776e61626c653a206e6577206f776e657220697320746865207a65726f206160008201527f6464726573730000000000000000000000000000000000000000000000000000602082015250565b7f4552433732313a207472616e736665722066726f6d20696e636f72726563742060008201527f6f776e6572000000000000000000000000000000000000000000000000000000602082015250565b7f4552433732313a20746f6b656e20616c7265616479206d696e74656400000000600082015250565b7f4552433732313a207472616e7366657220746f20746865207a65726f2061646460008201527f7265737300000000000000000000000000000000000000000000000000000000602082015250565b7f4552433732313a20617070726f766520746f2063616c6c657200000000000000600082015250565b7f4552433732313a2061646472657373207a65726f206973206e6f74206120766160008201527f6c6964206f776e65720000000000000000000000000000000000000000000000602082015250565b7f222c20226964223a200000000000000000000000000000000000000000000000600082015250565b7f4552433732313a20617070726f76652063616c6c6572206973206e6f7420746f60008201527f6b656e206f776e6572206e6f7220617070726f76656420666f7220616c6c0000602082015250565b7f4552433732313a206d696e7420746f20746865207a65726f2061646472657373600082015250565b7f222c2022696d616765223a202200000000000000000000000000000000000000600082015250565b7f7d00000000000000000000000000000000000000000000000000000000000000600082015250565b7f4f776e61626c653a2063616c6c6572206973206e6f7420746865206f776e6572600082015250565b7f696e76616c696420736563726574207068726173650000000000000000000000600082015250565b7f616c7265616479206d696e746564204e4654206f6e206576656e740000000000600082015250565b7f7b226e616d65223a202200000000000000000000000000000000000000000000600082015250565b7f4552433732313a20696e76616c696420746f6b656e2049440000000000000000600082015250565b7f4552433732313a20617070726f76616c20746f2063757272656e74206f776e6560008201527f7200000000000000000000000000000000000000000000000000000000000000602082015250565b7f646174613a6170706c69636174696f6e2f6a736f6e3b6261736536342c000000600082015250565b7f455243373231456e756d657261626c653a20676c6f62616c20696e646578206f60008201527f7574206f6620626f756e64730000000000000000000000000000000000000000602082015250565b7f4552433732313a2063616c6c6572206973206e6f7420746f6b656e206f776e6560008201527f72206e6f7220617070726f766564000000000000000000000000000000000000602082015250565b61530081614b62565b811461530b57600080fd5b50565b61531781614b74565b811461532257600080fd5b50565b61532e81614b80565b811461533957600080fd5b50565b61534581614b8a565b811461535057600080fd5b50565b61535c81614bd6565b811461536757600080fd5b5056fe4142434445464748494a4b4c4d4e4f505152535455565758595a6162636465666768696a6b6c6d6e6f707172737475767778797a303132333435363738392b2fa26469706673582212204903072b53d730d4b2ffb6d943180c1e731fff21fef94d54e0910d669e4615eb64736f6c63430008040033",
  "linkReferences": {},
  "deployedLinkReferences": {}
}