{
  "_format": "hh-sol-artifact-1",
  "contractName": "MintNFT",
  "sourceName": "contracts/MintNFT.sol",
  "abi": [
    {
      "anonymous": false,
      "inputs": [
        {
          "indexed": true,
          "internalType": "address",
          "name": "owner",
          "type": "address"
        },
        {
          "indexed": true,
          "internalType": "address",
          "name": "approved",
          "type": "address"
        },
        {
          "indexed": true,
          "internalType": "uint256",
          "name": "tokenId",
          "type": "uint256"
        }
      ],
      "name": "Approval",
      "type": "event"
    },
    {
      "anonymous": false,
      "inputs": [
        {
          "indexed": true,
          "internalType": "address",
          "name": "owner",
          "type": "address"
        },
        {
          "indexed": true,
          "internalType": "address",
          "name": "operator",
          "type": "address"
        },
        {
          "indexed": false,
          "internalType": "bool",
          "name": "approved",
          "type": "bool"
        }
      ],
      "name": "ApprovalForAll",
      "type": "event"
    },
    {
      "anonymous": false,
      "inputs": [
        {
          "indexed": false,
          "internalType": "uint8",
          "name": "version",
          "type": "uint8"
        }
      ],
      "name": "Initialized",
      "type": "event"
    },
    {
      "anonymous": false,
      "inputs": [
        {
          "indexed": true,
          "internalType": "uint256",
          "name": "eventId",
          "type": "uint256"
        },
        {
          "indexed": false,
          "internalType": "bool",
          "name": "isLocked",
          "type": "bool"
        }
      ],
      "name": "MintLocked",
      "type": "event"
    },
    {
      "anonymous": false,
      "inputs": [
        {
          "indexed": true,
          "internalType": "address",
          "name": "holder",
          "type": "address"
        },
        {
          "indexed": false,
          "internalType": "string",
          "name": "url",
          "type": "string"
        }
      ],
      "name": "MintedNFTAttributeURL",
      "type": "event"
    },
    {
      "anonymous": false,
      "inputs": [
        {
          "indexed": true,
          "internalType": "address",
          "name": "previousOwner",
          "type": "address"
        },
        {
          "indexed": true,
          "internalType": "address",
          "name": "newOwner",
          "type": "address"
        }
      ],
      "name": "OwnershipTransferred",
      "type": "event"
    },
    {
      "anonymous": false,
      "inputs": [
        {
          "indexed": true,
          "internalType": "address",
          "name": "from",
          "type": "address"
        },
        {
          "indexed": true,
          "internalType": "address",
          "name": "to",
          "type": "address"
        },
        {
          "indexed": true,
          "internalType": "uint256",
          "name": "tokenId",
          "type": "uint256"
        }
      ],
      "name": "Transfer",
      "type": "event"
    },
    {
      "inputs": [
        {
          "internalType": "address",
          "name": "to",
          "type": "address"
        },
        {
          "internalType": "uint256",
          "name": "tokenId",
          "type": "uint256"
        }
      ],
      "name": "approve",
      "outputs": [],
      "stateMutability": "nonpayable",
      "type": "function"
    },
    {
      "inputs": [
        {
          "internalType": "address",
          "name": "owner",
          "type": "address"
        }
      ],
      "name": "balanceOf",
      "outputs": [
        {
          "internalType": "uint256",
          "name": "",
          "type": "uint256"
        }
      ],
      "stateMutability": "view",
      "type": "function"
    },
    {
      "inputs": [
        {
          "internalType": "uint256",
          "name": "tokenId",
          "type": "uint256"
        }
      ],
      "name": "burn",
      "outputs": [],
      "stateMutability": "nonpayable",
      "type": "function"
    },
    {
      "inputs": [
        {
          "internalType": "uint256",
          "name": "_eventId",
          "type": "uint256"
        },
        {
          "internalType": "uint256[24]",
          "name": "_proof",
          "type": "uint256[24]"
        }
      ],
      "name": "canMint",
      "outputs": [
        {
          "internalType": "bool",
          "name": "",
          "type": "bool"
        }
      ],
      "stateMutability": "view",
      "type": "function"
    },
    {
      "inputs": [
        {
          "internalType": "uint256",
          "name": "_eventId",
          "type": "uint256"
        },
        {
          "internalType": "bool",
          "name": "_locked",
          "type": "bool"
        }
      ],
      "name": "changeMintLocked",
      "outputs": [],
      "stateMutability": "nonpayable",
      "type": "function"
    },
    {
      "inputs": [
        {
          "internalType": "uint256",
          "name": "tokenId",
          "type": "uint256"
        }
      ],
      "name": "getApproved",
      "outputs": [
        {
          "internalType": "address",
          "name": "",
          "type": "address"
        }
      ],
      "stateMutability": "view",
      "type": "function"
    },
    {
      "inputs": [
        {
          "internalType": "uint256",
          "name": "_eventId",
          "type": "uint256"
        }
      ],
      "name": "getIsMintLocked",
      "outputs": [
        {
          "internalType": "bool",
          "name": "",
          "type": "bool"
        }
      ],
      "stateMutability": "view",
      "type": "function"
    },
    {
      "inputs": [
        {
          "internalType": "uint256",
          "name": "_eventId",
          "type": "uint256"
        }
      ],
      "name": "getRemainingNFTCount",
      "outputs": [
        {
          "internalType": "uint256",
          "name": "",
          "type": "uint256"
        }
      ],
      "stateMutability": "view",
      "type": "function"
    },
    {
      "inputs": [
        {
          "internalType": "contract MinimalForwarderUpgradeable",
          "name": "trustedForwarder",
          "type": "address"
        },
        {
          "internalType": "address",
          "name": "_secretPhraseVerifierAddr",
          "type": "address"
        },
        {
          "internalType": "bytes32[]",
          "name": "_eventSecretPhrases",
          "type": "bytes32[]"
        }
      ],
      "name": "initialize",
      "outputs": [],
      "stateMutability": "nonpayable",
      "type": "function"
    },
    {
      "inputs": [
        {
          "internalType": "address",
          "name": "owner",
          "type": "address"
        },
        {
          "internalType": "address",
          "name": "operator",
          "type": "address"
        }
      ],
      "name": "isApprovedForAll",
      "outputs": [
        {
          "internalType": "bool",
          "name": "",
          "type": "bool"
        }
      ],
      "stateMutability": "view",
      "type": "function"
    },
    {
      "inputs": [
        {
          "internalType": "address",
          "name": "_addr",
          "type": "address"
        },
        {
          "internalType": "uint256",
          "name": "_eventId",
          "type": "uint256"
        }
      ],
      "name": "isHoldingEventNFTByAddress",
      "outputs": [
        {
          "internalType": "bool",
          "name": "",
          "type": "bool"
        }
      ],
      "stateMutability": "view",
      "type": "function"
    },
    {
      "inputs": [
        {
          "internalType": "address",
          "name": "forwarder",
          "type": "address"
        }
      ],
      "name": "isTrustedForwarder",
      "outputs": [
        {
          "internalType": "bool",
          "name": "",
          "type": "bool"
        }
      ],
      "stateMutability": "view",
      "type": "function"
    },
    {
      "inputs": [
        {
          "internalType": "uint256",
          "name": "_groupId",
          "type": "uint256"
        },
        {
          "internalType": "uint256",
          "name": "_eventId",
          "type": "uint256"
        },
        {
          "internalType": "uint256[24]",
          "name": "_proof",
          "type": "uint256[24]"
        }
      ],
      "name": "mintParticipateNFT",
      "outputs": [],
      "stateMutability": "nonpayable",
      "type": "function"
    },
    {
      "inputs": [],
      "name": "name",
      "outputs": [
        {
          "internalType": "string",
          "name": "",
          "type": "string"
        }
      ],
      "stateMutability": "view",
      "type": "function"
    },
    {
      "inputs": [],
      "name": "owner",
      "outputs": [
        {
          "internalType": "address",
          "name": "",
          "type": "address"
        }
      ],
      "stateMutability": "view",
      "type": "function"
    },
    {
      "inputs": [
        {
          "internalType": "uint256",
          "name": "tokenId",
          "type": "uint256"
        }
      ],
      "name": "ownerOf",
      "outputs": [
        {
          "internalType": "address",
          "name": "",
          "type": "address"
        }
      ],
      "stateMutability": "view",
      "type": "function"
    },
    {
      "inputs": [],
      "name": "renounceOwnership",
      "outputs": [],
      "stateMutability": "nonpayable",
      "type": "function"
    },
    {
      "inputs": [
        {
          "internalType": "address",
          "name": "from",
          "type": "address"
        },
        {
          "internalType": "address",
          "name": "to",
          "type": "address"
        },
        {
          "internalType": "uint256",
          "name": "tokenId",
          "type": "uint256"
        }
      ],
      "name": "safeTransferFrom",
      "outputs": [],
      "stateMutability": "nonpayable",
      "type": "function"
    },
    {
      "inputs": [
        {
          "internalType": "address",
          "name": "from",
          "type": "address"
        },
        {
          "internalType": "address",
          "name": "to",
          "type": "address"
        },
        {
          "internalType": "uint256",
          "name": "tokenId",
          "type": "uint256"
        },
        {
          "internalType": "bytes",
          "name": "data",
          "type": "bytes"
        }
      ],
      "name": "safeTransferFrom",
      "outputs": [],
      "stateMutability": "nonpayable",
      "type": "function"
    },
    {
      "inputs": [
        {
          "internalType": "address",
          "name": "operator",
          "type": "address"
        },
        {
          "internalType": "bool",
          "name": "approved",
          "type": "bool"
        }
      ],
      "name": "setApprovalForAll",
      "outputs": [],
      "stateMutability": "nonpayable",
      "type": "function"
    },
    {
      "inputs": [
        {
          "internalType": "uint256",
          "name": "_eventId",
          "type": "uint256"
        },
        {
          "internalType": "uint256",
          "name": "_mintLimit",
          "type": "uint256"
        },
        {
          "internalType": "bytes32",
          "name": "_secretPhrase",
          "type": "bytes32"
        },
        {
          "components": [
            {
              "internalType": "string",
              "name": "metaDataURL",
              "type": "string"
            },
            {
              "internalType": "uint256",
              "name": "requiredParticipateCount",
              "type": "uint256"
            }
          ],
          "internalType": "struct MintNFT.NFTAttribute[]",
          "name": "attributes",
          "type": "tuple[]"
        }
      ],
      "name": "setEventInfo",
      "outputs": [],
      "stateMutability": "nonpayable",
      "type": "function"
    },
    {
      "inputs": [
        {
          "internalType": "address",
          "name": "_addr",
          "type": "address"
        }
      ],
      "name": "setEventManagerAddr",
      "outputs": [],
      "stateMutability": "nonpayable",
      "type": "function"
    },
    {
      "inputs": [
        {
          "internalType": "bytes4",
          "name": "interfaceId",
          "type": "bytes4"
        }
      ],
      "name": "supportsInterface",
      "outputs": [
        {
          "internalType": "bool",
          "name": "",
          "type": "bool"
        }
      ],
      "stateMutability": "view",
      "type": "function"
    },
    {
      "inputs": [],
      "name": "symbol",
      "outputs": [
        {
          "internalType": "string",
          "name": "",
          "type": "string"
        }
      ],
      "stateMutability": "view",
      "type": "function"
    },
    {
      "inputs": [
        {
          "internalType": "uint256",
          "name": "index",
          "type": "uint256"
        }
      ],
      "name": "tokenByIndex",
      "outputs": [
        {
          "internalType": "uint256",
          "name": "",
          "type": "uint256"
        }
      ],
      "stateMutability": "view",
      "type": "function"
    },
    {
      "inputs": [
        {
          "internalType": "address",
          "name": "owner",
          "type": "address"
        },
        {
          "internalType": "uint256",
          "name": "index",
          "type": "uint256"
        }
      ],
      "name": "tokenOfOwnerByIndex",
      "outputs": [
        {
          "internalType": "uint256",
          "name": "",
          "type": "uint256"
        }
      ],
      "stateMutability": "view",
      "type": "function"
    },
    {
      "inputs": [
        {
          "internalType": "uint256",
          "name": "_tokenId",
          "type": "uint256"
        }
      ],
      "name": "tokenURI",
      "outputs": [
        {
          "internalType": "string",
          "name": "",
          "type": "string"
        }
      ],
      "stateMutability": "view",
      "type": "function"
    },
    {
      "inputs": [],
      "name": "totalSupply",
      "outputs": [
        {
          "internalType": "uint256",
          "name": "",
          "type": "uint256"
        }
      ],
      "stateMutability": "view",
      "type": "function"
    },
    {
      "inputs": [
        {
          "internalType": "address",
          "name": "from",
          "type": "address"
        },
        {
          "internalType": "address",
          "name": "to",
          "type": "address"
        },
        {
          "internalType": "uint256",
          "name": "tokenId",
          "type": "uint256"
        }
      ],
      "name": "transferFrom",
      "outputs": [],
      "stateMutability": "nonpayable",
      "type": "function"
    },
    {
      "inputs": [
        {
          "internalType": "address",
          "name": "newOwner",
          "type": "address"
        }
      ],
      "name": "transferOwnership",
      "outputs": [],
      "stateMutability": "nonpayable",
      "type": "function"
    }
  ],
  "bytecode": "0x608060405234801561001057600080fd5b50614f29806100206000396000f3fe608060405234801561001057600080fd5b50600436106101da5760003560e01c806370a0823111610104578063c87b56dd116100a2578063e985e9c511610071578063e985e9c51461059d578063ef3ad9eb146105cd578063f2fde38b146105e9578063fa86623b14610605576101da565b8063c87b56dd146104f1578063cbb6a9d714610521578063d622abc21461053d578063df4b39dd1461056d576101da565b80639041e3f4116100de5780639041e3f41461047f57806395d89b411461049b578063a22cb465146104b9578063b88d4fde146104d5576101da565b806370a0823114610427578063715018a6146104575780638da5cb5b14610461576101da565b80632f745c591161017c5780634f6ccce71161014b5780634f6ccce7146103675780634ffc9f4b14610397578063572b6c05146103c75780636352211e146103f7576101da565b80632f745c59146102cf57806342842e0e146102ff57806342966c681461031b5780634df3014914610337576101da565b8063095ea7b3116101b8578063095ea7b31461025d5780630daa8be71461027957806318160ddd1461029557806323b872dd146102b3576101da565b806301ffc9a7146101df57806306fdde031461020f578063081812fc1461022d575b600080fd5b6101f960048036038101906101f491906131df565b610621565b6040516102069190613227565b60405180910390f35b61021761069b565b60405161022491906132db565b60405180910390f35b61024760048036038101906102429190613333565b61072d565b60405161025491906133a1565b60405180910390f35b610277600480360381019061027291906133e8565b610773565b005b610293600480360381019061028e9190613454565b61088b565b005b61029d6109e6565b6040516102aa91906134a3565b60405180910390f35b6102cd60048036038101906102c891906134be565b6109f3565b005b6102e960048036038101906102e491906133e8565b610a53565b6040516102f691906134a3565b60405180910390f35b610319600480360381019061031491906134be565b610af8565b005b61033560048036038101906103309190613333565b610b18565b005b610351600480360381019061034c9190613647565b610b2c565b60405161035e9190613227565b60405180910390f35b610381600480360381019061037c9190613333565b610c8c565b60405161038e91906134a3565b60405180910390f35b6103b160048036038101906103ac9190613333565b610cfd565b6040516103be91906134a3565b60405180910390f35b6103e160048036038101906103dc9190613688565b610d1b565b6040516103ee9190613227565b60405180910390f35b610411600480360381019061040c9190613333565b610d75565b60405161041e91906133a1565b60405180910390f35b610441600480360381019061043c9190613688565b610e27565b60405161044e91906134a3565b60405180910390f35b61045f610edf565b005b610469610ef3565b60405161047691906133a1565b60405180910390f35b61049960048036038101906104949190613688565b610f1d565b005b6104a3610fda565b6040516104b091906132db565b60405180910390f35b6104d360048036038101906104ce91906136b5565b61106c565b005b6104ef60048036038101906104ea91906137aa565b611082565b005b61050b60048036038101906105069190613333565b6110e4565b60405161051891906132db565b60405180910390f35b61053b60048036038101906105369190613964565b611190565b005b610557600480360381019061055291906133e8565b6113b2565b6040516105649190613227565b60405180910390f35b61058760048036038101906105829190613333565b6113e7565b6040516105949190613227565b60405180910390f35b6105b760048036038101906105b291906139d3565b611412565b6040516105c49190613227565b60405180910390f35b6105e760048036038101906105e29190613c0b565b6114a6565b005b61060360048036038101906105fe9190613688565b611604565b005b61061f600480360381019061061a9190613c8e565b611688565b005b60007f780e9d63000000000000000000000000000000000000000000000000000000007bffffffffffffffffffffffffffffffffffffffffffffffffffffffff1916827bffffffffffffffffffffffffffffffffffffffffffffffffffffffff19161480610694575061069382611a53565b5b9050919050565b6060606580546106aa90613d11565b80601f01602080910402602001604051908101604052809291908181526020018280546106d690613d11565b80156107235780601f106106f857610100808354040283529160200191610723565b820191906000526020600020905b81548152906001019060200180831161070657829003601f168201915b5050505050905090565b600061073882611b35565b6069600083815260200190815260200160002060009054906101000a900473ffffffffffffffffffffffffffffffffffffffff169050919050565b600061077e82610d75565b90508073ffffffffffffffffffffffffffffffffffffffff168373ffffffffffffffffffffffffffffffffffffffff1614156107ef576040517f08c379a00000000000000000000000000000000000000000000000000000000081526004016107e690613db5565b60405180910390fd5b8073ffffffffffffffffffffffffffffffffffffffff1661080e611b80565b73ffffffffffffffffffffffffffffffffffffffff16148061083d575061083c81610837611b80565b611412565b5b61087c576040517f08c379a000000000000000000000000000000000000000000000000000000000815260040161087390613e47565b60405180910390fd5b6108868383611bb2565b505050565b600061012f60009054906101000a900473ffffffffffffffffffffffffffffffffffffffff1690508073ffffffffffffffffffffffffffffffffffffffff16631847482a33856040518363ffffffff1660e01b81526004016108ee929190613e67565b60206040518083038186803b15801561090657600080fd5b505afa15801561091a573d6000803e3d6000fd5b505050506040513d601f19601f8201168201806040525081019061093e9190613ea5565b61097d576040517f08c379a000000000000000000000000000000000000000000000000000000000815260040161097490613f1e565b60405180910390fd5b81610136600085815260200190815260200160002060006101000a81548160ff021916908315150217905550827f1e3ed2b292ed72652054799a4fde74789a8670c153df666f76e01345ec318281836040516109d99190613227565b60405180910390a2505050565b6000609980549050905090565b610a046109fe611b80565b82611c6b565b610a43576040517f08c379a0000000000000000000000000000000000000000000000000000000008152600401610a3a90613fb0565b60405180910390fd5b610a4e838383611d00565b505050565b6000610a5e83610e27565b8210610a9f576040517f08c379a0000000000000000000000000000000000000000000000000000000008152600401610a9690614042565b60405180910390fd5b609760008473ffffffffffffffffffffffffffffffffffffffff1673ffffffffffffffffffffffffffffffffffffffff168152602001908152602001600020600083815260200190815260200160002054905092915050565b610b1383838360405180602001604052806000815250611082565b505050565b610b20611f67565b610b2981611fe5565b50565b6000610b388284612102565b610b77576040517f08c379a0000000000000000000000000000000000000000000000000000000008152600401610b6e906140ae565b60405180910390fd5b60006101346000858152602001908152602001600020541415610bcf576040517f08c379a0000000000000000000000000000000000000000000000000000000008152600401610bc69061411a565b60405180910390fd5b610be0610bda611b80565b846113b2565b15610c20576040517f08c379a0000000000000000000000000000000000000000000000000000000008152600401610c1790614186565b60405180910390fd5b610136600084815260200190815260200160002060009054906101000a900460ff1615610c82576040517f08c379a0000000000000000000000000000000000000000000000000000000008152600401610c79906141f2565b60405180910390fd5b6001905092915050565b6000610c966109e6565b8210610cd7576040517f08c379a0000000000000000000000000000000000000000000000000000000008152600401610cce90614284565b60405180910390fd5b60998281548110610ceb57610cea6142a4565b5b90600052602060002001549050919050565b60006101346000838152602001908152602001600020549050919050565b600060c960009054906101000a900473ffffffffffffffffffffffffffffffffffffffff1673ffffffffffffffffffffffffffffffffffffffff168273ffffffffffffffffffffffffffffffffffffffff16149050919050565b6000806067600084815260200190815260200160002060009054906101000a900473ffffffffffffffffffffffffffffffffffffffff169050600073ffffffffffffffffffffffffffffffffffffffff168173ffffffffffffffffffffffffffffffffffffffff161415610e1e576040517f08c379a0000000000000000000000000000000000000000000000000000000008152600401610e159061431f565b60405180910390fd5b80915050919050565b60008073ffffffffffffffffffffffffffffffffffffffff168273ffffffffffffffffffffffffffffffffffffffff161415610e98576040517f08c379a0000000000000000000000000000000000000000000000000000000008152600401610e8f906143b1565b60405180910390fd5b606860008373ffffffffffffffffffffffffffffffffffffffff1673ffffffffffffffffffffffffffffffffffffffff168152602001908152602001600020549050919050565b610ee7611f67565b610ef160006121f2565b565b600060fc60009054906101000a900473ffffffffffffffffffffffffffffffffffffffff16905090565b610f25611f67565b600073ffffffffffffffffffffffffffffffffffffffff168173ffffffffffffffffffffffffffffffffffffffff161415610f95576040517f08c379a0000000000000000000000000000000000000000000000000000000008152600401610f8c9061441d565b60405180910390fd5b8061012f60006101000a81548173ffffffffffffffffffffffffffffffffffffffff021916908373ffffffffffffffffffffffffffffffffffffffff16021790555050565b606060668054610fe990613d11565b80601f016020809104026020016040519081016040528092919081815260200182805461101590613d11565b80156110625780601f1061103757610100808354040283529160200191611062565b820191906000526020600020905b81548152906001019060200180831161104557829003601f168201915b5050505050905090565b61107e611077611b80565b83836122b8565b5050565b61109361108d611b80565b83611c6b565b6110d2576040517f08c379a00000000000000000000000000000000000000000000000000000000081526004016110c990613fb0565b60405180910390fd5b6110de84848484612425565b50505050565b606060006101306000848152602001908152602001600020805461110790613d11565b80601f016020809104026020016040519081016040528092919081815260200182805461113390613d11565b80156111805780601f1061115557610100808354040283529160200191611180565b820191906000526020600020905b81548152906001019060200180831161116357829003601f168201915b5050505050905080915050919050565b6002600060019054906101000a900460ff161580156111c157508060ff1660008054906101000a900460ff1660ff16105b611200576040517f08c379a00000000000000000000000000000000000000000000000000000000081526004016111f7906144af565b60405180910390fd5b806000806101000a81548160ff021916908360ff1602179055506001600060016101000a81548160ff0219169083151502179055506112a96040518060400160405280600981526020017f4d696e7452616c6c7900000000000000000000000000000000000000000000008152506040518060400160405280600281526020017f4d52000000000000000000000000000000000000000000000000000000000000815250612481565b6112b16124de565b6112ba84612537565b8261013760006101000a81548173ffffffffffffffffffffffffffffffffffffffff021916908373ffffffffffffffffffffffffffffffffffffffff16021790555060005b825181101561135a5782818151811061131b5761131a6142a4565b5b6020026020010151610135600060018461133591906144fe565b815260200190815260200160002081905550808061135290614554565b9150506112ff565b5060008060016101000a81548160ff0219169083151502179055507f7f26b83ff96e1f2b6a682f133852f6798a09c465da95921460cefb3847402498816040516113a491906145b9565b60405180910390a150505050565b600061013160006113c385856125d2565b815260200190815260200160002060009054906101000a900460ff16905092915050565b6000610136600083815260200190815260200160002060009054906101000a900460ff169050919050565b6000606a60008473ffffffffffffffffffffffffffffffffffffffff1673ffffffffffffffffffffffffffffffffffffffff16815260200190815260200160002060008373ffffffffffffffffffffffffffffffffffffffff1673ffffffffffffffffffffffffffffffffffffffff16815260200190815260200160002060009054906101000a900460ff16905092915050565b61012f60009054906101000a900473ffffffffffffffffffffffffffffffffffffffff1673ffffffffffffffffffffffffffffffffffffffff166114e8611b80565b73ffffffffffffffffffffffffffffffffffffffff161461153e576040517f08c379a000000000000000000000000000000000000000000000000000000000815260040161153590614620565b60405180910390fd5b826101346000868152602001908152602001600020819055508161013560008681526020019081526020016000208190555060005b81518110156115fd5781818151811061158f5761158e6142a4565b5b60200260200101516000015161013360006115c8888686815181106115b7576115b66142a4565b5b602002602001015160200151612605565b815260200190815260200160002090805190602001906115e99291906130d0565b5080806115f590614554565b915050611573565b5050505050565b61160c611f67565b600073ffffffffffffffffffffffffffffffffffffffff168173ffffffffffffffffffffffffffffffffffffffff16141561167c576040517f08c379a0000000000000000000000000000000000000000000000000000000008152600401611673906146b2565b60405180910390fd5b611685816121f2565b50565b6116928282610b2c565b5060016101346000848152602001908152602001600020546116b491906146d2565b610134600084815260200190815260200160002081905550600061013760009054906101000a900473ffffffffffffffffffffffffffffffffffffffff1690508073ffffffffffffffffffffffffffffffffffffffff1663c6bc727283856040518363ffffffff1660e01b815260040161172f9291906147b1565b600060405180830381600087803b15801561174957600080fd5b505af115801561175d573d6000803e3d6000fd5b5050505060016101316000611779611773611b80565b876125d2565b815260200190815260200160002060006101000a81548160ff02191690831515021790555060006117b16117ab611b80565b866125d2565b9050600061013260008381526020019081526020016000205490506001816117d991906144fe565b61013260008481526020019081526020016000208190555060006101336000611803886000612605565b8152602001908152602001600020805461181c90613d11565b80601f016020809104026020016040519081016040528092919081815260200182805461184890613d11565b80156118955780601f1061186a57610100808354040283529160200191611895565b820191906000526020600020905b81548152906001019060200180831161187857829003601f168201915b50505050509050600061013360006118ad8986612605565b815260200190815260200160002080546118c690613d11565b80601f01602080910402602001604051908101604052809291908181526020018280546118f290613d11565b801561193f5780601f106119145761010080835404028352916020019161193f565b820191906000526020600020905b81548152906001019060200180831161192257829003601f168201915b505050505090506040516020016119559061480d565b604051602081830303815290604052805190602001208160405160200161197c9190614853565b604051602081830303815290604052805190602001201461199b578091505b8161013060006119ac61012e612638565b815260200190815260200160002090805190602001906119cd9291906130d0565b506119e96119d9611b80565b6119e461012e612638565b612646565b6119f461012e612664565b6119fc611b80565b73ffffffffffffffffffffffffffffffffffffffff167faf2fad1984d2c7abaa9300537cf9fe1bcfaf2d6226e4ffdf03522dbf3064808e83604051611a4191906132db565b60405180910390a25050505050505050565b60007f80ac58cd000000000000000000000000000000000000000000000000000000007bffffffffffffffffffffffffffffffffffffffffffffffffffffffff1916827bffffffffffffffffffffffffffffffffffffffffffffffffffffffff19161480611b1e57507f5b5e139f000000000000000000000000000000000000000000000000000000007bffffffffffffffffffffffffffffffffffffffffffffffffffffffff1916827bffffffffffffffffffffffffffffffffffffffffffffffffffffffff1916145b80611b2e5750611b2d8261267a565b5b9050919050565b611b3e816126e4565b611b7d576040517f08c379a0000000000000000000000000000000000000000000000000000000008152600401611b749061431f565b60405180910390fd5b50565b6000611b8b33610d1b565b15611b9f57601436033560601c9050611bae565b611ba7612750565b9050611baf565b5b90565b816069600083815260200190815260200160002060006101000a81548173ffffffffffffffffffffffffffffffffffffffff021916908373ffffffffffffffffffffffffffffffffffffffff160217905550808273ffffffffffffffffffffffffffffffffffffffff16611c2583610d75565b73ffffffffffffffffffffffffffffffffffffffff167f8c5be1e5ebec7d5bd14f71427d1e84f3dd0314c0f7b2291e5b200ac8c7c3b92560405160405180910390a45050565b600080611c7783610d75565b90508073ffffffffffffffffffffffffffffffffffffffff168473ffffffffffffffffffffffffffffffffffffffff161480611cb95750611cb88185611412565b5b80611cf757508373ffffffffffffffffffffffffffffffffffffffff16611cdf8461072d565b73ffffffffffffffffffffffffffffffffffffffff16145b91505092915050565b8273ffffffffffffffffffffffffffffffffffffffff16611d2082610d75565b73ffffffffffffffffffffffffffffffffffffffff1614611d76576040517f08c379a0000000000000000000000000000000000000000000000000000000008152600401611d6d906148dc565b60405180910390fd5b600073ffffffffffffffffffffffffffffffffffffffff168273ffffffffffffffffffffffffffffffffffffffff161415611de6576040517f08c379a0000000000000000000000000000000000000000000000000000000008152600401611ddd9061496e565b60405180910390fd5b611df1838383612782565b611dfc600082611bb2565b6001606860008573ffffffffffffffffffffffffffffffffffffffff1673ffffffffffffffffffffffffffffffffffffffff1681526020019081526020016000206000828254611e4c91906146d2565b925050819055506001606860008473ffffffffffffffffffffffffffffffffffffffff1673ffffffffffffffffffffffffffffffffffffffff1681526020019081526020016000206000828254611ea391906144fe565b92505081905550816067600083815260200190815260200160002060006101000a81548173ffffffffffffffffffffffffffffffffffffffff021916908373ffffffffffffffffffffffffffffffffffffffff160217905550808273ffffffffffffffffffffffffffffffffffffffff168473ffffffffffffffffffffffffffffffffffffffff167fddf252ad1be2c89b69c2b068fc378daa952ba7f163c4a11628f55a4df523b3ef60405160405180910390a4611f62838383612896565b505050565b611f6f611b80565b73ffffffffffffffffffffffffffffffffffffffff16611f8d610ef3565b73ffffffffffffffffffffffffffffffffffffffff1614611fe3576040517f08c379a0000000000000000000000000000000000000000000000000000000008152600401611fda906149da565b60405180910390fd5b565b6000611ff082610d75565b9050611ffe81600084612782565b612009600083611bb2565b6001606860008373ffffffffffffffffffffffffffffffffffffffff1673ffffffffffffffffffffffffffffffffffffffff168152602001908152602001600020600082825461205991906146d2565b925050819055506067600083815260200190815260200160002060006101000a81549073ffffffffffffffffffffffffffffffffffffffff021916905581600073ffffffffffffffffffffffffffffffffffffffff168273ffffffffffffffffffffffffffffffffffffffff167fddf252ad1be2c89b69c2b068fc378daa952ba7f163c4a11628f55a4df523b3ef60405160405180910390a46120fe81600084612896565b5050565b60008061013760009054906101000a900473ffffffffffffffffffffffffffffffffffffffff1690506000604051806020016040528061013560008781526020019081526020016000205460001c815250905060008273ffffffffffffffffffffffffffffffffffffffff1663a65bb09a8784886040518463ffffffff1660e01b815260040161219493929190614a7e565b60206040518083038186803b1580156121ac57600080fd5b505afa1580156121c0573d6000803e3d6000fd5b505050506040513d601f19601f820116820180604052508101906121e49190613ea5565b905080935050505092915050565b600060fc60009054906101000a900473ffffffffffffffffffffffffffffffffffffffff1690508160fc60006101000a81548173ffffffffffffffffffffffffffffffffffffffff021916908373ffffffffffffffffffffffffffffffffffffffff1602179055508173ffffffffffffffffffffffffffffffffffffffff168173ffffffffffffffffffffffffffffffffffffffff167f8be0079c531659141344cd1fd0a4f28419497f9722a3daafe3b4186f6b6457e060405160405180910390a35050565b8173ffffffffffffffffffffffffffffffffffffffff168373ffffffffffffffffffffffffffffffffffffffff161415612327576040517f08c379a000000000000000000000000000000000000000000000000000000000815260040161231e90614b04565b60405180910390fd5b80606a60008573ffffffffffffffffffffffffffffffffffffffff1673ffffffffffffffffffffffffffffffffffffffff16815260200190815260200160002060008473ffffffffffffffffffffffffffffffffffffffff1673ffffffffffffffffffffffffffffffffffffffff16815260200190815260200160002060006101000a81548160ff0219169083151502179055508173ffffffffffffffffffffffffffffffffffffffff168373ffffffffffffffffffffffffffffffffffffffff167f17307eab39ab6107e8899845ad3d59bd9653f200f220920489ca2b5937696c31836040516124189190613227565b60405180910390a3505050565b612430848484611d00565b61243c8484848461289b565b61247b576040517f08c379a000000000000000000000000000000000000000000000000000000000815260040161247290614b96565b60405180910390fd5b50505050565b600060019054906101000a900460ff166124d0576040517f08c379a00000000000000000000000000000000000000000000000000000000081526004016124c790614c28565b60405180910390fd5b6124da8282612a32565b5050565b600060019054906101000a900460ff1661252d576040517f08c379a000000000000000000000000000000000000000000000000000000000815260040161252490614c28565b60405180910390fd5b612535612ab3565b565b600060019054906101000a900460ff16612586576040517f08c379a000000000000000000000000000000000000000000000000000000000815260040161257d90614c28565b60405180910390fd5b61258e612b14565b8060c960006101000a81548173ffffffffffffffffffffffffffffffffffffffff021916908373ffffffffffffffffffffffffffffffffffffffff16021790555050565b600082826040516020016125e7929190614cb1565b60405160208183030381529060405280519060200120905092915050565b6000828260405160200161261a929190614cdd565b60405160208183030381529060405280519060200120905092915050565b600081600001549050919050565b612660828260405180602001604052806000815250612b65565b5050565b6001816000016000828254019250508190555050565b60007f01ffc9a7000000000000000000000000000000000000000000000000000000007bffffffffffffffffffffffffffffffffffffffffffffffffffffffff1916827bffffffffffffffffffffffffffffffffffffffffffffffffffffffff1916149050919050565b60008073ffffffffffffffffffffffffffffffffffffffff166067600084815260200190815260200160002060009054906101000a900473ffffffffffffffffffffffffffffffffffffffff1673ffffffffffffffffffffffffffffffffffffffff1614159050919050565b600061275b33610d1b565b1561276f57601436033560601c905061277e565b612777612bc0565b905061277f565b5b90565b61278d838383612bc8565b600073ffffffffffffffffffffffffffffffffffffffff168373ffffffffffffffffffffffffffffffffffffffff1614156127d0576127cb81612bcd565b61280f565b8173ffffffffffffffffffffffffffffffffffffffff168373ffffffffffffffffffffffffffffffffffffffff161461280e5761280d8382612c16565b5b5b600073ffffffffffffffffffffffffffffffffffffffff168273ffffffffffffffffffffffffffffffffffffffff1614156128525761284d81612d83565b612891565b8273ffffffffffffffffffffffffffffffffffffffff168273ffffffffffffffffffffffffffffffffffffffff16146128905761288f8282612e54565b5b5b505050565b505050565b60006128bc8473ffffffffffffffffffffffffffffffffffffffff16612ed3565b15612a25578373ffffffffffffffffffffffffffffffffffffffff1663150b7a026128e5611b80565b8786866040518563ffffffff1660e01b81526004016129079493929190614d5e565b602060405180830381600087803b15801561292157600080fd5b505af192505050801561295257506040513d601f19601f8201168201806040525081019061294f9190614dbf565b60015b6129d5573d8060008114612982576040519150601f19603f3d011682016040523d82523d6000602084013e612987565b606091505b506000815114156129cd576040517f08c379a00000000000000000000000000000000000000000000000000000000081526004016129c490614b96565b60405180910390fd5b805181602001fd5b63150b7a0260e01b7bffffffffffffffffffffffffffffffffffffffffffffffffffffffff1916817bffffffffffffffffffffffffffffffffffffffffffffffffffffffff191614915050612a2a565b600190505b949350505050565b600060019054906101000a900460ff16612a81576040517f08c379a0000000000000000000000000000000000000000000000000000000008152600401612a7890614c28565b60405180910390fd5b8160659080519060200190612a979291906130d0565b508060669080519060200190612aae9291906130d0565b505050565b600060019054906101000a900460ff16612b02576040517f08c379a0000000000000000000000000000000000000000000000000000000008152600401612af990614c28565b60405180910390fd5b612b12612b0d611b80565b6121f2565b565b600060019054906101000a900460ff16612b63576040517f08c379a0000000000000000000000000000000000000000000000000000000008152600401612b5a90614c28565b60405180910390fd5b565b612b6f8383612ef6565b612b7c600084848461289b565b612bbb576040517f08c379a0000000000000000000000000000000000000000000000000000000008152600401612bb290614b96565b60405180910390fd5b505050565b600033905090565b505050565b609980549050609a600083815260200190815260200160002081905550609981908060018154018082558091505060019003906000526020600020016000909190919091505550565b60006001612c2384610e27565b612c2d91906146d2565b9050600060986000848152602001908152602001600020549050818114612d12576000609760008673ffffffffffffffffffffffffffffffffffffffff1673ffffffffffffffffffffffffffffffffffffffff168152602001908152602001600020600084815260200190815260200160002054905080609760008773ffffffffffffffffffffffffffffffffffffffff1673ffffffffffffffffffffffffffffffffffffffff168152602001908152602001600020600084815260200190815260200160002081905550816098600083815260200190815260200160002081905550505b6098600084815260200190815260200160002060009055609760008573ffffffffffffffffffffffffffffffffffffffff1673ffffffffffffffffffffffffffffffffffffffff16815260200190815260200160002060008381526020019081526020016000206000905550505050565b60006001609980549050612d9791906146d2565b90506000609a6000848152602001908152602001600020549050600060998381548110612dc757612dc66142a4565b5b906000526020600020015490508060998381548110612de957612de86142a4565b5b906000526020600020018190555081609a600083815260200190815260200160002081905550609a6000858152602001908152602001600020600090556099805480612e3857612e37614dec565b5b6001900381819060005260206000200160009055905550505050565b6000612e5f83610e27565b905081609760008573ffffffffffffffffffffffffffffffffffffffff1673ffffffffffffffffffffffffffffffffffffffff168152602001908152602001600020600083815260200190815260200160002081905550806098600084815260200190815260200160002081905550505050565b6000808273ffffffffffffffffffffffffffffffffffffffff163b119050919050565b600073ffffffffffffffffffffffffffffffffffffffff168273ffffffffffffffffffffffffffffffffffffffff161415612f66576040517f08c379a0000000000000000000000000000000000000000000000000000000008152600401612f5d90614e67565b60405180910390fd5b612f6f816126e4565b15612faf576040517f08c379a0000000000000000000000000000000000000000000000000000000008152600401612fa690614ed3565b60405180910390fd5b612fbb60008383612782565b6001606860008473ffffffffffffffffffffffffffffffffffffffff1673ffffffffffffffffffffffffffffffffffffffff168152602001908152602001600020600082825461300b91906144fe565b92505081905550816067600083815260200190815260200160002060006101000a81548173ffffffffffffffffffffffffffffffffffffffff021916908373ffffffffffffffffffffffffffffffffffffffff160217905550808273ffffffffffffffffffffffffffffffffffffffff16600073ffffffffffffffffffffffffffffffffffffffff167fddf252ad1be2c89b69c2b068fc378daa952ba7f163c4a11628f55a4df523b3ef60405160405180910390a46130cc60008383612896565b5050565b8280546130dc90613d11565b90600052602060002090601f0160209004810192826130fe5760008555613145565b82601f1061311757805160ff1916838001178555613145565b82800160010185558215613145579182015b82811115613144578251825591602001919060010190613129565b5b5090506131529190613156565b5090565b5b8082111561316f576000816000905550600101613157565b5090565b6000604051905090565b600080fd5b600080fd5b60007fffffffff0000000000000000000000000000000000000000000000000000000082169050919050565b6131bc81613187565b81146131c757600080fd5b50565b6000813590506131d9816131b3565b92915050565b6000602082840312156131f5576131f461317d565b5b6000613203848285016131ca565b91505092915050565b60008115159050919050565b6132218161320c565b82525050565b600060208201905061323c6000830184613218565b92915050565b600081519050919050565b600082825260208201905092915050565b60005b8381101561327c578082015181840152602081019050613261565b8381111561328b576000848401525b50505050565b6000601f19601f8301169050919050565b60006132ad82613242565b6132b7818561324d565b93506132c781856020860161325e565b6132d081613291565b840191505092915050565b600060208201905081810360008301526132f581846132a2565b905092915050565b6000819050919050565b613310816132fd565b811461331b57600080fd5b50565b60008135905061332d81613307565b92915050565b6000602082840312156133495761334861317d565b5b60006133578482850161331e565b91505092915050565b600073ffffffffffffffffffffffffffffffffffffffff82169050919050565b600061338b82613360565b9050919050565b61339b81613380565b82525050565b60006020820190506133b66000830184613392565b92915050565b6133c581613380565b81146133d057600080fd5b50565b6000813590506133e2816133bc565b92915050565b600080604083850312156133ff576133fe61317d565b5b600061340d858286016133d3565b925050602061341e8582860161331e565b9150509250929050565b6134318161320c565b811461343c57600080fd5b50565b60008135905061344e81613428565b92915050565b6000806040838503121561346b5761346a61317d565b5b60006134798582860161331e565b925050602061348a8582860161343f565b9150509250929050565b61349d816132fd565b82525050565b60006020820190506134b86000830184613494565b92915050565b6000806000606084860312156134d7576134d661317d565b5b60006134e5868287016133d3565b93505060206134f6868287016133d3565b92505060406135078682870161331e565b9150509250925092565b600080fd5b7f4e487b7100000000000000000000000000000000000000000000000000000000600052604160045260246000fd5b61354e82613291565b810181811067ffffffffffffffff8211171561356d5761356c613516565b5b80604052505050565b6000613580613173565b905061358c8282613545565b919050565b600067ffffffffffffffff8211156135ac576135ab613516565b5b602082029050919050565b600080fd5b60006135cf6135ca84613591565b613576565b905080602084028301858111156135e9576135e86135b7565b5b835b8181101561361257806135fe888261331e565b8452602084019350506020810190506135eb565b5050509392505050565b600082601f83011261363157613630613511565b5b601861363e8482856135bc565b91505092915050565b600080610320838503121561365f5761365e61317d565b5b600061366d8582860161331e565b925050602061367e8582860161361c565b9150509250929050565b60006020828403121561369e5761369d61317d565b5b60006136ac848285016133d3565b91505092915050565b600080604083850312156136cc576136cb61317d565b5b60006136da858286016133d3565b92505060206136eb8582860161343f565b9150509250929050565b600080fd5b600067ffffffffffffffff82111561371557613714613516565b5b61371e82613291565b9050602081019050919050565b82818337600083830152505050565b600061374d613748846136fa565b613576565b905082815260208101848484011115613769576137686136f5565b5b61377484828561372b565b509392505050565b600082601f83011261379157613790613511565b5b81356137a184826020860161373a565b91505092915050565b600080600080608085870312156137c4576137c361317d565b5b60006137d2878288016133d3565b94505060206137e3878288016133d3565b93505060406137f48782880161331e565b925050606085013567ffffffffffffffff81111561381557613814613182565b5b6138218782880161377c565b91505092959194509250565b600061383882613380565b9050919050565b6138488161382d565b811461385357600080fd5b50565b6000813590506138658161383f565b92915050565b600067ffffffffffffffff82111561388657613885613516565b5b602082029050602081019050919050565b6000819050919050565b6138aa81613897565b81146138b557600080fd5b50565b6000813590506138c7816138a1565b92915050565b60006138e06138db8461386b565b613576565b90508083825260208201905060208402830185811115613903576139026135b7565b5b835b8181101561392c578061391888826138b8565b845260208401935050602081019050613905565b5050509392505050565b600082601f83011261394b5761394a613511565b5b813561395b8482602086016138cd565b91505092915050565b60008060006060848603121561397d5761397c61317d565b5b600061398b86828701613856565b935050602061399c868287016133d3565b925050604084013567ffffffffffffffff8111156139bd576139bc613182565b5b6139c986828701613936565b9150509250925092565b600080604083850312156139ea576139e961317d565b5b60006139f8858286016133d3565b9250506020613a09858286016133d3565b9150509250929050565b600067ffffffffffffffff821115613a2e57613a2d613516565b5b602082029050602081019050919050565b600080fd5b600080fd5b600067ffffffffffffffff821115613a6457613a63613516565b5b613a6d82613291565b9050602081019050919050565b6000613a8d613a8884613a49565b613576565b905082815260208101848484011115613aa957613aa86136f5565b5b613ab484828561372b565b509392505050565b600082601f830112613ad157613ad0613511565b5b8135613ae1848260208601613a7a565b91505092915050565b600060408284031215613b0057613aff613a3f565b5b613b0a6040613576565b9050600082013567ffffffffffffffff811115613b2a57613b29613a44565b5b613b3684828501613abc565b6000830152506020613b4a8482850161331e565b60208301525092915050565b6000613b69613b6484613a13565b613576565b90508083825260208201905060208402830185811115613b8c57613b8b6135b7565b5b835b81811015613bd357803567ffffffffffffffff811115613bb157613bb0613511565b5b808601613bbe8982613aea565b85526020850194505050602081019050613b8e565b5050509392505050565b600082601f830112613bf257613bf1613511565b5b8135613c02848260208601613b56565b91505092915050565b60008060008060808587031215613c2557613c2461317d565b5b6000613c338782880161331e565b9450506020613c448782880161331e565b9350506040613c55878288016138b8565b925050606085013567ffffffffffffffff811115613c7657613c75613182565b5b613c8287828801613bdd565b91505092959194509250565b60008060006103408486031215613ca857613ca761317d565b5b6000613cb68682870161331e565b9350506020613cc78682870161331e565b9250506040613cd88682870161361c565b9150509250925092565b7f4e487b7100000000000000000000000000000000000000000000000000000000600052602260045260246000fd5b60006002820490506001821680613d2957607f821691505b60208210811415613d3d57613d3c613ce2565b5b50919050565b7f4552433732313a20617070726f76616c20746f2063757272656e74206f776e6560008201527f7200000000000000000000000000000000000000000000000000000000000000602082015250565b6000613d9f60218361324d565b9150613daa82613d43565b604082019050919050565b60006020820190508181036000830152613dce81613d92565b9050919050565b7f4552433732313a20617070726f76652063616c6c6572206973206e6f7420746f60008201527f6b656e206f776e6572206e6f7220617070726f76656420666f7220616c6c0000602082015250565b6000613e31603e8361324d565b9150613e3c82613dd5565b604082019050919050565b60006020820190508181036000830152613e6081613e24565b9050919050565b6000604082019050613e7c6000830185613392565b613e896020830184613494565b9392505050565b600081519050613e9f81613428565b92915050565b600060208284031215613ebb57613eba61317d565b5b6000613ec984828501613e90565b91505092915050565b7f796f7520617265206e6f74206576656e742067726f7570206f776e6572000000600082015250565b6000613f08601d8361324d565b9150613f1382613ed2565b602082019050919050565b60006020820190508181036000830152613f3781613efb565b9050919050565b7f4552433732313a2063616c6c6572206973206e6f7420746f6b656e206f776e6560008201527f72206e6f7220617070726f766564000000000000000000000000000000000000602082015250565b6000613f9a602e8361324d565b9150613fa582613f3e565b604082019050919050565b60006020820190508181036000830152613fc981613f8d565b9050919050565b7f455243373231456e756d657261626c653a206f776e657220696e646578206f7560008201527f74206f6620626f756e6473000000000000000000000000000000000000000000602082015250565b600061402c602b8361324d565b915061403782613fd0565b604082019050919050565b6000602082019050818103600083015261405b8161401f565b9050919050565b7f696e76616c696420736563726574207068726173650000000000000000000000600082015250565b600061409860158361324d565b91506140a382614062565b602082019050919050565b600060208201905081810360008301526140c78161408b565b9050919050565b7f72656d61696e696e6720636f756e74206973207a65726f000000000000000000600082015250565b600061410460178361324d565b915061410f826140ce565b602082019050919050565b60006020820190508181036000830152614133816140f7565b9050919050565b7f616c7265616479206d696e746564000000000000000000000000000000000000600082015250565b6000614170600e8361324d565b915061417b8261413a565b602082019050919050565b6000602082019050818103600083015261419f81614163565b9050919050565b7f6d696e74206973206c6f636b6564000000000000000000000000000000000000600082015250565b60006141dc600e8361324d565b91506141e7826141a6565b602082019050919050565b6000602082019050818103600083015261420b816141cf565b9050919050565b7f455243373231456e756d657261626c653a20676c6f62616c20696e646578206f60008201527f7574206f6620626f756e64730000000000000000000000000000000000000000602082015250565b600061426e602c8361324d565b915061427982614212565b604082019050919050565b6000602082019050818103600083015261429d81614261565b9050919050565b7f4e487b7100000000000000000000000000000000000000000000000000000000600052603260045260246000fd5b7f4552433732313a20696e76616c696420746f6b656e2049440000000000000000600082015250565b600061430960188361324d565b9150614314826142d3565b602082019050919050565b60006020820190508181036000830152614338816142fc565b9050919050565b7f4552433732313a2061646472657373207a65726f206973206e6f74206120766160008201527f6c6964206f776e65720000000000000000000000000000000000000000000000602082015250565b600061439b60298361324d565b91506143a68261433f565b604082019050919050565b600060208201905081810360008301526143ca8161438e565b9050919050565b7f6576656e74206d616e61676572206164647265737320697320626c616e6b0000600082015250565b6000614407601e8361324d565b9150614412826143d1565b602082019050919050565b60006020820190508181036000830152614436816143fa565b9050919050565b7f496e697469616c697a61626c653a20636f6e747261637420697320616c72656160008201527f647920696e697469616c697a6564000000000000000000000000000000000000602082015250565b6000614499602e8361324d565b91506144a48261443d565b604082019050919050565b600060208201905081810360008301526144c88161448c565b9050919050565b7f4e487b7100000000000000000000000000000000000000000000000000000000600052601160045260246000fd5b6000614509826132fd565b9150614514836132fd565b9250827fffffffffffffffffffffffffffffffffffffffffffffffffffffffffffffffff03821115614549576145486144cf565b5b828201905092915050565b600061455f826132fd565b91507fffffffffffffffffffffffffffffffffffffffffffffffffffffffffffffffff821415614592576145916144cf565b5b600182019050919050565b600060ff82169050919050565b6145b38161459d565b82525050565b60006020820190506145ce60008301846145aa565b92915050565b7f756e617574686f72697a65640000000000000000000000000000000000000000600082015250565b600061460a600c8361324d565b9150614615826145d4565b602082019050919050565b60006020820190508181036000830152614639816145fd565b9050919050565b7f4f776e61626c653a206e6577206f776e657220697320746865207a65726f206160008201527f6464726573730000000000000000000000000000000000000000000000000000602082015250565b600061469c60268361324d565b91506146a782614640565b604082019050919050565b600060208201905081810360008301526146cb8161468f565b9050919050565b60006146dd826132fd565b91506146e8836132fd565b9250828210156146fb576146fa6144cf565b5b828203905092915050565b600060189050919050565b600081905092915050565b6000819050919050565b61472f816132fd565b82525050565b60006147418383614726565b60208301905092915050565b6000602082019050919050565b61476381614706565b61476d8184614711565b92506147788261471c565b8060005b838110156147a95781516147908782614735565b965061479b8361474d565b92505060018101905061477c565b505050505050565b6000610320820190506147c7600083018561475a565b6147d5610300830184613494565b9392505050565b600081905092915050565b50565b60006147f76000836147dc565b9150614802826147e7565b600082019050919050565b6000614818826147ea565b9150819050919050565b600061482d82613242565b61483781856147dc565b935061484781856020860161325e565b80840191505092915050565b600061485f8284614822565b915081905092915050565b7f4552433732313a207472616e736665722066726f6d20696e636f72726563742060008201527f6f776e6572000000000000000000000000000000000000000000000000000000602082015250565b60006148c660258361324d565b91506148d18261486a565b604082019050919050565b600060208201905081810360008301526148f5816148b9565b9050919050565b7f4552433732313a207472616e7366657220746f20746865207a65726f2061646460008201527f7265737300000000000000000000000000000000000000000000000000000000602082015250565b600061495860248361324d565b9150614963826148fc565b604082019050919050565b600060208201905081810360008301526149878161494b565b9050919050565b7f4f776e61626c653a2063616c6c6572206973206e6f7420746865206f776e6572600082015250565b60006149c460208361324d565b91506149cf8261498e565b602082019050919050565b600060208201905081810360008301526149f3816149b7565b9050919050565b600060019050919050565b600081905092915050565b6000819050919050565b6000602082019050919050565b614a30816149fa565b614a3a8184614a05565b9250614a4582614a10565b8060005b83811015614a76578151614a5d8782614735565b9650614a6883614a1a565b925050600181019050614a49565b505050505050565b600061034082019050614a94600083018661475a565b614aa2610300830185614a27565b614ab0610320830184613494565b949350505050565b7f4552433732313a20617070726f766520746f2063616c6c657200000000000000600082015250565b6000614aee60198361324d565b9150614af982614ab8565b602082019050919050565b60006020820190508181036000830152614b1d81614ae1565b9050919050565b7f4552433732313a207472616e7366657220746f206e6f6e20455243373231526560008201527f63656976657220696d706c656d656e7465720000000000000000000000000000602082015250565b6000614b8060328361324d565b9150614b8b82614b24565b604082019050919050565b60006020820190508181036000830152614baf81614b73565b9050919050565b7f496e697469616c697a61626c653a20636f6e7472616374206973206e6f74206960008201527f6e697469616c697a696e67000000000000000000000000000000000000000000602082015250565b6000614c12602b8361324d565b9150614c1d82614bb6565b604082019050919050565b60006020820190508181036000830152614c4181614c05565b9050919050565b60008160601b9050919050565b6000614c6082614c48565b9050919050565b6000614c7282614c55565b9050919050565b614c8a614c8582613380565b614c67565b82525050565b6000819050919050565b614cab614ca6826132fd565b614c90565b82525050565b6000614cbd8285614c79565b601482019150614ccd8284614c9a565b6020820191508190509392505050565b6000614ce98285614c9a565b602082019150614cf98284614c9a565b6020820191508190509392505050565b600081519050919050565b600082825260208201905092915050565b6000614d3082614d09565b614d3a8185614d14565b9350614d4a81856020860161325e565b614d5381613291565b840191505092915050565b6000608082019050614d736000830187613392565b614d806020830186613392565b614d8d6040830185613494565b8181036060830152614d9f8184614d25565b905095945050505050565b600081519050614db9816131b3565b92915050565b600060208284031215614dd557614dd461317d565b5b6000614de384828501614daa565b91505092915050565b7f4e487b7100000000000000000000000000000000000000000000000000000000600052603160045260246000fd5b7f4552433732313a206d696e7420746f20746865207a65726f2061646472657373600082015250565b6000614e5160208361324d565b9150614e5c82614e1b565b602082019050919050565b60006020820190508181036000830152614e8081614e44565b9050919050565b7f4552433732313a20746f6b656e20616c7265616479206d696e74656400000000600082015250565b6000614ebd601c8361324d565b9150614ec882614e87565b602082019050919050565b60006020820190508181036000830152614eec81614eb0565b905091905056fea2646970667358221220d676f82b419927043ebe3fdc142ddabc35d46fc2df9d2cfe1d36dcf7a1e0365964736f6c63430008090033",
  "linkReferences": {},
  "deployedLinkReferences": {}
}