{
  "_format": "hh-sol-artifact-1",
  "contractName": "MintNFT",
  "sourceName": "contracts/MintNFT.sol",
  "abi": [
    {
      "anonymous": false,
      "inputs": [
        {
          "indexed": true,
          "internalType": "address",
          "name": "owner",
          "type": "address"
        },
        {
          "indexed": true,
          "internalType": "address",
          "name": "approved",
          "type": "address"
        },
        {
          "indexed": true,
          "internalType": "uint256",
          "name": "tokenId",
          "type": "uint256"
        }
      ],
      "name": "Approval",
      "type": "event"
    },
    {
      "anonymous": false,
      "inputs": [
        {
          "indexed": true,
          "internalType": "address",
          "name": "owner",
          "type": "address"
        },
        {
          "indexed": true,
          "internalType": "address",
          "name": "operator",
          "type": "address"
        },
        {
          "indexed": false,
          "internalType": "bool",
          "name": "approved",
          "type": "bool"
        }
      ],
      "name": "ApprovalForAll",
      "type": "event"
    },
    {
      "anonymous": false,
      "inputs": [
        {
          "indexed": false,
          "internalType": "uint8",
          "name": "version",
          "type": "uint8"
        }
      ],
      "name": "Initialized",
      "type": "event"
    },
    {
      "anonymous": false,
      "inputs": [
        {
          "indexed": true,
          "internalType": "address",
          "name": "holder",
          "type": "address"
        },
        {
          "indexed": false,
          "internalType": "string",
          "name": "url",
          "type": "string"
        }
      ],
      "name": "MintedNFTAttributeURL",
      "type": "event"
    },
    {
      "anonymous": false,
      "inputs": [
        {
          "indexed": true,
          "internalType": "address",
          "name": "previousOwner",
          "type": "address"
        },
        {
          "indexed": true,
          "internalType": "address",
          "name": "newOwner",
          "type": "address"
        }
      ],
      "name": "OwnershipTransferred",
      "type": "event"
    },
    {
      "anonymous": false,
      "inputs": [
        {
          "indexed": true,
          "internalType": "address",
          "name": "from",
          "type": "address"
        },
        {
          "indexed": true,
          "internalType": "address",
          "name": "to",
          "type": "address"
        },
        {
          "indexed": true,
          "internalType": "uint256",
          "name": "tokenId",
          "type": "uint256"
        }
      ],
      "name": "Transfer",
      "type": "event"
    },
    {
      "inputs": [
        {
          "internalType": "address",
          "name": "to",
          "type": "address"
        },
        {
          "internalType": "uint256",
          "name": "tokenId",
          "type": "uint256"
        }
      ],
      "name": "approve",
      "outputs": [],
      "stateMutability": "nonpayable",
      "type": "function"
    },
    {
      "inputs": [
        {
          "internalType": "address",
          "name": "owner",
          "type": "address"
        }
      ],
      "name": "balanceOf",
      "outputs": [
        {
          "internalType": "uint256",
          "name": "",
          "type": "uint256"
        }
      ],
      "stateMutability": "view",
      "type": "function"
    },
    {
      "inputs": [
        {
          "internalType": "uint256",
          "name": "tokenId",
          "type": "uint256"
        }
      ],
      "name": "burn",
      "outputs": [],
      "stateMutability": "nonpayable",
      "type": "function"
    },
    {
      "inputs": [
        {
          "internalType": "uint256",
          "name": "tokenId",
          "type": "uint256"
        }
      ],
      "name": "getApproved",
      "outputs": [
        {
          "internalType": "address",
          "name": "",
          "type": "address"
        }
      ],
      "stateMutability": "view",
      "type": "function"
    },
    {
      "inputs": [
        {
          "internalType": "uint256",
          "name": "_eventId",
          "type": "uint256"
        }
      ],
      "name": "getRemainingNFTCount",
      "outputs": [
        {
          "internalType": "uint256",
          "name": "",
          "type": "uint256"
        }
      ],
      "stateMutability": "view",
      "type": "function"
    },
    {
      "inputs": [
        {
          "internalType": "contract MinimalForwarderUpgradeable",
          "name": "trustedForwarder",
          "type": "address"
        }
      ],
      "name": "initialize",
      "outputs": [],
      "stateMutability": "nonpayable",
      "type": "function"
    },
    {
      "inputs": [
        {
          "internalType": "address",
          "name": "owner",
          "type": "address"
        },
        {
          "internalType": "address",
          "name": "operator",
          "type": "address"
        }
      ],
      "name": "isApprovedForAll",
      "outputs": [
        {
          "internalType": "bool",
          "name": "",
          "type": "bool"
        }
      ],
      "stateMutability": "view",
      "type": "function"
    },
    {
      "inputs": [
        {
          "internalType": "address",
          "name": "forwarder",
          "type": "address"
        }
      ],
      "name": "isTrustedForwarder",
      "outputs": [
        {
          "internalType": "bool",
          "name": "",
          "type": "bool"
        }
      ],
      "stateMutability": "view",
      "type": "function"
    },
    {
      "inputs": [
        {
          "internalType": "uint256",
          "name": "_groupId",
          "type": "uint256"
        },
        {
          "internalType": "uint256",
          "name": "_eventId",
          "type": "uint256"
        },
        {
          "internalType": "string",
          "name": "_secretPhrase",
          "type": "string"
        }
      ],
      "name": "mintParticipateNFT",
      "outputs": [],
      "stateMutability": "nonpayable",
      "type": "function"
    },
    {
      "inputs": [],
      "name": "name",
      "outputs": [
        {
          "internalType": "string",
          "name": "",
          "type": "string"
        }
      ],
      "stateMutability": "view",
      "type": "function"
    },
    {
      "inputs": [],
      "name": "owner",
      "outputs": [
        {
          "internalType": "address",
          "name": "",
          "type": "address"
        }
      ],
      "stateMutability": "view",
      "type": "function"
    },
    {
      "inputs": [
        {
          "internalType": "uint256",
          "name": "tokenId",
          "type": "uint256"
        }
      ],
      "name": "ownerOf",
      "outputs": [
        {
          "internalType": "address",
          "name": "",
          "type": "address"
        }
      ],
      "stateMutability": "view",
      "type": "function"
    },
    {
      "inputs": [],
      "name": "renounceOwnership",
      "outputs": [],
      "stateMutability": "nonpayable",
      "type": "function"
    },
    {
      "inputs": [
        {
          "internalType": "address",
          "name": "from",
          "type": "address"
        },
        {
          "internalType": "address",
          "name": "to",
          "type": "address"
        },
        {
          "internalType": "uint256",
          "name": "tokenId",
          "type": "uint256"
        }
      ],
      "name": "safeTransferFrom",
      "outputs": [],
      "stateMutability": "nonpayable",
      "type": "function"
    },
    {
      "inputs": [
        {
          "internalType": "address",
          "name": "from",
          "type": "address"
        },
        {
          "internalType": "address",
          "name": "to",
          "type": "address"
        },
        {
          "internalType": "uint256",
          "name": "tokenId",
          "type": "uint256"
        },
        {
          "internalType": "bytes",
          "name": "data",
          "type": "bytes"
        }
      ],
      "name": "safeTransferFrom",
      "outputs": [],
      "stateMutability": "nonpayable",
      "type": "function"
    },
    {
      "inputs": [
        {
          "internalType": "address",
          "name": "operator",
          "type": "address"
        },
        {
          "internalType": "bool",
          "name": "approved",
          "type": "bool"
        }
      ],
      "name": "setApprovalForAll",
      "outputs": [],
      "stateMutability": "nonpayable",
      "type": "function"
    },
    {
      "inputs": [
        {
          "internalType": "uint256",
          "name": "_eventId",
          "type": "uint256"
        },
        {
          "internalType": "uint256",
          "name": "_mintLimit",
          "type": "uint256"
        },
        {
          "internalType": "bytes32",
          "name": "_secretPhrase",
          "type": "bytes32"
        },
        {
          "components": [
            {
              "internalType": "string",
              "name": "metaDataURL",
              "type": "string"
            },
            {
              "internalType": "uint256",
              "name": "requiredParticipateCount",
              "type": "uint256"
            }
          ],
          "internalType": "struct MintNFT.NFTAttribute[]",
          "name": "attributes",
          "type": "tuple[]"
        }
      ],
      "name": "setEventInfo",
      "outputs": [],
      "stateMutability": "nonpayable",
      "type": "function"
    },
    {
      "inputs": [
        {
          "internalType": "address",
          "name": "_eventManagerAddr",
          "type": "address"
        }
      ],
      "name": "setEventManagerAddr",
      "outputs": [],
      "stateMutability": "nonpayable",
      "type": "function"
    },
    {
      "inputs": [
        {
          "internalType": "bytes4",
          "name": "interfaceId",
          "type": "bytes4"
        }
      ],
      "name": "supportsInterface",
      "outputs": [
        {
          "internalType": "bool",
          "name": "",
          "type": "bool"
        }
      ],
      "stateMutability": "view",
      "type": "function"
    },
    {
      "inputs": [],
      "name": "symbol",
      "outputs": [
        {
          "internalType": "string",
          "name": "",
          "type": "string"
        }
      ],
      "stateMutability": "view",
      "type": "function"
    },
    {
      "inputs": [
        {
          "internalType": "uint256",
          "name": "index",
          "type": "uint256"
        }
      ],
      "name": "tokenByIndex",
      "outputs": [
        {
          "internalType": "uint256",
          "name": "",
          "type": "uint256"
        }
      ],
      "stateMutability": "view",
      "type": "function"
    },
    {
      "inputs": [
        {
          "internalType": "address",
          "name": "owner",
          "type": "address"
        },
        {
          "internalType": "uint256",
          "name": "index",
          "type": "uint256"
        }
      ],
      "name": "tokenOfOwnerByIndex",
      "outputs": [
        {
          "internalType": "uint256",
          "name": "",
          "type": "uint256"
        }
      ],
      "stateMutability": "view",
      "type": "function"
    },
    {
      "inputs": [
        {
          "internalType": "uint256",
          "name": "_tokenId",
          "type": "uint256"
        }
      ],
      "name": "tokenURI",
      "outputs": [
        {
          "internalType": "string",
          "name": "",
          "type": "string"
        }
      ],
      "stateMutability": "view",
      "type": "function"
    },
    {
      "inputs": [],
      "name": "totalSupply",
      "outputs": [
        {
          "internalType": "uint256",
          "name": "",
          "type": "uint256"
        }
      ],
      "stateMutability": "view",
      "type": "function"
    },
    {
      "inputs": [
        {
          "internalType": "address",
          "name": "from",
          "type": "address"
        },
        {
          "internalType": "address",
          "name": "to",
          "type": "address"
        },
        {
          "internalType": "uint256",
          "name": "tokenId",
          "type": "uint256"
        }
      ],
      "name": "transferFrom",
      "outputs": [],
      "stateMutability": "nonpayable",
      "type": "function"
    },
    {
      "inputs": [
        {
          "internalType": "address",
          "name": "newOwner",
          "type": "address"
        }
      ],
      "name": "transferOwnership",
      "outputs": [],
      "stateMutability": "nonpayable",
      "type": "function"
    }
  ],
  "bytecode": "0x608060405234801561001057600080fd5b506145a4806100206000396000f3fe608060405234801561001057600080fd5b506004361061018e5760003560e01c806370a08231116100de578063a22cb46511610097578063c87b56dd11610071578063c87b56dd14610491578063e985e9c5146104c1578063ef3ad9eb146104f1578063f2fde38b1461050d5761018e565b8063a22cb4651461043d578063b88d4fde14610459578063c4d66de8146104755761018e565b806370a082311461038f578063715018a6146103bf57806372746a8d146103c95780638da5cb5b146103e55780639041e3f41461040357806395d89b411461041f5761018e565b80632f745c591161014b5780634f6ccce7116101255780634f6ccce7146102cf5780634ffc9f4b146102ff578063572b6c051461032f5780636352211e1461035f5761018e565b80632f745c591461026757806342842e0e1461029757806342966c68146102b35761018e565b806301ffc9a71461019357806306fdde03146101c3578063081812fc146101e1578063095ea7b31461021157806318160ddd1461022d57806323b872dd1461024b575b600080fd5b6101ad60048036038101906101a89190612d17565b610529565b6040516101ba9190612d5f565b60405180910390f35b6101cb6105a3565b6040516101d89190612e13565b60405180910390f35b6101fb60048036038101906101f69190612e6b565b610635565b6040516102089190612ed9565b60405180910390f35b61022b60048036038101906102269190612f20565b61067b565b005b610235610793565b6040516102429190612f6f565b60405180910390f35b61026560048036038101906102609190612f8a565b6107a0565b005b610281600480360381019061027c9190612f20565b610800565b60405161028e9190612f6f565b60405180910390f35b6102b160048036038101906102ac9190612f8a565b6108a5565b005b6102cd60048036038101906102c89190612e6b565b6108c5565b005b6102e960048036038101906102e49190612e6b565b6108d9565b6040516102f69190612f6f565b60405180910390f35b61031960048036038101906103149190612e6b565b61094a565b6040516103269190612f6f565b60405180910390f35b61034960048036038101906103449190612fdd565b610968565b6040516103569190612d5f565b60405180910390f35b61037960048036038101906103749190612e6b565b6109c2565b6040516103869190612ed9565b60405180910390f35b6103a960048036038101906103a49190612fdd565b610a74565b6040516103b69190612f6f565b60405180910390f35b6103c7610b2c565b005b6103e360048036038101906103de919061313f565b610b40565b005b6103ed610f79565b6040516103fa9190612ed9565b60405180910390f35b61041d60048036038101906104189190612fdd565b610fa3565b005b610427611060565b6040516104349190612e13565b60405180910390f35b610457600480360381019061045291906131da565b6110f2565b005b610473600480360381019061046e91906132bb565b611108565b005b61048f600480360381019061048a919061337c565b61116a565b005b6104ab60048036038101906104a69190612e6b565b611326565b6040516104b89190612e13565b60405180910390f35b6104db60048036038101906104d691906133a9565b6113d2565b6040516104e89190612d5f565b60405180910390f35b61050b6004803603810190610506919061357b565b611466565b005b61052760048036038101906105229190612fdd565b6115c4565b005b60007f780e9d63000000000000000000000000000000000000000000000000000000007bffffffffffffffffffffffffffffffffffffffffffffffffffffffff1916827bffffffffffffffffffffffffffffffffffffffffffffffffffffffff1916148061059c575061059b82611648565b5b9050919050565b6060606580546105b29061362d565b80601f01602080910402602001604051908101604052809291908181526020018280546105de9061362d565b801561062b5780601f106106005761010080835404028352916020019161062b565b820191906000526020600020905b81548152906001019060200180831161060e57829003601f168201915b5050505050905090565b60006106408261172a565b6069600083815260200190815260200160002060009054906101000a900473ffffffffffffffffffffffffffffffffffffffff169050919050565b6000610686826109c2565b90508073ffffffffffffffffffffffffffffffffffffffff168373ffffffffffffffffffffffffffffffffffffffff1614156106f7576040517f08c379a00000000000000000000000000000000000000000000000000000000081526004016106ee906136d1565b60405180910390fd5b8073ffffffffffffffffffffffffffffffffffffffff16610716611775565b73ffffffffffffffffffffffffffffffffffffffff16148061074557506107448161073f611775565b6113d2565b5b610784576040517f08c379a000000000000000000000000000000000000000000000000000000000815260040161077b90613763565b60405180910390fd5b61078e83836117a7565b505050565b6000609980549050905090565b6107b16107ab611775565b82611860565b6107f0576040517f08c379a00000000000000000000000000000000000000000000000000000000081526004016107e7906137f5565b60405180910390fd5b6107fb8383836118f5565b505050565b600061080b83610a74565b821061084c576040517f08c379a000000000000000000000000000000000000000000000000000000000815260040161084390613887565b60405180910390fd5b609760008473ffffffffffffffffffffffffffffffffffffffff1673ffffffffffffffffffffffffffffffffffffffff168152602001908152602001600020600083815260200190815260200160002054905092915050565b6108c083838360405180602001604052806000815250611108565b505050565b6108cd611b5c565b6108d681611bda565b50565b60006108e3610793565b8210610924576040517f08c379a000000000000000000000000000000000000000000000000000000000815260040161091b90613919565b60405180910390fd5b6099828154811061093857610937613939565b5b90600052602060002001549050919050565b60006101346000838152602001908152602001600020549050919050565b600060c960009054906101000a900473ffffffffffffffffffffffffffffffffffffffff1673ffffffffffffffffffffffffffffffffffffffff168273ffffffffffffffffffffffffffffffffffffffff16149050919050565b6000806067600084815260200190815260200160002060009054906101000a900473ffffffffffffffffffffffffffffffffffffffff169050600073ffffffffffffffffffffffffffffffffffffffff168173ffffffffffffffffffffffffffffffffffffffff161415610a6b576040517f08c379a0000000000000000000000000000000000000000000000000000000008152600401610a62906139b4565b60405180910390fd5b80915050919050565b60008073ffffffffffffffffffffffffffffffffffffffff168273ffffffffffffffffffffffffffffffffffffffff161415610ae5576040517f08c379a0000000000000000000000000000000000000000000000000000000008152600401610adc90613a46565b60405180910390fd5b606860008373ffffffffffffffffffffffffffffffffffffffff1673ffffffffffffffffffffffffffffffffffffffff168152602001908152602001600020549050919050565b610b34611b5c565b610b3e6000611cf7565b565b610b4a8183611dbd565b610b89576040517f08c379a0000000000000000000000000000000000000000000000000000000008152600401610b8090613ab2565b60405180910390fd5b60006101346000848152602001908152602001600020541415610be1576040517f08c379a0000000000000000000000000000000000000000000000000000000008152600401610bd890613b1e565b60405180910390fd5b6000610bf4610bee611775565b84611df0565b90506000610131600083815260200190815260200160002060009054906101000a900460ff1690508015610c5d576040517f08c379a0000000000000000000000000000000000000000000000000000000008152600401610c5490613b8a565b60405180910390fd5b6001610131600084815260200190815260200160002060006101000a81548160ff0219169083151502179055506000610c9d610c97611775565b87611df0565b90506000610132600083815260200190815260200160002054905060006101336000610cca896000611e23565b81526020019081526020016000208054610ce39061362d565b80601f0160208091040260200160405190810160405280929190818152602001828054610d0f9061362d565b8015610d5c5780601f10610d3157610100808354040283529160200191610d5c565b820191906000526020600020905b815481529060010190602001808311610d3f57829003601f168201915b5050505050905060006101336000610d748a86611e23565b81526020019081526020016000208054610d8d9061362d565b80601f0160208091040260200160405190810160405280929190818152602001828054610db99061362d565b8015610e065780601f10610ddb57610100808354040283529160200191610e06565b820191906000526020600020905b815481529060010190602001808311610de957829003601f168201915b50505050509050604051602001610e1c90613bdb565b6040516020818303038152906040528051906020012081604051602001610e439190613c21565b6040516020818303038152906040528051906020012014610e62578091505b816101306000610e7361012e611e56565b81526020019081526020016000209080519060200190610e94929190612c08565b50610eb0610ea0611775565b610eab61012e611e56565b611e64565b600183610ebd9190613c67565b610132600086815260200190815260200160002081905550600161013460008a815260200190815260200160002054610ef69190613cbd565b61013460008a815260200190815260200160002081905550610f1961012e611e82565b610f21611775565b73ffffffffffffffffffffffffffffffffffffffff167faf2fad1984d2c7abaa9300537cf9fe1bcfaf2d6226e4ffdf03522dbf3064808e83604051610f669190612e13565b60405180910390a2505050505050505050565b600060fc60009054906101000a900473ffffffffffffffffffffffffffffffffffffffff16905090565b610fab611b5c565b600073ffffffffffffffffffffffffffffffffffffffff168173ffffffffffffffffffffffffffffffffffffffff16141561101b576040517f08c379a000000000000000000000000000000000000000000000000000000000815260040161101290613d3d565b60405180910390fd5b8061012f60006101000a81548173ffffffffffffffffffffffffffffffffffffffff021916908373ffffffffffffffffffffffffffffffffffffffff16021790555050565b60606066805461106f9061362d565b80601f016020809104026020016040519081016040528092919081815260200182805461109b9061362d565b80156110e85780601f106110bd576101008083540402835291602001916110e8565b820191906000526020600020905b8154815290600101906020018083116110cb57829003601f168201915b5050505050905090565b6111046110fd611775565b8383611e98565b5050565b611119611113611775565b83611860565b611158576040517f08c379a000000000000000000000000000000000000000000000000000000000815260040161114f906137f5565b60405180910390fd5b61116484848484612005565b50505050565b60008060019054906101000a900460ff1615905080801561119b5750600160008054906101000a900460ff1660ff16105b806111c857506111aa30612061565b1580156111c75750600160008054906101000a900460ff1660ff16145b5b611207576040517f08c379a00000000000000000000000000000000000000000000000000000000081526004016111fe90613dcf565b60405180910390fd5b60016000806101000a81548160ff021916908360ff1602179055508015611244576001600060016101000a81548160ff0219169083151502179055505b6112b86040518060400160405280600981526020017f4d696e7452616c6c7900000000000000000000000000000000000000000000008152506040518060400160405280600281526020017f4d52000000000000000000000000000000000000000000000000000000000000815250612084565b6112c06120e1565b6112c98261213a565b80156113225760008060016101000a81548160ff0219169083151502179055507f7f26b83ff96e1f2b6a682f133852f6798a09c465da95921460cefb384740249860016040516113199190613e41565b60405180910390a15b5050565b60606000610130600084815260200190815260200160002080546113499061362d565b80601f01602080910402602001604051908101604052809291908181526020018280546113759061362d565b80156113c25780601f10611397576101008083540402835291602001916113c2565b820191906000526020600020905b8154815290600101906020018083116113a557829003601f168201915b5050505050905080915050919050565b6000606a60008473ffffffffffffffffffffffffffffffffffffffff1673ffffffffffffffffffffffffffffffffffffffff16815260200190815260200160002060008373ffffffffffffffffffffffffffffffffffffffff1673ffffffffffffffffffffffffffffffffffffffff16815260200190815260200160002060009054906101000a900460ff16905092915050565b61012f60009054906101000a900473ffffffffffffffffffffffffffffffffffffffff1673ffffffffffffffffffffffffffffffffffffffff166114a8611775565b73ffffffffffffffffffffffffffffffffffffffff16146114fe576040517f08c379a00000000000000000000000000000000000000000000000000000000081526004016114f590613ea8565b60405180910390fd5b826101346000868152602001908152602001600020819055508161013560008681526020019081526020016000208190555060005b81518110156115bd5781818151811061154f5761154e613939565b5b60200260200101516000015161013360006115888886868151811061157757611576613939565b5b602002602001015160200151611e23565b815260200190815260200160002090805190602001906115a9929190612c08565b5080806115b590613ec8565b915050611533565b5050505050565b6115cc611b5c565b600073ffffffffffffffffffffffffffffffffffffffff168173ffffffffffffffffffffffffffffffffffffffff16141561163c576040517f08c379a000000000000000000000000000000000000000000000000000000000815260040161163390613f83565b60405180910390fd5b61164581611cf7565b50565b60007f80ac58cd000000000000000000000000000000000000000000000000000000007bffffffffffffffffffffffffffffffffffffffffffffffffffffffff1916827bffffffffffffffffffffffffffffffffffffffffffffffffffffffff1916148061171357507f5b5e139f000000000000000000000000000000000000000000000000000000007bffffffffffffffffffffffffffffffffffffffffffffffffffffffff1916827bffffffffffffffffffffffffffffffffffffffffffffffffffffffff1916145b806117235750611722826121d5565b5b9050919050565b6117338161223f565b611772576040517f08c379a0000000000000000000000000000000000000000000000000000000008152600401611769906139b4565b60405180910390fd5b50565b600061178033610968565b1561179457601436033560601c90506117a3565b61179c6122ab565b90506117a4565b5b90565b816069600083815260200190815260200160002060006101000a81548173ffffffffffffffffffffffffffffffffffffffff021916908373ffffffffffffffffffffffffffffffffffffffff160217905550808273ffffffffffffffffffffffffffffffffffffffff1661181a836109c2565b73ffffffffffffffffffffffffffffffffffffffff167f8c5be1e5ebec7d5bd14f71427d1e84f3dd0314c0f7b2291e5b200ac8c7c3b92560405160405180910390a45050565b60008061186c836109c2565b90508073ffffffffffffffffffffffffffffffffffffffff168473ffffffffffffffffffffffffffffffffffffffff1614806118ae57506118ad81856113d2565b5b806118ec57508373ffffffffffffffffffffffffffffffffffffffff166118d484610635565b73ffffffffffffffffffffffffffffffffffffffff16145b91505092915050565b8273ffffffffffffffffffffffffffffffffffffffff16611915826109c2565b73ffffffffffffffffffffffffffffffffffffffff161461196b576040517f08c379a000000000000000000000000000000000000000000000000000000000815260040161196290614015565b60405180910390fd5b600073ffffffffffffffffffffffffffffffffffffffff168273ffffffffffffffffffffffffffffffffffffffff1614156119db576040517f08c379a00000000000000000000000000000000000000000000000000000000081526004016119d2906140a7565b60405180910390fd5b6119e68383836122dd565b6119f16000826117a7565b6001606860008573ffffffffffffffffffffffffffffffffffffffff1673ffffffffffffffffffffffffffffffffffffffff1681526020019081526020016000206000828254611a419190613cbd565b925050819055506001606860008473ffffffffffffffffffffffffffffffffffffffff1673ffffffffffffffffffffffffffffffffffffffff1681526020019081526020016000206000828254611a989190613c67565b92505081905550816067600083815260200190815260200160002060006101000a81548173ffffffffffffffffffffffffffffffffffffffff021916908373ffffffffffffffffffffffffffffffffffffffff160217905550808273ffffffffffffffffffffffffffffffffffffffff168473ffffffffffffffffffffffffffffffffffffffff167fddf252ad1be2c89b69c2b068fc378daa952ba7f163c4a11628f55a4df523b3ef60405160405180910390a4611b578383836123f1565b505050565b611b64611775565b73ffffffffffffffffffffffffffffffffffffffff16611b82610f79565b73ffffffffffffffffffffffffffffffffffffffff1614611bd8576040517f08c379a0000000000000000000000000000000000000000000000000000000008152600401611bcf90614113565b60405180910390fd5b565b6000611be5826109c2565b9050611bf3816000846122dd565b611bfe6000836117a7565b6001606860008373ffffffffffffffffffffffffffffffffffffffff1673ffffffffffffffffffffffffffffffffffffffff1681526020019081526020016000206000828254611c4e9190613cbd565b925050819055506067600083815260200190815260200160002060006101000a81549073ffffffffffffffffffffffffffffffffffffffff021916905581600073ffffffffffffffffffffffffffffffffffffffff168273ffffffffffffffffffffffffffffffffffffffff167fddf252ad1be2c89b69c2b068fc378daa952ba7f163c4a11628f55a4df523b3ef60405160405180910390a4611cf3816000846123f1565b5050565b600060fc60009054906101000a900473ffffffffffffffffffffffffffffffffffffffff1690508160fc60006101000a81548173ffffffffffffffffffffffffffffffffffffffff021916908373ffffffffffffffffffffffffffffffffffffffff1602179055508173ffffffffffffffffffffffffffffffffffffffff168173ffffffffffffffffffffffffffffffffffffffff167f8be0079c531659141344cd1fd0a4f28419497f9722a3daafe3b4186f6b6457e060405160405180910390a35050565b60008083805190602001209050600081610135600086815260200190815260200160002054149050809250505092915050565b60008282604051602001611e0592919061419c565b60405160208183030381529060405280519060200120905092915050565b60008282604051602001611e389291906141c8565b60405160208183030381529060405280519060200120905092915050565b600081600001549050919050565b611e7e8282604051806020016040528060008152506123f6565b5050565b6001816000016000828254019250508190555050565b8173ffffffffffffffffffffffffffffffffffffffff168373ffffffffffffffffffffffffffffffffffffffff161415611f07576040517f08c379a0000000000000000000000000000000000000000000000000000000008152600401611efe90614240565b60405180910390fd5b80606a60008573ffffffffffffffffffffffffffffffffffffffff1673ffffffffffffffffffffffffffffffffffffffff16815260200190815260200160002060008473ffffffffffffffffffffffffffffffffffffffff1673ffffffffffffffffffffffffffffffffffffffff16815260200190815260200160002060006101000a81548160ff0219169083151502179055508173ffffffffffffffffffffffffffffffffffffffff168373ffffffffffffffffffffffffffffffffffffffff167f17307eab39ab6107e8899845ad3d59bd9653f200f220920489ca2b5937696c3183604051611ff89190612d5f565b60405180910390a3505050565b6120108484846118f5565b61201c84848484612451565b61205b576040517f08c379a0000000000000000000000000000000000000000000000000000000008152600401612052906142d2565b60405180910390fd5b50505050565b6000808273ffffffffffffffffffffffffffffffffffffffff163b119050919050565b600060019054906101000a900460ff166120d3576040517f08c379a00000000000000000000000000000000000000000000000000000000081526004016120ca90614364565b60405180910390fd5b6120dd82826125e8565b5050565b600060019054906101000a900460ff16612130576040517f08c379a000000000000000000000000000000000000000000000000000000000815260040161212790614364565b60405180910390fd5b612138612669565b565b600060019054906101000a900460ff16612189576040517f08c379a000000000000000000000000000000000000000000000000000000000815260040161218090614364565b60405180910390fd5b6121916126ca565b8060c960006101000a81548173ffffffffffffffffffffffffffffffffffffffff021916908373ffffffffffffffffffffffffffffffffffffffff16021790555050565b60007f01ffc9a7000000000000000000000000000000000000000000000000000000007bffffffffffffffffffffffffffffffffffffffffffffffffffffffff1916827bffffffffffffffffffffffffffffffffffffffffffffffffffffffff1916149050919050565b60008073ffffffffffffffffffffffffffffffffffffffff166067600084815260200190815260200160002060009054906101000a900473ffffffffffffffffffffffffffffffffffffffff1673ffffffffffffffffffffffffffffffffffffffff1614159050919050565b60006122b633610968565b156122ca57601436033560601c90506122d9565b6122d261271b565b90506122da565b5b90565b6122e8838383612723565b600073ffffffffffffffffffffffffffffffffffffffff168373ffffffffffffffffffffffffffffffffffffffff16141561232b5761232681612728565b61236a565b8173ffffffffffffffffffffffffffffffffffffffff168373ffffffffffffffffffffffffffffffffffffffff1614612369576123688382612771565b5b5b600073ffffffffffffffffffffffffffffffffffffffff168273ffffffffffffffffffffffffffffffffffffffff1614156123ad576123a8816128de565b6123ec565b8273ffffffffffffffffffffffffffffffffffffffff168273ffffffffffffffffffffffffffffffffffffffff16146123eb576123ea82826129af565b5b5b505050565b505050565b6124008383612a2e565b61240d6000848484612451565b61244c576040517f08c379a0000000000000000000000000000000000000000000000000000000008152600401612443906142d2565b60405180910390fd5b505050565b60006124728473ffffffffffffffffffffffffffffffffffffffff16612061565b156125db578373ffffffffffffffffffffffffffffffffffffffff1663150b7a0261249b611775565b8786866040518563ffffffff1660e01b81526004016124bd94939291906143d9565b602060405180830381600087803b1580156124d757600080fd5b505af192505050801561250857506040513d601f19601f82011682018060405250810190612505919061443a565b60015b61258b573d8060008114612538576040519150601f19603f3d011682016040523d82523d6000602084013e61253d565b606091505b50600081511415612583576040517f08c379a000000000000000000000000000000000000000000000000000000000815260040161257a906142d2565b60405180910390fd5b805181602001fd5b63150b7a0260e01b7bffffffffffffffffffffffffffffffffffffffffffffffffffffffff1916817bffffffffffffffffffffffffffffffffffffffffffffffffffffffff1916149150506125e0565b600190505b949350505050565b600060019054906101000a900460ff16612637576040517f08c379a000000000000000000000000000000000000000000000000000000000815260040161262e90614364565b60405180910390fd5b816065908051906020019061264d929190612c08565b508060669080519060200190612664929190612c08565b505050565b600060019054906101000a900460ff166126b8576040517f08c379a00000000000000000000000000000000000000000000000000000000081526004016126af90614364565b60405180910390fd5b6126c86126c3611775565b611cf7565b565b600060019054906101000a900460ff16612719576040517f08c379a000000000000000000000000000000000000000000000000000000000815260040161271090614364565b60405180910390fd5b565b600033905090565b505050565b609980549050609a600083815260200190815260200160002081905550609981908060018154018082558091505060019003906000526020600020016000909190919091505550565b6000600161277e84610a74565b6127889190613cbd565b905060006098600084815260200190815260200160002054905081811461286d576000609760008673ffffffffffffffffffffffffffffffffffffffff1673ffffffffffffffffffffffffffffffffffffffff168152602001908152602001600020600084815260200190815260200160002054905080609760008773ffffffffffffffffffffffffffffffffffffffff1673ffffffffffffffffffffffffffffffffffffffff168152602001908152602001600020600084815260200190815260200160002081905550816098600083815260200190815260200160002081905550505b6098600084815260200190815260200160002060009055609760008573ffffffffffffffffffffffffffffffffffffffff1673ffffffffffffffffffffffffffffffffffffffff16815260200190815260200160002060008381526020019081526020016000206000905550505050565b600060016099805490506128f29190613cbd565b90506000609a600084815260200190815260200160002054905060006099838154811061292257612921613939565b5b90600052602060002001549050806099838154811061294457612943613939565b5b906000526020600020018190555081609a600083815260200190815260200160002081905550609a600085815260200190815260200160002060009055609980548061299357612992614467565b5b6001900381819060005260206000200160009055905550505050565b60006129ba83610a74565b905081609760008573ffffffffffffffffffffffffffffffffffffffff1673ffffffffffffffffffffffffffffffffffffffff168152602001908152602001600020600083815260200190815260200160002081905550806098600084815260200190815260200160002081905550505050565b600073ffffffffffffffffffffffffffffffffffffffff168273ffffffffffffffffffffffffffffffffffffffff161415612a9e576040517f08c379a0000000000000000000000000000000000000000000000000000000008152600401612a95906144e2565b60405180910390fd5b612aa78161223f565b15612ae7576040517f08c379a0000000000000000000000000000000000000000000000000000000008152600401612ade9061454e565b60405180910390fd5b612af3600083836122dd565b6001606860008473ffffffffffffffffffffffffffffffffffffffff1673ffffffffffffffffffffffffffffffffffffffff1681526020019081526020016000206000828254612b439190613c67565b92505081905550816067600083815260200190815260200160002060006101000a81548173ffffffffffffffffffffffffffffffffffffffff021916908373ffffffffffffffffffffffffffffffffffffffff160217905550808273ffffffffffffffffffffffffffffffffffffffff16600073ffffffffffffffffffffffffffffffffffffffff167fddf252ad1be2c89b69c2b068fc378daa952ba7f163c4a11628f55a4df523b3ef60405160405180910390a4612c04600083836123f1565b5050565b828054612c149061362d565b90600052602060002090601f016020900481019282612c365760008555612c7d565b82601f10612c4f57805160ff1916838001178555612c7d565b82800160010185558215612c7d579182015b82811115612c7c578251825591602001919060010190612c61565b5b509050612c8a9190612c8e565b5090565b5b80821115612ca7576000816000905550600101612c8f565b5090565b6000604051905090565b600080fd5b600080fd5b60007fffffffff0000000000000000000000000000000000000000000000000000000082169050919050565b612cf481612cbf565b8114612cff57600080fd5b50565b600081359050612d1181612ceb565b92915050565b600060208284031215612d2d57612d2c612cb5565b5b6000612d3b84828501612d02565b91505092915050565b60008115159050919050565b612d5981612d44565b82525050565b6000602082019050612d746000830184612d50565b92915050565b600081519050919050565b600082825260208201905092915050565b60005b83811015612db4578082015181840152602081019050612d99565b83811115612dc3576000848401525b50505050565b6000601f19601f8301169050919050565b6000612de582612d7a565b612def8185612d85565b9350612dff818560208601612d96565b612e0881612dc9565b840191505092915050565b60006020820190508181036000830152612e2d8184612dda565b905092915050565b6000819050919050565b612e4881612e35565b8114612e5357600080fd5b50565b600081359050612e6581612e3f565b92915050565b600060208284031215612e8157612e80612cb5565b5b6000612e8f84828501612e56565b91505092915050565b600073ffffffffffffffffffffffffffffffffffffffff82169050919050565b6000612ec382612e98565b9050919050565b612ed381612eb8565b82525050565b6000602082019050612eee6000830184612eca565b92915050565b612efd81612eb8565b8114612f0857600080fd5b50565b600081359050612f1a81612ef4565b92915050565b60008060408385031215612f3757612f36612cb5565b5b6000612f4585828601612f0b565b9250506020612f5685828601612e56565b9150509250929050565b612f6981612e35565b82525050565b6000602082019050612f846000830184612f60565b92915050565b600080600060608486031215612fa357612fa2612cb5565b5b6000612fb186828701612f0b565b9350506020612fc286828701612f0b565b9250506040612fd386828701612e56565b9150509250925092565b600060208284031215612ff357612ff2612cb5565b5b600061300184828501612f0b565b91505092915050565b600080fd5b600080fd5b7f4e487b7100000000000000000000000000000000000000000000000000000000600052604160045260246000fd5b61304c82612dc9565b810181811067ffffffffffffffff8211171561306b5761306a613014565b5b80604052505050565b600061307e612cab565b905061308a8282613043565b919050565b600067ffffffffffffffff8211156130aa576130a9613014565b5b6130b382612dc9565b9050602081019050919050565b82818337600083830152505050565b60006130e26130dd8461308f565b613074565b9050828152602081018484840111156130fe576130fd61300f565b5b6131098482856130c0565b509392505050565b600082601f8301126131265761312561300a565b5b81356131368482602086016130cf565b91505092915050565b60008060006060848603121561315857613157612cb5565b5b600061316686828701612e56565b935050602061317786828701612e56565b925050604084013567ffffffffffffffff81111561319857613197612cba565b5b6131a486828701613111565b9150509250925092565b6131b781612d44565b81146131c257600080fd5b50565b6000813590506131d4816131ae565b92915050565b600080604083850312156131f1576131f0612cb5565b5b60006131ff85828601612f0b565b9250506020613210858286016131c5565b9150509250929050565b600067ffffffffffffffff82111561323557613234613014565b5b61323e82612dc9565b9050602081019050919050565b600061325e6132598461321a565b613074565b90508281526020810184848401111561327a5761327961300f565b5b6132858482856130c0565b509392505050565b600082601f8301126132a2576132a161300a565b5b81356132b284826020860161324b565b91505092915050565b600080600080608085870312156132d5576132d4612cb5565b5b60006132e387828801612f0b565b94505060206132f487828801612f0b565b935050604061330587828801612e56565b925050606085013567ffffffffffffffff81111561332657613325612cba565b5b6133328782880161328d565b91505092959194509250565b600061334982612eb8565b9050919050565b6133598161333e565b811461336457600080fd5b50565b60008135905061337681613350565b92915050565b60006020828403121561339257613391612cb5565b5b60006133a084828501613367565b91505092915050565b600080604083850312156133c0576133bf612cb5565b5b60006133ce85828601612f0b565b92505060206133df85828601612f0b565b9150509250929050565b6000819050919050565b6133fc816133e9565b811461340757600080fd5b50565b600081359050613419816133f3565b92915050565b600067ffffffffffffffff82111561343a57613439613014565b5b602082029050602081019050919050565b600080fd5b600080fd5b600080fd5b6000604082840312156134705761346f613450565b5b61347a6040613074565b9050600082013567ffffffffffffffff81111561349a57613499613455565b5b6134a684828501613111565b60008301525060206134ba84828501612e56565b60208301525092915050565b60006134d96134d48461341f565b613074565b905080838252602082019050602084028301858111156134fc576134fb61344b565b5b835b8181101561354357803567ffffffffffffffff8111156135215761352061300a565b5b80860161352e898261345a565b855260208501945050506020810190506134fe565b5050509392505050565b600082601f8301126135625761356161300a565b5b81356135728482602086016134c6565b91505092915050565b6000806000806080858703121561359557613594612cb5565b5b60006135a387828801612e56565b94505060206135b487828801612e56565b93505060406135c58782880161340a565b925050606085013567ffffffffffffffff8111156135e6576135e5612cba565b5b6135f28782880161354d565b91505092959194509250565b7f4e487b7100000000000000000000000000000000000000000000000000000000600052602260045260246000fd5b6000600282049050600182168061364557607f821691505b60208210811415613659576136586135fe565b5b50919050565b7f4552433732313a20617070726f76616c20746f2063757272656e74206f776e6560008201527f7200000000000000000000000000000000000000000000000000000000000000602082015250565b60006136bb602183612d85565b91506136c68261365f565b604082019050919050565b600060208201905081810360008301526136ea816136ae565b9050919050565b7f4552433732313a20617070726f76652063616c6c6572206973206e6f7420746f60008201527f6b656e206f776e6572206e6f7220617070726f76656420666f7220616c6c0000602082015250565b600061374d603e83612d85565b9150613758826136f1565b604082019050919050565b6000602082019050818103600083015261377c81613740565b9050919050565b7f4552433732313a2063616c6c6572206973206e6f7420746f6b656e206f776e6560008201527f72206e6f7220617070726f766564000000000000000000000000000000000000602082015250565b60006137df602e83612d85565b91506137ea82613783565b604082019050919050565b6000602082019050818103600083015261380e816137d2565b9050919050565b7f455243373231456e756d657261626c653a206f776e657220696e646578206f7560008201527f74206f6620626f756e6473000000000000000000000000000000000000000000602082015250565b6000613871602b83612d85565b915061387c82613815565b604082019050919050565b600060208201905081810360008301526138a081613864565b9050919050565b7f455243373231456e756d657261626c653a20676c6f62616c20696e646578206f60008201527f7574206f6620626f756e64730000000000000000000000000000000000000000602082015250565b6000613903602c83612d85565b915061390e826138a7565b604082019050919050565b60006020820190508181036000830152613932816138f6565b9050919050565b7f4e487b7100000000000000000000000000000000000000000000000000000000600052603260045260246000fd5b7f4552433732313a20696e76616c696420746f6b656e2049440000000000000000600082015250565b600061399e601883612d85565b91506139a982613968565b602082019050919050565b600060208201905081810360008301526139cd81613991565b9050919050565b7f4552433732313a2061646472657373207a65726f206973206e6f74206120766160008201527f6c6964206f776e65720000000000000000000000000000000000000000000000602082015250565b6000613a30602983612d85565b9150613a3b826139d4565b604082019050919050565b60006020820190508181036000830152613a5f81613a23565b9050919050565b7f696e76616c696420736563726574207068726173650000000000000000000000600082015250565b6000613a9c601583612d85565b9150613aa782613a66565b602082019050919050565b60006020820190508181036000830152613acb81613a8f565b9050919050565b7f72656d61696e696e6720636f756e74206973207a65726f000000000000000000600082015250565b6000613b08601783612d85565b9150613b1382613ad2565b602082019050919050565b60006020820190508181036000830152613b3781613afb565b9050919050565b7f616c7265616479206d696e746564000000000000000000000000000000000000600082015250565b6000613b74600e83612d85565b9150613b7f82613b3e565b602082019050919050565b60006020820190508181036000830152613ba381613b67565b9050919050565b600081905092915050565b50565b6000613bc5600083613baa565b9150613bd082613bb5565b600082019050919050565b6000613be682613bb8565b9150819050919050565b6000613bfb82612d7a565b613c058185613baa565b9350613c15818560208601612d96565b80840191505092915050565b6000613c2d8284613bf0565b915081905092915050565b7f4e487b7100000000000000000000000000000000000000000000000000000000600052601160045260246000fd5b6000613c7282612e35565b9150613c7d83612e35565b9250827fffffffffffffffffffffffffffffffffffffffffffffffffffffffffffffffff03821115613cb257613cb1613c38565b5b828201905092915050565b6000613cc882612e35565b9150613cd383612e35565b925082821015613ce657613ce5613c38565b5b828203905092915050565b7f6576656e74206d616e61676572206164647265737320697320626c616e6b0000600082015250565b6000613d27601e83612d85565b9150613d3282613cf1565b602082019050919050565b60006020820190508181036000830152613d5681613d1a565b9050919050565b7f496e697469616c697a61626c653a20636f6e747261637420697320616c72656160008201527f647920696e697469616c697a6564000000000000000000000000000000000000602082015250565b6000613db9602e83612d85565b9150613dc482613d5d565b604082019050919050565b60006020820190508181036000830152613de881613dac565b9050919050565b6000819050919050565b600060ff82169050919050565b6000819050919050565b6000613e2b613e26613e2184613def565b613e06565b613df9565b9050919050565b613e3b81613e10565b82525050565b6000602082019050613e566000830184613e32565b92915050565b7f756e617574686f72697a65640000000000000000000000000000000000000000600082015250565b6000613e92600c83612d85565b9150613e9d82613e5c565b602082019050919050565b60006020820190508181036000830152613ec181613e85565b9050919050565b6000613ed382612e35565b91507fffffffffffffffffffffffffffffffffffffffffffffffffffffffffffffffff821415613f0657613f05613c38565b5b600182019050919050565b7f4f776e61626c653a206e6577206f776e657220697320746865207a65726f206160008201527f6464726573730000000000000000000000000000000000000000000000000000602082015250565b6000613f6d602683612d85565b9150613f7882613f11565b604082019050919050565b60006020820190508181036000830152613f9c81613f60565b9050919050565b7f4552433732313a207472616e736665722066726f6d20696e636f72726563742060008201527f6f776e6572000000000000000000000000000000000000000000000000000000602082015250565b6000613fff602583612d85565b915061400a82613fa3565b604082019050919050565b6000602082019050818103600083015261402e81613ff2565b9050919050565b7f4552433732313a207472616e7366657220746f20746865207a65726f2061646460008201527f7265737300000000000000000000000000000000000000000000000000000000602082015250565b6000614091602483612d85565b915061409c82614035565b604082019050919050565b600060208201905081810360008301526140c081614084565b9050919050565b7f4f776e61626c653a2063616c6c6572206973206e6f7420746865206f776e6572600082015250565b60006140fd602083612d85565b9150614108826140c7565b602082019050919050565b6000602082019050818103600083015261412c816140f0565b9050919050565b60008160601b9050919050565b600061414b82614133565b9050919050565b600061415d82614140565b9050919050565b61417561417082612eb8565b614152565b82525050565b6000819050919050565b61419661419182612e35565b61417b565b82525050565b60006141a88285614164565b6014820191506141b88284614185565b6020820191508190509392505050565b60006141d48285614185565b6020820191506141e48284614185565b6020820191508190509392505050565b7f4552433732313a20617070726f766520746f2063616c6c657200000000000000600082015250565b600061422a601983612d85565b9150614235826141f4565b602082019050919050565b600060208201905081810360008301526142598161421d565b9050919050565b7f4552433732313a207472616e7366657220746f206e6f6e20455243373231526560008201527f63656976657220696d706c656d656e7465720000000000000000000000000000602082015250565b60006142bc603283612d85565b91506142c782614260565b604082019050919050565b600060208201905081810360008301526142eb816142af565b9050919050565b7f496e697469616c697a61626c653a20636f6e7472616374206973206e6f74206960008201527f6e697469616c697a696e67000000000000000000000000000000000000000000602082015250565b600061434e602b83612d85565b9150614359826142f2565b604082019050919050565b6000602082019050818103600083015261437d81614341565b9050919050565b600081519050919050565b600082825260208201905092915050565b60006143ab82614384565b6143b5818561438f565b93506143c5818560208601612d96565b6143ce81612dc9565b840191505092915050565b60006080820190506143ee6000830187612eca565b6143fb6020830186612eca565b6144086040830185612f60565b818103606083015261441a81846143a0565b905095945050505050565b60008151905061443481612ceb565b92915050565b6000602082840312156144505761444f612cb5565b5b600061445e84828501614425565b91505092915050565b7f4e487b7100000000000000000000000000000000000000000000000000000000600052603160045260246000fd5b7f4552433732313a206d696e7420746f20746865207a65726f2061646472657373600082015250565b60006144cc602083612d85565b91506144d782614496565b602082019050919050565b600060208201905081810360008301526144fb816144bf565b9050919050565b7f4552433732313a20746f6b656e20616c7265616479206d696e74656400000000600082015250565b6000614538601c83612d85565b915061454382614502565b602082019050919050565b600060208201905081810360008301526145678161452b565b905091905056fea2646970667358221220d180172de7a0fc4da48eab7b15fa78a0dad17fe8868c044eb60a305517a0277664736f6c63430008090033",
  "linkReferences": {},
  "deployedLinkReferences": {}
}