{
  "_format": "hh-sol-artifact-1",
  "contractName": "MintNFT",
  "sourceName": "contracts/MintNFT.sol",
  "abi": [
    {
      "anonymous": false,
      "inputs": [
        {
          "indexed": true,
          "internalType": "address",
          "name": "owner",
          "type": "address"
        },
        {
          "indexed": true,
          "internalType": "address",
          "name": "approved",
          "type": "address"
        },
        {
          "indexed": true,
          "internalType": "uint256",
          "name": "tokenId",
          "type": "uint256"
        }
      ],
      "name": "Approval",
      "type": "event"
    },
    {
      "anonymous": false,
      "inputs": [
        {
          "indexed": true,
          "internalType": "address",
          "name": "owner",
          "type": "address"
        },
        {
          "indexed": true,
          "internalType": "address",
          "name": "operator",
          "type": "address"
        },
        {
          "indexed": false,
          "internalType": "bool",
          "name": "approved",
          "type": "bool"
        }
      ],
      "name": "ApprovalForAll",
      "type": "event"
    },
    {
      "anonymous": false,
      "inputs": [
        {
          "indexed": true,
          "internalType": "address",
          "name": "executor",
          "type": "address"
        },
        {
          "indexed": true,
          "internalType": "uint256",
          "name": "eventId",
          "type": "uint256"
        }
      ],
      "name": "DroppedNFTs",
      "type": "event"
    },
    {
      "anonymous": false,
      "inputs": [
        {
          "indexed": false,
          "internalType": "uint8",
          "name": "version",
          "type": "uint8"
        }
      ],
      "name": "Initialized",
      "type": "event"
    },
    {
      "anonymous": false,
      "inputs": [
        {
          "indexed": true,
          "internalType": "uint256",
          "name": "eventId",
          "type": "uint256"
        },
        {
          "indexed": false,
          "internalType": "bool",
          "name": "isLocked",
          "type": "bool"
        }
      ],
      "name": "MintLocked",
      "type": "event"
    },
    {
      "anonymous": false,
      "inputs": [
        {
          "indexed": true,
          "internalType": "address",
          "name": "holder",
          "type": "address"
        },
        {
          "indexed": false,
          "internalType": "string",
          "name": "url",
          "type": "string"
        }
      ],
      "name": "MintedNFTAttributeURL",
      "type": "event"
    },
    {
      "anonymous": false,
      "inputs": [
        {
          "indexed": true,
          "internalType": "address",
          "name": "previousOwner",
          "type": "address"
        },
        {
          "indexed": true,
          "internalType": "address",
          "name": "newOwner",
          "type": "address"
        }
      ],
      "name": "OwnershipTransferred",
      "type": "event"
    },
    {
      "anonymous": false,
      "inputs": [
        {
          "indexed": true,
          "internalType": "address",
          "name": "executor",
          "type": "address"
        },
        {
          "indexed": true,
          "internalType": "uint256",
          "name": "eventId",
          "type": "uint256"
        }
      ],
      "name": "ResetSecretPhrase",
      "type": "event"
    },
    {
      "anonymous": false,
      "inputs": [
        {
          "indexed": true,
          "internalType": "address",
          "name": "from",
          "type": "address"
        },
        {
          "indexed": true,
          "internalType": "address",
          "name": "to",
          "type": "address"
        },
        {
          "indexed": true,
          "internalType": "uint256",
          "name": "tokenId",
          "type": "uint256"
        }
      ],
      "name": "Transfer",
      "type": "event"
    },
    {
      "inputs": [
        {
          "internalType": "address",
          "name": "to",
          "type": "address"
        },
        {
          "internalType": "uint256",
          "name": "tokenId",
          "type": "uint256"
        }
      ],
      "name": "approve",
      "outputs": [],
      "stateMutability": "nonpayable",
      "type": "function"
    },
    {
      "inputs": [
        {
          "internalType": "address",
          "name": "owner",
          "type": "address"
        }
      ],
      "name": "balanceOf",
      "outputs": [
        {
          "internalType": "uint256",
          "name": "",
          "type": "uint256"
        }
      ],
      "stateMutability": "view",
      "type": "function"
    },
    {
      "inputs": [
        {
          "internalType": "uint256",
          "name": "tokenId",
          "type": "uint256"
        }
      ],
      "name": "burn",
      "outputs": [],
      "stateMutability": "nonpayable",
      "type": "function"
    },
    {
      "inputs": [
        {
          "internalType": "uint256",
          "name": "_eventId",
          "type": "uint256"
        },
        {
          "internalType": "uint256[24]",
          "name": "_proof",
          "type": "uint256[24]"
        }
      ],
      "name": "canMint",
      "outputs": [
        {
          "internalType": "bool",
          "name": "",
          "type": "bool"
        }
      ],
      "stateMutability": "view",
      "type": "function"
    },
    {
      "inputs": [
        {
          "internalType": "uint256",
          "name": "_eventId",
          "type": "uint256"
        },
        {
          "internalType": "bool",
          "name": "_locked",
          "type": "bool"
        }
      ],
      "name": "changeMintLocked",
      "outputs": [],
      "stateMutability": "nonpayable",
      "type": "function"
    },
    {
      "inputs": [
        {
          "internalType": "uint256",
          "name": "_eventId",
          "type": "uint256"
        },
        {
          "internalType": "address[]",
          "name": "_addresses",
          "type": "address[]"
        }
      ],
      "name": "dropNFTs",
      "outputs": [],
      "stateMutability": "nonpayable",
      "type": "function"
    },
    {
      "inputs": [
        {
          "internalType": "uint256",
          "name": "tokenId",
          "type": "uint256"
        }
      ],
      "name": "getApproved",
      "outputs": [
        {
          "internalType": "address",
          "name": "",
          "type": "address"
        }
      ],
      "stateMutability": "view",
      "type": "function"
    },
    {
      "inputs": [
        {
          "internalType": "uint256",
          "name": "_eventId",
          "type": "uint256"
        }
      ],
      "name": "getGroupIdByEvent",
      "outputs": [
        {
          "internalType": "uint256",
          "name": "",
          "type": "uint256"
        }
      ],
      "stateMutability": "view",
      "type": "function"
    },
    {
      "inputs": [
        {
          "internalType": "uint256",
          "name": "_eventId",
          "type": "uint256"
        }
      ],
      "name": "getIsMintLocked",
      "outputs": [
        {
          "internalType": "bool",
          "name": "",
          "type": "bool"
        }
      ],
      "stateMutability": "view",
      "type": "function"
    },
    {
      "inputs": [
        {
          "internalType": "uint256",
          "name": "_eventId",
          "type": "uint256"
        }
      ],
      "name": "getNFTHoldersByEvent",
      "outputs": [
        {
          "components": [
            {
              "internalType": "address",
              "name": "holderAddress",
              "type": "address"
            },
            {
              "internalType": "uint256",
              "name": "tokenId",
              "type": "uint256"
            }
          ],
          "internalType": "struct MintNFT.NFTHolder[]",
          "name": "",
          "type": "tuple[]"
        }
      ],
      "stateMutability": "view",
      "type": "function"
    },
    {
      "inputs": [
        {
          "internalType": "uint256",
          "name": "_groupId",
          "type": "uint256"
        }
      ],
      "name": "getNFTHoldersByEventGroup",
      "outputs": [
        {
          "components": [
            {
              "internalType": "address",
              "name": "holderAddress",
              "type": "address"
            },
            {
              "internalType": "uint256",
              "name": "eventId",
              "type": "uint256"
            },
            {
              "internalType": "uint256",
              "name": "tokenId",
              "type": "uint256"
            }
          ],
          "internalType": "struct MintNFT.NFTHolderWithEventId[]",
          "name": "",
          "type": "tuple[]"
        }
      ],
      "stateMutability": "view",
      "type": "function"
    },
    {
      "inputs": [
        {
          "internalType": "uint256",
          "name": "_eventId",
          "type": "uint256"
        }
      ],
      "name": "getRemainingNFTCount",
      "outputs": [
        {
          "internalType": "uint256",
          "name": "",
          "type": "uint256"
        }
      ],
      "stateMutability": "view",
      "type": "function"
    },
    {
      "inputs": [
        {
          "internalType": "contract MinimalForwarderUpgradeable",
          "name": "trustedForwarder",
          "type": "address"
        },
        {
          "internalType": "address",
          "name": "_secretPhraseVerifierAddr",
          "type": "address"
        },
        {
          "internalType": "address",
          "name": "_operationControllerAddr",
          "type": "address"
        }
      ],
      "name": "initialize",
      "outputs": [],
      "stateMutability": "nonpayable",
      "type": "function"
    },
    {
      "inputs": [
        {
          "internalType": "address",
          "name": "owner",
          "type": "address"
        },
        {
          "internalType": "address",
          "name": "operator",
          "type": "address"
        }
      ],
      "name": "isApprovedForAll",
      "outputs": [
        {
          "internalType": "bool",
          "name": "",
          "type": "bool"
        }
      ],
      "stateMutability": "view",
      "type": "function"
    },
    {
      "inputs": [
        {
          "internalType": "address",
          "name": "_addr",
          "type": "address"
        },
        {
          "internalType": "uint256",
          "name": "_eventId",
          "type": "uint256"
        }
      ],
      "name": "isHoldingEventNFTByAddress",
      "outputs": [
        {
          "internalType": "bool",
          "name": "",
          "type": "bool"
        }
      ],
      "stateMutability": "view",
      "type": "function"
    },
    {
      "inputs": [
        {
          "internalType": "address",
          "name": "forwarder",
          "type": "address"
        }
      ],
      "name": "isTrustedForwarder",
      "outputs": [
        {
          "internalType": "bool",
          "name": "",
          "type": "bool"
        }
      ],
      "stateMutability": "view",
      "type": "function"
    },
    {
      "inputs": [
        {
          "internalType": "uint256",
          "name": "_groupId",
          "type": "uint256"
        },
        {
          "internalType": "uint256",
          "name": "_eventId",
          "type": "uint256"
        },
        {
          "internalType": "uint256[24]",
          "name": "_proof",
          "type": "uint256[24]"
        }
      ],
      "name": "mintParticipateNFT",
      "outputs": [],
      "stateMutability": "nonpayable",
      "type": "function"
    },
    {
      "inputs": [],
      "name": "name",
      "outputs": [
        {
          "internalType": "string",
          "name": "",
          "type": "string"
        }
      ],
      "stateMutability": "view",
      "type": "function"
    },
    {
      "inputs": [],
      "name": "owner",
      "outputs": [
        {
          "internalType": "address",
          "name": "",
          "type": "address"
        }
      ],
      "stateMutability": "view",
      "type": "function"
    },
    {
      "inputs": [
        {
          "internalType": "uint256",
          "name": "tokenId",
          "type": "uint256"
        }
      ],
      "name": "ownerOf",
      "outputs": [
        {
          "internalType": "address",
          "name": "",
          "type": "address"
        }
      ],
      "stateMutability": "view",
      "type": "function"
    },
    {
      "inputs": [
        {
          "internalType": "uint256[]",
          "name": "_tokenIdArray",
          "type": "uint256[]"
        }
      ],
      "name": "ownerOfTokens",
      "outputs": [
        {
          "components": [
            {
              "internalType": "address",
              "name": "holderAddress",
              "type": "address"
            },
            {
              "internalType": "uint256",
              "name": "tokenId",
              "type": "uint256"
            }
          ],
          "internalType": "struct MintNFT.NFTHolder[]",
          "name": "",
          "type": "tuple[]"
        }
      ],
      "stateMutability": "view",
      "type": "function"
    },
    {
      "inputs": [],
      "name": "renounceOwnership",
      "outputs": [],
      "stateMutability": "nonpayable",
      "type": "function"
    },
    {
      "inputs": [
        {
          "internalType": "uint256",
          "name": "_eventId",
          "type": "uint256"
        },
        {
          "internalType": "bytes32",
          "name": "_secretPhrase",
          "type": "bytes32"
        }
      ],
      "name": "resetSecretPhrase",
      "outputs": [],
      "stateMutability": "nonpayable",
      "type": "function"
    },
    {
      "inputs": [
        {
          "internalType": "address",
          "name": "from",
          "type": "address"
        },
        {
          "internalType": "address",
          "name": "to",
          "type": "address"
        },
        {
          "internalType": "uint256",
          "name": "tokenId",
          "type": "uint256"
        }
      ],
      "name": "safeTransferFrom",
      "outputs": [],
      "stateMutability": "nonpayable",
      "type": "function"
    },
    {
      "inputs": [
        {
          "internalType": "address",
          "name": "from",
          "type": "address"
        },
        {
          "internalType": "address",
          "name": "to",
          "type": "address"
        },
        {
          "internalType": "uint256",
          "name": "tokenId",
          "type": "uint256"
        },
        {
          "internalType": "bytes",
          "name": "data",
          "type": "bytes"
        }
      ],
      "name": "safeTransferFrom",
      "outputs": [],
      "stateMutability": "nonpayable",
      "type": "function"
    },
    {
      "inputs": [
        {
          "internalType": "address",
          "name": "operator",
          "type": "address"
        },
        {
          "internalType": "bool",
          "name": "approved",
          "type": "bool"
        }
      ],
      "name": "setApprovalForAll",
      "outputs": [],
      "stateMutability": "nonpayable",
      "type": "function"
    },
    {
      "inputs": [
        {
          "internalType": "uint256",
          "name": "_eventId",
          "type": "uint256"
        },
        {
          "internalType": "uint256",
          "name": "_mintLimit",
          "type": "uint256"
        },
        {
          "internalType": "bytes32",
          "name": "_secretPhrase",
          "type": "bytes32"
        },
        {
          "components": [
            {
              "internalType": "string",
              "name": "metaDataURL",
              "type": "string"
            },
            {
              "internalType": "uint256",
              "name": "requiredParticipateCount",
              "type": "uint256"
            }
          ],
          "internalType": "struct MintNFT.NFTAttribute[]",
          "name": "attributes",
          "type": "tuple[]"
        }
      ],
      "name": "setEventInfo",
      "outputs": [],
      "stateMutability": "nonpayable",
      "type": "function"
    },
    {
      "inputs": [
        {
          "internalType": "address",
          "name": "_addr",
          "type": "address"
        }
      ],
      "name": "setEventManagerAddr",
      "outputs": [],
      "stateMutability": "nonpayable",
      "type": "function"
    },
    {
      "inputs": [
        {
          "internalType": "bytes4",
          "name": "interfaceId",
          "type": "bytes4"
        }
      ],
      "name": "supportsInterface",
      "outputs": [
        {
          "internalType": "bool",
          "name": "",
          "type": "bool"
        }
      ],
      "stateMutability": "view",
      "type": "function"
    },
    {
      "inputs": [],
      "name": "symbol",
      "outputs": [
        {
          "internalType": "string",
          "name": "",
          "type": "string"
        }
      ],
      "stateMutability": "view",
      "type": "function"
    },
    {
      "inputs": [
        {
          "internalType": "uint256",
          "name": "index",
          "type": "uint256"
        }
      ],
      "name": "tokenByIndex",
      "outputs": [
        {
          "internalType": "uint256",
          "name": "",
          "type": "uint256"
        }
      ],
      "stateMutability": "view",
      "type": "function"
    },
    {
      "inputs": [
        {
          "internalType": "address",
          "name": "owner",
          "type": "address"
        },
        {
          "internalType": "uint256",
          "name": "index",
          "type": "uint256"
        }
      ],
      "name": "tokenOfOwnerByIndex",
      "outputs": [
        {
          "internalType": "uint256",
          "name": "",
          "type": "uint256"
        }
      ],
      "stateMutability": "view",
      "type": "function"
    },
    {
      "inputs": [
        {
          "internalType": "uint256",
          "name": "_tokenId",
          "type": "uint256"
        }
      ],
      "name": "tokenURI",
      "outputs": [
        {
          "internalType": "string",
          "name": "",
          "type": "string"
        }
      ],
      "stateMutability": "view",
      "type": "function"
    },
    {
      "inputs": [],
      "name": "totalSupply",
      "outputs": [
        {
          "internalType": "uint256",
          "name": "",
          "type": "uint256"
        }
      ],
      "stateMutability": "view",
      "type": "function"
    },
    {
      "inputs": [
        {
          "internalType": "address",
          "name": "from",
          "type": "address"
        },
        {
          "internalType": "address",
          "name": "to",
          "type": "address"
        },
        {
          "internalType": "uint256",
          "name": "tokenId",
          "type": "uint256"
        }
      ],
      "name": "transferFrom",
      "outputs": [],
      "stateMutability": "nonpayable",
      "type": "function"
    },
    {
      "inputs": [
        {
          "internalType": "address",
          "name": "newOwner",
          "type": "address"
        }
      ],
      "name": "transferOwnership",
      "outputs": [],
      "stateMutability": "nonpayable",
      "type": "function"
    }
  ],
  "bytecode": "0x608060405234801561001057600080fd5b506139e2806100206000396000f3fe608060405234801561001057600080fd5b506004361061021c5760003560e01c80638da5cb5b11610125578063c0c53b8b116100ad578063df4b39dd1161007c578063df4b39dd146104bd578063e985e9c5146104e1578063ef3ad9eb1461051d578063f2fde38b14610530578063fa86623b1461054357600080fd5b8063c0c53b8b14610471578063c4b88ea414610484578063c87b56dd14610497578063d622abc2146104aa57600080fd5b806395d89b41116100f457806395d89b41146104105780639dcd681114610418578063a22cb4651461042b578063af5723b11461043e578063b88d4fde1461045e57600080fd5b80638da5cb5b146103b95780638f70738e146103ca5780639041e3f4146103ea57806394d84290146103fd57600080fd5b806342842e0e116101a85780634ffc9f4b116101775780634ffc9f4b14610348578063572b6c05146103695780636352211e1461038b57806370a082311461039e578063715018a6146103b157600080fd5b806342842e0e146102fc57806342966c681461030f5780634df30149146103225780634f6ccce71461033557600080fd5b80630daa8be7116101ef5780630daa8be71461029e57806312b90fd6146102b157806318160ddd146102c457806323b872dd146102d65780632f745c59146102e957600080fd5b806301ffc9a71461022157806306fdde0314610249578063081812fc1461025e578063095ea7b314610289575b600080fd5b61023461022f366004612d01565b610556565b60405190151581526020015b60405180910390f35b610251610581565b6040516102409190612d7d565b61027161026c366004612d90565b610613565b6040516001600160a01b039091168152602001610240565b61029c610297366004612dbe565b61063a565b005b61029c6102ac366004612df8565b610767565b61029c6102bf366004612edb565b6108ec565b6099545b604051908152602001610240565b61029c6102e4366004612f85565b610b21565b6102c86102f7366004612dbe565b610b59565b61029c61030a366004612f85565b610bef565b61029c61031d366004612d90565b610c0a565b610234610330366004613033565b610c1e565b6102c8610343366004612d90565b610d73565b6102c8610356366004612d90565b6000908152610134602052604090205490565b610234610377366004613061565b60c9546001600160a01b0391821691161490565b610271610399366004612d90565b610e06565b6102c86103ac366004613061565b610e66565b61029c610eec565b60fc546001600160a01b0316610271565b6103dd6103d8366004612d90565b610f00565b604051610240919061307e565b61029c6103f8366004613061565b61122b565b6102c861040b366004612d90565b6112ac565b61025161133e565b61029c6104263660046130e0565b61134d565b61029c610439366004613102565b6114ce565b61045161044c366004613130565b6114e4565b60405161024091906131c0565b61029c61046c36600461326b565b6115e4565b61029c61047f3660046132ea565b611623565b610451610492366004612d90565b611788565b6102516104a5366004612d90565b6117f5565b6102346104b8366004612dbe565b61189a565b6102346104cb366004612d90565b6000908152610136602052604090205460ff1690565b6102346104ef366004613335565b6001600160a01b039182166000908152606a6020908152604080832093909416825291909152205460ff1690565b61029c61052b366004613363565b6118c6565b61029c61053e366004613061565b611a59565b61029c610551366004613489565b611acf565b60006001600160e01b0319821663780e9d6360e01b148061057b575061057b82611be3565b92915050565b606060658054610590906134c0565b80601f01602080910402602001604051908101604052809291908181526020018280546105bc906134c0565b80156106095780601f106105de57610100808354040283529160200191610609565b820191906000526020600020905b8154815290600101906020018083116105ec57829003601f168201915b5050505050905090565b600061061e82611c33565b506000908152606960205260409020546001600160a01b031690565b600061064582610e06565b9050806001600160a01b0316836001600160a01b031614156106b85760405162461bcd60e51b815260206004820152602160248201527f4552433732313a20617070726f76616c20746f2063757272656e74206f776e656044820152603960f91b60648201526084015b60405180910390fd5b806001600160a01b03166106ca611c92565b6001600160a01b031614806106e657506106e6816104ef611c92565b6107585760405162461bcd60e51b815260206004820152603e60248201527f4552433732313a20617070726f76652063616c6c6572206973206e6f7420746f60448201527f6b656e206f776e6572206e6f7220617070726f76656420666f7220616c6c000060648201526084016106af565b6107628383611cc2565b505050565b61012f54604051630c23a41560e11b81523360048201526024810184905283916001600160a01b0316908190631847482a9060440160206040518083038186803b1580156107b457600080fd5b505afa1580156107c8573d6000803e3d6000fd5b505050506040513d601f19601f820116820180604052508101906107ec919061350b565b6108085760405162461bcd60e51b81526004016106af90613528565b6101395460408051635c975abb60e01b815290516001600160a01b03909216918291635c975abb916004808301926020929190829003018186803b15801561084f57600080fd5b505afa158015610863573d6000803e3d6000fd5b505050506040513d601f19601f82011682018060405250810190610887919061350b565b1561089157600080fd5b60008581526101366020908152604091829020805460ff1916871515908117909155915191825286917f1e3ed2b292ed72652054799a4fde74789a8670c153df666f76e01345ec318281910160405180910390a25050505050565b61012f54604051630c23a41560e11b81523360048201526024810184905283916001600160a01b0316908190631847482a9060440160206040518083038186803b15801561093957600080fd5b505afa15801561094d573d6000803e3d6000fd5b505050506040513d601f19601f82011682018060405250810190610971919061350b565b61098d5760405162461bcd60e51b81526004016106af90613528565b6101395460408051635c975abb60e01b815290516001600160a01b03909216918291635c975abb916004808301926020929190829003018186803b1580156109d457600080fd5b505afa1580156109e8573d6000803e3d6000fd5b505050506040513d601f19601f82011682018060405250810190610a0c919061350b565b15610a1657600080fd5b6000610a21866112ac565b8551600088815261013460205260409020549192501115610a845760405162461bcd60e51b815260206004820152601d60248201527f72656d61696e696e6720636f756e74206973206e6f7420656e6f75676800000060448201526064016106af565b60005b8551811015610ada576000868281518110610aa457610aa461355f565b60200260200101519050610ab8818961189a565b610ac757610ac7838983611d30565b5080610ad28161358b565b915050610a87565b5085610ae4611c92565b6001600160a01b03167ff0fae1d6c53c230d212972a098b7dbf41d3a6dbb348a4ebf640a51ce63cd3b6760405160405180910390a3505050505050565b610b32610b2c611c92565b8261202a565b610b4e5760405162461bcd60e51b81526004016106af906135a6565b6107628383836120a9565b6000610b6483610e66565b8210610bc65760405162461bcd60e51b815260206004820152602b60248201527f455243373231456e756d657261626c653a206f776e657220696e646578206f7560448201526a74206f6620626f756e647360a81b60648201526084016106af565b506001600160a01b03919091166000908152609760209081526040808320938352929052205490565b610762838383604051806020016040528060008152506115e4565b610c12612250565b610c1b816122c9565b50565b6000610c2a8284612370565b610c6e5760405162461bcd60e51b8152602060048201526015602482015274696e76616c6964207365637265742070687261736560581b60448201526064016106af565b60008381526101346020526040902054610cca5760405162461bcd60e51b815260206004820152601760248201527f72656d61696e696e6720636f756e74206973207a65726f00000000000000000060448201526064016106af565b610cdb610cd5611c92565b8461189a565b15610d195760405162461bcd60e51b815260206004820152600e60248201526d185b1c9958591e481b5a5b9d195960921b60448201526064016106af565b6000838152610136602052604090205460ff1615610d6a5760405162461bcd60e51b815260206004820152600e60248201526d1b5a5b9d081a5cc81b1bd8dad95960921b60448201526064016106af565b50600192915050565b6000610d7e60995490565b8210610de15760405162461bcd60e51b815260206004820152602c60248201527f455243373231456e756d657261626c653a20676c6f62616c20696e646578206f60448201526b7574206f6620626f756e647360a01b60648201526084016106af565b60998281548110610df457610df461355f565b90600052602060002001549050919050565b6000818152606760205260408120546001600160a01b03168061057b5760405162461bcd60e51b8152602060048201526018602482015277115490cdcc8c4e881a5b9d985b1a59081d1bdad95b88125160421b60448201526064016106af565b60006001600160a01b038216610ed05760405162461bcd60e51b815260206004820152602960248201527f4552433732313a2061646472657373207a65726f206973206e6f7420612076616044820152683634b21037bbb732b960b91b60648201526084016106af565b506001600160a01b031660009081526068602052604090205490565b610ef4612250565b610efe600061241e565b565b61012f5460405163f562082360e01b8152600481018390526060916001600160a01b031690600090829063f56208239060240160006040518083038186803b158015610f4b57600080fd5b505afa158015610f5f573d6000803e3d6000fd5b505050506040513d6000823e601f3d908101601f19168201604052610f8791908101906136f1565b9050600081516001600160401b03811115610fa457610fa4612e28565b604051908082528060200260200182016040528015610fd757816020015b6060815260200190600190039081610fc25790505b5090506000805b83518110156110645761100d848281518110610ffc57610ffc61355f565b602002602001015160000151611788565b83828151811061101f5761101f61355f565b602002602001018190525082818151811061103c5761103c61355f565b6020026020010151518261105091906137a1565b91508061105c8161358b565b915050610fde565b506000816001600160401b0381111561107f5761107f612e28565b6040519080825280602002602001820160405280156110dd57816020015b6110ca604051806060016040528060006001600160a01b0316815260200160008152602001600081525090565b81526020019060019003908161109d5790505b50905060005b828110156112205760005b855181101561121a5760005b85828151811061110c5761110c61355f565b6020026020010151518110156112075760405180606001604052808784815181106111395761113961355f565b602002602001015183815181106111525761115261355f565b6020026020010151600001516001600160a01b0316815260200188848151811061117e5761117e61355f565b60200260200101516000015181526020018784815181106111a1576111a161355f565b602002602001015183815181106111ba576111ba61355f565b6020026020010151602001518152508484815181106111db576111db61355f565b602002602001018190525082806111f19061358b565b93505080806111ff9061358b565b9150506110fa565b50806112128161358b565b9150506110ee565b506110e3565b509695505050505050565b611233612250565b6001600160a01b0381166112895760405162461bcd60e51b815260206004820152601e60248201527f6576656e74206d616e61676572206164647265737320697320626c616e6b000060448201526064016106af565b61012f80546001600160a01b0319166001600160a01b0392909216919091179055565b61012f54604051632e601e6f60e21b8152600481018390526000916001600160a01b0316908290829063b98079bc9060240160006040518083038186803b1580156112f657600080fd5b505afa15801561130a573d6000803e3d6000fd5b505050506040513d6000823e601f3d908101601f1916820160405261133291908101906137b9565b60200151949350505050565b606060668054610590906134c0565b61012f54604051630c23a41560e11b81523360048201526024810184905283916001600160a01b0316908190631847482a9060440160206040518083038186803b15801561139a57600080fd5b505afa1580156113ae573d6000803e3d6000fd5b505050506040513d601f19601f820116820180604052508101906113d2919061350b565b6113ee5760405162461bcd60e51b81526004016106af90613528565b6101395460408051635c975abb60e01b815290516001600160a01b03909216918291635c975abb916004808301926020929190829003018186803b15801561143557600080fd5b505afa158015611449573d6000803e3d6000fd5b505050506040513d601f19601f8201168201806040525081019061146d919061350b565b1561147757600080fd5b60008581526101356020526040902084905584611492611c92565b6001600160a01b03167fae5b067be3e4869ca571a499572a09085a17c3d0442a8965b8356bf47f63ba9960405160405180910390a35050505050565b6114e06114d9611c92565b8383612470565b5050565b6060600082516001600160401b0381111561150157611501612e28565b60405190808252806020026020018201604052801561154657816020015b604080518082019091526000808252602082015281526020019060019003908161151f5790505b50905060005b83518110156115dd5760405180604001604052806115828684815181106115755761157561355f565b6020026020010151610e06565b6001600160a01b031681526020018583815181106115a2576115a261355f565b60200260200101518152508282815181106115bf576115bf61355f565b602002602001018190525080806115d59061358b565b91505061154c565b5092915050565b6115f56115ef611c92565b8361202a565b6116115760405162461bcd60e51b81526004016106af906135a6565b61161d8484848461253f565b50505050565b600054600490610100900460ff16158015611645575060005460ff8083169116105b6116a85760405162461bcd60e51b815260206004820152602e60248201527f496e697469616c697a61626c653a20636f6e747261637420697320616c72656160448201526d191e481a5b9a5d1a585b1a5e995960921b60648201526084016106af565b6000805461ffff191660ff83161761010017905560408051808201825260098152684d696e7452616c6c7960b81b6020808301919091528251808401909352600283526126a960f11b908301526116fe91612572565b6117066125a3565b61170f846125d2565b61013780546001600160a01b038581166001600160a01b0319928316179092556101398054928516929091169190911790556000805461ff001916905560405160ff821681527f7f26b83ff96e1f2b6a682f133852f6798a09c465da95921460cefb38474024989060200160405180910390a150505050565b606061057b61013860008481526020019081526020016000208054806020026020016040519081016040528092919081815260200182805480156117eb57602002820191906000526020600020905b8154815260200190600101908083116117d7575b50505050506114e4565b60008181526101306020526040812080546060929190611814906134c0565b80601f0160208091040260200160405190810160405280929190818152602001828054611840906134c0565b801561188d5780601f106118625761010080835404028352916020019161188d565b820191906000526020600020905b81548152906001019060200180831161187057829003601f168201915b5093979650505050505050565b600061013160006118ab8585612623565b815260208101919091526040016000205460ff169392505050565b6101395460408051635c975abb60e01b815290516001600160a01b03909216918291635c975abb916004808301926020929190829003018186803b15801561190d57600080fd5b505afa158015611921573d6000803e3d6000fd5b505050506040513d601f19601f82011682018060405250810190611945919061350b565b1561194f57600080fd5b61012f546001600160a01b0316611964611c92565b6001600160a01b0316146119a95760405162461bcd60e51b815260206004820152600c60248201526b1d5b985d5d1a1bdc9a5e995960a21b60448201526064016106af565b60008581526101346020908152604080832087905561013590915281208490555b8251811015611a51578281815181106119e5576119e561355f565b6020026020010151600001516101336000611a1d89878681518110611a0c57611a0c61355f565b60200260200101516020015161266b565b81526020019081526020016000209080519060200190611a3e929190612c52565b5080611a498161358b565b9150506119ca565b505050505050565b611a61612250565b6001600160a01b038116611ac65760405162461bcd60e51b815260206004820152602660248201527f4f776e61626c653a206e6577206f776e657220697320746865207a65726f206160448201526564647265737360d01b60648201526084016106af565b610c1b8161241e565b6101395460408051635c975abb60e01b815290516001600160a01b03909216918291635c975abb916004808301926020929190829003018186803b158015611b1657600080fd5b505afa158015611b2a573d6000803e3d6000fd5b505050506040513d601f19601f82011682018060405250810190611b4e919061350b565b15611b5857600080fd5b611b628383610c1e565b506101375460405163635e393960e11b81526001600160a01b0390911690819063c6bc727290611b989086908890600401613810565b600060405180830381600087803b158015611bb257600080fd5b505af1158015611bc6573d6000803e3d6000fd5b50505050611bdc8585611bd7611c92565b611d30565b5050505050565b60006001600160e01b031982166380ac58cd60e01b1480611c1457506001600160e01b03198216635b5e139f60e01b145b8061057b57506301ffc9a760e01b6001600160e01b031983161461057b565b6000818152606760205260409020546001600160a01b0316610c1b5760405162461bcd60e51b8152602060048201526018602482015277115490cdcc8c4e881a5b9d985b1a59081d1bdad95b88125160421b60448201526064016106af565b60c9546000906001600160a01b0316331415611cb5575060131936013560601c90565b611cbd612687565b905090565b600081815260696020526040902080546001600160a01b0319166001600160a01b0384169081179091558190611cf782610e06565b6001600160a01b03167f8c5be1e5ebec7d5bd14f71427d1e84f3dd0314c0f7b2291e5b200ac8c7c3b92560405160405180910390a45050565b60008281526101346020526040902054611d4c9060019061382d565b6000838152610134602052604081209190915560019061013190611d708486612623565b815260200190815260200160002060006101000a81548160ff0219169083151502179055506000611da18285612623565b60008181526101326020526040902054909150611dbf8160016137a1565b6000838152610132602052604081209190915561013381611de0878261266b565b81526020019081526020016000208054611df9906134c0565b80601f0160208091040260200160405190810160405280929190818152602001828054611e25906134c0565b8015611e725780601f10611e4757610100808354040283529160200191611e72565b820191906000526020600020905b815481529060010190602001808311611e5557829003601f168201915b5050505050905060006101336000611e8a888661266b565b81526020019081526020016000208054611ea3906134c0565b80601f0160208091040260200160405190810160405280929190818152602001828054611ecf906134c0565b8015611f1c5780601f10611ef157610100808354040283529160200191611f1c565b820191906000526020600020905b815481529060010190602001808311611eff57829003601f168201915b505060408051600081526020810180835281519020959650611f449450869350019050613844565b6040516020818303038152906040528051906020012014611f63578091505b816101306000611f7361012e5490565b81526020019081526020016000209080519060200190611f94929190612c52565b5060008681526101386020526040902061012e5481546001810183556000928352602090922090910155611fd185611fcc61012e5490565b6126af565b611fe061012e80546001019055565b846001600160a01b03167faf2fad1984d2c7abaa9300537cf9fe1bcfaf2d6226e4ffdf03522dbf3064808e836040516120199190612d7d565b60405180910390a250505050505050565b60008061203683610e06565b9050806001600160a01b0316846001600160a01b0316148061207d57506001600160a01b038082166000908152606a602090815260408083209388168352929052205460ff165b806120a15750836001600160a01b031661209684610613565b6001600160a01b0316145b949350505050565b826001600160a01b03166120bc82610e06565b6001600160a01b0316146121205760405162461bcd60e51b815260206004820152602560248201527f4552433732313a207472616e736665722066726f6d20696e636f72726563742060448201526437bbb732b960d91b60648201526084016106af565b6001600160a01b0382166121825760405162461bcd60e51b8152602060048201526024808201527f4552433732313a207472616e7366657220746f20746865207a65726f206164646044820152637265737360e01b60648201526084016106af565b61218d8383836126c9565b612198600082611cc2565b6001600160a01b03831660009081526068602052604081208054600192906121c190849061382d565b90915550506001600160a01b03821660009081526068602052604081208054600192906121ef9084906137a1565b909155505060008181526067602052604080822080546001600160a01b0319166001600160a01b0386811691821790925591518493918716917fddf252ad1be2c89b69c2b068fc378daa952ba7f163c4a11628f55a4df523b3ef91a4505050565b612258611c92565b6001600160a01b031661227360fc546001600160a01b031690565b6001600160a01b031614610efe5760405162461bcd60e51b815260206004820181905260248201527f4f776e61626c653a2063616c6c6572206973206e6f7420746865206f776e657260448201526064016106af565b60006122d482610e06565b90506122e2816000846126c9565b6122ed600083611cc2565b6001600160a01b038116600090815260686020526040812080546001929061231690849061382d565b909155505060008281526067602052604080822080546001600160a01b0319169055518391906001600160a01b038416907fddf252ad1be2c89b69c2b068fc378daa952ba7f163c4a11628f55a4df523b3ef908390a45050565b6101375460408051602080820183526000858152610135909152828120548252915163532dd84d60e11b815291926001600160a01b0316918390839063a65bb09a906123c490899086908a90600401613860565b60206040518083038186803b1580156123dc57600080fd5b505afa1580156123f0573d6000803e3d6000fd5b505050506040513d601f19601f82011682018060405250810190612414919061350b565b9695505050505050565b60fc80546001600160a01b038381166001600160a01b0319831681179093556040519116919082907f8be0079c531659141344cd1fd0a4f28419497f9722a3daafe3b4186f6b6457e090600090a35050565b816001600160a01b0316836001600160a01b031614156124d25760405162461bcd60e51b815260206004820152601960248201527f4552433732313a20617070726f766520746f2063616c6c65720000000000000060448201526064016106af565b6001600160a01b038381166000818152606a6020908152604080832094871680845294825291829020805460ff191686151590811790915591519182527f17307eab39ab6107e8899845ad3d59bd9653f200f220920489ca2b5937696c31910160405180910390a3505050565b61254a8484846120a9565b61255684848484612781565b61161d5760405162461bcd60e51b81526004016106af906138a9565b600054610100900460ff166125995760405162461bcd60e51b81526004016106af906138fb565b6114e08282612895565b600054610100900460ff166125ca5760405162461bcd60e51b81526004016106af906138fb565b610efe6128e3565b600054610100900460ff166125f95760405162461bcd60e51b81526004016106af906138fb565b61260161291a565b60c980546001600160a01b0319166001600160a01b0392909216919091179055565b6040516bffffffffffffffffffffffff19606084901b166020820152603481018290526000906054015b60405160208183030381529060405280519060200120905092915050565b604080516020810184905290810182905260009060600161264d565b60c9546000906001600160a01b03163314156126aa575060131936013560601c90565b503390565b6114e0828260405180602001604052806000815250612941565b6001600160a01b0383166127245761271f81609980546000838152609a60205260408120829055600182018355919091527f72a152ddfb8e864297c917af52ea6c1c68aead0fee1a62673fcc7e0c94979d000155565b612747565b816001600160a01b0316836001600160a01b031614612747576127478382612974565b6001600160a01b03821661275e5761076281612a11565b826001600160a01b0316826001600160a01b031614610762576107628282612ac0565b60006001600160a01b0384163b1561288a57836001600160a01b031663150b7a026127aa611c92565b8786866040518563ffffffff1660e01b81526004016127cc9493929190613946565b602060405180830381600087803b1580156127e657600080fd5b505af1925050508015612816575060408051601f3d908101601f1916820190925261281391810190613979565b60015b612870573d808015612844576040519150601f19603f3d011682016040523d82523d6000602084013e612849565b606091505b5080516128685760405162461bcd60e51b81526004016106af906138a9565b805181602001fd5b6001600160e01b031916630a85bd0160e11b1490506120a1565b506001949350505050565b600054610100900460ff166128bc5760405162461bcd60e51b81526004016106af906138fb565b81516128cf906065906020850190612c52565b508051610762906066906020840190612c52565b600054610100900460ff1661290a5760405162461bcd60e51b81526004016106af906138fb565b610efe612915611c92565b61241e565b600054610100900460ff16610efe5760405162461bcd60e51b81526004016106af906138fb565b61294b8383612b04565b6129586000848484612781565b6107625760405162461bcd60e51b81526004016106af906138a9565b6000600161298184610e66565b61298b919061382d565b6000838152609860205260409020549091508082146129de576001600160a01b03841660009081526097602090815260408083208584528252808320548484528184208190558352609890915290208190555b5060009182526098602090815260408084208490556001600160a01b039094168352609781528383209183525290812055565b609954600090612a239060019061382d565b6000838152609a602052604081205460998054939450909284908110612a4b57612a4b61355f565b906000526020600020015490508060998381548110612a6c57612a6c61355f565b6000918252602080832090910192909255828152609a90915260408082208490558582528120556099805480612aa457612aa4613996565b6001900381819060005260206000200160009055905550505050565b6000612acb83610e66565b6001600160a01b039093166000908152609760209081526040808320868452825280832085905593825260989052919091209190915550565b6001600160a01b038216612b5a5760405162461bcd60e51b815260206004820181905260248201527f4552433732313a206d696e7420746f20746865207a65726f206164647265737360448201526064016106af565b6000818152606760205260409020546001600160a01b031615612bbf5760405162461bcd60e51b815260206004820152601c60248201527f4552433732313a20746f6b656e20616c7265616479206d696e7465640000000060448201526064016106af565b612bcb600083836126c9565b6001600160a01b0382166000908152606860205260408120805460019290612bf49084906137a1565b909155505060008181526067602052604080822080546001600160a01b0319166001600160a01b03861690811790915590518392907fddf252ad1be2c89b69c2b068fc378daa952ba7f163c4a11628f55a4df523b3ef908290a45050565b828054612c5e906134c0565b90600052602060002090601f016020900481019282612c805760008555612cc6565b82601f10612c9957805160ff1916838001178555612cc6565b82800160010185558215612cc6579182015b82811115612cc6578251825591602001919060010190612cab565b50612cd2929150612cd6565b5090565b5b80821115612cd25760008155600101612cd7565b6001600160e01b031981168114610c1b57600080fd5b600060208284031215612d1357600080fd5b8135612d1e81612ceb565b9392505050565b60005b83811015612d40578181015183820152602001612d28565b8381111561161d5750506000910152565b60008151808452612d69816020860160208601612d25565b601f01601f19169290920160200192915050565b602081526000612d1e6020830184612d51565b600060208284031215612da257600080fd5b5035919050565b6001600160a01b0381168114610c1b57600080fd5b60008060408385031215612dd157600080fd5b8235612ddc81612da9565b946020939093013593505050565b8015158114610c1b57600080fd5b60008060408385031215612e0b57600080fd5b823591506020830135612e1d81612dea565b809150509250929050565b634e487b7160e01b600052604160045260246000fd5b604080519081016001600160401b0381118282101715612e6057612e60612e28565b60405290565b60405160c081016001600160401b0381118282101715612e6057612e60612e28565b604051601f8201601f191681016001600160401b0381118282101715612eb057612eb0612e28565b604052919050565b60006001600160401b03821115612ed157612ed1612e28565b5060051b60200190565b60008060408385031215612eee57600080fd5b823591506020808401356001600160401b03811115612f0c57600080fd5b8401601f81018613612f1d57600080fd5b8035612f30612f2b82612eb8565b612e88565b81815260059190911b82018301908381019088831115612f4f57600080fd5b928401925b82841015612f76578335612f6781612da9565b82529284019290840190612f54565b80955050505050509250929050565b600080600060608486031215612f9a57600080fd5b8335612fa581612da9565b92506020840135612fb581612da9565b929592945050506040919091013590565b600082601f830112612fd757600080fd5b6040516103008082018281106001600160401b0382111715612ffb57612ffb612e28565b6040528301818582111561300e57600080fd5b845b82811015613028578035825260209182019101613010565b509195945050505050565b600080610320838503121561304757600080fd5b823591506130588460208501612fc6565b90509250929050565b60006020828403121561307357600080fd5b8135612d1e81612da9565b602080825282518282018190526000919060409081850190868401855b828110156130d357815180516001600160a01b031685528681015187860152850151858501526060909301929085019060010161309b565b5091979650505050505050565b600080604083850312156130f357600080fd5b50508035926020909101359150565b6000806040838503121561311557600080fd5b823561312081612da9565b91506020830135612e1d81612dea565b6000602080838503121561314357600080fd5b82356001600160401b0381111561315957600080fd5b8301601f8101851361316a57600080fd5b8035613178612f2b82612eb8565b81815260059190911b8201830190838101908783111561319757600080fd5b928401925b828410156131b55783358252928401929084019061319c565b979650505050505050565b602080825282518282018190526000919060409081850190868401855b828110156130d357815180516001600160a01b031685528601518685015292840192908501906001016131dd565b60006001600160401b0382111561322457613224612e28565b50601f01601f191660200190565b6000613240612f2b8461320b565b905082815283838301111561325457600080fd5b828260208301376000602084830101529392505050565b6000806000806080858703121561328157600080fd5b843561328c81612da9565b9350602085013561329c81612da9565b92506040850135915060608501356001600160401b038111156132be57600080fd5b8501601f810187136132cf57600080fd5b6132de87823560208401613232565b91505092959194509250565b6000806000606084860312156132ff57600080fd5b833561330a81612da9565b9250602084013561331a81612da9565b9150604084013561332a81612da9565b809150509250925092565b6000806040838503121561334857600080fd5b823561335381612da9565b91506020830135612e1d81612da9565b6000806000806080858703121561337957600080fd5b84359350602085013592506040850135915060608501356001600160401b03808211156133a557600080fd5b818701915087601f8301126133b957600080fd5b81356133c7612f2b82612eb8565b8082825260208201915060208360051b86010192508a8311156133e957600080fd5b602085015b8381101561347957848135111561340457600080fd5b803586016040818e03601f1901121561341c57600080fd5b613424612e3e565b60208201358781111561343657600080fd5b8201603f81018f1361344757600080fd5b6134598f602083013560408401613232565b8252506040919091013560208083019190915290845292830192016133ee565b50979a9699509497505050505050565b6000806000610340848603121561349f57600080fd5b83359250602084013591506134b78560408601612fc6565b90509250925092565b600181811c908216806134d457607f821691505b602082108114156134f557634e487b7160e01b600052602260045260246000fd5b50919050565b805161350681612dea565b919050565b60006020828403121561351d57600080fd5b8151612d1e81612dea565b6020808252601d908201527f796f7520617265206e6f74206576656e742067726f7570206f776e6572000000604082015260600190565b634e487b7160e01b600052603260045260246000fd5b634e487b7160e01b600052601160045260246000fd5b600060001982141561359f5761359f613575565b5060010190565b6020808252602e908201527f4552433732313a2063616c6c6572206973206e6f7420746f6b656e206f776e6560408201526d1c881b9bdc88185c1c1c9bdd995960921b606082015260800190565b600082601f83011261360557600080fd5b8151613613612f2b8261320b565b81815284602083860101111561362857600080fd5b6120a1826020830160208701612d25565b600060c0828403121561364b57600080fd5b613653612e66565b9050815181526020820151602082015260408201516001600160401b038082111561367d57600080fd5b613689858386016135f4565b604084015260608401519150808211156136a257600080fd5b6136ae858386016135f4565b606084015260808401519150808211156136c757600080fd5b506136d4848285016135f4565b6080830152506136e660a083016134fb565b60a082015292915050565b6000602080838503121561370457600080fd5b82516001600160401b038082111561371b57600080fd5b818501915085601f83011261372f57600080fd5b815161373d612f2b82612eb8565b81815260059190911b8301840190848101908883111561375c57600080fd5b8585015b83811015613794578051858111156137785760008081fd5b6137868b89838a0101613639565b845250918601918601613760565b5098975050505050505050565b600082198211156137b4576137b4613575565b500190565b6000602082840312156137cb57600080fd5b81516001600160401b038111156137e157600080fd5b6120a184828501613639565b8060005b601881101561161d5781518452602093840193909101906001016137f1565b610320810161381f82856137ed565b826103008301529392505050565b60008282101561383f5761383f613575565b500390565b60008251613856818460208701612d25565b9190910192915050565b610340810161386f82866137ed565b61030082018460005b6001811015613897578151835260209283019290910190600101613878565b50505082610320830152949350505050565b60208082526032908201527f4552433732313a207472616e7366657220746f206e6f6e20455243373231526560408201527131b2b4bb32b91034b6b83632b6b2b73a32b960711b606082015260800190565b6020808252602b908201527f496e697469616c697a61626c653a20636f6e7472616374206973206e6f74206960408201526a6e697469616c697a696e6760a81b606082015260800190565b6001600160a01b038581168252841660208201526040810183905260806060820181905260009061241490830184612d51565b60006020828403121561398b57600080fd5b8151612d1e81612ceb565b634e487b7160e01b600052603160045260246000fdfea2646970667358221220e474ac45ae52e8b43a0cd29b39e74f7102afd61df4bcab2e86aab9e2fefb16cb64736f6c63430008090033",
  "linkReferences": {},
  "deployedLinkReferences": {}
}