{
  "_format": "hh-sol-artifact-1",
  "contractName": "MintNFT",
  "sourceName": "contracts/MintNFT.sol",
  "abi": [
    {
      "anonymous": false,
      "inputs": [
        {
          "indexed": true,
          "internalType": "address",
          "name": "owner",
          "type": "address"
        },
        {
          "indexed": true,
          "internalType": "address",
          "name": "approved",
          "type": "address"
        },
        {
          "indexed": true,
          "internalType": "uint256",
          "name": "tokenId",
          "type": "uint256"
        }
      ],
      "name": "Approval",
      "type": "event"
    },
    {
      "anonymous": false,
      "inputs": [
        {
          "indexed": true,
          "internalType": "address",
          "name": "owner",
          "type": "address"
        },
        {
          "indexed": true,
          "internalType": "address",
          "name": "operator",
          "type": "address"
        },
        {
          "indexed": false,
          "internalType": "bool",
          "name": "approved",
          "type": "bool"
        }
      ],
      "name": "ApprovalForAll",
      "type": "event"
    },
    {
      "anonymous": false,
      "inputs": [
        {
          "indexed": true,
          "internalType": "address",
          "name": "executor",
          "type": "address"
        },
        {
          "indexed": true,
          "internalType": "uint256",
          "name": "eventId",
          "type": "uint256"
        }
      ],
      "name": "DroppedNFTs",
      "type": "event"
    },
    {
      "anonymous": false,
      "inputs": [
        {
          "indexed": false,
          "internalType": "uint8",
          "name": "version",
          "type": "uint8"
        }
      ],
      "name": "Initialized",
      "type": "event"
    },
    {
      "anonymous": false,
      "inputs": [
        {
          "indexed": true,
          "internalType": "uint256",
          "name": "eventId",
          "type": "uint256"
        },
        {
          "indexed": false,
          "internalType": "bool",
          "name": "isLocked",
          "type": "bool"
        }
      ],
      "name": "MintLocked",
      "type": "event"
    },
    {
      "anonymous": false,
      "inputs": [
        {
          "indexed": true,
          "internalType": "address",
          "name": "holder",
          "type": "address"
        },
        {
          "indexed": false,
          "internalType": "string",
          "name": "url",
          "type": "string"
        }
      ],
      "name": "MintedNFTAttributeURL",
      "type": "event"
    },
    {
      "anonymous": false,
      "inputs": [
        {
          "indexed": true,
          "internalType": "uint256",
          "name": "eventId",
          "type": "uint256"
        },
        {
          "indexed": false,
          "internalType": "bool",
          "name": "isNonTransferable",
          "type": "bool"
        }
      ],
      "name": "NonTransferable",
      "type": "event"
    },
    {
      "anonymous": false,
      "inputs": [
        {
          "indexed": true,
          "internalType": "address",
          "name": "previousOwner",
          "type": "address"
        },
        {
          "indexed": true,
          "internalType": "address",
          "name": "newOwner",
          "type": "address"
        }
      ],
      "name": "OwnershipTransferred",
      "type": "event"
    },
    {
      "anonymous": false,
      "inputs": [
        {
          "indexed": true,
          "internalType": "address",
          "name": "executor",
          "type": "address"
        },
        {
          "indexed": true,
          "internalType": "uint256",
          "name": "eventId",
          "type": "uint256"
        }
      ],
      "name": "ResetSecretPhrase",
      "type": "event"
    },
    {
      "anonymous": false,
      "inputs": [
        {
          "indexed": true,
          "internalType": "address",
          "name": "from",
          "type": "address"
        },
        {
          "indexed": true,
          "internalType": "address",
          "name": "to",
          "type": "address"
        },
        {
          "indexed": true,
          "internalType": "uint256",
          "name": "tokenId",
          "type": "uint256"
        }
      ],
      "name": "Transfer",
      "type": "event"
    },
    {
      "inputs": [
        {
          "internalType": "address",
          "name": "to",
          "type": "address"
        },
        {
          "internalType": "uint256",
          "name": "tokenId",
          "type": "uint256"
        }
      ],
      "name": "approve",
      "outputs": [],
      "stateMutability": "nonpayable",
      "type": "function"
    },
    {
      "inputs": [
        {
          "internalType": "address",
          "name": "owner",
          "type": "address"
        }
      ],
      "name": "balanceOf",
      "outputs": [
        {
          "internalType": "uint256",
          "name": "",
          "type": "uint256"
        }
      ],
      "stateMutability": "view",
      "type": "function"
    },
    {
      "inputs": [
        {
          "internalType": "uint256",
          "name": "tokenId",
          "type": "uint256"
        }
      ],
      "name": "burn",
      "outputs": [],
      "stateMutability": "nonpayable",
      "type": "function"
    },
    {
      "inputs": [
        {
          "internalType": "uint256",
          "name": "_eventId",
          "type": "uint256"
        },
        {
          "internalType": "uint256[24]",
          "name": "_proof",
          "type": "uint256[24]"
        }
      ],
      "name": "canMint",
      "outputs": [
        {
          "internalType": "bool",
          "name": "",
          "type": "bool"
        }
      ],
      "stateMutability": "view",
      "type": "function"
    },
    {
      "inputs": [
        {
          "internalType": "uint256",
          "name": "_eventId",
          "type": "uint256"
        },
        {
          "internalType": "bool",
          "name": "_locked",
          "type": "bool"
        }
      ],
      "name": "changeMintLocked",
      "outputs": [],
      "stateMutability": "nonpayable",
      "type": "function"
    },
    {
      "inputs": [
        {
          "internalType": "uint256",
          "name": "_eventId",
          "type": "uint256"
        },
        {
          "internalType": "bool",
          "name": "_isNonTransferable",
          "type": "bool"
        }
      ],
      "name": "changeNonTransferable",
      "outputs": [],
      "stateMutability": "nonpayable",
      "type": "function"
    },
    {
      "inputs": [
        {
          "internalType": "uint256",
          "name": "_eventId",
          "type": "uint256"
        },
        {
          "internalType": "address[]",
          "name": "_addresses",
          "type": "address[]"
        }
      ],
      "name": "dropNFTs",
      "outputs": [],
      "stateMutability": "nonpayable",
      "type": "function"
    },
    {
      "inputs": [
        {
          "internalType": "uint256",
          "name": "tokenId",
          "type": "uint256"
        }
      ],
      "name": "getApproved",
      "outputs": [
        {
          "internalType": "address",
          "name": "",
          "type": "address"
        }
      ],
      "stateMutability": "view",
      "type": "function"
    },
    {
      "inputs": [
        {
          "internalType": "uint256",
          "name": "_tokenId",
          "type": "uint256"
        }
      ],
      "name": "getEventIdOfTokenId",
      "outputs": [
        {
          "internalType": "uint256",
          "name": "",
          "type": "uint256"
        }
      ],
      "stateMutability": "view",
      "type": "function"
    },
    {
      "inputs": [
        {
          "internalType": "uint256",
          "name": "_eventId",
          "type": "uint256"
        }
      ],
      "name": "getGroupIdByEvent",
      "outputs": [
        {
          "internalType": "uint256",
          "name": "",
          "type": "uint256"
        }
      ],
      "stateMutability": "view",
      "type": "function"
    },
    {
      "inputs": [
        {
          "internalType": "uint256",
          "name": "_eventId",
          "type": "uint256"
        }
      ],
      "name": "getIsMintLocked",
      "outputs": [
        {
          "internalType": "bool",
          "name": "",
          "type": "bool"
        }
      ],
      "stateMutability": "view",
      "type": "function"
    },
    {
      "inputs": [
        {
          "internalType": "uint256",
          "name": "_eventId",
          "type": "uint256"
        }
      ],
      "name": "getIsNonTransferable",
      "outputs": [
        {
          "internalType": "bool",
          "name": "",
          "type": "bool"
        }
      ],
      "stateMutability": "view",
      "type": "function"
    },
    {
      "inputs": [
        {
          "internalType": "uint256",
          "name": "_eventId",
          "type": "uint256"
        },
        {
          "internalType": "uint256",
          "name": "_limit",
          "type": "uint256"
        },
        {
          "internalType": "uint256",
          "name": "_offset",
          "type": "uint256"
        }
      ],
      "name": "getNFTAttributeRecordsByEventId",
      "outputs": [
        {
          "components": [
            {
              "internalType": "string",
              "name": "metaDataURL",
              "type": "string"
            },
            {
              "internalType": "uint256",
              "name": "requiredParticipateCount",
              "type": "uint256"
            }
          ],
          "internalType": "struct MintNFT.NFTAttribute[]",
          "name": "",
          "type": "tuple[]"
        }
      ],
      "stateMutability": "view",
      "type": "function"
    },
    {
      "inputs": [
        {
          "internalType": "uint256",
          "name": "_eventId",
          "type": "uint256"
        }
      ],
      "name": "getNFTHoldersByEvent",
      "outputs": [
        {
          "components": [
            {
              "internalType": "address",
              "name": "holderAddress",
              "type": "address"
            },
            {
              "internalType": "uint256",
              "name": "tokenId",
              "type": "uint256"
            }
          ],
          "internalType": "struct MintNFT.NFTHolder[]",
          "name": "",
          "type": "tuple[]"
        }
      ],
      "stateMutability": "view",
      "type": "function"
    },
    {
      "inputs": [
        {
          "internalType": "uint256",
          "name": "_groupId",
          "type": "uint256"
        }
      ],
      "name": "getNFTHoldersByEventGroup",
      "outputs": [
        {
          "components": [
            {
              "internalType": "address",
              "name": "holderAddress",
              "type": "address"
            },
            {
              "internalType": "uint256",
              "name": "eventId",
              "type": "uint256"
            },
            {
              "internalType": "uint256",
              "name": "tokenId",
              "type": "uint256"
            }
          ],
          "internalType": "struct MintNFT.NFTHolderWithEventId[]",
          "name": "",
          "type": "tuple[]"
        }
      ],
      "stateMutability": "view",
      "type": "function"
    },
    {
      "inputs": [
        {
          "internalType": "uint256",
          "name": "_eventId",
          "type": "uint256"
        }
      ],
      "name": "getRemainingNFTCount",
      "outputs": [
        {
          "internalType": "uint256",
          "name": "",
          "type": "uint256"
        }
      ],
      "stateMutability": "view",
      "type": "function"
    },
    {
      "inputs": [
        {
          "internalType": "uint256",
          "name": "eventId",
          "type": "uint256"
        }
      ],
      "name": "getTokenIdsByEvent",
      "outputs": [
        {
          "internalType": "uint256[]",
          "name": "",
          "type": "uint256[]"
        }
      ],
      "stateMutability": "view",
      "type": "function"
    },
    {
      "inputs": [
        {
          "internalType": "contract MinimalForwarderUpgradeable",
          "name": "trustedForwarder",
          "type": "address"
        },
        {
          "internalType": "address",
          "name": "_secretPhraseVerifierAddr",
          "type": "address"
        },
        {
          "internalType": "address",
          "name": "_operationControllerAddr",
          "type": "address"
        }
      ],
      "name": "initialize",
      "outputs": [],
      "stateMutability": "nonpayable",
      "type": "function"
    },
    {
      "inputs": [
        {
          "internalType": "address",
          "name": "owner",
          "type": "address"
        },
        {
          "internalType": "address",
          "name": "operator",
          "type": "address"
        }
      ],
      "name": "isApprovedForAll",
      "outputs": [
        {
          "internalType": "bool",
          "name": "",
          "type": "bool"
        }
      ],
      "stateMutability": "view",
      "type": "function"
    },
    {
      "inputs": [
        {
          "internalType": "address",
          "name": "_addr",
          "type": "address"
        },
        {
          "internalType": "uint256",
          "name": "_eventId",
          "type": "uint256"
        }
      ],
      "name": "isHoldingEventNFTByAddress",
      "outputs": [
        {
          "internalType": "bool",
          "name": "",
          "type": "bool"
        }
      ],
      "stateMutability": "view",
      "type": "function"
    },
    {
      "inputs": [
        {
          "internalType": "address",
          "name": "forwarder",
          "type": "address"
        }
      ],
      "name": "isTrustedForwarder",
      "outputs": [
        {
          "internalType": "bool",
          "name": "",
          "type": "bool"
        }
      ],
      "stateMutability": "view",
      "type": "function"
    },
    {
      "inputs": [
        {
          "internalType": "uint256",
          "name": "_groupId",
          "type": "uint256"
        },
        {
          "internalType": "uint256",
          "name": "_eventId",
          "type": "uint256"
        },
        {
          "internalType": "uint256[24]",
          "name": "_proof",
          "type": "uint256[24]"
        }
      ],
      "name": "mintParticipateNFT",
      "outputs": [],
      "stateMutability": "nonpayable",
      "type": "function"
    },
    {
      "inputs": [],
      "name": "name",
      "outputs": [
        {
          "internalType": "string",
          "name": "",
          "type": "string"
        }
      ],
      "stateMutability": "view",
      "type": "function"
    },
    {
      "inputs": [],
      "name": "owner",
      "outputs": [
        {
          "internalType": "address",
          "name": "",
          "type": "address"
        }
      ],
      "stateMutability": "view",
      "type": "function"
    },
    {
      "inputs": [
        {
          "internalType": "uint256",
          "name": "tokenId",
          "type": "uint256"
        }
      ],
      "name": "ownerOf",
      "outputs": [
        {
          "internalType": "address",
          "name": "",
          "type": "address"
        }
      ],
      "stateMutability": "view",
      "type": "function"
    },
    {
      "inputs": [
        {
          "internalType": "uint256[]",
          "name": "_tokenIdArray",
          "type": "uint256[]"
        }
      ],
      "name": "ownerOfTokens",
      "outputs": [
        {
          "components": [
            {
              "internalType": "address",
              "name": "holderAddress",
              "type": "address"
            },
            {
              "internalType": "uint256",
              "name": "tokenId",
              "type": "uint256"
            }
          ],
          "internalType": "struct MintNFT.NFTHolder[]",
          "name": "",
          "type": "tuple[]"
        }
      ],
      "stateMutability": "view",
      "type": "function"
    },
    {
      "inputs": [],
      "name": "renounceOwnership",
      "outputs": [],
      "stateMutability": "nonpayable",
      "type": "function"
    },
    {
      "inputs": [
        {
          "internalType": "uint256",
          "name": "_eventId",
          "type": "uint256"
        },
        {
          "internalType": "bytes32",
          "name": "_secretPhrase",
          "type": "bytes32"
        }
      ],
      "name": "resetSecretPhrase",
      "outputs": [],
      "stateMutability": "nonpayable",
      "type": "function"
    },
    {
      "inputs": [
        {
          "internalType": "address",
          "name": "from",
          "type": "address"
        },
        {
          "internalType": "address",
          "name": "to",
          "type": "address"
        },
        {
          "internalType": "uint256",
          "name": "tokenId",
          "type": "uint256"
        }
      ],
      "name": "safeTransferFrom",
      "outputs": [],
      "stateMutability": "nonpayable",
      "type": "function"
    },
    {
      "inputs": [
        {
          "internalType": "address",
          "name": "from",
          "type": "address"
        },
        {
          "internalType": "address",
          "name": "to",
          "type": "address"
        },
        {
          "internalType": "uint256",
          "name": "tokenId",
          "type": "uint256"
        },
        {
          "internalType": "bytes",
          "name": "data",
          "type": "bytes"
        }
      ],
      "name": "safeTransferFrom",
      "outputs": [],
      "stateMutability": "nonpayable",
      "type": "function"
    },
    {
      "inputs": [
        {
          "internalType": "address",
          "name": "operator",
          "type": "address"
        },
        {
          "internalType": "bool",
          "name": "approved",
          "type": "bool"
        }
      ],
      "name": "setApprovalForAll",
      "outputs": [],
      "stateMutability": "nonpayable",
      "type": "function"
    },
    {
      "inputs": [
        {
          "internalType": "uint256",
          "name": "eventId",
          "type": "uint256"
        },
        {
          "internalType": "uint256[]",
          "name": "tokenIds",
          "type": "uint256[]"
        }
      ],
      "name": "setEventIdOfTokenIds",
      "outputs": [],
      "stateMutability": "nonpayable",
      "type": "function"
    },
    {
      "inputs": [
        {
          "internalType": "uint256[]",
          "name": "eventIds",
          "type": "uint256[]"
        },
        {
          "internalType": "uint256[][]",
          "name": "tokenIdsArr",
          "type": "uint256[][]"
        }
      ],
      "name": "setEventIdOfTokenIdsBatch",
      "outputs": [],
      "stateMutability": "nonpayable",
      "type": "function"
    },
    {
      "inputs": [
        {
          "internalType": "uint256",
          "name": "_eventId",
          "type": "uint256"
        },
        {
          "internalType": "uint256",
          "name": "_mintLimit",
          "type": "uint256"
        },
        {
          "internalType": "bytes32",
          "name": "_secretPhrase",
          "type": "bytes32"
        },
        {
          "components": [
            {
              "internalType": "string",
              "name": "metaDataURL",
              "type": "string"
            },
            {
              "internalType": "uint256",
              "name": "requiredParticipateCount",
              "type": "uint256"
            }
          ],
          "internalType": "struct MintNFT.NFTAttribute[]",
          "name": "attributes",
          "type": "tuple[]"
        }
      ],
      "name": "setEventInfo",
      "outputs": [],
      "stateMutability": "nonpayable",
      "type": "function"
    },
    {
      "inputs": [
        {
          "internalType": "address",
          "name": "_addr",
          "type": "address"
        }
      ],
      "name": "setEventManagerAddr",
      "outputs": [],
      "stateMutability": "nonpayable",
      "type": "function"
    },
    {
      "inputs": [
        {
          "internalType": "bytes4",
          "name": "interfaceId",
          "type": "bytes4"
        }
      ],
      "name": "supportsInterface",
      "outputs": [
        {
          "internalType": "bool",
          "name": "",
          "type": "bool"
        }
      ],
      "stateMutability": "view",
      "type": "function"
    },
    {
      "inputs": [],
      "name": "symbol",
      "outputs": [
        {
          "internalType": "string",
          "name": "",
          "type": "string"
        }
      ],
      "stateMutability": "view",
      "type": "function"
    },
    {
      "inputs": [
        {
          "internalType": "uint256",
          "name": "index",
          "type": "uint256"
        }
      ],
      "name": "tokenByIndex",
      "outputs": [
        {
          "internalType": "uint256",
          "name": "",
          "type": "uint256"
        }
      ],
      "stateMutability": "view",
      "type": "function"
    },
    {
      "inputs": [
        {
          "internalType": "address",
          "name": "owner",
          "type": "address"
        },
        {
          "internalType": "uint256",
          "name": "index",
          "type": "uint256"
        }
      ],
      "name": "tokenOfOwnerByIndex",
      "outputs": [
        {
          "internalType": "uint256",
          "name": "",
          "type": "uint256"
        }
      ],
      "stateMutability": "view",
      "type": "function"
    },
    {
      "inputs": [
        {
          "internalType": "uint256",
          "name": "_tokenId",
          "type": "uint256"
        }
      ],
      "name": "tokenURI",
      "outputs": [
        {
          "internalType": "string",
          "name": "",
          "type": "string"
        }
      ],
      "stateMutability": "view",
      "type": "function"
    },
    {
      "inputs": [],
      "name": "totalSupply",
      "outputs": [
        {
          "internalType": "uint256",
          "name": "",
          "type": "uint256"
        }
      ],
      "stateMutability": "view",
      "type": "function"
    },
    {
      "inputs": [
        {
          "internalType": "address",
          "name": "from",
          "type": "address"
        },
        {
          "internalType": "address",
          "name": "to",
          "type": "address"
        },
        {
          "internalType": "uint256",
          "name": "tokenId",
          "type": "uint256"
        }
      ],
      "name": "transferFrom",
      "outputs": [],
      "stateMutability": "nonpayable",
      "type": "function"
    },
    {
      "inputs": [
        {
          "internalType": "address",
          "name": "newOwner",
          "type": "address"
        }
      ],
      "name": "transferOwnership",
      "outputs": [],
      "stateMutability": "nonpayable",
      "type": "function"
    }
  ],
  "bytecode": "0x608060405234801561001057600080fd5b506143dd806100206000396000f3fe608060405234801561001057600080fd5b50600436106102695760003560e01c8063715018a611610151578063b88d4fde116100c3578063df4b39dd11610087578063df4b39dd146105b5578063e572e74b146105d9578063e985e9c5146105ec578063ef3ad9eb14610628578063f2fde38b1461063b578063fa86623b1461064e57600080fd5b8063b88d4fde14610556578063c0c53b8b14610569578063c4b88ea41461057c578063c87b56dd1461058f578063d622abc2146105a257600080fd5b806394d842901161011557806394d84290146104d457806395d89b41146104e75780639731c1d6146104ef5780639dcd681114610510578063a22cb46514610523578063af5723b11461053657600080fd5b8063715018a6146104645780638da5cb5b1461046c5780638f70738e1461047d578063902d41c51461049d5780639041e3f4146104c157600080fd5b80632f745c59116101ea5780634df30149116101ae5780634df30149146103d55780634f6ccce7146103e85780634ffc9f4b146103fb578063572b6c051461041c5780636352211e1461043e57806370a082311461045157600080fd5b80632f745c59146103765780633c5f24bf1461038957806342842e0e1461039c57806342966c68146103af5780634d01a500146103c257600080fd5b806312b90fd61161023157806312b90fd6146102fe57806318160ddd1461031157806319ffeb3b1461032357806323b872dd1461034357806329ec9f441461035657600080fd5b806301ffc9a71461026e57806306fdde0314610296578063081812fc146102ab578063095ea7b3146102d65780630daa8be7146102eb575b600080fd5b61028161027c366004613504565b610661565b60405190151581526020015b60405180910390f35b61029e61068c565b60405161028d9190613580565b6102be6102b9366004613593565b61071e565b6040516001600160a01b03909116815260200161028d565b6102e96102e43660046135c1565b610745565b005b6102e96102f93660046135fb565b610872565b6102e961030c3660046136de565b610a0e565b6099545b60405190815260200161028d565b610336610331366004613788565b610c59565b60405161028d91906137b4565b6102e961035136600461382a565b610f8e565b610369610364366004613593565b610fc6565b60405161028d919061386b565b6103156103843660046135c1565b611029565b6102e961039736600461390a565b6110bf565b6102e96103aa36600461382a565b6110d5565b6102e96103bd366004613593565b6110f0565b6102e96103d0366004613950565b611104565b6102816103e3366004613a91565b6111cb565b6103156103f6366004613593565b611320565b610315610409366004613593565b6000908152610134602052604090205490565b61028161042a366004613abf565b60c9546001600160a01b0391821691161490565b6102be61044c366004613593565b6113b3565b61031561045f366004613abf565b611413565b6102e9611499565b60fc546001600160a01b03166102be565b61049061048b366004613593565b6114ad565b60405161028d9190613adc565b6102816104ab366004613593565b600090815261013b602052604090205460ff1690565b6102e96104cf366004613abf565b6117d8565b6103156104e2366004613593565b611859565b61029e6118eb565b6103156104fd366004613593565b600090815261013a602052604090205490565b6102e961051e366004613b3e565b6118fa565b6102e9610531366004613b60565b611a91565b610549610544366004613b8e565b611aa3565b60405161028d9190613bc2565b6102e9610564366004613c6d565b611ba3565b6102e9610577366004613cec565b611bdc565b61054961058a366004613593565b611d41565b61029e61059d366004613593565b611dae565b6102816105b03660046135c1565b611e53565b6102816105c3366004613593565b6000908152610136602052604090205460ff1690565b6102e96105e73660046135fb565b611e7f565b6102816105fa366004613d37565b6001600160a01b039182166000908152606a6020908152604080832093909416825291909152205460ff1690565b6102e9610636366004613d65565b612010565b6102e9610649366004613abf565b6121a3565b6102e961065c366004613e8b565b612219565b60006001600160e01b0319821663780e9d6360e01b148061068657506106868261232d565b92915050565b60606065805461069b90613ec2565b80601f01602080910402602001604051908101604052809291908181526020018280546106c790613ec2565b80156107145780601f106106e957610100808354040283529160200191610714565b820191906000526020600020905b8154815290600101906020018083116106f757829003601f168201915b5050505050905090565b60006107298261237d565b506000908152606960205260409020546001600160a01b031690565b6000610750826113b3565b9050806001600160a01b0316836001600160a01b031614156107c35760405162461bcd60e51b815260206004820152602160248201527f4552433732313a20617070726f76616c20746f2063757272656e74206f776e656044820152603960f91b60648201526084015b60405180910390fd5b806001600160a01b03166107d56123dc565b6001600160a01b031614806107f157506107f1816105fa6123dc565b6108635760405162461bcd60e51b815260206004820152603e60248201527f4552433732313a20617070726f76652063616c6c6572206973206e6f7420746f60448201527f6b656e206f776e6572206e6f7220617070726f76656420666f7220616c6c000060648201526084016107ba565b61086d838361240c565b505050565b61012f5482906001600160a01b03168063972f132761088f6123dc565b6040516001600160e01b031960e084901b1681526001600160a01b0390911660048201526024810185905260440160206040518083038186803b1580156108d557600080fd5b505afa1580156108e9573d6000803e3d6000fd5b505050506040513d601f19601f8201168201806040525081019061090d9190613f0d565b6109295760405162461bcd60e51b81526004016107ba90613f2a565b6101395460408051635c975abb60e01b815290516001600160a01b03909216918291635c975abb916004808301926020929190829003018186803b15801561097057600080fd5b505afa158015610984573d6000803e3d6000fd5b505050506040513d601f19601f820116820180604052508101906109a89190613f0d565b156109b257600080fd5b60008581526101366020908152604091829020805460ff1916871515908117909155915191825286917f1e3ed2b292ed72652054799a4fde74789a8670c153df666f76e01345ec31828191015b60405180910390a25050505050565b61012f5482906001600160a01b03168063972f1327610a2b6123dc565b6040516001600160e01b031960e084901b1681526001600160a01b0390911660048201526024810185905260440160206040518083038186803b158015610a7157600080fd5b505afa158015610a85573d6000803e3d6000fd5b505050506040513d601f19601f82011682018060405250810190610aa99190613f0d565b610ac55760405162461bcd60e51b81526004016107ba90613f2a565b6101395460408051635c975abb60e01b815290516001600160a01b03909216918291635c975abb916004808301926020929190829003018186803b158015610b0c57600080fd5b505afa158015610b20573d6000803e3d6000fd5b505050506040513d601f19601f82011682018060405250810190610b449190613f0d565b15610b4e57600080fd5b6000610b5986611859565b8551600088815261013460205260409020549192501115610bbc5760405162461bcd60e51b815260206004820152601d60248201527f72656d61696e696e6720636f756e74206973206e6f7420656e6f75676800000060448201526064016107ba565b60005b8551811015610c12576000868281518110610bdc57610bdc613f5a565b60200260200101519050610bf08189611e53565b610bff57610bff83898361247a565b5080610c0a81613f86565b915050610bbf565b5085610c1c6123dc565b6001600160a01b03167ff0fae1d6c53c230d212972a098b7dbf41d3a6dbb348a4ebf640a51ce63cd3b6760405160405180910390a3505050505050565b606082610c6557606492505b6064831115610cab5760405162461bcd60e51b81526020600482015260126024820152716c696d697420697320746f6f206c6172676560701b60448201526064016107ba565b6000836001600160401b03811115610cc557610cc561362b565b604051908082528060200260200182016040528015610d0b57816020015b604080518082019091526060815260006020820152815260200190600190039081610ce35790505b509050610d1a84600019613fa1565b831115610d755760405162461bcd60e51b815260206004820152602360248201527f6c696d6974202b206f6666736574206d757374206265203c3d20325e323536206044820152622d203160e81b60648201526084016107ba565b6000610d818486613fb8565b90506000845b82811015610ec95760006101336000610da08b85612775565b81526020019081526020016000208054610db990613ec2565b80601f0160208091040260200160405190810160405280929190818152602001828054610de590613ec2565b8015610e325780601f10610e0757610100808354040283529160200191610e32565b820191906000526020600020905b815481529060010190602001808311610e1557829003601f168201915b505060408051600081526020810180835281519020959650610e5a9450869350019050613fd0565b6040516020818303038152906040528051906020012014610eb657604051806040016040528082815260200183815250858481518110610e9c57610e9c613f5a565b60200260200101819052508280610eb290613f86565b9350505b5080610ec181613f86565b915050610d87565b506000816001600160401b03811115610ee457610ee461362b565b604051908082528060200260200182016040528015610f2a57816020015b604080518082019091526060815260006020820152815260200190600190039081610f025790505b50905060005b82811015610f8257848181518110610f4a57610f4a613f5a565b6020026020010151828281518110610f6457610f64613f5a565b60200260200101819052508080610f7a90613f86565b915050610f30565b50979650505050505050565b610f9f610f996123dc565b826127ab565b610fbb5760405162461bcd60e51b81526004016107ba90613fec565b61086d83838361282a565b6000818152610138602090815260409182902080548351818402810184019094528084526060939283018282801561101d57602002820191906000526020600020905b815481526020019060010190808311611009575b50505050509050919050565b600061103483611413565b82106110965760405162461bcd60e51b815260206004820152602b60248201527f455243373231456e756d657261626c653a206f776e657220696e646578206f7560448201526a74206f6620626f756e647360a81b60648201526084016107ba565b506001600160a01b03919091166000908152609760209081526040808320938352929052205490565b6110c7612898565b6110d18282612911565b5050565b61086d83838360405180602001604052806000815250611ba3565b6110f8612898565b6111018161295b565b50565b61110c612898565b8151815181146111545760405162461bcd60e51b81526020600482015260136024820152720d8cadccee8d040d2e640dcdee840dac2e8c6d606b1b60448201526064016107ba565b60005b818110156111c55782818151811061117157611171613f5a565b6020026020010151516000146111bd576111bd84828151811061119657611196613f5a565b60200260200101518483815181106111b0576111b0613f5a565b6020026020010151612911565b600101611157565b50505050565b60006111d78284612a02565b61121b5760405162461bcd60e51b8152602060048201526015602482015274696e76616c6964207365637265742070687261736560581b60448201526064016107ba565b600083815261013460205260409020546112775760405162461bcd60e51b815260206004820152601760248201527f72656d61696e696e6720636f756e74206973207a65726f00000000000000000060448201526064016107ba565b6112886112826123dc565b84611e53565b156112c65760405162461bcd60e51b815260206004820152600e60248201526d185b1c9958591e481b5a5b9d195960921b60448201526064016107ba565b6000838152610136602052604090205460ff16156113175760405162461bcd60e51b815260206004820152600e60248201526d1b5a5b9d081a5cc81b1bd8dad95960921b60448201526064016107ba565b50600192915050565b600061132b60995490565b821061138e5760405162461bcd60e51b815260206004820152602c60248201527f455243373231456e756d657261626c653a20676c6f62616c20696e646578206f60448201526b7574206f6620626f756e647360a01b60648201526084016107ba565b609982815481106113a1576113a1613f5a565b90600052602060002001549050919050565b6000818152606760205260408120546001600160a01b0316806106865760405162461bcd60e51b8152602060048201526018602482015277115490cdcc8c4e881a5b9d985b1a59081d1bdad95b88125160421b60448201526064016107ba565b60006001600160a01b03821661147d5760405162461bcd60e51b815260206004820152602960248201527f4552433732313a2061646472657373207a65726f206973206e6f7420612076616044820152683634b21037bbb732b960b91b60648201526084016107ba565b506001600160a01b031660009081526068602052604090205490565b6114a1612898565b6114ab6000612ab0565b565b61012f5460405163f562082360e01b8152600481018390526060916001600160a01b031690600090829063f56208239060240160006040518083038186803b1580156114f857600080fd5b505afa15801561150c573d6000803e3d6000fd5b505050506040513d6000823e601f3d908101601f191682016040526115349190810190614137565b9050600081516001600160401b038111156115515761155161362b565b60405190808252806020026020018201604052801561158457816020015b606081526020019060019003908161156f5790505b5090506000805b8351811015611611576115ba8482815181106115a9576115a9613f5a565b602002602001015160000151611d41565b8382815181106115cc576115cc613f5a565b60200260200101819052508281815181106115e9576115e9613f5a565b602002602001015151826115fd9190613fb8565b91508061160981613f86565b91505061158b565b506000816001600160401b0381111561162c5761162c61362b565b60405190808252806020026020018201604052801561168a57816020015b611677604051806060016040528060006001600160a01b0316815260200160008152602001600081525090565b81526020019060019003908161164a5790505b50905060005b828110156117cd5760005b85518110156117c75760005b8582815181106116b9576116b9613f5a565b6020026020010151518110156117b45760405180606001604052808784815181106116e6576116e6613f5a565b602002602001015183815181106116ff576116ff613f5a565b6020026020010151600001516001600160a01b0316815260200188848151811061172b5761172b613f5a565b602002602001015160000151815260200187848151811061174e5761174e613f5a565b6020026020010151838151811061176757611767613f5a565b60200260200101516020015181525084848151811061178857611788613f5a565b6020026020010181905250828061179e90613f86565b93505080806117ac90613f86565b9150506116a7565b50806117bf81613f86565b91505061169b565b50611690565b509695505050505050565b6117e0612898565b6001600160a01b0381166118365760405162461bcd60e51b815260206004820152601e60248201527f6576656e74206d616e61676572206164647265737320697320626c616e6b000060448201526064016107ba565b61012f80546001600160a01b0319166001600160a01b0392909216919091179055565b61012f54604051632e601e6f60e21b8152600481018390526000916001600160a01b0316908290829063b98079bc9060240160006040518083038186803b1580156118a357600080fd5b505afa1580156118b7573d6000803e3d6000fd5b505050506040513d6000823e601f3d908101601f191682016040526118df91908101906141e7565b60200151949350505050565b60606066805461069b90613ec2565b61012f5482906001600160a01b03168063972f13276119176123dc565b6040516001600160e01b031960e084901b1681526001600160a01b0390911660048201526024810185905260440160206040518083038186803b15801561195d57600080fd5b505afa158015611971573d6000803e3d6000fd5b505050506040513d601f19601f820116820180604052508101906119959190613f0d565b6119b15760405162461bcd60e51b81526004016107ba90613f2a565b6101395460408051635c975abb60e01b815290516001600160a01b03909216918291635c975abb916004808301926020929190829003018186803b1580156119f857600080fd5b505afa158015611a0c573d6000803e3d6000fd5b505050506040513d601f19601f82011682018060405250810190611a309190613f0d565b15611a3a57600080fd5b60008581526101356020526040902084905584611a556123dc565b6001600160a01b03167fae5b067be3e4869ca571a499572a09085a17c3d0442a8965b8356bf47f63ba9960405160405180910390a35050505050565b6110d1611a9c6123dc565b8383612b02565b6060600082516001600160401b03811115611ac057611ac061362b565b604051908082528060200260200182016040528015611b0557816020015b6040805180820190915260008082526020820152815260200190600190039081611ade5790505b50905060005b8351811015611b9c576040518060400160405280611b41868481518110611b3457611b34613f5a565b60200260200101516113b3565b6001600160a01b03168152602001858381518110611b6157611b61613f5a565b6020026020010151815250828281518110611b7e57611b7e613f5a565b60200260200101819052508080611b9490613f86565b915050611b0b565b5092915050565b611bb4611bae6123dc565b836127ab565b611bd05760405162461bcd60e51b81526004016107ba90613fec565b6111c584848484612bd1565b600054600490610100900460ff16158015611bfe575060005460ff8083169116105b611c615760405162461bcd60e51b815260206004820152602e60248201527f496e697469616c697a61626c653a20636f6e747261637420697320616c72656160448201526d191e481a5b9a5d1a585b1a5e995960921b60648201526084016107ba565b6000805461ffff191660ff83161761010017905560408051808201825260098152684d696e7452616c6c7960b81b6020808301919091528251808401909352600283526126a960f11b90830152611cb791612c04565b611cbf612c35565b611cc884612c64565b61013780546001600160a01b038581166001600160a01b0319928316179092556101398054928516929091169190911790556000805461ff001916905560405160ff821681527f7f26b83ff96e1f2b6a682f133852f6798a09c465da95921460cefb38474024989060200160405180910390a150505050565b60606106866101386000848152602001908152602001600020805480602002602001604051908101604052809291908181526020018280548015611da457602002820191906000526020600020905b815481526020019060010190808311611d90575b5050505050611aa3565b60008181526101306020526040812080546060929190611dcd90613ec2565b80601f0160208091040260200160405190810160405280929190818152602001828054611df990613ec2565b8015611e465780601f10611e1b57610100808354040283529160200191611e46565b820191906000526020600020905b815481529060010190602001808311611e2957829003601f168201915b5093979650505050505050565b60006101316000611e648585612cb5565b815260208101919091526040016000205460ff169392505050565b61012f5482906001600160a01b03168063683159fd611e9c6123dc565b6040516001600160e01b031960e084901b1681526001600160a01b0390911660048201526024810185905260440160206040518083038186803b158015611ee257600080fd5b505afa158015611ef6573d6000803e3d6000fd5b505050506040513d601f19601f82011682018060405250810190611f1a9190613f0d565b611f365760405162461bcd60e51b81526004016107ba90613f2a565b6101395460408051635c975abb60e01b815290516001600160a01b03909216918291635c975abb916004808301926020929190829003018186803b158015611f7d57600080fd5b505afa158015611f91573d6000803e3d6000fd5b505050506040513d601f19601f82011682018060405250810190611fb59190613f0d565b15611fbf57600080fd5b600085815261013b6020908152604091829020805460ff1916871515908117909155915191825286917fec48382efd77c28bd224c3221392758fb274b160a104cc76c67d2719bcaef7c091016109ff565b6101395460408051635c975abb60e01b815290516001600160a01b03909216918291635c975abb916004808301926020929190829003018186803b15801561205757600080fd5b505afa15801561206b573d6000803e3d6000fd5b505050506040513d601f19601f8201168201806040525081019061208f9190613f0d565b1561209957600080fd5b61012f546001600160a01b03166120ae6123dc565b6001600160a01b0316146120f35760405162461bcd60e51b815260206004820152600c60248201526b1d5b985d5d1a1bdc9a5e995960a21b60448201526064016107ba565b60008581526101346020908152604080832087905561013590915281208490555b825181101561219b5782818151811061212f5761212f613f5a565b60200260200101516000015161013360006121678987868151811061215657612156613f5a565b602002602001015160200151612775565b81526020019081526020016000209080519060200190612188929190613455565b508061219381613f86565b915050612114565b505050505050565b6121ab612898565b6001600160a01b0381166122105760405162461bcd60e51b815260206004820152602660248201527f4f776e61626c653a206e6577206f776e657220697320746865207a65726f206160448201526564647265737360d01b60648201526084016107ba565b61110181612ab0565b6101395460408051635c975abb60e01b815290516001600160a01b03909216918291635c975abb916004808301926020929190829003018186803b15801561226057600080fd5b505afa158015612274573d6000803e3d6000fd5b505050506040513d601f19601f820116820180604052508101906122989190613f0d565b156122a257600080fd5b6122ac83836111cb565b506101375460405163635e393960e11b81526001600160a01b0390911690819063c6bc7272906122e2908690889060040161423e565b600060405180830381600087803b1580156122fc57600080fd5b505af1158015612310573d6000803e3d6000fd5b5050505061232685856123216123dc565b61247a565b5050505050565b60006001600160e01b031982166380ac58cd60e01b148061235e57506001600160e01b03198216635b5e139f60e01b145b8061068657506301ffc9a760e01b6001600160e01b0319831614610686565b6000818152606760205260409020546001600160a01b03166111015760405162461bcd60e51b8152602060048201526018602482015277115490cdcc8c4e881a5b9d985b1a59081d1bdad95b88125160421b60448201526064016107ba565b60c9546000906001600160a01b03163314156123ff575060131936013560601c90565b612407612ce3565b905090565b600081815260696020526040902080546001600160a01b0319166001600160a01b0384169081179091558190612441826113b3565b6001600160a01b03167f8c5be1e5ebec7d5bd14f71427d1e84f3dd0314c0f7b2291e5b200ac8c7c3b92560405160405180910390a45050565b6000828152610134602052604090205461249690600190613fa1565b60008381526101346020526040812091909155600190610131906124ba8486612cb5565b815260200190815260200160002060006101000a81548160ff02191690831515021790555060006124eb8285612cb5565b60008181526101326020526040902054909150612509816001613fb8565b600083815261013260205260408120919091556101338161252a8782612775565b8152602001908152602001600020805461254390613ec2565b80601f016020809104026020016040519081016040528092919081815260200182805461256f90613ec2565b80156125bc5780601f10612591576101008083540402835291602001916125bc565b820191906000526020600020905b81548152906001019060200180831161259f57829003601f168201915b50505050509050600061013360006125d48886612775565b815260200190815260200160002080546125ed90613ec2565b80601f016020809104026020016040519081016040528092919081815260200182805461261990613ec2565b80156126665780601f1061263b57610100808354040283529160200191612666565b820191906000526020600020905b81548152906001019060200180831161264957829003601f168201915b50506040805160008152602081018083528151902095965061268e9450869350019050613fd0565b60405160208183030381529060405280519060200120146126ad578091505b60006126b961012e5490565b60008181526101306020908152604090912085519293506126de929091860190613455565b5060008781526101386020908152604080832080546001810182559084528284200184905583835261013a909152902087905561272061012e80546001019055565b61272a8682612d0b565b856001600160a01b03167faf2fad1984d2c7abaa9300537cf9fe1bcfaf2d6226e4ffdf03522dbf3064808e846040516127639190613580565b60405180910390a25050505050505050565b60408051602081018490529081018290526000906060015b60405160208183030381529060405280519060200120905092915050565b6000806127b7836113b3565b9050806001600160a01b0316846001600160a01b031614806127fe57506001600160a01b038082166000908152606a602090815260408083209388168352929052205460ff165b806128225750836001600160a01b03166128178461071e565b6001600160a01b0316145b949350505050565b600081815261013a6020908152604080832054835261013b90915290205460ff161561288d5760405162461bcd60e51b81526020600482015260126024820152711d1c985b9cd9995c881a5cc81b1bd8dad95960721b60448201526064016107ba565b61086d838383612d25565b6128a06123dc565b6001600160a01b03166128bb60fc546001600160a01b031690565b6001600160a01b0316146114ab5760405162461bcd60e51b815260206004820181905260248201527f4f776e61626c653a2063616c6c6572206973206e6f7420746865206f776e657260448201526064016107ba565b805160005b818110156111c5578361013a600085848151811061293657612936613f5a565b6020026020010151815260200190815260200160002081905550806001019050612916565b6000612966826113b3565b905061297481600084612ecc565b61297f60008361240c565b6001600160a01b03811660009081526068602052604081208054600192906129a8908490613fa1565b909155505060008281526067602052604080822080546001600160a01b0319169055518391906001600160a01b038416907fddf252ad1be2c89b69c2b068fc378daa952ba7f163c4a11628f55a4df523b3ef908390a45050565b6101375460408051602080820183526000858152610135909152828120548252915163532dd84d60e11b815291926001600160a01b0316918390839063a65bb09a90612a5690899086908a9060040161425b565b60206040518083038186803b158015612a6e57600080fd5b505afa158015612a82573d6000803e3d6000fd5b505050506040513d601f19601f82011682018060405250810190612aa69190613f0d565b9695505050505050565b60fc80546001600160a01b038381166001600160a01b0319831681179093556040519116919082907f8be0079c531659141344cd1fd0a4f28419497f9722a3daafe3b4186f6b6457e090600090a35050565b816001600160a01b0316836001600160a01b03161415612b645760405162461bcd60e51b815260206004820152601960248201527f4552433732313a20617070726f766520746f2063616c6c65720000000000000060448201526064016107ba565b6001600160a01b038381166000818152606a6020908152604080832094871680845294825291829020805460ff191686151590811790915591519182527f17307eab39ab6107e8899845ad3d59bd9653f200f220920489ca2b5937696c31910160405180910390a3505050565b612bdc84848461282a565b612be884848484612f84565b6111c55760405162461bcd60e51b81526004016107ba906142a4565b600054610100900460ff16612c2b5760405162461bcd60e51b81526004016107ba906142f6565b6110d18282613098565b600054610100900460ff16612c5c5760405162461bcd60e51b81526004016107ba906142f6565b6114ab6130e6565b600054610100900460ff16612c8b5760405162461bcd60e51b81526004016107ba906142f6565b612c9361311d565b60c980546001600160a01b0319166001600160a01b0392909216919091179055565b6040516bffffffffffffffffffffffff19606084901b1660208201526034810182905260009060540161278d565b60c9546000906001600160a01b0316331415612d06575060131936013560601c90565b503390565b6110d1828260405180602001604052806000815250613144565b826001600160a01b0316612d38826113b3565b6001600160a01b031614612d9c5760405162461bcd60e51b815260206004820152602560248201527f4552433732313a207472616e736665722066726f6d20696e636f72726563742060448201526437bbb732b960d91b60648201526084016107ba565b6001600160a01b038216612dfe5760405162461bcd60e51b8152602060048201526024808201527f4552433732313a207472616e7366657220746f20746865207a65726f206164646044820152637265737360e01b60648201526084016107ba565b612e09838383612ecc565b612e1460008261240c565b6001600160a01b0383166000908152606860205260408120805460019290612e3d908490613fa1565b90915550506001600160a01b0382166000908152606860205260408120805460019290612e6b908490613fb8565b909155505060008181526067602052604080822080546001600160a01b0319166001600160a01b0386811691821790925591518493918716917fddf252ad1be2c89b69c2b068fc378daa952ba7f163c4a11628f55a4df523b3ef91a4505050565b6001600160a01b038316612f2757612f2281609980546000838152609a60205260408120829055600182018355919091527f72a152ddfb8e864297c917af52ea6c1c68aead0fee1a62673fcc7e0c94979d000155565b612f4a565b816001600160a01b0316836001600160a01b031614612f4a57612f4a8382613177565b6001600160a01b038216612f615761086d81613214565b826001600160a01b0316826001600160a01b03161461086d5761086d82826132c3565b60006001600160a01b0384163b1561308d57836001600160a01b031663150b7a02612fad6123dc565b8786866040518563ffffffff1660e01b8152600401612fcf9493929190614341565b602060405180830381600087803b158015612fe957600080fd5b505af1925050508015613019575060408051601f3d908101601f1916820190925261301691810190614374565b60015b613073573d808015613047576040519150601f19603f3d011682016040523d82523d6000602084013e61304c565b606091505b50805161306b5760405162461bcd60e51b81526004016107ba906142a4565b805181602001fd5b6001600160e01b031916630a85bd0160e11b149050612822565b506001949350505050565b600054610100900460ff166130bf5760405162461bcd60e51b81526004016107ba906142f6565b81516130d2906065906020850190613455565b50805161086d906066906020840190613455565b600054610100900460ff1661310d5760405162461bcd60e51b81526004016107ba906142f6565b6114ab6131186123dc565b612ab0565b600054610100900460ff166114ab5760405162461bcd60e51b81526004016107ba906142f6565b61314e8383613307565b61315b6000848484612f84565b61086d5760405162461bcd60e51b81526004016107ba906142a4565b6000600161318484611413565b61318e9190613fa1565b6000838152609860205260409020549091508082146131e1576001600160a01b03841660009081526097602090815260408083208584528252808320548484528184208190558352609890915290208190555b5060009182526098602090815260408084208490556001600160a01b039094168352609781528383209183525290812055565b60995460009061322690600190613fa1565b6000838152609a60205260408120546099805493945090928490811061324e5761324e613f5a565b90600052602060002001549050806099838154811061326f5761326f613f5a565b6000918252602080832090910192909255828152609a909152604080822084905585825281205560998054806132a7576132a7614391565b6001900381819060005260206000200160009055905550505050565b60006132ce83611413565b6001600160a01b039093166000908152609760209081526040808320868452825280832085905593825260989052919091209190915550565b6001600160a01b03821661335d5760405162461bcd60e51b815260206004820181905260248201527f4552433732313a206d696e7420746f20746865207a65726f206164647265737360448201526064016107ba565b6000818152606760205260409020546001600160a01b0316156133c25760405162461bcd60e51b815260206004820152601c60248201527f4552433732313a20746f6b656e20616c7265616479206d696e7465640000000060448201526064016107ba565b6133ce60008383612ecc565b6001600160a01b03821660009081526068602052604081208054600192906133f7908490613fb8565b909155505060008181526067602052604080822080546001600160a01b0319166001600160a01b03861690811790915590518392907fddf252ad1be2c89b69c2b068fc378daa952ba7f163c4a11628f55a4df523b3ef908290a45050565b82805461346190613ec2565b90600052602060002090601f01602090048101928261348357600085556134c9565b82601f1061349c57805160ff19168380011785556134c9565b828001600101855582156134c9579182015b828111156134c95782518255916020019190600101906134ae565b506134d59291506134d9565b5090565b5b808211156134d557600081556001016134da565b6001600160e01b03198116811461110157600080fd5b60006020828403121561351657600080fd5b8135613521816134ee565b9392505050565b60005b8381101561354357818101518382015260200161352b565b838111156111c55750506000910152565b6000815180845261356c816020860160208601613528565b601f01601f19169290920160200192915050565b6020815260006135216020830184613554565b6000602082840312156135a557600080fd5b5035919050565b6001600160a01b038116811461110157600080fd5b600080604083850312156135d457600080fd5b82356135df816135ac565b946020939093013593505050565b801515811461110157600080fd5b6000806040838503121561360e57600080fd5b823591506020830135613620816135ed565b809150509250929050565b634e487b7160e01b600052604160045260246000fd5b604080519081016001600160401b03811182821017156136635761366361362b565b60405290565b60405160c081016001600160401b03811182821017156136635761366361362b565b604051601f8201601f191681016001600160401b03811182821017156136b3576136b361362b565b604052919050565b60006001600160401b038211156136d4576136d461362b565b5060051b60200190565b600080604083850312156136f157600080fd5b823591506020808401356001600160401b0381111561370f57600080fd5b8401601f8101861361372057600080fd5b803561373361372e826136bb565b61368b565b81815260059190911b8201830190838101908883111561375257600080fd5b928401925b8284101561377957833561376a816135ac565b82529284019290840190613757565b80955050505050509250929050565b60008060006060848603121561379d57600080fd5b505081359360208301359350604090920135919050565b60006020808301818452808551808352604092508286019150828160051b87010184880160005b8381101561381c57888303603f19018552815180518785526137ff88860182613554565b9189015194890194909452948701949250908601906001016137db565b509098975050505050505050565b60008060006060848603121561383f57600080fd5b833561384a816135ac565b9250602084013561385a816135ac565b929592945050506040919091013590565b6020808252825182820181905260009190848201906040850190845b818110156138a357835183529284019291840191600101613887565b50909695505050505050565b600082601f8301126138c057600080fd5b813560206138d061372e836136bb565b82815260059290921b840181019181810190868411156138ef57600080fd5b8286015b848110156117cd57803583529183019183016138f3565b6000806040838503121561391d57600080fd5b8235915060208301356001600160401b0381111561393a57600080fd5b613946858286016138af565b9150509250929050565b6000806040838503121561396357600080fd5b82356001600160401b038082111561397a57600080fd5b613986868387016138af565b935060209150818501358181111561399d57600080fd5b8501601f810187136139ae57600080fd5b80356139bc61372e826136bb565b81815260059190911b820184019084810190898311156139db57600080fd5b8584015b83811015613a13578035868111156139f75760008081fd5b613a058c89838901016138af565b8452509186019186016139df565b508096505050505050509250929050565b600082601f830112613a3557600080fd5b6040516103008082018281106001600160401b0382111715613a5957613a5961362b565b60405283018185821115613a6c57600080fd5b845b82811015613a86578035825260209182019101613a6e565b509195945050505050565b6000806103208385031215613aa557600080fd5b82359150613ab68460208501613a24565b90509250929050565b600060208284031215613ad157600080fd5b8135613521816135ac565b602080825282518282018190526000919060409081850190868401855b82811015613b3157815180516001600160a01b0316855286810151878601528501518585015260609093019290850190600101613af9565b5091979650505050505050565b60008060408385031215613b5157600080fd5b50508035926020909101359150565b60008060408385031215613b7357600080fd5b8235613b7e816135ac565b91506020830135613620816135ed565b600060208284031215613ba057600080fd5b81356001600160401b03811115613bb657600080fd5b612822848285016138af565b602080825282518282018190526000919060409081850190868401855b82811015613b3157815180516001600160a01b03168552860151868501529284019290850190600101613bdf565b60006001600160401b03821115613c2657613c2661362b565b50601f01601f191660200190565b6000613c4261372e84613c0d565b9050828152838383011115613c5657600080fd5b828260208301376000602084830101529392505050565b60008060008060808587031215613c8357600080fd5b8435613c8e816135ac565b93506020850135613c9e816135ac565b92506040850135915060608501356001600160401b03811115613cc057600080fd5b8501601f81018713613cd157600080fd5b613ce087823560208401613c34565b91505092959194509250565b600080600060608486031215613d0157600080fd5b8335613d0c816135ac565b92506020840135613d1c816135ac565b91506040840135613d2c816135ac565b809150509250925092565b60008060408385031215613d4a57600080fd5b8235613d55816135ac565b91506020830135613620816135ac565b60008060008060808587031215613d7b57600080fd5b84359350602085013592506040850135915060608501356001600160401b0380821115613da757600080fd5b818701915087601f830112613dbb57600080fd5b8135613dc961372e826136bb565b8082825260208201915060208360051b86010192508a831115613deb57600080fd5b602085015b83811015613e7b578481351115613e0657600080fd5b803586016040818e03601f19011215613e1e57600080fd5b613e26613641565b602082013587811115613e3857600080fd5b8201603f81018f13613e4957600080fd5b613e5b8f602083013560408401613c34565b825250604091909101356020808301919091529084529283019201613df0565b50979a9699509497505050505050565b60008060006103408486031215613ea157600080fd5b8335925060208401359150613eb98560408601613a24565b90509250925092565b600181811c90821680613ed657607f821691505b60208210811415613ef757634e487b7160e01b600052602260045260246000fd5b50919050565b8051613f08816135ed565b919050565b600060208284031215613f1f57600080fd5b8151613521816135ed565b6020808252601690820152753cb7ba903430bb32903737903832b936b4b9b9b4b7b760511b604082015260600190565b634e487b7160e01b600052603260045260246000fd5b634e487b7160e01b600052601160045260246000fd5b6000600019821415613f9a57613f9a613f70565b5060010190565b600082821015613fb357613fb3613f70565b500390565b60008219821115613fcb57613fcb613f70565b500190565b60008251613fe2818460208701613528565b9190910192915050565b6020808252602e908201527f4552433732313a2063616c6c6572206973206e6f7420746f6b656e206f776e6560408201526d1c881b9bdc88185c1c1c9bdd995960921b606082015260800190565b600082601f83011261404b57600080fd5b815161405961372e82613c0d565b81815284602083860101111561406e57600080fd5b612822826020830160208701613528565b600060c0828403121561409157600080fd5b614099613669565b9050815181526020820151602082015260408201516001600160401b03808211156140c357600080fd5b6140cf8583860161403a565b604084015260608401519150808211156140e857600080fd5b6140f48583860161403a565b6060840152608084015191508082111561410d57600080fd5b5061411a8482850161403a565b60808301525061412c60a08301613efd565b60a082015292915050565b6000602080838503121561414a57600080fd5b82516001600160401b038082111561416157600080fd5b818501915085601f83011261417557600080fd5b815161418361372e826136bb565b81815260059190911b830184019084810190888311156141a257600080fd5b8585015b838110156141da578051858111156141be5760008081fd5b6141cc8b89838a010161407f565b8452509186019186016141a6565b5098975050505050505050565b6000602082840312156141f957600080fd5b81516001600160401b0381111561420f57600080fd5b6128228482850161407f565b8060005b60188110156111c557815184526020938401939091019060010161421f565b610320810161424d828561421b565b826103008301529392505050565b610340810161426a828661421b565b61030082018460005b6001811015614292578151835260209283019290910190600101614273565b50505082610320830152949350505050565b60208082526032908201527f4552433732313a207472616e7366657220746f206e6f6e20455243373231526560408201527131b2b4bb32b91034b6b83632b6b2b73a32b960711b606082015260800190565b6020808252602b908201527f496e697469616c697a61626c653a20636f6e7472616374206973206e6f74206960408201526a6e697469616c697a696e6760a81b606082015260800190565b6001600160a01b0385811682528416602082015260408101839052608060608201819052600090612aa690830184613554565b60006020828403121561438657600080fd5b8151613521816134ee565b634e487b7160e01b600052603160045260246000fdfea2646970667358221220530b3f51b9f51f2eb5859dec995ce8fed1c2fd8287e137080be2bc79c4f7ee4064736f6c63430008090033",
  "linkReferences": {},
  "deployedLinkReferences": {}
}