{
  "_format": "hh-sol-artifact-1",
  "contractName": "MintNFT",
  "sourceName": "contracts/MintNFT.sol",
  "abi": [
    {
      "anonymous": false,
      "inputs": [
        {
          "indexed": true,
          "internalType": "address",
          "name": "owner",
          "type": "address"
        },
        {
          "indexed": true,
          "internalType": "address",
          "name": "approved",
          "type": "address"
        },
        {
          "indexed": true,
          "internalType": "uint256",
          "name": "tokenId",
          "type": "uint256"
        }
      ],
      "name": "Approval",
      "type": "event"
    },
    {
      "anonymous": false,
      "inputs": [
        {
          "indexed": true,
          "internalType": "address",
          "name": "owner",
          "type": "address"
        },
        {
          "indexed": true,
          "internalType": "address",
          "name": "operator",
          "type": "address"
        },
        {
          "indexed": false,
          "internalType": "bool",
          "name": "approved",
          "type": "bool"
        }
      ],
      "name": "ApprovalForAll",
      "type": "event"
    },
    {
      "anonymous": false,
      "inputs": [
        {
          "indexed": true,
          "internalType": "address",
          "name": "executor",
          "type": "address"
        },
        {
          "indexed": true,
          "internalType": "uint256",
          "name": "eventId",
          "type": "uint256"
        }
      ],
      "name": "DroppedNFTs",
      "type": "event"
    },
    {
      "anonymous": false,
      "inputs": [
        {
          "indexed": false,
          "internalType": "uint8",
          "name": "version",
          "type": "uint8"
        }
      ],
      "name": "Initialized",
      "type": "event"
    },
    {
      "anonymous": false,
      "inputs": [
        {
          "indexed": true,
          "internalType": "uint256",
          "name": "eventId",
          "type": "uint256"
        },
        {
          "indexed": false,
          "internalType": "bool",
          "name": "isLocked",
          "type": "bool"
        }
      ],
      "name": "MintLocked",
      "type": "event"
    },
    {
      "anonymous": false,
      "inputs": [
        {
          "indexed": true,
          "internalType": "address",
          "name": "holder",
          "type": "address"
        },
        {
          "indexed": false,
          "internalType": "string",
          "name": "url",
          "type": "string"
        }
      ],
      "name": "MintedNFTAttributeURL",
      "type": "event"
    },
    {
      "anonymous": false,
      "inputs": [
        {
          "indexed": true,
          "internalType": "uint256",
          "name": "eventId",
          "type": "uint256"
        },
        {
          "indexed": false,
          "internalType": "bool",
          "name": "isNonTransferable",
          "type": "bool"
        }
      ],
      "name": "NonTransferable",
      "type": "event"
    },
    {
      "anonymous": false,
      "inputs": [
        {
          "indexed": true,
          "internalType": "address",
          "name": "previousOwner",
          "type": "address"
        },
        {
          "indexed": true,
          "internalType": "address",
          "name": "newOwner",
          "type": "address"
        }
      ],
      "name": "OwnershipTransferred",
      "type": "event"
    },
    {
      "anonymous": false,
      "inputs": [
        {
          "indexed": true,
          "internalType": "address",
          "name": "executor",
          "type": "address"
        },
        {
          "indexed": true,
          "internalType": "uint256",
          "name": "eventId",
          "type": "uint256"
        }
      ],
      "name": "ResetSecretPhrase",
      "type": "event"
    },
    {
      "anonymous": false,
      "inputs": [
        {
          "indexed": true,
          "internalType": "address",
          "name": "from",
          "type": "address"
        },
        {
          "indexed": true,
          "internalType": "address",
          "name": "to",
          "type": "address"
        },
        {
          "indexed": true,
          "internalType": "uint256",
          "name": "tokenId",
          "type": "uint256"
        }
      ],
      "name": "Transfer",
      "type": "event"
    },
    {
      "inputs": [
        {
          "internalType": "address",
          "name": "to",
          "type": "address"
        },
        {
          "internalType": "uint256",
          "name": "tokenId",
          "type": "uint256"
        }
      ],
      "name": "approve",
      "outputs": [],
      "stateMutability": "nonpayable",
      "type": "function"
    },
    {
      "inputs": [
        {
          "internalType": "address",
          "name": "owner",
          "type": "address"
        }
      ],
      "name": "balanceOf",
      "outputs": [
        {
          "internalType": "uint256",
          "name": "",
          "type": "uint256"
        }
      ],
      "stateMutability": "view",
      "type": "function"
    },
    {
      "inputs": [
        {
          "internalType": "uint256",
          "name": "tokenId",
          "type": "uint256"
        }
      ],
      "name": "burn",
      "outputs": [],
      "stateMutability": "nonpayable",
      "type": "function"
    },
    {
      "inputs": [
        {
          "internalType": "uint256",
          "name": "_eventId",
          "type": "uint256"
        },
        {
          "internalType": "uint256[24]",
          "name": "_proof",
          "type": "uint256[24]"
        }
      ],
      "name": "canMint",
      "outputs": [
        {
          "internalType": "bool",
          "name": "",
          "type": "bool"
        }
      ],
      "stateMutability": "view",
      "type": "function"
    },
    {
      "inputs": [
        {
          "internalType": "uint256",
          "name": "_eventId",
          "type": "uint256"
        },
        {
          "internalType": "bool",
          "name": "_locked",
          "type": "bool"
        }
      ],
      "name": "changeMintLocked",
      "outputs": [],
      "stateMutability": "nonpayable",
      "type": "function"
    },
    {
      "inputs": [
        {
          "internalType": "uint256",
          "name": "_eventId",
          "type": "uint256"
        },
        {
          "internalType": "bool",
          "name": "_isNonTransferable",
          "type": "bool"
        }
      ],
      "name": "changeNonTransferable",
      "outputs": [],
      "stateMutability": "nonpayable",
      "type": "function"
    },
    {
      "inputs": [
        {
          "internalType": "uint256",
          "name": "_eventId",
          "type": "uint256"
        },
        {
          "internalType": "address[]",
          "name": "_addresses",
          "type": "address[]"
        }
      ],
      "name": "dropNFTs",
      "outputs": [],
      "stateMutability": "nonpayable",
      "type": "function"
    },
    {
      "inputs": [
        {
          "internalType": "uint256",
          "name": "tokenId",
          "type": "uint256"
        }
      ],
      "name": "getApproved",
      "outputs": [
        {
          "internalType": "address",
          "name": "",
          "type": "address"
        }
      ],
      "stateMutability": "view",
      "type": "function"
    },
    {
      "inputs": [
        {
          "internalType": "uint256",
          "name": "_tokenId",
          "type": "uint256"
        }
      ],
      "name": "getEventIdOfTokenId",
      "outputs": [
        {
          "internalType": "uint256",
          "name": "",
          "type": "uint256"
        }
      ],
      "stateMutability": "view",
      "type": "function"
    },
    {
      "inputs": [
        {
          "internalType": "uint256",
          "name": "_eventId",
          "type": "uint256"
        }
      ],
      "name": "getGroupIdByEvent",
      "outputs": [
        {
          "internalType": "uint256",
          "name": "",
          "type": "uint256"
        }
      ],
      "stateMutability": "view",
      "type": "function"
    },
    {
      "inputs": [
        {
          "internalType": "uint256",
          "name": "_eventId",
          "type": "uint256"
        }
      ],
      "name": "getIsMintLocked",
      "outputs": [
        {
          "internalType": "bool",
          "name": "",
          "type": "bool"
        }
      ],
      "stateMutability": "view",
      "type": "function"
    },
    {
      "inputs": [
        {
          "internalType": "uint256",
          "name": "_eventId",
          "type": "uint256"
        }
      ],
      "name": "getIsNonTransferable",
      "outputs": [
        {
          "internalType": "bool",
          "name": "",
          "type": "bool"
        }
      ],
      "stateMutability": "view",
      "type": "function"
    },
    {
      "inputs": [
        {
          "internalType": "uint256",
          "name": "_eventId",
          "type": "uint256"
        },
        {
          "internalType": "uint256",
          "name": "_limit",
          "type": "uint256"
        },
        {
          "internalType": "uint256",
          "name": "_offset",
          "type": "uint256"
        }
      ],
      "name": "getNFTAttributeRecordsByEventId",
      "outputs": [
        {
          "components": [
            {
              "internalType": "string",
              "name": "metaDataURL",
              "type": "string"
            },
            {
              "internalType": "uint256",
              "name": "requiredParticipateCount",
              "type": "uint256"
            }
          ],
          "internalType": "struct MintNFT.NFTAttribute[]",
          "name": "",
          "type": "tuple[]"
        }
      ],
      "stateMutability": "view",
      "type": "function"
    },
    {
      "inputs": [
        {
          "internalType": "uint256",
          "name": "_eventId",
          "type": "uint256"
        }
      ],
      "name": "getNFTHoldersByEvent",
      "outputs": [
        {
          "components": [
            {
              "internalType": "address",
              "name": "holderAddress",
              "type": "address"
            },
            {
              "internalType": "uint256",
              "name": "tokenId",
              "type": "uint256"
            }
          ],
          "internalType": "struct MintNFT.NFTHolder[]",
          "name": "",
          "type": "tuple[]"
        }
      ],
      "stateMutability": "view",
      "type": "function"
    },
    {
      "inputs": [
        {
          "internalType": "uint256",
          "name": "_groupId",
          "type": "uint256"
        }
      ],
      "name": "getNFTHoldersByEventGroup",
      "outputs": [
        {
          "components": [
            {
              "internalType": "address",
              "name": "holderAddress",
              "type": "address"
            },
            {
              "internalType": "uint256",
              "name": "eventId",
              "type": "uint256"
            },
            {
              "internalType": "uint256",
              "name": "tokenId",
              "type": "uint256"
            }
          ],
          "internalType": "struct MintNFT.NFTHolderWithEventId[]",
          "name": "",
          "type": "tuple[]"
        }
      ],
      "stateMutability": "view",
      "type": "function"
    },
    {
      "inputs": [
        {
          "internalType": "uint256",
          "name": "_eventId",
          "type": "uint256"
        }
      ],
      "name": "getRemainingNFTCount",
      "outputs": [
        {
          "internalType": "uint256",
          "name": "",
          "type": "uint256"
        }
      ],
      "stateMutability": "view",
      "type": "function"
    },
    {
      "inputs": [
        {
          "internalType": "uint256",
          "name": "eventId",
          "type": "uint256"
        }
      ],
      "name": "getTokenIdsByEvent",
      "outputs": [
        {
          "internalType": "uint256[]",
          "name": "",
          "type": "uint256[]"
        }
      ],
      "stateMutability": "view",
      "type": "function"
    },
    {
      "inputs": [
        {
          "internalType": "address",
          "name": "_address",
          "type": "address"
        }
      ],
      "name": "getTokensOfOwner",
      "outputs": [
        {
          "components": [
            {
              "internalType": "uint256",
              "name": "eventId",
              "type": "uint256"
            },
            {
              "internalType": "uint256",
              "name": "tokenId",
              "type": "uint256"
            },
            {
              "internalType": "string",
              "name": "tokenUri",
              "type": "string"
            }
          ],
          "internalType": "struct MintNFT.TokenUriWithIds[]",
          "name": "",
          "type": "tuple[]"
        }
      ],
      "stateMutability": "view",
      "type": "function"
    },
    {
      "inputs": [
        {
          "internalType": "address",
          "name": "_owner",
          "type": "address"
        },
        {
          "internalType": "contract MinimalForwarderUpgradeable",
          "name": "_trustedForwarder",
          "type": "address"
        },
        {
          "internalType": "address",
          "name": "_secretPhraseVerifierAddr",
          "type": "address"
        },
        {
          "internalType": "address",
          "name": "_operationControllerAddr",
          "type": "address"
        }
      ],
      "name": "initialize",
      "outputs": [],
      "stateMutability": "nonpayable",
      "type": "function"
    },
    {
      "inputs": [
        {
          "internalType": "address",
          "name": "owner",
          "type": "address"
        },
        {
          "internalType": "address",
          "name": "operator",
          "type": "address"
        }
      ],
      "name": "isApprovedForAll",
      "outputs": [
        {
          "internalType": "bool",
          "name": "",
          "type": "bool"
        }
      ],
      "stateMutability": "view",
      "type": "function"
    },
    {
      "inputs": [
        {
          "internalType": "address",
          "name": "_addr",
          "type": "address"
        },
        {
          "internalType": "uint256",
          "name": "_eventId",
          "type": "uint256"
        }
      ],
      "name": "isHoldingEventNFTByAddress",
      "outputs": [
        {
          "internalType": "bool",
          "name": "",
          "type": "bool"
        }
      ],
      "stateMutability": "view",
      "type": "function"
    },
    {
      "inputs": [
        {
          "internalType": "address",
          "name": "forwarder",
          "type": "address"
        }
      ],
      "name": "isTrustedForwarder",
      "outputs": [
        {
          "internalType": "bool",
          "name": "",
          "type": "bool"
        }
      ],
      "stateMutability": "view",
      "type": "function"
    },
    {
      "inputs": [
        {
          "internalType": "uint256",
          "name": "_groupId",
          "type": "uint256"
        },
        {
          "internalType": "uint256",
          "name": "_eventId",
          "type": "uint256"
        },
        {
          "internalType": "uint256[24]",
          "name": "_proof",
          "type": "uint256[24]"
        }
      ],
      "name": "mintParticipateNFT",
      "outputs": [],
      "stateMutability": "nonpayable",
      "type": "function"
    },
    {
      "inputs": [],
      "name": "name",
      "outputs": [
        {
          "internalType": "string",
          "name": "",
          "type": "string"
        }
      ],
      "stateMutability": "view",
      "type": "function"
    },
    {
      "inputs": [],
      "name": "owner",
      "outputs": [
        {
          "internalType": "address",
          "name": "",
          "type": "address"
        }
      ],
      "stateMutability": "view",
      "type": "function"
    },
    {
      "inputs": [
        {
          "internalType": "uint256",
          "name": "tokenId",
          "type": "uint256"
        }
      ],
      "name": "ownerOf",
      "outputs": [
        {
          "internalType": "address",
          "name": "",
          "type": "address"
        }
      ],
      "stateMutability": "view",
      "type": "function"
    },
    {
      "inputs": [
        {
          "internalType": "uint256[]",
          "name": "_tokenIdArray",
          "type": "uint256[]"
        }
      ],
      "name": "ownerOfTokens",
      "outputs": [
        {
          "components": [
            {
              "internalType": "address",
              "name": "holderAddress",
              "type": "address"
            },
            {
              "internalType": "uint256",
              "name": "tokenId",
              "type": "uint256"
            }
          ],
          "internalType": "struct MintNFT.NFTHolder[]",
          "name": "",
          "type": "tuple[]"
        }
      ],
      "stateMutability": "view",
      "type": "function"
    },
    {
      "inputs": [],
      "name": "renounceOwnership",
      "outputs": [],
      "stateMutability": "nonpayable",
      "type": "function"
    },
    {
      "inputs": [
        {
          "internalType": "uint256",
          "name": "_eventId",
          "type": "uint256"
        },
        {
          "internalType": "bytes32",
          "name": "_secretPhrase",
          "type": "bytes32"
        }
      ],
      "name": "resetSecretPhrase",
      "outputs": [],
      "stateMutability": "nonpayable",
      "type": "function"
    },
    {
      "inputs": [
        {
          "internalType": "address",
          "name": "from",
          "type": "address"
        },
        {
          "internalType": "address",
          "name": "to",
          "type": "address"
        },
        {
          "internalType": "uint256",
          "name": "tokenId",
          "type": "uint256"
        }
      ],
      "name": "safeTransferFrom",
      "outputs": [],
      "stateMutability": "nonpayable",
      "type": "function"
    },
    {
      "inputs": [
        {
          "internalType": "address",
          "name": "from",
          "type": "address"
        },
        {
          "internalType": "address",
          "name": "to",
          "type": "address"
        },
        {
          "internalType": "uint256",
          "name": "tokenId",
          "type": "uint256"
        },
        {
          "internalType": "bytes",
          "name": "data",
          "type": "bytes"
        }
      ],
      "name": "safeTransferFrom",
      "outputs": [],
      "stateMutability": "nonpayable",
      "type": "function"
    },
    {
      "inputs": [
        {
          "internalType": "address",
          "name": "operator",
          "type": "address"
        },
        {
          "internalType": "bool",
          "name": "approved",
          "type": "bool"
        }
      ],
      "name": "setApprovalForAll",
      "outputs": [],
      "stateMutability": "nonpayable",
      "type": "function"
    },
    {
      "inputs": [
        {
          "internalType": "uint256",
          "name": "_eventId",
          "type": "uint256"
        },
        {
          "internalType": "uint256",
          "name": "_mintLimit",
          "type": "uint256"
        },
        {
          "internalType": "bytes32",
          "name": "_secretPhrase",
          "type": "bytes32"
        },
        {
          "components": [
            {
              "internalType": "string",
              "name": "metaDataURL",
              "type": "string"
            },
            {
              "internalType": "uint256",
              "name": "requiredParticipateCount",
              "type": "uint256"
            }
          ],
          "internalType": "struct MintNFT.NFTAttribute[]",
          "name": "attributes",
          "type": "tuple[]"
        }
      ],
      "name": "setEventInfo",
      "outputs": [],
      "stateMutability": "nonpayable",
      "type": "function"
    },
    {
      "inputs": [
        {
          "internalType": "address",
          "name": "_addr",
          "type": "address"
        }
      ],
      "name": "setEventManagerAddr",
      "outputs": [],
      "stateMutability": "nonpayable",
      "type": "function"
    },
    {
      "inputs": [
        {
          "internalType": "bytes4",
          "name": "interfaceId",
          "type": "bytes4"
        }
      ],
      "name": "supportsInterface",
      "outputs": [
        {
          "internalType": "bool",
          "name": "",
          "type": "bool"
        }
      ],
      "stateMutability": "view",
      "type": "function"
    },
    {
      "inputs": [],
      "name": "symbol",
      "outputs": [
        {
          "internalType": "string",
          "name": "",
          "type": "string"
        }
      ],
      "stateMutability": "view",
      "type": "function"
    },
    {
      "inputs": [
        {
          "internalType": "uint256",
          "name": "index",
          "type": "uint256"
        }
      ],
      "name": "tokenByIndex",
      "outputs": [
        {
          "internalType": "uint256",
          "name": "",
          "type": "uint256"
        }
      ],
      "stateMutability": "view",
      "type": "function"
    },
    {
      "inputs": [
        {
          "internalType": "address",
          "name": "owner",
          "type": "address"
        },
        {
          "internalType": "uint256",
          "name": "index",
          "type": "uint256"
        }
      ],
      "name": "tokenOfOwnerByIndex",
      "outputs": [
        {
          "internalType": "uint256",
          "name": "",
          "type": "uint256"
        }
      ],
      "stateMutability": "view",
      "type": "function"
    },
    {
      "inputs": [
        {
          "internalType": "uint256",
          "name": "_tokenId",
          "type": "uint256"
        }
      ],
      "name": "tokenURI",
      "outputs": [
        {
          "internalType": "string",
          "name": "",
          "type": "string"
        }
      ],
      "stateMutability": "view",
      "type": "function"
    },
    {
      "inputs": [],
      "name": "totalSupply",
      "outputs": [
        {
          "internalType": "uint256",
          "name": "",
          "type": "uint256"
        }
      ],
      "stateMutability": "view",
      "type": "function"
    },
    {
      "inputs": [
        {
          "internalType": "address",
          "name": "from",
          "type": "address"
        },
        {
          "internalType": "address",
          "name": "to",
          "type": "address"
        },
        {
          "internalType": "uint256",
          "name": "tokenId",
          "type": "uint256"
        }
      ],
      "name": "transferFrom",
      "outputs": [],
      "stateMutability": "nonpayable",
      "type": "function"
    },
    {
      "inputs": [
        {
          "internalType": "address",
          "name": "newOwner",
          "type": "address"
        }
      ],
      "name": "transferOwnership",
      "outputs": [],
      "stateMutability": "nonpayable",
      "type": "function"
    }
  ],
  "bytecode": "0x608060405234801561001057600080fd5b50614353806100206000396000f3fe608060405234801561001057600080fd5b506004361061025e5760003560e01c80638da5cb5b11610146578063b88d4fde116100c3578063e572e74b11610087578063e572e74b146105b5578063e985e9c5146105c8578063ef3ad9eb14610604578063f2fde38b14610617578063f8c8765e1461062a578063fa86623b1461063d57600080fd5b8063b88d4fde14610545578063c4b88ea414610558578063c87b56dd1461056b578063d622abc21461057e578063df4b39dd1461059157600080fd5b806395d89b411161010a57806395d89b41146104d65780639731c1d6146104de5780639dcd6811146104ff578063a22cb46514610512578063af5723b11461052557600080fd5b80638da5cb5b1461045b5780638f70738e1461046c578063902d41c51461048c5780639041e3f4146104b057806394d84290146104c357600080fd5b80632f745c59116101df5780634ffc9f4b116101a35780634ffc9f4b146103ca578063572b6c05146103eb5780635de6dc551461040d5780636352211e1461042d57806370a0823114610440578063715018a61461045357600080fd5b80632f745c591461036b57806342842e0e1461037e57806342966c68146103915780634df30149146103a45780634f6ccce7146103b757600080fd5b806312b90fd61161022657806312b90fd6146102f357806318160ddd1461030657806319ffeb3b1461031857806323b872dd1461033857806329ec9f441461034b57600080fd5b806301ffc9a71461026357806306fdde031461028b578063081812fc146102a0578063095ea7b3146102cb5780630daa8be7146102e0575b600080fd5b610276610271366004613511565b610650565b60405190151581526020015b60405180910390f35b61029361067b565b604051610282919061358d565b6102b36102ae3660046135a0565b61070d565b6040516001600160a01b039091168152602001610282565b6102de6102d93660046135ce565b610734565b005b6102de6102ee366004613608565b610861565b6102de6103013660046136eb565b6109fc565b6099545b604051908152602001610282565b61032b610326366004613795565b610c47565b60405161028291906137c1565b6102de610346366004613837565b610f7c565b61035e6103593660046135a0565b610fb4565b6040516102829190613878565b61030a6103793660046135ce565b611017565b6102de61038c366004613837565b6110ad565b6102de61039f3660046135a0565b6110c8565b6102766103b2366004613929565b6110dc565b61030a6103c53660046135a0565b611231565b61030a6103d83660046135a0565b6000908152610134602052604090205490565b6102766103f9366004613957565b60c9546001600160a01b0391821691161490565b61042061041b366004613957565b6112c4565b6040516102829190613974565b6102b361043b3660046135a0565b6113cd565b61030a61044e366004613957565b61142d565b6102de6114b3565b60fc546001600160a01b03166102b3565b61047f61047a3660046135a0565b6114c7565b60405161028291906139e5565b61027661049a3660046135a0565b600090815261013b602052604090205460ff1690565b6102de6104be366004613957565b6117f2565b61030a6104d13660046135a0565b611873565b610293611905565b61030a6104ec3660046135a0565b600090815261013a602052604090205490565b6102de61050d366004613a47565b611914565b6102de610520366004613a69565b611aab565b610538610533366004613a97565b611ac1565b6040516102829190613b27565b6102de610553366004613bd2565b611bc1565b6105386105663660046135a0565b611c00565b6102936105793660046135a0565b611c6d565b61027661058c3660046135ce565b611d12565b61027661059f3660046135a0565b6000908152610136602052604090205460ff1690565b6102de6105c3366004613608565b611d3e565b6102766105d6366004613c51565b6001600160a01b039182166000908152606a6020908152604080832093909416825291909152205460ff1690565b6102de610612366004613c7f565b611ef8565b6102de610625366004613957565b61208b565b6102de610638366004613da5565b612101565b6102de61064b366004613e01565b612270565b60006001600160e01b0319821663780e9d6360e01b1480610675575061067582612384565b92915050565b60606065805461068a90613e38565b80601f01602080910402602001604051908101604052809291908181526020018280546106b690613e38565b80156107035780601f106106d857610100808354040283529160200191610703565b820191906000526020600020905b8154815290600101906020018083116106e657829003601f168201915b5050505050905090565b6000610718826123d4565b506000908152606960205260409020546001600160a01b031690565b600061073f826113cd565b9050806001600160a01b0316836001600160a01b031614156107b25760405162461bcd60e51b815260206004820152602160248201527f4552433732313a20617070726f76616c20746f2063757272656e74206f776e656044820152603960f91b60648201526084015b60405180910390fd5b806001600160a01b03166107c4612433565b6001600160a01b031614806107e057506107e0816105d6612433565b6108525760405162461bcd60e51b815260206004820152603e60248201527f4552433732313a20617070726f76652063616c6c6572206973206e6f7420746f60448201527f6b656e206f776e6572206e6f7220617070726f76656420666f7220616c6c000060648201526084016107a9565b61085c8383612463565b505050565b61012f5482906001600160a01b03168063972f132761087e612433565b6040516001600160e01b031960e084901b1681526001600160a01b0390911660048201526024810185905260440160206040518083038186803b1580156108c457600080fd5b505afa1580156108d8573d6000803e3d6000fd5b505050506040513d601f19601f820116820180604052508101906108fc9190613e83565b6109185760405162461bcd60e51b81526004016107a990613ea0565b6101395460408051635c975abb60e01b815290516001600160a01b03909216918291635c975abb916004808301926020929190829003018186803b15801561095f57600080fd5b505afa158015610973573d6000803e3d6000fd5b505050506040513d601f19601f820116820180604052508101906109979190613e83565b156109a157600080fd5b60008581526101366020908152604091829020805460ff1916871515908117909155915191825286917f1e3ed2b292ed72652054799a4fde74789a8670c153df666f76e01345ec318281910160405180910390a25050505050565b61012f5482906001600160a01b03168063972f1327610a19612433565b6040516001600160e01b031960e084901b1681526001600160a01b0390911660048201526024810185905260440160206040518083038186803b158015610a5f57600080fd5b505afa158015610a73573d6000803e3d6000fd5b505050506040513d601f19601f82011682018060405250810190610a979190613e83565b610ab35760405162461bcd60e51b81526004016107a990613ea0565b6101395460408051635c975abb60e01b815290516001600160a01b03909216918291635c975abb916004808301926020929190829003018186803b158015610afa57600080fd5b505afa158015610b0e573d6000803e3d6000fd5b505050506040513d601f19601f82011682018060405250810190610b329190613e83565b15610b3c57600080fd5b6000610b4786611873565b8551600088815261013460205260409020549192501115610baa5760405162461bcd60e51b815260206004820152601d60248201527f72656d61696e696e6720636f756e74206973206e6f7420656e6f75676800000060448201526064016107a9565b60005b8551811015610c00576000868281518110610bca57610bca613ed0565b60200260200101519050610bde8189611d12565b610bed57610bed8389836124d1565b5080610bf881613efc565b915050610bad565b5085610c0a612433565b6001600160a01b03167ff0fae1d6c53c230d212972a098b7dbf41d3a6dbb348a4ebf640a51ce63cd3b6760405160405180910390a3505050505050565b606082610c5357606492505b6064831115610c995760405162461bcd60e51b81526020600482015260126024820152716c696d697420697320746f6f206c6172676560701b60448201526064016107a9565b6000836001600160401b03811115610cb357610cb3613638565b604051908082528060200260200182016040528015610cf957816020015b604080518082019091526060815260006020820152815260200190600190039081610cd15790505b509050610d0884600019613f17565b831115610d635760405162461bcd60e51b815260206004820152602360248201527f6c696d6974202b206f6666736574206d757374206265203c3d20325e323536206044820152622d203160e81b60648201526084016107a9565b6000610d6f8486613f2e565b90506000845b82811015610eb75760006101336000610d8e8b856127cc565b81526020019081526020016000208054610da790613e38565b80601f0160208091040260200160405190810160405280929190818152602001828054610dd390613e38565b8015610e205780601f10610df557610100808354040283529160200191610e20565b820191906000526020600020905b815481529060010190602001808311610e0357829003601f168201915b505060408051600081526020810180835281519020959650610e489450869350019050613f46565b6040516020818303038152906040528051906020012014610ea457604051806040016040528082815260200183815250858481518110610e8a57610e8a613ed0565b60200260200101819052508280610ea090613efc565b9350505b5080610eaf81613efc565b915050610d75565b506000816001600160401b03811115610ed257610ed2613638565b604051908082528060200260200182016040528015610f1857816020015b604080518082019091526060815260006020820152815260200190600190039081610ef05790505b50905060005b82811015610f7057848181518110610f3857610f38613ed0565b6020026020010151828281518110610f5257610f52613ed0565b60200260200101819052508080610f6890613efc565b915050610f1e565b50979650505050505050565b610f8d610f87612433565b82612802565b610fa95760405162461bcd60e51b81526004016107a990613f62565b61085c838383612881565b6000818152610138602090815260409182902080548351818402810184019094528084526060939283018282801561100b57602002820191906000526020600020905b815481526020019060010190808311610ff7575b50505050509050919050565b60006110228361142d565b82106110845760405162461bcd60e51b815260206004820152602b60248201527f455243373231456e756d657261626c653a206f776e657220696e646578206f7560448201526a74206f6620626f756e647360a81b60648201526084016107a9565b506001600160a01b03919091166000908152609760209081526040808320938352929052205490565b61085c83838360405180602001604052806000815250611bc1565b6110d06128ef565b6110d981612968565b50565b60006110e88284612a0f565b61112c5760405162461bcd60e51b8152602060048201526015602482015274696e76616c6964207365637265742070687261736560581b60448201526064016107a9565b600083815261013460205260409020546111885760405162461bcd60e51b815260206004820152601760248201527f72656d61696e696e6720636f756e74206973207a65726f00000000000000000060448201526064016107a9565b611199611193612433565b84611d12565b156111d75760405162461bcd60e51b815260206004820152600e60248201526d185b1c9958591e481b5a5b9d195960921b60448201526064016107a9565b6000838152610136602052604090205460ff16156112285760405162461bcd60e51b815260206004820152600e60248201526d1b5a5b9d081a5cc81b1bd8dad95960921b60448201526064016107a9565b50600192915050565b600061123c60995490565b821061129f5760405162461bcd60e51b815260206004820152602c60248201527f455243373231456e756d657261626c653a20676c6f62616c20696e646578206f60448201526b7574206f6620626f756e647360a01b60648201526084016107a9565b609982815481106112b2576112b2613ed0565b90600052602060002001549050919050565b606060006112d18361142d565b90506000816001600160401b038111156112ed576112ed613638565b60405190808252806020026020018201604052801561134257816020015b61132f60405180606001604052806000815260200160008152602001606081525090565b81526020019060019003908161130b5790505b50905060005b828110156113c557600061135c8683611017565b600081815261013a602090815260409182902054825160608101845281815291820184905292935090810161139084611c6d565b8152508484815181106113a5576113a5613ed0565b6020026020010181905250505080806113bd90613efc565b915050611348565b509392505050565b6000818152606760205260408120546001600160a01b0316806106755760405162461bcd60e51b8152602060048201526018602482015277115490cdcc8c4e881a5b9d985b1a59081d1bdad95b88125160421b60448201526064016107a9565b60006001600160a01b0382166114975760405162461bcd60e51b815260206004820152602960248201527f4552433732313a2061646472657373207a65726f206973206e6f7420612076616044820152683634b21037bbb732b960b91b60648201526084016107a9565b506001600160a01b031660009081526068602052604090205490565b6114bb6128ef565b6114c56000612abd565b565b61012f5460405163f562082360e01b8152600481018390526060916001600160a01b031690600090829063f56208239060240160006040518083038186803b15801561151257600080fd5b505afa158015611526573d6000803e3d6000fd5b505050506040513d6000823e601f3d908101601f1916820160405261154e91908101906140ad565b9050600081516001600160401b0381111561156b5761156b613638565b60405190808252806020026020018201604052801561159e57816020015b60608152602001906001900390816115895790505b5090506000805b835181101561162b576115d48482815181106115c3576115c3613ed0565b602002602001015160000151611c00565b8382815181106115e6576115e6613ed0565b602002602001018190525082818151811061160357611603613ed0565b602002602001015151826116179190613f2e565b91508061162381613efc565b9150506115a5565b506000816001600160401b0381111561164657611646613638565b6040519080825280602002602001820160405280156116a457816020015b611691604051806060016040528060006001600160a01b0316815260200160008152602001600081525090565b8152602001906001900390816116645790505b50905060005b828110156117e75760005b85518110156117e15760005b8582815181106116d3576116d3613ed0565b6020026020010151518110156117ce57604051806060016040528087848151811061170057611700613ed0565b6020026020010151838151811061171957611719613ed0565b6020026020010151600001516001600160a01b0316815260200188848151811061174557611745613ed0565b602002602001015160000151815260200187848151811061176857611768613ed0565b6020026020010151838151811061178157611781613ed0565b6020026020010151602001518152508484815181106117a2576117a2613ed0565b602002602001018190525082806117b890613efc565b93505080806117c690613efc565b9150506116c1565b50806117d981613efc565b9150506116b5565b506116aa565b509695505050505050565b6117fa6128ef565b6001600160a01b0381166118505760405162461bcd60e51b815260206004820152601e60248201527f6576656e74206d616e61676572206164647265737320697320626c616e6b000060448201526064016107a9565b61012f80546001600160a01b0319166001600160a01b0392909216919091179055565b61012f54604051632e601e6f60e21b8152600481018390526000916001600160a01b0316908290829063b98079bc9060240160006040518083038186803b1580156118bd57600080fd5b505afa1580156118d1573d6000803e3d6000fd5b505050506040513d6000823e601f3d908101601f191682016040526118f9919081019061415d565b60200151949350505050565b60606066805461068a90613e38565b61012f5482906001600160a01b03168063972f1327611931612433565b6040516001600160e01b031960e084901b1681526001600160a01b0390911660048201526024810185905260440160206040518083038186803b15801561197757600080fd5b505afa15801561198b573d6000803e3d6000fd5b505050506040513d601f19601f820116820180604052508101906119af9190613e83565b6119cb5760405162461bcd60e51b81526004016107a990613ea0565b6101395460408051635c975abb60e01b815290516001600160a01b03909216918291635c975abb916004808301926020929190829003018186803b158015611a1257600080fd5b505afa158015611a26573d6000803e3d6000fd5b505050506040513d601f19601f82011682018060405250810190611a4a9190613e83565b15611a5457600080fd5b60008581526101356020526040902084905584611a6f612433565b6001600160a01b03167fae5b067be3e4869ca571a499572a09085a17c3d0442a8965b8356bf47f63ba9960405160405180910390a35050505050565b611abd611ab6612433565b8383612b0f565b5050565b6060600082516001600160401b03811115611ade57611ade613638565b604051908082528060200260200182016040528015611b2357816020015b6040805180820190915260008082526020820152815260200190600190039081611afc5790505b50905060005b8351811015611bba576040518060400160405280611b5f868481518110611b5257611b52613ed0565b60200260200101516113cd565b6001600160a01b03168152602001858381518110611b7f57611b7f613ed0565b6020026020010151815250828281518110611b9c57611b9c613ed0565b60200260200101819052508080611bb290613efc565b915050611b29565b5092915050565b611bd2611bcc612433565b83612802565b611bee5760405162461bcd60e51b81526004016107a990613f62565b611bfa84848484612bde565b50505050565b60606106756101386000848152602001908152602001600020805480602002602001604051908101604052809291908181526020018280548015611c6357602002820191906000526020600020905b815481526020019060010190808311611c4f575b5050505050611ac1565b60008181526101306020526040812080546060929190611c8c90613e38565b80601f0160208091040260200160405190810160405280929190818152602001828054611cb890613e38565b8015611d055780601f10611cda57610100808354040283529160200191611d05565b820191906000526020600020905b815481529060010190602001808311611ce857829003601f168201915b5093979650505050505050565b60006101316000611d238585612c11565b815260208101919091526040016000205460ff169392505050565b6101395460408051635c975abb60e01b815290516001600160a01b03909216918291635c975abb916004808301926020929190829003018186803b158015611d8557600080fd5b505afa158015611d99573d6000803e3d6000fd5b505050506040513d601f19601f82011682018060405250810190611dbd9190613e83565b15611dc757600080fd5b61012f546001600160a01b031680611ddd612433565b6001600160a01b03161480611e825750806001600160a01b031663683159fd611e04612433565b6040516001600160e01b031960e084901b1681526001600160a01b0390911660048201526024810187905260440160206040518083038186803b158015611e4a57600080fd5b505afa158015611e5e573d6000803e3d6000fd5b505050506040513d601f19601f82011682018060405250810190611e829190613e83565b611e9e5760405162461bcd60e51b81526004016107a990613ea0565b600084815261013b6020908152604091829020805460ff1916861515908117909155915191825285917fec48382efd77c28bd224c3221392758fb274b160a104cc76c67d2719bcaef7c0910160405180910390a250505050565b6101395460408051635c975abb60e01b815290516001600160a01b03909216918291635c975abb916004808301926020929190829003018186803b158015611f3f57600080fd5b505afa158015611f53573d6000803e3d6000fd5b505050506040513d601f19601f82011682018060405250810190611f779190613e83565b15611f8157600080fd5b61012f546001600160a01b0316611f96612433565b6001600160a01b031614611fdb5760405162461bcd60e51b815260206004820152600c60248201526b1d5b985d5d1a1bdc9a5e995960a21b60448201526064016107a9565b60008581526101346020908152604080832087905561013590915281208490555b82518110156120835782818151811061201757612017613ed0565b602002602001015160000151610133600061204f8987868151811061203e5761203e613ed0565b6020026020010151602001516127cc565b81526020019081526020016000209080519060200190612070929190613462565b508061207b81613efc565b915050611ffc565b505050505050565b6120936128ef565b6001600160a01b0381166120f85760405162461bcd60e51b815260206004820152602660248201527f4f776e61626c653a206e6577206f776e657220697320746865207a65726f206160448201526564647265737360d01b60648201526084016107a9565b6110d981612abd565b600054600590610100900460ff16158015612123575060005460ff8083169116105b6121865760405162461bcd60e51b815260206004820152602e60248201527f496e697469616c697a61626c653a20636f6e747261637420697320616c72656160448201526d191e481a5b9a5d1a585b1a5e995960921b60648201526084016107a9565b6000805461ffff191660ff83161761010017905560408051808201825260098152684d696e7452616c6c7960b81b6020808301919091528251808401909352600283526126a960f11b908301526121dc91612c3f565b6121e4612c70565b6121ed85612abd565b6121f684612c9f565b61013780546001600160a01b038581166001600160a01b0319928316179092556101398054928516929091169190911790556000805461ff001916905560405160ff821681527f7f26b83ff96e1f2b6a682f133852f6798a09c465da95921460cefb38474024989060200160405180910390a15050505050565b6101395460408051635c975abb60e01b815290516001600160a01b03909216918291635c975abb916004808301926020929190829003018186803b1580156122b757600080fd5b505afa1580156122cb573d6000803e3d6000fd5b505050506040513d601f19601f820116820180604052508101906122ef9190613e83565b156122f957600080fd5b61230383836110dc565b506101375460405163635e393960e11b81526001600160a01b0390911690819063c6bc72729061233990869088906004016141b4565b600060405180830381600087803b15801561235357600080fd5b505af1158015612367573d6000803e3d6000fd5b5050505061237d8585612378612433565b6124d1565b5050505050565b60006001600160e01b031982166380ac58cd60e01b14806123b557506001600160e01b03198216635b5e139f60e01b145b8061067557506301ffc9a760e01b6001600160e01b0319831614610675565b6000818152606760205260409020546001600160a01b03166110d95760405162461bcd60e51b8152602060048201526018602482015277115490cdcc8c4e881a5b9d985b1a59081d1bdad95b88125160421b60448201526064016107a9565b60c9546000906001600160a01b0316331415612456575060131936013560601c90565b61245e612cf0565b905090565b600081815260696020526040902080546001600160a01b0319166001600160a01b0384169081179091558190612498826113cd565b6001600160a01b03167f8c5be1e5ebec7d5bd14f71427d1e84f3dd0314c0f7b2291e5b200ac8c7c3b92560405160405180910390a45050565b600082815261013460205260409020546124ed90600190613f17565b60008381526101346020526040812091909155600190610131906125118486612c11565b815260200190815260200160002060006101000a81548160ff02191690831515021790555060006125428285612c11565b60008181526101326020526040902054909150612560816001613f2e565b600083815261013260205260408120919091556101338161258187826127cc565b8152602001908152602001600020805461259a90613e38565b80601f01602080910402602001604051908101604052809291908181526020018280546125c690613e38565b80156126135780601f106125e857610100808354040283529160200191612613565b820191906000526020600020905b8154815290600101906020018083116125f657829003601f168201915b505050505090506000610133600061262b88866127cc565b8152602001908152602001600020805461264490613e38565b80601f016020809104026020016040519081016040528092919081815260200182805461267090613e38565b80156126bd5780601f10612692576101008083540402835291602001916126bd565b820191906000526020600020905b8154815290600101906020018083116126a057829003601f168201915b5050604080516000815260208101808352815190209596506126e59450869350019050613f46565b6040516020818303038152906040528051906020012014612704578091505b600061271061012e5490565b6000818152610130602090815260409091208551929350612735929091860190613462565b5060008781526101386020908152604080832080546001810182559084528284200184905583835261013a909152902087905561277761012e80546001019055565b6127818682612d18565b856001600160a01b03167faf2fad1984d2c7abaa9300537cf9fe1bcfaf2d6226e4ffdf03522dbf3064808e846040516127ba919061358d565b60405180910390a25050505050505050565b60408051602081018490529081018290526000906060015b60405160208183030381529060405280519060200120905092915050565b60008061280e836113cd565b9050806001600160a01b0316846001600160a01b0316148061285557506001600160a01b038082166000908152606a602090815260408083209388168352929052205460ff165b806128795750836001600160a01b031661286e8461070d565b6001600160a01b0316145b949350505050565b600081815261013a6020908152604080832054835261013b90915290205460ff16156128e45760405162461bcd60e51b81526020600482015260126024820152711d1c985b9cd9995c881a5cc81b1bd8dad95960721b60448201526064016107a9565b61085c838383612d32565b6128f7612433565b6001600160a01b031661291260fc546001600160a01b031690565b6001600160a01b0316146114c55760405162461bcd60e51b815260206004820181905260248201527f4f776e61626c653a2063616c6c6572206973206e6f7420746865206f776e657260448201526064016107a9565b6000612973826113cd565b905061298181600084612ed9565b61298c600083612463565b6001600160a01b03811660009081526068602052604081208054600192906129b5908490613f17565b909155505060008281526067602052604080822080546001600160a01b0319169055518391906001600160a01b038416907fddf252ad1be2c89b69c2b068fc378daa952ba7f163c4a11628f55a4df523b3ef908390a45050565b6101375460408051602080820183526000858152610135909152828120548252915163532dd84d60e11b815291926001600160a01b0316918390839063a65bb09a90612a6390899086908a906004016141d1565b60206040518083038186803b158015612a7b57600080fd5b505afa158015612a8f573d6000803e3d6000fd5b505050506040513d601f19601f82011682018060405250810190612ab39190613e83565b9695505050505050565b60fc80546001600160a01b038381166001600160a01b0319831681179093556040519116919082907f8be0079c531659141344cd1fd0a4f28419497f9722a3daafe3b4186f6b6457e090600090a35050565b816001600160a01b0316836001600160a01b03161415612b715760405162461bcd60e51b815260206004820152601960248201527f4552433732313a20617070726f766520746f2063616c6c65720000000000000060448201526064016107a9565b6001600160a01b038381166000818152606a6020908152604080832094871680845294825291829020805460ff191686151590811790915591519182527f17307eab39ab6107e8899845ad3d59bd9653f200f220920489ca2b5937696c31910160405180910390a3505050565b612be9848484612881565b612bf584848484612f91565b611bfa5760405162461bcd60e51b81526004016107a99061421a565b6040516bffffffffffffffffffffffff19606084901b166020820152603481018290526000906054016127e4565b600054610100900460ff16612c665760405162461bcd60e51b81526004016107a99061426c565b611abd82826130a5565b600054610100900460ff16612c975760405162461bcd60e51b81526004016107a99061426c565b6114c56130f3565b600054610100900460ff16612cc65760405162461bcd60e51b81526004016107a99061426c565b612cce61312a565b60c980546001600160a01b0319166001600160a01b0392909216919091179055565b60c9546000906001600160a01b0316331415612d13575060131936013560601c90565b503390565b611abd828260405180602001604052806000815250613151565b826001600160a01b0316612d45826113cd565b6001600160a01b031614612da95760405162461bcd60e51b815260206004820152602560248201527f4552433732313a207472616e736665722066726f6d20696e636f72726563742060448201526437bbb732b960d91b60648201526084016107a9565b6001600160a01b038216612e0b5760405162461bcd60e51b8152602060048201526024808201527f4552433732313a207472616e7366657220746f20746865207a65726f206164646044820152637265737360e01b60648201526084016107a9565b612e16838383612ed9565b612e21600082612463565b6001600160a01b0383166000908152606860205260408120805460019290612e4a908490613f17565b90915550506001600160a01b0382166000908152606860205260408120805460019290612e78908490613f2e565b909155505060008181526067602052604080822080546001600160a01b0319166001600160a01b0386811691821790925591518493918716917fddf252ad1be2c89b69c2b068fc378daa952ba7f163c4a11628f55a4df523b3ef91a4505050565b6001600160a01b038316612f3457612f2f81609980546000838152609a60205260408120829055600182018355919091527f72a152ddfb8e864297c917af52ea6c1c68aead0fee1a62673fcc7e0c94979d000155565b612f57565b816001600160a01b0316836001600160a01b031614612f5757612f578382613184565b6001600160a01b038216612f6e5761085c81613221565b826001600160a01b0316826001600160a01b03161461085c5761085c82826132d0565b60006001600160a01b0384163b1561309a57836001600160a01b031663150b7a02612fba612433565b8786866040518563ffffffff1660e01b8152600401612fdc94939291906142b7565b602060405180830381600087803b158015612ff657600080fd5b505af1925050508015613026575060408051601f3d908101601f19168201909252613023918101906142ea565b60015b613080573d808015613054576040519150601f19603f3d011682016040523d82523d6000602084013e613059565b606091505b5080516130785760405162461bcd60e51b81526004016107a99061421a565b805181602001fd5b6001600160e01b031916630a85bd0160e11b149050612879565b506001949350505050565b600054610100900460ff166130cc5760405162461bcd60e51b81526004016107a99061426c565b81516130df906065906020850190613462565b50805161085c906066906020840190613462565b600054610100900460ff1661311a5760405162461bcd60e51b81526004016107a99061426c565b6114c5613125612433565b612abd565b600054610100900460ff166114c55760405162461bcd60e51b81526004016107a99061426c565b61315b8383613314565b6131686000848484612f91565b61085c5760405162461bcd60e51b81526004016107a99061421a565b600060016131918461142d565b61319b9190613f17565b6000838152609860205260409020549091508082146131ee576001600160a01b03841660009081526097602090815260408083208584528252808320548484528184208190558352609890915290208190555b5060009182526098602090815260408084208490556001600160a01b039094168352609781528383209183525290812055565b60995460009061323390600190613f17565b6000838152609a60205260408120546099805493945090928490811061325b5761325b613ed0565b90600052602060002001549050806099838154811061327c5761327c613ed0565b6000918252602080832090910192909255828152609a909152604080822084905585825281205560998054806132b4576132b4614307565b6001900381819060005260206000200160009055905550505050565b60006132db8361142d565b6001600160a01b039093166000908152609760209081526040808320868452825280832085905593825260989052919091209190915550565b6001600160a01b03821661336a5760405162461bcd60e51b815260206004820181905260248201527f4552433732313a206d696e7420746f20746865207a65726f206164647265737360448201526064016107a9565b6000818152606760205260409020546001600160a01b0316156133cf5760405162461bcd60e51b815260206004820152601c60248201527f4552433732313a20746f6b656e20616c7265616479206d696e7465640000000060448201526064016107a9565b6133db60008383612ed9565b6001600160a01b0382166000908152606860205260408120805460019290613404908490613f2e565b909155505060008181526067602052604080822080546001600160a01b0319166001600160a01b03861690811790915590518392907fddf252ad1be2c89b69c2b068fc378daa952ba7f163c4a11628f55a4df523b3ef908290a45050565b82805461346e90613e38565b90600052602060002090601f01602090048101928261349057600085556134d6565b82601f106134a957805160ff19168380011785556134d6565b828001600101855582156134d6579182015b828111156134d65782518255916020019190600101906134bb565b506134e29291506134e6565b5090565b5b808211156134e257600081556001016134e7565b6001600160e01b0319811681146110d957600080fd5b60006020828403121561352357600080fd5b813561352e816134fb565b9392505050565b60005b83811015613550578181015183820152602001613538565b83811115611bfa5750506000910152565b60008151808452613579816020860160208601613535565b601f01601f19169290920160200192915050565b60208152600061352e6020830184613561565b6000602082840312156135b257600080fd5b5035919050565b6001600160a01b03811681146110d957600080fd5b600080604083850312156135e157600080fd5b82356135ec816135b9565b946020939093013593505050565b80151581146110d957600080fd5b6000806040838503121561361b57600080fd5b82359150602083013561362d816135fa565b809150509250929050565b634e487b7160e01b600052604160045260246000fd5b604080519081016001600160401b038111828210171561367057613670613638565b60405290565b60405160c081016001600160401b038111828210171561367057613670613638565b604051601f8201601f191681016001600160401b03811182821017156136c0576136c0613638565b604052919050565b60006001600160401b038211156136e1576136e1613638565b5060051b60200190565b600080604083850312156136fe57600080fd5b823591506020808401356001600160401b0381111561371c57600080fd5b8401601f8101861361372d57600080fd5b803561374061373b826136c8565b613698565b81815260059190911b8201830190838101908883111561375f57600080fd5b928401925b82841015613786578335613777816135b9565b82529284019290840190613764565b80955050505050509250929050565b6000806000606084860312156137aa57600080fd5b505081359360208301359350604090920135919050565b60006020808301818452808551808352604092508286019150828160051b87010184880160005b8381101561382957888303603f190185528151805187855261380c88860182613561565b9189015194890194909452948701949250908601906001016137e8565b509098975050505050505050565b60008060006060848603121561384c57600080fd5b8335613857816135b9565b92506020840135613867816135b9565b929592945050506040919091013590565b6020808252825182820181905260009190848201906040850190845b818110156138b057835183529284019291840191600101613894565b50909695505050505050565b600082601f8301126138cd57600080fd5b6040516103008082018281106001600160401b03821117156138f1576138f1613638565b6040528301818582111561390457600080fd5b845b8281101561391e578035825260209182019101613906565b509195945050505050565b600080610320838503121561393d57600080fd5b8235915061394e84602085016138bc565b90509250929050565b60006020828403121561396957600080fd5b813561352e816135b9565b60006020808301818452808551808352604092508286019150828160051b87010184880160005b8381101561382957888303603f19018552815180518452878101518885015286015160608785018190526139d181860183613561565b96890196945050509086019060010161399b565b602080825282518282018190526000919060409081850190868401855b82811015613a3a57815180516001600160a01b0316855286810151878601528501518585015260609093019290850190600101613a02565b5091979650505050505050565b60008060408385031215613a5a57600080fd5b50508035926020909101359150565b60008060408385031215613a7c57600080fd5b8235613a87816135b9565b9150602083013561362d816135fa565b60006020808385031215613aaa57600080fd5b82356001600160401b03811115613ac057600080fd5b8301601f81018513613ad157600080fd5b8035613adf61373b826136c8565b81815260059190911b82018301908381019087831115613afe57600080fd5b928401925b82841015613b1c57833582529284019290840190613b03565b979650505050505050565b602080825282518282018190526000919060409081850190868401855b82811015613a3a57815180516001600160a01b03168552860151868501529284019290850190600101613b44565b60006001600160401b03821115613b8b57613b8b613638565b50601f01601f191660200190565b6000613ba761373b84613b72565b9050828152838383011115613bbb57600080fd5b828260208301376000602084830101529392505050565b60008060008060808587031215613be857600080fd5b8435613bf3816135b9565b93506020850135613c03816135b9565b92506040850135915060608501356001600160401b03811115613c2557600080fd5b8501601f81018713613c3657600080fd5b613c4587823560208401613b99565b91505092959194509250565b60008060408385031215613c6457600080fd5b8235613c6f816135b9565b9150602083013561362d816135b9565b60008060008060808587031215613c9557600080fd5b84359350602085013592506040850135915060608501356001600160401b0380821115613cc157600080fd5b818701915087601f830112613cd557600080fd5b8135613ce361373b826136c8565b8082825260208201915060208360051b86010192508a831115613d0557600080fd5b602085015b83811015613d95578481351115613d2057600080fd5b803586016040818e03601f19011215613d3857600080fd5b613d4061364e565b602082013587811115613d5257600080fd5b8201603f81018f13613d6357600080fd5b613d758f602083013560408401613b99565b825250604091909101356020808301919091529084529283019201613d0a565b50979a9699509497505050505050565b60008060008060808587031215613dbb57600080fd5b8435613dc6816135b9565b93506020850135613dd6816135b9565b92506040850135613de6816135b9565b91506060850135613df6816135b9565b939692955090935050565b60008060006103408486031215613e1757600080fd5b8335925060208401359150613e2f85604086016138bc565b90509250925092565b600181811c90821680613e4c57607f821691505b60208210811415613e6d57634e487b7160e01b600052602260045260246000fd5b50919050565b8051613e7e816135fa565b919050565b600060208284031215613e9557600080fd5b815161352e816135fa565b6020808252601690820152753cb7ba903430bb32903737903832b936b4b9b9b4b7b760511b604082015260600190565b634e487b7160e01b600052603260045260246000fd5b634e487b7160e01b600052601160045260246000fd5b6000600019821415613f1057613f10613ee6565b5060010190565b600082821015613f2957613f29613ee6565b500390565b60008219821115613f4157613f41613ee6565b500190565b60008251613f58818460208701613535565b9190910192915050565b6020808252602e908201527f4552433732313a2063616c6c6572206973206e6f7420746f6b656e206f776e6560408201526d1c881b9bdc88185c1c1c9bdd995960921b606082015260800190565b600082601f830112613fc157600080fd5b8151613fcf61373b82613b72565b818152846020838601011115613fe457600080fd5b612879826020830160208701613535565b600060c0828403121561400757600080fd5b61400f613676565b9050815181526020820151602082015260408201516001600160401b038082111561403957600080fd5b61404585838601613fb0565b6040840152606084015191508082111561405e57600080fd5b61406a85838601613fb0565b6060840152608084015191508082111561408357600080fd5b5061409084828501613fb0565b6080830152506140a260a08301613e73565b60a082015292915050565b600060208083850312156140c057600080fd5b82516001600160401b03808211156140d757600080fd5b818501915085601f8301126140eb57600080fd5b81516140f961373b826136c8565b81815260059190911b8301840190848101908883111561411857600080fd5b8585015b83811015614150578051858111156141345760008081fd5b6141428b89838a0101613ff5565b84525091860191860161411c565b5098975050505050505050565b60006020828403121561416f57600080fd5b81516001600160401b0381111561418557600080fd5b61287984828501613ff5565b8060005b6018811015611bfa578151845260209384019390910190600101614195565b61032081016141c38285614191565b826103008301529392505050565b61034081016141e08286614191565b61030082018460005b60018110156142085781518352602092830192909101906001016141e9565b50505082610320830152949350505050565b60208082526032908201527f4552433732313a207472616e7366657220746f206e6f6e20455243373231526560408201527131b2b4bb32b91034b6b83632b6b2b73a32b960711b606082015260800190565b6020808252602b908201527f496e697469616c697a61626c653a20636f6e7472616374206973206e6f74206960408201526a6e697469616c697a696e6760a81b606082015260800190565b6001600160a01b0385811682528416602082015260408101839052608060608201819052600090612ab390830184613561565b6000602082840312156142fc57600080fd5b815161352e816134fb565b634e487b7160e01b600052603160045260246000fdfea2646970667358221220bf5afa1aa961884105f3bb922f495c3264da06a71e627a6a327cdfb8c308061364736f6c63430008090033",
  "linkReferences": {},
  "deployedLinkReferences": {}
}