{
  "_format": "hh-sol-artifact-1",
  "contractName": "MintNFT",
  "sourceName": "contracts/MintNFT.sol",
  "abi": [
    {
      "anonymous": false,
      "inputs": [
        {
          "indexed": true,
          "internalType": "address",
          "name": "owner",
          "type": "address"
        },
        {
          "indexed": true,
          "internalType": "address",
          "name": "approved",
          "type": "address"
        },
        {
          "indexed": true,
          "internalType": "uint256",
          "name": "tokenId",
          "type": "uint256"
        }
      ],
      "name": "Approval",
      "type": "event"
    },
    {
      "anonymous": false,
      "inputs": [
        {
          "indexed": true,
          "internalType": "address",
          "name": "owner",
          "type": "address"
        },
        {
          "indexed": true,
          "internalType": "address",
          "name": "operator",
          "type": "address"
        },
        {
          "indexed": false,
          "internalType": "bool",
          "name": "approved",
          "type": "bool"
        }
      ],
      "name": "ApprovalForAll",
      "type": "event"
    },
    {
      "anonymous": false,
      "inputs": [
        {
          "indexed": false,
          "internalType": "uint8",
          "name": "version",
          "type": "uint8"
        }
      ],
      "name": "Initialized",
      "type": "event"
    },
    {
      "anonymous": false,
      "inputs": [
        {
          "indexed": true,
          "internalType": "uint256",
          "name": "eventId",
          "type": "uint256"
        },
        {
          "indexed": false,
          "internalType": "bool",
          "name": "isLocked",
          "type": "bool"
        }
      ],
      "name": "MintLocked",
      "type": "event"
    },
    {
      "anonymous": false,
      "inputs": [
        {
          "indexed": true,
          "internalType": "address",
          "name": "holder",
          "type": "address"
        },
        {
          "indexed": false,
          "internalType": "string",
          "name": "url",
          "type": "string"
        }
      ],
      "name": "MintedNFTAttributeURL",
      "type": "event"
    },
    {
      "anonymous": false,
      "inputs": [
        {
          "indexed": true,
          "internalType": "address",
          "name": "previousOwner",
          "type": "address"
        },
        {
          "indexed": true,
          "internalType": "address",
          "name": "newOwner",
          "type": "address"
        }
      ],
      "name": "OwnershipTransferred",
      "type": "event"
    },
    {
      "anonymous": false,
      "inputs": [
        {
          "indexed": true,
          "internalType": "address",
          "name": "executor",
          "type": "address"
        },
        {
          "indexed": true,
          "internalType": "uint256",
          "name": "eventId",
          "type": "uint256"
        }
      ],
      "name": "ResetSecretPhrase",
      "type": "event"
    },
    {
      "anonymous": false,
      "inputs": [
        {
          "indexed": true,
          "internalType": "address",
          "name": "from",
          "type": "address"
        },
        {
          "indexed": true,
          "internalType": "address",
          "name": "to",
          "type": "address"
        },
        {
          "indexed": true,
          "internalType": "uint256",
          "name": "tokenId",
          "type": "uint256"
        }
      ],
      "name": "Transfer",
      "type": "event"
    },
    {
      "inputs": [
        {
          "internalType": "address",
          "name": "to",
          "type": "address"
        },
        {
          "internalType": "uint256",
          "name": "tokenId",
          "type": "uint256"
        }
      ],
      "name": "approve",
      "outputs": [],
      "stateMutability": "nonpayable",
      "type": "function"
    },
    {
      "inputs": [
        {
          "internalType": "address",
          "name": "owner",
          "type": "address"
        }
      ],
      "name": "balanceOf",
      "outputs": [
        {
          "internalType": "uint256",
          "name": "",
          "type": "uint256"
        }
      ],
      "stateMutability": "view",
      "type": "function"
    },
    {
      "inputs": [
        {
          "internalType": "uint256",
          "name": "tokenId",
          "type": "uint256"
        }
      ],
      "name": "burn",
      "outputs": [],
      "stateMutability": "nonpayable",
      "type": "function"
    },
    {
      "inputs": [
        {
          "internalType": "uint256",
          "name": "_eventId",
          "type": "uint256"
        },
        {
          "internalType": "uint256[24]",
          "name": "_proof",
          "type": "uint256[24]"
        }
      ],
      "name": "canMint",
      "outputs": [
        {
          "internalType": "bool",
          "name": "",
          "type": "bool"
        }
      ],
      "stateMutability": "view",
      "type": "function"
    },
    {
      "inputs": [
        {
          "internalType": "uint256",
          "name": "_eventId",
          "type": "uint256"
        },
        {
          "internalType": "bool",
          "name": "_locked",
          "type": "bool"
        }
      ],
      "name": "changeMintLocked",
      "outputs": [],
      "stateMutability": "nonpayable",
      "type": "function"
    },
    {
      "inputs": [
        {
          "internalType": "uint256",
          "name": "tokenId",
          "type": "uint256"
        }
      ],
      "name": "getApproved",
      "outputs": [
        {
          "internalType": "address",
          "name": "",
          "type": "address"
        }
      ],
      "stateMutability": "view",
      "type": "function"
    },
    {
      "inputs": [
        {
          "internalType": "uint256",
          "name": "_eventId",
          "type": "uint256"
        }
      ],
      "name": "getIsMintLocked",
      "outputs": [
        {
          "internalType": "bool",
          "name": "",
          "type": "bool"
        }
      ],
      "stateMutability": "view",
      "type": "function"
    },
    {
      "inputs": [
        {
          "internalType": "uint256",
          "name": "_eventId",
          "type": "uint256"
        }
      ],
      "name": "getNFTHoldersByEvent",
      "outputs": [
        {
          "components": [
            {
              "internalType": "address",
              "name": "holderAddress",
              "type": "address"
            },
            {
              "internalType": "uint256",
              "name": "tokenId",
              "type": "uint256"
            }
          ],
          "internalType": "struct MintNFT.NFTHolder[]",
          "name": "",
          "type": "tuple[]"
        }
      ],
      "stateMutability": "view",
      "type": "function"
    },
    {
      "inputs": [
        {
          "internalType": "uint256",
          "name": "_groupId",
          "type": "uint256"
        }
      ],
      "name": "getNFTHoldersByEventGroup",
      "outputs": [
        {
          "components": [
            {
              "internalType": "address",
              "name": "holderAddress",
              "type": "address"
            },
            {
              "internalType": "uint256",
              "name": "eventId",
              "type": "uint256"
            },
            {
              "internalType": "uint256",
              "name": "tokenId",
              "type": "uint256"
            }
          ],
          "internalType": "struct MintNFT.NFTHolderWithEventId[]",
          "name": "",
          "type": "tuple[]"
        }
      ],
      "stateMutability": "view",
      "type": "function"
    },
    {
      "inputs": [
        {
          "internalType": "uint256",
          "name": "_eventId",
          "type": "uint256"
        }
      ],
      "name": "getRemainingNFTCount",
      "outputs": [
        {
          "internalType": "uint256",
          "name": "",
          "type": "uint256"
        }
      ],
      "stateMutability": "view",
      "type": "function"
    },
    {
      "inputs": [
        {
          "internalType": "contract MinimalForwarderUpgradeable",
          "name": "trustedForwarder",
          "type": "address"
        },
        {
          "internalType": "address",
          "name": "_secretPhraseVerifierAddr",
          "type": "address"
        }
      ],
      "name": "initialize",
      "outputs": [],
      "stateMutability": "nonpayable",
      "type": "function"
    },
    {
      "inputs": [
        {
          "internalType": "address",
          "name": "owner",
          "type": "address"
        },
        {
          "internalType": "address",
          "name": "operator",
          "type": "address"
        }
      ],
      "name": "isApprovedForAll",
      "outputs": [
        {
          "internalType": "bool",
          "name": "",
          "type": "bool"
        }
      ],
      "stateMutability": "view",
      "type": "function"
    },
    {
      "inputs": [
        {
          "internalType": "address",
          "name": "_addr",
          "type": "address"
        },
        {
          "internalType": "uint256",
          "name": "_eventId",
          "type": "uint256"
        }
      ],
      "name": "isHoldingEventNFTByAddress",
      "outputs": [
        {
          "internalType": "bool",
          "name": "",
          "type": "bool"
        }
      ],
      "stateMutability": "view",
      "type": "function"
    },
    {
      "inputs": [
        {
          "internalType": "address",
          "name": "forwarder",
          "type": "address"
        }
      ],
      "name": "isTrustedForwarder",
      "outputs": [
        {
          "internalType": "bool",
          "name": "",
          "type": "bool"
        }
      ],
      "stateMutability": "view",
      "type": "function"
    },
    {
      "inputs": [
        {
          "internalType": "uint256",
          "name": "_groupId",
          "type": "uint256"
        },
        {
          "internalType": "uint256",
          "name": "_eventId",
          "type": "uint256"
        },
        {
          "internalType": "uint256[24]",
          "name": "_proof",
          "type": "uint256[24]"
        }
      ],
      "name": "mintParticipateNFT",
      "outputs": [],
      "stateMutability": "nonpayable",
      "type": "function"
    },
    {
      "inputs": [],
      "name": "name",
      "outputs": [
        {
          "internalType": "string",
          "name": "",
          "type": "string"
        }
      ],
      "stateMutability": "view",
      "type": "function"
    },
    {
      "inputs": [],
      "name": "owner",
      "outputs": [
        {
          "internalType": "address",
          "name": "",
          "type": "address"
        }
      ],
      "stateMutability": "view",
      "type": "function"
    },
    {
      "inputs": [
        {
          "internalType": "uint256",
          "name": "tokenId",
          "type": "uint256"
        }
      ],
      "name": "ownerOf",
      "outputs": [
        {
          "internalType": "address",
          "name": "",
          "type": "address"
        }
      ],
      "stateMutability": "view",
      "type": "function"
    },
    {
      "inputs": [
        {
          "internalType": "uint256[]",
          "name": "_tokenIdArray",
          "type": "uint256[]"
        }
      ],
      "name": "ownerOfTokens",
      "outputs": [
        {
          "components": [
            {
              "internalType": "address",
              "name": "holderAddress",
              "type": "address"
            },
            {
              "internalType": "uint256",
              "name": "tokenId",
              "type": "uint256"
            }
          ],
          "internalType": "struct MintNFT.NFTHolder[]",
          "name": "",
          "type": "tuple[]"
        }
      ],
      "stateMutability": "view",
      "type": "function"
    },
    {
      "inputs": [],
      "name": "renounceOwnership",
      "outputs": [],
      "stateMutability": "nonpayable",
      "type": "function"
    },
    {
      "inputs": [
        {
          "internalType": "uint256",
          "name": "_eventId",
          "type": "uint256"
        },
        {
          "internalType": "bytes32",
          "name": "_secretPhrase",
          "type": "bytes32"
        }
      ],
      "name": "resetSecretPhrase",
      "outputs": [],
      "stateMutability": "nonpayable",
      "type": "function"
    },
    {
      "inputs": [
        {
          "internalType": "address",
          "name": "from",
          "type": "address"
        },
        {
          "internalType": "address",
          "name": "to",
          "type": "address"
        },
        {
          "internalType": "uint256",
          "name": "tokenId",
          "type": "uint256"
        }
      ],
      "name": "safeTransferFrom",
      "outputs": [],
      "stateMutability": "nonpayable",
      "type": "function"
    },
    {
      "inputs": [
        {
          "internalType": "address",
          "name": "from",
          "type": "address"
        },
        {
          "internalType": "address",
          "name": "to",
          "type": "address"
        },
        {
          "internalType": "uint256",
          "name": "tokenId",
          "type": "uint256"
        },
        {
          "internalType": "bytes",
          "name": "data",
          "type": "bytes"
        }
      ],
      "name": "safeTransferFrom",
      "outputs": [],
      "stateMutability": "nonpayable",
      "type": "function"
    },
    {
      "inputs": [
        {
          "internalType": "address",
          "name": "operator",
          "type": "address"
        },
        {
          "internalType": "bool",
          "name": "approved",
          "type": "bool"
        }
      ],
      "name": "setApprovalForAll",
      "outputs": [],
      "stateMutability": "nonpayable",
      "type": "function"
    },
    {
      "inputs": [
        {
          "internalType": "uint256",
          "name": "_eventId",
          "type": "uint256"
        },
        {
          "internalType": "uint256",
          "name": "_mintLimit",
          "type": "uint256"
        },
        {
          "internalType": "bytes32",
          "name": "_secretPhrase",
          "type": "bytes32"
        },
        {
          "components": [
            {
              "internalType": "string",
              "name": "metaDataURL",
              "type": "string"
            },
            {
              "internalType": "uint256",
              "name": "requiredParticipateCount",
              "type": "uint256"
            }
          ],
          "internalType": "struct MintNFT.NFTAttribute[]",
          "name": "attributes",
          "type": "tuple[]"
        }
      ],
      "name": "setEventInfo",
      "outputs": [],
      "stateMutability": "nonpayable",
      "type": "function"
    },
    {
      "inputs": [
        {
          "internalType": "address",
          "name": "_addr",
          "type": "address"
        }
      ],
      "name": "setEventManagerAddr",
      "outputs": [],
      "stateMutability": "nonpayable",
      "type": "function"
    },
    {
      "inputs": [
        {
          "internalType": "bytes4",
          "name": "interfaceId",
          "type": "bytes4"
        }
      ],
      "name": "supportsInterface",
      "outputs": [
        {
          "internalType": "bool",
          "name": "",
          "type": "bool"
        }
      ],
      "stateMutability": "view",
      "type": "function"
    },
    {
      "inputs": [],
      "name": "symbol",
      "outputs": [
        {
          "internalType": "string",
          "name": "",
          "type": "string"
        }
      ],
      "stateMutability": "view",
      "type": "function"
    },
    {
      "inputs": [
        {
          "internalType": "uint256",
          "name": "index",
          "type": "uint256"
        }
      ],
      "name": "tokenByIndex",
      "outputs": [
        {
          "internalType": "uint256",
          "name": "",
          "type": "uint256"
        }
      ],
      "stateMutability": "view",
      "type": "function"
    },
    {
      "inputs": [
        {
          "internalType": "address",
          "name": "owner",
          "type": "address"
        },
        {
          "internalType": "uint256",
          "name": "index",
          "type": "uint256"
        }
      ],
      "name": "tokenOfOwnerByIndex",
      "outputs": [
        {
          "internalType": "uint256",
          "name": "",
          "type": "uint256"
        }
      ],
      "stateMutability": "view",
      "type": "function"
    },
    {
      "inputs": [
        {
          "internalType": "uint256",
          "name": "_tokenId",
          "type": "uint256"
        }
      ],
      "name": "tokenURI",
      "outputs": [
        {
          "internalType": "string",
          "name": "",
          "type": "string"
        }
      ],
      "stateMutability": "view",
      "type": "function"
    },
    {
      "inputs": [],
      "name": "totalSupply",
      "outputs": [
        {
          "internalType": "uint256",
          "name": "",
          "type": "uint256"
        }
      ],
      "stateMutability": "view",
      "type": "function"
    },
    {
      "inputs": [
        {
          "internalType": "address",
          "name": "from",
          "type": "address"
        },
        {
          "internalType": "address",
          "name": "to",
          "type": "address"
        },
        {
          "internalType": "uint256",
          "name": "tokenId",
          "type": "uint256"
        }
      ],
      "name": "transferFrom",
      "outputs": [],
      "stateMutability": "nonpayable",
      "type": "function"
    },
    {
      "inputs": [
        {
          "internalType": "address",
          "name": "newOwner",
          "type": "address"
        }
      ],
      "name": "transferOwnership",
      "outputs": [],
      "stateMutability": "nonpayable",
      "type": "function"
    }
  ],
  "bytecode": "0x608060405234801561001057600080fd5b50615ba180620000216000396000f3fe608060405234801561001057600080fd5b50600436106102065760003560e01c8063715018a61161011a578063b88d4fde116100ad578063df4b39dd1161007c578063df4b39dd14610645578063e985e9c514610675578063ef3ad9eb146106a5578063f2fde38b146106c1578063fa86623b146106dd57610206565b8063b88d4fde14610599578063c4b88ea4146105b5578063c87b56dd146105e5578063d622abc21461061557610206565b806395d89b41116100e957806395d89b41146105135780639dcd681114610531578063a22cb4651461054d578063af5723b11461056957610206565b8063715018a61461049f5780638da5cb5b146104a95780638f70738e146104c75780639041e3f4146104f757610206565b806342842e0e1161019d5780634f6ccce71161016c5780634f6ccce7146103af5780634ffc9f4b146103df578063572b6c051461040f5780636352211e1461043f57806370a082311461046f57610206565b806342842e0e1461032b57806342966c6814610347578063485cc955146103635780634df301491461037f57610206565b80630daa8be7116101d95780630daa8be7146102a557806318160ddd146102c157806323b872dd146102df5780632f745c59146102fb57610206565b806301ffc9a71461020b57806306fdde031461023b578063081812fc14610259578063095ea7b314610289575b600080fd5b61022560048036038101906102209190613938565b6106f9565b6040516102329190613980565b60405180910390f35b610243610773565b6040516102509190613a34565b60405180910390f35b610273600480360381019061026e9190613a8c565b610805565b6040516102809190613afa565b60405180910390f35b6102a3600480360381019061029e9190613b41565b61084b565b005b6102bf60048036038101906102ba9190613bad565b610963565b005b6102c9610ac0565b6040516102d69190613bfc565b60405180910390f35b6102f960048036038101906102f49190613c17565b610acd565b005b61031560048036038101906103109190613b41565b610b2d565b6040516103229190613bfc565b60405180910390f35b61034560048036038101906103409190613c17565b610bd2565b005b610361600480360381019061035c9190613a8c565b610bf2565b005b61037d60048036038101906103789190613ca8565b610c06565b005b61039960048036038101906103949190613e1e565b610dc8565b6040516103a69190613980565b60405180910390f35b6103c960048036038101906103c49190613a8c565b610f28565b6040516103d69190613bfc565b60405180910390f35b6103f960048036038101906103f49190613a8c565b610f99565b6040516104069190613bfc565b60405180910390f35b61042960048036038101906104249190613e5f565b610fb7565b6040516104369190613980565b60405180910390f35b61045960048036038101906104549190613a8c565b611011565b6040516104669190613afa565b60405180910390f35b61048960048036038101906104849190613e5f565b6110c3565b6040516104969190613bfc565b60405180910390f35b6104a761117b565b005b6104b161118f565b6040516104be9190613afa565b60405180910390f35b6104e160048036038101906104dc9190613a8c565b6111b9565b6040516104ee9190613f9b565b60405180910390f35b610511600480360381019061050c9190613e5f565b611512565b005b61051b6115cf565b6040516105289190613a34565b60405180910390f35b61054b60048036038101906105469190613ff3565b611661565b005b61056760048036038101906105629190614033565b6117be565b005b610583600480360381019061057e9190614136565b6117d4565b604051610590919061425d565b60405180910390f35b6105b360048036038101906105ae9190614334565b6118dd565b005b6105cf60048036038101906105ca9190613a8c565b61193f565b6040516105dc919061425d565b60405180910390f35b6105ff60048036038101906105fa9190613a8c565b6119b3565b60405161060c9190613a34565b60405180910390f35b61062f600480360381019061062a9190613b41565b611a5f565b60405161063c9190613980565b60405180910390f35b61065f600480360381019061065a9190613a8c565b611a94565b60405161066c9190613980565b60405180910390f35b61068f600480360381019061068a91906143b7565b611abf565b60405161069c9190613980565b60405180910390f35b6106bf60048036038101906106ba91906145ef565b611b53565b005b6106db60048036038101906106d69190613e5f565b611cb1565b005b6106f760048036038101906106f29190614672565b611d35565b005b60007f780e9d63000000000000000000000000000000000000000000000000000000007bffffffffffffffffffffffffffffffffffffffffffffffffffffffff1916827bffffffffffffffffffffffffffffffffffffffffffffffffffffffff1916148061076c575061076b82612145565b5b9050919050565b606060658054610782906146f5565b80601f01602080910402602001604051908101604052809291908181526020018280546107ae906146f5565b80156107fb5780601f106107d0576101008083540402835291602001916107fb565b820191906000526020600020905b8154815290600101906020018083116107de57829003601f168201915b5050505050905090565b600061081082612227565b6069600083815260200190815260200160002060009054906101000a900473ffffffffffffffffffffffffffffffffffffffff169050919050565b600061085682611011565b90508073ffffffffffffffffffffffffffffffffffffffff168373ffffffffffffffffffffffffffffffffffffffff1614156108c7576040517f08c379a00000000000000000000000000000000000000000000000000000000081526004016108be90614799565b60405180910390fd5b8073ffffffffffffffffffffffffffffffffffffffff166108e6612272565b73ffffffffffffffffffffffffffffffffffffffff16148061091557506109148161090f612272565b611abf565b5b610954576040517f08c379a000000000000000000000000000000000000000000000000000000000815260040161094b9061482b565b60405180910390fd5b61095e83836122a4565b505050565b81600061012f60009054906101000a900473ffffffffffffffffffffffffffffffffffffffff1690508073ffffffffffffffffffffffffffffffffffffffff16631847482a33846040518363ffffffff1660e01b81526004016109c792919061484b565b60206040518083038186803b1580156109df57600080fd5b505afa1580156109f3573d6000803e3d6000fd5b505050506040513d601f19601f82011682018060405250810190610a179190614889565b610a56576040517f08c379a0000000000000000000000000000000000000000000000000000000008152600401610a4d90614902565b60405180910390fd5b82610136600086815260200190815260200160002060006101000a81548160ff021916908315150217905550837f1e3ed2b292ed72652054799a4fde74789a8670c153df666f76e01345ec31828184604051610ab29190613980565b60405180910390a250505050565b6000609980549050905090565b610ade610ad8612272565b8261235d565b610b1d576040517f08c379a0000000000000000000000000000000000000000000000000000000008152600401610b1490614994565b60405180910390fd5b610b288383836123f2565b505050565b6000610b38836110c3565b8210610b79576040517f08c379a0000000000000000000000000000000000000000000000000000000008152600401610b7090614a26565b60405180910390fd5b609760008473ffffffffffffffffffffffffffffffffffffffff1673ffffffffffffffffffffffffffffffffffffffff168152602001908152602001600020600083815260200190815260200160002054905092915050565b610bed838383604051806020016040528060008152506118dd565b505050565b610bfa612659565b610c03816126d7565b50565b6003600060019054906101000a900460ff16158015610c3757508060ff1660008054906101000a900460ff1660ff16105b610c76576040517f08c379a0000000000000000000000000000000000000000000000000000000008152600401610c6d90614ab8565b60405180910390fd5b806000806101000a81548160ff021916908360ff1602179055506001600060016101000a81548160ff021916908315150217905550610d1f6040518060400160405280600981526020017f4d696e7452616c6c7900000000000000000000000000000000000000000000008152506040518060400160405280600281526020017f4d520000000000000000000000000000000000000000000000000000000000008152506127f4565b610d27612851565b610d30836128aa565b8161013860006101000a81548173ffffffffffffffffffffffffffffffffffffffff021916908373ffffffffffffffffffffffffffffffffffffffff16021790555060008060016101000a81548160ff0219169083151502179055507f7f26b83ff96e1f2b6a682f133852f6798a09c465da95921460cefb384740249881604051610dbb9190614af4565b60405180910390a1505050565b6000610dd48284612945565b610e13576040517f08c379a0000000000000000000000000000000000000000000000000000000008152600401610e0a90614b5b565b60405180910390fd5b60006101346000858152602001908152602001600020541415610e6b576040517f08c379a0000000000000000000000000000000000000000000000000000000008152600401610e6290614bc7565b60405180910390fd5b610e7c610e76612272565b84611a5f565b15610ebc576040517f08c379a0000000000000000000000000000000000000000000000000000000008152600401610eb390614c33565b60405180910390fd5b610136600084815260200190815260200160002060009054906101000a900460ff1615610f1e576040517f08c379a0000000000000000000000000000000000000000000000000000000008152600401610f1590614c9f565b60405180910390fd5b6001905092915050565b6000610f32610ac0565b8210610f73576040517f08c379a0000000000000000000000000000000000000000000000000000000008152600401610f6a90614d31565b60405180910390fd5b60998281548110610f8757610f86614d51565b5b90600052602060002001549050919050565b60006101346000838152602001908152602001600020549050919050565b600060c960009054906101000a900473ffffffffffffffffffffffffffffffffffffffff1673ffffffffffffffffffffffffffffffffffffffff168273ffffffffffffffffffffffffffffffffffffffff16149050919050565b6000806067600084815260200190815260200160002060009054906101000a900473ffffffffffffffffffffffffffffffffffffffff169050600073ffffffffffffffffffffffffffffffffffffffff168173ffffffffffffffffffffffffffffffffffffffff1614156110ba576040517f08c379a00000000000000000000000000000000000000000000000000000000081526004016110b190614dcc565b60405180910390fd5b80915050919050565b60008073ffffffffffffffffffffffffffffffffffffffff168273ffffffffffffffffffffffffffffffffffffffff161415611134576040517f08c379a000000000000000000000000000000000000000000000000000000000815260040161112b90614e5e565b60405180910390fd5b606860008373ffffffffffffffffffffffffffffffffffffffff1673ffffffffffffffffffffffffffffffffffffffff168152602001908152602001600020549050919050565b611183612659565b61118d6000612a35565b565b600060fc60009054906101000a900473ffffffffffffffffffffffffffffffffffffffff16905090565b6060600061012f60009054906101000a900473ffffffffffffffffffffffffffffffffffffffff16905060008173ffffffffffffffffffffffffffffffffffffffff1663f5620823856040518263ffffffff1660e01b815260040161121e9190613bfc565b60006040518083038186803b15801561123657600080fd5b505afa15801561124a573d6000803e3d6000fd5b505050506040513d6000823e3d601f19601f8201168201806040525081019061127391906150d8565b90506000815167ffffffffffffffff81111561129257611291613ced565b5b6040519080825280602002602001820160405280156112c557816020015b60608152602001906001900390816112b05790505b5090506000805b8351811015611356576112fc8482815181106112eb576112ea614d51565b5b60200260200101516000015161193f565b83828151811061130f5761130e614d51565b5b602002602001018190525082818151811061132d5761132c614d51565b5b602002602001015151826113419190615150565b9150808061134e906151a6565b9150506112cc565b5060008167ffffffffffffffff81111561137357611372613ced565b5b6040519080825280602002602001820160405280156113ac57816020015b6113996137c2565b8152602001906001900390816113915790505b50905060005b828110156115045760005b85518110156114fe5760005b8582815181106113dc576113db614d51565b5b6020026020010151518110156114ea57604051806060016040528087848151811061140a57611409614d51565b5b6020026020010151838151811061142457611423614d51565b5b60200260200101516000015173ffffffffffffffffffffffffffffffffffffffff16815260200188848151811061145e5761145d614d51565b5b602002602001015160000151815260200187848151811061148257611481614d51565b5b6020026020010151838151811061149c5761149b614d51565b5b6020026020010151602001518152508484815181106114be576114bd614d51565b5b602002602001018190525082806114d4906151a6565b93505080806114e2906151a6565b9150506113c9565b5080806114f6906151a6565b9150506113bd565b506113b2565b819650505050505050919050565b61151a612659565b600073ffffffffffffffffffffffffffffffffffffffff168173ffffffffffffffffffffffffffffffffffffffff16141561158a576040517f08c379a00000000000000000000000000000000000000000000000000000000081526004016115819061523b565b60405180910390fd5b8061012f60006101000a81548173ffffffffffffffffffffffffffffffffffffffff021916908373ffffffffffffffffffffffffffffffffffffffff16021790555050565b6060606680546115de906146f5565b80601f016020809104026020016040519081016040528092919081815260200182805461160a906146f5565b80156116575780601f1061162c57610100808354040283529160200191611657565b820191906000526020600020905b81548152906001019060200180831161163a57829003601f168201915b5050505050905090565b81600061012f60009054906101000a900473ffffffffffffffffffffffffffffffffffffffff1690508073ffffffffffffffffffffffffffffffffffffffff16631847482a33846040518363ffffffff1660e01b81526004016116c592919061484b565b60206040518083038186803b1580156116dd57600080fd5b505afa1580156116f1573d6000803e3d6000fd5b505050506040513d601f19601f820116820180604052508101906117159190614889565b611754576040517f08c379a000000000000000000000000000000000000000000000000000000000815260040161174b90614902565b60405180910390fd5b8261013560008681526020019081526020016000208190555083611776612272565b73ffffffffffffffffffffffffffffffffffffffff167fae5b067be3e4869ca571a499572a09085a17c3d0442a8965b8356bf47f63ba9960405160405180910390a350505050565b6117d06117c9612272565b8383612afb565b5050565b60606000825167ffffffffffffffff8111156117f3576117f2613ced565b5b60405190808252806020026020018201604052801561182c57816020015b6118196137f9565b8152602001906001900390816118115790505b50905060005b83518110156118d357604051806040016040528061186986848151811061185c5761185b614d51565b5b6020026020010151611011565b73ffffffffffffffffffffffffffffffffffffffff16815260200185838151811061189757611896614d51565b5b60200260200101518152508282815181106118b5576118b4614d51565b5b602002602001018190525080806118cb906151a6565b915050611832565b5080915050919050565b6118ee6118e8612272565b8361235d565b61192d576040517f08c379a000000000000000000000000000000000000000000000000000000000815260040161192490614994565b60405180910390fd5b61193984848484612c68565b50505050565b60606119ac61013760008481526020019081526020016000208054806020026020016040519081016040528092919081815260200182805480156119a257602002820191906000526020600020905b81548152602001906001019080831161198e575b50505050506117d4565b9050919050565b60606000610130600084815260200190815260200160002080546119d6906146f5565b80601f0160208091040260200160405190810160405280929190818152602001828054611a02906146f5565b8015611a4f5780601f10611a2457610100808354040283529160200191611a4f565b820191906000526020600020905b815481529060010190602001808311611a3257829003601f168201915b5050505050905080915050919050565b60006101316000611a708585612cc4565b815260200190815260200160002060009054906101000a900460ff16905092915050565b6000610136600083815260200190815260200160002060009054906101000a900460ff169050919050565b6000606a60008473ffffffffffffffffffffffffffffffffffffffff1673ffffffffffffffffffffffffffffffffffffffff16815260200190815260200160002060008373ffffffffffffffffffffffffffffffffffffffff1673ffffffffffffffffffffffffffffffffffffffff16815260200190815260200160002060009054906101000a900460ff16905092915050565b61012f60009054906101000a900473ffffffffffffffffffffffffffffffffffffffff1673ffffffffffffffffffffffffffffffffffffffff16611b95612272565b73ffffffffffffffffffffffffffffffffffffffff1614611beb576040517f08c379a0000000000000000000000000000000000000000000000000000000008152600401611be2906152a7565b60405180910390fd5b826101346000868152602001908152602001600020819055508161013560008681526020019081526020016000208190555060005b8151811015611caa57818181518110611c3c57611c3b614d51565b5b6020026020010151600001516101336000611c7588868681518110611c6457611c63614d51565b5b602002602001015160200151612cf7565b81526020019081526020016000209080519060200190611c96929190613829565b508080611ca2906151a6565b915050611c20565b5050505050565b611cb9612659565b600073ffffffffffffffffffffffffffffffffffffffff168173ffffffffffffffffffffffffffffffffffffffff161415611d29576040517f08c379a0000000000000000000000000000000000000000000000000000000008152600401611d2090615339565b60405180910390fd5b611d3281612a35565b50565b611d3f8282610dc8565b506001610134600084815260200190815260200160002054611d619190615359565b610134600084815260200190815260200160002081905550600061013860009054906101000a900473ffffffffffffffffffffffffffffffffffffffff1690508073ffffffffffffffffffffffffffffffffffffffff1663c6bc727283856040518363ffffffff1660e01b8152600401611ddc929190615429565b600060405180830381600087803b158015611df657600080fd5b505af1158015611e0a573d6000803e3d6000fd5b5050505060016101316000611e26611e20612272565b87612cc4565b815260200190815260200160002060006101000a81548160ff0219169083151502179055506000611e5e611e58612272565b86612cc4565b905060006101326000838152602001908152602001600020549050600181611e869190615150565b61013260008481526020019081526020016000208190555060006101336000611eb0886000612cf7565b81526020019081526020016000208054611ec9906146f5565b80601f0160208091040260200160405190810160405280929190818152602001828054611ef5906146f5565b8015611f425780601f10611f1757610100808354040283529160200191611f42565b820191906000526020600020905b815481529060010190602001808311611f2557829003601f168201915b5050505050905060006101336000611f5a8986612cf7565b81526020019081526020016000208054611f73906146f5565b80601f0160208091040260200160405190810160405280929190818152602001828054611f9f906146f5565b8015611fec5780601f10611fc157610100808354040283529160200191611fec565b820191906000526020600020905b815481529060010190602001808311611fcf57829003601f168201915b5050505050905060405160200161200290615485565b604051602081830303815290604052805190602001208160405160200161202991906154cb565b6040516020818303038152906040528051906020012014612048578091505b81610130600061205961012e612d2a565b8152602001908152602001600020908051906020019061207a929190613829565b50610137600088815260200190815260200160002061209a61012e612d2a565b90806001815401808255809150506001900390600052602060002001600090919091909150556120db6120cb612272565b6120d661012e612d2a565b612d38565b6120e661012e612d56565b6120ee612272565b73ffffffffffffffffffffffffffffffffffffffff167faf2fad1984d2c7abaa9300537cf9fe1bcfaf2d6226e4ffdf03522dbf3064808e836040516121339190613a34565b60405180910390a25050505050505050565b60007f80ac58cd000000000000000000000000000000000000000000000000000000007bffffffffffffffffffffffffffffffffffffffffffffffffffffffff1916827bffffffffffffffffffffffffffffffffffffffffffffffffffffffff1916148061221057507f5b5e139f000000000000000000000000000000000000000000000000000000007bffffffffffffffffffffffffffffffffffffffffffffffffffffffff1916827bffffffffffffffffffffffffffffffffffffffffffffffffffffffff1916145b80612220575061221f82612d6c565b5b9050919050565b61223081612dd6565b61226f576040517f08c379a000000000000000000000000000000000000000000000000000000000815260040161226690614dcc565b60405180910390fd5b50565b600061227d33610fb7565b1561229157601436033560601c90506122a0565b612299612e42565b90506122a1565b5b90565b816069600083815260200190815260200160002060006101000a81548173ffffffffffffffffffffffffffffffffffffffff021916908373ffffffffffffffffffffffffffffffffffffffff160217905550808273ffffffffffffffffffffffffffffffffffffffff1661231783611011565b73ffffffffffffffffffffffffffffffffffffffff167f8c5be1e5ebec7d5bd14f71427d1e84f3dd0314c0f7b2291e5b200ac8c7c3b92560405160405180910390a45050565b60008061236983611011565b90508073ffffffffffffffffffffffffffffffffffffffff168473ffffffffffffffffffffffffffffffffffffffff1614806123ab57506123aa8185611abf565b5b806123e957508373ffffffffffffffffffffffffffffffffffffffff166123d184610805565b73ffffffffffffffffffffffffffffffffffffffff16145b91505092915050565b8273ffffffffffffffffffffffffffffffffffffffff1661241282611011565b73ffffffffffffffffffffffffffffffffffffffff1614612468576040517f08c379a000000000000000000000000000000000000000000000000000000000815260040161245f90615554565b60405180910390fd5b600073ffffffffffffffffffffffffffffffffffffffff168273ffffffffffffffffffffffffffffffffffffffff1614156124d8576040517f08c379a00000000000000000000000000000000000000000000000000000000081526004016124cf906155e6565b60405180910390fd5b6124e3838383612e74565b6124ee6000826122a4565b6001606860008573ffffffffffffffffffffffffffffffffffffffff1673ffffffffffffffffffffffffffffffffffffffff168152602001908152602001600020600082825461253e9190615359565b925050819055506001606860008473ffffffffffffffffffffffffffffffffffffffff1673ffffffffffffffffffffffffffffffffffffffff16815260200190815260200160002060008282546125959190615150565b92505081905550816067600083815260200190815260200160002060006101000a81548173ffffffffffffffffffffffffffffffffffffffff021916908373ffffffffffffffffffffffffffffffffffffffff160217905550808273ffffffffffffffffffffffffffffffffffffffff168473ffffffffffffffffffffffffffffffffffffffff167fddf252ad1be2c89b69c2b068fc378daa952ba7f163c4a11628f55a4df523b3ef60405160405180910390a4612654838383612f88565b505050565b612661612272565b73ffffffffffffffffffffffffffffffffffffffff1661267f61118f565b73ffffffffffffffffffffffffffffffffffffffff16146126d5576040517f08c379a00000000000000000000000000000000000000000000000000000000081526004016126cc90615652565b60405180910390fd5b565b60006126e282611011565b90506126f081600084612e74565b6126fb6000836122a4565b6001606860008373ffffffffffffffffffffffffffffffffffffffff1673ffffffffffffffffffffffffffffffffffffffff168152602001908152602001600020600082825461274b9190615359565b925050819055506067600083815260200190815260200160002060006101000a81549073ffffffffffffffffffffffffffffffffffffffff021916905581600073ffffffffffffffffffffffffffffffffffffffff168273ffffffffffffffffffffffffffffffffffffffff167fddf252ad1be2c89b69c2b068fc378daa952ba7f163c4a11628f55a4df523b3ef60405160405180910390a46127f081600084612f88565b5050565b600060019054906101000a900460ff16612843576040517f08c379a000000000000000000000000000000000000000000000000000000000815260040161283a906156e4565b60405180910390fd5b61284d8282612f8d565b5050565b600060019054906101000a900460ff166128a0576040517f08c379a0000000000000000000000000000000000000000000000000000000008152600401612897906156e4565b60405180910390fd5b6128a861300e565b565b600060019054906101000a900460ff166128f9576040517f08c379a00000000000000000000000000000000000000000000000000000000081526004016128f0906156e4565b60405180910390fd5b61290161306f565b8060c960006101000a81548173ffffffffffffffffffffffffffffffffffffffff021916908373ffffffffffffffffffffffffffffffffffffffff16021790555050565b60008061013860009054906101000a900473ffffffffffffffffffffffffffffffffffffffff1690506000604051806020016040528061013560008781526020019081526020016000205460001c815250905060008273ffffffffffffffffffffffffffffffffffffffff1663a65bb09a8784886040518463ffffffff1660e01b81526004016129d793929190615788565b60206040518083038186803b1580156129ef57600080fd5b505afa158015612a03573d6000803e3d6000fd5b505050506040513d601f19601f82011682018060405250810190612a279190614889565b905080935050505092915050565b600060fc60009054906101000a900473ffffffffffffffffffffffffffffffffffffffff1690508160fc60006101000a81548173ffffffffffffffffffffffffffffffffffffffff021916908373ffffffffffffffffffffffffffffffffffffffff1602179055508173ffffffffffffffffffffffffffffffffffffffff168173ffffffffffffffffffffffffffffffffffffffff167f8be0079c531659141344cd1fd0a4f28419497f9722a3daafe3b4186f6b6457e060405160405180910390a35050565b8173ffffffffffffffffffffffffffffffffffffffff168373ffffffffffffffffffffffffffffffffffffffff161415612b6a576040517f08c379a0000000000000000000000000000000000000000000000000000000008152600401612b619061580e565b60405180910390fd5b80606a60008573ffffffffffffffffffffffffffffffffffffffff1673ffffffffffffffffffffffffffffffffffffffff16815260200190815260200160002060008473ffffffffffffffffffffffffffffffffffffffff1673ffffffffffffffffffffffffffffffffffffffff16815260200190815260200160002060006101000a81548160ff0219169083151502179055508173ffffffffffffffffffffffffffffffffffffffff168373ffffffffffffffffffffffffffffffffffffffff167f17307eab39ab6107e8899845ad3d59bd9653f200f220920489ca2b5937696c3183604051612c5b9190613980565b60405180910390a3505050565b612c738484846123f2565b612c7f848484846130c0565b612cbe576040517f08c379a0000000000000000000000000000000000000000000000000000000008152600401612cb5906158a0565b60405180910390fd5b50505050565b60008282604051602001612cd9929190615929565b60405160208183030381529060405280519060200120905092915050565b60008282604051602001612d0c929190615955565b60405160208183030381529060405280519060200120905092915050565b600081600001549050919050565b612d52828260405180602001604052806000815250613257565b5050565b6001816000016000828254019250508190555050565b60007f01ffc9a7000000000000000000000000000000000000000000000000000000007bffffffffffffffffffffffffffffffffffffffffffffffffffffffff1916827bffffffffffffffffffffffffffffffffffffffffffffffffffffffff1916149050919050565b60008073ffffffffffffffffffffffffffffffffffffffff166067600084815260200190815260200160002060009054906101000a900473ffffffffffffffffffffffffffffffffffffffff1673ffffffffffffffffffffffffffffffffffffffff1614159050919050565b6000612e4d33610fb7565b15612e6157601436033560601c9050612e70565b612e696132b2565b9050612e71565b5b90565b612e7f8383836132ba565b600073ffffffffffffffffffffffffffffffffffffffff168373ffffffffffffffffffffffffffffffffffffffff161415612ec257612ebd816132bf565b612f01565b8173ffffffffffffffffffffffffffffffffffffffff168373ffffffffffffffffffffffffffffffffffffffff1614612f0057612eff8382613308565b5b5b600073ffffffffffffffffffffffffffffffffffffffff168273ffffffffffffffffffffffffffffffffffffffff161415612f4457612f3f81613475565b612f83565b8273ffffffffffffffffffffffffffffffffffffffff168273ffffffffffffffffffffffffffffffffffffffff1614612f8257612f818282613546565b5b5b505050565b505050565b600060019054906101000a900460ff16612fdc576040517f08c379a0000000000000000000000000000000000000000000000000000000008152600401612fd3906156e4565b60405180910390fd5b8160659080519060200190612ff2929190613829565b508060669080519060200190613009929190613829565b505050565b600060019054906101000a900460ff1661305d576040517f08c379a0000000000000000000000000000000000000000000000000000000008152600401613054906156e4565b60405180910390fd5b61306d613068612272565b612a35565b565b600060019054906101000a900460ff166130be576040517f08c379a00000000000000000000000000000000000000000000000000000000081526004016130b5906156e4565b60405180910390fd5b565b60006130e18473ffffffffffffffffffffffffffffffffffffffff166135c5565b1561324a578373ffffffffffffffffffffffffffffffffffffffff1663150b7a0261310a612272565b8786866040518563ffffffff1660e01b815260040161312c94939291906159d6565b602060405180830381600087803b15801561314657600080fd5b505af192505050801561317757506040513d601f19601f820116820180604052508101906131749190615a37565b60015b6131fa573d80600081146131a7576040519150601f19603f3d011682016040523d82523d6000602084013e6131ac565b606091505b506000815114156131f2576040517f08c379a00000000000000000000000000000000000000000000000000000000081526004016131e9906158a0565b60405180910390fd5b805181602001fd5b63150b7a0260e01b7bffffffffffffffffffffffffffffffffffffffffffffffffffffffff1916817bffffffffffffffffffffffffffffffffffffffffffffffffffffffff19161491505061324f565b600190505b949350505050565b61326183836135e8565b61326e60008484846130c0565b6132ad576040517f08c379a00000000000000000000000000000000000000000000000000000000081526004016132a4906158a0565b60405180910390fd5b505050565b600033905090565b505050565b609980549050609a600083815260200190815260200160002081905550609981908060018154018082558091505060019003906000526020600020016000909190919091505550565b60006001613315846110c3565b61331f9190615359565b9050600060986000848152602001908152602001600020549050818114613404576000609760008673ffffffffffffffffffffffffffffffffffffffff1673ffffffffffffffffffffffffffffffffffffffff168152602001908152602001600020600084815260200190815260200160002054905080609760008773ffffffffffffffffffffffffffffffffffffffff1673ffffffffffffffffffffffffffffffffffffffff168152602001908152602001600020600084815260200190815260200160002081905550816098600083815260200190815260200160002081905550505b6098600084815260200190815260200160002060009055609760008573ffffffffffffffffffffffffffffffffffffffff1673ffffffffffffffffffffffffffffffffffffffff16815260200190815260200160002060008381526020019081526020016000206000905550505050565b600060016099805490506134899190615359565b90506000609a60008481526020019081526020016000205490506000609983815481106134b9576134b8614d51565b5b9060005260206000200154905080609983815481106134db576134da614d51565b5b906000526020600020018190555081609a600083815260200190815260200160002081905550609a600085815260200190815260200160002060009055609980548061352a57613529615a64565b5b6001900381819060005260206000200160009055905550505050565b6000613551836110c3565b905081609760008573ffffffffffffffffffffffffffffffffffffffff1673ffffffffffffffffffffffffffffffffffffffff168152602001908152602001600020600083815260200190815260200160002081905550806098600084815260200190815260200160002081905550505050565b6000808273ffffffffffffffffffffffffffffffffffffffff163b119050919050565b600073ffffffffffffffffffffffffffffffffffffffff168273ffffffffffffffffffffffffffffffffffffffff161415613658576040517f08c379a000000000000000000000000000000000000000000000000000000000815260040161364f90615adf565b60405180910390fd5b61366181612dd6565b156136a1576040517f08c379a000000000000000000000000000000000000000000000000000000000815260040161369890615b4b565b60405180910390fd5b6136ad60008383612e74565b6001606860008473ffffffffffffffffffffffffffffffffffffffff1673ffffffffffffffffffffffffffffffffffffffff16815260200190815260200160002060008282546136fd9190615150565b92505081905550816067600083815260200190815260200160002060006101000a81548173ffffffffffffffffffffffffffffffffffffffff021916908373ffffffffffffffffffffffffffffffffffffffff160217905550808273ffffffffffffffffffffffffffffffffffffffff16600073ffffffffffffffffffffffffffffffffffffffff167fddf252ad1be2c89b69c2b068fc378daa952ba7f163c4a11628f55a4df523b3ef60405160405180910390a46137be60008383612f88565b5050565b6040518060600160405280600073ffffffffffffffffffffffffffffffffffffffff16815260200160008152602001600081525090565b6040518060400160405280600073ffffffffffffffffffffffffffffffffffffffff168152602001600081525090565b828054613835906146f5565b90600052602060002090601f016020900481019282613857576000855561389e565b82601f1061387057805160ff191683800117855561389e565b8280016001018555821561389e579182015b8281111561389d578251825591602001919060010190613882565b5b5090506138ab91906138af565b5090565b5b808211156138c85760008160009055506001016138b0565b5090565b6000604051905090565b600080fd5b600080fd5b60007fffffffff0000000000000000000000000000000000000000000000000000000082169050919050565b613915816138e0565b811461392057600080fd5b50565b6000813590506139328161390c565b92915050565b60006020828403121561394e5761394d6138d6565b5b600061395c84828501613923565b91505092915050565b60008115159050919050565b61397a81613965565b82525050565b60006020820190506139956000830184613971565b92915050565b600081519050919050565b600082825260208201905092915050565b60005b838110156139d55780820151818401526020810190506139ba565b838111156139e4576000848401525b50505050565b6000601f19601f8301169050919050565b6000613a068261399b565b613a1081856139a6565b9350613a208185602086016139b7565b613a29816139ea565b840191505092915050565b60006020820190508181036000830152613a4e81846139fb565b905092915050565b6000819050919050565b613a6981613a56565b8114613a7457600080fd5b50565b600081359050613a8681613a60565b92915050565b600060208284031215613aa257613aa16138d6565b5b6000613ab084828501613a77565b91505092915050565b600073ffffffffffffffffffffffffffffffffffffffff82169050919050565b6000613ae482613ab9565b9050919050565b613af481613ad9565b82525050565b6000602082019050613b0f6000830184613aeb565b92915050565b613b1e81613ad9565b8114613b2957600080fd5b50565b600081359050613b3b81613b15565b92915050565b60008060408385031215613b5857613b576138d6565b5b6000613b6685828601613b2c565b9250506020613b7785828601613a77565b9150509250929050565b613b8a81613965565b8114613b9557600080fd5b50565b600081359050613ba781613b81565b92915050565b60008060408385031215613bc457613bc36138d6565b5b6000613bd285828601613a77565b9250506020613be385828601613b98565b9150509250929050565b613bf681613a56565b82525050565b6000602082019050613c116000830184613bed565b92915050565b600080600060608486031215613c3057613c2f6138d6565b5b6000613c3e86828701613b2c565b9350506020613c4f86828701613b2c565b9250506040613c6086828701613a77565b9150509250925092565b6000613c7582613ad9565b9050919050565b613c8581613c6a565b8114613c9057600080fd5b50565b600081359050613ca281613c7c565b92915050565b60008060408385031215613cbf57613cbe6138d6565b5b6000613ccd85828601613c93565b9250506020613cde85828601613b2c565b9150509250929050565b600080fd5b7f4e487b7100000000000000000000000000000000000000000000000000000000600052604160045260246000fd5b613d25826139ea565b810181811067ffffffffffffffff82111715613d4457613d43613ced565b5b80604052505050565b6000613d576138cc565b9050613d638282613d1c565b919050565b600067ffffffffffffffff821115613d8357613d82613ced565b5b602082029050919050565b600080fd5b6000613da6613da184613d68565b613d4d565b90508060208402830185811115613dc057613dbf613d8e565b5b835b81811015613de95780613dd58882613a77565b845260208401935050602081019050613dc2565b5050509392505050565b600082601f830112613e0857613e07613ce8565b5b6018613e15848285613d93565b91505092915050565b6000806103208385031215613e3657613e356138d6565b5b6000613e4485828601613a77565b9250506020613e5585828601613df3565b9150509250929050565b600060208284031215613e7557613e746138d6565b5b6000613e8384828501613b2c565b91505092915050565b600081519050919050565b600082825260208201905092915050565b6000819050602082019050919050565b613ec181613ad9565b82525050565b613ed081613a56565b82525050565b606082016000820151613eec6000850182613eb8565b506020820151613eff6020850182613ec7565b506040820151613f126040850182613ec7565b50505050565b6000613f248383613ed6565b60608301905092915050565b6000602082019050919050565b6000613f4882613e8c565b613f528185613e97565b9350613f5d83613ea8565b8060005b83811015613f8e578151613f758882613f18565b9750613f8083613f30565b925050600181019050613f61565b5085935050505092915050565b60006020820190508181036000830152613fb58184613f3d565b905092915050565b6000819050919050565b613fd081613fbd565b8114613fdb57600080fd5b50565b600081359050613fed81613fc7565b92915050565b6000806040838503121561400a576140096138d6565b5b600061401885828601613a77565b925050602061402985828601613fde565b9150509250929050565b6000806040838503121561404a576140496138d6565b5b600061405885828601613b2c565b925050602061406985828601613b98565b9150509250929050565b600067ffffffffffffffff82111561408e5761408d613ced565b5b602082029050602081019050919050565b60006140b26140ad84614073565b613d4d565b905080838252602082019050602084028301858111156140d5576140d4613d8e565b5b835b818110156140fe57806140ea8882613a77565b8452602084019350506020810190506140d7565b5050509392505050565b600082601f83011261411d5761411c613ce8565b5b813561412d84826020860161409f565b91505092915050565b60006020828403121561414c5761414b6138d6565b5b600082013567ffffffffffffffff81111561416a576141696138db565b5b61417684828501614108565b91505092915050565b600081519050919050565b600082825260208201905092915050565b6000819050602082019050919050565b6040820160008201516141c16000850182613eb8565b5060208201516141d46020850182613ec7565b50505050565b60006141e683836141ab565b60408301905092915050565b6000602082019050919050565b600061420a8261417f565b614214818561418a565b935061421f8361419b565b8060005b8381101561425057815161423788826141da565b9750614242836141f2565b925050600181019050614223565b5085935050505092915050565b6000602082019050818103600083015261427781846141ff565b905092915050565b600080fd5b600067ffffffffffffffff82111561429f5761429e613ced565b5b6142a8826139ea565b9050602081019050919050565b82818337600083830152505050565b60006142d76142d284614284565b613d4d565b9050828152602081018484840111156142f3576142f261427f565b5b6142fe8482856142b5565b509392505050565b600082601f83011261431b5761431a613ce8565b5b813561432b8482602086016142c4565b91505092915050565b6000806000806080858703121561434e5761434d6138d6565b5b600061435c87828801613b2c565b945050602061436d87828801613b2c565b935050604061437e87828801613a77565b925050606085013567ffffffffffffffff81111561439f5761439e6138db565b5b6143ab87828801614306565b91505092959194509250565b600080604083850312156143ce576143cd6138d6565b5b60006143dc85828601613b2c565b92505060206143ed85828601613b2c565b9150509250929050565b600067ffffffffffffffff82111561441257614411613ced565b5b602082029050602081019050919050565b600080fd5b600080fd5b600067ffffffffffffffff82111561444857614447613ced565b5b614451826139ea565b9050602081019050919050565b600061447161446c8461442d565b613d4d565b90508281526020810184848401111561448d5761448c61427f565b5b6144988482856142b5565b509392505050565b600082601f8301126144b5576144b4613ce8565b5b81356144c584826020860161445e565b91505092915050565b6000604082840312156144e4576144e3614423565b5b6144ee6040613d4d565b9050600082013567ffffffffffffffff81111561450e5761450d614428565b5b61451a848285016144a0565b600083015250602061452e84828501613a77565b60208301525092915050565b600061454d614548846143f7565b613d4d565b905080838252602082019050602084028301858111156145705761456f613d8e565b5b835b818110156145b757803567ffffffffffffffff81111561459557614594613ce8565b5b8086016145a289826144ce565b85526020850194505050602081019050614572565b5050509392505050565b600082601f8301126145d6576145d5613ce8565b5b81356145e684826020860161453a565b91505092915050565b60008060008060808587031215614609576146086138d6565b5b600061461787828801613a77565b945050602061462887828801613a77565b935050604061463987828801613fde565b925050606085013567ffffffffffffffff81111561465a576146596138db565b5b614666878288016145c1565b91505092959194509250565b6000806000610340848603121561468c5761468b6138d6565b5b600061469a86828701613a77565b93505060206146ab86828701613a77565b92505060406146bc86828701613df3565b9150509250925092565b7f4e487b7100000000000000000000000000000000000000000000000000000000600052602260045260246000fd5b6000600282049050600182168061470d57607f821691505b60208210811415614721576147206146c6565b5b50919050565b7f4552433732313a20617070726f76616c20746f2063757272656e74206f776e6560008201527f7200000000000000000000000000000000000000000000000000000000000000602082015250565b60006147836021836139a6565b915061478e82614727565b604082019050919050565b600060208201905081810360008301526147b281614776565b9050919050565b7f4552433732313a20617070726f76652063616c6c6572206973206e6f7420746f60008201527f6b656e206f776e6572206e6f7220617070726f76656420666f7220616c6c0000602082015250565b6000614815603e836139a6565b9150614820826147b9565b604082019050919050565b6000602082019050818103600083015261484481614808565b9050919050565b60006040820190506148606000830185613aeb565b61486d6020830184613bed565b9392505050565b60008151905061488381613b81565b92915050565b60006020828403121561489f5761489e6138d6565b5b60006148ad84828501614874565b91505092915050565b7f796f7520617265206e6f74206576656e742067726f7570206f776e6572000000600082015250565b60006148ec601d836139a6565b91506148f7826148b6565b602082019050919050565b6000602082019050818103600083015261491b816148df565b9050919050565b7f4552433732313a2063616c6c6572206973206e6f7420746f6b656e206f776e6560008201527f72206e6f7220617070726f766564000000000000000000000000000000000000602082015250565b600061497e602e836139a6565b915061498982614922565b604082019050919050565b600060208201905081810360008301526149ad81614971565b9050919050565b7f455243373231456e756d657261626c653a206f776e657220696e646578206f7560008201527f74206f6620626f756e6473000000000000000000000000000000000000000000602082015250565b6000614a10602b836139a6565b9150614a1b826149b4565b604082019050919050565b60006020820190508181036000830152614a3f81614a03565b9050919050565b7f496e697469616c697a61626c653a20636f6e747261637420697320616c72656160008201527f647920696e697469616c697a6564000000000000000000000000000000000000602082015250565b6000614aa2602e836139a6565b9150614aad82614a46565b604082019050919050565b60006020820190508181036000830152614ad181614a95565b9050919050565b600060ff82169050919050565b614aee81614ad8565b82525050565b6000602082019050614b096000830184614ae5565b92915050565b7f696e76616c696420736563726574207068726173650000000000000000000000600082015250565b6000614b456015836139a6565b9150614b5082614b0f565b602082019050919050565b60006020820190508181036000830152614b7481614b38565b9050919050565b7f72656d61696e696e6720636f756e74206973207a65726f000000000000000000600082015250565b6000614bb16017836139a6565b9150614bbc82614b7b565b602082019050919050565b60006020820190508181036000830152614be081614ba4565b9050919050565b7f616c7265616479206d696e746564000000000000000000000000000000000000600082015250565b6000614c1d600e836139a6565b9150614c2882614be7565b602082019050919050565b60006020820190508181036000830152614c4c81614c10565b9050919050565b7f6d696e74206973206c6f636b6564000000000000000000000000000000000000600082015250565b6000614c89600e836139a6565b9150614c9482614c53565b602082019050919050565b60006020820190508181036000830152614cb881614c7c565b9050919050565b7f455243373231456e756d657261626c653a20676c6f62616c20696e646578206f60008201527f7574206f6620626f756e64730000000000000000000000000000000000000000602082015250565b6000614d1b602c836139a6565b9150614d2682614cbf565b604082019050919050565b60006020820190508181036000830152614d4a81614d0e565b9050919050565b7f4e487b7100000000000000000000000000000000000000000000000000000000600052603260045260246000fd5b7f4552433732313a20696e76616c696420746f6b656e2049440000000000000000600082015250565b6000614db66018836139a6565b9150614dc182614d80565b602082019050919050565b60006020820190508181036000830152614de581614da9565b9050919050565b7f4552433732313a2061646472657373207a65726f206973206e6f74206120766160008201527f6c6964206f776e65720000000000000000000000000000000000000000000000602082015250565b6000614e486029836139a6565b9150614e5382614dec565b604082019050919050565b60006020820190508181036000830152614e7781614e3b565b9050919050565b600067ffffffffffffffff821115614e9957614e98613ced565b5b602082029050602081019050919050565b600081519050614eb981613a60565b92915050565b6000614ed2614ecd8461442d565b613d4d565b905082815260208101848484011115614eee57614eed61427f565b5b614ef98482856139b7565b509392505050565b600082601f830112614f1657614f15613ce8565b5b8151614f26848260208601614ebf565b91505092915050565b600060c08284031215614f4557614f44614423565b5b614f4f60c0613d4d565b90506000614f5f84828501614eaa565b6000830152506020614f7384828501614eaa565b602083015250604082015167ffffffffffffffff811115614f9757614f96614428565b5b614fa384828501614f01565b604083015250606082015167ffffffffffffffff811115614fc757614fc6614428565b5b614fd384828501614f01565b606083015250608082015167ffffffffffffffff811115614ff757614ff6614428565b5b61500384828501614f01565b60808301525060a061501784828501614874565b60a08301525092915050565b600061503661503184614e7e565b613d4d565b9050808382526020820190506020840283018581111561505957615058613d8e565b5b835b818110156150a057805167ffffffffffffffff81111561507e5761507d613ce8565b5b80860161508b8982614f2f565b8552602085019450505060208101905061505b565b5050509392505050565b600082601f8301126150bf576150be613ce8565b5b81516150cf848260208601615023565b91505092915050565b6000602082840312156150ee576150ed6138d6565b5b600082015167ffffffffffffffff81111561510c5761510b6138db565b5b615118848285016150aa565b91505092915050565b7f4e487b7100000000000000000000000000000000000000000000000000000000600052601160045260246000fd5b600061515b82613a56565b915061516683613a56565b9250827fffffffffffffffffffffffffffffffffffffffffffffffffffffffffffffffff0382111561519b5761519a615121565b5b828201905092915050565b60006151b182613a56565b91507fffffffffffffffffffffffffffffffffffffffffffffffffffffffffffffffff8214156151e4576151e3615121565b5b600182019050919050565b7f6576656e74206d616e61676572206164647265737320697320626c616e6b0000600082015250565b6000615225601e836139a6565b9150615230826151ef565b602082019050919050565b6000602082019050818103600083015261525481615218565b9050919050565b7f756e617574686f72697a65640000000000000000000000000000000000000000600082015250565b6000615291600c836139a6565b915061529c8261525b565b602082019050919050565b600060208201905081810360008301526152c081615284565b9050919050565b7f4f776e61626c653a206e6577206f776e657220697320746865207a65726f206160008201527f6464726573730000000000000000000000000000000000000000000000000000602082015250565b60006153236026836139a6565b915061532e826152c7565b604082019050919050565b6000602082019050818103600083015261535281615316565b9050919050565b600061536482613a56565b915061536f83613a56565b92508282101561538257615381615121565b5b828203905092915050565b600060189050919050565b600081905092915050565b6000819050919050565b60006153b98383613ec7565b60208301905092915050565b6000602082019050919050565b6153db8161538d565b6153e58184615398565b92506153f0826153a3565b8060005b8381101561542157815161540887826153ad565b9650615413836153c5565b9250506001810190506153f4565b505050505050565b60006103208201905061543f60008301856153d2565b61544d610300830184613bed565b9392505050565b600081905092915050565b50565b600061546f600083615454565b915061547a8261545f565b600082019050919050565b600061549082615462565b9150819050919050565b60006154a58261399b565b6154af8185615454565b93506154bf8185602086016139b7565b80840191505092915050565b60006154d7828461549a565b915081905092915050565b7f4552433732313a207472616e736665722066726f6d20696e636f72726563742060008201527f6f776e6572000000000000000000000000000000000000000000000000000000602082015250565b600061553e6025836139a6565b9150615549826154e2565b604082019050919050565b6000602082019050818103600083015261556d81615531565b9050919050565b7f4552433732313a207472616e7366657220746f20746865207a65726f2061646460008201527f7265737300000000000000000000000000000000000000000000000000000000602082015250565b60006155d06024836139a6565b91506155db82615574565b604082019050919050565b600060208201905081810360008301526155ff816155c3565b9050919050565b7f4f776e61626c653a2063616c6c6572206973206e6f7420746865206f776e6572600082015250565b600061563c6020836139a6565b915061564782615606565b602082019050919050565b6000602082019050818103600083015261566b8161562f565b9050919050565b7f496e697469616c697a61626c653a20636f6e7472616374206973206e6f74206960008201527f6e697469616c697a696e67000000000000000000000000000000000000000000602082015250565b60006156ce602b836139a6565b91506156d982615672565b604082019050919050565b600060208201905081810360008301526156fd816156c1565b9050919050565b600060019050919050565b600081905092915050565b6000819050919050565b6000602082019050919050565b61573a81615704565b615744818461570f565b925061574f8261571a565b8060005b8381101561578057815161576787826153ad565b965061577283615724565b925050600181019050615753565b505050505050565b60006103408201905061579e60008301866153d2565b6157ac610300830185615731565b6157ba610320830184613bed565b949350505050565b7f4552433732313a20617070726f766520746f2063616c6c657200000000000000600082015250565b60006157f86019836139a6565b9150615803826157c2565b602082019050919050565b60006020820190508181036000830152615827816157eb565b9050919050565b7f4552433732313a207472616e7366657220746f206e6f6e20455243373231526560008201527f63656976657220696d706c656d656e7465720000000000000000000000000000602082015250565b600061588a6032836139a6565b91506158958261582e565b604082019050919050565b600060208201905081810360008301526158b98161587d565b9050919050565b60008160601b9050919050565b60006158d8826158c0565b9050919050565b60006158ea826158cd565b9050919050565b6159026158fd82613ad9565b6158df565b82525050565b6000819050919050565b61592361591e82613a56565b615908565b82525050565b600061593582856158f1565b6014820191506159458284615912565b6020820191508190509392505050565b60006159618285615912565b6020820191506159718284615912565b6020820191508190509392505050565b600081519050919050565b600082825260208201905092915050565b60006159a882615981565b6159b2818561598c565b93506159c28185602086016139b7565b6159cb816139ea565b840191505092915050565b60006080820190506159eb6000830187613aeb565b6159f86020830186613aeb565b615a056040830185613bed565b8181036060830152615a17818461599d565b905095945050505050565b600081519050615a318161390c565b92915050565b600060208284031215615a4d57615a4c6138d6565b5b6000615a5b84828501615a22565b91505092915050565b7f4e487b7100000000000000000000000000000000000000000000000000000000600052603160045260246000fd5b7f4552433732313a206d696e7420746f20746865207a65726f2061646472657373600082015250565b6000615ac96020836139a6565b9150615ad482615a93565b602082019050919050565b60006020820190508181036000830152615af881615abc565b9050919050565b7f4552433732313a20746f6b656e20616c7265616479206d696e74656400000000600082015250565b6000615b35601c836139a6565b9150615b4082615aff565b602082019050919050565b60006020820190508181036000830152615b6481615b28565b905091905056fea26469706673582212201cdb84d8833a788ffdbe878578fe67d01711c2ea68121aef133163d20aea6e4064736f6c63430008090033",
  "linkReferences": {},
  "deployedLinkReferences": {}
}