{
  "_format": "hh-sol-artifact-1",
  "contractName": "MintNFT",
  "sourceName": "contracts/MintNFT.sol",
  "abi": [
    {
      "anonymous": false,
      "inputs": [
        {
          "indexed": true,
          "internalType": "address",
          "name": "owner",
          "type": "address"
        },
        {
          "indexed": true,
          "internalType": "address",
          "name": "approved",
          "type": "address"
        },
        {
          "indexed": true,
          "internalType": "uint256",
          "name": "tokenId",
          "type": "uint256"
        }
      ],
      "name": "Approval",
      "type": "event"
    },
    {
      "anonymous": false,
      "inputs": [
        {
          "indexed": true,
          "internalType": "address",
          "name": "owner",
          "type": "address"
        },
        {
          "indexed": true,
          "internalType": "address",
          "name": "operator",
          "type": "address"
        },
        {
          "indexed": false,
          "internalType": "bool",
          "name": "approved",
          "type": "bool"
        }
      ],
      "name": "ApprovalForAll",
      "type": "event"
    },
    {
      "anonymous": false,
      "inputs": [
        {
          "indexed": false,
          "internalType": "uint8",
          "name": "version",
          "type": "uint8"
        }
      ],
      "name": "Initialized",
      "type": "event"
    },
    {
      "anonymous": false,
      "inputs": [
        {
          "indexed": true,
          "internalType": "uint256",
          "name": "eventId",
          "type": "uint256"
        },
        {
          "indexed": false,
          "internalType": "bool",
          "name": "isLocked",
          "type": "bool"
        }
      ],
      "name": "MintLocked",
      "type": "event"
    },
    {
      "anonymous": false,
      "inputs": [
        {
          "indexed": true,
          "internalType": "address",
          "name": "holder",
          "type": "address"
        },
        {
          "indexed": false,
          "internalType": "string",
          "name": "url",
          "type": "string"
        }
      ],
      "name": "MintedNFTAttributeURL",
      "type": "event"
    },
    {
      "anonymous": false,
      "inputs": [
        {
          "indexed": true,
          "internalType": "address",
          "name": "previousOwner",
          "type": "address"
        },
        {
          "indexed": true,
          "internalType": "address",
          "name": "newOwner",
          "type": "address"
        }
      ],
      "name": "OwnershipTransferred",
      "type": "event"
    },
    {
      "anonymous": false,
      "inputs": [
        {
          "indexed": true,
          "internalType": "address",
          "name": "executor",
          "type": "address"
        },
        {
          "indexed": true,
          "internalType": "uint256",
          "name": "eventId",
          "type": "uint256"
        }
      ],
      "name": "ResetSecretPhrase",
      "type": "event"
    },
    {
      "anonymous": false,
      "inputs": [
        {
          "indexed": true,
          "internalType": "address",
          "name": "from",
          "type": "address"
        },
        {
          "indexed": true,
          "internalType": "address",
          "name": "to",
          "type": "address"
        },
        {
          "indexed": true,
          "internalType": "uint256",
          "name": "tokenId",
          "type": "uint256"
        }
      ],
      "name": "Transfer",
      "type": "event"
    },
    {
      "inputs": [
        {
          "internalType": "address",
          "name": "to",
          "type": "address"
        },
        {
          "internalType": "uint256",
          "name": "tokenId",
          "type": "uint256"
        }
      ],
      "name": "approve",
      "outputs": [],
      "stateMutability": "nonpayable",
      "type": "function"
    },
    {
      "inputs": [
        {
          "internalType": "address",
          "name": "owner",
          "type": "address"
        }
      ],
      "name": "balanceOf",
      "outputs": [
        {
          "internalType": "uint256",
          "name": "",
          "type": "uint256"
        }
      ],
      "stateMutability": "view",
      "type": "function"
    },
    {
      "inputs": [
        {
          "internalType": "uint256",
          "name": "tokenId",
          "type": "uint256"
        }
      ],
      "name": "burn",
      "outputs": [],
      "stateMutability": "nonpayable",
      "type": "function"
    },
    {
      "inputs": [
        {
          "internalType": "uint256",
          "name": "_eventId",
          "type": "uint256"
        },
        {
          "internalType": "uint256[24]",
          "name": "_proof",
          "type": "uint256[24]"
        }
      ],
      "name": "canMint",
      "outputs": [
        {
          "internalType": "bool",
          "name": "",
          "type": "bool"
        }
      ],
      "stateMutability": "view",
      "type": "function"
    },
    {
      "inputs": [
        {
          "internalType": "uint256",
          "name": "_eventId",
          "type": "uint256"
        },
        {
          "internalType": "bool",
          "name": "_locked",
          "type": "bool"
        }
      ],
      "name": "changeMintLocked",
      "outputs": [],
      "stateMutability": "nonpayable",
      "type": "function"
    },
    {
      "inputs": [
        {
          "internalType": "uint256",
          "name": "tokenId",
          "type": "uint256"
        }
      ],
      "name": "getApproved",
      "outputs": [
        {
          "internalType": "address",
          "name": "",
          "type": "address"
        }
      ],
      "stateMutability": "view",
      "type": "function"
    },
    {
      "inputs": [
        {
          "internalType": "uint256",
          "name": "_eventId",
          "type": "uint256"
        }
      ],
      "name": "getIsMintLocked",
      "outputs": [
        {
          "internalType": "bool",
          "name": "",
          "type": "bool"
        }
      ],
      "stateMutability": "view",
      "type": "function"
    },
    {
      "inputs": [
        {
          "internalType": "uint256",
          "name": "_eventId",
          "type": "uint256"
        }
      ],
      "name": "getNFTHoldersByEvent",
      "outputs": [
        {
          "components": [
            {
              "internalType": "address",
              "name": "holderAddress",
              "type": "address"
            },
            {
              "internalType": "uint256",
              "name": "tokenId",
              "type": "uint256"
            }
          ],
          "internalType": "struct MintNFT.NFTHolder[]",
          "name": "",
          "type": "tuple[]"
        }
      ],
      "stateMutability": "view",
      "type": "function"
    },
    {
      "inputs": [
        {
          "internalType": "uint256",
          "name": "_groupId",
          "type": "uint256"
        }
      ],
      "name": "getNFTHoldersByEventGroup",
      "outputs": [
        {
          "components": [
            {
              "internalType": "address",
              "name": "holderAddress",
              "type": "address"
            },
            {
              "internalType": "uint256",
              "name": "eventId",
              "type": "uint256"
            },
            {
              "internalType": "uint256",
              "name": "tokenId",
              "type": "uint256"
            }
          ],
          "internalType": "struct MintNFT.NFTHolderWithEventId[]",
          "name": "",
          "type": "tuple[]"
        }
      ],
      "stateMutability": "view",
      "type": "function"
    },
    {
      "inputs": [
        {
          "internalType": "uint256",
          "name": "_eventId",
          "type": "uint256"
        }
      ],
      "name": "getRemainingNFTCount",
      "outputs": [
        {
          "internalType": "uint256",
          "name": "",
          "type": "uint256"
        }
      ],
      "stateMutability": "view",
      "type": "function"
    },
    {
      "inputs": [
        {
          "internalType": "contract MinimalForwarderUpgradeable",
          "name": "trustedForwarder",
          "type": "address"
        },
        {
          "internalType": "address",
          "name": "_secretPhraseVerifierAddr",
          "type": "address"
        },
        {
          "internalType": "address",
          "name": "_operationControllerAddr",
          "type": "address"
        }
      ],
      "name": "initialize",
      "outputs": [],
      "stateMutability": "nonpayable",
      "type": "function"
    },
    {
      "inputs": [
        {
          "internalType": "address",
          "name": "owner",
          "type": "address"
        },
        {
          "internalType": "address",
          "name": "operator",
          "type": "address"
        }
      ],
      "name": "isApprovedForAll",
      "outputs": [
        {
          "internalType": "bool",
          "name": "",
          "type": "bool"
        }
      ],
      "stateMutability": "view",
      "type": "function"
    },
    {
      "inputs": [
        {
          "internalType": "address",
          "name": "_addr",
          "type": "address"
        },
        {
          "internalType": "uint256",
          "name": "_eventId",
          "type": "uint256"
        }
      ],
      "name": "isHoldingEventNFTByAddress",
      "outputs": [
        {
          "internalType": "bool",
          "name": "",
          "type": "bool"
        }
      ],
      "stateMutability": "view",
      "type": "function"
    },
    {
      "inputs": [
        {
          "internalType": "address",
          "name": "forwarder",
          "type": "address"
        }
      ],
      "name": "isTrustedForwarder",
      "outputs": [
        {
          "internalType": "bool",
          "name": "",
          "type": "bool"
        }
      ],
      "stateMutability": "view",
      "type": "function"
    },
    {
      "inputs": [
        {
          "internalType": "uint256",
          "name": "_groupId",
          "type": "uint256"
        },
        {
          "internalType": "uint256",
          "name": "_eventId",
          "type": "uint256"
        },
        {
          "internalType": "uint256[24]",
          "name": "_proof",
          "type": "uint256[24]"
        }
      ],
      "name": "mintParticipateNFT",
      "outputs": [],
      "stateMutability": "nonpayable",
      "type": "function"
    },
    {
      "inputs": [],
      "name": "name",
      "outputs": [
        {
          "internalType": "string",
          "name": "",
          "type": "string"
        }
      ],
      "stateMutability": "view",
      "type": "function"
    },
    {
      "inputs": [],
      "name": "owner",
      "outputs": [
        {
          "internalType": "address",
          "name": "",
          "type": "address"
        }
      ],
      "stateMutability": "view",
      "type": "function"
    },
    {
      "inputs": [
        {
          "internalType": "uint256",
          "name": "tokenId",
          "type": "uint256"
        }
      ],
      "name": "ownerOf",
      "outputs": [
        {
          "internalType": "address",
          "name": "",
          "type": "address"
        }
      ],
      "stateMutability": "view",
      "type": "function"
    },
    {
      "inputs": [
        {
          "internalType": "uint256[]",
          "name": "_tokenIdArray",
          "type": "uint256[]"
        }
      ],
      "name": "ownerOfTokens",
      "outputs": [
        {
          "components": [
            {
              "internalType": "address",
              "name": "holderAddress",
              "type": "address"
            },
            {
              "internalType": "uint256",
              "name": "tokenId",
              "type": "uint256"
            }
          ],
          "internalType": "struct MintNFT.NFTHolder[]",
          "name": "",
          "type": "tuple[]"
        }
      ],
      "stateMutability": "view",
      "type": "function"
    },
    {
      "inputs": [],
      "name": "renounceOwnership",
      "outputs": [],
      "stateMutability": "nonpayable",
      "type": "function"
    },
    {
      "inputs": [
        {
          "internalType": "uint256",
          "name": "_eventId",
          "type": "uint256"
        },
        {
          "internalType": "bytes32",
          "name": "_secretPhrase",
          "type": "bytes32"
        }
      ],
      "name": "resetSecretPhrase",
      "outputs": [],
      "stateMutability": "nonpayable",
      "type": "function"
    },
    {
      "inputs": [
        {
          "internalType": "address",
          "name": "from",
          "type": "address"
        },
        {
          "internalType": "address",
          "name": "to",
          "type": "address"
        },
        {
          "internalType": "uint256",
          "name": "tokenId",
          "type": "uint256"
        }
      ],
      "name": "safeTransferFrom",
      "outputs": [],
      "stateMutability": "nonpayable",
      "type": "function"
    },
    {
      "inputs": [
        {
          "internalType": "address",
          "name": "from",
          "type": "address"
        },
        {
          "internalType": "address",
          "name": "to",
          "type": "address"
        },
        {
          "internalType": "uint256",
          "name": "tokenId",
          "type": "uint256"
        },
        {
          "internalType": "bytes",
          "name": "data",
          "type": "bytes"
        }
      ],
      "name": "safeTransferFrom",
      "outputs": [],
      "stateMutability": "nonpayable",
      "type": "function"
    },
    {
      "inputs": [
        {
          "internalType": "address",
          "name": "operator",
          "type": "address"
        },
        {
          "internalType": "bool",
          "name": "approved",
          "type": "bool"
        }
      ],
      "name": "setApprovalForAll",
      "outputs": [],
      "stateMutability": "nonpayable",
      "type": "function"
    },
    {
      "inputs": [
        {
          "internalType": "uint256",
          "name": "_eventId",
          "type": "uint256"
        },
        {
          "internalType": "uint256",
          "name": "_mintLimit",
          "type": "uint256"
        },
        {
          "internalType": "bytes32",
          "name": "_secretPhrase",
          "type": "bytes32"
        },
        {
          "components": [
            {
              "internalType": "string",
              "name": "metaDataURL",
              "type": "string"
            },
            {
              "internalType": "uint256",
              "name": "requiredParticipateCount",
              "type": "uint256"
            }
          ],
          "internalType": "struct MintNFT.NFTAttribute[]",
          "name": "attributes",
          "type": "tuple[]"
        }
      ],
      "name": "setEventInfo",
      "outputs": [],
      "stateMutability": "nonpayable",
      "type": "function"
    },
    {
      "inputs": [
        {
          "internalType": "address",
          "name": "_addr",
          "type": "address"
        }
      ],
      "name": "setEventManagerAddr",
      "outputs": [],
      "stateMutability": "nonpayable",
      "type": "function"
    },
    {
      "inputs": [
        {
          "internalType": "bytes4",
          "name": "interfaceId",
          "type": "bytes4"
        }
      ],
      "name": "supportsInterface",
      "outputs": [
        {
          "internalType": "bool",
          "name": "",
          "type": "bool"
        }
      ],
      "stateMutability": "view",
      "type": "function"
    },
    {
      "inputs": [],
      "name": "symbol",
      "outputs": [
        {
          "internalType": "string",
          "name": "",
          "type": "string"
        }
      ],
      "stateMutability": "view",
      "type": "function"
    },
    {
      "inputs": [
        {
          "internalType": "uint256",
          "name": "index",
          "type": "uint256"
        }
      ],
      "name": "tokenByIndex",
      "outputs": [
        {
          "internalType": "uint256",
          "name": "",
          "type": "uint256"
        }
      ],
      "stateMutability": "view",
      "type": "function"
    },
    {
      "inputs": [
        {
          "internalType": "address",
          "name": "owner",
          "type": "address"
        },
        {
          "internalType": "uint256",
          "name": "index",
          "type": "uint256"
        }
      ],
      "name": "tokenOfOwnerByIndex",
      "outputs": [
        {
          "internalType": "uint256",
          "name": "",
          "type": "uint256"
        }
      ],
      "stateMutability": "view",
      "type": "function"
    },
    {
      "inputs": [
        {
          "internalType": "uint256",
          "name": "_tokenId",
          "type": "uint256"
        }
      ],
      "name": "tokenURI",
      "outputs": [
        {
          "internalType": "string",
          "name": "",
          "type": "string"
        }
      ],
      "stateMutability": "view",
      "type": "function"
    },
    {
      "inputs": [],
      "name": "totalSupply",
      "outputs": [
        {
          "internalType": "uint256",
          "name": "",
          "type": "uint256"
        }
      ],
      "stateMutability": "view",
      "type": "function"
    },
    {
      "inputs": [
        {
          "internalType": "address",
          "name": "from",
          "type": "address"
        },
        {
          "internalType": "address",
          "name": "to",
          "type": "address"
        },
        {
          "internalType": "uint256",
          "name": "tokenId",
          "type": "uint256"
        }
      ],
      "name": "transferFrom",
      "outputs": [],
      "stateMutability": "nonpayable",
      "type": "function"
    },
    {
      "inputs": [
        {
          "internalType": "address",
          "name": "newOwner",
          "type": "address"
        }
      ],
      "name": "transferOwnership",
      "outputs": [],
      "stateMutability": "nonpayable",
      "type": "function"
    }
  ],
  "bytecode": "0x608060405234801561001057600080fd5b5061363e806100206000396000f3fe608060405234801561001057600080fd5b50600436106102065760003560e01c80638da5cb5b1161011a578063c0c53b8b116100ad578063df4b39dd1161007c578063df4b39dd14610481578063e985e9c5146104a5578063ef3ad9eb146104e1578063f2fde38b146104f4578063fa86623b1461050757600080fd5b8063c0c53b8b14610435578063c4b88ea414610448578063c87b56dd1461045b578063d622abc21461046e57600080fd5b80639dcd6811116100e95780639dcd6811146103dc578063a22cb465146103ef578063af5723b114610402578063b88d4fde1461042257600080fd5b80638da5cb5b146103905780638f70738e146103a15780639041e3f4146103c157806395d89b41146103d457600080fd5b806342842e0e1161019d5780634ffc9f4b1161016c5780634ffc9f4b1461031f578063572b6c05146103405780636352211e1461036257806370a0823114610375578063715018a61461038857600080fd5b806342842e0e146102d357806342966c68146102e65780634df30149146102f95780634f6ccce71461030c57600080fd5b80630daa8be7116101d95780630daa8be71461028857806318160ddd1461029b57806323b872dd146102ad5780632f745c59146102c057600080fd5b806301ffc9a71461020b57806306fdde0314610233578063081812fc14610248578063095ea7b314610273575b600080fd5b61021e610219366004612a7c565b61051a565b60405190151581526020015b60405180910390f35b61023b610545565b60405161022a9190612af8565b61025b610256366004612b0b565b6105d7565b6040516001600160a01b03909116815260200161022a565b610286610281366004612b39565b6105fe565b005b610286610296366004612b73565b61072b565b6099545b60405190815260200161022a565b6102866102bb366004612ba3565b6108ef565b61029f6102ce366004612b39565b610927565b6102866102e1366004612ba3565b6109bd565b6102866102f4366004612b0b565b6109d8565b61021e610307366004612ce1565b6109ec565b61029f61031a366004612b0b565b610b41565b61029f61032d366004612b0b565b6000908152610134602052604090205490565b61021e61034e366004612d0f565b60c9546001600160a01b0391821691161490565b61025b610370366004612b0b565b610bd4565b61029f610383366004612d0f565b610c34565b610286610cba565b60fc546001600160a01b031661025b565b6103b46103af366004612b0b565b610cce565b60405161022a9190612d2c565b6102866103cf366004612d0f565b610ff9565b61023b61107a565b6102866103ea366004612d8e565b611089565b6102866103fd366004612db0565b611249565b610415610410366004612e01565b61125f565b60405161022a9190612e96565b610286610430366004612f41565b61135f565b610286610443366004612fc0565b61139e565b610415610456366004612b0b565b611503565b61023b610469366004612b0b565b611570565b61021e61047c366004612b39565b611615565b61021e61048f366004612b0b565b6000908152610136602052604090205460ff1690565b61021e6104b336600461300b565b6001600160a01b039182166000908152606a6020908152604080832093909416825291909152205460ff1690565b6102866104ef366004613039565b611641565b610286610502366004612d0f565b6117d4565b61028661051536600461315f565b61184a565b60006001600160e01b0319821663780e9d6360e01b148061053f575061053f82611c58565b92915050565b60606065805461055490613196565b80601f016020809104026020016040519081016040528092919081815260200182805461058090613196565b80156105cd5780601f106105a2576101008083540402835291602001916105cd565b820191906000526020600020905b8154815290600101906020018083116105b057829003601f168201915b5050505050905090565b60006105e282611ca8565b506000908152606960205260409020546001600160a01b031690565b600061060982610bd4565b9050806001600160a01b0316836001600160a01b0316141561067c5760405162461bcd60e51b815260206004820152602160248201527f4552433732313a20617070726f76616c20746f2063757272656e74206f776e656044820152603960f91b60648201526084015b60405180910390fd5b806001600160a01b031661068e611d07565b6001600160a01b031614806106aa57506106aa816104b3611d07565b61071c5760405162461bcd60e51b815260206004820152603e60248201527f4552433732313a20617070726f76652063616c6c6572206973206e6f7420746f60448201527f6b656e206f776e6572206e6f7220617070726f76656420666f7220616c6c00006064820152608401610673565b6107268383611d37565b505050565b61012f5482906001600160a01b03168063972f1327610748611d07565b6040516001600160e01b031960e084901b1681526001600160a01b0390911660048201526024810185905260440160206040518083038186803b15801561078e57600080fd5b505afa1580156107a2573d6000803e3d6000fd5b505050506040513d601f19601f820116820180604052508101906107c691906131e1565b61080b5760405162461bcd60e51b81526020600482015260166024820152753cb7ba903430bb32903737903832b936b4b9b9b4b7b760511b6044820152606401610673565b6101395460408051635c975abb60e01b815290516001600160a01b03909216918291635c975abb916004808301926020929190829003018186803b15801561085257600080fd5b505afa158015610866573d6000803e3d6000fd5b505050506040513d601f19601f8201168201806040525081019061088a91906131e1565b1561089457600080fd5b60008581526101366020908152604091829020805460ff1916871515908117909155915191825286917f1e3ed2b292ed72652054799a4fde74789a8670c153df666f76e01345ec318281910160405180910390a25050505050565b6109006108fa611d07565b82611da5565b61091c5760405162461bcd60e51b8152600401610673906131fe565b610726838383611e24565b600061093283610c34565b82106109945760405162461bcd60e51b815260206004820152602b60248201527f455243373231456e756d657261626c653a206f776e657220696e646578206f7560448201526a74206f6620626f756e647360a81b6064820152608401610673565b506001600160a01b03919091166000908152609760209081526040808320938352929052205490565b6107268383836040518060200160405280600081525061135f565b6109e0611fcb565b6109e981612044565b50565b60006109f882846120eb565b610a3c5760405162461bcd60e51b8152602060048201526015602482015274696e76616c6964207365637265742070687261736560581b6044820152606401610673565b60008381526101346020526040902054610a985760405162461bcd60e51b815260206004820152601760248201527f72656d61696e696e6720636f756e74206973207a65726f0000000000000000006044820152606401610673565b610aa9610aa3611d07565b84611615565b15610ae75760405162461bcd60e51b815260206004820152600e60248201526d185b1c9958591e481b5a5b9d195960921b6044820152606401610673565b6000838152610136602052604090205460ff1615610b385760405162461bcd60e51b815260206004820152600e60248201526d1b5a5b9d081a5cc81b1bd8dad95960921b6044820152606401610673565b50600192915050565b6000610b4c60995490565b8210610baf5760405162461bcd60e51b815260206004820152602c60248201527f455243373231456e756d657261626c653a20676c6f62616c20696e646578206f60448201526b7574206f6620626f756e647360a01b6064820152608401610673565b60998281548110610bc257610bc261324c565b90600052602060002001549050919050565b6000818152606760205260408120546001600160a01b03168061053f5760405162461bcd60e51b8152602060048201526018602482015277115490cdcc8c4e881a5b9d985b1a59081d1bdad95b88125160421b6044820152606401610673565b60006001600160a01b038216610c9e5760405162461bcd60e51b815260206004820152602960248201527f4552433732313a2061646472657373207a65726f206973206e6f7420612076616044820152683634b21037bbb732b960b91b6064820152608401610673565b506001600160a01b031660009081526068602052604090205490565b610cc2611fcb565b610ccc6000612199565b565b61012f5460405163f562082360e01b8152600481018390526060916001600160a01b031690600090829063f56208239060240160006040518083038186803b158015610d1957600080fd5b505afa158015610d2d573d6000803e3d6000fd5b505050506040513d6000823e601f3d908101601f19168201604052610d5591908101906132a7565b9050600081516001600160401b03811115610d7257610d72612be4565b604051908082528060200260200182016040528015610da557816020015b6060815260200190600190039081610d905790505b5090506000805b8351811015610e3257610ddb848281518110610dca57610dca61324c565b602002602001015160000151611503565b838281518110610ded57610ded61324c565b6020026020010181905250828181518110610e0a57610e0a61324c565b60200260200101515182610e1e9190613416565b915080610e2a8161342e565b915050610dac565b506000816001600160401b03811115610e4d57610e4d612be4565b604051908082528060200260200182016040528015610eab57816020015b610e98604051806060016040528060006001600160a01b0316815260200160008152602001600081525090565b815260200190600190039081610e6b5790505b50905060005b82811015610fee5760005b8551811015610fe85760005b858281518110610eda57610eda61324c565b602002602001015151811015610fd5576040518060600160405280878481518110610f0757610f0761324c565b60200260200101518381518110610f2057610f2061324c565b6020026020010151600001516001600160a01b03168152602001888481518110610f4c57610f4c61324c565b6020026020010151600001518152602001878481518110610f6f57610f6f61324c565b60200260200101518381518110610f8857610f8861324c565b602002602001015160200151815250848481518110610fa957610fa961324c565b60200260200101819052508280610fbf9061342e565b9350508080610fcd9061342e565b915050610ec8565b5080610fe08161342e565b915050610ebc565b50610eb1565b509695505050505050565b611001611fcb565b6001600160a01b0381166110575760405162461bcd60e51b815260206004820152601e60248201527f6576656e74206d616e61676572206164647265737320697320626c616e6b00006044820152606401610673565b61012f80546001600160a01b0319166001600160a01b0392909216919091179055565b60606066805461055490613196565b61012f5482906001600160a01b03168063972f13276110a6611d07565b6040516001600160e01b031960e084901b1681526001600160a01b0390911660048201526024810185905260440160206040518083038186803b1580156110ec57600080fd5b505afa158015611100573d6000803e3d6000fd5b505050506040513d601f19601f8201168201806040525081019061112491906131e1565b6111695760405162461bcd60e51b81526020600482015260166024820152753cb7ba903430bb32903737903832b936b4b9b9b4b7b760511b6044820152606401610673565b6101395460408051635c975abb60e01b815290516001600160a01b03909216918291635c975abb916004808301926020929190829003018186803b1580156111b057600080fd5b505afa1580156111c4573d6000803e3d6000fd5b505050506040513d601f19601f820116820180604052508101906111e891906131e1565b156111f257600080fd5b6000858152610135602052604090208490558461120d611d07565b6001600160a01b03167fae5b067be3e4869ca571a499572a09085a17c3d0442a8965b8356bf47f63ba9960405160405180910390a35050505050565b61125b611254611d07565b83836121eb565b5050565b6060600082516001600160401b0381111561127c5761127c612be4565b6040519080825280602002602001820160405280156112c157816020015b604080518082019091526000808252602082015281526020019060019003908161129a5790505b50905060005b83518110156113585760405180604001604052806112fd8684815181106112f0576112f061324c565b6020026020010151610bd4565b6001600160a01b0316815260200185838151811061131d5761131d61324c565b602002602001015181525082828151811061133a5761133a61324c565b602002602001018190525080806113509061342e565b9150506112c7565b5092915050565b61137061136a611d07565b83611da5565b61138c5760405162461bcd60e51b8152600401610673906131fe565b611398848484846122ba565b50505050565b600054600490610100900460ff161580156113c0575060005460ff8083169116105b6114235760405162461bcd60e51b815260206004820152602e60248201527f496e697469616c697a61626c653a20636f6e747261637420697320616c72656160448201526d191e481a5b9a5d1a585b1a5e995960921b6064820152608401610673565b6000805461ffff191660ff83161761010017905560408051808201825260098152684d696e7452616c6c7960b81b6020808301919091528251808401909352600283526126a960f11b90830152611479916122ed565b61148161231e565b61148a8461234d565b61013780546001600160a01b038581166001600160a01b0319928316179092556101398054928516929091169190911790556000805461ff001916905560405160ff821681527f7f26b83ff96e1f2b6a682f133852f6798a09c465da95921460cefb38474024989060200160405180910390a150505050565b606061053f610138600084815260200190815260200160002080548060200260200160405190810160405280929190818152602001828054801561156657602002820191906000526020600020905b815481526020019060010190808311611552575b505050505061125f565b6000818152610130602052604081208054606092919061158f90613196565b80601f01602080910402602001604051908101604052809291908181526020018280546115bb90613196565b80156116085780601f106115dd57610100808354040283529160200191611608565b820191906000526020600020905b8154815290600101906020018083116115eb57829003601f168201915b5093979650505050505050565b60006101316000611626858561239e565b815260208101919091526040016000205460ff169392505050565b6101395460408051635c975abb60e01b815290516001600160a01b03909216918291635c975abb916004808301926020929190829003018186803b15801561168857600080fd5b505afa15801561169c573d6000803e3d6000fd5b505050506040513d601f19601f820116820180604052508101906116c091906131e1565b156116ca57600080fd5b61012f546001600160a01b03166116df611d07565b6001600160a01b0316146117245760405162461bcd60e51b815260206004820152600c60248201526b1d5b985d5d1a1bdc9a5e995960a21b6044820152606401610673565b60008581526101346020908152604080832087905561013590915281208490555b82518110156117cc578281815181106117605761176061324c565b6020026020010151600001516101336000611798898786815181106117875761178761324c565b6020026020010151602001516123e6565b815260200190815260200160002090805190602001906117b99291906129cd565b50806117c48161342e565b915050611745565b505050505050565b6117dc611fcb565b6001600160a01b0381166118415760405162461bcd60e51b815260206004820152602660248201527f4f776e61626c653a206e6577206f776e657220697320746865207a65726f206160448201526564647265737360d01b6064820152608401610673565b6109e981612199565b6101395460408051635c975abb60e01b815290516001600160a01b03909216918291635c975abb916004808301926020929190829003018186803b15801561189157600080fd5b505afa1580156118a5573d6000803e3d6000fd5b505050506040513d601f19601f820116820180604052508101906118c991906131e1565b156118d357600080fd5b6118dd83836109ec565b50600083815261013460205260409020546118fa90600190613449565b60008481526101346020526040908190209190915561013754905163635e393960e11b81526001600160a01b0390911690819063c6bc7272906119439086908890600401613483565b600060405180830381600087803b15801561195d57600080fd5b505af1158015611971573d6000803e3d6000fd5b505050506001610131600061198d611987611d07565b8861239e565b815260200190815260200160002060006101000a81548160ff02191690831515021790555060006119c56119bf611d07565b8761239e565b600081815261013260205260409020549091506119e3816001613416565b6000838152610132602052604081209190915561013381611a0489826123e6565b81526020019081526020016000208054611a1d90613196565b80601f0160208091040260200160405190810160405280929190818152602001828054611a4990613196565b8015611a965780601f10611a6b57610100808354040283529160200191611a96565b820191906000526020600020905b815481529060010190602001808311611a7957829003601f168201915b5050505050905060006101336000611aae8a866123e6565b81526020019081526020016000208054611ac790613196565b80601f0160208091040260200160405190810160405280929190818152602001828054611af390613196565b8015611b405780601f10611b1557610100808354040283529160200191611b40565b820191906000526020600020905b815481529060010190602001808311611b2357829003601f168201915b505060408051600081526020810180835281519020959650611b6894508693500190506134a0565b6040516020818303038152906040528051906020012014611b87578091505b816101306000611b9761012e5490565b81526020019081526020016000209080519060200190611bb89291906129cd565b5060008881526101386020526040902061012e5481546001810183556000928352602090922090910155611bf6611bed611d07565b61012e54612402565b611c0561012e80546001019055565b611c0d611d07565b6001600160a01b03167faf2fad1984d2c7abaa9300537cf9fe1bcfaf2d6226e4ffdf03522dbf3064808e83604051611c459190612af8565b60405180910390a2505050505050505050565b60006001600160e01b031982166380ac58cd60e01b1480611c8957506001600160e01b03198216635b5e139f60e01b145b8061053f57506301ffc9a760e01b6001600160e01b031983161461053f565b6000818152606760205260409020546001600160a01b03166109e95760405162461bcd60e51b8152602060048201526018602482015277115490cdcc8c4e881a5b9d985b1a59081d1bdad95b88125160421b6044820152606401610673565b60c9546000906001600160a01b0316331415611d2a575060131936013560601c90565b611d3261241c565b905090565b600081815260696020526040902080546001600160a01b0319166001600160a01b0384169081179091558190611d6c82610bd4565b6001600160a01b03167f8c5be1e5ebec7d5bd14f71427d1e84f3dd0314c0f7b2291e5b200ac8c7c3b92560405160405180910390a45050565b600080611db183610bd4565b9050806001600160a01b0316846001600160a01b03161480611df857506001600160a01b038082166000908152606a602090815260408083209388168352929052205460ff165b80611e1c5750836001600160a01b0316611e11846105d7565b6001600160a01b0316145b949350505050565b826001600160a01b0316611e3782610bd4565b6001600160a01b031614611e9b5760405162461bcd60e51b815260206004820152602560248201527f4552433732313a207472616e736665722066726f6d20696e636f72726563742060448201526437bbb732b960d91b6064820152608401610673565b6001600160a01b038216611efd5760405162461bcd60e51b8152602060048201526024808201527f4552433732313a207472616e7366657220746f20746865207a65726f206164646044820152637265737360e01b6064820152608401610673565b611f08838383612444565b611f13600082611d37565b6001600160a01b0383166000908152606860205260408120805460019290611f3c908490613449565b90915550506001600160a01b0382166000908152606860205260408120805460019290611f6a908490613416565b909155505060008181526067602052604080822080546001600160a01b0319166001600160a01b0386811691821790925591518493918716917fddf252ad1be2c89b69c2b068fc378daa952ba7f163c4a11628f55a4df523b3ef91a4505050565b611fd3611d07565b6001600160a01b0316611fee60fc546001600160a01b031690565b6001600160a01b031614610ccc5760405162461bcd60e51b815260206004820181905260248201527f4f776e61626c653a2063616c6c6572206973206e6f7420746865206f776e65726044820152606401610673565b600061204f82610bd4565b905061205d81600084612444565b612068600083611d37565b6001600160a01b0381166000908152606860205260408120805460019290612091908490613449565b909155505060008281526067602052604080822080546001600160a01b0319169055518391906001600160a01b038416907fddf252ad1be2c89b69c2b068fc378daa952ba7f163c4a11628f55a4df523b3ef908390a45050565b6101375460408051602080820183526000858152610135909152828120548252915163532dd84d60e11b815291926001600160a01b0316918390839063a65bb09a9061213f90899086908a906004016134bc565b60206040518083038186803b15801561215757600080fd5b505afa15801561216b573d6000803e3d6000fd5b505050506040513d601f19601f8201168201806040525081019061218f91906131e1565b9695505050505050565b60fc80546001600160a01b038381166001600160a01b0319831681179093556040519116919082907f8be0079c531659141344cd1fd0a4f28419497f9722a3daafe3b4186f6b6457e090600090a35050565b816001600160a01b0316836001600160a01b0316141561224d5760405162461bcd60e51b815260206004820152601960248201527f4552433732313a20617070726f766520746f2063616c6c6572000000000000006044820152606401610673565b6001600160a01b038381166000818152606a6020908152604080832094871680845294825291829020805460ff191686151590811790915591519182527f17307eab39ab6107e8899845ad3d59bd9653f200f220920489ca2b5937696c31910160405180910390a3505050565b6122c5848484611e24565b6122d1848484846124fc565b6113985760405162461bcd60e51b815260040161067390613505565b600054610100900460ff166123145760405162461bcd60e51b815260040161067390613557565b61125b8282612610565b600054610100900460ff166123455760405162461bcd60e51b815260040161067390613557565b610ccc61265e565b600054610100900460ff166123745760405162461bcd60e51b815260040161067390613557565b61237c612695565b60c980546001600160a01b0319166001600160a01b0392909216919091179055565b6040516bffffffffffffffffffffffff19606084901b166020820152603481018290526000906054015b60405160208183030381529060405280519060200120905092915050565b60408051602081018490529081018290526000906060016123c8565b61125b8282604051806020016040528060008152506126bc565b60c9546000906001600160a01b031633141561243f575060131936013560601c90565b503390565b6001600160a01b03831661249f5761249a81609980546000838152609a60205260408120829055600182018355919091527f72a152ddfb8e864297c917af52ea6c1c68aead0fee1a62673fcc7e0c94979d000155565b6124c2565b816001600160a01b0316836001600160a01b0316146124c2576124c283826126ef565b6001600160a01b0382166124d9576107268161278c565b826001600160a01b0316826001600160a01b03161461072657610726828261283b565b60006001600160a01b0384163b1561260557836001600160a01b031663150b7a02612525611d07565b8786866040518563ffffffff1660e01b815260040161254794939291906135a2565b602060405180830381600087803b15801561256157600080fd5b505af1925050508015612591575060408051601f3d908101601f1916820190925261258e918101906135d5565b60015b6125eb573d8080156125bf576040519150601f19603f3d011682016040523d82523d6000602084013e6125c4565b606091505b5080516125e35760405162461bcd60e51b815260040161067390613505565b805181602001fd5b6001600160e01b031916630a85bd0160e11b149050611e1c565b506001949350505050565b600054610100900460ff166126375760405162461bcd60e51b815260040161067390613557565b815161264a9060659060208501906129cd565b5080516107269060669060208401906129cd565b600054610100900460ff166126855760405162461bcd60e51b815260040161067390613557565b610ccc612690611d07565b612199565b600054610100900460ff16610ccc5760405162461bcd60e51b815260040161067390613557565b6126c6838361287f565b6126d360008484846124fc565b6107265760405162461bcd60e51b815260040161067390613505565b600060016126fc84610c34565b6127069190613449565b600083815260986020526040902054909150808214612759576001600160a01b03841660009081526097602090815260408083208584528252808320548484528184208190558352609890915290208190555b5060009182526098602090815260408084208490556001600160a01b039094168352609781528383209183525290812055565b60995460009061279e90600190613449565b6000838152609a6020526040812054609980549394509092849081106127c6576127c661324c565b9060005260206000200154905080609983815481106127e7576127e761324c565b6000918252602080832090910192909255828152609a9091526040808220849055858252812055609980548061281f5761281f6135f2565b6001900381819060005260206000200160009055905550505050565b600061284683610c34565b6001600160a01b039093166000908152609760209081526040808320868452825280832085905593825260989052919091209190915550565b6001600160a01b0382166128d55760405162461bcd60e51b815260206004820181905260248201527f4552433732313a206d696e7420746f20746865207a65726f20616464726573736044820152606401610673565b6000818152606760205260409020546001600160a01b03161561293a5760405162461bcd60e51b815260206004820152601c60248201527f4552433732313a20746f6b656e20616c7265616479206d696e746564000000006044820152606401610673565b61294660008383612444565b6001600160a01b038216600090815260686020526040812080546001929061296f908490613416565b909155505060008181526067602052604080822080546001600160a01b0319166001600160a01b03861690811790915590518392907fddf252ad1be2c89b69c2b068fc378daa952ba7f163c4a11628f55a4df523b3ef908290a45050565b8280546129d990613196565b90600052602060002090601f0160209004810192826129fb5760008555612a41565b82601f10612a1457805160ff1916838001178555612a41565b82800160010185558215612a41579182015b82811115612a41578251825591602001919060010190612a26565b50612a4d929150612a51565b5090565b5b80821115612a4d5760008155600101612a52565b6001600160e01b0319811681146109e957600080fd5b600060208284031215612a8e57600080fd5b8135612a9981612a66565b9392505050565b60005b83811015612abb578181015183820152602001612aa3565b838111156113985750506000910152565b60008151808452612ae4816020860160208601612aa0565b601f01601f19169290920160200192915050565b602081526000612a996020830184612acc565b600060208284031215612b1d57600080fd5b5035919050565b6001600160a01b03811681146109e957600080fd5b60008060408385031215612b4c57600080fd5b8235612b5781612b24565b946020939093013593505050565b80151581146109e957600080fd5b60008060408385031215612b8657600080fd5b823591506020830135612b9881612b65565b809150509250929050565b600080600060608486031215612bb857600080fd5b8335612bc381612b24565b92506020840135612bd381612b24565b929592945050506040919091013590565b634e487b7160e01b600052604160045260246000fd5b604080519081016001600160401b0381118282101715612c1c57612c1c612be4565b60405290565b60405160c081016001600160401b0381118282101715612c1c57612c1c612be4565b604051601f8201601f191681016001600160401b0381118282101715612c6c57612c6c612be4565b604052919050565b600082601f830112612c8557600080fd5b6040516103008082018281106001600160401b0382111715612ca957612ca9612be4565b60405283018185821115612cbc57600080fd5b845b82811015612cd6578035825260209182019101612cbe565b509195945050505050565b6000806103208385031215612cf557600080fd5b82359150612d068460208501612c74565b90509250929050565b600060208284031215612d2157600080fd5b8135612a9981612b24565b602080825282518282018190526000919060409081850190868401855b82811015612d8157815180516001600160a01b0316855286810151878601528501518585015260609093019290850190600101612d49565b5091979650505050505050565b60008060408385031215612da157600080fd5b50508035926020909101359150565b60008060408385031215612dc357600080fd5b8235612dce81612b24565b91506020830135612b9881612b65565b60006001600160401b03821115612df757612df7612be4565b5060051b60200190565b60006020808385031215612e1457600080fd5b82356001600160401b03811115612e2a57600080fd5b8301601f81018513612e3b57600080fd5b8035612e4e612e4982612dde565b612c44565b81815260059190911b82018301908381019087831115612e6d57600080fd5b928401925b82841015612e8b57833582529284019290840190612e72565b979650505050505050565b602080825282518282018190526000919060409081850190868401855b82811015612d8157815180516001600160a01b03168552860151868501529284019290850190600101612eb3565b60006001600160401b03821115612efa57612efa612be4565b50601f01601f191660200190565b6000612f16612e4984612ee1565b9050828152838383011115612f2a57600080fd5b828260208301376000602084830101529392505050565b60008060008060808587031215612f5757600080fd5b8435612f6281612b24565b93506020850135612f7281612b24565b92506040850135915060608501356001600160401b03811115612f9457600080fd5b8501601f81018713612fa557600080fd5b612fb487823560208401612f08565b91505092959194509250565b600080600060608486031215612fd557600080fd5b8335612fe081612b24565b92506020840135612ff081612b24565b9150604084013561300081612b24565b809150509250925092565b6000806040838503121561301e57600080fd5b823561302981612b24565b91506020830135612b9881612b24565b6000806000806080858703121561304f57600080fd5b84359350602085013592506040850135915060608501356001600160401b038082111561307b57600080fd5b818701915087601f83011261308f57600080fd5b813561309d612e4982612dde565b8082825260208201915060208360051b86010192508a8311156130bf57600080fd5b602085015b8381101561314f5784813511156130da57600080fd5b803586016040818e03601f190112156130f257600080fd5b6130fa612bfa565b60208201358781111561310c57600080fd5b8201603f81018f1361311d57600080fd5b61312f8f602083013560408401612f08565b8252506040919091013560208083019190915290845292830192016130c4565b50979a9699509497505050505050565b6000806000610340848603121561317557600080fd5b833592506020840135915061318d8560408601612c74565b90509250925092565b600181811c908216806131aa57607f821691505b602082108114156131cb57634e487b7160e01b600052602260045260246000fd5b50919050565b80516131dc81612b65565b919050565b6000602082840312156131f357600080fd5b8151612a9981612b65565b6020808252602e908201527f4552433732313a2063616c6c6572206973206e6f7420746f6b656e206f776e6560408201526d1c881b9bdc88185c1c1c9bdd995960921b606082015260800190565b634e487b7160e01b600052603260045260246000fd5b600082601f83011261327357600080fd5b8151613281612e4982612ee1565b81815284602083860101111561329657600080fd5b611e1c826020830160208701612aa0565b600060208083850312156132ba57600080fd5b82516001600160401b03808211156132d157600080fd5b818501915085601f8301126132e557600080fd5b81516132f3612e4982612dde565b81815260059190911b8301840190848101908883111561331257600080fd5b8585015b838110156133f35780518581111561332d57600080fd5b860160c0818c03601f190112156133445760008081fd5b61334c612c22565b8882015181526040808301518a830152606080840151898111156133705760008081fd5b61337e8f8d83880101613262565b83850152506080915081840151898111156133995760008081fd5b6133a78f8d83880101613262565b82850152505060a080840151898111156133c15760008081fd5b6133cf8f8d83880101613262565b83850152506133e060c085016131d1565b9083015250845250918601918601613316565b5098975050505050505050565b634e487b7160e01b600052601160045260246000fd5b6000821982111561342957613429613400565b500190565b600060001982141561344257613442613400565b5060010190565b60008282101561345b5761345b613400565b500390565b8060005b6018811015611398578151845260209384019390910190600101613464565b61032081016134928285613460565b826103008301529392505050565b600082516134b2818460208701612aa0565b9190910192915050565b61034081016134cb8286613460565b61030082018460005b60018110156134f35781518352602092830192909101906001016134d4565b50505082610320830152949350505050565b60208082526032908201527f4552433732313a207472616e7366657220746f206e6f6e20455243373231526560408201527131b2b4bb32b91034b6b83632b6b2b73a32b960711b606082015260800190565b6020808252602b908201527f496e697469616c697a61626c653a20636f6e7472616374206973206e6f74206960408201526a6e697469616c697a696e6760a81b606082015260800190565b6001600160a01b038581168252841660208201526040810183905260806060820181905260009061218f90830184612acc565b6000602082840312156135e757600080fd5b8151612a9981612a66565b634e487b7160e01b600052603160045260246000fdfea264697066735822122063fe64fba8045868b0ef173ddc6090edf4c3e8f5860100464e660311ddf568eb64736f6c63430008090033",
  "linkReferences": {},
  "deployedLinkReferences": {}
}