{
  "_format": "hh-sol-artifact-1",
  "contractName": "MintNFT",
  "sourceName": "contracts/MintNFT.sol",
  "abi": [
    {
      "anonymous": false,
      "inputs": [
        {
          "indexed": true,
          "internalType": "address",
          "name": "owner",
          "type": "address"
        },
        {
          "indexed": true,
          "internalType": "address",
          "name": "approved",
          "type": "address"
        },
        {
          "indexed": true,
          "internalType": "uint256",
          "name": "tokenId",
          "type": "uint256"
        }
      ],
      "name": "Approval",
      "type": "event"
    },
    {
      "anonymous": false,
      "inputs": [
        {
          "indexed": true,
          "internalType": "address",
          "name": "owner",
          "type": "address"
        },
        {
          "indexed": true,
          "internalType": "address",
          "name": "operator",
          "type": "address"
        },
        {
          "indexed": false,
          "internalType": "bool",
          "name": "approved",
          "type": "bool"
        }
      ],
      "name": "ApprovalForAll",
      "type": "event"
    },
    {
      "anonymous": false,
      "inputs": [
        {
          "indexed": false,
          "internalType": "uint8",
          "name": "version",
          "type": "uint8"
        }
      ],
      "name": "Initialized",
      "type": "event"
    },
    {
      "anonymous": false,
      "inputs": [
        {
          "indexed": true,
          "internalType": "uint256",
          "name": "eventId",
          "type": "uint256"
        },
        {
          "indexed": false,
          "internalType": "bool",
          "name": "isLocked",
          "type": "bool"
        }
      ],
      "name": "MintLocked",
      "type": "event"
    },
    {
      "anonymous": false,
      "inputs": [
        {
          "indexed": true,
          "internalType": "address",
          "name": "holder",
          "type": "address"
        },
        {
          "indexed": false,
          "internalType": "string",
          "name": "url",
          "type": "string"
        }
      ],
      "name": "MintedNFTAttributeURL",
      "type": "event"
    },
    {
      "anonymous": false,
      "inputs": [
        {
          "indexed": true,
          "internalType": "address",
          "name": "previousOwner",
          "type": "address"
        },
        {
          "indexed": true,
          "internalType": "address",
          "name": "newOwner",
          "type": "address"
        }
      ],
      "name": "OwnershipTransferred",
      "type": "event"
    },
    {
      "anonymous": false,
      "inputs": [
        {
          "indexed": true,
          "internalType": "address",
          "name": "executor",
          "type": "address"
        },
        {
          "indexed": true,
          "internalType": "uint256",
          "name": "eventId",
          "type": "uint256"
        }
      ],
      "name": "ResetSecretPhrase",
      "type": "event"
    },
    {
      "anonymous": false,
      "inputs": [
        {
          "indexed": true,
          "internalType": "address",
          "name": "from",
          "type": "address"
        },
        {
          "indexed": true,
          "internalType": "address",
          "name": "to",
          "type": "address"
        },
        {
          "indexed": true,
          "internalType": "uint256",
          "name": "tokenId",
          "type": "uint256"
        }
      ],
      "name": "Transfer",
      "type": "event"
    },
    {
      "inputs": [
        {
          "internalType": "address",
          "name": "to",
          "type": "address"
        },
        {
          "internalType": "uint256",
          "name": "tokenId",
          "type": "uint256"
        }
      ],
      "name": "approve",
      "outputs": [],
      "stateMutability": "nonpayable",
      "type": "function"
    },
    {
      "inputs": [
        {
          "internalType": "address",
          "name": "owner",
          "type": "address"
        }
      ],
      "name": "balanceOf",
      "outputs": [
        {
          "internalType": "uint256",
          "name": "",
          "type": "uint256"
        }
      ],
      "stateMutability": "view",
      "type": "function"
    },
    {
      "inputs": [
        {
          "internalType": "uint256",
          "name": "tokenId",
          "type": "uint256"
        }
      ],
      "name": "burn",
      "outputs": [],
      "stateMutability": "nonpayable",
      "type": "function"
    },
    {
      "inputs": [
        {
          "internalType": "uint256",
          "name": "_eventId",
          "type": "uint256"
        },
        {
          "internalType": "uint256[24]",
          "name": "_proof",
          "type": "uint256[24]"
        }
      ],
      "name": "canMint",
      "outputs": [
        {
          "internalType": "bool",
          "name": "",
          "type": "bool"
        }
      ],
      "stateMutability": "view",
      "type": "function"
    },
    {
      "inputs": [
        {
          "internalType": "uint256",
          "name": "_eventId",
          "type": "uint256"
        },
        {
          "internalType": "bool",
          "name": "_locked",
          "type": "bool"
        }
      ],
      "name": "changeMintLocked",
      "outputs": [],
      "stateMutability": "nonpayable",
      "type": "function"
    },
    {
      "inputs": [
        {
          "internalType": "uint256",
          "name": "tokenId",
          "type": "uint256"
        }
      ],
      "name": "getApproved",
      "outputs": [
        {
          "internalType": "address",
          "name": "",
          "type": "address"
        }
      ],
      "stateMutability": "view",
      "type": "function"
    },
    {
      "inputs": [
        {
          "internalType": "uint256",
          "name": "_eventId",
          "type": "uint256"
        }
      ],
      "name": "getIsMintLocked",
      "outputs": [
        {
          "internalType": "bool",
          "name": "",
          "type": "bool"
        }
      ],
      "stateMutability": "view",
      "type": "function"
    },
    {
      "inputs": [
        {
          "internalType": "uint256",
          "name": "_eventId",
          "type": "uint256"
        }
      ],
      "name": "getRemainingNFTCount",
      "outputs": [
        {
          "internalType": "uint256",
          "name": "",
          "type": "uint256"
        }
      ],
      "stateMutability": "view",
      "type": "function"
    },
    {
      "inputs": [
        {
          "internalType": "contract MinimalForwarderUpgradeable",
          "name": "trustedForwarder",
          "type": "address"
        },
        {
          "internalType": "address",
          "name": "_secretPhraseVerifierAddr",
          "type": "address"
        }
      ],
      "name": "initialize",
      "outputs": [],
      "stateMutability": "nonpayable",
      "type": "function"
    },
    {
      "inputs": [
        {
          "internalType": "address",
          "name": "owner",
          "type": "address"
        },
        {
          "internalType": "address",
          "name": "operator",
          "type": "address"
        }
      ],
      "name": "isApprovedForAll",
      "outputs": [
        {
          "internalType": "bool",
          "name": "",
          "type": "bool"
        }
      ],
      "stateMutability": "view",
      "type": "function"
    },
    {
      "inputs": [
        {
          "internalType": "address",
          "name": "_addr",
          "type": "address"
        },
        {
          "internalType": "uint256",
          "name": "_eventId",
          "type": "uint256"
        }
      ],
      "name": "isHoldingEventNFTByAddress",
      "outputs": [
        {
          "internalType": "bool",
          "name": "",
          "type": "bool"
        }
      ],
      "stateMutability": "view",
      "type": "function"
    },
    {
      "inputs": [
        {
          "internalType": "address",
          "name": "forwarder",
          "type": "address"
        }
      ],
      "name": "isTrustedForwarder",
      "outputs": [
        {
          "internalType": "bool",
          "name": "",
          "type": "bool"
        }
      ],
      "stateMutability": "view",
      "type": "function"
    },
    {
      "inputs": [
        {
          "internalType": "uint256",
          "name": "_groupId",
          "type": "uint256"
        },
        {
          "internalType": "uint256",
          "name": "_eventId",
          "type": "uint256"
        },
        {
          "internalType": "uint256[24]",
          "name": "_proof",
          "type": "uint256[24]"
        }
      ],
      "name": "mintParticipateNFT",
      "outputs": [],
      "stateMutability": "nonpayable",
      "type": "function"
    },
    {
      "inputs": [],
      "name": "name",
      "outputs": [
        {
          "internalType": "string",
          "name": "",
          "type": "string"
        }
      ],
      "stateMutability": "view",
      "type": "function"
    },
    {
      "inputs": [],
      "name": "owner",
      "outputs": [
        {
          "internalType": "address",
          "name": "",
          "type": "address"
        }
      ],
      "stateMutability": "view",
      "type": "function"
    },
    {
      "inputs": [
        {
          "internalType": "uint256",
          "name": "tokenId",
          "type": "uint256"
        }
      ],
      "name": "ownerOf",
      "outputs": [
        {
          "internalType": "address",
          "name": "",
          "type": "address"
        }
      ],
      "stateMutability": "view",
      "type": "function"
    },
    {
      "inputs": [],
      "name": "renounceOwnership",
      "outputs": [],
      "stateMutability": "nonpayable",
      "type": "function"
    },
    {
      "inputs": [
        {
          "internalType": "uint256",
          "name": "_eventId",
          "type": "uint256"
        },
        {
          "internalType": "bytes32",
          "name": "_secretPhrase",
          "type": "bytes32"
        }
      ],
      "name": "resetSecretPhrase",
      "outputs": [],
      "stateMutability": "nonpayable",
      "type": "function"
    },
    {
      "inputs": [
        {
          "internalType": "address",
          "name": "from",
          "type": "address"
        },
        {
          "internalType": "address",
          "name": "to",
          "type": "address"
        },
        {
          "internalType": "uint256",
          "name": "tokenId",
          "type": "uint256"
        }
      ],
      "name": "safeTransferFrom",
      "outputs": [],
      "stateMutability": "nonpayable",
      "type": "function"
    },
    {
      "inputs": [
        {
          "internalType": "address",
          "name": "from",
          "type": "address"
        },
        {
          "internalType": "address",
          "name": "to",
          "type": "address"
        },
        {
          "internalType": "uint256",
          "name": "tokenId",
          "type": "uint256"
        },
        {
          "internalType": "bytes",
          "name": "data",
          "type": "bytes"
        }
      ],
      "name": "safeTransferFrom",
      "outputs": [],
      "stateMutability": "nonpayable",
      "type": "function"
    },
    {
      "inputs": [
        {
          "internalType": "address",
          "name": "operator",
          "type": "address"
        },
        {
          "internalType": "bool",
          "name": "approved",
          "type": "bool"
        }
      ],
      "name": "setApprovalForAll",
      "outputs": [],
      "stateMutability": "nonpayable",
      "type": "function"
    },
    {
      "inputs": [
        {
          "internalType": "uint256",
          "name": "_eventId",
          "type": "uint256"
        },
        {
          "internalType": "uint256",
          "name": "_mintLimit",
          "type": "uint256"
        },
        {
          "internalType": "bytes32",
          "name": "_secretPhrase",
          "type": "bytes32"
        },
        {
          "components": [
            {
              "internalType": "string",
              "name": "metaDataURL",
              "type": "string"
            },
            {
              "internalType": "uint256",
              "name": "requiredParticipateCount",
              "type": "uint256"
            }
          ],
          "internalType": "struct MintNFT.NFTAttribute[]",
          "name": "attributes",
          "type": "tuple[]"
        }
      ],
      "name": "setEventInfo",
      "outputs": [],
      "stateMutability": "nonpayable",
      "type": "function"
    },
    {
      "inputs": [
        {
          "internalType": "address",
          "name": "_addr",
          "type": "address"
        }
      ],
      "name": "setEventManagerAddr",
      "outputs": [],
      "stateMutability": "nonpayable",
      "type": "function"
    },
    {
      "inputs": [
        {
          "internalType": "bytes4",
          "name": "interfaceId",
          "type": "bytes4"
        }
      ],
      "name": "supportsInterface",
      "outputs": [
        {
          "internalType": "bool",
          "name": "",
          "type": "bool"
        }
      ],
      "stateMutability": "view",
      "type": "function"
    },
    {
      "inputs": [],
      "name": "symbol",
      "outputs": [
        {
          "internalType": "string",
          "name": "",
          "type": "string"
        }
      ],
      "stateMutability": "view",
      "type": "function"
    },
    {
      "inputs": [
        {
          "internalType": "uint256",
          "name": "index",
          "type": "uint256"
        }
      ],
      "name": "tokenByIndex",
      "outputs": [
        {
          "internalType": "uint256",
          "name": "",
          "type": "uint256"
        }
      ],
      "stateMutability": "view",
      "type": "function"
    },
    {
      "inputs": [
        {
          "internalType": "address",
          "name": "owner",
          "type": "address"
        },
        {
          "internalType": "uint256",
          "name": "index",
          "type": "uint256"
        }
      ],
      "name": "tokenOfOwnerByIndex",
      "outputs": [
        {
          "internalType": "uint256",
          "name": "",
          "type": "uint256"
        }
      ],
      "stateMutability": "view",
      "type": "function"
    },
    {
      "inputs": [
        {
          "internalType": "uint256",
          "name": "_tokenId",
          "type": "uint256"
        }
      ],
      "name": "tokenURI",
      "outputs": [
        {
          "internalType": "string",
          "name": "",
          "type": "string"
        }
      ],
      "stateMutability": "view",
      "type": "function"
    },
    {
      "inputs": [],
      "name": "totalSupply",
      "outputs": [
        {
          "internalType": "uint256",
          "name": "",
          "type": "uint256"
        }
      ],
      "stateMutability": "view",
      "type": "function"
    },
    {
      "inputs": [
        {
          "internalType": "address",
          "name": "from",
          "type": "address"
        },
        {
          "internalType": "address",
          "name": "to",
          "type": "address"
        },
        {
          "internalType": "uint256",
          "name": "tokenId",
          "type": "uint256"
        }
      ],
      "name": "transferFrom",
      "outputs": [],
      "stateMutability": "nonpayable",
      "type": "function"
    },
    {
      "inputs": [
        {
          "internalType": "address",
          "name": "newOwner",
          "type": "address"
        }
      ],
      "name": "transferOwnership",
      "outputs": [],
      "stateMutability": "nonpayable",
      "type": "function"
    }
  ],
  "bytecode": "0x608060405234801561001057600080fd5b50614f9d806100206000396000f3fe608060405234801561001057600080fd5b50600436106101e55760003560e01c80636352211e1161010f578063b88d4fde116100a2578063e985e9c511610071578063e985e9c5146105c4578063ef3ad9eb146105f4578063f2fde38b14610610578063fa86623b1461062c576101e5565b8063b88d4fde14610518578063c87b56dd14610534578063d622abc214610564578063df4b39dd14610594576101e5565b80639041e3f4116100de5780639041e3f4146104a657806395d89b41146104c25780639dcd6811146104e0578063a22cb465146104fc576101e5565b80636352211e1461041e57806370a082311461044e578063715018a61461047e5780638da5cb5b14610488576101e5565b80632f745c59116101875780634df30149116101565780634df301491461035e5780634f6ccce71461038e5780634ffc9f4b146103be578063572b6c05146103ee576101e5565b80632f745c59146102da57806342842e0e1461030a57806342966c6814610326578063485cc95514610342576101e5565b8063095ea7b3116101c3578063095ea7b3146102685780630daa8be71461028457806318160ddd146102a057806323b872dd146102be576101e5565b806301ffc9a7146101ea57806306fdde031461021a578063081812fc14610238575b600080fd5b61020460048036038101906101ff9190613305565b610648565b604051610211919061334d565b60405180910390f35b6102226106c2565b60405161022f9190613401565b60405180910390f35b610252600480360381019061024d9190613459565b610754565b60405161025f91906134c7565b60405180910390f35b610282600480360381019061027d919061350e565b61079a565b005b61029e6004803603810190610299919061357a565b6108b2565b005b6102a8610a0f565b6040516102b591906135c9565b60405180910390f35b6102d860048036038101906102d391906135e4565b610a1c565b005b6102f460048036038101906102ef919061350e565b610a7c565b60405161030191906135c9565b60405180910390f35b610324600480360381019061031f91906135e4565b610b21565b005b610340600480360381019061033b9190613459565b610b41565b005b61035c60048036038101906103579190613675565b610b55565b005b610378600480360381019061037391906137eb565b610d17565b604051610385919061334d565b60405180910390f35b6103a860048036038101906103a39190613459565b610e77565b6040516103b591906135c9565b60405180910390f35b6103d860048036038101906103d39190613459565b610ee8565b6040516103e591906135c9565b60405180910390f35b6104086004803603810190610403919061382c565b610f06565b604051610415919061334d565b60405180910390f35b61043860048036038101906104339190613459565b610f60565b60405161044591906134c7565b60405180910390f35b6104686004803603810190610463919061382c565b611012565b60405161047591906135c9565b60405180910390f35b6104866110ca565b005b6104906110de565b60405161049d91906134c7565b60405180910390f35b6104c060048036038101906104bb919061382c565b611108565b005b6104ca6111c5565b6040516104d79190613401565b60405180910390f35b6104fa60048036038101906104f5919061388f565b611257565b005b610516600480360381019061051191906138cf565b6113b4565b005b610532600480360381019061052d91906139c4565b6113ca565b005b61054e60048036038101906105499190613459565b61142c565b60405161055b9190613401565b60405180910390f35b61057e6004803603810190610579919061350e565b6114d8565b60405161058b919061334d565b60405180910390f35b6105ae60048036038101906105a99190613459565b61150d565b6040516105bb919061334d565b60405180910390f35b6105de60048036038101906105d99190613a47565b611538565b6040516105eb919061334d565b60405180910390f35b61060e60048036038101906106099190613c7f565b6115cc565b005b61062a6004803603810190610625919061382c565b61172a565b005b61064660048036038101906106419190613d02565b6117ae565b005b60007f780e9d63000000000000000000000000000000000000000000000000000000007bffffffffffffffffffffffffffffffffffffffffffffffffffffffff1916827bffffffffffffffffffffffffffffffffffffffffffffffffffffffff191614806106bb57506106ba82611b79565b5b9050919050565b6060606580546106d190613d85565b80601f01602080910402602001604051908101604052809291908181526020018280546106fd90613d85565b801561074a5780601f1061071f5761010080835404028352916020019161074a565b820191906000526020600020905b81548152906001019060200180831161072d57829003601f168201915b5050505050905090565b600061075f82611c5b565b6069600083815260200190815260200160002060009054906101000a900473ffffffffffffffffffffffffffffffffffffffff169050919050565b60006107a582610f60565b90508073ffffffffffffffffffffffffffffffffffffffff168373ffffffffffffffffffffffffffffffffffffffff161415610816576040517f08c379a000000000000000000000000000000000000000000000000000000000815260040161080d90613e29565b60405180910390fd5b8073ffffffffffffffffffffffffffffffffffffffff16610835611ca6565b73ffffffffffffffffffffffffffffffffffffffff16148061086457506108638161085e611ca6565b611538565b5b6108a3576040517f08c379a000000000000000000000000000000000000000000000000000000000815260040161089a90613ebb565b60405180910390fd5b6108ad8383611cd8565b505050565b81600061012f60009054906101000a900473ffffffffffffffffffffffffffffffffffffffff1690508073ffffffffffffffffffffffffffffffffffffffff16631847482a33846040518363ffffffff1660e01b8152600401610916929190613edb565b60206040518083038186803b15801561092e57600080fd5b505afa158015610942573d6000803e3d6000fd5b505050506040513d601f19601f820116820180604052508101906109669190613f19565b6109a5576040517f08c379a000000000000000000000000000000000000000000000000000000000815260040161099c90613f92565b60405180910390fd5b82610136600086815260200190815260200160002060006101000a81548160ff021916908315150217905550837f1e3ed2b292ed72652054799a4fde74789a8670c153df666f76e01345ec31828184604051610a01919061334d565b60405180910390a250505050565b6000609980549050905090565b610a2d610a27611ca6565b82611d91565b610a6c576040517f08c379a0000000000000000000000000000000000000000000000000000000008152600401610a6390614024565b60405180910390fd5b610a77838383611e26565b505050565b6000610a8783611012565b8210610ac8576040517f08c379a0000000000000000000000000000000000000000000000000000000008152600401610abf906140b6565b60405180910390fd5b609760008473ffffffffffffffffffffffffffffffffffffffff1673ffffffffffffffffffffffffffffffffffffffff168152602001908152602001600020600083815260200190815260200160002054905092915050565b610b3c838383604051806020016040528060008152506113ca565b505050565b610b4961208d565b610b528161210b565b50565b6002600060019054906101000a900460ff16158015610b8657508060ff1660008054906101000a900460ff1660ff16105b610bc5576040517f08c379a0000000000000000000000000000000000000000000000000000000008152600401610bbc90614148565b60405180910390fd5b806000806101000a81548160ff021916908360ff1602179055506001600060016101000a81548160ff021916908315150217905550610c6e6040518060400160405280600981526020017f4d696e7452616c6c7900000000000000000000000000000000000000000000008152506040518060400160405280600281526020017f4d52000000000000000000000000000000000000000000000000000000000000815250612228565b610c76612285565b610c7f836122de565b8161013760006101000a81548173ffffffffffffffffffffffffffffffffffffffff021916908373ffffffffffffffffffffffffffffffffffffffff16021790555060008060016101000a81548160ff0219169083151502179055507f7f26b83ff96e1f2b6a682f133852f6798a09c465da95921460cefb384740249881604051610d0a9190614184565b60405180910390a1505050565b6000610d238284612379565b610d62576040517f08c379a0000000000000000000000000000000000000000000000000000000008152600401610d59906141eb565b60405180910390fd5b60006101346000858152602001908152602001600020541415610dba576040517f08c379a0000000000000000000000000000000000000000000000000000000008152600401610db190614257565b60405180910390fd5b610dcb610dc5611ca6565b846114d8565b15610e0b576040517f08c379a0000000000000000000000000000000000000000000000000000000008152600401610e02906142c3565b60405180910390fd5b610136600084815260200190815260200160002060009054906101000a900460ff1615610e6d576040517f08c379a0000000000000000000000000000000000000000000000000000000008152600401610e649061432f565b60405180910390fd5b6001905092915050565b6000610e81610a0f565b8210610ec2576040517f08c379a0000000000000000000000000000000000000000000000000000000008152600401610eb9906143c1565b60405180910390fd5b60998281548110610ed657610ed56143e1565b5b90600052602060002001549050919050565b60006101346000838152602001908152602001600020549050919050565b600060c960009054906101000a900473ffffffffffffffffffffffffffffffffffffffff1673ffffffffffffffffffffffffffffffffffffffff168273ffffffffffffffffffffffffffffffffffffffff16149050919050565b6000806067600084815260200190815260200160002060009054906101000a900473ffffffffffffffffffffffffffffffffffffffff169050600073ffffffffffffffffffffffffffffffffffffffff168173ffffffffffffffffffffffffffffffffffffffff161415611009576040517f08c379a00000000000000000000000000000000000000000000000000000000081526004016110009061445c565b60405180910390fd5b80915050919050565b60008073ffffffffffffffffffffffffffffffffffffffff168273ffffffffffffffffffffffffffffffffffffffff161415611083576040517f08c379a000000000000000000000000000000000000000000000000000000000815260040161107a906144ee565b60405180910390fd5b606860008373ffffffffffffffffffffffffffffffffffffffff1673ffffffffffffffffffffffffffffffffffffffff168152602001908152602001600020549050919050565b6110d261208d565b6110dc6000612469565b565b600060fc60009054906101000a900473ffffffffffffffffffffffffffffffffffffffff16905090565b61111061208d565b600073ffffffffffffffffffffffffffffffffffffffff168173ffffffffffffffffffffffffffffffffffffffff161415611180576040517f08c379a00000000000000000000000000000000000000000000000000000000081526004016111779061455a565b60405180910390fd5b8061012f60006101000a81548173ffffffffffffffffffffffffffffffffffffffff021916908373ffffffffffffffffffffffffffffffffffffffff16021790555050565b6060606680546111d490613d85565b80601f016020809104026020016040519081016040528092919081815260200182805461120090613d85565b801561124d5780601f106112225761010080835404028352916020019161124d565b820191906000526020600020905b81548152906001019060200180831161123057829003601f168201915b5050505050905090565b81600061012f60009054906101000a900473ffffffffffffffffffffffffffffffffffffffff1690508073ffffffffffffffffffffffffffffffffffffffff16631847482a33846040518363ffffffff1660e01b81526004016112bb929190613edb565b60206040518083038186803b1580156112d357600080fd5b505afa1580156112e7573d6000803e3d6000fd5b505050506040513d601f19601f8201168201806040525081019061130b9190613f19565b61134a576040517f08c379a000000000000000000000000000000000000000000000000000000000815260040161134190613f92565b60405180910390fd5b826101356000868152602001908152602001600020819055508361136c611ca6565b73ffffffffffffffffffffffffffffffffffffffff167fae5b067be3e4869ca571a499572a09085a17c3d0442a8965b8356bf47f63ba9960405160405180910390a350505050565b6113c66113bf611ca6565b838361252f565b5050565b6113db6113d5611ca6565b83611d91565b61141a576040517f08c379a000000000000000000000000000000000000000000000000000000000815260040161141190614024565b60405180910390fd5b6114268484848461269c565b50505050565b606060006101306000848152602001908152602001600020805461144f90613d85565b80601f016020809104026020016040519081016040528092919081815260200182805461147b90613d85565b80156114c85780601f1061149d576101008083540402835291602001916114c8565b820191906000526020600020905b8154815290600101906020018083116114ab57829003601f168201915b5050505050905080915050919050565b600061013160006114e985856126f8565b815260200190815260200160002060009054906101000a900460ff16905092915050565b6000610136600083815260200190815260200160002060009054906101000a900460ff169050919050565b6000606a60008473ffffffffffffffffffffffffffffffffffffffff1673ffffffffffffffffffffffffffffffffffffffff16815260200190815260200160002060008373ffffffffffffffffffffffffffffffffffffffff1673ffffffffffffffffffffffffffffffffffffffff16815260200190815260200160002060009054906101000a900460ff16905092915050565b61012f60009054906101000a900473ffffffffffffffffffffffffffffffffffffffff1673ffffffffffffffffffffffffffffffffffffffff1661160e611ca6565b73ffffffffffffffffffffffffffffffffffffffff1614611664576040517f08c379a000000000000000000000000000000000000000000000000000000000815260040161165b906145c6565b60405180910390fd5b826101346000868152602001908152602001600020819055508161013560008681526020019081526020016000208190555060005b8151811015611723578181815181106116b5576116b46143e1565b5b60200260200101516000015161013360006116ee888686815181106116dd576116dc6143e1565b5b60200260200101516020015161272b565b8152602001908152602001600020908051906020019061170f9291906131f6565b50808061171b90614615565b915050611699565b5050505050565b61173261208d565b600073ffffffffffffffffffffffffffffffffffffffff168173ffffffffffffffffffffffffffffffffffffffff1614156117a2576040517f08c379a0000000000000000000000000000000000000000000000000000000008152600401611799906146d0565b60405180910390fd5b6117ab81612469565b50565b6117b88282610d17565b5060016101346000848152602001908152602001600020546117da91906146f0565b610134600084815260200190815260200160002081905550600061013760009054906101000a900473ffffffffffffffffffffffffffffffffffffffff1690508073ffffffffffffffffffffffffffffffffffffffff1663c6bc727283856040518363ffffffff1660e01b81526004016118559291906147cf565b600060405180830381600087803b15801561186f57600080fd5b505af1158015611883573d6000803e3d6000fd5b505050506001610131600061189f611899611ca6565b876126f8565b815260200190815260200160002060006101000a81548160ff02191690831515021790555060006118d76118d1611ca6565b866126f8565b9050600061013260008381526020019081526020016000205490506001816118ff91906147fa565b6101326000848152602001908152602001600020819055506000610133600061192988600061272b565b8152602001908152602001600020805461194290613d85565b80601f016020809104026020016040519081016040528092919081815260200182805461196e90613d85565b80156119bb5780601f10611990576101008083540402835291602001916119bb565b820191906000526020600020905b81548152906001019060200180831161199e57829003601f168201915b50505050509050600061013360006119d3898661272b565b815260200190815260200160002080546119ec90613d85565b80601f0160208091040260200160405190810160405280929190818152602001828054611a1890613d85565b8015611a655780601f10611a3a57610100808354040283529160200191611a65565b820191906000526020600020905b815481529060010190602001808311611a4857829003601f168201915b50505050509050604051602001611a7b90614881565b6040516020818303038152906040528051906020012081604051602001611aa291906148c7565b6040516020818303038152906040528051906020012014611ac1578091505b816101306000611ad261012e61275e565b81526020019081526020016000209080519060200190611af39291906131f6565b50611b0f611aff611ca6565b611b0a61012e61275e565b61276c565b611b1a61012e61278a565b611b22611ca6565b73ffffffffffffffffffffffffffffffffffffffff167faf2fad1984d2c7abaa9300537cf9fe1bcfaf2d6226e4ffdf03522dbf3064808e83604051611b679190613401565b60405180910390a25050505050505050565b60007f80ac58cd000000000000000000000000000000000000000000000000000000007bffffffffffffffffffffffffffffffffffffffffffffffffffffffff1916827bffffffffffffffffffffffffffffffffffffffffffffffffffffffff19161480611c4457507f5b5e139f000000000000000000000000000000000000000000000000000000007bffffffffffffffffffffffffffffffffffffffffffffffffffffffff1916827bffffffffffffffffffffffffffffffffffffffffffffffffffffffff1916145b80611c545750611c53826127a0565b5b9050919050565b611c648161280a565b611ca3576040517f08c379a0000000000000000000000000000000000000000000000000000000008152600401611c9a9061445c565b60405180910390fd5b50565b6000611cb133610f06565b15611cc557601436033560601c9050611cd4565b611ccd612876565b9050611cd5565b5b90565b816069600083815260200190815260200160002060006101000a81548173ffffffffffffffffffffffffffffffffffffffff021916908373ffffffffffffffffffffffffffffffffffffffff160217905550808273ffffffffffffffffffffffffffffffffffffffff16611d4b83610f60565b73ffffffffffffffffffffffffffffffffffffffff167f8c5be1e5ebec7d5bd14f71427d1e84f3dd0314c0f7b2291e5b200ac8c7c3b92560405160405180910390a45050565b600080611d9d83610f60565b90508073ffffffffffffffffffffffffffffffffffffffff168473ffffffffffffffffffffffffffffffffffffffff161480611ddf5750611dde8185611538565b5b80611e1d57508373ffffffffffffffffffffffffffffffffffffffff16611e0584610754565b73ffffffffffffffffffffffffffffffffffffffff16145b91505092915050565b8273ffffffffffffffffffffffffffffffffffffffff16611e4682610f60565b73ffffffffffffffffffffffffffffffffffffffff1614611e9c576040517f08c379a0000000000000000000000000000000000000000000000000000000008152600401611e9390614950565b60405180910390fd5b600073ffffffffffffffffffffffffffffffffffffffff168273ffffffffffffffffffffffffffffffffffffffff161415611f0c576040517f08c379a0000000000000000000000000000000000000000000000000000000008152600401611f03906149e2565b60405180910390fd5b611f178383836128a8565b611f22600082611cd8565b6001606860008573ffffffffffffffffffffffffffffffffffffffff1673ffffffffffffffffffffffffffffffffffffffff1681526020019081526020016000206000828254611f7291906146f0565b925050819055506001606860008473ffffffffffffffffffffffffffffffffffffffff1673ffffffffffffffffffffffffffffffffffffffff1681526020019081526020016000206000828254611fc991906147fa565b92505081905550816067600083815260200190815260200160002060006101000a81548173ffffffffffffffffffffffffffffffffffffffff021916908373ffffffffffffffffffffffffffffffffffffffff160217905550808273ffffffffffffffffffffffffffffffffffffffff168473ffffffffffffffffffffffffffffffffffffffff167fddf252ad1be2c89b69c2b068fc378daa952ba7f163c4a11628f55a4df523b3ef60405160405180910390a46120888383836129bc565b505050565b612095611ca6565b73ffffffffffffffffffffffffffffffffffffffff166120b36110de565b73ffffffffffffffffffffffffffffffffffffffff1614612109576040517f08c379a000000000000000000000000000000000000000000000000000000000815260040161210090614a4e565b60405180910390fd5b565b600061211682610f60565b9050612124816000846128a8565b61212f600083611cd8565b6001606860008373ffffffffffffffffffffffffffffffffffffffff1673ffffffffffffffffffffffffffffffffffffffff168152602001908152602001600020600082825461217f91906146f0565b925050819055506067600083815260200190815260200160002060006101000a81549073ffffffffffffffffffffffffffffffffffffffff021916905581600073ffffffffffffffffffffffffffffffffffffffff168273ffffffffffffffffffffffffffffffffffffffff167fddf252ad1be2c89b69c2b068fc378daa952ba7f163c4a11628f55a4df523b3ef60405160405180910390a4612224816000846129bc565b5050565b600060019054906101000a900460ff16612277576040517f08c379a000000000000000000000000000000000000000000000000000000000815260040161226e90614ae0565b60405180910390fd5b61228182826129c1565b5050565b600060019054906101000a900460ff166122d4576040517f08c379a00000000000000000000000000000000000000000000000000000000081526004016122cb90614ae0565b60405180910390fd5b6122dc612a42565b565b600060019054906101000a900460ff1661232d576040517f08c379a000000000000000000000000000000000000000000000000000000000815260040161232490614ae0565b60405180910390fd5b612335612aa3565b8060c960006101000a81548173ffffffffffffffffffffffffffffffffffffffff021916908373ffffffffffffffffffffffffffffffffffffffff16021790555050565b60008061013760009054906101000a900473ffffffffffffffffffffffffffffffffffffffff1690506000604051806020016040528061013560008781526020019081526020016000205460001c815250905060008273ffffffffffffffffffffffffffffffffffffffff1663a65bb09a8784886040518463ffffffff1660e01b815260040161240b93929190614b84565b60206040518083038186803b15801561242357600080fd5b505afa158015612437573d6000803e3d6000fd5b505050506040513d601f19601f8201168201806040525081019061245b9190613f19565b905080935050505092915050565b600060fc60009054906101000a900473ffffffffffffffffffffffffffffffffffffffff1690508160fc60006101000a81548173ffffffffffffffffffffffffffffffffffffffff021916908373ffffffffffffffffffffffffffffffffffffffff1602179055508173ffffffffffffffffffffffffffffffffffffffff168173ffffffffffffffffffffffffffffffffffffffff167f8be0079c531659141344cd1fd0a4f28419497f9722a3daafe3b4186f6b6457e060405160405180910390a35050565b8173ffffffffffffffffffffffffffffffffffffffff168373ffffffffffffffffffffffffffffffffffffffff16141561259e576040517f08c379a000000000000000000000000000000000000000000000000000000000815260040161259590614c0a565b60405180910390fd5b80606a60008573ffffffffffffffffffffffffffffffffffffffff1673ffffffffffffffffffffffffffffffffffffffff16815260200190815260200160002060008473ffffffffffffffffffffffffffffffffffffffff1673ffffffffffffffffffffffffffffffffffffffff16815260200190815260200160002060006101000a81548160ff0219169083151502179055508173ffffffffffffffffffffffffffffffffffffffff168373ffffffffffffffffffffffffffffffffffffffff167f17307eab39ab6107e8899845ad3d59bd9653f200f220920489ca2b5937696c318360405161268f919061334d565b60405180910390a3505050565b6126a7848484611e26565b6126b384848484612af4565b6126f2576040517f08c379a00000000000000000000000000000000000000000000000000000000081526004016126e990614c9c565b60405180910390fd5b50505050565b6000828260405160200161270d929190614d25565b60405160208183030381529060405280519060200120905092915050565b60008282604051602001612740929190614d51565b60405160208183030381529060405280519060200120905092915050565b600081600001549050919050565b612786828260405180602001604052806000815250612c8b565b5050565b6001816000016000828254019250508190555050565b60007f01ffc9a7000000000000000000000000000000000000000000000000000000007bffffffffffffffffffffffffffffffffffffffffffffffffffffffff1916827bffffffffffffffffffffffffffffffffffffffffffffffffffffffff1916149050919050565b60008073ffffffffffffffffffffffffffffffffffffffff166067600084815260200190815260200160002060009054906101000a900473ffffffffffffffffffffffffffffffffffffffff1673ffffffffffffffffffffffffffffffffffffffff1614159050919050565b600061288133610f06565b1561289557601436033560601c90506128a4565b61289d612ce6565b90506128a5565b5b90565b6128b3838383612cee565b600073ffffffffffffffffffffffffffffffffffffffff168373ffffffffffffffffffffffffffffffffffffffff1614156128f6576128f181612cf3565b612935565b8173ffffffffffffffffffffffffffffffffffffffff168373ffffffffffffffffffffffffffffffffffffffff1614612934576129338382612d3c565b5b5b600073ffffffffffffffffffffffffffffffffffffffff168273ffffffffffffffffffffffffffffffffffffffff1614156129785761297381612ea9565b6129b7565b8273ffffffffffffffffffffffffffffffffffffffff168273ffffffffffffffffffffffffffffffffffffffff16146129b6576129b58282612f7a565b5b5b505050565b505050565b600060019054906101000a900460ff16612a10576040517f08c379a0000000000000000000000000000000000000000000000000000000008152600401612a0790614ae0565b60405180910390fd5b8160659080519060200190612a269291906131f6565b508060669080519060200190612a3d9291906131f6565b505050565b600060019054906101000a900460ff16612a91576040517f08c379a0000000000000000000000000000000000000000000000000000000008152600401612a8890614ae0565b60405180910390fd5b612aa1612a9c611ca6565b612469565b565b600060019054906101000a900460ff16612af2576040517f08c379a0000000000000000000000000000000000000000000000000000000008152600401612ae990614ae0565b60405180910390fd5b565b6000612b158473ffffffffffffffffffffffffffffffffffffffff16612ff9565b15612c7e578373ffffffffffffffffffffffffffffffffffffffff1663150b7a02612b3e611ca6565b8786866040518563ffffffff1660e01b8152600401612b609493929190614dd2565b602060405180830381600087803b158015612b7a57600080fd5b505af1925050508015612bab57506040513d601f19601f82011682018060405250810190612ba89190614e33565b60015b612c2e573d8060008114612bdb576040519150601f19603f3d011682016040523d82523d6000602084013e612be0565b606091505b50600081511415612c26576040517f08c379a0000000000000000000000000000000000000000000000000000000008152600401612c1d90614c9c565b60405180910390fd5b805181602001fd5b63150b7a0260e01b7bffffffffffffffffffffffffffffffffffffffffffffffffffffffff1916817bffffffffffffffffffffffffffffffffffffffffffffffffffffffff191614915050612c83565b600190505b949350505050565b612c95838361301c565b612ca26000848484612af4565b612ce1576040517f08c379a0000000000000000000000000000000000000000000000000000000008152600401612cd890614c9c565b60405180910390fd5b505050565b600033905090565b505050565b609980549050609a600083815260200190815260200160002081905550609981908060018154018082558091505060019003906000526020600020016000909190919091505550565b60006001612d4984611012565b612d5391906146f0565b9050600060986000848152602001908152602001600020549050818114612e38576000609760008673ffffffffffffffffffffffffffffffffffffffff1673ffffffffffffffffffffffffffffffffffffffff168152602001908152602001600020600084815260200190815260200160002054905080609760008773ffffffffffffffffffffffffffffffffffffffff1673ffffffffffffffffffffffffffffffffffffffff168152602001908152602001600020600084815260200190815260200160002081905550816098600083815260200190815260200160002081905550505b6098600084815260200190815260200160002060009055609760008573ffffffffffffffffffffffffffffffffffffffff1673ffffffffffffffffffffffffffffffffffffffff16815260200190815260200160002060008381526020019081526020016000206000905550505050565b60006001609980549050612ebd91906146f0565b90506000609a6000848152602001908152602001600020549050600060998381548110612eed57612eec6143e1565b5b906000526020600020015490508060998381548110612f0f57612f0e6143e1565b5b906000526020600020018190555081609a600083815260200190815260200160002081905550609a6000858152602001908152602001600020600090556099805480612f5e57612f5d614e60565b5b6001900381819060005260206000200160009055905550505050565b6000612f8583611012565b905081609760008573ffffffffffffffffffffffffffffffffffffffff1673ffffffffffffffffffffffffffffffffffffffff168152602001908152602001600020600083815260200190815260200160002081905550806098600084815260200190815260200160002081905550505050565b6000808273ffffffffffffffffffffffffffffffffffffffff163b119050919050565b600073ffffffffffffffffffffffffffffffffffffffff168273ffffffffffffffffffffffffffffffffffffffff16141561308c576040517f08c379a000000000000000000000000000000000000000000000000000000000815260040161308390614edb565b60405180910390fd5b6130958161280a565b156130d5576040517f08c379a00000000000000000000000000000000000000000000000000000000081526004016130cc90614f47565b60405180910390fd5b6130e1600083836128a8565b6001606860008473ffffffffffffffffffffffffffffffffffffffff1673ffffffffffffffffffffffffffffffffffffffff168152602001908152602001600020600082825461313191906147fa565b92505081905550816067600083815260200190815260200160002060006101000a81548173ffffffffffffffffffffffffffffffffffffffff021916908373ffffffffffffffffffffffffffffffffffffffff160217905550808273ffffffffffffffffffffffffffffffffffffffff16600073ffffffffffffffffffffffffffffffffffffffff167fddf252ad1be2c89b69c2b068fc378daa952ba7f163c4a11628f55a4df523b3ef60405160405180910390a46131f2600083836129bc565b5050565b82805461320290613d85565b90600052602060002090601f016020900481019282613224576000855561326b565b82601f1061323d57805160ff191683800117855561326b565b8280016001018555821561326b579182015b8281111561326a57825182559160200191906001019061324f565b5b509050613278919061327c565b5090565b5b8082111561329557600081600090555060010161327d565b5090565b6000604051905090565b600080fd5b600080fd5b60007fffffffff0000000000000000000000000000000000000000000000000000000082169050919050565b6132e2816132ad565b81146132ed57600080fd5b50565b6000813590506132ff816132d9565b92915050565b60006020828403121561331b5761331a6132a3565b5b6000613329848285016132f0565b91505092915050565b60008115159050919050565b61334781613332565b82525050565b6000602082019050613362600083018461333e565b92915050565b600081519050919050565b600082825260208201905092915050565b60005b838110156133a2578082015181840152602081019050613387565b838111156133b1576000848401525b50505050565b6000601f19601f8301169050919050565b60006133d382613368565b6133dd8185613373565b93506133ed818560208601613384565b6133f6816133b7565b840191505092915050565b6000602082019050818103600083015261341b81846133c8565b905092915050565b6000819050919050565b61343681613423565b811461344157600080fd5b50565b6000813590506134538161342d565b92915050565b60006020828403121561346f5761346e6132a3565b5b600061347d84828501613444565b91505092915050565b600073ffffffffffffffffffffffffffffffffffffffff82169050919050565b60006134b182613486565b9050919050565b6134c1816134a6565b82525050565b60006020820190506134dc60008301846134b8565b92915050565b6134eb816134a6565b81146134f657600080fd5b50565b600081359050613508816134e2565b92915050565b60008060408385031215613525576135246132a3565b5b6000613533858286016134f9565b925050602061354485828601613444565b9150509250929050565b61355781613332565b811461356257600080fd5b50565b6000813590506135748161354e565b92915050565b60008060408385031215613591576135906132a3565b5b600061359f85828601613444565b92505060206135b085828601613565565b9150509250929050565b6135c381613423565b82525050565b60006020820190506135de60008301846135ba565b92915050565b6000806000606084860312156135fd576135fc6132a3565b5b600061360b868287016134f9565b935050602061361c868287016134f9565b925050604061362d86828701613444565b9150509250925092565b6000613642826134a6565b9050919050565b61365281613637565b811461365d57600080fd5b50565b60008135905061366f81613649565b92915050565b6000806040838503121561368c5761368b6132a3565b5b600061369a85828601613660565b92505060206136ab858286016134f9565b9150509250929050565b600080fd5b7f4e487b7100000000000000000000000000000000000000000000000000000000600052604160045260246000fd5b6136f2826133b7565b810181811067ffffffffffffffff82111715613711576137106136ba565b5b80604052505050565b6000613724613299565b905061373082826136e9565b919050565b600067ffffffffffffffff8211156137505761374f6136ba565b5b602082029050919050565b600080fd5b600061377361376e84613735565b61371a565b9050806020840283018581111561378d5761378c61375b565b5b835b818110156137b657806137a28882613444565b84526020840193505060208101905061378f565b5050509392505050565b600082601f8301126137d5576137d46136b5565b5b60186137e2848285613760565b91505092915050565b6000806103208385031215613803576138026132a3565b5b600061381185828601613444565b9250506020613822858286016137c0565b9150509250929050565b600060208284031215613842576138416132a3565b5b6000613850848285016134f9565b91505092915050565b6000819050919050565b61386c81613859565b811461387757600080fd5b50565b60008135905061388981613863565b92915050565b600080604083850312156138a6576138a56132a3565b5b60006138b485828601613444565b92505060206138c58582860161387a565b9150509250929050565b600080604083850312156138e6576138e56132a3565b5b60006138f4858286016134f9565b925050602061390585828601613565565b9150509250929050565b600080fd5b600067ffffffffffffffff82111561392f5761392e6136ba565b5b613938826133b7565b9050602081019050919050565b82818337600083830152505050565b600061396761396284613914565b61371a565b9050828152602081018484840111156139835761398261390f565b5b61398e848285613945565b509392505050565b600082601f8301126139ab576139aa6136b5565b5b81356139bb848260208601613954565b91505092915050565b600080600080608085870312156139de576139dd6132a3565b5b60006139ec878288016134f9565b94505060206139fd878288016134f9565b9350506040613a0e87828801613444565b925050606085013567ffffffffffffffff811115613a2f57613a2e6132a8565b5b613a3b87828801613996565b91505092959194509250565b60008060408385031215613a5e57613a5d6132a3565b5b6000613a6c858286016134f9565b9250506020613a7d858286016134f9565b9150509250929050565b600067ffffffffffffffff821115613aa257613aa16136ba565b5b602082029050602081019050919050565b600080fd5b600080fd5b600067ffffffffffffffff821115613ad857613ad76136ba565b5b613ae1826133b7565b9050602081019050919050565b6000613b01613afc84613abd565b61371a565b905082815260208101848484011115613b1d57613b1c61390f565b5b613b28848285613945565b509392505050565b600082601f830112613b4557613b446136b5565b5b8135613b55848260208601613aee565b91505092915050565b600060408284031215613b7457613b73613ab3565b5b613b7e604061371a565b9050600082013567ffffffffffffffff811115613b9e57613b9d613ab8565b5b613baa84828501613b30565b6000830152506020613bbe84828501613444565b60208301525092915050565b6000613bdd613bd884613a87565b61371a565b90508083825260208201905060208402830185811115613c0057613bff61375b565b5b835b81811015613c4757803567ffffffffffffffff811115613c2557613c246136b5565b5b808601613c328982613b5e565b85526020850194505050602081019050613c02565b5050509392505050565b600082601f830112613c6657613c656136b5565b5b8135613c76848260208601613bca565b91505092915050565b60008060008060808587031215613c9957613c986132a3565b5b6000613ca787828801613444565b9450506020613cb887828801613444565b9350506040613cc98782880161387a565b925050606085013567ffffffffffffffff811115613cea57613ce96132a8565b5b613cf687828801613c51565b91505092959194509250565b60008060006103408486031215613d1c57613d1b6132a3565b5b6000613d2a86828701613444565b9350506020613d3b86828701613444565b9250506040613d4c868287016137c0565b9150509250925092565b7f4e487b7100000000000000000000000000000000000000000000000000000000600052602260045260246000fd5b60006002820490506001821680613d9d57607f821691505b60208210811415613db157613db0613d56565b5b50919050565b7f4552433732313a20617070726f76616c20746f2063757272656e74206f776e6560008201527f7200000000000000000000000000000000000000000000000000000000000000602082015250565b6000613e13602183613373565b9150613e1e82613db7565b604082019050919050565b60006020820190508181036000830152613e4281613e06565b9050919050565b7f4552433732313a20617070726f76652063616c6c6572206973206e6f7420746f60008201527f6b656e206f776e6572206e6f7220617070726f76656420666f7220616c6c0000602082015250565b6000613ea5603e83613373565b9150613eb082613e49565b604082019050919050565b60006020820190508181036000830152613ed481613e98565b9050919050565b6000604082019050613ef060008301856134b8565b613efd60208301846135ba565b9392505050565b600081519050613f138161354e565b92915050565b600060208284031215613f2f57613f2e6132a3565b5b6000613f3d84828501613f04565b91505092915050565b7f796f7520617265206e6f74206576656e742067726f7570206f776e6572000000600082015250565b6000613f7c601d83613373565b9150613f8782613f46565b602082019050919050565b60006020820190508181036000830152613fab81613f6f565b9050919050565b7f4552433732313a2063616c6c6572206973206e6f7420746f6b656e206f776e6560008201527f72206e6f7220617070726f766564000000000000000000000000000000000000602082015250565b600061400e602e83613373565b915061401982613fb2565b604082019050919050565b6000602082019050818103600083015261403d81614001565b9050919050565b7f455243373231456e756d657261626c653a206f776e657220696e646578206f7560008201527f74206f6620626f756e6473000000000000000000000000000000000000000000602082015250565b60006140a0602b83613373565b91506140ab82614044565b604082019050919050565b600060208201905081810360008301526140cf81614093565b9050919050565b7f496e697469616c697a61626c653a20636f6e747261637420697320616c72656160008201527f647920696e697469616c697a6564000000000000000000000000000000000000602082015250565b6000614132602e83613373565b915061413d826140d6565b604082019050919050565b6000602082019050818103600083015261416181614125565b9050919050565b600060ff82169050919050565b61417e81614168565b82525050565b60006020820190506141996000830184614175565b92915050565b7f696e76616c696420736563726574207068726173650000000000000000000000600082015250565b60006141d5601583613373565b91506141e08261419f565b602082019050919050565b60006020820190508181036000830152614204816141c8565b9050919050565b7f72656d61696e696e6720636f756e74206973207a65726f000000000000000000600082015250565b6000614241601783613373565b915061424c8261420b565b602082019050919050565b6000602082019050818103600083015261427081614234565b9050919050565b7f616c7265616479206d696e746564000000000000000000000000000000000000600082015250565b60006142ad600e83613373565b91506142b882614277565b602082019050919050565b600060208201905081810360008301526142dc816142a0565b9050919050565b7f6d696e74206973206c6f636b6564000000000000000000000000000000000000600082015250565b6000614319600e83613373565b9150614324826142e3565b602082019050919050565b600060208201905081810360008301526143488161430c565b9050919050565b7f455243373231456e756d657261626c653a20676c6f62616c20696e646578206f60008201527f7574206f6620626f756e64730000000000000000000000000000000000000000602082015250565b60006143ab602c83613373565b91506143b68261434f565b604082019050919050565b600060208201905081810360008301526143da8161439e565b9050919050565b7f4e487b7100000000000000000000000000000000000000000000000000000000600052603260045260246000fd5b7f4552433732313a20696e76616c696420746f6b656e2049440000000000000000600082015250565b6000614446601883613373565b915061445182614410565b602082019050919050565b6000602082019050818103600083015261447581614439565b9050919050565b7f4552433732313a2061646472657373207a65726f206973206e6f74206120766160008201527f6c6964206f776e65720000000000000000000000000000000000000000000000602082015250565b60006144d8602983613373565b91506144e38261447c565b604082019050919050565b60006020820190508181036000830152614507816144cb565b9050919050565b7f6576656e74206d616e61676572206164647265737320697320626c616e6b0000600082015250565b6000614544601e83613373565b915061454f8261450e565b602082019050919050565b6000602082019050818103600083015261457381614537565b9050919050565b7f756e617574686f72697a65640000000000000000000000000000000000000000600082015250565b60006145b0600c83613373565b91506145bb8261457a565b602082019050919050565b600060208201905081810360008301526145df816145a3565b9050919050565b7f4e487b7100000000000000000000000000000000000000000000000000000000600052601160045260246000fd5b600061462082613423565b91507fffffffffffffffffffffffffffffffffffffffffffffffffffffffffffffffff821415614653576146526145e6565b5b600182019050919050565b7f4f776e61626c653a206e6577206f776e657220697320746865207a65726f206160008201527f6464726573730000000000000000000000000000000000000000000000000000602082015250565b60006146ba602683613373565b91506146c58261465e565b604082019050919050565b600060208201905081810360008301526146e9816146ad565b9050919050565b60006146fb82613423565b915061470683613423565b925082821015614719576147186145e6565b5b828203905092915050565b600060189050919050565b600081905092915050565b6000819050919050565b61474d81613423565b82525050565b600061475f8383614744565b60208301905092915050565b6000602082019050919050565b61478181614724565b61478b818461472f565b92506147968261473a565b8060005b838110156147c75781516147ae8782614753565b96506147b98361476b565b92505060018101905061479a565b505050505050565b6000610320820190506147e56000830185614778565b6147f36103008301846135ba565b9392505050565b600061480582613423565b915061481083613423565b9250827fffffffffffffffffffffffffffffffffffffffffffffffffffffffffffffffff03821115614845576148446145e6565b5b828201905092915050565b600081905092915050565b50565b600061486b600083614850565b91506148768261485b565b600082019050919050565b600061488c8261485e565b9150819050919050565b60006148a182613368565b6148ab8185614850565b93506148bb818560208601613384565b80840191505092915050565b60006148d38284614896565b915081905092915050565b7f4552433732313a207472616e736665722066726f6d20696e636f72726563742060008201527f6f776e6572000000000000000000000000000000000000000000000000000000602082015250565b600061493a602583613373565b9150614945826148de565b604082019050919050565b600060208201905081810360008301526149698161492d565b9050919050565b7f4552433732313a207472616e7366657220746f20746865207a65726f2061646460008201527f7265737300000000000000000000000000000000000000000000000000000000602082015250565b60006149cc602483613373565b91506149d782614970565b604082019050919050565b600060208201905081810360008301526149fb816149bf565b9050919050565b7f4f776e61626c653a2063616c6c6572206973206e6f7420746865206f776e6572600082015250565b6000614a38602083613373565b9150614a4382614a02565b602082019050919050565b60006020820190508181036000830152614a6781614a2b565b9050919050565b7f496e697469616c697a61626c653a20636f6e7472616374206973206e6f74206960008201527f6e697469616c697a696e67000000000000000000000000000000000000000000602082015250565b6000614aca602b83613373565b9150614ad582614a6e565b604082019050919050565b60006020820190508181036000830152614af981614abd565b9050919050565b600060019050919050565b600081905092915050565b6000819050919050565b6000602082019050919050565b614b3681614b00565b614b408184614b0b565b9250614b4b82614b16565b8060005b83811015614b7c578151614b638782614753565b9650614b6e83614b20565b925050600181019050614b4f565b505050505050565b600061034082019050614b9a6000830186614778565b614ba8610300830185614b2d565b614bb66103208301846135ba565b949350505050565b7f4552433732313a20617070726f766520746f2063616c6c657200000000000000600082015250565b6000614bf4601983613373565b9150614bff82614bbe565b602082019050919050565b60006020820190508181036000830152614c2381614be7565b9050919050565b7f4552433732313a207472616e7366657220746f206e6f6e20455243373231526560008201527f63656976657220696d706c656d656e7465720000000000000000000000000000602082015250565b6000614c86603283613373565b9150614c9182614c2a565b604082019050919050565b60006020820190508181036000830152614cb581614c79565b9050919050565b60008160601b9050919050565b6000614cd482614cbc565b9050919050565b6000614ce682614cc9565b9050919050565b614cfe614cf9826134a6565b614cdb565b82525050565b6000819050919050565b614d1f614d1a82613423565b614d04565b82525050565b6000614d318285614ced565b601482019150614d418284614d0e565b6020820191508190509392505050565b6000614d5d8285614d0e565b602082019150614d6d8284614d0e565b6020820191508190509392505050565b600081519050919050565b600082825260208201905092915050565b6000614da482614d7d565b614dae8185614d88565b9350614dbe818560208601613384565b614dc7816133b7565b840191505092915050565b6000608082019050614de760008301876134b8565b614df460208301866134b8565b614e0160408301856135ba565b8181036060830152614e138184614d99565b905095945050505050565b600081519050614e2d816132d9565b92915050565b600060208284031215614e4957614e486132a3565b5b6000614e5784828501614e1e565b91505092915050565b7f4e487b7100000000000000000000000000000000000000000000000000000000600052603160045260246000fd5b7f4552433732313a206d696e7420746f20746865207a65726f2061646472657373600082015250565b6000614ec5602083613373565b9150614ed082614e8f565b602082019050919050565b60006020820190508181036000830152614ef481614eb8565b9050919050565b7f4552433732313a20746f6b656e20616c7265616479206d696e74656400000000600082015250565b6000614f31601c83613373565b9150614f3c82614efb565b602082019050919050565b60006020820190508181036000830152614f6081614f24565b905091905056fea2646970667358221220fcec7e25b3583cc308a742540dc7df3da26594f03e71d7cd64a7f921726883f664736f6c63430008090033",
  "linkReferences": {},
  "deployedLinkReferences": {}
}