{
  "_format": "hh-sol-artifact-1",
  "contractName": "MintNFTV2",
  "sourceName": "contracts/MintNFTV2.sol",
  "abi": [
    {
      "anonymous": false,
      "inputs": [
        {
          "indexed": true,
          "internalType": "address",
          "name": "owner",
          "type": "address"
        },
        {
          "indexed": true,
          "internalType": "address",
          "name": "approved",
          "type": "address"
        },
        {
          "indexed": true,
          "internalType": "uint256",
          "name": "tokenId",
          "type": "uint256"
        }
      ],
      "name": "Approval",
      "type": "event"
    },
    {
      "anonymous": false,
      "inputs": [
        {
          "indexed": true,
          "internalType": "address",
          "name": "owner",
          "type": "address"
        },
        {
          "indexed": true,
          "internalType": "address",
          "name": "operator",
          "type": "address"
        },
        {
          "indexed": false,
          "internalType": "bool",
          "name": "approved",
          "type": "bool"
        }
      ],
      "name": "ApprovalForAll",
      "type": "event"
    },
    {
      "anonymous": false,
      "inputs": [
        {
          "indexed": false,
          "internalType": "uint8",
          "name": "version",
          "type": "uint8"
        }
      ],
      "name": "Initialized",
      "type": "event"
    },
    {
      "anonymous": false,
      "inputs": [
        {
          "indexed": true,
          "internalType": "address",
          "name": "previousOwner",
          "type": "address"
        },
        {
          "indexed": true,
          "internalType": "address",
          "name": "newOwner",
          "type": "address"
        }
      ],
      "name": "OwnershipTransferred",
      "type": "event"
    },
    {
      "anonymous": false,
      "inputs": [
        {
          "indexed": true,
          "internalType": "address",
          "name": "from",
          "type": "address"
        },
        {
          "indexed": true,
          "internalType": "address",
          "name": "to",
          "type": "address"
        },
        {
          "indexed": true,
          "internalType": "uint256",
          "name": "tokenId",
          "type": "uint256"
        }
      ],
      "name": "Transfer",
      "type": "event"
    },
    {
      "inputs": [
        {
          "internalType": "address",
          "name": "to",
          "type": "address"
        },
        {
          "internalType": "uint256",
          "name": "tokenId",
          "type": "uint256"
        }
      ],
      "name": "approve",
      "outputs": [],
      "stateMutability": "nonpayable",
      "type": "function"
    },
    {
      "inputs": [
        {
          "internalType": "address",
          "name": "owner",
          "type": "address"
        }
      ],
      "name": "balanceOf",
      "outputs": [
        {
          "internalType": "uint256",
          "name": "",
          "type": "uint256"
        }
      ],
      "stateMutability": "view",
      "type": "function"
    },
    {
      "inputs": [
        {
          "internalType": "uint256",
          "name": "tokenId",
          "type": "uint256"
        }
      ],
      "name": "getApproved",
      "outputs": [
        {
          "internalType": "address",
          "name": "",
          "type": "address"
        }
      ],
      "stateMutability": "view",
      "type": "function"
    },
    {
      "inputs": [
        {
          "internalType": "uint256",
          "name": "_groupId",
          "type": "uint256"
        }
      ],
      "name": "getGroupNFTAttributes",
      "outputs": [
        {
          "components": [
            {
              "internalType": "string",
              "name": "name",
              "type": "string"
            },
            {
              "internalType": "string",
              "name": "image",
              "type": "string"
            },
            {
              "internalType": "string",
              "name": "description",
              "type": "string"
            },
            {
              "internalType": "uint256",
              "name": "groupId",
              "type": "uint256"
            },
            {
              "internalType": "uint256",
              "name": "eventId",
              "type": "uint256"
            },
            {
              "internalType": "uint256",
              "name": "requiredParticipateCount",
              "type": "uint256"
            }
          ],
          "internalType": "struct MintNFT.ParticipateNFTAttributes[]",
          "name": "",
          "type": "tuple[]"
        }
      ],
      "stateMutability": "view",
      "type": "function"
    },
    {
      "inputs": [],
      "name": "getOwnedNFTs",
      "outputs": [
        {
          "components": [
            {
              "internalType": "string",
              "name": "name",
              "type": "string"
            },
            {
              "internalType": "string",
              "name": "image",
              "type": "string"
            },
            {
              "internalType": "string",
              "name": "description",
              "type": "string"
            },
            {
              "internalType": "uint256",
              "name": "groupId",
              "type": "uint256"
            },
            {
              "internalType": "uint256",
              "name": "eventId",
              "type": "uint256"
            },
            {
              "internalType": "uint256",
              "name": "requiredParticipateCount",
              "type": "uint256"
            }
          ],
          "internalType": "struct MintNFT.ParticipateNFTAttributes[]",
          "name": "",
          "type": "tuple[]"
        }
      ],
      "stateMutability": "view",
      "type": "function"
    },
    {
      "inputs": [],
      "name": "helloV2",
      "outputs": [
        {
          "internalType": "string",
          "name": "",
          "type": "string"
        }
      ],
      "stateMutability": "view",
      "type": "function"
    },
    {
      "inputs": [],
      "name": "initialize",
      "outputs": [],
      "stateMutability": "nonpayable",
      "type": "function"
    },
    {
      "inputs": [],
      "name": "initializeV2",
      "outputs": [],
      "stateMutability": "nonpayable",
      "type": "function"
    },
    {
      "inputs": [
        {
          "internalType": "address",
          "name": "owner",
          "type": "address"
        },
        {
          "internalType": "address",
          "name": "operator",
          "type": "address"
        }
      ],
      "name": "isApprovedForAll",
      "outputs": [
        {
          "internalType": "bool",
          "name": "",
          "type": "bool"
        }
      ],
      "stateMutability": "view",
      "type": "function"
    },
    {
      "inputs": [
        {
          "internalType": "uint256",
          "name": "_groupId",
          "type": "uint256"
        },
        {
          "internalType": "uint256",
          "name": "_eventId",
          "type": "uint256"
        },
        {
          "internalType": "string",
          "name": "_secretPhrase",
          "type": "string"
        }
      ],
      "name": "mintParticipateNFT",
      "outputs": [
        {
          "internalType": "string",
          "name": "",
          "type": "string"
        }
      ],
      "stateMutability": "nonpayable",
      "type": "function"
    },
    {
      "inputs": [],
      "name": "name",
      "outputs": [
        {
          "internalType": "string",
          "name": "",
          "type": "string"
        }
      ],
      "stateMutability": "view",
      "type": "function"
    },
    {
      "inputs": [],
      "name": "owner",
      "outputs": [
        {
          "internalType": "address",
          "name": "",
          "type": "address"
        }
      ],
      "stateMutability": "view",
      "type": "function"
    },
    {
      "inputs": [
        {
          "internalType": "uint256",
          "name": "tokenId",
          "type": "uint256"
        }
      ],
      "name": "ownerOf",
      "outputs": [
        {
          "internalType": "address",
          "name": "",
          "type": "address"
        }
      ],
      "stateMutability": "view",
      "type": "function"
    },
    {
      "inputs": [
        {
          "internalType": "uint256",
          "name": "groupId",
          "type": "uint256"
        },
        {
          "components": [
            {
              "internalType": "string",
              "name": "name",
              "type": "string"
            },
            {
              "internalType": "string",
              "name": "image",
              "type": "string"
            },
            {
              "internalType": "string",
              "name": "description",
              "type": "string"
            },
            {
              "internalType": "uint256",
              "name": "groupId",
              "type": "uint256"
            },
            {
              "internalType": "uint256",
              "name": "eventId",
              "type": "uint256"
            },
            {
              "internalType": "uint256",
              "name": "requiredParticipateCount",
              "type": "uint256"
            }
          ],
          "internalType": "struct MintNFT.ParticipateNFTAttributes[]",
          "name": "attributes",
          "type": "tuple[]"
        }
      ],
      "name": "pushGroupNFTAttributes",
      "outputs": [],
      "stateMutability": "nonpayable",
      "type": "function"
    },
    {
      "inputs": [],
      "name": "renounceOwnership",
      "outputs": [],
      "stateMutability": "nonpayable",
      "type": "function"
    },
    {
      "inputs": [],
      "name": "returnV1StateFromV2",
      "outputs": [
        {
          "internalType": "address",
          "name": "",
          "type": "address"
        }
      ],
      "stateMutability": "view",
      "type": "function"
    },
    {
      "inputs": [
        {
          "internalType": "address",
          "name": "from",
          "type": "address"
        },
        {
          "internalType": "address",
          "name": "to",
          "type": "address"
        },
        {
          "internalType": "uint256",
          "name": "tokenId",
          "type": "uint256"
        }
      ],
      "name": "safeTransferFrom",
      "outputs": [],
      "stateMutability": "nonpayable",
      "type": "function"
    },
    {
      "inputs": [
        {
          "internalType": "address",
          "name": "from",
          "type": "address"
        },
        {
          "internalType": "address",
          "name": "to",
          "type": "address"
        },
        {
          "internalType": "uint256",
          "name": "tokenId",
          "type": "uint256"
        },
        {
          "internalType": "bytes",
          "name": "data",
          "type": "bytes"
        }
      ],
      "name": "safeTransferFrom",
      "outputs": [],
      "stateMutability": "nonpayable",
      "type": "function"
    },
    {
      "inputs": [
        {
          "internalType": "address",
          "name": "operator",
          "type": "address"
        },
        {
          "internalType": "bool",
          "name": "approved",
          "type": "bool"
        }
      ],
      "name": "setApprovalForAll",
      "outputs": [],
      "stateMutability": "nonpayable",
      "type": "function"
    },
    {
      "inputs": [
        {
          "internalType": "address",
          "name": "_eventManagerAddr",
          "type": "address"
        }
      ],
      "name": "setEventManagerAddr",
      "outputs": [],
      "stateMutability": "nonpayable",
      "type": "function"
    },
    {
      "inputs": [
        {
          "internalType": "bytes4",
          "name": "interfaceId",
          "type": "bytes4"
        }
      ],
      "name": "supportsInterface",
      "outputs": [
        {
          "internalType": "bool",
          "name": "",
          "type": "bool"
        }
      ],
      "stateMutability": "view",
      "type": "function"
    },
    {
      "inputs": [],
      "name": "symbol",
      "outputs": [
        {
          "internalType": "string",
          "name": "",
          "type": "string"
        }
      ],
      "stateMutability": "view",
      "type": "function"
    },
    {
      "inputs": [
        {
          "internalType": "uint256",
          "name": "index",
          "type": "uint256"
        }
      ],
      "name": "tokenByIndex",
      "outputs": [
        {
          "internalType": "uint256",
          "name": "",
          "type": "uint256"
        }
      ],
      "stateMutability": "view",
      "type": "function"
    },
    {
      "inputs": [
        {
          "internalType": "address",
          "name": "owner",
          "type": "address"
        },
        {
          "internalType": "uint256",
          "name": "index",
          "type": "uint256"
        }
      ],
      "name": "tokenOfOwnerByIndex",
      "outputs": [
        {
          "internalType": "uint256",
          "name": "",
          "type": "uint256"
        }
      ],
      "stateMutability": "view",
      "type": "function"
    },
    {
      "inputs": [
        {
          "internalType": "uint256",
          "name": "_tokenId",
          "type": "uint256"
        }
      ],
      "name": "tokenURI",
      "outputs": [
        {
          "internalType": "string",
          "name": "",
          "type": "string"
        }
      ],
      "stateMutability": "view",
      "type": "function"
    },
    {
      "inputs": [],
      "name": "totalSupply",
      "outputs": [
        {
          "internalType": "uint256",
          "name": "",
          "type": "uint256"
        }
      ],
      "stateMutability": "view",
      "type": "function"
    },
    {
      "inputs": [
        {
          "internalType": "address",
          "name": "from",
          "type": "address"
        },
        {
          "internalType": "address",
          "name": "to",
          "type": "address"
        },
        {
          "internalType": "uint256",
          "name": "tokenId",
          "type": "uint256"
        }
      ],
      "name": "transferFrom",
      "outputs": [],
      "stateMutability": "nonpayable",
      "type": "function"
    },
    {
      "inputs": [
        {
          "internalType": "address",
          "name": "newOwner",
          "type": "address"
        }
      ],
      "name": "transferOwnership",
      "outputs": [],
      "stateMutability": "nonpayable",
      "type": "function"
    }
  ],
  "bytecode": "0x608060405234801561001057600080fd5b50615a1a80620000216000396000f3fe608060405234801561001057600080fd5b50600436106101c45760003560e01c806370a08231116100f9578063a22cb46511610097578063d9bfb10c11610071578063d9bfb10c146104e1578063db954423146104fd578063e985e9c51461052d578063f2fde38b1461055d576101c4565b8063a22cb46514610479578063b88d4fde14610495578063c87b56dd146104b1576101c4565b80638129fc1c116100d35780638129fc1c146104175780638da5cb5b146104215780639041e3f41461043f57806395d89b411461045b576101c4565b806370a08231146103ad578063715018a6146103dd57806372746a8d146103e7576101c4565b806323b872dd116101665780634c0eb7d9116101405780634c0eb7d9146103255780634f6ccce7146103435780635cd8a76b146103735780636352211e1461037d576101c4565b806323b872dd146102bd5780632f745c59146102d957806342842e0e14610309576101c4565b8063095ea7b3116101a2578063095ea7b3146102475780630f1fa2c51461026357806318160ddd1461028157806318c113f31461029f576101c4565b806301ffc9a7146101c957806306fdde03146101f9578063081812fc14610217575b600080fd5b6101e360048036038101906101de91906142d2565b610579565b6040516101f09190614b3e565b60405180910390f35b6102016105f3565b60405161020e9190614b74565b60405180910390f35b610231600480360381019061022c9190614365565b610685565b60405161023e9190614ab5565b60405180910390f35b610261600480360381019061025c919061426d565b6106cb565b005b61026b6107e3565b6040516102789190614ab5565b60405180910390f35b61028961080d565b6040516102969190614e46565b60405180910390f35b6102a761081a565b6040516102b49190614b74565b60405180910390f35b6102d760048036038101906102d29190614167565b6108c6565b005b6102f360048036038101906102ee919061426d565b610926565b6040516103009190614e46565b60405180910390f35b610323600480360381019061031e9190614167565b6109cb565b005b61032d6109eb565b60405161033a9190614b1c565b60405180910390f35b61035d60048036038101906103589190614365565b610a08565b60405161036a9190614e46565b60405180910390f35b61037b610a9f565b005b61039760048036038101906103929190614365565b610c57565b6040516103a49190614ab5565b60405180910390f35b6103c760048036038101906103c29190614102565b610d09565b6040516103d49190614e46565b60405180910390f35b6103e5610dc1565b005b61040160048036038101906103fc91906143e2565b610dd5565b60405161040e9190614b74565b60405180910390f35b61041f6114e8565b005b61042961169a565b6040516104369190614ab5565b60405180910390f35b61045960048036038101906104549190614102565b6116c4565b005b610463611780565b6040516104709190614b74565b60405180910390f35b610493600480360381019061048e9190614231565b611812565b005b6104af60048036038101906104aa91906141b6565b611828565b005b6104cb60048036038101906104c69190614365565b61188a565b6040516104d89190614b74565b60405180910390f35b6104fb60048036038101906104f6919061438e565b611af7565b005b61051760048036038101906105129190614365565b611d93565b6040516105249190614b1c565b60405180910390f35b6105476004803603810190610542919061412b565b611fd9565b6040516105549190614b3e565b60405180910390f35b61057760048036038101906105729190614102565b61206d565b005b60007f780e9d63000000000000000000000000000000000000000000000000000000007bffffffffffffffffffffffffffffffffffffffffffffffffffffffff1916827bffffffffffffffffffffffffffffffffffffffffffffffffffffffff191614806105ec57506105eb826120f1565b5b9050919050565b60606065805461060290615195565b80601f016020809104026020016040519081016040528092919081815260200182805461062e90615195565b801561067b5780601f106106505761010080835404028352916020019161067b565b820191906000526020600020905b81548152906001019060200180831161065e57829003601f168201915b5050505050905090565b6000610690826121d3565b6069600083815260200190815260200160002060009054906101000a900473ffffffffffffffffffffffffffffffffffffffff169050919050565b60006106d682610c57565b90508073ffffffffffffffffffffffffffffffffffffffff168373ffffffffffffffffffffffffffffffffffffffff161415610747576040517f08c379a000000000000000000000000000000000000000000000000000000000815260040161073e90614dc6565b60405180910390fd5b8073ffffffffffffffffffffffffffffffffffffffff1661076661221e565b73ffffffffffffffffffffffffffffffffffffffff16148061079557506107948161078f61221e565b611fd9565b5b6107d4576040517f08c379a00000000000000000000000000000000000000000000000000000000081526004016107cb90614d06565b60405180910390fd5b6107de838361222d565b505050565b600060fc60009054906101000a900473ffffffffffffffffffffffffffffffffffffffff16905090565b6000609980549050905090565b606060ff60009054906101000a900460ff1661083557600080fd5b610100805461084390615195565b80601f016020809104026020016040519081016040528092919081815260200182805461086f90615195565b80156108bc5780601f10610891576101008083540402835291602001916108bc565b820191906000526020600020905b81548152906001019060200180831161089f57829003601f168201915b5050505050905090565b6108d76108d161221e565b826122e6565b610916576040517f08c379a000000000000000000000000000000000000000000000000000000000815260040161090d90614e26565b60405180910390fd5b61092183838361237b565b505050565b600061093183610d09565b8210610972576040517f08c379a000000000000000000000000000000000000000000000000000000000815260040161096990614bc6565b60405180910390fd5b609760008473ffffffffffffffffffffffffffffffffffffffff1673ffffffffffffffffffffffffffffffffffffffff168152602001908152602001600020600083815260200190815260200160002054905092915050565b6109e683838360405180602001604052806000815250611828565b505050565b606060006109ff6109fa61221e565b6125e2565b90508091505090565b6000610a1261080d565b8210610a53576040517f08c379a0000000000000000000000000000000000000000000000000000000008152600401610a4a90614de6565b60405180910390fd5b60998281548110610a8d577f4e487b7100000000000000000000000000000000000000000000000000000000600052603260045260246000fd5b90600052602060002001549050919050565b60008060019054906101000a900460ff16159050808015610ad05750600160008054906101000a900460ff1660ff16105b80610afd5750610adf306129f6565b158015610afc5750600160008054906101000a900460ff1660ff16145b5b610b3c576040517f08c379a0000000000000000000000000000000000000000000000000000000008152600401610b3390614ce6565b60405180910390fd5b60016000806101000a81548160ff021916908360ff1602179055508015610b79576001600060016101000a81548160ff0219169083151502179055505b60ff60009054906101000a900460ff1615610b9357600080fd5b600160ff60006101000a81548160ff0219169083151502179055506040518060400160405280601081526020017f48656c6c6f2c20563220576f726c6421000000000000000000000000000000008152506101009080519060200190610bfa929190613b77565b508015610c545760008060016101000a81548160ff0219169083151502179055507f7f26b83ff96e1f2b6a682f133852f6798a09c465da95921460cefb38474024986001604051610c4b9190614b59565b60405180910390a15b50565b6000806067600084815260200190815260200160002060009054906101000a900473ffffffffffffffffffffffffffffffffffffffff169050600073ffffffffffffffffffffffffffffffffffffffff168173ffffffffffffffffffffffffffffffffffffffff161415610d00576040517f08c379a0000000000000000000000000000000000000000000000000000000008152600401610cf790614da6565b60405180910390fd5b80915050919050565b60008073ffffffffffffffffffffffffffffffffffffffff168273ffffffffffffffffffffffffffffffffffffffff161415610d7a576040517f08c379a0000000000000000000000000000000000000000000000000000000008152600401610d7190614ca6565b60405180910390fd5b606860008373ffffffffffffffffffffffffffffffffffffffff1673ffffffffffffffffffffffffffffffffffffffff168152602001908152602001600020549050919050565b610dc9612a19565b610dd36000612a97565b565b6060600060fe6000868152602001908152602001600020805480602002602001604051908101604052809291908181526020016000905b8282101561101257838290600052602060002090600602016040518060c0016040529081600082018054610e3f90615195565b80601f0160208091040260200160405190810160405280929190818152602001828054610e6b90615195565b8015610eb85780601f10610e8d57610100808354040283529160200191610eb8565b820191906000526020600020905b815481529060010190602001808311610e9b57829003601f168201915b50505050508152602001600182018054610ed190615195565b80601f0160208091040260200160405190810160405280929190818152602001828054610efd90615195565b8015610f4a5780601f10610f1f57610100808354040283529160200191610f4a565b820191906000526020600020905b815481529060010190602001808311610f2d57829003601f168201915b50505050508152602001600282018054610f6390615195565b80601f0160208091040260200160405190810160405280929190818152602001828054610f8f90615195565b8015610fdc5780601f10610fb157610100808354040283529160200191610fdc565b820191906000526020600020905b815481529060010190602001808311610fbf57829003601f168201915b50505050508152602001600382015481526020016004820154815260200160058201548152505081526020019060010190610e0c565b505050509050600060fc60009054906101000a900473ffffffffffffffffffffffffffffffffffffffff1690508073ffffffffffffffffffffffffffffffffffffffff1663e37c24fe85876040518363ffffffff1660e01b815260040161107a929190614b96565b602060405180830381600087803b15801561109457600080fd5b505af11580156110a8573d6000803e3d6000fd5b505050506040513d601f19601f820116820180604052508101906110cc91906142a9565b61110b576040517f08c379a000000000000000000000000000000000000000000000000000000000815260040161110290614d66565b60405180910390fd5b60008173ffffffffffffffffffffffffffffffffffffffff1663b98079bc876040518263ffffffff1660e01b81526004016111469190614e46565b60006040518083038186803b15801561115e57600080fd5b505afa158015611172573d6000803e3d6000fd5b505050506040513d6000823e3d601f19601f8201168201806040525081019061119b9190614324565b905060006111af6111aa61221e565b6125e2565b90506000600190506000805b835181101561125d5760008482815181106111ff577f4e487b7100000000000000000000000000000000000000000000000000000000600052603260045260246000fd5b602002602001015190508b816060015114801561121f57508a8160800151145b1561122e57600093505061125d565b8b81606001511415611249578280611245906151f8565b9350505b508080611255906151f8565b9150506111bb565b508161129e576040517f08c379a000000000000000000000000000000000000000000000000000000000815260040161129590614d86565b60405180910390fd5b60006112a8613bfd565b60005b88518110156113ff5760008982815181106112ef577f4e487b7100000000000000000000000000000000000000000000000000000000600052603260045260246000fd5b602002602001015190508d8160600181815250508c8160800181815250508760400151816000018190525060008160a00151141561132b578092505b848160a0015114156113eb578060fd600061134660fb612b5d565b81526020019081526020016000206000820151816000019080519060200190611370929190613b77565b50602082015181600101908051906020019061138d929190613b77565b5060408201518160020190805190602001906113aa929190613b77565b50606082015181600301556080820151816004015560a082015181600501559050506113e66113d761221e565b6113e160fb612b5d565b612b6b565b600193505b5080806113f7906151f8565b9150506112ab565b50816114b5578060fd600061141460fb612b5d565b8152602001908152602001600020600082015181600001908051906020019061143e929190613b77565b50602082015181600101908051906020019061145b929190613b77565b506040820151816002019080519060200190611478929190613b77565b50606082015181600301556080820151816004015560a082015181600501559050506114b46114a561221e565b6114af60fb612b5d565b612b6b565b5b60006114c96114c460fb612b5d565b61188a565b90506114d560fb612b89565b8099505050505050505050509392505050565b60008060019054906101000a900460ff161590508080156115195750600160008054906101000a900460ff1660ff16105b806115465750611528306129f6565b1580156115455750600160008054906101000a900460ff1660ff16145b5b611585576040517f08c379a000000000000000000000000000000000000000000000000000000000815260040161157c90614ce6565b60405180910390fd5b60016000806101000a81548160ff021916908360ff16021790555080156115c2576001600060016101000a81548160ff0219169083151502179055505b6116366040518060400160405280600981526020017f4d696e7452616c6c7900000000000000000000000000000000000000000000008152506040518060400160405280600281526020017f4d52000000000000000000000000000000000000000000000000000000000000815250612b9f565b61163e612bfc565b80156116975760008060016101000a81548160ff0219169083151502179055507f7f26b83ff96e1f2b6a682f133852f6798a09c465da95921460cefb3847402498600160405161168e9190614b59565b60405180910390a15b50565b600060c960009054906101000a900473ffffffffffffffffffffffffffffffffffffffff16905090565b6116cc612a19565b600073ffffffffffffffffffffffffffffffffffffffff168173ffffffffffffffffffffffffffffffffffffffff16141561173c576040517f08c379a000000000000000000000000000000000000000000000000000000000815260040161173390614cc6565b60405180910390fd5b8060fc60006101000a81548173ffffffffffffffffffffffffffffffffffffffff021916908373ffffffffffffffffffffffffffffffffffffffff16021790555050565b60606066805461178f90615195565b80601f01602080910402602001604051908101604052809291908181526020018280546117bb90615195565b80156118085780601f106117dd57610100808354040283529160200191611808565b820191906000526020600020905b8154815290600101906020018083116117eb57829003601f168201915b5050505050905090565b61182461181d61221e565b8383612c55565b5050565b61183961183361221e565b836122e6565b611878576040517f08c379a000000000000000000000000000000000000000000000000000000000815260040161186f90614e26565b60405180910390fd5b61188484848484612dc2565b50505050565b6060600060fd60008481526020019081526020016000206040518060c00160405290816000820180546118bc90615195565b80601f01602080910402602001604051908101604052809291908181526020018280546118e890615195565b80156119355780601f1061190a57610100808354040283529160200191611935565b820191906000526020600020905b81548152906001019060200180831161191857829003601f168201915b5050505050815260200160018201805461194e90615195565b80601f016020809104026020016040519081016040528092919081815260200182805461197a90615195565b80156119c75780601f1061199c576101008083540402835291602001916119c7565b820191906000526020600020905b8154815290600101906020018083116119aa57829003601f168201915b505050505081526020016002820180546119e090615195565b80601f0160208091040260200160405190810160405280929190818152602001828054611a0c90615195565b8015611a595780601f10611a2e57610100808354040283529160200191611a59565b820191906000526020600020905b815481529060010190602001808311611a3c57829003601f168201915b50505050508152602001600382015481526020016004820154815260200160058201548152505090506000611ac6826000015183604001518460200151611a9f88612e1e565b604051602001611ab29493929190614a1e565b604051602081830303815290604052612fcb565b9050600081604051602001611adb9190614a93565b6040516020818303038152906040529050809350505050919050565b60005b8151811015611d8e5760fe60008481526020019081526020016000206040518060c00160405280848481518110611b5a577f4e487b7100000000000000000000000000000000000000000000000000000000600052603260045260246000fd5b6020026020010151600001518152602001848481518110611ba4577f4e487b7100000000000000000000000000000000000000000000000000000000600052603260045260246000fd5b6020026020010151602001518152602001848481518110611bee577f4e487b7100000000000000000000000000000000000000000000000000000000600052603260045260246000fd5b6020026020010151604001518152602001848481518110611c38577f4e487b7100000000000000000000000000000000000000000000000000000000600052603260045260246000fd5b6020026020010151606001518152602001848481518110611c82577f4e487b7100000000000000000000000000000000000000000000000000000000600052603260045260246000fd5b6020026020010151608001518152602001848481518110611ccc577f4e487b7100000000000000000000000000000000000000000000000000000000600052603260045260246000fd5b602002602001015160a0015181525090806001815401808255809150506001900390600052602060002090600602016000909190919091506000820151816000019080519060200190611d20929190613b77565b506020820151816001019080519060200190611d3d929190613b77565b506040820151816002019080519060200190611d5a929190613b77565b50606082015181600301556080820151816004015560a0820151816005015550508080611d86906151f8565b915050611afa565b505050565b606060fe6000838152602001908152602001600020805480602002602001604051908101604052809291908181526020016000905b82821015611fce57838290600052602060002090600602016040518060c0016040529081600082018054611dfb90615195565b80601f0160208091040260200160405190810160405280929190818152602001828054611e2790615195565b8015611e745780601f10611e4957610100808354040283529160200191611e74565b820191906000526020600020905b815481529060010190602001808311611e5757829003601f168201915b50505050508152602001600182018054611e8d90615195565b80601f0160208091040260200160405190810160405280929190818152602001828054611eb990615195565b8015611f065780601f10611edb57610100808354040283529160200191611f06565b820191906000526020600020905b815481529060010190602001808311611ee957829003601f168201915b50505050508152602001600282018054611f1f90615195565b80601f0160208091040260200160405190810160405280929190818152602001828054611f4b90615195565b8015611f985780601f10611f6d57610100808354040283529160200191611f98565b820191906000526020600020905b815481529060010190602001808311611f7b57829003601f168201915b50505050508152602001600382015481526020016004820154815260200160058201548152505081526020019060010190611dc8565b505050509050919050565b6000606a60008473ffffffffffffffffffffffffffffffffffffffff1673ffffffffffffffffffffffffffffffffffffffff16815260200190815260200160002060008373ffffffffffffffffffffffffffffffffffffffff1673ffffffffffffffffffffffffffffffffffffffff16815260200190815260200160002060009054906101000a900460ff16905092915050565b612075612a19565b600073ffffffffffffffffffffffffffffffffffffffff168173ffffffffffffffffffffffffffffffffffffffff1614156120e5576040517f08c379a00000000000000000000000000000000000000000000000000000000081526004016120dc90614c06565b60405180910390fd5b6120ee81612a97565b50565b60007f80ac58cd000000000000000000000000000000000000000000000000000000007bffffffffffffffffffffffffffffffffffffffffffffffffffffffff1916827bffffffffffffffffffffffffffffffffffffffffffffffffffffffff191614806121bc57507f5b5e139f000000000000000000000000000000000000000000000000000000007bffffffffffffffffffffffffffffffffffffffffffffffffffffffff1916827bffffffffffffffffffffffffffffffffffffffffffffffffffffffff1916145b806121cc57506121cb82613155565b5b9050919050565b6121dc816131bf565b61221b576040517f08c379a000000000000000000000000000000000000000000000000000000000815260040161221290614da6565b60405180910390fd5b50565b600061222861322b565b905090565b816069600083815260200190815260200160002060006101000a81548173ffffffffffffffffffffffffffffffffffffffff021916908373ffffffffffffffffffffffffffffffffffffffff160217905550808273ffffffffffffffffffffffffffffffffffffffff166122a083610c57565b73ffffffffffffffffffffffffffffffffffffffff167f8c5be1e5ebec7d5bd14f71427d1e84f3dd0314c0f7b2291e5b200ac8c7c3b92560405160405180910390a45050565b6000806122f283610c57565b90508073ffffffffffffffffffffffffffffffffffffffff168473ffffffffffffffffffffffffffffffffffffffff16148061233457506123338185611fd9565b5b8061237257508373ffffffffffffffffffffffffffffffffffffffff1661235a84610685565b73ffffffffffffffffffffffffffffffffffffffff16145b91505092915050565b8273ffffffffffffffffffffffffffffffffffffffff1661239b82610c57565b73ffffffffffffffffffffffffffffffffffffffff16146123f1576040517f08c379a00000000000000000000000000000000000000000000000000000000081526004016123e890614c26565b60405180910390fd5b600073ffffffffffffffffffffffffffffffffffffffff168273ffffffffffffffffffffffffffffffffffffffff161415612461576040517f08c379a000000000000000000000000000000000000000000000000000000000815260040161245890614c66565b60405180910390fd5b61246c838383613233565b61247760008261222d565b6001606860008573ffffffffffffffffffffffffffffffffffffffff1673ffffffffffffffffffffffffffffffffffffffff16815260200190815260200160002060008282546124c79190615082565b925050819055506001606860008473ffffffffffffffffffffffffffffffffffffffff1673ffffffffffffffffffffffffffffffffffffffff168152602001908152602001600020600082825461251e9190614fa1565b92505081905550816067600083815260200190815260200160002060006101000a81548173ffffffffffffffffffffffffffffffffffffffff021916908373ffffffffffffffffffffffffffffffffffffffff160217905550808273ffffffffffffffffffffffffffffffffffffffff168473ffffffffffffffffffffffffffffffffffffffff167fddf252ad1be2c89b69c2b068fc378daa952ba7f163c4a11628f55a4df523b3ef60405160405180910390a46125dd838383613347565b505050565b606060006125ef83610d09565b905060008167ffffffffffffffff811115612633577f4e487b7100000000000000000000000000000000000000000000000000000000600052604160045260246000fd5b6040519080825280602002602001820160405280156126615781602001602082028036833780820191505090505b50905060005b828110156126d1576126798582610926565b8282815181106126b2577f4e487b7100000000000000000000000000000000000000000000000000000000600052603260045260246000fd5b60200260200101818152505080806126c9906151f8565b915050612667565b5060008267ffffffffffffffff811115612714577f4e487b7100000000000000000000000000000000000000000000000000000000600052604160045260246000fd5b60405190808252806020026020018201604052801561274d57816020015b61273a613bfd565b8152602001906001900390816127325790505b50905060005b838110156129ea576000838281518110612796577f4e487b7100000000000000000000000000000000000000000000000000000000600052603260045260246000fd5b6020026020010151905060fd60008281526020019081526020016000206040518060c00160405290816000820180546127ce90615195565b80601f01602080910402602001604051908101604052809291908181526020018280546127fa90615195565b80156128475780601f1061281c57610100808354040283529160200191612847565b820191906000526020600020905b81548152906001019060200180831161282a57829003601f168201915b5050505050815260200160018201805461286090615195565b80601f016020809104026020016040519081016040528092919081815260200182805461288c90615195565b80156128d95780601f106128ae576101008083540402835291602001916128d9565b820191906000526020600020905b8154815290600101906020018083116128bc57829003601f168201915b505050505081526020016002820180546128f290615195565b80601f016020809104026020016040519081016040528092919081815260200182805461291e90615195565b801561296b5780601f106129405761010080835404028352916020019161296b565b820191906000526020600020905b81548152906001019060200180831161294e57829003601f168201915b5050505050815260200160038201548152602001600482015481526020016005820154815250508383815181106129cb577f4e487b7100000000000000000000000000000000000000000000000000000000600052603260045260246000fd5b60200260200101819052505080806129e2906151f8565b915050612753565b50809350505050919050565b6000808273ffffffffffffffffffffffffffffffffffffffff163b119050919050565b612a2161221e565b73ffffffffffffffffffffffffffffffffffffffff16612a3f61169a565b73ffffffffffffffffffffffffffffffffffffffff1614612a95576040517f08c379a0000000000000000000000000000000000000000000000000000000008152600401612a8c90614d46565b60405180910390fd5b565b600060c960009054906101000a900473ffffffffffffffffffffffffffffffffffffffff1690508160c960006101000a81548173ffffffffffffffffffffffffffffffffffffffff021916908373ffffffffffffffffffffffffffffffffffffffff1602179055508173ffffffffffffffffffffffffffffffffffffffff168173ffffffffffffffffffffffffffffffffffffffff167f8be0079c531659141344cd1fd0a4f28419497f9722a3daafe3b4186f6b6457e060405160405180910390a35050565b600081600001549050919050565b612b8582826040518060200160405280600081525061334c565b5050565b6001816000016000828254019250508190555050565b600060019054906101000a900460ff16612bee576040517f08c379a0000000000000000000000000000000000000000000000000000000008152600401612be590614e06565b60405180910390fd5b612bf882826133a7565b5050565b600060019054906101000a900460ff16612c4b576040517f08c379a0000000000000000000000000000000000000000000000000000000008152600401612c4290614e06565b60405180910390fd5b612c53613428565b565b8173ffffffffffffffffffffffffffffffffffffffff168373ffffffffffffffffffffffffffffffffffffffff161415612cc4576040517f08c379a0000000000000000000000000000000000000000000000000000000008152600401612cbb90614c86565b60405180910390fd5b80606a60008573ffffffffffffffffffffffffffffffffffffffff1673ffffffffffffffffffffffffffffffffffffffff16815260200190815260200160002060008473ffffffffffffffffffffffffffffffffffffffff1673ffffffffffffffffffffffffffffffffffffffff16815260200190815260200160002060006101000a81548160ff0219169083151502179055508173ffffffffffffffffffffffffffffffffffffffff168373ffffffffffffffffffffffffffffffffffffffff167f17307eab39ab6107e8899845ad3d59bd9653f200f220920489ca2b5937696c3183604051612db59190614b3e565b60405180910390a3505050565b612dcd84848461237b565b612dd984848484613489565b612e18576040517f08c379a0000000000000000000000000000000000000000000000000000000008152600401612e0f90614be6565b60405180910390fd5b50505050565b60606000821415612e66576040518060400160405280600181526020017f30000000000000000000000000000000000000000000000000000000000000008152509050612fc6565b600082905060005b60008214612e98578080612e81906151f8565b915050600a82612e919190614ff7565b9150612e6e565b60008167ffffffffffffffff811115612eda577f4e487b7100000000000000000000000000000000000000000000000000000000600052604160045260246000fd5b6040519080825280601f01601f191660200182016040528015612f0c5781602001600182028036833780820191505090505b5090505b60008514612fbf57600182612f259190615082565b9150600a85612f349190615241565b6030612f409190614fa1565b60f81b818381518110612f7c577f4e487b7100000000000000000000000000000000000000000000000000000000600052603260045260246000fd5b60200101907effffffffffffffffffffffffffffffffffffffffffffffffffffffffffffff1916908160001a905350600a85612fb89190614ff7565b9450612f10565b8093505050505b919050565b6060600082511415612fee57604051806020016040528060008152509050613150565b60006040518060600160405280604081526020016159a5604091399050600060036002855161301d9190614fa1565b6130279190614ff7565b60046130339190615028565b67ffffffffffffffff811115613072577f4e487b7100000000000000000000000000000000000000000000000000000000600052604160045260246000fd5b6040519080825280601f01601f1916602001820160405280156130a45781602001600182028036833780820191505090505b509050600182016020820185865187015b80821015613110576003820191508151603f8160121c168501518453600184019350603f81600c1c168501518453600184019350603f8160061c168501518453600184019350603f81168501518453600184019350506130b5565b505060038651066001811461312c576002811461313f57613147565b603d6001830353603d6002830353613147565b603d60018303535b50505080925050505b919050565b60007f01ffc9a7000000000000000000000000000000000000000000000000000000007bffffffffffffffffffffffffffffffffffffffffffffffffffffffff1916827bffffffffffffffffffffffffffffffffffffffffffffffffffffffff1916149050919050565b60008073ffffffffffffffffffffffffffffffffffffffff166067600084815260200190815260200160002060009054906101000a900473ffffffffffffffffffffffffffffffffffffffff1673ffffffffffffffffffffffffffffffffffffffff1614159050919050565b600033905090565b61323e838383613620565b600073ffffffffffffffffffffffffffffffffffffffff168373ffffffffffffffffffffffffffffffffffffffff1614156132815761327c81613625565b6132c0565b8173ffffffffffffffffffffffffffffffffffffffff168373ffffffffffffffffffffffffffffffffffffffff16146132bf576132be838261366e565b5b5b600073ffffffffffffffffffffffffffffffffffffffff168273ffffffffffffffffffffffffffffffffffffffff161415613303576132fe816137db565b613342565b8273ffffffffffffffffffffffffffffffffffffffff168273ffffffffffffffffffffffffffffffffffffffff161461334157613340828261391e565b5b5b505050565b505050565b613356838361399d565b6133636000848484613489565b6133a2576040517f08c379a000000000000000000000000000000000000000000000000000000000815260040161339990614be6565b60405180910390fd5b505050565b600060019054906101000a900460ff166133f6576040517f08c379a00000000000000000000000000000000000000000000000000000000081526004016133ed90614e06565b60405180910390fd5b816065908051906020019061340c929190613b77565b508060669080519060200190613423929190613b77565b505050565b600060019054906101000a900460ff16613477576040517f08c379a000000000000000000000000000000000000000000000000000000000815260040161346e90614e06565b60405180910390fd5b61348761348261221e565b612a97565b565b60006134aa8473ffffffffffffffffffffffffffffffffffffffff166129f6565b15613613578373ffffffffffffffffffffffffffffffffffffffff1663150b7a026134d361221e565b8786866040518563ffffffff1660e01b81526004016134f59493929190614ad0565b602060405180830381600087803b15801561350f57600080fd5b505af192505050801561354057506040513d601f19601f8201168201806040525081019061353d91906142fb565b60015b6135c3573d8060008114613570576040519150601f19603f3d011682016040523d82523d6000602084013e613575565b606091505b506000815114156135bb576040517f08c379a00000000000000000000000000000000000000000000000000000000081526004016135b290614be6565b60405180910390fd5b805181602001fd5b63150b7a0260e01b7bffffffffffffffffffffffffffffffffffffffffffffffffffffffff1916817bffffffffffffffffffffffffffffffffffffffffffffffffffffffff191614915050613618565b600190505b949350505050565b505050565b609980549050609a600083815260200190815260200160002081905550609981908060018154018082558091505060019003906000526020600020016000909190919091505550565b6000600161367b84610d09565b6136859190615082565b905060006098600084815260200190815260200160002054905081811461376a576000609760008673ffffffffffffffffffffffffffffffffffffffff1673ffffffffffffffffffffffffffffffffffffffff168152602001908152602001600020600084815260200190815260200160002054905080609760008773ffffffffffffffffffffffffffffffffffffffff1673ffffffffffffffffffffffffffffffffffffffff168152602001908152602001600020600084815260200190815260200160002081905550816098600083815260200190815260200160002081905550505b6098600084815260200190815260200160002060009055609760008573ffffffffffffffffffffffffffffffffffffffff1673ffffffffffffffffffffffffffffffffffffffff16815260200190815260200160002060008381526020019081526020016000206000905550505050565b600060016099805490506137ef9190615082565b90506000609a6000848152602001908152602001600020549050600060998381548110613845577f4e487b7100000000000000000000000000000000000000000000000000000000600052603260045260246000fd5b90600052602060002001549050806099838154811061388d577f4e487b7100000000000000000000000000000000000000000000000000000000600052603260045260246000fd5b906000526020600020018190555081609a600083815260200190815260200160002081905550609a6000858152602001908152602001600020600090556099805480613902577f4e487b7100000000000000000000000000000000000000000000000000000000600052603160045260246000fd5b6001900381819060005260206000200160009055905550505050565b600061392983610d09565b905081609760008573ffffffffffffffffffffffffffffffffffffffff1673ffffffffffffffffffffffffffffffffffffffff168152602001908152602001600020600083815260200190815260200160002081905550806098600084815260200190815260200160002081905550505050565b600073ffffffffffffffffffffffffffffffffffffffff168273ffffffffffffffffffffffffffffffffffffffff161415613a0d576040517f08c379a0000000000000000000000000000000000000000000000000000000008152600401613a0490614d26565b60405180910390fd5b613a16816131bf565b15613a56576040517f08c379a0000000000000000000000000000000000000000000000000000000008152600401613a4d90614c46565b60405180910390fd5b613a6260008383613233565b6001606860008473ffffffffffffffffffffffffffffffffffffffff1673ffffffffffffffffffffffffffffffffffffffff1681526020019081526020016000206000828254613ab29190614fa1565b92505081905550816067600083815260200190815260200160002060006101000a81548173ffffffffffffffffffffffffffffffffffffffff021916908373ffffffffffffffffffffffffffffffffffffffff160217905550808273ffffffffffffffffffffffffffffffffffffffff16600073ffffffffffffffffffffffffffffffffffffffff167fddf252ad1be2c89b69c2b068fc378daa952ba7f163c4a11628f55a4df523b3ef60405160405180910390a4613b7360008383613347565b5050565b828054613b8390615195565b90600052602060002090601f016020900481019282613ba55760008555613bec565b82601f10613bbe57805160ff1916838001178555613bec565b82800160010185558215613bec579182015b82811115613beb578251825591602001919060010190613bd0565b5b509050613bf99190613c33565b5090565b6040518060c001604052806060815260200160608152602001606081526020016000815260200160008152602001600081525090565b5b80821115613c4c576000816000905550600101613c34565b5090565b6000613c63613c5e84614e86565b614e61565b90508083825260208201905082856020860282011115613c8257600080fd5b60005b85811015613ccc57813567ffffffffffffffff811115613ca457600080fd5b808601613cb18982613ff4565b85526020850194506020840193505050600181019050613c85565b5050509392505050565b6000613ce9613ce484614eb2565b614e61565b905082815260208101848484011115613d0157600080fd5b613d0c848285615153565b509392505050565b6000613d27613d2284614ee3565b614e61565b905082815260208101848484011115613d3f57600080fd5b613d4a848285615153565b509392505050565b6000613d65613d6084614ee3565b614e61565b905082815260208101848484011115613d7d57600080fd5b613d88848285615162565b509392505050565b600081359050613d9f81615931565b92915050565b600082601f830112613db657600080fd5b8135613dc6848260208601613c50565b91505092915050565b600081359050613dde81615948565b92915050565b600081519050613df381615948565b92915050565b600081519050613e088161595f565b92915050565b600081359050613e1d81615976565b92915050565b600081519050613e3281615976565b92915050565b600082601f830112613e4957600080fd5b8135613e59848260208601613cd6565b91505092915050565b600082601f830112613e7357600080fd5b8135613e83848260208601613d14565b91505092915050565b600082601f830112613e9d57600080fd5b8151613ead848260208601613d52565b91505092915050565b60006101008284031215613ec957600080fd5b613ed4610100614e61565b90506000613ee4848285016140ed565b6000830152506020613ef8848285016140ed565b602083015250604082015167ffffffffffffffff811115613f1857600080fd5b613f2484828501613e8c565b604083015250606082015167ffffffffffffffff811115613f4457600080fd5b613f5084828501613e8c565b606083015250608082015167ffffffffffffffff811115613f7057600080fd5b613f7c84828501613e8c565b60808301525060a082015167ffffffffffffffff811115613f9c57600080fd5b613fa884828501613e8c565b60a08301525060c082015167ffffffffffffffff811115613fc857600080fd5b613fd484828501613e8c565b60c08301525060e0613fe884828501613df9565b60e08301525092915050565b600060c0828403121561400657600080fd5b61401060c0614e61565b9050600082013567ffffffffffffffff81111561402c57600080fd5b61403884828501613e62565b600083015250602082013567ffffffffffffffff81111561405857600080fd5b61406484828501613e62565b602083015250604082013567ffffffffffffffff81111561408457600080fd5b61409084828501613e62565b60408301525060606140a4848285016140d8565b60608301525060806140b8848285016140d8565b60808301525060a06140cc848285016140d8565b60a08301525092915050565b6000813590506140e78161598d565b92915050565b6000815190506140fc8161598d565b92915050565b60006020828403121561411457600080fd5b600061412284828501613d90565b91505092915050565b6000806040838503121561413e57600080fd5b600061414c85828601613d90565b925050602061415d85828601613d90565b9150509250929050565b60008060006060848603121561417c57600080fd5b600061418a86828701613d90565b935050602061419b86828701613d90565b92505060406141ac868287016140d8565b9150509250925092565b600080600080608085870312156141cc57600080fd5b60006141da87828801613d90565b94505060206141eb87828801613d90565b93505060406141fc878288016140d8565b925050606085013567ffffffffffffffff81111561421957600080fd5b61422587828801613e38565b91505092959194509250565b6000806040838503121561424457600080fd5b600061425285828601613d90565b925050602061426385828601613dcf565b9150509250929050565b6000806040838503121561428057600080fd5b600061428e85828601613d90565b925050602061429f858286016140d8565b9150509250929050565b6000602082840312156142bb57600080fd5b60006142c984828501613de4565b91505092915050565b6000602082840312156142e457600080fd5b60006142f284828501613e0e565b91505092915050565b60006020828403121561430d57600080fd5b600061431b84828501613e23565b91505092915050565b60006020828403121561433657600080fd5b600082015167ffffffffffffffff81111561435057600080fd5b61435c84828501613eb6565b91505092915050565b60006020828403121561437757600080fd5b6000614385848285016140d8565b91505092915050565b600080604083850312156143a157600080fd5b60006143af858286016140d8565b925050602083013567ffffffffffffffff8111156143cc57600080fd5b6143d885828601613da5565b9150509250929050565b6000806000606084860312156143f757600080fd5b6000614405868287016140d8565b9350506020614416868287016140d8565b925050604084013567ffffffffffffffff81111561443357600080fd5b61443f86828701613e62565b9150509250925092565b60006144558383614969565b905092915050565b614466816150b6565b82525050565b600061447782614f24565b6144818185614f52565b93508360208202850161449385614f14565b8060005b858110156144cf57848403895281516144b08582614449565b94506144bb83614f45565b925060208a01995050600181019050614497565b50829750879550505050505092915050565b6144ea816150c8565b82525050565b60006144fb82614f2f565b6145058185614f63565b9350614515818560208601615162565b61451e8161532e565b840191505092915050565b61453281615141565b82525050565b600061454382614f3a565b61454d8185614f74565b935061455d818560208601615162565b6145668161532e565b840191505092915050565b600061457c82614f3a565b6145868185614f85565b9350614596818560208601615162565b61459f8161532e565b840191505092915050565b60006145b582614f3a565b6145bf8185614f96565b93506145cf818560208601615162565b80840191505092915050565b60006145e8601383614f96565b91506145f38261533f565b601382019050919050565b600061460b602b83614f85565b915061461682615368565b604082019050919050565b600061462e603283614f85565b9150614639826153b7565b604082019050919050565b6000614651602683614f85565b915061465c82615406565b604082019050919050565b6000614674602583614f85565b915061467f82615455565b604082019050919050565b6000614697601c83614f85565b91506146a2826154a4565b602082019050919050565b60006146ba602483614f85565b91506146c5826154cd565b604082019050919050565b60006146dd601983614f85565b91506146e88261551c565b602082019050919050565b6000614700602983614f85565b915061470b82615545565b604082019050919050565b6000614723600983614f96565b915061472e82615594565b600982019050919050565b6000614746601e83614f85565b9150614751826155bd565b602082019050919050565b6000614769602e83614f85565b9150614774826155e6565b604082019050919050565b600061478c603e83614f85565b915061479782615635565b604082019050919050565b60006147af602083614f85565b91506147ba82615684565b602082019050919050565b60006147d2600d83614f96565b91506147dd826156ad565b600d82019050919050565b60006147f5600183614f96565b9150614800826156d6565b600182019050919050565b6000614818602083614f85565b9150614823826156ff565b602082019050919050565b600061483b601583614f85565b915061484682615728565b602082019050919050565b600061485e601b83614f85565b915061486982615751565b602082019050919050565b6000614881600a83614f96565b915061488c8261577a565b600a82019050919050565b60006148a4601883614f85565b91506148af826157a3565b602082019050919050565b60006148c7602183614f85565b91506148d2826157cc565b604082019050919050565b60006148ea601d83614f96565b91506148f58261581b565b601d82019050919050565b600061490d602c83614f85565b915061491882615844565b604082019050919050565b6000614930602b83614f85565b915061493b82615893565b604082019050919050565b6000614953602e83614f85565b915061495e826158e2565b604082019050919050565b600060c08301600083015184820360008601526149868282614538565b915050602083015184820360208601526149a08282614538565b915050604083015184820360408601526149ba8282614538565b91505060608301516149cf6060860182614a00565b5060808301516149e26080860182614a00565b5060a08301516149f560a0860182614a00565b508091505092915050565b614a098161512a565b82525050565b614a188161512a565b82525050565b6000614a2982614874565b9150614a3582876145aa565b9150614a40826145db565b9150614a4c82866145aa565b9150614a57826147c5565b9150614a6382856145aa565b9150614a6e82614716565b9150614a7a82846145aa565b9150614a85826147e8565b915081905095945050505050565b6000614a9e826148dd565b9150614aaa82846145aa565b915081905092915050565b6000602082019050614aca600083018461445d565b92915050565b6000608082019050614ae5600083018761445d565b614af2602083018661445d565b614aff6040830185614a0f565b8181036060830152614b1181846144f0565b905095945050505050565b60006020820190508181036000830152614b36818461446c565b905092915050565b6000602082019050614b5360008301846144e1565b92915050565b6000602082019050614b6e6000830184614529565b92915050565b60006020820190508181036000830152614b8e8184614571565b905092915050565b60006040820190508181036000830152614bb08185614571565b9050614bbf6020830184614a0f565b9392505050565b60006020820190508181036000830152614bdf816145fe565b9050919050565b60006020820190508181036000830152614bff81614621565b9050919050565b60006020820190508181036000830152614c1f81614644565b9050919050565b60006020820190508181036000830152614c3f81614667565b9050919050565b60006020820190508181036000830152614c5f8161468a565b9050919050565b60006020820190508181036000830152614c7f816146ad565b9050919050565b60006020820190508181036000830152614c9f816146d0565b9050919050565b60006020820190508181036000830152614cbf816146f3565b9050919050565b60006020820190508181036000830152614cdf81614739565b9050919050565b60006020820190508181036000830152614cff8161475c565b9050919050565b60006020820190508181036000830152614d1f8161477f565b9050919050565b60006020820190508181036000830152614d3f816147a2565b9050919050565b60006020820190508181036000830152614d5f8161480b565b9050919050565b60006020820190508181036000830152614d7f8161482e565b9050919050565b60006020820190508181036000830152614d9f81614851565b9050919050565b60006020820190508181036000830152614dbf81614897565b9050919050565b60006020820190508181036000830152614ddf816148ba565b9050919050565b60006020820190508181036000830152614dff81614900565b9050919050565b60006020820190508181036000830152614e1f81614923565b9050919050565b60006020820190508181036000830152614e3f81614946565b9050919050565b6000602082019050614e5b6000830184614a0f565b92915050565b6000614e6b614e7c565b9050614e7782826151c7565b919050565b6000604051905090565b600067ffffffffffffffff821115614ea157614ea06152ff565b5b602082029050602081019050919050565b600067ffffffffffffffff821115614ecd57614ecc6152ff565b5b614ed68261532e565b9050602081019050919050565b600067ffffffffffffffff821115614efe57614efd6152ff565b5b614f078261532e565b9050602081019050919050565b6000819050602082019050919050565b600081519050919050565b600081519050919050565b600081519050919050565b6000602082019050919050565b600082825260208201905092915050565b600082825260208201905092915050565b600082825260208201905092915050565b600082825260208201905092915050565b600081905092915050565b6000614fac8261512a565b9150614fb78361512a565b9250827fffffffffffffffffffffffffffffffffffffffffffffffffffffffffffffffff03821115614fec57614feb615272565b5b828201905092915050565b60006150028261512a565b915061500d8361512a565b92508261501d5761501c6152a1565b5b828204905092915050565b60006150338261512a565b915061503e8361512a565b9250817fffffffffffffffffffffffffffffffffffffffffffffffffffffffffffffffff048311821515161561507757615076615272565b5b828202905092915050565b600061508d8261512a565b91506150988361512a565b9250828210156150ab576150aa615272565b5b828203905092915050565b60006150c18261510a565b9050919050565b60008115159050919050565b6000819050919050565b60007fffffffff0000000000000000000000000000000000000000000000000000000082169050919050565b600073ffffffffffffffffffffffffffffffffffffffff82169050919050565b6000819050919050565b600060ff82169050919050565b600061514c82615134565b9050919050565b82818337600083830152505050565b60005b83811015615180578082015181840152602081019050615165565b8381111561518f576000848401525b50505050565b600060028204905060018216806151ad57607f821691505b602082108114156151c1576151c06152d0565b5b50919050565b6151d08261532e565b810181811067ffffffffffffffff821117156151ef576151ee6152ff565b5b80604052505050565b60006152038261512a565b91507fffffffffffffffffffffffffffffffffffffffffffffffffffffffffffffffff82141561523657615235615272565b5b600182019050919050565b600061524c8261512a565b91506152578361512a565b925082615267576152666152a1565b5b828206905092915050565b7f4e487b7100000000000000000000000000000000000000000000000000000000600052601160045260246000fd5b7f4e487b7100000000000000000000000000000000000000000000000000000000600052601260045260246000fd5b7f4e487b7100000000000000000000000000000000000000000000000000000000600052602260045260246000fd5b7f4e487b7100000000000000000000000000000000000000000000000000000000600052604160045260246000fd5b6000601f19601f8301169050919050565b7f222c20226465736372697074696f6e223a202200000000000000000000000000600082015250565b7f455243373231456e756d657261626c653a206f776e657220696e646578206f7560008201527f74206f6620626f756e6473000000000000000000000000000000000000000000602082015250565b7f4552433732313a207472616e7366657220746f206e6f6e20455243373231526560008201527f63656976657220696d706c656d656e7465720000000000000000000000000000602082015250565b7f4f776e61626c653a206e6577206f776e657220697320746865207a65726f206160008201527f6464726573730000000000000000000000000000000000000000000000000000602082015250565b7f4552433732313a207472616e736665722066726f6d20696e636f72726563742060008201527f6f776e6572000000000000000000000000000000000000000000000000000000602082015250565b7f4552433732313a20746f6b656e20616c7265616479206d696e74656400000000600082015250565b7f4552433732313a207472616e7366657220746f20746865207a65726f2061646460008201527f7265737300000000000000000000000000000000000000000000000000000000602082015250565b7f4552433732313a20617070726f766520746f2063616c6c657200000000000000600082015250565b7f4552433732313a2061646472657373207a65726f206973206e6f74206120766160008201527f6c6964206f776e65720000000000000000000000000000000000000000000000602082015250565b7f222c20226964223a200000000000000000000000000000000000000000000000600082015250565b7f6576656e74206d616e61676572206164647265737320697320626c616e6b0000600082015250565b7f496e697469616c697a61626c653a20636f6e747261637420697320616c72656160008201527f647920696e697469616c697a6564000000000000000000000000000000000000602082015250565b7f4552433732313a20617070726f76652063616c6c6572206973206e6f7420746f60008201527f6b656e206f776e6572206e6f7220617070726f76656420666f7220616c6c0000602082015250565b7f4552433732313a206d696e7420746f20746865207a65726f2061646472657373600082015250565b7f222c2022696d616765223a202200000000000000000000000000000000000000600082015250565b7f7d00000000000000000000000000000000000000000000000000000000000000600082015250565b7f4f776e61626c653a2063616c6c6572206973206e6f7420746865206f776e6572600082015250565b7f696e76616c696420736563726574207068726173650000000000000000000000600082015250565b7f616c7265616479206d696e746564204e4654206f6e206576656e740000000000600082015250565b7f7b226e616d65223a202200000000000000000000000000000000000000000000600082015250565b7f4552433732313a20696e76616c696420746f6b656e2049440000000000000000600082015250565b7f4552433732313a20617070726f76616c20746f2063757272656e74206f776e6560008201527f7200000000000000000000000000000000000000000000000000000000000000602082015250565b7f646174613a6170706c69636174696f6e2f6a736f6e3b6261736536342c000000600082015250565b7f455243373231456e756d657261626c653a20676c6f62616c20696e646578206f60008201527f7574206f6620626f756e64730000000000000000000000000000000000000000602082015250565b7f496e697469616c697a61626c653a20636f6e7472616374206973206e6f74206960008201527f6e697469616c697a696e67000000000000000000000000000000000000000000602082015250565b7f4552433732313a2063616c6c6572206973206e6f7420746f6b656e206f776e6560008201527f72206e6f7220617070726f766564000000000000000000000000000000000000602082015250565b61593a816150b6565b811461594557600080fd5b50565b615951816150c8565b811461595c57600080fd5b50565b615968816150d4565b811461597357600080fd5b50565b61597f816150de565b811461598a57600080fd5b50565b6159968161512a565b81146159a157600080fd5b5056fe4142434445464748494a4b4c4d4e4f505152535455565758595a6162636465666768696a6b6c6d6e6f707172737475767778797a303132333435363738392b2fa26469706673582212206a36cb84da16482e2f6a8ca3ed554e2a150ce36ab211ce1691f5872afbb1270c64736f6c63430008040033",
  "linkReferences": {},
  "deployedLinkReferences": {}
}