{
  "_format": "hh-sol-artifact-1",
  "contractName": "MintNFT",
  "sourceName": "contracts/MintNFT.sol",
  "abi": [
    {
      "anonymous": false,
      "inputs": [
        {
          "indexed": true,
          "internalType": "address",
          "name": "owner",
          "type": "address"
        },
        {
          "indexed": true,
          "internalType": "address",
          "name": "approved",
          "type": "address"
        },
        {
          "indexed": true,
          "internalType": "uint256",
          "name": "tokenId",
          "type": "uint256"
        }
      ],
      "name": "Approval",
      "type": "event"
    },
    {
      "anonymous": false,
      "inputs": [
        {
          "indexed": true,
          "internalType": "address",
          "name": "owner",
          "type": "address"
        },
        {
          "indexed": true,
          "internalType": "address",
          "name": "operator",
          "type": "address"
        },
        {
          "indexed": false,
          "internalType": "bool",
          "name": "approved",
          "type": "bool"
        }
      ],
      "name": "ApprovalForAll",
      "type": "event"
    },
    {
      "anonymous": false,
      "inputs": [
        {
          "indexed": false,
          "internalType": "uint8",
          "name": "version",
          "type": "uint8"
        }
      ],
      "name": "Initialized",
      "type": "event"
    },
    {
      "anonymous": false,
      "inputs": [
        {
          "indexed": true,
          "internalType": "address",
          "name": "holder",
          "type": "address"
        },
        {
          "indexed": false,
          "internalType": "string",
          "name": "url",
          "type": "string"
        }
      ],
      "name": "MintedNFTAttributeURL",
      "type": "event"
    },
    {
      "anonymous": false,
      "inputs": [
        {
          "indexed": true,
          "internalType": "address",
          "name": "previousOwner",
          "type": "address"
        },
        {
          "indexed": true,
          "internalType": "address",
          "name": "newOwner",
          "type": "address"
        }
      ],
      "name": "OwnershipTransferred",
      "type": "event"
    },
    {
      "anonymous": false,
      "inputs": [
        {
          "indexed": true,
          "internalType": "address",
          "name": "from",
          "type": "address"
        },
        {
          "indexed": true,
          "internalType": "address",
          "name": "to",
          "type": "address"
        },
        {
          "indexed": true,
          "internalType": "uint256",
          "name": "tokenId",
          "type": "uint256"
        }
      ],
      "name": "Transfer",
      "type": "event"
    },
    {
      "inputs": [
        {
          "internalType": "address",
          "name": "to",
          "type": "address"
        },
        {
          "internalType": "uint256",
          "name": "tokenId",
          "type": "uint256"
        }
      ],
      "name": "approve",
      "outputs": [],
      "stateMutability": "nonpayable",
      "type": "function"
    },
    {
      "inputs": [
        {
          "internalType": "address",
          "name": "owner",
          "type": "address"
        }
      ],
      "name": "balanceOf",
      "outputs": [
        {
          "internalType": "uint256",
          "name": "",
          "type": "uint256"
        }
      ],
      "stateMutability": "view",
      "type": "function"
    },
    {
      "inputs": [
        {
          "internalType": "uint256",
          "name": "tokenId",
          "type": "uint256"
        }
      ],
      "name": "burn",
      "outputs": [],
      "stateMutability": "nonpayable",
      "type": "function"
    },
    {
      "inputs": [
        {
          "internalType": "uint256",
          "name": "tokenId",
          "type": "uint256"
        }
      ],
      "name": "getApproved",
      "outputs": [
        {
          "internalType": "address",
          "name": "",
          "type": "address"
        }
      ],
      "stateMutability": "view",
      "type": "function"
    },
    {
      "inputs": [
        {
          "internalType": "uint256",
          "name": "_eventId",
          "type": "uint256"
        }
      ],
      "name": "getRemainingNFTCount",
      "outputs": [
        {
          "internalType": "uint256",
          "name": "",
          "type": "uint256"
        }
      ],
      "stateMutability": "view",
      "type": "function"
    },
    {
      "inputs": [],
      "name": "initialize",
      "outputs": [],
      "stateMutability": "nonpayable",
      "type": "function"
    },
    {
      "inputs": [
        {
          "internalType": "address",
          "name": "owner",
          "type": "address"
        },
        {
          "internalType": "address",
          "name": "operator",
          "type": "address"
        }
      ],
      "name": "isApprovedForAll",
      "outputs": [
        {
          "internalType": "bool",
          "name": "",
          "type": "bool"
        }
      ],
      "stateMutability": "view",
      "type": "function"
    },
    {
      "inputs": [
        {
          "internalType": "uint256",
          "name": "_groupId",
          "type": "uint256"
        },
        {
          "internalType": "uint256",
          "name": "_eventId",
          "type": "uint256"
        },
        {
          "internalType": "string",
          "name": "_secretPhrase",
          "type": "string"
        }
      ],
      "name": "mintParticipateNFT",
      "outputs": [],
      "stateMutability": "nonpayable",
      "type": "function"
    },
    {
      "inputs": [],
      "name": "name",
      "outputs": [
        {
          "internalType": "string",
          "name": "",
          "type": "string"
        }
      ],
      "stateMutability": "view",
      "type": "function"
    },
    {
      "inputs": [],
      "name": "owner",
      "outputs": [
        {
          "internalType": "address",
          "name": "",
          "type": "address"
        }
      ],
      "stateMutability": "view",
      "type": "function"
    },
    {
      "inputs": [
        {
          "internalType": "uint256",
          "name": "tokenId",
          "type": "uint256"
        }
      ],
      "name": "ownerOf",
      "outputs": [
        {
          "internalType": "address",
          "name": "",
          "type": "address"
        }
      ],
      "stateMutability": "view",
      "type": "function"
    },
    {
      "inputs": [],
      "name": "renounceOwnership",
      "outputs": [],
      "stateMutability": "nonpayable",
      "type": "function"
    },
    {
      "inputs": [
        {
          "internalType": "address",
          "name": "from",
          "type": "address"
        },
        {
          "internalType": "address",
          "name": "to",
          "type": "address"
        },
        {
          "internalType": "uint256",
          "name": "tokenId",
          "type": "uint256"
        }
      ],
      "name": "safeTransferFrom",
      "outputs": [],
      "stateMutability": "nonpayable",
      "type": "function"
    },
    {
      "inputs": [
        {
          "internalType": "address",
          "name": "from",
          "type": "address"
        },
        {
          "internalType": "address",
          "name": "to",
          "type": "address"
        },
        {
          "internalType": "uint256",
          "name": "tokenId",
          "type": "uint256"
        },
        {
          "internalType": "bytes",
          "name": "data",
          "type": "bytes"
        }
      ],
      "name": "safeTransferFrom",
      "outputs": [],
      "stateMutability": "nonpayable",
      "type": "function"
    },
    {
      "inputs": [
        {
          "internalType": "address",
          "name": "operator",
          "type": "address"
        },
        {
          "internalType": "bool",
          "name": "approved",
          "type": "bool"
        }
      ],
      "name": "setApprovalForAll",
      "outputs": [],
      "stateMutability": "nonpayable",
      "type": "function"
    },
    {
      "inputs": [
        {
          "internalType": "uint256",
          "name": "_eventId",
          "type": "uint256"
        },
        {
          "internalType": "uint256",
          "name": "_mintLimit",
          "type": "uint256"
        },
        {
          "internalType": "bytes32",
          "name": "_secretPhrase",
          "type": "bytes32"
        },
        {
          "components": [
            {
              "internalType": "string",
              "name": "metaDataURL",
              "type": "string"
            },
            {
              "internalType": "uint256",
              "name": "requiredParticipateCount",
              "type": "uint256"
            }
          ],
          "internalType": "struct MintNFT.NFTAttribute[]",
          "name": "attributes",
          "type": "tuple[]"
        }
      ],
      "name": "setEventInfo",
      "outputs": [],
      "stateMutability": "nonpayable",
      "type": "function"
    },
    {
      "inputs": [
        {
          "internalType": "address",
          "name": "_eventManagerAddr",
          "type": "address"
        }
      ],
      "name": "setEventManagerAddr",
      "outputs": [],
      "stateMutability": "nonpayable",
      "type": "function"
    },
    {
      "inputs": [
        {
          "internalType": "bytes4",
          "name": "interfaceId",
          "type": "bytes4"
        }
      ],
      "name": "supportsInterface",
      "outputs": [
        {
          "internalType": "bool",
          "name": "",
          "type": "bool"
        }
      ],
      "stateMutability": "view",
      "type": "function"
    },
    {
      "inputs": [],
      "name": "symbol",
      "outputs": [
        {
          "internalType": "string",
          "name": "",
          "type": "string"
        }
      ],
      "stateMutability": "view",
      "type": "function"
    },
    {
      "inputs": [
        {
          "internalType": "uint256",
          "name": "index",
          "type": "uint256"
        }
      ],
      "name": "tokenByIndex",
      "outputs": [
        {
          "internalType": "uint256",
          "name": "",
          "type": "uint256"
        }
      ],
      "stateMutability": "view",
      "type": "function"
    },
    {
      "inputs": [
        {
          "internalType": "address",
          "name": "owner",
          "type": "address"
        },
        {
          "internalType": "uint256",
          "name": "index",
          "type": "uint256"
        }
      ],
      "name": "tokenOfOwnerByIndex",
      "outputs": [
        {
          "internalType": "uint256",
          "name": "",
          "type": "uint256"
        }
      ],
      "stateMutability": "view",
      "type": "function"
    },
    {
      "inputs": [
        {
          "internalType": "uint256",
          "name": "_tokenId",
          "type": "uint256"
        }
      ],
      "name": "tokenURI",
      "outputs": [
        {
          "internalType": "string",
          "name": "",
          "type": "string"
        }
      ],
      "stateMutability": "view",
      "type": "function"
    },
    {
      "inputs": [],
      "name": "totalSupply",
      "outputs": [
        {
          "internalType": "uint256",
          "name": "",
          "type": "uint256"
        }
      ],
      "stateMutability": "view",
      "type": "function"
    },
    {
      "inputs": [
        {
          "internalType": "address",
          "name": "from",
          "type": "address"
        },
        {
          "internalType": "address",
          "name": "to",
          "type": "address"
        },
        {
          "internalType": "uint256",
          "name": "tokenId",
          "type": "uint256"
        }
      ],
      "name": "transferFrom",
      "outputs": [],
      "stateMutability": "nonpayable",
      "type": "function"
    },
    {
      "inputs": [
        {
          "internalType": "address",
          "name": "newOwner",
          "type": "address"
        }
      ],
      "name": "transferOwnership",
      "outputs": [],
      "stateMutability": "nonpayable",
      "type": "function"
    }
  ],
  "bytecode": "0x608060405234801561001057600080fd5b5061432c806100206000396000f3fe608060405234801561001057600080fd5b50600436106101735760003560e01c806370a08231116100de57806395d89b4111610097578063c87b56dd11610071578063c87b56dd14610434578063e985e9c514610464578063ef3ad9eb14610494578063f2fde38b146104b057610173565b806395d89b41146103de578063a22cb465146103fc578063b88d4fde1461041857610173565b806370a0823114610344578063715018a61461037457806372746a8d1461037e5780638129fc1c1461039a5780638da5cb5b146103a45780639041e3f4146103c257610173565b80632f745c59116101305780632f745c591461024c57806342842e0e1461027c57806342966c68146102985780634f6ccce7146102b45780634ffc9f4b146102e45780636352211e1461031457610173565b806301ffc9a71461017857806306fdde03146101a8578063081812fc146101c6578063095ea7b3146101f657806318160ddd1461021257806323b872dd14610230575b600080fd5b610192600480360381019061018d9190612b0a565b6104cc565b60405161019f9190612b52565b60405180910390f35b6101b0610546565b6040516101bd9190612c06565b60405180910390f35b6101e060048036038101906101db9190612c5e565b6105d8565b6040516101ed9190612ccc565b60405180910390f35b610210600480360381019061020b9190612d13565b61061e565b005b61021a610736565b6040516102279190612d62565b60405180910390f35b61024a60048036038101906102459190612d7d565b610743565b005b61026660048036038101906102619190612d13565b6107a3565b6040516102739190612d62565b60405180910390f35b61029660048036038101906102919190612d7d565b610848565b005b6102b260048036038101906102ad9190612c5e565b610868565b005b6102ce60048036038101906102c99190612c5e565b61087c565b6040516102db9190612d62565b60405180910390f35b6102fe60048036038101906102f99190612c5e565b6108ed565b60405161030b9190612d62565b60405180910390f35b61032e60048036038101906103299190612c5e565b61090b565b60405161033b9190612ccc565b60405180910390f35b61035e60048036038101906103599190612dd0565b6109bd565b60405161036b9190612d62565b60405180910390f35b61037c610a75565b005b61039860048036038101906103939190612f32565b610a89565b005b6103a2610eba565b005b6103ac61106c565b6040516103b99190612ccc565b60405180910390f35b6103dc60048036038101906103d79190612dd0565b611096565b005b6103e6611152565b6040516103f39190612c06565b60405180910390f35b61041660048036038101906104119190612fcd565b6111e4565b005b610432600480360381019061042d91906130ae565b6111fa565b005b61044e60048036038101906104499190612c5e565b61125c565b60405161045b9190612c06565b60405180910390f35b61047e60048036038101906104799190613131565b611307565b60405161048b9190612b52565b60405180910390f35b6104ae60048036038101906104a99190613303565b61139b565b005b6104ca60048036038101906104c59190612dd0565b6114f8565b005b60007f780e9d63000000000000000000000000000000000000000000000000000000007bffffffffffffffffffffffffffffffffffffffffffffffffffffffff1916827bffffffffffffffffffffffffffffffffffffffffffffffffffffffff1916148061053f575061053e8261157c565b5b9050919050565b606060658054610555906133b5565b80601f0160208091040260200160405190810160405280929190818152602001828054610581906133b5565b80156105ce5780601f106105a3576101008083540402835291602001916105ce565b820191906000526020600020905b8154815290600101906020018083116105b157829003601f168201915b5050505050905090565b60006105e38261165e565b6069600083815260200190815260200160002060009054906101000a900473ffffffffffffffffffffffffffffffffffffffff169050919050565b60006106298261090b565b90508073ffffffffffffffffffffffffffffffffffffffff168373ffffffffffffffffffffffffffffffffffffffff16141561069a576040517f08c379a000000000000000000000000000000000000000000000000000000000815260040161069190613459565b60405180910390fd5b8073ffffffffffffffffffffffffffffffffffffffff166106b96116a9565b73ffffffffffffffffffffffffffffffffffffffff1614806106e857506106e7816106e26116a9565b611307565b5b610727576040517f08c379a000000000000000000000000000000000000000000000000000000000815260040161071e906134eb565b60405180910390fd5b61073183836116b8565b505050565b6000609980549050905090565b61075461074e6116a9565b82611771565b610793576040517f08c379a000000000000000000000000000000000000000000000000000000000815260040161078a9061357d565b60405180910390fd5b61079e838383611806565b505050565b60006107ae836109bd565b82106107ef576040517f08c379a00000000000000000000000000000000000000000000000000000000081526004016107e69061360f565b60405180910390fd5b609760008473ffffffffffffffffffffffffffffffffffffffff1673ffffffffffffffffffffffffffffffffffffffff168152602001908152602001600020600083815260200190815260200160002054905092915050565b610863838383604051806020016040528060008152506111fa565b505050565b610870611a6d565b61087981611aeb565b50565b6000610886610736565b82106108c7576040517f08c379a00000000000000000000000000000000000000000000000000000000081526004016108be906136a1565b60405180910390fd5b609982815481106108db576108da6136c1565b5b90600052602060002001549050919050565b60006101016000838152602001908152602001600020549050919050565b6000806067600084815260200190815260200160002060009054906101000a900473ffffffffffffffffffffffffffffffffffffffff169050600073ffffffffffffffffffffffffffffffffffffffff168173ffffffffffffffffffffffffffffffffffffffff1614156109b4576040517f08c379a00000000000000000000000000000000000000000000000000000000081526004016109ab9061373c565b60405180910390fd5b80915050919050565b60008073ffffffffffffffffffffffffffffffffffffffff168273ffffffffffffffffffffffffffffffffffffffff161415610a2e576040517f08c379a0000000000000000000000000000000000000000000000000000000008152600401610a25906137ce565b60405180910390fd5b606860008373ffffffffffffffffffffffffffffffffffffffff1673ffffffffffffffffffffffffffffffffffffffff168152602001908152602001600020549050919050565b610a7d611a6d565b610a876000611c08565b565b610a938183611cce565b610ad2576040517f08c379a0000000000000000000000000000000000000000000000000000000008152600401610ac99061383a565b60405180910390fd5b60006101016000848152602001908152602001600020541415610b2a576040517f08c379a0000000000000000000000000000000000000000000000000000000008152600401610b21906138a6565b60405180910390fd5b6000610b3d610b376116a9565b84611d01565b9050600060fe600083815260200190815260200160002060009054906101000a900460ff1690508015610ba5576040517f08c379a0000000000000000000000000000000000000000000000000000000008152600401610b9c90613912565b60405180910390fd5b600160fe600084815260200190815260200160002060006101000a81548160ff0219169083151502179055506000610be4610bde6116a9565b87611d01565b9050600060ff600083815260200190815260200160002054905060006101006000610c10896000611d34565b81526020019081526020016000208054610c29906133b5565b80601f0160208091040260200160405190810160405280929190818152602001828054610c55906133b5565b8015610ca25780601f10610c7757610100808354040283529160200191610ca2565b820191906000526020600020905b815481529060010190602001808311610c8557829003601f168201915b5050505050905060006101006000610cba8a86611d34565b81526020019081526020016000208054610cd3906133b5565b80601f0160208091040260200160405190810160405280929190818152602001828054610cff906133b5565b8015610d4c5780601f10610d2157610100808354040283529160200191610d4c565b820191906000526020600020905b815481529060010190602001808311610d2f57829003601f168201915b50505050509050604051602001610d6290613963565b6040516020818303038152906040528051906020012081604051602001610d8991906139a9565b6040516020818303038152906040528051906020012014610da8578091505b8160fd6000610db760fb611d67565b81526020019081526020016000209080519060200190610dd89291906129fb565b50610df3610de46116a9565b610dee60fb611d67565b611d75565b600183610e0091906139ef565b60ff600086815260200190815260200160002081905550600161010160008a815260200190815260200160002054610e389190613a45565b61010160008a815260200190815260200160002081905550610e5a60fb611d93565b610e626116a9565b73ffffffffffffffffffffffffffffffffffffffff167faf2fad1984d2c7abaa9300537cf9fe1bcfaf2d6226e4ffdf03522dbf3064808e83604051610ea79190612c06565b60405180910390a2505050505050505050565b60008060019054906101000a900460ff16159050808015610eeb5750600160008054906101000a900460ff1660ff16105b80610f185750610efa30611da9565b158015610f175750600160008054906101000a900460ff1660ff16145b5b610f57576040517f08c379a0000000000000000000000000000000000000000000000000000000008152600401610f4e90613aeb565b60405180910390fd5b60016000806101000a81548160ff021916908360ff1602179055508015610f94576001600060016101000a81548160ff0219169083151502179055505b6110086040518060400160405280600981526020017f4d696e7452616c6c7900000000000000000000000000000000000000000000008152506040518060400160405280600281526020017f4d52000000000000000000000000000000000000000000000000000000000000815250611dcc565b611010611e29565b80156110695760008060016101000a81548160ff0219169083151502179055507f7f26b83ff96e1f2b6a682f133852f6798a09c465da95921460cefb384740249860016040516110609190613b5d565b60405180910390a15b50565b600060c960009054906101000a900473ffffffffffffffffffffffffffffffffffffffff16905090565b61109e611a6d565b600073ffffffffffffffffffffffffffffffffffffffff168173ffffffffffffffffffffffffffffffffffffffff16141561110e576040517f08c379a000000000000000000000000000000000000000000000000000000000815260040161110590613bc4565b60405180910390fd5b8060fc60006101000a81548173ffffffffffffffffffffffffffffffffffffffff021916908373ffffffffffffffffffffffffffffffffffffffff16021790555050565b606060668054611161906133b5565b80601f016020809104026020016040519081016040528092919081815260200182805461118d906133b5565b80156111da5780601f106111af576101008083540402835291602001916111da565b820191906000526020600020905b8154815290600101906020018083116111bd57829003601f168201915b5050505050905090565b6111f66111ef6116a9565b8383611e82565b5050565b61120b6112056116a9565b83611771565b61124a576040517f08c379a00000000000000000000000000000000000000000000000000000000081526004016112419061357d565b60405180910390fd5b61125684848484611fef565b50505050565b6060600060fd6000848152602001908152602001600020805461127e906133b5565b80601f01602080910402602001604051908101604052809291908181526020018280546112aa906133b5565b80156112f75780601f106112cc576101008083540402835291602001916112f7565b820191906000526020600020905b8154815290600101906020018083116112da57829003601f168201915b5050505050905080915050919050565b6000606a60008473ffffffffffffffffffffffffffffffffffffffff1673ffffffffffffffffffffffffffffffffffffffff16815260200190815260200160002060008373ffffffffffffffffffffffffffffffffffffffff1673ffffffffffffffffffffffffffffffffffffffff16815260200190815260200160002060009054906101000a900460ff16905092915050565b60fc60009054906101000a900473ffffffffffffffffffffffffffffffffffffffff1673ffffffffffffffffffffffffffffffffffffffff166113dc6116a9565b73ffffffffffffffffffffffffffffffffffffffff1614611432576040517f08c379a000000000000000000000000000000000000000000000000000000000815260040161142990613c30565b60405180910390fd5b826101016000868152602001908152602001600020819055508161010260008681526020019081526020016000208190555060005b81518110156114f157818181518110611483576114826136c1565b5b60200260200101516000015161010060006114bc888686815181106114ab576114aa6136c1565b5b602002602001015160200151611d34565b815260200190815260200160002090805190602001906114dd9291906129fb565b5080806114e990613c50565b915050611467565b5050505050565b611500611a6d565b600073ffffffffffffffffffffffffffffffffffffffff168173ffffffffffffffffffffffffffffffffffffffff161415611570576040517f08c379a000000000000000000000000000000000000000000000000000000000815260040161156790613d0b565b60405180910390fd5b61157981611c08565b50565b60007f80ac58cd000000000000000000000000000000000000000000000000000000007bffffffffffffffffffffffffffffffffffffffffffffffffffffffff1916827bffffffffffffffffffffffffffffffffffffffffffffffffffffffff1916148061164757507f5b5e139f000000000000000000000000000000000000000000000000000000007bffffffffffffffffffffffffffffffffffffffffffffffffffffffff1916827bffffffffffffffffffffffffffffffffffffffffffffffffffffffff1916145b8061165757506116568261204b565b5b9050919050565b611667816120b5565b6116a6576040517f08c379a000000000000000000000000000000000000000000000000000000000815260040161169d9061373c565b60405180910390fd5b50565b60006116b3612121565b905090565b816069600083815260200190815260200160002060006101000a81548173ffffffffffffffffffffffffffffffffffffffff021916908373ffffffffffffffffffffffffffffffffffffffff160217905550808273ffffffffffffffffffffffffffffffffffffffff1661172b8361090b565b73ffffffffffffffffffffffffffffffffffffffff167f8c5be1e5ebec7d5bd14f71427d1e84f3dd0314c0f7b2291e5b200ac8c7c3b92560405160405180910390a45050565b60008061177d8361090b565b90508073ffffffffffffffffffffffffffffffffffffffff168473ffffffffffffffffffffffffffffffffffffffff1614806117bf57506117be8185611307565b5b806117fd57508373ffffffffffffffffffffffffffffffffffffffff166117e5846105d8565b73ffffffffffffffffffffffffffffffffffffffff16145b91505092915050565b8273ffffffffffffffffffffffffffffffffffffffff166118268261090b565b73ffffffffffffffffffffffffffffffffffffffff161461187c576040517f08c379a000000000000000000000000000000000000000000000000000000000815260040161187390613d9d565b60405180910390fd5b600073ffffffffffffffffffffffffffffffffffffffff168273ffffffffffffffffffffffffffffffffffffffff1614156118ec576040517f08c379a00000000000000000000000000000000000000000000000000000000081526004016118e390613e2f565b60405180910390fd5b6118f7838383612129565b6119026000826116b8565b6001606860008573ffffffffffffffffffffffffffffffffffffffff1673ffffffffffffffffffffffffffffffffffffffff16815260200190815260200160002060008282546119529190613a45565b925050819055506001606860008473ffffffffffffffffffffffffffffffffffffffff1673ffffffffffffffffffffffffffffffffffffffff16815260200190815260200160002060008282546119a991906139ef565b92505081905550816067600083815260200190815260200160002060006101000a81548173ffffffffffffffffffffffffffffffffffffffff021916908373ffffffffffffffffffffffffffffffffffffffff160217905550808273ffffffffffffffffffffffffffffffffffffffff168473ffffffffffffffffffffffffffffffffffffffff167fddf252ad1be2c89b69c2b068fc378daa952ba7f163c4a11628f55a4df523b3ef60405160405180910390a4611a6883838361223d565b505050565b611a756116a9565b73ffffffffffffffffffffffffffffffffffffffff16611a9361106c565b73ffffffffffffffffffffffffffffffffffffffff1614611ae9576040517f08c379a0000000000000000000000000000000000000000000000000000000008152600401611ae090613e9b565b60405180910390fd5b565b6000611af68261090b565b9050611b0481600084612129565b611b0f6000836116b8565b6001606860008373ffffffffffffffffffffffffffffffffffffffff1673ffffffffffffffffffffffffffffffffffffffff1681526020019081526020016000206000828254611b5f9190613a45565b925050819055506067600083815260200190815260200160002060006101000a81549073ffffffffffffffffffffffffffffffffffffffff021916905581600073ffffffffffffffffffffffffffffffffffffffff168273ffffffffffffffffffffffffffffffffffffffff167fddf252ad1be2c89b69c2b068fc378daa952ba7f163c4a11628f55a4df523b3ef60405160405180910390a4611c048160008461223d565b5050565b600060c960009054906101000a900473ffffffffffffffffffffffffffffffffffffffff1690508160c960006101000a81548173ffffffffffffffffffffffffffffffffffffffff021916908373ffffffffffffffffffffffffffffffffffffffff1602179055508173ffffffffffffffffffffffffffffffffffffffff168173ffffffffffffffffffffffffffffffffffffffff167f8be0079c531659141344cd1fd0a4f28419497f9722a3daafe3b4186f6b6457e060405160405180910390a35050565b60008083805190602001209050600081610102600086815260200190815260200160002054149050809250505092915050565b60008282604051602001611d16929190613f24565b60405160208183030381529060405280519060200120905092915050565b60008282604051602001611d49929190613f50565b60405160208183030381529060405280519060200120905092915050565b600081600001549050919050565b611d8f828260405180602001604052806000815250612242565b5050565b6001816000016000828254019250508190555050565b6000808273ffffffffffffffffffffffffffffffffffffffff163b119050919050565b600060019054906101000a900460ff16611e1b576040517f08c379a0000000000000000000000000000000000000000000000000000000008152600401611e1290613fee565b60405180910390fd5b611e25828261229d565b5050565b600060019054906101000a900460ff16611e78576040517f08c379a0000000000000000000000000000000000000000000000000000000008152600401611e6f90613fee565b60405180910390fd5b611e8061231e565b565b8173ffffffffffffffffffffffffffffffffffffffff168373ffffffffffffffffffffffffffffffffffffffff161415611ef1576040517f08c379a0000000000000000000000000000000000000000000000000000000008152600401611ee89061405a565b60405180910390fd5b80606a60008573ffffffffffffffffffffffffffffffffffffffff1673ffffffffffffffffffffffffffffffffffffffff16815260200190815260200160002060008473ffffffffffffffffffffffffffffffffffffffff1673ffffffffffffffffffffffffffffffffffffffff16815260200190815260200160002060006101000a81548160ff0219169083151502179055508173ffffffffffffffffffffffffffffffffffffffff168373ffffffffffffffffffffffffffffffffffffffff167f17307eab39ab6107e8899845ad3d59bd9653f200f220920489ca2b5937696c3183604051611fe29190612b52565b60405180910390a3505050565b611ffa848484611806565b6120068484848461237f565b612045576040517f08c379a000000000000000000000000000000000000000000000000000000000815260040161203c906140ec565b60405180910390fd5b50505050565b60007f01ffc9a7000000000000000000000000000000000000000000000000000000007bffffffffffffffffffffffffffffffffffffffffffffffffffffffff1916827bffffffffffffffffffffffffffffffffffffffffffffffffffffffff1916149050919050565b60008073ffffffffffffffffffffffffffffffffffffffff166067600084815260200190815260200160002060009054906101000a900473ffffffffffffffffffffffffffffffffffffffff1673ffffffffffffffffffffffffffffffffffffffff1614159050919050565b600033905090565b612134838383612516565b600073ffffffffffffffffffffffffffffffffffffffff168373ffffffffffffffffffffffffffffffffffffffff161415612177576121728161251b565b6121b6565b8173ffffffffffffffffffffffffffffffffffffffff168373ffffffffffffffffffffffffffffffffffffffff16146121b5576121b48382612564565b5b5b600073ffffffffffffffffffffffffffffffffffffffff168273ffffffffffffffffffffffffffffffffffffffff1614156121f9576121f4816126d1565b612238565b8273ffffffffffffffffffffffffffffffffffffffff168273ffffffffffffffffffffffffffffffffffffffff16146122375761223682826127a2565b5b5b505050565b505050565b61224c8383612821565b612259600084848461237f565b612298576040517f08c379a000000000000000000000000000000000000000000000000000000000815260040161228f906140ec565b60405180910390fd5b505050565b600060019054906101000a900460ff166122ec576040517f08c379a00000000000000000000000000000000000000000000000000000000081526004016122e390613fee565b60405180910390fd5b81606590805190602001906123029291906129fb565b5080606690805190602001906123199291906129fb565b505050565b600060019054906101000a900460ff1661236d576040517f08c379a000000000000000000000000000000000000000000000000000000000815260040161236490613fee565b60405180910390fd5b61237d6123786116a9565b611c08565b565b60006123a08473ffffffffffffffffffffffffffffffffffffffff16611da9565b15612509578373ffffffffffffffffffffffffffffffffffffffff1663150b7a026123c96116a9565b8786866040518563ffffffff1660e01b81526004016123eb9493929190614161565b602060405180830381600087803b15801561240557600080fd5b505af192505050801561243657506040513d601f19601f8201168201806040525081019061243391906141c2565b60015b6124b9573d8060008114612466576040519150601f19603f3d011682016040523d82523d6000602084013e61246b565b606091505b506000815114156124b1576040517f08c379a00000000000000000000000000000000000000000000000000000000081526004016124a8906140ec565b60405180910390fd5b805181602001fd5b63150b7a0260e01b7bffffffffffffffffffffffffffffffffffffffffffffffffffffffff1916817bffffffffffffffffffffffffffffffffffffffffffffffffffffffff19161491505061250e565b600190505b949350505050565b505050565b609980549050609a600083815260200190815260200160002081905550609981908060018154018082558091505060019003906000526020600020016000909190919091505550565b60006001612571846109bd565b61257b9190613a45565b9050600060986000848152602001908152602001600020549050818114612660576000609760008673ffffffffffffffffffffffffffffffffffffffff1673ffffffffffffffffffffffffffffffffffffffff168152602001908152602001600020600084815260200190815260200160002054905080609760008773ffffffffffffffffffffffffffffffffffffffff1673ffffffffffffffffffffffffffffffffffffffff168152602001908152602001600020600084815260200190815260200160002081905550816098600083815260200190815260200160002081905550505b6098600084815260200190815260200160002060009055609760008573ffffffffffffffffffffffffffffffffffffffff1673ffffffffffffffffffffffffffffffffffffffff16815260200190815260200160002060008381526020019081526020016000206000905550505050565b600060016099805490506126e59190613a45565b90506000609a6000848152602001908152602001600020549050600060998381548110612715576127146136c1565b5b906000526020600020015490508060998381548110612737576127366136c1565b5b906000526020600020018190555081609a600083815260200190815260200160002081905550609a6000858152602001908152602001600020600090556099805480612786576127856141ef565b5b6001900381819060005260206000200160009055905550505050565b60006127ad836109bd565b905081609760008573ffffffffffffffffffffffffffffffffffffffff1673ffffffffffffffffffffffffffffffffffffffff168152602001908152602001600020600083815260200190815260200160002081905550806098600084815260200190815260200160002081905550505050565b600073ffffffffffffffffffffffffffffffffffffffff168273ffffffffffffffffffffffffffffffffffffffff161415612891576040517f08c379a00000000000000000000000000000000000000000000000000000000081526004016128889061426a565b60405180910390fd5b61289a816120b5565b156128da576040517f08c379a00000000000000000000000000000000000000000000000000000000081526004016128d1906142d6565b60405180910390fd5b6128e660008383612129565b6001606860008473ffffffffffffffffffffffffffffffffffffffff1673ffffffffffffffffffffffffffffffffffffffff168152602001908152602001600020600082825461293691906139ef565b92505081905550816067600083815260200190815260200160002060006101000a81548173ffffffffffffffffffffffffffffffffffffffff021916908373ffffffffffffffffffffffffffffffffffffffff160217905550808273ffffffffffffffffffffffffffffffffffffffff16600073ffffffffffffffffffffffffffffffffffffffff167fddf252ad1be2c89b69c2b068fc378daa952ba7f163c4a11628f55a4df523b3ef60405160405180910390a46129f76000838361223d565b5050565b828054612a07906133b5565b90600052602060002090601f016020900481019282612a295760008555612a70565b82601f10612a4257805160ff1916838001178555612a70565b82800160010185558215612a70579182015b82811115612a6f578251825591602001919060010190612a54565b5b509050612a7d9190612a81565b5090565b5b80821115612a9a576000816000905550600101612a82565b5090565b6000604051905090565b600080fd5b600080fd5b60007fffffffff0000000000000000000000000000000000000000000000000000000082169050919050565b612ae781612ab2565b8114612af257600080fd5b50565b600081359050612b0481612ade565b92915050565b600060208284031215612b2057612b1f612aa8565b5b6000612b2e84828501612af5565b91505092915050565b60008115159050919050565b612b4c81612b37565b82525050565b6000602082019050612b676000830184612b43565b92915050565b600081519050919050565b600082825260208201905092915050565b60005b83811015612ba7578082015181840152602081019050612b8c565b83811115612bb6576000848401525b50505050565b6000601f19601f8301169050919050565b6000612bd882612b6d565b612be28185612b78565b9350612bf2818560208601612b89565b612bfb81612bbc565b840191505092915050565b60006020820190508181036000830152612c208184612bcd565b905092915050565b6000819050919050565b612c3b81612c28565b8114612c4657600080fd5b50565b600081359050612c5881612c32565b92915050565b600060208284031215612c7457612c73612aa8565b5b6000612c8284828501612c49565b91505092915050565b600073ffffffffffffffffffffffffffffffffffffffff82169050919050565b6000612cb682612c8b565b9050919050565b612cc681612cab565b82525050565b6000602082019050612ce16000830184612cbd565b92915050565b612cf081612cab565b8114612cfb57600080fd5b50565b600081359050612d0d81612ce7565b92915050565b60008060408385031215612d2a57612d29612aa8565b5b6000612d3885828601612cfe565b9250506020612d4985828601612c49565b9150509250929050565b612d5c81612c28565b82525050565b6000602082019050612d776000830184612d53565b92915050565b600080600060608486031215612d9657612d95612aa8565b5b6000612da486828701612cfe565b9350506020612db586828701612cfe565b9250506040612dc686828701612c49565b9150509250925092565b600060208284031215612de657612de5612aa8565b5b6000612df484828501612cfe565b91505092915050565b600080fd5b600080fd5b7f4e487b7100000000000000000000000000000000000000000000000000000000600052604160045260246000fd5b612e3f82612bbc565b810181811067ffffffffffffffff82111715612e5e57612e5d612e07565b5b80604052505050565b6000612e71612a9e565b9050612e7d8282612e36565b919050565b600067ffffffffffffffff821115612e9d57612e9c612e07565b5b612ea682612bbc565b9050602081019050919050565b82818337600083830152505050565b6000612ed5612ed084612e82565b612e67565b905082815260208101848484011115612ef157612ef0612e02565b5b612efc848285612eb3565b509392505050565b600082601f830112612f1957612f18612dfd565b5b8135612f29848260208601612ec2565b91505092915050565b600080600060608486031215612f4b57612f4a612aa8565b5b6000612f5986828701612c49565b9350506020612f6a86828701612c49565b925050604084013567ffffffffffffffff811115612f8b57612f8a612aad565b5b612f9786828701612f04565b9150509250925092565b612faa81612b37565b8114612fb557600080fd5b50565b600081359050612fc781612fa1565b92915050565b60008060408385031215612fe457612fe3612aa8565b5b6000612ff285828601612cfe565b925050602061300385828601612fb8565b9150509250929050565b600067ffffffffffffffff82111561302857613027612e07565b5b61303182612bbc565b9050602081019050919050565b600061305161304c8461300d565b612e67565b90508281526020810184848401111561306d5761306c612e02565b5b613078848285612eb3565b509392505050565b600082601f83011261309557613094612dfd565b5b81356130a584826020860161303e565b91505092915050565b600080600080608085870312156130c8576130c7612aa8565b5b60006130d687828801612cfe565b94505060206130e787828801612cfe565b93505060406130f887828801612c49565b925050606085013567ffffffffffffffff81111561311957613118612aad565b5b61312587828801613080565b91505092959194509250565b6000806040838503121561314857613147612aa8565b5b600061315685828601612cfe565b925050602061316785828601612cfe565b9150509250929050565b6000819050919050565b61318481613171565b811461318f57600080fd5b50565b6000813590506131a18161317b565b92915050565b600067ffffffffffffffff8211156131c2576131c1612e07565b5b602082029050602081019050919050565b600080fd5b600080fd5b600080fd5b6000604082840312156131f8576131f76131d8565b5b6132026040612e67565b9050600082013567ffffffffffffffff811115613222576132216131dd565b5b61322e84828501612f04565b600083015250602061324284828501612c49565b60208301525092915050565b600061326161325c846131a7565b612e67565b90508083825260208201905060208402830185811115613284576132836131d3565b5b835b818110156132cb57803567ffffffffffffffff8111156132a9576132a8612dfd565b5b8086016132b689826131e2565b85526020850194505050602081019050613286565b5050509392505050565b600082601f8301126132ea576132e9612dfd565b5b81356132fa84826020860161324e565b91505092915050565b6000806000806080858703121561331d5761331c612aa8565b5b600061332b87828801612c49565b945050602061333c87828801612c49565b935050604061334d87828801613192565b925050606085013567ffffffffffffffff81111561336e5761336d612aad565b5b61337a878288016132d5565b91505092959194509250565b7f4e487b7100000000000000000000000000000000000000000000000000000000600052602260045260246000fd5b600060028204905060018216806133cd57607f821691505b602082108114156133e1576133e0613386565b5b50919050565b7f4552433732313a20617070726f76616c20746f2063757272656e74206f776e6560008201527f7200000000000000000000000000000000000000000000000000000000000000602082015250565b6000613443602183612b78565b915061344e826133e7565b604082019050919050565b6000602082019050818103600083015261347281613436565b9050919050565b7f4552433732313a20617070726f76652063616c6c6572206973206e6f7420746f60008201527f6b656e206f776e6572206e6f7220617070726f76656420666f7220616c6c0000602082015250565b60006134d5603e83612b78565b91506134e082613479565b604082019050919050565b60006020820190508181036000830152613504816134c8565b9050919050565b7f4552433732313a2063616c6c6572206973206e6f7420746f6b656e206f776e6560008201527f72206e6f7220617070726f766564000000000000000000000000000000000000602082015250565b6000613567602e83612b78565b91506135728261350b565b604082019050919050565b600060208201905081810360008301526135968161355a565b9050919050565b7f455243373231456e756d657261626c653a206f776e657220696e646578206f7560008201527f74206f6620626f756e6473000000000000000000000000000000000000000000602082015250565b60006135f9602b83612b78565b91506136048261359d565b604082019050919050565b60006020820190508181036000830152613628816135ec565b9050919050565b7f455243373231456e756d657261626c653a20676c6f62616c20696e646578206f60008201527f7574206f6620626f756e64730000000000000000000000000000000000000000602082015250565b600061368b602c83612b78565b91506136968261362f565b604082019050919050565b600060208201905081810360008301526136ba8161367e565b9050919050565b7f4e487b7100000000000000000000000000000000000000000000000000000000600052603260045260246000fd5b7f4552433732313a20696e76616c696420746f6b656e2049440000000000000000600082015250565b6000613726601883612b78565b9150613731826136f0565b602082019050919050565b6000602082019050818103600083015261375581613719565b9050919050565b7f4552433732313a2061646472657373207a65726f206973206e6f74206120766160008201527f6c6964206f776e65720000000000000000000000000000000000000000000000602082015250565b60006137b8602983612b78565b91506137c38261375c565b604082019050919050565b600060208201905081810360008301526137e7816137ab565b9050919050565b7f696e76616c696420736563726574207068726173650000000000000000000000600082015250565b6000613824601583612b78565b915061382f826137ee565b602082019050919050565b6000602082019050818103600083015261385381613817565b9050919050565b7f72656d61696e696e6720636f756e74206973207a65726f000000000000000000600082015250565b6000613890601783612b78565b915061389b8261385a565b602082019050919050565b600060208201905081810360008301526138bf81613883565b9050919050565b7f616c7265616479206d696e746564000000000000000000000000000000000000600082015250565b60006138fc600e83612b78565b9150613907826138c6565b602082019050919050565b6000602082019050818103600083015261392b816138ef565b9050919050565b600081905092915050565b50565b600061394d600083613932565b91506139588261393d565b600082019050919050565b600061396e82613940565b9150819050919050565b600061398382612b6d565b61398d8185613932565b935061399d818560208601612b89565b80840191505092915050565b60006139b58284613978565b915081905092915050565b7f4e487b7100000000000000000000000000000000000000000000000000000000600052601160045260246000fd5b60006139fa82612c28565b9150613a0583612c28565b9250827fffffffffffffffffffffffffffffffffffffffffffffffffffffffffffffffff03821115613a3a57613a396139c0565b5b828201905092915050565b6000613a5082612c28565b9150613a5b83612c28565b925082821015613a6e57613a6d6139c0565b5b828203905092915050565b7f496e697469616c697a61626c653a20636f6e747261637420697320616c72656160008201527f647920696e697469616c697a6564000000000000000000000000000000000000602082015250565b6000613ad5602e83612b78565b9150613ae082613a79565b604082019050919050565b60006020820190508181036000830152613b0481613ac8565b9050919050565b6000819050919050565b600060ff82169050919050565b6000819050919050565b6000613b47613b42613b3d84613b0b565b613b22565b613b15565b9050919050565b613b5781613b2c565b82525050565b6000602082019050613b726000830184613b4e565b92915050565b7f6576656e74206d616e61676572206164647265737320697320626c616e6b0000600082015250565b6000613bae601e83612b78565b9150613bb982613b78565b602082019050919050565b60006020820190508181036000830152613bdd81613ba1565b9050919050565b7f756e617574686f72697a65640000000000000000000000000000000000000000600082015250565b6000613c1a600c83612b78565b9150613c2582613be4565b602082019050919050565b60006020820190508181036000830152613c4981613c0d565b9050919050565b6000613c5b82612c28565b91507fffffffffffffffffffffffffffffffffffffffffffffffffffffffffffffffff821415613c8e57613c8d6139c0565b5b600182019050919050565b7f4f776e61626c653a206e6577206f776e657220697320746865207a65726f206160008201527f6464726573730000000000000000000000000000000000000000000000000000602082015250565b6000613cf5602683612b78565b9150613d0082613c99565b604082019050919050565b60006020820190508181036000830152613d2481613ce8565b9050919050565b7f4552433732313a207472616e736665722066726f6d20696e636f72726563742060008201527f6f776e6572000000000000000000000000000000000000000000000000000000602082015250565b6000613d87602583612b78565b9150613d9282613d2b565b604082019050919050565b60006020820190508181036000830152613db681613d7a565b9050919050565b7f4552433732313a207472616e7366657220746f20746865207a65726f2061646460008201527f7265737300000000000000000000000000000000000000000000000000000000602082015250565b6000613e19602483612b78565b9150613e2482613dbd565b604082019050919050565b60006020820190508181036000830152613e4881613e0c565b9050919050565b7f4f776e61626c653a2063616c6c6572206973206e6f7420746865206f776e6572600082015250565b6000613e85602083612b78565b9150613e9082613e4f565b602082019050919050565b60006020820190508181036000830152613eb481613e78565b9050919050565b60008160601b9050919050565b6000613ed382613ebb565b9050919050565b6000613ee582613ec8565b9050919050565b613efd613ef882612cab565b613eda565b82525050565b6000819050919050565b613f1e613f1982612c28565b613f03565b82525050565b6000613f308285613eec565b601482019150613f408284613f0d565b6020820191508190509392505050565b6000613f5c8285613f0d565b602082019150613f6c8284613f0d565b6020820191508190509392505050565b7f496e697469616c697a61626c653a20636f6e7472616374206973206e6f74206960008201527f6e697469616c697a696e67000000000000000000000000000000000000000000602082015250565b6000613fd8602b83612b78565b9150613fe382613f7c565b604082019050919050565b6000602082019050818103600083015261400781613fcb565b9050919050565b7f4552433732313a20617070726f766520746f2063616c6c657200000000000000600082015250565b6000614044601983612b78565b915061404f8261400e565b602082019050919050565b6000602082019050818103600083015261407381614037565b9050919050565b7f4552433732313a207472616e7366657220746f206e6f6e20455243373231526560008201527f63656976657220696d706c656d656e7465720000000000000000000000000000602082015250565b60006140d6603283612b78565b91506140e18261407a565b604082019050919050565b60006020820190508181036000830152614105816140c9565b9050919050565b600081519050919050565b600082825260208201905092915050565b60006141338261410c565b61413d8185614117565b935061414d818560208601612b89565b61415681612bbc565b840191505092915050565b60006080820190506141766000830187612cbd565b6141836020830186612cbd565b6141906040830185612d53565b81810360608301526141a28184614128565b905095945050505050565b6000815190506141bc81612ade565b92915050565b6000602082840312156141d8576141d7612aa8565b5b60006141e6848285016141ad565b91505092915050565b7f4e487b7100000000000000000000000000000000000000000000000000000000600052603160045260246000fd5b7f4552433732313a206d696e7420746f20746865207a65726f2061646472657373600082015250565b6000614254602083612b78565b915061425f8261421e565b602082019050919050565b6000602082019050818103600083015261428381614247565b9050919050565b7f4552433732313a20746f6b656e20616c7265616479206d696e74656400000000600082015250565b60006142c0601c83612b78565b91506142cb8261428a565b602082019050919050565b600060208201905081810360008301526142ef816142b3565b905091905056fea2646970667358221220438602ae6491eb3f7a1b4f75a74f0bd0bf5ec019ded5b9c5c81960df6b16663264736f6c63430008090033",
  "linkReferences": {},
  "deployedLinkReferences": {}
}