{
  "_format": "hh-sol-artifact-1",
  "contractName": "MintNFT",
  "sourceName": "contracts/MintNFT.sol",
  "abi": [
    {
      "anonymous": false,
      "inputs": [
        {
          "indexed": true,
          "internalType": "address",
          "name": "owner",
          "type": "address"
        },
        {
          "indexed": true,
          "internalType": "address",
          "name": "approved",
          "type": "address"
        },
        {
          "indexed": true,
          "internalType": "uint256",
          "name": "tokenId",
          "type": "uint256"
        }
      ],
      "name": "Approval",
      "type": "event"
    },
    {
      "anonymous": false,
      "inputs": [
        {
          "indexed": true,
          "internalType": "address",
          "name": "owner",
          "type": "address"
        },
        {
          "indexed": true,
          "internalType": "address",
          "name": "operator",
          "type": "address"
        },
        {
          "indexed": false,
          "internalType": "bool",
          "name": "approved",
          "type": "bool"
        }
      ],
      "name": "ApprovalForAll",
      "type": "event"
    },
    {
      "anonymous": false,
      "inputs": [
        {
          "indexed": false,
          "internalType": "uint8",
          "name": "version",
          "type": "uint8"
        }
      ],
      "name": "Initialized",
      "type": "event"
    },
    {
      "anonymous": false,
      "inputs": [
        {
          "indexed": true,
          "internalType": "address",
          "name": "previousOwner",
          "type": "address"
        },
        {
          "indexed": true,
          "internalType": "address",
          "name": "newOwner",
          "type": "address"
        }
      ],
      "name": "OwnershipTransferred",
      "type": "event"
    },
    {
      "anonymous": false,
      "inputs": [
        {
          "indexed": true,
          "internalType": "address",
          "name": "from",
          "type": "address"
        },
        {
          "indexed": true,
          "internalType": "address",
          "name": "to",
          "type": "address"
        },
        {
          "indexed": true,
          "internalType": "uint256",
          "name": "tokenId",
          "type": "uint256"
        }
      ],
      "name": "Transfer",
      "type": "event"
    },
    {
      "inputs": [
        {
          "internalType": "address",
          "name": "to",
          "type": "address"
        },
        {
          "internalType": "uint256",
          "name": "tokenId",
          "type": "uint256"
        }
      ],
      "name": "approve",
      "outputs": [],
      "stateMutability": "nonpayable",
      "type": "function"
    },
    {
      "inputs": [
        {
          "internalType": "address",
          "name": "owner",
          "type": "address"
        }
      ],
      "name": "balanceOf",
      "outputs": [
        {
          "internalType": "uint256",
          "name": "",
          "type": "uint256"
        }
      ],
      "stateMutability": "view",
      "type": "function"
    },
    {
      "inputs": [
        {
          "internalType": "uint256",
          "name": "tokenId",
          "type": "uint256"
        }
      ],
      "name": "getApproved",
      "outputs": [
        {
          "internalType": "address",
          "name": "",
          "type": "address"
        }
      ],
      "stateMutability": "view",
      "type": "function"
    },
    {
      "inputs": [
        {
          "internalType": "uint256",
          "name": "_groupId",
          "type": "uint256"
        }
      ],
      "name": "getGroupNFTAttributes",
      "outputs": [
        {
          "components": [
            {
              "internalType": "string",
              "name": "name",
              "type": "string"
            },
            {
              "internalType": "string",
              "name": "image",
              "type": "string"
            },
            {
              "internalType": "string",
              "name": "description",
              "type": "string"
            },
            {
              "internalType": "uint256",
              "name": "groupId",
              "type": "uint256"
            },
            {
              "internalType": "uint256",
              "name": "eventId",
              "type": "uint256"
            },
            {
              "internalType": "uint256",
              "name": "requiredParticipateCount",
              "type": "uint256"
            }
          ],
          "internalType": "struct MintNFT.ParticipateNFTAttributes[]",
          "name": "",
          "type": "tuple[]"
        }
      ],
      "stateMutability": "view",
      "type": "function"
    },
    {
      "inputs": [],
      "name": "getOwnedNFTs",
      "outputs": [
        {
          "components": [
            {
              "internalType": "string",
              "name": "name",
              "type": "string"
            },
            {
              "internalType": "string",
              "name": "image",
              "type": "string"
            },
            {
              "internalType": "string",
              "name": "description",
              "type": "string"
            },
            {
              "internalType": "uint256",
              "name": "groupId",
              "type": "uint256"
            },
            {
              "internalType": "uint256",
              "name": "eventId",
              "type": "uint256"
            },
            {
              "internalType": "uint256",
              "name": "requiredParticipateCount",
              "type": "uint256"
            }
          ],
          "internalType": "struct MintNFT.ParticipateNFTAttributes[]",
          "name": "",
          "type": "tuple[]"
        }
      ],
      "stateMutability": "view",
      "type": "function"
    },
    {
      "inputs": [],
      "name": "initialize",
      "outputs": [],
      "stateMutability": "nonpayable",
      "type": "function"
    },
    {
      "inputs": [
        {
          "internalType": "address",
          "name": "owner",
          "type": "address"
        },
        {
          "internalType": "address",
          "name": "operator",
          "type": "address"
        }
      ],
      "name": "isApprovedForAll",
      "outputs": [
        {
          "internalType": "bool",
          "name": "",
          "type": "bool"
        }
      ],
      "stateMutability": "view",
      "type": "function"
    },
    {
      "inputs": [
        {
          "internalType": "uint256",
          "name": "_groupId",
          "type": "uint256"
        },
        {
          "internalType": "uint256",
          "name": "_eventId",
          "type": "uint256"
        },
        {
          "internalType": "string",
          "name": "_secretPhrase",
          "type": "string"
        }
      ],
      "name": "mintParticipateNFT",
      "outputs": [
        {
          "internalType": "string",
          "name": "",
          "type": "string"
        }
      ],
      "stateMutability": "nonpayable",
      "type": "function"
    },
    {
      "inputs": [],
      "name": "name",
      "outputs": [
        {
          "internalType": "string",
          "name": "",
          "type": "string"
        }
      ],
      "stateMutability": "view",
      "type": "function"
    },
    {
      "inputs": [],
      "name": "owner",
      "outputs": [
        {
          "internalType": "address",
          "name": "",
          "type": "address"
        }
      ],
      "stateMutability": "view",
      "type": "function"
    },
    {
      "inputs": [
        {
          "internalType": "uint256",
          "name": "tokenId",
          "type": "uint256"
        }
      ],
      "name": "ownerOf",
      "outputs": [
        {
          "internalType": "address",
          "name": "",
          "type": "address"
        }
      ],
      "stateMutability": "view",
      "type": "function"
    },
    {
      "inputs": [
        {
          "internalType": "uint256",
          "name": "groupId",
          "type": "uint256"
        },
        {
          "components": [
            {
              "internalType": "string",
              "name": "name",
              "type": "string"
            },
            {
              "internalType": "string",
              "name": "image",
              "type": "string"
            },
            {
              "internalType": "string",
              "name": "description",
              "type": "string"
            },
            {
              "internalType": "uint256",
              "name": "groupId",
              "type": "uint256"
            },
            {
              "internalType": "uint256",
              "name": "eventId",
              "type": "uint256"
            },
            {
              "internalType": "uint256",
              "name": "requiredParticipateCount",
              "type": "uint256"
            }
          ],
          "internalType": "struct MintNFT.ParticipateNFTAttributes[]",
          "name": "attributes",
          "type": "tuple[]"
        }
      ],
      "name": "pushGroupNFTAttributes",
      "outputs": [],
      "stateMutability": "nonpayable",
      "type": "function"
    },
    {
      "inputs": [],
      "name": "renounceOwnership",
      "outputs": [],
      "stateMutability": "nonpayable",
      "type": "function"
    },
    {
      "inputs": [
        {
          "internalType": "address",
          "name": "from",
          "type": "address"
        },
        {
          "internalType": "address",
          "name": "to",
          "type": "address"
        },
        {
          "internalType": "uint256",
          "name": "tokenId",
          "type": "uint256"
        }
      ],
      "name": "safeTransferFrom",
      "outputs": [],
      "stateMutability": "nonpayable",
      "type": "function"
    },
    {
      "inputs": [
        {
          "internalType": "address",
          "name": "from",
          "type": "address"
        },
        {
          "internalType": "address",
          "name": "to",
          "type": "address"
        },
        {
          "internalType": "uint256",
          "name": "tokenId",
          "type": "uint256"
        },
        {
          "internalType": "bytes",
          "name": "data",
          "type": "bytes"
        }
      ],
      "name": "safeTransferFrom",
      "outputs": [],
      "stateMutability": "nonpayable",
      "type": "function"
    },
    {
      "inputs": [
        {
          "internalType": "address",
          "name": "operator",
          "type": "address"
        },
        {
          "internalType": "bool",
          "name": "approved",
          "type": "bool"
        }
      ],
      "name": "setApprovalForAll",
      "outputs": [],
      "stateMutability": "nonpayable",
      "type": "function"
    },
    {
      "inputs": [
        {
          "internalType": "address",
          "name": "_eventManagerAddr",
          "type": "address"
        }
      ],
      "name": "setEventManagerAddr",
      "outputs": [],
      "stateMutability": "nonpayable",
      "type": "function"
    },
    {
      "inputs": [
        {
          "internalType": "bytes4",
          "name": "interfaceId",
          "type": "bytes4"
        }
      ],
      "name": "supportsInterface",
      "outputs": [
        {
          "internalType": "bool",
          "name": "",
          "type": "bool"
        }
      ],
      "stateMutability": "view",
      "type": "function"
    },
    {
      "inputs": [],
      "name": "symbol",
      "outputs": [
        {
          "internalType": "string",
          "name": "",
          "type": "string"
        }
      ],
      "stateMutability": "view",
      "type": "function"
    },
    {
      "inputs": [
        {
          "internalType": "uint256",
          "name": "index",
          "type": "uint256"
        }
      ],
      "name": "tokenByIndex",
      "outputs": [
        {
          "internalType": "uint256",
          "name": "",
          "type": "uint256"
        }
      ],
      "stateMutability": "view",
      "type": "function"
    },
    {
      "inputs": [
        {
          "internalType": "address",
          "name": "owner",
          "type": "address"
        },
        {
          "internalType": "uint256",
          "name": "index",
          "type": "uint256"
        }
      ],
      "name": "tokenOfOwnerByIndex",
      "outputs": [
        {
          "internalType": "uint256",
          "name": "",
          "type": "uint256"
        }
      ],
      "stateMutability": "view",
      "type": "function"
    },
    {
      "inputs": [
        {
          "internalType": "uint256",
          "name": "_tokenId",
          "type": "uint256"
        }
      ],
      "name": "tokenURI",
      "outputs": [
        {
          "internalType": "string",
          "name": "",
          "type": "string"
        }
      ],
      "stateMutability": "view",
      "type": "function"
    },
    {
      "inputs": [],
      "name": "totalSupply",
      "outputs": [
        {
          "internalType": "uint256",
          "name": "",
          "type": "uint256"
        }
      ],
      "stateMutability": "view",
      "type": "function"
    },
    {
      "inputs": [
        {
          "internalType": "address",
          "name": "from",
          "type": "address"
        },
        {
          "internalType": "address",
          "name": "to",
          "type": "address"
        },
        {
          "internalType": "uint256",
          "name": "tokenId",
          "type": "uint256"
        }
      ],
      "name": "transferFrom",
      "outputs": [],
      "stateMutability": "nonpayable",
      "type": "function"
    },
    {
      "inputs": [
        {
          "internalType": "address",
          "name": "newOwner",
          "type": "address"
        }
      ],
      "name": "transferOwnership",
      "outputs": [],
      "stateMutability": "nonpayable",
      "type": "function"
    }
  ],
  "bytecode": "0x608060405234801561001057600080fd5b5061582580620000216000396000f3fe608060405234801561001057600080fd5b50600436106101735760003560e01c8063715018a6116100de578063a22cb46511610097578063d9bfb10c11610071578063d9bfb10c1461044a578063db95442314610466578063e985e9c514610496578063f2fde38b146104c657610173565b8063a22cb465146103e2578063b88d4fde146103fe578063c87b56dd1461041a57610173565b8063715018a61461034657806372746a8d146103505780638129fc1c146103805780638da5cb5b1461038a5780639041e3f4146103a857806395d89b41146103c457610173565b80632f745c59116101305780632f745c591461024c57806342842e0e1461027c5780634c0eb7d9146102985780634f6ccce7146102b65780636352211e146102e657806370a082311461031657610173565b806301ffc9a71461017857806306fdde03146101a8578063081812fc146101c6578063095ea7b3146101f657806318160ddd1461021257806323b872dd14610230575b600080fd5b610192600480360381019061018d9190613fc9565b6104e2565b60405161019f91906148ab565b60405180910390f35b6101b061055c565b6040516101bd91906148e1565b60405180910390f35b6101e060048036038101906101db919061405c565b6105ee565b6040516101ed9190614822565b60405180910390f35b610210600480360381019061020b9190613f64565b610634565b005b61021a61074c565b6040516102279190614bb3565b60405180910390f35b61024a60048036038101906102459190613e5e565b610759565b005b61026660048036038101906102619190613f64565b6107b9565b6040516102739190614bb3565b60405180910390f35b61029660048036038101906102919190613e5e565b61085e565b005b6102a061087e565b6040516102ad9190614889565b60405180910390f35b6102d060048036038101906102cb919061405c565b61089b565b6040516102dd9190614bb3565b60405180910390f35b61030060048036038101906102fb919061405c565b610932565b60405161030d9190614822565b60405180910390f35b610330600480360381019061032b9190613df9565b6109e4565b60405161033d9190614bb3565b60405180910390f35b61034e610a9c565b005b61036a600480360381019061036591906140d9565b610ab0565b60405161037791906148e1565b60405180910390f35b6103886111c3565b005b610392611375565b60405161039f9190614822565b60405180910390f35b6103c260048036038101906103bd9190613df9565b61139f565b005b6103cc61145b565b6040516103d991906148e1565b60405180910390f35b6103fc60048036038101906103f79190613f28565b6114ed565b005b61041860048036038101906104139190613ead565b611503565b005b610434600480360381019061042f919061405c565b611565565b60405161044191906148e1565b60405180910390f35b610464600480360381019061045f9190614085565b6117ee565b005b610480600480360381019061047b919061405c565b611a8a565b60405161048d9190614889565b60405180910390f35b6104b060048036038101906104ab9190613e22565b611cd0565b6040516104bd91906148ab565b60405180910390f35b6104e060048036038101906104db9190613df9565b611d64565b005b60007f780e9d63000000000000000000000000000000000000000000000000000000007bffffffffffffffffffffffffffffffffffffffffffffffffffffffff1916827bffffffffffffffffffffffffffffffffffffffffffffffffffffffff19161480610555575061055482611de8565b5b9050919050565b60606065805461056b90614f02565b80601f016020809104026020016040519081016040528092919081815260200182805461059790614f02565b80156105e45780601f106105b9576101008083540402835291602001916105e4565b820191906000526020600020905b8154815290600101906020018083116105c757829003601f168201915b5050505050905090565b60006105f982611eca565b6069600083815260200190815260200160002060009054906101000a900473ffffffffffffffffffffffffffffffffffffffff169050919050565b600061063f82610932565b90508073ffffffffffffffffffffffffffffffffffffffff168373ffffffffffffffffffffffffffffffffffffffff1614156106b0576040517f08c379a00000000000000000000000000000000000000000000000000000000081526004016106a790614b33565b60405180910390fd5b8073ffffffffffffffffffffffffffffffffffffffff166106cf611f15565b73ffffffffffffffffffffffffffffffffffffffff1614806106fe57506106fd816106f8611f15565b611cd0565b5b61073d576040517f08c379a000000000000000000000000000000000000000000000000000000000815260040161073490614a73565b60405180910390fd5b6107478383611f24565b505050565b6000609980549050905090565b61076a610764611f15565b82611fdd565b6107a9576040517f08c379a00000000000000000000000000000000000000000000000000000000081526004016107a090614b93565b60405180910390fd5b6107b4838383612072565b505050565b60006107c4836109e4565b8210610805576040517f08c379a00000000000000000000000000000000000000000000000000000000081526004016107fc90614933565b60405180910390fd5b609760008473ffffffffffffffffffffffffffffffffffffffff1673ffffffffffffffffffffffffffffffffffffffff168152602001908152602001600020600083815260200190815260200160002054905092915050565b61087983838360405180602001604052806000815250611503565b505050565b6060600061089261088d611f15565b6122d9565b90508091505090565b60006108a561074c565b82106108e6576040517f08c379a00000000000000000000000000000000000000000000000000000000081526004016108dd90614b53565b60405180910390fd5b60998281548110610920577f4e487b7100000000000000000000000000000000000000000000000000000000600052603260045260246000fd5b90600052602060002001549050919050565b6000806067600084815260200190815260200160002060009054906101000a900473ffffffffffffffffffffffffffffffffffffffff169050600073ffffffffffffffffffffffffffffffffffffffff168173ffffffffffffffffffffffffffffffffffffffff1614156109db576040517f08c379a00000000000000000000000000000000000000000000000000000000081526004016109d290614b13565b60405180910390fd5b80915050919050565b60008073ffffffffffffffffffffffffffffffffffffffff168273ffffffffffffffffffffffffffffffffffffffff161415610a55576040517f08c379a0000000000000000000000000000000000000000000000000000000008152600401610a4c90614a13565b60405180910390fd5b606860008373ffffffffffffffffffffffffffffffffffffffff1673ffffffffffffffffffffffffffffffffffffffff168152602001908152602001600020549050919050565b610aa46126ed565b610aae600061276b565b565b6060600060fe6000868152602001908152602001600020805480602002602001604051908101604052809291908181526020016000905b82821015610ced57838290600052602060002090600602016040518060c0016040529081600082018054610b1a90614f02565b80601f0160208091040260200160405190810160405280929190818152602001828054610b4690614f02565b8015610b935780601f10610b6857610100808354040283529160200191610b93565b820191906000526020600020905b815481529060010190602001808311610b7657829003601f168201915b50505050508152602001600182018054610bac90614f02565b80601f0160208091040260200160405190810160405280929190818152602001828054610bd890614f02565b8015610c255780601f10610bfa57610100808354040283529160200191610c25565b820191906000526020600020905b815481529060010190602001808311610c0857829003601f168201915b50505050508152602001600282018054610c3e90614f02565b80601f0160208091040260200160405190810160405280929190818152602001828054610c6a90614f02565b8015610cb75780601f10610c8c57610100808354040283529160200191610cb7565b820191906000526020600020905b815481529060010190602001808311610c9a57829003601f168201915b50505050508152602001600382015481526020016004820154815260200160058201548152505081526020019060010190610ae7565b505050509050600060fc60009054906101000a900473ffffffffffffffffffffffffffffffffffffffff1690508073ffffffffffffffffffffffffffffffffffffffff1663e37c24fe85876040518363ffffffff1660e01b8152600401610d55929190614903565b602060405180830381600087803b158015610d6f57600080fd5b505af1158015610d83573d6000803e3d6000fd5b505050506040513d601f19601f82011682018060405250810190610da79190613fa0565b610de6576040517f08c379a0000000000000000000000000000000000000000000000000000000008152600401610ddd90614ad3565b60405180910390fd5b60008173ffffffffffffffffffffffffffffffffffffffff1663b98079bc876040518263ffffffff1660e01b8152600401610e219190614bb3565b60006040518083038186803b158015610e3957600080fd5b505afa158015610e4d573d6000803e3d6000fd5b505050506040513d6000823e3d601f19601f82011682018060405250810190610e76919061401b565b90506000610e8a610e85611f15565b6122d9565b90506000600190506000805b8351811015610f38576000848281518110610eda577f4e487b7100000000000000000000000000000000000000000000000000000000600052603260045260246000fd5b602002602001015190508b8160600151148015610efa57508a8160800151145b15610f09576000935050610f38565b8b81606001511415610f24578280610f2090614f65565b9350505b508080610f3090614f65565b915050610e96565b5081610f79576040517f08c379a0000000000000000000000000000000000000000000000000000000008152600401610f7090614af3565b60405180910390fd5b6000610f8361386e565b60005b88518110156110da576000898281518110610fca577f4e487b7100000000000000000000000000000000000000000000000000000000600052603260045260246000fd5b602002602001015190508d8160600181815250508c8160800181815250508760400151816000018190525060008160a001511415611006578092505b848160a0015114156110c6578060fd600061102160fb612831565b8152602001908152602001600020600082015181600001908051906020019061104b9291906138a4565b5060208201518160010190805190602001906110689291906138a4565b5060408201518160020190805190602001906110859291906138a4565b50606082015181600301556080820151816004015560a082015181600501559050506110c16110b2611f15565b6110bc60fb612831565b61283f565b600193505b5080806110d290614f65565b915050610f86565b5081611190578060fd60006110ef60fb612831565b815260200190815260200160002060008201518160000190805190602001906111199291906138a4565b5060208201518160010190805190602001906111369291906138a4565b5060408201518160020190805190602001906111539291906138a4565b50606082015181600301556080820151816004015560a0820151816005015590505061118f611180611f15565b61118a60fb612831565b61283f565b5b60006111a461119f60fb612831565b611565565b90506111b060fb61285d565b8099505050505050505050509392505050565b60008060019054906101000a900460ff161590508080156111f45750600160008054906101000a900460ff1660ff16105b80611221575061120330612873565b1580156112205750600160008054906101000a900460ff1660ff16145b5b611260576040517f08c379a000000000000000000000000000000000000000000000000000000000815260040161125790614a53565b60405180910390fd5b60016000806101000a81548160ff021916908360ff160217905550801561129d576001600060016101000a81548160ff0219169083151502179055505b6113116040518060400160405280600981526020017f4d696e7452616c6c7900000000000000000000000000000000000000000000008152506040518060400160405280600281526020017f4d52000000000000000000000000000000000000000000000000000000000000815250612896565b6113196128f3565b80156113725760008060016101000a81548160ff0219169083151502179055507f7f26b83ff96e1f2b6a682f133852f6798a09c465da95921460cefb3847402498600160405161136991906148c6565b60405180910390a15b50565b600060c960009054906101000a900473ffffffffffffffffffffffffffffffffffffffff16905090565b6113a76126ed565b600073ffffffffffffffffffffffffffffffffffffffff168173ffffffffffffffffffffffffffffffffffffffff161415611417576040517f08c379a000000000000000000000000000000000000000000000000000000000815260040161140e90614a33565b60405180910390fd5b8060fc60006101000a81548173ffffffffffffffffffffffffffffffffffffffff021916908373ffffffffffffffffffffffffffffffffffffffff16021790555050565b60606066805461146a90614f02565b80601f016020809104026020016040519081016040528092919081815260200182805461149690614f02565b80156114e35780601f106114b8576101008083540402835291602001916114e3565b820191906000526020600020905b8154815290600101906020018083116114c657829003601f168201915b5050505050905090565b6114ff6114f8611f15565b838361294c565b5050565b61151461150e611f15565b83611fdd565b611553576040517f08c379a000000000000000000000000000000000000000000000000000000000815260040161154a90614b93565b60405180910390fd5b61155f84848484612ab9565b50505050565b6060600060fd60008481526020019081526020016000206040518060c001604052908160008201805461159790614f02565b80601f01602080910402602001604051908101604052809291908181526020018280546115c390614f02565b80156116105780601f106115e557610100808354040283529160200191611610565b820191906000526020600020905b8154815290600101906020018083116115f357829003601f168201915b5050505050815260200160018201805461162990614f02565b80601f016020809104026020016040519081016040528092919081815260200182805461165590614f02565b80156116a25780601f10611677576101008083540402835291602001916116a2565b820191906000526020600020905b81548152906001019060200180831161168557829003601f168201915b505050505081526020016002820180546116bb90614f02565b80601f01602080910402602001604051908101604052809291908181526020018280546116e790614f02565b80156117345780601f1061170957610100808354040283529160200191611734565b820191906000526020600020905b81548152906001019060200180831161171757829003601f168201915b505050505081526020016003820154815260200160048201548152602001600582015481525050905060006117bd82600001518360400151846020015161177a88612b15565b6117878760600151612b15565b6117948860800151612b15565b6040516020016117a99695949392919061475b565b604051602081830303815290604052612cc2565b90506000816040516020016117d29190614800565b6040516020818303038152906040529050809350505050919050565b60005b8151811015611a855760fe60008481526020019081526020016000206040518060c00160405280848481518110611851577f4e487b7100000000000000000000000000000000000000000000000000000000600052603260045260246000fd5b602002602001015160000151815260200184848151811061189b577f4e487b7100000000000000000000000000000000000000000000000000000000600052603260045260246000fd5b60200260200101516020015181526020018484815181106118e5577f4e487b7100000000000000000000000000000000000000000000000000000000600052603260045260246000fd5b602002602001015160400151815260200184848151811061192f577f4e487b7100000000000000000000000000000000000000000000000000000000600052603260045260246000fd5b6020026020010151606001518152602001848481518110611979577f4e487b7100000000000000000000000000000000000000000000000000000000600052603260045260246000fd5b60200260200101516080015181526020018484815181106119c3577f4e487b7100000000000000000000000000000000000000000000000000000000600052603260045260246000fd5b602002602001015160a0015181525090806001815401808255809150506001900390600052602060002090600602016000909190919091506000820151816000019080519060200190611a179291906138a4565b506020820151816001019080519060200190611a349291906138a4565b506040820151816002019080519060200190611a519291906138a4565b50606082015181600301556080820151816004015560a0820151816005015550508080611a7d90614f65565b9150506117f1565b505050565b606060fe6000838152602001908152602001600020805480602002602001604051908101604052809291908181526020016000905b82821015611cc557838290600052602060002090600602016040518060c0016040529081600082018054611af290614f02565b80601f0160208091040260200160405190810160405280929190818152602001828054611b1e90614f02565b8015611b6b5780601f10611b4057610100808354040283529160200191611b6b565b820191906000526020600020905b815481529060010190602001808311611b4e57829003601f168201915b50505050508152602001600182018054611b8490614f02565b80601f0160208091040260200160405190810160405280929190818152602001828054611bb090614f02565b8015611bfd5780601f10611bd257610100808354040283529160200191611bfd565b820191906000526020600020905b815481529060010190602001808311611be057829003601f168201915b50505050508152602001600282018054611c1690614f02565b80601f0160208091040260200160405190810160405280929190818152602001828054611c4290614f02565b8015611c8f5780601f10611c6457610100808354040283529160200191611c8f565b820191906000526020600020905b815481529060010190602001808311611c7257829003601f168201915b50505050508152602001600382015481526020016004820154815260200160058201548152505081526020019060010190611abf565b505050509050919050565b6000606a60008473ffffffffffffffffffffffffffffffffffffffff1673ffffffffffffffffffffffffffffffffffffffff16815260200190815260200160002060008373ffffffffffffffffffffffffffffffffffffffff1673ffffffffffffffffffffffffffffffffffffffff16815260200190815260200160002060009054906101000a900460ff16905092915050565b611d6c6126ed565b600073ffffffffffffffffffffffffffffffffffffffff168173ffffffffffffffffffffffffffffffffffffffff161415611ddc576040517f08c379a0000000000000000000000000000000000000000000000000000000008152600401611dd390614973565b60405180910390fd5b611de58161276b565b50565b60007f80ac58cd000000000000000000000000000000000000000000000000000000007bffffffffffffffffffffffffffffffffffffffffffffffffffffffff1916827bffffffffffffffffffffffffffffffffffffffffffffffffffffffff19161480611eb357507f5b5e139f000000000000000000000000000000000000000000000000000000007bffffffffffffffffffffffffffffffffffffffffffffffffffffffff1916827bffffffffffffffffffffffffffffffffffffffffffffffffffffffff1916145b80611ec35750611ec282612e4c565b5b9050919050565b611ed381612eb6565b611f12576040517f08c379a0000000000000000000000000000000000000000000000000000000008152600401611f0990614b13565b60405180910390fd5b50565b6000611f1f612f22565b905090565b816069600083815260200190815260200160002060006101000a81548173ffffffffffffffffffffffffffffffffffffffff021916908373ffffffffffffffffffffffffffffffffffffffff160217905550808273ffffffffffffffffffffffffffffffffffffffff16611f9783610932565b73ffffffffffffffffffffffffffffffffffffffff167f8c5be1e5ebec7d5bd14f71427d1e84f3dd0314c0f7b2291e5b200ac8c7c3b92560405160405180910390a45050565b600080611fe983610932565b90508073ffffffffffffffffffffffffffffffffffffffff168473ffffffffffffffffffffffffffffffffffffffff16148061202b575061202a8185611cd0565b5b8061206957508373ffffffffffffffffffffffffffffffffffffffff16612051846105ee565b73ffffffffffffffffffffffffffffffffffffffff16145b91505092915050565b8273ffffffffffffffffffffffffffffffffffffffff1661209282610932565b73ffffffffffffffffffffffffffffffffffffffff16146120e8576040517f08c379a00000000000000000000000000000000000000000000000000000000081526004016120df90614993565b60405180910390fd5b600073ffffffffffffffffffffffffffffffffffffffff168273ffffffffffffffffffffffffffffffffffffffff161415612158576040517f08c379a000000000000000000000000000000000000000000000000000000000815260040161214f906149d3565b60405180910390fd5b612163838383612f2a565b61216e600082611f24565b6001606860008573ffffffffffffffffffffffffffffffffffffffff1673ffffffffffffffffffffffffffffffffffffffff16815260200190815260200160002060008282546121be9190614def565b925050819055506001606860008473ffffffffffffffffffffffffffffffffffffffff1673ffffffffffffffffffffffffffffffffffffffff16815260200190815260200160002060008282546122159190614d0e565b92505081905550816067600083815260200190815260200160002060006101000a81548173ffffffffffffffffffffffffffffffffffffffff021916908373ffffffffffffffffffffffffffffffffffffffff160217905550808273ffffffffffffffffffffffffffffffffffffffff168473ffffffffffffffffffffffffffffffffffffffff167fddf252ad1be2c89b69c2b068fc378daa952ba7f163c4a11628f55a4df523b3ef60405160405180910390a46122d483838361303e565b505050565b606060006122e6836109e4565b905060008167ffffffffffffffff81111561232a577f4e487b7100000000000000000000000000000000000000000000000000000000600052604160045260246000fd5b6040519080825280602002602001820160405280156123585781602001602082028036833780820191505090505b50905060005b828110156123c85761237085826107b9565b8282815181106123a9577f4e487b7100000000000000000000000000000000000000000000000000000000600052603260045260246000fd5b60200260200101818152505080806123c090614f65565b91505061235e565b5060008267ffffffffffffffff81111561240b577f4e487b7100000000000000000000000000000000000000000000000000000000600052604160045260246000fd5b60405190808252806020026020018201604052801561244457816020015b61243161386e565b8152602001906001900390816124295790505b50905060005b838110156126e157600083828151811061248d577f4e487b7100000000000000000000000000000000000000000000000000000000600052603260045260246000fd5b6020026020010151905060fd60008281526020019081526020016000206040518060c00160405290816000820180546124c590614f02565b80601f01602080910402602001604051908101604052809291908181526020018280546124f190614f02565b801561253e5780601f106125135761010080835404028352916020019161253e565b820191906000526020600020905b81548152906001019060200180831161252157829003601f168201915b5050505050815260200160018201805461255790614f02565b80601f016020809104026020016040519081016040528092919081815260200182805461258390614f02565b80156125d05780601f106125a5576101008083540402835291602001916125d0565b820191906000526020600020905b8154815290600101906020018083116125b357829003601f168201915b505050505081526020016002820180546125e990614f02565b80601f016020809104026020016040519081016040528092919081815260200182805461261590614f02565b80156126625780601f1061263757610100808354040283529160200191612662565b820191906000526020600020905b81548152906001019060200180831161264557829003601f168201915b5050505050815260200160038201548152602001600482015481526020016005820154815250508383815181106126c2577f4e487b7100000000000000000000000000000000000000000000000000000000600052603260045260246000fd5b60200260200101819052505080806126d990614f65565b91505061244a565b50809350505050919050565b6126f5611f15565b73ffffffffffffffffffffffffffffffffffffffff16612713611375565b73ffffffffffffffffffffffffffffffffffffffff1614612769576040517f08c379a000000000000000000000000000000000000000000000000000000000815260040161276090614ab3565b60405180910390fd5b565b600060c960009054906101000a900473ffffffffffffffffffffffffffffffffffffffff1690508160c960006101000a81548173ffffffffffffffffffffffffffffffffffffffff021916908373ffffffffffffffffffffffffffffffffffffffff1602179055508173ffffffffffffffffffffffffffffffffffffffff168173ffffffffffffffffffffffffffffffffffffffff167f8be0079c531659141344cd1fd0a4f28419497f9722a3daafe3b4186f6b6457e060405160405180910390a35050565b600081600001549050919050565b612859828260405180602001604052806000815250613043565b5050565b6001816000016000828254019250508190555050565b6000808273ffffffffffffffffffffffffffffffffffffffff163b119050919050565b600060019054906101000a900460ff166128e5576040517f08c379a00000000000000000000000000000000000000000000000000000000081526004016128dc90614b73565b60405180910390fd5b6128ef828261309e565b5050565b600060019054906101000a900460ff16612942576040517f08c379a000000000000000000000000000000000000000000000000000000000815260040161293990614b73565b60405180910390fd5b61294a61311f565b565b8173ffffffffffffffffffffffffffffffffffffffff168373ffffffffffffffffffffffffffffffffffffffff1614156129bb576040517f08c379a00000000000000000000000000000000000000000000000000000000081526004016129b2906149f3565b60405180910390fd5b80606a60008573ffffffffffffffffffffffffffffffffffffffff1673ffffffffffffffffffffffffffffffffffffffff16815260200190815260200160002060008473ffffffffffffffffffffffffffffffffffffffff1673ffffffffffffffffffffffffffffffffffffffff16815260200190815260200160002060006101000a81548160ff0219169083151502179055508173ffffffffffffffffffffffffffffffffffffffff168373ffffffffffffffffffffffffffffffffffffffff167f17307eab39ab6107e8899845ad3d59bd9653f200f220920489ca2b5937696c3183604051612aac91906148ab565b60405180910390a3505050565b612ac4848484612072565b612ad084848484613180565b612b0f576040517f08c379a0000000000000000000000000000000000000000000000000000000008152600401612b0690614953565b60405180910390fd5b50505050565b60606000821415612b5d576040518060400160405280600181526020017f30000000000000000000000000000000000000000000000000000000000000008152509050612cbd565b600082905060005b60008214612b8f578080612b7890614f65565b915050600a82612b889190614d64565b9150612b65565b60008167ffffffffffffffff811115612bd1577f4e487b7100000000000000000000000000000000000000000000000000000000600052604160045260246000fd5b6040519080825280601f01601f191660200182016040528015612c035781602001600182028036833780820191505090505b5090505b60008514612cb657600182612c1c9190614def565b9150600a85612c2b9190614fae565b6030612c379190614d0e565b60f81b818381518110612c73577f4e487b7100000000000000000000000000000000000000000000000000000000600052603260045260246000fd5b60200101907effffffffffffffffffffffffffffffffffffffffffffffffffffffffffffff1916908160001a905350600a85612caf9190614d64565b9450612c07565b8093505050505b919050565b6060600082511415612ce557604051806020016040528060008152509050612e47565b60006040518060600160405280604081526020016157b06040913990506000600360028551612d149190614d0e565b612d1e9190614d64565b6004612d2a9190614d95565b67ffffffffffffffff811115612d69577f4e487b7100000000000000000000000000000000000000000000000000000000600052604160045260246000fd5b6040519080825280601f01601f191660200182016040528015612d9b5781602001600182028036833780820191505090505b509050600182016020820185865187015b80821015612e07576003820191508151603f8160121c168501518453600184019350603f81600c1c168501518453600184019350603f8160061c168501518453600184019350603f8116850151845360018401935050612dac565b5050600386510660018114612e235760028114612e3657612e3e565b603d6001830353603d6002830353612e3e565b603d60018303535b50505080925050505b919050565b60007f01ffc9a7000000000000000000000000000000000000000000000000000000007bffffffffffffffffffffffffffffffffffffffffffffffffffffffff1916827bffffffffffffffffffffffffffffffffffffffffffffffffffffffff1916149050919050565b60008073ffffffffffffffffffffffffffffffffffffffff166067600084815260200190815260200160002060009054906101000a900473ffffffffffffffffffffffffffffffffffffffff1673ffffffffffffffffffffffffffffffffffffffff1614159050919050565b600033905090565b612f35838383613317565b600073ffffffffffffffffffffffffffffffffffffffff168373ffffffffffffffffffffffffffffffffffffffff161415612f7857612f738161331c565b612fb7565b8173ffffffffffffffffffffffffffffffffffffffff168373ffffffffffffffffffffffffffffffffffffffff1614612fb657612fb58382613365565b5b5b600073ffffffffffffffffffffffffffffffffffffffff168273ffffffffffffffffffffffffffffffffffffffff161415612ffa57612ff5816134d2565b613039565b8273ffffffffffffffffffffffffffffffffffffffff168273ffffffffffffffffffffffffffffffffffffffff1614613038576130378282613615565b5b5b505050565b505050565b61304d8383613694565b61305a6000848484613180565b613099576040517f08c379a000000000000000000000000000000000000000000000000000000000815260040161309090614953565b60405180910390fd5b505050565b600060019054906101000a900460ff166130ed576040517f08c379a00000000000000000000000000000000000000000000000000000000081526004016130e490614b73565b60405180910390fd5b81606590805190602001906131039291906138a4565b50806066908051906020019061311a9291906138a4565b505050565b600060019054906101000a900460ff1661316e576040517f08c379a000000000000000000000000000000000000000000000000000000000815260040161316590614b73565b60405180910390fd5b61317e613179611f15565b61276b565b565b60006131a18473ffffffffffffffffffffffffffffffffffffffff16612873565b1561330a578373ffffffffffffffffffffffffffffffffffffffff1663150b7a026131ca611f15565b8786866040518563ffffffff1660e01b81526004016131ec949392919061483d565b602060405180830381600087803b15801561320657600080fd5b505af192505050801561323757506040513d601f19601f820116820180604052508101906132349190613ff2565b60015b6132ba573d8060008114613267576040519150601f19603f3d011682016040523d82523d6000602084013e61326c565b606091505b506000815114156132b2576040517f08c379a00000000000000000000000000000000000000000000000000000000081526004016132a990614953565b60405180910390fd5b805181602001fd5b63150b7a0260e01b7bffffffffffffffffffffffffffffffffffffffffffffffffffffffff1916817bffffffffffffffffffffffffffffffffffffffffffffffffffffffff19161491505061330f565b600190505b949350505050565b505050565b609980549050609a600083815260200190815260200160002081905550609981908060018154018082558091505060019003906000526020600020016000909190919091505550565b60006001613372846109e4565b61337c9190614def565b9050600060986000848152602001908152602001600020549050818114613461576000609760008673ffffffffffffffffffffffffffffffffffffffff1673ffffffffffffffffffffffffffffffffffffffff168152602001908152602001600020600084815260200190815260200160002054905080609760008773ffffffffffffffffffffffffffffffffffffffff1673ffffffffffffffffffffffffffffffffffffffff168152602001908152602001600020600084815260200190815260200160002081905550816098600083815260200190815260200160002081905550505b6098600084815260200190815260200160002060009055609760008573ffffffffffffffffffffffffffffffffffffffff1673ffffffffffffffffffffffffffffffffffffffff16815260200190815260200160002060008381526020019081526020016000206000905550505050565b600060016099805490506134e69190614def565b90506000609a600084815260200190815260200160002054905060006099838154811061353c577f4e487b7100000000000000000000000000000000000000000000000000000000600052603260045260246000fd5b906000526020600020015490508060998381548110613584577f4e487b7100000000000000000000000000000000000000000000000000000000600052603260045260246000fd5b906000526020600020018190555081609a600083815260200190815260200160002081905550609a60008581526020019081526020016000206000905560998054806135f9577f4e487b7100000000000000000000000000000000000000000000000000000000600052603160045260246000fd5b6001900381819060005260206000200160009055905550505050565b6000613620836109e4565b905081609760008573ffffffffffffffffffffffffffffffffffffffff1673ffffffffffffffffffffffffffffffffffffffff168152602001908152602001600020600083815260200190815260200160002081905550806098600084815260200190815260200160002081905550505050565b600073ffffffffffffffffffffffffffffffffffffffff168273ffffffffffffffffffffffffffffffffffffffff161415613704576040517f08c379a00000000000000000000000000000000000000000000000000000000081526004016136fb90614a93565b60405180910390fd5b61370d81612eb6565b1561374d576040517f08c379a0000000000000000000000000000000000000000000000000000000008152600401613744906149b3565b60405180910390fd5b61375960008383612f2a565b6001606860008473ffffffffffffffffffffffffffffffffffffffff1673ffffffffffffffffffffffffffffffffffffffff16815260200190815260200160002060008282546137a99190614d0e565b92505081905550816067600083815260200190815260200160002060006101000a81548173ffffffffffffffffffffffffffffffffffffffff021916908373ffffffffffffffffffffffffffffffffffffffff160217905550808273ffffffffffffffffffffffffffffffffffffffff16600073ffffffffffffffffffffffffffffffffffffffff167fddf252ad1be2c89b69c2b068fc378daa952ba7f163c4a11628f55a4df523b3ef60405160405180910390a461386a6000838361303e565b5050565b6040518060c001604052806060815260200160608152602001606081526020016000815260200160008152602001600081525090565b8280546138b090614f02565b90600052602060002090601f0160209004810192826138d25760008555613919565b82601f106138eb57805160ff1916838001178555613919565b82800160010185558215613919579182015b828111156139185782518255916020019190600101906138fd565b5b509050613926919061392a565b5090565b5b8082111561394357600081600090555060010161392b565b5090565b600061395a61395584614bf3565b614bce565b9050808382526020820190508285602086028201111561397957600080fd5b60005b858110156139c357813567ffffffffffffffff81111561399b57600080fd5b8086016139a88982613ceb565b8552602085019450602084019350505060018101905061397c565b5050509392505050565b60006139e06139db84614c1f565b614bce565b9050828152602081018484840111156139f857600080fd5b613a03848285614ec0565b509392505050565b6000613a1e613a1984614c50565b614bce565b905082815260208101848484011115613a3657600080fd5b613a41848285614ec0565b509392505050565b6000613a5c613a5784614c50565b614bce565b905082815260208101848484011115613a7457600080fd5b613a7f848285614ecf565b509392505050565b600081359050613a968161573c565b92915050565b600082601f830112613aad57600080fd5b8135613abd848260208601613947565b91505092915050565b600081359050613ad581615753565b92915050565b600081519050613aea81615753565b92915050565b600081519050613aff8161576a565b92915050565b600081359050613b1481615781565b92915050565b600081519050613b2981615781565b92915050565b600082601f830112613b4057600080fd5b8135613b508482602086016139cd565b91505092915050565b600082601f830112613b6a57600080fd5b8135613b7a848260208601613a0b565b91505092915050565b600082601f830112613b9457600080fd5b8151613ba4848260208601613a49565b91505092915050565b60006101008284031215613bc057600080fd5b613bcb610100614bce565b90506000613bdb84828501613de4565b6000830152506020613bef84828501613de4565b602083015250604082015167ffffffffffffffff811115613c0f57600080fd5b613c1b84828501613b83565b604083015250606082015167ffffffffffffffff811115613c3b57600080fd5b613c4784828501613b83565b606083015250608082015167ffffffffffffffff811115613c6757600080fd5b613c7384828501613b83565b60808301525060a082015167ffffffffffffffff811115613c9357600080fd5b613c9f84828501613b83565b60a08301525060c082015167ffffffffffffffff811115613cbf57600080fd5b613ccb84828501613b83565b60c08301525060e0613cdf84828501613af0565b60e08301525092915050565b600060c08284031215613cfd57600080fd5b613d0760c0614bce565b9050600082013567ffffffffffffffff811115613d2357600080fd5b613d2f84828501613b59565b600083015250602082013567ffffffffffffffff811115613d4f57600080fd5b613d5b84828501613b59565b602083015250604082013567ffffffffffffffff811115613d7b57600080fd5b613d8784828501613b59565b6040830152506060613d9b84828501613dcf565b6060830152506080613daf84828501613dcf565b60808301525060a0613dc384828501613dcf565b60a08301525092915050565b600081359050613dde81615798565b92915050565b600081519050613df381615798565b92915050565b600060208284031215613e0b57600080fd5b6000613e1984828501613a87565b91505092915050565b60008060408385031215613e3557600080fd5b6000613e4385828601613a87565b9250506020613e5485828601613a87565b9150509250929050565b600080600060608486031215613e7357600080fd5b6000613e8186828701613a87565b9350506020613e9286828701613a87565b9250506040613ea386828701613dcf565b9150509250925092565b60008060008060808587031215613ec357600080fd5b6000613ed187828801613a87565b9450506020613ee287828801613a87565b9350506040613ef387828801613dcf565b925050606085013567ffffffffffffffff811115613f1057600080fd5b613f1c87828801613b2f565b91505092959194509250565b60008060408385031215613f3b57600080fd5b6000613f4985828601613a87565b9250506020613f5a85828601613ac6565b9150509250929050565b60008060408385031215613f7757600080fd5b6000613f8585828601613a87565b9250506020613f9685828601613dcf565b9150509250929050565b600060208284031215613fb257600080fd5b6000613fc084828501613adb565b91505092915050565b600060208284031215613fdb57600080fd5b6000613fe984828501613b05565b91505092915050565b60006020828403121561400457600080fd5b600061401284828501613b1a565b91505092915050565b60006020828403121561402d57600080fd5b600082015167ffffffffffffffff81111561404757600080fd5b61405384828501613bad565b91505092915050565b60006020828403121561406e57600080fd5b600061407c84828501613dcf565b91505092915050565b6000806040838503121561409857600080fd5b60006140a685828601613dcf565b925050602083013567ffffffffffffffff8111156140c357600080fd5b6140cf85828601613a9c565b9150509250929050565b6000806000606084860312156140ee57600080fd5b60006140fc86828701613dcf565b935050602061410d86828701613dcf565b925050604084013567ffffffffffffffff81111561412a57600080fd5b61413686828701613b59565b9150509250925092565b600061414c83836146a6565b905092915050565b61415d81614e23565b82525050565b600061416e82614c91565b6141788185614cbf565b93508360208202850161418a85614c81565b8060005b858110156141c657848403895281516141a78582614140565b94506141b283614cb2565b925060208a0199505060018101905061418e565b50829750879550505050505092915050565b6141e181614e35565b82525050565b60006141f282614c9c565b6141fc8185614cd0565b935061420c818560208601614ecf565b6142158161509b565b840191505092915050565b61422981614eae565b82525050565b600061423a82614ca7565b6142448185614ce1565b9350614254818560208601614ecf565b61425d8161509b565b840191505092915050565b600061427382614ca7565b61427d8185614cf2565b935061428d818560208601614ecf565b6142968161509b565b840191505092915050565b60006142ac82614ca7565b6142b68185614d03565b93506142c6818560208601614ecf565b80840191505092915050565b60006142df601383614d03565b91506142ea826150ac565b601382019050919050565b6000614302602b83614cf2565b915061430d826150d5565b604082019050919050565b6000614325603283614cf2565b915061433082615124565b604082019050919050565b6000614348602683614cf2565b915061435382615173565b604082019050919050565b600061436b600e83614d03565b9150614376826151c2565b600e82019050919050565b600061438e602583614cf2565b9150614399826151eb565b604082019050919050565b60006143b1601c83614cf2565b91506143bc8261523a565b602082019050919050565b60006143d4602483614cf2565b91506143df82615263565b604082019050919050565b60006143f7601983614cf2565b9150614402826152b2565b602082019050919050565b600061441a602983614cf2565b9150614425826152db565b604082019050919050565b600061443d600983614d03565b91506144488261532a565b600982019050919050565b6000614460601e83614cf2565b915061446b82615353565b602082019050919050565b6000614483602e83614cf2565b915061448e8261537c565b604082019050919050565b60006144a6603e83614cf2565b91506144b1826153cb565b604082019050919050565b60006144c9602083614cf2565b91506144d48261541a565b602082019050919050565b60006144ec600383614d03565b91506144f782615443565b600382019050919050565b600061450f600d83614d03565b915061451a8261546c565b600d82019050919050565b6000614532602083614cf2565b915061453d82615495565b602082019050919050565b6000614555601583614cf2565b9150614560826154be565b602082019050919050565b6000614578601b83614cf2565b9150614583826154e7565b602082019050919050565b600061459b600a83614d03565b91506145a682615510565b600a82019050919050565b60006145be601883614cf2565b91506145c982615539565b602082019050919050565b60006145e1604583614d03565b91506145ec82615562565b604582019050919050565b6000614604602183614cf2565b915061460f826155d7565b604082019050919050565b6000614627601d83614d03565b915061463282615626565b601d82019050919050565b600061464a602c83614cf2565b91506146558261564f565b604082019050919050565b600061466d602b83614cf2565b91506146788261569e565b604082019050919050565b6000614690602e83614cf2565b915061469b826156ed565b604082019050919050565b600060c08301600083015184820360008601526146c3828261422f565b915050602083015184820360208601526146dd828261422f565b915050604083015184820360408601526146f7828261422f565b915050606083015161470c606086018261473d565b50608083015161471f608086018261473d565b5060a083015161473260a086018261473d565b508091505092915050565b61474681614e97565b82525050565b61475581614e97565b82525050565b60006147668261458e565b915061477282896142a1565b915061477d826142d2565b915061478982886142a1565b915061479482614502565b91506147a082876142a1565b91506147ab82614430565b91506147b782866142a1565b91506147c2826145d4565b91506147ce82856142a1565b91506147d98261435e565b91506147e582846142a1565b91506147f0826144df565b9150819050979650505050505050565b600061480b8261461a565b915061481782846142a1565b915081905092915050565b60006020820190506148376000830184614154565b92915050565b60006080820190506148526000830187614154565b61485f6020830186614154565b61486c604083018561474c565b818103606083015261487e81846141e7565b905095945050505050565b600060208201905081810360008301526148a38184614163565b905092915050565b60006020820190506148c060008301846141d8565b92915050565b60006020820190506148db6000830184614220565b92915050565b600060208201905081810360008301526148fb8184614268565b905092915050565b6000604082019050818103600083015261491d8185614268565b905061492c602083018461474c565b9392505050565b6000602082019050818103600083015261494c816142f5565b9050919050565b6000602082019050818103600083015261496c81614318565b9050919050565b6000602082019050818103600083015261498c8161433b565b9050919050565b600060208201905081810360008301526149ac81614381565b9050919050565b600060208201905081810360008301526149cc816143a4565b9050919050565b600060208201905081810360008301526149ec816143c7565b9050919050565b60006020820190508181036000830152614a0c816143ea565b9050919050565b60006020820190508181036000830152614a2c8161440d565b9050919050565b60006020820190508181036000830152614a4c81614453565b9050919050565b60006020820190508181036000830152614a6c81614476565b9050919050565b60006020820190508181036000830152614a8c81614499565b9050919050565b60006020820190508181036000830152614aac816144bc565b9050919050565b60006020820190508181036000830152614acc81614525565b9050919050565b60006020820190508181036000830152614aec81614548565b9050919050565b60006020820190508181036000830152614b0c8161456b565b9050919050565b60006020820190508181036000830152614b2c816145b1565b9050919050565b60006020820190508181036000830152614b4c816145f7565b9050919050565b60006020820190508181036000830152614b6c8161463d565b9050919050565b60006020820190508181036000830152614b8c81614660565b9050919050565b60006020820190508181036000830152614bac81614683565b9050919050565b6000602082019050614bc8600083018461474c565b92915050565b6000614bd8614be9565b9050614be48282614f34565b919050565b6000604051905090565b600067ffffffffffffffff821115614c0e57614c0d61506c565b5b602082029050602081019050919050565b600067ffffffffffffffff821115614c3a57614c3961506c565b5b614c438261509b565b9050602081019050919050565b600067ffffffffffffffff821115614c6b57614c6a61506c565b5b614c748261509b565b9050602081019050919050565b6000819050602082019050919050565b600081519050919050565b600081519050919050565b600081519050919050565b6000602082019050919050565b600082825260208201905092915050565b600082825260208201905092915050565b600082825260208201905092915050565b600082825260208201905092915050565b600081905092915050565b6000614d1982614e97565b9150614d2483614e97565b9250827fffffffffffffffffffffffffffffffffffffffffffffffffffffffffffffffff03821115614d5957614d58614fdf565b5b828201905092915050565b6000614d6f82614e97565b9150614d7a83614e97565b925082614d8a57614d8961500e565b5b828204905092915050565b6000614da082614e97565b9150614dab83614e97565b9250817fffffffffffffffffffffffffffffffffffffffffffffffffffffffffffffffff0483118215151615614de457614de3614fdf565b5b828202905092915050565b6000614dfa82614e97565b9150614e0583614e97565b925082821015614e1857614e17614fdf565b5b828203905092915050565b6000614e2e82614e77565b9050919050565b60008115159050919050565b6000819050919050565b60007fffffffff0000000000000000000000000000000000000000000000000000000082169050919050565b600073ffffffffffffffffffffffffffffffffffffffff82169050919050565b6000819050919050565b600060ff82169050919050565b6000614eb982614ea1565b9050919050565b82818337600083830152505050565b60005b83811015614eed578082015181840152602081019050614ed2565b83811115614efc576000848401525b50505050565b60006002820490506001821680614f1a57607f821691505b60208210811415614f2e57614f2d61503d565b5b50919050565b614f3d8261509b565b810181811067ffffffffffffffff82111715614f5c57614f5b61506c565b5b80604052505050565b6000614f7082614e97565b91507fffffffffffffffffffffffffffffffffffffffffffffffffffffffffffffffff821415614fa357614fa2614fdf565b5b600182019050919050565b6000614fb982614e97565b9150614fc483614e97565b925082614fd457614fd361500e565b5b828206905092915050565b7f4e487b7100000000000000000000000000000000000000000000000000000000600052601160045260246000fd5b7f4e487b7100000000000000000000000000000000000000000000000000000000600052601260045260246000fd5b7f4e487b7100000000000000000000000000000000000000000000000000000000600052602260045260246000fd5b7f4e487b7100000000000000000000000000000000000000000000000000000000600052604160045260246000fd5b6000601f19601f8301169050919050565b7f222c20226465736372697074696f6e223a202200000000000000000000000000600082015250565b7f455243373231456e756d657261626c653a206f776e657220696e646578206f7560008201527f74206f6620626f756e6473000000000000000000000000000000000000000000602082015250565b7f4552433732313a207472616e7366657220746f206e6f6e20455243373231526560008201527f63656976657220696d706c656d656e7465720000000000000000000000000000602082015250565b7f4f776e61626c653a206e6577206f776e657220697320746865207a65726f206160008201527f6464726573730000000000000000000000000000000000000000000000000000602082015250565b7f7d2c207b226576656e744964223a000000000000000000000000000000000000600082015250565b7f4552433732313a207472616e736665722066726f6d20696e636f72726563742060008201527f6f776e6572000000000000000000000000000000000000000000000000000000602082015250565b7f4552433732313a20746f6b656e20616c7265616479206d696e74656400000000600082015250565b7f4552433732313a207472616e7366657220746f20746865207a65726f2061646460008201527f7265737300000000000000000000000000000000000000000000000000000000602082015250565b7f4552433732313a20617070726f766520746f2063616c6c657200000000000000600082015250565b7f4552433732313a2061646472657373207a65726f206973206e6f74206120766160008201527f6c6964206f776e65720000000000000000000000000000000000000000000000602082015250565b7f222c20226964223a200000000000000000000000000000000000000000000000600082015250565b7f6576656e74206d616e61676572206164647265737320697320626c616e6b0000600082015250565b7f496e697469616c697a61626c653a20636f6e747261637420697320616c72656160008201527f647920696e697469616c697a6564000000000000000000000000000000000000602082015250565b7f4552433732313a20617070726f76652063616c6c6572206973206e6f7420746f60008201527f6b656e206f776e6572206e6f7220617070726f76656420666f7220616c6c0000602082015250565b7f4552433732313a206d696e7420746f20746865207a65726f2061646472657373600082015250565b7f7d5d7d0000000000000000000000000000000000000000000000000000000000600082015250565b7f222c2022696d616765223a202200000000000000000000000000000000000000600082015250565b7f4f776e61626c653a2063616c6c6572206973206e6f7420746865206f776e6572600082015250565b7f696e76616c696420736563726574207068726173650000000000000000000000600082015250565b7f616c7265616479206d696e746564204e4654206f6e206576656e740000000000600082015250565b7f7b226e616d65223a202200000000000000000000000000000000000000000000600082015250565b7f4552433732313a20696e76616c696420746f6b656e2049440000000000000000600082015250565b7f2c202265787465726e616c5f75726c223a202268747470733a2f2f6d696e747260008201527f616c6c792e78797a222c202261747472696275746573223a205b7b2267726f7560208201527f704964223a000000000000000000000000000000000000000000000000000000604082015250565b7f4552433732313a20617070726f76616c20746f2063757272656e74206f776e6560008201527f7200000000000000000000000000000000000000000000000000000000000000602082015250565b7f646174613a6170706c69636174696f6e2f6a736f6e3b6261736536342c000000600082015250565b7f455243373231456e756d657261626c653a20676c6f62616c20696e646578206f60008201527f7574206f6620626f756e64730000000000000000000000000000000000000000602082015250565b7f496e697469616c697a61626c653a20636f6e7472616374206973206e6f74206960008201527f6e697469616c697a696e67000000000000000000000000000000000000000000602082015250565b7f4552433732313a2063616c6c6572206973206e6f7420746f6b656e206f776e6560008201527f72206e6f7220617070726f766564000000000000000000000000000000000000602082015250565b61574581614e23565b811461575057600080fd5b50565b61575c81614e35565b811461576757600080fd5b50565b61577381614e41565b811461577e57600080fd5b50565b61578a81614e4b565b811461579557600080fd5b50565b6157a181614e97565b81146157ac57600080fd5b5056fe4142434445464748494a4b4c4d4e4f505152535455565758595a6162636465666768696a6b6c6d6e6f707172737475767778797a303132333435363738392b2fa26469706673582212205f5272a7411733afc0aec72a1d132570b4067e569233124ecaed0e923d22038964736f6c63430008040033",
  "linkReferences": {},
  "deployedLinkReferences": {}
}