{
  "_format": "hh-sol-artifact-1",
  "contractName": "MintNFT",
  "sourceName": "contracts/MintNFT.sol",
  "abi": [
    {
      "anonymous": false,
      "inputs": [
        {
          "indexed": true,
          "internalType": "address",
          "name": "owner",
          "type": "address"
        },
        {
          "indexed": true,
          "internalType": "address",
          "name": "approved",
          "type": "address"
        },
        {
          "indexed": true,
          "internalType": "uint256",
          "name": "tokenId",
          "type": "uint256"
        }
      ],
      "name": "Approval",
      "type": "event"
    },
    {
      "anonymous": false,
      "inputs": [
        {
          "indexed": true,
          "internalType": "address",
          "name": "owner",
          "type": "address"
        },
        {
          "indexed": true,
          "internalType": "address",
          "name": "operator",
          "type": "address"
        },
        {
          "indexed": false,
          "internalType": "bool",
          "name": "approved",
          "type": "bool"
        }
      ],
      "name": "ApprovalForAll",
      "type": "event"
    },
    {
      "anonymous": false,
      "inputs": [
        {
          "indexed": false,
          "internalType": "uint8",
          "name": "version",
          "type": "uint8"
        }
      ],
      "name": "Initialized",
      "type": "event"
    },
    {
      "anonymous": false,
      "inputs": [
        {
          "indexed": true,
          "internalType": "uint256",
          "name": "eventId",
          "type": "uint256"
        },
        {
          "indexed": false,
          "internalType": "bool",
          "name": "isLocked",
          "type": "bool"
        }
      ],
      "name": "MintLocked",
      "type": "event"
    },
    {
      "anonymous": false,
      "inputs": [
        {
          "indexed": true,
          "internalType": "address",
          "name": "holder",
          "type": "address"
        },
        {
          "indexed": false,
          "internalType": "string",
          "name": "url",
          "type": "string"
        }
      ],
      "name": "MintedNFTAttributeURL",
      "type": "event"
    },
    {
      "anonymous": false,
      "inputs": [
        {
          "indexed": true,
          "internalType": "address",
          "name": "previousOwner",
          "type": "address"
        },
        {
          "indexed": true,
          "internalType": "address",
          "name": "newOwner",
          "type": "address"
        }
      ],
      "name": "OwnershipTransferred",
      "type": "event"
    },
    {
      "anonymous": false,
      "inputs": [
        {
          "indexed": true,
          "internalType": "address",
          "name": "executor",
          "type": "address"
        },
        {
          "indexed": true,
          "internalType": "uint256",
          "name": "eventId",
          "type": "uint256"
        }
      ],
      "name": "ResetSecretPhrase",
      "type": "event"
    },
    {
      "anonymous": false,
      "inputs": [
        {
          "indexed": true,
          "internalType": "address",
          "name": "from",
          "type": "address"
        },
        {
          "indexed": true,
          "internalType": "address",
          "name": "to",
          "type": "address"
        },
        {
          "indexed": true,
          "internalType": "uint256",
          "name": "tokenId",
          "type": "uint256"
        }
      ],
      "name": "Transfer",
      "type": "event"
    },
    {
      "inputs": [
        {
          "internalType": "address",
          "name": "to",
          "type": "address"
        },
        {
          "internalType": "uint256",
          "name": "tokenId",
          "type": "uint256"
        }
      ],
      "name": "approve",
      "outputs": [],
      "stateMutability": "nonpayable",
      "type": "function"
    },
    {
      "inputs": [
        {
          "internalType": "address",
          "name": "owner",
          "type": "address"
        }
      ],
      "name": "balanceOf",
      "outputs": [
        {
          "internalType": "uint256",
          "name": "",
          "type": "uint256"
        }
      ],
      "stateMutability": "view",
      "type": "function"
    },
    {
      "inputs": [
        {
          "internalType": "uint256",
          "name": "tokenId",
          "type": "uint256"
        }
      ],
      "name": "burn",
      "outputs": [],
      "stateMutability": "nonpayable",
      "type": "function"
    },
    {
      "inputs": [
        {
          "internalType": "uint256",
          "name": "_eventId",
          "type": "uint256"
        },
        {
          "internalType": "uint256[24]",
          "name": "_proof",
          "type": "uint256[24]"
        }
      ],
      "name": "canMint",
      "outputs": [
        {
          "internalType": "bool",
          "name": "",
          "type": "bool"
        }
      ],
      "stateMutability": "view",
      "type": "function"
    },
    {
      "inputs": [
        {
          "internalType": "uint256",
          "name": "_eventId",
          "type": "uint256"
        },
        {
          "internalType": "bool",
          "name": "_locked",
          "type": "bool"
        }
      ],
      "name": "changeMintLocked",
      "outputs": [],
      "stateMutability": "nonpayable",
      "type": "function"
    },
    {
      "inputs": [
        {
          "internalType": "uint256",
          "name": "tokenId",
          "type": "uint256"
        }
      ],
      "name": "getApproved",
      "outputs": [
        {
          "internalType": "address",
          "name": "",
          "type": "address"
        }
      ],
      "stateMutability": "view",
      "type": "function"
    },
    {
      "inputs": [
        {
          "internalType": "uint256",
          "name": "_eventId",
          "type": "uint256"
        }
      ],
      "name": "getIsMintLocked",
      "outputs": [
        {
          "internalType": "bool",
          "name": "",
          "type": "bool"
        }
      ],
      "stateMutability": "view",
      "type": "function"
    },
    {
      "inputs": [
        {
          "internalType": "uint256",
          "name": "_eventId",
          "type": "uint256"
        },
        {
          "internalType": "uint256",
          "name": "_limit",
          "type": "uint256"
        },
        {
          "internalType": "uint256",
          "name": "_offset",
          "type": "uint256"
        }
      ],
      "name": "getNFTAttributeRecordsByEventId",
      "outputs": [
        {
          "components": [
            {
              "internalType": "string",
              "name": "metaDataURL",
              "type": "string"
            },
            {
              "internalType": "uint256",
              "name": "requiredParticipateCount",
              "type": "uint256"
            }
          ],
          "internalType": "struct MintNFT.NFTAttribute[]",
          "name": "",
          "type": "tuple[]"
        }
      ],
      "stateMutability": "view",
      "type": "function"
    },
    {
      "inputs": [
        {
          "internalType": "uint256",
          "name": "_eventId",
          "type": "uint256"
        }
      ],
      "name": "getNFTHoldersByEvent",
      "outputs": [
        {
          "components": [
            {
              "internalType": "address",
              "name": "holderAddress",
              "type": "address"
            },
            {
              "internalType": "uint256",
              "name": "tokenId",
              "type": "uint256"
            }
          ],
          "internalType": "struct MintNFT.NFTHolder[]",
          "name": "",
          "type": "tuple[]"
        }
      ],
      "stateMutability": "view",
      "type": "function"
    },
    {
      "inputs": [
        {
          "internalType": "uint256",
          "name": "_groupId",
          "type": "uint256"
        }
      ],
      "name": "getNFTHoldersByEventGroup",
      "outputs": [
        {
          "components": [
            {
              "internalType": "address",
              "name": "holderAddress",
              "type": "address"
            },
            {
              "internalType": "uint256",
              "name": "eventId",
              "type": "uint256"
            },
            {
              "internalType": "uint256",
              "name": "tokenId",
              "type": "uint256"
            }
          ],
          "internalType": "struct MintNFT.NFTHolderWithEventId[]",
          "name": "",
          "type": "tuple[]"
        }
      ],
      "stateMutability": "view",
      "type": "function"
    },
    {
      "inputs": [
        {
          "internalType": "uint256",
          "name": "_eventId",
          "type": "uint256"
        }
      ],
      "name": "getRemainingNFTCount",
      "outputs": [
        {
          "internalType": "uint256",
          "name": "",
          "type": "uint256"
        }
      ],
      "stateMutability": "view",
      "type": "function"
    },
    {
      "inputs": [
        {
          "internalType": "contract MinimalForwarderUpgradeable",
          "name": "trustedForwarder",
          "type": "address"
        },
        {
          "internalType": "address",
          "name": "_secretPhraseVerifierAddr",
          "type": "address"
        },
        {
          "internalType": "address",
          "name": "_operationControllerAddr",
          "type": "address"
        }
      ],
      "name": "initialize",
      "outputs": [],
      "stateMutability": "nonpayable",
      "type": "function"
    },
    {
      "inputs": [
        {
          "internalType": "address",
          "name": "owner",
          "type": "address"
        },
        {
          "internalType": "address",
          "name": "operator",
          "type": "address"
        }
      ],
      "name": "isApprovedForAll",
      "outputs": [
        {
          "internalType": "bool",
          "name": "",
          "type": "bool"
        }
      ],
      "stateMutability": "view",
      "type": "function"
    },
    {
      "inputs": [
        {
          "internalType": "address",
          "name": "_addr",
          "type": "address"
        },
        {
          "internalType": "uint256",
          "name": "_eventId",
          "type": "uint256"
        }
      ],
      "name": "isHoldingEventNFTByAddress",
      "outputs": [
        {
          "internalType": "bool",
          "name": "",
          "type": "bool"
        }
      ],
      "stateMutability": "view",
      "type": "function"
    },
    {
      "inputs": [
        {
          "internalType": "address",
          "name": "forwarder",
          "type": "address"
        }
      ],
      "name": "isTrustedForwarder",
      "outputs": [
        {
          "internalType": "bool",
          "name": "",
          "type": "bool"
        }
      ],
      "stateMutability": "view",
      "type": "function"
    },
    {
      "inputs": [
        {
          "internalType": "uint256",
          "name": "_groupId",
          "type": "uint256"
        },
        {
          "internalType": "uint256",
          "name": "_eventId",
          "type": "uint256"
        },
        {
          "internalType": "uint256[24]",
          "name": "_proof",
          "type": "uint256[24]"
        }
      ],
      "name": "mintParticipateNFT",
      "outputs": [],
      "stateMutability": "nonpayable",
      "type": "function"
    },
    {
      "inputs": [],
      "name": "name",
      "outputs": [
        {
          "internalType": "string",
          "name": "",
          "type": "string"
        }
      ],
      "stateMutability": "view",
      "type": "function"
    },
    {
      "inputs": [],
      "name": "owner",
      "outputs": [
        {
          "internalType": "address",
          "name": "",
          "type": "address"
        }
      ],
      "stateMutability": "view",
      "type": "function"
    },
    {
      "inputs": [
        {
          "internalType": "uint256",
          "name": "tokenId",
          "type": "uint256"
        }
      ],
      "name": "ownerOf",
      "outputs": [
        {
          "internalType": "address",
          "name": "",
          "type": "address"
        }
      ],
      "stateMutability": "view",
      "type": "function"
    },
    {
      "inputs": [
        {
          "internalType": "uint256[]",
          "name": "_tokenIdArray",
          "type": "uint256[]"
        }
      ],
      "name": "ownerOfTokens",
      "outputs": [
        {
          "components": [
            {
              "internalType": "address",
              "name": "holderAddress",
              "type": "address"
            },
            {
              "internalType": "uint256",
              "name": "tokenId",
              "type": "uint256"
            }
          ],
          "internalType": "struct MintNFT.NFTHolder[]",
          "name": "",
          "type": "tuple[]"
        }
      ],
      "stateMutability": "view",
      "type": "function"
    },
    {
      "inputs": [],
      "name": "renounceOwnership",
      "outputs": [],
      "stateMutability": "nonpayable",
      "type": "function"
    },
    {
      "inputs": [
        {
          "internalType": "uint256",
          "name": "_eventId",
          "type": "uint256"
        },
        {
          "internalType": "bytes32",
          "name": "_secretPhrase",
          "type": "bytes32"
        }
      ],
      "name": "resetSecretPhrase",
      "outputs": [],
      "stateMutability": "nonpayable",
      "type": "function"
    },
    {
      "inputs": [
        {
          "internalType": "address",
          "name": "from",
          "type": "address"
        },
        {
          "internalType": "address",
          "name": "to",
          "type": "address"
        },
        {
          "internalType": "uint256",
          "name": "tokenId",
          "type": "uint256"
        }
      ],
      "name": "safeTransferFrom",
      "outputs": [],
      "stateMutability": "nonpayable",
      "type": "function"
    },
    {
      "inputs": [
        {
          "internalType": "address",
          "name": "from",
          "type": "address"
        },
        {
          "internalType": "address",
          "name": "to",
          "type": "address"
        },
        {
          "internalType": "uint256",
          "name": "tokenId",
          "type": "uint256"
        },
        {
          "internalType": "bytes",
          "name": "data",
          "type": "bytes"
        }
      ],
      "name": "safeTransferFrom",
      "outputs": [],
      "stateMutability": "nonpayable",
      "type": "function"
    },
    {
      "inputs": [
        {
          "internalType": "address",
          "name": "operator",
          "type": "address"
        },
        {
          "internalType": "bool",
          "name": "approved",
          "type": "bool"
        }
      ],
      "name": "setApprovalForAll",
      "outputs": [],
      "stateMutability": "nonpayable",
      "type": "function"
    },
    {
      "inputs": [
        {
          "internalType": "uint256",
          "name": "_eventId",
          "type": "uint256"
        },
        {
          "internalType": "uint256",
          "name": "_mintLimit",
          "type": "uint256"
        },
        {
          "internalType": "bytes32",
          "name": "_secretPhrase",
          "type": "bytes32"
        },
        {
          "components": [
            {
              "internalType": "string",
              "name": "metaDataURL",
              "type": "string"
            },
            {
              "internalType": "uint256",
              "name": "requiredParticipateCount",
              "type": "uint256"
            }
          ],
          "internalType": "struct MintNFT.NFTAttribute[]",
          "name": "attributes",
          "type": "tuple[]"
        }
      ],
      "name": "setEventInfo",
      "outputs": [],
      "stateMutability": "nonpayable",
      "type": "function"
    },
    {
      "inputs": [
        {
          "internalType": "address",
          "name": "_addr",
          "type": "address"
        }
      ],
      "name": "setEventManagerAddr",
      "outputs": [],
      "stateMutability": "nonpayable",
      "type": "function"
    },
    {
      "inputs": [
        {
          "internalType": "bytes4",
          "name": "interfaceId",
          "type": "bytes4"
        }
      ],
      "name": "supportsInterface",
      "outputs": [
        {
          "internalType": "bool",
          "name": "",
          "type": "bool"
        }
      ],
      "stateMutability": "view",
      "type": "function"
    },
    {
      "inputs": [],
      "name": "symbol",
      "outputs": [
        {
          "internalType": "string",
          "name": "",
          "type": "string"
        }
      ],
      "stateMutability": "view",
      "type": "function"
    },
    {
      "inputs": [
        {
          "internalType": "uint256",
          "name": "index",
          "type": "uint256"
        }
      ],
      "name": "tokenByIndex",
      "outputs": [
        {
          "internalType": "uint256",
          "name": "",
          "type": "uint256"
        }
      ],
      "stateMutability": "view",
      "type": "function"
    },
    {
      "inputs": [
        {
          "internalType": "address",
          "name": "owner",
          "type": "address"
        },
        {
          "internalType": "uint256",
          "name": "index",
          "type": "uint256"
        }
      ],
      "name": "tokenOfOwnerByIndex",
      "outputs": [
        {
          "internalType": "uint256",
          "name": "",
          "type": "uint256"
        }
      ],
      "stateMutability": "view",
      "type": "function"
    },
    {
      "inputs": [
        {
          "internalType": "uint256",
          "name": "_tokenId",
          "type": "uint256"
        }
      ],
      "name": "tokenURI",
      "outputs": [
        {
          "internalType": "string",
          "name": "",
          "type": "string"
        }
      ],
      "stateMutability": "view",
      "type": "function"
    },
    {
      "inputs": [],
      "name": "totalSupply",
      "outputs": [
        {
          "internalType": "uint256",
          "name": "",
          "type": "uint256"
        }
      ],
      "stateMutability": "view",
      "type": "function"
    },
    {
      "inputs": [
        {
          "internalType": "address",
          "name": "from",
          "type": "address"
        },
        {
          "internalType": "address",
          "name": "to",
          "type": "address"
        },
        {
          "internalType": "uint256",
          "name": "tokenId",
          "type": "uint256"
        }
      ],
      "name": "transferFrom",
      "outputs": [],
      "stateMutability": "nonpayable",
      "type": "function"
    },
    {
      "inputs": [
        {
          "internalType": "address",
          "name": "newOwner",
          "type": "address"
        }
      ],
      "name": "transferOwnership",
      "outputs": [],
      "stateMutability": "nonpayable",
      "type": "function"
    }
  ],
  "bytecode": "0x608060405234801561001057600080fd5b50613a40806100206000396000f3fe608060405234801561001057600080fd5b50600436106102115760003560e01c8063715018a611610125578063c0c53b8b116100ad578063df4b39dd1161007c578063df4b39dd146104ac578063e985e9c5146104d0578063ef3ad9eb1461050c578063f2fde38b1461051f578063fa86623b1461053257600080fd5b8063c0c53b8b14610460578063c4b88ea414610473578063c87b56dd14610486578063d622abc21461049957600080fd5b806395d89b41116100f457806395d89b41146103ff5780639dcd681114610407578063a22cb4651461041a578063af5723b11461042d578063b88d4fde1461044d57600080fd5b8063715018a6146103b35780638da5cb5b146103bb5780638f70738e146103cc5780639041e3f4146103ec57600080fd5b80632f745c59116101a85780634f6ccce7116101775780634f6ccce7146103375780634ffc9f4b1461034a578063572b6c051461036b5780636352211e1461038d57806370a08231146103a057600080fd5b80632f745c59146102eb57806342842e0e146102fe57806342966c68146103115780634df301491461032457600080fd5b80630daa8be7116101e45780630daa8be71461029357806318160ddd146102a657806319ffeb3b146102b857806323b872dd146102d857600080fd5b806301ffc9a71461021657806306fdde031461023e578063081812fc14610253578063095ea7b31461027e575b600080fd5b610229610224366004612ddc565b610545565b60405190151581526020015b60405180910390f35b610246610570565b6040516102359190612e58565b610266610261366004612e6b565b610602565b6040516001600160a01b039091168152602001610235565b61029161028c366004612e99565b610629565b005b6102916102a1366004612ed3565b610756565b6099545b604051908152602001610235565b6102cb6102c6366004612f03565b61091a565b6040516102359190612f2f565b6102916102e6366004612fa5565b610c4f565b6102aa6102f9366004612e99565b610c87565b61029161030c366004612fa5565b610d1d565b61029161031f366004612e6b565b610d38565b6102296103323660046130e3565b610d4c565b6102aa610345366004612e6b565b610ea1565b6102aa610358366004612e6b565b6000908152610134602052604090205490565b610229610379366004613111565b60c9546001600160a01b0391821691161490565b61026661039b366004612e6b565b610f34565b6102aa6103ae366004613111565b610f94565b61029161101a565b60fc546001600160a01b0316610266565b6103df6103da366004612e6b565b61102e565b604051610235919061312e565b6102916103fa366004613111565b611359565b6102466113da565b610291610415366004613190565b6113e9565b6102916104283660046131b2565b6115a9565b61044061043b366004613203565b6115bf565b6040516102359190613298565b61029161045b366004613343565b6116bf565b61029161046e3660046133c2565b6116fe565b610440610481366004612e6b565b611863565b610246610494366004612e6b565b6118d0565b6102296104a7366004612e99565b611975565b6102296104ba366004612e6b565b6000908152610136602052604090205460ff1690565b6102296104de36600461340d565b6001600160a01b039182166000908152606a6020908152604080832093909416825291909152205460ff1690565b61029161051a36600461343b565b6119a1565b61029161052d366004613111565b611b34565b610291610540366004613561565b611baa565b60006001600160e01b0319821663780e9d6360e01b148061056a575061056a82611fb8565b92915050565b60606065805461057f90613598565b80601f01602080910402602001604051908101604052809291908181526020018280546105ab90613598565b80156105f85780601f106105cd576101008083540402835291602001916105f8565b820191906000526020600020905b8154815290600101906020018083116105db57829003601f168201915b5050505050905090565b600061060d82612008565b506000908152606960205260409020546001600160a01b031690565b600061063482610f34565b9050806001600160a01b0316836001600160a01b031614156106a75760405162461bcd60e51b815260206004820152602160248201527f4552433732313a20617070726f76616c20746f2063757272656e74206f776e656044820152603960f91b60648201526084015b60405180910390fd5b806001600160a01b03166106b9612067565b6001600160a01b031614806106d557506106d5816104de612067565b6107475760405162461bcd60e51b815260206004820152603e60248201527f4552433732313a20617070726f76652063616c6c6572206973206e6f7420746f60448201527f6b656e206f776e6572206e6f7220617070726f76656420666f7220616c6c0000606482015260840161069e565b6107518383612097565b505050565b61012f5482906001600160a01b03168063972f1327610773612067565b6040516001600160e01b031960e084901b1681526001600160a01b0390911660048201526024810185905260440160206040518083038186803b1580156107b957600080fd5b505afa1580156107cd573d6000803e3d6000fd5b505050506040513d601f19601f820116820180604052508101906107f191906135e3565b6108365760405162461bcd60e51b81526020600482015260166024820152753cb7ba903430bb32903737903832b936b4b9b9b4b7b760511b604482015260640161069e565b6101395460408051635c975abb60e01b815290516001600160a01b03909216918291635c975abb916004808301926020929190829003018186803b15801561087d57600080fd5b505afa158015610891573d6000803e3d6000fd5b505050506040513d601f19601f820116820180604052508101906108b591906135e3565b156108bf57600080fd5b60008581526101366020908152604091829020805460ff1916871515908117909155915191825286917f1e3ed2b292ed72652054799a4fde74789a8670c153df666f76e01345ec318281910160405180910390a25050505050565b60608261092657606492505b606483111561096c5760405162461bcd60e51b81526020600482015260126024820152716c696d697420697320746f6f206c6172676560701b604482015260640161069e565b6000836001600160401b0381111561098657610986612fe6565b6040519080825280602002602001820160405280156109cc57816020015b6040805180820190915260608152600060208201528152602001906001900390816109a45790505b5090506109db84600019613616565b831115610a365760405162461bcd60e51b815260206004820152602360248201527f6c696d6974202b206f6666736574206d757374206265203c3d20325e323536206044820152622d203160e81b606482015260840161069e565b6000610a42848661362d565b90506000845b82811015610b8a5760006101336000610a618b85612105565b81526020019081526020016000208054610a7a90613598565b80601f0160208091040260200160405190810160405280929190818152602001828054610aa690613598565b8015610af35780601f10610ac857610100808354040283529160200191610af3565b820191906000526020600020905b815481529060010190602001808311610ad657829003601f168201915b505060408051600081526020810180835281519020959650610b1b9450869350019050613645565b6040516020818303038152906040528051906020012014610b7757604051806040016040528082815260200183815250858481518110610b5d57610b5d613661565b60200260200101819052508280610b7390613677565b9350505b5080610b8281613677565b915050610a48565b506000816001600160401b03811115610ba557610ba5612fe6565b604051908082528060200260200182016040528015610beb57816020015b604080518082019091526060815260006020820152815260200190600190039081610bc35790505b50905060005b82811015610c4357848181518110610c0b57610c0b613661565b6020026020010151828281518110610c2557610c25613661565b60200260200101819052508080610c3b90613677565b915050610bf1565b50979650505050505050565b610c60610c5a612067565b8261213b565b610c7c5760405162461bcd60e51b815260040161069e90613692565b6107518383836121ba565b6000610c9283610f94565b8210610cf45760405162461bcd60e51b815260206004820152602b60248201527f455243373231456e756d657261626c653a206f776e657220696e646578206f7560448201526a74206f6620626f756e647360a81b606482015260840161069e565b506001600160a01b03919091166000908152609760209081526040808320938352929052205490565b610751838383604051806020016040528060008152506116bf565b610d40612361565b610d49816123da565b50565b6000610d588284612481565b610d9c5760405162461bcd60e51b8152602060048201526015602482015274696e76616c6964207365637265742070687261736560581b604482015260640161069e565b60008381526101346020526040902054610df85760405162461bcd60e51b815260206004820152601760248201527f72656d61696e696e6720636f756e74206973207a65726f000000000000000000604482015260640161069e565b610e09610e03612067565b84611975565b15610e475760405162461bcd60e51b815260206004820152600e60248201526d185b1c9958591e481b5a5b9d195960921b604482015260640161069e565b6000838152610136602052604090205460ff1615610e985760405162461bcd60e51b815260206004820152600e60248201526d1b5a5b9d081a5cc81b1bd8dad95960921b604482015260640161069e565b50600192915050565b6000610eac60995490565b8210610f0f5760405162461bcd60e51b815260206004820152602c60248201527f455243373231456e756d657261626c653a20676c6f62616c20696e646578206f60448201526b7574206f6620626f756e647360a01b606482015260840161069e565b60998281548110610f2257610f22613661565b90600052602060002001549050919050565b6000818152606760205260408120546001600160a01b03168061056a5760405162461bcd60e51b8152602060048201526018602482015277115490cdcc8c4e881a5b9d985b1a59081d1bdad95b88125160421b604482015260640161069e565b60006001600160a01b038216610ffe5760405162461bcd60e51b815260206004820152602960248201527f4552433732313a2061646472657373207a65726f206973206e6f7420612076616044820152683634b21037bbb732b960b91b606482015260840161069e565b506001600160a01b031660009081526068602052604090205490565b611022612361565b61102c600061252f565b565b61012f5460405163f562082360e01b8152600481018390526060916001600160a01b031690600090829063f56208239060240160006040518083038186803b15801561107957600080fd5b505afa15801561108d573d6000803e3d6000fd5b505050506040513d6000823e601f3d908101601f191682016040526110b59190810190613725565b9050600081516001600160401b038111156110d2576110d2612fe6565b60405190808252806020026020018201604052801561110557816020015b60608152602001906001900390816110f05790505b5090506000805b83518110156111925761113b84828151811061112a5761112a613661565b602002602001015160000151611863565b83828151811061114d5761114d613661565b602002602001018190525082818151811061116a5761116a613661565b6020026020010151518261117e919061362d565b91508061118a81613677565b91505061110c565b506000816001600160401b038111156111ad576111ad612fe6565b60405190808252806020026020018201604052801561120b57816020015b6111f8604051806060016040528060006001600160a01b0316815260200160008152602001600081525090565b8152602001906001900390816111cb5790505b50905060005b8281101561134e5760005b85518110156113485760005b85828151811061123a5761123a613661565b60200260200101515181101561133557604051806060016040528087848151811061126757611267613661565b6020026020010151838151811061128057611280613661565b6020026020010151600001516001600160a01b031681526020018884815181106112ac576112ac613661565b60200260200101516000015181526020018784815181106112cf576112cf613661565b602002602001015183815181106112e8576112e8613661565b60200260200101516020015181525084848151811061130957611309613661565b6020026020010181905250828061131f90613677565b935050808061132d90613677565b915050611228565b508061134081613677565b91505061121c565b50611211565b509695505050505050565b611361612361565b6001600160a01b0381166113b75760405162461bcd60e51b815260206004820152601e60248201527f6576656e74206d616e61676572206164647265737320697320626c616e6b0000604482015260640161069e565b61012f80546001600160a01b0319166001600160a01b0392909216919091179055565b60606066805461057f90613598565b61012f5482906001600160a01b03168063972f1327611406612067565b6040516001600160e01b031960e084901b1681526001600160a01b0390911660048201526024810185905260440160206040518083038186803b15801561144c57600080fd5b505afa158015611460573d6000803e3d6000fd5b505050506040513d601f19601f8201168201806040525081019061148491906135e3565b6114c95760405162461bcd60e51b81526020600482015260166024820152753cb7ba903430bb32903737903832b936b4b9b9b4b7b760511b604482015260640161069e565b6101395460408051635c975abb60e01b815290516001600160a01b03909216918291635c975abb916004808301926020929190829003018186803b15801561151057600080fd5b505afa158015611524573d6000803e3d6000fd5b505050506040513d601f19601f8201168201806040525081019061154891906135e3565b1561155257600080fd5b6000858152610135602052604090208490558461156d612067565b6001600160a01b03167fae5b067be3e4869ca571a499572a09085a17c3d0442a8965b8356bf47f63ba9960405160405180910390a35050505050565b6115bb6115b4612067565b8383612581565b5050565b6060600082516001600160401b038111156115dc576115dc612fe6565b60405190808252806020026020018201604052801561162157816020015b60408051808201909152600080825260208201528152602001906001900390816115fa5790505b50905060005b83518110156116b857604051806040016040528061165d86848151811061165057611650613661565b6020026020010151610f34565b6001600160a01b0316815260200185838151811061167d5761167d613661565b602002602001015181525082828151811061169a5761169a613661565b602002602001018190525080806116b090613677565b915050611627565b5092915050565b6116d06116ca612067565b8361213b565b6116ec5760405162461bcd60e51b815260040161069e90613692565b6116f884848484612650565b50505050565b600054600490610100900460ff16158015611720575060005460ff8083169116105b6117835760405162461bcd60e51b815260206004820152602e60248201527f496e697469616c697a61626c653a20636f6e747261637420697320616c72656160448201526d191e481a5b9a5d1a585b1a5e995960921b606482015260840161069e565b6000805461ffff191660ff83161761010017905560408051808201825260098152684d696e7452616c6c7960b81b6020808301919091528251808401909352600283526126a960f11b908301526117d991612683565b6117e16126b4565b6117ea846126e3565b61013780546001600160a01b038581166001600160a01b0319928316179092556101398054928516929091169190911790556000805461ff001916905560405160ff821681527f7f26b83ff96e1f2b6a682f133852f6798a09c465da95921460cefb38474024989060200160405180910390a150505050565b606061056a61013860008481526020019081526020016000208054806020026020016040519081016040528092919081815260200182805480156118c657602002820191906000526020600020905b8154815260200190600101908083116118b2575b50505050506115bf565b600081815261013060205260408120805460609291906118ef90613598565b80601f016020809104026020016040519081016040528092919081815260200182805461191b90613598565b80156119685780601f1061193d57610100808354040283529160200191611968565b820191906000526020600020905b81548152906001019060200180831161194b57829003601f168201915b5093979650505050505050565b600061013160006119868585612734565b815260208101919091526040016000205460ff169392505050565b6101395460408051635c975abb60e01b815290516001600160a01b03909216918291635c975abb916004808301926020929190829003018186803b1580156119e857600080fd5b505afa1580156119fc573d6000803e3d6000fd5b505050506040513d601f19601f82011682018060405250810190611a2091906135e3565b15611a2a57600080fd5b61012f546001600160a01b0316611a3f612067565b6001600160a01b031614611a845760405162461bcd60e51b815260206004820152600c60248201526b1d5b985d5d1a1bdc9a5e995960a21b604482015260640161069e565b60008581526101346020908152604080832087905561013590915281208490555b8251811015611b2c57828181518110611ac057611ac0613661565b6020026020010151600001516101336000611af889878681518110611ae757611ae7613661565b602002602001015160200151612105565b81526020019081526020016000209080519060200190611b19929190612d2d565b5080611b2481613677565b915050611aa5565b505050505050565b611b3c612361565b6001600160a01b038116611ba15760405162461bcd60e51b815260206004820152602660248201527f4f776e61626c653a206e6577206f776e657220697320746865207a65726f206160448201526564647265737360d01b606482015260840161069e565b610d498161252f565b6101395460408051635c975abb60e01b815290516001600160a01b03909216918291635c975abb916004808301926020929190829003018186803b158015611bf157600080fd5b505afa158015611c05573d6000803e3d6000fd5b505050506040513d601f19601f82011682018060405250810190611c2991906135e3565b15611c3357600080fd5b611c3d8383610d4c565b5060008381526101346020526040902054611c5a90600190613616565b60008481526101346020526040908190209190915561013754905163635e393960e11b81526001600160a01b0390911690819063c6bc727290611ca390869088906004016138a1565b600060405180830381600087803b158015611cbd57600080fd5b505af1158015611cd1573d6000803e3d6000fd5b5050505060016101316000611ced611ce7612067565b88612734565b815260200190815260200160002060006101000a81548160ff0219169083151502179055506000611d25611d1f612067565b87612734565b60008181526101326020526040902054909150611d4381600161362d565b6000838152610132602052604081209190915561013381611d648982612105565b81526020019081526020016000208054611d7d90613598565b80601f0160208091040260200160405190810160405280929190818152602001828054611da990613598565b8015611df65780601f10611dcb57610100808354040283529160200191611df6565b820191906000526020600020905b815481529060010190602001808311611dd957829003601f168201915b5050505050905060006101336000611e0e8a86612105565b81526020019081526020016000208054611e2790613598565b80601f0160208091040260200160405190810160405280929190818152602001828054611e5390613598565b8015611ea05780601f10611e7557610100808354040283529160200191611ea0565b820191906000526020600020905b815481529060010190602001808311611e8357829003601f168201915b505060408051600081526020810180835281519020959650611ec89450869350019050613645565b6040516020818303038152906040528051906020012014611ee7578091505b816101306000611ef761012e5490565b81526020019081526020016000209080519060200190611f18929190612d2d565b5060008881526101386020526040902061012e5481546001810183556000928352602090922090910155611f56611f4d612067565b61012e54612762565b611f6561012e80546001019055565b611f6d612067565b6001600160a01b03167faf2fad1984d2c7abaa9300537cf9fe1bcfaf2d6226e4ffdf03522dbf3064808e83604051611fa59190612e58565b60405180910390a2505050505050505050565b60006001600160e01b031982166380ac58cd60e01b1480611fe957506001600160e01b03198216635b5e139f60e01b145b8061056a57506301ffc9a760e01b6001600160e01b031983161461056a565b6000818152606760205260409020546001600160a01b0316610d495760405162461bcd60e51b8152602060048201526018602482015277115490cdcc8c4e881a5b9d985b1a59081d1bdad95b88125160421b604482015260640161069e565b60c9546000906001600160a01b031633141561208a575060131936013560601c90565b61209261277c565b905090565b600081815260696020526040902080546001600160a01b0319166001600160a01b03841690811790915581906120cc82610f34565b6001600160a01b03167f8c5be1e5ebec7d5bd14f71427d1e84f3dd0314c0f7b2291e5b200ac8c7c3b92560405160405180910390a45050565b60408051602081018490529081018290526000906060015b60405160208183030381529060405280519060200120905092915050565b60008061214783610f34565b9050806001600160a01b0316846001600160a01b0316148061218e57506001600160a01b038082166000908152606a602090815260408083209388168352929052205460ff165b806121b25750836001600160a01b03166121a784610602565b6001600160a01b0316145b949350505050565b826001600160a01b03166121cd82610f34565b6001600160a01b0316146122315760405162461bcd60e51b815260206004820152602560248201527f4552433732313a207472616e736665722066726f6d20696e636f72726563742060448201526437bbb732b960d91b606482015260840161069e565b6001600160a01b0382166122935760405162461bcd60e51b8152602060048201526024808201527f4552433732313a207472616e7366657220746f20746865207a65726f206164646044820152637265737360e01b606482015260840161069e565b61229e8383836127a4565b6122a9600082612097565b6001600160a01b03831660009081526068602052604081208054600192906122d2908490613616565b90915550506001600160a01b038216600090815260686020526040812080546001929061230090849061362d565b909155505060008181526067602052604080822080546001600160a01b0319166001600160a01b0386811691821790925591518493918716917fddf252ad1be2c89b69c2b068fc378daa952ba7f163c4a11628f55a4df523b3ef91a4505050565b612369612067565b6001600160a01b031661238460fc546001600160a01b031690565b6001600160a01b03161461102c5760405162461bcd60e51b815260206004820181905260248201527f4f776e61626c653a2063616c6c6572206973206e6f7420746865206f776e6572604482015260640161069e565b60006123e582610f34565b90506123f3816000846127a4565b6123fe600083612097565b6001600160a01b0381166000908152606860205260408120805460019290612427908490613616565b909155505060008281526067602052604080822080546001600160a01b0319169055518391906001600160a01b038416907fddf252ad1be2c89b69c2b068fc378daa952ba7f163c4a11628f55a4df523b3ef908390a45050565b6101375460408051602080820183526000858152610135909152828120548252915163532dd84d60e11b815291926001600160a01b0316918390839063a65bb09a906124d590899086908a906004016138be565b60206040518083038186803b1580156124ed57600080fd5b505afa158015612501573d6000803e3d6000fd5b505050506040513d601f19601f8201168201806040525081019061252591906135e3565b9695505050505050565b60fc80546001600160a01b038381166001600160a01b0319831681179093556040519116919082907f8be0079c531659141344cd1fd0a4f28419497f9722a3daafe3b4186f6b6457e090600090a35050565b816001600160a01b0316836001600160a01b031614156125e35760405162461bcd60e51b815260206004820152601960248201527f4552433732313a20617070726f766520746f2063616c6c657200000000000000604482015260640161069e565b6001600160a01b038381166000818152606a6020908152604080832094871680845294825291829020805460ff191686151590811790915591519182527f17307eab39ab6107e8899845ad3d59bd9653f200f220920489ca2b5937696c31910160405180910390a3505050565b61265b8484846121ba565b6126678484848461285c565b6116f85760405162461bcd60e51b815260040161069e90613907565b600054610100900460ff166126aa5760405162461bcd60e51b815260040161069e90613959565b6115bb8282612970565b600054610100900460ff166126db5760405162461bcd60e51b815260040161069e90613959565b61102c6129be565b600054610100900460ff1661270a5760405162461bcd60e51b815260040161069e90613959565b6127126129f5565b60c980546001600160a01b0319166001600160a01b0392909216919091179055565b6040516bffffffffffffffffffffffff19606084901b1660208201526034810182905260009060540161211d565b6115bb828260405180602001604052806000815250612a1c565b60c9546000906001600160a01b031633141561279f575060131936013560601c90565b503390565b6001600160a01b0383166127ff576127fa81609980546000838152609a60205260408120829055600182018355919091527f72a152ddfb8e864297c917af52ea6c1c68aead0fee1a62673fcc7e0c94979d000155565b612822565b816001600160a01b0316836001600160a01b031614612822576128228382612a4f565b6001600160a01b0382166128395761075181612aec565b826001600160a01b0316826001600160a01b031614610751576107518282612b9b565b60006001600160a01b0384163b1561296557836001600160a01b031663150b7a02612885612067565b8786866040518563ffffffff1660e01b81526004016128a794939291906139a4565b602060405180830381600087803b1580156128c157600080fd5b505af19250505080156128f1575060408051601f3d908101601f191682019092526128ee918101906139d7565b60015b61294b573d80801561291f576040519150601f19603f3d011682016040523d82523d6000602084013e612924565b606091505b5080516129435760405162461bcd60e51b815260040161069e90613907565b805181602001fd5b6001600160e01b031916630a85bd0160e11b1490506121b2565b506001949350505050565b600054610100900460ff166129975760405162461bcd60e51b815260040161069e90613959565b81516129aa906065906020850190612d2d565b508051610751906066906020840190612d2d565b600054610100900460ff166129e55760405162461bcd60e51b815260040161069e90613959565b61102c6129f0612067565b61252f565b600054610100900460ff1661102c5760405162461bcd60e51b815260040161069e90613959565b612a268383612bdf565b612a33600084848461285c565b6107515760405162461bcd60e51b815260040161069e90613907565b60006001612a5c84610f94565b612a669190613616565b600083815260986020526040902054909150808214612ab9576001600160a01b03841660009081526097602090815260408083208584528252808320548484528184208190558352609890915290208190555b5060009182526098602090815260408084208490556001600160a01b039094168352609781528383209183525290812055565b609954600090612afe90600190613616565b6000838152609a602052604081205460998054939450909284908110612b2657612b26613661565b906000526020600020015490508060998381548110612b4757612b47613661565b6000918252602080832090910192909255828152609a90915260408082208490558582528120556099805480612b7f57612b7f6139f4565b6001900381819060005260206000200160009055905550505050565b6000612ba683610f94565b6001600160a01b039093166000908152609760209081526040808320868452825280832085905593825260989052919091209190915550565b6001600160a01b038216612c355760405162461bcd60e51b815260206004820181905260248201527f4552433732313a206d696e7420746f20746865207a65726f2061646472657373604482015260640161069e565b6000818152606760205260409020546001600160a01b031615612c9a5760405162461bcd60e51b815260206004820152601c60248201527f4552433732313a20746f6b656e20616c7265616479206d696e74656400000000604482015260640161069e565b612ca6600083836127a4565b6001600160a01b0382166000908152606860205260408120805460019290612ccf90849061362d565b909155505060008181526067602052604080822080546001600160a01b0319166001600160a01b03861690811790915590518392907fddf252ad1be2c89b69c2b068fc378daa952ba7f163c4a11628f55a4df523b3ef908290a45050565b828054612d3990613598565b90600052602060002090601f016020900481019282612d5b5760008555612da1565b82601f10612d7457805160ff1916838001178555612da1565b82800160010185558215612da1579182015b82811115612da1578251825591602001919060010190612d86565b50612dad929150612db1565b5090565b5b80821115612dad5760008155600101612db2565b6001600160e01b031981168114610d4957600080fd5b600060208284031215612dee57600080fd5b8135612df981612dc6565b9392505050565b60005b83811015612e1b578181015183820152602001612e03565b838111156116f85750506000910152565b60008151808452612e44816020860160208601612e00565b601f01601f19169290920160200192915050565b602081526000612df96020830184612e2c565b600060208284031215612e7d57600080fd5b5035919050565b6001600160a01b0381168114610d4957600080fd5b60008060408385031215612eac57600080fd5b8235612eb781612e84565b946020939093013593505050565b8015158114610d4957600080fd5b60008060408385031215612ee657600080fd5b823591506020830135612ef881612ec5565b809150509250929050565b600080600060608486031215612f1857600080fd5b505081359360208301359350604090920135919050565b60006020808301818452808551808352604092508286019150828160051b87010184880160005b83811015612f9757888303603f1901855281518051878552612f7a88860182612e2c565b918901519489019490945294870194925090860190600101612f56565b509098975050505050505050565b600080600060608486031215612fba57600080fd5b8335612fc581612e84565b92506020840135612fd581612e84565b929592945050506040919091013590565b634e487b7160e01b600052604160045260246000fd5b604080519081016001600160401b038111828210171561301e5761301e612fe6565b60405290565b60405160c081016001600160401b038111828210171561301e5761301e612fe6565b604051601f8201601f191681016001600160401b038111828210171561306e5761306e612fe6565b604052919050565b600082601f83011261308757600080fd5b6040516103008082018281106001600160401b03821117156130ab576130ab612fe6565b604052830181858211156130be57600080fd5b845b828110156130d85780358252602091820191016130c0565b509195945050505050565b60008061032083850312156130f757600080fd5b823591506131088460208501613076565b90509250929050565b60006020828403121561312357600080fd5b8135612df981612e84565b602080825282518282018190526000919060409081850190868401855b8281101561318357815180516001600160a01b031685528681015187860152850151858501526060909301929085019060010161314b565b5091979650505050505050565b600080604083850312156131a357600080fd5b50508035926020909101359150565b600080604083850312156131c557600080fd5b82356131d081612e84565b91506020830135612ef881612ec5565b60006001600160401b038211156131f9576131f9612fe6565b5060051b60200190565b6000602080838503121561321657600080fd5b82356001600160401b0381111561322c57600080fd5b8301601f8101851361323d57600080fd5b803561325061324b826131e0565b613046565b81815260059190911b8201830190838101908783111561326f57600080fd5b928401925b8284101561328d57833582529284019290840190613274565b979650505050505050565b602080825282518282018190526000919060409081850190868401855b8281101561318357815180516001600160a01b031685528601518685015292840192908501906001016132b5565b60006001600160401b038211156132fc576132fc612fe6565b50601f01601f191660200190565b600061331861324b846132e3565b905082815283838301111561332c57600080fd5b828260208301376000602084830101529392505050565b6000806000806080858703121561335957600080fd5b843561336481612e84565b9350602085013561337481612e84565b92506040850135915060608501356001600160401b0381111561339657600080fd5b8501601f810187136133a757600080fd5b6133b68782356020840161330a565b91505092959194509250565b6000806000606084860312156133d757600080fd5b83356133e281612e84565b925060208401356133f281612e84565b9150604084013561340281612e84565b809150509250925092565b6000806040838503121561342057600080fd5b823561342b81612e84565b91506020830135612ef881612e84565b6000806000806080858703121561345157600080fd5b84359350602085013592506040850135915060608501356001600160401b038082111561347d57600080fd5b818701915087601f83011261349157600080fd5b813561349f61324b826131e0565b8082825260208201915060208360051b86010192508a8311156134c157600080fd5b602085015b838110156135515784813511156134dc57600080fd5b803586016040818e03601f190112156134f457600080fd5b6134fc612ffc565b60208201358781111561350e57600080fd5b8201603f81018f1361351f57600080fd5b6135318f60208301356040840161330a565b8252506040919091013560208083019190915290845292830192016134c6565b50979a9699509497505050505050565b6000806000610340848603121561357757600080fd5b833592506020840135915061358f8560408601613076565b90509250925092565b600181811c908216806135ac57607f821691505b602082108114156135cd57634e487b7160e01b600052602260045260246000fd5b50919050565b80516135de81612ec5565b919050565b6000602082840312156135f557600080fd5b8151612df981612ec5565b634e487b7160e01b600052601160045260246000fd5b60008282101561362857613628613600565b500390565b6000821982111561364057613640613600565b500190565b60008251613657818460208701612e00565b9190910192915050565b634e487b7160e01b600052603260045260246000fd5b600060001982141561368b5761368b613600565b5060010190565b6020808252602e908201527f4552433732313a2063616c6c6572206973206e6f7420746f6b656e206f776e6560408201526d1c881b9bdc88185c1c1c9bdd995960921b606082015260800190565b600082601f8301126136f157600080fd5b81516136ff61324b826132e3565b81815284602083860101111561371457600080fd5b6121b2826020830160208701612e00565b6000602080838503121561373857600080fd5b82516001600160401b038082111561374f57600080fd5b818501915085601f83011261376357600080fd5b815161377161324b826131e0565b81815260059190911b8301840190848101908883111561379057600080fd5b8585015b83811015613871578051858111156137ab57600080fd5b860160c0818c03601f190112156137c25760008081fd5b6137ca613024565b8882015181526040808301518a830152606080840151898111156137ee5760008081fd5b6137fc8f8d838801016136e0565b83850152506080915081840151898111156138175760008081fd5b6138258f8d838801016136e0565b82850152505060a0808401518981111561383f5760008081fd5b61384d8f8d838801016136e0565b838501525061385e60c085016135d3565b9083015250845250918601918601613794565b5098975050505050505050565b8060005b60188110156116f8578151845260209384019390910190600101613882565b61032081016138b0828561387e565b826103008301529392505050565b61034081016138cd828661387e565b61030082018460005b60018110156138f55781518352602092830192909101906001016138d6565b50505082610320830152949350505050565b60208082526032908201527f4552433732313a207472616e7366657220746f206e6f6e20455243373231526560408201527131b2b4bb32b91034b6b83632b6b2b73a32b960711b606082015260800190565b6020808252602b908201527f496e697469616c697a61626c653a20636f6e7472616374206973206e6f74206960408201526a6e697469616c697a696e6760a81b606082015260800190565b6001600160a01b038581168252841660208201526040810183905260806060820181905260009061252590830184612e2c565b6000602082840312156139e957600080fd5b8151612df981612dc6565b634e487b7160e01b600052603160045260246000fdfea2646970667358221220ec058496384763bb2a94cb228edcb71b4d3f8e2fcef5b3c20e59abf335f030d464736f6c63430008090033",
  "linkReferences": {},
  "deployedLinkReferences": {}
}