{
  "_format": "hh-sol-artifact-1",
  "contractName": "OperationController",
  "sourceName": "contracts/OperationController.sol",
  "abi": [
    {
      "anonymous": false,
      "inputs": [
        {
          "indexed": false,
          "internalType": "uint8",
          "name": "version",
          "type": "uint8"
        }
      ],
      "name": "Initialized",
      "type": "event"
    },
    {
      "anonymous": false,
      "inputs": [
        {
          "indexed": true,
          "internalType": "address",
          "name": "previousOwner",
          "type": "address"
        },
        {
          "indexed": true,
          "internalType": "address",
          "name": "newOwner",
          "type": "address"
        }
      ],
      "name": "OwnershipTransferred",
      "type": "event"
    },
    {
      "anonymous": false,
      "inputs": [
        {
          "indexed": false,
          "internalType": "address",
          "name": "account",
          "type": "address"
        }
      ],
      "name": "Paused",
      "type": "event"
    },
    {
      "anonymous": false,
      "inputs": [
        {
          "indexed": false,
          "internalType": "address",
          "name": "account",
          "type": "address"
        }
      ],
      "name": "Unpaused",
      "type": "event"
    },
    {
      "inputs": [],
      "name": "initialize",
      "outputs": [],
      "stateMutability": "nonpayable",
      "type": "function"
    },
    {
      "inputs": [],
      "name": "owner",
      "outputs": [
        {
          "internalType": "address",
          "name": "",
          "type": "address"
        }
      ],
      "stateMutability": "view",
      "type": "function"
    },
    {
      "inputs": [],
      "name": "pause",
      "outputs": [],
      "stateMutability": "nonpayable",
      "type": "function"
    },
    {
      "inputs": [],
      "name": "paused",
      "outputs": [
        {
          "internalType": "bool",
          "name": "",
          "type": "bool"
        }
      ],
      "stateMutability": "view",
      "type": "function"
    },
    {
      "inputs": [],
      "name": "renounceOwnership",
      "outputs": [],
      "stateMutability": "nonpayable",
      "type": "function"
    },
    {
      "inputs": [
        {
          "internalType": "address",
          "name": "newOwner",
          "type": "address"
        }
      ],
      "name": "transferOwnership",
      "outputs": [],
      "stateMutability": "nonpayable",
      "type": "function"
    },
    {
      "inputs": [],
      "name": "unpause",
      "outputs": [],
      "stateMutability": "nonpayable",
      "type": "function"
    }
  ],
  "bytecode": "0x608060405234801561001057600080fd5b506105f1806100206000396000f3fe608060405234801561001057600080fd5b506004361061007d5760003560e01c80638129fc1c1161005b5780638129fc1c146100af5780638456cb59146100b75780638da5cb5b146100bf578063f2fde38b146100da57600080fd5b80633f4ba83a146100825780635c975abb1461008c578063715018a6146100a7575b600080fd5b61008a6100ed565b005b60655460ff1660405190151581526020015b60405180910390f35b61008a6100ff565b61008a610111565b61008a61022f565b6033546040516001600160a01b03909116815260200161009e565b61008a6100e8366004610540565b61023f565b6100f56102b5565b6100fd61030f565b565b6101076102b5565b6100fd6000610361565b600054610100900460ff16158080156101315750600054600160ff909116105b8061014b5750303b15801561014b575060005460ff166001145b6101b35760405162461bcd60e51b815260206004820152602e60248201527f496e697469616c697a61626c653a20636f6e747261637420697320616c72656160448201526d191e481a5b9a5d1a585b1a5e995960921b60648201526084015b60405180910390fd5b6000805460ff1916600117905580156101d6576000805461ff0019166101001790555b6101de6103b3565b6101e66103e2565b801561022c576000805461ff0019169055604051600181527f7f26b83ff96e1f2b6a682f133852f6798a09c465da95921460cefb38474024989060200160405180910390a15b50565b6102376102b5565b6100fd610411565b6102476102b5565b6001600160a01b0381166102ac5760405162461bcd60e51b815260206004820152602660248201527f4f776e61626c653a206e6577206f776e657220697320746865207a65726f206160448201526564647265737360d01b60648201526084016101aa565b61022c81610361565b6033546001600160a01b031633146100fd5760405162461bcd60e51b815260206004820181905260248201527f4f776e61626c653a2063616c6c6572206973206e6f7420746865206f776e657260448201526064016101aa565b61031761044e565b6065805460ff191690557f5db9ee0a495bf2e6ff9c91a7834c1ba4fdd244a5e8aa4e537bd38aeae4b073aa335b6040516001600160a01b03909116815260200160405180910390a1565b603380546001600160a01b038381166001600160a01b0319831681179093556040519116919082907f8be0079c531659141344cd1fd0a4f28419497f9722a3daafe3b4186f6b6457e090600090a35050565b600054610100900460ff166103da5760405162461bcd60e51b81526004016101aa90610570565b6100fd610497565b600054610100900460ff166104095760405162461bcd60e51b81526004016101aa90610570565b6100fd6104c7565b6104196104fa565b6065805460ff191660011790557f62e78cea01bee320cd4e420270b5ea74000d11b0c9f74754ebdbfc544b05a2586103443390565b60655460ff166100fd5760405162461bcd60e51b815260206004820152601460248201527314185d5cd8589b194e881b9bdd081c185d5cd95960621b60448201526064016101aa565b600054610100900460ff166104be5760405162461bcd60e51b81526004016101aa90610570565b6100fd33610361565b600054610100900460ff166104ee5760405162461bcd60e51b81526004016101aa90610570565b6065805460ff19169055565b60655460ff16156100fd5760405162461bcd60e51b815260206004820152601060248201526f14185d5cd8589b194e881c185d5cd95960821b60448201526064016101aa565b60006020828403121561055257600080fd5b81356001600160a01b038116811461056957600080fd5b9392505050565b6020808252602b908201527f496e697469616c697a61626c653a20636f6e7472616374206973206e6f74206960408201526a6e697469616c697a696e6760a81b60608201526080019056fea26469706673582212203e72d229f5f6c3996436e6252776c9b874187e2a10f13444bb10f8c289c8c1e864736f6c63430008090033",
  "linkReferences": {},
  "deployedLinkReferences": {}
}