{
  "_format": "hh-sol-artifact-1",
  "contractName": "EventManager",
  "sourceName": "contracts/Event.sol",
  "abi": [
    {
      "anonymous": false,
      "inputs": [
        {
          "indexed": true,
          "internalType": "address",
          "name": "owner",
          "type": "address"
        },
        {
          "indexed": false,
          "internalType": "uint256",
          "name": "eventId",
          "type": "uint256"
        }
      ],
      "name": "CreateEvent",
      "type": "event"
    },
    {
      "anonymous": false,
      "inputs": [
        {
          "indexed": true,
          "internalType": "address",
          "name": "owner",
          "type": "address"
        },
        {
          "indexed": false,
          "internalType": "uint256",
          "name": "groupId",
          "type": "uint256"
        }
      ],
      "name": "CreateGroup",
      "type": "event"
    },
    {
      "anonymous": false,
      "inputs": [
        {
          "indexed": false,
          "internalType": "uint8",
          "name": "version",
          "type": "uint8"
        }
      ],
      "name": "Initialized",
      "type": "event"
    },
    {
      "anonymous": false,
      "inputs": [
        {
          "indexed": true,
          "internalType": "address",
          "name": "previousOwner",
          "type": "address"
        },
        {
          "indexed": true,
          "internalType": "address",
          "name": "newOwner",
          "type": "address"
        }
      ],
      "name": "OwnershipTransferred",
      "type": "event"
    },
    {
      "inputs": [
        {
          "internalType": "uint256",
          "name": "_groupId",
          "type": "uint256"
        },
        {
          "internalType": "string",
          "name": "_name",
          "type": "string"
        },
        {
          "internalType": "string",
          "name": "_description",
          "type": "string"
        },
        {
          "internalType": "string",
          "name": "_date",
          "type": "string"
        },
        {
          "internalType": "uint256",
          "name": "_mintLimit",
          "type": "uint256"
        },
        {
          "internalType": "bool",
          "name": "_useMtx",
          "type": "bool"
        },
        {
          "internalType": "string",
          "name": "_secretPhrase",
          "type": "string"
        },
        {
          "components": [
            {
              "internalType": "string",
              "name": "metaDataURL",
              "type": "string"
            },
            {
              "internalType": "uint256",
              "name": "requiredParticipateCount",
              "type": "uint256"
            }
          ],
          "internalType": "struct IMintNFT.NFTAttribute[]",
          "name": "_eventNFTAttributes",
          "type": "tuple[]"
        }
      ],
      "name": "createEventRecord",
      "outputs": [],
      "stateMutability": "payable",
      "type": "function"
    },
    {
      "inputs": [
        {
          "internalType": "string",
          "name": "_name",
          "type": "string"
        }
      ],
      "name": "createGroup",
      "outputs": [],
      "stateMutability": "nonpayable",
      "type": "function"
    },
    {
      "inputs": [
        {
          "internalType": "uint256",
          "name": "_eventId",
          "type": "uint256"
        }
      ],
      "name": "getEventById",
      "outputs": [
        {
          "components": [
            {
              "internalType": "uint256",
              "name": "eventRecordId",
              "type": "uint256"
            },
            {
              "internalType": "uint256",
              "name": "groupId",
              "type": "uint256"
            },
            {
              "internalType": "string",
              "name": "name",
              "type": "string"
            },
            {
              "internalType": "string",
              "name": "description",
              "type": "string"
            },
            {
              "internalType": "string",
              "name": "date",
              "type": "string"
            },
            {
              "internalType": "bool",
              "name": "useMtx",
              "type": "bool"
            }
          ],
          "internalType": "struct EventManager.EventRecord",
          "name": "",
          "type": "tuple"
        }
      ],
      "stateMutability": "view",
      "type": "function"
    },
    {
      "inputs": [],
      "name": "getEventRecords",
      "outputs": [
        {
          "components": [
            {
              "internalType": "uint256",
              "name": "eventRecordId",
              "type": "uint256"
            },
            {
              "internalType": "uint256",
              "name": "groupId",
              "type": "uint256"
            },
            {
              "internalType": "string",
              "name": "name",
              "type": "string"
            },
            {
              "internalType": "string",
              "name": "description",
              "type": "string"
            },
            {
              "internalType": "string",
              "name": "date",
              "type": "string"
            },
            {
              "internalType": "bool",
              "name": "useMtx",
              "type": "bool"
            }
          ],
          "internalType": "struct EventManager.EventRecord[]",
          "name": "",
          "type": "tuple[]"
        }
      ],
      "stateMutability": "view",
      "type": "function"
    },
    {
      "inputs": [],
      "name": "getGroups",
      "outputs": [
        {
          "components": [
            {
              "internalType": "uint256",
              "name": "groupId",
              "type": "uint256"
            },
            {
              "internalType": "address",
              "name": "ownerAddress",
              "type": "address"
            },
            {
              "internalType": "string",
              "name": "name",
              "type": "string"
            }
          ],
          "internalType": "struct EventManager.Group[]",
          "name": "",
          "type": "tuple[]"
        }
      ],
      "stateMutability": "view",
      "type": "function"
    },
    {
      "inputs": [
        {
          "internalType": "address",
          "name": "_address",
          "type": "address"
        }
      ],
      "name": "getOwnGroups",
      "outputs": [
        {
          "components": [
            {
              "internalType": "uint256",
              "name": "groupId",
              "type": "uint256"
            },
            {
              "internalType": "address",
              "name": "ownerAddress",
              "type": "address"
            },
            {
              "internalType": "string",
              "name": "name",
              "type": "string"
            }
          ],
          "internalType": "struct EventManager.Group[]",
          "name": "",
          "type": "tuple[]"
        }
      ],
      "stateMutability": "view",
      "type": "function"
    },
    {
      "inputs": [
        {
          "internalType": "address",
          "name": "_relayerAddr",
          "type": "address"
        },
        {
          "internalType": "uint256",
          "name": "_mtxPrice",
          "type": "uint256"
        },
        {
          "internalType": "uint256",
          "name": "_maxMintLimit",
          "type": "uint256"
        }
      ],
      "name": "initialize",
      "outputs": [],
      "stateMutability": "nonpayable",
      "type": "function"
    },
    {
      "inputs": [],
      "name": "owner",
      "outputs": [
        {
          "internalType": "address",
          "name": "",
          "type": "address"
        }
      ],
      "stateMutability": "view",
      "type": "function"
    },
    {
      "inputs": [],
      "name": "renounceOwnership",
      "outputs": [],
      "stateMutability": "nonpayable",
      "type": "function"
    },
    {
      "inputs": [
        {
          "internalType": "uint256",
          "name": "_mintLimit",
          "type": "uint256"
        }
      ],
      "name": "setMaxMintLimit",
      "outputs": [],
      "stateMutability": "nonpayable",
      "type": "function"
    },
    {
      "inputs": [
        {
          "internalType": "address",
          "name": "_mintNftAddr",
          "type": "address"
        }
      ],
      "name": "setMintNFTAddr",
      "outputs": [],
      "stateMutability": "nonpayable",
      "type": "function"
    },
    {
      "inputs": [
        {
          "internalType": "uint256",
          "name": "_price",
          "type": "uint256"
        }
      ],
      "name": "setMtxPrice",
      "outputs": [],
      "stateMutability": "nonpayable",
      "type": "function"
    },
    {
      "inputs": [
        {
          "internalType": "address",
          "name": "_relayerAddr",
          "type": "address"
        }
      ],
      "name": "setRelayerAddr",
      "outputs": [],
      "stateMutability": "nonpayable",
      "type": "function"
    },
    {
      "inputs": [
        {
          "internalType": "address",
          "name": "newOwner",
          "type": "address"
        }
      ],
      "name": "transferOwnership",
      "outputs": [],
      "stateMutability": "nonpayable",
      "type": "function"
    }
  ],
  "bytecode": "0x608060405234801561001057600080fd5b50612d8c806100206000396000f3fe6080604052600436106100dd5760003560e01c806390d68b0c1161007f578063d337483a11610059578063d337483a14610289578063dc2ddcae146102b4578063f2fde38b146102dd578063f926b50c14610306576100dd565b806390d68b0c14610205578063b98079bc14610221578063c72b51761461025e576100dd565b8063715018a6116100bb578063715018a61461015d5780637a1ac61e146101745780638da5cb5b1461019d5780638f184bea146101c8576100dd565b80631ac30e63146100e257806337c81cd71461010b5780636b1f762214610134575b600080fd5b3480156100ee57600080fd5b5061010960048036038101906101049190611ac9565b61032f565b005b34801561011757600080fd5b50610132600480360381019061012d9190611ac9565b6103eb565b005b34801561014057600080fd5b5061015b60048036038101906101569190611b2c565b6104a7565b005b34801561016957600080fd5b506101726104b9565b005b34801561018057600080fd5b5061019b60048036038101906101969190611b59565b6104cd565b005b3480156101a957600080fd5b506101b261063d565b6040516101bf9190611bbb565b60405180910390f35b3480156101d457600080fd5b506101ef60048036038101906101ea9190611ac9565b610667565b6040516101fc9190611d9f565b60405180910390f35b61021f600480360381019061021a919061208a565b610903565b005b34801561022d57600080fd5b5061024860048036038101906102439190611b2c565b610de6565b6040516102559190612272565b60405180910390f35b34801561026a57600080fd5b5061027361101f565b6040516102809190611d9f565b60405180910390f35b34801561029557600080fd5b5061029e6111d7565b6040516102ab91906123ed565b60405180910390f35b3480156102c057600080fd5b506102db60048036038101906102d6919061240f565b611482565b005b3480156102e957600080fd5b5061030460048036038101906102ff9190611ac9565b61161e565b005b34801561031257600080fd5b5061032d60048036038101906103289190611b2c565b6116a2565b005b6103376116f8565b600073ffffffffffffffffffffffffffffffffffffffff168173ffffffffffffffffffffffffffffffffffffffff1614156103a7576040517f08c379a000000000000000000000000000000000000000000000000000000000815260040161039e906124b5565b60405180910390fd5b80606c60006101000a81548173ffffffffffffffffffffffffffffffffffffffff021916908373ffffffffffffffffffffffffffffffffffffffff16021790555050565b6103f36116f8565b600073ffffffffffffffffffffffffffffffffffffffff168173ffffffffffffffffffffffffffffffffffffffff161415610463576040517f08c379a000000000000000000000000000000000000000000000000000000000815260040161045a90612521565b60405180910390fd5b80606d60006101000a81548173ffffffffffffffffffffffffffffffffffffffff021916908373ffffffffffffffffffffffffffffffffffffffff16021790555050565b6104af6116f8565b80606e8190555050565b6104c16116f8565b6104cb6000611776565b565b60008060019054906101000a900460ff161590508080156104fe5750600160008054906101000a900460ff1660ff16105b8061052b575061050d3061183c565b15801561052a5750600160008054906101000a900460ff1660ff16145b5b61056a576040517f08c379a0000000000000000000000000000000000000000000000000000000008152600401610561906125b3565b60405180910390fd5b60016000806101000a81548160ff021916908360ff16021790555080156105a7576001600060016101000a81548160ff0219169083151502179055505b6105af61185f565b6105b960666118b8565b6105c360656118b8565b6105cc846103eb565b6105d5836104a7565b6105de826116a2565b80156106375760008060016101000a81548160ff0219169083151502179055507f7f26b83ff96e1f2b6a682f133852f6798a09c465da95921460cefb3847402498600160405161062e9190612625565b60405180910390a15b50505050565b6000603360009054906101000a900473ffffffffffffffffffffffffffffffffffffffff16905090565b60606000606960008473ffffffffffffffffffffffffffffffffffffffff1673ffffffffffffffffffffffffffffffffffffffff1681526020019081526020016000208054905090506000606780549050905060008267ffffffffffffffff8111156106d6576106d5611dcb565b5b60405190808252806020026020018201604052801561070f57816020015b6106fc611945565b8152602001906001900390816106f45790505b5090506000805b838110156108f6578673ffffffffffffffffffffffffffffffffffffffff166067828154811061074957610748612640565b5b906000526020600020906003020160010160009054906101000a900473ffffffffffffffffffffffffffffffffffffffff1673ffffffffffffffffffffffffffffffffffffffff1614156108e357606781815481106107ab576107aa612640565b5b9060005260206000209060030201604051806060016040529081600082015481526020016001820160009054906101000a900473ffffffffffffffffffffffffffffffffffffffff1673ffffffffffffffffffffffffffffffffffffffff1673ffffffffffffffffffffffffffffffffffffffff1681526020016002820180546108349061269e565b80601f01602080910402602001604051908101604052809291908181526020018280546108609061269e565b80156108ad5780601f10610882576101008083540402835291602001916108ad565b820191906000526020600020905b81548152906001019060200180831161089057829003601f168201915b5050505050815250508383815181106108c9576108c8612640565b5b602002602001018190525081806108df906126ff565b9250505b80806108ee906126ff565b915050610716565b5081945050505050919050565b6000841180156109155750606f548411155b610954576040517f08c379a000000000000000000000000000000000000000000000000000000000815260040161094b90612794565b60405180910390fd5b6000805b606960003373ffffffffffffffffffffffffffffffffffffffff1673ffffffffffffffffffffffffffffffffffffffff16815260200190815260200160002080549050811015610a1d5789606960003373ffffffffffffffffffffffffffffffffffffffff1673ffffffffffffffffffffffffffffffffffffffff16815260200190815260200160002082815481106109f4576109f3612640565b5b90600052602060002001541415610a0a57600191505b8080610a15906126ff565b915050610958565b5080610a5e576040517f08c379a0000000000000000000000000000000000000000000000000000000008152600401610a5590612800565b60405180910390fd5b8315610b95576000606e543a87610a759190612820565b610a7f9190612820565b905080341015610ac4576040517f08c379a0000000000000000000000000000000000000000000000000000000008152600401610abb906128c6565b60405180910390fd5b6000606d60009054906101000a900473ffffffffffffffffffffffffffffffffffffffff1673ffffffffffffffffffffffffffffffffffffffff1634604051610b0c90612917565b60006040518083038185875af1925050503d8060008114610b49576040519150601f19603f3d011682016040523d82523d6000602084013e610b4e565b606091505b5050905080610b92576040517f08c379a0000000000000000000000000000000000000000000000000000000008152600401610b8990612978565b60405180910390fd5b50505b6000610ba160656118ce565b9050610bad60656118b8565b60686040518060c001604052808381526020018c81526020018b81526020018a8152602001898152602001871515815250908060018154018082558091505060019003906000526020600020906006020160009091909190915060008201518160000155602082015181600101556040820151816002019080519060200190610c3792919061197c565b506060820151816003019080519060200190610c5492919061197c565b506080820151816004019080519060200190610c7192919061197c565b5060a08201518160050160006101000a81548160ff02191690831515021790555050506000848051906020012090506000606c60009054906101000a900473ffffffffffffffffffffffffffffffffffffffff1690508073ffffffffffffffffffffffffffffffffffffffff1663ef3ad9eb848a85896040518563ffffffff1660e01b8152600401610d069493929190612abf565b600060405180830381600087803b158015610d2057600080fd5b505af1158015610d34573d6000803e3d6000fd5b50505050606a60008d81526020019081526020016000208390806001815401808255809150506001900390600052602060002001600090919091909150558b606b6000858152602001908152602001600020819055503373ffffffffffffffffffffffffffffffffffffffff167fffde68815858e4c88d054382adadf9d3280426c744cf9c1991303ff77afdc1e284604051610dd09190612b0b565b60405180910390a2505050505050505050505050565b610dee611a02565b6000600183610dfd9190612b26565b9050600060688281548110610e1557610e14612640565b5b90600052602060002090600602016040518060c00160405290816000820154815260200160018201548152602001600282018054610e529061269e565b80601f0160208091040260200160405190810160405280929190818152602001828054610e7e9061269e565b8015610ecb5780601f10610ea057610100808354040283529160200191610ecb565b820191906000526020600020905b815481529060010190602001808311610eae57829003601f168201915b50505050508152602001600382018054610ee49061269e565b80601f0160208091040260200160405190810160405280929190818152602001828054610f109061269e565b8015610f5d5780601f10610f3257610100808354040283529160200191610f5d565b820191906000526020600020905b815481529060010190602001808311610f4057829003601f168201915b50505050508152602001600482018054610f769061269e565b80601f0160208091040260200160405190810160405280929190818152602001828054610fa29061269e565b8015610fef5780601f10610fc457610100808354040283529160200191610fef565b820191906000526020600020905b815481529060010190602001808311610fd257829003601f168201915b505050505081526020016005820160009054906101000a900460ff16151515158152505090508092505050919050565b60606000606780549050905060008167ffffffffffffffff81111561104757611046611dcb565b5b60405190808252806020026020018201604052801561108057816020015b61106d611945565b8152602001906001900390816110655790505b5090506067805480602002602001604051908101604052809291908181526020016000905b828210156111c95783829060005260206000209060030201604051806060016040529081600082015481526020016001820160009054906101000a900473ffffffffffffffffffffffffffffffffffffffff1673ffffffffffffffffffffffffffffffffffffffff1673ffffffffffffffffffffffffffffffffffffffff1681526020016002820180546111389061269e565b80601f01602080910402602001604051908101604052809291908181526020018280546111649061269e565b80156111b15780601f10611186576101008083540402835291602001916111b1565b820191906000526020600020905b81548152906001019060200180831161119457829003601f168201915b505050505081525050815260200190600101906110a5565b505050509050809250505090565b60606000606880549050905060008167ffffffffffffffff8111156111ff576111fe611dcb565b5b60405190808252806020026020018201604052801561123857816020015b611225611a02565b81526020019060019003908161121d5790505b5090506068805480602002602001604051908101604052809291908181526020016000905b8282101561147457838290600052602060002090600602016040518060c001604052908160008201548152602001600182015481526020016002820180546112a49061269e565b80601f01602080910402602001604051908101604052809291908181526020018280546112d09061269e565b801561131d5780601f106112f25761010080835404028352916020019161131d565b820191906000526020600020905b81548152906001019060200180831161130057829003601f168201915b505050505081526020016003820180546113369061269e565b80601f01602080910402602001604051908101604052809291908181526020018280546113629061269e565b80156113af5780601f10611384576101008083540402835291602001916113af565b820191906000526020600020905b81548152906001019060200180831161139257829003601f168201915b505050505081526020016004820180546113c89061269e565b80601f01602080910402602001604051908101604052809291908181526020018280546113f49061269e565b80156114415780601f1061141657610100808354040283529160200191611441565b820191906000526020600020905b81548152906001019060200180831161142457829003601f168201915b505050505081526020016005820160009054906101000a900460ff1615151515815250508152602001906001019061125d565b505050509050809250505090565b600061148e60666118ce565b905061149a60666118b8565b606760405180606001604052808381526020013373ffffffffffffffffffffffffffffffffffffffff1681526020018481525090806001815401808255809150506001900390600052602060002090600302016000909190919091506000820151816000015560208201518160010160006101000a81548173ffffffffffffffffffffffffffffffffffffffff021916908373ffffffffffffffffffffffffffffffffffffffff160217905550604082015181600201908051906020019061156392919061197c565b505050606960003373ffffffffffffffffffffffffffffffffffffffff1673ffffffffffffffffffffffffffffffffffffffff1681526020019081526020016000208190806001815401808255809150506001900390600052602060002001600090919091909150553373ffffffffffffffffffffffffffffffffffffffff167f88d8a40d3d79893e13972978642d5fe29930912ee4c0b62a535815945c1d7bd0826040516116129190612b0b565b60405180910390a25050565b6116266116f8565b600073ffffffffffffffffffffffffffffffffffffffff168173ffffffffffffffffffffffffffffffffffffffff161415611696576040517f08c379a000000000000000000000000000000000000000000000000000000000815260040161168d90612bcc565b60405180910390fd5b61169f81611776565b50565b6116aa6116f8565b60008114156116ee576040517f08c379a00000000000000000000000000000000000000000000000000000000081526004016116e590612c38565b60405180910390fd5b80606f8190555050565b6117006118dc565b73ffffffffffffffffffffffffffffffffffffffff1661171e61063d565b73ffffffffffffffffffffffffffffffffffffffff1614611774576040517f08c379a000000000000000000000000000000000000000000000000000000000815260040161176b90612ca4565b60405180910390fd5b565b6000603360009054906101000a900473ffffffffffffffffffffffffffffffffffffffff16905081603360006101000a81548173ffffffffffffffffffffffffffffffffffffffff021916908373ffffffffffffffffffffffffffffffffffffffff1602179055508173ffffffffffffffffffffffffffffffffffffffff168173ffffffffffffffffffffffffffffffffffffffff167f8be0079c531659141344cd1fd0a4f28419497f9722a3daafe3b4186f6b6457e060405160405180910390a35050565b6000808273ffffffffffffffffffffffffffffffffffffffff163b119050919050565b600060019054906101000a900460ff166118ae576040517f08c379a00000000000000000000000000000000000000000000000000000000081526004016118a590612d36565b60405180910390fd5b6118b66118e4565b565b6001816000016000828254019250508190555050565b600081600001549050919050565b600033905090565b600060019054906101000a900460ff16611933576040517f08c379a000000000000000000000000000000000000000000000000000000000815260040161192a90612d36565b60405180910390fd5b61194361193e6118dc565b611776565b565b604051806060016040528060008152602001600073ffffffffffffffffffffffffffffffffffffffff168152602001606081525090565b8280546119889061269e565b90600052602060002090601f0160209004810192826119aa57600085556119f1565b82601f106119c357805160ff19168380011785556119f1565b828001600101855582156119f1579182015b828111156119f05782518255916020019190600101906119d5565b5b5090506119fe9190611a3a565b5090565b6040518060c0016040528060008152602001600081526020016060815260200160608152602001606081526020016000151581525090565b5b80821115611a53576000816000905550600101611a3b565b5090565b6000604051905090565b600080fd5b600080fd5b600073ffffffffffffffffffffffffffffffffffffffff82169050919050565b6000611a9682611a6b565b9050919050565b611aa681611a8b565b8114611ab157600080fd5b50565b600081359050611ac381611a9d565b92915050565b600060208284031215611adf57611ade611a61565b5b6000611aed84828501611ab4565b91505092915050565b6000819050919050565b611b0981611af6565b8114611b1457600080fd5b50565b600081359050611b2681611b00565b92915050565b600060208284031215611b4257611b41611a61565b5b6000611b5084828501611b17565b91505092915050565b600080600060608486031215611b7257611b71611a61565b5b6000611b8086828701611ab4565b9350506020611b9186828701611b17565b9250506040611ba286828701611b17565b9150509250925092565b611bb581611a8b565b82525050565b6000602082019050611bd06000830184611bac565b92915050565b600081519050919050565b600082825260208201905092915050565b6000819050602082019050919050565b611c0b81611af6565b82525050565b611c1a81611a8b565b82525050565b600081519050919050565b600082825260208201905092915050565b60005b83811015611c5a578082015181840152602081019050611c3f565b83811115611c69576000848401525b50505050565b6000601f19601f8301169050919050565b6000611c8b82611c20565b611c958185611c2b565b9350611ca5818560208601611c3c565b611cae81611c6f565b840191505092915050565b6000606083016000830151611cd16000860182611c02565b506020830151611ce46020860182611c11565b5060408301518482036040860152611cfc8282611c80565b9150508091505092915050565b6000611d158383611cb9565b905092915050565b6000602082019050919050565b6000611d3582611bd6565b611d3f8185611be1565b935083602082028501611d5185611bf2565b8060005b85811015611d8d5784840389528151611d6e8582611d09565b9450611d7983611d1d565b925060208a01995050600181019050611d55565b50829750879550505050505092915050565b60006020820190508181036000830152611db98184611d2a565b905092915050565b600080fd5b600080fd5b7f4e487b7100000000000000000000000000000000000000000000000000000000600052604160045260246000fd5b611e0382611c6f565b810181811067ffffffffffffffff82111715611e2257611e21611dcb565b5b80604052505050565b6000611e35611a57565b9050611e418282611dfa565b919050565b600067ffffffffffffffff821115611e6157611e60611dcb565b5b611e6a82611c6f565b9050602081019050919050565b82818337600083830152505050565b6000611e99611e9484611e46565b611e2b565b905082815260208101848484011115611eb557611eb4611dc6565b5b611ec0848285611e77565b509392505050565b600082601f830112611edd57611edc611dc1565b5b8135611eed848260208601611e86565b91505092915050565b60008115159050919050565b611f0b81611ef6565b8114611f1657600080fd5b50565b600081359050611f2881611f02565b92915050565b600067ffffffffffffffff821115611f4957611f48611dcb565b5b602082029050602081019050919050565b600080fd5b600080fd5b600080fd5b600060408284031215611f7f57611f7e611f5f565b5b611f896040611e2b565b9050600082013567ffffffffffffffff811115611fa957611fa8611f64565b5b611fb584828501611ec8565b6000830152506020611fc984828501611b17565b60208301525092915050565b6000611fe8611fe384611f2e565b611e2b565b9050808382526020820190506020840283018581111561200b5761200a611f5a565b5b835b8181101561205257803567ffffffffffffffff8111156120305761202f611dc1565b5b80860161203d8982611f69565b8552602085019450505060208101905061200d565b5050509392505050565b600082601f83011261207157612070611dc1565b5b8135612081848260208601611fd5565b91505092915050565b600080600080600080600080610100898b0312156120ab576120aa611a61565b5b60006120b98b828c01611b17565b985050602089013567ffffffffffffffff8111156120da576120d9611a66565b5b6120e68b828c01611ec8565b975050604089013567ffffffffffffffff81111561210757612106611a66565b5b6121138b828c01611ec8565b965050606089013567ffffffffffffffff81111561213457612133611a66565b5b6121408b828c01611ec8565b95505060806121518b828c01611b17565b94505060a06121628b828c01611f19565b93505060c089013567ffffffffffffffff81111561218357612182611a66565b5b61218f8b828c01611ec8565b92505060e089013567ffffffffffffffff8111156121b0576121af611a66565b5b6121bc8b828c0161205c565b9150509295985092959890939650565b6121d581611ef6565b82525050565b600060c0830160008301516121f36000860182611c02565b5060208301516122066020860182611c02565b506040830151848203604086015261221e8282611c80565b915050606083015184820360608601526122388282611c80565b915050608083015184820360808601526122528282611c80565b91505060a083015161226760a08601826121cc565b508091505092915050565b6000602082019050818103600083015261228c81846121db565b905092915050565b600081519050919050565b600082825260208201905092915050565b6000819050602082019050919050565b600060c0830160008301516122d86000860182611c02565b5060208301516122eb6020860182611c02565b50604083015184820360408601526123038282611c80565b9150506060830151848203606086015261231d8282611c80565b915050608083015184820360808601526123378282611c80565b91505060a083015161234c60a08601826121cc565b508091505092915050565b600061236383836122c0565b905092915050565b6000602082019050919050565b600061238382612294565b61238d818561229f565b93508360208202850161239f856122b0565b8060005b858110156123db57848403895281516123bc8582612357565b94506123c78361236b565b925060208a019950506001810190506123a3565b50829750879550505050505092915050565b600060208201905081810360008301526124078184612378565b905092915050565b60006020828403121561242557612424611a61565b5b600082013567ffffffffffffffff81111561244357612442611a66565b5b61244f84828501611ec8565b91505092915050565b600082825260208201905092915050565b7f6d696e74206e6674206164647265737320697320626c616e6b00000000000000600082015250565b600061249f601983612458565b91506124aa82612469565b602082019050919050565b600060208201905081810360008301526124ce81612492565b9050919050565b7f72656c61796572206164647265737320697320626c616e6b0000000000000000600082015250565b600061250b601883612458565b9150612516826124d5565b602082019050919050565b6000602082019050818103600083015261253a816124fe565b9050919050565b7f496e697469616c697a61626c653a20636f6e747261637420697320616c72656160008201527f647920696e697469616c697a6564000000000000000000000000000000000000602082015250565b600061259d602e83612458565b91506125a882612541565b604082019050919050565b600060208201905081810360008301526125cc81612590565b9050919050565b6000819050919050565b600060ff82169050919050565b6000819050919050565b600061260f61260a612605846125d3565b6125ea565b6125dd565b9050919050565b61261f816125f4565b82525050565b600060208201905061263a6000830184612616565b92915050565b7f4e487b7100000000000000000000000000000000000000000000000000000000600052603260045260246000fd5b7f4e487b7100000000000000000000000000000000000000000000000000000000600052602260045260246000fd5b600060028204905060018216806126b657607f821691505b602082108114156126ca576126c961266f565b5b50919050565b7f4e487b7100000000000000000000000000000000000000000000000000000000600052601160045260246000fd5b600061270a82611af6565b91507fffffffffffffffffffffffffffffffffffffffffffffffffffffffffffffffff82141561273d5761273c6126d0565b5b600182019050919050565b7f6d696e74206c696d697420697320696e76616c69640000000000000000000000600082015250565b600061277e601583612458565b915061278982612748565b602082019050919050565b600060208201905081810360008301526127ad81612771565b9050919050565b7f596f7520617265206e6f742067726f7570206f776e6572000000000000000000600082015250565b60006127ea601783612458565b91506127f5826127b4565b602082019050919050565b60006020820190508181036000830152612819816127dd565b9050919050565b600061282b82611af6565b915061283683611af6565b9250817fffffffffffffffffffffffffffffffffffffffffffffffffffffffffffffffff048311821515161561286f5761286e6126d0565b5b828202905092915050565b7f4e6f7420656e6f7567682076616c756500000000000000000000000000000000600082015250565b60006128b0601083612458565b91506128bb8261287a565b602082019050919050565b600060208201905081810360008301526128df816128a3565b9050919050565b600081905092915050565b50565b60006129016000836128e6565b915061290c826128f1565b600082019050919050565b6000612922826128f4565b9150819050919050565b7f7472616e73666572206661696c65640000000000000000000000000000000000600082015250565b6000612962600f83612458565b915061296d8261292c565b602082019050919050565b6000602082019050818103600083015261299181612955565b9050919050565b6129a181611af6565b82525050565b6000819050919050565b6129ba816129a7565b82525050565b600081519050919050565b600082825260208201905092915050565b6000819050602082019050919050565b60006040830160008301518482036000860152612a098282611c80565b9150506020830151612a1e6020860182611c02565b508091505092915050565b6000612a3583836129ec565b905092915050565b6000602082019050919050565b6000612a55826129c0565b612a5f81856129cb565b935083602082028501612a71856129dc565b8060005b85811015612aad5784840389528151612a8e8582612a29565b9450612a9983612a3d565b925060208a01995050600181019050612a75565b50829750879550505050505092915050565b6000608082019050612ad46000830187612998565b612ae16020830186612998565b612aee60408301856129b1565b8181036060830152612b008184612a4a565b905095945050505050565b6000602082019050612b206000830184612998565b92915050565b6000612b3182611af6565b9150612b3c83611af6565b925082821015612b4f57612b4e6126d0565b5b828203905092915050565b7f4f776e61626c653a206e6577206f776e657220697320746865207a65726f206160008201527f6464726573730000000000000000000000000000000000000000000000000000602082015250565b6000612bb6602683612458565b9150612bc182612b5a565b604082019050919050565b60006020820190508181036000830152612be581612ba9565b9050919050565b7f6d696e74206c696d697420697320300000000000000000000000000000000000600082015250565b6000612c22600f83612458565b9150612c2d82612bec565b602082019050919050565b60006020820190508181036000830152612c5181612c15565b9050919050565b7f4f776e61626c653a2063616c6c6572206973206e6f7420746865206f776e6572600082015250565b6000612c8e602083612458565b9150612c9982612c58565b602082019050919050565b60006020820190508181036000830152612cbd81612c81565b9050919050565b7f496e697469616c697a61626c653a20636f6e7472616374206973206e6f74206960008201527f6e697469616c697a696e67000000000000000000000000000000000000000000602082015250565b6000612d20602b83612458565b9150612d2b82612cc4565b604082019050919050565b60006020820190508181036000830152612d4f81612d13565b905091905056fea264697066735822122086501ae747f0621138626f00b4fbccb36ad68a4eef58c9701bef4a787dc552cd64736f6c63430008090033",
  "linkReferences": {},
  "deployedLinkReferences": {}
}