{
  "_format": "hh-sol-artifact-1",
  "contractName": "PlonkVerifier",
  "sourceName": "contracts/Verifier.sol",
  "abi": [
    {
      "inputs": [
        {
          "internalType": "uint256[24]",
          "name": "_proof",
          "type": "uint256[24]"
        },
        {
          "internalType": "uint256[2]",
          "name": "_pubSignals",
          "type": "uint256[2]"
        }
      ],
      "name": "verifyProof",
      "outputs": [
        {
          "internalType": "bool",
          "name": "",
          "type": "bool"
        }
      ],
      "stateMutability": "view",
      "type": "function"
    }
  ],
  "bytecode": "0x608060405234801561001057600080fd5b50611bb1806100206000396000f3fe608060405234801561001057600080fd5b506004361061002b5760003560e01c8063c0e9d81c14610030575b600080fd5b61004a60048036038101906100459190611b03565b610060565b6040516100579190611b60565b60405180910390f35b6000611a46565b600080600184846000805b821561009c5782840591508482028603905084955080945082820284039050829350809250610072565b60018411156100aa57600080fd5b60008612156100b95788860195505b85965050505050505092915050565b60405181602084028301815160208301925060005b82841015610120578185527f30644e72e131a029b85045b68181585d2833e84879b9709143e1f593f00000018451830991506020850194506020840193506100dd565b61014a7f30644e72e131a029b85045b68181585d2833e84879b9709143e1f593f000000183610067565b91506020850394506020840393508592505b828411156101c6577f30644e72e131a029b85045b68181585d2833e84879b9709143e1f593f00000018551830990507f30644e72e131a029b85045b68181585d2833e84879b9709143e1f593f000000184518309915080845260208503945060208403935061015c565b81845250505050505050565b7f30644e72e131a029b85045b68181585d2833e84879b9709143e1f593f00000018110610203576000805260206000f35b50565b610212610244356101d2565b61021e610264356101d2565b61022a610284356101d2565b6102366102a4356101d2565b6102426102c4356101d2565b61024e6102e4356101d2565b565b6000806040517f04b99080a6fd5a1905e6f2e3ebe5ed52ef1271587bf8653e4010c877d800679d81527f09a56c99a97506cfd7ca83650296d69823cd58c46e9e8bc791d9e88b7998a08660208201527f2d5f277f8d0762c3a8717bb5368a260892fff02444aa0afcbbfad4cbd2acf15f60408201527f08e91701d026d3452e5677bf93c4953dadb9757a3c637b4684d5dfa8db1453f660608201527f0a0bc870a13735c455402ad6d666f6fba0c311aaea684019921fbf6f33603cbb60808201527f0daf27912e7c3d65dfff5f7aa30270310663075a4de98ea209de0e138b950ea260a08201527f2ac5f4c11bdeb9b25fc561127595de099430bef09ebb66f96ef20298e17b84b460c08201527f2d407ab1899986cef0408dde789116130592edc8175afd84568d767a874a292960e0820152600061010082015260006101208201527f0aae71f8d95161b833765727b3d899f41f73e8fa7287193dbecbfe71f3a388ea6101408201527f128ddb7ae70fbf55379138946be983f57abbda26cccbc348adbd9f3c3c2461216101608201527f2d84f84e056b95d485d208be10fcb7bd5ea16237ebf3a952d4505096cc860f286101808201527f3055ac70dd6dc432458f2b9b8fec638c8cb5a2f82fe09621d6ae10773aa146286101a08201527f19884a17e4ae5ccbfd7dce05d534ebee6c303f0f006aa90315e7bbfa19a4b0d16101c08201527f055c5e02feeef3b6c36d5227c77268b17e700582bf7b27ca8e4fe84bed58d7c76101e0820152600085013561020082015260208501356102208201526004356102408201526020600401356102608201526044356102808201526020604401356102a08201526084356102c08201526020608401356102e08201527f30644e72e131a029b85045b68181585d2833e84879b9709143e1f593f000000161030082200692508260208501527f30644e72e131a029b85045b68181585d2833e84879b9709143e1f593f0000001602080860120066040850152602084015181526040840151602082015260c4356040820152602060c4013560608201527f30644e72e131a029b85045b68181585d2833e84879b9709143e1f593f0000001608082200691508160008501527f30644e72e131a029b85045b68181585d2833e84879b9709143e1f593f00000018283096102c08501528181526101043560208201526020610104013560408201526101443560608201526020610144013560808201526101843560a08201526020610184013560c08201527f30644e72e131a029b85045b68181585d2833e84879b9709143e1f593f000000160e082200691508160608501528181526102443560208201526102643560408201526102843560608201526102a43560808201526102c43560a08201526102e43560c08201527f30644e72e131a029b85045b68181585d2833e84879b9709143e1f593f000000160e08220068060c08601527f30644e72e131a029b85045b68181585d2833e84879b9709143e1f593f000000183850960a08601527f30644e72e131a029b85045b68181585d2833e84879b9709143e1f593f000000183840992507f30644e72e131a029b85045b68181585d2833e84879b9709143e1f593f000000183840992507f30644e72e131a029b85045b68181585d2833e84879b9709143e1f593f000000183840992508260808601527f30644e72e131a029b85045b68181585d2833e84879b9709143e1f593f0000001806001850301069250826102e0860152826103008601527f30644e72e131a029b85045b68181585d2833e84879b9709143e1f593f000000181820992508260e08601527f30644e72e131a029b85045b68181585d2833e84879b9709143e1f593f00000018184099250826101008601527f30644e72e131a029b85045b68181585d2833e84879b9709143e1f593f00000018184099250826101208601527f30644e72e131a029b85045b68181585d2833e84879b9709143e1f593f00000018184099250826101408601526101c435825260206101c4013560208301526102043560408301526020610204013560608301527f30644e72e131a029b85045b68181585d2833e84879b9709143e1f593f00000016080832006610160860152505050505050565b60017f30644e72e131a029b85045b68181585d2833e84879b9709143e1f593f0000001807f30644e72e131a029b85045b68181585d2833e84879b9709143e1f593f00000018360608601510301066008096103208301527f30644e72e131a029b85045b68181585d2833e84879b9709143e1f593f00000017f2b337de1c8c14f22ec9b9e2f96afef3652627366f8170a0a948dad4ac1bd5e80820990507f30644e72e131a029b85045b68181585d2833e84879b9709143e1f593f0000001807f30644e72e131a029b85045b68181585d2833e84879b9709143e1f593f0000001836060860151030106600809610340830152610967600361030084016100c8565b6102e0820151600191507f30644e72e131a029b85045b68181585d2833e84879b9709143e1f593f000000181610320850151096103208401527f30644e72e131a029b85045b68181585d2833e84879b9709143e1f593f00000017f2b337de1c8c14f22ec9b9e2f96afef3652627366f8170a0a948dad4ac1bd5e80830991507f30644e72e131a029b85045b68181585d2833e84879b9709143e1f593f00000018082610340860151098309610340840152505050565b60007f30644e72e131a029b85045b68181585d2833e84879b9709143e1f593f0000001807f30644e72e131a029b85045b68181585d2833e84879b9709143e1f593f00000016000860135610320860151098303010690507f30644e72e131a029b85045b68181585d2833e84879b9709143e1f593f0000001807f30644e72e131a029b85045b68181585d2833e84879b9709143e1f593f000000160208601356103408601510983030106905080610180830152505050565b6101808101517f30644e72e131a029b85045b68181585d2833e84879b9709143e1f593f00000016102c0830151610320840151097f30644e72e131a029b85045b68181585d2833e84879b9709143e1f593f0000001806102a43560208601510961024435087f30644e72e131a029b85045b68181585d2833e84879b9709143e1f593f00000016040850151820890507f30644e72e131a029b85045b68181585d2833e84879b9709143e1f593f0000001806102c43560208701510961026435087f30644e72e131a029b85045b68181585d2833e84879b9709143e1f593f00000016040860151820890507f30644e72e131a029b85045b68181585d2833e84879b9709143e1f593f0000001604086015161028435087f30644e72e131a029b85045b68181585d2833e84879b9709143e1f593f0000001817f30644e72e131a029b85045b68181585d2833e84879b9709143e1f593f0000001848609097f30644e72e131a029b85045b68181585d2833e84879b9709143e1f593f00000016102e435820990507f30644e72e131a029b85045b68181585d2833e84879b9709143e1f593f00000016000880151820990507f30644e72e131a029b85045b68181585d2833e84879b9709143e1f593f000000180867f30644e72e131a029b85045b68181585d2833e84879b9709143e1f593f0000001030687087f30644e72e131a029b85045b68181585d2833e84879b9709143e1f593f000000180837f30644e72e131a029b85045b68181585d2833e84879b9709143e1f593f0000001030682089050806101a08901525050505050505050565b81518152602082015160208201525050565b818152826020820152505050565b81358152602082013560208201525050565b6040518151815260208201516020820152825160408201526020830151606082015260408260808360066107d05a03fa80610d98576000805260206000f35b50505050565b600060405183815284602082015285604082015260408160608360076107d05a03fa915081610dd1576000805260206000f35b825160408201526020830151606082015260408360808360066107d05a03fa915081610e01576000805260206000f35b505050505050565b600060405183815284602082015285604082015260408360608360076107d05a03fa915081610e3c576000805260206000f35b505050505050565b610e55836020840151845184610e09565b505050565b6101c0810160408201516040516101008101604052610e7b60008085610d39565b610ef07f30644e72e131a029b85045b68181585d2833e84879b9709143e1f593f00000016102643561024435097f09a56c99a97506cfd7ca83650296d69823cd58c46e9e8bc791d9e88b7998a0867f04b99080a6fd5a1905e6f2e3ebe5ed52ef1271587bf8653e4010c877d800679d86610d9e565b610f3f610244357f08e91701d026d3452e5677bf93c4953dadb9757a3c637b4684d5dfa8db1453f67f2d5f277f8d0762c3a8717bb5368a260892fff02444aa0afcbbfad4cbd2acf15f86610d9e565b610f8e610264357f0daf27912e7c3d65dfff5f7aa30270310663075a4de98ea209de0e138b950ea27f0a0bc870a13735c455402ad6d666f6fba0c311aaea684019921fbf6f33603cbb86610d9e565b610fdd610284357f2d407ab1899986cef0408dde789116130592edc8175afd84568d767a874a29297f2ac5f4c11bdeb9b25fc561127595de099430bef09ebb66f96ef20298e17b84b486610d9e565b60a08401517f30644e72e131a029b85045b68181585d2833e84879b9709143e1f593f0000001837f30644e72e131a029b85045b68181585d2833e84879b9709143e1f593f0000001836102443508087f30644e72e131a029b85045b68181585d2833e84879b9709143e1f593f0000001847f30644e72e131a029b85045b68181585d2833e84879b9709143e1f593f000000180600286096102643508087f30644e72e131a029b85045b68181585d2833e84879b9709143e1f593f0000001857f30644e72e131a029b85045b68181585d2833e84879b9709143e1f593f000000180600387096102843508087f30644e72e131a029b85045b68181585d2833e84879b9709143e1f593f000000160008901517f30644e72e131a029b85045b68181585d2833e84879b9709143e1f593f0000001837f30644e72e131a029b85045b68181585d2833e84879b9709143e1f593f000000186880909097f30644e72e131a029b85045b68181585d2833e84879b9709143e1f593f00000016102c08a01516103208b01510961117260c460c08901610d47565b6111cb7f30644e72e131a029b85045b68181585d2833e84879b9709143e1f593f00000016101608c01517f30644e72e131a029b85045b68181585d2833e84879b9709143e1f593f00000018486080860c0890189610e44565b7f30644e72e131a029b85045b68181585d2833e84879b9709143e1f593f0000001887f30644e72e131a029b85045b68181585d2833e84879b9709143e1f593f0000001806102a43560208f01510961024435080894507f30644e72e131a029b85045b68181585d2833e84879b9709143e1f593f0000001887f30644e72e131a029b85045b68181585d2833e84879b9709143e1f593f0000001806102c43560208f01510961026435080893507f30644e72e131a029b85045b68181585d2833e84879b9709143e1f593f00000016102e4357f30644e72e131a029b85045b68181585d2833e84879b9709143e1f593f000000160208d015160008e0151090992506113607f30644e72e131a029b85045b68181585d2833e84879b9709143e1f593f0000001847f30644e72e131a029b85045b68181585d2833e84879b9709143e1f593f0000001878909097f055c5e02feeef3b6c36d5227c77268b17e700582bf7b27ca8e4fe84bed58d7c77f19884a17e4ae5ccbfd7dce05d534ebee6c303f0f006aa90315e7bbfa19a4b0d160408b01610e09565b61136f61010460808901610d47565b61138b60808b0151602061014401356101443560808b01610d9e565b7f30644e72e131a029b85045b68181585d2833e84879b9709143e1f593f000000160808b015160808c0151096113cf81602061018401356101843560808c01610d9e565b6113eb6102e08c015160a08a015160808b015160808c01610e09565b7f30644e72e131a029b85045b68181585d97816a916871ca8d3c208c16d87cfd47602060408a0101517f30644e72e131a029b85045b68181585d97816a916871ca8d3c208c16d87cfd470306602060408a0101527f30644e72e131a029b85045b68181585d97816a916871ca8d3c208c16d87cfd4760a08901517f30644e72e131a029b85045b68181585d97816a916871ca8d3c208c16d87cfd47030660a0890152611497888b610d59565b6114a4604089018b610d59565b6114b1608089018b610d59565b5050505050505050505050565b61020081016114d16101c0830182610d27565b6114e860c083015160206004013560043584610d9e565b6114ff60e083015160206044013560443584610d9e565b61151761010083015160206084013560843584610d9e565b6115686101208301517f128ddb7ae70fbf55379138946be983f57abbda26cccbc348adbd9f3c3c2461217f0aae71f8d95161b833765727b3d899f41f73e8fa7287193dbecbfe71f3a388ea84610d9e565b6115b96101408301517f3055ac70dd6dc432458f2b9b8fec638c8cb5a2f82fe09621d6ae10773aa146287f2d84f84e056b95d485d208be10fcb7bd5ea16237ebf3a952d4505096cc860f2884610d9e565b5050565b7f30644e72e131a029b85045b68181585d2833e84879b9709143e1f593f00000016101a08201517f30644e72e131a029b85045b68181585d2833e84879b9709143e1f593f000000103067f30644e72e131a029b85045b68181585d2833e84879b9709143e1f593f00000018060c08401516102443509820890507f30644e72e131a029b85045b68181585d2833e84879b9709143e1f593f00000018060e08401516102643509820890507f30644e72e131a029b85045b68181585d2833e84879b9709143e1f593f0000001806101008401516102843509820890507f30644e72e131a029b85045b68181585d2833e84879b9709143e1f593f0000001806101208401516102a43509820890507f30644e72e131a029b85045b68181585d2833e84879b9709143e1f593f0000001806101408401516102c43509820890507f30644e72e131a029b85045b68181585d2833e84879b9709143e1f593f0000001806101608401516102e435098208905061173d81600260016102408601610e09565b5050565b6000604051610240810160405261018081016101c0820161020083016117696101c484610d47565b61177561020483610d47565b6117856101608701518386610e44565b61178f8385610d59565b7f30644e72e131a029b85045b68181585d97816a916871ca8d3c208c16d87cfd4760208501517f30644e72e131a029b85045b68181585d97816a916871ca8d3c208c16d87cfd47030660208501527f26186a2d65ee4d2f9c9a5b91f86597d35f192cd120caf7e935d8443d1938e23d60408501527f30441fd1b5d3370482c42152a8899027716989a6996c2535bc9f7fee8aaef79e60608501527f1970ea81dd6992adfbc571effb03503adbbb6a857f578403c6c40e22d65b3c0260808501527f054793348f12c0cf5622c340573cb277586319de359ab9389778f689786b1e4860a085015261188760608701518460c08701610e44565b7f30644e72e131a029b85045b68181585d2833e84879b9709143e1f593f00000016060870151610160880151097f30644e72e131a029b85045b68181585d2833e84879b9709143e1f593f00000017f2b337de1c8c14f22ec9b9e2f96afef3652627366f8170a0a948dad4ac1bd5e8082099050611905818484610e44565b6119128260c08701610d59565b611923610200880160c08701610d59565b7f30644e72e131a029b85045b68181585d97816a916871ca8d3c208c16d87cfd476020610240018801517f30644e72e131a029b85045b68181585d97816a916871ca8d3c208c16d87cfd47030660206102400188015261198a610240880160c08701610d59565b7f198e9393920d483a7260bfb731fb5d25f1aa493335a9e71297e485b7aef312c26101008601527f1800deef121f1e76426a00665e5c4479674322d4f75edadd46debd5cd992f6ed6101208601527f090689d0585ff075ec9e99ad690c3395bc4b313370b38ef355acdadcd122975b6101408601527f12c85ea5db8c6deb4aab71808dcb408fe3d1e7690c43d37b4ce6cc0166fa7daa6101608601526020856101808760086107d05a03fa855181169650505050505050919050565b6040516103608101604052611a59610206565b611a638382610250565b611a6c81610866565b611a768382610a1d565b611a7f81610ad5565b611a8881610e5a565b611a91816114be565b611a9a816115bd565b611aa381611741565b61036082036040528060005260206000f35b600080fd5b600080fd5b600081905082602060180282011115611adb57611ada611aba565b5b92915050565b600081905082602060020282011115611afd57611afc611aba565b5b92915050565b6000806103408385031215611b1b57611b1a611ab5565b5b6000611b2985828601611abf565b925050610300611b3b85828601611ae1565b9150509250929050565b60008115159050919050565b611b5a81611b45565b82525050565b6000602082019050611b756000830184611b51565b9291505056fea2646970667358221220f55c6c914b7fd64830fcbb717689ab2419b934d4ccb246402bc37957e6a3048f64736f6c63430008090033",
  "linkReferences": {},
  "deployedLinkReferences": {}
}