{
  "_format": "hh-sol-artifact-1",
  "contractName": "PlonkVerifier",
  "sourceName": "contracts/Verifier.sol",
  "abi": [
    {
      "inputs": [
        {
          "internalType": "uint256[24]",
          "name": "_proof",
          "type": "uint256[24]"
        },
        {
          "internalType": "uint256[1]",
          "name": "_pubSignals",
          "type": "uint256[1]"
        }
      ],
      "name": "verifyProof",
      "outputs": [
        {
          "internalType": "bool",
          "name": "",
          "type": "bool"
        }
      ],
      "stateMutability": "view",
      "type": "function"
    }
  ],
  "bytecode": "0x608060405234801561001057600080fd5b506119bf806100206000396000f3fe608060405234801561001057600080fd5b506004361061002b5760003560e01c8063ff7240a714610030575b600080fd5b61004a60048036038101906100459190611911565b610060565b604051610057919061196e565b60405180910390f35b6000611854565b600080600184846000805b821561009c5782840591508482028603905084955080945082820284039050829350809250610072565b60018411156100aa57600080fd5b60008612156100b95788860195505b85965050505050505092915050565b60405181602084028301815160208301925060005b82841015610120578185527f30644e72e131a029b85045b68181585d2833e84879b9709143e1f593f00000018451830991506020850194506020840193506100dd565b61014a7f30644e72e131a029b85045b68181585d2833e84879b9709143e1f593f000000183610067565b91506020850394506020840393508592505b828411156101c6577f30644e72e131a029b85045b68181585d2833e84879b9709143e1f593f00000018551830990507f30644e72e131a029b85045b68181585d2833e84879b9709143e1f593f000000184518309915080845260208503945060208403935061015c565b81845250505050505050565b7f30644e72e131a029b85045b68181585d2833e84879b9709143e1f593f00000018110610203576000805260206000f35b50565b610212610244356101d2565b61021e610264356101d2565b61022a610284356101d2565b6102366102a4356101d2565b6102426102c4356101d2565b61024e6102e4356101d2565b565b6000806040517f16c267dd4cf30f26f0564eb51c466dc1a5c907efd67ec76692d35fb1cdda0ce881527f2655eb98e5bbd2d8f1cdef1730dd3ef40f2375004a0a298b21b9807aa244f03460208201527f1f9be742471045cc436a97a2c8664790c8a99112bfd7c5cdbdb00c574342d28660408201527f15d573fc890afebd6308281bf667988a2a7df914b371bc46645aeff185f42ab3606082015260006080820152600060a08201527f16c267dd4cf30f26f0564eb51c466dc1a5c907efd67ec76692d35fb1cdda0ce860c08201527f0a0e62d9fb75cd50c682569f50a41969885df5911e67a1021a670b9c36380d1360e0820152600061010082015260006101208201527f05f52e577242bbd714129198820be347dd61940ebd3a29eacd6cd2f91a6c8c146101408201527f09bebc383182d60239a1676131559f775274c9f3a60a40c1decb91bd1652edd86101608201527e6304c95a8100438a1c93d627082acbb136b4e9769ab34887f667f1ae7b6a996101808201527f0953a04a4a70e490d204d95535ad4cb26a3b624a9ba2374d22a6e1d1876fa16c6101a08201527f0bb071cfe5e5f1e18bbcd462d29b5f157c648b683841caf9033d45096d95c9e96101c08201527f2ce6b0834b7bba47a0972f70f613d40b2f66ec401161f42bc0cc2ab8020482276101e082015260008501356102008201526004356102208201526020600401356102408201526044356102608201526020604401356102808201526084356102a08201526020608401356102c08201527f30644e72e131a029b85045b68181585d2833e84879b9709143e1f593f00000016102e082200692508260208501527f30644e72e131a029b85045b68181585d2833e84879b9709143e1f593f0000001602080860120066040850152602084015181526040840151602082015260c4356040820152602060c4013560608201527f30644e72e131a029b85045b68181585d2833e84879b9709143e1f593f0000001608082200691508160008501527f30644e72e131a029b85045b68181585d2833e84879b9709143e1f593f00000018283096102c08501528181526101043560208201526020610104013560408201526101443560608201526020610144013560808201526101843560a08201526020610184013560c08201527f30644e72e131a029b85045b68181585d2833e84879b9709143e1f593f000000160e082200691508160608501528181526102443560208201526102643560408201526102843560608201526102a43560808201526102c43560a08201526102e43560c08201527f30644e72e131a029b85045b68181585d2833e84879b9709143e1f593f000000160e08220068060c08601527f30644e72e131a029b85045b68181585d2833e84879b9709143e1f593f000000183850960a08601527f30644e72e131a029b85045b68181585d2833e84879b9709143e1f593f000000183840992507f30644e72e131a029b85045b68181585d2833e84879b9709143e1f593f000000183840992507f30644e72e131a029b85045b68181585d2833e84879b9709143e1f593f000000183840992508260808601527f30644e72e131a029b85045b68181585d2833e84879b9709143e1f593f0000001806001850301069250826102e0860152826103008601527f30644e72e131a029b85045b68181585d2833e84879b9709143e1f593f000000181820992508260e08601527f30644e72e131a029b85045b68181585d2833e84879b9709143e1f593f00000018184099250826101008601527f30644e72e131a029b85045b68181585d2833e84879b9709143e1f593f00000018184099250826101208601527f30644e72e131a029b85045b68181585d2833e84879b9709143e1f593f00000018184099250826101408601526101c435825260206101c4013560208301526102043560408301526020610204013560608301527f30644e72e131a029b85045b68181585d2833e84879b9709143e1f593f00000016080832006610160860152505050505050565b60017f30644e72e131a029b85045b68181585d2833e84879b9709143e1f593f0000001807f30644e72e131a029b85045b68181585d2833e84879b9709143e1f593f0000001836060860151030106600809610320830152610882600261030084016100c8565b6102e0820151600191507f30644e72e131a029b85045b68181585d2833e84879b9709143e1f593f00000018161032085015109610320840152505050565b60007f30644e72e131a029b85045b68181585d2833e84879b9709143e1f593f0000001807f30644e72e131a029b85045b68181585d2833e84879b9709143e1f593f000000160008601356103208601510983030106905080610180830152505050565b6101808101517f30644e72e131a029b85045b68181585d2833e84879b9709143e1f593f00000016102c0830151610320840151097f30644e72e131a029b85045b68181585d2833e84879b9709143e1f593f0000001806102a43560208601510961024435087f30644e72e131a029b85045b68181585d2833e84879b9709143e1f593f00000016040850151820890507f30644e72e131a029b85045b68181585d2833e84879b9709143e1f593f0000001806102c43560208701510961026435087f30644e72e131a029b85045b68181585d2833e84879b9709143e1f593f00000016040860151820890507f30644e72e131a029b85045b68181585d2833e84879b9709143e1f593f0000001604086015161028435087f30644e72e131a029b85045b68181585d2833e84879b9709143e1f593f0000001817f30644e72e131a029b85045b68181585d2833e84879b9709143e1f593f0000001848609097f30644e72e131a029b85045b68181585d2833e84879b9709143e1f593f00000016102e435820990507f30644e72e131a029b85045b68181585d2833e84879b9709143e1f593f00000016000880151820990507f30644e72e131a029b85045b68181585d2833e84879b9709143e1f593f000000180867f30644e72e131a029b85045b68181585d2833e84879b9709143e1f593f0000001030687087f30644e72e131a029b85045b68181585d2833e84879b9709143e1f593f000000180837f30644e72e131a029b85045b68181585d2833e84879b9709143e1f593f0000001030682089050806101a08901525050505050505050565b81518152602082015160208201525050565b818152826020820152505050565b81358152602082013560208201525050565b6040518151815260208201516020820152825160408201526020830151606082015260408260808360066107d05a03fa80610be6576000805260206000f35b50505050565b600060405183815284602082015285604082015260408160608360076107d05a03fa915081610c1f576000805260206000f35b825160408201526020830151606082015260408360808360066107d05a03fa915081610c4f576000805260206000f35b505050505050565b600060405183815284602082015285604082015260408360608360076107d05a03fa915081610c8a576000805260206000f35b505050505050565b610ca3836020840151845184610c57565b505050565b6101c0810160408201516040516101008101604052610cc960008085610b87565b610d3e7f30644e72e131a029b85045b68181585d2833e84879b9709143e1f593f00000016102643561024435097f2655eb98e5bbd2d8f1cdef1730dd3ef40f2375004a0a298b21b9807aa244f0347f16c267dd4cf30f26f0564eb51c466dc1a5c907efd67ec76692d35fb1cdda0ce886610bec565b610d8d610244357f15d573fc890afebd6308281bf667988a2a7df914b371bc46645aeff185f42ab37f1f9be742471045cc436a97a2c8664790c8a99112bfd7c5cdbdb00c574342d28686610bec565b610d9d6102643560008086610bec565b610dec610284357f0a0e62d9fb75cd50c682569f50a41969885df5911e67a1021a670b9c36380d137f16c267dd4cf30f26f0564eb51c466dc1a5c907efd67ec76692d35fb1cdda0ce886610bec565b60a08401517f30644e72e131a029b85045b68181585d2833e84879b9709143e1f593f0000001837f30644e72e131a029b85045b68181585d2833e84879b9709143e1f593f0000001836102443508087f30644e72e131a029b85045b68181585d2833e84879b9709143e1f593f0000001847f30644e72e131a029b85045b68181585d2833e84879b9709143e1f593f000000180600286096102643508087f30644e72e131a029b85045b68181585d2833e84879b9709143e1f593f0000001857f30644e72e131a029b85045b68181585d2833e84879b9709143e1f593f000000180600387096102843508087f30644e72e131a029b85045b68181585d2833e84879b9709143e1f593f000000160008901517f30644e72e131a029b85045b68181585d2833e84879b9709143e1f593f0000001837f30644e72e131a029b85045b68181585d2833e84879b9709143e1f593f000000186880909097f30644e72e131a029b85045b68181585d2833e84879b9709143e1f593f00000016102c08a01516103208b015109610f8160c460c08901610b95565b610fda7f30644e72e131a029b85045b68181585d2833e84879b9709143e1f593f00000016101608c01517f30644e72e131a029b85045b68181585d2833e84879b9709143e1f593f00000018486080860c0890189610c92565b7f30644e72e131a029b85045b68181585d2833e84879b9709143e1f593f0000001887f30644e72e131a029b85045b68181585d2833e84879b9709143e1f593f0000001806102a43560208f01510961024435080894507f30644e72e131a029b85045b68181585d2833e84879b9709143e1f593f0000001887f30644e72e131a029b85045b68181585d2833e84879b9709143e1f593f0000001806102c43560208f01510961026435080893507f30644e72e131a029b85045b68181585d2833e84879b9709143e1f593f00000016102e4357f30644e72e131a029b85045b68181585d2833e84879b9709143e1f593f000000160208d015160008e01510909925061116f7f30644e72e131a029b85045b68181585d2833e84879b9709143e1f593f0000001847f30644e72e131a029b85045b68181585d2833e84879b9709143e1f593f0000001878909097f2ce6b0834b7bba47a0972f70f613d40b2f66ec401161f42bc0cc2ab8020482277f0bb071cfe5e5f1e18bbcd462d29b5f157c648b683841caf9033d45096d95c9e960408b01610c57565b61117e61010460808901610b95565b61119a60808b0151602061014401356101443560808b01610bec565b7f30644e72e131a029b85045b68181585d2833e84879b9709143e1f593f000000160808b015160808c0151096111de81602061018401356101843560808c01610bec565b6111fa6102e08c015160a08a015160808b015160808c01610c57565b7f30644e72e131a029b85045b68181585d97816a916871ca8d3c208c16d87cfd47602060408a0101517f30644e72e131a029b85045b68181585d97816a916871ca8d3c208c16d87cfd470306602060408a0101527f30644e72e131a029b85045b68181585d97816a916871ca8d3c208c16d87cfd4760a08901517f30644e72e131a029b85045b68181585d97816a916871ca8d3c208c16d87cfd47030660a08901526112a6888b610ba7565b6112b3604089018b610ba7565b6112c0608089018b610ba7565b5050505050505050505050565b61020081016112e06101c0830182610b75565b6112f760c083015160206004013560043584610bec565b61130e60e083015160206044013560443584610bec565b61132661010083015160206084013560843584610bec565b6113776101208301517f09bebc383182d60239a1676131559f775274c9f3a60a40c1decb91bd1652edd87f05f52e577242bbd714129198820be347dd61940ebd3a29eacd6cd2f91a6c8c1484610bec565b6113c76101408301517f0953a04a4a70e490d204d95535ad4cb26a3b624a9ba2374d22a6e1d1876fa16c7e6304c95a8100438a1c93d627082acbb136b4e9769ab34887f667f1ae7b6a9984610bec565b5050565b7f30644e72e131a029b85045b68181585d2833e84879b9709143e1f593f00000016101a08201517f30644e72e131a029b85045b68181585d2833e84879b9709143e1f593f000000103067f30644e72e131a029b85045b68181585d2833e84879b9709143e1f593f00000018060c08401516102443509820890507f30644e72e131a029b85045b68181585d2833e84879b9709143e1f593f00000018060e08401516102643509820890507f30644e72e131a029b85045b68181585d2833e84879b9709143e1f593f0000001806101008401516102843509820890507f30644e72e131a029b85045b68181585d2833e84879b9709143e1f593f0000001806101208401516102a43509820890507f30644e72e131a029b85045b68181585d2833e84879b9709143e1f593f0000001806101408401516102c43509820890507f30644e72e131a029b85045b68181585d2833e84879b9709143e1f593f0000001806101608401516102e435098208905061154b81600260016102408601610c57565b5050565b6000604051610240810160405261018081016101c0820161020083016115776101c484610b95565b61158361020483610b95565b6115936101608701518386610c92565b61159d8385610ba7565b7f30644e72e131a029b85045b68181585d97816a916871ca8d3c208c16d87cfd4760208501517f30644e72e131a029b85045b68181585d97816a916871ca8d3c208c16d87cfd47030660208501527f26186a2d65ee4d2f9c9a5b91f86597d35f192cd120caf7e935d8443d1938e23d60408501527f30441fd1b5d3370482c42152a8899027716989a6996c2535bc9f7fee8aaef79e60608501527f1970ea81dd6992adfbc571effb03503adbbb6a857f578403c6c40e22d65b3c0260808501527f054793348f12c0cf5622c340573cb277586319de359ab9389778f689786b1e4860a085015261169560608701518460c08701610c92565b7f30644e72e131a029b85045b68181585d2833e84879b9709143e1f593f00000016060870151610160880151097f30644e72e131a029b85045b68181585d2833e84879b9709143e1f593f00000017f2b337de1c8c14f22ec9b9e2f96afef3652627366f8170a0a948dad4ac1bd5e8082099050611713818484610c92565b6117208260c08701610ba7565b611731610200880160c08701610ba7565b7f30644e72e131a029b85045b68181585d97816a916871ca8d3c208c16d87cfd476020610240018801517f30644e72e131a029b85045b68181585d97816a916871ca8d3c208c16d87cfd470306602061024001880152611798610240880160c08701610ba7565b7f198e9393920d483a7260bfb731fb5d25f1aa493335a9e71297e485b7aef312c26101008601527f1800deef121f1e76426a00665e5c4479674322d4f75edadd46debd5cd992f6ed6101208601527f090689d0585ff075ec9e99ad690c3395bc4b313370b38ef355acdadcd122975b6101408601527f12c85ea5db8c6deb4aab71808dcb408fe3d1e7690c43d37b4ce6cc0166fa7daa6101608601526020856101808760086107d05a03fa855181169650505050505050919050565b6040516103408101604052611867610206565b6118718382610250565b61187a8161081c565b61188483826108c0565b61188d81610923565b61189681610ca8565b61189f816112cd565b6118a8816113cb565b6118b18161154f565b61034082036040528060005260206000f35b600080fd5b600080fd5b6000819050826020601802820111156118e9576118e86118c8565b5b92915050565b60008190508260206001028201111561190b5761190a6118c8565b5b92915050565b6000806103208385031215611929576119286118c3565b5b6000611937858286016118cd565b925050610300611949858286016118ef565b9150509250929050565b60008115159050919050565b61196881611953565b82525050565b6000602082019050611983600083018461195f565b9291505056fea2646970667358221220946c76479d3c7be1dd3608d32e261692172bd4b2418681595a2cbe552f494e3664736f6c63430008090033",
  "linkReferences": {},
  "deployedLinkReferences": {}
}