{
  "_format": "hh-sol-artifact-1",
  "contractName": "MintNFT",
  "sourceName": "contracts/MintNFT.sol",
  "abi": [
    {
      "anonymous": false,
      "inputs": [
        {
          "indexed": true,
          "internalType": "address",
          "name": "owner",
          "type": "address"
        },
        {
          "indexed": true,
          "internalType": "address",
          "name": "approved",
          "type": "address"
        },
        {
          "indexed": true,
          "internalType": "uint256",
          "name": "tokenId",
          "type": "uint256"
        }
      ],
      "name": "Approval",
      "type": "event"
    },
    {
      "anonymous": false,
      "inputs": [
        {
          "indexed": true,
          "internalType": "address",
          "name": "owner",
          "type": "address"
        },
        {
          "indexed": true,
          "internalType": "address",
          "name": "operator",
          "type": "address"
        },
        {
          "indexed": false,
          "internalType": "bool",
          "name": "approved",
          "type": "bool"
        }
      ],
      "name": "ApprovalForAll",
      "type": "event"
    },
    {
      "anonymous": false,
      "inputs": [
        {
          "indexed": false,
          "internalType": "uint8",
          "name": "version",
          "type": "uint8"
        }
      ],
      "name": "Initialized",
      "type": "event"
    },
    {
      "anonymous": false,
      "inputs": [
        {
          "indexed": true,
          "internalType": "address",
          "name": "holder",
          "type": "address"
        },
        {
          "indexed": false,
          "internalType": "string",
          "name": "url",
          "type": "string"
        }
      ],
      "name": "MintedNFTAttributeURL",
      "type": "event"
    },
    {
      "anonymous": false,
      "inputs": [
        {
          "indexed": true,
          "internalType": "address",
          "name": "previousOwner",
          "type": "address"
        },
        {
          "indexed": true,
          "internalType": "address",
          "name": "newOwner",
          "type": "address"
        }
      ],
      "name": "OwnershipTransferred",
      "type": "event"
    },
    {
      "anonymous": false,
      "inputs": [
        {
          "indexed": true,
          "internalType": "address",
          "name": "from",
          "type": "address"
        },
        {
          "indexed": true,
          "internalType": "address",
          "name": "to",
          "type": "address"
        },
        {
          "indexed": true,
          "internalType": "uint256",
          "name": "tokenId",
          "type": "uint256"
        }
      ],
      "name": "Transfer",
      "type": "event"
    },
    {
      "inputs": [
        {
          "internalType": "address",
          "name": "to",
          "type": "address"
        },
        {
          "internalType": "uint256",
          "name": "tokenId",
          "type": "uint256"
        }
      ],
      "name": "approve",
      "outputs": [],
      "stateMutability": "nonpayable",
      "type": "function"
    },
    {
      "inputs": [
        {
          "internalType": "address",
          "name": "owner",
          "type": "address"
        }
      ],
      "name": "balanceOf",
      "outputs": [
        {
          "internalType": "uint256",
          "name": "",
          "type": "uint256"
        }
      ],
      "stateMutability": "view",
      "type": "function"
    },
    {
      "inputs": [
        {
          "internalType": "uint256",
          "name": "tokenId",
          "type": "uint256"
        }
      ],
      "name": "burn",
      "outputs": [],
      "stateMutability": "nonpayable",
      "type": "function"
    },
    {
      "inputs": [
        {
          "internalType": "uint256",
          "name": "_eventId",
          "type": "uint256"
        },
        {
          "internalType": "string",
          "name": "_secretPhrase",
          "type": "string"
        }
      ],
      "name": "canMint",
      "outputs": [
        {
          "internalType": "bool",
          "name": "",
          "type": "bool"
        }
      ],
      "stateMutability": "view",
      "type": "function"
    },
    {
      "inputs": [
        {
          "internalType": "uint256",
          "name": "_eventId",
          "type": "uint256"
        }
      ],
      "name": "changeMintableFlag",
      "outputs": [
        {
          "internalType": "bool",
          "name": "",
          "type": "bool"
        }
      ],
      "stateMutability": "nonpayable",
      "type": "function"
    },
    {
      "inputs": [
        {
          "internalType": "uint256",
          "name": "tokenId",
          "type": "uint256"
        }
      ],
      "name": "getApproved",
      "outputs": [
        {
          "internalType": "address",
          "name": "",
          "type": "address"
        }
      ],
      "stateMutability": "view",
      "type": "function"
    },
    {
      "inputs": [
        {
          "internalType": "uint256",
          "name": "_eventId",
          "type": "uint256"
        }
      ],
      "name": "getRemainingNFTCount",
      "outputs": [
        {
          "internalType": "uint256",
          "name": "",
          "type": "uint256"
        }
      ],
      "stateMutability": "view",
      "type": "function"
    },
    {
      "inputs": [
        {
          "internalType": "contract MinimalForwarderUpgradeable",
          "name": "trustedForwarder",
          "type": "address"
        }
      ],
      "name": "initialize",
      "outputs": [],
      "stateMutability": "nonpayable",
      "type": "function"
    },
    {
      "inputs": [
        {
          "internalType": "address",
          "name": "owner",
          "type": "address"
        },
        {
          "internalType": "address",
          "name": "operator",
          "type": "address"
        }
      ],
      "name": "isApprovedForAll",
      "outputs": [
        {
          "internalType": "bool",
          "name": "",
          "type": "bool"
        }
      ],
      "stateMutability": "view",
      "type": "function"
    },
    {
      "inputs": [
        {
          "internalType": "address",
          "name": "_addr",
          "type": "address"
        },
        {
          "internalType": "uint256",
          "name": "_eventId",
          "type": "uint256"
        }
      ],
      "name": "isHoldingEventNFTByAddress",
      "outputs": [
        {
          "internalType": "bool",
          "name": "",
          "type": "bool"
        }
      ],
      "stateMutability": "view",
      "type": "function"
    },
    {
      "inputs": [
        {
          "internalType": "address",
          "name": "forwarder",
          "type": "address"
        }
      ],
      "name": "isTrustedForwarder",
      "outputs": [
        {
          "internalType": "bool",
          "name": "",
          "type": "bool"
        }
      ],
      "stateMutability": "view",
      "type": "function"
    },
    {
      "inputs": [
        {
          "internalType": "uint256",
          "name": "_groupId",
          "type": "uint256"
        },
        {
          "internalType": "uint256",
          "name": "_eventId",
          "type": "uint256"
        },
        {
          "internalType": "string",
          "name": "_secretPhrase",
          "type": "string"
        }
      ],
      "name": "mintParticipateNFT",
      "outputs": [],
      "stateMutability": "nonpayable",
      "type": "function"
    },
    {
      "inputs": [],
      "name": "name",
      "outputs": [
        {
          "internalType": "string",
          "name": "",
          "type": "string"
        }
      ],
      "stateMutability": "view",
      "type": "function"
    },
    {
      "inputs": [],
      "name": "owner",
      "outputs": [
        {
          "internalType": "address",
          "name": "",
          "type": "address"
        }
      ],
      "stateMutability": "view",
      "type": "function"
    },
    {
      "inputs": [
        {
          "internalType": "uint256",
          "name": "tokenId",
          "type": "uint256"
        }
      ],
      "name": "ownerOf",
      "outputs": [
        {
          "internalType": "address",
          "name": "",
          "type": "address"
        }
      ],
      "stateMutability": "view",
      "type": "function"
    },
    {
      "inputs": [],
      "name": "renounceOwnership",
      "outputs": [],
      "stateMutability": "nonpayable",
      "type": "function"
    },
    {
      "inputs": [
        {
          "internalType": "address",
          "name": "from",
          "type": "address"
        },
        {
          "internalType": "address",
          "name": "to",
          "type": "address"
        },
        {
          "internalType": "uint256",
          "name": "tokenId",
          "type": "uint256"
        }
      ],
      "name": "safeTransferFrom",
      "outputs": [],
      "stateMutability": "nonpayable",
      "type": "function"
    },
    {
      "inputs": [
        {
          "internalType": "address",
          "name": "from",
          "type": "address"
        },
        {
          "internalType": "address",
          "name": "to",
          "type": "address"
        },
        {
          "internalType": "uint256",
          "name": "tokenId",
          "type": "uint256"
        },
        {
          "internalType": "bytes",
          "name": "data",
          "type": "bytes"
        }
      ],
      "name": "safeTransferFrom",
      "outputs": [],
      "stateMutability": "nonpayable",
      "type": "function"
    },
    {
      "inputs": [
        {
          "internalType": "address",
          "name": "operator",
          "type": "address"
        },
        {
          "internalType": "bool",
          "name": "approved",
          "type": "bool"
        }
      ],
      "name": "setApprovalForAll",
      "outputs": [],
      "stateMutability": "nonpayable",
      "type": "function"
    },
    {
      "inputs": [
        {
          "internalType": "uint256",
          "name": "_eventId",
          "type": "uint256"
        },
        {
          "internalType": "uint256",
          "name": "_mintLimit",
          "type": "uint256"
        },
        {
          "internalType": "bytes32",
          "name": "_secretPhrase",
          "type": "bytes32"
        },
        {
          "components": [
            {
              "internalType": "string",
              "name": "metaDataURL",
              "type": "string"
            },
            {
              "internalType": "uint256",
              "name": "requiredParticipateCount",
              "type": "uint256"
            }
          ],
          "internalType": "struct MintNFT.NFTAttribute[]",
          "name": "attributes",
          "type": "tuple[]"
        }
      ],
      "name": "setEventInfo",
      "outputs": [],
      "stateMutability": "nonpayable",
      "type": "function"
    },
    {
      "inputs": [
        {
          "internalType": "address",
          "name": "_addr",
          "type": "address"
        }
      ],
      "name": "setEventManagerAddr",
      "outputs": [],
      "stateMutability": "nonpayable",
      "type": "function"
    },
    {
      "inputs": [
        {
          "internalType": "bytes4",
          "name": "interfaceId",
          "type": "bytes4"
        }
      ],
      "name": "supportsInterface",
      "outputs": [
        {
          "internalType": "bool",
          "name": "",
          "type": "bool"
        }
      ],
      "stateMutability": "view",
      "type": "function"
    },
    {
      "inputs": [],
      "name": "symbol",
      "outputs": [
        {
          "internalType": "string",
          "name": "",
          "type": "string"
        }
      ],
      "stateMutability": "view",
      "type": "function"
    },
    {
      "inputs": [
        {
          "internalType": "uint256",
          "name": "index",
          "type": "uint256"
        }
      ],
      "name": "tokenByIndex",
      "outputs": [
        {
          "internalType": "uint256",
          "name": "",
          "type": "uint256"
        }
      ],
      "stateMutability": "view",
      "type": "function"
    },
    {
      "inputs": [
        {
          "internalType": "address",
          "name": "owner",
          "type": "address"
        },
        {
          "internalType": "uint256",
          "name": "index",
          "type": "uint256"
        }
      ],
      "name": "tokenOfOwnerByIndex",
      "outputs": [
        {
          "internalType": "uint256",
          "name": "",
          "type": "uint256"
        }
      ],
      "stateMutability": "view",
      "type": "function"
    },
    {
      "inputs": [
        {
          "internalType": "uint256",
          "name": "_tokenId",
          "type": "uint256"
        }
      ],
      "name": "tokenURI",
      "outputs": [
        {
          "internalType": "string",
          "name": "",
          "type": "string"
        }
      ],
      "stateMutability": "view",
      "type": "function"
    },
    {
      "inputs": [],
      "name": "totalSupply",
      "outputs": [
        {
          "internalType": "uint256",
          "name": "",
          "type": "uint256"
        }
      ],
      "stateMutability": "view",
      "type": "function"
    },
    {
      "inputs": [
        {
          "internalType": "address",
          "name": "from",
          "type": "address"
        },
        {
          "internalType": "address",
          "name": "to",
          "type": "address"
        },
        {
          "internalType": "uint256",
          "name": "tokenId",
          "type": "uint256"
        }
      ],
      "name": "transferFrom",
      "outputs": [],
      "stateMutability": "nonpayable",
      "type": "function"
    },
    {
      "inputs": [
        {
          "internalType": "address",
          "name": "newOwner",
          "type": "address"
        }
      ],
      "name": "transferOwnership",
      "outputs": [],
      "stateMutability": "nonpayable",
      "type": "function"
    }
  ],
  "bytecode": "0x608060405234801561001057600080fd5b5061482e806100206000396000f3fe608060405234801561001057600080fd5b50600436106101cf5760003560e01c80636352211e11610104578063a22cb465116100a2578063d622abc211610071578063d622abc214610562578063e985e9c514610592578063ef3ad9eb146105c2578063f2fde38b146105de576101cf565b8063a22cb465146104de578063b88d4fde146104fa578063c4d66de814610516578063c87b56dd14610532576101cf565b806372746a8d116100de57806372746a8d1461046a5780638da5cb5b146104865780639041e3f4146104a457806395d89b41146104c0576101cf565b80636352211e1461040057806370a0823114610430578063715018a614610460576101cf565b80632f745c59116101715780634f6ccce71161014b5780634f6ccce7146103405780634ffc9f4b14610370578063572b6c05146103a05780635ade0736146103d0576101cf565b80632f745c59146102d857806342842e0e1461030857806342966c6814610324576101cf565b8063095ea7b3116101ad578063095ea7b31461025257806318160ddd1461026e57806323b872dd1461028c5780632b3e4436146102a8576101cf565b806301ffc9a7146101d457806306fdde0314610204578063081812fc14610222575b600080fd5b6101ee60048036038101906101e99190612ed9565b6105fa565b6040516101fb9190612f21565b60405180910390f35b61020c610674565b6040516102199190612fd5565b60405180910390f35b61023c6004803603810190610237919061302d565b610706565b604051610249919061309b565b60405180910390f35b61026c600480360381019061026791906130e2565b61074c565b005b610276610864565b6040516102839190613131565b60405180910390f35b6102a660048036038101906102a1919061314c565b610871565b005b6102c260048036038101906102bd91906132d4565b6108d1565b6040516102cf9190612f21565b60405180910390f35b6102f260048036038101906102ed91906130e2565b610a31565b6040516102ff9190613131565b60405180910390f35b610322600480360381019061031d919061314c565b610ad6565b005b61033e6004803603810190610339919061302d565b610af6565b005b61035a6004803603810190610355919061302d565b610b0a565b6040516103679190613131565b60405180910390f35b61038a6004803603810190610385919061302d565b610b7b565b6040516103979190613131565b60405180910390f35b6103ba60048036038101906103b59190613330565b610b99565b6040516103c79190612f21565b60405180910390f35b6103ea60048036038101906103e5919061302d565b610bf3565b6040516103f79190612f21565b60405180910390f35b61041a6004803603810190610415919061302d565b610c53565b604051610427919061309b565b60405180910390f35b61044a60048036038101906104459190613330565b610d05565b6040516104579190613131565b60405180910390f35b610468610dbd565b005b610484600480360381019061047f919061335d565b610dd1565b005b61048e611106565b60405161049b919061309b565b60405180910390f35b6104be60048036038101906104b99190613330565b611130565b005b6104c86111ed565b6040516104d59190612fd5565b60405180910390f35b6104f860048036038101906104f391906133f8565b61127f565b005b610514600480360381019061050f91906134d9565b611295565b005b610530600480360381019061052b919061359a565b6112f7565b005b61054c6004803603810190610547919061302d565b6114b3565b6040516105599190612fd5565b60405180910390f35b61057c600480360381019061057791906130e2565b61155f565b6040516105899190612f21565b60405180910390f35b6105ac60048036038101906105a791906135c7565b611594565b6040516105b99190612f21565b60405180910390f35b6105dc60048036038101906105d79190613799565b611628565b005b6105f860048036038101906105f39190613330565b611786565b005b60007f780e9d63000000000000000000000000000000000000000000000000000000007bffffffffffffffffffffffffffffffffffffffffffffffffffffffff1916827bffffffffffffffffffffffffffffffffffffffffffffffffffffffff1916148061066d575061066c8261180a565b5b9050919050565b6060606580546106839061384b565b80601f01602080910402602001604051908101604052809291908181526020018280546106af9061384b565b80156106fc5780601f106106d1576101008083540402835291602001916106fc565b820191906000526020600020905b8154815290600101906020018083116106df57829003601f168201915b5050505050905090565b6000610711826118ec565b6069600083815260200190815260200160002060009054906101000a900473ffffffffffffffffffffffffffffffffffffffff169050919050565b600061075782610c53565b90508073ffffffffffffffffffffffffffffffffffffffff168373ffffffffffffffffffffffffffffffffffffffff1614156107c8576040517f08c379a00000000000000000000000000000000000000000000000000000000081526004016107bf906138ef565b60405180910390fd5b8073ffffffffffffffffffffffffffffffffffffffff166107e7611937565b73ffffffffffffffffffffffffffffffffffffffff161480610816575061081581610810611937565b611594565b5b610855576040517f08c379a000000000000000000000000000000000000000000000000000000000815260040161084c90613981565b60405180910390fd5b61085f8383611969565b505050565b6000609980549050905090565b61088261087c611937565b82611a22565b6108c1576040517f08c379a00000000000000000000000000000000000000000000000000000000081526004016108b890613a13565b60405180910390fd5b6108cc838383611ab7565b505050565b60006108dd8284611d1e565b61091c576040517f08c379a000000000000000000000000000000000000000000000000000000000815260040161091390613a7f565b60405180910390fd5b60006101346000858152602001908152602001600020541415610974576040517f08c379a000000000000000000000000000000000000000000000000000000000815260040161096b90613aeb565b60405180910390fd5b61098561097f611937565b8461155f565b156109c5576040517f08c379a00000000000000000000000000000000000000000000000000000000081526004016109bc90613b57565b60405180910390fd5b610136600084815260200190815260200160002060009054906101000a900460ff1615610a27576040517f08c379a0000000000000000000000000000000000000000000000000000000008152600401610a1e90613bc3565b60405180910390fd5b6001905092915050565b6000610a3c83610d05565b8210610a7d576040517f08c379a0000000000000000000000000000000000000000000000000000000008152600401610a7490613c55565b60405180910390fd5b609760008473ffffffffffffffffffffffffffffffffffffffff1673ffffffffffffffffffffffffffffffffffffffff168152602001908152602001600020600083815260200190815260200160002054905092915050565b610af183838360405180602001604052806000815250611295565b505050565b610afe611d51565b610b0781611dcf565b50565b6000610b14610864565b8210610b55576040517f08c379a0000000000000000000000000000000000000000000000000000000008152600401610b4c90613ce7565b60405180910390fd5b60998281548110610b6957610b68613d07565b5b90600052602060002001549050919050565b60006101346000838152602001908152602001600020549050919050565b600060c960009054906101000a900473ffffffffffffffffffffffffffffffffffffffff1673ffffffffffffffffffffffffffffffffffffffff168273ffffffffffffffffffffffffffffffffffffffff16149050919050565b6000610bfd611d51565b6001610136600084815260200190815260200160002060006101000a81548160ff021916908315150217905550610136600083815260200190815260200160002060009054906101000a900460ff169050919050565b6000806067600084815260200190815260200160002060009054906101000a900473ffffffffffffffffffffffffffffffffffffffff169050600073ffffffffffffffffffffffffffffffffffffffff168173ffffffffffffffffffffffffffffffffffffffff161415610cfc576040517f08c379a0000000000000000000000000000000000000000000000000000000008152600401610cf390613d82565b60405180910390fd5b80915050919050565b60008073ffffffffffffffffffffffffffffffffffffffff168273ffffffffffffffffffffffffffffffffffffffff161415610d76576040517f08c379a0000000000000000000000000000000000000000000000000000000008152600401610d6d90613e14565b60405180910390fd5b606860008373ffffffffffffffffffffffffffffffffffffffff1673ffffffffffffffffffffffffffffffffffffffff168152602001908152602001600020549050919050565b610dc5611d51565b610dcf6000611eec565b565b610ddb82826108d1565b506001610134600084815260200190815260200160002054610dfd9190613e63565b61013460008481526020019081526020016000208190555060016101316000610e2d610e27611937565b86611fb2565b815260200190815260200160002060006101000a81548160ff0219169083151502179055506000610e65610e5f611937565b85611fb2565b905060006101326000838152602001908152602001600020549050600181610e8d9190613e97565b61013260008481526020019081526020016000208190555060006101336000610eb7876000611fe5565b81526020019081526020016000208054610ed09061384b565b80601f0160208091040260200160405190810160405280929190818152602001828054610efc9061384b565b8015610f495780601f10610f1e57610100808354040283529160200191610f49565b820191906000526020600020905b815481529060010190602001808311610f2c57829003601f168201915b5050505050905060006101336000610f618886611fe5565b81526020019081526020016000208054610f7a9061384b565b80601f0160208091040260200160405190810160405280929190818152602001828054610fa69061384b565b8015610ff35780601f10610fc857610100808354040283529160200191610ff3565b820191906000526020600020905b815481529060010190602001808311610fd657829003601f168201915b5050505050905060405160200161100990613f1e565b60405160208183030381529060405280519060200120816040516020016110309190613f64565b604051602081830303815290604052805190602001201461104f578091505b81610130600061106061012e612018565b81526020019081526020016000209080519060200190611081929190612dca565b5061109d61108d611937565b61109861012e612018565b612026565b6110a861012e612044565b6110b0611937565b73ffffffffffffffffffffffffffffffffffffffff167faf2fad1984d2c7abaa9300537cf9fe1bcfaf2d6226e4ffdf03522dbf3064808e836040516110f59190612fd5565b60405180910390a250505050505050565b600060fc60009054906101000a900473ffffffffffffffffffffffffffffffffffffffff16905090565b611138611d51565b600073ffffffffffffffffffffffffffffffffffffffff168173ffffffffffffffffffffffffffffffffffffffff1614156111a8576040517f08c379a000000000000000000000000000000000000000000000000000000000815260040161119f90613fc7565b60405180910390fd5b8061012f60006101000a81548173ffffffffffffffffffffffffffffffffffffffff021916908373ffffffffffffffffffffffffffffffffffffffff16021790555050565b6060606680546111fc9061384b565b80601f01602080910402602001604051908101604052809291908181526020018280546112289061384b565b80156112755780601f1061124a57610100808354040283529160200191611275565b820191906000526020600020905b81548152906001019060200180831161125857829003601f168201915b5050505050905090565b61129161128a611937565b838361205a565b5050565b6112a66112a0611937565b83611a22565b6112e5576040517f08c379a00000000000000000000000000000000000000000000000000000000081526004016112dc90613a13565b60405180910390fd5b6112f1848484846121c7565b50505050565b60008060019054906101000a900460ff161590508080156113285750600160008054906101000a900460ff1660ff16105b80611355575061133730612223565b1580156113545750600160008054906101000a900460ff1660ff16145b5b611394576040517f08c379a000000000000000000000000000000000000000000000000000000000815260040161138b90614059565b60405180910390fd5b60016000806101000a81548160ff021916908360ff16021790555080156113d1576001600060016101000a81548160ff0219169083151502179055505b6114456040518060400160405280600981526020017f4d696e7452616c6c7900000000000000000000000000000000000000000000008152506040518060400160405280600281526020017f4d52000000000000000000000000000000000000000000000000000000000000815250612246565b61144d6122a3565b611456826122fc565b80156114af5760008060016101000a81548160ff0219169083151502179055507f7f26b83ff96e1f2b6a682f133852f6798a09c465da95921460cefb384740249860016040516114a691906140cb565b60405180910390a15b5050565b60606000610130600084815260200190815260200160002080546114d69061384b565b80601f01602080910402602001604051908101604052809291908181526020018280546115029061384b565b801561154f5780601f106115245761010080835404028352916020019161154f565b820191906000526020600020905b81548152906001019060200180831161153257829003601f168201915b5050505050905080915050919050565b600061013160006115708585611fb2565b815260200190815260200160002060009054906101000a900460ff16905092915050565b6000606a60008473ffffffffffffffffffffffffffffffffffffffff1673ffffffffffffffffffffffffffffffffffffffff16815260200190815260200160002060008373ffffffffffffffffffffffffffffffffffffffff1673ffffffffffffffffffffffffffffffffffffffff16815260200190815260200160002060009054906101000a900460ff16905092915050565b61012f60009054906101000a900473ffffffffffffffffffffffffffffffffffffffff1673ffffffffffffffffffffffffffffffffffffffff1661166a611937565b73ffffffffffffffffffffffffffffffffffffffff16146116c0576040517f08c379a00000000000000000000000000000000000000000000000000000000081526004016116b790614132565b60405180910390fd5b826101346000868152602001908152602001600020819055508161013560008681526020019081526020016000208190555060005b815181101561177f5781818151811061171157611710613d07565b5b602002602001015160000151610133600061174a8886868151811061173957611738613d07565b5b602002602001015160200151611fe5565b8152602001908152602001600020908051906020019061176b929190612dca565b50808061177790614152565b9150506116f5565b5050505050565b61178e611d51565b600073ffffffffffffffffffffffffffffffffffffffff168173ffffffffffffffffffffffffffffffffffffffff1614156117fe576040517f08c379a00000000000000000000000000000000000000000000000000000000081526004016117f59061420d565b60405180910390fd5b61180781611eec565b50565b60007f80ac58cd000000000000000000000000000000000000000000000000000000007bffffffffffffffffffffffffffffffffffffffffffffffffffffffff1916827bffffffffffffffffffffffffffffffffffffffffffffffffffffffff191614806118d557507f5b5e139f000000000000000000000000000000000000000000000000000000007bffffffffffffffffffffffffffffffffffffffffffffffffffffffff1916827bffffffffffffffffffffffffffffffffffffffffffffffffffffffff1916145b806118e557506118e482612397565b5b9050919050565b6118f581612401565b611934576040517f08c379a000000000000000000000000000000000000000000000000000000000815260040161192b90613d82565b60405180910390fd5b50565b600061194233610b99565b1561195657601436033560601c9050611965565b61195e61246d565b9050611966565b5b90565b816069600083815260200190815260200160002060006101000a81548173ffffffffffffffffffffffffffffffffffffffff021916908373ffffffffffffffffffffffffffffffffffffffff160217905550808273ffffffffffffffffffffffffffffffffffffffff166119dc83610c53565b73ffffffffffffffffffffffffffffffffffffffff167f8c5be1e5ebec7d5bd14f71427d1e84f3dd0314c0f7b2291e5b200ac8c7c3b92560405160405180910390a45050565b600080611a2e83610c53565b90508073ffffffffffffffffffffffffffffffffffffffff168473ffffffffffffffffffffffffffffffffffffffff161480611a705750611a6f8185611594565b5b80611aae57508373ffffffffffffffffffffffffffffffffffffffff16611a9684610706565b73ffffffffffffffffffffffffffffffffffffffff16145b91505092915050565b8273ffffffffffffffffffffffffffffffffffffffff16611ad782610c53565b73ffffffffffffffffffffffffffffffffffffffff1614611b2d576040517f08c379a0000000000000000000000000000000000000000000000000000000008152600401611b249061429f565b60405180910390fd5b600073ffffffffffffffffffffffffffffffffffffffff168273ffffffffffffffffffffffffffffffffffffffff161415611b9d576040517f08c379a0000000000000000000000000000000000000000000000000000000008152600401611b9490614331565b60405180910390fd5b611ba883838361249f565b611bb3600082611969565b6001606860008573ffffffffffffffffffffffffffffffffffffffff1673ffffffffffffffffffffffffffffffffffffffff1681526020019081526020016000206000828254611c039190613e63565b925050819055506001606860008473ffffffffffffffffffffffffffffffffffffffff1673ffffffffffffffffffffffffffffffffffffffff1681526020019081526020016000206000828254611c5a9190613e97565b92505081905550816067600083815260200190815260200160002060006101000a81548173ffffffffffffffffffffffffffffffffffffffff021916908373ffffffffffffffffffffffffffffffffffffffff160217905550808273ffffffffffffffffffffffffffffffffffffffff168473ffffffffffffffffffffffffffffffffffffffff167fddf252ad1be2c89b69c2b068fc378daa952ba7f163c4a11628f55a4df523b3ef60405160405180910390a4611d198383836125b3565b505050565b60008083805190602001209050600081610135600086815260200190815260200160002054149050809250505092915050565b611d59611937565b73ffffffffffffffffffffffffffffffffffffffff16611d77611106565b73ffffffffffffffffffffffffffffffffffffffff1614611dcd576040517f08c379a0000000000000000000000000000000000000000000000000000000008152600401611dc49061439d565b60405180910390fd5b565b6000611dda82610c53565b9050611de88160008461249f565b611df3600083611969565b6001606860008373ffffffffffffffffffffffffffffffffffffffff1673ffffffffffffffffffffffffffffffffffffffff1681526020019081526020016000206000828254611e439190613e63565b925050819055506067600083815260200190815260200160002060006101000a81549073ffffffffffffffffffffffffffffffffffffffff021916905581600073ffffffffffffffffffffffffffffffffffffffff168273ffffffffffffffffffffffffffffffffffffffff167fddf252ad1be2c89b69c2b068fc378daa952ba7f163c4a11628f55a4df523b3ef60405160405180910390a4611ee8816000846125b3565b5050565b600060fc60009054906101000a900473ffffffffffffffffffffffffffffffffffffffff1690508160fc60006101000a81548173ffffffffffffffffffffffffffffffffffffffff021916908373ffffffffffffffffffffffffffffffffffffffff1602179055508173ffffffffffffffffffffffffffffffffffffffff168173ffffffffffffffffffffffffffffffffffffffff167f8be0079c531659141344cd1fd0a4f28419497f9722a3daafe3b4186f6b6457e060405160405180910390a35050565b60008282604051602001611fc7929190614426565b60405160208183030381529060405280519060200120905092915050565b60008282604051602001611ffa929190614452565b60405160208183030381529060405280519060200120905092915050565b600081600001549050919050565b6120408282604051806020016040528060008152506125b8565b5050565b6001816000016000828254019250508190555050565b8173ffffffffffffffffffffffffffffffffffffffff168373ffffffffffffffffffffffffffffffffffffffff1614156120c9576040517f08c379a00000000000000000000000000000000000000000000000000000000081526004016120c0906144ca565b60405180910390fd5b80606a60008573ffffffffffffffffffffffffffffffffffffffff1673ffffffffffffffffffffffffffffffffffffffff16815260200190815260200160002060008473ffffffffffffffffffffffffffffffffffffffff1673ffffffffffffffffffffffffffffffffffffffff16815260200190815260200160002060006101000a81548160ff0219169083151502179055508173ffffffffffffffffffffffffffffffffffffffff168373ffffffffffffffffffffffffffffffffffffffff167f17307eab39ab6107e8899845ad3d59bd9653f200f220920489ca2b5937696c31836040516121ba9190612f21565b60405180910390a3505050565b6121d2848484611ab7565b6121de84848484612613565b61221d576040517f08c379a00000000000000000000000000000000000000000000000000000000081526004016122149061455c565b60405180910390fd5b50505050565b6000808273ffffffffffffffffffffffffffffffffffffffff163b119050919050565b600060019054906101000a900460ff16612295576040517f08c379a000000000000000000000000000000000000000000000000000000000815260040161228c906145ee565b60405180910390fd5b61229f82826127aa565b5050565b600060019054906101000a900460ff166122f2576040517f08c379a00000000000000000000000000000000000000000000000000000000081526004016122e9906145ee565b60405180910390fd5b6122fa61282b565b565b600060019054906101000a900460ff1661234b576040517f08c379a0000000000000000000000000000000000000000000000000000000008152600401612342906145ee565b60405180910390fd5b61235361288c565b8060c960006101000a81548173ffffffffffffffffffffffffffffffffffffffff021916908373ffffffffffffffffffffffffffffffffffffffff16021790555050565b60007f01ffc9a7000000000000000000000000000000000000000000000000000000007bffffffffffffffffffffffffffffffffffffffffffffffffffffffff1916827bffffffffffffffffffffffffffffffffffffffffffffffffffffffff1916149050919050565b60008073ffffffffffffffffffffffffffffffffffffffff166067600084815260200190815260200160002060009054906101000a900473ffffffffffffffffffffffffffffffffffffffff1673ffffffffffffffffffffffffffffffffffffffff1614159050919050565b600061247833610b99565b1561248c57601436033560601c905061249b565b6124946128dd565b905061249c565b5b90565b6124aa8383836128e5565b600073ffffffffffffffffffffffffffffffffffffffff168373ffffffffffffffffffffffffffffffffffffffff1614156124ed576124e8816128ea565b61252c565b8173ffffffffffffffffffffffffffffffffffffffff168373ffffffffffffffffffffffffffffffffffffffff161461252b5761252a8382612933565b5b5b600073ffffffffffffffffffffffffffffffffffffffff168273ffffffffffffffffffffffffffffffffffffffff16141561256f5761256a81612aa0565b6125ae565b8273ffffffffffffffffffffffffffffffffffffffff168273ffffffffffffffffffffffffffffffffffffffff16146125ad576125ac8282612b71565b5b5b505050565b505050565b6125c28383612bf0565b6125cf6000848484612613565b61260e576040517f08c379a00000000000000000000000000000000000000000000000000000000081526004016126059061455c565b60405180910390fd5b505050565b60006126348473ffffffffffffffffffffffffffffffffffffffff16612223565b1561279d578373ffffffffffffffffffffffffffffffffffffffff1663150b7a0261265d611937565b8786866040518563ffffffff1660e01b815260040161267f9493929190614663565b602060405180830381600087803b15801561269957600080fd5b505af19250505080156126ca57506040513d601f19601f820116820180604052508101906126c791906146c4565b60015b61274d573d80600081146126fa576040519150601f19603f3d011682016040523d82523d6000602084013e6126ff565b606091505b50600081511415612745576040517f08c379a000000000000000000000000000000000000000000000000000000000815260040161273c9061455c565b60405180910390fd5b805181602001fd5b63150b7a0260e01b7bffffffffffffffffffffffffffffffffffffffffffffffffffffffff1916817bffffffffffffffffffffffffffffffffffffffffffffffffffffffff1916149150506127a2565b600190505b949350505050565b600060019054906101000a900460ff166127f9576040517f08c379a00000000000000000000000000000000000000000000000000000000081526004016127f0906145ee565b60405180910390fd5b816065908051906020019061280f929190612dca565b508060669080519060200190612826929190612dca565b505050565b600060019054906101000a900460ff1661287a576040517f08c379a0000000000000000000000000000000000000000000000000000000008152600401612871906145ee565b60405180910390fd5b61288a612885611937565b611eec565b565b600060019054906101000a900460ff166128db576040517f08c379a00000000000000000000000000000000000000000000000000000000081526004016128d2906145ee565b60405180910390fd5b565b600033905090565b505050565b609980549050609a600083815260200190815260200160002081905550609981908060018154018082558091505060019003906000526020600020016000909190919091505550565b6000600161294084610d05565b61294a9190613e63565b9050600060986000848152602001908152602001600020549050818114612a2f576000609760008673ffffffffffffffffffffffffffffffffffffffff1673ffffffffffffffffffffffffffffffffffffffff168152602001908152602001600020600084815260200190815260200160002054905080609760008773ffffffffffffffffffffffffffffffffffffffff1673ffffffffffffffffffffffffffffffffffffffff168152602001908152602001600020600084815260200190815260200160002081905550816098600083815260200190815260200160002081905550505b6098600084815260200190815260200160002060009055609760008573ffffffffffffffffffffffffffffffffffffffff1673ffffffffffffffffffffffffffffffffffffffff16815260200190815260200160002060008381526020019081526020016000206000905550505050565b60006001609980549050612ab49190613e63565b90506000609a6000848152602001908152602001600020549050600060998381548110612ae457612ae3613d07565b5b906000526020600020015490508060998381548110612b0657612b05613d07565b5b906000526020600020018190555081609a600083815260200190815260200160002081905550609a6000858152602001908152602001600020600090556099805480612b5557612b546146f1565b5b6001900381819060005260206000200160009055905550505050565b6000612b7c83610d05565b905081609760008573ffffffffffffffffffffffffffffffffffffffff1673ffffffffffffffffffffffffffffffffffffffff168152602001908152602001600020600083815260200190815260200160002081905550806098600084815260200190815260200160002081905550505050565b600073ffffffffffffffffffffffffffffffffffffffff168273ffffffffffffffffffffffffffffffffffffffff161415612c60576040517f08c379a0000000000000000000000000000000000000000000000000000000008152600401612c579061476c565b60405180910390fd5b612c6981612401565b15612ca9576040517f08c379a0000000000000000000000000000000000000000000000000000000008152600401612ca0906147d8565b60405180910390fd5b612cb56000838361249f565b6001606860008473ffffffffffffffffffffffffffffffffffffffff1673ffffffffffffffffffffffffffffffffffffffff1681526020019081526020016000206000828254612d059190613e97565b92505081905550816067600083815260200190815260200160002060006101000a81548173ffffffffffffffffffffffffffffffffffffffff021916908373ffffffffffffffffffffffffffffffffffffffff160217905550808273ffffffffffffffffffffffffffffffffffffffff16600073ffffffffffffffffffffffffffffffffffffffff167fddf252ad1be2c89b69c2b068fc378daa952ba7f163c4a11628f55a4df523b3ef60405160405180910390a4612dc6600083836125b3565b5050565b828054612dd69061384b565b90600052602060002090601f016020900481019282612df85760008555612e3f565b82601f10612e1157805160ff1916838001178555612e3f565b82800160010185558215612e3f579182015b82811115612e3e578251825591602001919060010190612e23565b5b509050612e4c9190612e50565b5090565b5b80821115612e69576000816000905550600101612e51565b5090565b6000604051905090565b600080fd5b600080fd5b60007fffffffff0000000000000000000000000000000000000000000000000000000082169050919050565b612eb681612e81565b8114612ec157600080fd5b50565b600081359050612ed381612ead565b92915050565b600060208284031215612eef57612eee612e77565b5b6000612efd84828501612ec4565b91505092915050565b60008115159050919050565b612f1b81612f06565b82525050565b6000602082019050612f366000830184612f12565b92915050565b600081519050919050565b600082825260208201905092915050565b60005b83811015612f76578082015181840152602081019050612f5b565b83811115612f85576000848401525b50505050565b6000601f19601f8301169050919050565b6000612fa782612f3c565b612fb18185612f47565b9350612fc1818560208601612f58565b612fca81612f8b565b840191505092915050565b60006020820190508181036000830152612fef8184612f9c565b905092915050565b6000819050919050565b61300a81612ff7565b811461301557600080fd5b50565b60008135905061302781613001565b92915050565b60006020828403121561304357613042612e77565b5b600061305184828501613018565b91505092915050565b600073ffffffffffffffffffffffffffffffffffffffff82169050919050565b60006130858261305a565b9050919050565b6130958161307a565b82525050565b60006020820190506130b0600083018461308c565b92915050565b6130bf8161307a565b81146130ca57600080fd5b50565b6000813590506130dc816130b6565b92915050565b600080604083850312156130f9576130f8612e77565b5b6000613107858286016130cd565b925050602061311885828601613018565b9150509250929050565b61312b81612ff7565b82525050565b60006020820190506131466000830184613122565b92915050565b60008060006060848603121561316557613164612e77565b5b6000613173868287016130cd565b9350506020613184868287016130cd565b925050604061319586828701613018565b9150509250925092565b600080fd5b600080fd5b7f4e487b7100000000000000000000000000000000000000000000000000000000600052604160045260246000fd5b6131e182612f8b565b810181811067ffffffffffffffff82111715613200576131ff6131a9565b5b80604052505050565b6000613213612e6d565b905061321f82826131d8565b919050565b600067ffffffffffffffff82111561323f5761323e6131a9565b5b61324882612f8b565b9050602081019050919050565b82818337600083830152505050565b600061327761327284613224565b613209565b905082815260208101848484011115613293576132926131a4565b5b61329e848285613255565b509392505050565b600082601f8301126132bb576132ba61319f565b5b81356132cb848260208601613264565b91505092915050565b600080604083850312156132eb576132ea612e77565b5b60006132f985828601613018565b925050602083013567ffffffffffffffff81111561331a57613319612e7c565b5b613326858286016132a6565b9150509250929050565b60006020828403121561334657613345612e77565b5b6000613354848285016130cd565b91505092915050565b60008060006060848603121561337657613375612e77565b5b600061338486828701613018565b935050602061339586828701613018565b925050604084013567ffffffffffffffff8111156133b6576133b5612e7c565b5b6133c2868287016132a6565b9150509250925092565b6133d581612f06565b81146133e057600080fd5b50565b6000813590506133f2816133cc565b92915050565b6000806040838503121561340f5761340e612e77565b5b600061341d858286016130cd565b925050602061342e858286016133e3565b9150509250929050565b600067ffffffffffffffff821115613453576134526131a9565b5b61345c82612f8b565b9050602081019050919050565b600061347c61347784613438565b613209565b905082815260208101848484011115613498576134976131a4565b5b6134a3848285613255565b509392505050565b600082601f8301126134c0576134bf61319f565b5b81356134d0848260208601613469565b91505092915050565b600080600080608085870312156134f3576134f2612e77565b5b6000613501878288016130cd565b9450506020613512878288016130cd565b935050604061352387828801613018565b925050606085013567ffffffffffffffff81111561354457613543612e7c565b5b613550878288016134ab565b91505092959194509250565b60006135678261307a565b9050919050565b6135778161355c565b811461358257600080fd5b50565b6000813590506135948161356e565b92915050565b6000602082840312156135b0576135af612e77565b5b60006135be84828501613585565b91505092915050565b600080604083850312156135de576135dd612e77565b5b60006135ec858286016130cd565b92505060206135fd858286016130cd565b9150509250929050565b6000819050919050565b61361a81613607565b811461362557600080fd5b50565b60008135905061363781613611565b92915050565b600067ffffffffffffffff821115613658576136576131a9565b5b602082029050602081019050919050565b600080fd5b600080fd5b600080fd5b60006040828403121561368e5761368d61366e565b5b6136986040613209565b9050600082013567ffffffffffffffff8111156136b8576136b7613673565b5b6136c4848285016132a6565b60008301525060206136d884828501613018565b60208301525092915050565b60006136f76136f28461363d565b613209565b9050808382526020820190506020840283018581111561371a57613719613669565b5b835b8181101561376157803567ffffffffffffffff81111561373f5761373e61319f565b5b80860161374c8982613678565b8552602085019450505060208101905061371c565b5050509392505050565b600082601f8301126137805761377f61319f565b5b81356137908482602086016136e4565b91505092915050565b600080600080608085870312156137b3576137b2612e77565b5b60006137c187828801613018565b94505060206137d287828801613018565b93505060406137e387828801613628565b925050606085013567ffffffffffffffff81111561380457613803612e7c565b5b6138108782880161376b565b91505092959194509250565b7f4e487b7100000000000000000000000000000000000000000000000000000000600052602260045260246000fd5b6000600282049050600182168061386357607f821691505b602082108114156138775761387661381c565b5b50919050565b7f4552433732313a20617070726f76616c20746f2063757272656e74206f776e6560008201527f7200000000000000000000000000000000000000000000000000000000000000602082015250565b60006138d9602183612f47565b91506138e48261387d565b604082019050919050565b60006020820190508181036000830152613908816138cc565b9050919050565b7f4552433732313a20617070726f76652063616c6c6572206973206e6f7420746f60008201527f6b656e206f776e6572206e6f7220617070726f76656420666f7220616c6c0000602082015250565b600061396b603e83612f47565b91506139768261390f565b604082019050919050565b6000602082019050818103600083015261399a8161395e565b9050919050565b7f4552433732313a2063616c6c6572206973206e6f7420746f6b656e206f776e6560008201527f72206e6f7220617070726f766564000000000000000000000000000000000000602082015250565b60006139fd602e83612f47565b9150613a08826139a1565b604082019050919050565b60006020820190508181036000830152613a2c816139f0565b9050919050565b7f696e76616c696420736563726574207068726173650000000000000000000000600082015250565b6000613a69601583612f47565b9150613a7482613a33565b602082019050919050565b60006020820190508181036000830152613a9881613a5c565b9050919050565b7f72656d61696e696e6720636f756e74206973207a65726f000000000000000000600082015250565b6000613ad5601783612f47565b9150613ae082613a9f565b602082019050919050565b60006020820190508181036000830152613b0481613ac8565b9050919050565b7f616c7265616479206d696e746564000000000000000000000000000000000000600082015250565b6000613b41600e83612f47565b9150613b4c82613b0b565b602082019050919050565b60006020820190508181036000830152613b7081613b34565b9050919050565b7f6e6f206c6f6e676572206d696e7461626c650000000000000000000000000000600082015250565b6000613bad601283612f47565b9150613bb882613b77565b602082019050919050565b60006020820190508181036000830152613bdc81613ba0565b9050919050565b7f455243373231456e756d657261626c653a206f776e657220696e646578206f7560008201527f74206f6620626f756e6473000000000000000000000000000000000000000000602082015250565b6000613c3f602b83612f47565b9150613c4a82613be3565b604082019050919050565b60006020820190508181036000830152613c6e81613c32565b9050919050565b7f455243373231456e756d657261626c653a20676c6f62616c20696e646578206f60008201527f7574206f6620626f756e64730000000000000000000000000000000000000000602082015250565b6000613cd1602c83612f47565b9150613cdc82613c75565b604082019050919050565b60006020820190508181036000830152613d0081613cc4565b9050919050565b7f4e487b7100000000000000000000000000000000000000000000000000000000600052603260045260246000fd5b7f4552433732313a20696e76616c696420746f6b656e2049440000000000000000600082015250565b6000613d6c601883612f47565b9150613d7782613d36565b602082019050919050565b60006020820190508181036000830152613d9b81613d5f565b9050919050565b7f4552433732313a2061646472657373207a65726f206973206e6f74206120766160008201527f6c6964206f776e65720000000000000000000000000000000000000000000000602082015250565b6000613dfe602983612f47565b9150613e0982613da2565b604082019050919050565b60006020820190508181036000830152613e2d81613df1565b9050919050565b7f4e487b7100000000000000000000000000000000000000000000000000000000600052601160045260246000fd5b6000613e6e82612ff7565b9150613e7983612ff7565b925082821015613e8c57613e8b613e34565b5b828203905092915050565b6000613ea282612ff7565b9150613ead83612ff7565b9250827fffffffffffffffffffffffffffffffffffffffffffffffffffffffffffffffff03821115613ee257613ee1613e34565b5b828201905092915050565b600081905092915050565b50565b6000613f08600083613eed565b9150613f1382613ef8565b600082019050919050565b6000613f2982613efb565b9150819050919050565b6000613f3e82612f3c565b613f488185613eed565b9350613f58818560208601612f58565b80840191505092915050565b6000613f708284613f33565b915081905092915050565b7f6576656e74206d616e61676572206164647265737320697320626c616e6b0000600082015250565b6000613fb1601e83612f47565b9150613fbc82613f7b565b602082019050919050565b60006020820190508181036000830152613fe081613fa4565b9050919050565b7f496e697469616c697a61626c653a20636f6e747261637420697320616c72656160008201527f647920696e697469616c697a6564000000000000000000000000000000000000602082015250565b6000614043602e83612f47565b915061404e82613fe7565b604082019050919050565b6000602082019050818103600083015261407281614036565b9050919050565b6000819050919050565b600060ff82169050919050565b6000819050919050565b60006140b56140b06140ab84614079565b614090565b614083565b9050919050565b6140c58161409a565b82525050565b60006020820190506140e060008301846140bc565b92915050565b7f756e617574686f72697a65640000000000000000000000000000000000000000600082015250565b600061411c600c83612f47565b9150614127826140e6565b602082019050919050565b6000602082019050818103600083015261414b8161410f565b9050919050565b600061415d82612ff7565b91507fffffffffffffffffffffffffffffffffffffffffffffffffffffffffffffffff8214156141905761418f613e34565b5b600182019050919050565b7f4f776e61626c653a206e6577206f776e657220697320746865207a65726f206160008201527f6464726573730000000000000000000000000000000000000000000000000000602082015250565b60006141f7602683612f47565b91506142028261419b565b604082019050919050565b60006020820190508181036000830152614226816141ea565b9050919050565b7f4552433732313a207472616e736665722066726f6d20696e636f72726563742060008201527f6f776e6572000000000000000000000000000000000000000000000000000000602082015250565b6000614289602583612f47565b91506142948261422d565b604082019050919050565b600060208201905081810360008301526142b88161427c565b9050919050565b7f4552433732313a207472616e7366657220746f20746865207a65726f2061646460008201527f7265737300000000000000000000000000000000000000000000000000000000602082015250565b600061431b602483612f47565b9150614326826142bf565b604082019050919050565b6000602082019050818103600083015261434a8161430e565b9050919050565b7f4f776e61626c653a2063616c6c6572206973206e6f7420746865206f776e6572600082015250565b6000614387602083612f47565b915061439282614351565b602082019050919050565b600060208201905081810360008301526143b68161437a565b9050919050565b60008160601b9050919050565b60006143d5826143bd565b9050919050565b60006143e7826143ca565b9050919050565b6143ff6143fa8261307a565b6143dc565b82525050565b6000819050919050565b61442061441b82612ff7565b614405565b82525050565b600061443282856143ee565b601482019150614442828461440f565b6020820191508190509392505050565b600061445e828561440f565b60208201915061446e828461440f565b6020820191508190509392505050565b7f4552433732313a20617070726f766520746f2063616c6c657200000000000000600082015250565b60006144b4601983612f47565b91506144bf8261447e565b602082019050919050565b600060208201905081810360008301526144e3816144a7565b9050919050565b7f4552433732313a207472616e7366657220746f206e6f6e20455243373231526560008201527f63656976657220696d706c656d656e7465720000000000000000000000000000602082015250565b6000614546603283612f47565b9150614551826144ea565b604082019050919050565b6000602082019050818103600083015261457581614539565b9050919050565b7f496e697469616c697a61626c653a20636f6e7472616374206973206e6f74206960008201527f6e697469616c697a696e67000000000000000000000000000000000000000000602082015250565b60006145d8602b83612f47565b91506145e38261457c565b604082019050919050565b60006020820190508181036000830152614607816145cb565b9050919050565b600081519050919050565b600082825260208201905092915050565b60006146358261460e565b61463f8185614619565b935061464f818560208601612f58565b61465881612f8b565b840191505092915050565b6000608082019050614678600083018761308c565b614685602083018661308c565b6146926040830185613122565b81810360608301526146a4818461462a565b905095945050505050565b6000815190506146be81612ead565b92915050565b6000602082840312156146da576146d9612e77565b5b60006146e8848285016146af565b91505092915050565b7f4e487b7100000000000000000000000000000000000000000000000000000000600052603160045260246000fd5b7f4552433732313a206d696e7420746f20746865207a65726f2061646472657373600082015250565b6000614756602083612f47565b915061476182614720565b602082019050919050565b6000602082019050818103600083015261478581614749565b9050919050565b7f4552433732313a20746f6b656e20616c7265616479206d696e74656400000000600082015250565b60006147c2601c83612f47565b91506147cd8261478c565b602082019050919050565b600060208201905081810360008301526147f1816147b5565b905091905056fea264697066735822122044929c1ba849de25fa435f8bc9ca5e6a040d683297b292031140f564e11dd4f164736f6c63430008090033",
  "linkReferences": {},
  "deployedLinkReferences": {}
}