{
  "_format": "hh-sol-artifact-1",
  "contractName": "MintNFT",
  "sourceName": "contracts/MintNFT.sol",
  "abi": [
    {
      "anonymous": false,
      "inputs": [
        {
          "indexed": true,
          "internalType": "address",
          "name": "owner",
          "type": "address"
        },
        {
          "indexed": true,
          "internalType": "address",
          "name": "approved",
          "type": "address"
        },
        {
          "indexed": true,
          "internalType": "uint256",
          "name": "tokenId",
          "type": "uint256"
        }
      ],
      "name": "Approval",
      "type": "event"
    },
    {
      "anonymous": false,
      "inputs": [
        {
          "indexed": true,
          "internalType": "address",
          "name": "owner",
          "type": "address"
        },
        {
          "indexed": true,
          "internalType": "address",
          "name": "operator",
          "type": "address"
        },
        {
          "indexed": false,
          "internalType": "bool",
          "name": "approved",
          "type": "bool"
        }
      ],
      "name": "ApprovalForAll",
      "type": "event"
    },
    {
      "anonymous": false,
      "inputs": [
        {
          "indexed": false,
          "internalType": "uint8",
          "name": "version",
          "type": "uint8"
        }
      ],
      "name": "Initialized",
      "type": "event"
    },
    {
      "anonymous": false,
      "inputs": [
        {
          "indexed": true,
          "internalType": "address",
          "name": "holder",
          "type": "address"
        },
        {
          "indexed": false,
          "internalType": "string",
          "name": "url",
          "type": "string"
        }
      ],
      "name": "MintedNFTAttributeURL",
      "type": "event"
    },
    {
      "anonymous": false,
      "inputs": [
        {
          "indexed": true,
          "internalType": "address",
          "name": "previousOwner",
          "type": "address"
        },
        {
          "indexed": true,
          "internalType": "address",
          "name": "newOwner",
          "type": "address"
        }
      ],
      "name": "OwnershipTransferred",
      "type": "event"
    },
    {
      "anonymous": false,
      "inputs": [
        {
          "indexed": true,
          "internalType": "address",
          "name": "from",
          "type": "address"
        },
        {
          "indexed": true,
          "internalType": "address",
          "name": "to",
          "type": "address"
        },
        {
          "indexed": true,
          "internalType": "uint256",
          "name": "tokenId",
          "type": "uint256"
        }
      ],
      "name": "Transfer",
      "type": "event"
    },
    {
      "inputs": [
        {
          "internalType": "address",
          "name": "to",
          "type": "address"
        },
        {
          "internalType": "uint256",
          "name": "tokenId",
          "type": "uint256"
        }
      ],
      "name": "approve",
      "outputs": [],
      "stateMutability": "nonpayable",
      "type": "function"
    },
    {
      "inputs": [
        {
          "internalType": "address",
          "name": "owner",
          "type": "address"
        }
      ],
      "name": "balanceOf",
      "outputs": [
        {
          "internalType": "uint256",
          "name": "",
          "type": "uint256"
        }
      ],
      "stateMutability": "view",
      "type": "function"
    },
    {
      "inputs": [
        {
          "internalType": "uint256",
          "name": "tokenId",
          "type": "uint256"
        }
      ],
      "name": "burn",
      "outputs": [],
      "stateMutability": "nonpayable",
      "type": "function"
    },
    {
      "inputs": [
        {
          "internalType": "uint256",
          "name": "_eventId",
          "type": "uint256"
        },
        {
          "internalType": "string",
          "name": "_secretPhrase",
          "type": "string"
        }
      ],
      "name": "canMint",
      "outputs": [
        {
          "internalType": "bool",
          "name": "",
          "type": "bool"
        }
      ],
      "stateMutability": "view",
      "type": "function"
    },
    {
      "inputs": [
        {
          "internalType": "uint256",
          "name": "_eventId",
          "type": "uint256"
        }
      ],
      "name": "changeMintableFlag",
      "outputs": [
        {
          "internalType": "bool",
          "name": "",
          "type": "bool"
        }
      ],
      "stateMutability": "nonpayable",
      "type": "function"
    },
    {
      "inputs": [
        {
          "internalType": "uint256",
          "name": "tokenId",
          "type": "uint256"
        }
      ],
      "name": "getApproved",
      "outputs": [
        {
          "internalType": "address",
          "name": "",
          "type": "address"
        }
      ],
      "stateMutability": "view",
      "type": "function"
    },
    {
      "inputs": [
        {
          "internalType": "uint256",
          "name": "_eventId",
          "type": "uint256"
        }
      ],
      "name": "getIsLocked",
      "outputs": [
        {
          "internalType": "bool",
          "name": "",
          "type": "bool"
        }
      ],
      "stateMutability": "view",
      "type": "function"
    },
    {
      "inputs": [
        {
          "internalType": "uint256",
          "name": "_eventId",
          "type": "uint256"
        }
      ],
      "name": "getRemainingNFTCount",
      "outputs": [
        {
          "internalType": "uint256",
          "name": "",
          "type": "uint256"
        }
      ],
      "stateMutability": "view",
      "type": "function"
    },
    {
      "inputs": [
        {
          "internalType": "contract MinimalForwarderUpgradeable",
          "name": "trustedForwarder",
          "type": "address"
        }
      ],
      "name": "initialize",
      "outputs": [],
      "stateMutability": "nonpayable",
      "type": "function"
    },
    {
      "inputs": [
        {
          "internalType": "address",
          "name": "owner",
          "type": "address"
        },
        {
          "internalType": "address",
          "name": "operator",
          "type": "address"
        }
      ],
      "name": "isApprovedForAll",
      "outputs": [
        {
          "internalType": "bool",
          "name": "",
          "type": "bool"
        }
      ],
      "stateMutability": "view",
      "type": "function"
    },
    {
      "inputs": [
        {
          "internalType": "address",
          "name": "_addr",
          "type": "address"
        },
        {
          "internalType": "uint256",
          "name": "_eventId",
          "type": "uint256"
        }
      ],
      "name": "isHoldingEventNFTByAddress",
      "outputs": [
        {
          "internalType": "bool",
          "name": "",
          "type": "bool"
        }
      ],
      "stateMutability": "view",
      "type": "function"
    },
    {
      "inputs": [
        {
          "internalType": "address",
          "name": "forwarder",
          "type": "address"
        }
      ],
      "name": "isTrustedForwarder",
      "outputs": [
        {
          "internalType": "bool",
          "name": "",
          "type": "bool"
        }
      ],
      "stateMutability": "view",
      "type": "function"
    },
    {
      "inputs": [
        {
          "internalType": "uint256",
          "name": "_groupId",
          "type": "uint256"
        },
        {
          "internalType": "uint256",
          "name": "_eventId",
          "type": "uint256"
        },
        {
          "internalType": "string",
          "name": "_secretPhrase",
          "type": "string"
        }
      ],
      "name": "mintParticipateNFT",
      "outputs": [],
      "stateMutability": "nonpayable",
      "type": "function"
    },
    {
      "inputs": [],
      "name": "name",
      "outputs": [
        {
          "internalType": "string",
          "name": "",
          "type": "string"
        }
      ],
      "stateMutability": "view",
      "type": "function"
    },
    {
      "inputs": [],
      "name": "owner",
      "outputs": [
        {
          "internalType": "address",
          "name": "",
          "type": "address"
        }
      ],
      "stateMutability": "view",
      "type": "function"
    },
    {
      "inputs": [
        {
          "internalType": "uint256",
          "name": "tokenId",
          "type": "uint256"
        }
      ],
      "name": "ownerOf",
      "outputs": [
        {
          "internalType": "address",
          "name": "",
          "type": "address"
        }
      ],
      "stateMutability": "view",
      "type": "function"
    },
    {
      "inputs": [],
      "name": "renounceOwnership",
      "outputs": [],
      "stateMutability": "nonpayable",
      "type": "function"
    },
    {
      "inputs": [
        {
          "internalType": "address",
          "name": "from",
          "type": "address"
        },
        {
          "internalType": "address",
          "name": "to",
          "type": "address"
        },
        {
          "internalType": "uint256",
          "name": "tokenId",
          "type": "uint256"
        }
      ],
      "name": "safeTransferFrom",
      "outputs": [],
      "stateMutability": "nonpayable",
      "type": "function"
    },
    {
      "inputs": [
        {
          "internalType": "address",
          "name": "from",
          "type": "address"
        },
        {
          "internalType": "address",
          "name": "to",
          "type": "address"
        },
        {
          "internalType": "uint256",
          "name": "tokenId",
          "type": "uint256"
        },
        {
          "internalType": "bytes",
          "name": "data",
          "type": "bytes"
        }
      ],
      "name": "safeTransferFrom",
      "outputs": [],
      "stateMutability": "nonpayable",
      "type": "function"
    },
    {
      "inputs": [
        {
          "internalType": "address",
          "name": "operator",
          "type": "address"
        },
        {
          "internalType": "bool",
          "name": "approved",
          "type": "bool"
        }
      ],
      "name": "setApprovalForAll",
      "outputs": [],
      "stateMutability": "nonpayable",
      "type": "function"
    },
    {
      "inputs": [
        {
          "internalType": "uint256",
          "name": "_eventId",
          "type": "uint256"
        },
        {
          "internalType": "uint256",
          "name": "_mintLimit",
          "type": "uint256"
        },
        {
          "internalType": "bytes32",
          "name": "_secretPhrase",
          "type": "bytes32"
        },
        {
          "components": [
            {
              "internalType": "string",
              "name": "metaDataURL",
              "type": "string"
            },
            {
              "internalType": "uint256",
              "name": "requiredParticipateCount",
              "type": "uint256"
            }
          ],
          "internalType": "struct MintNFT.NFTAttribute[]",
          "name": "attributes",
          "type": "tuple[]"
        }
      ],
      "name": "setEventInfo",
      "outputs": [],
      "stateMutability": "nonpayable",
      "type": "function"
    },
    {
      "inputs": [
        {
          "internalType": "address",
          "name": "_addr",
          "type": "address"
        }
      ],
      "name": "setEventManagerAddr",
      "outputs": [],
      "stateMutability": "nonpayable",
      "type": "function"
    },
    {
      "inputs": [
        {
          "internalType": "bytes4",
          "name": "interfaceId",
          "type": "bytes4"
        }
      ],
      "name": "supportsInterface",
      "outputs": [
        {
          "internalType": "bool",
          "name": "",
          "type": "bool"
        }
      ],
      "stateMutability": "view",
      "type": "function"
    },
    {
      "inputs": [],
      "name": "symbol",
      "outputs": [
        {
          "internalType": "string",
          "name": "",
          "type": "string"
        }
      ],
      "stateMutability": "view",
      "type": "function"
    },
    {
      "inputs": [
        {
          "internalType": "uint256",
          "name": "index",
          "type": "uint256"
        }
      ],
      "name": "tokenByIndex",
      "outputs": [
        {
          "internalType": "uint256",
          "name": "",
          "type": "uint256"
        }
      ],
      "stateMutability": "view",
      "type": "function"
    },
    {
      "inputs": [
        {
          "internalType": "address",
          "name": "owner",
          "type": "address"
        },
        {
          "internalType": "uint256",
          "name": "index",
          "type": "uint256"
        }
      ],
      "name": "tokenOfOwnerByIndex",
      "outputs": [
        {
          "internalType": "uint256",
          "name": "",
          "type": "uint256"
        }
      ],
      "stateMutability": "view",
      "type": "function"
    },
    {
      "inputs": [
        {
          "internalType": "uint256",
          "name": "_tokenId",
          "type": "uint256"
        }
      ],
      "name": "tokenURI",
      "outputs": [
        {
          "internalType": "string",
          "name": "",
          "type": "string"
        }
      ],
      "stateMutability": "view",
      "type": "function"
    },
    {
      "inputs": [],
      "name": "totalSupply",
      "outputs": [
        {
          "internalType": "uint256",
          "name": "",
          "type": "uint256"
        }
      ],
      "stateMutability": "view",
      "type": "function"
    },
    {
      "inputs": [
        {
          "internalType": "address",
          "name": "from",
          "type": "address"
        },
        {
          "internalType": "address",
          "name": "to",
          "type": "address"
        },
        {
          "internalType": "uint256",
          "name": "tokenId",
          "type": "uint256"
        }
      ],
      "name": "transferFrom",
      "outputs": [],
      "stateMutability": "nonpayable",
      "type": "function"
    },
    {
      "inputs": [
        {
          "internalType": "address",
          "name": "newOwner",
          "type": "address"
        }
      ],
      "name": "transferOwnership",
      "outputs": [],
      "stateMutability": "nonpayable",
      "type": "function"
    }
  ],
  "bytecode": "0x608060405234801561001057600080fd5b50614894806100206000396000f3fe608060405234801561001057600080fd5b50600436106101da5760003560e01c806370a0823111610104578063a22cb465116100a2578063d622abc211610071578063d622abc21461059d578063e985e9c5146105cd578063ef3ad9eb146105fd578063f2fde38b14610619576101da565b8063a22cb46514610519578063b88d4fde14610535578063c4d66de814610551578063c87b56dd1461056d576101da565b80638da5cb5b116100de5780638da5cb5b146104915780639041e3f4146104af57806395d89b41146104cb5780639b9c17c5146104e9576101da565b806370a082311461043b578063715018a61461046b57806372746a8d14610475576101da565b80632f745c591161017c5780634ffc9f4b1161014b5780634ffc9f4b1461037b578063572b6c05146103ab5780635ade0736146103db5780636352211e1461040b576101da565b80632f745c59146102e357806342842e0e1461031357806342966c681461032f5780634f6ccce71461034b576101da565b8063095ea7b3116101b8578063095ea7b31461025d57806318160ddd1461027957806323b872dd146102975780632b3e4436146102b3576101da565b806301ffc9a7146101df57806306fdde031461020f578063081812fc1461022d575b600080fd5b6101f960048036038101906101f49190612f3f565b610635565b6040516102069190612f87565b60405180910390f35b6102176106af565b604051610224919061303b565b60405180910390f35b61024760048036038101906102429190613093565b610741565b6040516102549190613101565b60405180910390f35b61027760048036038101906102729190613148565b610787565b005b61028161089f565b60405161028e9190613197565b60405180910390f35b6102b160048036038101906102ac91906131b2565b6108ac565b005b6102cd60048036038101906102c8919061333a565b61090c565b6040516102da9190612f87565b60405180910390f35b6102fd60048036038101906102f89190613148565b610a6c565b60405161030a9190613197565b60405180910390f35b61032d600480360381019061032891906131b2565b610b11565b005b61034960048036038101906103449190613093565b610b31565b005b61036560048036038101906103609190613093565b610b45565b6040516103729190613197565b60405180910390f35b61039560048036038101906103909190613093565b610bb6565b6040516103a29190613197565b60405180910390f35b6103c560048036038101906103c09190613396565b610bd4565b6040516103d29190612f87565b60405180910390f35b6103f560048036038101906103f09190613093565b610c2e565b6040516104029190612f87565b60405180910390f35b61042560048036038101906104209190613093565b610c8e565b6040516104329190613101565b60405180910390f35b61045560048036038101906104509190613396565b610d40565b6040516104629190613197565b60405180910390f35b610473610df8565b005b61048f600480360381019061048a91906133c3565b610e0c565b005b610499611141565b6040516104a69190613101565b60405180910390f35b6104c960048036038101906104c49190613396565b61116b565b005b6104d3611228565b6040516104e0919061303b565b60405180910390f35b61050360048036038101906104fe9190613093565b6112ba565b6040516105109190612f87565b60405180910390f35b610533600480360381019061052e919061345e565b6112e5565b005b61054f600480360381019061054a919061353f565b6112fb565b005b61056b60048036038101906105669190613600565b61135d565b005b61058760048036038101906105829190613093565b611519565b604051610594919061303b565b60405180910390f35b6105b760048036038101906105b29190613148565b6115c5565b6040516105c49190612f87565b60405180910390f35b6105e760048036038101906105e2919061362d565b6115fa565b6040516105f49190612f87565b60405180910390f35b610617600480360381019061061291906137ff565b61168e565b005b610633600480360381019061062e9190613396565b6117ec565b005b60007f780e9d63000000000000000000000000000000000000000000000000000000007bffffffffffffffffffffffffffffffffffffffffffffffffffffffff1916827bffffffffffffffffffffffffffffffffffffffffffffffffffffffff191614806106a857506106a782611870565b5b9050919050565b6060606580546106be906138b1565b80601f01602080910402602001604051908101604052809291908181526020018280546106ea906138b1565b80156107375780601f1061070c57610100808354040283529160200191610737565b820191906000526020600020905b81548152906001019060200180831161071a57829003601f168201915b5050505050905090565b600061074c82611952565b6069600083815260200190815260200160002060009054906101000a900473ffffffffffffffffffffffffffffffffffffffff169050919050565b600061079282610c8e565b90508073ffffffffffffffffffffffffffffffffffffffff168373ffffffffffffffffffffffffffffffffffffffff161415610803576040517f08c379a00000000000000000000000000000000000000000000000000000000081526004016107fa90613955565b60405180910390fd5b8073ffffffffffffffffffffffffffffffffffffffff1661082261199d565b73ffffffffffffffffffffffffffffffffffffffff16148061085157506108508161084b61199d565b6115fa565b5b610890576040517f08c379a0000000000000000000000000000000000000000000000000000000008152600401610887906139e7565b60405180910390fd5b61089a83836119cf565b505050565b6000609980549050905090565b6108bd6108b761199d565b82611a88565b6108fc576040517f08c379a00000000000000000000000000000000000000000000000000000000081526004016108f390613a79565b60405180910390fd5b610907838383611b1d565b505050565b60006109188284611d84565b610957576040517f08c379a000000000000000000000000000000000000000000000000000000000815260040161094e90613ae5565b60405180910390fd5b600061013460008581526020019081526020016000205414156109af576040517f08c379a00000000000000000000000000000000000000000000000000000000081526004016109a690613b51565b60405180910390fd5b6109c06109ba61199d565b846115c5565b15610a00576040517f08c379a00000000000000000000000000000000000000000000000000000000081526004016109f790613bbd565b60405180910390fd5b610136600084815260200190815260200160002060009054906101000a900460ff1615610a62576040517f08c379a0000000000000000000000000000000000000000000000000000000008152600401610a5990613c29565b60405180910390fd5b6001905092915050565b6000610a7783610d40565b8210610ab8576040517f08c379a0000000000000000000000000000000000000000000000000000000008152600401610aaf90613cbb565b60405180910390fd5b609760008473ffffffffffffffffffffffffffffffffffffffff1673ffffffffffffffffffffffffffffffffffffffff168152602001908152602001600020600083815260200190815260200160002054905092915050565b610b2c838383604051806020016040528060008152506112fb565b505050565b610b39611db7565b610b4281611e35565b50565b6000610b4f61089f565b8210610b90576040517f08c379a0000000000000000000000000000000000000000000000000000000008152600401610b8790613d4d565b60405180910390fd5b60998281548110610ba457610ba3613d6d565b5b90600052602060002001549050919050565b60006101346000838152602001908152602001600020549050919050565b600060c960009054906101000a900473ffffffffffffffffffffffffffffffffffffffff1673ffffffffffffffffffffffffffffffffffffffff168273ffffffffffffffffffffffffffffffffffffffff16149050919050565b6000610c38611db7565b6001610136600084815260200190815260200160002060006101000a81548160ff021916908315150217905550610136600083815260200190815260200160002060009054906101000a900460ff169050919050565b6000806067600084815260200190815260200160002060009054906101000a900473ffffffffffffffffffffffffffffffffffffffff169050600073ffffffffffffffffffffffffffffffffffffffff168173ffffffffffffffffffffffffffffffffffffffff161415610d37576040517f08c379a0000000000000000000000000000000000000000000000000000000008152600401610d2e90613de8565b60405180910390fd5b80915050919050565b60008073ffffffffffffffffffffffffffffffffffffffff168273ffffffffffffffffffffffffffffffffffffffff161415610db1576040517f08c379a0000000000000000000000000000000000000000000000000000000008152600401610da890613e7a565b60405180910390fd5b606860008373ffffffffffffffffffffffffffffffffffffffff1673ffffffffffffffffffffffffffffffffffffffff168152602001908152602001600020549050919050565b610e00611db7565b610e0a6000611f52565b565b610e16828261090c565b506001610134600084815260200190815260200160002054610e389190613ec9565b61013460008481526020019081526020016000208190555060016101316000610e68610e6261199d565b86612018565b815260200190815260200160002060006101000a81548160ff0219169083151502179055506000610ea0610e9a61199d565b85612018565b905060006101326000838152602001908152602001600020549050600181610ec89190613efd565b61013260008481526020019081526020016000208190555060006101336000610ef287600061204b565b81526020019081526020016000208054610f0b906138b1565b80601f0160208091040260200160405190810160405280929190818152602001828054610f37906138b1565b8015610f845780601f10610f5957610100808354040283529160200191610f84565b820191906000526020600020905b815481529060010190602001808311610f6757829003601f168201915b5050505050905060006101336000610f9c888661204b565b81526020019081526020016000208054610fb5906138b1565b80601f0160208091040260200160405190810160405280929190818152602001828054610fe1906138b1565b801561102e5780601f106110035761010080835404028352916020019161102e565b820191906000526020600020905b81548152906001019060200180831161101157829003601f168201915b5050505050905060405160200161104490613f84565b604051602081830303815290604052805190602001208160405160200161106b9190613fca565b604051602081830303815290604052805190602001201461108a578091505b81610130600061109b61012e61207e565b815260200190815260200160002090805190602001906110bc929190612e30565b506110d86110c861199d565b6110d361012e61207e565b61208c565b6110e361012e6120aa565b6110eb61199d565b73ffffffffffffffffffffffffffffffffffffffff167faf2fad1984d2c7abaa9300537cf9fe1bcfaf2d6226e4ffdf03522dbf3064808e83604051611130919061303b565b60405180910390a250505050505050565b600060fc60009054906101000a900473ffffffffffffffffffffffffffffffffffffffff16905090565b611173611db7565b600073ffffffffffffffffffffffffffffffffffffffff168173ffffffffffffffffffffffffffffffffffffffff1614156111e3576040517f08c379a00000000000000000000000000000000000000000000000000000000081526004016111da9061402d565b60405180910390fd5b8061012f60006101000a81548173ffffffffffffffffffffffffffffffffffffffff021916908373ffffffffffffffffffffffffffffffffffffffff16021790555050565b606060668054611237906138b1565b80601f0160208091040260200160405190810160405280929190818152602001828054611263906138b1565b80156112b05780601f10611285576101008083540402835291602001916112b0565b820191906000526020600020905b81548152906001019060200180831161129357829003601f168201915b5050505050905090565b6000610136600083815260200190815260200160002060009054906101000a900460ff169050919050565b6112f76112f061199d565b83836120c0565b5050565b61130c61130661199d565b83611a88565b61134b576040517f08c379a000000000000000000000000000000000000000000000000000000000815260040161134290613a79565b60405180910390fd5b6113578484848461222d565b50505050565b60008060019054906101000a900460ff1615905080801561138e5750600160008054906101000a900460ff1660ff16105b806113bb575061139d30612289565b1580156113ba5750600160008054906101000a900460ff1660ff16145b5b6113fa576040517f08c379a00000000000000000000000000000000000000000000000000000000081526004016113f1906140bf565b60405180910390fd5b60016000806101000a81548160ff021916908360ff1602179055508015611437576001600060016101000a81548160ff0219169083151502179055505b6114ab6040518060400160405280600981526020017f4d696e7452616c6c7900000000000000000000000000000000000000000000008152506040518060400160405280600281526020017f4d520000000000000000000000000000000000000000000000000000000000008152506122ac565b6114b3612309565b6114bc82612362565b80156115155760008060016101000a81548160ff0219169083151502179055507f7f26b83ff96e1f2b6a682f133852f6798a09c465da95921460cefb3847402498600160405161150c9190614131565b60405180910390a15b5050565b606060006101306000848152602001908152602001600020805461153c906138b1565b80601f0160208091040260200160405190810160405280929190818152602001828054611568906138b1565b80156115b55780601f1061158a576101008083540402835291602001916115b5565b820191906000526020600020905b81548152906001019060200180831161159857829003601f168201915b5050505050905080915050919050565b600061013160006115d68585612018565b815260200190815260200160002060009054906101000a900460ff16905092915050565b6000606a60008473ffffffffffffffffffffffffffffffffffffffff1673ffffffffffffffffffffffffffffffffffffffff16815260200190815260200160002060008373ffffffffffffffffffffffffffffffffffffffff1673ffffffffffffffffffffffffffffffffffffffff16815260200190815260200160002060009054906101000a900460ff16905092915050565b61012f60009054906101000a900473ffffffffffffffffffffffffffffffffffffffff1673ffffffffffffffffffffffffffffffffffffffff166116d061199d565b73ffffffffffffffffffffffffffffffffffffffff1614611726576040517f08c379a000000000000000000000000000000000000000000000000000000000815260040161171d90614198565b60405180910390fd5b826101346000868152602001908152602001600020819055508161013560008681526020019081526020016000208190555060005b81518110156117e55781818151811061177757611776613d6d565b5b60200260200101516000015161013360006117b08886868151811061179f5761179e613d6d565b5b60200260200101516020015161204b565b815260200190815260200160002090805190602001906117d1929190612e30565b5080806117dd906141b8565b91505061175b565b5050505050565b6117f4611db7565b600073ffffffffffffffffffffffffffffffffffffffff168173ffffffffffffffffffffffffffffffffffffffff161415611864576040517f08c379a000000000000000000000000000000000000000000000000000000000815260040161185b90614273565b60405180910390fd5b61186d81611f52565b50565b60007f80ac58cd000000000000000000000000000000000000000000000000000000007bffffffffffffffffffffffffffffffffffffffffffffffffffffffff1916827bffffffffffffffffffffffffffffffffffffffffffffffffffffffff1916148061193b57507f5b5e139f000000000000000000000000000000000000000000000000000000007bffffffffffffffffffffffffffffffffffffffffffffffffffffffff1916827bffffffffffffffffffffffffffffffffffffffffffffffffffffffff1916145b8061194b575061194a826123fd565b5b9050919050565b61195b81612467565b61199a576040517f08c379a000000000000000000000000000000000000000000000000000000000815260040161199190613de8565b60405180910390fd5b50565b60006119a833610bd4565b156119bc57601436033560601c90506119cb565b6119c46124d3565b90506119cc565b5b90565b816069600083815260200190815260200160002060006101000a81548173ffffffffffffffffffffffffffffffffffffffff021916908373ffffffffffffffffffffffffffffffffffffffff160217905550808273ffffffffffffffffffffffffffffffffffffffff16611a4283610c8e565b73ffffffffffffffffffffffffffffffffffffffff167f8c5be1e5ebec7d5bd14f71427d1e84f3dd0314c0f7b2291e5b200ac8c7c3b92560405160405180910390a45050565b600080611a9483610c8e565b90508073ffffffffffffffffffffffffffffffffffffffff168473ffffffffffffffffffffffffffffffffffffffff161480611ad65750611ad581856115fa565b5b80611b1457508373ffffffffffffffffffffffffffffffffffffffff16611afc84610741565b73ffffffffffffffffffffffffffffffffffffffff16145b91505092915050565b8273ffffffffffffffffffffffffffffffffffffffff16611b3d82610c8e565b73ffffffffffffffffffffffffffffffffffffffff1614611b93576040517f08c379a0000000000000000000000000000000000000000000000000000000008152600401611b8a90614305565b60405180910390fd5b600073ffffffffffffffffffffffffffffffffffffffff168273ffffffffffffffffffffffffffffffffffffffff161415611c03576040517f08c379a0000000000000000000000000000000000000000000000000000000008152600401611bfa90614397565b60405180910390fd5b611c0e838383612505565b611c196000826119cf565b6001606860008573ffffffffffffffffffffffffffffffffffffffff1673ffffffffffffffffffffffffffffffffffffffff1681526020019081526020016000206000828254611c699190613ec9565b925050819055506001606860008473ffffffffffffffffffffffffffffffffffffffff1673ffffffffffffffffffffffffffffffffffffffff1681526020019081526020016000206000828254611cc09190613efd565b92505081905550816067600083815260200190815260200160002060006101000a81548173ffffffffffffffffffffffffffffffffffffffff021916908373ffffffffffffffffffffffffffffffffffffffff160217905550808273ffffffffffffffffffffffffffffffffffffffff168473ffffffffffffffffffffffffffffffffffffffff167fddf252ad1be2c89b69c2b068fc378daa952ba7f163c4a11628f55a4df523b3ef60405160405180910390a4611d7f838383612619565b505050565b60008083805190602001209050600081610135600086815260200190815260200160002054149050809250505092915050565b611dbf61199d565b73ffffffffffffffffffffffffffffffffffffffff16611ddd611141565b73ffffffffffffffffffffffffffffffffffffffff1614611e33576040517f08c379a0000000000000000000000000000000000000000000000000000000008152600401611e2a90614403565b60405180910390fd5b565b6000611e4082610c8e565b9050611e4e81600084612505565b611e596000836119cf565b6001606860008373ffffffffffffffffffffffffffffffffffffffff1673ffffffffffffffffffffffffffffffffffffffff1681526020019081526020016000206000828254611ea99190613ec9565b925050819055506067600083815260200190815260200160002060006101000a81549073ffffffffffffffffffffffffffffffffffffffff021916905581600073ffffffffffffffffffffffffffffffffffffffff168273ffffffffffffffffffffffffffffffffffffffff167fddf252ad1be2c89b69c2b068fc378daa952ba7f163c4a11628f55a4df523b3ef60405160405180910390a4611f4e81600084612619565b5050565b600060fc60009054906101000a900473ffffffffffffffffffffffffffffffffffffffff1690508160fc60006101000a81548173ffffffffffffffffffffffffffffffffffffffff021916908373ffffffffffffffffffffffffffffffffffffffff1602179055508173ffffffffffffffffffffffffffffffffffffffff168173ffffffffffffffffffffffffffffffffffffffff167f8be0079c531659141344cd1fd0a4f28419497f9722a3daafe3b4186f6b6457e060405160405180910390a35050565b6000828260405160200161202d92919061448c565b60405160208183030381529060405280519060200120905092915050565b600082826040516020016120609291906144b8565b60405160208183030381529060405280519060200120905092915050565b600081600001549050919050565b6120a682826040518060200160405280600081525061261e565b5050565b6001816000016000828254019250508190555050565b8173ffffffffffffffffffffffffffffffffffffffff168373ffffffffffffffffffffffffffffffffffffffff16141561212f576040517f08c379a000000000000000000000000000000000000000000000000000000000815260040161212690614530565b60405180910390fd5b80606a60008573ffffffffffffffffffffffffffffffffffffffff1673ffffffffffffffffffffffffffffffffffffffff16815260200190815260200160002060008473ffffffffffffffffffffffffffffffffffffffff1673ffffffffffffffffffffffffffffffffffffffff16815260200190815260200160002060006101000a81548160ff0219169083151502179055508173ffffffffffffffffffffffffffffffffffffffff168373ffffffffffffffffffffffffffffffffffffffff167f17307eab39ab6107e8899845ad3d59bd9653f200f220920489ca2b5937696c31836040516122209190612f87565b60405180910390a3505050565b612238848484611b1d565b61224484848484612679565b612283576040517f08c379a000000000000000000000000000000000000000000000000000000000815260040161227a906145c2565b60405180910390fd5b50505050565b6000808273ffffffffffffffffffffffffffffffffffffffff163b119050919050565b600060019054906101000a900460ff166122fb576040517f08c379a00000000000000000000000000000000000000000000000000000000081526004016122f290614654565b60405180910390fd5b6123058282612810565b5050565b600060019054906101000a900460ff16612358576040517f08c379a000000000000000000000000000000000000000000000000000000000815260040161234f90614654565b60405180910390fd5b612360612891565b565b600060019054906101000a900460ff166123b1576040517f08c379a00000000000000000000000000000000000000000000000000000000081526004016123a890614654565b60405180910390fd5b6123b96128f2565b8060c960006101000a81548173ffffffffffffffffffffffffffffffffffffffff021916908373ffffffffffffffffffffffffffffffffffffffff16021790555050565b60007f01ffc9a7000000000000000000000000000000000000000000000000000000007bffffffffffffffffffffffffffffffffffffffffffffffffffffffff1916827bffffffffffffffffffffffffffffffffffffffffffffffffffffffff1916149050919050565b60008073ffffffffffffffffffffffffffffffffffffffff166067600084815260200190815260200160002060009054906101000a900473ffffffffffffffffffffffffffffffffffffffff1673ffffffffffffffffffffffffffffffffffffffff1614159050919050565b60006124de33610bd4565b156124f257601436033560601c9050612501565b6124fa612943565b9050612502565b5b90565b61251083838361294b565b600073ffffffffffffffffffffffffffffffffffffffff168373ffffffffffffffffffffffffffffffffffffffff1614156125535761254e81612950565b612592565b8173ffffffffffffffffffffffffffffffffffffffff168373ffffffffffffffffffffffffffffffffffffffff1614612591576125908382612999565b5b5b600073ffffffffffffffffffffffffffffffffffffffff168273ffffffffffffffffffffffffffffffffffffffff1614156125d5576125d081612b06565b612614565b8273ffffffffffffffffffffffffffffffffffffffff168273ffffffffffffffffffffffffffffffffffffffff1614612613576126128282612bd7565b5b5b505050565b505050565b6126288383612c56565b6126356000848484612679565b612674576040517f08c379a000000000000000000000000000000000000000000000000000000000815260040161266b906145c2565b60405180910390fd5b505050565b600061269a8473ffffffffffffffffffffffffffffffffffffffff16612289565b15612803578373ffffffffffffffffffffffffffffffffffffffff1663150b7a026126c361199d565b8786866040518563ffffffff1660e01b81526004016126e594939291906146c9565b602060405180830381600087803b1580156126ff57600080fd5b505af192505050801561273057506040513d601f19601f8201168201806040525081019061272d919061472a565b60015b6127b3573d8060008114612760576040519150601f19603f3d011682016040523d82523d6000602084013e612765565b606091505b506000815114156127ab576040517f08c379a00000000000000000000000000000000000000000000000000000000081526004016127a2906145c2565b60405180910390fd5b805181602001fd5b63150b7a0260e01b7bffffffffffffffffffffffffffffffffffffffffffffffffffffffff1916817bffffffffffffffffffffffffffffffffffffffffffffffffffffffff191614915050612808565b600190505b949350505050565b600060019054906101000a900460ff1661285f576040517f08c379a000000000000000000000000000000000000000000000000000000000815260040161285690614654565b60405180910390fd5b8160659080519060200190612875929190612e30565b50806066908051906020019061288c929190612e30565b505050565b600060019054906101000a900460ff166128e0576040517f08c379a00000000000000000000000000000000000000000000000000000000081526004016128d790614654565b60405180910390fd5b6128f06128eb61199d565b611f52565b565b600060019054906101000a900460ff16612941576040517f08c379a000000000000000000000000000000000000000000000000000000000815260040161293890614654565b60405180910390fd5b565b600033905090565b505050565b609980549050609a600083815260200190815260200160002081905550609981908060018154018082558091505060019003906000526020600020016000909190919091505550565b600060016129a684610d40565b6129b09190613ec9565b9050600060986000848152602001908152602001600020549050818114612a95576000609760008673ffffffffffffffffffffffffffffffffffffffff1673ffffffffffffffffffffffffffffffffffffffff168152602001908152602001600020600084815260200190815260200160002054905080609760008773ffffffffffffffffffffffffffffffffffffffff1673ffffffffffffffffffffffffffffffffffffffff168152602001908152602001600020600084815260200190815260200160002081905550816098600083815260200190815260200160002081905550505b6098600084815260200190815260200160002060009055609760008573ffffffffffffffffffffffffffffffffffffffff1673ffffffffffffffffffffffffffffffffffffffff16815260200190815260200160002060008381526020019081526020016000206000905550505050565b60006001609980549050612b1a9190613ec9565b90506000609a6000848152602001908152602001600020549050600060998381548110612b4a57612b49613d6d565b5b906000526020600020015490508060998381548110612b6c57612b6b613d6d565b5b906000526020600020018190555081609a600083815260200190815260200160002081905550609a6000858152602001908152602001600020600090556099805480612bbb57612bba614757565b5b6001900381819060005260206000200160009055905550505050565b6000612be283610d40565b905081609760008573ffffffffffffffffffffffffffffffffffffffff1673ffffffffffffffffffffffffffffffffffffffff168152602001908152602001600020600083815260200190815260200160002081905550806098600084815260200190815260200160002081905550505050565b600073ffffffffffffffffffffffffffffffffffffffff168273ffffffffffffffffffffffffffffffffffffffff161415612cc6576040517f08c379a0000000000000000000000000000000000000000000000000000000008152600401612cbd906147d2565b60405180910390fd5b612ccf81612467565b15612d0f576040517f08c379a0000000000000000000000000000000000000000000000000000000008152600401612d069061483e565b60405180910390fd5b612d1b60008383612505565b6001606860008473ffffffffffffffffffffffffffffffffffffffff1673ffffffffffffffffffffffffffffffffffffffff1681526020019081526020016000206000828254612d6b9190613efd565b92505081905550816067600083815260200190815260200160002060006101000a81548173ffffffffffffffffffffffffffffffffffffffff021916908373ffffffffffffffffffffffffffffffffffffffff160217905550808273ffffffffffffffffffffffffffffffffffffffff16600073ffffffffffffffffffffffffffffffffffffffff167fddf252ad1be2c89b69c2b068fc378daa952ba7f163c4a11628f55a4df523b3ef60405160405180910390a4612e2c60008383612619565b5050565b828054612e3c906138b1565b90600052602060002090601f016020900481019282612e5e5760008555612ea5565b82601f10612e7757805160ff1916838001178555612ea5565b82800160010185558215612ea5579182015b82811115612ea4578251825591602001919060010190612e89565b5b509050612eb29190612eb6565b5090565b5b80821115612ecf576000816000905550600101612eb7565b5090565b6000604051905090565b600080fd5b600080fd5b60007fffffffff0000000000000000000000000000000000000000000000000000000082169050919050565b612f1c81612ee7565b8114612f2757600080fd5b50565b600081359050612f3981612f13565b92915050565b600060208284031215612f5557612f54612edd565b5b6000612f6384828501612f2a565b91505092915050565b60008115159050919050565b612f8181612f6c565b82525050565b6000602082019050612f9c6000830184612f78565b92915050565b600081519050919050565b600082825260208201905092915050565b60005b83811015612fdc578082015181840152602081019050612fc1565b83811115612feb576000848401525b50505050565b6000601f19601f8301169050919050565b600061300d82612fa2565b6130178185612fad565b9350613027818560208601612fbe565b61303081612ff1565b840191505092915050565b600060208201905081810360008301526130558184613002565b905092915050565b6000819050919050565b6130708161305d565b811461307b57600080fd5b50565b60008135905061308d81613067565b92915050565b6000602082840312156130a9576130a8612edd565b5b60006130b78482850161307e565b91505092915050565b600073ffffffffffffffffffffffffffffffffffffffff82169050919050565b60006130eb826130c0565b9050919050565b6130fb816130e0565b82525050565b600060208201905061311660008301846130f2565b92915050565b613125816130e0565b811461313057600080fd5b50565b6000813590506131428161311c565b92915050565b6000806040838503121561315f5761315e612edd565b5b600061316d85828601613133565b925050602061317e8582860161307e565b9150509250929050565b6131918161305d565b82525050565b60006020820190506131ac6000830184613188565b92915050565b6000806000606084860312156131cb576131ca612edd565b5b60006131d986828701613133565b93505060206131ea86828701613133565b92505060406131fb8682870161307e565b9150509250925092565b600080fd5b600080fd5b7f4e487b7100000000000000000000000000000000000000000000000000000000600052604160045260246000fd5b61324782612ff1565b810181811067ffffffffffffffff821117156132665761326561320f565b5b80604052505050565b6000613279612ed3565b9050613285828261323e565b919050565b600067ffffffffffffffff8211156132a5576132a461320f565b5b6132ae82612ff1565b9050602081019050919050565b82818337600083830152505050565b60006132dd6132d88461328a565b61326f565b9050828152602081018484840111156132f9576132f861320a565b5b6133048482856132bb565b509392505050565b600082601f83011261332157613320613205565b5b81356133318482602086016132ca565b91505092915050565b6000806040838503121561335157613350612edd565b5b600061335f8582860161307e565b925050602083013567ffffffffffffffff8111156133805761337f612ee2565b5b61338c8582860161330c565b9150509250929050565b6000602082840312156133ac576133ab612edd565b5b60006133ba84828501613133565b91505092915050565b6000806000606084860312156133dc576133db612edd565b5b60006133ea8682870161307e565b93505060206133fb8682870161307e565b925050604084013567ffffffffffffffff81111561341c5761341b612ee2565b5b6134288682870161330c565b9150509250925092565b61343b81612f6c565b811461344657600080fd5b50565b60008135905061345881613432565b92915050565b6000806040838503121561347557613474612edd565b5b600061348385828601613133565b925050602061349485828601613449565b9150509250929050565b600067ffffffffffffffff8211156134b9576134b861320f565b5b6134c282612ff1565b9050602081019050919050565b60006134e26134dd8461349e565b61326f565b9050828152602081018484840111156134fe576134fd61320a565b5b6135098482856132bb565b509392505050565b600082601f83011261352657613525613205565b5b81356135368482602086016134cf565b91505092915050565b6000806000806080858703121561355957613558612edd565b5b600061356787828801613133565b945050602061357887828801613133565b93505060406135898782880161307e565b925050606085013567ffffffffffffffff8111156135aa576135a9612ee2565b5b6135b687828801613511565b91505092959194509250565b60006135cd826130e0565b9050919050565b6135dd816135c2565b81146135e857600080fd5b50565b6000813590506135fa816135d4565b92915050565b60006020828403121561361657613615612edd565b5b6000613624848285016135eb565b91505092915050565b6000806040838503121561364457613643612edd565b5b600061365285828601613133565b925050602061366385828601613133565b9150509250929050565b6000819050919050565b6136808161366d565b811461368b57600080fd5b50565b60008135905061369d81613677565b92915050565b600067ffffffffffffffff8211156136be576136bd61320f565b5b602082029050602081019050919050565b600080fd5b600080fd5b600080fd5b6000604082840312156136f4576136f36136d4565b5b6136fe604061326f565b9050600082013567ffffffffffffffff81111561371e5761371d6136d9565b5b61372a8482850161330c565b600083015250602061373e8482850161307e565b60208301525092915050565b600061375d613758846136a3565b61326f565b905080838252602082019050602084028301858111156137805761377f6136cf565b5b835b818110156137c757803567ffffffffffffffff8111156137a5576137a4613205565b5b8086016137b289826136de565b85526020850194505050602081019050613782565b5050509392505050565b600082601f8301126137e6576137e5613205565b5b81356137f684826020860161374a565b91505092915050565b6000806000806080858703121561381957613818612edd565b5b60006138278782880161307e565b94505060206138388782880161307e565b93505060406138498782880161368e565b925050606085013567ffffffffffffffff81111561386a57613869612ee2565b5b613876878288016137d1565b91505092959194509250565b7f4e487b7100000000000000000000000000000000000000000000000000000000600052602260045260246000fd5b600060028204905060018216806138c957607f821691505b602082108114156138dd576138dc613882565b5b50919050565b7f4552433732313a20617070726f76616c20746f2063757272656e74206f776e6560008201527f7200000000000000000000000000000000000000000000000000000000000000602082015250565b600061393f602183612fad565b915061394a826138e3565b604082019050919050565b6000602082019050818103600083015261396e81613932565b9050919050565b7f4552433732313a20617070726f76652063616c6c6572206973206e6f7420746f60008201527f6b656e206f776e6572206e6f7220617070726f76656420666f7220616c6c0000602082015250565b60006139d1603e83612fad565b91506139dc82613975565b604082019050919050565b60006020820190508181036000830152613a00816139c4565b9050919050565b7f4552433732313a2063616c6c6572206973206e6f7420746f6b656e206f776e6560008201527f72206e6f7220617070726f766564000000000000000000000000000000000000602082015250565b6000613a63602e83612fad565b9150613a6e82613a07565b604082019050919050565b60006020820190508181036000830152613a9281613a56565b9050919050565b7f696e76616c696420736563726574207068726173650000000000000000000000600082015250565b6000613acf601583612fad565b9150613ada82613a99565b602082019050919050565b60006020820190508181036000830152613afe81613ac2565b9050919050565b7f72656d61696e696e6720636f756e74206973207a65726f000000000000000000600082015250565b6000613b3b601783612fad565b9150613b4682613b05565b602082019050919050565b60006020820190508181036000830152613b6a81613b2e565b9050919050565b7f616c7265616479206d696e746564000000000000000000000000000000000000600082015250565b6000613ba7600e83612fad565b9150613bb282613b71565b602082019050919050565b60006020820190508181036000830152613bd681613b9a565b9050919050565b7f6e6f206c6f6e676572206d696e7461626c650000000000000000000000000000600082015250565b6000613c13601283612fad565b9150613c1e82613bdd565b602082019050919050565b60006020820190508181036000830152613c4281613c06565b9050919050565b7f455243373231456e756d657261626c653a206f776e657220696e646578206f7560008201527f74206f6620626f756e6473000000000000000000000000000000000000000000602082015250565b6000613ca5602b83612fad565b9150613cb082613c49565b604082019050919050565b60006020820190508181036000830152613cd481613c98565b9050919050565b7f455243373231456e756d657261626c653a20676c6f62616c20696e646578206f60008201527f7574206f6620626f756e64730000000000000000000000000000000000000000602082015250565b6000613d37602c83612fad565b9150613d4282613cdb565b604082019050919050565b60006020820190508181036000830152613d6681613d2a565b9050919050565b7f4e487b7100000000000000000000000000000000000000000000000000000000600052603260045260246000fd5b7f4552433732313a20696e76616c696420746f6b656e2049440000000000000000600082015250565b6000613dd2601883612fad565b9150613ddd82613d9c565b602082019050919050565b60006020820190508181036000830152613e0181613dc5565b9050919050565b7f4552433732313a2061646472657373207a65726f206973206e6f74206120766160008201527f6c6964206f776e65720000000000000000000000000000000000000000000000602082015250565b6000613e64602983612fad565b9150613e6f82613e08565b604082019050919050565b60006020820190508181036000830152613e9381613e57565b9050919050565b7f4e487b7100000000000000000000000000000000000000000000000000000000600052601160045260246000fd5b6000613ed48261305d565b9150613edf8361305d565b925082821015613ef257613ef1613e9a565b5b828203905092915050565b6000613f088261305d565b9150613f138361305d565b9250827fffffffffffffffffffffffffffffffffffffffffffffffffffffffffffffffff03821115613f4857613f47613e9a565b5b828201905092915050565b600081905092915050565b50565b6000613f6e600083613f53565b9150613f7982613f5e565b600082019050919050565b6000613f8f82613f61565b9150819050919050565b6000613fa482612fa2565b613fae8185613f53565b9350613fbe818560208601612fbe565b80840191505092915050565b6000613fd68284613f99565b915081905092915050565b7f6576656e74206d616e61676572206164647265737320697320626c616e6b0000600082015250565b6000614017601e83612fad565b915061402282613fe1565b602082019050919050565b600060208201905081810360008301526140468161400a565b9050919050565b7f496e697469616c697a61626c653a20636f6e747261637420697320616c72656160008201527f647920696e697469616c697a6564000000000000000000000000000000000000602082015250565b60006140a9602e83612fad565b91506140b48261404d565b604082019050919050565b600060208201905081810360008301526140d88161409c565b9050919050565b6000819050919050565b600060ff82169050919050565b6000819050919050565b600061411b614116614111846140df565b6140f6565b6140e9565b9050919050565b61412b81614100565b82525050565b60006020820190506141466000830184614122565b92915050565b7f756e617574686f72697a65640000000000000000000000000000000000000000600082015250565b6000614182600c83612fad565b915061418d8261414c565b602082019050919050565b600060208201905081810360008301526141b181614175565b9050919050565b60006141c38261305d565b91507fffffffffffffffffffffffffffffffffffffffffffffffffffffffffffffffff8214156141f6576141f5613e9a565b5b600182019050919050565b7f4f776e61626c653a206e6577206f776e657220697320746865207a65726f206160008201527f6464726573730000000000000000000000000000000000000000000000000000602082015250565b600061425d602683612fad565b915061426882614201565b604082019050919050565b6000602082019050818103600083015261428c81614250565b9050919050565b7f4552433732313a207472616e736665722066726f6d20696e636f72726563742060008201527f6f776e6572000000000000000000000000000000000000000000000000000000602082015250565b60006142ef602583612fad565b91506142fa82614293565b604082019050919050565b6000602082019050818103600083015261431e816142e2565b9050919050565b7f4552433732313a207472616e7366657220746f20746865207a65726f2061646460008201527f7265737300000000000000000000000000000000000000000000000000000000602082015250565b6000614381602483612fad565b915061438c82614325565b604082019050919050565b600060208201905081810360008301526143b081614374565b9050919050565b7f4f776e61626c653a2063616c6c6572206973206e6f7420746865206f776e6572600082015250565b60006143ed602083612fad565b91506143f8826143b7565b602082019050919050565b6000602082019050818103600083015261441c816143e0565b9050919050565b60008160601b9050919050565b600061443b82614423565b9050919050565b600061444d82614430565b9050919050565b614465614460826130e0565b614442565b82525050565b6000819050919050565b6144866144818261305d565b61446b565b82525050565b60006144988285614454565b6014820191506144a88284614475565b6020820191508190509392505050565b60006144c48285614475565b6020820191506144d48284614475565b6020820191508190509392505050565b7f4552433732313a20617070726f766520746f2063616c6c657200000000000000600082015250565b600061451a601983612fad565b9150614525826144e4565b602082019050919050565b600060208201905081810360008301526145498161450d565b9050919050565b7f4552433732313a207472616e7366657220746f206e6f6e20455243373231526560008201527f63656976657220696d706c656d656e7465720000000000000000000000000000602082015250565b60006145ac603283612fad565b91506145b782614550565b604082019050919050565b600060208201905081810360008301526145db8161459f565b9050919050565b7f496e697469616c697a61626c653a20636f6e7472616374206973206e6f74206960008201527f6e697469616c697a696e67000000000000000000000000000000000000000000602082015250565b600061463e602b83612fad565b9150614649826145e2565b604082019050919050565b6000602082019050818103600083015261466d81614631565b9050919050565b600081519050919050565b600082825260208201905092915050565b600061469b82614674565b6146a5818561467f565b93506146b5818560208601612fbe565b6146be81612ff1565b840191505092915050565b60006080820190506146de60008301876130f2565b6146eb60208301866130f2565b6146f86040830185613188565b818103606083015261470a8184614690565b905095945050505050565b60008151905061472481612f13565b92915050565b6000602082840312156147405761473f612edd565b5b600061474e84828501614715565b91505092915050565b7f4e487b7100000000000000000000000000000000000000000000000000000000600052603160045260246000fd5b7f4552433732313a206d696e7420746f20746865207a65726f2061646472657373600082015250565b60006147bc602083612fad565b91506147c782614786565b602082019050919050565b600060208201905081810360008301526147eb816147af565b9050919050565b7f4552433732313a20746f6b656e20616c7265616479206d696e74656400000000600082015250565b6000614828601c83612fad565b9150614833826147f2565b602082019050919050565b600060208201905081810360008301526148578161481b565b905091905056fea2646970667358221220a0547c9fa5e4c562cd39d5181eaa60ccea77eec785362527a3dd966d7e7101a364736f6c63430008090033",
  "linkReferences": {},
  "deployedLinkReferences": {}
}