{
  "_format": "hh-sol-artifact-1",
  "contractName": "MintNFT",
  "sourceName": "contracts/MintNFT.sol",
  "abi": [
    {
      "anonymous": false,
      "inputs": [
        {
          "indexed": true,
          "internalType": "address",
          "name": "owner",
          "type": "address"
        },
        {
          "indexed": true,
          "internalType": "address",
          "name": "approved",
          "type": "address"
        },
        {
          "indexed": true,
          "internalType": "uint256",
          "name": "tokenId",
          "type": "uint256"
        }
      ],
      "name": "Approval",
      "type": "event"
    },
    {
      "anonymous": false,
      "inputs": [
        {
          "indexed": true,
          "internalType": "address",
          "name": "owner",
          "type": "address"
        },
        {
          "indexed": true,
          "internalType": "address",
          "name": "operator",
          "type": "address"
        },
        {
          "indexed": false,
          "internalType": "bool",
          "name": "approved",
          "type": "bool"
        }
      ],
      "name": "ApprovalForAll",
      "type": "event"
    },
    {
      "anonymous": false,
      "inputs": [
        {
          "indexed": false,
          "internalType": "uint8",
          "name": "version",
          "type": "uint8"
        }
      ],
      "name": "Initialized",
      "type": "event"
    },
    {
      "anonymous": false,
      "inputs": [
        {
          "indexed": true,
          "internalType": "address",
          "name": "holder",
          "type": "address"
        },
        {
          "indexed": false,
          "internalType": "string",
          "name": "url",
          "type": "string"
        }
      ],
      "name": "MintedNFTAttributeURL",
      "type": "event"
    },
    {
      "anonymous": false,
      "inputs": [
        {
          "indexed": true,
          "internalType": "address",
          "name": "previousOwner",
          "type": "address"
        },
        {
          "indexed": true,
          "internalType": "address",
          "name": "newOwner",
          "type": "address"
        }
      ],
      "name": "OwnershipTransferred",
      "type": "event"
    },
    {
      "anonymous": false,
      "inputs": [
        {
          "indexed": true,
          "internalType": "address",
          "name": "from",
          "type": "address"
        },
        {
          "indexed": true,
          "internalType": "address",
          "name": "to",
          "type": "address"
        },
        {
          "indexed": true,
          "internalType": "uint256",
          "name": "tokenId",
          "type": "uint256"
        }
      ],
      "name": "Transfer",
      "type": "event"
    },
    {
      "inputs": [
        {
          "internalType": "address",
          "name": "to",
          "type": "address"
        },
        {
          "internalType": "uint256",
          "name": "tokenId",
          "type": "uint256"
        }
      ],
      "name": "approve",
      "outputs": [],
      "stateMutability": "nonpayable",
      "type": "function"
    },
    {
      "inputs": [
        {
          "internalType": "address",
          "name": "owner",
          "type": "address"
        }
      ],
      "name": "balanceOf",
      "outputs": [
        {
          "internalType": "uint256",
          "name": "",
          "type": "uint256"
        }
      ],
      "stateMutability": "view",
      "type": "function"
    },
    {
      "inputs": [
        {
          "internalType": "uint256",
          "name": "tokenId",
          "type": "uint256"
        }
      ],
      "name": "burn",
      "outputs": [],
      "stateMutability": "nonpayable",
      "type": "function"
    },
    {
      "inputs": [
        {
          "internalType": "uint256",
          "name": "_eventId",
          "type": "uint256"
        },
        {
          "internalType": "string",
          "name": "_secretPhrase",
          "type": "string"
        }
      ],
      "name": "canMint",
      "outputs": [
        {
          "internalType": "bool",
          "name": "",
          "type": "bool"
        }
      ],
      "stateMutability": "view",
      "type": "function"
    },
    {
      "inputs": [
        {
          "internalType": "uint256",
          "name": "tokenId",
          "type": "uint256"
        }
      ],
      "name": "getApproved",
      "outputs": [
        {
          "internalType": "address",
          "name": "",
          "type": "address"
        }
      ],
      "stateMutability": "view",
      "type": "function"
    },
    {
      "inputs": [
        {
          "internalType": "uint256",
          "name": "_eventId",
          "type": "uint256"
        }
      ],
      "name": "getRemainingNFTCount",
      "outputs": [
        {
          "internalType": "uint256",
          "name": "",
          "type": "uint256"
        }
      ],
      "stateMutability": "view",
      "type": "function"
    },
    {
      "inputs": [
        {
          "internalType": "contract MinimalForwarderUpgradeable",
          "name": "trustedForwarder",
          "type": "address"
        }
      ],
      "name": "initialize",
      "outputs": [],
      "stateMutability": "nonpayable",
      "type": "function"
    },
    {
      "inputs": [
        {
          "internalType": "address",
          "name": "owner",
          "type": "address"
        },
        {
          "internalType": "address",
          "name": "operator",
          "type": "address"
        }
      ],
      "name": "isApprovedForAll",
      "outputs": [
        {
          "internalType": "bool",
          "name": "",
          "type": "bool"
        }
      ],
      "stateMutability": "view",
      "type": "function"
    },
    {
      "inputs": [
        {
          "internalType": "address",
          "name": "_addr",
          "type": "address"
        },
        {
          "internalType": "uint256",
          "name": "_eventId",
          "type": "uint256"
        }
      ],
      "name": "isHoldingEventNFTByAddress",
      "outputs": [
        {
          "internalType": "bool",
          "name": "",
          "type": "bool"
        }
      ],
      "stateMutability": "view",
      "type": "function"
    },
    {
      "inputs": [
        {
          "internalType": "address",
          "name": "forwarder",
          "type": "address"
        }
      ],
      "name": "isTrustedForwarder",
      "outputs": [
        {
          "internalType": "bool",
          "name": "",
          "type": "bool"
        }
      ],
      "stateMutability": "view",
      "type": "function"
    },
    {
      "inputs": [
        {
          "internalType": "uint256",
          "name": "_groupId",
          "type": "uint256"
        },
        {
          "internalType": "uint256",
          "name": "_eventId",
          "type": "uint256"
        },
        {
          "internalType": "string",
          "name": "_secretPhrase",
          "type": "string"
        }
      ],
      "name": "mintParticipateNFT",
      "outputs": [],
      "stateMutability": "nonpayable",
      "type": "function"
    },
    {
      "inputs": [],
      "name": "name",
      "outputs": [
        {
          "internalType": "string",
          "name": "",
          "type": "string"
        }
      ],
      "stateMutability": "view",
      "type": "function"
    },
    {
      "inputs": [],
      "name": "owner",
      "outputs": [
        {
          "internalType": "address",
          "name": "",
          "type": "address"
        }
      ],
      "stateMutability": "view",
      "type": "function"
    },
    {
      "inputs": [
        {
          "internalType": "uint256",
          "name": "tokenId",
          "type": "uint256"
        }
      ],
      "name": "ownerOf",
      "outputs": [
        {
          "internalType": "address",
          "name": "",
          "type": "address"
        }
      ],
      "stateMutability": "view",
      "type": "function"
    },
    {
      "inputs": [],
      "name": "renounceOwnership",
      "outputs": [],
      "stateMutability": "nonpayable",
      "type": "function"
    },
    {
      "inputs": [
        {
          "internalType": "address",
          "name": "from",
          "type": "address"
        },
        {
          "internalType": "address",
          "name": "to",
          "type": "address"
        },
        {
          "internalType": "uint256",
          "name": "tokenId",
          "type": "uint256"
        }
      ],
      "name": "safeTransferFrom",
      "outputs": [],
      "stateMutability": "nonpayable",
      "type": "function"
    },
    {
      "inputs": [
        {
          "internalType": "address",
          "name": "from",
          "type": "address"
        },
        {
          "internalType": "address",
          "name": "to",
          "type": "address"
        },
        {
          "internalType": "uint256",
          "name": "tokenId",
          "type": "uint256"
        },
        {
          "internalType": "bytes",
          "name": "data",
          "type": "bytes"
        }
      ],
      "name": "safeTransferFrom",
      "outputs": [],
      "stateMutability": "nonpayable",
      "type": "function"
    },
    {
      "inputs": [
        {
          "internalType": "address",
          "name": "operator",
          "type": "address"
        },
        {
          "internalType": "bool",
          "name": "approved",
          "type": "bool"
        }
      ],
      "name": "setApprovalForAll",
      "outputs": [],
      "stateMutability": "nonpayable",
      "type": "function"
    },
    {
      "inputs": [
        {
          "internalType": "uint256",
          "name": "_eventId",
          "type": "uint256"
        },
        {
          "internalType": "uint256",
          "name": "_mintLimit",
          "type": "uint256"
        },
        {
          "internalType": "bytes32",
          "name": "_secretPhrase",
          "type": "bytes32"
        },
        {
          "components": [
            {
              "internalType": "string",
              "name": "metaDataURL",
              "type": "string"
            },
            {
              "internalType": "uint256",
              "name": "requiredParticipateCount",
              "type": "uint256"
            }
          ],
          "internalType": "struct MintNFT.NFTAttribute[]",
          "name": "attributes",
          "type": "tuple[]"
        }
      ],
      "name": "setEventInfo",
      "outputs": [],
      "stateMutability": "nonpayable",
      "type": "function"
    },
    {
      "inputs": [
        {
          "internalType": "address",
          "name": "_addr",
          "type": "address"
        }
      ],
      "name": "setEventManagerAddr",
      "outputs": [],
      "stateMutability": "nonpayable",
      "type": "function"
    },
    {
      "inputs": [
        {
          "internalType": "bytes4",
          "name": "interfaceId",
          "type": "bytes4"
        }
      ],
      "name": "supportsInterface",
      "outputs": [
        {
          "internalType": "bool",
          "name": "",
          "type": "bool"
        }
      ],
      "stateMutability": "view",
      "type": "function"
    },
    {
      "inputs": [],
      "name": "symbol",
      "outputs": [
        {
          "internalType": "string",
          "name": "",
          "type": "string"
        }
      ],
      "stateMutability": "view",
      "type": "function"
    },
    {
      "inputs": [
        {
          "internalType": "uint256",
          "name": "index",
          "type": "uint256"
        }
      ],
      "name": "tokenByIndex",
      "outputs": [
        {
          "internalType": "uint256",
          "name": "",
          "type": "uint256"
        }
      ],
      "stateMutability": "view",
      "type": "function"
    },
    {
      "inputs": [
        {
          "internalType": "address",
          "name": "owner",
          "type": "address"
        },
        {
          "internalType": "uint256",
          "name": "index",
          "type": "uint256"
        }
      ],
      "name": "tokenOfOwnerByIndex",
      "outputs": [
        {
          "internalType": "uint256",
          "name": "",
          "type": "uint256"
        }
      ],
      "stateMutability": "view",
      "type": "function"
    },
    {
      "inputs": [
        {
          "internalType": "uint256",
          "name": "_tokenId",
          "type": "uint256"
        }
      ],
      "name": "tokenURI",
      "outputs": [
        {
          "internalType": "string",
          "name": "",
          "type": "string"
        }
      ],
      "stateMutability": "view",
      "type": "function"
    },
    {
      "inputs": [],
      "name": "totalSupply",
      "outputs": [
        {
          "internalType": "uint256",
          "name": "",
          "type": "uint256"
        }
      ],
      "stateMutability": "view",
      "type": "function"
    },
    {
      "inputs": [
        {
          "internalType": "address",
          "name": "from",
          "type": "address"
        },
        {
          "internalType": "address",
          "name": "to",
          "type": "address"
        },
        {
          "internalType": "uint256",
          "name": "tokenId",
          "type": "uint256"
        }
      ],
      "name": "transferFrom",
      "outputs": [],
      "stateMutability": "nonpayable",
      "type": "function"
    },
    {
      "inputs": [
        {
          "internalType": "address",
          "name": "newOwner",
          "type": "address"
        }
      ],
      "name": "transferOwnership",
      "outputs": [],
      "stateMutability": "nonpayable",
      "type": "function"
    }
  ],
  "bytecode": "0x608060405234801561001057600080fd5b506146c5806100206000396000f3fe608060405234801561001057600080fd5b50600436106101c45760003560e01c806370a08231116100f9578063b88d4fde11610097578063d622abc211610071578063d622abc214610527578063e985e9c514610557578063ef3ad9eb14610587578063f2fde38b146105a3576101c4565b8063b88d4fde146104bf578063c4d66de8146104db578063c87b56dd146104f7576101c4565b80638da5cb5b116100d35780638da5cb5b1461044b5780639041e3f41461046957806395d89b4114610485578063a22cb465146104a3576101c4565b806370a08231146103f5578063715018a61461042557806372746a8d1461042f576101c4565b80632f745c59116101665780634f6ccce7116101405780634f6ccce7146103355780634ffc9f4b14610365578063572b6c05146103955780636352211e146103c5576101c4565b80632f745c59146102cd57806342842e0e146102fd57806342966c6814610319576101c4565b8063095ea7b3116101a2578063095ea7b31461024757806318160ddd1461026357806323b872dd146102815780632b3e44361461029d576101c4565b806301ffc9a7146101c957806306fdde03146101f9578063081812fc14610217575b600080fd5b6101e360048036038101906101de9190612ddc565b6105bf565b6040516101f09190612e24565b60405180910390f35b610201610639565b60405161020e9190612ed8565b60405180910390f35b610231600480360381019061022c9190612f30565b6106cb565b60405161023e9190612f9e565b60405180910390f35b610261600480360381019061025c9190612fe5565b610711565b005b61026b610829565b6040516102789190613034565b60405180910390f35b61029b6004803603810190610296919061304f565b610836565b005b6102b760048036038101906102b291906131d7565b610896565b6040516102c49190612e24565b60405180910390f35b6102e760048036038101906102e29190612fe5565b610994565b6040516102f49190613034565b60405180910390f35b6103176004803603810190610312919061304f565b610a39565b005b610333600480360381019061032e9190612f30565b610a59565b005b61034f600480360381019061034a9190612f30565b610a6d565b60405161035c9190613034565b60405180910390f35b61037f600480360381019061037a9190612f30565b610ade565b60405161038c9190613034565b60405180910390f35b6103af60048036038101906103aa9190613233565b610afc565b6040516103bc9190612e24565b60405180910390f35b6103df60048036038101906103da9190612f30565b610b56565b6040516103ec9190612f9e565b60405180910390f35b61040f600480360381019061040a9190613233565b610c08565b60405161041c9190613034565b60405180910390f35b61042d610cc0565b005b61044960048036038101906104449190613260565b610cd4565b005b610453611009565b6040516104609190612f9e565b60405180910390f35b610483600480360381019061047e9190613233565b611033565b005b61048d6110f0565b60405161049a9190612ed8565b60405180910390f35b6104bd60048036038101906104b891906132fb565b611182565b005b6104d960048036038101906104d491906133dc565b611198565b005b6104f560048036038101906104f0919061349d565b6111fa565b005b610511600480360381019061050c9190612f30565b6113b6565b60405161051e9190612ed8565b60405180910390f35b610541600480360381019061053c9190612fe5565b611462565b60405161054e9190612e24565b60405180910390f35b610571600480360381019061056c91906134ca565b611497565b60405161057e9190612e24565b60405180910390f35b6105a1600480360381019061059c919061369c565b61152b565b005b6105bd60048036038101906105b89190613233565b611689565b005b60007f780e9d63000000000000000000000000000000000000000000000000000000007bffffffffffffffffffffffffffffffffffffffffffffffffffffffff1916827bffffffffffffffffffffffffffffffffffffffffffffffffffffffff1916148061063257506106318261170d565b5b9050919050565b6060606580546106489061374e565b80601f01602080910402602001604051908101604052809291908181526020018280546106749061374e565b80156106c15780601f10610696576101008083540402835291602001916106c1565b820191906000526020600020905b8154815290600101906020018083116106a457829003601f168201915b5050505050905090565b60006106d6826117ef565b6069600083815260200190815260200160002060009054906101000a900473ffffffffffffffffffffffffffffffffffffffff169050919050565b600061071c82610b56565b90508073ffffffffffffffffffffffffffffffffffffffff168373ffffffffffffffffffffffffffffffffffffffff16141561078d576040517f08c379a0000000000000000000000000000000000000000000000000000000008152600401610784906137f2565b60405180910390fd5b8073ffffffffffffffffffffffffffffffffffffffff166107ac61183a565b73ffffffffffffffffffffffffffffffffffffffff1614806107db57506107da816107d561183a565b611497565b5b61081a576040517f08c379a000000000000000000000000000000000000000000000000000000000815260040161081190613884565b60405180910390fd5b610824838361186c565b505050565b6000609980549050905090565b61084761084161183a565b82611925565b610886576040517f08c379a000000000000000000000000000000000000000000000000000000000815260040161087d90613916565b60405180910390fd5b6108918383836119ba565b505050565b60006108a28284611c21565b6108e1576040517f08c379a00000000000000000000000000000000000000000000000000000000081526004016108d890613982565b60405180910390fd5b60006101346000858152602001908152602001600020541415610939576040517f08c379a0000000000000000000000000000000000000000000000000000000008152600401610930906139ee565b60405180910390fd5b61094a61094461183a565b84611462565b1561098a576040517f08c379a000000000000000000000000000000000000000000000000000000000815260040161098190613a5a565b60405180910390fd5b6001905092915050565b600061099f83610c08565b82106109e0576040517f08c379a00000000000000000000000000000000000000000000000000000000081526004016109d790613aec565b60405180910390fd5b609760008473ffffffffffffffffffffffffffffffffffffffff1673ffffffffffffffffffffffffffffffffffffffff168152602001908152602001600020600083815260200190815260200160002054905092915050565b610a5483838360405180602001604052806000815250611198565b505050565b610a61611c54565b610a6a81611cd2565b50565b6000610a77610829565b8210610ab8576040517f08c379a0000000000000000000000000000000000000000000000000000000008152600401610aaf90613b7e565b60405180910390fd5b60998281548110610acc57610acb613b9e565b5b90600052602060002001549050919050565b60006101346000838152602001908152602001600020549050919050565b600060c960009054906101000a900473ffffffffffffffffffffffffffffffffffffffff1673ffffffffffffffffffffffffffffffffffffffff168273ffffffffffffffffffffffffffffffffffffffff16149050919050565b6000806067600084815260200190815260200160002060009054906101000a900473ffffffffffffffffffffffffffffffffffffffff169050600073ffffffffffffffffffffffffffffffffffffffff168173ffffffffffffffffffffffffffffffffffffffff161415610bff576040517f08c379a0000000000000000000000000000000000000000000000000000000008152600401610bf690613c19565b60405180910390fd5b80915050919050565b60008073ffffffffffffffffffffffffffffffffffffffff168273ffffffffffffffffffffffffffffffffffffffff161415610c79576040517f08c379a0000000000000000000000000000000000000000000000000000000008152600401610c7090613cab565b60405180910390fd5b606860008373ffffffffffffffffffffffffffffffffffffffff1673ffffffffffffffffffffffffffffffffffffffff168152602001908152602001600020549050919050565b610cc8611c54565b610cd26000611def565b565b610cde8282610896565b506001610134600084815260200190815260200160002054610d009190613cfa565b61013460008481526020019081526020016000208190555060016101316000610d30610d2a61183a565b86611eb5565b815260200190815260200160002060006101000a81548160ff0219169083151502179055506000610d68610d6261183a565b85611eb5565b905060006101326000838152602001908152602001600020549050600181610d909190613d2e565b61013260008481526020019081526020016000208190555060006101336000610dba876000611ee8565b81526020019081526020016000208054610dd39061374e565b80601f0160208091040260200160405190810160405280929190818152602001828054610dff9061374e565b8015610e4c5780601f10610e2157610100808354040283529160200191610e4c565b820191906000526020600020905b815481529060010190602001808311610e2f57829003601f168201915b5050505050905060006101336000610e648886611ee8565b81526020019081526020016000208054610e7d9061374e565b80601f0160208091040260200160405190810160405280929190818152602001828054610ea99061374e565b8015610ef65780601f10610ecb57610100808354040283529160200191610ef6565b820191906000526020600020905b815481529060010190602001808311610ed957829003601f168201915b50505050509050604051602001610f0c90613db5565b6040516020818303038152906040528051906020012081604051602001610f339190613dfb565b6040516020818303038152906040528051906020012014610f52578091505b816101306000610f6361012e611f1b565b81526020019081526020016000209080519060200190610f84929190612ccd565b50610fa0610f9061183a565b610f9b61012e611f1b565b611f29565b610fab61012e611f47565b610fb361183a565b73ffffffffffffffffffffffffffffffffffffffff167faf2fad1984d2c7abaa9300537cf9fe1bcfaf2d6226e4ffdf03522dbf3064808e83604051610ff89190612ed8565b60405180910390a250505050505050565b600060fc60009054906101000a900473ffffffffffffffffffffffffffffffffffffffff16905090565b61103b611c54565b600073ffffffffffffffffffffffffffffffffffffffff168173ffffffffffffffffffffffffffffffffffffffff1614156110ab576040517f08c379a00000000000000000000000000000000000000000000000000000000081526004016110a290613e5e565b60405180910390fd5b8061012f60006101000a81548173ffffffffffffffffffffffffffffffffffffffff021916908373ffffffffffffffffffffffffffffffffffffffff16021790555050565b6060606680546110ff9061374e565b80601f016020809104026020016040519081016040528092919081815260200182805461112b9061374e565b80156111785780601f1061114d57610100808354040283529160200191611178565b820191906000526020600020905b81548152906001019060200180831161115b57829003601f168201915b5050505050905090565b61119461118d61183a565b8383611f5d565b5050565b6111a96111a361183a565b83611925565b6111e8576040517f08c379a00000000000000000000000000000000000000000000000000000000081526004016111df90613916565b60405180910390fd5b6111f4848484846120ca565b50505050565b60008060019054906101000a900460ff1615905080801561122b5750600160008054906101000a900460ff1660ff16105b80611258575061123a30612126565b1580156112575750600160008054906101000a900460ff1660ff16145b5b611297576040517f08c379a000000000000000000000000000000000000000000000000000000000815260040161128e90613ef0565b60405180910390fd5b60016000806101000a81548160ff021916908360ff16021790555080156112d4576001600060016101000a81548160ff0219169083151502179055505b6113486040518060400160405280600981526020017f4d696e7452616c6c7900000000000000000000000000000000000000000000008152506040518060400160405280600281526020017f4d52000000000000000000000000000000000000000000000000000000000000815250612149565b6113506121a6565b611359826121ff565b80156113b25760008060016101000a81548160ff0219169083151502179055507f7f26b83ff96e1f2b6a682f133852f6798a09c465da95921460cefb384740249860016040516113a99190613f62565b60405180910390a15b5050565b60606000610130600084815260200190815260200160002080546113d99061374e565b80601f01602080910402602001604051908101604052809291908181526020018280546114059061374e565b80156114525780601f1061142757610100808354040283529160200191611452565b820191906000526020600020905b81548152906001019060200180831161143557829003601f168201915b5050505050905080915050919050565b600061013160006114738585611eb5565b815260200190815260200160002060009054906101000a900460ff16905092915050565b6000606a60008473ffffffffffffffffffffffffffffffffffffffff1673ffffffffffffffffffffffffffffffffffffffff16815260200190815260200160002060008373ffffffffffffffffffffffffffffffffffffffff1673ffffffffffffffffffffffffffffffffffffffff16815260200190815260200160002060009054906101000a900460ff16905092915050565b61012f60009054906101000a900473ffffffffffffffffffffffffffffffffffffffff1673ffffffffffffffffffffffffffffffffffffffff1661156d61183a565b73ffffffffffffffffffffffffffffffffffffffff16146115c3576040517f08c379a00000000000000000000000000000000000000000000000000000000081526004016115ba90613fc9565b60405180910390fd5b826101346000868152602001908152602001600020819055508161013560008681526020019081526020016000208190555060005b81518110156116825781818151811061161457611613613b9e565b5b602002602001015160000151610133600061164d8886868151811061163c5761163b613b9e565b5b602002602001015160200151611ee8565b8152602001908152602001600020908051906020019061166e929190612ccd565b50808061167a90613fe9565b9150506115f8565b5050505050565b611691611c54565b600073ffffffffffffffffffffffffffffffffffffffff168173ffffffffffffffffffffffffffffffffffffffff161415611701576040517f08c379a00000000000000000000000000000000000000000000000000000000081526004016116f8906140a4565b60405180910390fd5b61170a81611def565b50565b60007f80ac58cd000000000000000000000000000000000000000000000000000000007bffffffffffffffffffffffffffffffffffffffffffffffffffffffff1916827bffffffffffffffffffffffffffffffffffffffffffffffffffffffff191614806117d857507f5b5e139f000000000000000000000000000000000000000000000000000000007bffffffffffffffffffffffffffffffffffffffffffffffffffffffff1916827bffffffffffffffffffffffffffffffffffffffffffffffffffffffff1916145b806117e857506117e78261229a565b5b9050919050565b6117f881612304565b611837576040517f08c379a000000000000000000000000000000000000000000000000000000000815260040161182e90613c19565b60405180910390fd5b50565b600061184533610afc565b1561185957601436033560601c9050611868565b611861612370565b9050611869565b5b90565b816069600083815260200190815260200160002060006101000a81548173ffffffffffffffffffffffffffffffffffffffff021916908373ffffffffffffffffffffffffffffffffffffffff160217905550808273ffffffffffffffffffffffffffffffffffffffff166118df83610b56565b73ffffffffffffffffffffffffffffffffffffffff167f8c5be1e5ebec7d5bd14f71427d1e84f3dd0314c0f7b2291e5b200ac8c7c3b92560405160405180910390a45050565b60008061193183610b56565b90508073ffffffffffffffffffffffffffffffffffffffff168473ffffffffffffffffffffffffffffffffffffffff16148061197357506119728185611497565b5b806119b157508373ffffffffffffffffffffffffffffffffffffffff16611999846106cb565b73ffffffffffffffffffffffffffffffffffffffff16145b91505092915050565b8273ffffffffffffffffffffffffffffffffffffffff166119da82610b56565b73ffffffffffffffffffffffffffffffffffffffff1614611a30576040517f08c379a0000000000000000000000000000000000000000000000000000000008152600401611a2790614136565b60405180910390fd5b600073ffffffffffffffffffffffffffffffffffffffff168273ffffffffffffffffffffffffffffffffffffffff161415611aa0576040517f08c379a0000000000000000000000000000000000000000000000000000000008152600401611a97906141c8565b60405180910390fd5b611aab8383836123a2565b611ab660008261186c565b6001606860008573ffffffffffffffffffffffffffffffffffffffff1673ffffffffffffffffffffffffffffffffffffffff1681526020019081526020016000206000828254611b069190613cfa565b925050819055506001606860008473ffffffffffffffffffffffffffffffffffffffff1673ffffffffffffffffffffffffffffffffffffffff1681526020019081526020016000206000828254611b5d9190613d2e565b92505081905550816067600083815260200190815260200160002060006101000a81548173ffffffffffffffffffffffffffffffffffffffff021916908373ffffffffffffffffffffffffffffffffffffffff160217905550808273ffffffffffffffffffffffffffffffffffffffff168473ffffffffffffffffffffffffffffffffffffffff167fddf252ad1be2c89b69c2b068fc378daa952ba7f163c4a11628f55a4df523b3ef60405160405180910390a4611c1c8383836124b6565b505050565b60008083805190602001209050600081610135600086815260200190815260200160002054149050809250505092915050565b611c5c61183a565b73ffffffffffffffffffffffffffffffffffffffff16611c7a611009565b73ffffffffffffffffffffffffffffffffffffffff1614611cd0576040517f08c379a0000000000000000000000000000000000000000000000000000000008152600401611cc790614234565b60405180910390fd5b565b6000611cdd82610b56565b9050611ceb816000846123a2565b611cf660008361186c565b6001606860008373ffffffffffffffffffffffffffffffffffffffff1673ffffffffffffffffffffffffffffffffffffffff1681526020019081526020016000206000828254611d469190613cfa565b925050819055506067600083815260200190815260200160002060006101000a81549073ffffffffffffffffffffffffffffffffffffffff021916905581600073ffffffffffffffffffffffffffffffffffffffff168273ffffffffffffffffffffffffffffffffffffffff167fddf252ad1be2c89b69c2b068fc378daa952ba7f163c4a11628f55a4df523b3ef60405160405180910390a4611deb816000846124b6565b5050565b600060fc60009054906101000a900473ffffffffffffffffffffffffffffffffffffffff1690508160fc60006101000a81548173ffffffffffffffffffffffffffffffffffffffff021916908373ffffffffffffffffffffffffffffffffffffffff1602179055508173ffffffffffffffffffffffffffffffffffffffff168173ffffffffffffffffffffffffffffffffffffffff167f8be0079c531659141344cd1fd0a4f28419497f9722a3daafe3b4186f6b6457e060405160405180910390a35050565b60008282604051602001611eca9291906142bd565b60405160208183030381529060405280519060200120905092915050565b60008282604051602001611efd9291906142e9565b60405160208183030381529060405280519060200120905092915050565b600081600001549050919050565b611f438282604051806020016040528060008152506124bb565b5050565b6001816000016000828254019250508190555050565b8173ffffffffffffffffffffffffffffffffffffffff168373ffffffffffffffffffffffffffffffffffffffff161415611fcc576040517f08c379a0000000000000000000000000000000000000000000000000000000008152600401611fc390614361565b60405180910390fd5b80606a60008573ffffffffffffffffffffffffffffffffffffffff1673ffffffffffffffffffffffffffffffffffffffff16815260200190815260200160002060008473ffffffffffffffffffffffffffffffffffffffff1673ffffffffffffffffffffffffffffffffffffffff16815260200190815260200160002060006101000a81548160ff0219169083151502179055508173ffffffffffffffffffffffffffffffffffffffff168373ffffffffffffffffffffffffffffffffffffffff167f17307eab39ab6107e8899845ad3d59bd9653f200f220920489ca2b5937696c31836040516120bd9190612e24565b60405180910390a3505050565b6120d58484846119ba565b6120e184848484612516565b612120576040517f08c379a0000000000000000000000000000000000000000000000000000000008152600401612117906143f3565b60405180910390fd5b50505050565b6000808273ffffffffffffffffffffffffffffffffffffffff163b119050919050565b600060019054906101000a900460ff16612198576040517f08c379a000000000000000000000000000000000000000000000000000000000815260040161218f90614485565b60405180910390fd5b6121a282826126ad565b5050565b600060019054906101000a900460ff166121f5576040517f08c379a00000000000000000000000000000000000000000000000000000000081526004016121ec90614485565b60405180910390fd5b6121fd61272e565b565b600060019054906101000a900460ff1661224e576040517f08c379a000000000000000000000000000000000000000000000000000000000815260040161224590614485565b60405180910390fd5b61225661278f565b8060c960006101000a81548173ffffffffffffffffffffffffffffffffffffffff021916908373ffffffffffffffffffffffffffffffffffffffff16021790555050565b60007f01ffc9a7000000000000000000000000000000000000000000000000000000007bffffffffffffffffffffffffffffffffffffffffffffffffffffffff1916827bffffffffffffffffffffffffffffffffffffffffffffffffffffffff1916149050919050565b60008073ffffffffffffffffffffffffffffffffffffffff166067600084815260200190815260200160002060009054906101000a900473ffffffffffffffffffffffffffffffffffffffff1673ffffffffffffffffffffffffffffffffffffffff1614159050919050565b600061237b33610afc565b1561238f57601436033560601c905061239e565b6123976127e0565b905061239f565b5b90565b6123ad8383836127e8565b600073ffffffffffffffffffffffffffffffffffffffff168373ffffffffffffffffffffffffffffffffffffffff1614156123f0576123eb816127ed565b61242f565b8173ffffffffffffffffffffffffffffffffffffffff168373ffffffffffffffffffffffffffffffffffffffff161461242e5761242d8382612836565b5b5b600073ffffffffffffffffffffffffffffffffffffffff168273ffffffffffffffffffffffffffffffffffffffff1614156124725761246d816129a3565b6124b1565b8273ffffffffffffffffffffffffffffffffffffffff168273ffffffffffffffffffffffffffffffffffffffff16146124b0576124af8282612a74565b5b5b505050565b505050565b6124c58383612af3565b6124d26000848484612516565b612511576040517f08c379a0000000000000000000000000000000000000000000000000000000008152600401612508906143f3565b60405180910390fd5b505050565b60006125378473ffffffffffffffffffffffffffffffffffffffff16612126565b156126a0578373ffffffffffffffffffffffffffffffffffffffff1663150b7a0261256061183a565b8786866040518563ffffffff1660e01b815260040161258294939291906144fa565b602060405180830381600087803b15801561259c57600080fd5b505af19250505080156125cd57506040513d601f19601f820116820180604052508101906125ca919061455b565b60015b612650573d80600081146125fd576040519150601f19603f3d011682016040523d82523d6000602084013e612602565b606091505b50600081511415612648576040517f08c379a000000000000000000000000000000000000000000000000000000000815260040161263f906143f3565b60405180910390fd5b805181602001fd5b63150b7a0260e01b7bffffffffffffffffffffffffffffffffffffffffffffffffffffffff1916817bffffffffffffffffffffffffffffffffffffffffffffffffffffffff1916149150506126a5565b600190505b949350505050565b600060019054906101000a900460ff166126fc576040517f08c379a00000000000000000000000000000000000000000000000000000000081526004016126f390614485565b60405180910390fd5b8160659080519060200190612712929190612ccd565b508060669080519060200190612729929190612ccd565b505050565b600060019054906101000a900460ff1661277d576040517f08c379a000000000000000000000000000000000000000000000000000000000815260040161277490614485565b60405180910390fd5b61278d61278861183a565b611def565b565b600060019054906101000a900460ff166127de576040517f08c379a00000000000000000000000000000000000000000000000000000000081526004016127d590614485565b60405180910390fd5b565b600033905090565b505050565b609980549050609a600083815260200190815260200160002081905550609981908060018154018082558091505060019003906000526020600020016000909190919091505550565b6000600161284384610c08565b61284d9190613cfa565b9050600060986000848152602001908152602001600020549050818114612932576000609760008673ffffffffffffffffffffffffffffffffffffffff1673ffffffffffffffffffffffffffffffffffffffff168152602001908152602001600020600084815260200190815260200160002054905080609760008773ffffffffffffffffffffffffffffffffffffffff1673ffffffffffffffffffffffffffffffffffffffff168152602001908152602001600020600084815260200190815260200160002081905550816098600083815260200190815260200160002081905550505b6098600084815260200190815260200160002060009055609760008573ffffffffffffffffffffffffffffffffffffffff1673ffffffffffffffffffffffffffffffffffffffff16815260200190815260200160002060008381526020019081526020016000206000905550505050565b600060016099805490506129b79190613cfa565b90506000609a60008481526020019081526020016000205490506000609983815481106129e7576129e6613b9e565b5b906000526020600020015490508060998381548110612a0957612a08613b9e565b5b906000526020600020018190555081609a600083815260200190815260200160002081905550609a6000858152602001908152602001600020600090556099805480612a5857612a57614588565b5b6001900381819060005260206000200160009055905550505050565b6000612a7f83610c08565b905081609760008573ffffffffffffffffffffffffffffffffffffffff1673ffffffffffffffffffffffffffffffffffffffff168152602001908152602001600020600083815260200190815260200160002081905550806098600084815260200190815260200160002081905550505050565b600073ffffffffffffffffffffffffffffffffffffffff168273ffffffffffffffffffffffffffffffffffffffff161415612b63576040517f08c379a0000000000000000000000000000000000000000000000000000000008152600401612b5a90614603565b60405180910390fd5b612b6c81612304565b15612bac576040517f08c379a0000000000000000000000000000000000000000000000000000000008152600401612ba39061466f565b60405180910390fd5b612bb8600083836123a2565b6001606860008473ffffffffffffffffffffffffffffffffffffffff1673ffffffffffffffffffffffffffffffffffffffff1681526020019081526020016000206000828254612c089190613d2e565b92505081905550816067600083815260200190815260200160002060006101000a81548173ffffffffffffffffffffffffffffffffffffffff021916908373ffffffffffffffffffffffffffffffffffffffff160217905550808273ffffffffffffffffffffffffffffffffffffffff16600073ffffffffffffffffffffffffffffffffffffffff167fddf252ad1be2c89b69c2b068fc378daa952ba7f163c4a11628f55a4df523b3ef60405160405180910390a4612cc9600083836124b6565b5050565b828054612cd99061374e565b90600052602060002090601f016020900481019282612cfb5760008555612d42565b82601f10612d1457805160ff1916838001178555612d42565b82800160010185558215612d42579182015b82811115612d41578251825591602001919060010190612d26565b5b509050612d4f9190612d53565b5090565b5b80821115612d6c576000816000905550600101612d54565b5090565b6000604051905090565b600080fd5b600080fd5b60007fffffffff0000000000000000000000000000000000000000000000000000000082169050919050565b612db981612d84565b8114612dc457600080fd5b50565b600081359050612dd681612db0565b92915050565b600060208284031215612df257612df1612d7a565b5b6000612e0084828501612dc7565b91505092915050565b60008115159050919050565b612e1e81612e09565b82525050565b6000602082019050612e396000830184612e15565b92915050565b600081519050919050565b600082825260208201905092915050565b60005b83811015612e79578082015181840152602081019050612e5e565b83811115612e88576000848401525b50505050565b6000601f19601f8301169050919050565b6000612eaa82612e3f565b612eb48185612e4a565b9350612ec4818560208601612e5b565b612ecd81612e8e565b840191505092915050565b60006020820190508181036000830152612ef28184612e9f565b905092915050565b6000819050919050565b612f0d81612efa565b8114612f1857600080fd5b50565b600081359050612f2a81612f04565b92915050565b600060208284031215612f4657612f45612d7a565b5b6000612f5484828501612f1b565b91505092915050565b600073ffffffffffffffffffffffffffffffffffffffff82169050919050565b6000612f8882612f5d565b9050919050565b612f9881612f7d565b82525050565b6000602082019050612fb36000830184612f8f565b92915050565b612fc281612f7d565b8114612fcd57600080fd5b50565b600081359050612fdf81612fb9565b92915050565b60008060408385031215612ffc57612ffb612d7a565b5b600061300a85828601612fd0565b925050602061301b85828601612f1b565b9150509250929050565b61302e81612efa565b82525050565b60006020820190506130496000830184613025565b92915050565b60008060006060848603121561306857613067612d7a565b5b600061307686828701612fd0565b935050602061308786828701612fd0565b925050604061309886828701612f1b565b9150509250925092565b600080fd5b600080fd5b7f4e487b7100000000000000000000000000000000000000000000000000000000600052604160045260246000fd5b6130e482612e8e565b810181811067ffffffffffffffff82111715613103576131026130ac565b5b80604052505050565b6000613116612d70565b905061312282826130db565b919050565b600067ffffffffffffffff821115613142576131416130ac565b5b61314b82612e8e565b9050602081019050919050565b82818337600083830152505050565b600061317a61317584613127565b61310c565b905082815260208101848484011115613196576131956130a7565b5b6131a1848285613158565b509392505050565b600082601f8301126131be576131bd6130a2565b5b81356131ce848260208601613167565b91505092915050565b600080604083850312156131ee576131ed612d7a565b5b60006131fc85828601612f1b565b925050602083013567ffffffffffffffff81111561321d5761321c612d7f565b5b613229858286016131a9565b9150509250929050565b60006020828403121561324957613248612d7a565b5b600061325784828501612fd0565b91505092915050565b60008060006060848603121561327957613278612d7a565b5b600061328786828701612f1b565b935050602061329886828701612f1b565b925050604084013567ffffffffffffffff8111156132b9576132b8612d7f565b5b6132c5868287016131a9565b9150509250925092565b6132d881612e09565b81146132e357600080fd5b50565b6000813590506132f5816132cf565b92915050565b6000806040838503121561331257613311612d7a565b5b600061332085828601612fd0565b9250506020613331858286016132e6565b9150509250929050565b600067ffffffffffffffff821115613356576133556130ac565b5b61335f82612e8e565b9050602081019050919050565b600061337f61337a8461333b565b61310c565b90508281526020810184848401111561339b5761339a6130a7565b5b6133a6848285613158565b509392505050565b600082601f8301126133c3576133c26130a2565b5b81356133d384826020860161336c565b91505092915050565b600080600080608085870312156133f6576133f5612d7a565b5b600061340487828801612fd0565b945050602061341587828801612fd0565b935050604061342687828801612f1b565b925050606085013567ffffffffffffffff81111561344757613446612d7f565b5b613453878288016133ae565b91505092959194509250565b600061346a82612f7d565b9050919050565b61347a8161345f565b811461348557600080fd5b50565b60008135905061349781613471565b92915050565b6000602082840312156134b3576134b2612d7a565b5b60006134c184828501613488565b91505092915050565b600080604083850312156134e1576134e0612d7a565b5b60006134ef85828601612fd0565b925050602061350085828601612fd0565b9150509250929050565b6000819050919050565b61351d8161350a565b811461352857600080fd5b50565b60008135905061353a81613514565b92915050565b600067ffffffffffffffff82111561355b5761355a6130ac565b5b602082029050602081019050919050565b600080fd5b600080fd5b600080fd5b60006040828403121561359157613590613571565b5b61359b604061310c565b9050600082013567ffffffffffffffff8111156135bb576135ba613576565b5b6135c7848285016131a9565b60008301525060206135db84828501612f1b565b60208301525092915050565b60006135fa6135f584613540565b61310c565b9050808382526020820190506020840283018581111561361d5761361c61356c565b5b835b8181101561366457803567ffffffffffffffff811115613642576136416130a2565b5b80860161364f898261357b565b8552602085019450505060208101905061361f565b5050509392505050565b600082601f830112613683576136826130a2565b5b81356136938482602086016135e7565b91505092915050565b600080600080608085870312156136b6576136b5612d7a565b5b60006136c487828801612f1b565b94505060206136d587828801612f1b565b93505060406136e68782880161352b565b925050606085013567ffffffffffffffff81111561370757613706612d7f565b5b6137138782880161366e565b91505092959194509250565b7f4e487b7100000000000000000000000000000000000000000000000000000000600052602260045260246000fd5b6000600282049050600182168061376657607f821691505b6020821081141561377a5761377961371f565b5b50919050565b7f4552433732313a20617070726f76616c20746f2063757272656e74206f776e6560008201527f7200000000000000000000000000000000000000000000000000000000000000602082015250565b60006137dc602183612e4a565b91506137e782613780565b604082019050919050565b6000602082019050818103600083015261380b816137cf565b9050919050565b7f4552433732313a20617070726f76652063616c6c6572206973206e6f7420746f60008201527f6b656e206f776e6572206e6f7220617070726f76656420666f7220616c6c0000602082015250565b600061386e603e83612e4a565b915061387982613812565b604082019050919050565b6000602082019050818103600083015261389d81613861565b9050919050565b7f4552433732313a2063616c6c6572206973206e6f7420746f6b656e206f776e6560008201527f72206e6f7220617070726f766564000000000000000000000000000000000000602082015250565b6000613900602e83612e4a565b915061390b826138a4565b604082019050919050565b6000602082019050818103600083015261392f816138f3565b9050919050565b7f696e76616c696420736563726574207068726173650000000000000000000000600082015250565b600061396c601583612e4a565b915061397782613936565b602082019050919050565b6000602082019050818103600083015261399b8161395f565b9050919050565b7f72656d61696e696e6720636f756e74206973207a65726f000000000000000000600082015250565b60006139d8601783612e4a565b91506139e3826139a2565b602082019050919050565b60006020820190508181036000830152613a07816139cb565b9050919050565b7f616c7265616479206d696e746564000000000000000000000000000000000000600082015250565b6000613a44600e83612e4a565b9150613a4f82613a0e565b602082019050919050565b60006020820190508181036000830152613a7381613a37565b9050919050565b7f455243373231456e756d657261626c653a206f776e657220696e646578206f7560008201527f74206f6620626f756e6473000000000000000000000000000000000000000000602082015250565b6000613ad6602b83612e4a565b9150613ae182613a7a565b604082019050919050565b60006020820190508181036000830152613b0581613ac9565b9050919050565b7f455243373231456e756d657261626c653a20676c6f62616c20696e646578206f60008201527f7574206f6620626f756e64730000000000000000000000000000000000000000602082015250565b6000613b68602c83612e4a565b9150613b7382613b0c565b604082019050919050565b60006020820190508181036000830152613b9781613b5b565b9050919050565b7f4e487b7100000000000000000000000000000000000000000000000000000000600052603260045260246000fd5b7f4552433732313a20696e76616c696420746f6b656e2049440000000000000000600082015250565b6000613c03601883612e4a565b9150613c0e82613bcd565b602082019050919050565b60006020820190508181036000830152613c3281613bf6565b9050919050565b7f4552433732313a2061646472657373207a65726f206973206e6f74206120766160008201527f6c6964206f776e65720000000000000000000000000000000000000000000000602082015250565b6000613c95602983612e4a565b9150613ca082613c39565b604082019050919050565b60006020820190508181036000830152613cc481613c88565b9050919050565b7f4e487b7100000000000000000000000000000000000000000000000000000000600052601160045260246000fd5b6000613d0582612efa565b9150613d1083612efa565b925082821015613d2357613d22613ccb565b5b828203905092915050565b6000613d3982612efa565b9150613d4483612efa565b9250827fffffffffffffffffffffffffffffffffffffffffffffffffffffffffffffffff03821115613d7957613d78613ccb565b5b828201905092915050565b600081905092915050565b50565b6000613d9f600083613d84565b9150613daa82613d8f565b600082019050919050565b6000613dc082613d92565b9150819050919050565b6000613dd582612e3f565b613ddf8185613d84565b9350613def818560208601612e5b565b80840191505092915050565b6000613e078284613dca565b915081905092915050565b7f6576656e74206d616e61676572206164647265737320697320626c616e6b0000600082015250565b6000613e48601e83612e4a565b9150613e5382613e12565b602082019050919050565b60006020820190508181036000830152613e7781613e3b565b9050919050565b7f496e697469616c697a61626c653a20636f6e747261637420697320616c72656160008201527f647920696e697469616c697a6564000000000000000000000000000000000000602082015250565b6000613eda602e83612e4a565b9150613ee582613e7e565b604082019050919050565b60006020820190508181036000830152613f0981613ecd565b9050919050565b6000819050919050565b600060ff82169050919050565b6000819050919050565b6000613f4c613f47613f4284613f10565b613f27565b613f1a565b9050919050565b613f5c81613f31565b82525050565b6000602082019050613f776000830184613f53565b92915050565b7f756e617574686f72697a65640000000000000000000000000000000000000000600082015250565b6000613fb3600c83612e4a565b9150613fbe82613f7d565b602082019050919050565b60006020820190508181036000830152613fe281613fa6565b9050919050565b6000613ff482612efa565b91507fffffffffffffffffffffffffffffffffffffffffffffffffffffffffffffffff82141561402757614026613ccb565b5b600182019050919050565b7f4f776e61626c653a206e6577206f776e657220697320746865207a65726f206160008201527f6464726573730000000000000000000000000000000000000000000000000000602082015250565b600061408e602683612e4a565b915061409982614032565b604082019050919050565b600060208201905081810360008301526140bd81614081565b9050919050565b7f4552433732313a207472616e736665722066726f6d20696e636f72726563742060008201527f6f776e6572000000000000000000000000000000000000000000000000000000602082015250565b6000614120602583612e4a565b915061412b826140c4565b604082019050919050565b6000602082019050818103600083015261414f81614113565b9050919050565b7f4552433732313a207472616e7366657220746f20746865207a65726f2061646460008201527f7265737300000000000000000000000000000000000000000000000000000000602082015250565b60006141b2602483612e4a565b91506141bd82614156565b604082019050919050565b600060208201905081810360008301526141e1816141a5565b9050919050565b7f4f776e61626c653a2063616c6c6572206973206e6f7420746865206f776e6572600082015250565b600061421e602083612e4a565b9150614229826141e8565b602082019050919050565b6000602082019050818103600083015261424d81614211565b9050919050565b60008160601b9050919050565b600061426c82614254565b9050919050565b600061427e82614261565b9050919050565b61429661429182612f7d565b614273565b82525050565b6000819050919050565b6142b76142b282612efa565b61429c565b82525050565b60006142c98285614285565b6014820191506142d982846142a6565b6020820191508190509392505050565b60006142f582856142a6565b60208201915061430582846142a6565b6020820191508190509392505050565b7f4552433732313a20617070726f766520746f2063616c6c657200000000000000600082015250565b600061434b601983612e4a565b915061435682614315565b602082019050919050565b6000602082019050818103600083015261437a8161433e565b9050919050565b7f4552433732313a207472616e7366657220746f206e6f6e20455243373231526560008201527f63656976657220696d706c656d656e7465720000000000000000000000000000602082015250565b60006143dd603283612e4a565b91506143e882614381565b604082019050919050565b6000602082019050818103600083015261440c816143d0565b9050919050565b7f496e697469616c697a61626c653a20636f6e7472616374206973206e6f74206960008201527f6e697469616c697a696e67000000000000000000000000000000000000000000602082015250565b600061446f602b83612e4a565b915061447a82614413565b604082019050919050565b6000602082019050818103600083015261449e81614462565b9050919050565b600081519050919050565b600082825260208201905092915050565b60006144cc826144a5565b6144d681856144b0565b93506144e6818560208601612e5b565b6144ef81612e8e565b840191505092915050565b600060808201905061450f6000830187612f8f565b61451c6020830186612f8f565b6145296040830185613025565b818103606083015261453b81846144c1565b905095945050505050565b60008151905061455581612db0565b92915050565b60006020828403121561457157614570612d7a565b5b600061457f84828501614546565b91505092915050565b7f4e487b7100000000000000000000000000000000000000000000000000000000600052603160045260246000fd5b7f4552433732313a206d696e7420746f20746865207a65726f2061646472657373600082015250565b60006145ed602083612e4a565b91506145f8826145b7565b602082019050919050565b6000602082019050818103600083015261461c816145e0565b9050919050565b7f4552433732313a20746f6b656e20616c7265616479206d696e74656400000000600082015250565b6000614659601c83612e4a565b915061466482614623565b602082019050919050565b600060208201905081810360008301526146888161464c565b905091905056fea2646970667358221220d785fb0727016053b16db2110929a2e8191a46b15bd5db76b86b3d43c8d7e3f164736f6c63430008090033",
  "linkReferences": {},
  "deployedLinkReferences": {}
}